{
  "address": "0xDDc9017F3073aa53a4A8535163b0bf7311F72C52",
  "abi": [
    {
      "inputs": [],
      "name": "ZeroAddressNotAllowed",
      "type": "error"
    },
    {
      "anonymous": false,
      "inputs": [
        {
          "indexed": true,
          "internalType": "address",
          "name": "previousOwner",
          "type": "address"
        },
        {
          "indexed": true,
          "internalType": "address",
          "name": "newOwner",
          "type": "address"
        }
      ],
      "name": "OwnershipTransferStarted",
      "type": "event"
    },
    {
      "anonymous": false,
      "inputs": [
        {
          "indexed": true,
          "internalType": "address",
          "name": "previousOwner",
          "type": "address"
        },
        {
          "indexed": true,
          "internalType": "address",
          "name": "newOwner",
          "type": "address"
        }
      ],
      "name": "OwnershipTransferred",
      "type": "event"
    },
    {
      "anonymous": false,
      "inputs": [
        {
          "indexed": false,
          "internalType": "uint256",
          "name": "withdrawAmount",
          "type": "uint256"
        },
        {
          "indexed": true,
          "internalType": "address",
          "name": "withdrawAddress",
          "type": "address"
        }
      ],
      "name": "WithdrawTreasuryNative",
      "type": "event"
    },
    {
      "anonymous": false,
      "inputs": [
        {
          "indexed": true,
          "internalType": "address",
          "name": "tokenAddress",
          "type": "address"
        },
        {
          "indexed": false,
          "internalType": "uint256",
          "name": "withdrawAmount",
          "type": "uint256"
        },
        {
          "indexed": true,
          "internalType": "address",
          "name": "withdrawAddress",
          "type": "address"
        }
      ],
      "name": "WithdrawTreasuryToken",
      "type": "event"
    },
    {
      "stateMutability": "payable",
      "type": "fallback"
    },
    {
      "inputs": [],
      "name": "acceptOwnership",
      "outputs": [],
      "stateMutability": "nonpayable",
      "type": "function"
    },
    {
      "inputs": [],
      "name": "owner",
      "outputs": [
        {
          "internalType": "address",
          "name": "",
          "type": "address"
        }
      ],
      "stateMutability": "view",
      "type": "function"
    },
    {
      "inputs": [],
      "name": "pendingOwner",
      "outputs": [
        {
          "internalType": "address",
          "name": "",
          "type": "address"
        }
      ],
      "stateMutability": "view",
      "type": "function"
    },
    {
      "inputs": [],
      "name": "renounceOwnership",
      "outputs": [],
      "stateMutability": "nonpayable",
      "type": "function"
    },
    {
      "inputs": [
        {
          "internalType": "address",
          "name": "newOwner",
          "type": "address"
        }
      ],
      "name": "transferOwnership",
      "outputs": [],
      "stateMutability": "nonpayable",
      "type": "function"
    },
    {
      "inputs": [
        {
          "internalType": "uint256",
          "name": "withdrawAmount",
          "type": "uint256"
        },
        {
          "internalType": "address payable",
          "name": "withdrawAddress",
          "type": "address"
        }
      ],
      "name": "withdrawTreasuryNative",
      "outputs": [],
      "stateMutability": "payable",
      "type": "function"
    },
    {
      "inputs": [
        {
          "internalType": "address",
          "name": "tokenAddress",
          "type": "address"
        },
        {
          "internalType": "uint256",
          "name": "withdrawAmount",
          "type": "uint256"
        },
        {
          "internalType": "address",
          "name": "withdrawAddress",
          "type": "address"
        }
      ],
      "name": "withdrawTreasuryToken",
      "outputs": [],
      "stateMutability": "nonpayable",
      "type": "function"
    },
    {
      "stateMutability": "payable",
      "type": "receive"
    }
  ],
  "transactionHash": "0x929bc4bd8060d6501146823f90a123ea4c614a887d2e9616bf23e3b542e5afd8",
  "args": [],
  "numDeployments": 1,
  "solcInputHash": "eec1a81bf1f62fa3d37a473878008333",
  "bytecode": "0x608060405234801561001057600080fd5b5061001a33610024565b6001600255610090565b600180546001600160a01b031916905561003d81610040565b50565b600080546001600160a01b038381166001600160a01b0319831681178455604051919092169283917f8be0079c531659141344cd1fd0a4f28419497f9722a3daafe3b4186f6b6457e09190a35050565b610a8e8061009f6000396000f3fe60806040526004361061006e5760003560e01c80638da5cb5b1161004b5780638da5cb5b146100c1578063e30c3978146100f7578063f2fde38b14610115578063fed7036e1461013557005b8063715018a61461007757806374c17a351461008c57806379ba5097146100ac57005b3661007557005b005b34801561008357600080fd5b50610075610148565b34801561009857600080fd5b506100756100a7366004610914565b61015c565b3480156100b857600080fd5b506100756102c0565b3480156100cd57600080fd5b506000546001600160a01b03165b6040516001600160a01b03909116815260200160405180910390f35b34801561010357600080fd5b506001546001600160a01b03166100db565b34801561012157600080fd5b50610075610130366004610956565b61033a565b61007561014336600461097a565b6103ab565b610150610507565b61015a6000610561565b565b610164610507565b61016c61057a565b610175836105d1565b61017e816105d1565b600082116101d35760405162461bcd60e51b815260206004820152601f60248201527f7769746864726177416d6f756e74206d757374206e6f74206265207a65726f0060448201526064015b60405180910390fd5b6040516370a0823160e01b815230600482015282906000906001600160a01b038616906370a0823190602401602060405180830381865afa15801561021c573d6000803e3d6000fd5b505050506040513d601f19601f8201168201806040525081019061024091906109aa565b90508084111561024e578091505b6102626001600160a01b03861684846105f8565b826001600160a01b0316856001600160a01b03167f6d043f5c542a67e836c8f8bdf640d0de840c85d79c130dcbda8d42c9c056980c846040516102a791815260200190565b60405180910390a350506102bb6001600255565b505050565b60015433906001600160a01b0316811461032e5760405162461bcd60e51b815260206004820152602960248201527f4f776e61626c6532537465703a2063616c6c6572206973206e6f7420746865206044820152683732bb9037bbb732b960b91b60648201526084016101ca565b61033781610561565b50565b610342610507565b600180546001600160a01b0383166001600160a01b031990911681179091556103736000546001600160a01b031690565b6001600160a01b03167f38d16b8cac22d99fc7c124b9cd0de2d3fa1faef420bfe791d8c362d765e2270060405160405180910390a350565b6103b3610507565b6103bb61057a565b6103c4816105d1565b600082116104145760405162461bcd60e51b815260206004820152601f60248201527f7769746864726177416d6f756e74206d757374206e6f74206265207a65726f0060448201526064016101ca565b814780821115610422578091505b6000836001600160a01b03168360405160006040518083038185875af1925050503d806000811461046f576040519150601f19603f3d011682016040523d82523d6000602084013e610474565b606091505b50509050806104b35760405162461bcd60e51b815260206004820152600b60248201526a10d85b1b0819985a5b195960aa1b60448201526064016101ca565b836001600160a01b03167f41448dfa44379fc602c636f8939b0b1b598c481af871c76fbdd8bdfcdaf30dfa846040516104ee91815260200190565b60405180910390a25050506105036001600255565b5050565b6000546001600160a01b0316331461015a5760405162461bcd60e51b815260206004820181905260248201527f4f776e61626c653a2063616c6c6572206973206e6f7420746865206f776e657260448201526064016101ca565b600180546001600160a01b03191690556103378161064a565b60028054036105cb5760405162461bcd60e51b815260206004820152601f60248201527f5265656e7472616e637947756172643a207265656e7472616e742063616c6c0060448201526064016101ca565b60028055565b6001600160a01b038116610337576040516342bcdf7f60e11b815260040160405180910390fd5b604080516001600160a01b038416602482015260448082018490528251808303909101815260649091019091526020810180516001600160e01b031663a9059cbb60e01b1790526102bb90849061069a565b600080546001600160a01b038381166001600160a01b0319831681178455604051919092169283917f8be0079c531659141344cd1fd0a4f28419497f9722a3daafe3b4186f6b6457e09190a35050565b60006106ef826040518060400160405280602081526020017f5361666545524332303a206c6f772d6c6576656c2063616c6c206661696c6564815250856001600160a01b031661076f9092919063ffffffff16565b905080516000148061071057508080602001905181019061071091906109c3565b6102bb5760405162461bcd60e51b815260206004820152602a60248201527f5361666545524332303a204552433230206f7065726174696f6e20646964206e6044820152691bdd081cdd58d8d9595960b21b60648201526084016101ca565b606061077e8484600085610786565b949350505050565b6060824710156107e75760405162461bcd60e51b815260206004820152602660248201527f416464726573733a20696e73756666696369656e742062616c616e636520666f6044820152651c8818d85b1b60d21b60648201526084016101ca565b600080866001600160a01b031685876040516108039190610a09565b60006040518083038185875af1925050503d8060008114610840576040519150601f19603f3d011682016040523d82523d6000602084013e610845565b606091505b509150915061085687838387610861565b979650505050505050565b606083156108d05782516000036108c9576001600160a01b0385163b6108c95760405162461bcd60e51b815260206004820152601d60248201527f416464726573733a2063616c6c20746f206e6f6e2d636f6e747261637400000060448201526064016101ca565b508161077e565b61077e83838151156108e55781518083602001fd5b8060405162461bcd60e51b81526004016101ca9190610a25565b6001600160a01b038116811461033757600080fd5b60008060006060848603121561092957600080fd5b8335610934816108ff565b925060208401359150604084013561094b816108ff565b809150509250925092565b60006020828403121561096857600080fd5b8135610973816108ff565b9392505050565b6000806040838503121561098d57600080fd5b82359150602083013561099f816108ff565b809150509250929050565b6000602082840312156109bc57600080fd5b5051919050565b6000602082840312156109d557600080fd5b8151801515811461097357600080fd5b60005b83811015610a005781810151838201526020016109e8565b50506000910152565b60008251610a1b8184602087016109e5565b9190910192915050565b6020815260008251806020840152610a448160408501602087016109e5565b601f01601f1916919091016040019291505056fea264697066735822122093d87330f42b9bcbf754eefc1d04b5e948eb71f5034a7230cd66aec48234e18264736f6c63430008140033",
  "devdoc": {
    "author": "Venus",
    "kind": "dev",
    "methods": {
      "acceptOwnership()": {
        "details": "The new owner accepts the ownership transfer."
      },
      "owner()": {
        "details": "Returns the address of the current owner."
      },
      "pendingOwner()": {
        "details": "Returns the address of the pending owner."
      },
      "renounceOwnership()": {
        "details": "Leaves the contract without owner. It will not be possible to call `onlyOwner` functions. Can only be called by the current owner. NOTE: Renouncing ownership will leave the contract without an owner, thereby disabling any functionality that is only available to the owner."
      },
      "transferOwnership(address)": {
        "details": "Starts the ownership transfer of the contract to a new account. Replaces the pending transfer if there is one. Can only be called by the current owner."
      },
      "withdrawTreasuryNative(uint256,address)": {
        "custom:error": "ZeroAddressNotAllowed thrown when withdrawAddress is zero.",
        "params": {
          "withdrawAddress": "The withdraw address",
          "withdrawAmount": "The withdraw amount to owner"
        }
      },
      "withdrawTreasuryToken(address,uint256,address)": {
        "custom:error": "ZeroAddressNotAllowed thrown when token or withdrawAddress is zero.",
        "params": {
          "tokenAddress": "The address of treasury token",
          "withdrawAddress": "The withdraw address",
          "withdrawAmount": "The withdraw amount to owner"
        }
      }
    },
    "title": "VTreasuryV8",
    "version": 1
  },
  "userdoc": {
    "errors": {
      "ZeroAddressNotAllowed()": [
        {
          "notice": "Thrown if the supplied address is a zero address where it is not allowed"
        }
      ]
    },
    "kind": "user",
    "methods": {
      "withdrawTreasuryNative(uint256,address)": {
        "notice": "Withdraw Treasury Native, Only owner call it"
      },
      "withdrawTreasuryToken(address,uint256,address)": {
        "notice": "Withdraw Treasury  Tokens, Only owner call it"
      }
    },
    "notice": "Protocol treasury that holds tokens owned by Venus",
    "version": 1
  },
  "storageLayout": {
    "storage": [
      {
        "astId": 3126,
        "contract": "contracts/Governance/VTreasuryV8.sol:VTreasuryV8",
        "label": "_owner",
        "offset": 0,
        "slot": "0",
        "type": "t_address"
      },
      {
        "astId": 3239,
        "contract": "contracts/Governance/VTreasuryV8.sol:VTreasuryV8",
        "label": "_pendingOwner",
        "offset": 0,
        "slot": "1",
        "type": "t_address"
      },
      {
        "astId": 3325,
        "contract": "contracts/Governance/VTreasuryV8.sol:VTreasuryV8",
        "label": "_status",
        "offset": 0,
        "slot": "2",
        "type": "t_uint256"
      }
    ],
    "types": {
      "t_address": {
        "encoding": "inplace",
        "label": "address",
        "numberOfBytes": "20"
      },
      "t_uint256": {
        "encoding": "inplace",
        "label": "uint256",
        "numberOfBytes": "32"
      }
    }
  }
}