{
  "address": "0xc3279442a5aCaCF0A2EcB015d1cDDBb3E0f3F775",
  "abi": [
    {
      "inputs": [],
      "payable": false,
      "stateMutability": "nonpayable",
      "type": "constructor"
    },
    {
      "anonymous": false,
      "inputs": [
        {
          "indexed": true,
          "internalType": "address",
          "name": "user",
          "type": "address"
        },
        {
          "indexed": true,
          "internalType": "address",
          "name": "rewardToken",
          "type": "address"
        },
        {
          "indexed": true,
          "internalType": "uint256",
          "name": "pid",
          "type": "uint256"
        },
        {
          "indexed": false,
          "internalType": "uint256",
          "name": "amount",
          "type": "uint256"
        }
      ],
      "name": "Claim",
      "type": "event"
    },
    {
      "anonymous": false,
      "inputs": [
        {
          "indexed": true,
          "internalType": "address",
          "name": "delegator",
          "type": "address"
        },
        {
          "indexed": true,
          "internalType": "address",
          "name": "fromDelegate",
          "type": "address"
        },
        {
          "indexed": true,
          "internalType": "address",
          "name": "toDelegate",
          "type": "address"
        }
      ],
      "name": "DelegateChangedV2",
      "type": "event"
    },
    {
      "anonymous": false,
      "inputs": [
        {
          "indexed": true,
          "internalType": "address",
          "name": "delegate",
          "type": "address"
        },
        {
          "indexed": false,
          "internalType": "uint256",
          "name": "previousBalance",
          "type": "uint256"
        },
        {
          "indexed": false,
          "internalType": "uint256",
          "name": "newBalance",
          "type": "uint256"
        }
      ],
      "name": "DelegateVotesChangedV2",
      "type": "event"
    },
    {
      "anonymous": false,
      "inputs": [
        {
          "indexed": true,
          "internalType": "address",
          "name": "user",
          "type": "address"
        },
        {
          "indexed": true,
          "internalType": "address",
          "name": "rewardToken",
          "type": "address"
        },
        {
          "indexed": true,
          "internalType": "uint256",
          "name": "pid",
          "type": "uint256"
        },
        {
          "indexed": false,
          "internalType": "uint256",
          "name": "amount",
          "type": "uint256"
        }
      ],
      "name": "Deposit",
      "type": "event"
    },
    {
      "anonymous": false,
      "inputs": [
        {
          "indexed": true,
          "internalType": "address",
          "name": "user",
          "type": "address"
        },
        {
          "indexed": true,
          "internalType": "address",
          "name": "rewardToken",
          "type": "address"
        },
        {
          "indexed": true,
          "internalType": "uint256",
          "name": "pid",
          "type": "uint256"
        },
        {
          "indexed": false,
          "internalType": "uint256",
          "name": "amount",
          "type": "uint256"
        }
      ],
      "name": "ExecutedWithdrawal",
      "type": "event"
    },
    {
      "anonymous": false,
      "inputs": [
        {
          "indexed": false,
          "internalType": "address",
          "name": "oldAccessControlManager",
          "type": "address"
        },
        {
          "indexed": false,
          "internalType": "address",
          "name": "newAccessControlManager",
          "type": "address"
        }
      ],
      "name": "NewAccessControlManager",
      "type": "event"
    },
    {
      "anonymous": false,
      "inputs": [
        {
          "indexed": true,
          "internalType": "contract IPrime",
          "name": "oldPrimeToken",
          "type": "address"
        },
        {
          "indexed": true,
          "internalType": "contract IPrime",
          "name": "newPrimeToken",
          "type": "address"
        },
        {
          "indexed": false,
          "internalType": "address",
          "name": "oldPrimeRewardToken",
          "type": "address"
        },
        {
          "indexed": false,
          "internalType": "address",
          "name": "newPrimeRewardToken",
          "type": "address"
        },
        {
          "indexed": false,
          "internalType": "uint256",
          "name": "oldPrimePoolId",
          "type": "uint256"
        },
        {
          "indexed": false,
          "internalType": "uint256",
          "name": "newPrimePoolId",
          "type": "uint256"
        }
      ],
      "name": "NewPrimeToken",
      "type": "event"
    },
    {
      "anonymous": false,
      "inputs": [
        {
          "indexed": true,
          "internalType": "address",
          "name": "rewardToken",
          "type": "address"
        },
        {
          "indexed": true,
          "internalType": "uint256",
          "name": "pid",
          "type": "uint256"
        },
        {
          "indexed": true,
          "internalType": "address",
          "name": "token",
          "type": "address"
        },
        {
          "indexed": false,
          "internalType": "uint256",
          "name": "allocPoints",
          "type": "uint256"
        },
        {
          "indexed": false,
          "internalType": "uint256",
          "name": "rewardPerBlock",
          "type": "uint256"
        },
        {
          "indexed": false,
          "internalType": "uint256",
          "name": "lockPeriod",
          "type": "uint256"
        }
      ],
      "name": "PoolAdded",
      "type": "event"
    },
    {
      "anonymous": false,
      "inputs": [
        {
          "indexed": true,
          "internalType": "address",
          "name": "rewardToken",
          "type": "address"
        },
        {
          "indexed": true,
          "internalType": "uint256",
          "name": "pid",
          "type": "uint256"
        },
        {
          "indexed": false,
          "internalType": "uint256",
          "name": "oldAllocPoints",
          "type": "uint256"
        },
        {
          "indexed": false,
          "internalType": "uint256",
          "name": "newAllocPoints",
          "type": "uint256"
        }
      ],
      "name": "PoolUpdated",
      "type": "event"
    },
    {
      "anonymous": false,
      "inputs": [
        {
          "indexed": true,
          "internalType": "address",
          "name": "user",
          "type": "address"
        },
        {
          "indexed": true,
          "internalType": "address",
          "name": "rewardToken",
          "type": "address"
        },
        {
          "indexed": true,
          "internalType": "uint256",
          "name": "pid",
          "type": "uint256"
        },
        {
          "indexed": false,
          "internalType": "uint256",
          "name": "amount",
          "type": "uint256"
        }
      ],
      "name": "RequestedWithdrawal",
      "type": "event"
    },
    {
      "anonymous": false,
      "inputs": [
        {
          "indexed": true,
          "internalType": "address",
          "name": "rewardToken",
          "type": "address"
        },
        {
          "indexed": false,
          "internalType": "uint256",
          "name": "oldReward",
          "type": "uint256"
        },
        {
          "indexed": false,
          "internalType": "uint256",
          "name": "newReward",
          "type": "uint256"
        }
      ],
      "name": "RewardAmountUpdated",
      "type": "event"
    },
    {
      "anonymous": false,
      "inputs": [
        {
          "indexed": false,
          "internalType": "address",
          "name": "oldXvs",
          "type": "address"
        },
        {
          "indexed": false,
          "internalType": "address",
          "name": "oldStore",
          "type": "address"
        },
        {
          "indexed": false,
          "internalType": "address",
          "name": "newXvs",
          "type": "address"
        },
        {
          "indexed": false,
          "internalType": "address",
          "name": "newStore",
          "type": "address"
        }
      ],
      "name": "StoreUpdated",
      "type": "event"
    },
    {
      "anonymous": false,
      "inputs": [
        {
          "indexed": true,
          "internalType": "address",
          "name": "rewardToken",
          "type": "address"
        },
        {
          "indexed": true,
          "internalType": "address",
          "name": "userAddress",
          "type": "address"
        },
        {
          "indexed": false,
          "internalType": "uint256",
          "name": "oldOwedAmount",
          "type": "uint256"
        },
        {
          "indexed": false,
          "internalType": "uint256",
          "name": "newOwedAmount",
          "type": "uint256"
        }
      ],
      "name": "VaultDebtUpdated",
      "type": "event"
    },
    {
      "anonymous": false,
      "inputs": [
        {
          "indexed": true,
          "internalType": "address",
          "name": "admin",
          "type": "address"
        }
      ],
      "name": "VaultPaused",
      "type": "event"
    },
    {
      "anonymous": false,
      "inputs": [
        {
          "indexed": true,
          "internalType": "address",
          "name": "admin",
          "type": "address"
        }
      ],
      "name": "VaultResumed",
      "type": "event"
    },
    {
      "anonymous": false,
      "inputs": [
        {
          "indexed": true,
          "internalType": "address",
          "name": "rewardToken",
          "type": "address"
        },
        {
          "indexed": true,
          "internalType": "uint256",
          "name": "pid",
          "type": "uint256"
        },
        {
          "indexed": false,
          "internalType": "uint256",
          "name": "oldPeriod",
          "type": "uint256"
        },
        {
          "indexed": false,
          "internalType": "uint256",
          "name": "newPeriod",
          "type": "uint256"
        }
      ],
      "name": "WithdrawalLockingPeriodUpdated",
      "type": "event"
    },
    {
      "constant": true,
      "inputs": [],
      "name": "DELEGATION_TYPEHASH",
      "outputs": [
        {
          "internalType": "bytes32",
          "name": "",
          "type": "bytes32"
        }
      ],
      "payable": false,
      "stateMutability": "view",
      "type": "function"
    },
    {
      "constant": true,
      "inputs": [],
      "name": "DOMAIN_TYPEHASH",
      "outputs": [
        {
          "internalType": "bytes32",
          "name": "",
          "type": "bytes32"
        }
      ],
      "payable": false,
      "stateMutability": "view",
      "type": "function"
    },
    {
      "constant": true,
      "inputs": [],
      "name": "MAX_LOCK_PERIOD",
      "outputs": [
        {
          "internalType": "uint256",
          "name": "",
          "type": "uint256"
        }
      ],
      "payable": false,
      "stateMutability": "view",
      "type": "function"
    },
    {
      "constant": false,
      "inputs": [
        {
          "internalType": "contract XVSVaultProxy",
          "name": "xvsVaultProxy",
          "type": "address"
        }
      ],
      "name": "_become",
      "outputs": [],
      "payable": false,
      "stateMutability": "nonpayable",
      "type": "function"
    },
    {
      "constant": true,
      "inputs": [],
      "name": "accessControlManager",
      "outputs": [
        {
          "internalType": "contract IAccessControlManagerV5",
          "name": "",
          "type": "address"
        }
      ],
      "payable": false,
      "stateMutability": "view",
      "type": "function"
    },
    {
      "constant": false,
      "inputs": [
        {
          "internalType": "address",
          "name": "_rewardToken",
          "type": "address"
        },
        {
          "internalType": "uint256",
          "name": "_allocPoint",
          "type": "uint256"
        },
        {
          "internalType": "contract IBEP20",
          "name": "_token",
          "type": "address"
        },
        {
          "internalType": "uint256",
          "name": "_rewardPerBlock",
          "type": "uint256"
        },
        {
          "internalType": "uint256",
          "name": "_lockPeriod",
          "type": "uint256"
        }
      ],
      "name": "add",
      "outputs": [],
      "payable": false,
      "stateMutability": "nonpayable",
      "type": "function"
    },
    {
      "constant": true,
      "inputs": [],
      "name": "admin",
      "outputs": [
        {
          "internalType": "address",
          "name": "",
          "type": "address"
        }
      ],
      "payable": false,
      "stateMutability": "view",
      "type": "function"
    },
    {
      "constant": true,
      "inputs": [
        {
          "internalType": "address",
          "name": "",
          "type": "address"
        },
        {
          "internalType": "uint32",
          "name": "",
          "type": "uint32"
        }
      ],
      "name": "checkpoints",
      "outputs": [
        {
          "internalType": "uint32",
          "name": "fromBlock",
          "type": "uint32"
        },
        {
          "internalType": "uint96",
          "name": "votes",
          "type": "uint96"
        }
      ],
      "payable": false,
      "stateMutability": "view",
      "type": "function"
    },
    {
      "constant": false,
      "inputs": [
        {
          "internalType": "address",
          "name": "_account",
          "type": "address"
        },
        {
          "internalType": "address",
          "name": "_rewardToken",
          "type": "address"
        },
        {
          "internalType": "uint256",
          "name": "_pid",
          "type": "uint256"
        }
      ],
      "name": "claim",
      "outputs": [],
      "payable": false,
      "stateMutability": "nonpayable",
      "type": "function"
    },
    {
      "constant": false,
      "inputs": [
        {
          "internalType": "address",
          "name": "delegatee",
          "type": "address"
        }
      ],
      "name": "delegate",
      "outputs": [],
      "payable": false,
      "stateMutability": "nonpayable",
      "type": "function"
    },
    {
      "constant": false,
      "inputs": [
        {
          "internalType": "address",
          "name": "delegatee",
          "type": "address"
        },
        {
          "internalType": "uint256",
          "name": "nonce",
          "type": "uint256"
        },
        {
          "internalType": "uint256",
          "name": "expiry",
          "type": "uint256"
        },
        {
          "internalType": "uint8",
          "name": "v",
          "type": "uint8"
        },
        {
          "internalType": "bytes32",
          "name": "r",
          "type": "bytes32"
        },
        {
          "internalType": "bytes32",
          "name": "s",
          "type": "bytes32"
        }
      ],
      "name": "delegateBySig",
      "outputs": [],
      "payable": false,
      "stateMutability": "nonpayable",
      "type": "function"
    },
    {
      "constant": true,
      "inputs": [
        {
          "internalType": "address",
          "name": "",
          "type": "address"
        }
      ],
      "name": "delegates",
      "outputs": [
        {
          "internalType": "address",
          "name": "",
          "type": "address"
        }
      ],
      "payable": false,
      "stateMutability": "view",
      "type": "function"
    },
    {
      "constant": false,
      "inputs": [
        {
          "internalType": "address",
          "name": "_rewardToken",
          "type": "address"
        },
        {
          "internalType": "uint256",
          "name": "_pid",
          "type": "uint256"
        },
        {
          "internalType": "uint256",
          "name": "_amount",
          "type": "uint256"
        }
      ],
      "name": "deposit",
      "outputs": [],
      "payable": false,
      "stateMutability": "nonpayable",
      "type": "function"
    },
    {
      "constant": false,
      "inputs": [
        {
          "internalType": "address",
          "name": "_rewardToken",
          "type": "address"
        },
        {
          "internalType": "uint256",
          "name": "_pid",
          "type": "uint256"
        }
      ],
      "name": "executeWithdrawal",
      "outputs": [],
      "payable": false,
      "stateMutability": "nonpayable",
      "type": "function"
    },
    {
      "constant": true,
      "inputs": [
        {
          "internalType": "address",
          "name": "account",
          "type": "address"
        }
      ],
      "name": "getCurrentVotes",
      "outputs": [
        {
          "internalType": "uint96",
          "name": "",
          "type": "uint96"
        }
      ],
      "payable": false,
      "stateMutability": "view",
      "type": "function"
    },
    {
      "constant": true,
      "inputs": [
        {
          "internalType": "address",
          "name": "_rewardToken",
          "type": "address"
        },
        {
          "internalType": "uint256",
          "name": "_pid",
          "type": "uint256"
        },
        {
          "internalType": "address",
          "name": "_user",
          "type": "address"
        }
      ],
      "name": "getEligibleWithdrawalAmount",
      "outputs": [
        {
          "internalType": "uint256",
          "name": "withdrawalAmount",
          "type": "uint256"
        }
      ],
      "payable": false,
      "stateMutability": "view",
      "type": "function"
    },
    {
      "constant": true,
      "inputs": [
        {
          "internalType": "address",
          "name": "account",
          "type": "address"
        },
        {
          "internalType": "uint256",
          "name": "blockNumber",
          "type": "uint256"
        }
      ],
      "name": "getPriorVotes",
      "outputs": [
        {
          "internalType": "uint96",
          "name": "",
          "type": "uint96"
        }
      ],
      "payable": false,
      "stateMutability": "view",
      "type": "function"
    },
    {
      "constant": true,
      "inputs": [
        {
          "internalType": "address",
          "name": "_rewardToken",
          "type": "address"
        },
        {
          "internalType": "uint256",
          "name": "_pid",
          "type": "uint256"
        },
        {
          "internalType": "address",
          "name": "_user",
          "type": "address"
        }
      ],
      "name": "getRequestedAmount",
      "outputs": [
        {
          "internalType": "uint256",
          "name": "",
          "type": "uint256"
        }
      ],
      "payable": false,
      "stateMutability": "view",
      "type": "function"
    },
    {
      "constant": true,
      "inputs": [
        {
          "internalType": "address",
          "name": "_rewardToken",
          "type": "address"
        },
        {
          "internalType": "uint256",
          "name": "_pid",
          "type": "uint256"
        },
        {
          "internalType": "address",
          "name": "_user",
          "type": "address"
        }
      ],
      "name": "getUserInfo",
      "outputs": [
        {
          "internalType": "uint256",
          "name": "amount",
          "type": "uint256"
        },
        {
          "internalType": "uint256",
          "name": "rewardDebt",
          "type": "uint256"
        },
        {
          "internalType": "uint256",
          "name": "pendingWithdrawals",
          "type": "uint256"
        }
      ],
      "payable": false,
      "stateMutability": "view",
      "type": "function"
    },
    {
      "constant": true,
      "inputs": [
        {
          "internalType": "address",
          "name": "_rewardToken",
          "type": "address"
        },
        {
          "internalType": "uint256",
          "name": "_pid",
          "type": "uint256"
        },
        {
          "internalType": "address",
          "name": "_user",
          "type": "address"
        }
      ],
      "name": "getWithdrawalRequests",
      "outputs": [
        {
          "components": [
            {
              "internalType": "uint256",
              "name": "amount",
              "type": "uint256"
            },
            {
              "internalType": "uint128",
              "name": "lockedUntil",
              "type": "uint128"
            },
            {
              "internalType": "uint128",
              "name": "afterUpgrade",
              "type": "uint128"
            }
          ],
          "internalType": "struct XVSVaultStorageV1.WithdrawalRequest[]",
          "name": "",
          "type": "tuple[]"
        }
      ],
      "payable": false,
      "stateMutability": "view",
      "type": "function"
    },
    {
      "constant": true,
      "inputs": [],
      "name": "implementation",
      "outputs": [
        {
          "internalType": "address",
          "name": "",
          "type": "address"
        }
      ],
      "payable": false,
      "stateMutability": "view",
      "type": "function"
    },
    {
      "constant": true,
      "inputs": [
        {
          "internalType": "address",
          "name": "",
          "type": "address"
        }
      ],
      "name": "isStakedToken",
      "outputs": [
        {
          "internalType": "bool",
          "name": "",
          "type": "bool"
        }
      ],
      "payable": false,
      "stateMutability": "view",
      "type": "function"
    },
    {
      "constant": true,
      "inputs": [
        {
          "internalType": "address",
          "name": "",
          "type": "address"
        }
      ],
      "name": "nonces",
      "outputs": [
        {
          "internalType": "uint256",
          "name": "",
          "type": "uint256"
        }
      ],
      "payable": false,
      "stateMutability": "view",
      "type": "function"
    },
    {
      "constant": true,
      "inputs": [
        {
          "internalType": "address",
          "name": "",
          "type": "address"
        }
      ],
      "name": "numCheckpoints",
      "outputs": [
        {
          "internalType": "uint32",
          "name": "",
          "type": "uint32"
        }
      ],
      "payable": false,
      "stateMutability": "view",
      "type": "function"
    },
    {
      "constant": false,
      "inputs": [],
      "name": "pause",
      "outputs": [],
      "payable": false,
      "stateMutability": "nonpayable",
      "type": "function"
    },
    {
      "constant": true,
      "inputs": [],
      "name": "pendingAdmin",
      "outputs": [
        {
          "internalType": "address",
          "name": "",
          "type": "address"
        }
      ],
      "payable": false,
      "stateMutability": "view",
      "type": "function"
    },
    {
      "constant": true,
      "inputs": [
        {
          "internalType": "address",
          "name": "_rewardToken",
          "type": "address"
        },
        {
          "internalType": "uint256",
          "name": "_pid",
          "type": "uint256"
        },
        {
          "internalType": "address",
          "name": "_user",
          "type": "address"
        }
      ],
      "name": "pendingReward",
      "outputs": [
        {
          "internalType": "uint256",
          "name": "",
          "type": "uint256"
        }
      ],
      "payable": false,
      "stateMutability": "view",
      "type": "function"
    },
    {
      "constant": true,
      "inputs": [
        {
          "internalType": "address",
          "name": "",
          "type": "address"
        },
        {
          "internalType": "address",
          "name": "",
          "type": "address"
        }
      ],
      "name": "pendingRewardTransfers",
      "outputs": [
        {
          "internalType": "uint256",
          "name": "",
          "type": "uint256"
        }
      ],
      "payable": false,
      "stateMutability": "view",
      "type": "function"
    },
    {
      "constant": true,
      "inputs": [
        {
          "internalType": "address",
          "name": "_rewardToken",
          "type": "address"
        },
        {
          "internalType": "uint256",
          "name": "_pid",
          "type": "uint256"
        },
        {
          "internalType": "address",
          "name": "_user",
          "type": "address"
        }
      ],
      "name": "pendingWithdrawalsBeforeUpgrade",
      "outputs": [
        {
          "internalType": "uint256",
          "name": "beforeUpgradeWithdrawalAmount",
          "type": "uint256"
        }
      ],
      "payable": false,
      "stateMutability": "view",
      "type": "function"
    },
    {
      "constant": true,
      "inputs": [],
      "name": "pendingXVSVaultImplementation",
      "outputs": [
        {
          "internalType": "address",
          "name": "",
          "type": "address"
        }
      ],
      "payable": false,
      "stateMutability": "view",
      "type": "function"
    },
    {
      "constant": true,
      "inputs": [
        {
          "internalType": "address",
          "name": "",
          "type": "address"
        },
        {
          "internalType": "uint256",
          "name": "",
          "type": "uint256"
        }
      ],
      "name": "poolInfos",
      "outputs": [
        {
          "internalType": "contract IBEP20",
          "name": "token",
          "type": "address"
        },
        {
          "internalType": "uint256",
          "name": "allocPoint",
          "type": "uint256"
        },
        {
          "internalType": "uint256",
          "name": "lastRewardBlock",
          "type": "uint256"
        },
        {
          "internalType": "uint256",
          "name": "accRewardPerShare",
          "type": "uint256"
        },
        {
          "internalType": "uint256",
          "name": "lockPeriod",
          "type": "uint256"
        }
      ],
      "payable": false,
      "stateMutability": "view",
      "type": "function"
    },
    {
      "constant": true,
      "inputs": [
        {
          "internalType": "address",
          "name": "rewardToken",
          "type": "address"
        }
      ],
      "name": "poolLength",
      "outputs": [
        {
          "internalType": "uint256",
          "name": "",
          "type": "uint256"
        }
      ],
      "payable": false,
      "stateMutability": "view",
      "type": "function"
    },
    {
      "constant": true,
      "inputs": [],
      "name": "primePoolId",
      "outputs": [
        {
          "internalType": "uint256",
          "name": "",
          "type": "uint256"
        }
      ],
      "payable": false,
      "stateMutability": "view",
      "type": "function"
    },
    {
      "constant": true,
      "inputs": [],
      "name": "primeRewardToken",
      "outputs": [
        {
          "internalType": "address",
          "name": "",
          "type": "address"
        }
      ],
      "payable": false,
      "stateMutability": "view",
      "type": "function"
    },
    {
      "constant": true,
      "inputs": [],
      "name": "primeToken",
      "outputs": [
        {
          "internalType": "contract IPrime",
          "name": "",
          "type": "address"
        }
      ],
      "payable": false,
      "stateMutability": "view",
      "type": "function"
    },
    {
      "constant": false,
      "inputs": [
        {
          "internalType": "address",
          "name": "_rewardToken",
          "type": "address"
        },
        {
          "internalType": "uint256",
          "name": "_pid",
          "type": "uint256"
        },
        {
          "internalType": "uint256",
          "name": "_amount",
          "type": "uint256"
        }
      ],
      "name": "requestWithdrawal",
      "outputs": [],
      "payable": false,
      "stateMutability": "nonpayable",
      "type": "function"
    },
    {
      "constant": false,
      "inputs": [],
      "name": "resume",
      "outputs": [],
      "payable": false,
      "stateMutability": "nonpayable",
      "type": "function"
    },
    {
      "constant": true,
      "inputs": [
        {
          "internalType": "address",
          "name": "",
          "type": "address"
        }
      ],
      "name": "rewardTokenAmountsPerBlock",
      "outputs": [
        {
          "internalType": "uint256",
          "name": "",
          "type": "uint256"
        }
      ],
      "payable": false,
      "stateMutability": "view",
      "type": "function"
    },
    {
      "constant": false,
      "inputs": [
        {
          "internalType": "address",
          "name": "_rewardToken",
          "type": "address"
        },
        {
          "internalType": "uint256",
          "name": "_pid",
          "type": "uint256"
        },
        {
          "internalType": "uint256",
          "name": "_allocPoint",
          "type": "uint256"
        }
      ],
      "name": "set",
      "outputs": [],
      "payable": false,
      "stateMutability": "nonpayable",
      "type": "function"
    },
    {
      "constant": false,
      "inputs": [
        {
          "internalType": "address",
          "name": "newAccessControlAddress",
          "type": "address"
        }
      ],
      "name": "setAccessControl",
      "outputs": [],
      "payable": false,
      "stateMutability": "nonpayable",
      "type": "function"
    },
    {
      "constant": false,
      "inputs": [
        {
          "internalType": "contract IPrime",
          "name": "_primeToken",
          "type": "address"
        },
        {
          "internalType": "address",
          "name": "_primeRewardToken",
          "type": "address"
        },
        {
          "internalType": "uint256",
          "name": "_primePoolId",
          "type": "uint256"
        }
      ],
      "name": "setPrimeToken",
      "outputs": [],
      "payable": false,
      "stateMutability": "nonpayable",
      "type": "function"
    },
    {
      "constant": false,
      "inputs": [
        {
          "internalType": "address",
          "name": "_rewardToken",
          "type": "address"
        },
        {
          "internalType": "uint256",
          "name": "_rewardAmount",
          "type": "uint256"
        }
      ],
      "name": "setRewardAmountPerBlock",
      "outputs": [],
      "payable": false,
      "stateMutability": "nonpayable",
      "type": "function"
    },
    {
      "constant": false,
      "inputs": [
        {
          "internalType": "address",
          "name": "_rewardToken",
          "type": "address"
        },
        {
          "internalType": "uint256",
          "name": "_pid",
          "type": "uint256"
        },
        {
          "internalType": "uint256",
          "name": "_newPeriod",
          "type": "uint256"
        }
      ],
      "name": "setWithdrawalLockingPeriod",
      "outputs": [],
      "payable": false,
      "stateMutability": "nonpayable",
      "type": "function"
    },
    {
      "constant": false,
      "inputs": [
        {
          "internalType": "address",
          "name": "_xvs",
          "type": "address"
        },
        {
          "internalType": "address",
          "name": "_xvsStore",
          "type": "address"
        }
      ],
      "name": "setXvsStore",
      "outputs": [],
      "payable": false,
      "stateMutability": "nonpayable",
      "type": "function"
    },
    {
      "constant": true,
      "inputs": [
        {
          "internalType": "address",
          "name": "",
          "type": "address"
        }
      ],
      "name": "totalAllocPoints",
      "outputs": [
        {
          "internalType": "uint256",
          "name": "",
          "type": "uint256"
        }
      ],
      "payable": false,
      "stateMutability": "view",
      "type": "function"
    },
    {
      "constant": false,
      "inputs": [
        {
          "internalType": "address",
          "name": "_rewardToken",
          "type": "address"
        },
        {
          "internalType": "uint256",
          "name": "_pid",
          "type": "uint256"
        }
      ],
      "name": "updatePool",
      "outputs": [],
      "payable": false,
      "stateMutability": "nonpayable",
      "type": "function"
    },
    {
      "constant": true,
      "inputs": [],
      "name": "vaultPaused",
      "outputs": [
        {
          "internalType": "bool",
          "name": "",
          "type": "bool"
        }
      ],
      "payable": false,
      "stateMutability": "view",
      "type": "function"
    },
    {
      "constant": true,
      "inputs": [],
      "name": "xvsAddress",
      "outputs": [
        {
          "internalType": "address",
          "name": "",
          "type": "address"
        }
      ],
      "payable": false,
      "stateMutability": "view",
      "type": "function"
    },
    {
      "constant": true,
      "inputs": [],
      "name": "xvsStore",
      "outputs": [
        {
          "internalType": "address",
          "name": "",
          "type": "address"
        }
      ],
      "payable": false,
      "stateMutability": "view",
      "type": "function"
    }
  ],
  "transactionHash": "0x72c44262d09617b66fc0f87cd212ba50f862984bd90a5159179a27061e669283",
  "args": [],
  "numDeployments": 1,
  "solcInputHash": "7830d2b3dd486e9651687b362529ec15",
  "bytecode": "0x608060405234801561001057600080fd5b50600080546001600160a01b031916331790556153a6806100326000396000f3fe608060405234801561001057600080fd5b50600436106102bb5760003560e01c80638456cb5911610182578063c2102596116100e9578063e7a324dc116100a2578063f55401621161007c578063f55401621461061c578063f851a44014610624578063fba1b1f91461062c578063fe5a451a1461063f576102bb565b8063e7a324dc146105eb578063e8f2be6f146105f3578063f1127ed8146105fb576102bb565b8063c210259614610577578063c3c754a814610597578063c3cda520146105aa578063d7ae45e2146105bd578063dae66bbe146105d0578063de0368b2146105e3576102bb565b80639e2b6c4d1161013b5780639e2b6c4d1461050e578063a09eab7a14610521578063a9d69a6914610534578063add8933714610547578063b4a0bdf31461054f578063b4b5ea5714610564576102bb565b80638456cb59146104875780638ed7333d1461048f57806392e35000146104a257806393c7c4d1146104c657806398e1b31b146104d9578063996cba68146104fb576102bb565b80634298bdbd116102265780636fcfff45116101df5780636fcfff45146103f957806373d025d614610419578063782d6fe11461042e5780637ac924561461044e5780637ecebe00146104615780638308d7e914610474576102bb565b80634298bdbd14610392578063587cde1e146103a55780635c19a95c146103b85780635c60da1b146103cb5780635ff56315146103d35780636dd77cbd146103e6576102bb565b806320606b701161027857806320606b701461033f57806324f52bbf14610347578063267822471461035c5780632eda5c6c14610364578063358ae036146103775780633d4180f91461037f576102bb565b8063046f7da2146102c05780630af13728146102ca5780630efe6a8b146102f3578063115b512f1461030657806319129e5a146103195780631d504dc61461032c575b600080fd5b6102c8610647565b005b6102dd6102d8366004613de7565b6106d2565b6040516102ea9190614d0d565b60405180910390f35b6102c8610301366004613e9f565b610718565b6102c8610314366004613e9f565b610a0d565b6102c8610327366004613cf4565b610dc1565b6102c861033a366004613fc7565b610df7565b6102dd610f28565b61034f610f3f565b6040516102ea9190614bab565b61034f610f4e565b6102dd610372366004613cf4565b610f5d565b61034f610f6f565b6102dd61038d366004613d30565b610f7e565b6102dd6103a0366004613cf4565b610f9b565b61034f6103b3366004613cf4565b610fad565b6102c86103c6366004613cf4565b610fc8565b61034f610ff5565b6102c86103e1366004613d30565b611004565b6102dd6103f4366004613de7565b6110f8565b61040c610407366004613cf4565b6111ad565b6040516102ea919061508b565b6104216111c5565b6040516102ea9190614cff565b61044161043c366004613db7565b6111ce565b6040516102ea91906150b4565b6102c861045c366004613db7565b6113dd565b6102dd61046f366004613cf4565b611726565b6102c8610482366004613e9f565b611738565b6102c86118de565b6102c861049d366004613db7565b611963565b6104b56104b0366004613db7565b61199e565b6040516102ea959493929190614d7a565b6102c86104d4366004613db7565b6119f3565b6104ec6104e7366004613de7565b611b19565b6040516102ea93929190615070565b6102c8610509366004613d6a565b611b6b565b6102c861051c366004613e9f565b611cfd565b6102dd61052f366004613de7565b611de8565b6102dd610542366004613de7565b61202d565b61034f61206f565b61055761207e565b6040516102ea9190614d6c565b610441610572366004613cf4565b61208d565b61058a610585366004613de7565b612100565b6040516102ea9190614cee565b6104216105a5366004613cf4565b6121ba565b6102c86105b8366004613ed1565b6121cf565b6102dd6105cb366004613cf4565b612373565b6102c86105de366004613fa6565b61238e565b61034f61249a565b6102dd6124a9565b6102dd6124b5565b61060e610609366004613f58565b6124bb565b6040516102ea929190615099565b6102dd6124f0565b61034f6124f8565b6102c861063a366004613e2a565b612507565b6105576127d3565b61067060405180604001604052806008815260200167726573756d65282960c01b8152506127e2565b60135460ff1661069b5760405162461bcd60e51b815260040161069290614e37565b60405180910390fd5b6013805460ff1916905560405133907fd2619572a1464e0df0bb351d834fd47f3350984d7bfdb1ab69cfcb0b8e42141590600090a2565b60006106de8484612884565b506001600160a01b0380841660009081526007602090815260408083208684528252808320938516835292905220600201545b9392505050565b600354600160a01b900460ff166107415760405162461bcd60e51b815260040161069290614f87565b6003805460ff60a01b1916905560135460ff16156107715760405162461bcd60e51b815260040161069290614e27565b61077b8383612884565b6001600160a01b038316600090815260086020526040812080548490811061079f57fe5b600091825260208083206001600160a01b038816845260078252604080852088865283528085203386529092529220600590910290910191506107e285856128bb565b6107ed85853361202d565b1561080a5760405162461bcd60e51b815260040161069290614f37565b80541561087f57600061081d8284612a76565b9050801561087d57610830863383612a8a565b84866001600160a01b0316336001600160a01b03167f865ca08d59f5cb456e85cd2f7ef63664ea4f73327414e9d8152c4158b0e94645846040516108749190614d0d565b60405180910390a45b505b815461089c906001600160a01b031633308663ffffffff612d0316565b80546108ae908463ffffffff612d6416565b81556108ba8183612da6565b600182015560055482546001600160a01b039081169116141561092157336000908152600f6020908152604080832054815160608101909252602180835261092194936001600160a01b039092169261091c9289929061525890830139612dd4565b612e03565b6017546001600160a01b03868116911614801561093f575060185484145b156109a7576016546040516337f23cd360e01b81526001600160a01b03909116906337f23cd390610974903390600401614bb9565b600060405180830381600087803b15801561098e57600080fd5b505af11580156109a2573d6000803e3d6000fd5b505050505b83856001600160a01b0316336001600160a01b03167fdcbc1c05240f31ff3ad067ef1ee35ce4997762752e3a095284754544f4c709d7866040516109eb9190614d0d565b60405180910390a450506003805460ff60a01b1916600160a01b179055505050565b600354600160a01b900460ff16610a365760405162461bcd60e51b815260040161069290614f87565b6003805460ff60a01b1916905560135460ff1615610a665760405162461bcd60e51b815260040161069290614e27565b610a708383612884565b60008111610a905760405162461bcd60e51b815260040161069290614f57565b6001600160a01b0383166000908152600760209081526040808320858452825280832033845290915290206002810154610ad0908363ffffffff612d6416565b81541015610af05760405162461bcd60e51b815260040161069290615017565b6001600160a01b0384166000908152600860205260408120805485908110610b1457fe5b600091825260208083206001600160a01b0389168452600a825260408085208986528352808520338652909252908320600590920201925090610b5682612f95565b5090508015610b775760405162461bcd60e51b815260040161069290614f37565b610b8187876128bb565b6000610b8d8585612a76565b9050610b9a883383612a8a565b6004840154600090610bb2904263ffffffff612d6416565b9050610bc086858984613039565b6001600160a01b03891660009081526012602090815260408083208b8452909152902054610bf4908863ffffffff612d6416565b6001600160a01b038a1660009081526012602090815260408083208c8452909152902055610c228686612da6565b600187015560055485546001600160a01b0390811691161415610c8557336000908152600f6020908152604080832054815160608101909252602b808352610c85946001600160a01b0390921693919261091c928d929061520590830139612dd4565b6017546001600160a01b038a81169116148015610ca3575060185488145b15610d0b576016546040516337f23cd360e01b81526001600160a01b03909116906337f23cd390610cd8903390600401614bb9565b600060405180830381600087803b158015610cf257600080fd5b505af1158015610d06573d6000803e3d6000fd5b505050505b87896001600160a01b0316336001600160a01b03167f865ca08d59f5cb456e85cd2f7ef63664ea4f73327414e9d8152c4158b0e9464585604051610d4f9190614d0d565b60405180910390a487896001600160a01b0316336001600160a01b03167f88a254a0ef28a0b9e957ff600beae69870f6f924065147f3627c3f814e60ec118a604051610d9b9190614d0d565b60405180910390a450506003805460ff60a01b1916600160a01b17905550505050505050565b6000546001600160a01b03163314610deb5760405162461bcd60e51b815260040161069290614fa7565b610df48161321d565b50565b806001600160a01b031663f851a4406040518163ffffffff1660e01b815260040160206040518083038186803b158015610e3057600080fd5b505afa158015610e44573d6000803e3d6000fd5b505050506040513d601f19601f82011682018060405250610e689190810190613d12565b6001600160a01b0316336001600160a01b031614610e985760405162461bcd60e51b815260040161069290615027565b806001600160a01b031663c1e803346040518163ffffffff1660e01b8152600401602060405180830381600087803b158015610ed357600080fd5b505af1158015610ee7573d6000803e3d6000fd5b505050506040513d601f19601f82011682018060405250610f0b9190810190613fe5565b15610df45760405162461bcd60e51b815260040161069290614fb7565b604051610f3490614b95565b604051809103902081565b6004546001600160a01b031681565b6001546001600160a01b031681565b60066020526000908152604090205481565b6005546001600160a01b031681565b601560209081526000928352604080842090915290825290205481565b60096020526000908152604090205481565b600f602052600090815260409020546001600160a01b031681565b60135460ff1615610feb5760405162461bcd60e51b815260040161069290614e27565b610df433826132a2565b6002546001600160a01b031681565b6000546001600160a01b0316331461102e5760405162461bcd60e51b815260040161069290614fa7565b61103782613331565b61104081613331565b6005546004546001600160a01b03918216911681156110715760405162461bcd60e51b815260040161069290614ef7565b600580546001600160a01b038087166001600160a01b03199283161790925560048054928616929091169190911790556003805460ff60a01b1916600160a01b1790556040517f559f314bb90394a4a9ceb724f365b36a53587d894352c43d12901fd680101456906110ea908490849088908890614c2a565b60405180910390a150505050565b60006111048484612884565b6001600160a01b038085166000908152600a60209081526040808320878452825280832093861683529290522080545b600081118015611164575061116482600183038154811061115157fe5b9060005260206000209060020201613357565b156111a45761119982600183038154811061117b57fe5b6000918252602090912060029091020154849063ffffffff612d6416565b925060001901611134565b50509392505050565b60116020526000908152604090205463ffffffff1681565b60135460ff1681565b60004382106111ef5760405162461bcd60e51b815260040161069290614f07565b6001600160a01b03831660009081526011602052604090205463ffffffff168061121d5760009150506113d7565b6001600160a01b038416600090815260106020908152604080832063ffffffff600019860181168552925290912054168310611299576001600160a01b03841660009081526010602090815260408083206000199490940163ffffffff1683529290522054600160201b90046001600160601b031690506113d7565b6001600160a01b038416600090815260106020908152604080832083805290915290205463ffffffff168310156112d45760009150506113d7565b600060001982015b8163ffffffff168163ffffffff16111561139757600282820363ffffffff16048103611306613c85565b506001600160a01b038716600090815260106020908152604080832063ffffffff858116855290835292819020815180830190925254928316808252600160201b9093046001600160601b03169181019190915290871415611372576020015194506113d79350505050565b805163ffffffff1687111561138957819350611390565b6001820392505b50506112dc565b506001600160a01b038516600090815260106020908152604080832063ffffffff909416835292905220546001600160601b03600160201b909104169150505b92915050565b600354600160a01b900460ff166114065760405162461bcd60e51b815260040161069290614f87565b6003805460ff60a01b1916905560135460ff16156114365760405162461bcd60e51b815260040161069290614e27565b6114408282612884565b6001600160a01b038216600090815260086020526040812080548390811061146457fe5b600091825260208083206001600160a01b038716808552600783526040808620888752845280862033808852908552818720928752600a85528187208988528552818720908752909352918420600590930201935091806114c5848461336c565b9092509050811515806114d85750600081115b6114f45760405162461bcd60e51b815260040161069290614fc7565b8115806114ff575080155b61151b5760405162461bcd60e51b815260040161069290614de7565b81156116345761152b87876128bb565b6000611571856001015461156564e8d4a510006115598a600301548a6000015461346390919063ffffffff16565b9063ffffffff61349d16565b9063ffffffff6134df16565b6004805460405163135b33cd60e31b81529293506001600160a01b031691639ad99e68916115a5918c913391879101614c02565b600060405180830381600087803b1580156115bf57600080fd5b505af11580156115d3573d6000803e3d6000fd5b505086546115ea925090508463ffffffff6134df16565b808655600387015461160d9164e8d4a5100091611559919063ffffffff61346316565b6001860155855461162e906001600160a01b0316338563ffffffff61352116565b506116b8565b8354611646908263ffffffff6134df16565b84556001600160a01b038716600090815260126020908152604080832089845290915290205461167c908263ffffffff6134df16565b6001600160a01b0380891660009081526012602090815260408083208b845290915290209190915585546116b89116338363ffffffff61352116565b856001600160a01b038816337fe31da05fae6db869f5ea51f4b638aa6884070b6c87f18f63bd2291a12cb2f5186116f5868663ffffffff612d6416565b6040516117029190614d0d565b60405180910390a450506003805460ff60a01b1916600160a01b1790555050505050565b600e6020526000908152604090205481565b6117766040518060400160405280601c81526020017f73657428616464726573732c75696e743235362c75696e7432353629000000008152506127e2565b6117808383612884565b61178983613543565b6001600160a01b038316600090815260086020526040812080549091906118029084906117f6908590889081106117bc57fe5b60009182526020808320600160059093020191909101546001600160a01b038b16835260099091526040909120549063ffffffff6134df16565b9063ffffffff612d6416565b9050600081116118245760405162461bcd60e51b815260040161069290615037565b600082858154811061183257fe5b90600052602060002090600502016001015490508383868154811061185357fe5b9060005260206000209060050201600101819055508160096000886001600160a01b03166001600160a01b031681526020019081526020016000208190555084866001600160a01b03167f6ee09c6cb801194690c195c69f465aaf7c80255cbeafaab9600f47ed79de2ca983876040516118ce929190615062565b60405180910390a3505050505050565b611906604051806040016040528060078152602001667061757365282960c81b8152506127e2565b60135460ff16156119295760405162461bcd60e51b815260040161069290614eb7565b6013805460ff1916600117905560405133907fdffada2889ebfab9224c24069d833f3de835d8cf99872d49e7b7ba5fccb7a46f90600090a2565b60135460ff16156119865760405162461bcd60e51b815260040161069290614e27565b6119908282612884565b61199a82826128bb565b5050565b600860205281600052604060002081815481106119b757fe5b6000918252602090912060059091020180546001820154600283015460038401546004909401546001600160a01b039093169550909350919085565b611a146040518060600160405280602881526020016152b1602891396127e2565b60048054604051633d6ac5b360e21b81526001600160a01b039091169163f5ab16cc91611a4391869101614bab565b60206040518083038186803b158015611a5b57600080fd5b505afa158015611a6f573d6000803e3d6000fd5b505050506040513d601f19601f82011682018060405250611a939190810190613f88565b611aaf5760405162461bcd60e51b815260040161069290614f97565b611ab882613543565b6001600160a01b0382166000818152600660205260409081902080549084905590519091907fad96cee0d692f0250b98e085504f399da6733854908215f6203fe3c69366d9f590611b0c9084908690615062565b60405180910390a2505050565b6000806000611b288686612884565b5050506001600160a01b03928316600090815260076020908152604080832094835293815283822092909416815292529020805460018201546002909201549092565b600354600160a01b900460ff16611b945760405162461bcd60e51b815260040161069290614f87565b6003805460ff60a01b1916905560135460ff1615611bc45760405162461bcd60e51b815260040161069290614e27565b611bce8282612884565b6001600160a01b0382166000908152600860205260408120805483908110611bf257fe5b600091825260208083206001600160a01b0380881685526007835260408086208887528452808620918a1686529252922060059091029091019150611c3784846128bb565b611c4284848761202d565b15611c5f5760405162461bcd60e51b815260040161069290614f37565b805415611ce3576000611c728284612a76565b90508015611ce157611c848284612da6565b6001830155611c94858783612a8a565b83856001600160a01b0316876001600160a01b03167f865ca08d59f5cb456e85cd2f7ef63664ea4f73327414e9d8152c4158b0e9464584604051611cd89190614d0d565b60405180910390a45b505b50506003805460ff60a01b1916600160a01b179055505050565b611d1e6040518060600160405280603381526020016152d9603391396127e2565b611d288383612884565b600081118015611d3b57506312cc030081105b611d575760405162461bcd60e51b815260040161069290614fd7565b6001600160a01b0383166000908152600860205260408120805484908110611d7b57fe5b9060005260206000209060050201905060008160040154905082826004018190555083856001600160a01b03167f0bcf80c5060ccf99b7a993c57a94b232fc2c5c04bd74c7c7d174595fee6bc31f8386604051611dd9929190615062565b60405180910390a35050505050565b6000611df48484612884565b6001600160a01b0384166000908152600860205260408120805485908110611e1857fe5b600091825260208083206001600160a01b03808a168086526007845260408087208b885285528087208a8416885285528087206003600590970290940195860154918752601285528087208b885290945283862054855494516370a0823160e01b8152959750929590949093611eef939216906370a0823190611e9f903090600401614bab565b60206040518083038186803b158015611eb757600080fd5b505afa158015611ecb573d6000803e3d6000fd5b505050506040513d601f19601f820116820180604052506115659190810190613fe5565b6001600160a01b0389166000908152600660205260409020546002860154919250439182118015611f1f57508215155b15611fb5576000611f3d8760020154846134df90919063ffffffff16565b6001600160a01b038c1660009081526009602052604081205460018a01549293509091611f85919061155990611f79868863ffffffff61346316565b9063ffffffff61346316565b9050611fb0611fa3866115598464e8d4a5100063ffffffff61346316565b879063ffffffff612d6416565b955050505b6001600160a01b03808b166000908152600a602090815260408083208d84528252808320938c16835292905290812090611fee82612f95565b91505061201d876001015461156564e8d4a510006115598a611f79878e600001546134df90919063ffffffff16565b9c9b505050505050505050505050565b6001600160a01b038084166000908152600a602090815260408083208684528252808320938516835292905290812061206581612f95565b5095945050505050565b6017546001600160a01b031681565b6047546001600160a01b031690565b6001600160a01b03811660009081526011602052604081205463ffffffff16806120b85760006120f7565b6001600160a01b0383166000908152601060209081526040808320600019850163ffffffff168452909152902054600160201b90046001600160601b03165b9150505b919050565b606061210c8484612884565b6001600160a01b038085166000908152600a602090815260408083208784528252808320938616835292815282822080548451818402810184019095528085529092909184015b828210156121ad5760008481526020908190206040805160608101825260028602909201805483526001908101546001600160801b0380821685870152600160801b90910416918301919091529083529092019101612153565b5050505090509392505050565b60146020526000908152604090205460ff1681565b60135460ff16156121f25760405162461bcd60e51b815260040161069290614e27565b600060405161220090614b95565b604080519182900382208282019091526008825267161594d5985d5b1d60c21b6020909201919091527fddfcc46608a8bd52ebf900f03a24cc97b73a6046cec8c5d0f74a211e376e967a612252613578565b306040516020016122669493929190614d29565b604051602081830303815290604052805190602001209050600060405161228c90614ba0565b6040519081900381206122a7918a908a908a90602001614d1b565b604051602081830303815290604052805190602001209050600082826040516020016122d4929190614b64565b60405160208183030381529060405280519060200120905060006122fa8288888861357c565b6001600160a01b0381166000908152600e60205260409020805460018101909155909150891461233c5760405162461bcd60e51b815260040161069290614e97565b8742111561235c5760405162461bcd60e51b815260040161069290614e77565b612366818b6132a2565b505050505b505050505050565b6001600160a01b031660009081526008602052604090205490565b6000546001600160a01b031633146123b85760405162461bcd60e51b815260040161069290614fa7565b6001600160a01b0383166123de5760405162461bcd60e51b815260040161069290614e87565b6001600160a01b0382166124045760405162461bcd60e51b815260040161069290614f17565b61240e8282612884565b6016546017546018546040516001600160a01b03808816948116937f8def9436d6e31b89ed00948ba91d0cb6936eada5154cb1b45b55683fb9e492379361245d93919092169188918890614c83565b60405180910390a3601680546001600160a01b039485166001600160a01b0319918216179091556017805493909416921691909117909155601855565b6003546001600160a01b031681565b604051610f3490614ba0565b60185481565b601060209081526000928352604080842090915290825290205463ffffffff811690600160201b90046001600160601b031682565b6312cc030081565b6000546001600160a01b031681565b6125286040518060600160405280602c8152602001615338602c91396127e2565b61253185613331565b61253a83613331565b6004546001600160a01b03166125625760405162461bcd60e51b815260040161069290614e07565b600084116125825760405162461bcd60e51b815260040161069290614fe7565b61258b85613543565b6001600160a01b0385166000908152600860205260408120805490915b8181101561260657856001600160a01b03168382815481106125c657fe5b60009182526020909120600590910201546001600160a01b031614156125fe5760405162461bcd60e51b815260040161069290614f77565b6001016125a8565b506001600160a01b03851660009081526014602052604090205460ff16156126405760405162461bcd60e51b815260040161069290614ee7565b6001600160a01b038716600090815260096020526040902054612669908763ffffffff612d6416565b6001600160a01b0388811660009081526009602090815260408083209490945560068152838220889055835160a0810185528984168082528183018c81524383880190815260608401868152608085018c81528b5460018082018e558d8a52888a209751600590920290970180546001600160a01b031916918b169190911781559351848701559151600284015551600383015551600491820155908452601490925291849020805460ff1916831790558054935163fb66fb4d60e01b8152939092169263fb66fb4d92612741928c92909101614cb8565b600060405180830381600087803b15801561275b57600080fd5b505af115801561276f573d6000803e3d6000fd5b50505050846001600160a01b03166001838054905003886001600160a01b03167fd7fa4bff1cd2253c0789c3291a786a6f6b1a3b4569a75af683a15d52abb6a0bf8988886040516127c293929190615070565b60405180910390a450505050505050565b6016546001600160a01b031681565b6047546040516318c5e8ab60e01b81526000916001600160a01b0316906318c5e8ab906128159033908690600401614bc7565b60206040518083038186803b15801561282d57600080fd5b505afa158015612841573d6000803e3d6000fd5b505050506040513d601f19601f820116820180604052506128659190810190613f88565b90508061199a5760405162461bcd60e51b815260040161069290614e47565b6001600160a01b038216600090815260086020526040902054811061199a5760405162461bcd60e51b815260040161069290614df7565b6001600160a01b03821660009081526008602052604081208054839081106128df57fe5b9060005260206000209060050201905080600201544311612900575061199a565b80546040516370a0823160e01b81526000916001600160a01b0316906370a0823190612930903090600401614bab565b60206040518083038186803b15801561294857600080fd5b505afa15801561295c573d6000803e3d6000fd5b505050506040513d601f19601f820116820180604052506129809190810190613fe5565b6001600160a01b03851660009081526012602090815260408083208784529091529020549091506129b890829063ffffffff6134df16565b9050806129cc57504360029091015561199a565b600282015443906000906129e790839063ffffffff6134df16565b6001600160a01b03871660009081526009602090815260408083205460018901546006909352908320549394509192612a30929161155991611f7990879063ffffffff61346316565b9050612a5f612a4e856115598464e8d4a5100063ffffffff61346316565b60038701549063ffffffff612d6416565b600386015550504360029093019290925550505050565b600061071183600101546115658585612da6565b600480546040516370a0823160e01b81526001600160a01b03918216926000928716916370a0823191612abf91869101614bab565b60206040518083038186803b158015612ad757600080fd5b505afa158015612aeb573d6000803e3d6000fd5b505050506040513d601f19601f82011682018060405250612b0f9190810190613fe5565b6001600160a01b038087166000908152601560209081526040808320938916835292905290812054919250612b4a858363ffffffff612d6416565b9050828111612c28578115612bbd576001600160a01b038088166000818152601560209081526040808320948b1680845294909152808220829055517f6bdfd5e51d01475945224d3d37965916fd8df699ef9e8888af4359aa8622216091612bb491879190615047565b60405180910390a35b60405163135b33cd60e31b81526001600160a01b03851690639ad99e6890612bed908a908a908690600401614c68565b600060405180830381600087803b158015612c0757600080fd5b505af1158015612c1b573d6000803e3d6000fd5b5050505050505050612cfe565b6001600160a01b038088166000818152601560209081526040808320948b168084529490915290819020868503908190559051909291907f6bdfd5e51d01475945224d3d37965916fd8df699ef9e8888af4359aa8622216090612c8e9087908690615062565b60405180910390a360405163135b33cd60e31b81526001600160a01b03861690639ad99e6890612cc6908b908b908990600401614c68565b600060405180830381600087803b158015612ce057600080fd5b505af1158015612cf4573d6000803e3d6000fd5b5050505050505050505b505050565b604051612d5e9085906323b872dd60e01b90612d2790879087908790602401614c68565b60408051601f198184030181529190526020810180516001600160e01b03166001600160e01b0319909316929092179091526135a6565b50505050565b600061071183836040518060400160405280601b81526020017f536166654d6174683a206164646974696f6e206f766572666c6f77000000000081525061368b565b600061071164e8d4a510006115598460030154611f79876002015488600001546134df90919063ffffffff16565b600081600160601b8410612dfb5760405162461bcd60e51b81526004016106929190614dc6565b509192915050565b816001600160a01b0316836001600160a01b031614158015612e2e57506000816001600160601b0316115b15612cfe576001600160a01b03831615612ee6576001600160a01b03831660009081526011602052604081205463ffffffff169081612e6e576000612ead565b6001600160a01b0385166000908152601060209081526040808320600019860163ffffffff168452909152902054600160201b90046001600160601b03165b90506000612ed482856040518060600160405280602c815260200161530c602c91396136bb565b9050612ee2868484846136fa565b5050505b6001600160a01b03821615612cfe576001600160a01b03821660009081526011602052604081205463ffffffff169081612f21576000612f60565b6001600160a01b0384166000908152601060209081526040808320600019860163ffffffff168452909152902054600160201b90046001600160601b03165b90506000612f8782856040518060600160405280602b81526020016151da602b91396138af565b905061236b858484846136fa565b805460009081905b801561303357836001820381548110612fb257fe5b6000918252602090912060016002909202018101546001600160801b03600160801b9091041614156130155761300e846001830381548110612ff057fe5b6000918252602090912060029091020154839063ffffffff612d6416565b915061302a565b61302784600183038154811061117b57fe5b92505b60001901612f9d565b50915091565b8254604080516060810182526000808252602080830182815260019484018581528587018a5589845291909220925160028602909301928355905191909201805492516001600160801b03908116600160801b029281166001600160801b0319909416939093179092161790555b6000811180156130e25750818460018303815481106130c257fe5b60009182526020909120600160029092020101546001600160801b031611155b15613169578360018203815481106130f657fe5b906000526020600020906002020184828154811061311057fe5b600091825260209091208254600290920201908155600191820180549290910180546001600160801b0319166001600160801b03938416178082559154600160801b9081900484160291909216179055600019016130a7565b6040518060600160405280848152602001613183846138e2565b6001600160801b0316815260200160016001600160801b03168152508482815481106131ab57fe5b60009182526020918290208351600292830290910190815591830151600190920180546040909401516001600160801b03199094166001600160801b03938416178316600160801b939094169290920292909217905585015461320e9084612d64565b85600201819055505050505050565b6001600160a01b0381166132435760405162461bcd60e51b815260040161069290614ec7565b604780546001600160a01b038381166001600160a01b03198316179092556040519116907f66fd58e82f7b31a2a5c30e0888f3093efe4e111b00cd2b0c31fe014601293aa0906132969083908590614be7565b60405180910390a15050565b6001600160a01b038083166000908152600f6020526040812054909116906132c98461390b565b6001600160a01b038581166000818152600f602052604080822080546001600160a01b031916898616908117909155905194955093928616927f0cc323ffec3ea49cbcddc0de1480978126d350c6a45dff33ad2f1cda6ae992619190a4612d5e828483612e03565b6001600160a01b038116610df45760405162461bcd60e51b815260040161069290614f27565b60010154426001600160801b03909116111590565b805460009081905b600081118015613391575061339184600183038154811061115157fe5b15613432578360018203815481106133a557fe5b6000918252602090912060016002909202018101546001600160801b03600160801b9091041614156133ea576133e3846001830381548110612ff057fe5b91506133ff565b6133fc84600183038154811061117b57fe5b92505b8380548061340957fe5b600082815260208120600019928301600281029091018281556001019190915590915501613374565b50613457613446828463ffffffff612d6416565b60028601549063ffffffff6134df16565b60028501559250929050565b600082613472575060006113d7565b8282028284828161347f57fe5b04146107115760405162461bcd60e51b815260040161069290614f67565b600061071183836040518060400160405280601a81526020017f536166654d6174683a206469766973696f6e206279207a65726f000000000000815250613a21565b600061071183836040518060400160405280601e81526020017f536166654d6174683a207375627472616374696f6e206f766572666c6f770000815250613a58565b604051612cfe90849063a9059cbb60e01b90612d279086908690602401614cd3565b6001600160a01b038116600090815260086020526040812054905b81811015612cfe5761357083826128bb565b60010161355e565b4690565b600080600061358d87878787613a7c565b9150915061359a81613b5c565b5090505b949350505050565b6135b8826001600160a01b0316613c25565b6135d45760405162461bcd60e51b815260040161069290615007565b60006060836001600160a01b0316836040516135f09190614b58565b6000604051808303816000865af19150503d806000811461362d576040519150601f19603f3d011682016040523d82523d6000602084013e613632565b606091505b5091509150816136545760405162461bcd60e51b815260040161069290614ff7565b805115612d5e578080602001905161366f9190810190613f88565b612d5e5760405162461bcd60e51b815260040161069290614e67565b600083830182858210156136b25760405162461bcd60e51b81526004016106929190614dc6565b50949350505050565b6000836001600160601b0316836001600160601b0316111582906136f25760405162461bcd60e51b81526004016106929190614dc6565b505050900390565b600061371e4360405180606001604052806038815260200161527960389139613c5e565b905060008463ffffffff1611801561376757506001600160a01b038516600090815260106020908152604080832063ffffffff6000198901811685529252909120548282169116145b156137c6576001600160a01b0385166000908152601060209081526040808320600019880163ffffffff168452909152902080546fffffffffffffffffffffffff000000001916600160201b6001600160601b03851602179055613865565b60408051808201825263ffffffff80841682526001600160601b0380861660208085019182526001600160a01b038b166000818152601083528781208c871682528352878120965187549451909516600160201b026fffffffffffffffffffffffff000000001995871663ffffffff19958616179590951694909417909555938252601190935292909220805460018801909316929091169190911790555b846001600160a01b03167f6adb589fed1e8542fb7a6b10f00a85e02265e77f9ae3ca8ff93b22983e1af9a084846040516138a09291906150c2565b60405180910390a25050505050565b6000838301826001600160601b0380871690831610156136b25760405162461bcd60e51b81526004016106929190614dc6565b6000600160801b82106139075760405162461bcd60e51b815260040161069290614ea7565b5090565b6005546000906001600160a01b03166139365760405162461bcd60e51b815260040161069290614e57565b6005546001600160a01b03166000908152600860205260408120805490915b81811015613a165760055483546001600160a01b039091169084908390811061397a57fe5b60009182526020909120600590910201546001600160a01b03161415613a0e576005546001600160a01b039081166000908152600760209081526040808320858452825280832093891683529290522060028101548154613a03916139e5919063ffffffff6134df16565b60405180606001604052806028815260200161523060289139612dd4565b9450505050506120fb565b600101613955565b506000949350505050565b60008183613a425760405162461bcd60e51b81526004016106929190614dc6565b506000838581613a4e57fe5b0495945050505050565b600081848411156136f25760405162461bcd60e51b81526004016106929190614dc6565b6000807f7fffffffffffffffffffffffffffffff5d576e7357a4501ddfe92f46681b20a0831115613ab35750600090506003613b53565b8460ff16601b14158015613acb57508460ff16601c14155b15613adc5750600090506004613b53565b600060018787878760405160008152602001604052604051613b019493929190614d51565b6020604051602081039080840390855afa158015613b23573d6000803e3d6000fd5b5050604051601f1901519150506001600160a01b038116613b4c57506000915060019050613b53565b9150600090505b94509492505050565b6000816004811115613b6a57fe5b1415613b7557610df4565b6001816004811115613b8357fe5b1415613ba15760405162461bcd60e51b815260040161069290614dd7565b6002816004811115613baf57fe5b1415613bcd5760405162461bcd60e51b815260040161069290614e17565b6003816004811115613bdb57fe5b1415613bf95760405162461bcd60e51b815260040161069290614ed7565b6004816004811115613c0757fe5b1415610df45760405162461bcd60e51b815260040161069290614f47565b6000813f7fc5d2460186f7233c927e7db2dcc703c0e500b653ca82273b7bfad8045d85a47081811480159061359e575050151592915050565b600081600160201b8410612dfb5760405162461bcd60e51b81526004016106929190614dc6565b604080518082019091526000808252602082015290565b80356113d781615198565b80516113d781615198565b80516113d7816151ac565b80356113d7816151b5565b80356113d7816151be565b80516113d7816151b5565b80356113d7816151c7565b80356113d7816151d0565b600060208284031215613d0657600080fd5b600061359e8484613c9c565b600060208284031215613d2457600080fd5b600061359e8484613ca7565b60008060408385031215613d4357600080fd5b6000613d4f8585613c9c565b9250506020613d6085828601613c9c565b9150509250929050565b600080600060608486031215613d7f57600080fd5b6000613d8b8686613c9c565b9350506020613d9c86828701613c9c565b9250506040613dad86828701613cbd565b9150509250925092565b60008060408385031215613dca57600080fd5b6000613dd68585613c9c565b9250506020613d6085828601613cbd565b600080600060608486031215613dfc57600080fd5b6000613e088686613c9c565b9350506020613e1986828701613cbd565b9250506040613dad86828701613c9c565b600080600080600060a08688031215613e4257600080fd5b6000613e4e8888613c9c565b9550506020613e5f88828901613cbd565b9450506040613e7088828901613cc8565b9350506060613e8188828901613cbd565b9250506080613e9288828901613cbd565b9150509295509295909350565b600080600060608486031215613eb457600080fd5b6000613ec08686613c9c565b9350506020613d9c86828701613cbd565b60008060008060008060c08789031215613eea57600080fd5b6000613ef68989613c9c565b9650506020613f0789828a01613cbd565b9550506040613f1889828a01613cbd565b9450506060613f2989828a01613ce9565b9350506080613f3a89828a01613cbd565b92505060a0613f4b89828a01613cbd565b9150509295509295509295565b60008060408385031215613f6b57600080fd5b6000613f778585613c9c565b9250506020613d6085828601613cde565b600060208284031215613f9a57600080fd5b600061359e8484613cb2565b600080600060608486031215613fbb57600080fd5b6000613d8b8686613cc8565b600060208284031215613fd957600080fd5b600061359e8484613cc8565b600060208284031215613ff757600080fd5b600061359e8484613cd3565b600061400f8383614af8565b505060600190565b61402081615141565b82525050565b614020816150f0565b600061403a826150e3565b61404481856150e7565b935061404f836150dd565b8060005b8381101561407d5781516140678882614003565b9750614072836150dd565b925050600101614053565b509495945050505050565b614020816150fb565b61402081615100565b6140206140a682615100565b615100565b60006140b6826150e3565b6140c081856120fb565b93506140d0818560208601615162565b9290920192915050565b61402081615103565b6140208161514c565b60006140f7826150e3565b61410181856150e7565b9350614111818560208601615162565b61411a8161518e565b9093019392505050565b60006141316018836150e7565b7f45434453413a20696e76616c6964207369676e61747572650000000000000000815260200192915050565b600061416a6012836150e7565b71696e636f6e73697374656e7420737461746560701b815260200192915050565b60006141986013836150e7565b727661756c743a20706f6f6c206578697374733f60681b815260200192915050565b60006141c7601f836150e7565b7f53746f726520636f6e7472616374206164647265737320697320656d70747900815260200192915050565b6000614200601f836150e7565b7f45434453413a20696e76616c6964207369676e6174757265206c656e67746800815260200192915050565b6000614239600f836150e7565b6e15985d5b1d081a5cc81c185d5cd959608a1b815260200192915050565b60006142646013836150e7565b7215985d5b1d081a5cc81b9bdd081c185d5cd959606a1b815260200192915050565b6000614293600c836150e7565b6b155b985d5d1a1bdc9a5e995960a21b815260200192915050565b60006142bb6030836150e7565b7f5856535661756c743a3a6765745374616b65416d6f756e743a2078767320616481526f191c995cdcc81a5cc81b9bdd081cd95d60821b602082015260400192915050565b600061430d602a836150e7565b7f5361666542455032303a204245503230206f7065726174696f6e20646964206e8152691bdd081cdd58d8d9595960b21b602082015260400192915050565b6000614359602a836150e7565b7f5856535661756c743a3a64656c656761746542795369673a207369676e6174758152691c9948195e1c1a5c995960b21b602082015260400192915050565b60006143a56022836150e7565b7f7072696d6520746f6b656e2063616e6e6f74206265207a65726f206164647265815261737360f01b602082015260400192915050565b60006143e96026836150e7565b7f5856535661756c743a3a64656c656761746542795369673a20696e76616c6964815265206e6f6e636560d01b602082015260400192915050565b60006144316002836120fb565b61190160f01b815260020192915050565b600061444f6027836150e7565b7f53616665436173743a2076616c756520646f65736e27742066697420696e20318152663238206269747360c81b602082015260400192915050565b60006144986017836150e7565b7f5661756c7420697320616c726561647920706175736564000000000000000000815260200192915050565b60006144d16025836150e7565b7f696e76616c696420616365737320636f6e74726f6c206d616e61676572206164815264647265737360d81b602082015260400192915050565b60006145186022836150e7565b7f45434453413a20696e76616c6964207369676e6174757265202773272076616c815261756560f01b602082015260400192915050565b600061455c601a836150e7565b7f546f6b656e2065786973747320696e206f7468657220706f6f6c000000000000815260200192915050565b60006145956013836150e7565b72185b1c9958591e481a5b9a5d1a585b1a5e9959606a1b815260200192915050565b60006145c4602b836150e7565b7f5856535661756c743a3a6765745072696f72566f7465733a206e6f742079657481526a0819195d195c9b5a5b995960aa1b602082015260400192915050565b6000614611601d836150e7565b7f7265776172642063616e6e6f74206265207a65726f2061646472657373000000815260200192915050565b600061464a6018836150e7565b7f7a65726f2061646472657373206e6f7420616c6c6f7765640000000000000000815260200192915050565b6000614683601a836150e7565b7f657865637574652070656e64696e67207769746864726177616c000000000000815260200192915050565b60006146bc6022836150e7565b7f45434453413a20696e76616c6964207369676e6174757265202776272076616c815261756560f01b602082015260400192915050565b60006147006043836120fb565b7f454950373132446f6d61696e28737472696e67206e616d652c75696e7432353681527f20636861696e49642c6164647265737320766572696679696e67436f6e74726160208201526263742960e81b604082015260430192915050565b600061476b601f836150e7565b7f72657175657374656420616d6f756e742063616e6e6f74206265207a65726f00815260200192915050565b60006147a46021836150e7565b7f536166654d6174683a206d756c7469706c69636174696f6e206f766572666c6f8152607760f81b602082015260400192915050565b60006147e76012836150e7565b71141bdbdb08185b1c9958591e48185919195960721b815260200192915050565b6000614815600a836150e7565b691c994b595b9d195c995960b21b815260200192915050565b600061483b6014836150e7565b7324b73b30b634b2103932bbb0b932103a37b5b2b760611b815260200192915050565b600061486b600e836150e7565b6d37b7363c9030b236b4b71031b0b760911b815260200192915050565b60006148956015836150e7565b7418da185b99d9481b9bdd08185d5d1a1bdc9a5e9959605a1b815260200192915050565b60006148c66013836150e7565b726e6f7468696e6720746f20776974686472617760681b815260200192915050565b60006148f5601a836150e7565b7f496e76616c6964206e6577206c6f636b696e6720706572696f64000000000000815260200192915050565b600061492e601d836150e7565b7f416c6c6f6320706f696e7473206d757374206e6f74206265207a65726f000000815260200192915050565b60006149676020836150e7565b7f5361666542455032303a206c6f772d6c6576656c2063616c6c206661696c6564815260200192915050565b60006149a0603a836120fb565b7f44656c65676174696f6e28616464726573732064656c6567617465652c75696e81527f74323536206e6f6e63652c75696e7432353620657870697279290000000000006020820152603a0192915050565b60006149ff601f836150e7565b7f5361666542455032303a2063616c6c20746f206e6f6e2d636f6e747261637400815260200192915050565b6000614a38601b836150e7565b7f72657175657374656420616d6f756e7420697320696e76616c69640000000000815260200192915050565b6000614a716022836150e7565b7f6f6e6c792070726f78792061646d696e2063616e206368616e676520627261698152616e7360f01b602082015260400192915050565b6000614ab5602e836150e7565b7f416c6c6f6320706f696e7473207065722072657761726420746f6b656e206d7581526d7374206e6f74206265207a65726f60901b602082015260400192915050565b80516060830190614b098482614091565b506020820151614b1c6020850182614b2b565b506040820151612d5e60408501825b6140208161510e565b61402081615126565b6140208161512f565b61402081615157565b61402081615135565b600061071182846140ab565b6000614b6f82614424565b9150614b7b828561409a565b602082019150614b8b828461409a565b5060200192915050565b60006113d7826146f3565b60006113d782614993565b602081016113d78284614026565b602081016113d78284614017565b60408101614bd58285614017565b818103602083015261359e81846140ec565b60408101614bf58285614026565b6107116020830184614026565b60608101614c108286614026565b614c1d6020830185614017565b61359e6040830184614091565b60808101614c388287614026565b614c456020830186614026565b614c526040830185614026565b614c5f6060830184614026565b95945050505050565b60608101614c768286614026565b614c1d6020830185614026565b60808101614c918287614026565b614c9e6020830186614026565b614cab6040830185614091565b614c5f6060830184614091565b60408101614cc68285614026565b6107116020830184614088565b60408101614ce18285614026565b6107116020830184614091565b60208082528101610711818461402f565b602081016113d78284614088565b602081016113d78284614091565b60808101614c918287614091565b60808101614d378287614091565b614d446020830186614091565b614c526040830185614091565b60808101614d5f8287614091565b614c9e6020830186614b3d565b602081016113d782846140da565b60a08101614d8882886140da565b614d956020830187614091565b614da26040830186614091565b614daf6060830185614091565b614dbc6080830184614091565b9695505050505050565b6020808252810161071181846140ec565b602080825281016113d781614124565b602080825281016113d78161415d565b602080825281016113d78161418b565b602080825281016113d7816141ba565b602080825281016113d7816141f3565b602080825281016113d78161422c565b602080825281016113d781614257565b602080825281016113d781614286565b602080825281016113d7816142ae565b602080825281016113d781614300565b602080825281016113d78161434c565b602080825281016113d781614398565b602080825281016113d7816143dc565b602080825281016113d781614442565b602080825281016113d78161448b565b602080825281016113d7816144c4565b602080825281016113d78161450b565b602080825281016113d78161454f565b602080825281016113d781614588565b602080825281016113d7816145b7565b602080825281016113d781614604565b602080825281016113d78161463d565b602080825281016113d781614676565b602080825281016113d7816146af565b602080825281016113d78161475e565b602080825281016113d781614797565b602080825281016113d7816147da565b602080825281016113d781614808565b602080825281016113d78161482e565b602080825281016113d78161485e565b602080825281016113d781614888565b602080825281016113d7816148b9565b602080825281016113d7816148e8565b602080825281016113d781614921565b602080825281016113d78161495a565b602080825281016113d7816149f2565b602080825281016113d781614a2b565b602080825281016113d781614a64565b602080825281016113d781614aa8565b604081016150558285614091565b61071160208301846140e3565b60408101614ce18285614091565b6060810161507e8286614091565b614c1d6020830185614091565b602081016113d78284614b34565b604081016150a78285614b34565b6107116020830184614b4f565b602081016113d78284614b4f565b604081016150d08285614b46565b6107116020830184614b46565b60200190565b5190565b90815260200190565b60006113d78261511a565b151590565b90565b60006113d7826150f0565b6001600160801b031690565b6001600160a01b031690565b63ffffffff1690565b60ff1690565b6001600160601b031690565b60006113d782615103565b60006113d782615100565b60006113d782615135565b60005b8381101561517d578181015183820152602001615165565b83811115612d5e5750506000910152565b601f01601f191690565b6151a1816150f0565b8114610df457600080fd5b6151a1816150fb565b6151a181615100565b6151a181615103565b6151a181615126565b6151a18161512f56fe5856535661756c743a3a5f6d6f7665566f7465733a20766f746520616d6f756e74206f766572666c6f77735856535661756c743a3a726571756573745769746864726177616c3a20766f746573206f766572666c6f775856535661756c743a3a6765745374616b65416d6f756e743a20766f746573206f766572666c6f775856535661756c743a3a6465706f7369743a20766f746573206f766572666c6f775856535661756c743a3a5f7772697465436865636b706f696e743a20626c6f636b206e756d62657220657863656564732033322062697473736574526577617264416d6f756e74506572426c6f636b28616464726573732c75696e74323536297365745769746864726177616c4c6f636b696e67506572696f6428616464726573732c75696e743235362c75696e74323536295856535661756c743a3a5f6d6f7665566f7465733a20766f746520616d6f756e7420756e646572666c6f777361646428616464726573732c75696e743235362c616464726573732c75696e743235362c75696e7432353629a365627a7a723158204aae76b3f393e5f0a24d3edbbfe8ab0898f4b70ec1fe6c813964235a50bc1c736c6578706572696d656e74616cf564736f6c63430005100040",
  "devdoc": {
    "author": "Venus",
    "methods": {
      "add(address,uint256,address,uint256,uint256)": {
        "details": "This vault DOES NOT support deflationary tokens  it expects that  the amount of transferred tokens would equal the actually deposited  amount. In practice this means that this vault DOES NOT support USDT  and similar tokens (that do not provide these guarantees).",
        "params": {
          "_allocPoint": "Number of allocation points assigned to this pool",
          "_lockPeriod": "A period between withdrawal request and a moment when it's executable",
          "_rewardPerBlock": "Initial reward per block, in terms of _rewardToken",
          "_rewardToken": "Reward token address",
          "_token": "Staked token"
        }
      },
      "claim(address,address,uint256)": {
        "params": {
          "_account": "The account for which to claim rewards",
          "_pid": "The Pool Index",
          "_rewardToken": "The Reward Token Address"
        }
      },
      "delegate(address)": {
        "params": {
          "delegatee": "The address to delegate votes to"
        }
      },
      "delegateBySig(address,uint256,uint256,uint8,bytes32,bytes32)": {
        "params": {
          "delegatee": "The address to delegate votes to",
          "expiry": "The time at which to expire the signature",
          "nonce": "The contract state required to match the signature",
          "r": "Half of the ECDSA signature pair",
          "s": "Half of the ECDSA signature pair",
          "v": "The recovery byte of the signature"
        }
      },
      "deposit(address,uint256,uint256)": {
        "params": {
          "_amount": "The amount to deposit to vault",
          "_pid": "The Pool Index",
          "_rewardToken": "The Reward Token Address"
        }
      },
      "executeWithdrawal(address,uint256)": {
        "params": {
          "_pid": "The Pool Index",
          "_rewardToken": "The Reward Token Address"
        }
      },
      "getCurrentVotes(address)": {
        "params": {
          "account": "The address to get votes balance"
        },
        "return": "The number of current votes for `account`"
      },
      "getEligibleWithdrawalAmount(address,uint256,address)": {
        "params": {
          "_pid": "The Pool Index",
          "_rewardToken": "The Reward Token Address",
          "_user": "The User Address"
        },
        "return": "withdrawalAmount Amount that the user can withdraw"
      },
      "getPriorVotes(address,uint256)": {
        "params": {
          "account": "The address of the account to check",
          "blockNumber": "The block number to get the vote balance at"
        },
        "return": "The balance that user staked"
      },
      "getRequestedAmount(address,uint256,address)": {
        "params": {
          "_pid": "The Pool Index",
          "_rewardToken": "The Reward Token Address",
          "_user": "The User Address"
        },
        "return": "Total amount of requested but not yet executed withdrawals (including both executable and locked ones)"
      },
      "getUserInfo(address,uint256,address)": {
        "params": {
          "_pid": "Pool index",
          "_rewardToken": "Reward token address",
          "_user": "User address"
        },
        "return": "amount Deposited amountrewardDebt Reward debt (technical value used to track past payouts)pendingWithdrawals Requested but not yet executed withdrawals"
      },
      "getWithdrawalRequests(address,uint256,address)": {
        "params": {
          "_pid": "The Pool Index",
          "_rewardToken": "The Reward Token Address",
          "_user": "The User Address"
        },
        "return": "An array of withdrawal requests"
      },
      "pendingReward(address,uint256,address)": {
        "params": {
          "_pid": "Pool index",
          "_rewardToken": "Reward token address",
          "_user": "User address"
        },
        "return": "Reward the user is eligible for in this pool, in terms of _rewardToken"
      },
      "pendingWithdrawalsBeforeUpgrade(address,uint256,address)": {
        "params": {
          "_pid": "The Pool Index",
          "_rewardToken": "The Reward Token Address",
          "_user": "The address of the user"
        },
        "return": "beforeUpgradeWithdrawalAmount Total pending withdrawal amount in requests made before the vault upgrade"
      },
      "poolLength(address)": {
        "params": {
          "rewardToken": "Reward token address"
        },
        "return": "Number of pools that distribute the specified token as a reward"
      },
      "requestWithdrawal(address,uint256,uint256)": {
        "params": {
          "_amount": "The amount to withdraw from the vault",
          "_pid": "The Pool Index",
          "_rewardToken": "The Reward Token Address"
        }
      },
      "set(address,uint256,uint256)": {
        "params": {
          "_allocPoint": "Number of allocation points assigned to this pool",
          "_pid": "Pool index",
          "_rewardToken": "Reward token address"
        }
      },
      "setAccessControl(address)": {
        "details": "Admin function to set the access control address",
        "params": {
          "newAccessControlAddress": "New address for the access control"
        }
      },
      "setPrimeToken(address,address,uint256)": {
        "params": {
          "_primePoolId": "pool id for reward",
          "_primeRewardToken": "address of reward token",
          "_primeToken": "address of the prime token contract"
        }
      },
      "setRewardAmountPerBlock(address,uint256)": {
        "params": {
          "_rewardAmount": "Number of allocation points assigned to this pool",
          "_rewardToken": "Reward token address"
        }
      },
      "setWithdrawalLockingPeriod(address,uint256,uint256)": {
        "params": {
          "_newPeriod": "New lock period",
          "_pid": "Pool index",
          "_rewardToken": "Reward token address"
        }
      },
      "updatePool(address,uint256)": {
        "params": {
          "_pid": "Pool index",
          "_rewardToken": "Reward token address"
        }
      }
    },
    "title": "XVS Vault"
  },
  "userdoc": {
    "methods": {
      "_become(address)": {
        "notice": "* Admin Functions **"
      },
      "accessControlManager()": {
        "notice": "Returns the address of the access control manager contract"
      },
      "add(address,uint256,address,uint256,uint256)": {
        "notice": "Add a new token pool"
      },
      "claim(address,address,uint256)": {
        "notice": "Claim rewards for pool"
      },
      "delegate(address)": {
        "notice": "Delegate votes from `msg.sender` to `delegatee`"
      },
      "delegateBySig(address,uint256,uint256,uint8,bytes32,bytes32)": {
        "notice": "Delegates votes from signatory to `delegatee`"
      },
      "deposit(address,uint256,uint256)": {
        "notice": "Deposit XVSVault for XVS allocation"
      },
      "executeWithdrawal(address,uint256)": {
        "notice": "Execute withdrawal to XVSVault for XVS allocation"
      },
      "getCurrentVotes(address)": {
        "notice": "Gets the current votes balance for `account`"
      },
      "getEligibleWithdrawalAmount(address,uint256,address)": {
        "notice": "Get unlocked withdrawal amount"
      },
      "getPriorVotes(address,uint256)": {
        "notice": "Determine the xvs stake balance for an account"
      },
      "getRequestedAmount(address,uint256,address)": {
        "notice": "Get requested amount"
      },
      "getUserInfo(address,uint256,address)": {
        "notice": "Get user info with reward token address and pid"
      },
      "getWithdrawalRequests(address,uint256,address)": {
        "notice": "Returns the array of withdrawal requests that have not been executed yet"
      },
      "pause()": {
        "notice": "Pauses vault"
      },
      "pendingReward(address,uint256,address)": {
        "notice": "View function to see pending XVSs on frontend"
      },
      "pendingWithdrawalsBeforeUpgrade(address,uint256,address)": {
        "notice": "Gets the total pending withdrawal amount of a user before upgrade"
      },
      "poolLength(address)": {
        "notice": "Returns the number of pools with the specified reward token"
      },
      "requestWithdrawal(address,uint256,uint256)": {
        "notice": "Request withdrawal to XVSVault for XVS allocation"
      },
      "resume()": {
        "notice": "Resume vault"
      },
      "set(address,uint256,uint256)": {
        "notice": "Update the given pool's reward allocation point"
      },
      "setAccessControl(address)": {
        "notice": "Sets the address of the access control of this contract"
      },
      "setPrimeToken(address,address,uint256)": {
        "notice": "Sets the address of the prime token contract"
      },
      "setRewardAmountPerBlock(address,uint256)": {
        "notice": "Update the given reward token's amount per block"
      },
      "setWithdrawalLockingPeriod(address,uint256,uint256)": {
        "notice": "Update the lock period after which a requested withdrawal can be executed"
      },
      "updatePool(address,uint256)": {
        "notice": "Update reward variables of the given pool to be up-to-date"
      }
    },
    "notice": "The XVS Vault allows XVS holders to lock their XVS to recieve voting rights in Venus governance and are rewarded with XVS."
  },
  "storageLayout": {
    "storage": [
      {
        "astId": 33890,
        "contract": "contracts/XVSVault/XVSVault.sol:XVSVault",
        "label": "admin",
        "offset": 0,
        "slot": "0",
        "type": "t_address"
      },
      {
        "astId": 33892,
        "contract": "contracts/XVSVault/XVSVault.sol:XVSVault",
        "label": "pendingAdmin",
        "offset": 0,
        "slot": "1",
        "type": "t_address"
      },
      {
        "astId": 33894,
        "contract": "contracts/XVSVault/XVSVault.sol:XVSVault",
        "label": "implementation",
        "offset": 0,
        "slot": "2",
        "type": "t_address"
      },
      {
        "astId": 33896,
        "contract": "contracts/XVSVault/XVSVault.sol:XVSVault",
        "label": "pendingXVSVaultImplementation",
        "offset": 0,
        "slot": "3",
        "type": "t_address"
      },
      {
        "astId": 33901,
        "contract": "contracts/XVSVault/XVSVault.sol:XVSVault",
        "label": "_notEntered",
        "offset": 20,
        "slot": "3",
        "type": "t_bool"
      },
      {
        "astId": 33903,
        "contract": "contracts/XVSVault/XVSVault.sol:XVSVault",
        "label": "xvsStore",
        "offset": 0,
        "slot": "4",
        "type": "t_address"
      },
      {
        "astId": 33905,
        "contract": "contracts/XVSVault/XVSVault.sol:XVSVault",
        "label": "xvsAddress",
        "offset": 0,
        "slot": "5",
        "type": "t_address"
      },
      {
        "astId": 33909,
        "contract": "contracts/XVSVault/XVSVault.sol:XVSVault",
        "label": "rewardTokenAmountsPerBlock",
        "offset": 0,
        "slot": "6",
        "type": "t_mapping(t_address,t_uint256)"
      },
      {
        "astId": 33942,
        "contract": "contracts/XVSVault/XVSVault.sol:XVSVault",
        "label": "userInfos",
        "offset": 0,
        "slot": "7",
        "type": "t_mapping(t_address,t_mapping(t_uint256,t_mapping(t_address,t_struct(UserInfo)33916_storage)))"
      },
      {
        "astId": 33947,
        "contract": "contracts/XVSVault/XVSVault.sol:XVSVault",
        "label": "poolInfos",
        "offset": 0,
        "slot": "8",
        "type": "t_mapping(t_address,t_array(t_struct(PoolInfo)33927_storage)dyn_storage)"
      },
      {
        "astId": 33951,
        "contract": "contracts/XVSVault/XVSVault.sol:XVSVault",
        "label": "totalAllocPoints",
        "offset": 0,
        "slot": "9",
        "type": "t_mapping(t_address,t_uint256)"
      },
      {
        "astId": 33960,
        "contract": "contracts/XVSVault/XVSVault.sol:XVSVault",
        "label": "withdrawalRequests",
        "offset": 0,
        "slot": "10",
        "type": "t_mapping(t_address,t_mapping(t_uint256,t_mapping(t_address,t_array(t_struct(WithdrawalRequest)33934_storage)dyn_storage)))"
      },
      {
        "astId": 33964,
        "contract": "contracts/XVSVault/XVSVault.sol:XVSVault",
        "label": "__oldDelegatesSlot",
        "offset": 0,
        "slot": "11",
        "type": "t_mapping(t_address,t_address)"
      },
      {
        "astId": 33975,
        "contract": "contracts/XVSVault/XVSVault.sol:XVSVault",
        "label": "__oldCheckpointsSlot",
        "offset": 0,
        "slot": "12",
        "type": "t_mapping(t_address,t_mapping(t_uint32,t_struct(Checkpoint)33969_storage))"
      },
      {
        "astId": 33979,
        "contract": "contracts/XVSVault/XVSVault.sol:XVSVault",
        "label": "__oldNumCheckpointsSlot",
        "offset": 0,
        "slot": "13",
        "type": "t_mapping(t_address,t_uint32)"
      },
      {
        "astId": 33983,
        "contract": "contracts/XVSVault/XVSVault.sol:XVSVault",
        "label": "nonces",
        "offset": 0,
        "slot": "14",
        "type": "t_mapping(t_address,t_uint256)"
      },
      {
        "astId": 34000,
        "contract": "contracts/XVSVault/XVSVault.sol:XVSVault",
        "label": "delegates",
        "offset": 0,
        "slot": "15",
        "type": "t_mapping(t_address,t_address)"
      },
      {
        "astId": 34006,
        "contract": "contracts/XVSVault/XVSVault.sol:XVSVault",
        "label": "checkpoints",
        "offset": 0,
        "slot": "16",
        "type": "t_mapping(t_address,t_mapping(t_uint32,t_struct(Checkpoint)33969_storage))"
      },
      {
        "astId": 34010,
        "contract": "contracts/XVSVault/XVSVault.sol:XVSVault",
        "label": "numCheckpoints",
        "offset": 0,
        "slot": "17",
        "type": "t_mapping(t_address,t_uint32)"
      },
      {
        "astId": 34016,
        "contract": "contracts/XVSVault/XVSVault.sol:XVSVault",
        "label": "totalPendingWithdrawals",
        "offset": 0,
        "slot": "18",
        "type": "t_mapping(t_address,t_mapping(t_uint256,t_uint256))"
      },
      {
        "astId": 34018,
        "contract": "contracts/XVSVault/XVSVault.sol:XVSVault",
        "label": "vaultPaused",
        "offset": 0,
        "slot": "19",
        "type": "t_bool"
      },
      {
        "astId": 34022,
        "contract": "contracts/XVSVault/XVSVault.sol:XVSVault",
        "label": "isStakedToken",
        "offset": 0,
        "slot": "20",
        "type": "t_mapping(t_address,t_bool)"
      },
      {
        "astId": 34028,
        "contract": "contracts/XVSVault/XVSVault.sol:XVSVault",
        "label": "pendingRewardTransfers",
        "offset": 0,
        "slot": "21",
        "type": "t_mapping(t_address,t_mapping(t_address,t_uint256))"
      },
      {
        "astId": 34030,
        "contract": "contracts/XVSVault/XVSVault.sol:XVSVault",
        "label": "primeToken",
        "offset": 0,
        "slot": "22",
        "type": "t_contract(IPrime)12009"
      },
      {
        "astId": 34032,
        "contract": "contracts/XVSVault/XVSVault.sol:XVSVault",
        "label": "primeRewardToken",
        "offset": 0,
        "slot": "23",
        "type": "t_address"
      },
      {
        "astId": 34034,
        "contract": "contracts/XVSVault/XVSVault.sol:XVSVault",
        "label": "primePoolId",
        "offset": 0,
        "slot": "24",
        "type": "t_uint256"
      },
      {
        "astId": 34038,
        "contract": "contracts/XVSVault/XVSVault.sol:XVSVault",
        "label": "__gap",
        "offset": 0,
        "slot": "25",
        "type": "t_array(t_uint256)46_storage"
      },
      {
        "astId": 4,
        "contract": "contracts/XVSVault/XVSVault.sol:XVSVault",
        "label": "_accessControlManager",
        "offset": 0,
        "slot": "71",
        "type": "t_contract(IAccessControlManagerV5)1933"
      },
      {
        "astId": 8,
        "contract": "contracts/XVSVault/XVSVault.sol:XVSVault",
        "label": "__gap",
        "offset": 0,
        "slot": "72",
        "type": "t_array(t_uint256)49_storage"
      }
    ],
    "types": {
      "t_address": {
        "encoding": "inplace",
        "label": "address",
        "numberOfBytes": "20"
      },
      "t_array(t_struct(PoolInfo)33927_storage)dyn_storage": {
        "base": "t_struct(PoolInfo)33927_storage",
        "encoding": "dynamic_array",
        "label": "struct XVSVaultStorageV1.PoolInfo[]",
        "numberOfBytes": "32"
      },
      "t_array(t_struct(WithdrawalRequest)33934_storage)dyn_storage": {
        "base": "t_struct(WithdrawalRequest)33934_storage",
        "encoding": "dynamic_array",
        "label": "struct XVSVaultStorageV1.WithdrawalRequest[]",
        "numberOfBytes": "32"
      },
      "t_array(t_uint256)46_storage": {
        "base": "t_uint256",
        "encoding": "inplace",
        "label": "uint256[46]",
        "numberOfBytes": "1472"
      },
      "t_array(t_uint256)49_storage": {
        "base": "t_uint256",
        "encoding": "inplace",
        "label": "uint256[49]",
        "numberOfBytes": "1568"
      },
      "t_bool": {
        "encoding": "inplace",
        "label": "bool",
        "numberOfBytes": "1"
      },
      "t_contract(IAccessControlManagerV5)1933": {
        "encoding": "inplace",
        "label": "contract IAccessControlManagerV5",
        "numberOfBytes": "20"
      },
      "t_contract(IBEP20)27212": {
        "encoding": "inplace",
        "label": "contract IBEP20",
        "numberOfBytes": "20"
      },
      "t_contract(IPrime)12009": {
        "encoding": "inplace",
        "label": "contract IPrime",
        "numberOfBytes": "20"
      },
      "t_mapping(t_address,t_address)": {
        "encoding": "mapping",
        "key": "t_address",
        "label": "mapping(address => address)",
        "numberOfBytes": "32",
        "value": "t_address"
      },
      "t_mapping(t_address,t_array(t_struct(PoolInfo)33927_storage)dyn_storage)": {
        "encoding": "mapping",
        "key": "t_address",
        "label": "mapping(address => struct XVSVaultStorageV1.PoolInfo[])",
        "numberOfBytes": "32",
        "value": "t_array(t_struct(PoolInfo)33927_storage)dyn_storage"
      },
      "t_mapping(t_address,t_array(t_struct(WithdrawalRequest)33934_storage)dyn_storage)": {
        "encoding": "mapping",
        "key": "t_address",
        "label": "mapping(address => struct XVSVaultStorageV1.WithdrawalRequest[])",
        "numberOfBytes": "32",
        "value": "t_array(t_struct(WithdrawalRequest)33934_storage)dyn_storage"
      },
      "t_mapping(t_address,t_bool)": {
        "encoding": "mapping",
        "key": "t_address",
        "label": "mapping(address => bool)",
        "numberOfBytes": "32",
        "value": "t_bool"
      },
      "t_mapping(t_address,t_mapping(t_address,t_uint256))": {
        "encoding": "mapping",
        "key": "t_address",
        "label": "mapping(address => mapping(address => uint256))",
        "numberOfBytes": "32",
        "value": "t_mapping(t_address,t_uint256)"
      },
      "t_mapping(t_address,t_mapping(t_uint256,t_mapping(t_address,t_array(t_struct(WithdrawalRequest)33934_storage)dyn_storage)))": {
        "encoding": "mapping",
        "key": "t_address",
        "label": "mapping(address => mapping(uint256 => mapping(address => struct XVSVaultStorageV1.WithdrawalRequest[])))",
        "numberOfBytes": "32",
        "value": "t_mapping(t_uint256,t_mapping(t_address,t_array(t_struct(WithdrawalRequest)33934_storage)dyn_storage))"
      },
      "t_mapping(t_address,t_mapping(t_uint256,t_mapping(t_address,t_struct(UserInfo)33916_storage)))": {
        "encoding": "mapping",
        "key": "t_address",
        "label": "mapping(address => mapping(uint256 => mapping(address => struct XVSVaultStorageV1.UserInfo)))",
        "numberOfBytes": "32",
        "value": "t_mapping(t_uint256,t_mapping(t_address,t_struct(UserInfo)33916_storage))"
      },
      "t_mapping(t_address,t_mapping(t_uint256,t_uint256))": {
        "encoding": "mapping",
        "key": "t_address",
        "label": "mapping(address => mapping(uint256 => uint256))",
        "numberOfBytes": "32",
        "value": "t_mapping(t_uint256,t_uint256)"
      },
      "t_mapping(t_address,t_mapping(t_uint32,t_struct(Checkpoint)33969_storage))": {
        "encoding": "mapping",
        "key": "t_address",
        "label": "mapping(address => mapping(uint32 => struct XVSVaultStorageV1.Checkpoint))",
        "numberOfBytes": "32",
        "value": "t_mapping(t_uint32,t_struct(Checkpoint)33969_storage)"
      },
      "t_mapping(t_address,t_struct(UserInfo)33916_storage)": {
        "encoding": "mapping",
        "key": "t_address",
        "label": "mapping(address => struct XVSVaultStorageV1.UserInfo)",
        "numberOfBytes": "32",
        "value": "t_struct(UserInfo)33916_storage"
      },
      "t_mapping(t_address,t_uint256)": {
        "encoding": "mapping",
        "key": "t_address",
        "label": "mapping(address => uint256)",
        "numberOfBytes": "32",
        "value": "t_uint256"
      },
      "t_mapping(t_address,t_uint32)": {
        "encoding": "mapping",
        "key": "t_address",
        "label": "mapping(address => uint32)",
        "numberOfBytes": "32",
        "value": "t_uint32"
      },
      "t_mapping(t_uint256,t_mapping(t_address,t_array(t_struct(WithdrawalRequest)33934_storage)dyn_storage))": {
        "encoding": "mapping",
        "key": "t_uint256",
        "label": "mapping(uint256 => mapping(address => struct XVSVaultStorageV1.WithdrawalRequest[]))",
        "numberOfBytes": "32",
        "value": "t_mapping(t_address,t_array(t_struct(WithdrawalRequest)33934_storage)dyn_storage)"
      },
      "t_mapping(t_uint256,t_mapping(t_address,t_struct(UserInfo)33916_storage))": {
        "encoding": "mapping",
        "key": "t_uint256",
        "label": "mapping(uint256 => mapping(address => struct XVSVaultStorageV1.UserInfo))",
        "numberOfBytes": "32",
        "value": "t_mapping(t_address,t_struct(UserInfo)33916_storage)"
      },
      "t_mapping(t_uint256,t_uint256)": {
        "encoding": "mapping",
        "key": "t_uint256",
        "label": "mapping(uint256 => uint256)",
        "numberOfBytes": "32",
        "value": "t_uint256"
      },
      "t_mapping(t_uint32,t_struct(Checkpoint)33969_storage)": {
        "encoding": "mapping",
        "key": "t_uint32",
        "label": "mapping(uint32 => struct XVSVaultStorageV1.Checkpoint)",
        "numberOfBytes": "32",
        "value": "t_struct(Checkpoint)33969_storage"
      },
      "t_struct(Checkpoint)33969_storage": {
        "encoding": "inplace",
        "label": "struct XVSVaultStorageV1.Checkpoint",
        "members": [
          {
            "astId": 33966,
            "contract": "contracts/XVSVault/XVSVault.sol:XVSVault",
            "label": "fromBlock",
            "offset": 0,
            "slot": "0",
            "type": "t_uint32"
          },
          {
            "astId": 33968,
            "contract": "contracts/XVSVault/XVSVault.sol:XVSVault",
            "label": "votes",
            "offset": 4,
            "slot": "0",
            "type": "t_uint96"
          }
        ],
        "numberOfBytes": "32"
      },
      "t_struct(PoolInfo)33927_storage": {
        "encoding": "inplace",
        "label": "struct XVSVaultStorageV1.PoolInfo",
        "members": [
          {
            "astId": 33918,
            "contract": "contracts/XVSVault/XVSVault.sol:XVSVault",
            "label": "token",
            "offset": 0,
            "slot": "0",
            "type": "t_contract(IBEP20)27212"
          },
          {
            "astId": 33920,
            "contract": "contracts/XVSVault/XVSVault.sol:XVSVault",
            "label": "allocPoint",
            "offset": 0,
            "slot": "1",
            "type": "t_uint256"
          },
          {
            "astId": 33922,
            "contract": "contracts/XVSVault/XVSVault.sol:XVSVault",
            "label": "lastRewardBlock",
            "offset": 0,
            "slot": "2",
            "type": "t_uint256"
          },
          {
            "astId": 33924,
            "contract": "contracts/XVSVault/XVSVault.sol:XVSVault",
            "label": "accRewardPerShare",
            "offset": 0,
            "slot": "3",
            "type": "t_uint256"
          },
          {
            "astId": 33926,
            "contract": "contracts/XVSVault/XVSVault.sol:XVSVault",
            "label": "lockPeriod",
            "offset": 0,
            "slot": "4",
            "type": "t_uint256"
          }
        ],
        "numberOfBytes": "160"
      },
      "t_struct(UserInfo)33916_storage": {
        "encoding": "inplace",
        "label": "struct XVSVaultStorageV1.UserInfo",
        "members": [
          {
            "astId": 33911,
            "contract": "contracts/XVSVault/XVSVault.sol:XVSVault",
            "label": "amount",
            "offset": 0,
            "slot": "0",
            "type": "t_uint256"
          },
          {
            "astId": 33913,
            "contract": "contracts/XVSVault/XVSVault.sol:XVSVault",
            "label": "rewardDebt",
            "offset": 0,
            "slot": "1",
            "type": "t_uint256"
          },
          {
            "astId": 33915,
            "contract": "contracts/XVSVault/XVSVault.sol:XVSVault",
            "label": "pendingWithdrawals",
            "offset": 0,
            "slot": "2",
            "type": "t_uint256"
          }
        ],
        "numberOfBytes": "96"
      },
      "t_struct(WithdrawalRequest)33934_storage": {
        "encoding": "inplace",
        "label": "struct XVSVaultStorageV1.WithdrawalRequest",
        "members": [
          {
            "astId": 33929,
            "contract": "contracts/XVSVault/XVSVault.sol:XVSVault",
            "label": "amount",
            "offset": 0,
            "slot": "0",
            "type": "t_uint256"
          },
          {
            "astId": 33931,
            "contract": "contracts/XVSVault/XVSVault.sol:XVSVault",
            "label": "lockedUntil",
            "offset": 0,
            "slot": "1",
            "type": "t_uint128"
          },
          {
            "astId": 33933,
            "contract": "contracts/XVSVault/XVSVault.sol:XVSVault",
            "label": "afterUpgrade",
            "offset": 16,
            "slot": "1",
            "type": "t_uint128"
          }
        ],
        "numberOfBytes": "64"
      },
      "t_uint128": {
        "encoding": "inplace",
        "label": "uint128",
        "numberOfBytes": "16"
      },
      "t_uint256": {
        "encoding": "inplace",
        "label": "uint256",
        "numberOfBytes": "32"
      },
      "t_uint32": {
        "encoding": "inplace",
        "label": "uint32",
        "numberOfBytes": "4"
      },
      "t_uint96": {
        "encoding": "inplace",
        "label": "uint96",
        "numberOfBytes": "12"
      }
    }
  }
}