{
  "address": "0x246c6e6cABF0dC008773176C4893e65Bd5fbB51E",
  "abi": [
    {
      "inputs": [],
      "payable": false,
      "stateMutability": "nonpayable",
      "type": "constructor"
    },
    {
      "anonymous": false,
      "inputs": [
        {
          "indexed": true,
          "internalType": "address",
          "name": "user",
          "type": "address"
        },
        {
          "indexed": true,
          "internalType": "address",
          "name": "rewardToken",
          "type": "address"
        },
        {
          "indexed": true,
          "internalType": "uint256",
          "name": "pid",
          "type": "uint256"
        },
        {
          "indexed": false,
          "internalType": "uint256",
          "name": "amount",
          "type": "uint256"
        }
      ],
      "name": "Claim",
      "type": "event"
    },
    {
      "anonymous": false,
      "inputs": [
        {
          "indexed": true,
          "internalType": "address",
          "name": "delegator",
          "type": "address"
        },
        {
          "indexed": true,
          "internalType": "address",
          "name": "fromDelegate",
          "type": "address"
        },
        {
          "indexed": true,
          "internalType": "address",
          "name": "toDelegate",
          "type": "address"
        }
      ],
      "name": "DelegateChangedV2",
      "type": "event"
    },
    {
      "anonymous": false,
      "inputs": [
        {
          "indexed": true,
          "internalType": "address",
          "name": "delegate",
          "type": "address"
        },
        {
          "indexed": false,
          "internalType": "uint256",
          "name": "previousBalance",
          "type": "uint256"
        },
        {
          "indexed": false,
          "internalType": "uint256",
          "name": "newBalance",
          "type": "uint256"
        }
      ],
      "name": "DelegateVotesChangedV2",
      "type": "event"
    },
    {
      "anonymous": false,
      "inputs": [
        {
          "indexed": true,
          "internalType": "address",
          "name": "user",
          "type": "address"
        },
        {
          "indexed": true,
          "internalType": "address",
          "name": "rewardToken",
          "type": "address"
        },
        {
          "indexed": true,
          "internalType": "uint256",
          "name": "pid",
          "type": "uint256"
        },
        {
          "indexed": false,
          "internalType": "uint256",
          "name": "amount",
          "type": "uint256"
        }
      ],
      "name": "Deposit",
      "type": "event"
    },
    {
      "anonymous": false,
      "inputs": [
        {
          "indexed": true,
          "internalType": "address",
          "name": "user",
          "type": "address"
        },
        {
          "indexed": true,
          "internalType": "address",
          "name": "rewardToken",
          "type": "address"
        },
        {
          "indexed": true,
          "internalType": "uint256",
          "name": "pid",
          "type": "uint256"
        },
        {
          "indexed": false,
          "internalType": "uint256",
          "name": "amount",
          "type": "uint256"
        }
      ],
      "name": "ExecutedWithdrawal",
      "type": "event"
    },
    {
      "anonymous": false,
      "inputs": [
        {
          "indexed": false,
          "internalType": "address",
          "name": "oldAccessControlManager",
          "type": "address"
        },
        {
          "indexed": false,
          "internalType": "address",
          "name": "newAccessControlManager",
          "type": "address"
        }
      ],
      "name": "NewAccessControlManager",
      "type": "event"
    },
    {
      "anonymous": false,
      "inputs": [
        {
          "indexed": true,
          "internalType": "contract IPrime",
          "name": "oldPrimeToken",
          "type": "address"
        },
        {
          "indexed": true,
          "internalType": "contract IPrime",
          "name": "newPrimeToken",
          "type": "address"
        },
        {
          "indexed": false,
          "internalType": "address",
          "name": "oldPrimeRewardToken",
          "type": "address"
        },
        {
          "indexed": false,
          "internalType": "address",
          "name": "newPrimeRewardToken",
          "type": "address"
        },
        {
          "indexed": false,
          "internalType": "uint256",
          "name": "oldPrimePoolId",
          "type": "uint256"
        },
        {
          "indexed": false,
          "internalType": "uint256",
          "name": "newPrimePoolId",
          "type": "uint256"
        }
      ],
      "name": "NewPrimeToken",
      "type": "event"
    },
    {
      "anonymous": false,
      "inputs": [
        {
          "indexed": true,
          "internalType": "address",
          "name": "rewardToken",
          "type": "address"
        },
        {
          "indexed": true,
          "internalType": "uint256",
          "name": "pid",
          "type": "uint256"
        },
        {
          "indexed": true,
          "internalType": "address",
          "name": "token",
          "type": "address"
        },
        {
          "indexed": false,
          "internalType": "uint256",
          "name": "allocPoints",
          "type": "uint256"
        },
        {
          "indexed": false,
          "internalType": "uint256",
          "name": "rewardPerBlockOrSecond",
          "type": "uint256"
        },
        {
          "indexed": false,
          "internalType": "uint256",
          "name": "lockPeriod",
          "type": "uint256"
        }
      ],
      "name": "PoolAdded",
      "type": "event"
    },
    {
      "anonymous": false,
      "inputs": [
        {
          "indexed": true,
          "internalType": "address",
          "name": "rewardToken",
          "type": "address"
        },
        {
          "indexed": true,
          "internalType": "uint256",
          "name": "pid",
          "type": "uint256"
        },
        {
          "indexed": false,
          "internalType": "uint256",
          "name": "oldAllocPoints",
          "type": "uint256"
        },
        {
          "indexed": false,
          "internalType": "uint256",
          "name": "newAllocPoints",
          "type": "uint256"
        }
      ],
      "name": "PoolUpdated",
      "type": "event"
    },
    {
      "anonymous": false,
      "inputs": [
        {
          "indexed": true,
          "internalType": "address",
          "name": "user",
          "type": "address"
        },
        {
          "indexed": true,
          "internalType": "address",
          "name": "rewardToken",
          "type": "address"
        },
        {
          "indexed": true,
          "internalType": "uint256",
          "name": "pid",
          "type": "uint256"
        },
        {
          "indexed": false,
          "internalType": "uint256",
          "name": "amount",
          "type": "uint256"
        }
      ],
      "name": "RequestedWithdrawal",
      "type": "event"
    },
    {
      "anonymous": false,
      "inputs": [
        {
          "indexed": true,
          "internalType": "address",
          "name": "rewardToken",
          "type": "address"
        },
        {
          "indexed": false,
          "internalType": "uint256",
          "name": "oldReward",
          "type": "uint256"
        },
        {
          "indexed": false,
          "internalType": "uint256",
          "name": "newReward",
          "type": "uint256"
        }
      ],
      "name": "RewardAmountUpdated",
      "type": "event"
    },
    {
      "anonymous": false,
      "inputs": [
        {
          "indexed": false,
          "internalType": "address",
          "name": "oldXvs",
          "type": "address"
        },
        {
          "indexed": false,
          "internalType": "address",
          "name": "oldStore",
          "type": "address"
        },
        {
          "indexed": false,
          "internalType": "address",
          "name": "newXvs",
          "type": "address"
        },
        {
          "indexed": false,
          "internalType": "address",
          "name": "newStore",
          "type": "address"
        }
      ],
      "name": "StoreUpdated",
      "type": "event"
    },
    {
      "anonymous": false,
      "inputs": [
        {
          "indexed": true,
          "internalType": "address",
          "name": "rewardToken",
          "type": "address"
        },
        {
          "indexed": true,
          "internalType": "address",
          "name": "userAddress",
          "type": "address"
        },
        {
          "indexed": false,
          "internalType": "uint256",
          "name": "oldOwedAmount",
          "type": "uint256"
        },
        {
          "indexed": false,
          "internalType": "uint256",
          "name": "newOwedAmount",
          "type": "uint256"
        }
      ],
      "name": "VaultDebtUpdated",
      "type": "event"
    },
    {
      "anonymous": false,
      "inputs": [
        {
          "indexed": true,
          "internalType": "address",
          "name": "admin",
          "type": "address"
        }
      ],
      "name": "VaultPaused",
      "type": "event"
    },
    {
      "anonymous": false,
      "inputs": [
        {
          "indexed": true,
          "internalType": "address",
          "name": "admin",
          "type": "address"
        }
      ],
      "name": "VaultResumed",
      "type": "event"
    },
    {
      "anonymous": false,
      "inputs": [
        {
          "indexed": true,
          "internalType": "address",
          "name": "rewardToken",
          "type": "address"
        },
        {
          "indexed": true,
          "internalType": "uint256",
          "name": "pid",
          "type": "uint256"
        },
        {
          "indexed": false,
          "internalType": "uint256",
          "name": "oldPeriod",
          "type": "uint256"
        },
        {
          "indexed": false,
          "internalType": "uint256",
          "name": "newPeriod",
          "type": "uint256"
        }
      ],
      "name": "WithdrawalLockingPeriodUpdated",
      "type": "event"
    },
    {
      "constant": true,
      "inputs": [],
      "name": "DELEGATION_TYPEHASH",
      "outputs": [
        {
          "internalType": "bytes32",
          "name": "",
          "type": "bytes32"
        }
      ],
      "payable": false,
      "stateMutability": "view",
      "type": "function"
    },
    {
      "constant": true,
      "inputs": [],
      "name": "DOMAIN_TYPEHASH",
      "outputs": [
        {
          "internalType": "bytes32",
          "name": "",
          "type": "bytes32"
        }
      ],
      "payable": false,
      "stateMutability": "view",
      "type": "function"
    },
    {
      "constant": true,
      "inputs": [],
      "name": "MAX_LOCK_PERIOD",
      "outputs": [
        {
          "internalType": "uint256",
          "name": "",
          "type": "uint256"
        }
      ],
      "payable": false,
      "stateMutability": "view",
      "type": "function"
    },
    {
      "constant": true,
      "inputs": [],
      "name": "SECONDS_PER_YEAR",
      "outputs": [
        {
          "internalType": "uint256",
          "name": "",
          "type": "uint256"
        }
      ],
      "payable": false,
      "stateMutability": "view",
      "type": "function"
    },
    {
      "constant": false,
      "inputs": [
        {
          "internalType": "contract XVSVaultProxy",
          "name": "xvsVaultProxy",
          "type": "address"
        }
      ],
      "name": "_become",
      "outputs": [],
      "payable": false,
      "stateMutability": "nonpayable",
      "type": "function"
    },
    {
      "constant": true,
      "inputs": [],
      "name": "accessControlManager",
      "outputs": [
        {
          "internalType": "contract IAccessControlManagerV5",
          "name": "",
          "type": "address"
        }
      ],
      "payable": false,
      "stateMutability": "view",
      "type": "function"
    },
    {
      "constant": false,
      "inputs": [
        {
          "internalType": "address",
          "name": "_rewardToken",
          "type": "address"
        },
        {
          "internalType": "uint256",
          "name": "_allocPoint",
          "type": "uint256"
        },
        {
          "internalType": "contract IBEP20",
          "name": "_token",
          "type": "address"
        },
        {
          "internalType": "uint256",
          "name": "_rewardPerBlockOrSecond",
          "type": "uint256"
        },
        {
          "internalType": "uint256",
          "name": "_lockPeriod",
          "type": "uint256"
        }
      ],
      "name": "add",
      "outputs": [],
      "payable": false,
      "stateMutability": "nonpayable",
      "type": "function"
    },
    {
      "constant": true,
      "inputs": [],
      "name": "admin",
      "outputs": [
        {
          "internalType": "address",
          "name": "",
          "type": "address"
        }
      ],
      "payable": false,
      "stateMutability": "view",
      "type": "function"
    },
    {
      "constant": true,
      "inputs": [],
      "name": "blocksOrSecondsPerYear",
      "outputs": [
        {
          "internalType": "uint256",
          "name": "",
          "type": "uint256"
        }
      ],
      "payable": false,
      "stateMutability": "view",
      "type": "function"
    },
    {
      "constant": true,
      "inputs": [
        {
          "internalType": "address",
          "name": "",
          "type": "address"
        },
        {
          "internalType": "uint32",
          "name": "",
          "type": "uint32"
        }
      ],
      "name": "checkpoints",
      "outputs": [
        {
          "internalType": "uint32",
          "name": "fromBlockOrSecond",
          "type": "uint32"
        },
        {
          "internalType": "uint96",
          "name": "votes",
          "type": "uint96"
        }
      ],
      "payable": false,
      "stateMutability": "view",
      "type": "function"
    },
    {
      "constant": false,
      "inputs": [
        {
          "internalType": "address",
          "name": "_account",
          "type": "address"
        },
        {
          "internalType": "address",
          "name": "_rewardToken",
          "type": "address"
        },
        {
          "internalType": "uint256",
          "name": "_pid",
          "type": "uint256"
        }
      ],
      "name": "claim",
      "outputs": [],
      "payable": false,
      "stateMutability": "nonpayable",
      "type": "function"
    },
    {
      "constant": false,
      "inputs": [
        {
          "internalType": "address",
          "name": "delegatee",
          "type": "address"
        }
      ],
      "name": "delegate",
      "outputs": [],
      "payable": false,
      "stateMutability": "nonpayable",
      "type": "function"
    },
    {
      "constant": false,
      "inputs": [
        {
          "internalType": "address",
          "name": "delegatee",
          "type": "address"
        },
        {
          "internalType": "uint256",
          "name": "nonce",
          "type": "uint256"
        },
        {
          "internalType": "uint256",
          "name": "expiry",
          "type": "uint256"
        },
        {
          "internalType": "uint8",
          "name": "v",
          "type": "uint8"
        },
        {
          "internalType": "bytes32",
          "name": "r",
          "type": "bytes32"
        },
        {
          "internalType": "bytes32",
          "name": "s",
          "type": "bytes32"
        }
      ],
      "name": "delegateBySig",
      "outputs": [],
      "payable": false,
      "stateMutability": "nonpayable",
      "type": "function"
    },
    {
      "constant": true,
      "inputs": [
        {
          "internalType": "address",
          "name": "",
          "type": "address"
        }
      ],
      "name": "delegates",
      "outputs": [
        {
          "internalType": "address",
          "name": "",
          "type": "address"
        }
      ],
      "payable": false,
      "stateMutability": "view",
      "type": "function"
    },
    {
      "constant": false,
      "inputs": [
        {
          "internalType": "address",
          "name": "_rewardToken",
          "type": "address"
        },
        {
          "internalType": "uint256",
          "name": "_pid",
          "type": "uint256"
        },
        {
          "internalType": "uint256",
          "name": "_amount",
          "type": "uint256"
        }
      ],
      "name": "deposit",
      "outputs": [],
      "payable": false,
      "stateMutability": "nonpayable",
      "type": "function"
    },
    {
      "constant": false,
      "inputs": [
        {
          "internalType": "address",
          "name": "_rewardToken",
          "type": "address"
        },
        {
          "internalType": "uint256",
          "name": "_pid",
          "type": "uint256"
        }
      ],
      "name": "executeWithdrawal",
      "outputs": [],
      "payable": false,
      "stateMutability": "nonpayable",
      "type": "function"
    },
    {
      "constant": true,
      "inputs": [],
      "name": "getBlockNumberOrTimestamp",
      "outputs": [
        {
          "internalType": "uint256",
          "name": "",
          "type": "uint256"
        }
      ],
      "payable": false,
      "stateMutability": "view",
      "type": "function"
    },
    {
      "constant": true,
      "inputs": [
        {
          "internalType": "address",
          "name": "account",
          "type": "address"
        }
      ],
      "name": "getCurrentVotes",
      "outputs": [
        {
          "internalType": "uint96",
          "name": "",
          "type": "uint96"
        }
      ],
      "payable": false,
      "stateMutability": "view",
      "type": "function"
    },
    {
      "constant": true,
      "inputs": [
        {
          "internalType": "address",
          "name": "_rewardToken",
          "type": "address"
        },
        {
          "internalType": "uint256",
          "name": "_pid",
          "type": "uint256"
        },
        {
          "internalType": "address",
          "name": "_user",
          "type": "address"
        }
      ],
      "name": "getEligibleWithdrawalAmount",
      "outputs": [
        {
          "internalType": "uint256",
          "name": "withdrawalAmount",
          "type": "uint256"
        }
      ],
      "payable": false,
      "stateMutability": "view",
      "type": "function"
    },
    {
      "constant": true,
      "inputs": [
        {
          "internalType": "address",
          "name": "account",
          "type": "address"
        },
        {
          "internalType": "uint256",
          "name": "blockNumberOrSecond",
          "type": "uint256"
        }
      ],
      "name": "getPriorVotes",
      "outputs": [
        {
          "internalType": "uint96",
          "name": "",
          "type": "uint96"
        }
      ],
      "payable": false,
      "stateMutability": "view",
      "type": "function"
    },
    {
      "constant": true,
      "inputs": [
        {
          "internalType": "address",
          "name": "_rewardToken",
          "type": "address"
        },
        {
          "internalType": "uint256",
          "name": "_pid",
          "type": "uint256"
        },
        {
          "internalType": "address",
          "name": "_user",
          "type": "address"
        }
      ],
      "name": "getRequestedAmount",
      "outputs": [
        {
          "internalType": "uint256",
          "name": "",
          "type": "uint256"
        }
      ],
      "payable": false,
      "stateMutability": "view",
      "type": "function"
    },
    {
      "constant": true,
      "inputs": [
        {
          "internalType": "address",
          "name": "_rewardToken",
          "type": "address"
        },
        {
          "internalType": "uint256",
          "name": "_pid",
          "type": "uint256"
        },
        {
          "internalType": "address",
          "name": "_user",
          "type": "address"
        }
      ],
      "name": "getUserInfo",
      "outputs": [
        {
          "internalType": "uint256",
          "name": "amount",
          "type": "uint256"
        },
        {
          "internalType": "uint256",
          "name": "rewardDebt",
          "type": "uint256"
        },
        {
          "internalType": "uint256",
          "name": "pendingWithdrawals",
          "type": "uint256"
        }
      ],
      "payable": false,
      "stateMutability": "view",
      "type": "function"
    },
    {
      "constant": true,
      "inputs": [
        {
          "internalType": "address",
          "name": "_rewardToken",
          "type": "address"
        },
        {
          "internalType": "uint256",
          "name": "_pid",
          "type": "uint256"
        },
        {
          "internalType": "address",
          "name": "_user",
          "type": "address"
        }
      ],
      "name": "getWithdrawalRequests",
      "outputs": [
        {
          "components": [
            {
              "internalType": "uint256",
              "name": "amount",
              "type": "uint256"
            },
            {
              "internalType": "uint128",
              "name": "lockedUntil",
              "type": "uint128"
            },
            {
              "internalType": "uint128",
              "name": "afterUpgrade",
              "type": "uint128"
            }
          ],
          "internalType": "struct XVSVaultStorageV1.WithdrawalRequest[]",
          "name": "",
          "type": "tuple[]"
        }
      ],
      "payable": false,
      "stateMutability": "view",
      "type": "function"
    },
    {
      "constant": true,
      "inputs": [],
      "name": "implementation",
      "outputs": [
        {
          "internalType": "address",
          "name": "",
          "type": "address"
        }
      ],
      "payable": false,
      "stateMutability": "view",
      "type": "function"
    },
    {
      "constant": false,
      "inputs": [
        {
          "internalType": "bool",
          "name": "timeBased_",
          "type": "bool"
        },
        {
          "internalType": "uint256",
          "name": "blocksPerYear_",
          "type": "uint256"
        }
      ],
      "name": "initializeTimeManager",
      "outputs": [],
      "payable": false,
      "stateMutability": "nonpayable",
      "type": "function"
    },
    {
      "constant": true,
      "inputs": [
        {
          "internalType": "address",
          "name": "",
          "type": "address"
        }
      ],
      "name": "isStakedToken",
      "outputs": [
        {
          "internalType": "bool",
          "name": "",
          "type": "bool"
        }
      ],
      "payable": false,
      "stateMutability": "view",
      "type": "function"
    },
    {
      "constant": true,
      "inputs": [],
      "name": "isTimeBased",
      "outputs": [
        {
          "internalType": "bool",
          "name": "",
          "type": "bool"
        }
      ],
      "payable": false,
      "stateMutability": "view",
      "type": "function"
    },
    {
      "constant": true,
      "inputs": [
        {
          "internalType": "address",
          "name": "",
          "type": "address"
        }
      ],
      "name": "nonces",
      "outputs": [
        {
          "internalType": "uint256",
          "name": "",
          "type": "uint256"
        }
      ],
      "payable": false,
      "stateMutability": "view",
      "type": "function"
    },
    {
      "constant": true,
      "inputs": [
        {
          "internalType": "address",
          "name": "",
          "type": "address"
        }
      ],
      "name": "numCheckpoints",
      "outputs": [
        {
          "internalType": "uint32",
          "name": "",
          "type": "uint32"
        }
      ],
      "payable": false,
      "stateMutability": "view",
      "type": "function"
    },
    {
      "constant": false,
      "inputs": [],
      "name": "pause",
      "outputs": [],
      "payable": false,
      "stateMutability": "nonpayable",
      "type": "function"
    },
    {
      "constant": true,
      "inputs": [],
      "name": "pendingAdmin",
      "outputs": [
        {
          "internalType": "address",
          "name": "",
          "type": "address"
        }
      ],
      "payable": false,
      "stateMutability": "view",
      "type": "function"
    },
    {
      "constant": true,
      "inputs": [
        {
          "internalType": "address",
          "name": "_rewardToken",
          "type": "address"
        },
        {
          "internalType": "uint256",
          "name": "_pid",
          "type": "uint256"
        },
        {
          "internalType": "address",
          "name": "_user",
          "type": "address"
        }
      ],
      "name": "pendingReward",
      "outputs": [
        {
          "internalType": "uint256",
          "name": "",
          "type": "uint256"
        }
      ],
      "payable": false,
      "stateMutability": "view",
      "type": "function"
    },
    {
      "constant": true,
      "inputs": [
        {
          "internalType": "address",
          "name": "",
          "type": "address"
        },
        {
          "internalType": "address",
          "name": "",
          "type": "address"
        }
      ],
      "name": "pendingRewardTransfers",
      "outputs": [
        {
          "internalType": "uint256",
          "name": "",
          "type": "uint256"
        }
      ],
      "payable": false,
      "stateMutability": "view",
      "type": "function"
    },
    {
      "constant": true,
      "inputs": [
        {
          "internalType": "address",
          "name": "_rewardToken",
          "type": "address"
        },
        {
          "internalType": "uint256",
          "name": "_pid",
          "type": "uint256"
        },
        {
          "internalType": "address",
          "name": "_user",
          "type": "address"
        }
      ],
      "name": "pendingWithdrawalsBeforeUpgrade",
      "outputs": [
        {
          "internalType": "uint256",
          "name": "beforeUpgradeWithdrawalAmount",
          "type": "uint256"
        }
      ],
      "payable": false,
      "stateMutability": "view",
      "type": "function"
    },
    {
      "constant": true,
      "inputs": [],
      "name": "pendingXVSVaultImplementation",
      "outputs": [
        {
          "internalType": "address",
          "name": "",
          "type": "address"
        }
      ],
      "payable": false,
      "stateMutability": "view",
      "type": "function"
    },
    {
      "constant": true,
      "inputs": [
        {
          "internalType": "address",
          "name": "",
          "type": "address"
        },
        {
          "internalType": "uint256",
          "name": "",
          "type": "uint256"
        }
      ],
      "name": "poolInfos",
      "outputs": [
        {
          "internalType": "contract IBEP20",
          "name": "token",
          "type": "address"
        },
        {
          "internalType": "uint256",
          "name": "allocPoint",
          "type": "uint256"
        },
        {
          "internalType": "uint256",
          "name": "lastRewardBlockOrSecond",
          "type": "uint256"
        },
        {
          "internalType": "uint256",
          "name": "accRewardPerShare",
          "type": "uint256"
        },
        {
          "internalType": "uint256",
          "name": "lockPeriod",
          "type": "uint256"
        }
      ],
      "payable": false,
      "stateMutability": "view",
      "type": "function"
    },
    {
      "constant": true,
      "inputs": [
        {
          "internalType": "address",
          "name": "rewardToken",
          "type": "address"
        }
      ],
      "name": "poolLength",
      "outputs": [
        {
          "internalType": "uint256",
          "name": "",
          "type": "uint256"
        }
      ],
      "payable": false,
      "stateMutability": "view",
      "type": "function"
    },
    {
      "constant": true,
      "inputs": [],
      "name": "primePoolId",
      "outputs": [
        {
          "internalType": "uint256",
          "name": "",
          "type": "uint256"
        }
      ],
      "payable": false,
      "stateMutability": "view",
      "type": "function"
    },
    {
      "constant": true,
      "inputs": [],
      "name": "primeRewardToken",
      "outputs": [
        {
          "internalType": "address",
          "name": "",
          "type": "address"
        }
      ],
      "payable": false,
      "stateMutability": "view",
      "type": "function"
    },
    {
      "constant": true,
      "inputs": [],
      "name": "primeToken",
      "outputs": [
        {
          "internalType": "contract IPrime",
          "name": "",
          "type": "address"
        }
      ],
      "payable": false,
      "stateMutability": "view",
      "type": "function"
    },
    {
      "constant": false,
      "inputs": [
        {
          "internalType": "address",
          "name": "_rewardToken",
          "type": "address"
        },
        {
          "internalType": "uint256",
          "name": "_pid",
          "type": "uint256"
        },
        {
          "internalType": "uint256",
          "name": "_amount",
          "type": "uint256"
        }
      ],
      "name": "requestWithdrawal",
      "outputs": [],
      "payable": false,
      "stateMutability": "nonpayable",
      "type": "function"
    },
    {
      "constant": false,
      "inputs": [],
      "name": "resume",
      "outputs": [],
      "payable": false,
      "stateMutability": "nonpayable",
      "type": "function"
    },
    {
      "constant": true,
      "inputs": [
        {
          "internalType": "address",
          "name": "_rewardToken",
          "type": "address"
        }
      ],
      "name": "rewardTokenAmountsPerBlock",
      "outputs": [
        {
          "internalType": "uint256",
          "name": "",
          "type": "uint256"
        }
      ],
      "payable": false,
      "stateMutability": "view",
      "type": "function"
    },
    {
      "constant": true,
      "inputs": [
        {
          "internalType": "address",
          "name": "",
          "type": "address"
        }
      ],
      "name": "rewardTokenAmountsPerBlockOrSecond",
      "outputs": [
        {
          "internalType": "uint256",
          "name": "",
          "type": "uint256"
        }
      ],
      "payable": false,
      "stateMutability": "view",
      "type": "function"
    },
    {
      "constant": false,
      "inputs": [
        {
          "internalType": "address",
          "name": "_rewardToken",
          "type": "address"
        },
        {
          "internalType": "uint256",
          "name": "_pid",
          "type": "uint256"
        },
        {
          "internalType": "uint256",
          "name": "_allocPoint",
          "type": "uint256"
        }
      ],
      "name": "set",
      "outputs": [],
      "payable": false,
      "stateMutability": "nonpayable",
      "type": "function"
    },
    {
      "constant": false,
      "inputs": [
        {
          "internalType": "address",
          "name": "newAccessControlAddress",
          "type": "address"
        }
      ],
      "name": "setAccessControl",
      "outputs": [],
      "payable": false,
      "stateMutability": "nonpayable",
      "type": "function"
    },
    {
      "constant": false,
      "inputs": [
        {
          "internalType": "contract IPrime",
          "name": "_primeToken",
          "type": "address"
        },
        {
          "internalType": "address",
          "name": "_primeRewardToken",
          "type": "address"
        },
        {
          "internalType": "uint256",
          "name": "_primePoolId",
          "type": "uint256"
        }
      ],
      "name": "setPrimeToken",
      "outputs": [],
      "payable": false,
      "stateMutability": "nonpayable",
      "type": "function"
    },
    {
      "constant": false,
      "inputs": [
        {
          "internalType": "address",
          "name": "_rewardToken",
          "type": "address"
        },
        {
          "internalType": "uint256",
          "name": "_rewardAmount",
          "type": "uint256"
        }
      ],
      "name": "setRewardAmountPerBlockOrSecond",
      "outputs": [],
      "payable": false,
      "stateMutability": "nonpayable",
      "type": "function"
    },
    {
      "constant": false,
      "inputs": [
        {
          "internalType": "address",
          "name": "_rewardToken",
          "type": "address"
        },
        {
          "internalType": "uint256",
          "name": "_pid",
          "type": "uint256"
        },
        {
          "internalType": "uint256",
          "name": "_newPeriod",
          "type": "uint256"
        }
      ],
      "name": "setWithdrawalLockingPeriod",
      "outputs": [],
      "payable": false,
      "stateMutability": "nonpayable",
      "type": "function"
    },
    {
      "constant": false,
      "inputs": [
        {
          "internalType": "address",
          "name": "_xvs",
          "type": "address"
        },
        {
          "internalType": "address",
          "name": "_xvsStore",
          "type": "address"
        }
      ],
      "name": "setXvsStore",
      "outputs": [],
      "payable": false,
      "stateMutability": "nonpayable",
      "type": "function"
    },
    {
      "constant": true,
      "inputs": [
        {
          "internalType": "address",
          "name": "",
          "type": "address"
        }
      ],
      "name": "totalAllocPoints",
      "outputs": [
        {
          "internalType": "uint256",
          "name": "",
          "type": "uint256"
        }
      ],
      "payable": false,
      "stateMutability": "view",
      "type": "function"
    },
    {
      "constant": true,
      "inputs": [
        {
          "internalType": "address",
          "name": "",
          "type": "address"
        },
        {
          "internalType": "uint256",
          "name": "",
          "type": "uint256"
        }
      ],
      "name": "totalPendingWithdrawals",
      "outputs": [
        {
          "internalType": "uint256",
          "name": "",
          "type": "uint256"
        }
      ],
      "payable": false,
      "stateMutability": "view",
      "type": "function"
    },
    {
      "constant": false,
      "inputs": [
        {
          "internalType": "address",
          "name": "_rewardToken",
          "type": "address"
        },
        {
          "internalType": "uint256",
          "name": "_pid",
          "type": "uint256"
        }
      ],
      "name": "updatePool",
      "outputs": [],
      "payable": false,
      "stateMutability": "nonpayable",
      "type": "function"
    },
    {
      "constant": true,
      "inputs": [],
      "name": "vaultPaused",
      "outputs": [
        {
          "internalType": "bool",
          "name": "",
          "type": "bool"
        }
      ],
      "payable": false,
      "stateMutability": "view",
      "type": "function"
    },
    {
      "constant": true,
      "inputs": [],
      "name": "xvsAddress",
      "outputs": [
        {
          "internalType": "address",
          "name": "",
          "type": "address"
        }
      ],
      "payable": false,
      "stateMutability": "view",
      "type": "function"
    },
    {
      "constant": true,
      "inputs": [],
      "name": "xvsStore",
      "outputs": [
        {
          "internalType": "address",
          "name": "",
          "type": "address"
        }
      ],
      "payable": false,
      "stateMutability": "view",
      "type": "function"
    }
  ],
  "transactionHash": "0xa0e0bed569fdd6b074fcb2cc516d3d70dc2e90063f695c252a8966eac42680d3",
  "args": [],
  "numDeployments": 4,
  "solcInputHash": "fa775b84129a0f4612e4a48f11f8bcac",
  "bytecode": "0x608060405234801561001057600080fd5b50600080546001600160a01b0319163317905561578980620000336000396000f3fe608060405234801561001057600080fd5b50600436106103785760003560e01c806392e35000116101d3578063c7ad089511610104578063e7a324dc116100a2578063f55401621161007c578063f554016214610732578063f851a4401461073a578063fba1b1f914610742578063fe5a451a1461075557610378565b8063e7a324dc14610701578063e8f2be6f14610709578063f1127ed81461071157610378565b8063dae66bbe116100de578063dae66bbe146106d6578063de0368b2146106e9578063e1d146fb146106f1578063e6a69ab8146106f957610378565b8063c7ad0895146106a8578063cd9b94e7146106b0578063d7ae45e2146106c357610378565b8063add8933711610171578063b6a5fd2f1161014b578063b6a5fd2f1461064f578063c210259614610662578063c3c754a814610682578063c3cda5201461069557610378565b8063add893371461061f578063b4a0bdf314610627578063b4b5ea571461063c57610378565b80639e2b6c4d116101ad5780639e2b6c4d146105d3578063a09eab7a146105e6578063a6997762146105f9578063a9d69a691461060c57610378565b806392e350001461057a57806398e1b31b1461059e578063996cba68146105c057610378565b80635c19a95c116102ad57806373d025d61161024b5780637ecebe00116102255780637ecebe00146105395780638308d7e91461054c5780638456cb591461055f5780638ed7333d1461056757610378565b806373d025d6146104f1578063782d6fe1146105065780637ac924561461052657610378565b80635ff56315116102875780635ff56315146104a35780636857249c146104b65780636dd77cbd146104be5780636fcfff45146104d157610378565b80635c19a95c146104755780635c60da1b146104885780635f14e7001461049057610378565b806324f52bbf1161031a578063358ae036116102f4578063358ae036146104345780633d4180f91461043c5780634298bdbd1461044f578063587cde1e1461046257610378565b806324f52bbf1461040457806326782247146104195780632eda5c6c1461042157610378565b8063115b512f11610356578063115b512f146103c357806319129e5a146103d65780631d504dc6146103e957806320606b70146103fc57610378565b8063046f7da21461037d5780630af13728146103875780630efe6a8b146103b0575b600080fd5b61038561075d565b005b61039a6103953660046140be565b6107e8565b6040516103a791906150ae565b60405180910390f35b6103856103be366004614176565b61082e565b6103856103d1366004614176565b610b23565b6103856103e4366004613fcb565b610ed7565b6103856103f73660046142bd565b610f0d565b61039a61103e565b61040c611055565b6040516103a79190614f4c565b61040c611064565b61039a61042f366004613fcb565b611073565b61040c611092565b61039a61044a366004614007565b6110a1565b61039a61045d366004613fcb565b6110be565b61040c610470366004613fcb565b6110d0565b610385610483366004613fcb565b6110eb565b61040c611118565b61039a61049e36600461408e565b611127565b6103856104b1366004614007565b611144565b61039a611238565b61039a6104cc3660046140be565b61123e565b6104e46104df366004613fcb565b6112f3565b6040516103a7919061545c565b6104f961130b565b6040516103a791906150a0565b61051961051436600461408e565b611314565b6040516103a79190615485565b61038561053436600461408e565b61152a565b61039a610547366004613fcb565b611873565b61038561055a366004614176565b611885565b610385611a2b565b61038561057536600461408e565b611ab0565b61058d61058836600461408e565b611aeb565b6040516103a795949392919061511b565b6105b16105ac3660046140be565b611b40565b6040516103a793929190615441565b6103856105ce366004614041565b611b92565b6103856105e1366004614176565b611d24565b61039a6105f43660046140be565b611e0f565b61038561060736600461427d565b61205f565b61039a61061a3660046140be565b612093565b61040c6120d5565b61062f6120e4565b6040516103a7919061510d565b61051961064a366004613fcb565b6120f3565b61038561065d36600461408e565b612163565b6106756106703660046140be565b612289565b6040516103a7919061508f565b6104f9610690366004613fcb565b612343565b6103856106a33660046141a8565b612358565b6104f96124fc565b61039a6106be366004613fcb565b612505565b61039a6106d1366004613fcb565b612517565b6103856106e436600461429c565b612532565b61040c61263e565b61039a61264d565b61039a612674565b61039a61267c565b61039a612688565b61072461071f36600461422f565b61268e565b6040516103a792919061546a565b61039a6126c3565b61040c6126cb565b610385610750366004614101565b6126da565b61062f6129bf565b61078660405180604001604052806008815260200167726573756d65282960c01b8152506129ce565b60135460ff166107b15760405162461bcd60e51b81526004016107a8906151d8565b60405180910390fd5b6013805460ff1916905560405133907fd2619572a1464e0df0bb351d834fd47f3350984d7bfdb1ab69cfcb0b8e42141590600090a2565b60006107f48484612a70565b506001600160a01b0380841660009081526007602090815260408083208684528252808320938516835292905220600201545b9392505050565b600354600160a01b900460ff166108575760405162461bcd60e51b81526004016107a890615348565b6003805460ff60a01b1916905560135460ff16156108875760405162461bcd60e51b81526004016107a8906151c8565b6108918383612a70565b6001600160a01b03831660009081526008602052604081208054849081106108b557fe5b600091825260208083206001600160a01b038816845260078252604080852088865283528085203386529092529220600590910290910191506108f88585612aa7565b610903858533612093565b156109205760405162461bcd60e51b81526004016107a8906152e8565b8054156109955760006109338284612c84565b9050801561099357610946863383612c98565b84866001600160a01b0316336001600160a01b03167f865ca08d59f5cb456e85cd2f7ef63664ea4f73327414e9d8152c4158b0e946458460405161098a91906150ae565b60405180910390a45b505b81546109b2906001600160a01b031633308663ffffffff612f1116565b80546109c4908463ffffffff612f7216565b81556109d08183612fb4565b600182015560055482546001600160a01b0390811691161415610a3757336000908152600f60209081526040808320548151606081019092526021808352610a3794936001600160a01b0390921692610a329289929061562990830139612fe2565b613011565b6017546001600160a01b038681169116148015610a55575060185484145b15610abd576016546040516337f23cd360e01b81526001600160a01b03909116906337f23cd390610a8a903390600401614f5a565b600060405180830381600087803b158015610aa457600080fd5b505af1158015610ab8573d6000803e3d6000fd5b505050505b83856001600160a01b0316336001600160a01b03167fdcbc1c05240f31ff3ad067ef1ee35ce4997762752e3a095284754544f4c709d786604051610b0191906150ae565b60405180910390a450506003805460ff60a01b1916600160a01b179055505050565b600354600160a01b900460ff16610b4c5760405162461bcd60e51b81526004016107a890615348565b6003805460ff60a01b1916905560135460ff1615610b7c5760405162461bcd60e51b81526004016107a8906151c8565b610b868383612a70565b60008111610ba65760405162461bcd60e51b81526004016107a890615308565b6001600160a01b0383166000908152600760209081526040808320858452825280832033845290915290206002810154610be6908363ffffffff612f7216565b81541015610c065760405162461bcd60e51b81526004016107a8906153e8565b6001600160a01b0384166000908152600860205260408120805485908110610c2a57fe5b600091825260208083206001600160a01b0389168452600a825260408085208986528352808520338652909252908320600590920201925090610c6c826131a3565b5090508015610c8d5760405162461bcd60e51b81526004016107a8906152e8565b610c978787612aa7565b6000610ca38585612c84565b9050610cb0883383612c98565b6004840154600090610cc8904263ffffffff612f7216565b9050610cd686858984613247565b6001600160a01b03891660009081526012602090815260408083208b8452909152902054610d0a908863ffffffff612f7216565b6001600160a01b038a1660009081526012602090815260408083208c8452909152902055610d388686612fb4565b600187015560055485546001600160a01b0390811691161415610d9b57336000908152600f6020908152604080832054815160608101909252602b808352610d9b946001600160a01b03909216939192610a32928d92906155d690830139612fe2565b6017546001600160a01b038a81169116148015610db9575060185488145b15610e21576016546040516337f23cd360e01b81526001600160a01b03909116906337f23cd390610dee903390600401614f5a565b600060405180830381600087803b158015610e0857600080fd5b505af1158015610e1c573d6000803e3d6000fd5b505050505b87896001600160a01b0316336001600160a01b03167f865ca08d59f5cb456e85cd2f7ef63664ea4f73327414e9d8152c4158b0e9464585604051610e6591906150ae565b60405180910390a487896001600160a01b0316336001600160a01b03167f88a254a0ef28a0b9e957ff600beae69870f6f924065147f3627c3f814e60ec118a604051610eb191906150ae565b60405180910390a450506003805460ff60a01b1916600160a01b17905550505050505050565b6000546001600160a01b03163314610f015760405162461bcd60e51b81526004016107a890615368565b610f0a8161342b565b50565b806001600160a01b031663f851a4406040518163ffffffff1660e01b815260040160206040518083038186803b158015610f4657600080fd5b505afa158015610f5a573d6000803e3d6000fd5b505050506040513d601f19601f82011682018060405250610f7e9190810190613fe9565b6001600160a01b0316336001600160a01b031614610fae5760405162461bcd60e51b81526004016107a8906153f8565b806001600160a01b031663c1e803346040518163ffffffff1660e01b8152600401602060405180830381600087803b158015610fe957600080fd5b505af1158015610ffd573d6000803e3d6000fd5b505050506040513d601f19601f8201168201806040525061102191908101906142db565b15610f0a5760405162461bcd60e51b81526004016107a890615378565b60405161104a90614f36565b604051809103902081565b6004546001600160a01b031681565b6001546001600160a01b031681565b6001600160a01b0381166000908152600660205260409020545b919050565b6005546001600160a01b031681565b601560209081526000928352604080842090915290825290205481565b60096020526000908152604090205481565b600f602052600090815260409020546001600160a01b031681565b60135460ff161561110e5760405162461bcd60e51b81526004016107a8906151c8565b610f0a33826134b0565b6002546001600160a01b031681565b601260209081526000928352604080842090915290825290205481565b6000546001600160a01b0316331461116e5760405162461bcd60e51b81526004016107a890615368565b6111778261353f565b6111808161353f565b6005546004546001600160a01b03918216911681156111b15760405162461bcd60e51b81526004016107a8906152a8565b600580546001600160a01b038087166001600160a01b03199283161790925560048054928616929091169190911790556003805460ff60a01b1916600160a01b1790556040517f559f314bb90394a4a9ceb724f365b36a53587d894352c43d12901fd6801014569061122a908490849088908890614fcb565b60405180910390a150505050565b60795481565b600061124a8484612a70565b6001600160a01b038085166000908152600a60209081526040808320878452825280832093861683529290522080545b6000811180156112aa57506112aa82600183038154811061129757fe5b9060005260206000209060020201613565565b156112ea576112df8260018303815481106112c157fe5b6000918252602090912060029091020154849063ffffffff612f7216565b92506000190161127a565b50509392505050565b60116020526000908152604090205463ffffffff1681565b60135460ff1681565b600061131e61264d565b821061133c5760405162461bcd60e51b81526004016107a8906152b8565b6001600160a01b03831660009081526011602052604090205463ffffffff168061136a576000915050611524565b6001600160a01b038416600090815260106020908152604080832063ffffffff6000198601811685529252909120541683106113e6576001600160a01b03841660009081526010602090815260408083206000199490940163ffffffff1683529290522054600160201b90046001600160601b03169050611524565b6001600160a01b038416600090815260106020908152604080832083805290915290205463ffffffff16831015611421576000915050611524565b600060001982015b8163ffffffff168163ffffffff1611156114e457600282820363ffffffff16048103611453613f51565b506001600160a01b038716600090815260106020908152604080832063ffffffff858116855290835292819020815180830190925254928316808252600160201b9093046001600160601b031691810191909152908714156114bf576020015194506115249350505050565b805163ffffffff168711156114d6578193506114dd565b6001820392505b5050611429565b506001600160a01b038516600090815260106020908152604080832063ffffffff909416835292905220546001600160601b03600160201b909104169150505b92915050565b600354600160a01b900460ff166115535760405162461bcd60e51b81526004016107a890615348565b6003805460ff60a01b1916905560135460ff16156115835760405162461bcd60e51b81526004016107a8906151c8565b61158d8282612a70565b6001600160a01b03821660009081526008602052604081208054839081106115b157fe5b600091825260208083206001600160a01b038716808552600783526040808620888752845280862033808852908552818720928752600a8552818720898852855281872090875290935291842060059093020193509180611612848461357a565b9092509050811515806116255750600081115b6116415760405162461bcd60e51b81526004016107a890615388565b81158061164c575080155b6116685760405162461bcd60e51b81526004016107a890615188565b8115611781576116788787612aa7565b60006116be85600101546116b264e8d4a510006116a68a600301548a6000015461367190919063ffffffff16565b9063ffffffff6136ab16565b9063ffffffff6136ed16565b6004805460405163135b33cd60e31b81529293506001600160a01b031691639ad99e68916116f2918c913391879101614fa3565b600060405180830381600087803b15801561170c57600080fd5b505af1158015611720573d6000803e3d6000fd5b50508654611737925090508463ffffffff6136ed16565b808655600387015461175a9164e8d4a51000916116a6919063ffffffff61367116565b6001860155855461177b906001600160a01b0316338563ffffffff61372f16565b50611805565b8354611793908263ffffffff6136ed16565b84556001600160a01b03871660009081526012602090815260408083208984529091529020546117c9908263ffffffff6136ed16565b6001600160a01b0380891660009081526012602090815260408083208b845290915290209190915585546118059116338363ffffffff61372f16565b856001600160a01b038816337fe31da05fae6db869f5ea51f4b638aa6884070b6c87f18f63bd2291a12cb2f518611842868663ffffffff612f7216565b60405161184f91906150ae565b60405180910390a450506003805460ff60a01b1916600160a01b1790555050505050565b600e6020526000908152604090205481565b6118c36040518060400160405280601c81526020017f73657428616464726573732c75696e743235362c75696e7432353629000000008152506129ce565b6118cd8383612a70565b6118d683613751565b6001600160a01b0383166000908152600860205260408120805490919061194f9084906119439085908890811061190957fe5b60009182526020808320600160059093020191909101546001600160a01b038b16835260099091526040909120549063ffffffff6136ed16565b9063ffffffff612f7216565b9050600081116119715760405162461bcd60e51b81526004016107a890615408565b600082858154811061197f57fe5b9060005260206000209060050201600101549050838386815481106119a057fe5b9060005260206000209060050201600101819055508160096000886001600160a01b03166001600160a01b031681526020019081526020016000208190555084866001600160a01b03167f6ee09c6cb801194690c195c69f465aaf7c80255cbeafaab9600f47ed79de2ca98387604051611a1b929190615433565b60405180910390a3505050505050565b611a53604051806040016040528060078152602001667061757365282960c81b8152506129ce565b60135460ff1615611a765760405162461bcd60e51b81526004016107a890615268565b6013805460ff1916600117905560405133907fdffada2889ebfab9224c24069d833f3de835d8cf99872d49e7b7ba5fccb7a46f90600090a2565b60135460ff1615611ad35760405162461bcd60e51b81526004016107a8906151c8565b611add8282612a70565b611ae78282612aa7565b5050565b60086020528160005260406000208181548110611b0457fe5b6000918252602090912060059091020180546001820154600283015460038401546004909401546001600160a01b039093169550909350919085565b6000806000611b4f8686612a70565b5050506001600160a01b03928316600090815260076020908152604080832094835293815283822092909416815292529020805460018201546002909201549092565b600354600160a01b900460ff16611bbb5760405162461bcd60e51b81526004016107a890615348565b6003805460ff60a01b1916905560135460ff1615611beb5760405162461bcd60e51b81526004016107a8906151c8565b611bf58282612a70565b6001600160a01b0382166000908152600860205260408120805483908110611c1957fe5b600091825260208083206001600160a01b0380881685526007835260408086208887528452808620918a1686529252922060059091029091019150611c5e8484612aa7565b611c69848487612093565b15611c865760405162461bcd60e51b81526004016107a8906152e8565b805415611d0a576000611c998284612c84565b90508015611d0857611cab8284612fb4565b6001830155611cbb858783612c98565b83856001600160a01b0316876001600160a01b03167f865ca08d59f5cb456e85cd2f7ef63664ea4f73327414e9d8152c4158b0e9464584604051611cff91906150ae565b60405180910390a45b505b50506003805460ff60a01b1916600160a01b179055505050565b611d4560405180606001604052806033815260200161568c603391396129ce565b611d4f8383612a70565b600081118015611d6257506312cc030081105b611d7e5760405162461bcd60e51b81526004016107a890615398565b6001600160a01b0383166000908152600860205260408120805484908110611da257fe5b9060005260206000209060050201905060008160040154905082826004018190555083856001600160a01b03167f0bcf80c5060ccf99b7a993c57a94b232fc2c5c04bd74c7c7d174595fee6bc31f8386604051611e00929190615433565b60405180910390a35050505050565b6000611e1b8484612a70565b6001600160a01b0384166000908152600860205260408120805485908110611e3f57fe5b600091825260208083206001600160a01b03808a168086526007845260408087208b885285528087208a8416885285528087206003600590970290940195860154918752601285528087208b885290945283862054855494516370a0823160e01b8152959750929590949093611f16939216906370a0823190611ec6903090600401614f4c565b60206040518083038186803b158015611ede57600080fd5b505afa158015611ef2573d6000803e3d6000fd5b505050506040513d601f19601f820116820180604052506116b291908101906142db565b90506000611f2261264d565b6001600160a01b038a1660009081526006602052604090205460028701549192509082118015611f5157508215155b15611fe7576000611f6f8760020154846136ed90919063ffffffff16565b6001600160a01b038c1660009081526009602052604081205460018a01549293509091611fb791906116a690611fab868863ffffffff61367116565b9063ffffffff61367116565b9050611fe2611fd5866116a68464e8d4a5100063ffffffff61367116565b879063ffffffff612f7216565b955050505b6001600160a01b03808b166000908152600a602090815260408083208d84528252808320938c16835292905290812090612020826131a3565b91505061204f87600101546116b264e8d4a510006116a68a611fab878e600001546136ed90919063ffffffff16565b9c9b505050505050505050505050565b6000546001600160a01b031633146120895760405162461bcd60e51b81526004016107a890615368565b611ae78282613786565b6001600160a01b038084166000908152600a60209081526040808320868452825280832093851683529290529081206120cb816131a3565b5095945050505050565b6017546001600160a01b031681565b6047546001600160a01b031690565b6001600160a01b03811660009081526011602052604081205463ffffffff168061211e576000610827565b6001600160a01b0383166000908152601060209081526040808320600019850163ffffffff168452909152902054600160201b90046001600160601b03169392505050565b6121846040518060600160405280603081526020016156eb603091396129ce565b60048054604051633d6ac5b360e21b81526001600160a01b039091169163f5ab16cc916121b391869101614f4c565b60206040518083038186803b1580156121cb57600080fd5b505afa1580156121df573d6000803e3d6000fd5b505050506040513d601f19601f82011682018060405250612203919081019061425f565b61221f5760405162461bcd60e51b81526004016107a890615358565b61222882613751565b6001600160a01b0382166000818152600660205260409081902080549084905590519091907fad96cee0d692f0250b98e085504f399da6733854908215f6203fe3c69366d9f59061227c9084908690615433565b60405180910390a2505050565b60606122958484612a70565b6001600160a01b038085166000908152600a602090815260408083208784528252808320938616835292815282822080548451818402810184019095528085529092909184015b828210156123365760008481526020908190206040805160608101825260028602909201805483526001908101546001600160801b0380821685870152600160801b909104169183019190915290835290920191016122dc565b5050505090509392505050565b60146020526000908152604090205460ff1681565b60135460ff161561237b5760405162461bcd60e51b81526004016107a8906151c8565b600060405161238990614f36565b604080519182900382208282019091526008825267161594d5985d5b1d60c21b6020909201919091527fddfcc46608a8bd52ebf900f03a24cc97b73a6046cec8c5d0f74a211e376e967a6123db613835565b306040516020016123ef94939291906150ca565b604051602081830303815290604052805190602001209050600060405161241590614f41565b604051908190038120612430918a908a908a906020016150bc565b6040516020818303038152906040528051906020012090506000828260405160200161245d929190614f05565b604051602081830303815290604052805190602001209050600061248382888888613839565b6001600160a01b0381166000908152600e6020526040902080546001810190915590915089146124c55760405162461bcd60e51b81526004016107a890615238565b874211156124e55760405162461bcd60e51b81526004016107a890615218565b6124ef818b6134b0565b505050505b505050505050565b607a5460ff1681565b60066020526000908152604090205481565b6001600160a01b031660009081526008602052604090205490565b6000546001600160a01b0316331461255c5760405162461bcd60e51b81526004016107a890615368565b6001600160a01b0383166125825760405162461bcd60e51b81526004016107a890615228565b6001600160a01b0382166125a85760405162461bcd60e51b81526004016107a8906152c8565b6125b28282612a70565b6016546017546018546040516001600160a01b03808816948116937f8def9436d6e31b89ed00948ba91d0cb6936eada5154cb1b45b55683fb9e492379361260193919092169188918890615024565b60405180910390a3601680546001600160a01b039485166001600160a01b0319918216179091556017805493909416921691909117909155601855565b6003546001600160a01b031681565b607a5460009060ff1661266757612662613863565b61266f565b61266f613867565b905090565b6301e1338081565b60405161104a90614f41565b60185481565b601060209081526000928352604080842090915290825290205463ffffffff811690600160201b90046001600160601b031682565b6312cc030081565b6000546001600160a01b031681565b6126fb6040518060600160405280602c815260200161571b602c91396129ce565b6127048561353f565b61270d8361353f565b6004546001600160a01b03166127355760405162461bcd60e51b81526004016107a8906151a8565b600084116127555760405162461bcd60e51b81526004016107a8906153a8565b61275e85613751565b6001600160a01b0385166000908152600860205260408120805490915b818110156127d957856001600160a01b031683828154811061279957fe5b60009182526020909120600590910201546001600160a01b031614156127d15760405162461bcd60e51b81526004016107a890615328565b60010161277b565b506001600160a01b03851660009081526014602052604090205460ff16156128135760405162461bcd60e51b81526004016107a890615298565b6001600160a01b03871660009081526009602052604090205461283c908763ffffffff612f7216565b6001600160a01b038089166000908152600960209081526040808320949094556006815290839020879055825160a081018452918816825281018890528391810161288561264d565b8152600060208083018290526040928301889052845460018082018755958352818320855160059092020180546001600160a01b0319166001600160a01b039283161781558583015181880155858501516002820155606086015160038201556080909501516004958601558a81168352601490915290829020805460ff1916851790558254915163fb66fb4d60e01b815291169263fb66fb4d9261292d928c929101615059565b600060405180830381600087803b15801561294757600080fd5b505af115801561295b573d6000803e3d6000fd5b50505050846001600160a01b03166001838054905003886001600160a01b03167fd7fa4bff1cd2253c0789c3291a786a6f6b1a3b4569a75af683a15d52abb6a0bf8988886040516129ae93929190615441565b60405180910390a450505050505050565b6016546001600160a01b031681565b6047546040516318c5e8ab60e01b81526000916001600160a01b0316906318c5e8ab90612a019033908690600401614f68565b60206040518083038186803b158015612a1957600080fd5b505afa158015612a2d573d6000803e3d6000fd5b505050506040513d601f19601f82011682018060405250612a51919081019061425f565b905080611ae75760405162461bcd60e51b81526004016107a8906151e8565b6001600160a01b0382166000908152600860205260409020548110611ae75760405162461bcd60e51b81526004016107a890615198565b6001600160a01b0382166000908152600860205260408120805483908110612acb57fe5b906000526020600020906005020190508060020154612ae861264d565b11612af35750611ae7565b80546040516370a0823160e01b81526000916001600160a01b0316906370a0823190612b23903090600401614f4c565b60206040518083038186803b158015612b3b57600080fd5b505afa158015612b4f573d6000803e3d6000fd5b505050506040513d601f19601f82011682018060405250612b7391908101906142db565b6001600160a01b0385166000908152601260209081526040808320878452909152902054909150612bab90829063ffffffff6136ed16565b905080612bc957612bba61264d565b82600201819055505050611ae7565b6000612bd361264d565b90506000612bee8460020154836136ed90919063ffffffff16565b6001600160a01b03871660009081526009602090815260408083205460018901546006909352908320549394509192612c3792916116a691611fab90879063ffffffff61367116565b9050612c66612c55856116a68464e8d4a5100063ffffffff61367116565b60038701549063ffffffff612f7216565b6003860155612c7361264d565b856002018190555050505050505050565b600061082783600101546116b28585612fb4565b600480546040516370a0823160e01b81526001600160a01b03918216926000928716916370a0823191612ccd91869101614f4c565b60206040518083038186803b158015612ce557600080fd5b505afa158015612cf9573d6000803e3d6000fd5b505050506040513d601f19601f82011682018060405250612d1d91908101906142db565b6001600160a01b038087166000908152601560209081526040808320938916835292905290812054919250612d58858363ffffffff612f7216565b9050828111612e36578115612dcb576001600160a01b038088166000818152601560209081526040808320948b1680845294909152808220829055517f6bdfd5e51d01475945224d3d37965916fd8df699ef9e8888af4359aa8622216091612dc291879190615418565b60405180910390a35b60405163135b33cd60e31b81526001600160a01b03851690639ad99e6890612dfb908a908a908690600401615009565b600060405180830381600087803b158015612e1557600080fd5b505af1158015612e29573d6000803e3d6000fd5b5050505050505050612f0c565b6001600160a01b038088166000818152601560209081526040808320948b168084529490915290819020868503908190559051909291907f6bdfd5e51d01475945224d3d37965916fd8df699ef9e8888af4359aa8622216090612e9c9087908690615433565b60405180910390a360405163135b33cd60e31b81526001600160a01b03861690639ad99e6890612ed4908b908b908990600401615009565b600060405180830381600087803b158015612eee57600080fd5b505af1158015612f02573d6000803e3d6000fd5b5050505050505050505b505050565b604051612f6c9085906323b872dd60e01b90612f3590879087908790602401615009565b60408051601f198184030181529190526020810180516001600160e01b03166001600160e01b03199093169290921790915261386b565b50505050565b600061082783836040518060400160405280601b81526020017f536166654d6174683a206164646974696f6e206f766572666c6f770000000000815250613950565b600061082764e8d4a510006116a68460030154611fab876002015488600001546136ed90919063ffffffff16565b600081600160601b84106130095760405162461bcd60e51b81526004016107a89190615167565b509192915050565b816001600160a01b0316836001600160a01b03161415801561303c57506000816001600160601b0316115b15612f0c576001600160a01b038316156130f4576001600160a01b03831660009081526011602052604081205463ffffffff16908161307c5760006130bb565b6001600160a01b0385166000908152601060209081526040808320600019860163ffffffff168452909152902054600160201b90046001600160601b03165b905060006130e282856040518060600160405280602c81526020016156bf602c9139613980565b90506130f0868484846139bf565b5050505b6001600160a01b03821615612f0c576001600160a01b03821660009081526011602052604081205463ffffffff16908161312f57600061316e565b6001600160a01b0384166000908152601060209081526040808320600019860163ffffffff168452909152902054600160201b90046001600160601b03165b9050600061319582856040518060600160405280602b81526020016155ab602b9139613b7b565b90506124f4858484846139bf565b805460009081905b8015613241578360018203815481106131c057fe5b6000918252602090912060016002909202018101546001600160801b03600160801b9091041614156132235761321c8460018303815481106131fe57fe5b6000918252602090912060029091020154839063ffffffff612f7216565b9150613238565b6132358460018303815481106112c157fe5b92505b600019016131ab565b50915091565b8254604080516060810182526000808252602080830182815260019484018581528587018a5589845291909220925160028602909301928355905191909201805492516001600160801b03908116600160801b029281166001600160801b0319909416939093179092161790555b6000811180156132f05750818460018303815481106132d057fe5b60009182526020909120600160029092020101546001600160801b031611155b156133775783600182038154811061330457fe5b906000526020600020906002020184828154811061331e57fe5b600091825260209091208254600290920201908155600191820180549290910180546001600160801b0319166001600160801b03938416178082559154600160801b9081900484160291909216179055600019016132b5565b604051806060016040528084815260200161339184613bae565b6001600160801b0316815260200160016001600160801b03168152508482815481106133b957fe5b60009182526020918290208351600292830290910190815591830151600190920180546040909401516001600160801b03199094166001600160801b03938416178316600160801b939094169290920292909217905585015461341c9084612f72565b85600201819055505050505050565b6001600160a01b0381166134515760405162461bcd60e51b81526004016107a890615278565b604780546001600160a01b038381166001600160a01b03198316179092556040519116907f66fd58e82f7b31a2a5c30e0888f3093efe4e111b00cd2b0c31fe014601293aa0906134a49083908590614f88565b60405180910390a15050565b6001600160a01b038083166000908152600f6020526040812054909116906134d784613bd7565b6001600160a01b038581166000818152600f602052604080822080546001600160a01b031916898616908117909155905194955093928616927f0cc323ffec3ea49cbcddc0de1480978126d350c6a45dff33ad2f1cda6ae992619190a4612f6c828483613011565b6001600160a01b038116610f0a5760405162461bcd60e51b81526004016107a8906152d8565b60010154426001600160801b03909116111590565b805460009081905b60008111801561359f575061359f84600183038154811061129757fe5b15613640578360018203815481106135b357fe5b6000918252602090912060016002909202018101546001600160801b03600160801b9091041614156135f8576135f18460018303815481106131fe57fe5b915061360d565b61360a8460018303815481106112c157fe5b92505b8380548061361757fe5b600082815260208120600019928301600281029091018281556001019190915590915501613582565b50613665613654828463ffffffff612f7216565b60028601549063ffffffff6136ed16565b60028501559250929050565b60008261368057506000611524565b8282028284828161368d57fe5b04146108275760405162461bcd60e51b81526004016107a890615318565b600061082783836040518060400160405280601a81526020017f536166654d6174683a206469766973696f6e206279207a65726f000000000000815250613ced565b600061082783836040518060400160405280601e81526020017f536166654d6174683a207375627472616374696f6e206f766572666c6f770000815250613d24565b604051612f0c90849063a9059cbb60e01b90612f359086908690602401615074565b6001600160a01b038116600090815260086020526040812054905b81811015612f0c5761377e8382612aa7565b60010161376c565b607a54610100900460ff16156137ae5760405162461bcd60e51b81526004016107a8906153b8565b811580156137ba575080155b156137d75760405162461bcd60e51b81526004016107a890615338565b8180156137e357508015155b156138005760405162461bcd60e51b81526004016107a890615258565b607a805460ff191683151517905581613819578061381f565b6301e133805b6079555050607a805461ff001916610100179055565b4690565b600080600061384a87878787613d48565b9150915061385781613e28565b5090505b949350505050565b4390565b4290565b61387d826001600160a01b0316613ef1565b6138995760405162461bcd60e51b81526004016107a8906153d8565b60006060836001600160a01b0316836040516138b59190614ef9565b6000604051808303816000865af19150503d80600081146138f2576040519150601f19603f3d011682016040523d82523d6000602084013e6138f7565b606091505b5091509150816139195760405162461bcd60e51b81526004016107a8906153c8565b805115612f6c5780806020019051613934919081019061425f565b612f6c5760405162461bcd60e51b81526004016107a890615208565b600083830182858210156139775760405162461bcd60e51b81526004016107a89190615167565b50949350505050565b6000836001600160601b0316836001600160601b0316111582906139b75760405162461bcd60e51b81526004016107a89190615167565b505050900390565b60006139ea6139cc61264d565b60405180608001604052806042815260200161564a60429139613f2a565b905060008463ffffffff16118015613a3357506001600160a01b038516600090815260106020908152604080832063ffffffff6000198901811685529252909120548282169116145b15613a92576001600160a01b0385166000908152601060209081526040808320600019880163ffffffff168452909152902080546fffffffffffffffffffffffff000000001916600160201b6001600160601b03851602179055613b31565b60408051808201825263ffffffff80841682526001600160601b0380861660208085019182526001600160a01b038b166000818152601083528781208c871682528352878120965187549451909516600160201b026fffffffffffffffffffffffff000000001995871663ffffffff19958616179590951694909417909555938252601190935292909220805460018801909316929091169190911790555b846001600160a01b03167f6adb589fed1e8542fb7a6b10f00a85e02265e77f9ae3ca8ff93b22983e1af9a08484604051613b6c929190615493565b60405180910390a25050505050565b6000838301826001600160601b0380871690831610156139775760405162461bcd60e51b81526004016107a89190615167565b6000600160801b8210613bd35760405162461bcd60e51b81526004016107a890615248565b5090565b6005546000906001600160a01b0316613c025760405162461bcd60e51b81526004016107a8906151f8565b6005546001600160a01b03166000908152600860205260408120805490915b81811015613ce25760055483546001600160a01b0390911690849083908110613c4657fe5b60009182526020909120600590910201546001600160a01b03161415613cda576005546001600160a01b039081166000908152600760209081526040808320858452825280832093891683529290522060028101548154613ccf91613cb1919063ffffffff6136ed16565b60405180606001604052806028815260200161560160289139612fe2565b94505050505061108d565b600101613c21565b506000949350505050565b60008183613d0e5760405162461bcd60e51b81526004016107a89190615167565b506000838581613d1a57fe5b0495945050505050565b600081848411156139b75760405162461bcd60e51b81526004016107a89190615167565b6000807f7fffffffffffffffffffffffffffffff5d576e7357a4501ddfe92f46681b20a0831115613d7f5750600090506003613e1f565b8460ff16601b14158015613d9757508460ff16601c14155b15613da85750600090506004613e1f565b600060018787878760405160008152602001604052604051613dcd94939291906150f2565b6020604051602081039080840390855afa158015613def573d6000803e3d6000fd5b5050604051601f1901519150506001600160a01b038116613e1857506000915060019050613e1f565b9150600090505b94509492505050565b6000816004811115613e3657fe5b1415613e4157610f0a565b6001816004811115613e4f57fe5b1415613e6d5760405162461bcd60e51b81526004016107a890615178565b6002816004811115613e7b57fe5b1415613e995760405162461bcd60e51b81526004016107a8906151b8565b6003816004811115613ea757fe5b1415613ec55760405162461bcd60e51b81526004016107a890615288565b6004816004811115613ed357fe5b1415610f0a5760405162461bcd60e51b81526004016107a8906152f8565b6000813f7fc5d2460186f7233c927e7db2dcc703c0e500b653ca82273b7bfad8045d85a47081811480159061385b575050151592915050565b600081600160201b84106130095760405162461bcd60e51b81526004016107a89190615167565b604080518082019091526000808252602082015290565b803561152481615569565b805161152481615569565b80356115248161557d565b80516115248161557d565b803561152481615586565b80356115248161558f565b805161152481615586565b803561152481615598565b8035611524816155a1565b600060208284031215613fdd57600080fd5b600061385b8484613f68565b600060208284031215613ffb57600080fd5b600061385b8484613f73565b6000806040838503121561401a57600080fd5b60006140268585613f68565b925050602061403785828601613f68565b9150509250929050565b60008060006060848603121561405657600080fd5b60006140628686613f68565b935050602061407386828701613f68565b925050604061408486828701613f94565b9150509250925092565b600080604083850312156140a157600080fd5b60006140ad8585613f68565b925050602061403785828601613f94565b6000806000606084860312156140d357600080fd5b60006140df8686613f68565b93505060206140f086828701613f94565b925050604061408486828701613f68565b600080600080600060a0868803121561411957600080fd5b60006141258888613f68565b955050602061413688828901613f94565b945050604061414788828901613f9f565b935050606061415888828901613f94565b925050608061416988828901613f94565b9150509295509295909350565b60008060006060848603121561418b57600080fd5b60006141978686613f68565b935050602061407386828701613f94565b60008060008060008060c087890312156141c157600080fd5b60006141cd8989613f68565b96505060206141de89828a01613f94565b95505060406141ef89828a01613f94565b945050606061420089828a01613fc0565b935050608061421189828a01613f94565b92505060a061422289828a01613f94565b9150509295509295509295565b6000806040838503121561424257600080fd5b600061424e8585613f68565b925050602061403785828601613fb5565b60006020828403121561427157600080fd5b600061385b8484613f89565b6000806040838503121561429057600080fd5b60006140ad8585613f7e565b6000806000606084860312156142b157600080fd5b60006140628686613f9f565b6000602082840312156142cf57600080fd5b600061385b8484613f9f565b6000602082840312156142ed57600080fd5b600061385b8484613faa565b60006143058383614e99565b505060600190565b61431681615512565b82525050565b614316816154c1565b6000614330826154b4565b61433a81856154b8565b9350614345836154ae565b8060005b8381101561437357815161435d88826142f9565b9750614368836154ae565b925050600101614349565b509495945050505050565b614316816154cc565b614316816154d1565b61431661439c826154d1565b6154d1565b60006143ac826154b4565b6143b6818561108d565b93506143c6818560208601615533565b9290920192915050565b614316816154d4565b6143168161551d565b60006143ed826154b4565b6143f781856154b8565b9350614407818560208601615533565b6144108161555f565b9093019392505050565b60006144276018836154b8565b7f45434453413a20696e76616c6964207369676e61747572650000000000000000815260200192915050565b60006144606012836154b8565b71696e636f6e73697374656e7420737461746560701b815260200192915050565b600061448e6013836154b8565b727661756c743a20706f6f6c206578697374733f60681b815260200192915050565b60006144bd601f836154b8565b7f53746f726520636f6e7472616374206164647265737320697320656d70747900815260200192915050565b60006144f6601f836154b8565b7f45434453413a20696e76616c6964207369676e6174757265206c656e67746800815260200192915050565b600061452f600f836154b8565b6e15985d5b1d081a5cc81c185d5cd959608a1b815260200192915050565b600061455a6013836154b8565b7215985d5b1d081a5cc81b9bdd081c185d5cd959606a1b815260200192915050565b6000614589600c836154b8565b6b155b985d5d1a1bdc9a5e995960a21b815260200192915050565b60006145b16030836154b8565b7f5856535661756c743a3a6765745374616b65416d6f756e743a2078767320616481526f191c995cdcc81a5cc81b9bdd081cd95d60821b602082015260400192915050565b6000614603602a836154b8565b7f5361666542455032303a204245503230206f7065726174696f6e20646964206e8152691bdd081cdd58d8d9595960b21b602082015260400192915050565b600061464f602a836154b8565b7f5856535661756c743a3a64656c656761746542795369673a207369676e6174758152691c9948195e1c1a5c995960b21b602082015260400192915050565b600061469b6022836154b8565b7f7072696d6520746f6b656e2063616e6e6f74206265207a65726f206164647265815261737360f01b602082015260400192915050565b60006146df6026836154b8565b7f5856535661756c743a3a64656c656761746542795369673a20696e76616c6964815265206e6f6e636560d01b602082015260400192915050565b600061472760028361108d565b61190160f01b815260020192915050565b60006147456027836154b8565b7f53616665436173743a2076616c756520646f65736e27742066697420696e20318152663238206269747360c81b602082015260400192915050565b600061478e6020836154b8565b7f496e76616c69642074696d6520626173656420636f6e66696775726174696f6e815260200192915050565b60006147c76017836154b8565b7f5661756c7420697320616c726561647920706175736564000000000000000000815260200192915050565b60006148006025836154b8565b7f696e76616c696420616365737320636f6e74726f6c206d616e61676572206164815264647265737360d81b602082015260400192915050565b60006148476022836154b8565b7f45434453413a20696e76616c6964207369676e6174757265202773272076616c815261756560f01b602082015260400192915050565b600061488b601a836154b8565b7f546f6b656e2065786973747320696e206f7468657220706f6f6c000000000000815260200192915050565b60006148c46013836154b8565b72185b1c9958591e481a5b9a5d1a585b1a5e9959606a1b815260200192915050565b60006148f3602b836154b8565b7f5856535661756c743a3a6765745072696f72566f7465733a206e6f742079657481526a0819195d195c9b5a5b995960aa1b602082015260400192915050565b6000614940601d836154b8565b7f7265776172642063616e6e6f74206265207a65726f2061646472657373000000815260200192915050565b60006149796018836154b8565b7f7a65726f2061646472657373206e6f7420616c6c6f7765640000000000000000815260200192915050565b60006149b2601a836154b8565b7f657865637574652070656e64696e67207769746864726177616c000000000000815260200192915050565b60006149eb6022836154b8565b7f45434453413a20696e76616c6964207369676e6174757265202776272076616c815261756560f01b602082015260400192915050565b6000614a2f60438361108d565b7f454950373132446f6d61696e28737472696e67206e616d652c75696e7432353681527f20636861696e49642c6164647265737320766572696679696e67436f6e74726160208201526263742960e81b604082015260430192915050565b6000614a9a601f836154b8565b7f72657175657374656420616d6f756e742063616e6e6f74206265207a65726f00815260200192915050565b6000614ad36021836154b8565b7f536166654d6174683a206d756c7469706c69636174696f6e206f766572666c6f8152607760f81b602082015260400192915050565b6000614b166012836154b8565b71141bdbdb08185b1c9958591e48185919195960721b815260200192915050565b6000614b446017836154b8565b7f496e76616c696420626c6f636b73207065722079656172000000000000000000815260200192915050565b6000614b7d600a836154b8565b691c994b595b9d195c995960b21b815260200192915050565b6000614ba36014836154b8565b7324b73b30b634b2103932bbb0b932103a37b5b2b760611b815260200192915050565b6000614bd3600e836154b8565b6d37b7363c9030b236b4b71031b0b760911b815260200192915050565b6000614bfd6015836154b8565b7418da185b99d9481b9bdd08185d5d1a1bdc9a5e9959605a1b815260200192915050565b6000614c2e6013836154b8565b726e6f7468696e6720746f20776974686472617760681b815260200192915050565b6000614c5d601a836154b8565b7f496e76616c6964206e6577206c6f636b696e6720706572696f64000000000000815260200192915050565b6000614c96601d836154b8565b7f416c6c6f6320706f696e7473206d757374206e6f74206265207a65726f000000815260200192915050565b6000614ccf601f836154b8565b7f416c726561647920696e697469616c697a65642054696d654d616e6167657200815260200192915050565b6000614d086020836154b8565b7f5361666542455032303a206c6f772d6c6576656c2063616c6c206661696c6564815260200192915050565b6000614d41603a8361108d565b7f44656c65676174696f6e28616464726573732064656c6567617465652c75696e81527f74323536206e6f6e63652c75696e7432353620657870697279290000000000006020820152603a0192915050565b6000614da0601f836154b8565b7f5361666542455032303a2063616c6c20746f206e6f6e2d636f6e747261637400815260200192915050565b6000614dd9601b836154b8565b7f72657175657374656420616d6f756e7420697320696e76616c69640000000000815260200192915050565b6000614e126022836154b8565b7f6f6e6c792070726f78792061646d696e2063616e206368616e676520627261698152616e7360f01b602082015260400192915050565b6000614e56602e836154b8565b7f416c6c6f6320706f696e7473207065722072657761726420746f6b656e206d7581526d7374206e6f74206265207a65726f60901b602082015260400192915050565b80516060830190614eaa8482614387565b506020820151614ebd6020850182614ecc565b506040820151612f6c60408501825b614316816154df565b614316816154f7565b61431681615500565b61431681615528565b61431681615506565b600061082782846143a1565b6000614f108261471a565b9150614f1c8285614390565b602082019150614f2c8284614390565b5060200192915050565b600061152482614a22565b600061152482614d34565b60208101611524828461431c565b60208101611524828461430d565b60408101614f76828561430d565b818103602083015261385b81846143e2565b60408101614f96828561431c565b610827602083018461431c565b60608101614fb1828661431c565b614fbe602083018561430d565b61385b6040830184614387565b60808101614fd9828761431c565b614fe6602083018661431c565b614ff3604083018561431c565b615000606083018461431c565b95945050505050565b60608101615017828661431c565b614fbe602083018561431c565b60808101615032828761431c565b61503f602083018661431c565b61504c6040830185614387565b6150006060830184614387565b60408101615067828561431c565b610827602083018461437e565b60408101615082828561431c565b6108276020830184614387565b602080825281016108278184614325565b60208101611524828461437e565b602081016115248284614387565b608081016150328287614387565b608081016150d88287614387565b6150e56020830186614387565b614ff36040830185614387565b608081016151008287614387565b61503f6020830186614ede565b6020810161152482846143d0565b60a0810161512982886143d0565b6151366020830187614387565b6151436040830186614387565b6151506060830185614387565b61515d6080830184614387565b9695505050505050565b6020808252810161082781846143e2565b602080825281016115248161441a565b6020808252810161152481614453565b6020808252810161152481614481565b60208082528101611524816144b0565b60208082528101611524816144e9565b6020808252810161152481614522565b602080825281016115248161454d565b602080825281016115248161457c565b60208082528101611524816145a4565b60208082528101611524816145f6565b6020808252810161152481614642565b602080825281016115248161468e565b60208082528101611524816146d2565b6020808252810161152481614738565b6020808252810161152481614781565b60208082528101611524816147ba565b60208082528101611524816147f3565b602080825281016115248161483a565b602080825281016115248161487e565b60208082528101611524816148b7565b60208082528101611524816148e6565b6020808252810161152481614933565b602080825281016115248161496c565b60208082528101611524816149a5565b60208082528101611524816149de565b6020808252810161152481614a8d565b6020808252810161152481614ac6565b6020808252810161152481614b09565b6020808252810161152481614b37565b6020808252810161152481614b70565b6020808252810161152481614b96565b6020808252810161152481614bc6565b6020808252810161152481614bf0565b6020808252810161152481614c21565b6020808252810161152481614c50565b6020808252810161152481614c89565b6020808252810161152481614cc2565b6020808252810161152481614cfb565b6020808252810161152481614d93565b6020808252810161152481614dcc565b6020808252810161152481614e05565b6020808252810161152481614e49565b604081016154268285614387565b61082760208301846143d9565b604081016150828285614387565b6060810161544f8286614387565b614fbe6020830185614387565b602081016115248284614ed5565b604081016154788285614ed5565b6108276020830184614ef0565b602081016115248284614ef0565b604081016154a18285614ee7565b6108276020830184614ee7565b60200190565b5190565b90815260200190565b6000611524826154eb565b151590565b90565b6000611524826154c1565b6001600160801b031690565b6001600160a01b031690565b63ffffffff1690565b60ff1690565b6001600160601b031690565b6000611524826154d4565b6000611524826154d1565b600061152482615506565b60005b8381101561554e578181015183820152602001615536565b83811115612f6c5750506000910152565b601f01601f191690565b615572816154c1565b8114610f0a57600080fd5b615572816154cc565b615572816154d1565b615572816154d4565b615572816154f7565b6155728161550056fe5856535661756c743a3a5f6d6f7665566f7465733a20766f746520616d6f756e74206f766572666c6f77735856535661756c743a3a726571756573745769746864726177616c3a20766f746573206f766572666c6f775856535661756c743a3a6765745374616b65416d6f756e743a20766f746573206f766572666c6f775856535661756c743a3a6465706f7369743a20766f746573206f766572666c6f775856535661756c743a3a5f7772697465436865636b706f696e743a20626c6f636b206e756d626572206f72207365636f6e64206578636565647320333220626974737365745769746864726177616c4c6f636b696e67506572696f6428616464726573732c75696e743235362c75696e74323536295856535661756c743a3a5f6d6f7665566f7465733a20766f746520616d6f756e7420756e646572666c6f7773736574526577617264416d6f756e74506572426c6f636b4f725365636f6e6428616464726573732c75696e743235362961646428616464726573732c75696e743235362c616464726573732c75696e743235362c75696e7432353629a365627a7a723158208afe2a99efc9e6ac9f54866322cf751fedf15ad0e18f0326affc3411ca442fc96c6578706572696d656e74616cf564736f6c63430005100040",
  "devdoc": {
    "author": "Venus",
    "methods": {
      "add(address,uint256,address,uint256,uint256)": {
        "details": "This vault DOES NOT support deflationary tokens  it expects that  the amount of transferred tokens would equal the actually deposited  amount. In practice this means that this vault DOES NOT support USDT  and similar tokens (that do not provide these guarantees).",
        "params": {
          "_allocPoint": "Number of allocation points assigned to this pool",
          "_lockPeriod": "A period between withdrawal request and a moment when it's executable",
          "_rewardPerBlockOrSecond": "Initial reward per block or second, in terms of _rewardToken",
          "_rewardToken": "Reward token address",
          "_token": "Staked token"
        }
      },
      "claim(address,address,uint256)": {
        "params": {
          "_account": "The account for which to claim rewards",
          "_pid": "The Pool Index",
          "_rewardToken": "The Reward Token Address"
        }
      },
      "delegate(address)": {
        "params": {
          "delegatee": "The address to delegate votes to"
        }
      },
      "delegateBySig(address,uint256,uint256,uint8,bytes32,bytes32)": {
        "params": {
          "delegatee": "The address to delegate votes to",
          "expiry": "The time at which to expire the signature",
          "nonce": "The contract state required to match the signature",
          "r": "Half of the ECDSA signature pair",
          "s": "Half of the ECDSA signature pair",
          "v": "The recovery byte of the signature"
        }
      },
      "deposit(address,uint256,uint256)": {
        "params": {
          "_amount": "The amount to deposit to vault",
          "_pid": "The Pool Index",
          "_rewardToken": "The Reward Token Address"
        }
      },
      "executeWithdrawal(address,uint256)": {
        "params": {
          "_pid": "The Pool Index",
          "_rewardToken": "The Reward Token Address"
        }
      },
      "getBlockNumberOrTimestamp()": {
        "details": "Function to simply retrieve block number or block timestamp",
        "return": "Current block number or block timestamp"
      },
      "getCurrentVotes(address)": {
        "params": {
          "account": "The address to get votes balance"
        },
        "return": "The number of current votes for `account`"
      },
      "getEligibleWithdrawalAmount(address,uint256,address)": {
        "params": {
          "_pid": "The Pool Index",
          "_rewardToken": "The Reward Token Address",
          "_user": "The User Address"
        },
        "return": "withdrawalAmount Amount that the user can withdraw"
      },
      "getPriorVotes(address,uint256)": {
        "params": {
          "account": "The address of the account to check",
          "blockNumberOrSecond": "The block number or second to get the vote balance at"
        },
        "return": "The balance that user staked"
      },
      "getRequestedAmount(address,uint256,address)": {
        "params": {
          "_pid": "The Pool Index",
          "_rewardToken": "The Reward Token Address",
          "_user": "The User Address"
        },
        "return": "Total amount of requested but not yet executed withdrawals (including both executable and locked ones)"
      },
      "getUserInfo(address,uint256,address)": {
        "params": {
          "_pid": "Pool index",
          "_rewardToken": "Reward token address",
          "_user": "User address"
        },
        "return": "amount Deposited amountrewardDebt Reward debt (technical value used to track past payouts)pendingWithdrawals Requested but not yet executed withdrawals"
      },
      "getWithdrawalRequests(address,uint256,address)": {
        "params": {
          "_pid": "The Pool Index",
          "_rewardToken": "The Reward Token Address",
          "_user": "The User Address"
        },
        "return": "An array of withdrawal requests"
      },
      "initializeTimeManager(bool,uint256)": {
        "details": "Initializes the contract to use either blocks or seconds",
        "params": {
          "blocksPerYear_": "The number of blocks per year",
          "timeBased_": "A boolean indicating whether the contract is based on time or block If timeBased is true than blocksPerYear_ param is ignored as blocksOrSecondsPerYear is set to SECONDS_PER_YEAR"
        }
      },
      "pendingReward(address,uint256,address)": {
        "params": {
          "_pid": "Pool index",
          "_rewardToken": "Reward token address",
          "_user": "User address"
        },
        "return": "Reward the user is eligible for in this pool, in terms of _rewardToken"
      },
      "pendingWithdrawalsBeforeUpgrade(address,uint256,address)": {
        "params": {
          "_pid": "The Pool Index",
          "_rewardToken": "The Reward Token Address",
          "_user": "The address of the user"
        },
        "return": "beforeUpgradeWithdrawalAmount Total pending withdrawal amount in requests made before the vault upgrade"
      },
      "poolLength(address)": {
        "params": {
          "rewardToken": "Reward token address"
        },
        "return": "Number of pools that distribute the specified token as a reward"
      },
      "requestWithdrawal(address,uint256,uint256)": {
        "params": {
          "_amount": "The amount to withdraw from the vault",
          "_pid": "The Pool Index",
          "_rewardToken": "The Reward Token Address"
        }
      },
      "rewardTokenAmountsPerBlock(address)": {
        "params": {
          "_rewardToken": "Reward token address"
        },
        "return": "Number of reward tokens created per block or second"
      },
      "set(address,uint256,uint256)": {
        "params": {
          "_allocPoint": "Number of allocation points assigned to this pool",
          "_pid": "Pool index",
          "_rewardToken": "Reward token address"
        }
      },
      "setAccessControl(address)": {
        "details": "Admin function to set the access control address",
        "params": {
          "newAccessControlAddress": "New address for the access control"
        }
      },
      "setPrimeToken(address,address,uint256)": {
        "params": {
          "_primePoolId": "pool id for reward",
          "_primeRewardToken": "address of reward token",
          "_primeToken": "address of the prime token contract"
        }
      },
      "setRewardAmountPerBlockOrSecond(address,uint256)": {
        "params": {
          "_rewardAmount": "Number of allocation points assigned to this pool",
          "_rewardToken": "Reward token address"
        }
      },
      "setWithdrawalLockingPeriod(address,uint256,uint256)": {
        "params": {
          "_newPeriod": "New lock period",
          "_pid": "Pool index",
          "_rewardToken": "Reward token address"
        }
      },
      "updatePool(address,uint256)": {
        "params": {
          "_pid": "Pool index",
          "_rewardToken": "Reward token address"
        }
      }
    },
    "title": "XVS Vault"
  },
  "userdoc": {
    "methods": {
      "_become(address)": {
        "notice": "* Admin Functions **"
      },
      "accessControlManager()": {
        "notice": "Returns the address of the access control manager contract"
      },
      "add(address,uint256,address,uint256,uint256)": {
        "notice": "Add a new token pool"
      },
      "claim(address,address,uint256)": {
        "notice": "Claim rewards for pool"
      },
      "constructor": "XVSVault constructor",
      "delegate(address)": {
        "notice": "Delegate votes from `msg.sender` to `delegatee`"
      },
      "delegateBySig(address,uint256,uint256,uint8,bytes32,bytes32)": {
        "notice": "Delegates votes from signatory to `delegatee`"
      },
      "deposit(address,uint256,uint256)": {
        "notice": "Deposit XVSVault for XVS allocation"
      },
      "executeWithdrawal(address,uint256)": {
        "notice": "Execute withdrawal to XVSVault for XVS allocation"
      },
      "getCurrentVotes(address)": {
        "notice": "Gets the current votes balance for `account`"
      },
      "getEligibleWithdrawalAmount(address,uint256,address)": {
        "notice": "Get unlocked withdrawal amount"
      },
      "getPriorVotes(address,uint256)": {
        "notice": "Determine the xvs stake balance for an account"
      },
      "getRequestedAmount(address,uint256,address)": {
        "notice": "Get requested amount"
      },
      "getUserInfo(address,uint256,address)": {
        "notice": "Get user info with reward token address and pid"
      },
      "getWithdrawalRequests(address,uint256,address)": {
        "notice": "Returns the array of withdrawal requests that have not been executed yet"
      },
      "pause()": {
        "notice": "Pauses vault"
      },
      "pendingReward(address,uint256,address)": {
        "notice": "View function to see pending XVSs on frontend"
      },
      "pendingWithdrawalsBeforeUpgrade(address,uint256,address)": {
        "notice": "Gets the total pending withdrawal amount of a user before upgrade"
      },
      "poolLength(address)": {
        "notice": "Returns the number of pools with the specified reward token"
      },
      "requestWithdrawal(address,uint256,uint256)": {
        "notice": "Request withdrawal to XVSVault for XVS allocation"
      },
      "resume()": {
        "notice": "Resume vault"
      },
      "rewardTokenAmountsPerBlock(address)": {
        "notice": "Returns the number of reward tokens created per block or second"
      },
      "set(address,uint256,uint256)": {
        "notice": "Update the given pool's reward allocation point"
      },
      "setAccessControl(address)": {
        "notice": "Sets the address of the access control of this contract"
      },
      "setPrimeToken(address,address,uint256)": {
        "notice": "Sets the address of the prime token contract"
      },
      "setRewardAmountPerBlockOrSecond(address,uint256)": {
        "notice": "Update the given reward token's amount per block or second"
      },
      "setWithdrawalLockingPeriod(address,uint256,uint256)": {
        "notice": "Update the lock period after which a requested withdrawal can be executed"
      },
      "updatePool(address,uint256)": {
        "notice": "Update reward variables of the given pool to be up-to-date"
      }
    },
    "notice": "The XVS Vault allows XVS holders to lock their XVS to recieve voting rights in Venus governance and are rewarded with XVS."
  },
  "storageLayout": {
    "storage": [
      {
        "astId": 34485,
        "contract": "contracts/XVSVault/XVSVault.sol:XVSVault",
        "label": "admin",
        "offset": 0,
        "slot": "0",
        "type": "t_address"
      },
      {
        "astId": 34487,
        "contract": "contracts/XVSVault/XVSVault.sol:XVSVault",
        "label": "pendingAdmin",
        "offset": 0,
        "slot": "1",
        "type": "t_address"
      },
      {
        "astId": 34489,
        "contract": "contracts/XVSVault/XVSVault.sol:XVSVault",
        "label": "implementation",
        "offset": 0,
        "slot": "2",
        "type": "t_address"
      },
      {
        "astId": 34491,
        "contract": "contracts/XVSVault/XVSVault.sol:XVSVault",
        "label": "pendingXVSVaultImplementation",
        "offset": 0,
        "slot": "3",
        "type": "t_address"
      },
      {
        "astId": 34496,
        "contract": "contracts/XVSVault/XVSVault.sol:XVSVault",
        "label": "_notEntered",
        "offset": 20,
        "slot": "3",
        "type": "t_bool"
      },
      {
        "astId": 34498,
        "contract": "contracts/XVSVault/XVSVault.sol:XVSVault",
        "label": "xvsStore",
        "offset": 0,
        "slot": "4",
        "type": "t_address"
      },
      {
        "astId": 34500,
        "contract": "contracts/XVSVault/XVSVault.sol:XVSVault",
        "label": "xvsAddress",
        "offset": 0,
        "slot": "5",
        "type": "t_address"
      },
      {
        "astId": 34504,
        "contract": "contracts/XVSVault/XVSVault.sol:XVSVault",
        "label": "rewardTokenAmountsPerBlockOrSecond",
        "offset": 0,
        "slot": "6",
        "type": "t_mapping(t_address,t_uint256)"
      },
      {
        "astId": 34537,
        "contract": "contracts/XVSVault/XVSVault.sol:XVSVault",
        "label": "userInfos",
        "offset": 0,
        "slot": "7",
        "type": "t_mapping(t_address,t_mapping(t_uint256,t_mapping(t_address,t_struct(UserInfo)34511_storage)))"
      },
      {
        "astId": 34542,
        "contract": "contracts/XVSVault/XVSVault.sol:XVSVault",
        "label": "poolInfos",
        "offset": 0,
        "slot": "8",
        "type": "t_mapping(t_address,t_array(t_struct(PoolInfo)34522_storage)dyn_storage)"
      },
      {
        "astId": 34546,
        "contract": "contracts/XVSVault/XVSVault.sol:XVSVault",
        "label": "totalAllocPoints",
        "offset": 0,
        "slot": "9",
        "type": "t_mapping(t_address,t_uint256)"
      },
      {
        "astId": 34555,
        "contract": "contracts/XVSVault/XVSVault.sol:XVSVault",
        "label": "withdrawalRequests",
        "offset": 0,
        "slot": "10",
        "type": "t_mapping(t_address,t_mapping(t_uint256,t_mapping(t_address,t_array(t_struct(WithdrawalRequest)34529_storage)dyn_storage)))"
      },
      {
        "astId": 34559,
        "contract": "contracts/XVSVault/XVSVault.sol:XVSVault",
        "label": "__oldDelegatesSlot",
        "offset": 0,
        "slot": "11",
        "type": "t_mapping(t_address,t_address)"
      },
      {
        "astId": 34570,
        "contract": "contracts/XVSVault/XVSVault.sol:XVSVault",
        "label": "__oldCheckpointsSlot",
        "offset": 0,
        "slot": "12",
        "type": "t_mapping(t_address,t_mapping(t_uint32,t_struct(Checkpoint)34564_storage))"
      },
      {
        "astId": 34574,
        "contract": "contracts/XVSVault/XVSVault.sol:XVSVault",
        "label": "__oldNumCheckpointsSlot",
        "offset": 0,
        "slot": "13",
        "type": "t_mapping(t_address,t_uint32)"
      },
      {
        "astId": 34578,
        "contract": "contracts/XVSVault/XVSVault.sol:XVSVault",
        "label": "nonces",
        "offset": 0,
        "slot": "14",
        "type": "t_mapping(t_address,t_uint256)"
      },
      {
        "astId": 34595,
        "contract": "contracts/XVSVault/XVSVault.sol:XVSVault",
        "label": "delegates",
        "offset": 0,
        "slot": "15",
        "type": "t_mapping(t_address,t_address)"
      },
      {
        "astId": 34601,
        "contract": "contracts/XVSVault/XVSVault.sol:XVSVault",
        "label": "checkpoints",
        "offset": 0,
        "slot": "16",
        "type": "t_mapping(t_address,t_mapping(t_uint32,t_struct(Checkpoint)34564_storage))"
      },
      {
        "astId": 34605,
        "contract": "contracts/XVSVault/XVSVault.sol:XVSVault",
        "label": "numCheckpoints",
        "offset": 0,
        "slot": "17",
        "type": "t_mapping(t_address,t_uint32)"
      },
      {
        "astId": 34611,
        "contract": "contracts/XVSVault/XVSVault.sol:XVSVault",
        "label": "totalPendingWithdrawals",
        "offset": 0,
        "slot": "18",
        "type": "t_mapping(t_address,t_mapping(t_uint256,t_uint256))"
      },
      {
        "astId": 34613,
        "contract": "contracts/XVSVault/XVSVault.sol:XVSVault",
        "label": "vaultPaused",
        "offset": 0,
        "slot": "19",
        "type": "t_bool"
      },
      {
        "astId": 34617,
        "contract": "contracts/XVSVault/XVSVault.sol:XVSVault",
        "label": "isStakedToken",
        "offset": 0,
        "slot": "20",
        "type": "t_mapping(t_address,t_bool)"
      },
      {
        "astId": 34623,
        "contract": "contracts/XVSVault/XVSVault.sol:XVSVault",
        "label": "pendingRewardTransfers",
        "offset": 0,
        "slot": "21",
        "type": "t_mapping(t_address,t_mapping(t_address,t_uint256))"
      },
      {
        "astId": 34625,
        "contract": "contracts/XVSVault/XVSVault.sol:XVSVault",
        "label": "primeToken",
        "offset": 0,
        "slot": "22",
        "type": "t_contract(IPrime)12297"
      },
      {
        "astId": 34627,
        "contract": "contracts/XVSVault/XVSVault.sol:XVSVault",
        "label": "primeRewardToken",
        "offset": 0,
        "slot": "23",
        "type": "t_address"
      },
      {
        "astId": 34629,
        "contract": "contracts/XVSVault/XVSVault.sol:XVSVault",
        "label": "primePoolId",
        "offset": 0,
        "slot": "24",
        "type": "t_uint256"
      },
      {
        "astId": 34633,
        "contract": "contracts/XVSVault/XVSVault.sol:XVSVault",
        "label": "__gap",
        "offset": 0,
        "slot": "25",
        "type": "t_array(t_uint256)46_storage"
      },
      {
        "astId": 4,
        "contract": "contracts/XVSVault/XVSVault.sol:XVSVault",
        "label": "_accessControlManager",
        "offset": 0,
        "slot": "71",
        "type": "t_contract(IAccessControlManagerV5)1917"
      },
      {
        "astId": 8,
        "contract": "contracts/XVSVault/XVSVault.sol:XVSVault",
        "label": "__gap",
        "offset": 0,
        "slot": "72",
        "type": "t_array(t_uint256)49_storage"
      },
      {
        "astId": 1924,
        "contract": "contracts/XVSVault/XVSVault.sol:XVSVault",
        "label": "blocksOrSecondsPerYear",
        "offset": 0,
        "slot": "121",
        "type": "t_uint256"
      },
      {
        "astId": 1926,
        "contract": "contracts/XVSVault/XVSVault.sol:XVSVault",
        "label": "isTimeBased",
        "offset": 0,
        "slot": "122",
        "type": "t_bool"
      },
      {
        "astId": 1928,
        "contract": "contracts/XVSVault/XVSVault.sol:XVSVault",
        "label": "isInitialized",
        "offset": 1,
        "slot": "122",
        "type": "t_bool"
      },
      {
        "astId": 1930,
        "contract": "contracts/XVSVault/XVSVault.sol:XVSVault",
        "label": "__deprecatedSlot1",
        "offset": 0,
        "slot": "123",
        "type": "t_bytes32"
      },
      {
        "astId": 1934,
        "contract": "contracts/XVSVault/XVSVault.sol:XVSVault",
        "label": "__gap",
        "offset": 0,
        "slot": "124",
        "type": "t_array(t_uint256)48_storage"
      }
    ],
    "types": {
      "t_address": {
        "encoding": "inplace",
        "label": "address",
        "numberOfBytes": "20"
      },
      "t_array(t_struct(PoolInfo)34522_storage)dyn_storage": {
        "base": "t_struct(PoolInfo)34522_storage",
        "encoding": "dynamic_array",
        "label": "struct XVSVaultStorageV1.PoolInfo[]",
        "numberOfBytes": "32"
      },
      "t_array(t_struct(WithdrawalRequest)34529_storage)dyn_storage": {
        "base": "t_struct(WithdrawalRequest)34529_storage",
        "encoding": "dynamic_array",
        "label": "struct XVSVaultStorageV1.WithdrawalRequest[]",
        "numberOfBytes": "32"
      },
      "t_array(t_uint256)46_storage": {
        "base": "t_uint256",
        "encoding": "inplace",
        "label": "uint256[46]",
        "numberOfBytes": "1472"
      },
      "t_array(t_uint256)48_storage": {
        "base": "t_uint256",
        "encoding": "inplace",
        "label": "uint256[48]",
        "numberOfBytes": "1536"
      },
      "t_array(t_uint256)49_storage": {
        "base": "t_uint256",
        "encoding": "inplace",
        "label": "uint256[49]",
        "numberOfBytes": "1568"
      },
      "t_bool": {
        "encoding": "inplace",
        "label": "bool",
        "numberOfBytes": "1"
      },
      "t_bytes32": {
        "encoding": "inplace",
        "label": "bytes32",
        "numberOfBytes": "32"
      },
      "t_contract(IAccessControlManagerV5)1917": {
        "encoding": "inplace",
        "label": "contract IAccessControlManagerV5",
        "numberOfBytes": "20"
      },
      "t_contract(IBEP20)27777": {
        "encoding": "inplace",
        "label": "contract IBEP20",
        "numberOfBytes": "20"
      },
      "t_contract(IPrime)12297": {
        "encoding": "inplace",
        "label": "contract IPrime",
        "numberOfBytes": "20"
      },
      "t_mapping(t_address,t_address)": {
        "encoding": "mapping",
        "key": "t_address",
        "label": "mapping(address => address)",
        "numberOfBytes": "32",
        "value": "t_address"
      },
      "t_mapping(t_address,t_array(t_struct(PoolInfo)34522_storage)dyn_storage)": {
        "encoding": "mapping",
        "key": "t_address",
        "label": "mapping(address => struct XVSVaultStorageV1.PoolInfo[])",
        "numberOfBytes": "32",
        "value": "t_array(t_struct(PoolInfo)34522_storage)dyn_storage"
      },
      "t_mapping(t_address,t_array(t_struct(WithdrawalRequest)34529_storage)dyn_storage)": {
        "encoding": "mapping",
        "key": "t_address",
        "label": "mapping(address => struct XVSVaultStorageV1.WithdrawalRequest[])",
        "numberOfBytes": "32",
        "value": "t_array(t_struct(WithdrawalRequest)34529_storage)dyn_storage"
      },
      "t_mapping(t_address,t_bool)": {
        "encoding": "mapping",
        "key": "t_address",
        "label": "mapping(address => bool)",
        "numberOfBytes": "32",
        "value": "t_bool"
      },
      "t_mapping(t_address,t_mapping(t_address,t_uint256))": {
        "encoding": "mapping",
        "key": "t_address",
        "label": "mapping(address => mapping(address => uint256))",
        "numberOfBytes": "32",
        "value": "t_mapping(t_address,t_uint256)"
      },
      "t_mapping(t_address,t_mapping(t_uint256,t_mapping(t_address,t_array(t_struct(WithdrawalRequest)34529_storage)dyn_storage)))": {
        "encoding": "mapping",
        "key": "t_address",
        "label": "mapping(address => mapping(uint256 => mapping(address => struct XVSVaultStorageV1.WithdrawalRequest[])))",
        "numberOfBytes": "32",
        "value": "t_mapping(t_uint256,t_mapping(t_address,t_array(t_struct(WithdrawalRequest)34529_storage)dyn_storage))"
      },
      "t_mapping(t_address,t_mapping(t_uint256,t_mapping(t_address,t_struct(UserInfo)34511_storage)))": {
        "encoding": "mapping",
        "key": "t_address",
        "label": "mapping(address => mapping(uint256 => mapping(address => struct XVSVaultStorageV1.UserInfo)))",
        "numberOfBytes": "32",
        "value": "t_mapping(t_uint256,t_mapping(t_address,t_struct(UserInfo)34511_storage))"
      },
      "t_mapping(t_address,t_mapping(t_uint256,t_uint256))": {
        "encoding": "mapping",
        "key": "t_address",
        "label": "mapping(address => mapping(uint256 => uint256))",
        "numberOfBytes": "32",
        "value": "t_mapping(t_uint256,t_uint256)"
      },
      "t_mapping(t_address,t_mapping(t_uint32,t_struct(Checkpoint)34564_storage))": {
        "encoding": "mapping",
        "key": "t_address",
        "label": "mapping(address => mapping(uint32 => struct XVSVaultStorageV1.Checkpoint))",
        "numberOfBytes": "32",
        "value": "t_mapping(t_uint32,t_struct(Checkpoint)34564_storage)"
      },
      "t_mapping(t_address,t_struct(UserInfo)34511_storage)": {
        "encoding": "mapping",
        "key": "t_address",
        "label": "mapping(address => struct XVSVaultStorageV1.UserInfo)",
        "numberOfBytes": "32",
        "value": "t_struct(UserInfo)34511_storage"
      },
      "t_mapping(t_address,t_uint256)": {
        "encoding": "mapping",
        "key": "t_address",
        "label": "mapping(address => uint256)",
        "numberOfBytes": "32",
        "value": "t_uint256"
      },
      "t_mapping(t_address,t_uint32)": {
        "encoding": "mapping",
        "key": "t_address",
        "label": "mapping(address => uint32)",
        "numberOfBytes": "32",
        "value": "t_uint32"
      },
      "t_mapping(t_uint256,t_mapping(t_address,t_array(t_struct(WithdrawalRequest)34529_storage)dyn_storage))": {
        "encoding": "mapping",
        "key": "t_uint256",
        "label": "mapping(uint256 => mapping(address => struct XVSVaultStorageV1.WithdrawalRequest[]))",
        "numberOfBytes": "32",
        "value": "t_mapping(t_address,t_array(t_struct(WithdrawalRequest)34529_storage)dyn_storage)"
      },
      "t_mapping(t_uint256,t_mapping(t_address,t_struct(UserInfo)34511_storage))": {
        "encoding": "mapping",
        "key": "t_uint256",
        "label": "mapping(uint256 => mapping(address => struct XVSVaultStorageV1.UserInfo))",
        "numberOfBytes": "32",
        "value": "t_mapping(t_address,t_struct(UserInfo)34511_storage)"
      },
      "t_mapping(t_uint256,t_uint256)": {
        "encoding": "mapping",
        "key": "t_uint256",
        "label": "mapping(uint256 => uint256)",
        "numberOfBytes": "32",
        "value": "t_uint256"
      },
      "t_mapping(t_uint32,t_struct(Checkpoint)34564_storage)": {
        "encoding": "mapping",
        "key": "t_uint32",
        "label": "mapping(uint32 => struct XVSVaultStorageV1.Checkpoint)",
        "numberOfBytes": "32",
        "value": "t_struct(Checkpoint)34564_storage"
      },
      "t_struct(Checkpoint)34564_storage": {
        "encoding": "inplace",
        "label": "struct XVSVaultStorageV1.Checkpoint",
        "members": [
          {
            "astId": 34561,
            "contract": "contracts/XVSVault/XVSVault.sol:XVSVault",
            "label": "fromBlockOrSecond",
            "offset": 0,
            "slot": "0",
            "type": "t_uint32"
          },
          {
            "astId": 34563,
            "contract": "contracts/XVSVault/XVSVault.sol:XVSVault",
            "label": "votes",
            "offset": 4,
            "slot": "0",
            "type": "t_uint96"
          }
        ],
        "numberOfBytes": "32"
      },
      "t_struct(PoolInfo)34522_storage": {
        "encoding": "inplace",
        "label": "struct XVSVaultStorageV1.PoolInfo",
        "members": [
          {
            "astId": 34513,
            "contract": "contracts/XVSVault/XVSVault.sol:XVSVault",
            "label": "token",
            "offset": 0,
            "slot": "0",
            "type": "t_contract(IBEP20)27777"
          },
          {
            "astId": 34515,
            "contract": "contracts/XVSVault/XVSVault.sol:XVSVault",
            "label": "allocPoint",
            "offset": 0,
            "slot": "1",
            "type": "t_uint256"
          },
          {
            "astId": 34517,
            "contract": "contracts/XVSVault/XVSVault.sol:XVSVault",
            "label": "lastRewardBlockOrSecond",
            "offset": 0,
            "slot": "2",
            "type": "t_uint256"
          },
          {
            "astId": 34519,
            "contract": "contracts/XVSVault/XVSVault.sol:XVSVault",
            "label": "accRewardPerShare",
            "offset": 0,
            "slot": "3",
            "type": "t_uint256"
          },
          {
            "astId": 34521,
            "contract": "contracts/XVSVault/XVSVault.sol:XVSVault",
            "label": "lockPeriod",
            "offset": 0,
            "slot": "4",
            "type": "t_uint256"
          }
        ],
        "numberOfBytes": "160"
      },
      "t_struct(UserInfo)34511_storage": {
        "encoding": "inplace",
        "label": "struct XVSVaultStorageV1.UserInfo",
        "members": [
          {
            "astId": 34506,
            "contract": "contracts/XVSVault/XVSVault.sol:XVSVault",
            "label": "amount",
            "offset": 0,
            "slot": "0",
            "type": "t_uint256"
          },
          {
            "astId": 34508,
            "contract": "contracts/XVSVault/XVSVault.sol:XVSVault",
            "label": "rewardDebt",
            "offset": 0,
            "slot": "1",
            "type": "t_uint256"
          },
          {
            "astId": 34510,
            "contract": "contracts/XVSVault/XVSVault.sol:XVSVault",
            "label": "pendingWithdrawals",
            "offset": 0,
            "slot": "2",
            "type": "t_uint256"
          }
        ],
        "numberOfBytes": "96"
      },
      "t_struct(WithdrawalRequest)34529_storage": {
        "encoding": "inplace",
        "label": "struct XVSVaultStorageV1.WithdrawalRequest",
        "members": [
          {
            "astId": 34524,
            "contract": "contracts/XVSVault/XVSVault.sol:XVSVault",
            "label": "amount",
            "offset": 0,
            "slot": "0",
            "type": "t_uint256"
          },
          {
            "astId": 34526,
            "contract": "contracts/XVSVault/XVSVault.sol:XVSVault",
            "label": "lockedUntil",
            "offset": 0,
            "slot": "1",
            "type": "t_uint128"
          },
          {
            "astId": 34528,
            "contract": "contracts/XVSVault/XVSVault.sol:XVSVault",
            "label": "afterUpgrade",
            "offset": 16,
            "slot": "1",
            "type": "t_uint128"
          }
        ],
        "numberOfBytes": "64"
      },
      "t_uint128": {
        "encoding": "inplace",
        "label": "uint128",
        "numberOfBytes": "16"
      },
      "t_uint256": {
        "encoding": "inplace",
        "label": "uint256",
        "numberOfBytes": "32"
      },
      "t_uint32": {
        "encoding": "inplace",
        "label": "uint32",
        "numberOfBytes": "4"
      },
      "t_uint96": {
        "encoding": "inplace",
        "label": "uint96",
        "numberOfBytes": "12"
      }
    }
  }
}