{
  "address": "0xD806D9859948F57990185AE00555505C9B6EaACE",
  "abi": [
    {
      "inputs": [],
      "payable": false,
      "stateMutability": "nonpayable",
      "type": "constructor"
    },
    {
      "anonymous": false,
      "inputs": [
        {
          "indexed": true,
          "internalType": "address",
          "name": "user",
          "type": "address"
        },
        {
          "indexed": true,
          "internalType": "address",
          "name": "rewardToken",
          "type": "address"
        },
        {
          "indexed": true,
          "internalType": "uint256",
          "name": "pid",
          "type": "uint256"
        },
        {
          "indexed": false,
          "internalType": "uint256",
          "name": "amount",
          "type": "uint256"
        }
      ],
      "name": "Claim",
      "type": "event"
    },
    {
      "anonymous": false,
      "inputs": [
        {
          "indexed": true,
          "internalType": "address",
          "name": "delegator",
          "type": "address"
        },
        {
          "indexed": true,
          "internalType": "address",
          "name": "fromDelegate",
          "type": "address"
        },
        {
          "indexed": true,
          "internalType": "address",
          "name": "toDelegate",
          "type": "address"
        }
      ],
      "name": "DelegateChangedV2",
      "type": "event"
    },
    {
      "anonymous": false,
      "inputs": [
        {
          "indexed": true,
          "internalType": "address",
          "name": "delegate",
          "type": "address"
        },
        {
          "indexed": false,
          "internalType": "uint256",
          "name": "previousBalance",
          "type": "uint256"
        },
        {
          "indexed": false,
          "internalType": "uint256",
          "name": "newBalance",
          "type": "uint256"
        }
      ],
      "name": "DelegateVotesChangedV2",
      "type": "event"
    },
    {
      "anonymous": false,
      "inputs": [
        {
          "indexed": true,
          "internalType": "address",
          "name": "user",
          "type": "address"
        },
        {
          "indexed": true,
          "internalType": "address",
          "name": "rewardToken",
          "type": "address"
        },
        {
          "indexed": true,
          "internalType": "uint256",
          "name": "pid",
          "type": "uint256"
        },
        {
          "indexed": false,
          "internalType": "uint256",
          "name": "amount",
          "type": "uint256"
        }
      ],
      "name": "Deposit",
      "type": "event"
    },
    {
      "anonymous": false,
      "inputs": [
        {
          "indexed": true,
          "internalType": "address",
          "name": "user",
          "type": "address"
        },
        {
          "indexed": true,
          "internalType": "address",
          "name": "rewardToken",
          "type": "address"
        },
        {
          "indexed": true,
          "internalType": "uint256",
          "name": "pid",
          "type": "uint256"
        },
        {
          "indexed": false,
          "internalType": "uint256",
          "name": "amount",
          "type": "uint256"
        }
      ],
      "name": "ExecutedWithdrawal",
      "type": "event"
    },
    {
      "anonymous": false,
      "inputs": [
        {
          "indexed": false,
          "internalType": "address",
          "name": "oldAccessControlManager",
          "type": "address"
        },
        {
          "indexed": false,
          "internalType": "address",
          "name": "newAccessControlManager",
          "type": "address"
        }
      ],
      "name": "NewAccessControlManager",
      "type": "event"
    },
    {
      "anonymous": false,
      "inputs": [
        {
          "indexed": true,
          "internalType": "contract IPrime",
          "name": "oldPrimeToken",
          "type": "address"
        },
        {
          "indexed": true,
          "internalType": "contract IPrime",
          "name": "newPrimeToken",
          "type": "address"
        },
        {
          "indexed": false,
          "internalType": "address",
          "name": "oldPrimeRewardToken",
          "type": "address"
        },
        {
          "indexed": false,
          "internalType": "address",
          "name": "newPrimeRewardToken",
          "type": "address"
        },
        {
          "indexed": false,
          "internalType": "uint256",
          "name": "oldPrimePoolId",
          "type": "uint256"
        },
        {
          "indexed": false,
          "internalType": "uint256",
          "name": "newPrimePoolId",
          "type": "uint256"
        }
      ],
      "name": "NewPrimeToken",
      "type": "event"
    },
    {
      "anonymous": false,
      "inputs": [
        {
          "indexed": true,
          "internalType": "address",
          "name": "rewardToken",
          "type": "address"
        },
        {
          "indexed": true,
          "internalType": "uint256",
          "name": "pid",
          "type": "uint256"
        },
        {
          "indexed": true,
          "internalType": "address",
          "name": "token",
          "type": "address"
        },
        {
          "indexed": false,
          "internalType": "uint256",
          "name": "allocPoints",
          "type": "uint256"
        },
        {
          "indexed": false,
          "internalType": "uint256",
          "name": "rewardPerBlockOrSecond",
          "type": "uint256"
        },
        {
          "indexed": false,
          "internalType": "uint256",
          "name": "lockPeriod",
          "type": "uint256"
        }
      ],
      "name": "PoolAdded",
      "type": "event"
    },
    {
      "anonymous": false,
      "inputs": [
        {
          "indexed": true,
          "internalType": "address",
          "name": "rewardToken",
          "type": "address"
        },
        {
          "indexed": true,
          "internalType": "uint256",
          "name": "pid",
          "type": "uint256"
        },
        {
          "indexed": false,
          "internalType": "uint256",
          "name": "oldAllocPoints",
          "type": "uint256"
        },
        {
          "indexed": false,
          "internalType": "uint256",
          "name": "newAllocPoints",
          "type": "uint256"
        }
      ],
      "name": "PoolUpdated",
      "type": "event"
    },
    {
      "anonymous": false,
      "inputs": [
        {
          "indexed": true,
          "internalType": "address",
          "name": "user",
          "type": "address"
        },
        {
          "indexed": true,
          "internalType": "address",
          "name": "rewardToken",
          "type": "address"
        },
        {
          "indexed": true,
          "internalType": "uint256",
          "name": "pid",
          "type": "uint256"
        },
        {
          "indexed": false,
          "internalType": "uint256",
          "name": "amount",
          "type": "uint256"
        }
      ],
      "name": "RequestedWithdrawal",
      "type": "event"
    },
    {
      "anonymous": false,
      "inputs": [
        {
          "indexed": true,
          "internalType": "address",
          "name": "rewardToken",
          "type": "address"
        },
        {
          "indexed": false,
          "internalType": "uint256",
          "name": "oldReward",
          "type": "uint256"
        },
        {
          "indexed": false,
          "internalType": "uint256",
          "name": "newReward",
          "type": "uint256"
        }
      ],
      "name": "RewardAmountUpdated",
      "type": "event"
    },
    {
      "anonymous": false,
      "inputs": [
        {
          "indexed": false,
          "internalType": "address",
          "name": "oldXvs",
          "type": "address"
        },
        {
          "indexed": false,
          "internalType": "address",
          "name": "oldStore",
          "type": "address"
        },
        {
          "indexed": false,
          "internalType": "address",
          "name": "newXvs",
          "type": "address"
        },
        {
          "indexed": false,
          "internalType": "address",
          "name": "newStore",
          "type": "address"
        }
      ],
      "name": "StoreUpdated",
      "type": "event"
    },
    {
      "anonymous": false,
      "inputs": [
        {
          "indexed": true,
          "internalType": "address",
          "name": "rewardToken",
          "type": "address"
        },
        {
          "indexed": true,
          "internalType": "address",
          "name": "userAddress",
          "type": "address"
        },
        {
          "indexed": false,
          "internalType": "uint256",
          "name": "oldOwedAmount",
          "type": "uint256"
        },
        {
          "indexed": false,
          "internalType": "uint256",
          "name": "newOwedAmount",
          "type": "uint256"
        }
      ],
      "name": "VaultDebtUpdated",
      "type": "event"
    },
    {
      "anonymous": false,
      "inputs": [
        {
          "indexed": true,
          "internalType": "address",
          "name": "admin",
          "type": "address"
        }
      ],
      "name": "VaultPaused",
      "type": "event"
    },
    {
      "anonymous": false,
      "inputs": [
        {
          "indexed": true,
          "internalType": "address",
          "name": "admin",
          "type": "address"
        }
      ],
      "name": "VaultResumed",
      "type": "event"
    },
    {
      "anonymous": false,
      "inputs": [
        {
          "indexed": true,
          "internalType": "address",
          "name": "rewardToken",
          "type": "address"
        },
        {
          "indexed": true,
          "internalType": "uint256",
          "name": "pid",
          "type": "uint256"
        },
        {
          "indexed": false,
          "internalType": "uint256",
          "name": "oldPeriod",
          "type": "uint256"
        },
        {
          "indexed": false,
          "internalType": "uint256",
          "name": "newPeriod",
          "type": "uint256"
        }
      ],
      "name": "WithdrawalLockingPeriodUpdated",
      "type": "event"
    },
    {
      "constant": true,
      "inputs": [],
      "name": "DELEGATION_TYPEHASH",
      "outputs": [
        {
          "internalType": "bytes32",
          "name": "",
          "type": "bytes32"
        }
      ],
      "payable": false,
      "stateMutability": "view",
      "type": "function"
    },
    {
      "constant": true,
      "inputs": [],
      "name": "DOMAIN_TYPEHASH",
      "outputs": [
        {
          "internalType": "bytes32",
          "name": "",
          "type": "bytes32"
        }
      ],
      "payable": false,
      "stateMutability": "view",
      "type": "function"
    },
    {
      "constant": true,
      "inputs": [],
      "name": "MAX_LOCK_PERIOD",
      "outputs": [
        {
          "internalType": "uint256",
          "name": "",
          "type": "uint256"
        }
      ],
      "payable": false,
      "stateMutability": "view",
      "type": "function"
    },
    {
      "constant": true,
      "inputs": [],
      "name": "SECONDS_PER_YEAR",
      "outputs": [
        {
          "internalType": "uint256",
          "name": "",
          "type": "uint256"
        }
      ],
      "payable": false,
      "stateMutability": "view",
      "type": "function"
    },
    {
      "constant": false,
      "inputs": [
        {
          "internalType": "contract XVSVaultProxy",
          "name": "xvsVaultProxy",
          "type": "address"
        }
      ],
      "name": "_become",
      "outputs": [],
      "payable": false,
      "stateMutability": "nonpayable",
      "type": "function"
    },
    {
      "constant": true,
      "inputs": [],
      "name": "accessControlManager",
      "outputs": [
        {
          "internalType": "contract IAccessControlManagerV5",
          "name": "",
          "type": "address"
        }
      ],
      "payable": false,
      "stateMutability": "view",
      "type": "function"
    },
    {
      "constant": false,
      "inputs": [
        {
          "internalType": "address",
          "name": "_rewardToken",
          "type": "address"
        },
        {
          "internalType": "uint256",
          "name": "_allocPoint",
          "type": "uint256"
        },
        {
          "internalType": "contract IBEP20",
          "name": "_token",
          "type": "address"
        },
        {
          "internalType": "uint256",
          "name": "_rewardPerBlockOrSecond",
          "type": "uint256"
        },
        {
          "internalType": "uint256",
          "name": "_lockPeriod",
          "type": "uint256"
        }
      ],
      "name": "add",
      "outputs": [],
      "payable": false,
      "stateMutability": "nonpayable",
      "type": "function"
    },
    {
      "constant": true,
      "inputs": [],
      "name": "admin",
      "outputs": [
        {
          "internalType": "address",
          "name": "",
          "type": "address"
        }
      ],
      "payable": false,
      "stateMutability": "view",
      "type": "function"
    },
    {
      "constant": true,
      "inputs": [],
      "name": "blocksOrSecondsPerYear",
      "outputs": [
        {
          "internalType": "uint256",
          "name": "",
          "type": "uint256"
        }
      ],
      "payable": false,
      "stateMutability": "view",
      "type": "function"
    },
    {
      "constant": true,
      "inputs": [
        {
          "internalType": "address",
          "name": "",
          "type": "address"
        },
        {
          "internalType": "uint32",
          "name": "",
          "type": "uint32"
        }
      ],
      "name": "checkpoints",
      "outputs": [
        {
          "internalType": "uint32",
          "name": "fromBlockOrSecond",
          "type": "uint32"
        },
        {
          "internalType": "uint96",
          "name": "votes",
          "type": "uint96"
        }
      ],
      "payable": false,
      "stateMutability": "view",
      "type": "function"
    },
    {
      "constant": false,
      "inputs": [
        {
          "internalType": "address",
          "name": "_account",
          "type": "address"
        },
        {
          "internalType": "address",
          "name": "_rewardToken",
          "type": "address"
        },
        {
          "internalType": "uint256",
          "name": "_pid",
          "type": "uint256"
        }
      ],
      "name": "claim",
      "outputs": [],
      "payable": false,
      "stateMutability": "nonpayable",
      "type": "function"
    },
    {
      "constant": false,
      "inputs": [
        {
          "internalType": "address",
          "name": "delegatee",
          "type": "address"
        }
      ],
      "name": "delegate",
      "outputs": [],
      "payable": false,
      "stateMutability": "nonpayable",
      "type": "function"
    },
    {
      "constant": false,
      "inputs": [
        {
          "internalType": "address",
          "name": "delegatee",
          "type": "address"
        },
        {
          "internalType": "uint256",
          "name": "nonce",
          "type": "uint256"
        },
        {
          "internalType": "uint256",
          "name": "expiry",
          "type": "uint256"
        },
        {
          "internalType": "uint8",
          "name": "v",
          "type": "uint8"
        },
        {
          "internalType": "bytes32",
          "name": "r",
          "type": "bytes32"
        },
        {
          "internalType": "bytes32",
          "name": "s",
          "type": "bytes32"
        }
      ],
      "name": "delegateBySig",
      "outputs": [],
      "payable": false,
      "stateMutability": "nonpayable",
      "type": "function"
    },
    {
      "constant": true,
      "inputs": [
        {
          "internalType": "address",
          "name": "",
          "type": "address"
        }
      ],
      "name": "delegates",
      "outputs": [
        {
          "internalType": "address",
          "name": "",
          "type": "address"
        }
      ],
      "payable": false,
      "stateMutability": "view",
      "type": "function"
    },
    {
      "constant": false,
      "inputs": [
        {
          "internalType": "address",
          "name": "_rewardToken",
          "type": "address"
        },
        {
          "internalType": "uint256",
          "name": "_pid",
          "type": "uint256"
        },
        {
          "internalType": "uint256",
          "name": "_amount",
          "type": "uint256"
        }
      ],
      "name": "deposit",
      "outputs": [],
      "payable": false,
      "stateMutability": "nonpayable",
      "type": "function"
    },
    {
      "constant": false,
      "inputs": [
        {
          "internalType": "address",
          "name": "_rewardToken",
          "type": "address"
        },
        {
          "internalType": "uint256",
          "name": "_pid",
          "type": "uint256"
        }
      ],
      "name": "executeWithdrawal",
      "outputs": [],
      "payable": false,
      "stateMutability": "nonpayable",
      "type": "function"
    },
    {
      "constant": true,
      "inputs": [],
      "name": "getBlockNumberOrTimestamp",
      "outputs": [
        {
          "internalType": "uint256",
          "name": "",
          "type": "uint256"
        }
      ],
      "payable": false,
      "stateMutability": "view",
      "type": "function"
    },
    {
      "constant": true,
      "inputs": [
        {
          "internalType": "address",
          "name": "account",
          "type": "address"
        }
      ],
      "name": "getCurrentVotes",
      "outputs": [
        {
          "internalType": "uint96",
          "name": "",
          "type": "uint96"
        }
      ],
      "payable": false,
      "stateMutability": "view",
      "type": "function"
    },
    {
      "constant": true,
      "inputs": [
        {
          "internalType": "address",
          "name": "_rewardToken",
          "type": "address"
        },
        {
          "internalType": "uint256",
          "name": "_pid",
          "type": "uint256"
        },
        {
          "internalType": "address",
          "name": "_user",
          "type": "address"
        }
      ],
      "name": "getEligibleWithdrawalAmount",
      "outputs": [
        {
          "internalType": "uint256",
          "name": "withdrawalAmount",
          "type": "uint256"
        }
      ],
      "payable": false,
      "stateMutability": "view",
      "type": "function"
    },
    {
      "constant": true,
      "inputs": [
        {
          "internalType": "address",
          "name": "account",
          "type": "address"
        },
        {
          "internalType": "uint256",
          "name": "blockNumberOrSecond",
          "type": "uint256"
        }
      ],
      "name": "getPriorVotes",
      "outputs": [
        {
          "internalType": "uint96",
          "name": "",
          "type": "uint96"
        }
      ],
      "payable": false,
      "stateMutability": "view",
      "type": "function"
    },
    {
      "constant": true,
      "inputs": [
        {
          "internalType": "address",
          "name": "_rewardToken",
          "type": "address"
        },
        {
          "internalType": "uint256",
          "name": "_pid",
          "type": "uint256"
        },
        {
          "internalType": "address",
          "name": "_user",
          "type": "address"
        }
      ],
      "name": "getRequestedAmount",
      "outputs": [
        {
          "internalType": "uint256",
          "name": "",
          "type": "uint256"
        }
      ],
      "payable": false,
      "stateMutability": "view",
      "type": "function"
    },
    {
      "constant": true,
      "inputs": [
        {
          "internalType": "address",
          "name": "_rewardToken",
          "type": "address"
        },
        {
          "internalType": "uint256",
          "name": "_pid",
          "type": "uint256"
        },
        {
          "internalType": "address",
          "name": "_user",
          "type": "address"
        }
      ],
      "name": "getUserInfo",
      "outputs": [
        {
          "internalType": "uint256",
          "name": "amount",
          "type": "uint256"
        },
        {
          "internalType": "uint256",
          "name": "rewardDebt",
          "type": "uint256"
        },
        {
          "internalType": "uint256",
          "name": "pendingWithdrawals",
          "type": "uint256"
        }
      ],
      "payable": false,
      "stateMutability": "view",
      "type": "function"
    },
    {
      "constant": true,
      "inputs": [
        {
          "internalType": "address",
          "name": "_rewardToken",
          "type": "address"
        },
        {
          "internalType": "uint256",
          "name": "_pid",
          "type": "uint256"
        },
        {
          "internalType": "address",
          "name": "_user",
          "type": "address"
        }
      ],
      "name": "getWithdrawalRequests",
      "outputs": [
        {
          "components": [
            {
              "internalType": "uint256",
              "name": "amount",
              "type": "uint256"
            },
            {
              "internalType": "uint128",
              "name": "lockedUntil",
              "type": "uint128"
            },
            {
              "internalType": "uint128",
              "name": "afterUpgrade",
              "type": "uint128"
            }
          ],
          "internalType": "struct XVSVaultStorageV1.WithdrawalRequest[]",
          "name": "",
          "type": "tuple[]"
        }
      ],
      "payable": false,
      "stateMutability": "view",
      "type": "function"
    },
    {
      "constant": true,
      "inputs": [],
      "name": "implementation",
      "outputs": [
        {
          "internalType": "address",
          "name": "",
          "type": "address"
        }
      ],
      "payable": false,
      "stateMutability": "view",
      "type": "function"
    },
    {
      "constant": false,
      "inputs": [
        {
          "internalType": "bool",
          "name": "timeBased_",
          "type": "bool"
        },
        {
          "internalType": "uint256",
          "name": "blocksPerYear_",
          "type": "uint256"
        }
      ],
      "name": "initializeTimeManager",
      "outputs": [],
      "payable": false,
      "stateMutability": "nonpayable",
      "type": "function"
    },
    {
      "constant": true,
      "inputs": [
        {
          "internalType": "address",
          "name": "",
          "type": "address"
        }
      ],
      "name": "isStakedToken",
      "outputs": [
        {
          "internalType": "bool",
          "name": "",
          "type": "bool"
        }
      ],
      "payable": false,
      "stateMutability": "view",
      "type": "function"
    },
    {
      "constant": true,
      "inputs": [],
      "name": "isTimeBased",
      "outputs": [
        {
          "internalType": "bool",
          "name": "",
          "type": "bool"
        }
      ],
      "payable": false,
      "stateMutability": "view",
      "type": "function"
    },
    {
      "constant": true,
      "inputs": [
        {
          "internalType": "address",
          "name": "",
          "type": "address"
        }
      ],
      "name": "nonces",
      "outputs": [
        {
          "internalType": "uint256",
          "name": "",
          "type": "uint256"
        }
      ],
      "payable": false,
      "stateMutability": "view",
      "type": "function"
    },
    {
      "constant": true,
      "inputs": [
        {
          "internalType": "address",
          "name": "",
          "type": "address"
        }
      ],
      "name": "numCheckpoints",
      "outputs": [
        {
          "internalType": "uint32",
          "name": "",
          "type": "uint32"
        }
      ],
      "payable": false,
      "stateMutability": "view",
      "type": "function"
    },
    {
      "constant": false,
      "inputs": [],
      "name": "pause",
      "outputs": [],
      "payable": false,
      "stateMutability": "nonpayable",
      "type": "function"
    },
    {
      "constant": true,
      "inputs": [],
      "name": "pendingAdmin",
      "outputs": [
        {
          "internalType": "address",
          "name": "",
          "type": "address"
        }
      ],
      "payable": false,
      "stateMutability": "view",
      "type": "function"
    },
    {
      "constant": true,
      "inputs": [
        {
          "internalType": "address",
          "name": "_rewardToken",
          "type": "address"
        },
        {
          "internalType": "uint256",
          "name": "_pid",
          "type": "uint256"
        },
        {
          "internalType": "address",
          "name": "_user",
          "type": "address"
        }
      ],
      "name": "pendingReward",
      "outputs": [
        {
          "internalType": "uint256",
          "name": "",
          "type": "uint256"
        }
      ],
      "payable": false,
      "stateMutability": "view",
      "type": "function"
    },
    {
      "constant": true,
      "inputs": [
        {
          "internalType": "address",
          "name": "",
          "type": "address"
        },
        {
          "internalType": "address",
          "name": "",
          "type": "address"
        }
      ],
      "name": "pendingRewardTransfers",
      "outputs": [
        {
          "internalType": "uint256",
          "name": "",
          "type": "uint256"
        }
      ],
      "payable": false,
      "stateMutability": "view",
      "type": "function"
    },
    {
      "constant": true,
      "inputs": [
        {
          "internalType": "address",
          "name": "_rewardToken",
          "type": "address"
        },
        {
          "internalType": "uint256",
          "name": "_pid",
          "type": "uint256"
        },
        {
          "internalType": "address",
          "name": "_user",
          "type": "address"
        }
      ],
      "name": "pendingWithdrawalsBeforeUpgrade",
      "outputs": [
        {
          "internalType": "uint256",
          "name": "beforeUpgradeWithdrawalAmount",
          "type": "uint256"
        }
      ],
      "payable": false,
      "stateMutability": "view",
      "type": "function"
    },
    {
      "constant": true,
      "inputs": [],
      "name": "pendingXVSVaultImplementation",
      "outputs": [
        {
          "internalType": "address",
          "name": "",
          "type": "address"
        }
      ],
      "payable": false,
      "stateMutability": "view",
      "type": "function"
    },
    {
      "constant": true,
      "inputs": [
        {
          "internalType": "address",
          "name": "",
          "type": "address"
        },
        {
          "internalType": "uint256",
          "name": "",
          "type": "uint256"
        }
      ],
      "name": "poolInfos",
      "outputs": [
        {
          "internalType": "contract IBEP20",
          "name": "token",
          "type": "address"
        },
        {
          "internalType": "uint256",
          "name": "allocPoint",
          "type": "uint256"
        },
        {
          "internalType": "uint256",
          "name": "lastRewardBlockOrSecond",
          "type": "uint256"
        },
        {
          "internalType": "uint256",
          "name": "accRewardPerShare",
          "type": "uint256"
        },
        {
          "internalType": "uint256",
          "name": "lockPeriod",
          "type": "uint256"
        }
      ],
      "payable": false,
      "stateMutability": "view",
      "type": "function"
    },
    {
      "constant": true,
      "inputs": [
        {
          "internalType": "address",
          "name": "rewardToken",
          "type": "address"
        }
      ],
      "name": "poolLength",
      "outputs": [
        {
          "internalType": "uint256",
          "name": "",
          "type": "uint256"
        }
      ],
      "payable": false,
      "stateMutability": "view",
      "type": "function"
    },
    {
      "constant": true,
      "inputs": [],
      "name": "primePoolId",
      "outputs": [
        {
          "internalType": "uint256",
          "name": "",
          "type": "uint256"
        }
      ],
      "payable": false,
      "stateMutability": "view",
      "type": "function"
    },
    {
      "constant": true,
      "inputs": [],
      "name": "primeRewardToken",
      "outputs": [
        {
          "internalType": "address",
          "name": "",
          "type": "address"
        }
      ],
      "payable": false,
      "stateMutability": "view",
      "type": "function"
    },
    {
      "constant": true,
      "inputs": [],
      "name": "primeToken",
      "outputs": [
        {
          "internalType": "contract IPrime",
          "name": "",
          "type": "address"
        }
      ],
      "payable": false,
      "stateMutability": "view",
      "type": "function"
    },
    {
      "constant": false,
      "inputs": [
        {
          "internalType": "address",
          "name": "_rewardToken",
          "type": "address"
        },
        {
          "internalType": "uint256",
          "name": "_pid",
          "type": "uint256"
        },
        {
          "internalType": "uint256",
          "name": "_amount",
          "type": "uint256"
        }
      ],
      "name": "requestWithdrawal",
      "outputs": [],
      "payable": false,
      "stateMutability": "nonpayable",
      "type": "function"
    },
    {
      "constant": false,
      "inputs": [],
      "name": "resume",
      "outputs": [],
      "payable": false,
      "stateMutability": "nonpayable",
      "type": "function"
    },
    {
      "constant": true,
      "inputs": [
        {
          "internalType": "address",
          "name": "_rewardToken",
          "type": "address"
        }
      ],
      "name": "rewardTokenAmountsPerBlock",
      "outputs": [
        {
          "internalType": "uint256",
          "name": "",
          "type": "uint256"
        }
      ],
      "payable": false,
      "stateMutability": "view",
      "type": "function"
    },
    {
      "constant": true,
      "inputs": [
        {
          "internalType": "address",
          "name": "",
          "type": "address"
        }
      ],
      "name": "rewardTokenAmountsPerBlockOrSecond",
      "outputs": [
        {
          "internalType": "uint256",
          "name": "",
          "type": "uint256"
        }
      ],
      "payable": false,
      "stateMutability": "view",
      "type": "function"
    },
    {
      "constant": false,
      "inputs": [
        {
          "internalType": "address",
          "name": "_rewardToken",
          "type": "address"
        },
        {
          "internalType": "uint256",
          "name": "_pid",
          "type": "uint256"
        },
        {
          "internalType": "uint256",
          "name": "_allocPoint",
          "type": "uint256"
        }
      ],
      "name": "set",
      "outputs": [],
      "payable": false,
      "stateMutability": "nonpayable",
      "type": "function"
    },
    {
      "constant": false,
      "inputs": [
        {
          "internalType": "address",
          "name": "newAccessControlAddress",
          "type": "address"
        }
      ],
      "name": "setAccessControl",
      "outputs": [],
      "payable": false,
      "stateMutability": "nonpayable",
      "type": "function"
    },
    {
      "constant": false,
      "inputs": [
        {
          "internalType": "contract IPrime",
          "name": "_primeToken",
          "type": "address"
        },
        {
          "internalType": "address",
          "name": "_primeRewardToken",
          "type": "address"
        },
        {
          "internalType": "uint256",
          "name": "_primePoolId",
          "type": "uint256"
        }
      ],
      "name": "setPrimeToken",
      "outputs": [],
      "payable": false,
      "stateMutability": "nonpayable",
      "type": "function"
    },
    {
      "constant": false,
      "inputs": [
        {
          "internalType": "address",
          "name": "_rewardToken",
          "type": "address"
        },
        {
          "internalType": "uint256",
          "name": "_rewardAmount",
          "type": "uint256"
        }
      ],
      "name": "setRewardAmountPerBlockOrSecond",
      "outputs": [],
      "payable": false,
      "stateMutability": "nonpayable",
      "type": "function"
    },
    {
      "constant": false,
      "inputs": [
        {
          "internalType": "address",
          "name": "_rewardToken",
          "type": "address"
        },
        {
          "internalType": "uint256",
          "name": "_pid",
          "type": "uint256"
        },
        {
          "internalType": "uint256",
          "name": "_newPeriod",
          "type": "uint256"
        }
      ],
      "name": "setWithdrawalLockingPeriod",
      "outputs": [],
      "payable": false,
      "stateMutability": "nonpayable",
      "type": "function"
    },
    {
      "constant": false,
      "inputs": [
        {
          "internalType": "address",
          "name": "_xvs",
          "type": "address"
        },
        {
          "internalType": "address",
          "name": "_xvsStore",
          "type": "address"
        }
      ],
      "name": "setXvsStore",
      "outputs": [],
      "payable": false,
      "stateMutability": "nonpayable",
      "type": "function"
    },
    {
      "constant": true,
      "inputs": [
        {
          "internalType": "address",
          "name": "",
          "type": "address"
        }
      ],
      "name": "totalAllocPoints",
      "outputs": [
        {
          "internalType": "uint256",
          "name": "",
          "type": "uint256"
        }
      ],
      "payable": false,
      "stateMutability": "view",
      "type": "function"
    },
    {
      "constant": false,
      "inputs": [
        {
          "internalType": "address",
          "name": "_rewardToken",
          "type": "address"
        },
        {
          "internalType": "uint256",
          "name": "_pid",
          "type": "uint256"
        }
      ],
      "name": "updatePool",
      "outputs": [],
      "payable": false,
      "stateMutability": "nonpayable",
      "type": "function"
    },
    {
      "constant": true,
      "inputs": [],
      "name": "vaultPaused",
      "outputs": [
        {
          "internalType": "bool",
          "name": "",
          "type": "bool"
        }
      ],
      "payable": false,
      "stateMutability": "view",
      "type": "function"
    },
    {
      "constant": true,
      "inputs": [],
      "name": "xvsAddress",
      "outputs": [
        {
          "internalType": "address",
          "name": "",
          "type": "address"
        }
      ],
      "payable": false,
      "stateMutability": "view",
      "type": "function"
    },
    {
      "constant": true,
      "inputs": [],
      "name": "xvsStore",
      "outputs": [
        {
          "internalType": "address",
          "name": "",
          "type": "address"
        }
      ],
      "payable": false,
      "stateMutability": "view",
      "type": "function"
    }
  ],
  "transactionHash": "0x9249510d5850c9ecf009975c266c6f07fefbea1a7601c4deb6716f2bd894b887",
  "args": [],
  "numDeployments": 1,
  "solcInputHash": "848d042230802dc882f081af06660021",
  "bytecode": "0x608060405234801561001057600080fd5b50600080546001600160a01b0319163317905561577f80620000336000396000f3fe608060405234801561001057600080fd5b506004361061035d5760003560e01c806392e35000116101d3578063c7ad089511610104578063e7a324dc116100a2578063f55401621161007c578063f554016214610704578063f851a4401461070c578063fba1b1f914610714578063fe5a451a146107275761035d565b8063e7a324dc146106d3578063e8f2be6f146106db578063f1127ed8146106e35761035d565b8063dae66bbe116100de578063dae66bbe146106a8578063de0368b2146106bb578063e1d146fb146106c3578063e6a69ab8146106cb5761035d565b8063c7ad08951461067a578063cd9b94e714610682578063d7ae45e2146106955761035d565b8063add8933711610171578063b6a5fd2f1161014b578063b6a5fd2f14610621578063c210259614610634578063c3c754a814610654578063c3cda520146106675761035d565b8063add89337146105f1578063b4a0bdf3146105f9578063b4b5ea571461060e5761035d565b80639e2b6c4d116101ad5780639e2b6c4d146105a5578063a09eab7a146105b8578063a6997762146105cb578063a9d69a69146105de5761035d565b806392e350001461054c57806398e1b31b14610570578063996cba68146105925761035d565b8063587cde1e116102ad57806373d025d61161024b5780637ecebe00116102255780637ecebe001461050b5780638308d7e91461051e5780638456cb59146105315780638ed7333d146105395761035d565b806373d025d6146104c3578063782d6fe1146104d85780637ac92456146104f85761035d565b80635ff56315116102875780635ff56315146104755780636857249c146104885780636dd77cbd146104905780636fcfff45146104a35761035d565b8063587cde1e146104475780635c19a95c1461045a5780635c60da1b1461046d5761035d565b806320606b701161031a5780632eda5c6c116102f45780632eda5c6c14610406578063358ae036146104195780633d4180f9146104215780634298bdbd146104345761035d565b806320606b70146103e157806324f52bbf146103e957806326782247146103fe5761035d565b8063046f7da2146103625780630af137281461036c5780630efe6a8b14610395578063115b512f146103a857806319129e5a146103bb5780631d504dc6146103ce575b600080fd5b61036a61072f565b005b61037f61037a3660046140b4565b6107ba565b60405161038c91906150a4565b60405180910390f35b61036a6103a336600461416c565b610800565b61036a6103b636600461416c565b610af5565b61036a6103c9366004613fc1565b610ea9565b61036a6103dc3660046142b3565b610edf565b61037f611010565b6103f1611027565b60405161038c9190614f42565b6103f1611036565b61037f610414366004613fc1565b611045565b6103f1611064565b61037f61042f366004613ffd565b611073565b61037f610442366004613fc1565b611090565b6103f1610455366004613fc1565b6110a2565b61036a610468366004613fc1565b6110bd565b6103f16110ea565b61036a610483366004613ffd565b6110f9565b61037f6111ed565b61037f61049e3660046140b4565b6111f3565b6104b66104b1366004613fc1565b6112a8565b60405161038c9190615452565b6104cb6112c0565b60405161038c9190615096565b6104eb6104e6366004614084565b6112c9565b60405161038c919061547b565b61036a610506366004614084565b6114df565b61037f610519366004613fc1565b611828565b61036a61052c36600461416c565b61183a565b61036a6119e0565b61036a610547366004614084565b611a65565b61055f61055a366004614084565b611aa0565b60405161038c959493929190615111565b61058361057e3660046140b4565b611af5565b60405161038c93929190615437565b61036a6105a0366004614037565b611b47565b61036a6105b336600461416c565b611cd9565b61037f6105c63660046140b4565b611dc4565b61036a6105d9366004614273565b612014565b61037f6105ec3660046140b4565b612048565b6103f161208a565b610601612099565b60405161038c9190615103565b6104eb61061c366004613fc1565b6120a8565b61036a61062f366004614084565b612118565b6106476106423660046140b4565b61223e565b60405161038c9190615085565b6104cb610662366004613fc1565b6122f8565b61036a61067536600461419e565b61230d565b6104cb6124b1565b61037f610690366004613fc1565b6124ba565b61037f6106a3366004613fc1565b6124cc565b61036a6106b6366004614292565b6124e7565b6103f16125f3565b61037f612602565b61037f612632565b61037f61263a565b61037f612646565b6106f66106f1366004614225565b61264c565b60405161038c929190615460565b61037f612681565b6103f1612689565b61036a6107223660046140f7565b612698565b61060161297d565b61075860405180604001604052806008815260200167726573756d65282960c01b81525061298c565b60135460ff166107835760405162461bcd60e51b815260040161077a906151ce565b60405180910390fd5b6013805460ff1916905560405133907fd2619572a1464e0df0bb351d834fd47f3350984d7bfdb1ab69cfcb0b8e42141590600090a2565b60006107c68484612a2e565b506001600160a01b0380841660009081526007602090815260408083208684528252808320938516835292905220600201545b9392505050565b600354600160a01b900460ff166108295760405162461bcd60e51b815260040161077a9061533e565b6003805460ff60a01b1916905560135460ff16156108595760405162461bcd60e51b815260040161077a906151be565b6108638383612a2e565b6001600160a01b038316600090815260086020526040812080548490811061088757fe5b600091825260208083206001600160a01b038816845260078252604080852088865283528085203386529092529220600590910290910191506108ca8585612a65565b6108d5858533612048565b156108f25760405162461bcd60e51b815260040161077a906152de565b8054156109675760006109058284612c42565b9050801561096557610918863383612c56565b84866001600160a01b0316336001600160a01b03167f865ca08d59f5cb456e85cd2f7ef63664ea4f73327414e9d8152c4158b0e946458460405161095c91906150a4565b60405180910390a45b505b8154610984906001600160a01b031633308663ffffffff612ecf16565b8054610996908463ffffffff612f3016565b81556109a28183612f72565b600182015560055482546001600160a01b0390811691161415610a0957336000908152600f60209081526040808320548151606081019092526021808352610a0994936001600160a01b0390921692610a049289929061561f90830139612fa0565b612fcf565b6017546001600160a01b038681169116148015610a27575060185484145b15610a8f576016546040516337f23cd360e01b81526001600160a01b03909116906337f23cd390610a5c903390600401614f50565b600060405180830381600087803b158015610a7657600080fd5b505af1158015610a8a573d6000803e3d6000fd5b505050505b83856001600160a01b0316336001600160a01b03167fdcbc1c05240f31ff3ad067ef1ee35ce4997762752e3a095284754544f4c709d786604051610ad391906150a4565b60405180910390a450506003805460ff60a01b1916600160a01b179055505050565b600354600160a01b900460ff16610b1e5760405162461bcd60e51b815260040161077a9061533e565b6003805460ff60a01b1916905560135460ff1615610b4e5760405162461bcd60e51b815260040161077a906151be565b610b588383612a2e565b60008111610b785760405162461bcd60e51b815260040161077a906152fe565b6001600160a01b0383166000908152600760209081526040808320858452825280832033845290915290206002810154610bb8908363ffffffff612f3016565b81541015610bd85760405162461bcd60e51b815260040161077a906153de565b6001600160a01b0384166000908152600860205260408120805485908110610bfc57fe5b600091825260208083206001600160a01b0389168452600a825260408085208986528352808520338652909252908320600590920201925090610c3e82613161565b5090508015610c5f5760405162461bcd60e51b815260040161077a906152de565b610c698787612a65565b6000610c758585612c42565b9050610c82883383612c56565b6004840154600090610c9a904263ffffffff612f3016565b9050610ca886858984613205565b6001600160a01b03891660009081526012602090815260408083208b8452909152902054610cdc908863ffffffff612f3016565b6001600160a01b038a1660009081526012602090815260408083208c8452909152902055610d0a8686612f72565b600187015560055485546001600160a01b0390811691161415610d6d57336000908152600f6020908152604080832054815160608101909252602b808352610d6d946001600160a01b03909216939192610a04928d92906155cc90830139612fa0565b6017546001600160a01b038a81169116148015610d8b575060185488145b15610df3576016546040516337f23cd360e01b81526001600160a01b03909116906337f23cd390610dc0903390600401614f50565b600060405180830381600087803b158015610dda57600080fd5b505af1158015610dee573d6000803e3d6000fd5b505050505b87896001600160a01b0316336001600160a01b03167f865ca08d59f5cb456e85cd2f7ef63664ea4f73327414e9d8152c4158b0e9464585604051610e3791906150a4565b60405180910390a487896001600160a01b0316336001600160a01b03167f88a254a0ef28a0b9e957ff600beae69870f6f924065147f3627c3f814e60ec118a604051610e8391906150a4565b60405180910390a450506003805460ff60a01b1916600160a01b17905550505050505050565b6000546001600160a01b03163314610ed35760405162461bcd60e51b815260040161077a9061535e565b610edc816133e9565b50565b806001600160a01b031663f851a4406040518163ffffffff1660e01b815260040160206040518083038186803b158015610f1857600080fd5b505afa158015610f2c573d6000803e3d6000fd5b505050506040513d601f19601f82011682018060405250610f509190810190613fdf565b6001600160a01b0316336001600160a01b031614610f805760405162461bcd60e51b815260040161077a906153ee565b806001600160a01b031663c1e803346040518163ffffffff1660e01b8152600401602060405180830381600087803b158015610fbb57600080fd5b505af1158015610fcf573d6000803e3d6000fd5b505050506040513d601f19601f82011682018060405250610ff391908101906142d1565b15610edc5760405162461bcd60e51b815260040161077a9061536e565b60405161101c90614f2c565b604051809103902081565b6004546001600160a01b031681565b6001546001600160a01b031681565b6001600160a01b0381166000908152600660205260409020545b919050565b6005546001600160a01b031681565b601560209081526000928352604080842090915290825290205481565b60096020526000908152604090205481565b600f602052600090815260409020546001600160a01b031681565b60135460ff16156110e05760405162461bcd60e51b815260040161077a906151be565b610edc338261346e565b6002546001600160a01b031681565b6000546001600160a01b031633146111235760405162461bcd60e51b815260040161077a9061535e565b61112c826134fd565b611135816134fd565b6005546004546001600160a01b03918216911681156111665760405162461bcd60e51b815260040161077a9061529e565b600580546001600160a01b038087166001600160a01b03199283161790925560048054928616929091169190911790556003805460ff60a01b1916600160a01b1790556040517f559f314bb90394a4a9ceb724f365b36a53587d894352c43d12901fd680101456906111df908490849088908890614fc1565b60405180910390a150505050565b60795481565b60006111ff8484612a2e565b6001600160a01b038085166000908152600a60209081526040808320878452825280832093861683529290522080545b60008111801561125f575061125f82600183038154811061124c57fe5b9060005260206000209060020201613523565b1561129f5761129482600183038154811061127657fe5b6000918252602090912060029091020154849063ffffffff612f3016565b92506000190161122f565b50509392505050565b60116020526000908152604090205463ffffffff1681565b60135460ff1681565b60006112d3612602565b82106112f15760405162461bcd60e51b815260040161077a906152ae565b6001600160a01b03831660009081526011602052604090205463ffffffff168061131f5760009150506114d9565b6001600160a01b038416600090815260106020908152604080832063ffffffff60001986018116855292529091205416831061139b576001600160a01b03841660009081526010602090815260408083206000199490940163ffffffff1683529290522054600160201b90046001600160601b031690506114d9565b6001600160a01b038416600090815260106020908152604080832083805290915290205463ffffffff168310156113d65760009150506114d9565b600060001982015b8163ffffffff168163ffffffff16111561149957600282820363ffffffff16048103611408613f45565b506001600160a01b038716600090815260106020908152604080832063ffffffff858116855290835292819020815180830190925254928316808252600160201b9093046001600160601b03169181019190915290871415611474576020015194506114d99350505050565b805163ffffffff1687111561148b57819350611492565b6001820392505b50506113de565b506001600160a01b038516600090815260106020908152604080832063ffffffff909416835292905220546001600160601b03600160201b909104169150505b92915050565b600354600160a01b900460ff166115085760405162461bcd60e51b815260040161077a9061533e565b6003805460ff60a01b1916905560135460ff16156115385760405162461bcd60e51b815260040161077a906151be565b6115428282612a2e565b6001600160a01b038216600090815260086020526040812080548390811061156657fe5b600091825260208083206001600160a01b038716808552600783526040808620888752845280862033808852908552818720928752600a85528187208988528552818720908752909352918420600590930201935091806115c78484613538565b9092509050811515806115da5750600081115b6115f65760405162461bcd60e51b815260040161077a9061537e565b811580611601575080155b61161d5760405162461bcd60e51b815260040161077a9061517e565b81156117365761162d8787612a65565b6000611673856001015461166764e8d4a5100061165b8a600301548a6000015461362f90919063ffffffff16565b9063ffffffff61366916565b9063ffffffff6136ab16565b6004805460405163135b33cd60e31b81529293506001600160a01b031691639ad99e68916116a7918c913391879101614f99565b600060405180830381600087803b1580156116c157600080fd5b505af11580156116d5573d6000803e3d6000fd5b505086546116ec925090508463ffffffff6136ab16565b808655600387015461170f9164e8d4a510009161165b919063ffffffff61362f16565b60018601558554611730906001600160a01b0316338563ffffffff6136ed16565b506117ba565b8354611748908263ffffffff6136ab16565b84556001600160a01b038716600090815260126020908152604080832089845290915290205461177e908263ffffffff6136ab16565b6001600160a01b0380891660009081526012602090815260408083208b845290915290209190915585546117ba9116338363ffffffff6136ed16565b856001600160a01b038816337fe31da05fae6db869f5ea51f4b638aa6884070b6c87f18f63bd2291a12cb2f5186117f7868663ffffffff612f3016565b60405161180491906150a4565b60405180910390a450506003805460ff60a01b1916600160a01b1790555050505050565b600e6020526000908152604090205481565b6118786040518060400160405280601c81526020017f73657428616464726573732c75696e743235362c75696e74323536290000000081525061298c565b6118828383612a2e565b61188b8361370f565b6001600160a01b038316600090815260086020526040812080549091906119049084906118f8908590889081106118be57fe5b60009182526020808320600160059093020191909101546001600160a01b038b16835260099091526040909120549063ffffffff6136ab16565b9063ffffffff612f3016565b9050600081116119265760405162461bcd60e51b815260040161077a906153fe565b600082858154811061193457fe5b90600052602060002090600502016001015490508383868154811061195557fe5b9060005260206000209060050201600101819055508160096000886001600160a01b03166001600160a01b031681526020019081526020016000208190555084866001600160a01b03167f6ee09c6cb801194690c195c69f465aaf7c80255cbeafaab9600f47ed79de2ca983876040516119d0929190615429565b60405180910390a3505050505050565b611a08604051806040016040528060078152602001667061757365282960c81b81525061298c565b60135460ff1615611a2b5760405162461bcd60e51b815260040161077a9061525e565b6013805460ff1916600117905560405133907fdffada2889ebfab9224c24069d833f3de835d8cf99872d49e7b7ba5fccb7a46f90600090a2565b60135460ff1615611a885760405162461bcd60e51b815260040161077a906151be565b611a928282612a2e565b611a9c8282612a65565b5050565b60086020528160005260406000208181548110611ab957fe5b6000918252602090912060059091020180546001820154600283015460038401546004909401546001600160a01b039093169550909350919085565b6000806000611b048686612a2e565b5050506001600160a01b03928316600090815260076020908152604080832094835293815283822092909416815292529020805460018201546002909201549092565b600354600160a01b900460ff16611b705760405162461bcd60e51b815260040161077a9061533e565b6003805460ff60a01b1916905560135460ff1615611ba05760405162461bcd60e51b815260040161077a906151be565b611baa8282612a2e565b6001600160a01b0382166000908152600860205260408120805483908110611bce57fe5b600091825260208083206001600160a01b0380881685526007835260408086208887528452808620918a1686529252922060059091029091019150611c138484612a65565b611c1e848487612048565b15611c3b5760405162461bcd60e51b815260040161077a906152de565b805415611cbf576000611c4e8284612c42565b90508015611cbd57611c608284612f72565b6001830155611c70858783612c56565b83856001600160a01b0316876001600160a01b03167f865ca08d59f5cb456e85cd2f7ef63664ea4f73327414e9d8152c4158b0e9464584604051611cb491906150a4565b60405180910390a45b505b50506003805460ff60a01b1916600160a01b179055505050565b611cfa6040518060600160405280603381526020016156826033913961298c565b611d048383612a2e565b600081118015611d1757506312cc030081105b611d335760405162461bcd60e51b815260040161077a9061538e565b6001600160a01b0383166000908152600860205260408120805484908110611d5757fe5b9060005260206000209060050201905060008160040154905082826004018190555083856001600160a01b03167f0bcf80c5060ccf99b7a993c57a94b232fc2c5c04bd74c7c7d174595fee6bc31f8386604051611db5929190615429565b60405180910390a35050505050565b6000611dd08484612a2e565b6001600160a01b0384166000908152600860205260408120805485908110611df457fe5b600091825260208083206001600160a01b03808a168086526007845260408087208b885285528087208a8416885285528087206003600590970290940195860154918752601285528087208b885290945283862054855494516370a0823160e01b8152959750929590949093611ecb939216906370a0823190611e7b903090600401614f42565b60206040518083038186803b158015611e9357600080fd5b505afa158015611ea7573d6000803e3d6000fd5b505050506040513d601f19601f8201168201806040525061166791908101906142d1565b90506000611ed7612602565b6001600160a01b038a1660009081526006602052604090205460028701549192509082118015611f0657508215155b15611f9c576000611f248760020154846136ab90919063ffffffff16565b6001600160a01b038c1660009081526009602052604081205460018a01549293509091611f6c919061165b90611f60868863ffffffff61362f16565b9063ffffffff61362f16565b9050611f97611f8a8661165b8464e8d4a5100063ffffffff61362f16565b879063ffffffff612f3016565b955050505b6001600160a01b03808b166000908152600a602090815260408083208d84528252808320938c16835292905290812090611fd582613161565b915050612004876001015461166764e8d4a5100061165b8a611f60878e600001546136ab90919063ffffffff16565b9c9b505050505050505050505050565b6000546001600160a01b0316331461203e5760405162461bcd60e51b815260040161077a9061535e565b611a9c8282613744565b6001600160a01b038084166000908152600a602090815260408083208684528252808320938516835292905290812061208081613161565b5095945050505050565b6017546001600160a01b031681565b6047546001600160a01b031690565b6001600160a01b03811660009081526011602052604081205463ffffffff16806120d35760006107f9565b6001600160a01b0383166000908152601060209081526040808320600019850163ffffffff168452909152902054600160201b90046001600160601b03169392505050565b6121396040518060600160405280603081526020016156e16030913961298c565b60048054604051633d6ac5b360e21b81526001600160a01b039091169163f5ab16cc9161216891869101614f42565b60206040518083038186803b15801561218057600080fd5b505afa158015612194573d6000803e3d6000fd5b505050506040513d601f19601f820116820180604052506121b89190810190614255565b6121d45760405162461bcd60e51b815260040161077a9061534e565b6121dd8261370f565b6001600160a01b0382166000818152600660205260409081902080549084905590519091907fad96cee0d692f0250b98e085504f399da6733854908215f6203fe3c69366d9f5906122319084908690615429565b60405180910390a2505050565b606061224a8484612a2e565b6001600160a01b038085166000908152600a602090815260408083208784528252808320938616835292815282822080548451818402810184019095528085529092909184015b828210156122eb5760008481526020908190206040805160608101825260028602909201805483526001908101546001600160801b0380821685870152600160801b90910416918301919091529083529092019101612291565b5050505090509392505050565b60146020526000908152604090205460ff1681565b60135460ff16156123305760405162461bcd60e51b815260040161077a906151be565b600060405161233e90614f2c565b604080519182900382208282019091526008825267161594d5985d5b1d60c21b6020909201919091527fddfcc46608a8bd52ebf900f03a24cc97b73a6046cec8c5d0f74a211e376e967a612390613829565b306040516020016123a494939291906150c0565b60405160208183030381529060405280519060200120905060006040516123ca90614f37565b6040519081900381206123e5918a908a908a906020016150b2565b60405160208183030381529060405280519060200120905060008282604051602001612412929190614efb565b60405160208183030381529060405280519060200120905060006124388288888861382d565b6001600160a01b0381166000908152600e60205260409020805460018101909155909150891461247a5760405162461bcd60e51b815260040161077a9061522e565b8742111561249a5760405162461bcd60e51b815260040161077a9061520e565b6124a4818b61346e565b505050505b505050505050565b607a5460ff1681565b60066020526000908152604090205481565b6001600160a01b031660009081526008602052604090205490565b6000546001600160a01b031633146125115760405162461bcd60e51b815260040161077a9061535e565b6001600160a01b0383166125375760405162461bcd60e51b815260040161077a9061521e565b6001600160a01b03821661255d5760405162461bcd60e51b815260040161077a906152be565b6125678282612a2e565b6016546017546018546040516001600160a01b03808816948116937f8def9436d6e31b89ed00948ba91d0cb6936eada5154cb1b45b55683fb9e49237936125b69391909216918891889061501a565b60405180910390a3601680546001600160a01b039485166001600160a01b0319918216179091556017805493909416921691909117909155601855565b6003546001600160a01b031681565b600061262d607a60029054906101000a90048015613f5c021767ffffffffffffffff1663ffffffff16565b905090565b6301e1338081565b60405161101c90614f37565b60185481565b601060209081526000928352604080842090915290825290205463ffffffff811690600160201b90046001600160601b031682565b6312cc030081565b6000546001600160a01b031681565b6126b96040518060600160405280602c8152602001615711602c913961298c565b6126c2856134fd565b6126cb836134fd565b6004546001600160a01b03166126f35760405162461bcd60e51b815260040161077a9061519e565b600084116127135760405162461bcd60e51b815260040161077a9061539e565b61271c8561370f565b6001600160a01b0385166000908152600860205260408120805490915b8181101561279757856001600160a01b031683828154811061275757fe5b60009182526020909120600590910201546001600160a01b0316141561278f5760405162461bcd60e51b815260040161077a9061531e565b600101612739565b506001600160a01b03851660009081526014602052604090205460ff16156127d15760405162461bcd60e51b815260040161077a9061528e565b6001600160a01b0387166000908152600960205260409020546127fa908763ffffffff612f3016565b6001600160a01b038089166000908152600960209081526040808320949094556006815290839020879055825160a0810184529188168252810188905283918101612843612602565b8152600060208083018290526040928301889052845460018082018755958352818320855160059092020180546001600160a01b0319166001600160a01b039283161781558583015181880155858501516002820155606086015160038201556080909501516004958601558a81168352601490915290829020805460ff1916851790558254915163fb66fb4d60e01b815291169263fb66fb4d926128eb928c92910161504f565b600060405180830381600087803b15801561290557600080fd5b505af1158015612919573d6000803e3d6000fd5b50505050846001600160a01b03166001838054905003886001600160a01b03167fd7fa4bff1cd2253c0789c3291a786a6f6b1a3b4569a75af683a15d52abb6a0bf89888860405161296c93929190615437565b60405180910390a450505050505050565b6016546001600160a01b031681565b6047546040516318c5e8ab60e01b81526000916001600160a01b0316906318c5e8ab906129bf9033908690600401614f5e565b60206040518083038186803b1580156129d757600080fd5b505afa1580156129eb573d6000803e3d6000fd5b505050506040513d601f19601f82011682018060405250612a0f9190810190614255565b905080611a9c5760405162461bcd60e51b815260040161077a906151de565b6001600160a01b0382166000908152600860205260409020548110611a9c5760405162461bcd60e51b815260040161077a9061518e565b6001600160a01b0382166000908152600860205260408120805483908110612a8957fe5b906000526020600020906005020190508060020154612aa6612602565b11612ab15750611a9c565b80546040516370a0823160e01b81526000916001600160a01b0316906370a0823190612ae1903090600401614f42565b60206040518083038186803b158015612af957600080fd5b505afa158015612b0d573d6000803e3d6000fd5b505050506040513d601f19601f82011682018060405250612b3191908101906142d1565b6001600160a01b0385166000908152601260209081526040808320878452909152902054909150612b6990829063ffffffff6136ab16565b905080612b8757612b78612602565b82600201819055505050611a9c565b6000612b91612602565b90506000612bac8460020154836136ab90919063ffffffff16565b6001600160a01b03871660009081526009602090815260408083205460018901546006909352908320549394509192612bf5929161165b91611f6090879063ffffffff61362f16565b9050612c24612c138561165b8464e8d4a5100063ffffffff61362f16565b60038701549063ffffffff612f3016565b6003860155612c31612602565b856002018190555050505050505050565b60006107f983600101546116678585612f72565b600480546040516370a0823160e01b81526001600160a01b03918216926000928716916370a0823191612c8b91869101614f42565b60206040518083038186803b158015612ca357600080fd5b505afa158015612cb7573d6000803e3d6000fd5b505050506040513d601f19601f82011682018060405250612cdb91908101906142d1565b6001600160a01b038087166000908152601560209081526040808320938916835292905290812054919250612d16858363ffffffff612f3016565b9050828111612df4578115612d89576001600160a01b038088166000818152601560209081526040808320948b1680845294909152808220829055517f6bdfd5e51d01475945224d3d37965916fd8df699ef9e8888af4359aa8622216091612d809187919061540e565b60405180910390a35b60405163135b33cd60e31b81526001600160a01b03851690639ad99e6890612db9908a908a908690600401614fff565b600060405180830381600087803b158015612dd357600080fd5b505af1158015612de7573d6000803e3d6000fd5b5050505050505050612eca565b6001600160a01b038088166000818152601560209081526040808320948b168084529490915290819020868503908190559051909291907f6bdfd5e51d01475945224d3d37965916fd8df699ef9e8888af4359aa8622216090612e5a9087908690615429565b60405180910390a360405163135b33cd60e31b81526001600160a01b03861690639ad99e6890612e92908b908b908990600401614fff565b600060405180830381600087803b158015612eac57600080fd5b505af1158015612ec0573d6000803e3d6000fd5b5050505050505050505b505050565b604051612f2a9085906323b872dd60e01b90612ef390879087908790602401614fff565b60408051601f198184030181529190526020810180516001600160e01b03166001600160e01b031990931692909217909152613857565b50505050565b60006107f983836040518060400160405280601b81526020017f536166654d6174683a206164646974696f6e206f766572666c6f77000000000081525061393c565b60006107f964e8d4a5100061165b8460030154611f60876002015488600001546136ab90919063ffffffff16565b600081600160601b8410612fc75760405162461bcd60e51b815260040161077a919061515d565b509192915050565b816001600160a01b0316836001600160a01b031614158015612ffa57506000816001600160601b0316115b15612eca576001600160a01b038316156130b2576001600160a01b03831660009081526011602052604081205463ffffffff16908161303a576000613079565b6001600160a01b0385166000908152601060209081526040808320600019860163ffffffff168452909152902054600160201b90046001600160601b03165b905060006130a082856040518060600160405280602c81526020016156b5602c913961396c565b90506130ae868484846139ab565b5050505b6001600160a01b03821615612eca576001600160a01b03821660009081526011602052604081205463ffffffff1690816130ed57600061312c565b6001600160a01b0384166000908152601060209081526040808320600019860163ffffffff168452909152902054600160201b90046001600160601b03165b9050600061315382856040518060600160405280602b81526020016155a1602b9139613b67565b90506124a9858484846139ab565b805460009081905b80156131ff5783600182038154811061317e57fe5b6000918252602090912060016002909202018101546001600160801b03600160801b9091041614156131e1576131da8460018303815481106131bc57fe5b6000918252602090912060029091020154839063ffffffff612f3016565b91506131f6565b6131f384600183038154811061127657fe5b92505b60001901613169565b50915091565b8254604080516060810182526000808252602080830182815260019484018581528587018a5589845291909220925160028602909301928355905191909201805492516001600160801b03908116600160801b029281166001600160801b0319909416939093179092161790555b6000811180156132ae57508184600183038154811061328e57fe5b60009182526020909120600160029092020101546001600160801b031611155b15613335578360018203815481106132c257fe5b90600052602060002090600202018482815481106132dc57fe5b600091825260209091208254600290920201908155600191820180549290910180546001600160801b0319166001600160801b03938416178082559154600160801b908190048416029190921617905560001901613273565b604051806060016040528084815260200161334f84613b9a565b6001600160801b0316815260200160016001600160801b031681525084828154811061337757fe5b60009182526020918290208351600292830290910190815591830151600190920180546040909401516001600160801b03199094166001600160801b03938416178316600160801b93909416929092029290921790558501546133da9084612f30565b85600201819055505050505050565b6001600160a01b03811661340f5760405162461bcd60e51b815260040161077a9061526e565b604780546001600160a01b038381166001600160a01b03198316179092556040519116907f66fd58e82f7b31a2a5c30e0888f3093efe4e111b00cd2b0c31fe014601293aa0906134629083908590614f7e565b60405180910390a15050565b6001600160a01b038083166000908152600f60205260408120549091169061349584613bc3565b6001600160a01b038581166000818152600f602052604080822080546001600160a01b031916898616908117909155905194955093928616927f0cc323ffec3ea49cbcddc0de1480978126d350c6a45dff33ad2f1cda6ae992619190a4612f2a828483612fcf565b6001600160a01b038116610edc5760405162461bcd60e51b815260040161077a906152ce565b60010154426001600160801b03909116111590565b805460009081905b60008111801561355d575061355d84600183038154811061124c57fe5b156135fe5783600182038154811061357157fe5b6000918252602090912060016002909202018101546001600160801b03600160801b9091041614156135b6576135af8460018303815481106131bc57fe5b91506135cb565b6135c884600183038154811061127657fe5b92505b838054806135d557fe5b600082815260208120600019928301600281029091018281556001019190915590915501613540565b50613623613612828463ffffffff612f3016565b60028601549063ffffffff6136ab16565b60028501559250929050565b60008261363e575060006114d9565b8282028284828161364b57fe5b04146107f95760405162461bcd60e51b815260040161077a9061530e565b60006107f983836040518060400160405280601a81526020017f536166654d6174683a206469766973696f6e206279207a65726f000000000000815250613cd9565b60006107f983836040518060400160405280601e81526020017f536166654d6174683a207375627472616374696f6e206f766572666c6f770000815250613d10565b604051612eca90849063a9059cbb60e01b90612ef3908690869060240161506a565b6001600160a01b038116600090815260086020526040812054905b81811015612eca5761373c8382612a65565b60010161372a565b607a54610100900460ff161561376c5760405162461bcd60e51b815260040161077a906153ae565b81158015613778575080155b156137955760405162461bcd60e51b815260040161077a9061532e565b8180156137a157508015155b156137be5760405162461bcd60e51b815260040161077a9061524e565b607a805460ff1916831515179055816137d757806137dd565b6301e133805b607955816137ed57613d346137f1565b613d385b607a805461ff001967ffffffffffffffff93909316620100000269ffffffffffffffff00001990911617919091166101001790555050565b4690565b600080600061383e87878787613d3c565b9150915061384b81613e1c565b5090505b949350505050565b613869826001600160a01b0316613ee5565b6138855760405162461bcd60e51b815260040161077a906153ce565b60006060836001600160a01b0316836040516138a19190614eef565b6000604051808303816000865af19150503d80600081146138de576040519150601f19603f3d011682016040523d82523d6000602084013e6138e3565b606091505b5091509150816139055760405162461bcd60e51b815260040161077a906153be565b805115612f2a57808060200190516139209190810190614255565b612f2a5760405162461bcd60e51b815260040161077a906151fe565b600083830182858210156139635760405162461bcd60e51b815260040161077a919061515d565b50949350505050565b6000836001600160601b0316836001600160601b0316111582906139a35760405162461bcd60e51b815260040161077a919061515d565b505050900390565b60006139d66139b8612602565b60405180608001604052806042815260200161564060429139613f1e565b905060008463ffffffff16118015613a1f57506001600160a01b038516600090815260106020908152604080832063ffffffff6000198901811685529252909120548282169116145b15613a7e576001600160a01b0385166000908152601060209081526040808320600019880163ffffffff168452909152902080546fffffffffffffffffffffffff000000001916600160201b6001600160601b03851602179055613b1d565b60408051808201825263ffffffff80841682526001600160601b0380861660208085019182526001600160a01b038b166000818152601083528781208c871682528352878120965187549451909516600160201b026fffffffffffffffffffffffff000000001995871663ffffffff19958616179590951694909417909555938252601190935292909220805460018801909316929091169190911790555b846001600160a01b03167f6adb589fed1e8542fb7a6b10f00a85e02265e77f9ae3ca8ff93b22983e1af9a08484604051613b58929190615489565b60405180910390a25050505050565b6000838301826001600160601b0380871690831610156139635760405162461bcd60e51b815260040161077a919061515d565b6000600160801b8210613bbf5760405162461bcd60e51b815260040161077a9061523e565b5090565b6005546000906001600160a01b0316613bee5760405162461bcd60e51b815260040161077a906151ee565b6005546001600160a01b03166000908152600860205260408120805490915b81811015613cce5760055483546001600160a01b0390911690849083908110613c3257fe5b60009182526020909120600590910201546001600160a01b03161415613cc6576005546001600160a01b039081166000908152600760209081526040808320858452825280832093891683529290522060028101548154613cbb91613c9d919063ffffffff6136ab16565b6040518060600160405280602881526020016155f760289139612fa0565b94505050505061105f565b600101613c0d565b506000949350505050565b60008183613cfa5760405162461bcd60e51b815260040161077a919061515d565b506000838581613d0657fe5b0495945050505050565b600081848411156139a35760405162461bcd60e51b815260040161077a919061515d565b4390565b4290565b6000807f7fffffffffffffffffffffffffffffff5d576e7357a4501ddfe92f46681b20a0831115613d735750600090506003613e13565b8460ff16601b14158015613d8b57508460ff16601c14155b15613d9c5750600090506004613e13565b600060018787878760405160008152602001604052604051613dc194939291906150e8565b6020604051602081039080840390855afa158015613de3573d6000803e3d6000fd5b5050604051601f1901519150506001600160a01b038116613e0c57506000915060019050613e13565b9150600090505b94509492505050565b6000816004811115613e2a57fe5b1415613e3557610edc565b6001816004811115613e4357fe5b1415613e615760405162461bcd60e51b815260040161077a9061516e565b6002816004811115613e6f57fe5b1415613e8d5760405162461bcd60e51b815260040161077a906151ae565b6003816004811115613e9b57fe5b1415613eb95760405162461bcd60e51b815260040161077a9061527e565b6004816004811115613ec757fe5b1415610edc5760405162461bcd60e51b815260040161077a906152ee565b6000813f7fc5d2460186f7233c927e7db2dcc703c0e500b653ca82273b7bfad8045d85a47081811480159061384f575050151592915050565b600081600160201b8410612fc75760405162461bcd60e51b815260040161077a919061515d565b604080518082019091526000808252602082015290565bfe5b80356114d98161555f565b80516114d98161555f565b80356114d981615573565b80516114d981615573565b80356114d98161557c565b80356114d981615585565b80516114d98161557c565b80356114d98161558e565b80356114d981615597565b600060208284031215613fd357600080fd5b600061384f8484613f5e565b600060208284031215613ff157600080fd5b600061384f8484613f69565b6000806040838503121561401057600080fd5b600061401c8585613f5e565b925050602061402d85828601613f5e565b9150509250929050565b60008060006060848603121561404c57600080fd5b60006140588686613f5e565b935050602061406986828701613f5e565b925050604061407a86828701613f8a565b9150509250925092565b6000806040838503121561409757600080fd5b60006140a38585613f5e565b925050602061402d85828601613f8a565b6000806000606084860312156140c957600080fd5b60006140d58686613f5e565b93505060206140e686828701613f8a565b925050604061407a86828701613f5e565b600080600080600060a0868803121561410f57600080fd5b600061411b8888613f5e565b955050602061412c88828901613f8a565b945050604061413d88828901613f95565b935050606061414e88828901613f8a565b925050608061415f88828901613f8a565b9150509295509295909350565b60008060006060848603121561418157600080fd5b600061418d8686613f5e565b935050602061406986828701613f8a565b60008060008060008060c087890312156141b757600080fd5b60006141c38989613f5e565b96505060206141d489828a01613f8a565b95505060406141e589828a01613f8a565b94505060606141f689828a01613fb6565b935050608061420789828a01613f8a565b92505060a061421889828a01613f8a565b9150509295509295509295565b6000806040838503121561423857600080fd5b60006142448585613f5e565b925050602061402d85828601613fab565b60006020828403121561426757600080fd5b600061384f8484613f7f565b6000806040838503121561428657600080fd5b60006140a38585613f74565b6000806000606084860312156142a757600080fd5b60006140588686613f95565b6000602082840312156142c557600080fd5b600061384f8484613f95565b6000602082840312156142e357600080fd5b600061384f8484613fa0565b60006142fb8383614e8f565b505060600190565b61430c81615508565b82525050565b61430c816154b7565b6000614326826154aa565b61433081856154ae565b935061433b836154a4565b8060005b8381101561436957815161435388826142ef565b975061435e836154a4565b92505060010161433f565b509495945050505050565b61430c816154c2565b61430c816154c7565b61430c614392826154c7565b6154c7565b60006143a2826154aa565b6143ac818561105f565b93506143bc818560208601615529565b9290920192915050565b61430c816154ca565b61430c81615513565b60006143e3826154aa565b6143ed81856154ae565b93506143fd818560208601615529565b61440681615555565b9093019392505050565b600061441d6018836154ae565b7f45434453413a20696e76616c6964207369676e61747572650000000000000000815260200192915050565b60006144566012836154ae565b71696e636f6e73697374656e7420737461746560701b815260200192915050565b60006144846013836154ae565b727661756c743a20706f6f6c206578697374733f60681b815260200192915050565b60006144b3601f836154ae565b7f53746f726520636f6e7472616374206164647265737320697320656d70747900815260200192915050565b60006144ec601f836154ae565b7f45434453413a20696e76616c6964207369676e6174757265206c656e67746800815260200192915050565b6000614525600f836154ae565b6e15985d5b1d081a5cc81c185d5cd959608a1b815260200192915050565b60006145506013836154ae565b7215985d5b1d081a5cc81b9bdd081c185d5cd959606a1b815260200192915050565b600061457f600c836154ae565b6b155b985d5d1a1bdc9a5e995960a21b815260200192915050565b60006145a76030836154ae565b7f5856535661756c743a3a6765745374616b65416d6f756e743a2078767320616481526f191c995cdcc81a5cc81b9bdd081cd95d60821b602082015260400192915050565b60006145f9602a836154ae565b7f5361666542455032303a204245503230206f7065726174696f6e20646964206e8152691bdd081cdd58d8d9595960b21b602082015260400192915050565b6000614645602a836154ae565b7f5856535661756c743a3a64656c656761746542795369673a207369676e6174758152691c9948195e1c1a5c995960b21b602082015260400192915050565b60006146916022836154ae565b7f7072696d6520746f6b656e2063616e6e6f74206265207a65726f206164647265815261737360f01b602082015260400192915050565b60006146d56026836154ae565b7f5856535661756c743a3a64656c656761746542795369673a20696e76616c6964815265206e6f6e636560d01b602082015260400192915050565b600061471d60028361105f565b61190160f01b815260020192915050565b600061473b6027836154ae565b7f53616665436173743a2076616c756520646f65736e27742066697420696e20318152663238206269747360c81b602082015260400192915050565b60006147846020836154ae565b7f496e76616c69642074696d6520626173656420636f6e66696775726174696f6e815260200192915050565b60006147bd6017836154ae565b7f5661756c7420697320616c726561647920706175736564000000000000000000815260200192915050565b60006147f66025836154ae565b7f696e76616c696420616365737320636f6e74726f6c206d616e61676572206164815264647265737360d81b602082015260400192915050565b600061483d6022836154ae565b7f45434453413a20696e76616c6964207369676e6174757265202773272076616c815261756560f01b602082015260400192915050565b6000614881601a836154ae565b7f546f6b656e2065786973747320696e206f7468657220706f6f6c000000000000815260200192915050565b60006148ba6013836154ae565b72185b1c9958591e481a5b9a5d1a585b1a5e9959606a1b815260200192915050565b60006148e9602b836154ae565b7f5856535661756c743a3a6765745072696f72566f7465733a206e6f742079657481526a0819195d195c9b5a5b995960aa1b602082015260400192915050565b6000614936601d836154ae565b7f7265776172642063616e6e6f74206265207a65726f2061646472657373000000815260200192915050565b600061496f6018836154ae565b7f7a65726f2061646472657373206e6f7420616c6c6f7765640000000000000000815260200192915050565b60006149a8601a836154ae565b7f657865637574652070656e64696e67207769746864726177616c000000000000815260200192915050565b60006149e16022836154ae565b7f45434453413a20696e76616c6964207369676e6174757265202776272076616c815261756560f01b602082015260400192915050565b6000614a2560438361105f565b7f454950373132446f6d61696e28737472696e67206e616d652c75696e7432353681527f20636861696e49642c6164647265737320766572696679696e67436f6e74726160208201526263742960e81b604082015260430192915050565b6000614a90601f836154ae565b7f72657175657374656420616d6f756e742063616e6e6f74206265207a65726f00815260200192915050565b6000614ac96021836154ae565b7f536166654d6174683a206d756c7469706c69636174696f6e206f766572666c6f8152607760f81b602082015260400192915050565b6000614b0c6012836154ae565b71141bdbdb08185b1c9958591e48185919195960721b815260200192915050565b6000614b3a6017836154ae565b7f496e76616c696420626c6f636b73207065722079656172000000000000000000815260200192915050565b6000614b73600a836154ae565b691c994b595b9d195c995960b21b815260200192915050565b6000614b996014836154ae565b7324b73b30b634b2103932bbb0b932103a37b5b2b760611b815260200192915050565b6000614bc9600e836154ae565b6d37b7363c9030b236b4b71031b0b760911b815260200192915050565b6000614bf36015836154ae565b7418da185b99d9481b9bdd08185d5d1a1bdc9a5e9959605a1b815260200192915050565b6000614c246013836154ae565b726e6f7468696e6720746f20776974686472617760681b815260200192915050565b6000614c53601a836154ae565b7f496e76616c6964206e6577206c6f636b696e6720706572696f64000000000000815260200192915050565b6000614c8c601d836154ae565b7f416c6c6f6320706f696e7473206d757374206e6f74206265207a65726f000000815260200192915050565b6000614cc5601f836154ae565b7f416c726561647920696e697469616c697a65642054696d654d616e6167657200815260200192915050565b6000614cfe6020836154ae565b7f5361666542455032303a206c6f772d6c6576656c2063616c6c206661696c6564815260200192915050565b6000614d37603a8361105f565b7f44656c65676174696f6e28616464726573732064656c6567617465652c75696e81527f74323536206e6f6e63652c75696e7432353620657870697279290000000000006020820152603a0192915050565b6000614d96601f836154ae565b7f5361666542455032303a2063616c6c20746f206e6f6e2d636f6e747261637400815260200192915050565b6000614dcf601b836154ae565b7f72657175657374656420616d6f756e7420697320696e76616c69640000000000815260200192915050565b6000614e086022836154ae565b7f6f6e6c792070726f78792061646d696e2063616e206368616e676520627261698152616e7360f01b602082015260400192915050565b6000614e4c602e836154ae565b7f416c6c6f6320706f696e7473207065722072657761726420746f6b656e206d7581526d7374206e6f74206265207a65726f60901b602082015260400192915050565b80516060830190614ea0848261437d565b506020820151614eb36020850182614ec2565b506040820151612f2a60408501825b61430c816154d5565b61430c816154ed565b61430c816154f6565b61430c8161551e565b61430c816154fc565b60006107f98284614397565b6000614f0682614710565b9150614f128285614386565b602082019150614f228284614386565b5060200192915050565b60006114d982614a18565b60006114d982614d2a565b602081016114d98284614312565b602081016114d98284614303565b60408101614f6c8285614303565b818103602083015261384f81846143d8565b60408101614f8c8285614312565b6107f96020830184614312565b60608101614fa78286614312565b614fb46020830185614303565b61384f604083018461437d565b60808101614fcf8287614312565b614fdc6020830186614312565b614fe96040830185614312565b614ff66060830184614312565b95945050505050565b6060810161500d8286614312565b614fb46020830185614312565b608081016150288287614312565b6150356020830186614312565b615042604083018561437d565b614ff6606083018461437d565b6040810161505d8285614312565b6107f96020830184614374565b604081016150788285614312565b6107f9602083018461437d565b602080825281016107f9818461431b565b602081016114d98284614374565b602081016114d9828461437d565b60808101615028828761437d565b608081016150ce828761437d565b6150db602083018661437d565b614fe9604083018561437d565b608081016150f6828761437d565b6150356020830186614ed4565b602081016114d982846143c6565b60a0810161511f82886143c6565b61512c602083018761437d565b615139604083018661437d565b615146606083018561437d565b615153608083018461437d565b9695505050505050565b602080825281016107f981846143d8565b602080825281016114d981614410565b602080825281016114d981614449565b602080825281016114d981614477565b602080825281016114d9816144a6565b602080825281016114d9816144df565b602080825281016114d981614518565b602080825281016114d981614543565b602080825281016114d981614572565b602080825281016114d98161459a565b602080825281016114d9816145ec565b602080825281016114d981614638565b602080825281016114d981614684565b602080825281016114d9816146c8565b602080825281016114d98161472e565b602080825281016114d981614777565b602080825281016114d9816147b0565b602080825281016114d9816147e9565b602080825281016114d981614830565b602080825281016114d981614874565b602080825281016114d9816148ad565b602080825281016114d9816148dc565b602080825281016114d981614929565b602080825281016114d981614962565b602080825281016114d98161499b565b602080825281016114d9816149d4565b602080825281016114d981614a83565b602080825281016114d981614abc565b602080825281016114d981614aff565b602080825281016114d981614b2d565b602080825281016114d981614b66565b602080825281016114d981614b8c565b602080825281016114d981614bbc565b602080825281016114d981614be6565b602080825281016114d981614c17565b602080825281016114d981614c46565b602080825281016114d981614c7f565b602080825281016114d981614cb8565b602080825281016114d981614cf1565b602080825281016114d981614d89565b602080825281016114d981614dc2565b602080825281016114d981614dfb565b602080825281016114d981614e3f565b6040810161541c828561437d565b6107f960208301846143cf565b60408101615078828561437d565b60608101615445828661437d565b614fb4602083018561437d565b602081016114d98284614ecb565b6040810161546e8285614ecb565b6107f96020830184614ee6565b602081016114d98284614ee6565b604081016154978285614edd565b6107f96020830184614edd565b60200190565b5190565b90815260200190565b60006114d9826154e1565b151590565b90565b60006114d9826154b7565b6001600160801b031690565b6001600160a01b031690565b63ffffffff1690565b60ff1690565b6001600160601b031690565b60006114d9826154ca565b60006114d9826154c7565b60006114d9826154fc565b60005b8381101561554457818101518382015260200161552c565b83811115612f2a5750506000910152565b601f01601f191690565b615568816154b7565b8114610edc57600080fd5b615568816154c2565b615568816154c7565b615568816154ca565b615568816154ed565b615568816154f656fe5856535661756c743a3a5f6d6f7665566f7465733a20766f746520616d6f756e74206f766572666c6f77735856535661756c743a3a726571756573745769746864726177616c3a20766f746573206f766572666c6f775856535661756c743a3a6765745374616b65416d6f756e743a20766f746573206f766572666c6f775856535661756c743a3a6465706f7369743a20766f746573206f766572666c6f775856535661756c743a3a5f7772697465436865636b706f696e743a20626c6f636b206e756d626572206f72207365636f6e64206578636565647320333220626974737365745769746864726177616c4c6f636b696e67506572696f6428616464726573732c75696e743235362c75696e74323536295856535661756c743a3a5f6d6f7665566f7465733a20766f746520616d6f756e7420756e646572666c6f7773736574526577617264416d6f756e74506572426c6f636b4f725365636f6e6428616464726573732c75696e743235362961646428616464726573732c75696e743235362c616464726573732c75696e743235362c75696e7432353629a365627a7a7231582019aec9a8c5e034dd07b909454719637ff79c93e6e7d0d300c9ef3b175e8e429b6c6578706572696d656e74616cf564736f6c63430005100040",
  "devdoc": {
    "author": "Venus",
    "methods": {
      "add(address,uint256,address,uint256,uint256)": {
        "details": "This vault DOES NOT support deflationary tokens  it expects that  the amount of transferred tokens would equal the actually deposited  amount. In practice this means that this vault DOES NOT support USDT  and similar tokens (that do not provide these guarantees).",
        "params": {
          "_allocPoint": "Number of allocation points assigned to this pool",
          "_lockPeriod": "A period between withdrawal request and a moment when it's executable",
          "_rewardPerBlockOrSecond": "Initial reward per block or second, in terms of _rewardToken",
          "_rewardToken": "Reward token address",
          "_token": "Staked token"
        }
      },
      "claim(address,address,uint256)": {
        "params": {
          "_account": "The account for which to claim rewards",
          "_pid": "The Pool Index",
          "_rewardToken": "The Reward Token Address"
        }
      },
      "delegate(address)": {
        "params": {
          "delegatee": "The address to delegate votes to"
        }
      },
      "delegateBySig(address,uint256,uint256,uint8,bytes32,bytes32)": {
        "params": {
          "delegatee": "The address to delegate votes to",
          "expiry": "The time at which to expire the signature",
          "nonce": "The contract state required to match the signature",
          "r": "Half of the ECDSA signature pair",
          "s": "Half of the ECDSA signature pair",
          "v": "The recovery byte of the signature"
        }
      },
      "deposit(address,uint256,uint256)": {
        "params": {
          "_amount": "The amount to deposit to vault",
          "_pid": "The Pool Index",
          "_rewardToken": "The Reward Token Address"
        }
      },
      "executeWithdrawal(address,uint256)": {
        "params": {
          "_pid": "The Pool Index",
          "_rewardToken": "The Reward Token Address"
        }
      },
      "getBlockNumberOrTimestamp()": {
        "details": "Function to simply retrieve block number or block timestamp",
        "return": "Current block number or block timestamp"
      },
      "getCurrentVotes(address)": {
        "params": {
          "account": "The address to get votes balance"
        },
        "return": "The number of current votes for `account`"
      },
      "getEligibleWithdrawalAmount(address,uint256,address)": {
        "params": {
          "_pid": "The Pool Index",
          "_rewardToken": "The Reward Token Address",
          "_user": "The User Address"
        },
        "return": "withdrawalAmount Amount that the user can withdraw"
      },
      "getPriorVotes(address,uint256)": {
        "params": {
          "account": "The address of the account to check",
          "blockNumberOrSecond": "The block number or second to get the vote balance at"
        },
        "return": "The balance that user staked"
      },
      "getRequestedAmount(address,uint256,address)": {
        "params": {
          "_pid": "The Pool Index",
          "_rewardToken": "The Reward Token Address",
          "_user": "The User Address"
        },
        "return": "Total amount of requested but not yet executed withdrawals (including both executable and locked ones)"
      },
      "getUserInfo(address,uint256,address)": {
        "params": {
          "_pid": "Pool index",
          "_rewardToken": "Reward token address",
          "_user": "User address"
        },
        "return": "amount Deposited amountrewardDebt Reward debt (technical value used to track past payouts)pendingWithdrawals Requested but not yet executed withdrawals"
      },
      "getWithdrawalRequests(address,uint256,address)": {
        "params": {
          "_pid": "The Pool Index",
          "_rewardToken": "The Reward Token Address",
          "_user": "The User Address"
        },
        "return": "An array of withdrawal requests"
      },
      "initializeTimeManager(bool,uint256)": {
        "details": "Initializes the contract to use either blocks or seconds",
        "params": {
          "blocksPerYear_": "The number of blocks per year",
          "timeBased_": "A boolean indicating whether the contract is based on time or block If timeBased is true than blocksPerYear_ param is ignored as blocksOrSecondsPerYear is set to SECONDS_PER_YEAR"
        }
      },
      "pendingReward(address,uint256,address)": {
        "params": {
          "_pid": "Pool index",
          "_rewardToken": "Reward token address",
          "_user": "User address"
        },
        "return": "Reward the user is eligible for in this pool, in terms of _rewardToken"
      },
      "pendingWithdrawalsBeforeUpgrade(address,uint256,address)": {
        "params": {
          "_pid": "The Pool Index",
          "_rewardToken": "The Reward Token Address",
          "_user": "The address of the user"
        },
        "return": "beforeUpgradeWithdrawalAmount Total pending withdrawal amount in requests made before the vault upgrade"
      },
      "poolLength(address)": {
        "params": {
          "rewardToken": "Reward token address"
        },
        "return": "Number of pools that distribute the specified token as a reward"
      },
      "requestWithdrawal(address,uint256,uint256)": {
        "params": {
          "_amount": "The amount to withdraw from the vault",
          "_pid": "The Pool Index",
          "_rewardToken": "The Reward Token Address"
        }
      },
      "rewardTokenAmountsPerBlock(address)": {
        "params": {
          "_rewardToken": "Reward token address"
        },
        "return": "Number of reward tokens created per block or second"
      },
      "set(address,uint256,uint256)": {
        "params": {
          "_allocPoint": "Number of allocation points assigned to this pool",
          "_pid": "Pool index",
          "_rewardToken": "Reward token address"
        }
      },
      "setAccessControl(address)": {
        "details": "Admin function to set the access control address",
        "params": {
          "newAccessControlAddress": "New address for the access control"
        }
      },
      "setPrimeToken(address,address,uint256)": {
        "params": {
          "_primePoolId": "pool id for reward",
          "_primeRewardToken": "address of reward token",
          "_primeToken": "address of the prime token contract"
        }
      },
      "setRewardAmountPerBlockOrSecond(address,uint256)": {
        "params": {
          "_rewardAmount": "Number of allocation points assigned to this pool",
          "_rewardToken": "Reward token address"
        }
      },
      "setWithdrawalLockingPeriod(address,uint256,uint256)": {
        "params": {
          "_newPeriod": "New lock period",
          "_pid": "Pool index",
          "_rewardToken": "Reward token address"
        }
      },
      "updatePool(address,uint256)": {
        "params": {
          "_pid": "Pool index",
          "_rewardToken": "Reward token address"
        }
      }
    },
    "title": "XVS Vault"
  },
  "userdoc": {
    "methods": {
      "_become(address)": {
        "notice": "* Admin Functions **"
      },
      "accessControlManager()": {
        "notice": "Returns the address of the access control manager contract"
      },
      "add(address,uint256,address,uint256,uint256)": {
        "notice": "Add a new token pool"
      },
      "claim(address,address,uint256)": {
        "notice": "Claim rewards for pool"
      },
      "constructor": "XVSVault constructor",
      "delegate(address)": {
        "notice": "Delegate votes from `msg.sender` to `delegatee`"
      },
      "delegateBySig(address,uint256,uint256,uint8,bytes32,bytes32)": {
        "notice": "Delegates votes from signatory to `delegatee`"
      },
      "deposit(address,uint256,uint256)": {
        "notice": "Deposit XVSVault for XVS allocation"
      },
      "executeWithdrawal(address,uint256)": {
        "notice": "Execute withdrawal to XVSVault for XVS allocation"
      },
      "getCurrentVotes(address)": {
        "notice": "Gets the current votes balance for `account`"
      },
      "getEligibleWithdrawalAmount(address,uint256,address)": {
        "notice": "Get unlocked withdrawal amount"
      },
      "getPriorVotes(address,uint256)": {
        "notice": "Determine the xvs stake balance for an account"
      },
      "getRequestedAmount(address,uint256,address)": {
        "notice": "Get requested amount"
      },
      "getUserInfo(address,uint256,address)": {
        "notice": "Get user info with reward token address and pid"
      },
      "getWithdrawalRequests(address,uint256,address)": {
        "notice": "Returns the array of withdrawal requests that have not been executed yet"
      },
      "pause()": {
        "notice": "Pauses vault"
      },
      "pendingReward(address,uint256,address)": {
        "notice": "View function to see pending XVSs on frontend"
      },
      "pendingWithdrawalsBeforeUpgrade(address,uint256,address)": {
        "notice": "Gets the total pending withdrawal amount of a user before upgrade"
      },
      "poolLength(address)": {
        "notice": "Returns the number of pools with the specified reward token"
      },
      "requestWithdrawal(address,uint256,uint256)": {
        "notice": "Request withdrawal to XVSVault for XVS allocation"
      },
      "resume()": {
        "notice": "Resume vault"
      },
      "rewardTokenAmountsPerBlock(address)": {
        "notice": "Returns the number of reward tokens created per block or second"
      },
      "set(address,uint256,uint256)": {
        "notice": "Update the given pool's reward allocation point"
      },
      "setAccessControl(address)": {
        "notice": "Sets the address of the access control of this contract"
      },
      "setPrimeToken(address,address,uint256)": {
        "notice": "Sets the address of the prime token contract"
      },
      "setRewardAmountPerBlockOrSecond(address,uint256)": {
        "notice": "Update the given reward token's amount per block or second"
      },
      "setWithdrawalLockingPeriod(address,uint256,uint256)": {
        "notice": "Update the lock period after which a requested withdrawal can be executed"
      },
      "updatePool(address,uint256)": {
        "notice": "Update reward variables of the given pool to be up-to-date"
      }
    },
    "notice": "The XVS Vault allows XVS holders to lock their XVS to recieve voting rights in Venus governance and are rewarded with XVS."
  },
  "storageLayout": {
    "storage": [
      {
        "astId": 34670,
        "contract": "contracts/XVSVault/XVSVault.sol:XVSVault",
        "label": "admin",
        "offset": 0,
        "slot": "0",
        "type": "t_address"
      },
      {
        "astId": 34672,
        "contract": "contracts/XVSVault/XVSVault.sol:XVSVault",
        "label": "pendingAdmin",
        "offset": 0,
        "slot": "1",
        "type": "t_address"
      },
      {
        "astId": 34674,
        "contract": "contracts/XVSVault/XVSVault.sol:XVSVault",
        "label": "implementation",
        "offset": 0,
        "slot": "2",
        "type": "t_address"
      },
      {
        "astId": 34676,
        "contract": "contracts/XVSVault/XVSVault.sol:XVSVault",
        "label": "pendingXVSVaultImplementation",
        "offset": 0,
        "slot": "3",
        "type": "t_address"
      },
      {
        "astId": 34681,
        "contract": "contracts/XVSVault/XVSVault.sol:XVSVault",
        "label": "_notEntered",
        "offset": 20,
        "slot": "3",
        "type": "t_bool"
      },
      {
        "astId": 34683,
        "contract": "contracts/XVSVault/XVSVault.sol:XVSVault",
        "label": "xvsStore",
        "offset": 0,
        "slot": "4",
        "type": "t_address"
      },
      {
        "astId": 34685,
        "contract": "contracts/XVSVault/XVSVault.sol:XVSVault",
        "label": "xvsAddress",
        "offset": 0,
        "slot": "5",
        "type": "t_address"
      },
      {
        "astId": 34689,
        "contract": "contracts/XVSVault/XVSVault.sol:XVSVault",
        "label": "rewardTokenAmountsPerBlockOrSecond",
        "offset": 0,
        "slot": "6",
        "type": "t_mapping(t_address,t_uint256)"
      },
      {
        "astId": 34722,
        "contract": "contracts/XVSVault/XVSVault.sol:XVSVault",
        "label": "userInfos",
        "offset": 0,
        "slot": "7",
        "type": "t_mapping(t_address,t_mapping(t_uint256,t_mapping(t_address,t_struct(UserInfo)34696_storage)))"
      },
      {
        "astId": 34727,
        "contract": "contracts/XVSVault/XVSVault.sol:XVSVault",
        "label": "poolInfos",
        "offset": 0,
        "slot": "8",
        "type": "t_mapping(t_address,t_array(t_struct(PoolInfo)34707_storage)dyn_storage)"
      },
      {
        "astId": 34731,
        "contract": "contracts/XVSVault/XVSVault.sol:XVSVault",
        "label": "totalAllocPoints",
        "offset": 0,
        "slot": "9",
        "type": "t_mapping(t_address,t_uint256)"
      },
      {
        "astId": 34740,
        "contract": "contracts/XVSVault/XVSVault.sol:XVSVault",
        "label": "withdrawalRequests",
        "offset": 0,
        "slot": "10",
        "type": "t_mapping(t_address,t_mapping(t_uint256,t_mapping(t_address,t_array(t_struct(WithdrawalRequest)34714_storage)dyn_storage)))"
      },
      {
        "astId": 34744,
        "contract": "contracts/XVSVault/XVSVault.sol:XVSVault",
        "label": "__oldDelegatesSlot",
        "offset": 0,
        "slot": "11",
        "type": "t_mapping(t_address,t_address)"
      },
      {
        "astId": 34755,
        "contract": "contracts/XVSVault/XVSVault.sol:XVSVault",
        "label": "__oldCheckpointsSlot",
        "offset": 0,
        "slot": "12",
        "type": "t_mapping(t_address,t_mapping(t_uint32,t_struct(Checkpoint)34749_storage))"
      },
      {
        "astId": 34759,
        "contract": "contracts/XVSVault/XVSVault.sol:XVSVault",
        "label": "__oldNumCheckpointsSlot",
        "offset": 0,
        "slot": "13",
        "type": "t_mapping(t_address,t_uint32)"
      },
      {
        "astId": 34763,
        "contract": "contracts/XVSVault/XVSVault.sol:XVSVault",
        "label": "nonces",
        "offset": 0,
        "slot": "14",
        "type": "t_mapping(t_address,t_uint256)"
      },
      {
        "astId": 34780,
        "contract": "contracts/XVSVault/XVSVault.sol:XVSVault",
        "label": "delegates",
        "offset": 0,
        "slot": "15",
        "type": "t_mapping(t_address,t_address)"
      },
      {
        "astId": 34786,
        "contract": "contracts/XVSVault/XVSVault.sol:XVSVault",
        "label": "checkpoints",
        "offset": 0,
        "slot": "16",
        "type": "t_mapping(t_address,t_mapping(t_uint32,t_struct(Checkpoint)34749_storage))"
      },
      {
        "astId": 34790,
        "contract": "contracts/XVSVault/XVSVault.sol:XVSVault",
        "label": "numCheckpoints",
        "offset": 0,
        "slot": "17",
        "type": "t_mapping(t_address,t_uint32)"
      },
      {
        "astId": 34796,
        "contract": "contracts/XVSVault/XVSVault.sol:XVSVault",
        "label": "totalPendingWithdrawals",
        "offset": 0,
        "slot": "18",
        "type": "t_mapping(t_address,t_mapping(t_uint256,t_uint256))"
      },
      {
        "astId": 34798,
        "contract": "contracts/XVSVault/XVSVault.sol:XVSVault",
        "label": "vaultPaused",
        "offset": 0,
        "slot": "19",
        "type": "t_bool"
      },
      {
        "astId": 34802,
        "contract": "contracts/XVSVault/XVSVault.sol:XVSVault",
        "label": "isStakedToken",
        "offset": 0,
        "slot": "20",
        "type": "t_mapping(t_address,t_bool)"
      },
      {
        "astId": 34808,
        "contract": "contracts/XVSVault/XVSVault.sol:XVSVault",
        "label": "pendingRewardTransfers",
        "offset": 0,
        "slot": "21",
        "type": "t_mapping(t_address,t_mapping(t_address,t_uint256))"
      },
      {
        "astId": 34810,
        "contract": "contracts/XVSVault/XVSVault.sol:XVSVault",
        "label": "primeToken",
        "offset": 0,
        "slot": "22",
        "type": "t_contract(IPrime)12304"
      },
      {
        "astId": 34812,
        "contract": "contracts/XVSVault/XVSVault.sol:XVSVault",
        "label": "primeRewardToken",
        "offset": 0,
        "slot": "23",
        "type": "t_address"
      },
      {
        "astId": 34814,
        "contract": "contracts/XVSVault/XVSVault.sol:XVSVault",
        "label": "primePoolId",
        "offset": 0,
        "slot": "24",
        "type": "t_uint256"
      },
      {
        "astId": 34818,
        "contract": "contracts/XVSVault/XVSVault.sol:XVSVault",
        "label": "__gap",
        "offset": 0,
        "slot": "25",
        "type": "t_array(t_uint256)46_storage"
      },
      {
        "astId": 4,
        "contract": "contracts/XVSVault/XVSVault.sol:XVSVault",
        "label": "_accessControlManager",
        "offset": 0,
        "slot": "71",
        "type": "t_contract(IAccessControlManagerV5)1917"
      },
      {
        "astId": 8,
        "contract": "contracts/XVSVault/XVSVault.sol:XVSVault",
        "label": "__gap",
        "offset": 0,
        "slot": "72",
        "type": "t_array(t_uint256)49_storage"
      },
      {
        "astId": 1924,
        "contract": "contracts/XVSVault/XVSVault.sol:XVSVault",
        "label": "blocksOrSecondsPerYear",
        "offset": 0,
        "slot": "121",
        "type": "t_uint256"
      },
      {
        "astId": 1926,
        "contract": "contracts/XVSVault/XVSVault.sol:XVSVault",
        "label": "isTimeBased",
        "offset": 0,
        "slot": "122",
        "type": "t_bool"
      },
      {
        "astId": 1928,
        "contract": "contracts/XVSVault/XVSVault.sol:XVSVault",
        "label": "isInitialized",
        "offset": 1,
        "slot": "122",
        "type": "t_bool"
      },
      {
        "astId": 1934,
        "contract": "contracts/XVSVault/XVSVault.sol:XVSVault",
        "label": "_getCurrentSlot",
        "offset": 2,
        "slot": "122",
        "type": "t_function_internal_view()returns(t_uint256)"
      },
      {
        "astId": 1938,
        "contract": "contracts/XVSVault/XVSVault.sol:XVSVault",
        "label": "__gap",
        "offset": 0,
        "slot": "123",
        "type": "t_array(t_uint256)48_storage"
      }
    ],
    "types": {
      "t_address": {
        "encoding": "inplace",
        "label": "address",
        "numberOfBytes": "20"
      },
      "t_array(t_struct(PoolInfo)34707_storage)dyn_storage": {
        "base": "t_struct(PoolInfo)34707_storage",
        "encoding": "dynamic_array",
        "label": "struct XVSVaultStorageV1.PoolInfo[]",
        "numberOfBytes": "32"
      },
      "t_array(t_struct(WithdrawalRequest)34714_storage)dyn_storage": {
        "base": "t_struct(WithdrawalRequest)34714_storage",
        "encoding": "dynamic_array",
        "label": "struct XVSVaultStorageV1.WithdrawalRequest[]",
        "numberOfBytes": "32"
      },
      "t_array(t_uint256)46_storage": {
        "base": "t_uint256",
        "encoding": "inplace",
        "label": "uint256[46]",
        "numberOfBytes": "1472"
      },
      "t_array(t_uint256)48_storage": {
        "base": "t_uint256",
        "encoding": "inplace",
        "label": "uint256[48]",
        "numberOfBytes": "1536"
      },
      "t_array(t_uint256)49_storage": {
        "base": "t_uint256",
        "encoding": "inplace",
        "label": "uint256[49]",
        "numberOfBytes": "1568"
      },
      "t_bool": {
        "encoding": "inplace",
        "label": "bool",
        "numberOfBytes": "1"
      },
      "t_contract(IAccessControlManagerV5)1917": {
        "encoding": "inplace",
        "label": "contract IAccessControlManagerV5",
        "numberOfBytes": "20"
      },
      "t_contract(IBEP20)27962": {
        "encoding": "inplace",
        "label": "contract IBEP20",
        "numberOfBytes": "20"
      },
      "t_contract(IPrime)12304": {
        "encoding": "inplace",
        "label": "contract IPrime",
        "numberOfBytes": "20"
      },
      "t_function_internal_view()returns(t_uint256)": {
        "encoding": "inplace",
        "label": "function () view returns (uint256)",
        "numberOfBytes": "8"
      },
      "t_mapping(t_address,t_address)": {
        "encoding": "mapping",
        "key": "t_address",
        "label": "mapping(address => address)",
        "numberOfBytes": "32",
        "value": "t_address"
      },
      "t_mapping(t_address,t_array(t_struct(PoolInfo)34707_storage)dyn_storage)": {
        "encoding": "mapping",
        "key": "t_address",
        "label": "mapping(address => struct XVSVaultStorageV1.PoolInfo[])",
        "numberOfBytes": "32",
        "value": "t_array(t_struct(PoolInfo)34707_storage)dyn_storage"
      },
      "t_mapping(t_address,t_array(t_struct(WithdrawalRequest)34714_storage)dyn_storage)": {
        "encoding": "mapping",
        "key": "t_address",
        "label": "mapping(address => struct XVSVaultStorageV1.WithdrawalRequest[])",
        "numberOfBytes": "32",
        "value": "t_array(t_struct(WithdrawalRequest)34714_storage)dyn_storage"
      },
      "t_mapping(t_address,t_bool)": {
        "encoding": "mapping",
        "key": "t_address",
        "label": "mapping(address => bool)",
        "numberOfBytes": "32",
        "value": "t_bool"
      },
      "t_mapping(t_address,t_mapping(t_address,t_uint256))": {
        "encoding": "mapping",
        "key": "t_address",
        "label": "mapping(address => mapping(address => uint256))",
        "numberOfBytes": "32",
        "value": "t_mapping(t_address,t_uint256)"
      },
      "t_mapping(t_address,t_mapping(t_uint256,t_mapping(t_address,t_array(t_struct(WithdrawalRequest)34714_storage)dyn_storage)))": {
        "encoding": "mapping",
        "key": "t_address",
        "label": "mapping(address => mapping(uint256 => mapping(address => struct XVSVaultStorageV1.WithdrawalRequest[])))",
        "numberOfBytes": "32",
        "value": "t_mapping(t_uint256,t_mapping(t_address,t_array(t_struct(WithdrawalRequest)34714_storage)dyn_storage))"
      },
      "t_mapping(t_address,t_mapping(t_uint256,t_mapping(t_address,t_struct(UserInfo)34696_storage)))": {
        "encoding": "mapping",
        "key": "t_address",
        "label": "mapping(address => mapping(uint256 => mapping(address => struct XVSVaultStorageV1.UserInfo)))",
        "numberOfBytes": "32",
        "value": "t_mapping(t_uint256,t_mapping(t_address,t_struct(UserInfo)34696_storage))"
      },
      "t_mapping(t_address,t_mapping(t_uint256,t_uint256))": {
        "encoding": "mapping",
        "key": "t_address",
        "label": "mapping(address => mapping(uint256 => uint256))",
        "numberOfBytes": "32",
        "value": "t_mapping(t_uint256,t_uint256)"
      },
      "t_mapping(t_address,t_mapping(t_uint32,t_struct(Checkpoint)34749_storage))": {
        "encoding": "mapping",
        "key": "t_address",
        "label": "mapping(address => mapping(uint32 => struct XVSVaultStorageV1.Checkpoint))",
        "numberOfBytes": "32",
        "value": "t_mapping(t_uint32,t_struct(Checkpoint)34749_storage)"
      },
      "t_mapping(t_address,t_struct(UserInfo)34696_storage)": {
        "encoding": "mapping",
        "key": "t_address",
        "label": "mapping(address => struct XVSVaultStorageV1.UserInfo)",
        "numberOfBytes": "32",
        "value": "t_struct(UserInfo)34696_storage"
      },
      "t_mapping(t_address,t_uint256)": {
        "encoding": "mapping",
        "key": "t_address",
        "label": "mapping(address => uint256)",
        "numberOfBytes": "32",
        "value": "t_uint256"
      },
      "t_mapping(t_address,t_uint32)": {
        "encoding": "mapping",
        "key": "t_address",
        "label": "mapping(address => uint32)",
        "numberOfBytes": "32",
        "value": "t_uint32"
      },
      "t_mapping(t_uint256,t_mapping(t_address,t_array(t_struct(WithdrawalRequest)34714_storage)dyn_storage))": {
        "encoding": "mapping",
        "key": "t_uint256",
        "label": "mapping(uint256 => mapping(address => struct XVSVaultStorageV1.WithdrawalRequest[]))",
        "numberOfBytes": "32",
        "value": "t_mapping(t_address,t_array(t_struct(WithdrawalRequest)34714_storage)dyn_storage)"
      },
      "t_mapping(t_uint256,t_mapping(t_address,t_struct(UserInfo)34696_storage))": {
        "encoding": "mapping",
        "key": "t_uint256",
        "label": "mapping(uint256 => mapping(address => struct XVSVaultStorageV1.UserInfo))",
        "numberOfBytes": "32",
        "value": "t_mapping(t_address,t_struct(UserInfo)34696_storage)"
      },
      "t_mapping(t_uint256,t_uint256)": {
        "encoding": "mapping",
        "key": "t_uint256",
        "label": "mapping(uint256 => uint256)",
        "numberOfBytes": "32",
        "value": "t_uint256"
      },
      "t_mapping(t_uint32,t_struct(Checkpoint)34749_storage)": {
        "encoding": "mapping",
        "key": "t_uint32",
        "label": "mapping(uint32 => struct XVSVaultStorageV1.Checkpoint)",
        "numberOfBytes": "32",
        "value": "t_struct(Checkpoint)34749_storage"
      },
      "t_struct(Checkpoint)34749_storage": {
        "encoding": "inplace",
        "label": "struct XVSVaultStorageV1.Checkpoint",
        "members": [
          {
            "astId": 34746,
            "contract": "contracts/XVSVault/XVSVault.sol:XVSVault",
            "label": "fromBlockOrSecond",
            "offset": 0,
            "slot": "0",
            "type": "t_uint32"
          },
          {
            "astId": 34748,
            "contract": "contracts/XVSVault/XVSVault.sol:XVSVault",
            "label": "votes",
            "offset": 4,
            "slot": "0",
            "type": "t_uint96"
          }
        ],
        "numberOfBytes": "32"
      },
      "t_struct(PoolInfo)34707_storage": {
        "encoding": "inplace",
        "label": "struct XVSVaultStorageV1.PoolInfo",
        "members": [
          {
            "astId": 34698,
            "contract": "contracts/XVSVault/XVSVault.sol:XVSVault",
            "label": "token",
            "offset": 0,
            "slot": "0",
            "type": "t_contract(IBEP20)27962"
          },
          {
            "astId": 34700,
            "contract": "contracts/XVSVault/XVSVault.sol:XVSVault",
            "label": "allocPoint",
            "offset": 0,
            "slot": "1",
            "type": "t_uint256"
          },
          {
            "astId": 34702,
            "contract": "contracts/XVSVault/XVSVault.sol:XVSVault",
            "label": "lastRewardBlockOrSecond",
            "offset": 0,
            "slot": "2",
            "type": "t_uint256"
          },
          {
            "astId": 34704,
            "contract": "contracts/XVSVault/XVSVault.sol:XVSVault",
            "label": "accRewardPerShare",
            "offset": 0,
            "slot": "3",
            "type": "t_uint256"
          },
          {
            "astId": 34706,
            "contract": "contracts/XVSVault/XVSVault.sol:XVSVault",
            "label": "lockPeriod",
            "offset": 0,
            "slot": "4",
            "type": "t_uint256"
          }
        ],
        "numberOfBytes": "160"
      },
      "t_struct(UserInfo)34696_storage": {
        "encoding": "inplace",
        "label": "struct XVSVaultStorageV1.UserInfo",
        "members": [
          {
            "astId": 34691,
            "contract": "contracts/XVSVault/XVSVault.sol:XVSVault",
            "label": "amount",
            "offset": 0,
            "slot": "0",
            "type": "t_uint256"
          },
          {
            "astId": 34693,
            "contract": "contracts/XVSVault/XVSVault.sol:XVSVault",
            "label": "rewardDebt",
            "offset": 0,
            "slot": "1",
            "type": "t_uint256"
          },
          {
            "astId": 34695,
            "contract": "contracts/XVSVault/XVSVault.sol:XVSVault",
            "label": "pendingWithdrawals",
            "offset": 0,
            "slot": "2",
            "type": "t_uint256"
          }
        ],
        "numberOfBytes": "96"
      },
      "t_struct(WithdrawalRequest)34714_storage": {
        "encoding": "inplace",
        "label": "struct XVSVaultStorageV1.WithdrawalRequest",
        "members": [
          {
            "astId": 34709,
            "contract": "contracts/XVSVault/XVSVault.sol:XVSVault",
            "label": "amount",
            "offset": 0,
            "slot": "0",
            "type": "t_uint256"
          },
          {
            "astId": 34711,
            "contract": "contracts/XVSVault/XVSVault.sol:XVSVault",
            "label": "lockedUntil",
            "offset": 0,
            "slot": "1",
            "type": "t_uint128"
          },
          {
            "astId": 34713,
            "contract": "contracts/XVSVault/XVSVault.sol:XVSVault",
            "label": "afterUpgrade",
            "offset": 16,
            "slot": "1",
            "type": "t_uint128"
          }
        ],
        "numberOfBytes": "64"
      },
      "t_uint128": {
        "encoding": "inplace",
        "label": "uint128",
        "numberOfBytes": "16"
      },
      "t_uint256": {
        "encoding": "inplace",
        "label": "uint256",
        "numberOfBytes": "32"
      },
      "t_uint32": {
        "encoding": "inplace",
        "label": "uint32",
        "numberOfBytes": "4"
      },
      "t_uint96": {
        "encoding": "inplace",
        "label": "uint96",
        "numberOfBytes": "12"
      }
    }
  }
}