{
  "address": "0x7857738486E813b5BCb6cA62B46F6b2ee029609B",
  "abi": [
    {
      "inputs": [
        {
          "internalType": "address",
          "name": "dataSource1",
          "type": "address"
        },
        {
          "internalType": "address",
          "name": "dataSource2",
          "type": "address"
        },
        {
          "internalType": "uint256",
          "name": "checkpointTimestamp",
          "type": "uint256"
        }
      ],
      "stateMutability": "nonpayable",
      "type": "constructor"
    },
    {
      "inputs": [],
      "name": "ZeroAddressNotAllowed",
      "type": "error"
    },
    {
      "stateMutability": "nonpayable",
      "type": "fallback"
    },
    {
      "inputs": [],
      "name": "CHECKPOINT_TIMESTAMP",
      "outputs": [
        {
          "internalType": "uint256",
          "name": "",
          "type": "uint256"
        }
      ],
      "stateMutability": "view",
      "type": "function"
    },
    {
      "inputs": [],
      "name": "DATA_SOURCE_1",
      "outputs": [
        {
          "internalType": "address",
          "name": "",
          "type": "address"
        }
      ],
      "stateMutability": "view",
      "type": "function"
    },
    {
      "inputs": [],
      "name": "DATA_SOURCE_2",
      "outputs": [
        {
          "internalType": "address",
          "name": "",
          "type": "address"
        }
      ],
      "stateMutability": "view",
      "type": "function"
    },
    {
      "inputs": [],
      "name": "currentDataSource",
      "outputs": [
        {
          "internalType": "address",
          "name": "",
          "type": "address"
        }
      ],
      "stateMutability": "view",
      "type": "function"
    }
  ],
  "transactionHash": "0x37d3ddd50759f83840e1a6280dd2a01d5ac28962139ebde54c3f7157de7868a2",
  "args": [
    "0xEa464DfB1B0BB8964c250427bb5B0DD4f315141A",
    "0x927EA36cE0a926b0Ed9358A0ed899EFCE4574fC0",
    1745903100
  ],
  "numDeployments": 1,
  "solcInputHash": "a3bade197c2ebe869d361ba22b5c6994",
  "bytecode": "0x60e060405234801561001057600080fd5b5060405161051838038061051883398101604081905261002f916100a2565b6100388361005c565b6100418261005c565b6001600160a01b03928316608052911660a05260c0526100de565b6001600160a01b038116610083576040516342bcdf7f60e11b815260040160405180910390fd5b50565b80516001600160a01b038116811461009d57600080fd5b919050565b6000806000606084860312156100b757600080fd5b6100c084610086565b92506100ce60208501610086565b9150604084015190509250925092565b60805160a05160c0516103f86101206000396000818160f8015261015b01526000818161012d015261018301526000818160b401526101a701526103f86000f3fe608060405234801561001057600080fd5b506004361061004c5760003560e01c8063539ef45a146100af5780636eec7c78146100f3578063b169ca2c14610128578063b1e3f3ca1461014f575b60003660606100a383838080601f0160208091040260200160405190810160405280939291908181526020018383808284376000920191909152506100949250610157915050565b6001600160a01b0316906101cc565b80519350602001915050f35b6100d67f000000000000000000000000000000000000000000000000000000000000000081565b6040516001600160a01b0390911681526020015b60405180910390f35b61011a7f000000000000000000000000000000000000000000000000000000000000000081565b6040519081526020016100ea565b6100d67f000000000000000000000000000000000000000000000000000000000000000081565b6100d66101f8565b60007f000000000000000000000000000000000000000000000000000000000000000042106101a557507f000000000000000000000000000000000000000000000000000000000000000090565b7f00000000000000000000000000000000000000000000000000000000000000005b905090565b60606101f1838360405180606001604052806025815260200161039e60259139610202565b9392505050565b60006101c7610157565b6060600080856001600160a01b03168560405161021f919061034e565b600060405180830381855afa9150503d806000811461025a576040519150601f19603f3d011682016040523d82523d6000602084013e61025f565b606091505b50915091506102708683838761027a565b9695505050505050565b606083156102ee5782516000036102e7576001600160a01b0385163b6102e75760405162461bcd60e51b815260206004820152601d60248201527f416464726573733a2063616c6c20746f206e6f6e2d636f6e747261637400000060448201526064015b60405180910390fd5b50816102f8565b6102f88383610300565b949350505050565b8151156103105781518083602001fd5b8060405162461bcd60e51b81526004016102de919061036a565b60005b8381101561034557818101518382015260200161032d565b50506000910152565b6000825161036081846020870161032a565b9190910192915050565b602081526000825180602084015261038981604085016020870161032a565b601f01601f1916919091016040019291505056fe416464726573733a206c6f772d6c6576656c207374617469632063616c6c206661696c6564a2646970667358221220eca66ee30baa1f137c05183519a166a921ad59eea1d7c5756184f9d6a48edffc64736f6c63430008190033",
  "devdoc": {
    "author": "Venus",
    "kind": "dev",
    "methods": {
      "constructor": {
        "params": {
          "checkpointTimestamp": "Checkpoint timestamp",
          "dataSource1": "Data source to use before the checkpoint",
          "dataSource2": "Data source to use after the checkpoint"
        }
      },
      "currentDataSource()": {
        "returns": {
          "_0": "Data source contract in use"
        }
      }
    },
    "title": "Venus CheckpointView Contract",
    "version": 1
  },
  "userdoc": {
    "errors": {
      "ZeroAddressNotAllowed()": [
        {
          "notice": "Thrown if the supplied address is a zero address where it is not allowed"
        }
      ]
    },
    "kind": "user",
    "methods": {
      "constructor": {
        "notice": "Constructor"
      },
      "currentDataSource()": {
        "notice": "Returns the current data source contract (either the old one or the new one)"
      }
    },
    "notice": "A contract that calls a view function from two different contracts   based on whether a checkpoint in time has passed. Using this contract, we   can change dependencies at a certain timestamp, which is useful for   scheduled changes in, e.g., interest rate models.",
    "version": 1
  },
  "storageLayout": {
    "storage": [],
    "types": null
  }
}