{
  "address": "0x9D228f57227839a9c514077c3909c9992F7900Af",
  "abi": [
    {
      "anonymous": false,
      "inputs": [
        {
          "indexed": false,
          "internalType": "uint256",
          "name": "error",
          "type": "uint256"
        },
        {
          "indexed": false,
          "internalType": "uint256",
          "name": "info",
          "type": "uint256"
        },
        {
          "indexed": false,
          "internalType": "uint256",
          "name": "detail",
          "type": "uint256"
        }
      ],
      "name": "Failure",
      "type": "event"
    },
    {
      "inputs": [
        {
          "internalType": "address",
          "name": "comptroller",
          "type": "address"
        },
        {
          "internalType": "address",
          "name": "account",
          "type": "address"
        },
        {
          "internalType": "contract VToken",
          "name": "vTokenModify",
          "type": "address"
        },
        {
          "internalType": "uint256",
          "name": "redeemTokens",
          "type": "uint256"
        },
        {
          "internalType": "uint256",
          "name": "borrowAmount",
          "type": "uint256"
        }
      ],
      "name": "getHypotheticalAccountLiquidity",
      "outputs": [
        {
          "internalType": "uint256",
          "name": "",
          "type": "uint256"
        },
        {
          "internalType": "uint256",
          "name": "",
          "type": "uint256"
        },
        {
          "internalType": "uint256",
          "name": "",
          "type": "uint256"
        }
      ],
      "stateMutability": "view",
      "type": "function"
    },
    {
      "inputs": [
        {
          "internalType": "address",
          "name": "comptroller",
          "type": "address"
        },
        {
          "internalType": "address",
          "name": "vTokenBorrowed",
          "type": "address"
        },
        {
          "internalType": "address",
          "name": "vTokenCollateral",
          "type": "address"
        },
        {
          "internalType": "uint256",
          "name": "actualRepayAmount",
          "type": "uint256"
        }
      ],
      "name": "liquidateCalculateSeizeTokens",
      "outputs": [
        {
          "internalType": "uint256",
          "name": "",
          "type": "uint256"
        },
        {
          "internalType": "uint256",
          "name": "",
          "type": "uint256"
        }
      ],
      "stateMutability": "view",
      "type": "function"
    },
    {
      "inputs": [
        {
          "internalType": "address",
          "name": "comptroller",
          "type": "address"
        },
        {
          "internalType": "address",
          "name": "vTokenCollateral",
          "type": "address"
        },
        {
          "internalType": "uint256",
          "name": "actualRepayAmount",
          "type": "uint256"
        }
      ],
      "name": "liquidateVAICalculateSeizeTokens",
      "outputs": [
        {
          "internalType": "uint256",
          "name": "",
          "type": "uint256"
        },
        {
          "internalType": "uint256",
          "name": "",
          "type": "uint256"
        }
      ],
      "stateMutability": "view",
      "type": "function"
    }
  ],
  "transactionHash": "0xcf8f4a26ed101fa0187a85f1c42817604ea5bc7d818f7cc9283ff0d2c13af7e3",
  "args": [],
  "numDeployments": 1,
  "solcInputHash": "ba77843cff9e1425bead54101e438cee",
  "bytecode": "0x6080604052348015600e575f80fd5b5061114c8061001c5f395ff3fe608060405234801561000f575f80fd5b506004361061003f575f3560e01c80630ef332ca1461004357806313d97e2c14610070578063a7032efb14610083575b5f80fd5b610056610051366004610e01565b6100b1565b604080519283526020830191909152015b60405180910390f35b61005661007e366004610e4f565b6103d9565b610096610091366004610e8d565b6105fd565b60408051938452602084019290925290820152606001610067565b5f805f866001600160a01b0316637dc0d1d06040518163ffffffff1660e01b8152600401602060405180830381865afa1580156100f0573d5f803e3d5ffd5b505050506040513d601f19601f820116820180604052508101906101149190610ee4565b60405163fc57d4df60e01b81526001600160a01b038881166004830152919091169063fc57d4df90602401602060405180830381865afa15801561015a573d5f803e3d5ffd5b505050506040513d601f19601f8201168201806040525081019061017e9190610eff565b90505f876001600160a01b0316637dc0d1d06040518163ffffffff1660e01b8152600401602060405180830381865afa1580156101bd573d5f803e3d5ffd5b505050506040513d601f19601f820116820180604052508101906101e19190610ee4565b60405163fc57d4df60e01b81526001600160a01b038881166004830152919091169063fc57d4df90602401602060405180830381865afa158015610227573d5f803e3d5ffd5b505050506040513d601f19601f8201168201806040525081019061024b9190610eff565b9050811580610258575080155b1561026b57600d5f9350935050506103d0565b5f866001600160a01b031663182df0f56040518163ffffffff1660e01b8152600401602060405180830381865afa1580156102a8573d5f803e3d5ffd5b505050506040513d601f19601f820116820180604052508101906102cc9190610eff565b90505f6102e460405180602001604052805f81525090565b60408051602081019091525f815260408051602081019091525f815261038360405180602001604052808f6001600160a01b0316634ada90af6040518163ffffffff1660e01b8152600401602060405180830381865afa15801561034a573d5f803e3d5ffd5b505050506040513d601f19601f8201168201806040525081019061036e9190610eff565b90526040805160208101909152898152610ae7565b92506103ab604051806020016040528088815250604051806020016040528088815250610ae7565b91506103b78383610b2e565b90506103c3818b610b66565b5f99509750505050505050505b94509492505050565b5f805f670de0b6b3a764000090505f866001600160a01b0316637dc0d1d06040518163ffffffff1660e01b8152600401602060405180830381865afa158015610424573d5f803e3d5ffd5b505050506040513d601f19601f820116820180604052508101906104489190610ee4565b60405163fc57d4df60e01b81526001600160a01b038881166004830152919091169063fc57d4df90602401602060405180830381865afa15801561048e573d5f803e3d5ffd5b505050506040513d601f19601f820116820180604052508101906104b29190610eff565b9050805f036104c957600d5f9350935050506105f5565b5f866001600160a01b031663182df0f56040518163ffffffff1660e01b8152600401602060405180830381865afa158015610506573d5f803e3d5ffd5b505050506040513d601f19601f8201168201806040525081019061052a9190610eff565b90505f61054260405180602001604052805f81525090565b60408051602081019091525f815260408051602081019091525f81526105a860405180602001604052808e6001600160a01b0316634ada90af6040518163ffffffff1660e01b8152600401602060405180830381865afa15801561034a573d5f803e3d5ffd5b92506105d0604051806020016040528088815250604051806020016040528088815250610ae7565b91506105dc8383610b2e565b90506105e8818b610b66565b5f99509750505050505050505b935093915050565b5f805f610608610d52565b604051632aff3bff60e21b81526001600160a01b0389811660048301525f9182918c169063abfceffc906024015f60405180830381865afa15801561064f573d5f803e3d5ffd5b505050506040513d5f823e601f3d908101601f191682016040526106769190810190610f3a565b80519091505f5b8181101561099c575f83828151811061069857610698610ffa565b60209081029190910101516040516361bfb47160e11b81526001600160a01b038f811660048301529192509082169063c37f68e290602401608060405180830381865afa1580156106eb573d5f803e3d5ffd5b505050506040513d601f19601f8201168201806040525081019061070f919061100e565b60808a0152606089015260408801529450841561073b57600f5f80985098509850505050505050610adc565b5f8e6001600160a01b0316638e8f294b836040518263ffffffff1660e01b815260040161077791906001600160a01b0391909116815260200190565b6040805180830381865afa158015610791573d5f803e3d5ffd5b505050506040513d601f19601f820116820180604052508101906107b59190611041565b9150506040518060200160405280828152508760c00181905250604051806020016040528088608001518152508760e001819052508e6001600160a01b0316637dc0d1d06040518163ffffffff1660e01b8152600401602060405180830381865afa158015610826573d5f803e3d5ffd5b505050506040513d601f19601f8201168201806040525081019061084a9190610ee4565b60405163fc57d4df60e01b81526001600160a01b038481166004830152919091169063fc57d4df90602401602060405180830381865afa158015610890573d5f803e3d5ffd5b505050506040513d601f19601f820116820180604052508101906108b49190610eff565b60a088018190525f036108d757600d5f8099509950995050505050505050610adc565b604080516020810190915260a0880151815261010088015260c087015160e08801516109119161090691610ae7565b886101000151610ae7565b61012088018190526040880151885161092b929190610b85565b875261010087015160608801516020890151610948929190610b85565b60208801526001600160a01b03808e1690831603610992576109748761012001518d8960200151610b85565b6020880181905261010088015161098c918d90610b85565b60208801525b505060010161067d565b505f8c6001600160a01b0316639254f5e56040518163ffffffff1660e01b8152600401602060405180830381865afa1580156109da573d5f803e3d5ffd5b505050506040513d601f19601f820116820180604052508101906109fe9190610ee4565b90506001600160a01b03811615610a8d576020850151604051633c617c9160e11b81526001600160a01b038e81166004830152610a879291908416906378c2f92290602401602060405180830381865afa158015610a5e573d5f803e3d5ffd5b505050506040513d601f19601f82011682018060405250810190610a829190610eff565b610bb0565b60208601525b602085015185511115610abd575f60208601518651610aac9190611085565b5f9750975097505050505050610adc565b5f855160208701515f91610ad091611085565b97509750975050505050505b955095509592505050565b60408051602081019091525f81526040518060200160405280670de0b6b3a7640000610b19865f0151865f0151610be5565b610b239190611098565b905290505b92915050565b60408051602081019091525f81526040518060200160405280610b23610b5f865f0151670de0b6b3a7640000610be5565b8551610c26565b5f80610b728484610c58565b9050610b7d81610c7e565b949350505050565b5f80610b918585610c58565b9050610ba5610b9f82610c7e565b84610bb0565b9150505b9392505050565b5f610ba98383604051806040016040528060118152602001706164646974696f6e206f766572666c6f7760781b815250610c95565b5f610ba983836040518060400160405280601781526020017f6d756c7469706c69636174696f6e206f766572666c6f77000000000000000000815250610cd7565b5f610ba983836040518060400160405280600e81526020016d646976696465206279207a65726f60901b815250610d27565b60408051602081019091525f81526040518060200160405280610b23855f015185610be5565b80515f90610b2890670de0b6b3a764000090611098565b5f80610ca184866110b7565b90508285821015610cce5760405162461bcd60e51b8152600401610cc591906110ca565b60405180910390fd5b50949350505050565b5f831580610ce3575082155b15610cef57505f610ba9565b5f610cfa84866110ff565b905083610d078683611098565b148390610cce5760405162461bcd60e51b8152600401610cc591906110ca565b5f8183610d475760405162461bcd60e51b8152600401610cc591906110ca565b50610b7d8385611098565b6040518061014001604052805f81526020015f81526020015f81526020015f81526020015f81526020015f8152602001610d9760405180602001604052805f81525090565b8152602001610db160405180602001604052805f81525090565b8152602001610dcb60405180602001604052805f81525090565b8152602001610de560405180602001604052805f81525090565b905290565b6001600160a01b0381168114610dfe575f80fd5b50565b5f805f8060808587031215610e14575f80fd5b8435610e1f81610dea565b93506020850135610e2f81610dea565b92506040850135610e3f81610dea565b9396929550929360600135925050565b5f805f60608486031215610e61575f80fd5b8335610e6c81610dea565b92506020840135610e7c81610dea565b929592945050506040919091013590565b5f805f805f60a08688031215610ea1575f80fd5b8535610eac81610dea565b94506020860135610ebc81610dea565b93506040860135610ecc81610dea565b94979396509394606081013594506080013592915050565b5f60208284031215610ef4575f80fd5b8151610ba981610dea565b5f60208284031215610f0f575f80fd5b5051919050565b634e487b7160e01b5f52604160045260245ffd5b8051610f3581610dea565b919050565b5f6020808385031215610f4b575f80fd5b825167ffffffffffffffff80821115610f62575f80fd5b818501915085601f830112610f75575f80fd5b815181811115610f8757610f87610f16565b8060051b604051601f19603f83011681018181108582111715610fac57610fac610f16565b604052918252848201925083810185019188831115610fc9575f80fd5b938501935b82851015610fee57610fdf85610f2a565b84529385019392850192610fce565b98975050505050505050565b634e487b7160e01b5f52603260045260245ffd5b5f805f8060808587031215611021575f80fd5b505082516020840151604085015160609095015191969095509092509050565b5f8060408385031215611052575f80fd5b82518015158114611061575f80fd5b6020939093015192949293505050565b634e487b7160e01b5f52601160045260245ffd5b81810381811115610b2857610b28611071565b5f826110b257634e487b7160e01b5f52601260045260245ffd5b500490565b80820180821115610b2857610b28611071565b602081525f82518060208401528060208501604085015e5f604082850101526040601f19601f83011684010191505092915050565b8082028115828204841417610b2857610b2861107156fea2646970667358221220a57ebc84874337eaa61248d27a4a3ad6f5b2441862411af915e46d0d9937832164736f6c63430008190033",
  "devdoc": {
    "author": "Venus",
    "events": {
      "Failure(uint256,uint256,uint256)": {
        "details": "`error` corresponds to enum Error; `info` corresponds to enum FailureInfo, and `detail` is an arbitrary contract-specific code that enables us to report opaque error codes from upgradeable contracts.*"
      }
    },
    "kind": "dev",
    "methods": {
      "getHypotheticalAccountLiquidity(address,address,address,uint256,uint256)": {
        "params": {
          "account": "Address of the borrowed vToken",
          "borrowAmount": "Amount borrowed",
          "comptroller": "Address of comptroller",
          "redeemTokens": "Number of vTokens being redeemed",
          "vTokenModify": "Address of collateral for vToken"
        },
        "returns": {
          "_0": "Returns a tuple of error code, liquidity, and shortfall"
        }
      },
      "liquidateCalculateSeizeTokens(address,address,address,uint256)": {
        "params": {
          "actualRepayAmount": "Repayment amount i.e amount to be repaid of total borrowed amount",
          "comptroller": "Address of comptroller",
          "vTokenBorrowed": "Address of the borrowed vToken",
          "vTokenCollateral": "Address of collateral for the borrow"
        },
        "returns": {
          "_0": "A tuple of error code, and tokens to seize"
        }
      },
      "liquidateVAICalculateSeizeTokens(address,address,uint256)": {
        "params": {
          "actualRepayAmount": "Repayment amount i.e amount to be repaid of the total borrowed amount",
          "comptroller": "Address of comptroller",
          "vTokenCollateral": "Address of collateral for vToken"
        },
        "returns": {
          "_0": "A tuple of error code, and tokens to seize"
        }
      }
    },
    "title": "ComptrollerLens Contract",
    "version": 1
  },
  "userdoc": {
    "kind": "user",
    "methods": {
      "getHypotheticalAccountLiquidity(address,address,address,uint256,uint256)": {
        "notice": "Computes the hypothetical liquidity and shortfall of an account given a hypothetical borrow      A snapshot of the account is taken and the total borrow amount of the account is calculated"
      },
      "liquidateCalculateSeizeTokens(address,address,address,uint256)": {
        "notice": "Computes the number of collateral tokens to be seized in a liquidation event"
      },
      "liquidateVAICalculateSeizeTokens(address,address,uint256)": {
        "notice": "Computes the number of VAI tokens to be seized in a liquidation event"
      }
    },
    "notice": "The ComptrollerLens contract has functions to get the number of tokens that can be seized through liquidation, hypothetical account liquidity and shortfall of an account.",
    "version": 1
  },
  "storageLayout": {
    "storage": [],
    "types": null
  }
}