{
  "address": "0xd701C1fDAE34f9Cf242a4de19a2e7288f924EA1C",
  "abi": [
    {
      "inputs": [],
      "name": "AlreadyInSelectedPool",
      "type": "error"
    },
    {
      "inputs": [],
      "name": "ArrayLengthMismatch",
      "type": "error"
    },
    {
      "inputs": [],
      "name": "BorrowNotAllowedInPool",
      "type": "error"
    },
    {
      "inputs": [],
      "name": "EmptyPoolLabel",
      "type": "error"
    },
    {
      "inputs": [
        {
          "internalType": "uint96",
          "name": "poolId",
          "type": "uint96"
        }
      ],
      "name": "InactivePool",
      "type": "error"
    },
    {
      "inputs": [],
      "name": "IncompatibleBorrowedAssets",
      "type": "error"
    },
    {
      "inputs": [],
      "name": "InvalidOperationForCorePool",
      "type": "error"
    },
    {
      "inputs": [
        {
          "internalType": "enum WeightFunction",
          "name": "strategy",
          "type": "uint8"
        }
      ],
      "name": "InvalidWeightingStrategy",
      "type": "error"
    },
    {
      "inputs": [
        {
          "internalType": "uint256",
          "name": "errorCode",
          "type": "uint256"
        },
        {
          "internalType": "uint256",
          "name": "shortfall",
          "type": "uint256"
        }
      ],
      "name": "LiquidityCheckFailed",
      "type": "error"
    },
    {
      "inputs": [
        {
          "internalType": "uint96",
          "name": "poolId",
          "type": "uint96"
        },
        {
          "internalType": "address",
          "name": "vToken",
          "type": "address"
        }
      ],
      "name": "MarketAlreadyListed",
      "type": "error"
    },
    {
      "inputs": [],
      "name": "MarketConfigNotFound",
      "type": "error"
    },
    {
      "inputs": [],
      "name": "MarketNotListedInCorePool",
      "type": "error"
    },
    {
      "inputs": [
        {
          "internalType": "uint96",
          "name": "poolId",
          "type": "uint96"
        }
      ],
      "name": "PoolDoesNotExist",
      "type": "error"
    },
    {
      "inputs": [
        {
          "internalType": "uint96",
          "name": "poolId",
          "type": "uint96"
        },
        {
          "internalType": "address",
          "name": "vToken",
          "type": "address"
        }
      ],
      "name": "PoolMarketNotFound",
      "type": "error"
    },
    {
      "anonymous": false,
      "inputs": [
        {
          "indexed": false,
          "internalType": "uint256",
          "name": "error",
          "type": "uint256"
        },
        {
          "indexed": false,
          "internalType": "uint256",
          "name": "info",
          "type": "uint256"
        },
        {
          "indexed": false,
          "internalType": "uint256",
          "name": "detail",
          "type": "uint256"
        }
      ],
      "name": "Failure",
      "type": "event"
    },
    {
      "inputs": [
        {
          "internalType": "address",
          "name": "comptroller",
          "type": "address"
        },
        {
          "internalType": "address",
          "name": "account",
          "type": "address"
        },
        {
          "internalType": "contract VToken",
          "name": "vTokenModify",
          "type": "address"
        },
        {
          "internalType": "uint256",
          "name": "redeemTokens",
          "type": "uint256"
        },
        {
          "internalType": "uint256",
          "name": "borrowAmount",
          "type": "uint256"
        },
        {
          "internalType": "enum WeightFunction",
          "name": "weightingStrategy",
          "type": "uint8"
        }
      ],
      "name": "getHypotheticalAccountLiquidity",
      "outputs": [
        {
          "internalType": "uint256",
          "name": "",
          "type": "uint256"
        },
        {
          "internalType": "uint256",
          "name": "",
          "type": "uint256"
        },
        {
          "internalType": "uint256",
          "name": "",
          "type": "uint256"
        }
      ],
      "stateMutability": "view",
      "type": "function"
    },
    {
      "inputs": [
        {
          "internalType": "address",
          "name": "comptroller",
          "type": "address"
        },
        {
          "internalType": "address",
          "name": "vTokenBorrowed",
          "type": "address"
        },
        {
          "internalType": "address",
          "name": "vTokenCollateral",
          "type": "address"
        },
        {
          "internalType": "uint256",
          "name": "actualRepayAmount",
          "type": "uint256"
        }
      ],
      "name": "liquidateCalculateSeizeTokens",
      "outputs": [
        {
          "internalType": "uint256",
          "name": "",
          "type": "uint256"
        },
        {
          "internalType": "uint256",
          "name": "",
          "type": "uint256"
        }
      ],
      "stateMutability": "view",
      "type": "function"
    },
    {
      "inputs": [
        {
          "internalType": "address",
          "name": "borrower",
          "type": "address"
        },
        {
          "internalType": "address",
          "name": "comptroller",
          "type": "address"
        },
        {
          "internalType": "address",
          "name": "vTokenBorrowed",
          "type": "address"
        },
        {
          "internalType": "address",
          "name": "vTokenCollateral",
          "type": "address"
        },
        {
          "internalType": "uint256",
          "name": "actualRepayAmount",
          "type": "uint256"
        }
      ],
      "name": "liquidateCalculateSeizeTokens",
      "outputs": [
        {
          "internalType": "uint256",
          "name": "",
          "type": "uint256"
        },
        {
          "internalType": "uint256",
          "name": "",
          "type": "uint256"
        }
      ],
      "stateMutability": "view",
      "type": "function"
    },
    {
      "inputs": [
        {
          "internalType": "address",
          "name": "comptroller",
          "type": "address"
        },
        {
          "internalType": "address",
          "name": "vTokenCollateral",
          "type": "address"
        },
        {
          "internalType": "uint256",
          "name": "actualRepayAmount",
          "type": "uint256"
        }
      ],
      "name": "liquidateVAICalculateSeizeTokens",
      "outputs": [
        {
          "internalType": "uint256",
          "name": "",
          "type": "uint256"
        },
        {
          "internalType": "uint256",
          "name": "",
          "type": "uint256"
        }
      ],
      "stateMutability": "view",
      "type": "function"
    }
  ],
  "transactionHash": "0x99e9e50f9d58fc6610dd23db134abd847b3a6b224b58e8d51f8093343f3d4d5e",
  "args": [],
  "numDeployments": 2,
  "solcInputHash": "9571a294b4664408ca93a7a08fd4459b",
  "bytecode": "0x6080604052348015600e575f80fd5b506114588061001c5f395ff3fe608060405234801561000f575f80fd5b506004361061004a575f3560e01c80630ef332ca1461004e57806313d97e2c1461007b578063a5d5a0501461008e578063f7a9183e146100a1575b5f80fd5b61006161005c36600461108f565b6100cf565b604080519283526020830191909152015b60405180910390f35b6100616100893660046110dd565b61037b565b61006161009c36600461111b565b61055c565b6100b46100af36600461117b565b610811565b60408051938452602084019290925290820152606001610072565b5f805f866001600160a01b0316637dc0d1d06040518163ffffffff1660e01b8152600401602060405180830381865afa15801561010e573d5f803e3d5ffd5b505050506040513d601f19601f8201168201806040525081019061013291906111ea565b60405163fc57d4df60e01b81526001600160a01b038881166004830152919091169063fc57d4df90602401602060405180830381865afa158015610178573d5f803e3d5ffd5b505050506040513d601f19601f8201168201806040525081019061019c9190611205565b90505f876001600160a01b0316637dc0d1d06040518163ffffffff1660e01b8152600401602060405180830381865afa1580156101db573d5f803e3d5ffd5b505050506040513d601f19601f820116820180604052508101906101ff91906111ea565b60405163fc57d4df60e01b81526001600160a01b038881166004830152919091169063fc57d4df90602401602060405180830381865afa158015610245573d5f803e3d5ffd5b505050506040513d601f19601f820116820180604052508101906102699190611205565b9050811580610276575080155b1561028957600d5f935093505050610372565b5f866001600160a01b031663182df0f56040518163ffffffff1660e01b8152600401602060405180830381865afa1580156102c6573d5f803e3d5ffd5b505050506040513d601f19601f820116820180604052508101906102ea9190611205565b604051636b4374f760e11b81526001600160a01b0389811660048301529192505f918b169063d686e9ee90602401602060405180830381865afa158015610333573d5f803e3d5ffd5b505050506040513d601f19601f820116820180604052508101906103579190611205565b90505f6103678883878787610892565b5f9750955050505050505b94509492505050565b5f805f670de0b6b3a764000090505f866001600160a01b0316637dc0d1d06040518163ffffffff1660e01b8152600401602060405180830381865afa1580156103c6573d5f803e3d5ffd5b505050506040513d601f19601f820116820180604052508101906103ea91906111ea565b60405163fc57d4df60e01b81526001600160a01b038881166004830152919091169063fc57d4df90602401602060405180830381865afa158015610430573d5f803e3d5ffd5b505050506040513d601f19601f820116820180604052508101906104549190611205565b9050805f0361046b57600d5f935093505050610554565b5f866001600160a01b031663182df0f56040518163ffffffff1660e01b8152600401602060405180830381865afa1580156104a8573d5f803e3d5ffd5b505050506040513d601f19601f820116820180604052508101906104cc9190611205565b604051636b4374f760e11b81526001600160a01b0389811660048301529192505f918a169063d686e9ee90602401602060405180830381865afa158015610515573d5f803e3d5ffd5b505050506040513d601f19601f820116820180604052508101906105399190611205565b90505f6105498883878787610892565b5f9750955050505050505b935093915050565b5f805f866001600160a01b0316637dc0d1d06040518163ffffffff1660e01b8152600401602060405180830381865afa15801561059b573d5f803e3d5ffd5b505050506040513d601f19601f820116820180604052508101906105bf91906111ea565b60405163fc57d4df60e01b81526001600160a01b038881166004830152919091169063fc57d4df90602401602060405180830381865afa158015610605573d5f803e3d5ffd5b505050506040513d601f19601f820116820180604052508101906106299190611205565b90505f876001600160a01b0316637dc0d1d06040518163ffffffff1660e01b8152600401602060405180830381865afa158015610668573d5f803e3d5ffd5b505050506040513d601f19601f8201168201806040525081019061068c91906111ea565b60405163fc57d4df60e01b81526001600160a01b038881166004830152919091169063fc57d4df90602401602060405180830381865afa1580156106d2573d5f803e3d5ffd5b505050506040513d601f19601f820116820180604052508101906106f69190611205565b9050811580610703575080155b1561071657600d5f935093505050610807565b5f866001600160a01b031663182df0f56040518163ffffffff1660e01b8152600401602060405180830381865afa158015610753573d5f803e3d5ffd5b505050506040513d601f19601f820116820180604052508101906107779190611205565b60405163afd3783b60e01b81526001600160a01b038c8116600483015289811660248301529192505f918b169063afd3783b90604401602060405180830381865afa1580156107c8573d5f803e3d5ffd5b505050506040513d601f19601f820116820180604052508101906107ec9190611205565b90505f6107fc8883878787610892565b5f9750955050505050505b9550959350505050565b5f805f805f6108248b8b8b8b8b8b610904565b91509150815f1461083d575092505f9150819050610886565b60208101518151111561086a575f6020820151825161085c9190611230565b5f9450945094505050610886565b5f815160208301515f9161087d91611230565b94509450945050505b96509650969350505050565b5f806108ba604051806020016040528088815250604051806020016040528088815250610d75565b90505f6108e3604051806020016040528087815250604051806020016040528087815250610d75565b90506108f86108f28383610dbc565b89610df4565b98975050505050505050565b5f61090d610fe0565b604051632aff3bff60e21b81526001600160a01b0388811660048301525f91908a169063abfceffc906024015f60405180830381865afa158015610953573d5f803e3d5ffd5b505050506040513d5f823e601f3d908101601f1916820160405261097a9190810190611267565b80519091505f5b81811015610c72575f83828151811061099c5761099c61131b565b60209081029190910101516040516361bfb47160e11b81526001600160a01b038d811660048301529192509082169063c37f68e290602401608060405180830381865afa1580156109ef573d5f803e3d5ffd5b505050506040513d601f19601f82011682018060405250810190610a13919061132f565b60808901526060880152604087015295508515610a3857600f5b955050505050610d6a565b6040805160208101918290526319ef3e8b60e01b909152806001600160a01b038e166319ef3e8b610a6e8f868d60248701611362565b602060405180830381865afa158015610a89573d5f803e3d5ffd5b505050506040513d601f19601f82011682018060405250810190610aad9190611205565b905260c086015260408051602080820183526080880151825260e088019190915281516307dc0d1d60e41b815291516001600160a01b038f1692637dc0d1d09260048083019391928290030181865afa158015610b0c573d5f803e3d5ffd5b505050506040513d601f19601f82011682018060405250810190610b3091906111ea565b60405163fc57d4df60e01b81526001600160a01b038381166004830152919091169063fc57d4df90602401602060405180830381865afa158015610b76573d5f803e3d5ffd5b505050506040513d601f19601f82011682018060405250810190610b9a9190611205565b60a086018190525f03610bae57600d610a2d565b604080516020810190915260a0860151815261010086015260c085015160e0860151610be891610bdd91610d75565b866101000151610d75565b610120860181905260408601518651610c02929190610e13565b855261010085015160608601516020870151610c1f929190610e13565b60208601526001600160a01b03808b1690821603610c6957610c4b8561012001518a8760200151610e13565b60208601819052610100860151610c63918a90610e13565b60208601525b50600101610981565b505f8a6001600160a01b0316639254f5e56040518163ffffffff1660e01b8152600401602060405180830381865afa158015610cb0573d5f803e3d5ffd5b505050506040513d601f19601f82011682018060405250810190610cd491906111ea565b90506001600160a01b03811615610d63576020840151604051633c617c9160e11b81526001600160a01b038c81166004830152610d5d9291908416906378c2f92290602401602060405180830381865afa158015610d34573d5f803e3d5ffd5b505050506040513d601f19601f82011682018060405250810190610d589190611205565b610e3e565b60208501525b5f94505050505b965096945050505050565b60408051602081019091525f81526040518060200160405280670de0b6b3a7640000610da7865f0151865f0151610e73565b610db191906113a4565b905290505b92915050565b60408051602081019091525f81526040518060200160405280610db1610ded865f0151670de0b6b3a7640000610e73565b8551610eb4565b5f80610e008484610ee6565b9050610e0b81610f0c565b949350505050565b5f80610e1f8585610ee6565b9050610e33610e2d82610f0c565b84610e3e565b9150505b9392505050565b5f610e378383604051806040016040528060118152602001706164646974696f6e206f766572666c6f7760781b815250610f23565b5f610e3783836040518060400160405280601781526020017f6d756c7469706c69636174696f6e206f766572666c6f77000000000000000000815250610f65565b5f610e3783836040518060400160405280600e81526020016d646976696465206279207a65726f60901b815250610fb5565b60408051602081019091525f81526040518060200160405280610db1855f015185610e73565b80515f90610db690670de0b6b3a7640000906113a4565b5f80610f2f84866113c3565b90508285821015610f5c5760405162461bcd60e51b8152600401610f5391906113d6565b60405180910390fd5b50949350505050565b5f831580610f71575082155b15610f7d57505f610e37565b5f610f88848661140b565b905083610f9586836113a4565b148390610f5c5760405162461bcd60e51b8152600401610f5391906113d6565b5f8183610fd55760405162461bcd60e51b8152600401610f5391906113d6565b50610e0b83856113a4565b6040518061014001604052805f81526020015f81526020015f81526020015f81526020015f81526020015f815260200161102560405180602001604052805f81525090565b815260200161103f60405180602001604052805f81525090565b815260200161105960405180602001604052805f81525090565b815260200161107360405180602001604052805f81525090565b905290565b6001600160a01b038116811461108c575f80fd5b50565b5f805f80608085870312156110a2575f80fd5b84356110ad81611078565b935060208501356110bd81611078565b925060408501356110cd81611078565b9396929550929360600135925050565b5f805f606084860312156110ef575f80fd5b83356110fa81611078565b9250602084013561110a81611078565b929592945050506040919091013590565b5f805f805f60a0868803121561112f575f80fd5b853561113a81611078565b9450602086013561114a81611078565b9350604086013561115a81611078565b9250606086013561116a81611078565b949793965091946080013592915050565b5f805f805f8060c08789031215611190575f80fd5b863561119b81611078565b955060208701356111ab81611078565b945060408701356111bb81611078565b9350606087013592506080870135915060a0870135600281106111dc575f80fd5b809150509295509295509295565b5f602082840312156111fa575f80fd5b8151610e3781611078565b5f60208284031215611215575f80fd5b5051919050565b634e487b7160e01b5f52601160045260245ffd5b81810381811115610db657610db661121c565b634e487b7160e01b5f52604160045260245ffd5b805161126281611078565b919050565b5f6020808385031215611278575f80fd5b825167ffffffffffffffff8082111561128f575f80fd5b818501915085601f8301126112a2575f80fd5b8151818111156112b4576112b4611243565b8060051b604051601f19603f830116810181811085821117156112d9576112d9611243565b6040529182528482019250838101850191888311156112f6575f80fd5b938501935b828510156108f85761130c85611257565b845293850193928501926112fb565b634e487b7160e01b5f52603260045260245ffd5b5f805f8060808587031215611342575f80fd5b505082516020840151604085015160609095015191969095509092509050565b6001600160a01b03848116825283166020820152606081016002831061139657634e487b7160e01b5f52602160045260245ffd5b826040830152949350505050565b5f826113be57634e487b7160e01b5f52601260045260245ffd5b500490565b80820180821115610db657610db661121c565b602081525f82518060208401528060208501604085015e5f604082850101526040601f19601f83011684010191505092915050565b8082028115828204841417610db657610db661121c56fea26469706673582212208d999cc7effbbd6bdd71484ff979e04549a1654a951b3520c1e7780d90e8f73b64736f6c63430008190033",
  "devdoc": {
    "author": "Venus",
    "events": {
      "Failure(uint256,uint256,uint256)": {
        "details": "`error` corresponds to enum Error; `info` corresponds to enum FailureInfo, and `detail` is an arbitrary contract-specific code that enables us to report opaque error codes from upgradeable contracts.*"
      }
    },
    "kind": "dev",
    "methods": {
      "getHypotheticalAccountLiquidity(address,address,address,uint256,uint256,uint8)": {
        "params": {
          "account": "Address of the borrowed vToken",
          "borrowAmount": "Amount borrowed",
          "comptroller": "Address of comptroller",
          "redeemTokens": "Number of vTokens being redeemed",
          "vTokenModify": "Address of collateral for vToken",
          "weightingStrategy": "The weighting strategy to use:                          - `WeightFunction.USE_COLLATERAL_FACTOR` to use collateral factor                          - `WeightFunction.USE_LIQUIDATION_THRESHOLD` to use liquidation threshold"
        },
        "returns": {
          "_0": "Returns a tuple of error code, liquidity, and shortfall"
        }
      },
      "liquidateCalculateSeizeTokens(address,address,address,address,uint256)": {
        "params": {
          "actualRepayAmount": "Repayment amount i.e amount to be repaid of total borrowed amount",
          "borrower": "Address of borrower whose collateral is being seized",
          "comptroller": "Address of comptroller",
          "vTokenBorrowed": "Address of the borrowed vToken",
          "vTokenCollateral": "Address of collateral for the borrow"
        },
        "returns": {
          "_0": "A tuple of error code, and tokens to seize"
        }
      },
      "liquidateCalculateSeizeTokens(address,address,address,uint256)": {
        "details": "This will be used only in vBNB",
        "params": {
          "actualRepayAmount": "Repayment amount i.e amount to be repaid of total borrowed amount",
          "comptroller": "Address of comptroller",
          "vTokenBorrowed": "Address of the borrowed vToken",
          "vTokenCollateral": "Address of collateral for the borrow"
        },
        "returns": {
          "_0": "A tuple of error code, and tokens to seize"
        }
      },
      "liquidateVAICalculateSeizeTokens(address,address,uint256)": {
        "params": {
          "actualRepayAmount": "Repayment amount i.e amount to be repaid of the total borrowed amount",
          "comptroller": "Address of comptroller",
          "vTokenCollateral": "Address of collateral for vToken"
        },
        "returns": {
          "_0": "A tuple of error code, and tokens to seize"
        }
      }
    },
    "title": "ComptrollerLens Contract",
    "version": 1
  },
  "userdoc": {
    "errors": {
      "AlreadyInSelectedPool()": [
        {
          "notice": "Thrown when You are already in the selected pool."
        }
      ],
      "ArrayLengthMismatch()": [
        {
          "notice": "Thrown when input array lengths do not match"
        }
      ],
      "BorrowNotAllowedInPool()": [
        {
          "notice": "Thrown when borrowing is not allowed in the selected pool for a given market."
        }
      ],
      "EmptyPoolLabel()": [
        {
          "notice": "Thrown when the pool label is empty"
        }
      ],
      "InactivePool(uint96)": [
        {
          "notice": "Thrown when attempting to interact with an inactive pool"
        }
      ],
      "IncompatibleBorrowedAssets()": [
        {
          "notice": "Thrown when One or more of your assets are not compatible with the selected pool."
        }
      ],
      "InvalidOperationForCorePool()": [
        {
          "notice": "Thrown when trying to call pool-specific methods on the Core Pool"
        }
      ],
      "InvalidWeightingStrategy(uint8)": [
        {
          "notice": "Thrown when an invalid weighting strategy is provided"
        }
      ],
      "LiquidityCheckFailed(uint256,uint256)": [
        {
          "notice": "Thrown when Switching to this pool would fail the liquidity check or lead to liquidation."
        }
      ],
      "MarketAlreadyListed(uint96,address)": [
        {
          "notice": "Thrown when a vToken is already listed in the specified pool"
        }
      ],
      "MarketConfigNotFound()": [
        {
          "notice": "Thrown when market is not set in the _poolMarkets mapping"
        }
      ],
      "MarketNotListedInCorePool()": [
        {
          "notice": "Thrown when market trying to add in a pool is not listed in the core pool"
        }
      ],
      "PoolDoesNotExist(uint96)": [
        {
          "notice": "Thrown when a given pool ID does not exist"
        }
      ],
      "PoolMarketNotFound(uint96,address)": [
        {
          "notice": "Thrown when trying to remove a market that is not listed in the given pool."
        }
      ]
    },
    "kind": "user",
    "methods": {
      "getHypotheticalAccountLiquidity(address,address,address,uint256,uint256,uint8)": {
        "notice": "Computes the hypothetical liquidity and shortfall of an account given a hypothetical borrow      A snapshot of the account is taken and the total borrow amount of the account is calculated"
      },
      "liquidateCalculateSeizeTokens(address,address,address,address,uint256)": {
        "notice": "Computes the number of collateral tokens to be seized in a liquidation event"
      },
      "liquidateCalculateSeizeTokens(address,address,address,uint256)": {
        "notice": "Computes the number of collateral tokens to be seized in a liquidation event"
      },
      "liquidateVAICalculateSeizeTokens(address,address,uint256)": {
        "notice": "Computes the number of VAI tokens to be seized in a liquidation event"
      }
    },
    "notice": "The ComptrollerLens contract has functions to get the number of tokens that can be seized through liquidation, hypothetical account liquidity and shortfall of an account.",
    "version": 1
  },
  "storageLayout": {
    "storage": [],
    "types": null
  }
}