{
  "address": "0x52F63686D09d92c367c90BCDBF79A562f81bd6BF",
  "abi": [
    {
      "inputs": [
        {
          "internalType": "uint256",
          "name": "baseRatePerYear",
          "type": "uint256"
        },
        {
          "internalType": "uint256",
          "name": "multiplierPerYear",
          "type": "uint256"
        },
        {
          "internalType": "uint256",
          "name": "jumpMultiplierPerYear",
          "type": "uint256"
        },
        {
          "internalType": "uint256",
          "name": "kink_",
          "type": "uint256"
        },
        {
          "internalType": "uint256",
          "name": "blocksPerYear_",
          "type": "uint256"
        }
      ],
      "payable": false,
      "stateMutability": "nonpayable",
      "type": "constructor"
    },
    {
      "anonymous": false,
      "inputs": [
        {
          "indexed": false,
          "internalType": "uint256",
          "name": "baseRatePerBlock",
          "type": "uint256"
        },
        {
          "indexed": false,
          "internalType": "uint256",
          "name": "multiplierPerBlock",
          "type": "uint256"
        },
        {
          "indexed": false,
          "internalType": "uint256",
          "name": "jumpMultiplierPerBlock",
          "type": "uint256"
        },
        {
          "indexed": false,
          "internalType": "uint256",
          "name": "kink",
          "type": "uint256"
        }
      ],
      "name": "NewInterestParams",
      "type": "event"
    },
    {
      "constant": true,
      "inputs": [],
      "name": "baseRatePerBlock",
      "outputs": [
        {
          "internalType": "uint256",
          "name": "",
          "type": "uint256"
        }
      ],
      "payable": false,
      "stateMutability": "view",
      "type": "function"
    },
    {
      "constant": true,
      "inputs": [],
      "name": "blocksPerYear",
      "outputs": [
        {
          "internalType": "uint256",
          "name": "",
          "type": "uint256"
        }
      ],
      "payable": false,
      "stateMutability": "view",
      "type": "function"
    },
    {
      "constant": true,
      "inputs": [
        {
          "internalType": "uint256",
          "name": "cash",
          "type": "uint256"
        },
        {
          "internalType": "uint256",
          "name": "borrows",
          "type": "uint256"
        },
        {
          "internalType": "uint256",
          "name": "reserves",
          "type": "uint256"
        }
      ],
      "name": "getBorrowRate",
      "outputs": [
        {
          "internalType": "uint256",
          "name": "",
          "type": "uint256"
        }
      ],
      "payable": false,
      "stateMutability": "view",
      "type": "function"
    },
    {
      "constant": true,
      "inputs": [
        {
          "internalType": "uint256",
          "name": "cash",
          "type": "uint256"
        },
        {
          "internalType": "uint256",
          "name": "borrows",
          "type": "uint256"
        },
        {
          "internalType": "uint256",
          "name": "reserves",
          "type": "uint256"
        },
        {
          "internalType": "uint256",
          "name": "reserveFactorMantissa",
          "type": "uint256"
        }
      ],
      "name": "getSupplyRate",
      "outputs": [
        {
          "internalType": "uint256",
          "name": "",
          "type": "uint256"
        }
      ],
      "payable": false,
      "stateMutability": "view",
      "type": "function"
    },
    {
      "constant": true,
      "inputs": [],
      "name": "isInterestRateModel",
      "outputs": [
        {
          "internalType": "bool",
          "name": "",
          "type": "bool"
        }
      ],
      "payable": false,
      "stateMutability": "view",
      "type": "function"
    },
    {
      "constant": true,
      "inputs": [],
      "name": "jumpMultiplierPerBlock",
      "outputs": [
        {
          "internalType": "uint256",
          "name": "",
          "type": "uint256"
        }
      ],
      "payable": false,
      "stateMutability": "view",
      "type": "function"
    },
    {
      "constant": true,
      "inputs": [],
      "name": "kink",
      "outputs": [
        {
          "internalType": "uint256",
          "name": "",
          "type": "uint256"
        }
      ],
      "payable": false,
      "stateMutability": "view",
      "type": "function"
    },
    {
      "constant": true,
      "inputs": [],
      "name": "multiplierPerBlock",
      "outputs": [
        {
          "internalType": "uint256",
          "name": "",
          "type": "uint256"
        }
      ],
      "payable": false,
      "stateMutability": "view",
      "type": "function"
    },
    {
      "constant": true,
      "inputs": [
        {
          "internalType": "uint256",
          "name": "cash",
          "type": "uint256"
        },
        {
          "internalType": "uint256",
          "name": "borrows",
          "type": "uint256"
        },
        {
          "internalType": "uint256",
          "name": "reserves",
          "type": "uint256"
        }
      ],
      "name": "utilizationRate",
      "outputs": [
        {
          "internalType": "uint256",
          "name": "",
          "type": "uint256"
        }
      ],
      "payable": false,
      "stateMutability": "pure",
      "type": "function"
    }
  ],
  "transactionHash": "0x57c7d8d37caff8064931fc56b969ef6e3a5369d259c72e361629b6d6d96dc244",
  "args": [
    "0",
    "90000000000000000",
    "2000000000000000000",
    "500000000000000000",
    21024000
  ],
  "numDeployments": 1,
  "solcInputHash": "0e83a1d5b641b6bc5990c927959bd5c4",
  "bytecode": "0x608060405234801561001057600080fd5b50604051610812380380610812833981810160405260a081101561003357600080fd5b50805160208083015160408401516060850151608090950151600081905593949193909261006c908690839061039d6100ff821b17901c565b60025561008484826100ff602090811b61039d17901c565b60015561009c83826100ff602090811b61039d17901c565b60038190556004839055600254600154604080519283526020830191909152818101929092526060810184905290517f6960ab234c7ef4b0c9197100f5393cfcde7c453ac910a27bd2000aa1dd4c068d9181900360800190a150505050506101f0565b600061014783836040518060400160405280601a81526020017f536166654d6174683a206469766973696f6e206279207a65726f00000000000081525061014e60201b60201c565b9392505050565b600081836101da5760405162461bcd60e51b81526004018080602001828103825283818151815260200191508051906020019080838360005b8381101561019f578181015183820152602001610187565b50505050905090810190601f1680156101cc5780820380516001836020036101000a031916815260200191505b509250505060405180910390fd5b5060008385816101e657fe5b0495945050505050565b610613806101ff6000396000f3fe608060405234801561001057600080fd5b50600436106100935760003560e01c8063a385fb9611610066578063a385fb9614610120578063b816881614610128578063b9f9850a14610157578063f14039de1461015f578063fd2da3391461016757610093565b806315f24053146100985780632191f92a146100d35780636e71e2d8146100ef5780638726bb8914610118575b600080fd5b6100c1600480360360608110156100ae57600080fd5b508035906020810135906040013561016f565b60408051918252519081900360200190f35b6100db610247565b604080519115158252519081900360200190f35b6100c16004803603606081101561010557600080fd5b508035906020810135906040013561024c565b6100c161029e565b6100c16102a4565b6100c16004803603608081101561013e57600080fd5b50803590602081013590604081013590606001356102aa565b6100c1610329565b6100c161032f565b6100c1610335565b60008061017d85858561024c565b905060045481116101cf576101c76002546101bb670de0b6b3a76400006101af6001548661033b90919063ffffffff16565b9063ffffffff61039d16565b9063ffffffff6103df16565b915050610240565b60006101fa6002546101bb670de0b6b3a76400006101af60015460045461033b90919063ffffffff16565b905060006102136004548461042190919063ffffffff16565b905061023a826101bb670de0b6b3a76400006101af6003548661033b90919063ffffffff16565b93505050505b9392505050565b600181565b60008261025b57506000610240565b61029661027e83610272878763ffffffff6103df16565b9063ffffffff61042116565b6101af85670de0b6b3a764000063ffffffff61033b16565b949350505050565b60015481565b60005481565b6000806102c5670de0b6b3a76400008463ffffffff61042116565b905060006102d487878761016f565b905060006102f4670de0b6b3a76400006101af848663ffffffff61033b16565b905061031d670de0b6b3a76400006101af836103118c8c8c61024c565b9063ffffffff61033b16565b98975050505050505050565b60035481565b60025481565b60045481565b60008261034a57506000610397565b8282028284828161035757fe5b04146103945760405162461bcd60e51b81526004018080602001828103825260218152602001806105be6021913960400191505060405180910390fd5b90505b92915050565b600061039483836040518060400160405280601a81526020017f536166654d6174683a206469766973696f6e206279207a65726f000000000000815250610463565b600061039483836040518060400160405280601b81526020017f536166654d6174683a206164646974696f6e206f766572666c6f770000000000815250610505565b600061039483836040518060400160405280601e81526020017f536166654d6174683a207375627472616374696f6e206f766572666c6f770000815250610563565b600081836104ef5760405162461bcd60e51b81526004018080602001828103825283818151815260200191508051906020019080838360005b838110156104b457818101518382015260200161049c565b50505050905090810190601f1680156104e15780820380516001836020036101000a031916815260200191505b509250505060405180910390fd5b5060008385816104fb57fe5b0495945050505050565b6000838301828582101561055a5760405162461bcd60e51b81526020600482018181528351602484015283519092839260449091019190850190808383600083156104b457818101518382015260200161049c565b50949350505050565b600081848411156105b55760405162461bcd60e51b81526020600482018181528351602484015283519092839260449091019190850190808383600083156104b457818101518382015260200161049c565b50505090039056fe536166654d6174683a206d756c7469706c69636174696f6e206f766572666c6f77a265627a7a7231582076f402780e45198caeb5a97509b16371116a983a8839bd7e095f45668ff596b864736f6c63430005100032",
  "devdoc": {
    "author": "Venus",
    "methods": {
      "constructor": {
        "params": {
          "baseRatePerYear": "The approximate target base APR, as a mantissa (scaled by 1e18)",
          "blocksPerYear_": "The approximate number of blocks per year to assume",
          "jumpMultiplierPerYear": "The multiplierPerBlock after hitting a specified utilization point",
          "kink_": "The utilization point at which the jump multiplier is applied",
          "multiplierPerYear": "The rate of increase in interest rate wrt utilization (scaled by 1e18)"
        }
      },
      "getBorrowRate(uint256,uint256,uint256)": {
        "params": {
          "borrows": "The amount of borrows in the market",
          "cash": "The amount of cash in the market",
          "reserves": "The amount of reserves in the market"
        },
        "return": "The borrow rate percentage per block as a mantissa (scaled by 1e18)"
      },
      "getSupplyRate(uint256,uint256,uint256,uint256)": {
        "params": {
          "borrows": "The amount of borrows in the market",
          "cash": "The amount of cash in the market",
          "reserveFactorMantissa": "The current reserve factor for the market",
          "reserves": "The amount of reserves in the market"
        },
        "return": "The supply rate percentage per block as a mantissa (scaled by 1e18)"
      },
      "utilizationRate(uint256,uint256,uint256)": {
        "params": {
          "borrows": "The amount of borrows in the market",
          "cash": "The amount of cash in the market",
          "reserves": "The amount of reserves in the market (currently unused)"
        },
        "return": "The utilization rate as a mantissa between [0, 1e18]"
      }
    },
    "title": "Venus's JumpRateModel Contract"
  },
  "userdoc": {
    "methods": {
      "constructor": "Construct an interest rate model",
      "getBorrowRate(uint256,uint256,uint256)": {
        "notice": "Calculates the current borrow rate per block, with the error code expected by the market"
      },
      "getSupplyRate(uint256,uint256,uint256,uint256)": {
        "notice": "Calculates the current supply rate per block"
      },
      "utilizationRate(uint256,uint256,uint256)": {
        "notice": "Calculates the utilization rate of the market: `borrows / (cash + borrows - reserves)`"
      }
    }
  },
  "storageLayout": {
    "storage": [
      {
        "astId": 9317,
        "contract": "contracts/InterestRateModels/JumpRateModel.sol:JumpRateModel",
        "label": "blocksPerYear",
        "offset": 0,
        "slot": "0",
        "type": "t_uint256"
      },
      {
        "astId": 9319,
        "contract": "contracts/InterestRateModels/JumpRateModel.sol:JumpRateModel",
        "label": "multiplierPerBlock",
        "offset": 0,
        "slot": "1",
        "type": "t_uint256"
      },
      {
        "astId": 9321,
        "contract": "contracts/InterestRateModels/JumpRateModel.sol:JumpRateModel",
        "label": "baseRatePerBlock",
        "offset": 0,
        "slot": "2",
        "type": "t_uint256"
      },
      {
        "astId": 9323,
        "contract": "contracts/InterestRateModels/JumpRateModel.sol:JumpRateModel",
        "label": "jumpMultiplierPerBlock",
        "offset": 0,
        "slot": "3",
        "type": "t_uint256"
      },
      {
        "astId": 9325,
        "contract": "contracts/InterestRateModels/JumpRateModel.sol:JumpRateModel",
        "label": "kink",
        "offset": 0,
        "slot": "4",
        "type": "t_uint256"
      }
    ],
    "types": {
      "t_uint256": {
        "encoding": "inplace",
        "label": "uint256",
        "numberOfBytes": "32"
      }
    }
  }
}