{
  "address": "0xE26cE9b5FDd602225cCcC4cef7FAE596Dcf2A965",
  "abi": [
    {
      "inputs": [
        {
          "internalType": "address",
          "name": "comptroller_",
          "type": "address"
        },
        {
          "internalType": "address payable",
          "name": "vBnb_",
          "type": "address"
        },
        {
          "internalType": "address",
          "name": "wBNB_",
          "type": "address"
        }
      ],
      "stateMutability": "nonpayable",
      "type": "constructor"
    },
    {
      "inputs": [
        {
          "internalType": "address",
          "name": "borrower",
          "type": "address"
        },
        {
          "internalType": "address",
          "name": "liquidator",
          "type": "address"
        }
      ],
      "name": "AllowlistEntryNotFound",
      "type": "error"
    },
    {
      "inputs": [
        {
          "internalType": "address",
          "name": "borrower",
          "type": "address"
        },
        {
          "internalType": "address",
          "name": "liquidator",
          "type": "address"
        }
      ],
      "name": "AlreadyAllowed",
      "type": "error"
    },
    {
      "inputs": [
        {
          "internalType": "address",
          "name": "borrower",
          "type": "address"
        }
      ],
      "name": "AlreadyRestricted",
      "type": "error"
    },
    {
      "inputs": [
        {
          "internalType": "uint256",
          "name": "errorCode",
          "type": "uint256"
        }
      ],
      "name": "LiquidationFailed",
      "type": "error"
    },
    {
      "inputs": [
        {
          "internalType": "address",
          "name": "borrower",
          "type": "address"
        },
        {
          "internalType": "address",
          "name": "liquidator",
          "type": "address"
        }
      ],
      "name": "LiquidationNotAllowed",
      "type": "error"
    },
    {
      "inputs": [
        {
          "internalType": "address",
          "name": "vToken",
          "type": "address"
        }
      ],
      "name": "MarketNotListed",
      "type": "error"
    },
    {
      "inputs": [
        {
          "internalType": "address",
          "name": "borrower",
          "type": "address"
        }
      ],
      "name": "NoRestrictionsExist",
      "type": "error"
    },
    {
      "inputs": [
        {
          "internalType": "uint256",
          "name": "maxTreasuryPercentMantissa",
          "type": "uint256"
        },
        {
          "internalType": "uint256",
          "name": "treasuryPercentMantissa_",
          "type": "uint256"
        }
      ],
      "name": "TreasuryPercentTooHigh",
      "type": "error"
    },
    {
      "inputs": [
        {
          "internalType": "address",
          "name": "sender",
          "type": "address"
        },
        {
          "internalType": "address",
          "name": "calledContract",
          "type": "address"
        },
        {
          "internalType": "string",
          "name": "methodSignature",
          "type": "string"
        }
      ],
      "name": "Unauthorized",
      "type": "error"
    },
    {
      "inputs": [
        {
          "internalType": "uint256",
          "name": "vaiDebt",
          "type": "uint256"
        },
        {
          "internalType": "uint256",
          "name": "minLiquidatableVAI",
          "type": "uint256"
        }
      ],
      "name": "VAIDebtTooHigh",
      "type": "error"
    },
    {
      "inputs": [
        {
          "internalType": "address",
          "name": "from",
          "type": "address"
        },
        {
          "internalType": "address",
          "name": "to",
          "type": "address"
        },
        {
          "internalType": "uint256",
          "name": "amount",
          "type": "uint256"
        }
      ],
      "name": "VTokenTransferFailed",
      "type": "error"
    },
    {
      "inputs": [
        {
          "internalType": "uint256",
          "name": "expected",
          "type": "uint256"
        },
        {
          "internalType": "uint256",
          "name": "actual",
          "type": "uint256"
        }
      ],
      "name": "WrongTransactionAmount",
      "type": "error"
    },
    {
      "inputs": [],
      "name": "ZeroAddressNotAllowed",
      "type": "error"
    },
    {
      "anonymous": false,
      "inputs": [
        {
          "indexed": true,
          "internalType": "address",
          "name": "borrower",
          "type": "address"
        },
        {
          "indexed": true,
          "internalType": "address",
          "name": "liquidator",
          "type": "address"
        }
      ],
      "name": "AllowlistEntryAdded",
      "type": "event"
    },
    {
      "anonymous": false,
      "inputs": [
        {
          "indexed": true,
          "internalType": "address",
          "name": "borrower",
          "type": "address"
        },
        {
          "indexed": true,
          "internalType": "address",
          "name": "liquidator",
          "type": "address"
        }
      ],
      "name": "AllowlistEntryRemoved",
      "type": "event"
    },
    {
      "anonymous": false,
      "inputs": [
        {
          "indexed": true,
          "internalType": "address",
          "name": "sender",
          "type": "address"
        }
      ],
      "name": "ForceVAILiquidationPaused",
      "type": "event"
    },
    {
      "anonymous": false,
      "inputs": [
        {
          "indexed": true,
          "internalType": "address",
          "name": "sender",
          "type": "address"
        }
      ],
      "name": "ForceVAILiquidationResumed",
      "type": "event"
    },
    {
      "anonymous": false,
      "inputs": [
        {
          "indexed": false,
          "internalType": "uint8",
          "name": "version",
          "type": "uint8"
        }
      ],
      "name": "Initialized",
      "type": "event"
    },
    {
      "anonymous": false,
      "inputs": [
        {
          "indexed": true,
          "internalType": "address",
          "name": "liquidator",
          "type": "address"
        },
        {
          "indexed": true,
          "internalType": "address",
          "name": "borrower",
          "type": "address"
        },
        {
          "indexed": false,
          "internalType": "uint256",
          "name": "repayAmount",
          "type": "uint256"
        },
        {
          "indexed": false,
          "internalType": "address",
          "name": "vTokenBorrowed",
          "type": "address"
        },
        {
          "indexed": true,
          "internalType": "address",
          "name": "vTokenCollateral",
          "type": "address"
        },
        {
          "indexed": false,
          "internalType": "uint256",
          "name": "seizeTokensForTreasury",
          "type": "uint256"
        },
        {
          "indexed": false,
          "internalType": "uint256",
          "name": "seizeTokensForLiquidator",
          "type": "uint256"
        }
      ],
      "name": "LiquidateBorrowedTokens",
      "type": "event"
    },
    {
      "anonymous": false,
      "inputs": [
        {
          "indexed": true,
          "internalType": "address",
          "name": "borrower",
          "type": "address"
        }
      ],
      "name": "LiquidationRestricted",
      "type": "event"
    },
    {
      "anonymous": false,
      "inputs": [
        {
          "indexed": true,
          "internalType": "address",
          "name": "borrower",
          "type": "address"
        }
      ],
      "name": "LiquidationRestrictionsDisabled",
      "type": "event"
    },
    {
      "anonymous": false,
      "inputs": [
        {
          "indexed": false,
          "internalType": "address",
          "name": "oldAccessControlManager",
          "type": "address"
        },
        {
          "indexed": false,
          "internalType": "address",
          "name": "newAccessControlManager",
          "type": "address"
        }
      ],
      "name": "NewAccessControlManager",
      "type": "event"
    },
    {
      "anonymous": false,
      "inputs": [
        {
          "indexed": false,
          "internalType": "uint256",
          "name": "oldPercent",
          "type": "uint256"
        },
        {
          "indexed": false,
          "internalType": "uint256",
          "name": "newPercent",
          "type": "uint256"
        }
      ],
      "name": "NewLiquidationTreasuryPercent",
      "type": "event"
    },
    {
      "anonymous": false,
      "inputs": [
        {
          "indexed": false,
          "internalType": "uint256",
          "name": "oldMinLiquidatableVAI",
          "type": "uint256"
        },
        {
          "indexed": false,
          "internalType": "uint256",
          "name": "newMinLiquidatableVAI",
          "type": "uint256"
        }
      ],
      "name": "NewMinLiquidatableVAI",
      "type": "event"
    },
    {
      "anonymous": false,
      "inputs": [
        {
          "indexed": false,
          "internalType": "uint256",
          "name": "oldPendingRedeemChunkLength",
          "type": "uint256"
        },
        {
          "indexed": false,
          "internalType": "uint256",
          "name": "newPendingRedeemChunkLength",
          "type": "uint256"
        }
      ],
      "name": "NewPendingRedeemChunkLength",
      "type": "event"
    },
    {
      "anonymous": false,
      "inputs": [
        {
          "indexed": true,
          "internalType": "address",
          "name": "oldProtocolShareReserve",
          "type": "address"
        },
        {
          "indexed": true,
          "internalType": "address",
          "name": "newProtocolShareReserves",
          "type": "address"
        }
      ],
      "name": "NewProtocolShareReserve",
      "type": "event"
    },
    {
      "anonymous": false,
      "inputs": [
        {
          "indexed": true,
          "internalType": "address",
          "name": "previousOwner",
          "type": "address"
        },
        {
          "indexed": true,
          "internalType": "address",
          "name": "newOwner",
          "type": "address"
        }
      ],
      "name": "OwnershipTransferStarted",
      "type": "event"
    },
    {
      "anonymous": false,
      "inputs": [
        {
          "indexed": true,
          "internalType": "address",
          "name": "previousOwner",
          "type": "address"
        },
        {
          "indexed": true,
          "internalType": "address",
          "name": "newOwner",
          "type": "address"
        }
      ],
      "name": "OwnershipTransferred",
      "type": "event"
    },
    {
      "anonymous": false,
      "inputs": [
        {
          "indexed": true,
          "internalType": "address",
          "name": "sender",
          "type": "address"
        },
        {
          "indexed": true,
          "internalType": "address",
          "name": "token",
          "type": "address"
        },
        {
          "indexed": false,
          "internalType": "uint256",
          "name": "reducedAmount",
          "type": "uint256"
        }
      ],
      "name": "ProtocolLiquidationIncentiveTransferred",
      "type": "event"
    },
    {
      "inputs": [],
      "name": "acceptOwnership",
      "outputs": [],
      "stateMutability": "nonpayable",
      "type": "function"
    },
    {
      "inputs": [],
      "name": "accessControlManager",
      "outputs": [
        {
          "internalType": "contract IAccessControlManagerV8",
          "name": "",
          "type": "address"
        }
      ],
      "stateMutability": "view",
      "type": "function"
    },
    {
      "inputs": [
        {
          "internalType": "address",
          "name": "borrower",
          "type": "address"
        },
        {
          "internalType": "address",
          "name": "liquidator",
          "type": "address"
        }
      ],
      "name": "addToAllowlist",
      "outputs": [],
      "stateMutability": "nonpayable",
      "type": "function"
    },
    {
      "inputs": [
        {
          "internalType": "address",
          "name": "",
          "type": "address"
        },
        {
          "internalType": "address",
          "name": "",
          "type": "address"
        }
      ],
      "name": "allowedLiquidatorsByAccount",
      "outputs": [
        {
          "internalType": "bool",
          "name": "",
          "type": "bool"
        }
      ],
      "stateMutability": "view",
      "type": "function"
    },
    {
      "inputs": [],
      "name": "comptroller",
      "outputs": [
        {
          "internalType": "contract IComptroller",
          "name": "",
          "type": "address"
        }
      ],
      "stateMutability": "view",
      "type": "function"
    },
    {
      "inputs": [],
      "name": "forceVAILiquidate",
      "outputs": [
        {
          "internalType": "bool",
          "name": "",
          "type": "bool"
        }
      ],
      "stateMutability": "view",
      "type": "function"
    },
    {
      "inputs": [
        {
          "internalType": "uint256",
          "name": "treasuryPercentMantissa_",
          "type": "uint256"
        },
        {
          "internalType": "address",
          "name": "accessControlManager_",
          "type": "address"
        },
        {
          "internalType": "address",
          "name": "protocolShareReserve_",
          "type": "address"
        }
      ],
      "name": "initialize",
      "outputs": [],
      "stateMutability": "nonpayable",
      "type": "function"
    },
    {
      "inputs": [
        {
          "internalType": "address",
          "name": "vToken",
          "type": "address"
        },
        {
          "internalType": "address",
          "name": "borrower",
          "type": "address"
        },
        {
          "internalType": "uint256",
          "name": "repayAmount",
          "type": "uint256"
        },
        {
          "internalType": "contract IVToken",
          "name": "vTokenCollateral",
          "type": "address"
        }
      ],
      "name": "liquidateBorrow",
      "outputs": [],
      "stateMutability": "payable",
      "type": "function"
    },
    {
      "inputs": [
        {
          "internalType": "address",
          "name": "",
          "type": "address"
        }
      ],
      "name": "liquidationRestricted",
      "outputs": [
        {
          "internalType": "bool",
          "name": "",
          "type": "bool"
        }
      ],
      "stateMutability": "view",
      "type": "function"
    },
    {
      "inputs": [],
      "name": "minLiquidatableVAI",
      "outputs": [
        {
          "internalType": "uint256",
          "name": "",
          "type": "uint256"
        }
      ],
      "stateMutability": "view",
      "type": "function"
    },
    {
      "inputs": [],
      "name": "owner",
      "outputs": [
        {
          "internalType": "address",
          "name": "",
          "type": "address"
        }
      ],
      "stateMutability": "view",
      "type": "function"
    },
    {
      "inputs": [],
      "name": "pauseForceVAILiquidate",
      "outputs": [],
      "stateMutability": "nonpayable",
      "type": "function"
    },
    {
      "inputs": [],
      "name": "pendingOwner",
      "outputs": [
        {
          "internalType": "address",
          "name": "",
          "type": "address"
        }
      ],
      "stateMutability": "view",
      "type": "function"
    },
    {
      "inputs": [
        {
          "internalType": "uint256",
          "name": "",
          "type": "uint256"
        }
      ],
      "name": "pendingRedeem",
      "outputs": [
        {
          "internalType": "address",
          "name": "",
          "type": "address"
        }
      ],
      "stateMutability": "view",
      "type": "function"
    },
    {
      "inputs": [],
      "name": "protocolShareReserve",
      "outputs": [
        {
          "internalType": "address",
          "name": "",
          "type": "address"
        }
      ],
      "stateMutability": "view",
      "type": "function"
    },
    {
      "inputs": [],
      "name": "reduceReserves",
      "outputs": [],
      "stateMutability": "nonpayable",
      "type": "function"
    },
    {
      "inputs": [
        {
          "internalType": "address",
          "name": "borrower",
          "type": "address"
        },
        {
          "internalType": "address",
          "name": "liquidator",
          "type": "address"
        }
      ],
      "name": "removeFromAllowlist",
      "outputs": [],
      "stateMutability": "nonpayable",
      "type": "function"
    },
    {
      "inputs": [],
      "name": "renounceOwnership",
      "outputs": [],
      "stateMutability": "nonpayable",
      "type": "function"
    },
    {
      "inputs": [
        {
          "internalType": "address",
          "name": "borrower",
          "type": "address"
        }
      ],
      "name": "restrictLiquidation",
      "outputs": [],
      "stateMutability": "nonpayable",
      "type": "function"
    },
    {
      "inputs": [],
      "name": "resumeForceVAILiquidate",
      "outputs": [],
      "stateMutability": "nonpayable",
      "type": "function"
    },
    {
      "inputs": [
        {
          "internalType": "address",
          "name": "accessControlManager_",
          "type": "address"
        }
      ],
      "name": "setAccessControlManager",
      "outputs": [],
      "stateMutability": "nonpayable",
      "type": "function"
    },
    {
      "inputs": [
        {
          "internalType": "uint256",
          "name": "minLiquidatableVAI_",
          "type": "uint256"
        }
      ],
      "name": "setMinLiquidatableVAI",
      "outputs": [],
      "stateMutability": "nonpayable",
      "type": "function"
    },
    {
      "inputs": [
        {
          "internalType": "uint256",
          "name": "newLength_",
          "type": "uint256"
        }
      ],
      "name": "setPendingRedeemChunkLength",
      "outputs": [],
      "stateMutability": "nonpayable",
      "type": "function"
    },
    {
      "inputs": [
        {
          "internalType": "address payable",
          "name": "protocolShareReserve_",
          "type": "address"
        }
      ],
      "name": "setProtocolShareReserve",
      "outputs": [],
      "stateMutability": "nonpayable",
      "type": "function"
    },
    {
      "inputs": [
        {
          "internalType": "uint256",
          "name": "newTreasuryPercentMantissa",
          "type": "uint256"
        }
      ],
      "name": "setTreasuryPercent",
      "outputs": [],
      "stateMutability": "nonpayable",
      "type": "function"
    },
    {
      "inputs": [
        {
          "internalType": "address",
          "name": "newOwner",
          "type": "address"
        }
      ],
      "name": "transferOwnership",
      "outputs": [],
      "stateMutability": "nonpayable",
      "type": "function"
    },
    {
      "inputs": [],
      "name": "treasuryPercentMantissa",
      "outputs": [
        {
          "internalType": "uint256",
          "name": "",
          "type": "uint256"
        }
      ],
      "stateMutability": "view",
      "type": "function"
    },
    {
      "inputs": [
        {
          "internalType": "address",
          "name": "borrower",
          "type": "address"
        }
      ],
      "name": "unrestrictLiquidation",
      "outputs": [],
      "stateMutability": "nonpayable",
      "type": "function"
    },
    {
      "inputs": [],
      "name": "vBnb",
      "outputs": [
        {
          "internalType": "contract IVBNB",
          "name": "",
          "type": "address"
        }
      ],
      "stateMutability": "view",
      "type": "function"
    },
    {
      "inputs": [],
      "name": "vaiController",
      "outputs": [
        {
          "internalType": "contract IVAIController",
          "name": "",
          "type": "address"
        }
      ],
      "stateMutability": "view",
      "type": "function"
    },
    {
      "inputs": [],
      "name": "wBNB",
      "outputs": [
        {
          "internalType": "address",
          "name": "",
          "type": "address"
        }
      ],
      "stateMutability": "view",
      "type": "function"
    },
    {
      "stateMutability": "payable",
      "type": "receive"
    }
  ],
  "transactionHash": "0xdf1fabc8f74689ec2e34fe147cedb1f60081a75c6a76ee9d617f2cacf8ec4362",
  "args": [
    "0xfD36E2c2a6789Db23113685031d7F16329158384",
    "0xA07c5b74C9B40447a954e1466938b865b6BBea36",
    "0xbb4CdB9CBd36B01bD1cBaEBF2De08d9173bc095c"
  ],
  "numDeployments": 1,
  "solcInputHash": "61c9c784a8d72708f070c0d5d8ba3ed4",
  "bytecode": "0x6101006040523480156200001257600080fd5b50604051620033cb380380620033cb8339810160408190526200003591620001f4565b6200004082620000f2565b6200004b83620000f2565b6200005681620000f2565b6001600160a01b0380831660805281811660e052831660a081905260408051639254f5e560e01b81529051639254f5e5916004808201926020929091908290030181865afa158015620000ad573d6000803e3d6000fd5b505050506040513d601f19601f82011682018060405250810190620000d3919062000248565b6001600160a01b031660c052620000e96200011d565b5050506200026f565b6001600160a01b0381166200011a576040516342bcdf7f60e11b815260040160405180910390fd5b50565b600054610100900460ff16156200018a5760405162461bcd60e51b815260206004820152602760248201527f496e697469616c697a61626c653a20636f6e747261637420697320696e697469604482015266616c697a696e6760c81b606482015260840160405180910390fd5b60005460ff90811614620001dc576000805460ff191660ff9081179091556040519081527f7f26b83ff96e1f2b6a682f133852f6798a09c465da95921460cefb38474024989060200160405180910390a15b565b6001600160a01b03811681146200011a57600080fd5b6000806000606084860312156200020a57600080fd5b83516200021781620001de565b60208501519093506200022a81620001de565b60408501519092506200023d81620001de565b809150509250925092565b6000602082840312156200025b57600080fd5b81516200026881620001de565b9392505050565b60805160a05160c05160e05161307a6200035160003960008181610554015281816124d201528181612553015281816125c9015261263401526000818161046701528181610b1f01528181611621015281816116c3015281816117ff0152818161186a0152818161191001528181611945015261199b015260008181610347015281816108f8015281816116940152818161176701528181611a3e01528181611fd70152818161238c015281816125a701526127a00152600081816102fb01528181610a0b01528181610a9201528181611d780152611e99015261307a6000f3fe6080604052600436106101dc5760003560e01c806389a2bc2511610102578063b4a0bdf311610095578063e9a44fd911610064578063e9a44fd914610594578063f2fde38b146105b4578063f52421b3146105d4578063f7dcd96e146105f457600080fd5b8063b4a0bdf31461050e578063b8332db71461052d578063d02eb3f414610542578063e30c39781461057657600080fd5b8063a093796a116100d1578063a093796a14610489578063b09c7742146104a9578063b26461de146104be578063b4988fd0146104ee57600080fd5b806389a2bc25146104015780638da5cb5b146104215780638e3525fc1461043f5780639254f5e51461045557600080fd5b80635ba3792d1161017a57806379ba50971161014957806379ba5097146103885780637debe3fe1461039d5780638722ddf2146103bd5780638765adcb146103e157600080fd5b80635ba3792d146102e95780635fe3b5671461033557806364fd707814610369578063715018a61461037c57600080fd5b806311ec4b7a116101b657806311ec4b7a1461023f57806336eab4ae1461025f57806344b3716a1461028e57806347a6a971146102c957600080fd5b80630d060ea8146101e85780630e32cb86146101ff578063107568df1461021f57600080fd5b366101e357005b600080fd5b3480156101f457600080fd5b506101fd610614565b005b34801561020b57600080fd5b506101fd61021a366004612bed565b6106f3565b34801561022b57600080fd5b506101fd61023a366004612bed565b610707565b34801561024b57600080fd5b506101fd61025a366004612bed565b610718565b34801561026b57600080fd5b5060cd546102799060ff1681565b60405190151581526020015b60405180910390f35b34801561029a57600080fd5b506102796102a9366004612c11565b60ca60209081526000928352604080842090915290825290205460ff1681565b3480156102d557600080fd5b506101fd6102e4366004612c11565b6107e7565b3480156102f557600080fd5b5061031d7f000000000000000000000000000000000000000000000000000000000000000081565b6040516001600160a01b039091168152602001610285565b34801561034157600080fd5b5061031d7f000000000000000000000000000000000000000000000000000000000000000081565b6101fd610377366004612c4a565b6108bb565b3480156101fd57600080fd5b34801561039457600080fd5b506101fd610c78565b3480156103a957600080fd5b506101fd6103b8366004612c11565b610cef565b3480156103c957600080fd5b506103d360cc5481565b604051908152602001610285565b3480156103ed57600080fd5b506101fd6103fc366004612bed565b610de4565b34801561040d57600080fd5b506101fd61041c366004612c9d565b610eaf565b34801561042d57600080fd5b506033546001600160a01b031661031d565b34801561044b57600080fd5b506103d360c95481565b34801561046157600080fd5b5061031d7f000000000000000000000000000000000000000000000000000000000000000081565b34801561049557600080fd5b506101fd6104a4366004612c9d565b610f37565b3480156104b557600080fd5b506101fd610fde565b3480156104ca57600080fd5b506102796104d9366004612bed565b60cb6020526000908152604090205460ff1681565b3480156104fa57600080fd5b506101fd610509366004612cb6565b6110bd565b34801561051a57600080fd5b50610102546001600160a01b031661031d565b34801561053957600080fd5b506101fd6111a8565b34801561054e57600080fd5b5061031d7f000000000000000000000000000000000000000000000000000000000000000081565b34801561058257600080fd5b506065546001600160a01b031661031d565b3480156105a057600080fd5b5060cf5461031d906001600160a01b031681565b3480156105c057600080fd5b506101fd6105cf366004612bed565b6111c2565b3480156105e057600080fd5b506101fd6105ef366004612c9d565b611233565b34801561060057600080fd5b5061031d61060f366004612c9d565b6112b2565b6106526040518060400160405280601881526020017f7061757365466f7263655641494c6971756964617465282900000000000000008152506112dc565b60cd5460ff166106bc5760405162461bcd60e51b815260206004820152602a60248201527f466f726365204c69717569646174696f6e206f662056414920697320616c726560448201526918591e4814185d5cd95960b21b60648201526084015b60405180910390fd5b60cd805460ff1916905560405133907f42388332be4beb2ad2ff83017119b9d702ce7fbaf67e18e53a137508cf967e4390600090a2565b6106fb61137b565b610704816113d5565b50565b61070f61137b565b6107048161149b565b6107566040518060400160405280601c81526020017f72657374726963744c69717569646174696f6e286164647265737329000000008152506112dc565b6001600160a01b038116600090815260cb602052604090205460ff161561079b5760405163404fe9fb60e11b81526001600160a01b03821660048201526024016106b3565b6001600160a01b038116600081815260cb6020526040808220805460ff19166001179055517f614c47c82976e8f145409efb6366fe2cefa323f389ed9354649262e38dbb35899190a250565b610808604051806060016040528060248152602001612ffd602491396112dc565b6001600160a01b03808316600090815260ca602090815260408083209385168352929052205460ff166108615760405163435aad4360e01b81526001600160a01b038084166004830152821660248201526044016106b3565b6001600160a01b03808316600081815260ca6020908152604080832094861680845294909152808220805460ff19169055517f6b0d38eafddac0d37e0aff8f4bbd5f3a3cfe124b8eabea27558bffc931ac05b59190a35050565b6108c3611500565b6108cc83611559565b6108d68333611580565b604051638e8f294b60e01b81526001600160a01b0382811660048301526000917f000000000000000000000000000000000000000000000000000000000000000090911690638e8f294b90602401606060405180830381865afa158015610941573d6000803e3d6000fd5b505050506040513d601f19601f820116820180604052508101906109659190612d0d565b505090508061099257604051635a9a1eb960e11b81526001600160a01b03831660048201526024016106b3565b61099c85856115ff565b6040516370a0823160e01b81523060048201526000906001600160a01b038416906370a0823190602401602060405180830381865afa1580156109e3573d6000803e3d6000fd5b505050506040513d601f19601f82011682018060405250810190610a079190612d49565b90507f00000000000000000000000000000000000000000000000000000000000000006001600160a01b0316866001600160a01b031603610af557348414610a6b5760405163dd97100160e01b8152600481018590523460248201526044016106b3565b604051635572051560e11b81526001600160a01b03868116600483015284811660248301527f0000000000000000000000000000000000000000000000000000000000000000169063aae40a2a9034906044016000604051808303818588803b158015610ad757600080fd5b505af1158015610aeb573d6000803e3d6000fd5b5050505050610b72565b3415610b1d5760405163dd97100160e01b8152600060048201523460248201526044016106b3565b7f00000000000000000000000000000000000000000000000000000000000000006001600160a01b0316866001600160a01b031603610b6657610b61858585611866565b610b72565b610b7286868686611a1c565b6040516370a0823160e01b81523060048201526000906001600160a01b038516906370a0823190602401602060405180830381865afa158015610bb9573d6000803e3d6000fd5b505050506040513d601f19601f82011682018060405250810190610bdd9190612d49565b90506000610beb8383612d78565b9050600080610bfa8784611c05565b91509150610c06611dcc565b604080518981526001600160a01b038c8116602083015291810184905260608101839052818916918b169033907fdd091524d794aecdb5235b2d816620c2598790835e0f3849808504c2dcb4f1a99060800160405180910390a4505050505050610c706001609755565b50505050565b565b60655433906001600160a01b03168114610ce65760405162461bcd60e51b815260206004820152602960248201527f4f776e61626c6532537465703a2063616c6c6572206973206e6f7420746865206044820152683732bb9037bbb732b960b91b60648201526084016106b3565b61070481611fb1565b610d2d6040518060400160405280601f81526020017f616464546f416c6c6f776c69737428616464726573732c6164647265737329008152506112dc565b6001600160a01b03808316600090815260ca602090815260408083209385168352929052205460ff1615610d875760405163071df39160e01b81526001600160a01b038084166004830152821660248201526044016106b3565b6001600160a01b03808316600081815260ca6020908152604080832094861680845294909152808220805460ff19166001179055517ffe40417b78788808c927141f806ef5082e7bba0f7790f2e85b811621a91094339190a35050565b610e226040518060400160405280601e81526020017f756e72657374726963744c69717569646174696f6e28616464726573732900008152506112dc565b6001600160a01b038116600090815260cb602052604090205460ff16610e6657604051633bf9d98960e11b81526001600160a01b03821660048201526024016106b3565b6001600160a01b038116600081815260cb6020526040808220805460ff19169055517fe1f03de94d16c262d2f0e89a1c42ede8899d540ac992cf53495a5cf29c2896af9190a250565b610eed6040518060400160405280601b81526020017f736574547265617375727950657263656e742875696e743235362900000000008152506112dc565b610ef681611fca565b60c95460408051918252602082018390527f0e9a1641744b21c49e4183ab9ce941d420e05a05a446c71875fb07814f362c1a910160405180910390a160c955565b610f58604051806060016040528060248152602001613021602491396112dc565b60008111610f9d5760405162461bcd60e51b8152602060048201526012602482015271496e76616c6964206368756e6b2073697a6560701b60448201526064016106b3565b60d05460408051918252602082018390527fe5eef53e396f0cb79322e15e72b6c6613ae3e62c9079f5a12f2c410867c28b2c910160405180910390a160d055565b61101c6040518060400160405280601981526020017f726573756d65466f7263655641494c69717569646174652829000000000000008152506112dc565b60cd5460ff16156110835760405162461bcd60e51b815260206004820152602b60248201527f466f726365204c69717569646174696f6e206f662056414920697320616c726560448201526a18591e481c995cdd5b595960aa1b60648201526084016106b3565b60cd805460ff1916600117905560405133907fd4b8f320ada24d048ee6c25c53a31aa20b2ea37fa25542e6e239c80d31d5b60b90600090a2565b600054600290610100900460ff161580156110df575060005460ff8083169116105b6111425760405162461bcd60e51b815260206004820152602e60248201527f496e697469616c697a61626c653a20636f6e747261637420697320616c72656160448201526d191e481a5b9a5d1a585b1a5e995960921b60648201526084016106b3565b6000805461ffff191660ff83161761010017905561116184848461208e565b6000805461ff001916905560405160ff821681527f7f26b83ff96e1f2b6a682f133852f6798a09c465da95921460cefb38474024989060200160405180910390a150505050565b6111b0611500565b6111b8611dcc565b610c766001609755565b6111ca61137b565b606580546001600160a01b0383166001600160a01b031990911681179091556111fb6033546001600160a01b031690565b6001600160a01b03167f38d16b8cac22d99fc7c124b9cd0de2d3fa1faef420bfe791d8c362d765e2270060405160405180910390a350565b6112716040518060400160405280601e81526020017f7365744d696e4c6971756964617461626c655641492875696e743235362900008152506112dc565b60cc5460408051918252602082018390527f8df018dc5fe866d192a3f4d9f16dbfdb38f58a7470a65b92262ccc008c55fff0910160405180910390a160cc55565b60ce81815481106112c257600080fd5b6000918252602090912001546001600160a01b0316905081565b610102546040516318c5e8ab60e01b81526000916001600160a01b0316906318c5e8ab906113109033908690600401612de7565b602060405180830381865afa15801561132d573d6000803e3d6000fd5b505050506040513d601f19601f820116820180604052508101906113519190612e0b565b90508061137757333083604051634a3fa29360e01b81526004016106b393929190612e26565b5050565b6033546001600160a01b03163314610c765760405162461bcd60e51b815260206004820181905260248201527f4f776e61626c653a2063616c6c6572206973206e6f7420746865206f776e657260448201526064016106b3565b6001600160a01b0381166114395760405162461bcd60e51b815260206004820152602560248201527f696e76616c696420616365737320636f6e74726f6c206d616e61676572206164604482015264647265737360d81b60648201526084016106b3565b61010280546001600160a01b038381166001600160a01b031983168117909355604080519190921680825260208201939093527f66fd58e82f7b31a2a5c30e0888f3093efe4e111b00cd2b0c31fe014601293aa0910160405180910390a15050565b6114a481611559565b60cf546040516001600160a01b038084169216907fafec95c8612496c3ecf5dddc71e393528fe29bd145fbaf9c6b496d78d7e2d79b90600090a360cf80546001600160a01b0319166001600160a01b0392909216919091179055565b6002609754036115525760405162461bcd60e51b815260206004820152601f60248201527f5265656e7472616e637947756172643a207265656e7472616e742063616c6c0060448201526064016106b3565b6002609755565b6001600160a01b038116610704576040516342bcdf7f60e11b815260040160405180910390fd5b6001600160a01b038216600090815260cb602052604090205460ff1680156115ce57506001600160a01b03808316600090815260ca602090815260408083209385168352929052205460ff16155b156113775760405163074c80eb60e51b81526001600160a01b038084166004830152821660248201526044016106b3565b604051633c617c9160e11b81526001600160a01b0382811660048301526000917f0000000000000000000000000000000000000000000000000000000000000000909116906378c2f92290602401602060405180830381865afa15801561166a573d6000803e3d6000fd5b505050506040513d601f19601f8201168201806040525081019061168e9190612d49565b905060007f00000000000000000000000000000000000000000000000000000000000000006001600160a01b031663e85a29607f000000000000000000000000000000000000000000000000000000000000000060056040518363ffffffff1660e01b8152600401611701929190612e71565b602060405180830381865afa15801561171e573d6000803e3d6000fd5b505050506040513d601f19601f820116820180604052508101906117429190612e0b565b60405163460d60c560e11b81526001600160a01b0386811660048301529192506000917f00000000000000000000000000000000000000000000000000000000000000001690638c1ac18a90602401602060405180830381865afa1580156117ae573d6000803e3d6000fd5b505050506040513d601f19601f820116820180604052508101906117d29190612e0b565b905080806117dd5750815b806117eb575060cd5460ff16155b806117f7575060cc5483105b8061183357507f00000000000000000000000000000000000000000000000000000000000000006001600160a01b0316856001600160a01b0316145b1561183f575050505050565b60cc546040516329eb1e8760e01b81526106b3918591600401918252602082015260400190565b60007f00000000000000000000000000000000000000000000000000000000000000006001600160a01b031663cbeb2b286040518163ffffffff1660e01b8152600401602060405180830381865afa1580156118c6573d6000803e3d6000fd5b505050506040513d601f19601f820116820180604052508101906118ea9190612e9e565b90506119016001600160a01b0382163330866120d8565b6119366001600160a01b0382167f00000000000000000000000000000000000000000000000000000000000000006000612143565b61196a6001600160a01b0382167f000000000000000000000000000000000000000000000000000000000000000085612143565b6040516311b3d5e760e01b81526001600160a01b0385811660048301526024820185905283811660448301526000917f0000000000000000000000000000000000000000000000000000000000000000909116906311b3d5e79060640160408051808303816000875af11580156119e5573d6000803e3d6000fd5b505050506040513d601f19601f82011682018060405250810190611a099190612ebb565b509050611a1581612258565b5050505050565b604051638e8f294b60e01b81526001600160a01b0385811660048301526000917f000000000000000000000000000000000000000000000000000000000000000090911690638e8f294b90602401606060405180830381865afa158015611a87573d6000803e3d6000fd5b505050506040513d601f19601f82011682018060405250810190611aab9190612d0d565b5050905080611ad857604051635a9a1eb960e11b81526001600160a01b03861660048201526024016106b3565b6000856001600160a01b0316636f307dc36040518163ffffffff1660e01b8152600401602060405180830381865afa158015611b18573d6000803e3d6000fd5b505050506040513d601f19601f82011682018060405250810190611b3c9190612e9e565b90506000611b4c8233308861227c565b9050611b636001600160a01b038316886000612143565b611b776001600160a01b0383168883612143565b604051637af1e23160e11b81526001600160a01b038781166004830152602482018390528581166044830152611bfc919089169063f5e3c462906064016020604051808303816000875af1158015611bd3573d6000803e3d6000fd5b505050506040513d601f19601f82011682018060405250810190611bf79190612d49565b612258565b50505050505050565b600080611c1183612385565b60405163a9059cbb60e01b81523360048201526024810182905291935091506001600160a01b0385169063a9059cbb906044016020604051808303816000875af1158015611c63573d6000803e3d6000fd5b505050506040513d601f19601f82011682018060405250810190611c879190612e0b565b611cb35760405163241165bb60e21b8152306004820152336024820152604481018290526064016106b3565b600082118015611cca5750611cc8848361243b565b155b15611d765760005b60ce54811015611d1b57846001600160a01b031660ce8281548110611cf957611cf9612edf565b6000918252602090912001546001600160a01b031614611d1b57600101611cd2565b60ce548103611d705760ce80546001810182556000919091527fd36cd1c74ef8d7326d8021b776c18fb5a5724b7f7bc93c2f42e43e10ef27d12a0180546001600160a01b0319166001600160a01b0387161790555b50611dc5565b7f00000000000000000000000000000000000000000000000000000000000000006001600160a01b0316846001600160a01b031603611dbc57611db76124cb565b611dc5565b611dc584612689565b9250929050565b60ce5460d054600090821015611de25781611de6565b60d0545b9050805b8015611fa557600060ce611dff600184612d78565b81548110611e0f57611e0f612edf565b60009182526020822001546040516370a0823160e01b81523060048201526001600160a01b03909116925082906370a0823190602401602060405180830381865afa158015611e62573d6000803e3d6000fd5b505050506040513d601f19601f82011682018060405250810190611e869190612d49565b9050611e92828261243b565b15611f9a577f00000000000000000000000000000000000000000000000000000000000000006001600160a01b0316826001600160a01b031603611edd57611ed86124cb565b611ee6565b611ee682612689565b60ce8054611ef690600190612d78565b81548110611f0657611f06612edf565b6000918252602090912001546001600160a01b031660ce611f28600186612d78565b81548110611f3857611f38612edf565b9060005260206000200160006101000a8154816001600160a01b0302191690836001600160a01b0316021790555060ce805480611f7757611f77612ef5565b600082815260209020810160001990810180546001600160a01b03191690550190555b505060001901611dea565b505050565b6001609755565b606580546001600160a01b031916905561070481612844565b6000670de0b6b3a76400007f00000000000000000000000000000000000000000000000000000000000000006001600160a01b0316634ada90af6040518163ffffffff1660e01b8152600401602060405180830381865afa158015612033573d6000803e3d6000fd5b505050506040513d601f19601f820116820180604052508101906120579190612d49565b6120619190612d78565b90508082111561137757604051635659cb3b60e01b815260048101829052602481018390526044016106b3565b600054610100900460ff166120b55760405162461bcd60e51b81526004016106b390612f0b565b6120bd612896565b6120c56128c5565b6120cf83826128f4565b611fa582612932565b6040516001600160a01b0380851660248301528316604482015260648101829052610c709085906323b872dd60e01b906084015b60408051601f198184030181529190526020810180516001600160e01b03166001600160e01b031990931692909217909152612959565b8015806121bd5750604051636eb1769f60e11b81523060048201526001600160a01b03838116602483015284169063dd62ed3e90604401602060405180830381865afa158015612197573d6000803e3d6000fd5b505050506040513d601f19601f820116820180604052508101906121bb9190612d49565b155b6122285760405162461bcd60e51b815260206004820152603660248201527f5361666545524332303a20617070726f76652066726f6d206e6f6e2d7a65726f60448201527520746f206e6f6e2d7a65726f20616c6c6f77616e636560501b60648201526084016106b3565b6040516001600160a01b038316602482015260448101829052611fa590849063095ea7b360e01b9060640161210c565b806122605750565b60405163125a96ab60e01b8152600481018290526024016106b3565b6040516370a0823160e01b81526001600160a01b03838116600483015260009182918716906370a0823190602401602060405180830381865afa1580156122c7573d6000803e3d6000fd5b505050506040513d601f19601f820116820180604052508101906122eb9190612d49565b90506123026001600160a01b0387168686866120d8565b6040516370a0823160e01b81526001600160a01b0385811660048301528291908816906370a0823190602401602060405180830381865afa15801561234b573d6000803e3d6000fd5b505050506040513d601f19601f8201168201806040525081019061236f9190612d49565b6123799190612d78565b9150505b949350505050565b60008060007f00000000000000000000000000000000000000000000000000000000000000006001600160a01b0316634ada90af6040518163ffffffff1660e01b8152600401602060405180830381865afa1580156123e8573d6000803e3d6000fd5b505050506040513d601f19601f8201168201806040525081019061240c9190612d49565b90508060c9548561241d9190612f56565b6124279190612f75565b92506124338385612d78565b915050915091565b60405163db006a7560e01b8152600481018290526000906001600160a01b0384169063db006a75906024016020604051808303816000875af19250505080156124a1575060408051601f3d908101601f1916820190925261249e91810190612d49565b60015b6124ad575060006124c5565b806000036124bf5760019150506124c5565b60009150505b92915050565b60004790507f00000000000000000000000000000000000000000000000000000000000000006001600160a01b031663d0e30db0826040518263ffffffff1660e01b81526004016000604051808303818588803b15801561252b57600080fd5b505af115801561253f573d6000803e3d6000fd5b505060cf5461257f93506001600160a01b037f00000000000000000000000000000000000000000000000000000000000000008116935016905083612a2e565b60cf546040516305bebb3b60e21b81526001600160a01b03909116906316faecec906125f4907f0000000000000000000000000000000000000000000000000000000000000000907f000000000000000000000000000000000000000000000000000000000000000090600190600401612f97565b600060405180830381600087803b15801561260e57600080fd5b505af1158015612622573d6000803e3d6000fd5b50506040518381526001600160a01b037f00000000000000000000000000000000000000000000000000000000000000001692503391507fb68163184d017d69dff908f587b51f68dc2689426509efd546fbf77b518cc8769060200160405180910390a350565b6000816001600160a01b0316636f307dc36040518163ffffffff1660e01b8152600401602060405180830381865afa1580156126c9573d6000803e3d6000fd5b505050506040513d601f19601f820116820180604052508101906126ed9190612e9e565b6040516370a0823160e01b81523060048201529091506000906001600160a01b038316906370a0823190602401602060405180830381865afa158015612737573d6000803e3d6000fd5b505050506040513d601f19601f8201168201806040525081019061275b9190612d49565b60cf54909150612778906001600160a01b03848116911683612a2e565b60cf546040516305bebb3b60e21b81526001600160a01b03909116906316faecec906127cd907f0000000000000000000000000000000000000000000000000000000000000000908690600190600401612f97565b600060405180830381600087803b1580156127e757600080fd5b505af11580156127fb573d6000803e3d6000fd5b50506040518381526001600160a01b03851692503391507fb68163184d017d69dff908f587b51f68dc2689426509efd546fbf77b518cc8769060200160405180910390a3505050565b603380546001600160a01b038381166001600160a01b0319831681179093556040519116919082907f8be0079c531659141344cd1fd0a4f28419497f9722a3daafe3b4186f6b6457e090600090a35050565b600054610100900460ff166128bd5760405162461bcd60e51b81526004016106b390612f0b565b610c76612a5e565b600054610100900460ff166128ec5760405162461bcd60e51b81526004016106b390612f0b565b610c76612a8e565b600054610100900460ff1661291b5760405162461bcd60e51b81526004016106b390612f0b565b61292482611fca565b60c98290556113778161149b565b600054610100900460ff166106fb5760405162461bcd60e51b81526004016106b390612f0b565b60006129ae826040518060400160405280602081526020017f5361666545524332303a206c6f772d6c6576656c2063616c6c206661696c6564815250856001600160a01b0316612ab59092919063ffffffff16565b90508051600014806129cf5750808060200190518101906129cf9190612e0b565b611fa55760405162461bcd60e51b815260206004820152602a60248201527f5361666545524332303a204552433230206f7065726174696f6e20646964206e6044820152691bdd081cdd58d8d9595960b21b60648201526084016106b3565b6040516001600160a01b038316602482015260448101829052611fa590849063a9059cbb60e01b9060640161210c565b600054610100900460ff16612a855760405162461bcd60e51b81526004016106b390612f0b565b610c7633611fb1565b600054610100900460ff16611faa5760405162461bcd60e51b81526004016106b390612f0b565b606061237d848460008585600080866001600160a01b03168587604051612adc9190612fcd565b60006040518083038185875af1925050503d8060008114612b19576040519150601f19603f3d011682016040523d82523d6000602084013e612b1e565b606091505b5091509150612b2f87838387612b3a565b979650505050505050565b60608315612ba9578251600003612ba2576001600160a01b0385163b612ba25760405162461bcd60e51b815260206004820152601d60248201527f416464726573733a2063616c6c20746f206e6f6e2d636f6e747261637400000060448201526064016106b3565b508161237d565b61237d8383815115612bbe5781518083602001fd5b8060405162461bcd60e51b81526004016106b39190612fe9565b6001600160a01b038116811461070457600080fd5b600060208284031215612bff57600080fd5b8135612c0a81612bd8565b9392505050565b60008060408385031215612c2457600080fd5b8235612c2f81612bd8565b91506020830135612c3f81612bd8565b809150509250929050565b60008060008060808587031215612c6057600080fd5b8435612c6b81612bd8565b93506020850135612c7b81612bd8565b9250604085013591506060850135612c9281612bd8565b939692955090935050565b600060208284031215612caf57600080fd5b5035919050565b600080600060608486031215612ccb57600080fd5b833592506020840135612cdd81612bd8565b91506040840135612ced81612bd8565b809150509250925092565b80518015158114612d0857600080fd5b919050565b600080600060608486031215612d2257600080fd5b612d2b84612cf8565b925060208401519150612d4060408501612cf8565b90509250925092565b600060208284031215612d5b57600080fd5b5051919050565b634e487b7160e01b600052601160045260246000fd5b600082821015612d8a57612d8a612d62565b500390565b60005b83811015612daa578181015183820152602001612d92565b83811115610c705750506000910152565b60008151808452612dd3816020860160208601612d8f565b601f01601f19169290920160200192915050565b6001600160a01b038316815260406020820181905260009061237d90830184612dbb565b600060208284031215612e1d57600080fd5b612c0a82612cf8565b6001600160a01b03848116825283166020820152606060408201819052600090612e5290830184612dbb565b95945050505050565b634e487b7160e01b600052602160045260246000fd5b6001600160a01b03831681526040810160098310612e9157612e91612e5b565b8260208301529392505050565b600060208284031215612eb057600080fd5b8151612c0a81612bd8565b60008060408385031215612ece57600080fd5b505080516020909101519092909150565b634e487b7160e01b600052603260045260246000fd5b634e487b7160e01b600052603160045260246000fd5b6020808252602b908201527f496e697469616c697a61626c653a20636f6e7472616374206973206e6f74206960408201526a6e697469616c697a696e6760a81b606082015260800190565b6000816000190483118215151615612f7057612f70612d62565b500290565b600082612f9257634e487b7160e01b600052601260045260246000fd5b500490565b6001600160a01b038481168252831660208201526060810160028310612fbf57612fbf612e5b565b826040830152949350505050565b60008251612fdf818460208701612d8f565b9190910192915050565b602081526000612c0a6020830184612dbb56fe72656d6f766546726f6d416c6c6f776c69737428616464726573732c616464726573732973657450656e64696e6752656465656d4368756e6b4c656e6774682875696e7432353629a26469706673582212207cc0417f586ea3f17caaf21d5f6fe07edd06b2ffa297042a471350b01d5dc94164736f6c634300080d0033",
  "devdoc": {
    "kind": "dev",
    "methods": {
      "acceptOwnership()": {
        "details": "The new owner accepts the ownership transfer."
      },
      "addToAllowlist(address,address)": {
        "params": {
          "borrower": "The address of the liquidator"
        }
      },
      "constructor": {
        "custom:oz-upgrades-unsafe-allow": "constructor",
        "params": {
          "comptroller_": "The address of the Comptroller contract",
          "vBnb_": "The address of the VBNB",
          "wBNB_": "The address of wBNB"
        }
      },
      "initialize(uint256,address,address)": {
        "params": {
          "accessControlManager_": "address of access control manager",
          "protocolShareReserve_": "The address of the protocol share reserve contract",
          "treasuryPercentMantissa_": "Treasury share, scaled by 1e18 (e.g. 0.2 * 1e18 for 20%)"
        }
      },
      "liquidateBorrow(address,address,uint256,address)": {
        "params": {
          "borrower": "The address of the borrower",
          "repayAmount": "The amount to repay on behalf of the borrower",
          "vToken": "Borrowed vToken",
          "vTokenCollateral": "The collateral to seize"
        }
      },
      "owner()": {
        "details": "Returns the address of the current owner."
      },
      "pendingOwner()": {
        "details": "Returns the address of the pending owner."
      },
      "removeFromAllowlist(address,address)": {
        "params": {
          "borrower": "The address of the liquidator"
        }
      },
      "renounceOwnership()": {
        "details": "Leaves the contract without owner. It will not be possible to call `onlyOwner` functions. Can only be called by the current owner. NOTE: Renouncing ownership will leave the contract without an owner, thereby disabling any functionality that is only available to the owner."
      },
      "restrictLiquidation(address)": {
        "details": "Use {addTo,removeFrom}AllowList to configure the allowed addresses.",
        "params": {
          "borrower": "The address of the borrower"
        }
      },
      "setAccessControlManager(address)": {
        "custom:access": "Only Governance",
        "custom:event": "Emits NewAccessControlManager event",
        "details": "Admin function to set address of AccessControlManager",
        "params": {
          "accessControlManager_": "The new address of the AccessControlManager"
        }
      },
      "setMinLiquidatableVAI(uint256)": {
        "params": {
          "minLiquidatableVAI_": "New address for the access control"
        }
      },
      "setPendingRedeemChunkLength(uint256)": {
        "params": {
          "newLength_": "Length of the chunk"
        }
      },
      "setProtocolShareReserve(address)": {
        "params": {
          "protocolShareReserve_": "The address of the protocol share reserve contract"
        }
      },
      "setTreasuryPercent(uint256)": {
        "params": {
          "newTreasuryPercentMantissa": "New treasury percent (scaled by 10^18)."
        }
      },
      "transferOwnership(address)": {
        "details": "Starts the ownership transfer of the contract to a new account. Replaces the pending transfer if there is one. Can only be called by the current owner."
      },
      "unrestrictLiquidation(address)": {
        "details": "Does not impact the allowedLiquidatorsByAccount mapping for the borrower, just turns off the check.",
        "params": {
          "borrower": "The address of the borrower"
        }
      }
    },
    "stateVariables": {
      "MANTISSA_ONE": {
        "details": "A unit (literal one) in EXP_SCALE, usually used in additions/subtractions"
      },
      "comptroller": {
        "custom:oz-upgrades-unsafe-allow": "state-variable-immutable"
      },
      "vBnb": {
        "custom:oz-upgrades-unsafe-allow": "state-variable-immutable"
      },
      "vaiController": {
        "custom:oz-upgrades-unsafe-allow": "state-variable-immutable"
      },
      "wBNB": {
        "custom:oz-upgrades-unsafe-allow": "state-variable-immutable"
      }
    },
    "version": 1
  },
  "userdoc": {
    "errors": {
      "AllowlistEntryNotFound(address,address)": [
        {
          "notice": "Thrown if trying to remove a liquidator that is not in the allowedLiquidatorsByAccount mapping"
        }
      ],
      "AlreadyAllowed(address,address)": [
        {
          "notice": "Thrown if the liquidator is already in the allowedLiquidatorsByAccount mapping"
        }
      ],
      "AlreadyRestricted(address)": [
        {
          "notice": "Thrown if trying to restrict liquidations for an already restricted borrower"
        }
      ],
      "LiquidationFailed(uint256)": [
        {
          "notice": "Thrown if the liquidation is not successful (the error code is from TokenErrorReporter)"
        }
      ],
      "LiquidationNotAllowed(address,address)": [
        {
          "notice": "Thrown if the liquidation is restricted and the liquidator is not in the allowedLiquidatorsByAccount mapping"
        }
      ],
      "MarketNotListed(address)": [
        {
          "notice": "Thrown when vToken is not listed"
        }
      ],
      "NoRestrictionsExist(address)": [
        {
          "notice": "Thrown if trying to unrestrict liquidations for a borrower that is not restricted"
        }
      ],
      "TreasuryPercentTooHigh(uint256,uint256)": [
        {
          "notice": "Thrown if trying to set treasury percent larger than the liquidation profit"
        }
      ],
      "Unauthorized(address,address,string)": [
        {
          "notice": "Thrown when the action is prohibited by AccessControlManager"
        }
      ],
      "VAIDebtTooHigh(uint256,uint256)": [
        {
          "notice": "Thrown if trying to liquidate any token when VAI debt is too high"
        }
      ],
      "VTokenTransferFailed(address,address,uint256)": [
        {
          "notice": "Thrown if VToken transfer fails after the liquidation"
        }
      ],
      "WrongTransactionAmount(uint256,uint256)": [
        {
          "notice": "Thrown if BNB amount sent with the transaction doesn't correspond to the         intended BNB repayment"
        }
      ],
      "ZeroAddressNotAllowed()": [
        {
          "notice": "Thrown if the supplied address is a zero address where it is not allowed"
        }
      ]
    },
    "events": {
      "AllowlistEntryAdded(address,address)": {
        "notice": "Emitted when a liquidator is added to the allowedLiquidatorsByAccount mapping"
      },
      "AllowlistEntryRemoved(address,address)": {
        "notice": "Emitted when a liquidator is removed from the allowedLiquidatorsByAccount mapping"
      },
      "ForceVAILiquidationPaused(address)": {
        "notice": "Emitted when force liquidation is paused"
      },
      "ForceVAILiquidationResumed(address)": {
        "notice": "Emitted when force liquidation is resumed"
      },
      "LiquidateBorrowedTokens(address,address,uint256,address,address,uint256,uint256)": {
        "notice": "Emitted when a borrow is liquidated"
      },
      "LiquidationRestricted(address)": {
        "notice": "Emitted when the liquidation is restricted for a borrower"
      },
      "LiquidationRestrictionsDisabled(address)": {
        "notice": "Emitted when the liquidation restrictions are removed for a borrower"
      },
      "NewAccessControlManager(address,address)": {
        "notice": "Emitted when access control manager contract address is changed"
      },
      "NewLiquidationTreasuryPercent(uint256,uint256)": {
        "notice": "Emitted when the percent of the seized amount that goes to treasury changes."
      },
      "NewMinLiquidatableVAI(uint256,uint256)": {
        "notice": "Emitted when the amount of minLiquidatableVAI is updated"
      },
      "NewPendingRedeemChunkLength(uint256,uint256)": {
        "notice": "Emitted when the length of chunk gets updated"
      },
      "NewProtocolShareReserve(address,address)": {
        "notice": "Emitted when new address of protocol share reserve is set"
      },
      "ProtocolLiquidationIncentiveTransferred(address,address,uint256)": {
        "notice": "Emitted when reserves are reduced from liquidator contract to protocol share reserves"
      }
    },
    "kind": "user",
    "methods": {
      "accessControlManager()": {
        "notice": "Returns the address of the access control manager contract"
      },
      "addToAllowlist(address,address)": {
        "notice": "An admin function to add the liquidator to the allowedLiquidatorsByAccount mapping for a certain         borrower. If the liquidations are restricted, only liquidators from the         allowedLiquidatorsByAccount mapping can participate in liquidating the positions of this borrower."
      },
      "allowedLiquidatorsByAccount(address,address)": {
        "notice": "Mapping of addresses allowed to liquidate an account if liquidationRestricted[borrower] == true"
      },
      "comptroller()": {
        "notice": "Address of Venus Unitroller contract."
      },
      "constructor": {
        "notice": "Constructor for the implementation contract. Sets immutable variables."
      },
      "forceVAILiquidate()": {
        "notice": "check for liquidation of VAI"
      },
      "initialize(uint256,address,address)": {
        "notice": "Initializer for the implementation contract."
      },
      "liquidateBorrow(address,address,uint256,address)": {
        "notice": "Liquidates a borrow and splits the seized amount between protocol share reserve and         liquidator. The liquidators should use this interface instead of calling         vToken.liquidateBorrow(...) directly.Checks force VAI liquidation first; vToken should be address of vaiController if vaiDebt is greater than thresholdFor BNB borrows msg.value should be equal to repayAmount; otherwise msg.value      should be zero."
      },
      "liquidationRestricted(address)": {
        "notice": "Whether the liquidations are restricted to enabled allowedLiquidatorsByAccount addresses only"
      },
      "minLiquidatableVAI()": {
        "notice": "minimum amount of VAI liquidation threshold"
      },
      "pauseForceVAILiquidate()": {
        "notice": "Pause Force Liquidation of VAI"
      },
      "pendingRedeem(uint256)": {
        "notice": "assests whose redeem is pending to reduce reserves"
      },
      "protocolShareReserve()": {
        "notice": "protocol share reserve contract address"
      },
      "reduceReserves()": {
        "notice": "Reduce the reserves of the pending accumulated reserves"
      },
      "removeFromAllowlist(address,address)": {
        "notice": "An admin function to remove the liquidator from the allowedLiquidatorsByAccount mapping of a certain         borrower. If the liquidations are restricted, this liquidator will not be         able to liquidate the positions of this borrower."
      },
      "restrictLiquidation(address)": {
        "notice": "An admin function to restrict liquidations to allowed addresses only."
      },
      "resumeForceVAILiquidate()": {
        "notice": "Resume Force Liquidation of VAI"
      },
      "setAccessControlManager(address)": {
        "notice": "Sets the address of AccessControlManager"
      },
      "setMinLiquidatableVAI(uint256)": {
        "notice": "Sets the threshold for minimum amount of vaiLiquidate"
      },
      "setPendingRedeemChunkLength(uint256)": {
        "notice": "Length of the pendingRedeem array to be consider while redeeming in Liquidation transaction"
      },
      "setProtocolShareReserve(address)": {
        "notice": "Sets protocol share reserve contract address"
      },
      "setTreasuryPercent(uint256)": {
        "notice": "Sets the new percent of the seized amount that goes to treasury. Should         be less than or equal to comptroller.liquidationIncentiveMantissa().sub(1e18)."
      },
      "treasuryPercentMantissa()": {
        "notice": "Percent of seized amount that goes to treasury."
      },
      "unrestrictLiquidation(address)": {
        "notice": "An admin function to remove restrictions for liquidations."
      },
      "vBnb()": {
        "notice": "Address of vBNB contract."
      },
      "vaiController()": {
        "notice": "Address of VAIUnitroller contract."
      },
      "wBNB()": {
        "notice": "Address of wBNB contract"
      }
    },
    "version": 1
  },
  "storageLayout": {
    "storage": [
      {
        "astId": 244,
        "contract": "contracts/Liquidator/Liquidator.sol:Liquidator",
        "label": "_initialized",
        "offset": 0,
        "slot": "0",
        "type": "t_uint8"
      },
      {
        "astId": 247,
        "contract": "contracts/Liquidator/Liquidator.sol:Liquidator",
        "label": "_initializing",
        "offset": 1,
        "slot": "0",
        "type": "t_bool"
      },
      {
        "astId": 1351,
        "contract": "contracts/Liquidator/Liquidator.sol:Liquidator",
        "label": "__gap",
        "offset": 0,
        "slot": "1",
        "type": "t_array(t_uint256)50_storage"
      },
      {
        "astId": 116,
        "contract": "contracts/Liquidator/Liquidator.sol:Liquidator",
        "label": "_owner",
        "offset": 0,
        "slot": "51",
        "type": "t_address"
      },
      {
        "astId": 236,
        "contract": "contracts/Liquidator/Liquidator.sol:Liquidator",
        "label": "__gap",
        "offset": 0,
        "slot": "52",
        "type": "t_array(t_uint256)49_storage"
      },
      {
        "astId": 25,
        "contract": "contracts/Liquidator/Liquidator.sol:Liquidator",
        "label": "_pendingOwner",
        "offset": 0,
        "slot": "101",
        "type": "t_address"
      },
      {
        "astId": 104,
        "contract": "contracts/Liquidator/Liquidator.sol:Liquidator",
        "label": "__gap",
        "offset": 0,
        "slot": "102",
        "type": "t_array(t_uint256)49_storage"
      },
      {
        "astId": 420,
        "contract": "contracts/Liquidator/Liquidator.sol:Liquidator",
        "label": "_status",
        "offset": 0,
        "slot": "151",
        "type": "t_uint256"
      },
      {
        "astId": 489,
        "contract": "contracts/Liquidator/Liquidator.sol:Liquidator",
        "label": "__gap",
        "offset": 0,
        "slot": "152",
        "type": "t_array(t_uint256)49_storage"
      },
      {
        "astId": 5513,
        "contract": "contracts/Liquidator/Liquidator.sol:Liquidator",
        "label": "treasuryPercentMantissa",
        "offset": 0,
        "slot": "201",
        "type": "t_uint256"
      },
      {
        "astId": 5520,
        "contract": "contracts/Liquidator/Liquidator.sol:Liquidator",
        "label": "allowedLiquidatorsByAccount",
        "offset": 0,
        "slot": "202",
        "type": "t_mapping(t_address,t_mapping(t_address,t_bool))"
      },
      {
        "astId": 5525,
        "contract": "contracts/Liquidator/Liquidator.sol:Liquidator",
        "label": "liquidationRestricted",
        "offset": 0,
        "slot": "203",
        "type": "t_mapping(t_address,t_bool)"
      },
      {
        "astId": 5528,
        "contract": "contracts/Liquidator/Liquidator.sol:Liquidator",
        "label": "minLiquidatableVAI",
        "offset": 0,
        "slot": "204",
        "type": "t_uint256"
      },
      {
        "astId": 5531,
        "contract": "contracts/Liquidator/Liquidator.sol:Liquidator",
        "label": "forceVAILiquidate",
        "offset": 0,
        "slot": "205",
        "type": "t_bool"
      },
      {
        "astId": 5535,
        "contract": "contracts/Liquidator/Liquidator.sol:Liquidator",
        "label": "pendingRedeem",
        "offset": 0,
        "slot": "206",
        "type": "t_array(t_address)dyn_storage"
      },
      {
        "astId": 5538,
        "contract": "contracts/Liquidator/Liquidator.sol:Liquidator",
        "label": "protocolShareReserve",
        "offset": 0,
        "slot": "207",
        "type": "t_address"
      },
      {
        "astId": 5541,
        "contract": "contracts/Liquidator/Liquidator.sol:Liquidator",
        "label": "pendingRedeemChunkLength",
        "offset": 0,
        "slot": "208",
        "type": "t_uint256"
      },
      {
        "astId": 5546,
        "contract": "contracts/Liquidator/Liquidator.sol:Liquidator",
        "label": "__gap",
        "offset": 0,
        "slot": "209",
        "type": "t_array(t_uint256)49_storage"
      },
      {
        "astId": 2907,
        "contract": "contracts/Liquidator/Liquidator.sol:Liquidator",
        "label": "_accessControlManager",
        "offset": 0,
        "slot": "258",
        "type": "t_contract(IAccessControlManagerV8)3092"
      },
      {
        "astId": 2912,
        "contract": "contracts/Liquidator/Liquidator.sol:Liquidator",
        "label": "__gap",
        "offset": 0,
        "slot": "259",
        "type": "t_array(t_uint256)49_storage"
      }
    ],
    "types": {
      "t_address": {
        "encoding": "inplace",
        "label": "address",
        "numberOfBytes": "20"
      },
      "t_array(t_address)dyn_storage": {
        "base": "t_address",
        "encoding": "dynamic_array",
        "label": "address[]",
        "numberOfBytes": "32"
      },
      "t_array(t_uint256)49_storage": {
        "base": "t_uint256",
        "encoding": "inplace",
        "label": "uint256[49]",
        "numberOfBytes": "1568"
      },
      "t_array(t_uint256)50_storage": {
        "base": "t_uint256",
        "encoding": "inplace",
        "label": "uint256[50]",
        "numberOfBytes": "1600"
      },
      "t_bool": {
        "encoding": "inplace",
        "label": "bool",
        "numberOfBytes": "1"
      },
      "t_contract(IAccessControlManagerV8)3092": {
        "encoding": "inplace",
        "label": "contract IAccessControlManagerV8",
        "numberOfBytes": "20"
      },
      "t_mapping(t_address,t_bool)": {
        "encoding": "mapping",
        "key": "t_address",
        "label": "mapping(address => bool)",
        "numberOfBytes": "32",
        "value": "t_bool"
      },
      "t_mapping(t_address,t_mapping(t_address,t_bool))": {
        "encoding": "mapping",
        "key": "t_address",
        "label": "mapping(address => mapping(address => bool))",
        "numberOfBytes": "32",
        "value": "t_mapping(t_address,t_bool)"
      },
      "t_uint256": {
        "encoding": "inplace",
        "label": "uint256",
        "numberOfBytes": "32"
      },
      "t_uint8": {
        "encoding": "inplace",
        "label": "uint8",
        "numberOfBytes": "1"
      }
    }
  }
}