{
  "address": "0x8439932C45e646FcC1009690417A65BF48f68Ce7",
  "abi": [
    {
      "inputs": [
        {
          "internalType": "address",
          "name": "newBorrower_",
          "type": "address"
        }
      ],
      "stateMutability": "nonpayable",
      "type": "constructor"
    },
    {
      "inputs": [],
      "name": "ApproveFailed",
      "type": "error"
    },
    {
      "inputs": [
        {
          "internalType": "uint256",
          "name": "errorCode",
          "type": "uint256"
        }
      ],
      "name": "BorrowFailed",
      "type": "error"
    },
    {
      "inputs": [
        {
          "internalType": "address",
          "name": "vToken",
          "type": "address"
        }
      ],
      "name": "BorrowNotAllowed",
      "type": "error"
    },
    {
      "inputs": [],
      "name": "ComptrollerMismatch",
      "type": "error"
    },
    {
      "inputs": [
        {
          "internalType": "uint256",
          "name": "errorCode",
          "type": "uint256"
        }
      ],
      "name": "RepaymentFailed",
      "type": "error"
    },
    {
      "inputs": [
        {
          "internalType": "address",
          "name": "vToken",
          "type": "address"
        },
        {
          "internalType": "address",
          "name": "borrower",
          "type": "address"
        }
      ],
      "name": "RepaymentNotAllowed",
      "type": "error"
    },
    {
      "inputs": [],
      "name": "ZeroAddressNotAllowed",
      "type": "error"
    },
    {
      "anonymous": false,
      "inputs": [
        {
          "indexed": true,
          "internalType": "address",
          "name": "vTokenToBorrow",
          "type": "address"
        },
        {
          "indexed": false,
          "internalType": "bool",
          "name": "allowed",
          "type": "bool"
        }
      ],
      "name": "BorrowAllowedSet",
      "type": "event"
    },
    {
      "anonymous": false,
      "inputs": [
        {
          "indexed": true,
          "internalType": "address",
          "name": "originalBorrower",
          "type": "address"
        },
        {
          "indexed": true,
          "internalType": "address",
          "name": "vTokenRepaid",
          "type": "address"
        },
        {
          "indexed": false,
          "internalType": "uint256",
          "name": "repaidAmount",
          "type": "uint256"
        },
        {
          "indexed": false,
          "internalType": "address",
          "name": "newBorrower",
          "type": "address"
        },
        {
          "indexed": true,
          "internalType": "address",
          "name": "vTokenBorrowed",
          "type": "address"
        },
        {
          "indexed": false,
          "internalType": "uint256",
          "name": "borrowedAmount",
          "type": "uint256"
        }
      ],
      "name": "DebtMoved",
      "type": "event"
    },
    {
      "anonymous": false,
      "inputs": [
        {
          "indexed": false,
          "internalType": "uint8",
          "name": "version",
          "type": "uint8"
        }
      ],
      "name": "Initialized",
      "type": "event"
    },
    {
      "anonymous": false,
      "inputs": [
        {
          "indexed": true,
          "internalType": "address",
          "name": "previousOwner",
          "type": "address"
        },
        {
          "indexed": true,
          "internalType": "address",
          "name": "newOwner",
          "type": "address"
        }
      ],
      "name": "OwnershipTransferStarted",
      "type": "event"
    },
    {
      "anonymous": false,
      "inputs": [
        {
          "indexed": true,
          "internalType": "address",
          "name": "previousOwner",
          "type": "address"
        },
        {
          "indexed": true,
          "internalType": "address",
          "name": "newOwner",
          "type": "address"
        }
      ],
      "name": "OwnershipTransferred",
      "type": "event"
    },
    {
      "anonymous": false,
      "inputs": [
        {
          "indexed": true,
          "internalType": "address",
          "name": "vTokenToRepay",
          "type": "address"
        },
        {
          "indexed": true,
          "internalType": "address",
          "name": "originalBorrower",
          "type": "address"
        },
        {
          "indexed": false,
          "internalType": "bool",
          "name": "allowed",
          "type": "bool"
        }
      ],
      "name": "RepaymentAllowedSet",
      "type": "event"
    },
    {
      "anonymous": false,
      "inputs": [
        {
          "indexed": true,
          "internalType": "address",
          "name": "token",
          "type": "address"
        },
        {
          "indexed": false,
          "internalType": "uint256",
          "name": "amount",
          "type": "uint256"
        }
      ],
      "name": "SweptTokens",
      "type": "event"
    },
    {
      "inputs": [],
      "name": "ANY_USER",
      "outputs": [
        {
          "internalType": "address",
          "name": "",
          "type": "address"
        }
      ],
      "stateMutability": "view",
      "type": "function"
    },
    {
      "inputs": [],
      "name": "acceptOwnership",
      "outputs": [],
      "stateMutability": "nonpayable",
      "type": "function"
    },
    {
      "inputs": [
        {
          "internalType": "address",
          "name": "",
          "type": "address"
        }
      ],
      "name": "borrowAllowed",
      "outputs": [
        {
          "internalType": "bool",
          "name": "",
          "type": "bool"
        }
      ],
      "stateMutability": "view",
      "type": "function"
    },
    {
      "inputs": [],
      "name": "initialize",
      "outputs": [],
      "stateMutability": "nonpayable",
      "type": "function"
    },
    {
      "inputs": [
        {
          "internalType": "contract IVBep20",
          "name": "vTokenToRepay",
          "type": "address"
        },
        {
          "internalType": "address",
          "name": "originalBorrower",
          "type": "address"
        },
        {
          "internalType": "uint256",
          "name": "repayAmount",
          "type": "uint256"
        },
        {
          "internalType": "contract IVBep20",
          "name": "vTokenToBorrow",
          "type": "address"
        }
      ],
      "name": "moveDebt",
      "outputs": [],
      "stateMutability": "nonpayable",
      "type": "function"
    },
    {
      "inputs": [],
      "name": "newBorrower",
      "outputs": [
        {
          "internalType": "address",
          "name": "",
          "type": "address"
        }
      ],
      "stateMutability": "view",
      "type": "function"
    },
    {
      "inputs": [],
      "name": "owner",
      "outputs": [
        {
          "internalType": "address",
          "name": "",
          "type": "address"
        }
      ],
      "stateMutability": "view",
      "type": "function"
    },
    {
      "inputs": [],
      "name": "pendingOwner",
      "outputs": [
        {
          "internalType": "address",
          "name": "",
          "type": "address"
        }
      ],
      "stateMutability": "view",
      "type": "function"
    },
    {
      "inputs": [],
      "name": "renounceOwnership",
      "outputs": [],
      "stateMutability": "nonpayable",
      "type": "function"
    },
    {
      "inputs": [
        {
          "internalType": "address",
          "name": "",
          "type": "address"
        },
        {
          "internalType": "address",
          "name": "",
          "type": "address"
        }
      ],
      "name": "repaymentAllowed",
      "outputs": [
        {
          "internalType": "bool",
          "name": "",
          "type": "bool"
        }
      ],
      "stateMutability": "view",
      "type": "function"
    },
    {
      "inputs": [
        {
          "internalType": "address",
          "name": "vTokenToBorrow",
          "type": "address"
        },
        {
          "internalType": "bool",
          "name": "allow",
          "type": "bool"
        }
      ],
      "name": "setBorrowAllowed",
      "outputs": [],
      "stateMutability": "nonpayable",
      "type": "function"
    },
    {
      "inputs": [
        {
          "internalType": "address",
          "name": "vTokenToRepay",
          "type": "address"
        },
        {
          "internalType": "address",
          "name": "originalBorrower",
          "type": "address"
        },
        {
          "internalType": "bool",
          "name": "allow",
          "type": "bool"
        }
      ],
      "name": "setRepaymentAllowed",
      "outputs": [],
      "stateMutability": "nonpayable",
      "type": "function"
    },
    {
      "inputs": [
        {
          "internalType": "contract IERC20Upgradeable",
          "name": "token",
          "type": "address"
        }
      ],
      "name": "sweepTokens",
      "outputs": [],
      "stateMutability": "nonpayable",
      "type": "function"
    },
    {
      "inputs": [
        {
          "internalType": "address",
          "name": "newOwner",
          "type": "address"
        }
      ],
      "name": "transferOwnership",
      "outputs": [],
      "stateMutability": "nonpayable",
      "type": "function"
    }
  ],
  "transactionHash": "0x58ff57999d0d1e70a9662e3a010abade460bafa8923e0a15e0a4305fb0734111",
  "args": [
    "0x489A8756C18C0b8B24EC2a2b9FF3D4d447F79BEc"
  ],
  "numDeployments": 2,
  "solcInputHash": "1dff3b4c1e459128170e9af3e75c7e17",
  "bytecode": "0x60a06040523480156200001157600080fd5b50604051620019f0380380620019f0833981016040819052620000349162000113565b6001600160a01b0381166080526200004b62000052565b5062000145565b600054610100900460ff1615620000bf5760405162461bcd60e51b815260206004820152602760248201527f496e697469616c697a61626c653a20636f6e747261637420697320696e697469604482015266616c697a696e6760c81b606482015260840160405180910390fd5b60005460ff9081161462000111576000805460ff191660ff9081179091556040519081527f7f26b83ff96e1f2b6a682f133852f6798a09c465da95921460cefb38474024989060200160405180910390a15b565b6000602082840312156200012657600080fd5b81516001600160a01b03811681146200013e57600080fd5b9392505050565b6080516118816200016f6000396000818161011c015281816103420152610eae01526118816000f3fe608060405234801561001057600080fd5b50600436106100ea5760003560e01c80638129fc1c1161008c578063e30c397811610066578063e30c3978146101d2578063f1e3c547146101e3578063f2fde38b14610211578063f5f6d3af1461022457600080fd5b80638129fc1c146101a65780638da5cb5b146101ae578063929f0e4b146101bf57600080fd5b806346b119a4116100c857806346b119a41461015b578063715018a61461018e57806379ba5097146101965780637d0ed4da1461019e57600080fd5b806311cbba09146100ef578063227661cb146101045780634162771414610117575b600080fd5b6101026100fd36600461158d565b610237565b005b6101026101123660046115ee565b6103ba565b61013e7f000000000000000000000000000000000000000000000000000000000000000081565b6040516001600160a01b0390911681526020015b60405180910390f35b61017e610169366004611627565b60c96020526000908152604090205460ff1681565b6040519015158152602001610152565b610102610452565b610102610466565b61013e600181565b6101026104e0565b6033546001600160a01b031661013e565b6101026101cd36600461164b565b6105f8565b6065546001600160a01b031661013e565b61017e6101f1366004611696565b60ca60209081526000928352604080842090915290825290205460ff1681565b61010261021f366004611627565b6106b3565b610102610232366004611627565b610724565b61023f6107fa565b6001600160a01b038116600090815260c9602052604090205460ff16610288576040516312ee446d60e21b81526001600160a01b03821660048201526024015b60405180910390fd5b6001600160a01b038416600090815260ca6020908152604080832060018452918290529091205460ff161580156102d857506001600160a01b03841660009081526020829052604090205460ff16155b156103095760405163cf3aeddd60e01b81526001600160a01b0380871660048301528516602482015260440161027f565b6000610316868686610853565b90506000610325878584610b67565b90506103318482610dc5565b604080518381526001600160a01b037f0000000000000000000000000000000000000000000000000000000000000000811660208301529181018390528582169189811691908916907f833ea3dd2030d9e59d6339e1396b89485751296c537f1f863e5aa23d17f29d589060600160405180910390a45050506103b46001609755565b50505050565b6103c2610ff3565b6103cb8261104d565b6001600160a01b038216600090815260c9602052604090205460ff1615158115151461044e576001600160a01b038216600081815260c96020908152604091829020805460ff191685151590811790915591519182527f6c91f18e23863dbfc4ad61ae0f28a4e746dcc4faefa2ec384020e9728c3754b291015b60405180910390a25b5050565b61045a610ff3565b6104646000611074565b565b60655433906001600160a01b031681146104d45760405162461bcd60e51b815260206004820152602960248201527f4f776e61626c6532537465703a2063616c6c6572206973206e6f7420746865206044820152683732bb9037bbb732b960b91b606482015260840161027f565b6104dd81611074565b50565b600054610100900460ff16158080156105005750600054600160ff909116105b8061051a5750303b15801561051a575060005460ff166001145b61057d5760405162461bcd60e51b815260206004820152602e60248201527f496e697469616c697a61626c653a20636f6e747261637420697320616c72656160448201526d191e481a5b9a5d1a585b1a5e995960921b606482015260840161027f565b6000805460ff1916600117905580156105a0576000805461ff0019166101001790555b6105a861108d565b6105b06110bc565b80156104dd576000805461ff0019169055604051600181527f7f26b83ff96e1f2b6a682f133852f6798a09c465da95921460cefb38474024989060200160405180910390a150565b610600610ff3565b6106098361104d565b6106128261104d565b6001600160a01b03808416600090815260ca602090815260408083209386168352929052205460ff161515811515146106ae576001600160a01b03838116600081815260ca6020908152604080832094871680845294825291829020805460ff191686151590811790915591519182527f011e47116ecd03b7ff3432b8c64a99ef03fedfcfc9c8e637e6d31b5a20d6b109910160405180910390a35b505050565b6106bb610ff3565b606580546001600160a01b0383166001600160a01b031990911681179091556106ec6033546001600160a01b031690565b6001600160a01b03167f38d16b8cac22d99fc7c124b9cd0de2d3fa1faef420bfe791d8c362d765e2270060405160405180910390a350565b61072c610ff3565b6040516370a0823160e01b81523060048201526000906001600160a01b038316906370a0823190602401602060405180830381865afa158015610773573d6000803e3d6000fd5b505050506040513d601f19601f8201168201806040525081019061079791906116c4565b90506107bf6107ae6033546001600160a01b031690565b6001600160a01b03841690836110eb565b816001600160a01b03167ff1156aae74417f7d02b9defe4b9aaf1190f2c7412655278e6bf3ee42fce77c558260405161044591815260200190565b60026097540361084c5760405162461bcd60e51b815260206004820152601f60248201527f5265656e7472616e637947756172643a207265656e7472616e742063616c6c00604482015260640161027f565b6002609755565b600080846001600160a01b0316636f307dc36040518163ffffffff1660e01b8152600401602060405180830381865afa158015610894573d6000803e3d6000fd5b505050506040513d601f19601f820116820180604052508101906108b891906116dd565b6040516370a0823160e01b81523060048201529091506000906001600160a01b038316906370a0823190602401602060405180830381865afa158015610902573d6000803e3d6000fd5b505050506040513d601f19601f8201168201806040525081019061092691906116c4565b905061093d6001600160a01b03831633308761114e565b6040516370a0823160e01b81523060048201526000906001600160a01b038416906370a0823190602401602060405180830381865afa158015610984573d6000803e3d6000fd5b505050506040513d601f19601f820116820180604052508101906109a891906116c4565b905060006109b68383611710565b6040516305eff7ef60e21b81526001600160a01b0389811660048301529192506000918a16906317bfdfbc906024016020604051808303816000875af1158015610a04573d6000803e3d6000fd5b505050506040513d601f19601f82011682018060405250810190610a2891906116c4565b9050610a35858a84611186565b6040516304c11f0360e31b81526001600160a01b03898116600483015260248201849052600091908b1690632608f818906044016020604051808303816000875af1158015610a88573d6000803e3d6000fd5b505050506040513d601f19601f82011682018060405250810190610aac91906116c4565b90508015610ad05760405163259aff3560e01b81526004810182905260240161027f565b610adc868b6000611186565b6040516305eff7ef60e21b81526001600160a01b038a81166004830152600091908c16906317bfdfbc906024016020604051808303816000875af1158015610b28573d6000803e3d6000fd5b505050506040513d601f19601f82011682018060405250810190610b4c91906116c4565b9050610b588184611710565b9b9a5050505050505050505050565b600080846001600160a01b0316635fe3b5676040518163ffffffff1660e01b8152600401602060405180830381865afa158015610ba8573d6000803e3d6000fd5b505050506040513d601f19601f82011682018060405250810190610bcc91906116dd565b9050836001600160a01b0316635fe3b5676040518163ffffffff1660e01b8152600401602060405180830381865afa158015610c0c573d6000803e3d6000fd5b505050506040513d601f19601f82011682018060405250810190610c3091906116dd565b6001600160a01b0316816001600160a01b031614610c6157604051630c73eb0560e01b815260040160405180910390fd5b6000816001600160a01b0316637dc0d1d06040518163ffffffff1660e01b8152600401602060405180830381865afa158015610ca1573d6000803e3d6000fd5b505050506040513d601f19601f82011682018060405250810190610cc591906116dd565b60405163fc57d4df60e01b81526001600160a01b03888116600483015291925060009186919084169063fc57d4df90602401602060405180830381865afa158015610d14573d6000803e3d6000fd5b505050506040513d601f19601f82011682018060405250810190610d3891906116c4565b610d429190611727565b60405163fc57d4df60e01b81526001600160a01b0388811660048301529192509083169063fc57d4df90602401602060405180830381865afa158015610d8c573d6000803e3d6000fd5b505050506040513d601f19601f82011682018060405250810190610db091906116c4565b610dba9082611746565b979650505050505050565b6000826001600160a01b0316636f307dc36040518163ffffffff1660e01b8152600401602060405180830381865afa158015610e05573d6000803e3d6000fd5b505050506040513d601f19601f82011682018060405250810190610e2991906116dd565b6040516370a0823160e01b81523060048201529091506000906001600160a01b038316906370a0823190602401602060405180830381865afa158015610e73573d6000803e3d6000fd5b505050506040513d601f19601f82011682018060405250810190610e9791906116c4565b60405163856e5bb360e01b81526001600160a01b037f0000000000000000000000000000000000000000000000000000000000000000811660048301526024820186905291925060009186169063856e5bb3906044016020604051808303816000875af1158015610f0c573d6000803e3d6000fd5b505050506040513d601f19601f82011682018060405250810190610f3091906116c4565b90508015610f545760405163158f1c0f60e01b81526004810182905260240161027f565b6040516370a0823160e01b81523060048201526000906001600160a01b038516906370a0823190602401602060405180830381865afa158015610f9b573d6000803e3d6000fd5b505050506040513d601f19601f82011682018060405250810190610fbf91906116c4565b90506000610fcd8483611710565b9050610fe36001600160a01b03861633836110eb565b50505050505050565b6001609755565b6033546001600160a01b031633146104645760405162461bcd60e51b815260206004820181905260248201527f4f776e61626c653a2063616c6c6572206973206e6f7420746865206f776e6572604482015260640161027f565b6001600160a01b0381166104dd576040516342bcdf7f60e11b815260040160405180910390fd5b606580546001600160a01b03191690556104dd8161127a565b600054610100900460ff166110b45760405162461bcd60e51b815260040161027f90611768565b6104646112cc565b600054610100900460ff166110e35760405162461bcd60e51b815260040161027f90611768565b6104646112fc565b6040516001600160a01b0383166024820152604481018290526106ae90849063a9059cbb60e01b906064015b60408051601f198184030181529190526020810180516001600160e01b03166001600160e01b031990931692909217909152611323565b6040516001600160a01b03808516602483015283166044820152606481018290526103b49085906323b872dd60e01b90608401611117565b604080516001600160a01b038481166024830152604480830185905283518084039091018152606490920183526020820180516001600160e01b031663095ea7b360e01b1790529151909160009182918716906111e49085906117df565b6000604051808303816000865af19150503d8060008114611221576040519150601f19603f3d011682016040523d82523d6000602084013e611226565b606091505b5091509150811580611254575080511580159061125457508080602001905181019061125291906117fb565b155b1561127257604051633e3f8f7360e01b815260040160405180910390fd5b505050505050565b603380546001600160a01b038381166001600160a01b0319831681179093556040519116919082907f8be0079c531659141344cd1fd0a4f28419497f9722a3daafe3b4186f6b6457e090600090a35050565b600054610100900460ff166112f35760405162461bcd60e51b815260040161027f90611768565b61046433611074565b600054610100900460ff16610fec5760405162461bcd60e51b815260040161027f90611768565b6000611378826040518060400160405280602081526020017f5361666545524332303a206c6f772d6c6576656c2063616c6c206661696c6564815250856001600160a01b03166113f89092919063ffffffff16565b905080516000148061139957508080602001905181019061139991906117fb565b6106ae5760405162461bcd60e51b815260206004820152602a60248201527f5361666545524332303a204552433230206f7065726174696f6e20646964206e6044820152691bdd081cdd58d8d9595960b21b606482015260840161027f565b6060611407848460008561140f565b949350505050565b6060824710156114705760405162461bcd60e51b815260206004820152602660248201527f416464726573733a20696e73756666696369656e742062616c616e636520666f6044820152651c8818d85b1b60d21b606482015260840161027f565b600080866001600160a01b0316858760405161148c91906117df565b60006040518083038185875af1925050503d80600081146114c9576040519150601f19603f3d011682016040523d82523d6000602084013e6114ce565b606091505b5091509150610dba8783838760608315611549578251600003611542576001600160a01b0385163b6115425760405162461bcd60e51b815260206004820152601d60248201527f416464726573733a2063616c6c20746f206e6f6e2d636f6e7472616374000000604482015260640161027f565b5081611407565b611407838381511561155e5781518083602001fd5b8060405162461bcd60e51b815260040161027f9190611818565b6001600160a01b03811681146104dd57600080fd5b600080600080608085870312156115a357600080fd5b84356115ae81611578565b935060208501356115be81611578565b92506040850135915060608501356115d581611578565b939692955090935050565b80151581146104dd57600080fd5b6000806040838503121561160157600080fd5b823561160c81611578565b9150602083013561161c816115e0565b809150509250929050565b60006020828403121561163957600080fd5b813561164481611578565b9392505050565b60008060006060848603121561166057600080fd5b833561166b81611578565b9250602084013561167b81611578565b9150604084013561168b816115e0565b809150509250925092565b600080604083850312156116a957600080fd5b82356116b481611578565b9150602083013561161c81611578565b6000602082840312156116d657600080fd5b5051919050565b6000602082840312156116ef57600080fd5b815161164481611578565b634e487b7160e01b600052601160045260246000fd5b600082821015611722576117226116fa565b500390565b6000816000190483118215151615611741576117416116fa565b500290565b60008261176357634e487b7160e01b600052601260045260246000fd5b500490565b6020808252602b908201527f496e697469616c697a61626c653a20636f6e7472616374206973206e6f74206960408201526a6e697469616c697a696e6760a81b606082015260800190565b60005b838110156117ce5781810151838201526020016117b6565b838111156103b45750506000910152565b600082516117f18184602087016117b3565b9190910192915050565b60006020828403121561180d57600080fd5b8151611644816115e0565b60208152600082518060208401526118378160408501602087016117b3565b601f01601f1916919091016040019291505056fea2646970667358221220a47705f55271e76cced4c09ecbb9e9fb3e92b2c5dfc6cd16d4176258da2fa06964736f6c634300080d0033",
  "devdoc": {
    "kind": "dev",
    "methods": {
      "acceptOwnership()": {
        "details": "The new owner accepts the ownership transfer."
      },
      "constructor": {
        "custom:oz-upgrades-unsafe-allow": "constructor",
        "params": {
          "newBorrower_": "User to borrow on behalf of"
        }
      },
      "moveDebt(address,address,uint256,address)": {
        "params": {
          "originalBorrower": "The address of the borrower, whose debt to repay",
          "repayAmount": "The amount to repay in terms of vTokenToRepay.underlying()",
          "vTokenToBorrow": "VToken to borrow from",
          "vTokenToRepay": "VToken to repay to on behalf of originalBorrower"
        }
      },
      "owner()": {
        "details": "Returns the address of the current owner."
      },
      "pendingOwner()": {
        "details": "Returns the address of the pending owner."
      },
      "renounceOwnership()": {
        "details": "Leaves the contract without owner. It will not be possible to call `onlyOwner` functions. Can only be called by the current owner. NOTE: Renouncing ownership will leave the contract without an owner, thereby disabling any functionality that is only available to the owner."
      },
      "setBorrowAllowed(address,bool)": {
        "params": {
          "allow": "Whether to allow borrowing from the corresponding vToken",
          "vTokenToBorrow": "VToken to borrow from"
        }
      },
      "setRepaymentAllowed(address,address,bool)": {
        "params": {
          "allow": "Whether to allow repaying to the corresponding vToken on behalf of originalBorrower",
          "originalBorrower": "The address of the borrower, whose debt to repay (or ANY_USER to allow   repayments for all users in the market, e.g. if the market is going to be deprecated soon)",
          "vTokenToRepay": "VToken to repay to"
        }
      },
      "sweepTokens(address)": {
        "params": {
          "token": "ERC-20 token to sweep"
        }
      },
      "transferOwnership(address)": {
        "details": "Starts the ownership transfer of the contract to a new account. Replaces the pending transfer if there is one. Can only be called by the current owner."
      }
    },
    "stateVariables": {
      "NO_ERROR": {
        "details": "VToken return value signalling about successful execution"
      },
      "newBorrower": {
        "custom:oz-upgrades-unsafe-allow": "state-variable-immutable"
      }
    },
    "version": 1
  },
  "userdoc": {
    "errors": {
      "ApproveFailed()": [
        {
          "notice": "Thrown if a contract is unable to approve a transfer"
        }
      ],
      "BorrowFailed(uint256)": [
        {
          "notice": "Thrown if borrow fails with an error code"
        }
      ],
      "BorrowNotAllowed(address)": [
        {
          "notice": "Thrown if borrowing from the corresponding vToken is not allowed"
        }
      ],
      "ComptrollerMismatch()": [
        {
          "notice": "Thrown if VTokens' comptrollers are not equal"
        }
      ],
      "RepaymentFailed(uint256)": [
        {
          "notice": "Thrown if repayment fails with an error code"
        }
      ],
      "RepaymentNotAllowed(address,address)": [
        {
          "notice": "Thrown if repaying the debts of the borrower to the corresponding vToken is not allowed"
        }
      ],
      "ZeroAddressNotAllowed()": [
        {
          "notice": "Thrown if the supplied address is a zero address where it is not allowed"
        }
      ]
    },
    "events": {
      "BorrowAllowedSet(address,bool)": {
        "notice": "Emitted when vToken is allowed or denied to be borrowed from"
      },
      "DebtMoved(address,address,uint256,address,address,uint256)": {
        "notice": "Emitted if debt is swapped successfully"
      },
      "RepaymentAllowedSet(address,address,bool)": {
        "notice": "Emitted when vToken is allowed or denied to be borrowed from"
      },
      "SweptTokens(address,uint256)": {
        "notice": "Emitted when the owner transfers tokens, accidentially sent to this contract,   to their account"
      }
    },
    "kind": "user",
    "methods": {
      "ANY_USER()": {
        "notice": "A wildcard indicating that repayment is allowed for _any_ user in the market"
      },
      "borrowAllowed(address)": {
        "notice": "Whether to allow borrowing from the corresponding vToken"
      },
      "constructor": {
        "notice": "Constructor for the implementation contract. Sets immutable variables."
      },
      "moveDebt(address,address,uint256,address)": {
        "notice": "Repays originalBorrower's borrow in vTokenToRepay.underlying() and borrows   vTokenToBorrow.underlying() on behalf of newBorrower."
      },
      "newBorrower()": {
        "notice": "User to borrow on behalf of"
      },
      "repaymentAllowed(address,address)": {
        "notice": "Whether to allow repaying to the corresponding vToken on behalf of   a certain user. Use ANY_USER to check if repayment is allowed for any user."
      },
      "setBorrowAllowed(address,bool)": {
        "notice": "Allows or denies borrowing from the corresponding vToken"
      },
      "setRepaymentAllowed(address,address,bool)": {
        "notice": "Allows or denies repaying the debts of originalBorrower to the corresponding vToken"
      },
      "sweepTokens(address)": {
        "notice": "Transfers tokens, accidentially sent to this contract, to the owner"
      }
    },
    "version": 1
  },
  "storageLayout": {
    "storage": [
      {
        "astId": 244,
        "contract": "contracts/DelegateBorrowers/MoveDebtDelegate.sol:MoveDebtDelegate",
        "label": "_initialized",
        "offset": 0,
        "slot": "0",
        "type": "t_uint8"
      },
      {
        "astId": 247,
        "contract": "contracts/DelegateBorrowers/MoveDebtDelegate.sol:MoveDebtDelegate",
        "label": "_initializing",
        "offset": 1,
        "slot": "0",
        "type": "t_bool"
      },
      {
        "astId": 1351,
        "contract": "contracts/DelegateBorrowers/MoveDebtDelegate.sol:MoveDebtDelegate",
        "label": "__gap",
        "offset": 0,
        "slot": "1",
        "type": "t_array(t_uint256)50_storage"
      },
      {
        "astId": 116,
        "contract": "contracts/DelegateBorrowers/MoveDebtDelegate.sol:MoveDebtDelegate",
        "label": "_owner",
        "offset": 0,
        "slot": "51",
        "type": "t_address"
      },
      {
        "astId": 236,
        "contract": "contracts/DelegateBorrowers/MoveDebtDelegate.sol:MoveDebtDelegate",
        "label": "__gap",
        "offset": 0,
        "slot": "52",
        "type": "t_array(t_uint256)49_storage"
      },
      {
        "astId": 25,
        "contract": "contracts/DelegateBorrowers/MoveDebtDelegate.sol:MoveDebtDelegate",
        "label": "_pendingOwner",
        "offset": 0,
        "slot": "101",
        "type": "t_address"
      },
      {
        "astId": 104,
        "contract": "contracts/DelegateBorrowers/MoveDebtDelegate.sol:MoveDebtDelegate",
        "label": "__gap",
        "offset": 0,
        "slot": "102",
        "type": "t_array(t_uint256)49_storage"
      },
      {
        "astId": 420,
        "contract": "contracts/DelegateBorrowers/MoveDebtDelegate.sol:MoveDebtDelegate",
        "label": "_status",
        "offset": 0,
        "slot": "151",
        "type": "t_uint256"
      },
      {
        "astId": 489,
        "contract": "contracts/DelegateBorrowers/MoveDebtDelegate.sol:MoveDebtDelegate",
        "label": "__gap",
        "offset": 0,
        "slot": "152",
        "type": "t_array(t_uint256)49_storage"
      },
      {
        "astId": 1469,
        "contract": "contracts/DelegateBorrowers/MoveDebtDelegate.sol:MoveDebtDelegate",
        "label": "borrowAllowed",
        "offset": 0,
        "slot": "201",
        "type": "t_mapping(t_address,t_bool)"
      },
      {
        "astId": 1476,
        "contract": "contracts/DelegateBorrowers/MoveDebtDelegate.sol:MoveDebtDelegate",
        "label": "repaymentAllowed",
        "offset": 0,
        "slot": "202",
        "type": "t_mapping(t_address,t_mapping(t_address,t_bool))"
      }
    ],
    "types": {
      "t_address": {
        "encoding": "inplace",
        "label": "address",
        "numberOfBytes": "20"
      },
      "t_array(t_uint256)49_storage": {
        "base": "t_uint256",
        "encoding": "inplace",
        "label": "uint256[49]",
        "numberOfBytes": "1568"
      },
      "t_array(t_uint256)50_storage": {
        "base": "t_uint256",
        "encoding": "inplace",
        "label": "uint256[50]",
        "numberOfBytes": "1600"
      },
      "t_bool": {
        "encoding": "inplace",
        "label": "bool",
        "numberOfBytes": "1"
      },
      "t_mapping(t_address,t_bool)": {
        "encoding": "mapping",
        "key": "t_address",
        "label": "mapping(address => bool)",
        "numberOfBytes": "32",
        "value": "t_bool"
      },
      "t_mapping(t_address,t_mapping(t_address,t_bool))": {
        "encoding": "mapping",
        "key": "t_address",
        "label": "mapping(address => mapping(address => bool))",
        "numberOfBytes": "32",
        "value": "t_mapping(t_address,t_bool)"
      },
      "t_uint256": {
        "encoding": "inplace",
        "label": "uint256",
        "numberOfBytes": "32"
      },
      "t_uint8": {
        "encoding": "inplace",
        "label": "uint8",
        "numberOfBytes": "1"
      }
    }
  }
}