{
  "address": "0x95CC56f266BC95Ae2486cb0cFeda1054B4aA4086",
  "abi": [
    {
      "anonymous": false,
      "inputs": [
        {
          "indexed": true,
          "internalType": "contract VToken",
          "name": "vToken",
          "type": "address"
        },
        {
          "indexed": true,
          "internalType": "address",
          "name": "borrower",
          "type": "address"
        },
        {
          "indexed": false,
          "internalType": "uint256",
          "name": "venusDelta",
          "type": "uint256"
        },
        {
          "indexed": false,
          "internalType": "uint256",
          "name": "venusBorrowIndex",
          "type": "uint256"
        }
      ],
      "name": "DistributedBorrowerVenus",
      "type": "event"
    },
    {
      "anonymous": false,
      "inputs": [
        {
          "indexed": true,
          "internalType": "contract VToken",
          "name": "vToken",
          "type": "address"
        },
        {
          "indexed": true,
          "internalType": "address",
          "name": "supplier",
          "type": "address"
        },
        {
          "indexed": false,
          "internalType": "uint256",
          "name": "venusDelta",
          "type": "uint256"
        },
        {
          "indexed": false,
          "internalType": "uint256",
          "name": "venusSupplyIndex",
          "type": "uint256"
        }
      ],
      "name": "DistributedSupplierVenus",
      "type": "event"
    },
    {
      "anonymous": false,
      "inputs": [
        {
          "indexed": false,
          "internalType": "uint256",
          "name": "amount",
          "type": "uint256"
        }
      ],
      "name": "DistributedVAIVaultVenus",
      "type": "event"
    },
    {
      "anonymous": false,
      "inputs": [
        {
          "indexed": false,
          "internalType": "uint256",
          "name": "error",
          "type": "uint256"
        },
        {
          "indexed": false,
          "internalType": "uint256",
          "name": "info",
          "type": "uint256"
        },
        {
          "indexed": false,
          "internalType": "uint256",
          "name": "detail",
          "type": "uint256"
        }
      ],
      "name": "Failure",
      "type": "event"
    },
    {
      "anonymous": false,
      "inputs": [
        {
          "indexed": true,
          "internalType": "contract VToken",
          "name": "vToken",
          "type": "address"
        },
        {
          "indexed": true,
          "internalType": "address",
          "name": "account",
          "type": "address"
        }
      ],
      "name": "MarketEntered",
      "type": "event"
    },
    {
      "anonymous": false,
      "inputs": [
        {
          "indexed": true,
          "internalType": "contract VToken",
          "name": "vToken",
          "type": "address"
        },
        {
          "indexed": false,
          "internalType": "uint256",
          "name": "newSpeed",
          "type": "uint256"
        }
      ],
      "name": "VenusBorrowSpeedUpdated",
      "type": "event"
    },
    {
      "anonymous": false,
      "inputs": [
        {
          "indexed": true,
          "internalType": "contract VToken",
          "name": "vToken",
          "type": "address"
        },
        {
          "indexed": false,
          "internalType": "uint256",
          "name": "newSpeed",
          "type": "uint256"
        }
      ],
      "name": "VenusSupplySpeedUpdated",
      "type": "event"
    },
    {
      "constant": false,
      "inputs": [
        {
          "internalType": "contract VToken[]",
          "name": "vTokens",
          "type": "address[]"
        },
        {
          "internalType": "uint256[]",
          "name": "supplySpeeds",
          "type": "uint256[]"
        },
        {
          "internalType": "uint256[]",
          "name": "borrowSpeeds",
          "type": "uint256[]"
        }
      ],
      "name": "_setVenusSpeeds",
      "outputs": [],
      "payable": false,
      "stateMutability": "nonpayable",
      "type": "function"
    },
    {
      "constant": true,
      "inputs": [
        {
          "internalType": "address",
          "name": "",
          "type": "address"
        },
        {
          "internalType": "uint256",
          "name": "",
          "type": "uint256"
        }
      ],
      "name": "accountAssets",
      "outputs": [
        {
          "internalType": "contract VToken",
          "name": "",
          "type": "address"
        }
      ],
      "payable": false,
      "stateMutability": "view",
      "type": "function"
    },
    {
      "constant": true,
      "inputs": [
        {
          "internalType": "address",
          "name": "market",
          "type": "address"
        },
        {
          "internalType": "enum ComptrollerTypes.Action",
          "name": "action",
          "type": "uint8"
        }
      ],
      "name": "actionPaused",
      "outputs": [
        {
          "internalType": "bool",
          "name": "",
          "type": "bool"
        }
      ],
      "payable": false,
      "stateMutability": "view",
      "type": "function"
    },
    {
      "constant": true,
      "inputs": [],
      "name": "admin",
      "outputs": [
        {
          "internalType": "address",
          "name": "",
          "type": "address"
        }
      ],
      "payable": false,
      "stateMutability": "view",
      "type": "function"
    },
    {
      "constant": true,
      "inputs": [
        {
          "internalType": "uint256",
          "name": "",
          "type": "uint256"
        }
      ],
      "name": "allMarkets",
      "outputs": [
        {
          "internalType": "contract VToken",
          "name": "",
          "type": "address"
        }
      ],
      "payable": false,
      "stateMutability": "view",
      "type": "function"
    },
    {
      "constant": true,
      "inputs": [
        {
          "internalType": "address",
          "name": "",
          "type": "address"
        },
        {
          "internalType": "address",
          "name": "",
          "type": "address"
        }
      ],
      "name": "approvedDelegates",
      "outputs": [
        {
          "internalType": "bool",
          "name": "",
          "type": "bool"
        }
      ],
      "payable": false,
      "stateMutability": "view",
      "type": "function"
    },
    {
      "constant": false,
      "inputs": [
        {
          "internalType": "address",
          "name": "vToken",
          "type": "address"
        },
        {
          "internalType": "address",
          "name": "borrower",
          "type": "address"
        },
        {
          "internalType": "uint256",
          "name": "borrowAmount",
          "type": "uint256"
        }
      ],
      "name": "borrowAllowed",
      "outputs": [
        {
          "internalType": "uint256",
          "name": "",
          "type": "uint256"
        }
      ],
      "payable": false,
      "stateMutability": "nonpayable",
      "type": "function"
    },
    {
      "constant": true,
      "inputs": [],
      "name": "borrowCapGuardian",
      "outputs": [
        {
          "internalType": "address",
          "name": "",
          "type": "address"
        }
      ],
      "payable": false,
      "stateMutability": "view",
      "type": "function"
    },
    {
      "constant": true,
      "inputs": [
        {
          "internalType": "address",
          "name": "",
          "type": "address"
        }
      ],
      "name": "borrowCaps",
      "outputs": [
        {
          "internalType": "uint256",
          "name": "",
          "type": "uint256"
        }
      ],
      "payable": false,
      "stateMutability": "view",
      "type": "function"
    },
    {
      "constant": false,
      "inputs": [
        {
          "internalType": "address",
          "name": "vToken",
          "type": "address"
        },
        {
          "internalType": "address",
          "name": "borrower",
          "type": "address"
        },
        {
          "internalType": "uint256",
          "name": "borrowAmount",
          "type": "uint256"
        }
      ],
      "name": "borrowVerify",
      "outputs": [],
      "payable": false,
      "stateMutability": "nonpayable",
      "type": "function"
    },
    {
      "constant": true,
      "inputs": [],
      "name": "closeFactorMantissa",
      "outputs": [
        {
          "internalType": "uint256",
          "name": "",
          "type": "uint256"
        }
      ],
      "payable": false,
      "stateMutability": "view",
      "type": "function"
    },
    {
      "constant": true,
      "inputs": [],
      "name": "comptrollerImplementation",
      "outputs": [
        {
          "internalType": "address",
          "name": "",
          "type": "address"
        }
      ],
      "payable": false,
      "stateMutability": "view",
      "type": "function"
    },
    {
      "constant": true,
      "inputs": [],
      "name": "comptrollerLens",
      "outputs": [
        {
          "internalType": "contract ComptrollerLensInterface",
          "name": "",
          "type": "address"
        }
      ],
      "payable": false,
      "stateMutability": "view",
      "type": "function"
    },
    {
      "constant": true,
      "inputs": [
        {
          "internalType": "address",
          "name": "account",
          "type": "address"
        }
      ],
      "name": "getAccountLiquidity",
      "outputs": [
        {
          "internalType": "uint256",
          "name": "",
          "type": "uint256"
        },
        {
          "internalType": "uint256",
          "name": "",
          "type": "uint256"
        },
        {
          "internalType": "uint256",
          "name": "",
          "type": "uint256"
        }
      ],
      "payable": false,
      "stateMutability": "view",
      "type": "function"
    },
    {
      "constant": true,
      "inputs": [
        {
          "internalType": "address",
          "name": "account",
          "type": "address"
        },
        {
          "internalType": "address",
          "name": "vTokenModify",
          "type": "address"
        },
        {
          "internalType": "uint256",
          "name": "redeemTokens",
          "type": "uint256"
        },
        {
          "internalType": "uint256",
          "name": "borrowAmount",
          "type": "uint256"
        }
      ],
      "name": "getHypotheticalAccountLiquidity",
      "outputs": [
        {
          "internalType": "uint256",
          "name": "",
          "type": "uint256"
        },
        {
          "internalType": "uint256",
          "name": "",
          "type": "uint256"
        },
        {
          "internalType": "uint256",
          "name": "",
          "type": "uint256"
        }
      ],
      "payable": false,
      "stateMutability": "view",
      "type": "function"
    },
    {
      "constant": true,
      "inputs": [],
      "name": "getXVSAddress",
      "outputs": [
        {
          "internalType": "address",
          "name": "",
          "type": "address"
        }
      ],
      "payable": false,
      "stateMutability": "view",
      "type": "function"
    },
    {
      "constant": true,
      "inputs": [
        {
          "internalType": "address",
          "name": "",
          "type": "address"
        }
      ],
      "name": "isForcedLiquidationEnabled",
      "outputs": [
        {
          "internalType": "bool",
          "name": "",
          "type": "bool"
        }
      ],
      "payable": false,
      "stateMutability": "view",
      "type": "function"
    },
    {
      "constant": true,
      "inputs": [
        {
          "internalType": "address",
          "name": "",
          "type": "address"
        },
        {
          "internalType": "address",
          "name": "",
          "type": "address"
        }
      ],
      "name": "isForcedLiquidationEnabledForUser",
      "outputs": [
        {
          "internalType": "bool",
          "name": "",
          "type": "bool"
        }
      ],
      "payable": false,
      "stateMutability": "view",
      "type": "function"
    },
    {
      "constant": true,
      "inputs": [
        {
          "internalType": "address",
          "name": "vTokenBorrowed",
          "type": "address"
        },
        {
          "internalType": "address",
          "name": "vTokenCollateral",
          "type": "address"
        },
        {
          "internalType": "address",
          "name": "liquidator",
          "type": "address"
        },
        {
          "internalType": "address",
          "name": "borrower",
          "type": "address"
        },
        {
          "internalType": "uint256",
          "name": "repayAmount",
          "type": "uint256"
        }
      ],
      "name": "liquidateBorrowAllowed",
      "outputs": [
        {
          "internalType": "uint256",
          "name": "",
          "type": "uint256"
        }
      ],
      "payable": false,
      "stateMutability": "view",
      "type": "function"
    },
    {
      "constant": false,
      "inputs": [
        {
          "internalType": "address",
          "name": "vTokenBorrowed",
          "type": "address"
        },
        {
          "internalType": "address",
          "name": "vTokenCollateral",
          "type": "address"
        },
        {
          "internalType": "address",
          "name": "liquidator",
          "type": "address"
        },
        {
          "internalType": "address",
          "name": "borrower",
          "type": "address"
        },
        {
          "internalType": "uint256",
          "name": "actualRepayAmount",
          "type": "uint256"
        },
        {
          "internalType": "uint256",
          "name": "seizeTokens",
          "type": "uint256"
        }
      ],
      "name": "liquidateBorrowVerify",
      "outputs": [],
      "payable": false,
      "stateMutability": "nonpayable",
      "type": "function"
    },
    {
      "constant": true,
      "inputs": [],
      "name": "liquidationIncentiveMantissa",
      "outputs": [
        {
          "internalType": "uint256",
          "name": "",
          "type": "uint256"
        }
      ],
      "payable": false,
      "stateMutability": "view",
      "type": "function"
    },
    {
      "constant": true,
      "inputs": [],
      "name": "liquidatorContract",
      "outputs": [
        {
          "internalType": "address",
          "name": "",
          "type": "address"
        }
      ],
      "payable": false,
      "stateMutability": "view",
      "type": "function"
    },
    {
      "constant": true,
      "inputs": [
        {
          "internalType": "address",
          "name": "",
          "type": "address"
        }
      ],
      "name": "markets",
      "outputs": [
        {
          "internalType": "bool",
          "name": "isListed",
          "type": "bool"
        },
        {
          "internalType": "uint256",
          "name": "collateralFactorMantissa",
          "type": "uint256"
        },
        {
          "internalType": "bool",
          "name": "isVenus",
          "type": "bool"
        }
      ],
      "payable": false,
      "stateMutability": "view",
      "type": "function"
    },
    {
      "constant": true,
      "inputs": [],
      "name": "maxAssets",
      "outputs": [
        {
          "internalType": "uint256",
          "name": "",
          "type": "uint256"
        }
      ],
      "payable": false,
      "stateMutability": "view",
      "type": "function"
    },
    {
      "constant": true,
      "inputs": [],
      "name": "minReleaseAmount",
      "outputs": [
        {
          "internalType": "uint256",
          "name": "",
          "type": "uint256"
        }
      ],
      "payable": false,
      "stateMutability": "view",
      "type": "function"
    },
    {
      "constant": false,
      "inputs": [
        {
          "internalType": "address",
          "name": "vToken",
          "type": "address"
        },
        {
          "internalType": "address",
          "name": "minter",
          "type": "address"
        },
        {
          "internalType": "uint256",
          "name": "mintAmount",
          "type": "uint256"
        }
      ],
      "name": "mintAllowed",
      "outputs": [
        {
          "internalType": "uint256",
          "name": "",
          "type": "uint256"
        }
      ],
      "payable": false,
      "stateMutability": "nonpayable",
      "type": "function"
    },
    {
      "constant": true,
      "inputs": [],
      "name": "mintVAIGuardianPaused",
      "outputs": [
        {
          "internalType": "bool",
          "name": "",
          "type": "bool"
        }
      ],
      "payable": false,
      "stateMutability": "view",
      "type": "function"
    },
    {
      "constant": false,
      "inputs": [
        {
          "internalType": "address",
          "name": "vToken",
          "type": "address"
        },
        {
          "internalType": "address",
          "name": "minter",
          "type": "address"
        },
        {
          "internalType": "uint256",
          "name": "actualMintAmount",
          "type": "uint256"
        },
        {
          "internalType": "uint256",
          "name": "mintTokens",
          "type": "uint256"
        }
      ],
      "name": "mintVerify",
      "outputs": [],
      "payable": false,
      "stateMutability": "nonpayable",
      "type": "function"
    },
    {
      "constant": true,
      "inputs": [
        {
          "internalType": "address",
          "name": "",
          "type": "address"
        }
      ],
      "name": "mintedVAIs",
      "outputs": [
        {
          "internalType": "uint256",
          "name": "",
          "type": "uint256"
        }
      ],
      "payable": false,
      "stateMutability": "view",
      "type": "function"
    },
    {
      "constant": true,
      "inputs": [],
      "name": "oracle",
      "outputs": [
        {
          "internalType": "contract PriceOracle",
          "name": "",
          "type": "address"
        }
      ],
      "payable": false,
      "stateMutability": "view",
      "type": "function"
    },
    {
      "constant": true,
      "inputs": [],
      "name": "pauseGuardian",
      "outputs": [
        {
          "internalType": "address",
          "name": "",
          "type": "address"
        }
      ],
      "payable": false,
      "stateMutability": "view",
      "type": "function"
    },
    {
      "constant": true,
      "inputs": [],
      "name": "pendingAdmin",
      "outputs": [
        {
          "internalType": "address",
          "name": "",
          "type": "address"
        }
      ],
      "payable": false,
      "stateMutability": "view",
      "type": "function"
    },
    {
      "constant": true,
      "inputs": [],
      "name": "pendingComptrollerImplementation",
      "outputs": [
        {
          "internalType": "address",
          "name": "",
          "type": "address"
        }
      ],
      "payable": false,
      "stateMutability": "view",
      "type": "function"
    },
    {
      "constant": true,
      "inputs": [],
      "name": "prime",
      "outputs": [
        {
          "internalType": "contract IPrime",
          "name": "",
          "type": "address"
        }
      ],
      "payable": false,
      "stateMutability": "view",
      "type": "function"
    },
    {
      "constant": true,
      "inputs": [],
      "name": "protocolPaused",
      "outputs": [
        {
          "internalType": "bool",
          "name": "",
          "type": "bool"
        }
      ],
      "payable": false,
      "stateMutability": "view",
      "type": "function"
    },
    {
      "constant": false,
      "inputs": [
        {
          "internalType": "address",
          "name": "vToken",
          "type": "address"
        },
        {
          "internalType": "address",
          "name": "redeemer",
          "type": "address"
        },
        {
          "internalType": "uint256",
          "name": "redeemTokens",
          "type": "uint256"
        }
      ],
      "name": "redeemAllowed",
      "outputs": [
        {
          "internalType": "uint256",
          "name": "",
          "type": "uint256"
        }
      ],
      "payable": false,
      "stateMutability": "nonpayable",
      "type": "function"
    },
    {
      "constant": false,
      "inputs": [
        {
          "internalType": "address",
          "name": "vToken",
          "type": "address"
        },
        {
          "internalType": "address",
          "name": "redeemer",
          "type": "address"
        },
        {
          "internalType": "uint256",
          "name": "redeemAmount",
          "type": "uint256"
        },
        {
          "internalType": "uint256",
          "name": "redeemTokens",
          "type": "uint256"
        }
      ],
      "name": "redeemVerify",
      "outputs": [],
      "payable": false,
      "stateMutability": "nonpayable",
      "type": "function"
    },
    {
      "constant": true,
      "inputs": [],
      "name": "releaseStartBlock",
      "outputs": [
        {
          "internalType": "uint256",
          "name": "",
          "type": "uint256"
        }
      ],
      "payable": false,
      "stateMutability": "view",
      "type": "function"
    },
    {
      "constant": false,
      "inputs": [
        {
          "internalType": "address",
          "name": "vToken",
          "type": "address"
        },
        {
          "internalType": "address",
          "name": "payer",
          "type": "address"
        },
        {
          "internalType": "address",
          "name": "borrower",
          "type": "address"
        },
        {
          "internalType": "uint256",
          "name": "repayAmount",
          "type": "uint256"
        }
      ],
      "name": "repayBorrowAllowed",
      "outputs": [
        {
          "internalType": "uint256",
          "name": "",
          "type": "uint256"
        }
      ],
      "payable": false,
      "stateMutability": "nonpayable",
      "type": "function"
    },
    {
      "constant": false,
      "inputs": [
        {
          "internalType": "address",
          "name": "vToken",
          "type": "address"
        },
        {
          "internalType": "address",
          "name": "payer",
          "type": "address"
        },
        {
          "internalType": "address",
          "name": "borrower",
          "type": "address"
        },
        {
          "internalType": "uint256",
          "name": "actualRepayAmount",
          "type": "uint256"
        },
        {
          "internalType": "uint256",
          "name": "borrowerIndex",
          "type": "uint256"
        }
      ],
      "name": "repayBorrowVerify",
      "outputs": [],
      "payable": false,
      "stateMutability": "nonpayable",
      "type": "function"
    },
    {
      "constant": true,
      "inputs": [],
      "name": "repayVAIGuardianPaused",
      "outputs": [
        {
          "internalType": "bool",
          "name": "",
          "type": "bool"
        }
      ],
      "payable": false,
      "stateMutability": "view",
      "type": "function"
    },
    {
      "constant": false,
      "inputs": [
        {
          "internalType": "address",
          "name": "vTokenCollateral",
          "type": "address"
        },
        {
          "internalType": "address",
          "name": "vTokenBorrowed",
          "type": "address"
        },
        {
          "internalType": "address",
          "name": "liquidator",
          "type": "address"
        },
        {
          "internalType": "address",
          "name": "borrower",
          "type": "address"
        },
        {
          "internalType": "uint256",
          "name": "seizeTokens",
          "type": "uint256"
        }
      ],
      "name": "seizeAllowed",
      "outputs": [
        {
          "internalType": "uint256",
          "name": "",
          "type": "uint256"
        }
      ],
      "payable": false,
      "stateMutability": "nonpayable",
      "type": "function"
    },
    {
      "constant": false,
      "inputs": [
        {
          "internalType": "address",
          "name": "vTokenCollateral",
          "type": "address"
        },
        {
          "internalType": "address",
          "name": "vTokenBorrowed",
          "type": "address"
        },
        {
          "internalType": "address",
          "name": "liquidator",
          "type": "address"
        },
        {
          "internalType": "address",
          "name": "borrower",
          "type": "address"
        },
        {
          "internalType": "uint256",
          "name": "seizeTokens",
          "type": "uint256"
        }
      ],
      "name": "seizeVerify",
      "outputs": [],
      "payable": false,
      "stateMutability": "nonpayable",
      "type": "function"
    },
    {
      "constant": true,
      "inputs": [
        {
          "internalType": "address",
          "name": "",
          "type": "address"
        }
      ],
      "name": "supplyCaps",
      "outputs": [
        {
          "internalType": "uint256",
          "name": "",
          "type": "uint256"
        }
      ],
      "payable": false,
      "stateMutability": "view",
      "type": "function"
    },
    {
      "constant": false,
      "inputs": [
        {
          "internalType": "address",
          "name": "vToken",
          "type": "address"
        },
        {
          "internalType": "address",
          "name": "src",
          "type": "address"
        },
        {
          "internalType": "address",
          "name": "dst",
          "type": "address"
        },
        {
          "internalType": "uint256",
          "name": "transferTokens",
          "type": "uint256"
        }
      ],
      "name": "transferAllowed",
      "outputs": [
        {
          "internalType": "uint256",
          "name": "",
          "type": "uint256"
        }
      ],
      "payable": false,
      "stateMutability": "nonpayable",
      "type": "function"
    },
    {
      "constant": false,
      "inputs": [
        {
          "internalType": "address",
          "name": "vToken",
          "type": "address"
        },
        {
          "internalType": "address",
          "name": "src",
          "type": "address"
        },
        {
          "internalType": "address",
          "name": "dst",
          "type": "address"
        },
        {
          "internalType": "uint256",
          "name": "transferTokens",
          "type": "uint256"
        }
      ],
      "name": "transferVerify",
      "outputs": [],
      "payable": false,
      "stateMutability": "nonpayable",
      "type": "function"
    },
    {
      "constant": true,
      "inputs": [],
      "name": "treasuryAddress",
      "outputs": [
        {
          "internalType": "address",
          "name": "",
          "type": "address"
        }
      ],
      "payable": false,
      "stateMutability": "view",
      "type": "function"
    },
    {
      "constant": true,
      "inputs": [],
      "name": "treasuryGuardian",
      "outputs": [
        {
          "internalType": "address",
          "name": "",
          "type": "address"
        }
      ],
      "payable": false,
      "stateMutability": "view",
      "type": "function"
    },
    {
      "constant": true,
      "inputs": [],
      "name": "treasuryPercent",
      "outputs": [
        {
          "internalType": "uint256",
          "name": "",
          "type": "uint256"
        }
      ],
      "payable": false,
      "stateMutability": "view",
      "type": "function"
    },
    {
      "constant": true,
      "inputs": [],
      "name": "vaiController",
      "outputs": [
        {
          "internalType": "contract VAIControllerInterface",
          "name": "",
          "type": "address"
        }
      ],
      "payable": false,
      "stateMutability": "view",
      "type": "function"
    },
    {
      "constant": true,
      "inputs": [],
      "name": "vaiMintRate",
      "outputs": [
        {
          "internalType": "uint256",
          "name": "",
          "type": "uint256"
        }
      ],
      "payable": false,
      "stateMutability": "view",
      "type": "function"
    },
    {
      "constant": true,
      "inputs": [],
      "name": "vaiVaultAddress",
      "outputs": [
        {
          "internalType": "address",
          "name": "",
          "type": "address"
        }
      ],
      "payable": false,
      "stateMutability": "view",
      "type": "function"
    },
    {
      "constant": true,
      "inputs": [
        {
          "internalType": "address",
          "name": "",
          "type": "address"
        }
      ],
      "name": "venusAccrued",
      "outputs": [
        {
          "internalType": "uint256",
          "name": "",
          "type": "uint256"
        }
      ],
      "payable": false,
      "stateMutability": "view",
      "type": "function"
    },
    {
      "constant": true,
      "inputs": [
        {
          "internalType": "address",
          "name": "",
          "type": "address"
        }
      ],
      "name": "venusBorrowSpeeds",
      "outputs": [
        {
          "internalType": "uint256",
          "name": "",
          "type": "uint256"
        }
      ],
      "payable": false,
      "stateMutability": "view",
      "type": "function"
    },
    {
      "constant": true,
      "inputs": [
        {
          "internalType": "address",
          "name": "",
          "type": "address"
        }
      ],
      "name": "venusBorrowState",
      "outputs": [
        {
          "internalType": "uint224",
          "name": "index",
          "type": "uint224"
        },
        {
          "internalType": "uint32",
          "name": "block",
          "type": "uint32"
        }
      ],
      "payable": false,
      "stateMutability": "view",
      "type": "function"
    },
    {
      "constant": true,
      "inputs": [
        {
          "internalType": "address",
          "name": "",
          "type": "address"
        },
        {
          "internalType": "address",
          "name": "",
          "type": "address"
        }
      ],
      "name": "venusBorrowerIndex",
      "outputs": [
        {
          "internalType": "uint256",
          "name": "",
          "type": "uint256"
        }
      ],
      "payable": false,
      "stateMutability": "view",
      "type": "function"
    },
    {
      "constant": true,
      "inputs": [],
      "name": "venusInitialIndex",
      "outputs": [
        {
          "internalType": "uint224",
          "name": "",
          "type": "uint224"
        }
      ],
      "payable": false,
      "stateMutability": "view",
      "type": "function"
    },
    {
      "constant": true,
      "inputs": [
        {
          "internalType": "address",
          "name": "",
          "type": "address"
        },
        {
          "internalType": "address",
          "name": "",
          "type": "address"
        }
      ],
      "name": "venusSupplierIndex",
      "outputs": [
        {
          "internalType": "uint256",
          "name": "",
          "type": "uint256"
        }
      ],
      "payable": false,
      "stateMutability": "view",
      "type": "function"
    },
    {
      "constant": true,
      "inputs": [
        {
          "internalType": "address",
          "name": "",
          "type": "address"
        }
      ],
      "name": "venusSupplySpeeds",
      "outputs": [
        {
          "internalType": "uint256",
          "name": "",
          "type": "uint256"
        }
      ],
      "payable": false,
      "stateMutability": "view",
      "type": "function"
    },
    {
      "constant": true,
      "inputs": [
        {
          "internalType": "address",
          "name": "",
          "type": "address"
        }
      ],
      "name": "venusSupplyState",
      "outputs": [
        {
          "internalType": "uint224",
          "name": "index",
          "type": "uint224"
        },
        {
          "internalType": "uint32",
          "name": "block",
          "type": "uint32"
        }
      ],
      "payable": false,
      "stateMutability": "view",
      "type": "function"
    },
    {
      "constant": true,
      "inputs": [],
      "name": "venusVAIVaultRate",
      "outputs": [
        {
          "internalType": "uint256",
          "name": "",
          "type": "uint256"
        }
      ],
      "payable": false,
      "stateMutability": "view",
      "type": "function"
    }
  ],
  "transactionHash": "0x041f4f9603e19067b52b728102bf4a9ef1aad85520576b31d5dae68e33cb832b",
  "args": [],
  "numDeployments": 2,
  "solcInputHash": "ad834ffdd224ebe1944f429cc9972360",
  "bytecode": "0x608060405234801561001057600080fd5b5061364e806100206000396000f3fe608060405234801561001057600080fd5b50600436106103af5760003560e01c80637d172bd5116101f4578063c5b4db551161011a578063e37d4b79116100ad578063ead1a8a01161007c578063ead1a8a014610b88578063f445d70314610c96578063f851a44014610cc4578063fa6331d814610ccc576103af565b8063e37d4b7914610af5578063e85a296014610b1b578063e875544614610b4a578063eabe7d9114610b52576103af565b8063d3270f99116100e9578063d3270f9914610a83578063da3d454c14610a8b578063dce1544914610ac1578063dcfbc0c714610aed576103af565b8063c5b4db5514610a09578063c5f956af14610a2d578063c7ee005e14610a35578063d02f735114610a3d576103af565b80639bb27d6211610192578063bbb8864a11610161578063bbb8864a14610997578063bdcdc258146109bd578063bec04f72146109f9578063bf32442d14610a01576103af565b80639bb27d6214610931578063b2eafc3914610939578063b8324c7c14610941578063bb82aa5e1461098f576103af565b80638c1ac18a116101ce5780638c1ac18a146108b35780638e8f294b146108d95780639254f5e51461092157806394b2294b14610929576103af565b80637d172bd51461087d5780637dc0d1d0146108855780638a7dc1651461088d576103af565b806347ef3b3b116102d95780635c778605116102775780636a56947e116102465780636a56947e146107eb5780636d35bf9114610827578063719f701b1461086d5780637655138314610875576103af565b80635c778605146107235780635dd3fc9d146107595780635ec88c791461077f5780635fc7e71e146107a5576103af565b80634e79238f116102b35780634e79238f1461063a5780634ef4c3e11461069457806351dff989146106ca57806352d84d1e14610706576103af565b806347ef3b3b146105c05780634a5844321461060c5780634ada90af14610632576103af565b806324008a62116103515780634088c73e116103205780634088c73e1461054657806341a18d2c1461054e57806341c728b91461057c578063425fad58146105b8576103af565b806324008a62146104d457806324a3d6221461051057806326782247146105185780632bc7e29e14610520576103af565b80630db4b4e51161038d5780630db4b4e51461042257806310b983381461042a5780631ededc911461046c57806321af4569146104b0576103af565b806302c3bcbb146103b457806304ef9d58146103ec57806308e0225c146103f4575b600080fd5b6103da600480360360208110156103ca57600080fd5b50356001600160a01b0316610cd4565b60408051918252519081900360200190f35b6103da610ce6565b6103da6004803603604081101561040a57600080fd5b506001600160a01b0381358116916020013516610cec565b6103da610d09565b6104586004803603604081101561044057600080fd5b506001600160a01b0381358116916020013516610d0f565b604080519115158252519081900360200190f35b6104ae600480360360a081101561048257600080fd5b506001600160a01b03813581169160208101358216916040820135169060608101359060800135610d2f565b005b6104b8610db6565b604080516001600160a01b039092168252519081900360200190f35b6103da600480360360808110156104ea57600080fd5b506001600160a01b03813581169160208101358216916040820135169060600135610dc5565b6104b8610e9a565b6104b8610ea9565b6103da6004803603602081101561053657600080fd5b50356001600160a01b0316610eb8565b610458610eca565b6103da6004803603604081101561056457600080fd5b506001600160a01b0381358116916020013516610ed3565b6104ae6004803603608081101561059257600080fd5b506001600160a01b03813581169160208101359091169060408101359060600135610ef0565b610458610f76565b6104ae600480360360c08110156105d657600080fd5b506001600160a01b0381358116916020810135821691604082013581169160608101359091169060808101359060a00135610f85565b6103da6004803603602081101561062257600080fd5b50356001600160a01b031661107b565b6103da61108d565b6106766004803603608081101561065057600080fd5b506001600160a01b03813581169160208101359091169060408101359060600135611093565b60408051938452602084019290925282820152519081900360600190f35b6103da600480360360608110156106aa57600080fd5b506001600160a01b038135811691602081013590911690604001356110c9565b6104ae600480360360808110156106e057600080fd5b506001600160a01b038135811691602081013590911690604081013590606001356112cf565b6104b86004803603602081101561071c57600080fd5b5035611320565b6104ae6004803603606081101561073957600080fd5b506001600160a01b03813581169160208101359091169060400135611347565b6103da6004803603602081101561076f57600080fd5b50356001600160a01b03166113cc565b6106766004803603602081101561079557600080fd5b50356001600160a01b03166113de565b6103da600480360360a08110156107bb57600080fd5b506001600160a01b0381358116916020810135821691604082013581169160608101359091169060800135611413565b6104ae6004803603608081101561080157600080fd5b506001600160a01b038135811691602081013582169160408201351690606001356116ae565b6104ae600480360360a081101561083d57600080fd5b506001600160a01b0381358116916020810135821691604082013581169160608101359091169060800135611783565b6103da611858565b61045861185e565b6104b861186c565b6104b861187b565b6103da600480360360208110156108a357600080fd5b50356001600160a01b031661188a565b610458600480360360208110156108c957600080fd5b50356001600160a01b031661189c565b6108ff600480360360208110156108ef57600080fd5b50356001600160a01b03166118b1565b6040805193151584526020840192909252151582820152519081900360600190f35b6104b86118d7565b6103da6118e6565b6104b86118ec565b6104b86118fb565b6109676004803603602081101561095757600080fd5b50356001600160a01b031661190a565b604080516001600160e01b03909316835263ffffffff90911660208301528051918290030190f35b6104b8611934565b6103da600480360360208110156109ad57600080fd5b50356001600160a01b0316611943565b6103da600480360360808110156109d357600080fd5b506001600160a01b03813581169160208101358216916040820135169060600135611955565b6103da6119a3565b6104b86119a9565b610a116119b8565b604080516001600160e01b039092168252519081900360200190f35b6104b86119ca565b6104b86119d9565b6103da600480360360a0811015610a5357600080fd5b506001600160a01b03813581169160208101358216916040820135811691606081013590911690608001356119e8565b6104b8611b91565b6103da60048036036060811015610aa157600080fd5b506001600160a01b03813581169160208101359091169060400135611ba0565b6104b860048036036040811015610ad757600080fd5b506001600160a01b038135169060200135611ee4565b6104b8611f19565b61096760048036036020811015610b0b57600080fd5b50356001600160a01b0316611f28565b61045860048036036040811015610b3157600080fd5b5080356001600160a01b0316906020013560ff16611f52565b6103da611f94565b6103da60048036036060811015610b6857600080fd5b506001600160a01b03813581169160208101359091169060400135611f9a565b6104ae60048036036060811015610b9e57600080fd5b810190602081018135600160201b811115610bb857600080fd5b820183602082011115610bca57600080fd5b803590602001918460208302840111600160201b83111715610beb57600080fd5b919390929091602081019035600160201b811115610c0857600080fd5b820183602082011115610c1a57600080fd5b803590602001918460208302840111600160201b83111715610c3b57600080fd5b919390929091602081019035600160201b811115610c5857600080fd5b820183602082011115610c6a57600080fd5b803590602001918460208302840111600160201b83111715610c8b57600080fd5b509092509050611fe9565b61045860048036036040811015610cac57600080fd5b506001600160a01b03813581169160200135166120c2565b6104b86120e2565b6103da6120f1565b60276020526000908152604090205481565b60225481565b601360209081526000928352604080842090915290825290205481565b601d5481565b602c60209081526000928352604080842090915290825290205460ff1681565b6031546001600160a01b031615610daf57603154604080516367994e8b60e11b81526001600160a01b03868116600483015288811660248301529151919092169163cf329d1691604480830192600092919082900301818387803b158015610d9657600080fd5b505af1158015610daa573d6000803e3d6000fd5b505050505b5050505050565b601e546001600160a01b031681565b6000610dcf6120f7565b610dda85600361214c565b6001600160a01b0385166000908152600960205260409020610dfb9061219f565b610e036135dc565b6040518060200160405280876001600160a01b031663aa5af0fd6040518163ffffffff1660e01b815260040160206040518083038186803b158015610e4757600080fd5b505afa158015610e5b573d6000803e3d6000fd5b505050506040513d6020811015610e7157600080fd5b505190529050610e8186826121ec565b610e8c8685836123a2565b60009150505b949350505050565b600a546001600160a01b031681565b6001546001600160a01b031681565b60166020526000908152604090205481565b60185460ff1681565b601260209081526000928352604080842090915290825290205481565b6031546001600160a01b031615610f7057603154604080516367994e8b60e11b81526001600160a01b03868116600483015287811660248301529151919092169163cf329d1691604480830192600092919082900301818387803b158015610f5757600080fd5b505af1158015610f6b573d6000803e3d6000fd5b505050505b50505050565b60185462010000900460ff1681565b6031546001600160a01b03161561107357603154604080516367994e8b60e11b81526001600160a01b03868116600483015289811660248301529151919092169163cf329d1691604480830192600092919082900301818387803b158015610fec57600080fd5b505af1158015611000573d6000803e3d6000fd5b5050603154604080516367994e8b60e11b81526001600160a01b0389811660048301528b81166024830152915191909216935063cf329d169250604480830192600092919082900301818387803b15801561105a57600080fd5b505af115801561106e573d6000803e3d6000fd5b505050505b505050505050565b601f6020526000908152604090205481565b60065481565b6000806000806000806110a88a8a8a8a612542565b9250925092508260138111156110ba57fe5b9a919950975095505050505050565b60006110d36120f7565b6110de84600061214c565b6001600160a01b03841660009081526009602052604090206110ff9061219f565b6001600160a01b03841660009081526027602052604090205480611163576040805162461bcd60e51b815260206004820152601660248201527506d61726b657420737570706c792063617020697320360541b604482015290519081900360640190fd5b6000856001600160a01b03166318160ddd6040518163ffffffff1660e01b815260040160206040518083038186803b15801561119e57600080fd5b505afa1580156111b2573d6000803e3d6000fd5b505050506040513d60208110156111c857600080fd5b505190506111d46135dc565b6040518060200160405280886001600160a01b031663182df0f56040518163ffffffff1660e01b815260040160206040518083038186803b15801561121857600080fd5b505afa15801561122c573d6000803e3d6000fd5b505050506040513d602081101561124257600080fd5b5051905290506000611255828488612601565b9050838111156112ac576040805162461bcd60e51b815260206004820152601960248201527f6d61726b657420737570706c7920636170207265616368656400000000000000604482015290519081900360640190fd5b6112b588612629565b6112bf88886127b5565b60009450505050505b9392505050565b801515806112db575081155b610ef0576040805162461bcd60e51b815260206004820152601160248201527072656465656d546f6b656e73207a65726f60781b604482015290519081900360640190fd5b600d818154811061132d57fe5b6000918252602090912001546001600160a01b0316905081565b6031546001600160a01b0316156113c757603154604080516367994e8b60e11b81526001600160a01b03858116600483015286811660248301529151919092169163cf329d1691604480830192600092919082900301818387803b1580156113ae57600080fd5b505af11580156113c2573d6000803e3d6000fd5b505050505b505050565b602b6020526000908152604090205481565b6000806000806000806113f5876000806000612542565b92509250925082601381111561140757fe5b97919650945092505050565b600061141d6120f7565b61142886600561214c565b6025546001600160a01b03161580159061145057506025546001600160a01b03858116911614155b1561145d575060016116a5565b6001600160a01b038516600090815260096020526040902061147e9061219f565b6015546000906001600160a01b03888116911614611540576001600160a01b03871660009081526009602052604090206114b79061219f565b866001600160a01b03166395dd9193856040518263ffffffff1660e01b815260040180826001600160a01b03166001600160a01b0316815260200191505060206040518083038186803b15801561150d57600080fd5b505afa158015611521573d6000803e3d6000fd5b505050506040513d602081101561153757600080fd5b505190506115bc565b60155460408051633c617c9160e11b81526001600160a01b038781166004830152915191909216916378c2f922916024808301926020929190829003018186803b15801561158d57600080fd5b505afa1580156115a1573d6000803e3d6000fd5b505050506040513d60208110156115b757600080fd5b505190505b6001600160a01b0387166000908152602d602052604090205460ff168061160857506001600160a01b038085166000908152603260209081526040808320938b168352929052205460ff165b1561162757808311156116205760115b9150506116a5565b6000611618565b600080611638866000806000612542565b9193509091506000905082601381111561164e57fe5b146116695781601381111561165f57fe5b93505050506116a5565b8061167557600361165f565b61168f60405180602001604052806005548152508461297d565b85111561169d57601161165f565b600093505050505b95945050505050565b6031546001600160a01b031615610f7057603154604080516367994e8b60e11b81526001600160a01b03868116600483015287811660248301529151919092169163cf329d1691604480830192600092919082900301818387803b15801561171557600080fd5b505af1158015611729573d6000803e3d6000fd5b5050603154604080516367994e8b60e11b81526001600160a01b0387811660048301528981166024830152915191909216935063cf329d169250604480830192600092919082900301818387803b158015610f5757600080fd5b6031546001600160a01b031615610daf57603154604080516367994e8b60e11b81526001600160a01b03858116600483015288811660248301529151919092169163cf329d1691604480830192600092919082900301818387803b1580156117ea57600080fd5b505af11580156117fe573d6000803e3d6000fd5b5050603154604080516367994e8b60e11b81526001600160a01b0388811660048301528a81166024830152915191909216935063cf329d169250604480830192600092919082900301818387803b158015610d9657600080fd5b601c5481565b601854610100900460ff1681565b601b546001600160a01b031681565b6004546001600160a01b031681565b60146020526000908152604090205481565b602d6020526000908152604090205460ff1681565b60096020526000908152604090208054600182015460039092015460ff91821692911683565b6015546001600160a01b031681565b60075481565b6025546001600160a01b031681565b6020546001600160a01b031681565b6010602052600090815260409020546001600160e01b03811690600160e01b900463ffffffff1682565b6002546001600160a01b031681565b602a6020526000908152604090205481565b600061195f6120f7565b61196a85600661214c565b600061197786868561299c565b90508015611986579050610e92565b61198f86612629565b61199986866127b5565b610e8c86856127b5565b60175481565b6033546001600160a01b031690565b6a0c097ce7bc90715b34b9f160241b81565b6021546001600160a01b031681565b6031546001600160a01b031681565b60006119f26120f7565b6119fd86600461214c565b6001600160a01b0386166000908152600960205260409020611a1e8161219f565b6001600160a01b038416600090815260028201602052604090205460ff16611a47576013611618565b6015546001600160a01b03878116911614611a7d576001600160a01b0386166000908152600960205260409020611a7d9061219f565b856001600160a01b0316635fe3b5676040518163ffffffff1660e01b815260040160206040518083038186803b158015611ab657600080fd5b505afa158015611aca573d6000803e3d6000fd5b505050506040513d6020811015611ae057600080fd5b505160408051635fe3b56760e01b815290516001600160a01b03928316928a1691635fe3b567916004808301926020929190829003018186803b158015611b2657600080fd5b505afa158015611b3a573d6000803e3d6000fd5b505050506040513d6020811015611b5057600080fd5b50516001600160a01b031614611b67576002611618565b611b7087612629565b611b7a87856127b5565b611b8487866127b5565b6000979650505050505050565b6026546001600160a01b031681565b6000611baa6120f7565b611bb584600261214c565b6001600160a01b0384166000908152600960205260409020611bd69061219f565b6001600160a01b038085166000908152600960209081526040808320938716835260029093019052205460ff16611c9357336001600160a01b03851614611c5c576040805162461bcd60e51b815260206004820152601560248201527439b2b73232b91036bab9ba103132903b2a37b5b2b760591b604482015290519081900360640190fd5b6000611c688585612a4e565b90506000816013811115611c7857fe5b14611c9157806013811115611c8957fe5b9150506112c8565b505b600480546040805163fc57d4df60e01b81526001600160a01b03888116948201949094529051929091169163fc57d4df91602480820192602092909190829003018186803b158015611ce457600080fd5b505afa158015611cf8573d6000803e3d6000fd5b505050506040513d6020811015611d0e57600080fd5b5051611d1e57600d5b90506112c8565b6001600160a01b0384166000908152601f60205260409020548015611e05576000611dad866001600160a01b03166347bd37186040518163ffffffff1660e01b815260040160206040518083038186803b158015611d7b57600080fd5b505afa158015611d8f573d6000803e3d6000fd5b505050506040513d6020811015611da557600080fd5b505185612b32565b9050818110611e03576040805162461bcd60e51b815260206004820152601960248201527f6d61726b657420626f72726f7720636170207265616368656400000000000000604482015290519081900360640190fd5b505b600080611e158688600088612542565b91935090915060009050826013811115611e2b57fe5b14611e4657816013811115611e3c57fe5b93505050506112c8565b8015611e53576004611e3c565b611e5b6135dc565b6040518060200160405280896001600160a01b031663aa5af0fd6040518163ffffffff1660e01b815260040160206040518083038186803b158015611e9f57600080fd5b505afa158015611eb3573d6000803e3d6000fd5b505050506040513d6020811015611ec957600080fd5b505190529050611ed988826121ec565b6112bf8888836123a2565b60086020528160005260406000208181548110611efd57fe5b6000918252602090912001546001600160a01b03169150829050565b6003546001600160a01b031681565b6011602052600090815260409020546001600160e01b03811690600160e01b900463ffffffff1682565b6001600160a01b038216600090815260296020526040812081836008811115611f7757fe5b815260208101919091526040016000205460ff1690505b92915050565b60055481565b6000611fa46120f7565b611faf84600161214c565b6000611fbc85858561299c565b90508015611fcb5790506112c8565b611fd485612629565b611fde85856127b5565b600095945050505050565b611ff1612b68565b84838114801561200057508082145b612041576040805162461bcd60e51b815260206004820152600d60248201526c1a5b9d985b1a59081a5b9c1d5d609a1b604482015290519081900360640190fd5b60005b81811015610f6b5761207088888381811061205b57fe5b905060200201356001600160a01b0316612bb8565b6120ba88888381811061207f57fe5b905060200201356001600160a01b031687878481811061209b57fe5b905060200201358686858181106120ae57fe5b90506020020135612c0b565b600101612044565b603260209081526000928352604080842090915290825290205460ff1681565b6000546001600160a01b031681565b601a5481565b60185462010000900460ff161561214a576040805162461bcd60e51b81526020600482015260126024820152711c1c9bdd1bd8dbdb081a5cc81c185d5cd95960721b604482015290519081900360640190fd5b565b6121568282611f52565b1561219b576040805162461bcd60e51b815260206004820152601060248201526f1858dd1a5bdb881a5cc81c185d5cd95960821b604482015290519081900360640190fd5b5050565b805460ff166121e9576040805162461bcd60e51b81526020600482015260116024820152701b585c9ad95d081b9bdd081b1a5cdd1959607a1b604482015290519081900360640190fd5b50565b6001600160a01b0382166000908152601160209081526040808320602a9092528220549091612219612da0565b835490915060009061223b9063ffffffff80851691600160e01b900416612de1565b9050801580159061224b57508215155b156123775760006122c0876001600160a01b03166347bd37186040518163ffffffff1660e01b815260040160206040518083038186803b15801561228e57600080fd5b505afa1580156122a2573d6000803e3d6000fd5b505050506040513d60208110156122b857600080fd5b505187612e1b565b905060006122ce8386612e39565b90506122d86135dc565b826122f257604051806020016040528060008152506122fc565b6122fc8284612e7b565b604080516020810190915288546001600160e01b03168152909150612345906123259083612eb8565b516040805180820190915260038152620c8c8d60ea1b6020820152612edd565b87546001600160e01b0319166001600160e01b039182161716600160e01b63ffffffff87160217875550611073915050565b801561107357835463ffffffff8316600160e01b026001600160e01b03909116178455505050505050565b601b546001600160a01b0316156123bb576123bb612f77565b6001600160a01b0383811660009081526011602090815260408083205460138352818420948716845293909152902080546001600160e01b0390921690819055908015801561241857506a0c097ce7bc90715b34b9f160241b8210155b1561242e57506a0c097ce7bc90715b34b9f160241b5b6124366135dc565b604051806020016040528061244b8585612de1565b815250905060006124b46124ae886001600160a01b03166395dd9193896040518263ffffffff1660e01b815260040180826001600160a01b03166001600160a01b0316815260200191505060206040518083038186803b15801561228e57600080fd5b8361311f565b6001600160a01b0387166000908152601460205260409020549091506124da9082612b32565b6001600160a01b0380881660008181526014602090815260409182902094909455805185815293840188905280519193928b16927f837bdc11fca9f17ce44167944475225a205279b17e88c791c3b1f66f354668fb929081900390910190a350505050505050565b6026546040805163a7032efb60e01b81523060048201526001600160a01b03878116602483015286811660448301526064820186905260848201859052915160009384938493849384938493169163a7032efb9160a4808301926060929190829003018186803b1580156125b557600080fd5b505afa1580156125c9573d6000803e3d6000fd5b505050506040513d60608110156125df57600080fd5b508051602082015160409092015190945090925090508260138111156110ba57fe5b600061260b6135dc565b612615858561314d565b90506116a56126238261316e565b84612b32565b6001600160a01b0381166000908152601060209081526040808320602b9092528220549091612656612da0565b83549091506000906126789063ffffffff80851691600160e01b900416612de1565b9050801580159061268857508215155b1561278b576000856001600160a01b03166318160ddd6040518163ffffffff1660e01b815260040160206040518083038186803b1580156126c857600080fd5b505afa1580156126dc573d6000803e3d6000fd5b505050506040513d60208110156126f257600080fd5b5051905060006127028386612e39565b905061270c6135dc565b826127265760405180602001604052806000815250612730565b6127308284612e7b565b604080516020810190915288546001600160e01b03168152909150612759906123259083612eb8565b87546001600160e01b0319166001600160e01b039182161716600160e01b63ffffffff87160217875550610daf915050565b8015610daf57835463ffffffff8316600160e01b026001600160e01b039091161784555050505050565b601b546001600160a01b0316156127ce576127ce612f77565b6001600160a01b0382811660009081526010602090815260408083205460128352818420948616845293909152902080546001600160e01b0390921690819055908015801561282b57506a0c097ce7bc90715b34b9f160241b8210155b1561284157506a0c097ce7bc90715b34b9f160241b5b6128496135dc565b604051806020016040528061285e8585612de1565b815250905060006128f0866001600160a01b03166370a08231876040518263ffffffff1660e01b815260040180826001600160a01b03166001600160a01b0316815260200191505060206040518083038186803b1580156128be57600080fd5b505afa1580156128d2573d6000803e3d6000fd5b505050506040513d60208110156128e857600080fd5b50518361311f565b6001600160a01b0386166000908152601460205260409020549091506129169082612b32565b6001600160a01b0380871660008181526014602090815260409182902094909455805185815293840188905280519193928a16927ffa9d964d891991c113b49e3db1932abd6c67263d387119707aafdd6c4010a3a9929081900390910190a3505050505050565b60006129876135dc565b612991848461314d565b9050610e928161316e565b6001600160a01b03831660009081526009602052604081206129bd9061219f565b6001600160a01b038085166000908152600960209081526040808320938716835260029093019052205460ff166129f5576000611d17565b600080612a058587866000612542565b91935090915060009050826013811115612a1b57fe5b14612a3557816013811115612a2c57fe5b925050506112c8565b8015612a42576004612a2c565b60009695505050505050565b6000612a5b83600761214c565b6001600160a01b0383166000908152600960205260409020612a7c8161219f565b6001600160a01b038316600090815260028201602052604090205460ff1615612aa9576000915050611f8e565b6001600160a01b0380841660008181526002840160209081526040808320805460ff191660019081179091556008835281842080549182018155845291832090910180549489166001600160a01b031990951685179055519192917f3ab23ab0d51cccc0c3085aec51f99228625aa1a922b3a8ca89a26b0f2027a1a59190a35060009392505050565b60006112c88383604051806040016040528060118152602001706164646974696f6e206f766572666c6f7760781b81525061317d565b6000546001600160a01b0316331461214a576040805162461bcd60e51b815260206004820152600e60248201526d37b7363c9030b236b4b71031b0b760911b604482015290519081900360640190fd5b6001600160a01b0381166121e9576040805162461bcd60e51b815260206004820152601560248201527463616e2774206265207a65726f206164647265737360581b604482015290519081900360640190fd5b6001600160a01b0383166000908152600960205260409020612c2c9061219f565b6001600160a01b0383166000908152602b60205260409020548214612ca557612c5483612629565b6001600160a01b0383166000818152602b6020908152604091829020859055815185815291517fa9ff26899e4982e7634afa9f70115dcfb61a17d6e8cdd91aa837671d0ff40ba69281900390910190a25b6001600160a01b0383166000908152602a602052604090205481146113c757612ccc6135dc565b6040518060200160405280856001600160a01b031663aa5af0fd6040518163ffffffff1660e01b815260040160206040518083038186803b158015612d1057600080fd5b505afa158015612d24573d6000803e3d6000fd5b505050506040513d6020811015612d3a57600080fd5b505190529050612d4a84826121ec565b6001600160a01b0384166000818152602a6020908152604091829020859055815185815291517f0c62c1bc89ec4c40dccb4d21543e782c5ba43897c0075d108d8964181ea3c51b9281900390910190a250505050565b6000612ddc612dad6131db565b60405180604001604052806011815260200170626c6f636b2023203e203332206269747360781b8152506131df565b905090565b60006112c88383604051806040016040528060158152602001747375627472616374696f6e20756e646572666c6f7760581b815250613234565b60006112c8612e3284670de0b6b3a7640000612e39565b835161328e565b60006112c883836040518060400160405280601781526020017f6d756c7469706c69636174696f6e206f766572666c6f770000000000000000008152506132c1565b612e836135dc565b6040518060200160405280612eaf612ea9866a0c097ce7bc90715b34b9f160241b612e39565b8561328e565b90529392505050565b612ec06135dc565b6040518060200160405280612eaf85600001518560000151612b32565b600081600160e01b8410612f6f5760405162461bcd60e51b81526004018080602001828103825283818151815260200191508051906020019080838360005b83811015612f34578181015183820152602001612f1c565b50505050905090810190601f168015612f615780820380516001836020036101000a031916815260200191505b509250505060405180910390fd5b509192915050565b601c541580612f8e5750601c54612f8c6131db565b105b15612f985761214a565b603354604080516370a0823160e01b815230600482015290516001600160a01b039092169160009183916370a0823191602480820192602092909190829003018186803b158015612fe857600080fd5b505afa158015612ffc573d6000803e3d6000fd5b505050506040513d602081101561301257600080fd5b505190508061302257505061214a565b6000806130386130306131db565b601c54612de1565b90506000613048601a5483612e39565b90508084106130595780925061305d565b8392505b601d5483101561307157505050505061214a565b6130796131db565b601c55601b5461309c906001600160a01b0387811691168563ffffffff61333716565b6040805184815290517ff6d4b8f74d85a6e2d7a50225957b8a6cfec69ad92f5905627260541aa0a5565d9181900360200190a1601b60009054906101000a90046001600160a01b03166001600160a01b031663faa1809e6040518163ffffffff1660e01b8152600401600060405180830381600087803b158015610d9657600080fd5b60006a0c097ce7bc90715b34b9f160241b61313e848460000151612e39565b8161314557fe5b049392505050565b6131556135dc565b6040518060200160405280612eaf856000015185612e39565b51670de0b6b3a7640000900490565b600083830182858210156131d25760405162461bcd60e51b8152602060048201818152835160248401528351909283926044909101919085019080838360008315612f34578181015183820152602001612f1c565b50949350505050565b4390565b600081600160201b8410612f6f5760405162461bcd60e51b8152602060048201818152835160248401528351909283926044909101919085019080838360008315612f34578181015183820152602001612f1c565b600081848411156132865760405162461bcd60e51b8152602060048201818152835160248401528351909283926044909101919085019080838360008315612f34578181015183820152602001612f1c565b505050900390565b60006112c883836040518060400160405280600e81526020016d646976696465206279207a65726f60901b815250613389565b60008315806132ce575082155b156132db575060006112c8565b838302838582816132e857fe5b041483906131d25760405162461bcd60e51b8152602060048201818152835160248401528351909283926044909101919085019080838360008315612f34578181015183820152602001612f1c565b604080516001600160a01b038416602482015260448082018490528251808303909101815260649091019091526020810180516001600160e01b031663a9059cbb60e01b1790526113c79084906133eb565b600081836133d85760405162461bcd60e51b8152602060048201818152835160248401528351909283926044909101919085019080838360008315612f34578181015183820152602001612f1c565b508284816133e257fe5b04949350505050565b6133fd826001600160a01b03166135a3565b61344e576040805162461bcd60e51b815260206004820152601f60248201527f5361666542455032303a2063616c6c20746f206e6f6e2d636f6e747261637400604482015290519081900360640190fd5b60006060836001600160a01b0316836040518082805190602001908083835b6020831061348c5780518252601f19909201916020918201910161346d565b6001836020036101000a0380198251168184511680821785525050505050509050019150506000604051808303816000865af19150503d80600081146134ee576040519150601f19603f3d011682016040523d82523d6000602084013e6134f3565b606091505b50915091508161354a576040805162461bcd60e51b815260206004820181905260248201527f5361666542455032303a206c6f772d6c6576656c2063616c6c206661696c6564604482015290519081900360640190fd5b805115610f705780806020019051602081101561356657600080fd5b5051610f705760405162461bcd60e51b815260040180806020018281038252602a8152602001806135f0602a913960400191505060405180910390fd5b6000813f7fc5d2460186f7233c927e7db2dcc703c0e500b653ca82273b7bfad8045d85a470818114801590610e92575050151592915050565b604051806020016040528060008152509056fe5361666542455032303a204245503230206f7065726174696f6e20646964206e6f742073756363656564a265627a7a72315820a677572e364f5bc86d0e0adaf762480e45c9fcb1112c6e95e877d0731a1c0ede64736f6c63430005100032",
  "devdoc": {
    "author": "Venus",
    "details": "This facet contains all the hooks used while transferring the assets",
    "methods": {
      "_setVenusSpeeds(address[],uint256[],uint256[])": {
        "details": "Allows the contract admin to set XVS speed for a market",
        "params": {
          "borrowSpeeds": "New XVS speed for borrow",
          "supplySpeeds": "New XVS speed for supply",
          "vTokens": "The market whose XVS speed to update"
        }
      },
      "actionPaused(address,uint8)": {
        "params": {
          "action": "Action id",
          "market": "vToken address"
        }
      },
      "borrowAllowed(address,address,uint256)": {
        "params": {
          "borrowAmount": "The amount of underlying the account would borrow",
          "borrower": "The account which would borrow the asset",
          "vToken": "The market to verify the borrow against"
        },
        "return": "0 if the borrow is allowed, otherwise a semi-opaque error code (See ErrorReporter.sol)"
      },
      "borrowVerify(address,address,uint256)": {
        "params": {
          "borrowAmount": "The amount of the underlying asset requested to borrow",
          "borrower": "The address borrowing the underlying",
          "vToken": "Asset whose underlying is being borrowed"
        }
      },
      "getAccountLiquidity(address)": {
        "return": "(possible error code (semi-opaque), account liquidity in excess of collateral requirements,         account shortfall below collateral requirements)"
      },
      "getHypotheticalAccountLiquidity(address,address,uint256,uint256)": {
        "params": {
          "account": "The account to determine liquidity for",
          "borrowAmount": "The amount of underlying to hypothetically borrow",
          "redeemTokens": "The number of tokens to hypothetically redeem",
          "vTokenModify": "The market to hypothetically redeem/borrow in"
        },
        "return": "(possible error code (semi-opaque), hypothetical account liquidity in excess of collateral requirements,         hypothetical account shortfall below collateral requirements)"
      },
      "getXVSAddress()": {
        "return": "The address of XVS token"
      },
      "liquidateBorrowAllowed(address,address,address,address,uint256)": {
        "params": {
          "borrower": "The address of the borrower",
          "liquidator": "The address repaying the borrow and seizing the collateral",
          "repayAmount": "The amount of underlying being repaid",
          "vTokenBorrowed": "Asset which was borrowed by the borrower",
          "vTokenCollateral": "Asset which was used as collateral and will be seized"
        }
      },
      "liquidateBorrowVerify(address,address,address,address,uint256,uint256)": {
        "params": {
          "actualRepayAmount": "The amount of underlying being repaid",
          "borrower": "The address of the borrower",
          "liquidator": "The address repaying the borrow and seizing the collateral",
          "seizeTokens": "The amount of collateral token that will be seized",
          "vTokenBorrowed": "Asset which was borrowed by the borrower",
          "vTokenCollateral": "Asset which was used as collateral and will be seized"
        }
      },
      "mintAllowed(address,address,uint256)": {
        "params": {
          "mintAmount": "The amount of underlying being supplied to the market in exchange for tokens",
          "minter": "The account which would get the minted tokens",
          "vToken": "The market to verify the mint against"
        },
        "return": "0 if the mint is allowed, otherwise a semi-opaque error code (See ErrorReporter.sol)"
      },
      "mintVerify(address,address,uint256,uint256)": {
        "params": {
          "actualMintAmount": "The amount of the underlying asset being minted",
          "mintTokens": "The number of tokens being minted",
          "minter": "The address minting the tokens",
          "vToken": "Asset being minted"
        }
      },
      "redeemAllowed(address,address,uint256)": {
        "params": {
          "redeemTokens": "The number of vTokens to exchange for the underlying asset in the market",
          "redeemer": "The account which would redeem the tokens",
          "vToken": "The market to verify the redeem against"
        },
        "return": "0 if the redeem is allowed, otherwise a semi-opaque error code (See ErrorReporter.sol)"
      },
      "redeemVerify(address,address,uint256,uint256)": {
        "params": {
          "redeemAmount": "The amount of the underlying asset being redeemed",
          "redeemTokens": "The number of tokens being redeemed",
          "redeemer": "The address redeeming the tokens",
          "vToken": "Asset being redeemed"
        }
      },
      "repayBorrowAllowed(address,address,address,uint256)": {
        "params": {
          "borrower": "The account which borrowed the asset",
          "payer": "The account which would repay the asset",
          "repayAmount": "The amount of the underlying asset the account would repay",
          "vToken": "The market to verify the repay against"
        },
        "return": "0 if the repay is allowed, otherwise a semi-opaque error code (See ErrorReporter.sol)"
      },
      "repayBorrowVerify(address,address,address,uint256,uint256)": {
        "params": {
          "actualRepayAmount": "The amount of underlying being repaid",
          "borrower": "The address of the borrower",
          "payer": "The address repaying the borrow",
          "vToken": "Asset being repaid"
        }
      },
      "seizeAllowed(address,address,address,address,uint256)": {
        "params": {
          "borrower": "The address of the borrower",
          "liquidator": "The address repaying the borrow and seizing the collateral",
          "seizeTokens": "The number of collateral tokens to seize",
          "vTokenBorrowed": "Asset which was borrowed by the borrower",
          "vTokenCollateral": "Asset which was used as collateral and will be seized"
        }
      },
      "seizeVerify(address,address,address,address,uint256)": {
        "params": {
          "borrower": "The address of the borrower",
          "liquidator": "The address repaying the borrow and seizing the collateral",
          "seizeTokens": "The number of collateral tokens to seize",
          "vTokenBorrowed": "Asset which was borrowed by the borrower",
          "vTokenCollateral": "Asset which was used as collateral and will be seized"
        }
      },
      "transferAllowed(address,address,address,uint256)": {
        "params": {
          "dst": "The account which receives the tokens",
          "src": "The account which sources the tokens",
          "transferTokens": "The number of vTokens to transfer",
          "vToken": "The market to verify the transfer against"
        },
        "return": "0 if the transfer is allowed, otherwise a semi-opaque error code (See ErrorReporter.sol)"
      },
      "transferVerify(address,address,address,uint256)": {
        "params": {
          "dst": "The account which receives the tokens",
          "src": "The account which sources the tokens",
          "transferTokens": "The number of vTokens to transfer",
          "vToken": "Asset being transferred"
        }
      }
    },
    "title": "PolicyFacet"
  },
  "userdoc": {
    "methods": {
      "_setVenusSpeeds(address[],uint256[],uint256[])": {
        "notice": "Set XVS speed for a single market"
      },
      "actionPaused(address,uint8)": {
        "notice": "Checks if a certain action is paused on a market"
      },
      "borrowAllowed(address,address,uint256)": {
        "notice": "Checks if the account should be allowed to borrow the underlying asset of the given market"
      },
      "borrowVerify(address,address,uint256)": {
        "notice": "Validates borrow, accrues interest and updates score in prime. Reverts on rejection. May emit logs."
      },
      "getAccountLiquidity(address)": {
        "notice": "Determine the current account liquidity wrt collateral requirements"
      },
      "getHypotheticalAccountLiquidity(address,address,uint256,uint256)": {
        "notice": "Determine what the account liquidity would be if the given amounts were redeemed/borrowed"
      },
      "getXVSAddress()": {
        "notice": "Returns the XVS address"
      },
      "liquidateBorrowAllowed(address,address,address,address,uint256)": {
        "notice": "Checks if the liquidation should be allowed to occur"
      },
      "liquidateBorrowVerify(address,address,address,address,uint256,uint256)": {
        "notice": "Validates liquidateBorrow, accrues interest and updates score in prime. Reverts on rejection. May emit logs."
      },
      "mintAllowed(address,address,uint256)": {
        "notice": "Checks if the account should be allowed to mint tokens in the given market"
      },
      "mintVerify(address,address,uint256,uint256)": {
        "notice": "Validates mint, accrues interest and updates score in prime. Reverts on rejection. May emit logs."
      },
      "redeemAllowed(address,address,uint256)": {
        "notice": "Checks if the account should be allowed to redeem tokens in the given market"
      },
      "redeemVerify(address,address,uint256,uint256)": {
        "notice": "Validates redeem, accrues interest and updates score in prime. Reverts on rejection. May emit logs."
      },
      "repayBorrowAllowed(address,address,address,uint256)": {
        "notice": "Checks if the account should be allowed to repay a borrow in the given market"
      },
      "repayBorrowVerify(address,address,address,uint256,uint256)": {
        "notice": "Validates repayBorrow, accrues interest and updates score in prime. Reverts on rejection. May emit logs."
      },
      "seizeAllowed(address,address,address,address,uint256)": {
        "notice": "Checks if the seizing of assets should be allowed to occur"
      },
      "seizeVerify(address,address,address,address,uint256)": {
        "notice": "Validates seize, accrues interest and updates score in prime. Reverts on rejection. May emit logs."
      },
      "transferAllowed(address,address,address,uint256)": {
        "notice": "Checks if the account should be allowed to transfer tokens in the given market"
      },
      "transferVerify(address,address,address,uint256)": {
        "notice": "Validates transfer, accrues interest and updates score in prime. Reverts on rejection. May emit logs."
      }
    },
    "notice": "This facet contract contains all the external pre-hook functions related to vToken"
  },
  "storageLayout": {
    "storage": [
      {
        "astId": 2402,
        "contract": "contracts/Comptroller/Diamond/facets/PolicyFacet.sol:PolicyFacet",
        "label": "admin",
        "offset": 0,
        "slot": "0",
        "type": "t_address"
      },
      {
        "astId": 2404,
        "contract": "contracts/Comptroller/Diamond/facets/PolicyFacet.sol:PolicyFacet",
        "label": "pendingAdmin",
        "offset": 0,
        "slot": "1",
        "type": "t_address"
      },
      {
        "astId": 2406,
        "contract": "contracts/Comptroller/Diamond/facets/PolicyFacet.sol:PolicyFacet",
        "label": "comptrollerImplementation",
        "offset": 0,
        "slot": "2",
        "type": "t_address"
      },
      {
        "astId": 2408,
        "contract": "contracts/Comptroller/Diamond/facets/PolicyFacet.sol:PolicyFacet",
        "label": "pendingComptrollerImplementation",
        "offset": 0,
        "slot": "3",
        "type": "t_address"
      },
      {
        "astId": 2415,
        "contract": "contracts/Comptroller/Diamond/facets/PolicyFacet.sol:PolicyFacet",
        "label": "oracle",
        "offset": 0,
        "slot": "4",
        "type": "t_contract(PriceOracle)12106"
      },
      {
        "astId": 2417,
        "contract": "contracts/Comptroller/Diamond/facets/PolicyFacet.sol:PolicyFacet",
        "label": "closeFactorMantissa",
        "offset": 0,
        "slot": "5",
        "type": "t_uint256"
      },
      {
        "astId": 2419,
        "contract": "contracts/Comptroller/Diamond/facets/PolicyFacet.sol:PolicyFacet",
        "label": "liquidationIncentiveMantissa",
        "offset": 0,
        "slot": "6",
        "type": "t_uint256"
      },
      {
        "astId": 2421,
        "contract": "contracts/Comptroller/Diamond/facets/PolicyFacet.sol:PolicyFacet",
        "label": "maxAssets",
        "offset": 0,
        "slot": "7",
        "type": "t_uint256"
      },
      {
        "astId": 2426,
        "contract": "contracts/Comptroller/Diamond/facets/PolicyFacet.sol:PolicyFacet",
        "label": "accountAssets",
        "offset": 0,
        "slot": "8",
        "type": "t_mapping(t_address,t_array(t_contract(VToken)23033)dyn_storage)"
      },
      {
        "astId": 2441,
        "contract": "contracts/Comptroller/Diamond/facets/PolicyFacet.sol:PolicyFacet",
        "label": "markets",
        "offset": 0,
        "slot": "9",
        "type": "t_mapping(t_address,t_struct(Market)2437_storage)"
      },
      {
        "astId": 2443,
        "contract": "contracts/Comptroller/Diamond/facets/PolicyFacet.sol:PolicyFacet",
        "label": "pauseGuardian",
        "offset": 0,
        "slot": "10",
        "type": "t_address"
      },
      {
        "astId": 2445,
        "contract": "contracts/Comptroller/Diamond/facets/PolicyFacet.sol:PolicyFacet",
        "label": "_mintGuardianPaused",
        "offset": 20,
        "slot": "10",
        "type": "t_bool"
      },
      {
        "astId": 2447,
        "contract": "contracts/Comptroller/Diamond/facets/PolicyFacet.sol:PolicyFacet",
        "label": "_borrowGuardianPaused",
        "offset": 21,
        "slot": "10",
        "type": "t_bool"
      },
      {
        "astId": 2449,
        "contract": "contracts/Comptroller/Diamond/facets/PolicyFacet.sol:PolicyFacet",
        "label": "transferGuardianPaused",
        "offset": 22,
        "slot": "10",
        "type": "t_bool"
      },
      {
        "astId": 2451,
        "contract": "contracts/Comptroller/Diamond/facets/PolicyFacet.sol:PolicyFacet",
        "label": "seizeGuardianPaused",
        "offset": 23,
        "slot": "10",
        "type": "t_bool"
      },
      {
        "astId": 2455,
        "contract": "contracts/Comptroller/Diamond/facets/PolicyFacet.sol:PolicyFacet",
        "label": "mintGuardianPaused",
        "offset": 0,
        "slot": "11",
        "type": "t_mapping(t_address,t_bool)"
      },
      {
        "astId": 2459,
        "contract": "contracts/Comptroller/Diamond/facets/PolicyFacet.sol:PolicyFacet",
        "label": "borrowGuardianPaused",
        "offset": 0,
        "slot": "12",
        "type": "t_mapping(t_address,t_bool)"
      },
      {
        "astId": 2467,
        "contract": "contracts/Comptroller/Diamond/facets/PolicyFacet.sol:PolicyFacet",
        "label": "allMarkets",
        "offset": 0,
        "slot": "13",
        "type": "t_array(t_contract(VToken)23033)dyn_storage"
      },
      {
        "astId": 2469,
        "contract": "contracts/Comptroller/Diamond/facets/PolicyFacet.sol:PolicyFacet",
        "label": "venusRate",
        "offset": 0,
        "slot": "14",
        "type": "t_uint256"
      },
      {
        "astId": 2473,
        "contract": "contracts/Comptroller/Diamond/facets/PolicyFacet.sol:PolicyFacet",
        "label": "venusSpeeds",
        "offset": 0,
        "slot": "15",
        "type": "t_mapping(t_address,t_uint256)"
      },
      {
        "astId": 2477,
        "contract": "contracts/Comptroller/Diamond/facets/PolicyFacet.sol:PolicyFacet",
        "label": "venusSupplyState",
        "offset": 0,
        "slot": "16",
        "type": "t_mapping(t_address,t_struct(VenusMarketState)2464_storage)"
      },
      {
        "astId": 2481,
        "contract": "contracts/Comptroller/Diamond/facets/PolicyFacet.sol:PolicyFacet",
        "label": "venusBorrowState",
        "offset": 0,
        "slot": "17",
        "type": "t_mapping(t_address,t_struct(VenusMarketState)2464_storage)"
      },
      {
        "astId": 2487,
        "contract": "contracts/Comptroller/Diamond/facets/PolicyFacet.sol:PolicyFacet",
        "label": "venusSupplierIndex",
        "offset": 0,
        "slot": "18",
        "type": "t_mapping(t_address,t_mapping(t_address,t_uint256))"
      },
      {
        "astId": 2493,
        "contract": "contracts/Comptroller/Diamond/facets/PolicyFacet.sol:PolicyFacet",
        "label": "venusBorrowerIndex",
        "offset": 0,
        "slot": "19",
        "type": "t_mapping(t_address,t_mapping(t_address,t_uint256))"
      },
      {
        "astId": 2497,
        "contract": "contracts/Comptroller/Diamond/facets/PolicyFacet.sol:PolicyFacet",
        "label": "venusAccrued",
        "offset": 0,
        "slot": "20",
        "type": "t_mapping(t_address,t_uint256)"
      },
      {
        "astId": 2499,
        "contract": "contracts/Comptroller/Diamond/facets/PolicyFacet.sol:PolicyFacet",
        "label": "vaiController",
        "offset": 0,
        "slot": "21",
        "type": "t_contract(VAIControllerInterface)15582"
      },
      {
        "astId": 2503,
        "contract": "contracts/Comptroller/Diamond/facets/PolicyFacet.sol:PolicyFacet",
        "label": "mintedVAIs",
        "offset": 0,
        "slot": "22",
        "type": "t_mapping(t_address,t_uint256)"
      },
      {
        "astId": 2505,
        "contract": "contracts/Comptroller/Diamond/facets/PolicyFacet.sol:PolicyFacet",
        "label": "vaiMintRate",
        "offset": 0,
        "slot": "23",
        "type": "t_uint256"
      },
      {
        "astId": 2507,
        "contract": "contracts/Comptroller/Diamond/facets/PolicyFacet.sol:PolicyFacet",
        "label": "mintVAIGuardianPaused",
        "offset": 0,
        "slot": "24",
        "type": "t_bool"
      },
      {
        "astId": 2509,
        "contract": "contracts/Comptroller/Diamond/facets/PolicyFacet.sol:PolicyFacet",
        "label": "repayVAIGuardianPaused",
        "offset": 1,
        "slot": "24",
        "type": "t_bool"
      },
      {
        "astId": 2511,
        "contract": "contracts/Comptroller/Diamond/facets/PolicyFacet.sol:PolicyFacet",
        "label": "protocolPaused",
        "offset": 2,
        "slot": "24",
        "type": "t_bool"
      },
      {
        "astId": 2513,
        "contract": "contracts/Comptroller/Diamond/facets/PolicyFacet.sol:PolicyFacet",
        "label": "venusVAIRate",
        "offset": 0,
        "slot": "25",
        "type": "t_uint256"
      },
      {
        "astId": 2518,
        "contract": "contracts/Comptroller/Diamond/facets/PolicyFacet.sol:PolicyFacet",
        "label": "venusVAIVaultRate",
        "offset": 0,
        "slot": "26",
        "type": "t_uint256"
      },
      {
        "astId": 2520,
        "contract": "contracts/Comptroller/Diamond/facets/PolicyFacet.sol:PolicyFacet",
        "label": "vaiVaultAddress",
        "offset": 0,
        "slot": "27",
        "type": "t_address"
      },
      {
        "astId": 2522,
        "contract": "contracts/Comptroller/Diamond/facets/PolicyFacet.sol:PolicyFacet",
        "label": "releaseStartBlock",
        "offset": 0,
        "slot": "28",
        "type": "t_uint256"
      },
      {
        "astId": 2524,
        "contract": "contracts/Comptroller/Diamond/facets/PolicyFacet.sol:PolicyFacet",
        "label": "minReleaseAmount",
        "offset": 0,
        "slot": "29",
        "type": "t_uint256"
      },
      {
        "astId": 2529,
        "contract": "contracts/Comptroller/Diamond/facets/PolicyFacet.sol:PolicyFacet",
        "label": "borrowCapGuardian",
        "offset": 0,
        "slot": "30",
        "type": "t_address"
      },
      {
        "astId": 2533,
        "contract": "contracts/Comptroller/Diamond/facets/PolicyFacet.sol:PolicyFacet",
        "label": "borrowCaps",
        "offset": 0,
        "slot": "31",
        "type": "t_mapping(t_address,t_uint256)"
      },
      {
        "astId": 2538,
        "contract": "contracts/Comptroller/Diamond/facets/PolicyFacet.sol:PolicyFacet",
        "label": "treasuryGuardian",
        "offset": 0,
        "slot": "32",
        "type": "t_address"
      },
      {
        "astId": 2540,
        "contract": "contracts/Comptroller/Diamond/facets/PolicyFacet.sol:PolicyFacet",
        "label": "treasuryAddress",
        "offset": 0,
        "slot": "33",
        "type": "t_address"
      },
      {
        "astId": 2542,
        "contract": "contracts/Comptroller/Diamond/facets/PolicyFacet.sol:PolicyFacet",
        "label": "treasuryPercent",
        "offset": 0,
        "slot": "34",
        "type": "t_uint256"
      },
      {
        "astId": 2549,
        "contract": "contracts/Comptroller/Diamond/facets/PolicyFacet.sol:PolicyFacet",
        "label": "venusContributorSpeeds",
        "offset": 0,
        "slot": "35",
        "type": "t_mapping(t_address,t_uint256)"
      },
      {
        "astId": 2553,
        "contract": "contracts/Comptroller/Diamond/facets/PolicyFacet.sol:PolicyFacet",
        "label": "lastContributorBlock",
        "offset": 0,
        "slot": "36",
        "type": "t_mapping(t_address,t_uint256)"
      },
      {
        "astId": 2558,
        "contract": "contracts/Comptroller/Diamond/facets/PolicyFacet.sol:PolicyFacet",
        "label": "liquidatorContract",
        "offset": 0,
        "slot": "37",
        "type": "t_address"
      },
      {
        "astId": 2563,
        "contract": "contracts/Comptroller/Diamond/facets/PolicyFacet.sol:PolicyFacet",
        "label": "comptrollerLens",
        "offset": 0,
        "slot": "38",
        "type": "t_contract(ComptrollerLensInterface)2377"
      },
      {
        "astId": 2570,
        "contract": "contracts/Comptroller/Diamond/facets/PolicyFacet.sol:PolicyFacet",
        "label": "supplyCaps",
        "offset": 0,
        "slot": "39",
        "type": "t_mapping(t_address,t_uint256)"
      },
      {
        "astId": 2575,
        "contract": "contracts/Comptroller/Diamond/facets/PolicyFacet.sol:PolicyFacet",
        "label": "accessControl",
        "offset": 0,
        "slot": "40",
        "type": "t_address"
      },
      {
        "astId": 2581,
        "contract": "contracts/Comptroller/Diamond/facets/PolicyFacet.sol:PolicyFacet",
        "label": "_actionPaused",
        "offset": 0,
        "slot": "41",
        "type": "t_mapping(t_address,t_mapping(t_uint256,t_bool))"
      },
      {
        "astId": 2588,
        "contract": "contracts/Comptroller/Diamond/facets/PolicyFacet.sol:PolicyFacet",
        "label": "venusBorrowSpeeds",
        "offset": 0,
        "slot": "42",
        "type": "t_mapping(t_address,t_uint256)"
      },
      {
        "astId": 2592,
        "contract": "contracts/Comptroller/Diamond/facets/PolicyFacet.sol:PolicyFacet",
        "label": "venusSupplySpeeds",
        "offset": 0,
        "slot": "43",
        "type": "t_mapping(t_address,t_uint256)"
      },
      {
        "astId": 2601,
        "contract": "contracts/Comptroller/Diamond/facets/PolicyFacet.sol:PolicyFacet",
        "label": "approvedDelegates",
        "offset": 0,
        "slot": "44",
        "type": "t_mapping(t_address,t_mapping(t_address,t_bool))"
      },
      {
        "astId": 2608,
        "contract": "contracts/Comptroller/Diamond/facets/PolicyFacet.sol:PolicyFacet",
        "label": "isForcedLiquidationEnabled",
        "offset": 0,
        "slot": "45",
        "type": "t_mapping(t_address,t_bool)"
      },
      {
        "astId": 2626,
        "contract": "contracts/Comptroller/Diamond/facets/PolicyFacet.sol:PolicyFacet",
        "label": "_selectorToFacetAndPosition",
        "offset": 0,
        "slot": "46",
        "type": "t_mapping(t_bytes4,t_struct(FacetAddressAndPosition)2616_storage)"
      },
      {
        "astId": 2630,
        "contract": "contracts/Comptroller/Diamond/facets/PolicyFacet.sol:PolicyFacet",
        "label": "_facetFunctionSelectors",
        "offset": 0,
        "slot": "47",
        "type": "t_mapping(t_address,t_struct(FacetFunctionSelectors)2622_storage)"
      },
      {
        "astId": 2633,
        "contract": "contracts/Comptroller/Diamond/facets/PolicyFacet.sol:PolicyFacet",
        "label": "_facetAddresses",
        "offset": 0,
        "slot": "48",
        "type": "t_array(t_address)dyn_storage"
      },
      {
        "astId": 2638,
        "contract": "contracts/Comptroller/Diamond/facets/PolicyFacet.sol:PolicyFacet",
        "label": "prime",
        "offset": 0,
        "slot": "49",
        "type": "t_contract(IPrime)12283"
      },
      {
        "astId": 2647,
        "contract": "contracts/Comptroller/Diamond/facets/PolicyFacet.sol:PolicyFacet",
        "label": "isForcedLiquidationEnabledForUser",
        "offset": 0,
        "slot": "50",
        "type": "t_mapping(t_address,t_mapping(t_address,t_bool))"
      },
      {
        "astId": 2652,
        "contract": "contracts/Comptroller/Diamond/facets/PolicyFacet.sol:PolicyFacet",
        "label": "xvs",
        "offset": 0,
        "slot": "51",
        "type": "t_address"
      },
      {
        "astId": 2654,
        "contract": "contracts/Comptroller/Diamond/facets/PolicyFacet.sol:PolicyFacet",
        "label": "xvsVToken",
        "offset": 0,
        "slot": "52",
        "type": "t_address"
      }
    ],
    "types": {
      "t_address": {
        "encoding": "inplace",
        "label": "address",
        "numberOfBytes": "20"
      },
      "t_array(t_address)dyn_storage": {
        "base": "t_address",
        "encoding": "dynamic_array",
        "label": "address[]",
        "numberOfBytes": "32"
      },
      "t_array(t_bytes4)dyn_storage": {
        "base": "t_bytes4",
        "encoding": "dynamic_array",
        "label": "bytes4[]",
        "numberOfBytes": "32"
      },
      "t_array(t_contract(VToken)23033)dyn_storage": {
        "base": "t_contract(VToken)23033",
        "encoding": "dynamic_array",
        "label": "contract VToken[]",
        "numberOfBytes": "32"
      },
      "t_bool": {
        "encoding": "inplace",
        "label": "bool",
        "numberOfBytes": "1"
      },
      "t_bytes4": {
        "encoding": "inplace",
        "label": "bytes4",
        "numberOfBytes": "4"
      },
      "t_contract(ComptrollerLensInterface)2377": {
        "encoding": "inplace",
        "label": "contract ComptrollerLensInterface",
        "numberOfBytes": "20"
      },
      "t_contract(IPrime)12283": {
        "encoding": "inplace",
        "label": "contract IPrime",
        "numberOfBytes": "20"
      },
      "t_contract(PriceOracle)12106": {
        "encoding": "inplace",
        "label": "contract PriceOracle",
        "numberOfBytes": "20"
      },
      "t_contract(VAIControllerInterface)15582": {
        "encoding": "inplace",
        "label": "contract VAIControllerInterface",
        "numberOfBytes": "20"
      },
      "t_contract(VToken)23033": {
        "encoding": "inplace",
        "label": "contract VToken",
        "numberOfBytes": "20"
      },
      "t_mapping(t_address,t_array(t_contract(VToken)23033)dyn_storage)": {
        "encoding": "mapping",
        "key": "t_address",
        "label": "mapping(address => contract VToken[])",
        "numberOfBytes": "32",
        "value": "t_array(t_contract(VToken)23033)dyn_storage"
      },
      "t_mapping(t_address,t_bool)": {
        "encoding": "mapping",
        "key": "t_address",
        "label": "mapping(address => bool)",
        "numberOfBytes": "32",
        "value": "t_bool"
      },
      "t_mapping(t_address,t_mapping(t_address,t_bool))": {
        "encoding": "mapping",
        "key": "t_address",
        "label": "mapping(address => mapping(address => bool))",
        "numberOfBytes": "32",
        "value": "t_mapping(t_address,t_bool)"
      },
      "t_mapping(t_address,t_mapping(t_address,t_uint256))": {
        "encoding": "mapping",
        "key": "t_address",
        "label": "mapping(address => mapping(address => uint256))",
        "numberOfBytes": "32",
        "value": "t_mapping(t_address,t_uint256)"
      },
      "t_mapping(t_address,t_mapping(t_uint256,t_bool))": {
        "encoding": "mapping",
        "key": "t_address",
        "label": "mapping(address => mapping(uint256 => bool))",
        "numberOfBytes": "32",
        "value": "t_mapping(t_uint256,t_bool)"
      },
      "t_mapping(t_address,t_struct(FacetFunctionSelectors)2622_storage)": {
        "encoding": "mapping",
        "key": "t_address",
        "label": "mapping(address => struct ComptrollerV13Storage.FacetFunctionSelectors)",
        "numberOfBytes": "32",
        "value": "t_struct(FacetFunctionSelectors)2622_storage"
      },
      "t_mapping(t_address,t_struct(Market)2437_storage)": {
        "encoding": "mapping",
        "key": "t_address",
        "label": "mapping(address => struct ComptrollerV1Storage.Market)",
        "numberOfBytes": "32",
        "value": "t_struct(Market)2437_storage"
      },
      "t_mapping(t_address,t_struct(VenusMarketState)2464_storage)": {
        "encoding": "mapping",
        "key": "t_address",
        "label": "mapping(address => struct ComptrollerV1Storage.VenusMarketState)",
        "numberOfBytes": "32",
        "value": "t_struct(VenusMarketState)2464_storage"
      },
      "t_mapping(t_address,t_uint256)": {
        "encoding": "mapping",
        "key": "t_address",
        "label": "mapping(address => uint256)",
        "numberOfBytes": "32",
        "value": "t_uint256"
      },
      "t_mapping(t_bytes4,t_struct(FacetAddressAndPosition)2616_storage)": {
        "encoding": "mapping",
        "key": "t_bytes4",
        "label": "mapping(bytes4 => struct ComptrollerV13Storage.FacetAddressAndPosition)",
        "numberOfBytes": "32",
        "value": "t_struct(FacetAddressAndPosition)2616_storage"
      },
      "t_mapping(t_uint256,t_bool)": {
        "encoding": "mapping",
        "key": "t_uint256",
        "label": "mapping(uint256 => bool)",
        "numberOfBytes": "32",
        "value": "t_bool"
      },
      "t_struct(FacetAddressAndPosition)2616_storage": {
        "encoding": "inplace",
        "label": "struct ComptrollerV13Storage.FacetAddressAndPosition",
        "members": [
          {
            "astId": 2613,
            "contract": "contracts/Comptroller/Diamond/facets/PolicyFacet.sol:PolicyFacet",
            "label": "facetAddress",
            "offset": 0,
            "slot": "0",
            "type": "t_address"
          },
          {
            "astId": 2615,
            "contract": "contracts/Comptroller/Diamond/facets/PolicyFacet.sol:PolicyFacet",
            "label": "functionSelectorPosition",
            "offset": 20,
            "slot": "0",
            "type": "t_uint96"
          }
        ],
        "numberOfBytes": "32"
      },
      "t_struct(FacetFunctionSelectors)2622_storage": {
        "encoding": "inplace",
        "label": "struct ComptrollerV13Storage.FacetFunctionSelectors",
        "members": [
          {
            "astId": 2619,
            "contract": "contracts/Comptroller/Diamond/facets/PolicyFacet.sol:PolicyFacet",
            "label": "functionSelectors",
            "offset": 0,
            "slot": "0",
            "type": "t_array(t_bytes4)dyn_storage"
          },
          {
            "astId": 2621,
            "contract": "contracts/Comptroller/Diamond/facets/PolicyFacet.sol:PolicyFacet",
            "label": "facetAddressPosition",
            "offset": 0,
            "slot": "1",
            "type": "t_uint256"
          }
        ],
        "numberOfBytes": "64"
      },
      "t_struct(Market)2437_storage": {
        "encoding": "inplace",
        "label": "struct ComptrollerV1Storage.Market",
        "members": [
          {
            "astId": 2428,
            "contract": "contracts/Comptroller/Diamond/facets/PolicyFacet.sol:PolicyFacet",
            "label": "isListed",
            "offset": 0,
            "slot": "0",
            "type": "t_bool"
          },
          {
            "astId": 2430,
            "contract": "contracts/Comptroller/Diamond/facets/PolicyFacet.sol:PolicyFacet",
            "label": "collateralFactorMantissa",
            "offset": 0,
            "slot": "1",
            "type": "t_uint256"
          },
          {
            "astId": 2434,
            "contract": "contracts/Comptroller/Diamond/facets/PolicyFacet.sol:PolicyFacet",
            "label": "accountMembership",
            "offset": 0,
            "slot": "2",
            "type": "t_mapping(t_address,t_bool)"
          },
          {
            "astId": 2436,
            "contract": "contracts/Comptroller/Diamond/facets/PolicyFacet.sol:PolicyFacet",
            "label": "isVenus",
            "offset": 0,
            "slot": "3",
            "type": "t_bool"
          }
        ],
        "numberOfBytes": "128"
      },
      "t_struct(VenusMarketState)2464_storage": {
        "encoding": "inplace",
        "label": "struct ComptrollerV1Storage.VenusMarketState",
        "members": [
          {
            "astId": 2461,
            "contract": "contracts/Comptroller/Diamond/facets/PolicyFacet.sol:PolicyFacet",
            "label": "index",
            "offset": 0,
            "slot": "0",
            "type": "t_uint224"
          },
          {
            "astId": 2463,
            "contract": "contracts/Comptroller/Diamond/facets/PolicyFacet.sol:PolicyFacet",
            "label": "block",
            "offset": 28,
            "slot": "0",
            "type": "t_uint32"
          }
        ],
        "numberOfBytes": "32"
      },
      "t_uint224": {
        "encoding": "inplace",
        "label": "uint224",
        "numberOfBytes": "28"
      },
      "t_uint256": {
        "encoding": "inplace",
        "label": "uint256",
        "numberOfBytes": "32"
      },
      "t_uint32": {
        "encoding": "inplace",
        "label": "uint32",
        "numberOfBytes": "4"
      },
      "t_uint96": {
        "encoding": "inplace",
        "label": "uint96",
        "numberOfBytes": "12"
      }
    }
  }
}