{
  "address": "0xc86f1aA3cBe1F76F3335a66Db7F490e343CbeF50",
  "abi": [
    {
      "inputs": [
        {
          "internalType": "address",
          "name": "_wbnb",
          "type": "address"
        },
        {
          "internalType": "address",
          "name": "_vbnb",
          "type": "address"
        },
        {
          "internalType": "uint256",
          "name": "_blocksPerYear",
          "type": "uint256"
        },
        {
          "internalType": "uint256",
          "name": "_stakingPeriod",
          "type": "uint256"
        },
        {
          "internalType": "uint256",
          "name": "_minimumStakedXVS",
          "type": "uint256"
        },
        {
          "internalType": "uint256",
          "name": "_maximumXVSCap",
          "type": "uint256"
        }
      ],
      "stateMutability": "nonpayable",
      "type": "constructor"
    },
    {
      "inputs": [],
      "name": "AssetAlreadyExists",
      "type": "error"
    },
    {
      "inputs": [
        {
          "internalType": "int256",
          "name": "x",
          "type": "int256"
        }
      ],
      "name": "ExpTooLarge",
      "type": "error"
    },
    {
      "inputs": [],
      "name": "IneligibleToClaim",
      "type": "error"
    },
    {
      "inputs": [],
      "name": "InvalidAddress",
      "type": "error"
    },
    {
      "inputs": [],
      "name": "InvalidAlphaArguments",
      "type": "error"
    },
    {
      "inputs": [],
      "name": "InvalidBlocksPerYear",
      "type": "error"
    },
    {
      "inputs": [],
      "name": "InvalidFixedPoint",
      "type": "error"
    },
    {
      "inputs": [
        {
          "internalType": "uint256",
          "name": "n",
          "type": "uint256"
        },
        {
          "internalType": "uint256",
          "name": "d",
          "type": "uint256"
        }
      ],
      "name": "InvalidFraction",
      "type": "error"
    },
    {
      "inputs": [],
      "name": "InvalidLength",
      "type": "error"
    },
    {
      "inputs": [],
      "name": "InvalidLimit",
      "type": "error"
    },
    {
      "inputs": [],
      "name": "InvalidTimestamp",
      "type": "error"
    },
    {
      "inputs": [],
      "name": "InvalidVToken",
      "type": "error"
    },
    {
      "inputs": [
        {
          "internalType": "int256",
          "name": "x",
          "type": "int256"
        }
      ],
      "name": "LnNonRealResult",
      "type": "error"
    },
    {
      "inputs": [
        {
          "internalType": "int256",
          "name": "x",
          "type": "int256"
        }
      ],
      "name": "LnTooLarge",
      "type": "error"
    },
    {
      "inputs": [],
      "name": "MarketAlreadyExists",
      "type": "error"
    },
    {
      "inputs": [],
      "name": "MarketNotSupported",
      "type": "error"
    },
    {
      "inputs": [
        {
          "internalType": "uint256",
          "name": "loopsLimit",
          "type": "uint256"
        },
        {
          "internalType": "uint256",
          "name": "requiredLoops",
          "type": "uint256"
        }
      ],
      "name": "MaxLoopsLimitExceeded",
      "type": "error"
    },
    {
      "inputs": [],
      "name": "NoScoreUpdatesRequired",
      "type": "error"
    },
    {
      "inputs": [
        {
          "internalType": "address",
          "name": "sender",
          "type": "address"
        },
        {
          "internalType": "address",
          "name": "calledContract",
          "type": "address"
        },
        {
          "internalType": "string",
          "name": "methodSignature",
          "type": "string"
        }
      ],
      "name": "Unauthorized",
      "type": "error"
    },
    {
      "inputs": [],
      "name": "UserHasNoPrimeToken",
      "type": "error"
    },
    {
      "inputs": [],
      "name": "WaitMoreTime",
      "type": "error"
    },
    {
      "anonymous": false,
      "inputs": [
        {
          "indexed": true,
          "internalType": "uint128",
          "name": "oldNumerator",
          "type": "uint128"
        },
        {
          "indexed": true,
          "internalType": "uint128",
          "name": "oldDenominator",
          "type": "uint128"
        },
        {
          "indexed": true,
          "internalType": "uint128",
          "name": "newNumerator",
          "type": "uint128"
        },
        {
          "indexed": false,
          "internalType": "uint128",
          "name": "newDenominator",
          "type": "uint128"
        }
      ],
      "name": "AlphaUpdated",
      "type": "event"
    },
    {
      "anonymous": false,
      "inputs": [
        {
          "indexed": true,
          "internalType": "address",
          "name": "user",
          "type": "address"
        }
      ],
      "name": "Burn",
      "type": "event"
    },
    {
      "anonymous": false,
      "inputs": [
        {
          "indexed": false,
          "internalType": "uint8",
          "name": "version",
          "type": "uint8"
        }
      ],
      "name": "Initialized",
      "type": "event"
    },
    {
      "anonymous": false,
      "inputs": [
        {
          "indexed": true,
          "internalType": "address",
          "name": "user",
          "type": "address"
        },
        {
          "indexed": true,
          "internalType": "address",
          "name": "market",
          "type": "address"
        },
        {
          "indexed": false,
          "internalType": "uint256",
          "name": "amount",
          "type": "uint256"
        }
      ],
      "name": "InterestClaimed",
      "type": "event"
    },
    {
      "anonymous": false,
      "inputs": [
        {
          "indexed": true,
          "internalType": "address",
          "name": "market",
          "type": "address"
        },
        {
          "indexed": true,
          "internalType": "uint256",
          "name": "supplyMultiplier",
          "type": "uint256"
        },
        {
          "indexed": true,
          "internalType": "uint256",
          "name": "borrowMultiplier",
          "type": "uint256"
        }
      ],
      "name": "MarketAdded",
      "type": "event"
    },
    {
      "anonymous": false,
      "inputs": [
        {
          "indexed": false,
          "internalType": "uint256",
          "name": "oldMaxLoopsLimit",
          "type": "uint256"
        },
        {
          "indexed": false,
          "internalType": "uint256",
          "name": "newmaxLoopsLimit",
          "type": "uint256"
        }
      ],
      "name": "MaxLoopsLimitUpdated",
      "type": "event"
    },
    {
      "anonymous": false,
      "inputs": [
        {
          "indexed": true,
          "internalType": "address",
          "name": "user",
          "type": "address"
        },
        {
          "indexed": false,
          "internalType": "bool",
          "name": "isIrrevocable",
          "type": "bool"
        }
      ],
      "name": "Mint",
      "type": "event"
    },
    {
      "anonymous": false,
      "inputs": [
        {
          "indexed": true,
          "internalType": "uint256",
          "name": "oldIrrevocableLimit",
          "type": "uint256"
        },
        {
          "indexed": true,
          "internalType": "uint256",
          "name": "oldRevocableLimit",
          "type": "uint256"
        },
        {
          "indexed": true,
          "internalType": "uint256",
          "name": "newIrrevocableLimit",
          "type": "uint256"
        },
        {
          "indexed": false,
          "internalType": "uint256",
          "name": "newRevocableLimit",
          "type": "uint256"
        }
      ],
      "name": "MintLimitsUpdated",
      "type": "event"
    },
    {
      "anonymous": false,
      "inputs": [
        {
          "indexed": true,
          "internalType": "address",
          "name": "market",
          "type": "address"
        },
        {
          "indexed": true,
          "internalType": "uint256",
          "name": "oldSupplyMultiplier",
          "type": "uint256"
        },
        {
          "indexed": true,
          "internalType": "uint256",
          "name": "oldBorrowMultiplier",
          "type": "uint256"
        },
        {
          "indexed": false,
          "internalType": "uint256",
          "name": "newSupplyMultiplier",
          "type": "uint256"
        },
        {
          "indexed": false,
          "internalType": "uint256",
          "name": "newBorrowMultiplier",
          "type": "uint256"
        }
      ],
      "name": "MultiplierUpdated",
      "type": "event"
    },
    {
      "anonymous": false,
      "inputs": [
        {
          "indexed": false,
          "internalType": "address",
          "name": "oldAccessControlManager",
          "type": "address"
        },
        {
          "indexed": false,
          "internalType": "address",
          "name": "newAccessControlManager",
          "type": "address"
        }
      ],
      "name": "NewAccessControlManager",
      "type": "event"
    },
    {
      "anonymous": false,
      "inputs": [
        {
          "indexed": true,
          "internalType": "address",
          "name": "previousOwner",
          "type": "address"
        },
        {
          "indexed": true,
          "internalType": "address",
          "name": "newOwner",
          "type": "address"
        }
      ],
      "name": "OwnershipTransferStarted",
      "type": "event"
    },
    {
      "anonymous": false,
      "inputs": [
        {
          "indexed": true,
          "internalType": "address",
          "name": "previousOwner",
          "type": "address"
        },
        {
          "indexed": true,
          "internalType": "address",
          "name": "newOwner",
          "type": "address"
        }
      ],
      "name": "OwnershipTransferred",
      "type": "event"
    },
    {
      "anonymous": false,
      "inputs": [
        {
          "indexed": false,
          "internalType": "address",
          "name": "account",
          "type": "address"
        }
      ],
      "name": "Paused",
      "type": "event"
    },
    {
      "anonymous": false,
      "inputs": [
        {
          "indexed": true,
          "internalType": "address",
          "name": "user",
          "type": "address"
        },
        {
          "indexed": false,
          "internalType": "uint256",
          "name": "timestamp",
          "type": "uint256"
        }
      ],
      "name": "StakedAtUpdated",
      "type": "event"
    },
    {
      "anonymous": false,
      "inputs": [
        {
          "indexed": true,
          "internalType": "address",
          "name": "user",
          "type": "address"
        }
      ],
      "name": "TokenUpgraded",
      "type": "event"
    },
    {
      "anonymous": false,
      "inputs": [
        {
          "indexed": false,
          "internalType": "address",
          "name": "account",
          "type": "address"
        }
      ],
      "name": "Unpaused",
      "type": "event"
    },
    {
      "anonymous": false,
      "inputs": [
        {
          "indexed": true,
          "internalType": "address",
          "name": "user",
          "type": "address"
        }
      ],
      "name": "UserScoreUpdated",
      "type": "event"
    },
    {
      "inputs": [],
      "name": "BLOCKS_PER_YEAR",
      "outputs": [
        {
          "internalType": "uint256",
          "name": "",
          "type": "uint256"
        }
      ],
      "stateMutability": "view",
      "type": "function"
    },
    {
      "inputs": [],
      "name": "MAXIMUM_XVS_CAP",
      "outputs": [
        {
          "internalType": "uint256",
          "name": "",
          "type": "uint256"
        }
      ],
      "stateMutability": "view",
      "type": "function"
    },
    {
      "inputs": [],
      "name": "MINIMUM_STAKED_XVS",
      "outputs": [
        {
          "internalType": "uint256",
          "name": "",
          "type": "uint256"
        }
      ],
      "stateMutability": "view",
      "type": "function"
    },
    {
      "inputs": [],
      "name": "STAKING_PERIOD",
      "outputs": [
        {
          "internalType": "uint256",
          "name": "",
          "type": "uint256"
        }
      ],
      "stateMutability": "view",
      "type": "function"
    },
    {
      "inputs": [],
      "name": "VBNB",
      "outputs": [
        {
          "internalType": "address",
          "name": "",
          "type": "address"
        }
      ],
      "stateMutability": "view",
      "type": "function"
    },
    {
      "inputs": [],
      "name": "WBNB",
      "outputs": [
        {
          "internalType": "address",
          "name": "",
          "type": "address"
        }
      ],
      "stateMutability": "view",
      "type": "function"
    },
    {
      "inputs": [],
      "name": "acceptOwnership",
      "outputs": [],
      "stateMutability": "nonpayable",
      "type": "function"
    },
    {
      "inputs": [],
      "name": "accessControlManager",
      "outputs": [
        {
          "internalType": "contract IAccessControlManagerV8",
          "name": "",
          "type": "address"
        }
      ],
      "stateMutability": "view",
      "type": "function"
    },
    {
      "inputs": [
        {
          "internalType": "address",
          "name": "vToken",
          "type": "address"
        }
      ],
      "name": "accrueInterest",
      "outputs": [],
      "stateMutability": "nonpayable",
      "type": "function"
    },
    {
      "inputs": [
        {
          "internalType": "address",
          "name": "user",
          "type": "address"
        },
        {
          "internalType": "address",
          "name": "market",
          "type": "address"
        }
      ],
      "name": "accrueInterestAndUpdateScore",
      "outputs": [],
      "stateMutability": "nonpayable",
      "type": "function"
    },
    {
      "inputs": [
        {
          "internalType": "address",
          "name": "market",
          "type": "address"
        },
        {
          "internalType": "uint256",
          "name": "supplyMultiplier",
          "type": "uint256"
        },
        {
          "internalType": "uint256",
          "name": "borrowMultiplier",
          "type": "uint256"
        }
      ],
      "name": "addMarket",
      "outputs": [],
      "stateMutability": "nonpayable",
      "type": "function"
    },
    {
      "inputs": [],
      "name": "alphaDenominator",
      "outputs": [
        {
          "internalType": "uint128",
          "name": "",
          "type": "uint128"
        }
      ],
      "stateMutability": "view",
      "type": "function"
    },
    {
      "inputs": [],
      "name": "alphaNumerator",
      "outputs": [
        {
          "internalType": "uint128",
          "name": "",
          "type": "uint128"
        }
      ],
      "stateMutability": "view",
      "type": "function"
    },
    {
      "inputs": [
        {
          "internalType": "address",
          "name": "user",
          "type": "address"
        }
      ],
      "name": "burn",
      "outputs": [],
      "stateMutability": "nonpayable",
      "type": "function"
    },
    {
      "inputs": [
        {
          "internalType": "address",
          "name": "market",
          "type": "address"
        },
        {
          "internalType": "address",
          "name": "user",
          "type": "address"
        }
      ],
      "name": "calculateAPR",
      "outputs": [
        {
          "internalType": "uint256",
          "name": "supplyAPR",
          "type": "uint256"
        },
        {
          "internalType": "uint256",
          "name": "borrowAPR",
          "type": "uint256"
        }
      ],
      "stateMutability": "view",
      "type": "function"
    },
    {
      "inputs": [],
      "name": "claim",
      "outputs": [],
      "stateMutability": "nonpayable",
      "type": "function"
    },
    {
      "inputs": [
        {
          "internalType": "address",
          "name": "vToken",
          "type": "address"
        }
      ],
      "name": "claimInterest",
      "outputs": [
        {
          "internalType": "uint256",
          "name": "",
          "type": "uint256"
        }
      ],
      "stateMutability": "nonpayable",
      "type": "function"
    },
    {
      "inputs": [
        {
          "internalType": "address",
          "name": "vToken",
          "type": "address"
        },
        {
          "internalType": "address",
          "name": "user",
          "type": "address"
        }
      ],
      "name": "claimInterest",
      "outputs": [
        {
          "internalType": "uint256",
          "name": "",
          "type": "uint256"
        }
      ],
      "stateMutability": "nonpayable",
      "type": "function"
    },
    {
      "inputs": [
        {
          "internalType": "address",
          "name": "user",
          "type": "address"
        }
      ],
      "name": "claimTimeRemaining",
      "outputs": [
        {
          "internalType": "uint256",
          "name": "",
          "type": "uint256"
        }
      ],
      "stateMutability": "view",
      "type": "function"
    },
    {
      "inputs": [],
      "name": "comptroller",
      "outputs": [
        {
          "internalType": "address",
          "name": "",
          "type": "address"
        }
      ],
      "stateMutability": "view",
      "type": "function"
    },
    {
      "inputs": [
        {
          "internalType": "address",
          "name": "market",
          "type": "address"
        },
        {
          "internalType": "address",
          "name": "user",
          "type": "address"
        },
        {
          "internalType": "uint256",
          "name": "borrow",
          "type": "uint256"
        },
        {
          "internalType": "uint256",
          "name": "supply",
          "type": "uint256"
        },
        {
          "internalType": "uint256",
          "name": "xvsStaked",
          "type": "uint256"
        }
      ],
      "name": "estimateAPR",
      "outputs": [
        {
          "internalType": "uint256",
          "name": "supplyAPR",
          "type": "uint256"
        },
        {
          "internalType": "uint256",
          "name": "borrowAPR",
          "type": "uint256"
        }
      ],
      "stateMutability": "view",
      "type": "function"
    },
    {
      "inputs": [],
      "name": "getAllMarkets",
      "outputs": [
        {
          "internalType": "address[]",
          "name": "",
          "type": "address[]"
        }
      ],
      "stateMutability": "view",
      "type": "function"
    },
    {
      "inputs": [
        {
          "internalType": "address",
          "name": "vToken",
          "type": "address"
        },
        {
          "internalType": "address",
          "name": "user",
          "type": "address"
        }
      ],
      "name": "getInterestAccrued",
      "outputs": [
        {
          "internalType": "uint256",
          "name": "",
          "type": "uint256"
        }
      ],
      "stateMutability": "nonpayable",
      "type": "function"
    },
    {
      "inputs": [
        {
          "internalType": "address",
          "name": "user",
          "type": "address"
        }
      ],
      "name": "getPendingRewards",
      "outputs": [
        {
          "components": [
            {
              "internalType": "address",
              "name": "vToken",
              "type": "address"
            },
            {
              "internalType": "address",
              "name": "rewardToken",
              "type": "address"
            },
            {
              "internalType": "uint256",
              "name": "amount",
              "type": "uint256"
            }
          ],
          "internalType": "struct PrimeStorageV1.PendingReward[]",
          "name": "pendingRewards",
          "type": "tuple[]"
        }
      ],
      "stateMutability": "nonpayable",
      "type": "function"
    },
    {
      "inputs": [
        {
          "internalType": "address",
          "name": "xvsVault_",
          "type": "address"
        },
        {
          "internalType": "address",
          "name": "xvsVaultRewardToken_",
          "type": "address"
        },
        {
          "internalType": "uint256",
          "name": "xvsVaultPoolId_",
          "type": "uint256"
        },
        {
          "internalType": "uint128",
          "name": "alphaNumerator_",
          "type": "uint128"
        },
        {
          "internalType": "uint128",
          "name": "alphaDenominator_",
          "type": "uint128"
        },
        {
          "internalType": "address",
          "name": "accessControlManager_",
          "type": "address"
        },
        {
          "internalType": "address",
          "name": "primeLiquidityProvider_",
          "type": "address"
        },
        {
          "internalType": "address",
          "name": "comptroller_",
          "type": "address"
        },
        {
          "internalType": "address",
          "name": "oracle_",
          "type": "address"
        },
        {
          "internalType": "uint256",
          "name": "loopsLimit_",
          "type": "uint256"
        }
      ],
      "name": "initialize",
      "outputs": [],
      "stateMutability": "nonpayable",
      "type": "function"
    },
    {
      "inputs": [
        {
          "internalType": "address",
          "name": "",
          "type": "address"
        },
        {
          "internalType": "address",
          "name": "",
          "type": "address"
        }
      ],
      "name": "interests",
      "outputs": [
        {
          "internalType": "uint256",
          "name": "accrued",
          "type": "uint256"
        },
        {
          "internalType": "uint256",
          "name": "score",
          "type": "uint256"
        },
        {
          "internalType": "uint256",
          "name": "rewardIndex",
          "type": "uint256"
        }
      ],
      "stateMutability": "view",
      "type": "function"
    },
    {
      "inputs": [],
      "name": "irrevocableLimit",
      "outputs": [
        {
          "internalType": "uint256",
          "name": "",
          "type": "uint256"
        }
      ],
      "stateMutability": "view",
      "type": "function"
    },
    {
      "inputs": [
        {
          "internalType": "uint256",
          "name": "",
          "type": "uint256"
        },
        {
          "internalType": "address",
          "name": "",
          "type": "address"
        }
      ],
      "name": "isScoreUpdated",
      "outputs": [
        {
          "internalType": "bool",
          "name": "",
          "type": "bool"
        }
      ],
      "stateMutability": "view",
      "type": "function"
    },
    {
      "inputs": [
        {
          "internalType": "bool",
          "name": "isIrrevocable",
          "type": "bool"
        },
        {
          "internalType": "address[]",
          "name": "users",
          "type": "address[]"
        }
      ],
      "name": "issue",
      "outputs": [],
      "stateMutability": "nonpayable",
      "type": "function"
    },
    {
      "inputs": [
        {
          "internalType": "address",
          "name": "",
          "type": "address"
        }
      ],
      "name": "markets",
      "outputs": [
        {
          "internalType": "uint256",
          "name": "supplyMultiplier",
          "type": "uint256"
        },
        {
          "internalType": "uint256",
          "name": "borrowMultiplier",
          "type": "uint256"
        },
        {
          "internalType": "uint256",
          "name": "rewardIndex",
          "type": "uint256"
        },
        {
          "internalType": "uint256",
          "name": "sumOfMembersScore",
          "type": "uint256"
        },
        {
          "internalType": "bool",
          "name": "exists",
          "type": "bool"
        }
      ],
      "stateMutability": "view",
      "type": "function"
    },
    {
      "inputs": [],
      "name": "maxLoopsLimit",
      "outputs": [
        {
          "internalType": "uint256",
          "name": "",
          "type": "uint256"
        }
      ],
      "stateMutability": "view",
      "type": "function"
    },
    {
      "inputs": [],
      "name": "nextScoreUpdateRoundId",
      "outputs": [
        {
          "internalType": "uint256",
          "name": "",
          "type": "uint256"
        }
      ],
      "stateMutability": "view",
      "type": "function"
    },
    {
      "inputs": [],
      "name": "oracle",
      "outputs": [
        {
          "internalType": "contract ResilientOracleInterface",
          "name": "",
          "type": "address"
        }
      ],
      "stateMutability": "view",
      "type": "function"
    },
    {
      "inputs": [],
      "name": "owner",
      "outputs": [
        {
          "internalType": "address",
          "name": "",
          "type": "address"
        }
      ],
      "stateMutability": "view",
      "type": "function"
    },
    {
      "inputs": [],
      "name": "paused",
      "outputs": [
        {
          "internalType": "bool",
          "name": "",
          "type": "bool"
        }
      ],
      "stateMutability": "view",
      "type": "function"
    },
    {
      "inputs": [],
      "name": "pendingOwner",
      "outputs": [
        {
          "internalType": "address",
          "name": "",
          "type": "address"
        }
      ],
      "stateMutability": "view",
      "type": "function"
    },
    {
      "inputs": [],
      "name": "pendingScoreUpdates",
      "outputs": [
        {
          "internalType": "uint256",
          "name": "",
          "type": "uint256"
        }
      ],
      "stateMutability": "view",
      "type": "function"
    },
    {
      "inputs": [],
      "name": "primeLiquidityProvider",
      "outputs": [
        {
          "internalType": "address",
          "name": "",
          "type": "address"
        }
      ],
      "stateMutability": "view",
      "type": "function"
    },
    {
      "inputs": [],
      "name": "renounceOwnership",
      "outputs": [],
      "stateMutability": "nonpayable",
      "type": "function"
    },
    {
      "inputs": [],
      "name": "revocableLimit",
      "outputs": [
        {
          "internalType": "uint256",
          "name": "",
          "type": "uint256"
        }
      ],
      "stateMutability": "view",
      "type": "function"
    },
    {
      "inputs": [
        {
          "internalType": "address",
          "name": "accessControlManager_",
          "type": "address"
        }
      ],
      "name": "setAccessControlManager",
      "outputs": [],
      "stateMutability": "nonpayable",
      "type": "function"
    },
    {
      "inputs": [
        {
          "internalType": "uint256",
          "name": "_irrevocableLimit",
          "type": "uint256"
        },
        {
          "internalType": "uint256",
          "name": "_revocableLimit",
          "type": "uint256"
        }
      ],
      "name": "setLimit",
      "outputs": [],
      "stateMutability": "nonpayable",
      "type": "function"
    },
    {
      "inputs": [
        {
          "internalType": "uint256",
          "name": "loopsLimit",
          "type": "uint256"
        }
      ],
      "name": "setMaxLoopsLimit",
      "outputs": [],
      "stateMutability": "nonpayable",
      "type": "function"
    },
    {
      "inputs": [
        {
          "internalType": "address[]",
          "name": "users",
          "type": "address[]"
        },
        {
          "internalType": "uint256[]",
          "name": "timestamps",
          "type": "uint256[]"
        }
      ],
      "name": "setStakedAt",
      "outputs": [],
      "stateMutability": "nonpayable",
      "type": "function"
    },
    {
      "inputs": [
        {
          "internalType": "address",
          "name": "",
          "type": "address"
        }
      ],
      "name": "stakedAt",
      "outputs": [
        {
          "internalType": "uint256",
          "name": "",
          "type": "uint256"
        }
      ],
      "stateMutability": "view",
      "type": "function"
    },
    {
      "inputs": [],
      "name": "togglePause",
      "outputs": [],
      "stateMutability": "nonpayable",
      "type": "function"
    },
    {
      "inputs": [
        {
          "internalType": "address",
          "name": "",
          "type": "address"
        }
      ],
      "name": "tokens",
      "outputs": [
        {
          "internalType": "bool",
          "name": "exists",
          "type": "bool"
        },
        {
          "internalType": "bool",
          "name": "isIrrevocable",
          "type": "bool"
        }
      ],
      "stateMutability": "view",
      "type": "function"
    },
    {
      "inputs": [],
      "name": "totalIrrevocable",
      "outputs": [
        {
          "internalType": "uint256",
          "name": "",
          "type": "uint256"
        }
      ],
      "stateMutability": "view",
      "type": "function"
    },
    {
      "inputs": [],
      "name": "totalRevocable",
      "outputs": [
        {
          "internalType": "uint256",
          "name": "",
          "type": "uint256"
        }
      ],
      "stateMutability": "view",
      "type": "function"
    },
    {
      "inputs": [],
      "name": "totalScoreUpdatesRequired",
      "outputs": [
        {
          "internalType": "uint256",
          "name": "",
          "type": "uint256"
        }
      ],
      "stateMutability": "view",
      "type": "function"
    },
    {
      "inputs": [
        {
          "internalType": "address",
          "name": "newOwner",
          "type": "address"
        }
      ],
      "name": "transferOwnership",
      "outputs": [],
      "stateMutability": "nonpayable",
      "type": "function"
    },
    {
      "inputs": [
        {
          "internalType": "address",
          "name": "",
          "type": "address"
        }
      ],
      "name": "unreleasedPLPIncome",
      "outputs": [
        {
          "internalType": "uint256",
          "name": "",
          "type": "uint256"
        }
      ],
      "stateMutability": "view",
      "type": "function"
    },
    {
      "inputs": [
        {
          "internalType": "uint128",
          "name": "_alphaNumerator",
          "type": "uint128"
        },
        {
          "internalType": "uint128",
          "name": "_alphaDenominator",
          "type": "uint128"
        }
      ],
      "name": "updateAlpha",
      "outputs": [],
      "stateMutability": "nonpayable",
      "type": "function"
    },
    {
      "inputs": [
        {
          "internalType": "address",
          "name": "market",
          "type": "address"
        },
        {
          "internalType": "uint256",
          "name": "supplyMultiplier",
          "type": "uint256"
        },
        {
          "internalType": "uint256",
          "name": "borrowMultiplier",
          "type": "uint256"
        }
      ],
      "name": "updateMultipliers",
      "outputs": [],
      "stateMutability": "nonpayable",
      "type": "function"
    },
    {
      "inputs": [
        {
          "internalType": "address[]",
          "name": "users",
          "type": "address[]"
        }
      ],
      "name": "updateScores",
      "outputs": [],
      "stateMutability": "nonpayable",
      "type": "function"
    },
    {
      "inputs": [
        {
          "internalType": "address",
          "name": "",
          "type": "address"
        }
      ],
      "name": "vTokenForAsset",
      "outputs": [
        {
          "internalType": "address",
          "name": "",
          "type": "address"
        }
      ],
      "stateMutability": "view",
      "type": "function"
    },
    {
      "inputs": [
        {
          "internalType": "address",
          "name": "user",
          "type": "address"
        }
      ],
      "name": "xvsUpdated",
      "outputs": [],
      "stateMutability": "nonpayable",
      "type": "function"
    },
    {
      "inputs": [],
      "name": "xvsVault",
      "outputs": [
        {
          "internalType": "address",
          "name": "",
          "type": "address"
        }
      ],
      "stateMutability": "view",
      "type": "function"
    },
    {
      "inputs": [],
      "name": "xvsVaultPoolId",
      "outputs": [
        {
          "internalType": "uint256",
          "name": "",
          "type": "uint256"
        }
      ],
      "stateMutability": "view",
      "type": "function"
    },
    {
      "inputs": [],
      "name": "xvsVaultRewardToken",
      "outputs": [
        {
          "internalType": "address",
          "name": "",
          "type": "address"
        }
      ],
      "stateMutability": "view",
      "type": "function"
    }
  ],
  "transactionHash": "0x504a30e5a0727b115e29973301c0f4883c6093d9f7ce25b2a704a46b2124dc80",
  "args": [
    "0xbb4CdB9CBd36B01bD1cBaEBF2De08d9173bc095c",
    "0xA07c5b74C9B40447a954e1466938b865b6BBea36",
    10512000,
    7776000,
    "1000000000000000000000",
    "100000000000000000000000"
  ],
  "numDeployments": 1,
  "solcInputHash": "ca52ebb636f92feef6d7768c94228323",
  "bytecode": "0x6101406040523480156200001257600080fd5b50604051620058bd380380620058bd8339810160408190526200003591620001c4565b6001600160a01b0386166200005d5760405163e6c4247b60e01b815260040160405180910390fd5b6001600160a01b038516620000855760405163e6c4247b60e01b815260040160405180910390fd5b83600003620000a7576040516302723dfb60e21b815260040160405180910390fd5b6001600160a01b0380871660a052851660c052608084905261012083905260e0829052610100819052620000da620000e6565b50505050505062000221565b600054610100900460ff1615620001535760405162461bcd60e51b815260206004820152602760248201527f496e697469616c697a61626c653a20636f6e747261637420697320696e697469604482015266616c697a696e6760c81b606482015260840160405180910390fd5b60005460ff90811614620001a5576000805460ff191660ff9081179091556040519081527f7f26b83ff96e1f2b6a682f133852f6798a09c465da95921460cefb38474024989060200160405180910390a15b565b80516001600160a01b0381168114620001bf57600080fd5b919050565b60008060008060008060c08789031215620001de57600080fd5b620001e987620001a7565b9550620001f960208801620001a7565b945060408701519350606087015192506080870151915060a087015190509295509295509295565b60805160a05160c05160e0516101005161012051615606620002b7600039600081816103ae01528181610dff01528181611d4401528181611d6f0152611d9701526000818161098501528181612f760152612f9f01526000818161050d01526125780152600081816104700152612dab0152600081816105ff0152612de501526000818161082b0152613c8301526156066000f3fe608060405234801561001057600080fd5b50600436106103a45760003560e01c80639f6506ce116101e9578063cf329d161161010f578063e4676f37116100ad578063f2fde38b1161007c578063f2fde38b1461093a578063f6ed20171461094d578063fa6d5f181461096d578063fe1006ad1461098057600080fd5b8063e4676f3714610898578063e4860339146108ab578063ee6b13fc146108ef578063ef36bbde1461091957600080fd5b8063d88b9d2e116100e9578063d88b9d2e14610860578063da6ab4f81461086a578063e18f882214610874578063e30c39781461088757600080fd5b8063cf329d1614610813578063d37db1d214610826578063d65bd2411461084d57600080fd5b8063ba437c6811610187578063c3db3c3611610156578063c3db3c36146107d2578063c4ae3168146107dc578063c86d1a78146107e4578063ce853613146107f857600080fd5b8063ba437c6814610799578063bd212c0e146107ac578063be26317e146107b6578063c0ffb809146107bf57600080fd5b8063b1a250f2116101c3578063b1a250f2146106f7578063b4a0bdf31461070a578063b7f2d2581461071b578063b9eb69f61461074357600080fd5b80639f6506ce146106ce578063a15753dc146106d8578063b0772d0b146106e257600080fd5b8063715018a6116102ce57806388bead731161026c5780638dd950021161023b5780638dd95002146105fa5780638e8f294b146106215780639198e5151461068c5780639565d3d21461069f57600080fd5b806388bead73146105af57806388d742c2146105c357806389afcb44146105d65780638da5cb5b146105e957600080fd5b80637dc0d1d0116102a85780637dc0d1d0146105525780637ef820701461056657806380d45a2d14610592578063856c3aa4146105a557600080fd5b8063715018a61461052f57806379ba5097146105375780637dafcd891461053f57600080fd5b806337f23cd311610346578063594a67ee11610315578063594a67ee146104ca5780635c975abb146104dd5780635fe3b567146104f45780636426b4a71461050857600080fd5b806337f23cd314610492578063487b0dfb146104a55780634e71d92d146104af57806355d36c98146104b757600080fd5b80631bffac89116103825780631bffac8914610424578063207add911461044557806324e6baf2146104585780633421fc521461046b57600080fd5b80630104db1b146103a95780630e32cb86146103e35780631b9ce575146103f8575b600080fd5b6103d07f000000000000000000000000000000000000000000000000000000000000000081565b6040519081526020015b60405180910390f35b6103f66103f1366004614c32565b6109a7565b005b6101375461040c906001600160a01b031681565b6040516001600160a01b0390911681526020016103da565b6103d0610432366004614c32565b6101406020526000908152604090205481565b6103f6610453366004614c4f565b6109bb565b6103f6610466366004614cbd565b610a76565b61040c7f000000000000000000000000000000000000000000000000000000000000000081565b6103f66104a0366004614c32565b610c42565b6103d06101395481565b6103f6610dcc565b6103f66104c5366004614cff565b610e5b565b6103f66104d8366004614d34565b610f26565b60c95460ff165b60405190151581526020016103da565b61013f5461040c906001600160a01b031681565b6103d07f000000000000000000000000000000000000000000000000000000000000000081565b6103f66110b0565b6103f66110c4565b6103f661054d366004614dae565b611140565b6101425461040c906001600160a01b031681565b6101365461057a906001600160801b031681565b6040516001600160801b0390911681526020016103da565b6103f66105a0366004614e03565b6112ca565b6103d06101315481565b6101385461040c906001600160a01b031681565b6103d06105d1366004614c32565b611311565b6103f66105e4366004614c32565b61132d565b6033546001600160a01b031661040c565b61040c7f000000000000000000000000000000000000000000000000000000000000000081565b61066261062f366004614c32565b61013360205260009081526040902080546001820154600283015460038401546004909401549293919290919060ff1685565b6040805195865260208601949094529284019190915260608301521515608082015260a0016103da565b6103f661069a366004614c32565b611364565b6104e46106ad366004614e1c565b61013a60209081526000928352604080842090915290825290205460ff1681565b6103d061012f5481565b6103d061013b5481565b6106ea611528565b6040516103da9190614e4c565b6103f6610705366004614eb0565b61158b565b6097546001600160a01b031661040c565b61072e610729366004614f6a565b61180e565b604080519283526020830191909152016103da565b61077e610751366004614fbb565b61013460209081526000928352604080842090915290825290208054600182015460029092015490919083565b604080519384526020840192909252908201526060016103da565b6103d06107a7366004614fbb565b61196b565b6103d061013c5481565b6103d060fb5481565b6103f66107cd366004614cff565b611988565b6103d061013d5481565b6103f6611ba6565b6101415461040c906001600160a01b031681565b6101365461057a90600160801b90046001600160801b031681565b6103f6610821366004614fbb565b611bef565b6103d07f000000000000000000000000000000000000000000000000000000000000000081565b6103d061085b366004614fbb565b611c07565b6103d061012e5481565b6103d06101305481565b6103f6610882366004614fe9565b611c1c565b6065546001600160a01b031661040c565b6103d06108a6366004614c32565b611d20565b6108d86108b9366004614c32565b61012d6020526000908152604090205460ff8082169161010090041682565b6040805192151583529015156020830152016103da565b61040c6108fd366004614c32565b61013e602052600090815260409020546001600160a01b031681565b6103d0610927366004614c32565b6101326020526000908152604090205481565b6103f6610948366004614c32565b611dc8565b61096061095b366004614c32565b611e39565b6040516103da919061501c565b61072e61097b366004614fbb565b611f7b565b6103d07f000000000000000000000000000000000000000000000000000000000000000081565b6109af61215b565b6109b8816121b5565b50565b6109f96040518060400160405280601981526020017f7365744c696d69742875696e743235362c75696e74323536290000000000000081525061227b565b61012e54821080610a0c575061012f5481105b15610a2a5760405163e55fb50960e01b815260040160405180910390fd5b8161013054610131547f6c52f3e195bdc534883e903e0612c49261a466aacd492501870b0a0ac0b1835584604051610a6491815260200190565b60405180910390a46101305561013155565b61013d54600003610a9a5760405163071a45dd60e31b815260040160405180910390fd5b61013b54600003610abe5760405163071a45dd60e31b815260040160405180910390fd5b60005b81811015610c3d576000838383818110610add57610add615081565b9050602002016020810190610af29190614c32565b6001600160a01b038116600090815261012d602052604090205490915060ff16610b2f57604051633aeb927b60e11b815260040160405180910390fd5b61013b54600090815261013a602090815260408083206001600160a01b038516845290915290205460ff1615610b685750600101610ac1565b610135805460005b81811015610bc0576000838281548110610b8c57610b8c615081565b6000918252602090912001546001600160a01b03169050610bad8582612315565b610bb785826123f1565b50600101610b70565b5061013d60008154610bd1906150ad565b9091555061013b54600090815261013a602090815260408083206001600160a01b0387168085529252808320805460ff19166001908117909155905196019590917fa699df4aa8f89fc1f5408fe78ae114651f18b25ed1601680e4c70c15177d8b1b91a2505050610ac1565b505050565b6000610c4d826124ce565b90506000610c5a82612574565b6001600160a01b0384166000908152610132602090815260408083205461012d83529281902081518083019092525460ff808216158015808552610100909304909116151593830193909352939450919290610cb4575082155b15610cf7576001600160a01b03851660009081526101326020908152604082209190915581015115610cee57610ce9856125ad565b610dc5565b610ce985612605565b82158015610d0457508051155b8015610d0f57508115155b15610d33576001600160a01b03851660009081526101326020526040812055610dc5565b81158015610d3e5750825b8015610d4957508051155b15610d6f576001600160a01b038516600090815261013260205260409020429055610dc5565b80518015610d7a5750825b15610dc557610d88856125ad565b6001600160a01b038516600090815261013260205260408120549003610dc5576001600160a01b0385166000908152610132602052604090204290555b5050505050565b336000908152610132602052604081205490819003610dfd5760405162c4e3d160e01b815260040160405180910390fd5b7f0000000000000000000000000000000000000000000000000000000000000000610e2882426150c4565b1015610e475760405163beb98cab60e01b815260040160405180910390fd5b610e526000336127d9565b6109b8336128ea565b610e7c6040518060600160405280602a8152602001615585602a913961227b565b6001600160a01b038316600090815261013360205260409020600481015460ff16610eba57604051630ff2e4a960e31b815260040160405180910390fd5b610ec384611364565b6001810154815460408051868152602081018690526001600160a01b038816917f91e78a55b6df3a0eac1c12a64572a8c0faced385bafba688817f5ce6daa33537910160405180910390a482815560018101829055610f206129e7565b50505050565b610f646040518060400160405280602081526020017f7365745374616b6564417428616464726573735b5d2c75696e743235365b5d2981525061227b565b828114610f845760405163251f56a160e21b815260040160405180910390fd5b60005b83811015610dc55742838383818110610fa257610fa2615081565b905060200201351115610fc85760405163b7d0949760e01b815260040160405180910390fd5b828282818110610fda57610fda615081565b905060200201356101326000878785818110610ff857610ff8615081565b905060200201602081019061100d9190614c32565b6001600160a01b0316815260208101919091526040016000205584848281811061103957611039615081565b905060200201602081019061104e9190614c32565b6001600160a01b03167f09d2594e8892daceca055f74be758146a8b8b1167444d0b4ccb96e74168198cc84848481811061108a5761108a615081565b905060200201356040516110a091815260200190565b60405180910390a2600101610f87565b6110b861215b565b6110c26000612a1b565b565b60655433906001600160a01b031681146111375760405162461bcd60e51b815260206004820152602960248201527f4f776e61626c6532537465703a2063616c6c6572206973206e6f7420746865206044820152683732bb9037bbb732b960b91b60648201526084015b60405180910390fd5b6109b881612a1b565b61117660405180604001604052806015815260200174697373756528626f6f6c2c616464726573735b5d2960581b81525061227b565b821561128b5760005b81811015610f2057600061012d60008585858181106111a0576111a0615081565b90506020020160208101906111b59190614c32565b6001600160a01b031681526020810191909152604001600020805490915060ff1680156111e957508054610100900460ff16155b156112225761121d84848481811061120357611203615081565b90506020020160208101906112189190614c32565b612a34565b611282565b611253600185858581811061123957611239615081565b905060200201602081019061124e9190614c32565b6127d9565b61128284848481811061126857611268615081565b905060200201602081019061127d9190614c32565b6128ea565b5060010161117f565b60005b81811015610f20576112ad600084848481811061123957611239615081565b6112c283838381811061126857611268615081565b60010161128e565b6113086040518060400160405280601981526020017f7365744d61784c6f6f70734c696d69742875696e74323536290000000000000081525061227b565b6109b881612ae4565b600061131b612b7e565b6113258233612bc4565b90505b919050565b61135b6040518060400160405280600d81526020016c6275726e28616464726573732960981b81525061227b565b6109b881612605565b6001600160a01b038116600090815261013360205260409020600481015460ff166113a257604051630ff2e4a960e31b815260040160405180910390fd5b60006113ad83612da7565b61014154604051638aadf79960e01b81526001600160a01b0380841660048301529293509116908190638aadf79990602401600060405180830381600087803b1580156113f957600080fd5b505af115801561140d573d6000803e3d6000fd5b505060405163fa7781ff60e01b81526001600160a01b038581166004830152600093508416915063fa7781ff90602401602060405180830381865afa15801561145a573d6000803e3d6000fd5b505050506040513d601f19601f8201168201806040525081019061147e91906150db565b6001600160a01b03841660009081526101406020526040812054919250906114a690836150c4565b90508060008190036114bb5750505050505050565b6001600160a01b0385166000908152610140602052604081208490556003870154156115055760038701546114f8670de0b6b3a7640000846150f4565b6115029190615129565b90505b80876002016000828254611519919061513d565b90915550505050505050505050565b606061013580548060200260200160405190810160405280929190818152602001828054801561158157602002820191906000526020600020905b81546001600160a01b03168152600190910190602001808311611563575b5050505050905090565b600054610100900460ff16158080156115ab5750600054600160ff909116105b806115c55750303b1580156115c5575060005460ff166001145b6116285760405162461bcd60e51b815260206004820152602e60248201527f496e697469616c697a61626c653a20636f6e747261637420697320616c72656160448201526d191e481a5b9a5d1a585b1a5e995960921b606482015260840161112e565b6000805460ff19166001179055801561164b576000805461ff0019166101001790555b6001600160a01b038b166116725760405163e6c4247b60e01b815260040160405180910390fd5b6001600160a01b038a166116995760405163e6c4247b60e01b815260040160405180910390fd5b6001600160a01b0384166116c05760405163e6c4247b60e01b815260040160405180910390fd5b6001600160a01b0383166116e75760405163e6c4247b60e01b815260040160405180910390fd5b6001600160a01b03851661170e5760405163e6c4247b60e01b815260040160405180910390fd5b6117188888612e6b565b6001600160801b03878116600160801b02908916176101365561013880546001600160a01b03808d166001600160a01b0319928316179092556101398b905561013780548e8416908316179055600061013b55610141805488841690831617905561013f80548784169083161790556101428054928616929091169190911790556117a286612eb1565b6117aa612ee9565b6117b382612ae4565b6117bb612f18565b8015611801576000805461ff0019169055604051600181527f7f26b83ff96e1f2b6a682f133852f6798a09c465da95921460cefb38474024989060200160405180910390a15b5050505050505050505050565b6001600160a01b038086166000818152610134602090815260408083209489168352938152838220600101549282526101339052918220600301548291829161185791906150c4565b9050600061186485612f72565b90506000806000611877848b8b8f612fc7565b92509250925060006118888d612da7565b6001600160a01b031663313ce5676040518163ffffffff1660e01b8152600401602060405180830381865afa1580156118c5573d6000803e3d6000fd5b505050506040513d601f19601f820116820180604052508101906118e99190615155565b60ff1690506118f98160126150c4565b61190490600a61525c565b61190e90856150f4565b6101365490945060009061193990879087906001600160801b0380821691600160801b900416613291565b9050611945818861513d565b96506119568e8c8e8787868d613349565b909f909e509c50505050505050505050505050565b6000611975612b7e565b61197f8383612bc4565b90505b92915050565b6119a96040518060600160405280602281526020016155af6022913961227b565b6001600160a01b038316600090815261013360205260409020600481015460ff16156119e857604051630313b28560e01b815260040160405180910390fd5b61013f54604051638e8f294b60e01b81526001600160a01b0386811660048301526000921690638e8f294b90602401602060405180830381865afa158015611a34573d6000803e3d6000fd5b505050506040513d601f19601f82011682018060405250810190611a589190615268565b905080611a7857604051633d21810360e21b815260040160405180910390fd5b60006002830181905584835560018084018590556003840182905560048401805460ff19169091179055611aab86612da7565b6001600160a01b03808216600090815261013e60205260409020549192501615611ae85760405163dc0d0aab60e01b815260040160405180910390fd5b6001600160a01b03808216600090815261013e6020526040812080549289166001600160a01b03199384168117909155610135805460018101825592527fdf37d27e88e3bd0b85262482997e409a463f5be0ebb19232abf994dd8474090d9091018054909216179055611b596129e7565b61013554611b6690613435565b8385876001600160a01b03167faeb29651ee58d1f8216621256cf5fe5cdf5c1a7650175c620342e0eb03de0f8e60405160405180910390a4505050505050565b611bd46040518060400160405280600d81526020016c746f67676c655061757365282960981b81525061227b565b60c95460ff1615611be7576110c2613466565b6110c2612f18565b611bf98282612315565b611c0382826123f1565b5050565b6000611c1283611364565b61197f838361349f565b611c5a6040518060400160405280601c81526020017f757064617465416c7068612875696e743132382c75696e74313238290000000081525061227b565b611c648282612e6b565b610136546040516001600160801b03838116825284811692600160801b81048216929116907f9122c3fdea272423a0586803b53902139919baf05be731f04724ef8f363d378d9060200160405180910390a46001600160801b03818116600160801b0290831617610136556101355460005b81811015611d1757611d0f6101358281548110611cf557611cf5615081565b6000918252602090912001546001600160a01b0316611364565b600101611cd6565b50610c3d6129e7565b6001600160a01b03811660009081526101326020526040812054808203611d6957507f000000000000000000000000000000000000000000000000000000000000000092915050565b428190037f0000000000000000000000000000000000000000000000000000000000000000811015611dbe577f0000000000000000000000000000000000000000000000000000000000000000039392505050565b5060009392505050565b611dd061215b565b606580546001600160a01b0383166001600160a01b03199091168117909155611e016033546001600160a01b031690565b6001600160a01b03167f38d16b8cac22d99fc7c124b9cd0de2d3fa1faef420bfe791d8c362d765e2270060405160405180910390a350565b6101358054606091908067ffffffffffffffff811115611e5b57611e5b615285565b604051908082528060200260200182016040528015611ea657816020015b6040805160608101825260008082526020808301829052928201528252600019909201910181611e795790505b50925060005b81811015611f73576000838281548110611ec857611ec8615081565b60009182526020822001546001600160a01b03169150611ee88288611c07565b6001600160a01b03808416600081815261013460209081526040808320948d1683529381529083902054835160608101909452918352929350918101611f2d85612da7565b6001600160a01b03168152602001611f45838561513d565b815250878581518110611f5a57611f5a615081565b6020026020010181905250836001019350505050611eac565b505050919050565b6040516395dd919360e01b81526001600160a01b0382811660048301526000918291859183918316906395dd919390602401602060405180830381865afa158015611fca573d6000803e3d6000fd5b505050506040513d601f19601f82011682018060405250810190611fee91906150db565b90506000826001600160a01b031663182df0f56040518163ffffffff1660e01b8152600401602060405180830381865afa158015612030573d6000803e3d6000fd5b505050506040513d601f19601f8201168201806040525081019061205491906150db565b6040516370a0823160e01b81526001600160a01b0388811660048301529192506000918516906370a0823190602401602060405180830381865afa1580156120a0573d6000803e3d6000fd5b505050506040513d601f19601f820116820180604052508101906120c491906150db565b90506000670de0b6b3a76400006120db83856150f4565b6120e59190615129565b6001600160a01b03808b16600081815261013460209081526040808320948e1683529381528382206001015492825261013390529182206003015492935091906121366121318c6124ce565b612f72565b9050600080612147838a888d612fc7565b92509250506119568e878b85858a8a613349565b6033546001600160a01b031633146110c25760405162461bcd60e51b815260206004820181905260248201527f4f776e61626c653a2063616c6c6572206973206e6f7420746865206f776e6572604482015260640161112e565b6001600160a01b0381166122195760405162461bcd60e51b815260206004820152602560248201527f696e76616c696420616365737320636f6e74726f6c206d616e61676572206164604482015264647265737360d81b606482015260840161112e565b609780546001600160a01b038381166001600160a01b031983168117909355604080519190921680825260208201939093527f66fd58e82f7b31a2a5c30e0888f3093efe4e111b00cd2b0c31fe014601293aa091015b60405180910390a15050565b6097546040516318c5e8ab60e01b81526000916001600160a01b0316906318c5e8ab906122ae90339086906004016152f3565b602060405180830381865afa1580156122cb573d6000803e3d6000fd5b505050506040513d601f19601f820116820180604052508101906122ef9190615268565b905080611c0357333083604051634a3fa29360e01b815260040161112e93929190615317565b6001600160a01b0381166000908152610133602052604090206004015460ff16158061235b57506001600160a01b038216600090815261012d602052604090205460ff16155b15612364575050565b61236d81611364565b612377818361349f565b6001600160a01b03808316600090815261013460209081526040808320938716835292905290812080549091906123af90849061513d565b90915550506001600160a01b03908116600090815261013360209081526040808320600290810154610134845282852096909516845294909152902090910155565b6001600160a01b038116600090815261013360205260409020600481015460ff16158061243857506001600160a01b038316600090815261012d602052604090205460ff16155b1561244257505050565b600061244e8385613536565b6001600160a01b03808516600090815261013460209081526040808320938916835292905220600101546003840154919250829161248c91906150c4565b612496919061513d565b6003909201919091556001600160a01b0391821660009081526101346020908152604080832095909416825293909352912060010155565b6101375461013854610139546040516398e1b31b60e01b81526001600160a01b03928316600482015260248101919091528382166044820152600092839283929116906398e1b31b90606401606060405180830381865afa158015612537573d6000803e3d6000fd5b505050506040513d601f19601f8201168201806040525081019061255b9190615343565b9250509150808261256c91906150c4565b949350505050565b60007f000000000000000000000000000000000000000000000000000000000000000082106125a557506001919050565b506000919050565b610135805460005b81811015610f205760008382815481106125d1576125d1615081565b6000918252602090912001546001600160a01b031690506125f28582612315565b6125fc85826123f1565b506001016125b5565b6001600160a01b038116600090815261012d602090815260409182902082518084019093525460ff80821615158085526101009092041615159183019190915261266257604051633aeb927b60e11b815260040160405180910390fd5b610135805460005b8181101561273b57600083828154811061268657612686615081565b6000918252602090912001546001600160a01b031690506126a78682612315565b6001600160a01b03808216600081815261013460209081526040808320948b16835293815283822060010154928252610133905291909120600301546126ed91906150c4565b6001600160a01b03918216600090815261013360209081526040808320600301939093556101348152828220938916825292909252812060018082018390556002909101919091550161266a565b5082602001511561275f5761012e60008154612756906150ad565b90915550612774565b61012f6000815461276f906150ad565b909155505b6001600160a01b038416600090815261012d60205260409020805461ffff1916905561279f846138c8565b6040516001600160a01b038516907fe22de1457cb61fb61b60176bc4235a9abd19466126b46692bc14fc573f09924990600090a250505050565b6001600160a01b038116600090815261012d60205260409020805460ff16156128145760405162c4e3d160e01b815260040160405180910390fd5b8054831580156101000261ffff1990921691909117600117825561284b5761012e6000815461284290615371565b90915550612860565b61012f6000815461285b90615371565b909155505b6101315461012e54118061287957506101305461012f54115b156128975760405163e55fb50960e01b815260040160405180910390fd5b6128a08261393c565b816001600160a01b03167fdd032f28700d4e4b1719b8fa26918a7d68608b4e36def571ce5fe7a3ecd69f45846040516128dd911515815260200190565b60405180910390a2505050565b610135805460005b81811015610f2057600083828154811061290e5761290e615081565b6000918252602090912001546001600160a01b0316905061292e81611364565b6001600160a01b038082166000908152610133602090815260408083206002908101546101348452828520958b16855294909252822001919091556129738287613536565b6001600160a01b03808416600081815261013460209081526040808320948c16835293815283822060010185905591815261013390915220600301549091506129bd90829061513d565b6001600160a01b0390921660009081526101336020526040902060030191909155506001016128f2565b61013b80549060006129f883615371565b919050555061012f5461012e54612a0f919061513d565b61013c81905561013d55565b606580546001600160a01b03191690556109b88161397a565b6001600160a01b038116600090815261012d60205260408120805461ff00191661010017815561012e805491929091612a6c90615371565b9091555061012f8054600090612a81906150ad565b909155506101315461012e541115612aac5760405163e55fb50960e01b815260040160405180910390fd5b6040516001600160a01b038316907f5272e69bcef8da96614ac4a5d1e95ca02c35ea627bf7ecf389ec88d8d78b86bb90600090a25050565b60fb548111612b405760405162461bcd60e51b815260206004820152602260248201527f436f6d7074726f6c6c65723a20496e76616c6964206d61784c6f6f70734c696d6044820152611a5d60f21b606482015260840161112e565b60fb80549082905560408051828152602081018490527fc2d09fef144f7c8a86f71ea459f8fc17f675768eb1ae369cbd77fb31d467aafa910161226f565b60c95460ff16156110c25760405162461bcd60e51b815260206004820152601060248201526f14185d5cd8589b194e881c185d5cd95960821b604482015260640161112e565b600080612bd18484611c07565b6001600160a01b0380861660009081526101346020908152604080832093881683529290522054909150612c05908261513d565b6001600160a01b038581166000908152610133602090815260408083206002908101546101348452828520958a1685529490925282209081019290925590819055909150612c5285612da7565b6040516370a0823160e01b815230600482015290915081906001600160a01b038216906370a0823190602401602060405180830381865afa158015612c9b573d6000803e3d6000fd5b505050506040513d601f19601f82011682018060405250810190612cbf91906150db565b831115612d3c576001600160a01b03828116600090815261014060205260408082209190915561014154905163192e7a7b60e01b8152838316600482015291169063192e7a7b90602401600060405180830381600087803b158015612d2357600080fd5b505af1158015612d37573d6000803e3d6000fd5b505050505b612d506001600160a01b03821686856139cc565b856001600160a01b0316856001600160a01b03167fc7edf5cfe443c04a10a60ff6084c847114348c55b257a01d62700326219adbba85604051612d9591815260200190565b60405180910390a35090949350505050565b60007f00000000000000000000000000000000000000000000000000000000000000006001600160a01b0316826001600160a01b031603612e0957507f0000000000000000000000000000000000000000000000000000000000000000919050565b816001600160a01b0316636f307dc36040518163ffffffff1660e01b8152600401602060405180830381865afa158015612e47573d6000803e3d6000fd5b505050506040513d601f19601f82011682018060405250810190611325919061538a565b806001600160801b0316826001600160801b0316101580612e9357506001600160801b038216155b15611c0357604051630381eb6d60e61b815260040160405180910390fd5b600054610100900460ff16612ed85760405162461bcd60e51b815260040161112e906153a7565b612ee0613a1e565b6109b881613a4d565b600054610100900460ff16612f105760405162461bcd60e51b815260040161112e906153a7565b6110c2613a74565b612f20612b7e565b60c9805460ff191660011790557f62e78cea01bee320cd4e420270b5ea74000d11b0c9f74754ebdbfc544b05a258612f553390565b6040516001600160a01b03909116815260200160405180910390a1565b60007f0000000000000000000000000000000000000000000000000000000000000000821115612fc357507f0000000000000000000000000000000000000000000000000000000000000000919050565b5090565b60008060008061013760009054906101000a90046001600160a01b03166001600160a01b031663358ae0366040518163ffffffff1660e01b8152600401602060405180830381865afa158015613021573d6000803e3d6000fd5b505050506040513d601f19601f82011682018060405250810190613045919061538a565b610142546040516341976e0960e01b81526001600160a01b038084166004830152929350600092909116906341976e0990602401602060405180830381865afa158015613096573d6000803e3d6000fd5b505050506040513d601f19601f820116820180604052508101906130ba91906150db565b6001600160a01b0387166000908152610133602052604081206001015491925090670de0b6b3a76400009081906130f1908d6150f4565b6130fb9190615129565b61310590846150f4565b61310f9190615129565b6001600160a01b0388166000908152610133602052604081205491925090670de0b6b3a7640000908190613143908e6150f4565b61314d9190615129565b61315790856150f4565b6131619190615129565b6101425460405163fc57d4df60e01b81526001600160a01b038b811660048301529293506000929091169063fc57d4df90602401602060405180830381865afa1580156131b2573d6000803e3d6000fd5b505050506040513d601f19601f820116820180604052508101906131d691906150db565b90506000670de0b6b3a76400006131ed8c846150f4565b6131f79190615129565b90506000670de0b6b3a764000061320e8e856150f4565b6132189190615129565b90508382106132485781600003613230576000613245565b8161323b858e6150f4565b6132459190615129565b9b505b848110613276578060000361325e576000613273565b80613269868f6150f4565b6132739190615129565b9c505b6132808d8d61513d565b9e9b9d505050505050505050505050565b600084158061329e575083155b156132ab5750600061256c565b8385036132b957508361256c565b8385106000816132d2576132cd8688613aa7565b6132dc565b6132dc8787613aa7565b905060006133176132ec86613b0f565b6132f588613b0f565b6132fe85613b79565b61330891906153f2565b6133129190615477565b613b84565b90508215613333576133298782613b8f565b935050505061256c565b61333d8782613bc1565b98975050505050505050565b6000808260000361335f57506000905080613429565b60008361336b8b613bf3565b61337590876150f4565b61337f9190615129565b9050600061338d878961513d565b9050806000036133a557600080935093505050613429565b612710600080836133b68c876150f4565b6133c09190615129565b9150836133cd8b876150f4565b6133d79190615129565b90508c156133f9578c6133ea84846150f4565b6133f49190615129565b6133fc565b60005b96508b1561341e578b61340f84836150f4565b6134199190615129565b613421565b60005b955050505050505b97509795505050505050565b60fb548111156109b85760fb5460405163792bfb1b60e11b815260048101919091526024810182905260440161112e565b61346e613cae565b60c9805460ff191690557f5db9ee0a495bf2e6ff9c91a7834c1ba4fdd244a5e8aa4e537bd38aeae4b073aa33612f55565b6001600160a01b03808316600081815261013460209081526040808320948616835293815283822084516060810186528154815260018201548184015260029182015481870181905294845261013390925293822090930154909291839161350791906150c4565b6020830151909150670de0b6b3a764000061352282846150f4565b61352c9190615129565b9695505050505050565b600080613545612131846124ce565b6040516395dd919360e01b81526001600160a01b0385811660048301529192508591600091908316906395dd919390602401602060405180830381865afa158015613594573d6000803e3d6000fd5b505050506040513d601f19601f820116820180604052508101906135b891906150db565b90506000826001600160a01b031663182df0f56040518163ffffffff1660e01b8152600401602060405180830381865afa1580156135fa573d6000803e3d6000fd5b505050506040513d601f19601f8201168201806040525081019061361e91906150db565b6040516370a0823160e01b81526001600160a01b0388811660048301529192506000918516906370a0823190602401602060405180830381865afa15801561366a573d6000803e3d6000fd5b505050506040513d601f19601f8201168201806040525081019061368e91906150db565b90506000670de0b6b3a76400006136a583856150f4565b6136af9190615129565b9050600061013760009054906101000a90046001600160a01b03166001600160a01b031663358ae0366040518163ffffffff1660e01b8152600401602060405180830381865afa158015613707573d6000803e3d6000fd5b505050506040513d601f19601f8201168201806040525081019061372b919061538a565b6101425460405163b62cad6960e01b81526001600160a01b03808416600483015292935091169063b62cad6990602401600060405180830381600087803b15801561377557600080fd5b505af1158015613789573d6000803e3d6000fd5b5050610142546040516396e85ced60e01b81526001600160a01b038e8116600483015290911692506396e85ced9150602401600060405180830381600087803b1580156137d557600080fd5b505af11580156137e9573d6000803e3d6000fd5b5050505060006137fb8887858e612fc7565b50509050600061380a8c612da7565b6001600160a01b031663313ce5676040518163ffffffff1660e01b8152600401602060405180830381865afa158015613847573d6000803e3d6000fd5b505050506040513d601f19601f8201168201806040525081019061386b9190615155565b60ff16905061387b8160126150c4565b61388690600a61525c565b61389090836150f4565b610136549092506138b8908a9084906001600160801b0380821691600160801b900416613291565b9c9b505050505050505050505050565b61013c54156138e65761013c600081546138e1906150ad565b909155505b61013d5415801590613920575061013b54600090815261013a602090815260408083206001600160a01b038516845290915290205460ff16155b156109b85761013d60008154613935906150ad565b9091555050565b61013c54156109b85761013b54600090815261013a602090815260408083206001600160a01b03851684529091529020805460ff1916600117905550565b603380546001600160a01b038381166001600160a01b0319831681179093556040519116919082907f8be0079c531659141344cd1fd0a4f28419497f9722a3daafe3b4186f6b6457e090600090a35050565b604080516001600160a01b038416602482015260448082018490528251808303909101815260649091019091526020810180516001600160e01b031663a9059cbb60e01b179052610c3d908490613cf7565b600054610100900460ff16613a455760405162461bcd60e51b815260040161112e906153a7565b6110c2613dcc565b600054610100900460ff166109af5760405162461bcd60e51b815260040161112e906153a7565b600054610100900460ff16613a9b5760405162461bcd60e51b815260040161112e906153a7565b60c9805460ff19169055565b6000613ab283613b0f565b613abb83613b0f565b1215613ae4576040516360c1ae3960e01b8152600481018490526024810183905260440161112e565b613aed82613b0f565b6001607f1b613afb85613b0f565b613b0591906153f2565b61197f9190615477565b60006001600160ff1b03821115612fc35760405162461bcd60e51b815260206004820152602860248201527f53616665436173743a2076616c756520646f65736e27742066697420696e2061604482015267371034b73a191a9b60c11b606482015260840161112e565b600061132582613dfc565b6000611325826143e9565b600080821215613bb257604051639603648160e01b815260040160405180910390fd5b6001607f1b82613afb85613b0f565b600080821215613be457604051639603648160e01b815260040160405180910390fd5b816001607f1b613afb85613b0f565b6101415460009081906001600160a01b031663a666642b613c1385612da7565b6040516001600160e01b031960e084901b1681526001600160a01b039091166004820152602401602060405180830381865afa158015613c57573d6000803e3d6000fd5b505050506040513d601f19601f82011682018060405250810190613c7b91906150db565b9050613ca7817f00000000000000000000000000000000000000000000000000000000000000006150f4565b9392505050565b60c95460ff166110c25760405162461bcd60e51b815260206004820152601460248201527314185d5cd8589b194e881b9bdd081c185d5cd95960621b604482015260640161112e565b6000613d4c826040518060400160405280602081526020017f5361666545524332303a206c6f772d6c6576656c2063616c6c206661696c6564815250856001600160a01b0316614afa9092919063ffffffff16565b9050805160001480613d6d575080806020019051810190613d6d9190615268565b610c3d5760405162461bcd60e51b815260206004820152602a60248201527f5361666545524332303a204552433230206f7065726174696f6e20646964206e6044820152691bdd081cdd58d8d9595960b21b606482015260840161112e565b600054610100900460ff16613df35760405162461bcd60e51b815260040161112e906153a7565b6110c233612a1b565b60006001607f1b821315613e2657604051633ce23a3d60e11b81526004810183905260240161112e565b60008213613e4a576040516330ecaa3d60e21b81526004810183905260240161112e565b6001607f1b8203613e5d57506000919050565b640733048c5a8213613e77576113256101ff607c1b6154a5565b60008060006a01c8464f761647600000008513613ec557613e9c600160841b856154c1565b93506a01c8464f76164760000000613eb86001607f1b876153f2565b613ec29190615477565b94505b6cf1aaddd7742e900000000000008513613f1257613ee7600160831b856154c1565b93506cf1aaddd7742e90000000000000613f056001607f1b876153f2565b613f0f9190615477565b94505b6615fc21041027af603f1b8513613f5957613f31600160821b856154c1565b93506615fc21041027af603f1b613f4c6001607f1b876153f2565b613f569190615477565b94505b660960aadc109e7b60461b8513613fa057613f78600160811b856154c1565b9350660960aadc109e7b60461b613f936001607f1b876153f2565b613f9d9190615477565b94505b660454aaa8efe073604a1b8513613fe757613fbf600160801b856154c1565b9350660454aaa8efe073604a1b613fda6001607f1b876153f2565b613fe49190615477565b94505b6602f16ac6c59de7604c1b851361402e576140066001607f1b856154c1565b93506602f16ac6c59de7604c1b6140216001607f1b876153f2565b61402b9190615477565b94505b6609b4597e37cb05604b1b85136140755761404d6001607e1b856154c1565b93506609b4597e37cb05604b1b6140686001607f1b876153f2565b6140729190615477565b94505b6618ebef9eac820b604a1b85136140bc576140946001607d1b856154c1565b93506618ebef9eac820b604a1b6140af6001607f1b876153f2565b6140b99190615477565b94505b6f70f5a893b608861e1f58934f97aea57d851361410f576140e16001607c1b856154c1565b93506f70f5a893b608861e1f58934f97aea57d6141026001607f1b876153f2565b61410c9190615477565b94505b61411d6001607f1b866154c1565b92508291506001607f1b61413183806153f2565b61413b9190615477565b9050600160801b61414c84826154c1565b61415690846153f2565b6141609190615477565b61416a9085615500565b93506001607f1b61417b82846153f2565b6141859190615477565b9150600160811b6141a6846faaaaaaaaaaaaaaaaaaaaaaaaaaaaaaaa6154c1565b6141b090846153f2565b6141ba9190615477565b6141c49085615500565b93506001607f1b6141d582846153f2565b6141df9190615477565b9150600360801b614200846f999999999999999999999999999999996154c1565b61420a90846153f2565b6142149190615477565b61421e9085615500565b93506001607f1b61422f82846153f2565b6142399190615477565b9150600160821b61425a846f924924924924924924924924924924926154c1565b61426490846153f2565b61426e9190615477565b6142789085615500565b93506001607f1b61428982846153f2565b6142939190615477565b9150600560801b6142b4846f8e38e38e38e38e38e38e38e38e38e38e6154c1565b6142be90846153f2565b6142c89190615477565b6142d29085615500565b93506001607f1b6142e382846153f2565b6142ed9190615477565b9150600360811b61430e846f8ba2e8ba2e8ba2e8ba2e8ba2e8ba2e8b6154c1565b61431890846153f2565b6143229190615477565b61432c9085615500565b93506001607f1b61433d82846153f2565b6143479190615477565b9150600760801b614368846f89d89d89d89d89d89d89d89d89d89d896154c1565b61437290846153f2565b61437c9190615477565b6143869085615500565b93506001607f1b61439782846153f2565b6143a19190615477565b9150600160831b6143c2846f888888888888888888888888888888886154c1565b6143cc90846153f2565b6143d69190615477565b6143e09085615500565b95945050505050565b60006143f96101ff607c1b6154a5565b82121561440857506000919050565b8160000361441b57506001607f1b919050565b600082131561444057604051631086170d60e01b81526004810183905260240161112e565b6000806144516001607c1b85615541565b91508190506001607f1b61446582806153f2565b61446f9190615477565b9050614483816710e1b3be415a00006153f2565b61448d9084615500565b92506001607f1b61449e83836153f2565b6144a89190615477565b90506144bc816705a0913f6b1e00006153f2565b6144c69084615500565b92506001607f1b6144d783836153f2565b6144e19190615477565b90506144f581670168244fdac780006153f2565b6144ff9084615500565b92506001607f1b61451083836153f2565b61451a9190615477565b905061452d81664807432bc180006153f2565b6145379084615500565b92506001607f1b61454883836153f2565b6145529190615477565b905061456581660c0135dca040006153f2565b61456f9084615500565b92506001607f1b61458083836153f2565b61458a9190615477565b905061459d816601b707b1cdc0006153f2565b6145a79084615500565b92506001607f1b6145b883836153f2565b6145c29190615477565b90506145d4816536e0f639b8006153f2565b6145de9084615500565b92506001607f1b6145ef83836153f2565b6145f99190615477565b905061460b81650618fee9f8006153f2565b6146159084615500565b92506001607f1b61462683836153f2565b6146309190615477565b905061464181649c197dcc006153f2565b61464b9084615500565b92506001607f1b61465c83836153f2565b6146669190615477565b905061467781640e30dce4006153f2565b6146819084615500565b92506001607f1b61469283836153f2565b61469c9190615477565b90506146ad8164012ebd13006153f2565b6146b79084615500565b92506001607f1b6146c883836153f2565b6146d29190615477565b90506146e2816317499f006153f2565b6146ec9084615500565b92506001607f1b6146fd83836153f2565b6147079190615477565b9050614717816301a9d4806153f2565b6147219084615500565b92506001607f1b61473283836153f2565b61473c9190615477565b905061474b81621c63806153f2565b6147559084615500565b92506001607f1b61476683836153f2565b6147709190615477565b905061477f816201c6386153f2565b6147899084615500565b92506001607f1b61479a83836153f2565b6147a49190615477565b90506147b281611ab86153f2565b6147bc9084615500565b92506001607f1b6147cd83836153f2565b6147d79190615477565b90506147e58161017c6153f2565b6147ef9084615500565b92506001607f1b61480083836153f2565b61480a9190615477565b90506148178160146153f2565b6148219084615500565b92506001607f1b61483283836153f2565b61483c9190615477565b90506148498160016153f2565b6148539084615500565b92506001607f1b8261486d6721c3677c82b4000086615477565b6148779190615500565b6148819190615500565b925061488c846154a5565b9350600160841b8416156148d2577243cbaf42a000812488fc5c220ad7b97bf6e99e6148c56cf1aaddd7742e56d32fb9f99744856153f2565b6148cf9190615477565b92505b600160831b841615614917577105d27a9f51c31b7c2f8038212a057477999161490a6e0afe10820813d65dfe6a33c07f738f856153f2565b6149149190615477565b92505b600160821b84161561495c57701b4c902e273a58678d6d3bfdb93db96d0261494f6f02582ab704279e8efd15e0265855c47a856153f2565b6149599190615477565b92505b600160811b8416156149a1577003b1cc971a9bb5b9867477440d6d1577506149946f1152aaa3bf81cb9fdb76eae12d029571856153f2565b61499e9190615477565b92505b600160801b8416156149e65770015bf0a8b1457695355fb8ac404e7a79e36149d96f2f16ac6c59de6f8d5d6f63c1482a7c86856153f2565b6149e39190615477565b92505b6001607f1b841615614a2a576fd3094c70f034de4b96ff7d5b6f99fcd8614a1d6f4da2cbf1be5827f9eb3ad1aa9866ebb3856153f2565b614a279190615477565b92505b6001607e1b841615614a6e576fa45af1e1f40c333b3de1db4dd55f29a7614a616f63afbe7ab2082ba1a0ae5e4eb1b479dc856153f2565b614a6b9190615477565b92505b6001607d1b841615614ab2576f910b022db7ae67ce76b441c27035c6a1614aa56f70f5a893b608861e1f58934f97aea57d856153f2565b614aaf9190615477565b92505b6001607c1b841615614af3576f88415abbe9a76bead8d00cf112e4d4a8614ae96f783eafef1c0a8f3978c7f81824d62ebf856153f2565b61256c9190615477565b5050919050565b606061256c848460008585600080866001600160a01b03168587604051614b219190615555565b60006040518083038185875af1925050503d8060008114614b5e576040519150601f19603f3d011682016040523d82523d6000602084013e614b63565b606091505b5091509150614b7487838387614b7f565b979650505050505050565b60608315614bee578251600003614be7576001600160a01b0385163b614be75760405162461bcd60e51b815260206004820152601d60248201527f416464726573733a2063616c6c20746f206e6f6e2d636f6e7472616374000000604482015260640161112e565b508161256c565b61256c8383815115614c035781518083602001fd5b8060405162461bcd60e51b815260040161112e9190615571565b6001600160a01b03811681146109b857600080fd5b600060208284031215614c4457600080fd5b8135613ca781614c1d565b60008060408385031215614c6257600080fd5b50508035926020909101359150565b60008083601f840112614c8357600080fd5b50813567ffffffffffffffff811115614c9b57600080fd5b6020830191508360208260051b8501011115614cb657600080fd5b9250929050565b60008060208385031215614cd057600080fd5b823567ffffffffffffffff811115614ce757600080fd5b614cf385828601614c71565b90969095509350505050565b600080600060608486031215614d1457600080fd5b8335614d1f81614c1d565b95602085013595506040909401359392505050565b60008060008060408587031215614d4a57600080fd5b843567ffffffffffffffff80821115614d6257600080fd5b614d6e88838901614c71565b90965094506020870135915080821115614d8757600080fd5b50614d9487828801614c71565b95989497509550505050565b80151581146109b857600080fd5b600080600060408486031215614dc357600080fd5b8335614dce81614da0565b9250602084013567ffffffffffffffff811115614dea57600080fd5b614df686828701614c71565b9497909650939450505050565b600060208284031215614e1557600080fd5b5035919050565b60008060408385031215614e2f57600080fd5b823591506020830135614e4181614c1d565b809150509250929050565b6020808252825182820181905260009190848201906040850190845b81811015614e8d5783516001600160a01b031683529284019291840191600101614e68565b50909695505050505050565b80356001600160801b038116811461132857600080fd5b6000806000806000806000806000806101408b8d031215614ed057600080fd5b8a35614edb81614c1d565b995060208b0135614eeb81614c1d565b985060408b01359750614f0060608c01614e99565b9650614f0e60808c01614e99565b955060a08b0135614f1e81614c1d565b945060c08b0135614f2e81614c1d565b935060e08b0135614f3e81614c1d565b92506101008b0135614f4f81614c1d565b809250506101208b013590509295989b9194979a5092959850565b600080600080600060a08688031215614f8257600080fd5b8535614f8d81614c1d565b94506020860135614f9d81614c1d565b94979496505050506040830135926060810135926080909101359150565b60008060408385031215614fce57600080fd5b8235614fd981614c1d565b91506020830135614e4181614c1d565b60008060408385031215614ffc57600080fd5b61500583614e99565b915061501360208401614e99565b90509250929050565b602080825282518282018190526000919060409081850190868401855b8281101561507457815180516001600160a01b0390811686528782015116878601528501518585015260609093019290850190600101615039565b5091979650505050505050565b634e487b7160e01b600052603260045260246000fd5b634e487b7160e01b600052601160045260246000fd5b6000816150bc576150bc615097565b506000190190565b6000828210156150d6576150d6615097565b500390565b6000602082840312156150ed57600080fd5b5051919050565b600081600019048311821515161561510e5761510e615097565b500290565b634e487b7160e01b600052601260045260246000fd5b60008261513857615138615113565b500490565b6000821982111561515057615150615097565b500190565b60006020828403121561516757600080fd5b815160ff81168114613ca757600080fd5b600181815b808511156151b357816000190482111561519957615199615097565b808516156151a657918102915b93841c939080029061517d565b509250929050565b6000826151ca57506001611982565b816151d757506000611982565b81600181146151ed57600281146151f757615213565b6001915050611982565b60ff84111561520857615208615097565b50506001821b611982565b5060208310610133831016604e8410600b8410161715615236575081810a611982565b6152408383615178565b806000190482111561525457615254615097565b029392505050565b600061197f83836151bb565b60006020828403121561527a57600080fd5b8151613ca781614da0565b634e487b7160e01b600052604160045260246000fd5b60005b838110156152b657818101518382015260200161529e565b83811115610f205750506000910152565b600081518084526152df81602086016020860161529b565b601f01601f19169290920160200192915050565b6001600160a01b038316815260406020820181905260009061256c908301846152c7565b6001600160a01b038481168252831660208201526060604082018190526000906143e0908301846152c7565b60008060006060848603121561535857600080fd5b8351925060208401519150604084015190509250925092565b60006001820161538357615383615097565b5060010190565b60006020828403121561539c57600080fd5b8151613ca781614c1d565b6020808252602b908201527f496e697469616c697a61626c653a20636f6e7472616374206973206e6f74206960408201526a6e697469616c697a696e6760a81b606082015260800190565b60006001600160ff1b038184138284138082168684048611161561541857615418615097565b600160ff1b600087128281168783058912161561543757615437615097565b6000871292508782058712848416161561545357615453615097565b8785058712818416161561546957615469615097565b505050929093029392505050565b60008261548657615486615113565b600160ff1b8214600019841416156154a0576154a0615097565b500590565b6000600160ff1b82016154ba576154ba615097565b5060000390565b60008083128015600160ff1b8501841216156154df576154df615097565b6001600160ff1b03840183138116156154fa576154fa615097565b50500390565b600080821280156001600160ff1b038490038513161561552257615522615097565b600160ff1b839003841281161561553b5761553b615097565b50500190565b60008261555057615550615113565b500790565b6000825161556781846020870161529b565b9190910192915050565b60208152600061197f60208301846152c756fe7570646174654d756c7469706c6965727328616464726573732c75696e743235362c75696e74323536296164644d61726b657428616464726573732c75696e743235362c75696e7432353629a26469706673582212209c77e9232504178fe0eb289bd302504983da17603371d6a663c62b27e7ef179d64736f6c634300080d0033",
  "devdoc": {
    "author": "Venus",
    "custom:security-contact": "https://github.com/VenusProtocol/venus-protocol",
    "kind": "dev",
    "methods": {
      "acceptOwnership()": {
        "details": "The new owner accepts the ownership transfer."
      },
      "accrueInterest(address)": {
        "custom:error": "Throw MarketNotSupported if market is not supported",
        "params": {
          "vToken": "the market for which to distribute the income"
        }
      },
      "accrueInterestAndUpdateScore(address,address)": {
        "params": {
          "market": "the market for which to accrue interest and update score",
          "user": "the account address for which to accrue interest and update score"
        }
      },
      "addMarket(address,uint256,uint256)": {
        "custom:access": "Controlled by ACM",
        "custom:error": "Throw MarketAlreadyExists if market already existsThrow InvalidVToken if market is not valid",
        "custom:event": "Emits MarketAdded event",
        "params": {
          "borrowMultiplier": "the multiplier for borrow cap. It should be converted to 1e18",
          "market": "address of the market vToken",
          "supplyMultiplier": "the multiplier for supply cap. It should be converted to 1e18"
        }
      },
      "burn(address)": {
        "custom:access": "Controlled by ACM",
        "params": {
          "user": "the account address for which the prime token will be burned"
        }
      },
      "calculateAPR(address,address)": {
        "params": {
          "market": "the market for which to fetch the APR",
          "user": "the account for which to get the APR"
        },
        "returns": {
          "borrowAPR": "borrow APR of the user in BPS",
          "supplyAPR": "supply APR of the user in BPS"
        }
      },
      "claimInterest(address)": {
        "params": {
          "vToken": "the market for which claim the accrued interest"
        },
        "returns": {
          "_0": "amount the amount of tokens transferred to the msg.sender"
        }
      },
      "claimInterest(address,address)": {
        "params": {
          "user": "the user for which to claim the accrued interest",
          "vToken": "the market for which claim the accrued interest"
        },
        "returns": {
          "_0": "amount the amount of tokens transferred to the user"
        }
      },
      "claimTimeRemaining(address)": {
        "params": {
          "user": "the account address for which we are checking the remaining time"
        },
        "returns": {
          "_0": "timeRemaining the number of seconds the user needs to wait to claim prime token"
        }
      },
      "constructor": {
        "custom:oz-upgrades-unsafe-allow": "constructor"
      },
      "estimateAPR(address,address,uint256,uint256,uint256)": {
        "params": {
          "borrow": "hypothetical borrow amount",
          "market": "the market for which to fetch the APR",
          "supply": "hypothetical supply amount",
          "user": "the account for which to get the APR",
          "xvsStaked": "hypothetical staked XVS amount"
        },
        "returns": {
          "borrowAPR": "borrow APR of the user in BPS",
          "supplyAPR": "supply APR of the user in BPS"
        }
      },
      "getAllMarkets()": {
        "returns": {
          "_0": "an array of addresses representing all available markets"
        }
      },
      "getInterestAccrued(address,address)": {
        "params": {
          "user": "the account for which to get the accrued interest",
          "vToken": "the market for which to fetch the accrued interest"
        },
        "returns": {
          "_0": "interestAccrued the number of underlying tokens accrued by the user since the last accrual"
        }
      },
      "getPendingRewards(address)": {
        "params": {
          "user": "the account for which to get the accrued interests"
        },
        "returns": {
          "pendingRewards": "the number of underlying tokens accrued by the user for all markets"
        }
      },
      "initialize(address,address,uint256,uint128,uint128,address,address,address,address,uint256)": {
        "custom:error": "Throw InvalidAddress if any of the address is invalid",
        "params": {
          "accessControlManager_": "Address of AccessControlManager",
          "alphaDenominator_": "denominator of alpha. If alpha is 0.5 then denominator is 2. alpha is alphaNumerator_/alphaDenominator_. So, 0 < alpha < 1",
          "alphaNumerator_": "numerator of alpha. If alpha is 0.5 then numerator is 1. alphaDenominator_ must be greater than alphaNumerator_, alphaDenominator_ cannot be zero and alphaNumerator_ cannot be zero",
          "comptroller_": "Address of Comptroller",
          "loopsLimit_": "Maximum number of loops allowed in a single transaction",
          "oracle_": "Address of Oracle",
          "primeLiquidityProvider_": "Address of PrimeLiquidityProvider",
          "xvsVaultPoolId_": "Pool id of XVSVault",
          "xvsVaultRewardToken_": "Address of XVSVault reward token",
          "xvsVault_": "Address of XVSVault"
        }
      },
      "issue(bool,address[])": {
        "custom:access": "Controlled by ACM",
        "params": {
          "isIrrevocable": "are the tokens being issued",
          "users": "list of address to issue tokens to"
        }
      },
      "owner()": {
        "details": "Returns the address of the current owner."
      },
      "paused()": {
        "details": "Returns true if the contract is paused, and false otherwise."
      },
      "pendingOwner()": {
        "details": "Returns the address of the pending owner."
      },
      "renounceOwnership()": {
        "details": "Leaves the contract without owner. It will not be possible to call `onlyOwner` functions. Can only be called by the current owner. NOTE: Renouncing ownership will leave the contract without an owner, thereby disabling any functionality that is only available to the owner."
      },
      "setAccessControlManager(address)": {
        "custom:access": "Only Governance",
        "custom:event": "Emits NewAccessControlManager event",
        "details": "Admin function to set address of AccessControlManager",
        "params": {
          "accessControlManager_": "The new address of the AccessControlManager"
        }
      },
      "setLimit(uint256,uint256)": {
        "custom:access": "Controlled by ACM",
        "custom:error": "Throw InvalidLimit if any of the limit is less than total tokens minted",
        "custom:event": "Emits MintLimitsUpdated event",
        "params": {
          "_irrevocableLimit": "total number of irrevocable tokens that can be minted",
          "_revocableLimit": "total number of revocable tokens that can be minted"
        }
      },
      "setMaxLoopsLimit(uint256)": {
        "custom:access": "Controlled by ACM",
        "custom:event": "Emits MaxLoopsLimitUpdated event on success",
        "params": {
          "loopsLimit": "Number of loops limit"
        }
      },
      "setStakedAt(address[],uint256[])": {
        "custom:access": "Controlled by ACM",
        "custom:error": "Throw InvalidLength if users and timestamps length are not equal",
        "custom:event": "Emits StakedAtUpdated event for each user",
        "params": {
          "timestamps": "new staked at timestamp for the users",
          "users": "accounts for which we need to update staked at timestamp"
        }
      },
      "togglePause()": {
        "custom:access": "Controlled by ACM"
      },
      "transferOwnership(address)": {
        "details": "Starts the ownership transfer of the contract to a new account. Replaces the pending transfer if there is one. Can only be called by the current owner."
      },
      "updateAlpha(uint128,uint128)": {
        "custom:access": "Controlled by ACM",
        "custom:event": "Emits AlphaUpdated event",
        "params": {
          "_alphaDenominator": "denominator of alpha. If alpha is 0.5 then denominator is 2",
          "_alphaNumerator": "numerator of alpha. If alpha is 0.5 then numerator is 1"
        }
      },
      "updateMultipliers(address,uint256,uint256)": {
        "custom:access": "Controlled by ACM",
        "custom:error": "Throw MarketNotSupported if market is not supported",
        "custom:event": "Emits MultiplierUpdated event",
        "params": {
          "borrowMultiplier": "new borrow multiplier for the market, scaled by 1e18",
          "market": "address of the market vToken",
          "supplyMultiplier": "new supply multiplier for the market, scaled by 1e18"
        }
      },
      "updateScores(address[])": {
        "custom:error": "Throw NoScoreUpdatesRequired if no score updates are requiredThrow UserHasNoPrimeToken if user has no prime token",
        "custom:event": "Emits UserScoreUpdated event",
        "params": {
          "users": "accounts for which we need to update score"
        }
      },
      "xvsUpdated(address)": {
        "params": {
          "user": "the account address whose balance was updated"
        }
      }
    },
    "stateVariables": {
      "BLOCKS_PER_YEAR": {
        "custom:oz-upgrades-unsafe-allow": "state-variable-immutable"
      },
      "MAXIMUM_XVS_CAP": {
        "custom:oz-upgrades-unsafe-allow": "state-variable-immutable"
      },
      "MINIMUM_STAKED_XVS": {
        "custom:oz-upgrades-unsafe-allow": "state-variable-immutable"
      },
      "STAKING_PERIOD": {
        "custom:oz-upgrades-unsafe-allow": "state-variable-immutable"
      },
      "VBNB": {
        "custom:oz-upgrades-unsafe-allow": "state-variable-immutable"
      },
      "WBNB": {
        "custom:oz-upgrades-unsafe-allow": "state-variable-immutable"
      }
    },
    "title": "Prime",
    "version": 1
  },
  "userdoc": {
    "errors": {
      "AssetAlreadyExists()": [
        {
          "notice": "Error thrown when asset already exists"
        }
      ],
      "ExpTooLarge(int256)": [
        {
          "notice": "Thrown when exp is given too large of an argument"
        }
      ],
      "IneligibleToClaim()": [
        {
          "notice": "Error thrown when user is not eligible to claim prime token"
        }
      ],
      "InvalidAddress()": [
        {
          "notice": "Error thrown when invalid address is passed"
        }
      ],
      "InvalidAlphaArguments()": [
        {
          "notice": "Error thrown when invalid alpha arguments are passed"
        }
      ],
      "InvalidBlocksPerYear()": [
        {
          "notice": "Error thrown when blocks per year is passed as 0"
        }
      ],
      "InvalidLength()": [
        {
          "notice": "Error thrown when invalid length is passed"
        }
      ],
      "InvalidLimit()": [
        {
          "notice": "Error thrown when mint limit is reached"
        }
      ],
      "InvalidTimestamp()": [
        {
          "notice": "Error thrown when timestamp is invalud"
        }
      ],
      "InvalidVToken()": [
        {
          "notice": "Error thrown when invalid vToken is passed"
        }
      ],
      "LnNonRealResult(int256)": [
        {
          "notice": "Thrown when the natural log would have returned a number outside of "
        }
      ],
      "LnTooLarge(int256)": [
        {
          "notice": "Thrown when the natural log function is given too large of an argument"
        }
      ],
      "MarketAlreadyExists()": [
        {
          "notice": "Error thrown when market already exists"
        }
      ],
      "MarketNotSupported()": [
        {
          "notice": "Error thrown when market is not supported"
        }
      ],
      "MaxLoopsLimitExceeded(uint256,uint256)": [
        {
          "notice": "Thrown an error on maxLoopsLimit exceeds for any loop"
        }
      ],
      "NoScoreUpdatesRequired()": [
        {
          "notice": "Error thrown when no score updates are required"
        }
      ],
      "Unauthorized(address,address,string)": [
        {
          "notice": "Thrown when the action is prohibited by AccessControlManager"
        }
      ],
      "UserHasNoPrimeToken()": [
        {
          "notice": "Error thrown when user has no prime token"
        }
      ],
      "WaitMoreTime()": [
        {
          "notice": "Error thrown when user needs to wait more time to claim prime token"
        }
      ]
    },
    "events": {
      "AlphaUpdated(uint128,uint128,uint128,uint128)": {
        "notice": "Emitted when alpha is updated"
      },
      "Burn(address)": {
        "notice": "Emitted when prime token is burned"
      },
      "InterestClaimed(address,address,uint256)": {
        "notice": "Emitted when interest is claimed"
      },
      "MarketAdded(address,uint256,uint256)": {
        "notice": "Emitted when a market is added to prime program"
      },
      "MaxLoopsLimitUpdated(uint256,uint256)": {
        "notice": "Emitted when max loops limit is set"
      },
      "Mint(address,bool)": {
        "notice": "Emitted when prime token is minted"
      },
      "MintLimitsUpdated(uint256,uint256,uint256,uint256)": {
        "notice": "Emitted when mint limits are updated"
      },
      "MultiplierUpdated(address,uint256,uint256,uint256,uint256)": {
        "notice": "Emitted when multiplier is updated"
      },
      "NewAccessControlManager(address,address)": {
        "notice": "Emitted when access control manager contract address is changed"
      },
      "StakedAtUpdated(address,uint256)": {
        "notice": "Emitted when stakedAt is updated"
      },
      "TokenUpgraded(address)": {
        "notice": "Emitted when revocable token is upgraded to irrevocable token"
      },
      "UserScoreUpdated(address)": {
        "notice": "Emitted when user score is updated"
      }
    },
    "kind": "user",
    "methods": {
      "BLOCKS_PER_YEAR()": {
        "notice": "total blocks per year"
      },
      "MAXIMUM_XVS_CAP()": {
        "notice": "maximum XVS taken in account when calculating user score"
      },
      "MINIMUM_STAKED_XVS()": {
        "notice": "minimum amount of XVS user needs to stake to become a prime member"
      },
      "STAKING_PERIOD()": {
        "notice": "number of days user need to stake to claim prime token"
      },
      "VBNB()": {
        "notice": "address of VBNB contract"
      },
      "WBNB()": {
        "notice": "address of WBNB contract"
      },
      "accessControlManager()": {
        "notice": "Returns the address of the access control manager contract"
      },
      "accrueInterest(address)": {
        "notice": "Distributes income from market since last distribution"
      },
      "accrueInterestAndUpdateScore(address,address)": {
        "notice": "accrues interes and updates score for an user for a specific market"
      },
      "addMarket(address,uint256,uint256)": {
        "notice": "Add a market to prime program"
      },
      "alphaDenominator()": {
        "notice": "denominator of alpha. Ex: if alpha is 0.5 then this will be 2"
      },
      "alphaNumerator()": {
        "notice": "numerator of alpha. Ex: if alpha is 0.5 then this will be 1"
      },
      "burn(address)": {
        "notice": "For burning any prime token"
      },
      "calculateAPR(address,address)": {
        "notice": "Returns supply and borrow APR for user for a given market"
      },
      "claim()": {
        "notice": "For claiming prime token when staking period is completed"
      },
      "claimInterest(address)": {
        "notice": "For user to claim boosted yield"
      },
      "claimInterest(address,address)": {
        "notice": "For user to claim boosted yield"
      },
      "claimTimeRemaining(address)": {
        "notice": "fetch the numbers of seconds remaining for staking period to complete"
      },
      "comptroller()": {
        "notice": "address of core pool comptroller contract"
      },
      "estimateAPR(address,address,uint256,uint256,uint256)": {
        "notice": "Returns supply and borrow APR for estimated supply, borrow and XVS staked"
      },
      "getAllMarkets()": {
        "notice": "Retrieves an array of all available markets"
      },
      "getInterestAccrued(address,address)": {
        "notice": "Returns boosted interest accrued for a user"
      },
      "getPendingRewards(address)": {
        "notice": "Returns boosted pending interest accrued for a user for all markets"
      },
      "initialize(address,address,uint256,uint128,uint128,address,address,address,address,uint256)": {
        "notice": "Prime initializer"
      },
      "interests(address,address)": {
        "notice": "vToken to user to user index"
      },
      "irrevocableLimit()": {
        "notice": "Indicates maximum irrevocable tokens that can be minted"
      },
      "isScoreUpdated(uint256,address)": {
        "notice": "mapping to check if a account's score was updated in the round"
      },
      "issue(bool,address[])": {
        "notice": "Directly issue prime tokens to users"
      },
      "markets(address)": {
        "notice": "vToken to market configuration"
      },
      "nextScoreUpdateRoundId()": {
        "notice": "unique id for next round"
      },
      "oracle()": {
        "notice": "The address of ResilientOracle contract"
      },
      "pendingScoreUpdates()": {
        "notice": "total number of accounts whose score is yet to be updated"
      },
      "primeLiquidityProvider()": {
        "notice": "The address of PLP contract"
      },
      "revocableLimit()": {
        "notice": "Indicates maximum revocable tokens that can be minted"
      },
      "setAccessControlManager(address)": {
        "notice": "Sets the address of AccessControlManager"
      },
      "setLimit(uint256,uint256)": {
        "notice": "Set limits for total tokens that can be minted"
      },
      "setMaxLoopsLimit(uint256)": {
        "notice": "Set the limit for the loops can iterate to avoid the DOS"
      },
      "setStakedAt(address[],uint256[])": {
        "notice": "Update staked at timestamp for multiple users"
      },
      "stakedAt(address)": {
        "notice": "Tracks when prime token eligible users started staking for claiming prime token"
      },
      "togglePause()": {
        "notice": "To pause or unpause claiming of interest"
      },
      "tokens(address)": {
        "notice": "Mapping to get prime token's metadata"
      },
      "totalIrrevocable()": {
        "notice": "Tracks total irrevocable tokens minted"
      },
      "totalRevocable()": {
        "notice": "Tracks total revocable tokens minted"
      },
      "totalScoreUpdatesRequired()": {
        "notice": "total number of accounts whose score needs to be updated"
      },
      "unreleasedPLPIncome(address)": {
        "notice": "unreleased income from PLP that's already distributed to prime holders"
      },
      "updateAlpha(uint128,uint128)": {
        "notice": "Update value of alpha"
      },
      "updateMultipliers(address,uint256,uint256)": {
        "notice": "Update multipliers for a market"
      },
      "updateScores(address[])": {
        "notice": "Update total score of multiple users and market"
      },
      "vTokenForAsset(address)": {
        "notice": "mapping used to find if an asset is part of prime markets"
      },
      "xvsUpdated(address)": {
        "notice": "Executed by XVSVault whenever user's XVSVault balance changes"
      },
      "xvsVault()": {
        "notice": "address of XVS vault"
      },
      "xvsVaultPoolId()": {
        "notice": "address of XVS vault pool id"
      },
      "xvsVaultRewardToken()": {
        "notice": "address of XVS vault reward token"
      }
    },
    "notice": "Prime Token is used to provide extra rewards to the users who have staked a minimum of `MINIMUM_STAKED_XVS` XVS in the XVSVault for `STAKING_PERIOD` days",
    "version": 1
  },
  "storageLayout": {
    "storage": [
      {
        "astId": 244,
        "contract": "contracts/Tokens/Prime/Prime.sol:Prime",
        "label": "_initialized",
        "offset": 0,
        "slot": "0",
        "type": "t_uint8"
      },
      {
        "astId": 247,
        "contract": "contracts/Tokens/Prime/Prime.sol:Prime",
        "label": "_initializing",
        "offset": 1,
        "slot": "0",
        "type": "t_bool"
      },
      {
        "astId": 1503,
        "contract": "contracts/Tokens/Prime/Prime.sol:Prime",
        "label": "__gap",
        "offset": 0,
        "slot": "1",
        "type": "t_array(t_uint256)50_storage"
      },
      {
        "astId": 116,
        "contract": "contracts/Tokens/Prime/Prime.sol:Prime",
        "label": "_owner",
        "offset": 0,
        "slot": "51",
        "type": "t_address"
      },
      {
        "astId": 236,
        "contract": "contracts/Tokens/Prime/Prime.sol:Prime",
        "label": "__gap",
        "offset": 0,
        "slot": "52",
        "type": "t_array(t_uint256)49_storage"
      },
      {
        "astId": 25,
        "contract": "contracts/Tokens/Prime/Prime.sol:Prime",
        "label": "_pendingOwner",
        "offset": 0,
        "slot": "101",
        "type": "t_address"
      },
      {
        "astId": 104,
        "contract": "contracts/Tokens/Prime/Prime.sol:Prime",
        "label": "__gap",
        "offset": 0,
        "slot": "102",
        "type": "t_array(t_uint256)49_storage"
      },
      {
        "astId": 4170,
        "contract": "contracts/Tokens/Prime/Prime.sol:Prime",
        "label": "_accessControlManager",
        "offset": 0,
        "slot": "151",
        "type": "t_contract(IAccessControlManagerV8)4354"
      },
      {
        "astId": 4175,
        "contract": "contracts/Tokens/Prime/Prime.sol:Prime",
        "label": "__gap",
        "offset": 0,
        "slot": "152",
        "type": "t_array(t_uint256)49_storage"
      },
      {
        "astId": 427,
        "contract": "contracts/Tokens/Prime/Prime.sol:Prime",
        "label": "_paused",
        "offset": 0,
        "slot": "201",
        "type": "t_bool"
      },
      {
        "astId": 532,
        "contract": "contracts/Tokens/Prime/Prime.sol:Prime",
        "label": "__gap",
        "offset": 0,
        "slot": "202",
        "type": "t_array(t_uint256)49_storage"
      },
      {
        "astId": 4359,
        "contract": "contracts/Tokens/Prime/Prime.sol:Prime",
        "label": "maxLoopsLimit",
        "offset": 0,
        "slot": "251",
        "type": "t_uint256"
      },
      {
        "astId": 4364,
        "contract": "contracts/Tokens/Prime/Prime.sol:Prime",
        "label": "__gap",
        "offset": 0,
        "slot": "252",
        "type": "t_array(t_uint256)49_storage"
      },
      {
        "astId": 17610,
        "contract": "contracts/Tokens/Prime/Prime.sol:Prime",
        "label": "tokens",
        "offset": 0,
        "slot": "301",
        "type": "t_mapping(t_address,t_struct(Token)17571_storage)"
      },
      {
        "astId": 17613,
        "contract": "contracts/Tokens/Prime/Prime.sol:Prime",
        "label": "totalIrrevocable",
        "offset": 0,
        "slot": "302",
        "type": "t_uint256"
      },
      {
        "astId": 17616,
        "contract": "contracts/Tokens/Prime/Prime.sol:Prime",
        "label": "totalRevocable",
        "offset": 0,
        "slot": "303",
        "type": "t_uint256"
      },
      {
        "astId": 17619,
        "contract": "contracts/Tokens/Prime/Prime.sol:Prime",
        "label": "revocableLimit",
        "offset": 0,
        "slot": "304",
        "type": "t_uint256"
      },
      {
        "astId": 17622,
        "contract": "contracts/Tokens/Prime/Prime.sol:Prime",
        "label": "irrevocableLimit",
        "offset": 0,
        "slot": "305",
        "type": "t_uint256"
      },
      {
        "astId": 17627,
        "contract": "contracts/Tokens/Prime/Prime.sol:Prime",
        "label": "stakedAt",
        "offset": 0,
        "slot": "306",
        "type": "t_mapping(t_address,t_uint256)"
      },
      {
        "astId": 17633,
        "contract": "contracts/Tokens/Prime/Prime.sol:Prime",
        "label": "markets",
        "offset": 0,
        "slot": "307",
        "type": "t_mapping(t_address,t_struct(Market)17582_storage)"
      },
      {
        "astId": 17641,
        "contract": "contracts/Tokens/Prime/Prime.sol:Prime",
        "label": "interests",
        "offset": 0,
        "slot": "308",
        "type": "t_mapping(t_address,t_mapping(t_address,t_struct(Interest)17589_storage))"
      },
      {
        "astId": 17645,
        "contract": "contracts/Tokens/Prime/Prime.sol:Prime",
        "label": "_allMarkets",
        "offset": 0,
        "slot": "309",
        "type": "t_array(t_address)dyn_storage"
      },
      {
        "astId": 17648,
        "contract": "contracts/Tokens/Prime/Prime.sol:Prime",
        "label": "alphaNumerator",
        "offset": 0,
        "slot": "310",
        "type": "t_uint128"
      },
      {
        "astId": 17651,
        "contract": "contracts/Tokens/Prime/Prime.sol:Prime",
        "label": "alphaDenominator",
        "offset": 16,
        "slot": "310",
        "type": "t_uint128"
      },
      {
        "astId": 17654,
        "contract": "contracts/Tokens/Prime/Prime.sol:Prime",
        "label": "xvsVault",
        "offset": 0,
        "slot": "311",
        "type": "t_address"
      },
      {
        "astId": 17657,
        "contract": "contracts/Tokens/Prime/Prime.sol:Prime",
        "label": "xvsVaultRewardToken",
        "offset": 0,
        "slot": "312",
        "type": "t_address"
      },
      {
        "astId": 17660,
        "contract": "contracts/Tokens/Prime/Prime.sol:Prime",
        "label": "xvsVaultPoolId",
        "offset": 0,
        "slot": "313",
        "type": "t_uint256"
      },
      {
        "astId": 17667,
        "contract": "contracts/Tokens/Prime/Prime.sol:Prime",
        "label": "isScoreUpdated",
        "offset": 0,
        "slot": "314",
        "type": "t_mapping(t_uint256,t_mapping(t_address,t_bool))"
      },
      {
        "astId": 17670,
        "contract": "contracts/Tokens/Prime/Prime.sol:Prime",
        "label": "nextScoreUpdateRoundId",
        "offset": 0,
        "slot": "315",
        "type": "t_uint256"
      },
      {
        "astId": 17673,
        "contract": "contracts/Tokens/Prime/Prime.sol:Prime",
        "label": "totalScoreUpdatesRequired",
        "offset": 0,
        "slot": "316",
        "type": "t_uint256"
      },
      {
        "astId": 17676,
        "contract": "contracts/Tokens/Prime/Prime.sol:Prime",
        "label": "pendingScoreUpdates",
        "offset": 0,
        "slot": "317",
        "type": "t_uint256"
      },
      {
        "astId": 17681,
        "contract": "contracts/Tokens/Prime/Prime.sol:Prime",
        "label": "vTokenForAsset",
        "offset": 0,
        "slot": "318",
        "type": "t_mapping(t_address,t_address)"
      },
      {
        "astId": 17684,
        "contract": "contracts/Tokens/Prime/Prime.sol:Prime",
        "label": "comptroller",
        "offset": 0,
        "slot": "319",
        "type": "t_address"
      },
      {
        "astId": 17689,
        "contract": "contracts/Tokens/Prime/Prime.sol:Prime",
        "label": "unreleasedPLPIncome",
        "offset": 0,
        "slot": "320",
        "type": "t_mapping(t_address,t_uint256)"
      },
      {
        "astId": 17692,
        "contract": "contracts/Tokens/Prime/Prime.sol:Prime",
        "label": "primeLiquidityProvider",
        "offset": 0,
        "slot": "321",
        "type": "t_address"
      },
      {
        "astId": 17696,
        "contract": "contracts/Tokens/Prime/Prime.sol:Prime",
        "label": "oracle",
        "offset": 0,
        "slot": "322",
        "type": "t_contract(ResilientOracleInterface)4453"
      },
      {
        "astId": 17701,
        "contract": "contracts/Tokens/Prime/Prime.sol:Prime",
        "label": "__gap",
        "offset": 0,
        "slot": "323",
        "type": "t_array(t_uint256)27_storage"
      }
    ],
    "types": {
      "t_address": {
        "encoding": "inplace",
        "label": "address",
        "numberOfBytes": "20"
      },
      "t_array(t_address)dyn_storage": {
        "base": "t_address",
        "encoding": "dynamic_array",
        "label": "address[]",
        "numberOfBytes": "32"
      },
      "t_array(t_uint256)27_storage": {
        "base": "t_uint256",
        "encoding": "inplace",
        "label": "uint256[27]",
        "numberOfBytes": "864"
      },
      "t_array(t_uint256)49_storage": {
        "base": "t_uint256",
        "encoding": "inplace",
        "label": "uint256[49]",
        "numberOfBytes": "1568"
      },
      "t_array(t_uint256)50_storage": {
        "base": "t_uint256",
        "encoding": "inplace",
        "label": "uint256[50]",
        "numberOfBytes": "1600"
      },
      "t_bool": {
        "encoding": "inplace",
        "label": "bool",
        "numberOfBytes": "1"
      },
      "t_contract(IAccessControlManagerV8)4354": {
        "encoding": "inplace",
        "label": "contract IAccessControlManagerV8",
        "numberOfBytes": "20"
      },
      "t_contract(ResilientOracleInterface)4453": {
        "encoding": "inplace",
        "label": "contract ResilientOracleInterface",
        "numberOfBytes": "20"
      },
      "t_mapping(t_address,t_address)": {
        "encoding": "mapping",
        "key": "t_address",
        "label": "mapping(address => address)",
        "numberOfBytes": "32",
        "value": "t_address"
      },
      "t_mapping(t_address,t_bool)": {
        "encoding": "mapping",
        "key": "t_address",
        "label": "mapping(address => bool)",
        "numberOfBytes": "32",
        "value": "t_bool"
      },
      "t_mapping(t_address,t_mapping(t_address,t_struct(Interest)17589_storage))": {
        "encoding": "mapping",
        "key": "t_address",
        "label": "mapping(address => mapping(address => struct PrimeStorageV1.Interest))",
        "numberOfBytes": "32",
        "value": "t_mapping(t_address,t_struct(Interest)17589_storage)"
      },
      "t_mapping(t_address,t_struct(Interest)17589_storage)": {
        "encoding": "mapping",
        "key": "t_address",
        "label": "mapping(address => struct PrimeStorageV1.Interest)",
        "numberOfBytes": "32",
        "value": "t_struct(Interest)17589_storage"
      },
      "t_mapping(t_address,t_struct(Market)17582_storage)": {
        "encoding": "mapping",
        "key": "t_address",
        "label": "mapping(address => struct PrimeStorageV1.Market)",
        "numberOfBytes": "32",
        "value": "t_struct(Market)17582_storage"
      },
      "t_mapping(t_address,t_struct(Token)17571_storage)": {
        "encoding": "mapping",
        "key": "t_address",
        "label": "mapping(address => struct PrimeStorageV1.Token)",
        "numberOfBytes": "32",
        "value": "t_struct(Token)17571_storage"
      },
      "t_mapping(t_address,t_uint256)": {
        "encoding": "mapping",
        "key": "t_address",
        "label": "mapping(address => uint256)",
        "numberOfBytes": "32",
        "value": "t_uint256"
      },
      "t_mapping(t_uint256,t_mapping(t_address,t_bool))": {
        "encoding": "mapping",
        "key": "t_uint256",
        "label": "mapping(uint256 => mapping(address => bool))",
        "numberOfBytes": "32",
        "value": "t_mapping(t_address,t_bool)"
      },
      "t_struct(Interest)17589_storage": {
        "encoding": "inplace",
        "label": "struct PrimeStorageV1.Interest",
        "members": [
          {
            "astId": 17584,
            "contract": "contracts/Tokens/Prime/Prime.sol:Prime",
            "label": "accrued",
            "offset": 0,
            "slot": "0",
            "type": "t_uint256"
          },
          {
            "astId": 17586,
            "contract": "contracts/Tokens/Prime/Prime.sol:Prime",
            "label": "score",
            "offset": 0,
            "slot": "1",
            "type": "t_uint256"
          },
          {
            "astId": 17588,
            "contract": "contracts/Tokens/Prime/Prime.sol:Prime",
            "label": "rewardIndex",
            "offset": 0,
            "slot": "2",
            "type": "t_uint256"
          }
        ],
        "numberOfBytes": "96"
      },
      "t_struct(Market)17582_storage": {
        "encoding": "inplace",
        "label": "struct PrimeStorageV1.Market",
        "members": [
          {
            "astId": 17573,
            "contract": "contracts/Tokens/Prime/Prime.sol:Prime",
            "label": "supplyMultiplier",
            "offset": 0,
            "slot": "0",
            "type": "t_uint256"
          },
          {
            "astId": 17575,
            "contract": "contracts/Tokens/Prime/Prime.sol:Prime",
            "label": "borrowMultiplier",
            "offset": 0,
            "slot": "1",
            "type": "t_uint256"
          },
          {
            "astId": 17577,
            "contract": "contracts/Tokens/Prime/Prime.sol:Prime",
            "label": "rewardIndex",
            "offset": 0,
            "slot": "2",
            "type": "t_uint256"
          },
          {
            "astId": 17579,
            "contract": "contracts/Tokens/Prime/Prime.sol:Prime",
            "label": "sumOfMembersScore",
            "offset": 0,
            "slot": "3",
            "type": "t_uint256"
          },
          {
            "astId": 17581,
            "contract": "contracts/Tokens/Prime/Prime.sol:Prime",
            "label": "exists",
            "offset": 0,
            "slot": "4",
            "type": "t_bool"
          }
        ],
        "numberOfBytes": "160"
      },
      "t_struct(Token)17571_storage": {
        "encoding": "inplace",
        "label": "struct PrimeStorageV1.Token",
        "members": [
          {
            "astId": 17568,
            "contract": "contracts/Tokens/Prime/Prime.sol:Prime",
            "label": "exists",
            "offset": 0,
            "slot": "0",
            "type": "t_bool"
          },
          {
            "astId": 17570,
            "contract": "contracts/Tokens/Prime/Prime.sol:Prime",
            "label": "isIrrevocable",
            "offset": 1,
            "slot": "0",
            "type": "t_bool"
          }
        ],
        "numberOfBytes": "32"
      },
      "t_uint128": {
        "encoding": "inplace",
        "label": "uint128",
        "numberOfBytes": "16"
      },
      "t_uint256": {
        "encoding": "inplace",
        "label": "uint256",
        "numberOfBytes": "32"
      },
      "t_uint8": {
        "encoding": "inplace",
        "label": "uint8",
        "numberOfBytes": "1"
      }
    }
  }
}