{
  "address": "0x8188fd0818fc782012D45f92CbC05587bECeEd75",
  "abi": [
    {
      "anonymous": false,
      "inputs": [
        {
          "indexed": true,
          "internalType": "contract VToken",
          "name": "vToken",
          "type": "address"
        },
        {
          "indexed": true,
          "internalType": "enum ComptrollerV9Storage.Action",
          "name": "action",
          "type": "uint8"
        },
        {
          "indexed": false,
          "internalType": "bool",
          "name": "pauseState",
          "type": "bool"
        }
      ],
      "name": "ActionPausedMarket",
      "type": "event"
    },
    {
      "anonymous": false,
      "inputs": [
        {
          "indexed": false,
          "internalType": "bool",
          "name": "state",
          "type": "bool"
        }
      ],
      "name": "ActionProtocolPaused",
      "type": "event"
    },
    {
      "anonymous": false,
      "inputs": [
        {
          "indexed": false,
          "internalType": "uint256",
          "name": "amount",
          "type": "uint256"
        }
      ],
      "name": "DistributedVAIVaultVenus",
      "type": "event"
    },
    {
      "anonymous": false,
      "inputs": [
        {
          "indexed": false,
          "internalType": "uint256",
          "name": "error",
          "type": "uint256"
        },
        {
          "indexed": false,
          "internalType": "uint256",
          "name": "info",
          "type": "uint256"
        },
        {
          "indexed": false,
          "internalType": "uint256",
          "name": "detail",
          "type": "uint256"
        }
      ],
      "name": "Failure",
      "type": "event"
    },
    {
      "anonymous": false,
      "inputs": [
        {
          "indexed": true,
          "internalType": "address",
          "name": "vToken",
          "type": "address"
        },
        {
          "indexed": false,
          "internalType": "bool",
          "name": "enable",
          "type": "bool"
        }
      ],
      "name": "IsForcedLiquidationEnabledUpdated",
      "type": "event"
    },
    {
      "anonymous": false,
      "inputs": [
        {
          "indexed": true,
          "internalType": "contract VToken",
          "name": "vToken",
          "type": "address"
        },
        {
          "indexed": true,
          "internalType": "address",
          "name": "account",
          "type": "address"
        }
      ],
      "name": "MarketEntered",
      "type": "event"
    },
    {
      "anonymous": false,
      "inputs": [
        {
          "indexed": false,
          "internalType": "address",
          "name": "oldAccessControlAddress",
          "type": "address"
        },
        {
          "indexed": false,
          "internalType": "address",
          "name": "newAccessControlAddress",
          "type": "address"
        }
      ],
      "name": "NewAccessControl",
      "type": "event"
    },
    {
      "anonymous": false,
      "inputs": [
        {
          "indexed": true,
          "internalType": "contract VToken",
          "name": "vToken",
          "type": "address"
        },
        {
          "indexed": false,
          "internalType": "uint256",
          "name": "newBorrowCap",
          "type": "uint256"
        }
      ],
      "name": "NewBorrowCap",
      "type": "event"
    },
    {
      "anonymous": false,
      "inputs": [
        {
          "indexed": false,
          "internalType": "uint256",
          "name": "oldCloseFactorMantissa",
          "type": "uint256"
        },
        {
          "indexed": false,
          "internalType": "uint256",
          "name": "newCloseFactorMantissa",
          "type": "uint256"
        }
      ],
      "name": "NewCloseFactor",
      "type": "event"
    },
    {
      "anonymous": false,
      "inputs": [
        {
          "indexed": true,
          "internalType": "contract VToken",
          "name": "vToken",
          "type": "address"
        },
        {
          "indexed": false,
          "internalType": "uint256",
          "name": "oldCollateralFactorMantissa",
          "type": "uint256"
        },
        {
          "indexed": false,
          "internalType": "uint256",
          "name": "newCollateralFactorMantissa",
          "type": "uint256"
        }
      ],
      "name": "NewCollateralFactor",
      "type": "event"
    },
    {
      "anonymous": false,
      "inputs": [
        {
          "indexed": false,
          "internalType": "address",
          "name": "oldComptrollerLens",
          "type": "address"
        },
        {
          "indexed": false,
          "internalType": "address",
          "name": "newComptrollerLens",
          "type": "address"
        }
      ],
      "name": "NewComptrollerLens",
      "type": "event"
    },
    {
      "anonymous": false,
      "inputs": [
        {
          "indexed": false,
          "internalType": "uint256",
          "name": "oldLiquidationIncentiveMantissa",
          "type": "uint256"
        },
        {
          "indexed": false,
          "internalType": "uint256",
          "name": "newLiquidationIncentiveMantissa",
          "type": "uint256"
        }
      ],
      "name": "NewLiquidationIncentive",
      "type": "event"
    },
    {
      "anonymous": false,
      "inputs": [
        {
          "indexed": false,
          "internalType": "address",
          "name": "oldLiquidatorContract",
          "type": "address"
        },
        {
          "indexed": false,
          "internalType": "address",
          "name": "newLiquidatorContract",
          "type": "address"
        }
      ],
      "name": "NewLiquidatorContract",
      "type": "event"
    },
    {
      "anonymous": false,
      "inputs": [
        {
          "indexed": false,
          "internalType": "address",
          "name": "oldPauseGuardian",
          "type": "address"
        },
        {
          "indexed": false,
          "internalType": "address",
          "name": "newPauseGuardian",
          "type": "address"
        }
      ],
      "name": "NewPauseGuardian",
      "type": "event"
    },
    {
      "anonymous": false,
      "inputs": [
        {
          "indexed": false,
          "internalType": "contract PriceOracle",
          "name": "oldPriceOracle",
          "type": "address"
        },
        {
          "indexed": false,
          "internalType": "contract PriceOracle",
          "name": "newPriceOracle",
          "type": "address"
        }
      ],
      "name": "NewPriceOracle",
      "type": "event"
    },
    {
      "anonymous": false,
      "inputs": [
        {
          "indexed": false,
          "internalType": "contract IPrime",
          "name": "oldPrimeToken",
          "type": "address"
        },
        {
          "indexed": false,
          "internalType": "contract IPrime",
          "name": "newPrimeToken",
          "type": "address"
        }
      ],
      "name": "NewPrimeToken",
      "type": "event"
    },
    {
      "anonymous": false,
      "inputs": [
        {
          "indexed": true,
          "internalType": "contract VToken",
          "name": "vToken",
          "type": "address"
        },
        {
          "indexed": false,
          "internalType": "uint256",
          "name": "newSupplyCap",
          "type": "uint256"
        }
      ],
      "name": "NewSupplyCap",
      "type": "event"
    },
    {
      "anonymous": false,
      "inputs": [
        {
          "indexed": false,
          "internalType": "address",
          "name": "oldTreasuryAddress",
          "type": "address"
        },
        {
          "indexed": false,
          "internalType": "address",
          "name": "newTreasuryAddress",
          "type": "address"
        }
      ],
      "name": "NewTreasuryAddress",
      "type": "event"
    },
    {
      "anonymous": false,
      "inputs": [
        {
          "indexed": false,
          "internalType": "address",
          "name": "oldTreasuryGuardian",
          "type": "address"
        },
        {
          "indexed": false,
          "internalType": "address",
          "name": "newTreasuryGuardian",
          "type": "address"
        }
      ],
      "name": "NewTreasuryGuardian",
      "type": "event"
    },
    {
      "anonymous": false,
      "inputs": [
        {
          "indexed": false,
          "internalType": "uint256",
          "name": "oldTreasuryPercent",
          "type": "uint256"
        },
        {
          "indexed": false,
          "internalType": "uint256",
          "name": "newTreasuryPercent",
          "type": "uint256"
        }
      ],
      "name": "NewTreasuryPercent",
      "type": "event"
    },
    {
      "anonymous": false,
      "inputs": [
        {
          "indexed": false,
          "internalType": "contract VAIControllerInterface",
          "name": "oldVAIController",
          "type": "address"
        },
        {
          "indexed": false,
          "internalType": "contract VAIControllerInterface",
          "name": "newVAIController",
          "type": "address"
        }
      ],
      "name": "NewVAIController",
      "type": "event"
    },
    {
      "anonymous": false,
      "inputs": [
        {
          "indexed": false,
          "internalType": "uint256",
          "name": "oldVAIMintRate",
          "type": "uint256"
        },
        {
          "indexed": false,
          "internalType": "uint256",
          "name": "newVAIMintRate",
          "type": "uint256"
        }
      ],
      "name": "NewVAIMintRate",
      "type": "event"
    },
    {
      "anonymous": false,
      "inputs": [
        {
          "indexed": true,
          "internalType": "address",
          "name": "vault_",
          "type": "address"
        },
        {
          "indexed": false,
          "internalType": "uint256",
          "name": "releaseStartBlock_",
          "type": "uint256"
        },
        {
          "indexed": false,
          "internalType": "uint256",
          "name": "releaseInterval_",
          "type": "uint256"
        }
      ],
      "name": "NewVAIVaultInfo",
      "type": "event"
    },
    {
      "anonymous": false,
      "inputs": [
        {
          "indexed": false,
          "internalType": "uint256",
          "name": "oldVenusVAIVaultRate",
          "type": "uint256"
        },
        {
          "indexed": false,
          "internalType": "uint256",
          "name": "newVenusVAIVaultRate",
          "type": "uint256"
        }
      ],
      "name": "NewVenusVAIVaultRate",
      "type": "event"
    },
    {
      "constant": false,
      "inputs": [
        {
          "internalType": "address",
          "name": "newAccessControlAddress",
          "type": "address"
        }
      ],
      "name": "_setAccessControl",
      "outputs": [
        {
          "internalType": "uint256",
          "name": "",
          "type": "uint256"
        }
      ],
      "payable": false,
      "stateMutability": "nonpayable",
      "type": "function"
    },
    {
      "constant": false,
      "inputs": [
        {
          "internalType": "address[]",
          "name": "markets_",
          "type": "address[]"
        },
        {
          "internalType": "enum ComptrollerV9Storage.Action[]",
          "name": "actions_",
          "type": "uint8[]"
        },
        {
          "internalType": "bool",
          "name": "paused_",
          "type": "bool"
        }
      ],
      "name": "_setActionsPaused",
      "outputs": [],
      "payable": false,
      "stateMutability": "nonpayable",
      "type": "function"
    },
    {
      "constant": false,
      "inputs": [
        {
          "internalType": "uint256",
          "name": "newCloseFactorMantissa",
          "type": "uint256"
        }
      ],
      "name": "_setCloseFactor",
      "outputs": [
        {
          "internalType": "uint256",
          "name": "",
          "type": "uint256"
        }
      ],
      "payable": false,
      "stateMutability": "nonpayable",
      "type": "function"
    },
    {
      "constant": false,
      "inputs": [
        {
          "internalType": "contract VToken",
          "name": "vToken",
          "type": "address"
        },
        {
          "internalType": "uint256",
          "name": "newCollateralFactorMantissa",
          "type": "uint256"
        }
      ],
      "name": "_setCollateralFactor",
      "outputs": [
        {
          "internalType": "uint256",
          "name": "",
          "type": "uint256"
        }
      ],
      "payable": false,
      "stateMutability": "nonpayable",
      "type": "function"
    },
    {
      "constant": false,
      "inputs": [
        {
          "internalType": "contract ComptrollerLensInterface",
          "name": "comptrollerLens_",
          "type": "address"
        }
      ],
      "name": "_setComptrollerLens",
      "outputs": [
        {
          "internalType": "uint256",
          "name": "",
          "type": "uint256"
        }
      ],
      "payable": false,
      "stateMutability": "nonpayable",
      "type": "function"
    },
    {
      "constant": false,
      "inputs": [
        {
          "internalType": "address",
          "name": "vTokenBorrowed",
          "type": "address"
        },
        {
          "internalType": "bool",
          "name": "enable",
          "type": "bool"
        }
      ],
      "name": "_setForcedLiquidation",
      "outputs": [],
      "payable": false,
      "stateMutability": "nonpayable",
      "type": "function"
    },
    {
      "constant": false,
      "inputs": [
        {
          "internalType": "uint256",
          "name": "newLiquidationIncentiveMantissa",
          "type": "uint256"
        }
      ],
      "name": "_setLiquidationIncentive",
      "outputs": [
        {
          "internalType": "uint256",
          "name": "",
          "type": "uint256"
        }
      ],
      "payable": false,
      "stateMutability": "nonpayable",
      "type": "function"
    },
    {
      "constant": false,
      "inputs": [
        {
          "internalType": "address",
          "name": "newLiquidatorContract_",
          "type": "address"
        }
      ],
      "name": "_setLiquidatorContract",
      "outputs": [],
      "payable": false,
      "stateMutability": "nonpayable",
      "type": "function"
    },
    {
      "constant": false,
      "inputs": [
        {
          "internalType": "contract VToken[]",
          "name": "vTokens",
          "type": "address[]"
        },
        {
          "internalType": "uint256[]",
          "name": "newBorrowCaps",
          "type": "uint256[]"
        }
      ],
      "name": "_setMarketBorrowCaps",
      "outputs": [],
      "payable": false,
      "stateMutability": "nonpayable",
      "type": "function"
    },
    {
      "constant": false,
      "inputs": [
        {
          "internalType": "contract VToken[]",
          "name": "vTokens",
          "type": "address[]"
        },
        {
          "internalType": "uint256[]",
          "name": "newSupplyCaps",
          "type": "uint256[]"
        }
      ],
      "name": "_setMarketSupplyCaps",
      "outputs": [],
      "payable": false,
      "stateMutability": "nonpayable",
      "type": "function"
    },
    {
      "constant": false,
      "inputs": [
        {
          "internalType": "address",
          "name": "newPauseGuardian",
          "type": "address"
        }
      ],
      "name": "_setPauseGuardian",
      "outputs": [
        {
          "internalType": "uint256",
          "name": "",
          "type": "uint256"
        }
      ],
      "payable": false,
      "stateMutability": "nonpayable",
      "type": "function"
    },
    {
      "constant": false,
      "inputs": [
        {
          "internalType": "contract PriceOracle",
          "name": "newOracle",
          "type": "address"
        }
      ],
      "name": "_setPriceOracle",
      "outputs": [
        {
          "internalType": "uint256",
          "name": "",
          "type": "uint256"
        }
      ],
      "payable": false,
      "stateMutability": "nonpayable",
      "type": "function"
    },
    {
      "constant": false,
      "inputs": [
        {
          "internalType": "contract IPrime",
          "name": "_prime",
          "type": "address"
        }
      ],
      "name": "_setPrimeToken",
      "outputs": [
        {
          "internalType": "uint256",
          "name": "",
          "type": "uint256"
        }
      ],
      "payable": false,
      "stateMutability": "nonpayable",
      "type": "function"
    },
    {
      "constant": false,
      "inputs": [
        {
          "internalType": "bool",
          "name": "state",
          "type": "bool"
        }
      ],
      "name": "_setProtocolPaused",
      "outputs": [
        {
          "internalType": "bool",
          "name": "",
          "type": "bool"
        }
      ],
      "payable": false,
      "stateMutability": "nonpayable",
      "type": "function"
    },
    {
      "constant": false,
      "inputs": [
        {
          "internalType": "address",
          "name": "newTreasuryGuardian",
          "type": "address"
        },
        {
          "internalType": "address",
          "name": "newTreasuryAddress",
          "type": "address"
        },
        {
          "internalType": "uint256",
          "name": "newTreasuryPercent",
          "type": "uint256"
        }
      ],
      "name": "_setTreasuryData",
      "outputs": [
        {
          "internalType": "uint256",
          "name": "",
          "type": "uint256"
        }
      ],
      "payable": false,
      "stateMutability": "nonpayable",
      "type": "function"
    },
    {
      "constant": false,
      "inputs": [
        {
          "internalType": "contract VAIControllerInterface",
          "name": "vaiController_",
          "type": "address"
        }
      ],
      "name": "_setVAIController",
      "outputs": [
        {
          "internalType": "uint256",
          "name": "",
          "type": "uint256"
        }
      ],
      "payable": false,
      "stateMutability": "nonpayable",
      "type": "function"
    },
    {
      "constant": false,
      "inputs": [
        {
          "internalType": "uint256",
          "name": "newVAIMintRate",
          "type": "uint256"
        }
      ],
      "name": "_setVAIMintRate",
      "outputs": [
        {
          "internalType": "uint256",
          "name": "",
          "type": "uint256"
        }
      ],
      "payable": false,
      "stateMutability": "nonpayable",
      "type": "function"
    },
    {
      "constant": false,
      "inputs": [
        {
          "internalType": "address",
          "name": "vault_",
          "type": "address"
        },
        {
          "internalType": "uint256",
          "name": "releaseStartBlock_",
          "type": "uint256"
        },
        {
          "internalType": "uint256",
          "name": "minReleaseAmount_",
          "type": "uint256"
        }
      ],
      "name": "_setVAIVaultInfo",
      "outputs": [],
      "payable": false,
      "stateMutability": "nonpayable",
      "type": "function"
    },
    {
      "constant": false,
      "inputs": [
        {
          "internalType": "uint256",
          "name": "venusVAIVaultRate_",
          "type": "uint256"
        }
      ],
      "name": "_setVenusVAIVaultRate",
      "outputs": [],
      "payable": false,
      "stateMutability": "nonpayable",
      "type": "function"
    },
    {
      "constant": true,
      "inputs": [
        {
          "internalType": "address",
          "name": "",
          "type": "address"
        },
        {
          "internalType": "uint256",
          "name": "",
          "type": "uint256"
        }
      ],
      "name": "accountAssets",
      "outputs": [
        {
          "internalType": "contract VToken",
          "name": "",
          "type": "address"
        }
      ],
      "payable": false,
      "stateMutability": "view",
      "type": "function"
    },
    {
      "constant": true,
      "inputs": [
        {
          "internalType": "address",
          "name": "market",
          "type": "address"
        },
        {
          "internalType": "enum ComptrollerV9Storage.Action",
          "name": "action",
          "type": "uint8"
        }
      ],
      "name": "actionPaused",
      "outputs": [
        {
          "internalType": "bool",
          "name": "",
          "type": "bool"
        }
      ],
      "payable": false,
      "stateMutability": "view",
      "type": "function"
    },
    {
      "constant": true,
      "inputs": [],
      "name": "admin",
      "outputs": [
        {
          "internalType": "address",
          "name": "",
          "type": "address"
        }
      ],
      "payable": false,
      "stateMutability": "view",
      "type": "function"
    },
    {
      "constant": true,
      "inputs": [
        {
          "internalType": "uint256",
          "name": "",
          "type": "uint256"
        }
      ],
      "name": "allMarkets",
      "outputs": [
        {
          "internalType": "contract VToken",
          "name": "",
          "type": "address"
        }
      ],
      "payable": false,
      "stateMutability": "view",
      "type": "function"
    },
    {
      "constant": true,
      "inputs": [
        {
          "internalType": "address",
          "name": "",
          "type": "address"
        },
        {
          "internalType": "address",
          "name": "",
          "type": "address"
        }
      ],
      "name": "approvedDelegates",
      "outputs": [
        {
          "internalType": "bool",
          "name": "",
          "type": "bool"
        }
      ],
      "payable": false,
      "stateMutability": "view",
      "type": "function"
    },
    {
      "constant": true,
      "inputs": [],
      "name": "borrowCapGuardian",
      "outputs": [
        {
          "internalType": "address",
          "name": "",
          "type": "address"
        }
      ],
      "payable": false,
      "stateMutability": "view",
      "type": "function"
    },
    {
      "constant": true,
      "inputs": [
        {
          "internalType": "address",
          "name": "",
          "type": "address"
        }
      ],
      "name": "borrowCaps",
      "outputs": [
        {
          "internalType": "uint256",
          "name": "",
          "type": "uint256"
        }
      ],
      "payable": false,
      "stateMutability": "view",
      "type": "function"
    },
    {
      "constant": true,
      "inputs": [],
      "name": "closeFactorMantissa",
      "outputs": [
        {
          "internalType": "uint256",
          "name": "",
          "type": "uint256"
        }
      ],
      "payable": false,
      "stateMutability": "view",
      "type": "function"
    },
    {
      "constant": true,
      "inputs": [],
      "name": "comptrollerImplementation",
      "outputs": [
        {
          "internalType": "address",
          "name": "",
          "type": "address"
        }
      ],
      "payable": false,
      "stateMutability": "view",
      "type": "function"
    },
    {
      "constant": true,
      "inputs": [],
      "name": "comptrollerLens",
      "outputs": [
        {
          "internalType": "contract ComptrollerLensInterface",
          "name": "",
          "type": "address"
        }
      ],
      "payable": false,
      "stateMutability": "view",
      "type": "function"
    },
    {
      "constant": true,
      "inputs": [],
      "name": "getXVSAddress",
      "outputs": [
        {
          "internalType": "address",
          "name": "",
          "type": "address"
        }
      ],
      "payable": false,
      "stateMutability": "pure",
      "type": "function"
    },
    {
      "constant": true,
      "inputs": [
        {
          "internalType": "address",
          "name": "",
          "type": "address"
        }
      ],
      "name": "isForcedLiquidationEnabled",
      "outputs": [
        {
          "internalType": "bool",
          "name": "",
          "type": "bool"
        }
      ],
      "payable": false,
      "stateMutability": "view",
      "type": "function"
    },
    {
      "constant": true,
      "inputs": [],
      "name": "liquidationIncentiveMantissa",
      "outputs": [
        {
          "internalType": "uint256",
          "name": "",
          "type": "uint256"
        }
      ],
      "payable": false,
      "stateMutability": "view",
      "type": "function"
    },
    {
      "constant": true,
      "inputs": [],
      "name": "liquidatorContract",
      "outputs": [
        {
          "internalType": "address",
          "name": "",
          "type": "address"
        }
      ],
      "payable": false,
      "stateMutability": "view",
      "type": "function"
    },
    {
      "constant": true,
      "inputs": [
        {
          "internalType": "address",
          "name": "",
          "type": "address"
        }
      ],
      "name": "markets",
      "outputs": [
        {
          "internalType": "bool",
          "name": "isListed",
          "type": "bool"
        },
        {
          "internalType": "uint256",
          "name": "collateralFactorMantissa",
          "type": "uint256"
        },
        {
          "internalType": "bool",
          "name": "isVenus",
          "type": "bool"
        }
      ],
      "payable": false,
      "stateMutability": "view",
      "type": "function"
    },
    {
      "constant": true,
      "inputs": [],
      "name": "maxAssets",
      "outputs": [
        {
          "internalType": "uint256",
          "name": "",
          "type": "uint256"
        }
      ],
      "payable": false,
      "stateMutability": "view",
      "type": "function"
    },
    {
      "constant": true,
      "inputs": [],
      "name": "minReleaseAmount",
      "outputs": [
        {
          "internalType": "uint256",
          "name": "",
          "type": "uint256"
        }
      ],
      "payable": false,
      "stateMutability": "view",
      "type": "function"
    },
    {
      "constant": true,
      "inputs": [],
      "name": "mintVAIGuardianPaused",
      "outputs": [
        {
          "internalType": "bool",
          "name": "",
          "type": "bool"
        }
      ],
      "payable": false,
      "stateMutability": "view",
      "type": "function"
    },
    {
      "constant": true,
      "inputs": [
        {
          "internalType": "address",
          "name": "",
          "type": "address"
        }
      ],
      "name": "mintedVAIs",
      "outputs": [
        {
          "internalType": "uint256",
          "name": "",
          "type": "uint256"
        }
      ],
      "payable": false,
      "stateMutability": "view",
      "type": "function"
    },
    {
      "constant": true,
      "inputs": [],
      "name": "oracle",
      "outputs": [
        {
          "internalType": "contract PriceOracle",
          "name": "",
          "type": "address"
        }
      ],
      "payable": false,
      "stateMutability": "view",
      "type": "function"
    },
    {
      "constant": true,
      "inputs": [],
      "name": "pauseGuardian",
      "outputs": [
        {
          "internalType": "address",
          "name": "",
          "type": "address"
        }
      ],
      "payable": false,
      "stateMutability": "view",
      "type": "function"
    },
    {
      "constant": true,
      "inputs": [],
      "name": "pendingAdmin",
      "outputs": [
        {
          "internalType": "address",
          "name": "",
          "type": "address"
        }
      ],
      "payable": false,
      "stateMutability": "view",
      "type": "function"
    },
    {
      "constant": true,
      "inputs": [],
      "name": "pendingComptrollerImplementation",
      "outputs": [
        {
          "internalType": "address",
          "name": "",
          "type": "address"
        }
      ],
      "payable": false,
      "stateMutability": "view",
      "type": "function"
    },
    {
      "constant": true,
      "inputs": [],
      "name": "prime",
      "outputs": [
        {
          "internalType": "contract IPrime",
          "name": "",
          "type": "address"
        }
      ],
      "payable": false,
      "stateMutability": "view",
      "type": "function"
    },
    {
      "constant": true,
      "inputs": [],
      "name": "protocolPaused",
      "outputs": [
        {
          "internalType": "bool",
          "name": "",
          "type": "bool"
        }
      ],
      "payable": false,
      "stateMutability": "view",
      "type": "function"
    },
    {
      "constant": true,
      "inputs": [],
      "name": "releaseStartBlock",
      "outputs": [
        {
          "internalType": "uint256",
          "name": "",
          "type": "uint256"
        }
      ],
      "payable": false,
      "stateMutability": "view",
      "type": "function"
    },
    {
      "constant": true,
      "inputs": [],
      "name": "repayVAIGuardianPaused",
      "outputs": [
        {
          "internalType": "bool",
          "name": "",
          "type": "bool"
        }
      ],
      "payable": false,
      "stateMutability": "view",
      "type": "function"
    },
    {
      "constant": false,
      "inputs": [
        {
          "internalType": "address",
          "name": "owner",
          "type": "address"
        },
        {
          "internalType": "uint256",
          "name": "amount",
          "type": "uint256"
        }
      ],
      "name": "setMintedVAIOf",
      "outputs": [
        {
          "internalType": "uint256",
          "name": "",
          "type": "uint256"
        }
      ],
      "payable": false,
      "stateMutability": "nonpayable",
      "type": "function"
    },
    {
      "constant": true,
      "inputs": [
        {
          "internalType": "address",
          "name": "",
          "type": "address"
        }
      ],
      "name": "supplyCaps",
      "outputs": [
        {
          "internalType": "uint256",
          "name": "",
          "type": "uint256"
        }
      ],
      "payable": false,
      "stateMutability": "view",
      "type": "function"
    },
    {
      "constant": true,
      "inputs": [],
      "name": "treasuryAddress",
      "outputs": [
        {
          "internalType": "address",
          "name": "",
          "type": "address"
        }
      ],
      "payable": false,
      "stateMutability": "view",
      "type": "function"
    },
    {
      "constant": true,
      "inputs": [],
      "name": "treasuryGuardian",
      "outputs": [
        {
          "internalType": "address",
          "name": "",
          "type": "address"
        }
      ],
      "payable": false,
      "stateMutability": "view",
      "type": "function"
    },
    {
      "constant": true,
      "inputs": [],
      "name": "treasuryPercent",
      "outputs": [
        {
          "internalType": "uint256",
          "name": "",
          "type": "uint256"
        }
      ],
      "payable": false,
      "stateMutability": "view",
      "type": "function"
    },
    {
      "constant": true,
      "inputs": [],
      "name": "vaiController",
      "outputs": [
        {
          "internalType": "contract VAIControllerInterface",
          "name": "",
          "type": "address"
        }
      ],
      "payable": false,
      "stateMutability": "view",
      "type": "function"
    },
    {
      "constant": true,
      "inputs": [],
      "name": "vaiMintRate",
      "outputs": [
        {
          "internalType": "uint256",
          "name": "",
          "type": "uint256"
        }
      ],
      "payable": false,
      "stateMutability": "view",
      "type": "function"
    },
    {
      "constant": true,
      "inputs": [],
      "name": "vaiVaultAddress",
      "outputs": [
        {
          "internalType": "address",
          "name": "",
          "type": "address"
        }
      ],
      "payable": false,
      "stateMutability": "view",
      "type": "function"
    },
    {
      "constant": true,
      "inputs": [
        {
          "internalType": "address",
          "name": "",
          "type": "address"
        }
      ],
      "name": "venusAccrued",
      "outputs": [
        {
          "internalType": "uint256",
          "name": "",
          "type": "uint256"
        }
      ],
      "payable": false,
      "stateMutability": "view",
      "type": "function"
    },
    {
      "constant": true,
      "inputs": [
        {
          "internalType": "address",
          "name": "",
          "type": "address"
        }
      ],
      "name": "venusBorrowSpeeds",
      "outputs": [
        {
          "internalType": "uint256",
          "name": "",
          "type": "uint256"
        }
      ],
      "payable": false,
      "stateMutability": "view",
      "type": "function"
    },
    {
      "constant": true,
      "inputs": [
        {
          "internalType": "address",
          "name": "",
          "type": "address"
        }
      ],
      "name": "venusBorrowState",
      "outputs": [
        {
          "internalType": "uint224",
          "name": "index",
          "type": "uint224"
        },
        {
          "internalType": "uint32",
          "name": "block",
          "type": "uint32"
        }
      ],
      "payable": false,
      "stateMutability": "view",
      "type": "function"
    },
    {
      "constant": true,
      "inputs": [
        {
          "internalType": "address",
          "name": "",
          "type": "address"
        },
        {
          "internalType": "address",
          "name": "",
          "type": "address"
        }
      ],
      "name": "venusBorrowerIndex",
      "outputs": [
        {
          "internalType": "uint256",
          "name": "",
          "type": "uint256"
        }
      ],
      "payable": false,
      "stateMutability": "view",
      "type": "function"
    },
    {
      "constant": true,
      "inputs": [],
      "name": "venusInitialIndex",
      "outputs": [
        {
          "internalType": "uint224",
          "name": "",
          "type": "uint224"
        }
      ],
      "payable": false,
      "stateMutability": "view",
      "type": "function"
    },
    {
      "constant": true,
      "inputs": [
        {
          "internalType": "address",
          "name": "",
          "type": "address"
        },
        {
          "internalType": "address",
          "name": "",
          "type": "address"
        }
      ],
      "name": "venusSupplierIndex",
      "outputs": [
        {
          "internalType": "uint256",
          "name": "",
          "type": "uint256"
        }
      ],
      "payable": false,
      "stateMutability": "view",
      "type": "function"
    },
    {
      "constant": true,
      "inputs": [
        {
          "internalType": "address",
          "name": "",
          "type": "address"
        }
      ],
      "name": "venusSupplySpeeds",
      "outputs": [
        {
          "internalType": "uint256",
          "name": "",
          "type": "uint256"
        }
      ],
      "payable": false,
      "stateMutability": "view",
      "type": "function"
    },
    {
      "constant": true,
      "inputs": [
        {
          "internalType": "address",
          "name": "",
          "type": "address"
        }
      ],
      "name": "venusSupplyState",
      "outputs": [
        {
          "internalType": "uint224",
          "name": "index",
          "type": "uint224"
        },
        {
          "internalType": "uint32",
          "name": "block",
          "type": "uint32"
        }
      ],
      "payable": false,
      "stateMutability": "view",
      "type": "function"
    },
    {
      "constant": true,
      "inputs": [],
      "name": "venusVAIVaultRate",
      "outputs": [
        {
          "internalType": "uint256",
          "name": "",
          "type": "uint256"
        }
      ],
      "payable": false,
      "stateMutability": "view",
      "type": "function"
    }
  ],
  "transactionHash": "0xe16f304a60e2b7bad359d0dacdd9109e67b9a8c9c74d91a3194f2b122f67723f",
  "args": [],
  "numDeployments": 1,
  "solcInputHash": "f0f1ae6b21fd9459efe25e3e8925bba7",
  "bytecode": "0x608060405234801561001057600080fd5b50612d6c806100206000396000f3fe608060405234801561001057600080fd5b50600436106103c55760003560e01c80637dc0d1d0116101ff578063bf32442d1161011a578063e37d4b79116100ad578063f519fc301161007c578063f519fc3014610c2f578063f851a44014610c55578063fa6331d814610c5d578063fd51a3ad14610c65576103c5565b8063e37d4b7914610ba6578063e4028eee14610bcc578063e85a296014610bf8578063e875544614610c27576103c5565b8063d24febad116100e9578063d24febad14610b34578063d3270f9914610b6a578063dce1544914610b72578063dcfbc0c714610b9e576103c5565b8063bf32442d14610af8578063c5b4db5514610b00578063c5f956af14610b24578063c7ee005e14610b2c576103c5565b80639bf34cbb11610192578063bb82aa5e11610161578063bb82aa5e14610a9c578063bb85745014610aa4578063bbb8864a14610aca578063bec04f7214610af0576103c5565b80639bf34cbb146109fa5780639cfdd9e614610a20578063b2eafc3914610a46578063b8324c7c14610a4e576103c5565b80639254f5e5116101ce5780639254f5e5146109bc5780639460c8b5146109c457806394b2294b146109ea5780639bb27d62146109f2576103c5565b80637dc0d1d0146109205780638a7dc165146109285780638c1ac18a1461094e5780638e8f294b14610974576103c5565b8063425fad58116102ef57806355ee1fe1116102825780636662c7c9116102515780636662c7c9146108eb578063719f701b1461090857806376551383146109105780637d172bd514610918576103c5565b806355ee1fe1146107bb5780635dd3fc9d146107e15780635f5af1aa14610807578063607ef6c11461082d576103c5565b80634fd42e17116102be5780634fd42e171461069557806351a485e4146106b2578063522c656b1461077057806352d84d1e1461079e576103c5565b8063425fad581461062d5780634a584432146106355780634ada90af1461065b5780634e0853db14610663576103c5565b806326782247116103675780632ec04124116103365780632ec04124146105bd578063317b0b77146105da5780634088c73e146105f757806341a18d2c146105ff576103c5565b806326782247146104ae5780632a6a6065146104b65780632b5d790c146104d55780632bc7e29e14610597576103c5565b80630db4b4e5116103a35780630db4b4e51461043857806310b983381461044057806321af45691461048257806324a3d622146104a6576103c5565b806302c3bcbb146103ca57806304ef9d581461040257806308e0225c1461040a575b600080fd5b6103f0600480360360208110156103e057600080fd5b50356001600160a01b0316610c91565b60408051918252519081900360200190f35b6103f0610ca3565b6103f06004803603604081101561042057600080fd5b506001600160a01b0381358116916020013516610ca9565b6103f0610cc6565b61046e6004803603604081101561045657600080fd5b506001600160a01b0381358116916020013516610ccc565b604080519115158252519081900360200190f35b61048a610cec565b604080516001600160a01b039092168252519081900360200190f35b61048a610cfb565b61048a610d0a565b61046e600480360360208110156104cc57600080fd5b50351515610d19565b610595600480360360608110156104eb57600080fd5b810190602081018135600160201b81111561050557600080fd5b82018360208201111561051757600080fd5b803590602001918460208302840111600160201b8311171561053857600080fd5b919390929091602081019035600160201b81111561055557600080fd5b82018360208201111561056757600080fd5b803590602001918460208302840111600160201b8311171561058857600080fd5b9193509150351515610dab565b005b6103f0600480360360208110156105ad57600080fd5b50356001600160a01b0316610e47565b6103f0600480360360208110156105d357600080fd5b5035610e59565b6103f0600480360360208110156105f057600080fd5b5035610efb565b61046e611025565b6103f06004803603604081101561061557600080fd5b506001600160a01b038135811691602001351661102e565b61046e61104b565b6103f06004803603602081101561064b57600080fd5b50356001600160a01b031661105a565b6103f061106c565b6105956004803603606081101561067957600080fd5b506001600160a01b038135169060208101359060400135611072565b6103f0600480360360208110156106ab57600080fd5b5035611157565b610595600480360360408110156106c857600080fd5b810190602081018135600160201b8111156106e257600080fd5b8201836020820111156106f457600080fd5b803590602001918460208302840111600160201b8311171561071557600080fd5b919390929091602081019035600160201b81111561073257600080fd5b82018360208201111561074457600080fd5b803590602001918460208302840111600160201b8311171561076557600080fd5b50909250905061125b565b6105956004803603604081101561078657600080fd5b506001600160a01b03813516906020013515156113ae565b61048a600480360360208110156107b457600080fd5b5035611465565b6103f0600480360360208110156107d157600080fd5b50356001600160a01b031661148c565b6103f0600480360360208110156107f757600080fd5b50356001600160a01b0316611557565b6103f06004803603602081101561081d57600080fd5b50356001600160a01b0316611569565b6105956004803603604081101561084357600080fd5b810190602081018135600160201b81111561085d57600080fd5b82018360208201111561086f57600080fd5b803590602001918460208302840111600160201b8311171561089057600080fd5b919390929091602081019035600160201b8111156108ad57600080fd5b8201836020820111156108bf57600080fd5b803590602001918460208302840111600160201b831117156108e057600080fd5b509092509050611634565b6105956004803603602081101561090157600080fd5b503561177e565b6103f061182f565b61046e611835565b61048a611843565b61048a611852565b6103f06004803603602081101561093e57600080fd5b50356001600160a01b0316611861565b61046e6004803603602081101561096457600080fd5b50356001600160a01b0316611873565b61099a6004803603602081101561098a57600080fd5b50356001600160a01b0316611888565b6040805193151584526020840192909252151582820152519081900360600190f35b61048a6118ae565b6103f0600480360360208110156109da57600080fd5b50356001600160a01b03166118bd565b6103f0611938565b61048a61193e565b6103f060048036036020811015610a1057600080fd5b50356001600160a01b031661194d565b6103f060048036036020811015610a3657600080fd5b50356001600160a01b0316611a17565b61048a611ae2565b610a7460048036036020811015610a6457600080fd5b50356001600160a01b0316611af1565b604080516001600160e01b03909316835263ffffffff90911660208301528051918290030190f35b61048a611b1b565b61059560048036036020811015610aba57600080fd5b50356001600160a01b0316611b2a565b6103f060048036036020811015610ae057600080fd5b50356001600160a01b0316611bf1565b6103f0611c03565b61048a611c09565b610b08611c21565b604080516001600160e01b039092168252519081900360200190f35b61048a611c34565b61048a611c43565b6103f060048036036060811015610b4a57600080fd5b506001600160a01b03813581169160208101359091169060400135611c52565b61048a611dd1565b61048a60048036036040811015610b8857600080fd5b506001600160a01b038135169060200135611de0565b61048a611e15565b610a7460048036036020811015610bbc57600080fd5b50356001600160a01b0316611e24565b6103f060048036036040811015610be257600080fd5b506001600160a01b038135169060200135611e4e565b61046e60048036036040811015610c0e57600080fd5b5080356001600160a01b0316906020013560ff1661204c565b6103f061208e565b6103f060048036036020811015610c4557600080fd5b50356001600160a01b0316612094565b61048a61215f565b6103f061216e565b6103f060048036036040811015610c7b57600080fd5b506001600160a01b038135169060200135612174565b60276020526000908152604090205481565b60225481565b601360209081526000928352604080842090915290825290205481565b601d5481565b602c60209081526000928352604080842090915290825290205460ff1681565b601e546001600160a01b031681565b600a546001600160a01b031681565b6001546001600160a01b031681565b6000610d596040518060400160405280601881526020017f5f73657450726f746f636f6c50617573656428626f6f6c290000000000000000815250612221565b6018805483151562010000810262ff0000199092169190911790915560408051918252517fd7500633dd3ddd74daa7af62f8c8404c7fe4a81da179998db851696bed004b389181900360200190a15090565b610dcc604051806060016040528060298152602001612c1260299139612221565b838260005b82811015610e3d5760005b82811015610e3457610e2c898984818110610df357fe5b905060200201356001600160a01b0316888884818110610e0f57fe5b90506020020135600881118015610e2557600080fd5b5087612345565b600101610ddc565b50600101610dd1565b5050505050505050565b60166020526000908152604090205481565b60006017548280821415610ea2576040805162461bcd60e51b815260206004820152601e6024820152600080516020612cd1833981519152604482015290519081900360640190fd5b610eaa6123fd565b6017805490859055604080518281526020810187905281517f73747d68b346dce1e932bcd238282e7ac84c01569e1f8d0469c222fdc6e9d5a4929181900390910190a160005b9350505b5050919050565b60006005548280821415610f44576040805162461bcd60e51b815260206004820152601e6024820152600080516020612cd1833981519152604482015290519081900360640190fd5b610f4c6123fd565b610f54612bd4565b506040805160208101909152848152610f6b612bd4565b506040805160208101909152670c7d713b49da00008152610f8a612bd4565b50604080516020810190915266b1a2bc2ec500008152610faa828461244f565b80610fba5750610fba8184612456565b15610fd457610fca60058061245d565b9550505050610ef4565b600580549088905560408051828152602081018a905281517f3b9670cf975d26958e754b57098eaa2ac914d8d2a31b83257997b9f346110fd9929181900390910190a1600098975050505050505050565b60185460ff1681565b601260209081526000928352604080842090915290825290205481565b60185462010000900460ff1681565b601f6020526000908152604090205481565b60065481565b601b546001600160a01b0390811690849081168214156110c35760405162461bcd60e51b8152600401808060200182810382526022815260200180612cf16022913960400191505060405180910390fd5b6110cb6123fd565b6110d4856124c3565b601b546001600160a01b0316156110ed576110ed612516565b601b80546001600160a01b0319166001600160a01b038716908117909155601c859055601d849055604080518681526020810186905281517f7059037d74ee16b0fb06a4a30f3348dd2635f301f92e373c92899a25a522ef6e929181900390910190a25050505050565b600060065482808214156111a0576040805162461bcd60e51b815260206004820152601e6024820152600080516020612cd1833981519152604482015290519081900360640190fd5b6111c1604051806060016040528060218152602001612c3b60219139612221565b670de0b6b3a7640000841015611211576040805162461bcd60e51b815260206004820152601060248201526f0d2dcc6cadce8d2ecca40784062ca62760831b604482015290519081900360640190fd5b6006805490859055604080518281526020810187905281517faeba5a6c40a8ac138134bff1aaa65debf25971188a58804bad717f82f0ec1316929181900390910190a16000610ef0565b61127c604051806060016040528060298152602001612c5c60299139612221565b8281811580159061128c57508082145b6112cd576040805162461bcd60e51b815260206004820152600d60248201526c1a5b9d985b1a59081a5b9c1d5d609a1b604482015290519081900360640190fd5b60005b828110156113a5578484828181106112e457fe5b90506020020135602760008989858181106112fb57fe5b905060200201356001600160a01b03166001600160a01b03166001600160a01b031681526020019081526020016000208190555086868281811061133b57fe5b905060200201356001600160a01b03166001600160a01b03167f9e0ad9cee10bdf36b7fbd38910c0bdff0f275ace679b45b922381c2723d676f886868481811061138157fe5b905060200201356040518082815260200191505060405180910390a26001016112d0565b50505050505050565b6113cf604051806060016040528060238152602001612c8560239139612221565b6015546001600160a01b03838116911614611405576001600160a01b0382166000908152600960205260409020611405906126ee565b6001600160a01b0382166000818152602d6020908152604091829020805460ff1916851515908117909155825190815291517f03561d5280ebb02280893b1d60978e4a27e7654a149c5d0e7c2cf65389ce16949281900390910190a25050565b600d818154811061147257fe5b6000918252602090912001546001600160a01b0316905081565b6004546000906001600160a01b0390811690839081168214156114e05760405162461bcd60e51b8152600401808060200182810382526022815260200180612cf16022913960400191505060405180910390fd5b6114e86123fd565b6114f1846124c3565b600480546001600160a01b038681166001600160a01b0319831681179093556040805191909216808252602082019390935281517fd52b2b9b7e9ee655fcb95d2e5b9e0c9f69e7ef2b8e9d2d0ea78402d576d22e22929181900390910190a16000610ef0565b602b6020526000908152604090205481565b600a546000906001600160a01b0390811690839081168214156115bd5760405162461bcd60e51b8152600401808060200182810382526022815260200180612cf16022913960400191505060405180910390fd5b6115c56123fd565b6115ce846124c3565b600a80546001600160a01b038681166001600160a01b0319831681179093556040805191909216808252602082019390935281517f0613b6ee6a04f0d09f390e4d9318894b9f6ac7fd83897cd8d18896ba579c401e929181900390910190a16000610ef0565b611655604051806060016040528060298152602001612ca860299139612221565b8281811580159061166557508082145b6116a6576040805162461bcd60e51b815260206004820152600d60248201526c1a5b9d985b1a59081a5b9c1d5d609a1b604482015290519081900360640190fd5b60005b828110156113a5578484828181106116bd57fe5b90506020020135601f60008989858181106116d457fe5b905060200201356001600160a01b03166001600160a01b03166001600160a01b031681526020019081526020016000208190555086868281811061171457fe5b905060200201356001600160a01b03166001600160a01b03167f6f1951b2aad10f3fc81b86d91105b413a5b3f847a34bbc5ce1904201b14438f686868481811061175a57fe5b905060200201356040518082815260200191505060405180910390a26001016116a9565b601a5481808214156117c5576040805162461bcd60e51b815260206004820152601e6024820152600080516020612cd1833981519152604482015290519081900360640190fd5b6117cd6123fd565b601b546001600160a01b0316156117e6576117e6612516565b601a805490849055604080518281526020810186905281517fe81d4ac15e5afa1e708e66664eddc697177423d950d133bda8262d8885e6da3b929181900390910190a150505050565b601c5481565b601854610100900460ff1681565b601b546001600160a01b031681565b6004546001600160a01b031681565b60146020526000908152604090205481565b602d6020526000908152604090205460ff1681565b60096020526000908152604090208054600182015460039092015460ff91821692911683565b6015546001600160a01b031681565b60006118c76123fd565b6118d0826124c3565b603180546001600160a01b038481166001600160a01b0319831681179093556040805191909216808252602082019390935281517fcb20dab7409e4fb972d9adccb39530520b226ce6940d85c9523a499b950b6ea3929181900390910190a160009392505050565b60075481565b6025546001600160a01b031681565b6026546000906001600160a01b0390811690839081168214156119a15760405162461bcd60e51b8152600401808060200182810382526022815260200180612cf16022913960400191505060405180910390fd5b6119a96123fd565b6119b2846124c3565b602680546001600160a01b038681166001600160a01b0319831617928390556040805192821680845293909116602083015280517f0f7eb572d1b3053a0a3a33c04151364cf88d163182a5e4e1088cb8e52321e08a9281900390910190a16000610ef0565b6015546000906001600160a01b039081169083908116821415611a6b5760405162461bcd60e51b8152600401808060200182810382526022815260200180612cf16022913960400191505060405180910390fd5b611a736123fd565b611a7c846124c3565b601580546001600160a01b038681166001600160a01b0319831681179093556040805191909216808252602082019390935281517fe1ddcb2dab8e5b03cfc8c67a0d5861d91d16f7bd2612fd381faf4541d212c9b2929181900390910190a16000610ef0565b6020546001600160a01b031681565b6010602052600090815260409020546001600160e01b03811690600160e01b900463ffffffff1682565b6002546001600160a01b031681565b6025546001600160a01b039081169082908116821415611b7b5760405162461bcd60e51b8152600401808060200182810382526022815260200180612cf16022913960400191505060405180910390fd5b611b836123fd565b611b8c836124c3565b602580546001600160a01b038581166001600160a01b0319831681179093556040805191909216808252602082019390935281517fa5ea5616d5f6dbbaa62fdfcf3856723216eed485c394d9e51ec8e6d40e1d1ac1929181900390910190a150505050565b602a6020526000908152604090205481565b60175481565b73cf6bb5389c92bdda8a3747ddb454cb7a64626c6390565b6ec097ce7bc90715b34b9f100000000081565b6021546001600160a01b031681565b6031546001600160a01b031681565b602054600090611c6a906001600160a01b0316612738565b670de0b6b3a76400008210611cb8576040805162461bcd60e51b815260206004820152600f60248201526e70657263656e74203e3d203130302560881b604482015290519081900360640190fd5b611cc1846124c3565b611cca836124c3565b6020805460218054602280546001600160a01b038a81166001600160a01b0319808816821789558b8316908616179095559188905560408051958316808752968601949094528351929091169390927f29f06ea15931797ebaed313d81d100963dc22cb213cb4ce2737b5a62b1a8b1e892918290030190a1604080516001600160a01b0380851682528816602082015281517f8de763046d7b8f08b6c3d03543de1d615309417842bb5d2d62f110f65809ddac929181900390910190a1604080518281526020810187905281517f0893f8f4101baaabbeb513f96761e7a36eb837403c82cc651c292a4abdc94ed7929181900390910190a1600093505050505b9392505050565b6026546001600160a01b031681565b60086020528160005260406000208181548110611df957fe5b6000918252602090912001546001600160a01b03169150829050565b6003546001600160a01b031681565b6011602052600090815260409020546001600160e01b03811690600160e01b900463ffffffff1682565b6001600160a01b0382166000908152600960205260408120600101548280821415611eae576040805162461bcd60e51b815260206004820152601e6024820152600080516020612cd1833981519152604482015290519081900360640190fd5b611ecf604051806060016040528060258152602001612d1360259139612221565b611ed8856124c3565b6001600160a01b0385166000908152600960205260409020611ef9816126ee565b611f01612bd4565b506040805160208101909152858152611f18612bd4565b506040805160208101909152670c7d713b49da00008152611f39818361244f565b15611f5457611f4a6006600861245d565b9550505050612044565b8615801590611fdd5750600480546040805163fc57d4df60e01b81526001600160a01b038c8116948201949094529051929091169163fc57d4df91602480820192602092909190829003018186803b158015611faf57600080fd5b505afa158015611fc3573d6000803e3d6000fd5b505050506040513d6020811015611fd957600080fd5b5051155b15611fee57611f4a600d600961245d565b6001830180549088905560408051828152602081018a905281516001600160a01b038c16927f70483e6592cd5182d45ac970e05bc62cdcc90e9d8ef2c2dbe686cf383bcd7fc5928290030190a260009650505050505b505092915050565b6001600160a01b03821660009081526029602052604081208183600881111561207157fe5b815260208101919091526040016000205460ff1690505b92915050565b60055481565b6028546000906001600160a01b0390811690839081168214156120e85760405162461bcd60e51b8152600401808060200182810382526022815260200180612cf16022913960400191505060405180910390fd5b6120f06123fd565b6120f9846124c3565b602880546001600160a01b038681166001600160a01b0319831681179093556040805191909216808252602082019390935281517f0f1eca7612e020f6e4582bcead0573eba4b5f7b56668754c6aed82ef12057dd4929181900390910190a16000610ef0565b6000546001600160a01b031681565b601a5481565b600061217e61279a565b60185460ff161580156121995750601854610100900460ff16155b6121da576040805162461bcd60e51b815260206004820152600d60248201526c159052481a5cc81c185d5cd959609a1b604482015290519081900360640190fd5b6015546001600160a01b031633146121ff576121f8600e601661245d565b9050612088565b6001600160a01b03831660009081526016602052604081208390559392505050565b602854604080516318c5e8ab60e01b81523360048201818152602483019384528551604484015285516001600160a01b03909516946318c5e8ab949293879391606490910190602085019080838360005b8381101561228a578181015183820152602001612272565b50505050905090810190601f1680156122b75780820380516001836020036101000a031916815260200191505b50935050505060206040518083038186803b1580156122d557600080fd5b505afa1580156122e9573d6000803e3d6000fd5b505050506040513d60208110156122ff57600080fd5b5051612342576040805162461bcd60e51b815260206004820152600d60248201526c1858d8d95cdcc819195b9a5959609a1b604482015290519081900360640190fd5b50565b6001600160a01b0383166000908152600960205260409020612366906126ee565b6001600160a01b0383166000908152602960205260408120829184600881111561238c57fe5b81526020810191909152604001600020805460ff19169115159190911790558160088111156123b757fe5b60408051831515815290516001600160a01b038616917f35007a986bcd36d2f73fc7f1b73762e12eadb4406dd163194950fd3b5a6a827d919081900360200190a3505050565b6000546001600160a01b0316331461244d576040805162461bcd60e51b815260206004820152600e60248201526d37b7363c9030b236b4b71031b0b760911b604482015290519081900360640190fd5b565b5190511090565b5190511190565b60007f45b96fe442630264581b197e84bbada861235052c5a1aadfff9ea4e40a969aa083601381111561248c57fe5b83601781111561249857fe5b604080519283526020830191909152600082820152519081900360600190a1826013811115611dca57fe5b6001600160a01b038116612342576040805162461bcd60e51b815260206004820152601560248201527463616e2774206265207a65726f206164647265737360581b604482015290519081900360640190fd5b601c54158061252d5750601c5461252b6127ed565b105b156125375761244d565b6000612541611c09565b6001600160a01b03166370a08231306040518263ffffffff1660e01b815260040180826001600160a01b03166001600160a01b0316815260200191505060206040518083038186803b15801561259657600080fd5b505afa1580156125aa573d6000803e3d6000fd5b505050506040513d60208110156125c057600080fd5b50519050806125cf575061244d565b6000806125e56125dd6127ed565b601c546127f1565b905060006125f5601a548361282b565b90508084106126065780925061260a565b8392505b601d5483101561261d575050505061244d565b6126256127ed565b601c55601b54612657906001600160a01b031684612641611c09565b6001600160a01b0316919063ffffffff61286d16565b6040805184815290517ff6d4b8f74d85a6e2d7a50225957b8a6cfec69ad92f5905627260541aa0a5565d9181900360200190a1601b60009054906101000a90046001600160a01b03166001600160a01b031663faa1809e6040518163ffffffff1660e01b8152600401600060405180830381600087803b1580156126da57600080fd5b505af1158015610e3d573d6000803e3d6000fd5b805460ff16612342576040805162461bcd60e51b81526020600482015260116024820152701b585c9ad95d081b9bdd081b1a5cdd1959607a1b604482015290519081900360640190fd5b6000546001600160a01b03163314806127595750336001600160a01b038216145b612342576040805162461bcd60e51b815260206004820152600d60248201526c1858d8d95cdcc819195b9a5959609a1b604482015290519081900360640190fd5b60185462010000900460ff161561244d576040805162461bcd60e51b81526020600482015260126024820152711c1c9bdd1bd8dbdb081a5cc81c185d5cd95960721b604482015290519081900360640190fd5b4390565b6000611dca8383604051806040016040528060158152602001747375627472616374696f6e20756e646572666c6f7760581b8152506128c4565b6000611dca83836040518060400160405280601781526020017f6d756c7469706c69636174696f6e206f766572666c6f7700000000000000000081525061295b565b604080516001600160a01b038416602482015260448082018490528251808303909101815260649091019091526020810180516001600160e01b031663a9059cbb60e01b1790526128bf9084906129da565b505050565b600081848411156129535760405162461bcd60e51b81526004018080602001828103825283818151815260200191508051906020019080838360005b83811015612918578181015183820152602001612900565b50505050905090810190601f1680156129455780820380516001836020036101000a031916815260200191505b509250505060405180910390fd5b505050900390565b6000831580612968575082155b1561297557506000611dca565b8383028385828161298257fe5b041483906129d15760405162461bcd60e51b8152602060048201818152835160248401528351909283926044909101919085019080838360008315612918578181015183820152602001612900565b50949350505050565b6129ec826001600160a01b0316612b98565b612a3d576040805162461bcd60e51b815260206004820152601f60248201527f5361666542455032303a2063616c6c20746f206e6f6e2d636f6e747261637400604482015290519081900360640190fd5b60006060836001600160a01b0316836040518082805190602001908083835b60208310612a7b5780518252601f199092019160209182019101612a5c565b6001836020036101000a0380198251168184511680821785525050505050509050019150506000604051808303816000865af19150503d8060008114612add576040519150601f19603f3d011682016040523d82523d6000602084013e612ae2565b606091505b509150915081612b39576040805162461bcd60e51b815260206004820181905260248201527f5361666542455032303a206c6f772d6c6576656c2063616c6c206661696c6564604482015290519081900360640190fd5b805115612b9257808060200190516020811015612b5557600080fd5b5051612b925760405162461bcd60e51b815260040180806020018281038252602a815260200180612be8602a913960400191505060405180910390fd5b50505050565b6000813f7fc5d2460186f7233c927e7db2dcc703c0e500b653ca82273b7bfad8045d85a470818114801590612bcc57508115155b949350505050565b604051806020016040528060008152509056fe5361666542455032303a204245503230206f7065726174696f6e20646964206e6f7420737563636565645f736574416374696f6e7350617573656428616464726573735b5d2c75696e74385b5d2c626f6f6c295f7365744c69717569646174696f6e496e63656e746976652875696e74323536295f7365744d61726b6574537570706c794361707328616464726573735b5d2c75696e743235365b5d295f736574466f726365644c69717569646174696f6e28616464726573732c626f6f6c295f7365744d61726b6574426f72726f774361707328616464726573735b5d2c75696e743235365b5d296f6c642076616c75652069732073616d65206173206e65772076616c756500006f6c6420616464726573732069732073616d65206173206e657720616464726573735f736574436f6c6c61746572616c466163746f7228616464726573732c75696e7432353629a265627a7a723158205fd081616870cb34ac4b8d0fee372de6b1b8ca1cc97d1e157c052ea91d7fb4c164736f6c63430005100032",
  "devdoc": {
    "author": "Venus",
    "details": "This facet contains all the setters for the states",
    "methods": {
      "_setAccessControl(address)": {
        "details": "Allows the contract admin to set the address of access control of this contract",
        "params": {
          "newAccessControlAddress": "New address for the access control"
        },
        "return": "uint256 0=success, otherwise will revert"
      },
      "_setActionsPaused(address[],uint8[],bool)": {
        "details": "Allows a privileged role to pause/unpause the protocol action state",
        "params": {
          "actions_": "List of action ids to pause/unpause",
          "markets_": "Markets to pause/unpause the actions on",
          "paused_": "The new paused state (true=paused, false=unpaused)"
        }
      },
      "_setCloseFactor(uint256)": {
        "details": "Allows the contract admin to set the closeFactor used to liquidate borrows",
        "params": {
          "newCloseFactorMantissa": "New close factor, scaled by 1e18"
        },
        "return": "uint256 0=success, otherwise will revert"
      },
      "_setCollateralFactor(address,uint256)": {
        "details": "Allows a privileged role to set the collateralFactorMantissa",
        "params": {
          "newCollateralFactorMantissa": "The new collateral factor, scaled by 1e18",
          "vToken": "The market to set the factor on"
        },
        "return": "uint256 0=success, otherwise a failure. (See ErrorReporter for details)"
      },
      "_setComptrollerLens(address)": {
        "details": "Set ComptrollerLens contract address",
        "params": {
          "comptrollerLens_": "The new ComptrollerLens contract address to be set"
        },
        "return": "uint256 0=success, otherwise a failure (see ErrorReporter.sol for details)"
      },
      "_setForcedLiquidation(address,bool)": {
        "details": "Allows a privileged role to set enable/disable forced liquidations",
        "params": {
          "enable": "Whether to enable forced liquidations",
          "vTokenBorrowed": "Borrowed vToken"
        }
      },
      "_setLiquidationIncentive(uint256)": {
        "details": "Allows a privileged role to set the liquidationIncentiveMantissa",
        "params": {
          "newLiquidationIncentiveMantissa": "New liquidationIncentive scaled by 1e18"
        },
        "return": "uint256 0=success, otherwise a failure. (See ErrorReporter for details)"
      },
      "_setLiquidatorContract(address)": {
        "details": "Allows the contract admin to update the address of liquidator contract",
        "params": {
          "newLiquidatorContract_": "The new address of the liquidator contract"
        }
      },
      "_setMarketBorrowCaps(address[],uint256[])": {
        "details": "Allows a privileged role to set the borrowing cap for a vToken market. A borrow cap of 0 corresponds to unlimited borrowing",
        "params": {
          "newBorrowCaps": "The new borrow cap values in underlying to be set. A value of 0 corresponds to unlimited borrowing",
          "vTokens": "The addresses of the markets (tokens) to change the borrow caps for"
        }
      },
      "_setMarketSupplyCaps(address[],uint256[])": {
        "details": "Allows a privileged role to set the supply cap for a vToken. A supply cap of 0 corresponds to Minting NotAllowed",
        "params": {
          "newSupplyCaps": "The new supply cap values in underlying to be set. A value of 0 corresponds to Minting NotAllowed",
          "vTokens": "The addresses of the markets (tokens) to change the supply caps for"
        }
      },
      "_setPauseGuardian(address)": {
        "details": "Allows the contract admin to change the Pause Guardian",
        "params": {
          "newPauseGuardian": "The address of the new Pause Guardian"
        },
        "return": "uint256 0=success, otherwise a failure. (See enum Error for details)"
      },
      "_setPriceOracle(address)": {
        "details": "Allows the contract admin to set a new price oracle used by the Comptroller",
        "return": "uint256 0=success, otherwise a failure (see ErrorReporter.sol for details)"
      },
      "_setPrimeToken(address)": {
        "return": "uint 0=success, otherwise a failure (see ErrorReporter.sol for details)"
      },
      "_setProtocolPaused(bool)": {
        "details": "Allows a privileged role to pause/unpause protocol",
        "params": {
          "state": "The new state (true=paused, false=unpaused)"
        },
        "return": "bool The updated state of the protocol"
      },
      "_setTreasuryData(address,address,uint256)": {
        "params": {
          "newTreasuryAddress": "The new address of the treasury to be set",
          "newTreasuryGuardian": "The new address of the treasury guardian to be set",
          "newTreasuryPercent": "The new treasury percent to be set"
        },
        "return": "uint256 0=success, otherwise a failure (see ErrorReporter.sol for details)"
      },
      "_setVAIController(address)": {
        "details": "Admin function to set a new VAI controller",
        "return": "uint256 0=success, otherwise a failure (see ErrorReporter.sol for details)"
      },
      "_setVAIMintRate(uint256)": {
        "params": {
          "newVAIMintRate": "The new VAI mint rate to be set"
        },
        "return": "uint256 0=success, otherwise a failure (see ErrorReporter.sol for details)"
      },
      "_setVAIVaultInfo(address,uint256,uint256)": {
        "params": {
          "minReleaseAmount_": "The minimum release amount to VAI Vault",
          "releaseStartBlock_": "The start block of release to VAI Vault",
          "vault_": "The address of the VAI Vault"
        }
      },
      "_setVenusVAIVaultRate(uint256)": {
        "params": {
          "venusVAIVaultRate_": "The amount of XVS wei per block to distribute to VAI Vault"
        }
      },
      "actionPaused(address,uint8)": {
        "params": {
          "action": "Action id",
          "market": "vToken address"
        }
      },
      "getXVSAddress()": {
        "return": "The address of XVS"
      },
      "setMintedVAIOf(address,uint256)": {
        "params": {
          "amount": "The amount of VAI to set to the account",
          "owner": "The address of the account to set"
        },
        "return": "The number of minted VAI by `owner`"
      }
    },
    "title": "SetterFacet"
  },
  "userdoc": {
    "methods": {
      "_setAccessControl(address)": {
        "notice": "Sets the address of the access control of this contract"
      },
      "_setActionsPaused(address[],uint8[],bool)": {
        "notice": "Pause/unpause certain actions"
      },
      "_setCloseFactor(uint256)": {
        "notice": "Sets the closeFactor used when liquidating borrows"
      },
      "_setCollateralFactor(address,uint256)": {
        "notice": "Sets the collateralFactor for a market"
      },
      "_setForcedLiquidation(address,bool)": {
        "notice": "Enables forced liquidations for a market. If forced liquidation is enabled, borrows in the market may be liquidated regardless of the account liquidity"
      },
      "_setLiquidationIncentive(uint256)": {
        "notice": "Sets liquidationIncentive"
      },
      "_setLiquidatorContract(address)": {
        "notice": "Update the address of the liquidator contract"
      },
      "_setMarketBorrowCaps(address[],uint256[])": {
        "notice": "Set the given borrow caps for the given vToken market Borrowing that brings total borrows to or above borrow cap will revert"
      },
      "_setMarketSupplyCaps(address[],uint256[])": {
        "notice": "Set the given supply caps for the given vToken market Supply that brings total Supply to or above supply cap will revert"
      },
      "_setPauseGuardian(address)": {
        "notice": "Admin function to change the Pause Guardian"
      },
      "_setPriceOracle(address)": {
        "notice": "Sets a new price oracle for the comptroller"
      },
      "_setPrimeToken(address)": {
        "notice": "Sets the prime token contract for the comptroller"
      },
      "_setProtocolPaused(bool)": {
        "notice": "Set whole protocol pause/unpause state"
      },
      "_setTreasuryData(address,address,uint256)": {
        "notice": "Set the treasury data."
      },
      "_setVAIController(address)": {
        "notice": "Sets a new VAI controller"
      },
      "_setVAIMintRate(uint256)": {
        "notice": "Set the VAI mint rate"
      },
      "_setVAIVaultInfo(address,uint256,uint256)": {
        "notice": "Set the VAI Vault infos"
      },
      "_setVenusVAIVaultRate(uint256)": {
        "notice": "Set the amount of XVS distributed per block to VAI Vault"
      },
      "actionPaused(address,uint8)": {
        "notice": "Checks if a certain action is paused on a market"
      },
      "getXVSAddress()": {
        "notice": "Return the address of the XVS token"
      },
      "setMintedVAIOf(address,uint256)": {
        "notice": "Set the minted VAI amount of the `owner`"
      }
    },
    "notice": "This facet contract contains all the configurational setter functions"
  },
  "storageLayout": {
    "storage": [
      {
        "astId": 2380,
        "contract": "contracts/Comptroller/Diamond/facets/SetterFacet.sol:SetterFacet",
        "label": "admin",
        "offset": 0,
        "slot": "0",
        "type": "t_address"
      },
      {
        "astId": 2382,
        "contract": "contracts/Comptroller/Diamond/facets/SetterFacet.sol:SetterFacet",
        "label": "pendingAdmin",
        "offset": 0,
        "slot": "1",
        "type": "t_address"
      },
      {
        "astId": 2384,
        "contract": "contracts/Comptroller/Diamond/facets/SetterFacet.sol:SetterFacet",
        "label": "comptrollerImplementation",
        "offset": 0,
        "slot": "2",
        "type": "t_address"
      },
      {
        "astId": 2386,
        "contract": "contracts/Comptroller/Diamond/facets/SetterFacet.sol:SetterFacet",
        "label": "pendingComptrollerImplementation",
        "offset": 0,
        "slot": "3",
        "type": "t_address"
      },
      {
        "astId": 2391,
        "contract": "contracts/Comptroller/Diamond/facets/SetterFacet.sol:SetterFacet",
        "label": "oracle",
        "offset": 0,
        "slot": "4",
        "type": "t_contract(PriceOracle)11731"
      },
      {
        "astId": 2393,
        "contract": "contracts/Comptroller/Diamond/facets/SetterFacet.sol:SetterFacet",
        "label": "closeFactorMantissa",
        "offset": 0,
        "slot": "5",
        "type": "t_uint256"
      },
      {
        "astId": 2395,
        "contract": "contracts/Comptroller/Diamond/facets/SetterFacet.sol:SetterFacet",
        "label": "liquidationIncentiveMantissa",
        "offset": 0,
        "slot": "6",
        "type": "t_uint256"
      },
      {
        "astId": 2397,
        "contract": "contracts/Comptroller/Diamond/facets/SetterFacet.sol:SetterFacet",
        "label": "maxAssets",
        "offset": 0,
        "slot": "7",
        "type": "t_uint256"
      },
      {
        "astId": 2402,
        "contract": "contracts/Comptroller/Diamond/facets/SetterFacet.sol:SetterFacet",
        "label": "accountAssets",
        "offset": 0,
        "slot": "8",
        "type": "t_mapping(t_address,t_array(t_contract(VToken)22432)dyn_storage)"
      },
      {
        "astId": 2417,
        "contract": "contracts/Comptroller/Diamond/facets/SetterFacet.sol:SetterFacet",
        "label": "markets",
        "offset": 0,
        "slot": "9",
        "type": "t_mapping(t_address,t_struct(Market)2413_storage)"
      },
      {
        "astId": 2419,
        "contract": "contracts/Comptroller/Diamond/facets/SetterFacet.sol:SetterFacet",
        "label": "pauseGuardian",
        "offset": 0,
        "slot": "10",
        "type": "t_address"
      },
      {
        "astId": 2421,
        "contract": "contracts/Comptroller/Diamond/facets/SetterFacet.sol:SetterFacet",
        "label": "_mintGuardianPaused",
        "offset": 20,
        "slot": "10",
        "type": "t_bool"
      },
      {
        "astId": 2423,
        "contract": "contracts/Comptroller/Diamond/facets/SetterFacet.sol:SetterFacet",
        "label": "_borrowGuardianPaused",
        "offset": 21,
        "slot": "10",
        "type": "t_bool"
      },
      {
        "astId": 2425,
        "contract": "contracts/Comptroller/Diamond/facets/SetterFacet.sol:SetterFacet",
        "label": "transferGuardianPaused",
        "offset": 22,
        "slot": "10",
        "type": "t_bool"
      },
      {
        "astId": 2427,
        "contract": "contracts/Comptroller/Diamond/facets/SetterFacet.sol:SetterFacet",
        "label": "seizeGuardianPaused",
        "offset": 23,
        "slot": "10",
        "type": "t_bool"
      },
      {
        "astId": 2431,
        "contract": "contracts/Comptroller/Diamond/facets/SetterFacet.sol:SetterFacet",
        "label": "mintGuardianPaused",
        "offset": 0,
        "slot": "11",
        "type": "t_mapping(t_address,t_bool)"
      },
      {
        "astId": 2435,
        "contract": "contracts/Comptroller/Diamond/facets/SetterFacet.sol:SetterFacet",
        "label": "borrowGuardianPaused",
        "offset": 0,
        "slot": "12",
        "type": "t_mapping(t_address,t_bool)"
      },
      {
        "astId": 2443,
        "contract": "contracts/Comptroller/Diamond/facets/SetterFacet.sol:SetterFacet",
        "label": "allMarkets",
        "offset": 0,
        "slot": "13",
        "type": "t_array(t_contract(VToken)22432)dyn_storage"
      },
      {
        "astId": 2445,
        "contract": "contracts/Comptroller/Diamond/facets/SetterFacet.sol:SetterFacet",
        "label": "venusRate",
        "offset": 0,
        "slot": "14",
        "type": "t_uint256"
      },
      {
        "astId": 2449,
        "contract": "contracts/Comptroller/Diamond/facets/SetterFacet.sol:SetterFacet",
        "label": "venusSpeeds",
        "offset": 0,
        "slot": "15",
        "type": "t_mapping(t_address,t_uint256)"
      },
      {
        "astId": 2453,
        "contract": "contracts/Comptroller/Diamond/facets/SetterFacet.sol:SetterFacet",
        "label": "venusSupplyState",
        "offset": 0,
        "slot": "16",
        "type": "t_mapping(t_address,t_struct(VenusMarketState)2440_storage)"
      },
      {
        "astId": 2457,
        "contract": "contracts/Comptroller/Diamond/facets/SetterFacet.sol:SetterFacet",
        "label": "venusBorrowState",
        "offset": 0,
        "slot": "17",
        "type": "t_mapping(t_address,t_struct(VenusMarketState)2440_storage)"
      },
      {
        "astId": 2463,
        "contract": "contracts/Comptroller/Diamond/facets/SetterFacet.sol:SetterFacet",
        "label": "venusSupplierIndex",
        "offset": 0,
        "slot": "18",
        "type": "t_mapping(t_address,t_mapping(t_address,t_uint256))"
      },
      {
        "astId": 2469,
        "contract": "contracts/Comptroller/Diamond/facets/SetterFacet.sol:SetterFacet",
        "label": "venusBorrowerIndex",
        "offset": 0,
        "slot": "19",
        "type": "t_mapping(t_address,t_mapping(t_address,t_uint256))"
      },
      {
        "astId": 2473,
        "contract": "contracts/Comptroller/Diamond/facets/SetterFacet.sol:SetterFacet",
        "label": "venusAccrued",
        "offset": 0,
        "slot": "20",
        "type": "t_mapping(t_address,t_uint256)"
      },
      {
        "astId": 2475,
        "contract": "contracts/Comptroller/Diamond/facets/SetterFacet.sol:SetterFacet",
        "label": "vaiController",
        "offset": 0,
        "slot": "21",
        "type": "t_contract(VAIControllerInterface)15072"
      },
      {
        "astId": 2479,
        "contract": "contracts/Comptroller/Diamond/facets/SetterFacet.sol:SetterFacet",
        "label": "mintedVAIs",
        "offset": 0,
        "slot": "22",
        "type": "t_mapping(t_address,t_uint256)"
      },
      {
        "astId": 2481,
        "contract": "contracts/Comptroller/Diamond/facets/SetterFacet.sol:SetterFacet",
        "label": "vaiMintRate",
        "offset": 0,
        "slot": "23",
        "type": "t_uint256"
      },
      {
        "astId": 2483,
        "contract": "contracts/Comptroller/Diamond/facets/SetterFacet.sol:SetterFacet",
        "label": "mintVAIGuardianPaused",
        "offset": 0,
        "slot": "24",
        "type": "t_bool"
      },
      {
        "astId": 2485,
        "contract": "contracts/Comptroller/Diamond/facets/SetterFacet.sol:SetterFacet",
        "label": "repayVAIGuardianPaused",
        "offset": 1,
        "slot": "24",
        "type": "t_bool"
      },
      {
        "astId": 2487,
        "contract": "contracts/Comptroller/Diamond/facets/SetterFacet.sol:SetterFacet",
        "label": "protocolPaused",
        "offset": 2,
        "slot": "24",
        "type": "t_bool"
      },
      {
        "astId": 2489,
        "contract": "contracts/Comptroller/Diamond/facets/SetterFacet.sol:SetterFacet",
        "label": "venusVAIRate",
        "offset": 0,
        "slot": "25",
        "type": "t_uint256"
      },
      {
        "astId": 2494,
        "contract": "contracts/Comptroller/Diamond/facets/SetterFacet.sol:SetterFacet",
        "label": "venusVAIVaultRate",
        "offset": 0,
        "slot": "26",
        "type": "t_uint256"
      },
      {
        "astId": 2496,
        "contract": "contracts/Comptroller/Diamond/facets/SetterFacet.sol:SetterFacet",
        "label": "vaiVaultAddress",
        "offset": 0,
        "slot": "27",
        "type": "t_address"
      },
      {
        "astId": 2498,
        "contract": "contracts/Comptroller/Diamond/facets/SetterFacet.sol:SetterFacet",
        "label": "releaseStartBlock",
        "offset": 0,
        "slot": "28",
        "type": "t_uint256"
      },
      {
        "astId": 2500,
        "contract": "contracts/Comptroller/Diamond/facets/SetterFacet.sol:SetterFacet",
        "label": "minReleaseAmount",
        "offset": 0,
        "slot": "29",
        "type": "t_uint256"
      },
      {
        "astId": 2505,
        "contract": "contracts/Comptroller/Diamond/facets/SetterFacet.sol:SetterFacet",
        "label": "borrowCapGuardian",
        "offset": 0,
        "slot": "30",
        "type": "t_address"
      },
      {
        "astId": 2509,
        "contract": "contracts/Comptroller/Diamond/facets/SetterFacet.sol:SetterFacet",
        "label": "borrowCaps",
        "offset": 0,
        "slot": "31",
        "type": "t_mapping(t_address,t_uint256)"
      },
      {
        "astId": 2514,
        "contract": "contracts/Comptroller/Diamond/facets/SetterFacet.sol:SetterFacet",
        "label": "treasuryGuardian",
        "offset": 0,
        "slot": "32",
        "type": "t_address"
      },
      {
        "astId": 2516,
        "contract": "contracts/Comptroller/Diamond/facets/SetterFacet.sol:SetterFacet",
        "label": "treasuryAddress",
        "offset": 0,
        "slot": "33",
        "type": "t_address"
      },
      {
        "astId": 2518,
        "contract": "contracts/Comptroller/Diamond/facets/SetterFacet.sol:SetterFacet",
        "label": "treasuryPercent",
        "offset": 0,
        "slot": "34",
        "type": "t_uint256"
      },
      {
        "astId": 2525,
        "contract": "contracts/Comptroller/Diamond/facets/SetterFacet.sol:SetterFacet",
        "label": "venusContributorSpeeds",
        "offset": 0,
        "slot": "35",
        "type": "t_mapping(t_address,t_uint256)"
      },
      {
        "astId": 2529,
        "contract": "contracts/Comptroller/Diamond/facets/SetterFacet.sol:SetterFacet",
        "label": "lastContributorBlock",
        "offset": 0,
        "slot": "36",
        "type": "t_mapping(t_address,t_uint256)"
      },
      {
        "astId": 2534,
        "contract": "contracts/Comptroller/Diamond/facets/SetterFacet.sol:SetterFacet",
        "label": "liquidatorContract",
        "offset": 0,
        "slot": "37",
        "type": "t_address"
      },
      {
        "astId": 2539,
        "contract": "contracts/Comptroller/Diamond/facets/SetterFacet.sol:SetterFacet",
        "label": "comptrollerLens",
        "offset": 0,
        "slot": "38",
        "type": "t_contract(ComptrollerLensInterface)2366"
      },
      {
        "astId": 2546,
        "contract": "contracts/Comptroller/Diamond/facets/SetterFacet.sol:SetterFacet",
        "label": "supplyCaps",
        "offset": 0,
        "slot": "39",
        "type": "t_mapping(t_address,t_uint256)"
      },
      {
        "astId": 2551,
        "contract": "contracts/Comptroller/Diamond/facets/SetterFacet.sol:SetterFacet",
        "label": "accessControl",
        "offset": 0,
        "slot": "40",
        "type": "t_address"
      },
      {
        "astId": 2567,
        "contract": "contracts/Comptroller/Diamond/facets/SetterFacet.sol:SetterFacet",
        "label": "_actionPaused",
        "offset": 0,
        "slot": "41",
        "type": "t_mapping(t_address,t_mapping(t_uint256,t_bool))"
      },
      {
        "astId": 2574,
        "contract": "contracts/Comptroller/Diamond/facets/SetterFacet.sol:SetterFacet",
        "label": "venusBorrowSpeeds",
        "offset": 0,
        "slot": "42",
        "type": "t_mapping(t_address,t_uint256)"
      },
      {
        "astId": 2578,
        "contract": "contracts/Comptroller/Diamond/facets/SetterFacet.sol:SetterFacet",
        "label": "venusSupplySpeeds",
        "offset": 0,
        "slot": "43",
        "type": "t_mapping(t_address,t_uint256)"
      },
      {
        "astId": 2587,
        "contract": "contracts/Comptroller/Diamond/facets/SetterFacet.sol:SetterFacet",
        "label": "approvedDelegates",
        "offset": 0,
        "slot": "44",
        "type": "t_mapping(t_address,t_mapping(t_address,t_bool))"
      },
      {
        "astId": 2594,
        "contract": "contracts/Comptroller/Diamond/facets/SetterFacet.sol:SetterFacet",
        "label": "isForcedLiquidationEnabled",
        "offset": 0,
        "slot": "45",
        "type": "t_mapping(t_address,t_bool)"
      },
      {
        "astId": 2612,
        "contract": "contracts/Comptroller/Diamond/facets/SetterFacet.sol:SetterFacet",
        "label": "_selectorToFacetAndPosition",
        "offset": 0,
        "slot": "46",
        "type": "t_mapping(t_bytes4,t_struct(FacetAddressAndPosition)2602_storage)"
      },
      {
        "astId": 2616,
        "contract": "contracts/Comptroller/Diamond/facets/SetterFacet.sol:SetterFacet",
        "label": "_facetFunctionSelectors",
        "offset": 0,
        "slot": "47",
        "type": "t_mapping(t_address,t_struct(FacetFunctionSelectors)2608_storage)"
      },
      {
        "astId": 2619,
        "contract": "contracts/Comptroller/Diamond/facets/SetterFacet.sol:SetterFacet",
        "label": "_facetAddresses",
        "offset": 0,
        "slot": "48",
        "type": "t_array(t_address)dyn_storage"
      },
      {
        "astId": 2624,
        "contract": "contracts/Comptroller/Diamond/facets/SetterFacet.sol:SetterFacet",
        "label": "prime",
        "offset": 0,
        "slot": "49",
        "type": "t_contract(IPrime)11900"
      }
    ],
    "types": {
      "t_address": {
        "encoding": "inplace",
        "label": "address",
        "numberOfBytes": "20"
      },
      "t_array(t_address)dyn_storage": {
        "base": "t_address",
        "encoding": "dynamic_array",
        "label": "address[]",
        "numberOfBytes": "32"
      },
      "t_array(t_bytes4)dyn_storage": {
        "base": "t_bytes4",
        "encoding": "dynamic_array",
        "label": "bytes4[]",
        "numberOfBytes": "32"
      },
      "t_array(t_contract(VToken)22432)dyn_storage": {
        "base": "t_contract(VToken)22432",
        "encoding": "dynamic_array",
        "label": "contract VToken[]",
        "numberOfBytes": "32"
      },
      "t_bool": {
        "encoding": "inplace",
        "label": "bool",
        "numberOfBytes": "1"
      },
      "t_bytes4": {
        "encoding": "inplace",
        "label": "bytes4",
        "numberOfBytes": "4"
      },
      "t_contract(ComptrollerLensInterface)2366": {
        "encoding": "inplace",
        "label": "contract ComptrollerLensInterface",
        "numberOfBytes": "20"
      },
      "t_contract(IPrime)11900": {
        "encoding": "inplace",
        "label": "contract IPrime",
        "numberOfBytes": "20"
      },
      "t_contract(PriceOracle)11731": {
        "encoding": "inplace",
        "label": "contract PriceOracle",
        "numberOfBytes": "20"
      },
      "t_contract(VAIControllerInterface)15072": {
        "encoding": "inplace",
        "label": "contract VAIControllerInterface",
        "numberOfBytes": "20"
      },
      "t_contract(VToken)22432": {
        "encoding": "inplace",
        "label": "contract VToken",
        "numberOfBytes": "20"
      },
      "t_mapping(t_address,t_array(t_contract(VToken)22432)dyn_storage)": {
        "encoding": "mapping",
        "key": "t_address",
        "label": "mapping(address => contract VToken[])",
        "numberOfBytes": "32",
        "value": "t_array(t_contract(VToken)22432)dyn_storage"
      },
      "t_mapping(t_address,t_bool)": {
        "encoding": "mapping",
        "key": "t_address",
        "label": "mapping(address => bool)",
        "numberOfBytes": "32",
        "value": "t_bool"
      },
      "t_mapping(t_address,t_mapping(t_address,t_bool))": {
        "encoding": "mapping",
        "key": "t_address",
        "label": "mapping(address => mapping(address => bool))",
        "numberOfBytes": "32",
        "value": "t_mapping(t_address,t_bool)"
      },
      "t_mapping(t_address,t_mapping(t_address,t_uint256))": {
        "encoding": "mapping",
        "key": "t_address",
        "label": "mapping(address => mapping(address => uint256))",
        "numberOfBytes": "32",
        "value": "t_mapping(t_address,t_uint256)"
      },
      "t_mapping(t_address,t_mapping(t_uint256,t_bool))": {
        "encoding": "mapping",
        "key": "t_address",
        "label": "mapping(address => mapping(uint256 => bool))",
        "numberOfBytes": "32",
        "value": "t_mapping(t_uint256,t_bool)"
      },
      "t_mapping(t_address,t_struct(FacetFunctionSelectors)2608_storage)": {
        "encoding": "mapping",
        "key": "t_address",
        "label": "mapping(address => struct ComptrollerV13Storage.FacetFunctionSelectors)",
        "numberOfBytes": "32",
        "value": "t_struct(FacetFunctionSelectors)2608_storage"
      },
      "t_mapping(t_address,t_struct(Market)2413_storage)": {
        "encoding": "mapping",
        "key": "t_address",
        "label": "mapping(address => struct ComptrollerV1Storage.Market)",
        "numberOfBytes": "32",
        "value": "t_struct(Market)2413_storage"
      },
      "t_mapping(t_address,t_struct(VenusMarketState)2440_storage)": {
        "encoding": "mapping",
        "key": "t_address",
        "label": "mapping(address => struct ComptrollerV1Storage.VenusMarketState)",
        "numberOfBytes": "32",
        "value": "t_struct(VenusMarketState)2440_storage"
      },
      "t_mapping(t_address,t_uint256)": {
        "encoding": "mapping",
        "key": "t_address",
        "label": "mapping(address => uint256)",
        "numberOfBytes": "32",
        "value": "t_uint256"
      },
      "t_mapping(t_bytes4,t_struct(FacetAddressAndPosition)2602_storage)": {
        "encoding": "mapping",
        "key": "t_bytes4",
        "label": "mapping(bytes4 => struct ComptrollerV13Storage.FacetAddressAndPosition)",
        "numberOfBytes": "32",
        "value": "t_struct(FacetAddressAndPosition)2602_storage"
      },
      "t_mapping(t_uint256,t_bool)": {
        "encoding": "mapping",
        "key": "t_uint256",
        "label": "mapping(uint256 => bool)",
        "numberOfBytes": "32",
        "value": "t_bool"
      },
      "t_struct(FacetAddressAndPosition)2602_storage": {
        "encoding": "inplace",
        "label": "struct ComptrollerV13Storage.FacetAddressAndPosition",
        "members": [
          {
            "astId": 2599,
            "contract": "contracts/Comptroller/Diamond/facets/SetterFacet.sol:SetterFacet",
            "label": "facetAddress",
            "offset": 0,
            "slot": "0",
            "type": "t_address"
          },
          {
            "astId": 2601,
            "contract": "contracts/Comptroller/Diamond/facets/SetterFacet.sol:SetterFacet",
            "label": "functionSelectorPosition",
            "offset": 20,
            "slot": "0",
            "type": "t_uint96"
          }
        ],
        "numberOfBytes": "32"
      },
      "t_struct(FacetFunctionSelectors)2608_storage": {
        "encoding": "inplace",
        "label": "struct ComptrollerV13Storage.FacetFunctionSelectors",
        "members": [
          {
            "astId": 2605,
            "contract": "contracts/Comptroller/Diamond/facets/SetterFacet.sol:SetterFacet",
            "label": "functionSelectors",
            "offset": 0,
            "slot": "0",
            "type": "t_array(t_bytes4)dyn_storage"
          },
          {
            "astId": 2607,
            "contract": "contracts/Comptroller/Diamond/facets/SetterFacet.sol:SetterFacet",
            "label": "facetAddressPosition",
            "offset": 0,
            "slot": "1",
            "type": "t_uint256"
          }
        ],
        "numberOfBytes": "64"
      },
      "t_struct(Market)2413_storage": {
        "encoding": "inplace",
        "label": "struct ComptrollerV1Storage.Market",
        "members": [
          {
            "astId": 2404,
            "contract": "contracts/Comptroller/Diamond/facets/SetterFacet.sol:SetterFacet",
            "label": "isListed",
            "offset": 0,
            "slot": "0",
            "type": "t_bool"
          },
          {
            "astId": 2406,
            "contract": "contracts/Comptroller/Diamond/facets/SetterFacet.sol:SetterFacet",
            "label": "collateralFactorMantissa",
            "offset": 0,
            "slot": "1",
            "type": "t_uint256"
          },
          {
            "astId": 2410,
            "contract": "contracts/Comptroller/Diamond/facets/SetterFacet.sol:SetterFacet",
            "label": "accountMembership",
            "offset": 0,
            "slot": "2",
            "type": "t_mapping(t_address,t_bool)"
          },
          {
            "astId": 2412,
            "contract": "contracts/Comptroller/Diamond/facets/SetterFacet.sol:SetterFacet",
            "label": "isVenus",
            "offset": 0,
            "slot": "3",
            "type": "t_bool"
          }
        ],
        "numberOfBytes": "128"
      },
      "t_struct(VenusMarketState)2440_storage": {
        "encoding": "inplace",
        "label": "struct ComptrollerV1Storage.VenusMarketState",
        "members": [
          {
            "astId": 2437,
            "contract": "contracts/Comptroller/Diamond/facets/SetterFacet.sol:SetterFacet",
            "label": "index",
            "offset": 0,
            "slot": "0",
            "type": "t_uint224"
          },
          {
            "astId": 2439,
            "contract": "contracts/Comptroller/Diamond/facets/SetterFacet.sol:SetterFacet",
            "label": "block",
            "offset": 28,
            "slot": "0",
            "type": "t_uint32"
          }
        ],
        "numberOfBytes": "32"
      },
      "t_uint224": {
        "encoding": "inplace",
        "label": "uint224",
        "numberOfBytes": "28"
      },
      "t_uint256": {
        "encoding": "inplace",
        "label": "uint256",
        "numberOfBytes": "32"
      },
      "t_uint32": {
        "encoding": "inplace",
        "label": "uint32",
        "numberOfBytes": "4"
      },
      "t_uint96": {
        "encoding": "inplace",
        "label": "uint96",
        "numberOfBytes": "12"
      }
    }
  }
}