{
  "address": "0x76200303002Ac9929A1bBb16660A868c8AA7C185",
  "abi": [
    {
      "inputs": [
        {
          "internalType": "address payable",
          "name": "account",
          "type": "address"
        },
        {
          "internalType": "address",
          "name": "comptrollerAddress",
          "type": "address"
        }
      ],
      "name": "getAccountSnapshot",
      "outputs": [
        {
          "components": [
            {
              "internalType": "address",
              "name": "account",
              "type": "address"
            },
            {
              "internalType": "string",
              "name": "assetName",
              "type": "string"
            },
            {
              "internalType": "address",
              "name": "vTokenAddress",
              "type": "address"
            },
            {
              "internalType": "address",
              "name": "underlyingAssetAddress",
              "type": "address"
            },
            {
              "internalType": "uint256",
              "name": "supply",
              "type": "uint256"
            },
            {
              "internalType": "uint256",
              "name": "supplyInUsd",
              "type": "uint256"
            },
            {
              "internalType": "uint256",
              "name": "collateral",
              "type": "uint256"
            },
            {
              "internalType": "uint256",
              "name": "borrows",
              "type": "uint256"
            },
            {
              "internalType": "uint256",
              "name": "borrowsInUsd",
              "type": "uint256"
            },
            {
              "internalType": "uint256",
              "name": "assetPrice",
              "type": "uint256"
            },
            {
              "internalType": "uint256",
              "name": "accruedInterest",
              "type": "uint256"
            },
            {
              "internalType": "uint256",
              "name": "vTokenDecimals",
              "type": "uint256"
            },
            {
              "internalType": "uint256",
              "name": "underlyingDecimals",
              "type": "uint256"
            },
            {
              "internalType": "uint256",
              "name": "exchangeRate",
              "type": "uint256"
            },
            {
              "internalType": "bool",
              "name": "isACollateral",
              "type": "bool"
            }
          ],
          "internalType": "struct SnapshotLens.AccountSnapshot[]",
          "name": "",
          "type": "tuple[]"
        }
      ],
      "stateMutability": "nonpayable",
      "type": "function"
    },
    {
      "inputs": [
        {
          "internalType": "address payable",
          "name": "account",
          "type": "address"
        },
        {
          "internalType": "address",
          "name": "comptrollerAddress",
          "type": "address"
        },
        {
          "internalType": "contract VToken",
          "name": "vToken",
          "type": "address"
        }
      ],
      "name": "getAccountSnapshot",
      "outputs": [
        {
          "components": [
            {
              "internalType": "address",
              "name": "account",
              "type": "address"
            },
            {
              "internalType": "string",
              "name": "assetName",
              "type": "string"
            },
            {
              "internalType": "address",
              "name": "vTokenAddress",
              "type": "address"
            },
            {
              "internalType": "address",
              "name": "underlyingAssetAddress",
              "type": "address"
            },
            {
              "internalType": "uint256",
              "name": "supply",
              "type": "uint256"
            },
            {
              "internalType": "uint256",
              "name": "supplyInUsd",
              "type": "uint256"
            },
            {
              "internalType": "uint256",
              "name": "collateral",
              "type": "uint256"
            },
            {
              "internalType": "uint256",
              "name": "borrows",
              "type": "uint256"
            },
            {
              "internalType": "uint256",
              "name": "borrowsInUsd",
              "type": "uint256"
            },
            {
              "internalType": "uint256",
              "name": "assetPrice",
              "type": "uint256"
            },
            {
              "internalType": "uint256",
              "name": "accruedInterest",
              "type": "uint256"
            },
            {
              "internalType": "uint256",
              "name": "vTokenDecimals",
              "type": "uint256"
            },
            {
              "internalType": "uint256",
              "name": "underlyingDecimals",
              "type": "uint256"
            },
            {
              "internalType": "uint256",
              "name": "exchangeRate",
              "type": "uint256"
            },
            {
              "internalType": "bool",
              "name": "isACollateral",
              "type": "bool"
            }
          ],
          "internalType": "struct SnapshotLens.AccountSnapshot",
          "name": "",
          "type": "tuple"
        }
      ],
      "stateMutability": "nonpayable",
      "type": "function"
    },
    {
      "inputs": [
        {
          "internalType": "address",
          "name": "account",
          "type": "address"
        },
        {
          "internalType": "address",
          "name": "asset",
          "type": "address"
        },
        {
          "internalType": "address",
          "name": "comptrollerAddress",
          "type": "address"
        }
      ],
      "name": "isACollateral",
      "outputs": [
        {
          "internalType": "bool",
          "name": "",
          "type": "bool"
        }
      ],
      "stateMutability": "view",
      "type": "function"
    }
  ],
  "transactionHash": "0xbc66c040eb15fae4cb9ae7f875c8e3a625887bc578c71f902a3062ed33c43edf",
  "args": [],
  "numDeployments": 1,
  "solcInputHash": "ba77843cff9e1425bead54101e438cee",
  "bytecode": "0x6080604052348015600e575f80fd5b5061119a8061001c5f395ff3fe608060405234801561000f575f80fd5b506004361061003f575f3560e01c806332221cf614610043578063e6bf1d3a1461006c578063ebdf591a1461008f575b5f80fd5b610056610051366004610caf565b6100af565b6040516100639190610df4565b60405180910390f35b61007f61007a366004610e56565b6101cc565b6040519015158152602001610063565b6100a261009d366004610e56565b610299565b6040516100639190610e9e565b60605f826001600160a01b031663b0772d0b6040518163ffffffff1660e01b81526004015f60405180830381865afa1580156100ed573d5f803e3d5ffd5b505050506040513d5f823e601f3d908101601f191682016040526101149190810190610ef5565b90505f815167ffffffffffffffff81111561013157610131610eb0565b60405190808252806020026020018201604052801561016a57816020015b610157610b68565b81526020019060019003908161014f5790505b5090505f5b82518110156101c15761019c868685848151811061018f5761018f610fa2565b6020026020010151610299565b8282815181106101ae576101ae610fa2565b602090810291909101015260010161016f565b509150505b92915050565b604051632aff3bff60e21b81526001600160a01b0384811660048301525f91829184169063abfceffc906024015f60405180830381865afa158015610213573d5f803e3d5ffd5b505050506040513d5f823e601f3d908101601f1916820160405261023a9190810190610ef5565b90505f5b815181101561028c57846001600160a01b031682828151811061026357610263610fa2565b60200260200101516001600160a01b03160361028457600192505050610292565b60010161023e565b505f9150505b9392505050565b6102a1610b68565b6102a9610bed565b6040516361bfb47160e11b81526001600160a01b0386811660048301525f919085169063c37f68e290602401608060405180830381865afa1580156102f0573d5f803e3d5ffd5b505050506040513d601f19601f820116820180604052508101906103149190610fb6565b60c086015260408501526020840152905080156103695760405162461bcd60e51b815260206004820152600e60248201526d29b730b839b437ba1022b93937b960911b60448201526064015b60405180910390fd5b6040805160208101825260c0840151815261012084015251638e8f294b60e01b81526001600160a01b0385811660048301525f9190871690638e8f294b906024016040805180830381865afa1580156103c4573d5f803e3d5ffd5b505050506040513d601f19601f820116820180604052508101906103e89190610fe9565b915050604051806020016040528082815250836101000181905250856001600160a01b0316637dc0d1d06040518163ffffffff1660e01b8152600401602060405180830381865afa15801561043f573d5f803e3d5ffd5b505050506040513d601f19601f820116820180604052508101906104639190611019565b60405163fc57d4df60e01b81526001600160a01b038781166004830152919091169063fc57d4df90602401602060405180830381865afa1580156104a9573d5f803e3d5ffd5b505050506040513d601f19601f820116820180604052508101906104cd9190611034565b60e0840190815260408051602081019091529051815261014084015261010083015161012084015161050d91610502916109d5565b8461014001516109d5565b610160840181905260208401516105249190610a1a565b8352604051633af9e66960e01b81526001600160a01b038881166004830152861690633af9e669906024016020604051808303815f875af115801561056b573d5f803e3d5ffd5b505050506040513d601f19601f8201168201806040525081019061058f9190611034565b608084018190526101408401516105a591610a1a565b60a084015261014083015160408401516105bf9190610a1a565b8360600181815250505f80610651876001600160a01b03166395d89b416040518163ffffffff1660e01b81526004015f60405180830381865afa158015610608573d5f803e3d5ffd5b505050506040513d5f823e601f3d908101601f1916820160405261062f919081019061104b565b604051806040016040528060048152602001633b21272160e11b815250610a39565b1561066157505f9050601261078d565b5f879050806001600160a01b0316636f307dc36040518163ffffffff1660e01b8152600401602060405180830381865afa1580156106a1573d5f803e3d5ffd5b505050506040513d601f19601f820116820180604052508101906106c59190611019565b9250806001600160a01b0316636f307dc36040518163ffffffff1660e01b8152600401602060405180830381865afa158015610703573d5f803e3d5ffd5b505050506040513d601f19601f820116820180604052508101906107279190611019565b6001600160a01b031663313ce5676040518163ffffffff1660e01b8152600401602060405180830381865afa158015610762573d5f803e3d5ffd5b505050506040513d601f19601f8201168201806040525081019061078691906110da565b60ff169150505b61079889888a6101cc565b85610180019015159081151581525050604051806101e001604052808a6001600160a01b03168152602001886001600160a01b03166306fdde036040518163ffffffff1660e01b81526004015f60405180830381865afa1580156107fe573d5f803e3d5ffd5b505050506040513d5f823e601f3d908101601f19168201604052610825919081019061104b565b8152602001886001600160a01b03168152602001836001600160a01b03168152602001866080015181526020018660a001518152602001865f0151815260200186604001518152602001866060015181526020018660e001518152602001886001600160a01b031663aa5af0fd6040518163ffffffff1660e01b8152600401602060405180830381865afa1580156108bf573d5f803e3d5ffd5b505050506040513d601f19601f820116820180604052508101906108e39190611034565b8152602001886001600160a01b031663313ce5676040518163ffffffff1660e01b8152600401602060405180830381865afa158015610924573d5f803e3d5ffd5b505050506040513d601f19601f8201168201806040525081019061094891906110da565b60ff168152602001828152602001886001600160a01b031663bd6d894d6040518163ffffffff1660e01b81526004016020604051808303815f875af1158015610993573d5f803e3d5ffd5b505050506040513d601f19601f820116820180604052508101906109b79190611034565b81526020018661018001511515815250955050505050509392505050565b60408051602081019091525f81526040518060200160405280670de0b6b3a7640000610a07865f0151865f0151610a91565b610a1191906110fa565b90529392505050565b5f80610a268484610ad2565b9050610a3181610af8565b949350505050565b5f81604051602001610a4b9190611119565b6040516020818303038152906040528051906020012083604051602001610a729190611119565b6040516020818303038152906040528051906020012014905092915050565b5f61029283836040518060400160405280601781526020017f6d756c7469706c69636174696f6e206f766572666c6f77000000000000000000815250610b0f565b60408051602081019091525f81526040518060200160405280610a11855f015185610a91565b80515f906101c690670de0b6b3a7640000906110fa565b5f831580610b1b575082155b15610b2757505f610292565b5f610b32848661112f565b905083610b3f86836110fa565b148390610b5f5760405162461bcd60e51b81526004016103609190611152565b50949350505050565b604051806101e001604052805f6001600160a01b03168152602001606081526020015f6001600160a01b031681526020015f6001600160a01b031681526020015f81526020015f81526020015f81526020015f81526020015f81526020015f81526020015f81526020015f81526020015f81526020015f81526020015f151581525090565b604051806101a001604052805f81526020015f81526020015f81526020015f81526020015f81526020015f81526020015f81526020015f8152602001610c3e60405180602001604052805f81525090565b8152602001610c5860405180602001604052805f81525090565b8152602001610c7260405180602001604052805f81525090565b8152602001610c8c60405180602001604052805f81525090565b81525f60209091015290565b6001600160a01b0381168114610cac575f80fd5b50565b5f8060408385031215610cc0575f80fd5b8235610ccb81610c98565b91506020830135610cdb81610c98565b809150509250929050565b5f81518084528060208401602086015e5f602082860101526020601f19601f83011685010191505092915050565b80516001600160a01b031682525f6101e06020830151816020860152610d3c82860182610ce6565b9150506040830151610d5960408601826001600160a01b03169052565b506060830151610d7460608601826001600160a01b03169052565b506080838101519085015260a0808401519085015260c0808401519085015260e08084015190850152610100808401519085015261012080840151908501526101408084015190850152610160808401519085015261018080840151908501526101a080840151908501526101c092830151151592909301919091525090565b5f60208083016020845280855180835260408601915060408160051b8701019250602087015f5b82811015610e4957603f19888603018452610e37858351610d14565b94509285019290850190600101610e1b565b5092979650505050505050565b5f805f60608486031215610e68575f80fd5b8335610e7381610c98565b92506020840135610e8381610c98565b91506040840135610e9381610c98565b809150509250925092565b602081525f6102926020830184610d14565b634e487b7160e01b5f52604160045260245ffd5b604051601f8201601f1916810167ffffffffffffffff81118282101715610eed57610eed610eb0565b604052919050565b5f6020808385031215610f06575f80fd5b825167ffffffffffffffff80821115610f1d575f80fd5b818501915085601f830112610f30575f80fd5b815181811115610f4257610f42610eb0565b8060051b9150610f53848301610ec4565b8181529183018401918481019088841115610f6c575f80fd5b938501935b83851015610f965784519250610f8683610c98565b8282529385019390850190610f71565b98975050505050505050565b634e487b7160e01b5f52603260045260245ffd5b5f805f8060808587031215610fc9575f80fd5b505082516020840151604085015160609095015191969095509092509050565b5f8060408385031215610ffa575f80fd5b82518015158114611009575f80fd5b6020939093015192949293505050565b5f60208284031215611029575f80fd5b815161029281610c98565b5f60208284031215611044575f80fd5b5051919050565b5f602080838503121561105c575f80fd5b825167ffffffffffffffff80821115611073575f80fd5b818501915085601f830112611086575f80fd5b81518181111561109857611098610eb0565b6110aa601f8201601f19168501610ec4565b915080825286848285010111156110bf575f80fd5b808484018584015e5f90820190930192909252509392505050565b5f602082840312156110ea575f80fd5b815160ff81168114610292575f80fd5b5f8261111457634e487b7160e01b5f52601260045260245ffd5b500490565b5f82518060208501845e5f920191825250919050565b80820281158282048414176101c657634e487b7160e01b5f52601160045260245ffd5b602081525f6102926020830184610ce656fea2646970667358221220011d32eb6d700a8f76adcd75a5dd8a692026ae8c7dc61be8bf9e7a0035f7649364736f6c63430008190033",
  "devdoc": {
    "kind": "dev",
    "methods": {},
    "version": 1
  },
  "userdoc": {
    "kind": "user",
    "methods": {},
    "version": 1
  },
  "storageLayout": {
    "storage": [],
    "types": null
  }
}