{
  "address": "0x67B10f3BC6B141D67c598C73CEe45E6635292Acd",
  "abi": [
    {
      "inputs": [
        {
          "internalType": "address",
          "name": "owner_",
          "type": "address"
        }
      ],
      "stateMutability": "nonpayable",
      "type": "constructor"
    },
    {
      "inputs": [
        {
          "internalType": "uint256",
          "name": "errCode",
          "type": "uint256"
        }
      ],
      "name": "RedeemFailed",
      "type": "error"
    },
    {
      "inputs": [
        {
          "internalType": "uint256",
          "name": "errCode",
          "type": "uint256"
        }
      ],
      "name": "RepaymentFailed",
      "type": "error"
    },
    {
      "inputs": [],
      "name": "ZeroAddressNotAllowed",
      "type": "error"
    },
    {
      "anonymous": false,
      "inputs": [
        {
          "indexed": true,
          "internalType": "address",
          "name": "previousOwner",
          "type": "address"
        },
        {
          "indexed": true,
          "internalType": "address",
          "name": "newOwner",
          "type": "address"
        }
      ],
      "name": "OwnershipTransferStarted",
      "type": "event"
    },
    {
      "anonymous": false,
      "inputs": [
        {
          "indexed": true,
          "internalType": "address",
          "name": "previousOwner",
          "type": "address"
        },
        {
          "indexed": true,
          "internalType": "address",
          "name": "newOwner",
          "type": "address"
        }
      ],
      "name": "OwnershipTransferred",
      "type": "event"
    },
    {
      "inputs": [],
      "name": "acceptOwnership",
      "outputs": [],
      "stateMutability": "nonpayable",
      "type": "function"
    },
    {
      "inputs": [],
      "name": "owner",
      "outputs": [
        {
          "internalType": "address",
          "name": "",
          "type": "address"
        }
      ],
      "stateMutability": "view",
      "type": "function"
    },
    {
      "inputs": [],
      "name": "pendingOwner",
      "outputs": [
        {
          "internalType": "address",
          "name": "",
          "type": "address"
        }
      ],
      "stateMutability": "view",
      "type": "function"
    },
    {
      "inputs": [
        {
          "internalType": "contract IVBep20",
          "name": "vToken",
          "type": "address"
        },
        {
          "internalType": "address",
          "name": "destination",
          "type": "address"
        }
      ],
      "name": "redeemAndTransfer",
      "outputs": [],
      "stateMutability": "nonpayable",
      "type": "function"
    },
    {
      "inputs": [
        {
          "internalType": "contract IVBep20",
          "name": "vToken",
          "type": "address"
        },
        {
          "internalType": "address",
          "name": "borrower",
          "type": "address"
        },
        {
          "internalType": "uint256",
          "name": "amount",
          "type": "uint256"
        },
        {
          "internalType": "address",
          "name": "receiver",
          "type": "address"
        }
      ],
      "name": "redeemUnderlyingAndRepayBorrowBehalf",
      "outputs": [],
      "stateMutability": "nonpayable",
      "type": "function"
    },
    {
      "inputs": [],
      "name": "renounceOwnership",
      "outputs": [],
      "stateMutability": "nonpayable",
      "type": "function"
    },
    {
      "inputs": [
        {
          "internalType": "contract IERC20",
          "name": "token",
          "type": "address"
        },
        {
          "internalType": "address",
          "name": "destination",
          "type": "address"
        }
      ],
      "name": "sweepTokens",
      "outputs": [],
      "stateMutability": "nonpayable",
      "type": "function"
    },
    {
      "inputs": [
        {
          "internalType": "address",
          "name": "newOwner",
          "type": "address"
        }
      ],
      "name": "transferOwnership",
      "outputs": [],
      "stateMutability": "nonpayable",
      "type": "function"
    }
  ],
  "transactionHash": "0x5a608b2df3780e91f277504d79b7509ef14b9863cf9bde37c3475952be0857ed",
  "args": [
    "0x939bD8d64c0A9583A7Dcea9933f7b21697ab6396"
  ],
  "numDeployments": 1,
  "solcInputHash": "eefae10a33ea111415f1fe2e880a8e70",
  "bytecode": "0x608060405234801561001057600080fd5b50604051610e43380380610e4383398101604081905261002f916100f5565b600160005561003d33610055565b6100468161007c565b61004f81610055565b50610125565b600280546001600160a01b0319169055610079816100a3602090811b6105a117901c565b50565b6001600160a01b038116610079576040516342bcdf7f60e11b815260040160405180910390fd5b600180546001600160a01b038381166001600160a01b0319831681179093556040519116919082907f8be0079c531659141344cd1fd0a4f28419497f9722a3daafe3b4186f6b6457e090600090a35050565b60006020828403121561010757600080fd5b81516001600160a01b038116811461011e57600080fd5b9392505050565b610d0f806101346000396000f3fe608060405234801561001057600080fd5b50600436106100885760003560e01c8063ac9a350d1161005b578063ac9a350d146100db578063b5381e89146100ee578063e30c397814610101578063f2fde38b1461011257600080fd5b80631609be1d1461008d578063715018a6146100a257806379ba5097146100aa5780638da5cb5b146100b2575b600080fd5b6100a061009b366004610b56565b610125565b005b6100a061013b565b6100a061014f565b6001546001600160a01b03165b6040516001600160a01b03909116815260200160405180910390f35b6100a06100e9366004610b56565b6101ce565b6100a06100fc366004610b8f565b610353565b6002546001600160a01b03166100bf565b6100a0610120366004610be2565b610530565b61012d6105f3565b610137828261064d565b5050565b6101436105f3565b61014d60006106cc565b565b60025433906001600160a01b031681146101c25760405162461bcd60e51b815260206004820152602960248201527f4f776e61626c6532537465703a2063616c6c6572206973206e6f7420746865206044820152683732bb9037bbb732b960b91b60648201526084015b60405180910390fd5b6101cb816106cc565b50565b6101d66106e5565b6101de6105f3565b6000826001600160a01b0316636f307dc36040518163ffffffff1660e01b8152600401602060405180830381865afa15801561021e573d6000803e3d6000fd5b505050506040513d601f19601f820116820180604052508101906102429190610c06565b6040516370a0823160e01b81523060048201529091506000906001600160a01b0385169063db006a759082906370a0823190602401602060405180830381865afa158015610294573d6000803e3d6000fd5b505050506040513d601f19601f820116820180604052508101906102b89190610c23565b6040518263ffffffff1660e01b81526004016102d691815260200190565b6020604051808303816000875af11580156102f5573d6000803e3d6000fd5b505050506040513d601f19601f820116820180604052508101906103199190610c23565b9050801561033d5760405163eeddaac560e01b8152600481018290526024016101b9565b610347828461064d565b50506101376001600055565b61035b6106e5565b6103636105f3565b6000846001600160a01b0316636f307dc36040518163ffffffff1660e01b8152600401602060405180830381865afa1580156103a3573d6000803e3d6000fd5b505050506040513d601f19601f820116820180604052508101906103c79190610c06565b60405163852a12e360e01b8152600481018590529091506000906001600160a01b0387169063852a12e3906024016020604051808303816000875af1158015610414573d6000803e3d6000fd5b505050506040513d601f19601f820116820180604052508101906104389190610c23565b9050801561045c5760405163eeddaac560e01b8152600481018290526024016101b9565b61046782878661073e565b6040516304c11f0360e31b81526001600160a01b03868116600483015260248201869052871690632608f818906044016020604051808303816000875af11580156104b6573d6000803e3d6000fd5b505050506040513d601f19601f820116820180604052508101906104da9190610c23565b905080156104fe5760405163259aff3560e01b8152600481018290526024016101b9565b61050a8287600061073e565b610514828461064d565b61051e868461064d565b505061052a6001600055565b50505050565b6105386105f3565b600280546001600160a01b0383166001600160a01b031990911681179091556105696001546001600160a01b031690565b6001600160a01b03167f38d16b8cac22d99fc7c124b9cd0de2d3fa1faef420bfe791d8c362d765e2270060405160405180910390a350565b600180546001600160a01b038381166001600160a01b0319831681179093556040519116919082907f8be0079c531659141344cd1fd0a4f28419497f9722a3daafe3b4186f6b6457e090600090a35050565b6001546001600160a01b0316331461014d5760405162461bcd60e51b815260206004820181905260248201527f4f776e61626c653a2063616c6c6572206973206e6f7420746865206f776e657260448201526064016101b9565b6040516370a0823160e01b81523060048201526101379082906001600160a01b038516906370a0823190602401602060405180830381865afa158015610697573d6000803e3d6000fd5b505050506040513d601f19601f820116820180604052508101906106bb9190610c23565b6001600160a01b0385169190610800565b600280546001600160a01b03191690556101cb816105a1565b6002600054036107375760405162461bcd60e51b815260206004820152601f60248201527f5265656e7472616e637947756172643a207265656e7472616e742063616c6c0060448201526064016101b9565b6002600055565b604080516001600160a01b038416602482015260448082018490528251808303909101815260649091019091526020810180516001600160e01b031663095ea7b360e01b17905261078f8482610835565b61052a576040516001600160a01b0384166024820152600060448201526107f690859063095ea7b360e01b906064015b60408051601f198184030181529190526020810180516001600160e01b03166001600160e01b0319909316929092179091526108dc565b61052a84826108dc565b6040516001600160a01b03831660248201526044810182905261083090849063a9059cbb60e01b906064016107bf565b505050565b6000806000846001600160a01b0316846040516108529190610c68565b6000604051808303816000865af19150503d806000811461088f576040519150601f19603f3d011682016040523d82523d6000602084013e610894565b606091505b50915091508180156108be5750805115806108be5750808060200190518101906108be9190610c84565b80156108d357506001600160a01b0385163b15155b95945050505050565b6000610931826040518060400160405280602081526020017f5361666545524332303a206c6f772d6c6576656c2063616c6c206661696c6564815250856001600160a01b03166109b19092919063ffffffff16565b90508051600014806109525750808060200190518101906109529190610c84565b6108305760405162461bcd60e51b815260206004820152602a60248201527f5361666545524332303a204552433230206f7065726174696f6e20646964206e6044820152691bdd081cdd58d8d9595960b21b60648201526084016101b9565b60606109c084846000856109c8565b949350505050565b606082471015610a295760405162461bcd60e51b815260206004820152602660248201527f416464726573733a20696e73756666696369656e742062616c616e636520666f6044820152651c8818d85b1b60d21b60648201526084016101b9565b600080866001600160a01b03168587604051610a459190610c68565b60006040518083038185875af1925050503d8060008114610a82576040519150601f19603f3d011682016040523d82523d6000602084013e610a87565b606091505b5091509150610a9887838387610aa3565b979650505050505050565b60608315610b12578251600003610b0b576001600160a01b0385163b610b0b5760405162461bcd60e51b815260206004820152601d60248201527f416464726573733a2063616c6c20746f206e6f6e2d636f6e747261637400000060448201526064016101b9565b50816109c0565b6109c08383815115610b275781518083602001fd5b8060405162461bcd60e51b81526004016101b99190610ca6565b6001600160a01b03811681146101cb57600080fd5b60008060408385031215610b6957600080fd5b8235610b7481610b41565b91506020830135610b8481610b41565b809150509250929050565b60008060008060808587031215610ba557600080fd5b8435610bb081610b41565b93506020850135610bc081610b41565b9250604085013591506060850135610bd781610b41565b939692955090935050565b600060208284031215610bf457600080fd5b8135610bff81610b41565b9392505050565b600060208284031215610c1857600080fd5b8151610bff81610b41565b600060208284031215610c3557600080fd5b5051919050565b60005b83811015610c57578181015183820152602001610c3f565b8381111561052a5750506000910152565b60008251610c7a818460208701610c3c565b9190910192915050565b600060208284031215610c9657600080fd5b81518015158114610bff57600080fd5b6020815260008251806020840152610cc5816040850160208701610c3c565b601f01601f1916919091016040019291505056fea26469706673582212207db1fd802b9471e76fab78b5251e9cf39a05afa676d0b509a4b5a182f11e814764736f6c634300080d0033",
  "devdoc": {
    "kind": "dev",
    "methods": {
      "acceptOwnership()": {
        "details": "The new owner accepts the ownership transfer."
      },
      "owner()": {
        "details": "Returns the address of the current owner."
      },
      "pendingOwner()": {
        "details": "Returns the address of the pending owner."
      },
      "renounceOwnership()": {
        "details": "Leaves the contract without owner. It will not be possible to call `onlyOwner` functions. Can only be called by the current owner. NOTE: Renouncing ownership will leave the contract without an owner, thereby disabling any functionality that is only available to the owner."
      },
      "transferOwnership(address)": {
        "details": "Starts the ownership transfer of the contract to a new account. Replaces the pending transfer if there is one. Can only be called by the current owner."
      }
    },
    "version": 1
  },
  "userdoc": {
    "errors": {
      "ZeroAddressNotAllowed()": [
        {
          "notice": "Thrown if the supplied address is a zero address where it is not allowed"
        }
      ]
    },
    "kind": "user",
    "methods": {},
    "version": 1
  },
  "storageLayout": {
    "storage": [
      {
        "astId": 284,
        "contract": "contracts/Governance/TokenRedeemer.sol:TokenRedeemer",
        "label": "_status",
        "offset": 0,
        "slot": "0",
        "type": "t_uint256"
      },
      {
        "astId": 85,
        "contract": "contracts/Governance/TokenRedeemer.sol:TokenRedeemer",
        "label": "_owner",
        "offset": 0,
        "slot": "1",
        "type": "t_address"
      },
      {
        "astId": 198,
        "contract": "contracts/Governance/TokenRedeemer.sol:TokenRedeemer",
        "label": "_pendingOwner",
        "offset": 0,
        "slot": "2",
        "type": "t_address"
      }
    ],
    "types": {
      "t_address": {
        "encoding": "inplace",
        "label": "address",
        "numberOfBytes": "20"
      },
      "t_uint256": {
        "encoding": "inplace",
        "label": "uint256",
        "numberOfBytes": "32"
      }
    }
  }
}