{
  "address": "0x13fFde8050fa0Ef5A6f3c28B500c9267ec8A2C46",
  "abi": [
    {
      "inputs": [
        {
          "internalType": "address",
          "name": "owner_",
          "type": "address"
        },
        {
          "internalType": "contract IVBNB",
          "name": "vBNB",
          "type": "address"
        }
      ],
      "stateMutability": "nonpayable",
      "type": "constructor"
    },
    {
      "inputs": [
        {
          "internalType": "uint256",
          "name": "errCode",
          "type": "uint256"
        }
      ],
      "name": "AccrueInterestFailed",
      "type": "error"
    },
    {
      "inputs": [],
      "name": "NativeTokenTransferFailed",
      "type": "error"
    },
    {
      "inputs": [],
      "name": "NativeTransferFailed",
      "type": "error"
    },
    {
      "inputs": [
        {
          "internalType": "uint256",
          "name": "errCode",
          "type": "uint256"
        }
      ],
      "name": "RedeemFailed",
      "type": "error"
    },
    {
      "inputs": [
        {
          "internalType": "uint256",
          "name": "errCode",
          "type": "uint256"
        }
      ],
      "name": "RepaymentFailed",
      "type": "error"
    },
    {
      "inputs": [],
      "name": "ZeroAddressNotAllowed",
      "type": "error"
    },
    {
      "anonymous": false,
      "inputs": [
        {
          "indexed": true,
          "internalType": "address",
          "name": "previousOwner",
          "type": "address"
        },
        {
          "indexed": true,
          "internalType": "address",
          "name": "newOwner",
          "type": "address"
        }
      ],
      "name": "OwnershipTransferStarted",
      "type": "event"
    },
    {
      "anonymous": false,
      "inputs": [
        {
          "indexed": true,
          "internalType": "address",
          "name": "previousOwner",
          "type": "address"
        },
        {
          "indexed": true,
          "internalType": "address",
          "name": "newOwner",
          "type": "address"
        }
      ],
      "name": "OwnershipTransferred",
      "type": "event"
    },
    {
      "inputs": [],
      "name": "VBNB",
      "outputs": [
        {
          "internalType": "contract IVBNB",
          "name": "",
          "type": "address"
        }
      ],
      "stateMutability": "view",
      "type": "function"
    },
    {
      "inputs": [],
      "name": "acceptOwnership",
      "outputs": [],
      "stateMutability": "nonpayable",
      "type": "function"
    },
    {
      "inputs": [
        {
          "internalType": "contract IVAIController",
          "name": "vaiController",
          "type": "address"
        },
        {
          "internalType": "address[]",
          "name": "borrowers",
          "type": "address[]"
        },
        {
          "internalType": "address",
          "name": "receiver",
          "type": "address"
        }
      ],
      "name": "batchRepayVAI",
      "outputs": [],
      "stateMutability": "nonpayable",
      "type": "function"
    },
    {
      "inputs": [],
      "name": "owner",
      "outputs": [
        {
          "internalType": "address",
          "name": "",
          "type": "address"
        }
      ],
      "stateMutability": "view",
      "type": "function"
    },
    {
      "inputs": [],
      "name": "pendingOwner",
      "outputs": [
        {
          "internalType": "address",
          "name": "",
          "type": "address"
        }
      ],
      "stateMutability": "view",
      "type": "function"
    },
    {
      "inputs": [
        {
          "internalType": "contract IVToken",
          "name": "vToken",
          "type": "address"
        },
        {
          "internalType": "address[]",
          "name": "borrowers",
          "type": "address[]"
        },
        {
          "internalType": "address",
          "name": "receiver",
          "type": "address"
        }
      ],
      "name": "redeemAndBatchRepay",
      "outputs": [],
      "stateMutability": "nonpayable",
      "type": "function"
    },
    {
      "inputs": [
        {
          "internalType": "contract IVToken",
          "name": "vToken",
          "type": "address"
        },
        {
          "internalType": "address",
          "name": "destination",
          "type": "address"
        }
      ],
      "name": "redeemAndTransfer",
      "outputs": [],
      "stateMutability": "nonpayable",
      "type": "function"
    },
    {
      "inputs": [
        {
          "internalType": "contract IVToken",
          "name": "vToken",
          "type": "address"
        },
        {
          "internalType": "address",
          "name": "borrower",
          "type": "address"
        },
        {
          "internalType": "uint256",
          "name": "amount",
          "type": "uint256"
        },
        {
          "internalType": "address",
          "name": "receiver",
          "type": "address"
        }
      ],
      "name": "redeemUnderlyingAndRepayBorrowBehalf",
      "outputs": [],
      "stateMutability": "nonpayable",
      "type": "function"
    },
    {
      "inputs": [],
      "name": "renounceOwnership",
      "outputs": [],
      "stateMutability": "nonpayable",
      "type": "function"
    },
    {
      "inputs": [
        {
          "internalType": "address",
          "name": "token",
          "type": "address"
        },
        {
          "internalType": "address",
          "name": "destination",
          "type": "address"
        }
      ],
      "name": "sweepTokens",
      "outputs": [],
      "stateMutability": "nonpayable",
      "type": "function"
    },
    {
      "inputs": [
        {
          "internalType": "address",
          "name": "newOwner",
          "type": "address"
        }
      ],
      "name": "transferOwnership",
      "outputs": [],
      "stateMutability": "nonpayable",
      "type": "function"
    },
    {
      "stateMutability": "payable",
      "type": "receive"
    }
  ],
  "transactionHash": "0xef5bb1801527047b1d9bd71246a0a668ada42c100dcd06155d5cf878b798dad9",
  "args": [
    "0x939bD8d64c0A9583A7Dcea9933f7b21697ab6396",
    "0xA07c5b74C9B40447a954e1466938b865b6BBea36"
  ],
  "numDeployments": 1,
  "solcInputHash": "f14679931f30e5309759b36dc6c94597",
  "bytecode": "0x60a060405234801561001057600080fd5b50604051611a14380380611a1483398101604081905261002f9161010d565b600160005561003d33610063565b6100468261007f565b6001600160a01b03811660805261005c82610063565b5050610147565b600280546001600160a01b031916905561007c816100a6565b50565b6001600160a01b03811661007c576040516342bcdf7f60e11b815260040160405180910390fd5b600180546001600160a01b038381166001600160a01b0319831681179093556040519116919082907f8be0079c531659141344cd1fd0a4f28419497f9722a3daafe3b4186f6b6457e090600090a35050565b6001600160a01b038116811461007c57600080fd5b6000806040838503121561012057600080fd5b825161012b816100f8565b602084015190925061013c816100f8565b809150509250929050565b6080516118a46101706000396000818161010001528181610d310152610eb801526118a46000f3fe6080604052600436106100a05760003560e01c806379ba50971161006457806379ba5097146101735780638da5cb5b14610188578063ac9a350d146101a6578063b5381e89146101c6578063e30c3978146101e6578063f2fde38b1461020457600080fd5b80631609be1d146100ac5780632e38052d146100ce5780633421fc52146100ee5780635196cab31461013e578063715018a61461015e57600080fd5b366100a757005b600080fd5b3480156100b857600080fd5b506100cc6100c73660046115bf565b610224565b005b3480156100da57600080fd5b506100cc6100e9366004611644565b610243565b3480156100fa57600080fd5b506101227f000000000000000000000000000000000000000000000000000000000000000081565b6040516001600160a01b03909116815260200160405180910390f35b34801561014a57600080fd5b506100cc610159366004611644565b6103cb565b34801561016a57600080fd5b506100cc6105e3565b34801561017f57600080fd5b506100cc6105f7565b34801561019457600080fd5b506001546001600160a01b0316610122565b3480156101b257600080fd5b506100cc6101c13660046115bf565b610676565b3480156101d257600080fd5b506100cc6101e13660046116ac565b6107ab565b3480156101f257600080fd5b506002546001600160a01b0316610122565b34801561021057600080fd5b506100cc61021f3660046116f4565b6108c1565b61022c610932565b61023f6001600160a01b0383168261098c565b5050565b61024b6109c1565b610253610932565b61025c84610a1a565b60008061026a868686610aa4565b915091506102788683610c10565b600061028387610d25565b90506000610299826001600160a01b0316610ddd565b90506102af6001600160a01b0383168986610e72565b82518482106103035760005b818110156102fd5760008582815181106102d7576102d7611711565b602002602001015190506102f48b82600001518360200151610ea1565b506001016102bb565b5061037b565b60005b818110801561031457508215155b1561037957600085828151811061032d5761032d611711565b602002602001015190506103538b826000015161034e846020015188610fde565b610ea1565b610365856001600160a01b0316610ddd565b935050806103729061173d565b9050610306565b505b6103906001600160a01b0384168a6000610e72565b6103a36001600160a01b0384168761098c565b6103b66001600160a01b038a168761098c565b50505050506103c56001600055565b50505050565b6103d36109c1565b6103db610932565b836001600160a01b031663b49b10056040518163ffffffff1660e01b8152600401600060405180830381600087803b15801561041657600080fd5b505af115801561042a573d6000803e3d6000fd5b505050506000846001600160a01b031663cbeb2b286040518163ffffffff1660e01b8152600401602060405180830381865afa15801561046e573d6000803e3d6000fd5b505050506040513d601f19601f820116820180604052508101906104929190611756565b905060006104a8826001600160a01b0316610ddd565b90506104c06001600160a01b03831687600019610e72565b8360005b81811080156104d257508215155b156105ad5760008787838181106104eb576104eb611711565b905060200201602081019061050091906116f4565b604051633c617c9160e11b81526001600160a01b0380831660048301529192506000918b16906378c2f92290602401602060405180830381865afa15801561054c573d6000803e3d6000fd5b505050506040513d601f19601f820116820180604052508101906105709190611773565b90506105868a836105818489610fde565b610ff6565b610598866001600160a01b0316610ddd565b94505050806105a69061173d565b90506104c4565b506105c36001600160a01b038416886000610e72565b6105d66001600160a01b0384168561098c565b5050506103c56001600055565b6105eb610932565b6105f5600061109e565b565b60025433906001600160a01b0316811461066a5760405162461bcd60e51b815260206004820152602960248201527f4f776e61626c6532537465703a2063616c6c6572206973206e6f7420746865206044820152683732bb9037bbb732b960b91b60648201526084015b60405180910390fd5b6106738161109e565b50565b61067e6109c1565b610686610932565b600061069183610d25565b6040516370a0823160e01b81523060048201529091506000906001600160a01b0385169063db006a759082906370a0823190602401602060405180830381865afa1580156106e3573d6000803e3d6000fd5b505050506040513d601f19601f820116820180604052508101906107079190611773565b6040518263ffffffff1660e01b815260040161072591815260200190565b6020604051808303816000875af1158015610744573d6000803e3d6000fd5b505050506040513d601f19601f820116820180604052508101906107689190611773565b9050801561078c5760405163eeddaac560e01b815260048101829052602401610661565b61079f6001600160a01b0383168461098c565b505061023f6001600055565b6107b36109c1565b6107bb610932565b60006107c685610d25565b60405163852a12e360e01b8152600481018590529091506000906001600160a01b0387169063852a12e3906024016020604051808303816000875af1158015610813573d6000803e3d6000fd5b505050506040513d601f19601f820116820180604052508101906108379190611773565b9050801561085b5760405163eeddaac560e01b815260048101829052602401610661565b61086f6001600160a01b0383168786610e72565b61087a868686610ea1565b61088f6001600160a01b038316876000610e72565b6108a26001600160a01b0383168461098c565b6108b56001600160a01b0387168461098c565b50506103c56001600055565b6108c9610932565b600280546001600160a01b0383166001600160a01b031990911681179091556108fa6001546001600160a01b031690565b6001600160a01b03167f38d16b8cac22d99fc7c124b9cd0de2d3fa1faef420bfe791d8c362d765e2270060405160405180910390a350565b6001546001600160a01b031633146105f55760405162461bcd60e51b815260206004820181905260248201527f4f776e61626c653a2063616c6c6572206973206e6f7420746865206f776e65726044820152606401610661565b60006109a0836001600160a01b0316610ddd565b905080156109bc576109bc6001600160a01b03841683836110b7565b505050565b600260005403610a135760405162461bcd60e51b815260206004820152601f60248201527f5265656e7472616e637947756172643a207265656e7472616e742063616c6c006044820152606401610661565b6002600055565b6000816001600160a01b031663a6afed956040518163ffffffff1660e01b81526004016020604051808303816000875af1158015610a5c573d6000803e3d6000fd5b505050506040513d601f19601f82011682018060405250810190610a809190611773565b9050801561023f576040516315fc6cbf60e21b815260048101829052602401610661565b6000606082828167ffffffffffffffff811115610ac357610ac361178c565b604051908082528060200260200182016040528015610b0857816020015b6040805180820190915260008082526020820152815260200190600190039081610ae15790505b5090506000805b86811015610c03576000888883818110610b2b57610b2b611711565b9050602002016020810190610b4091906116f4565b6040516395dd919360e01b81526001600160a01b0380831660048301529192506000918c16906395dd919390602401602060405180830381865afa158015610b8c573d6000803e3d6000fd5b505050506040513d601f19601f82011682018060405250810190610bb09190611773565b9050610bbc81856117a2565b93506040518060400160405280836001600160a01b0316815260200182815250858481518110610bee57610bee611711565b60209081029190910101525050600101610b0f565b5097909650945050505050565b604051633af9e66960e01b81523060048201526000906001600160a01b03841690633af9e669906024016020604051808303816000875af1158015610c59573d6000803e3d6000fd5b505050506040513d601f19601f82011682018060405250810190610c7d9190611773565b905080156109bc576000836001600160a01b031663852a12e3610ca08585610fde565b6040518263ffffffff1660e01b8152600401610cbe91815260200190565b6020604051808303816000875af1158015610cdd573d6000803e3d6000fd5b505050506040513d601f19601f82011682018060405250810190610d019190611773565b905080156103c55760405163eeddaac560e01b815260048101829052602401610661565b60006001600160a01b037f0000000000000000000000000000000000000000000000000000000000000000811690831603610d75575073bbbbbbbbbbbbbbbbbbbbbbbbbbbbbbbbbbbbbbbb919050565b816001600160a01b0316636f307dc36040518163ffffffff1660e01b8152600401602060405180830381865afa158015610db3573d6000803e3d6000fd5b505050506040513d601f19601f82011682018060405250810190610dd79190611756565b92915050565b600073bbbbbbbbbbbbbbbbbbbbbbbbbbbbbbbbbbbbbbbb6001600160a01b03831603610e0a575047919050565b6040516370a0823160e01b81523060048201526001600160a01b038316906370a0823190602401602060405180830381865afa158015610e4e573d6000803e3d6000fd5b505050506040513d601f19601f82011682018060405250810190610dd79190611773565b73bbbbbbbbbbbbbbbbbbbbbbbbbbbbbbbbbbbbbbbb6001600160a01b038416146109bc576109bc83838361115a565b80600003610eae57505050565b6001600160a01b037f0000000000000000000000000000000000000000000000000000000000000000811690841603610f435760405163e597461960e01b81526001600160a01b03838116600483015284169063e59746199083906024016000604051808303818588803b158015610f2557600080fd5b505af1158015610f39573d6000803e3d6000fd5b5050505050505050565b6040516304c11f0360e31b81526001600160a01b0383811660048301526024820183905260009190851690632608f818906044016020604051808303816000875af1158015610f96573d6000803e3d6000fd5b505050506040513d601f19601f82011682018060405250810190610fba9190611773565b905080156103c55760405163259aff3560e01b815260048101829052602401610661565b6000818310610fed5781610fef565b825b9392505050565b8060000361100357505050565b604051631f040ff560e01b81526001600160a01b0383811660048301526024820183905260009190851690631f040ff59060440160408051808303816000875af1158015611055573d6000803e3d6000fd5b505050506040513d601f19601f8201168201806040525081019061107991906117b5565b50905080156103c55760405163259aff3560e01b815260048101829052602401610661565b600280546001600160a01b03191690556106738161121c565b73bbbbbbbbbbbbbbbbbbbbbbbbbbbbbbbbbbbbbbbb6001600160a01b0384160361114f576000826001600160a01b03168260405160006040518083038185875af1925050503d8060008114611128576040519150601f19603f3d011682016040523d82523d6000602084013e61112d565b606091505b50509050806103c557604051633d2cec6f60e21b815260040160405180910390fd5b6109bc83838361126e565b604080516001600160a01b038416602482015260448082018490528251808303909101815260649091019091526020810180516001600160e01b031663095ea7b360e01b1790526111ab848261129e565b6103c5576040516001600160a01b03841660248201526000604482015261121290859063095ea7b360e01b906064015b60408051601f198184030181529190526020810180516001600160e01b03166001600160e01b031990931692909217909152611345565b6103c58482611345565b600180546001600160a01b038381166001600160a01b0319831681179093556040519116919082907f8be0079c531659141344cd1fd0a4f28419497f9722a3daafe3b4186f6b6457e090600090a35050565b6040516001600160a01b0383166024820152604481018290526109bc90849063a9059cbb60e01b906064016111db565b6000806000846001600160a01b0316846040516112bb91906117fd565b6000604051808303816000865af19150503d80600081146112f8576040519150601f19603f3d011682016040523d82523d6000602084013e6112fd565b606091505b50915091508180156113275750805115806113275750808060200190518101906113279190611819565b801561133c57506001600160a01b0385163b15155b95945050505050565b600061139a826040518060400160405280602081526020017f5361666545524332303a206c6f772d6c6576656c2063616c6c206661696c6564815250856001600160a01b031661141a9092919063ffffffff16565b90508051600014806113bb5750808060200190518101906113bb9190611819565b6109bc5760405162461bcd60e51b815260206004820152602a60248201527f5361666545524332303a204552433230206f7065726174696f6e20646964206e6044820152691bdd081cdd58d8d9595960b21b6064820152608401610661565b60606114298484600085611431565b949350505050565b6060824710156114925760405162461bcd60e51b815260206004820152602660248201527f416464726573733a20696e73756666696369656e742062616c616e636520666f6044820152651c8818d85b1b60d21b6064820152608401610661565b600080866001600160a01b031685876040516114ae91906117fd565b60006040518083038185875af1925050503d80600081146114eb576040519150601f19603f3d011682016040523d82523d6000602084013e6114f0565b606091505b50915091506115018783838761150c565b979650505050505050565b6060831561157b578251600003611574576001600160a01b0385163b6115745760405162461bcd60e51b815260206004820152601d60248201527f416464726573733a2063616c6c20746f206e6f6e2d636f6e74726163740000006044820152606401610661565b5081611429565b61142983838151156115905781518083602001fd5b8060405162461bcd60e51b8152600401610661919061183b565b6001600160a01b038116811461067357600080fd5b600080604083850312156115d257600080fd5b82356115dd816115aa565b915060208301356115ed816115aa565b809150509250929050565b60008083601f84011261160a57600080fd5b50813567ffffffffffffffff81111561162257600080fd5b6020830191508360208260051b850101111561163d57600080fd5b9250929050565b6000806000806060858703121561165a57600080fd5b8435611665816115aa565b9350602085013567ffffffffffffffff81111561168157600080fd5b61168d878288016115f8565b90945092505060408501356116a1816115aa565b939692955090935050565b600080600080608085870312156116c257600080fd5b84356116cd816115aa565b935060208501356116dd816115aa565b92506040850135915060608501356116a1816115aa565b60006020828403121561170657600080fd5b8135610fef816115aa565b634e487b7160e01b600052603260045260246000fd5b634e487b7160e01b600052601160045260246000fd5b60006001820161174f5761174f611727565b5060010190565b60006020828403121561176857600080fd5b8151610fef816115aa565b60006020828403121561178557600080fd5b5051919050565b634e487b7160e01b600052604160045260246000fd5b80820180821115610dd757610dd7611727565b600080604083850312156117c857600080fd5b505080516020909101519092909150565b60005b838110156117f45781810151838201526020016117dc565b50506000910152565b6000825161180f8184602087016117d9565b9190910192915050565b60006020828403121561182b57600080fd5b81518015158114610fef57600080fd5b602081526000825180602084015261185a8160408501602087016117d9565b601f01601f1916919091016040019291505056fea2646970667358221220d7e00bcc707364c0880e1ce841b97a4b441b77b07aae511e24639c9dbc2d8aca64736f6c63430008190033",
  "devdoc": {
    "kind": "dev",
    "methods": {
      "acceptOwnership()": {
        "details": "The new owner accepts the ownership transfer."
      },
      "owner()": {
        "details": "Returns the address of the current owner."
      },
      "pendingOwner()": {
        "details": "Returns the address of the pending owner."
      },
      "renounceOwnership()": {
        "details": "Leaves the contract without owner. It will not be possible to call `onlyOwner` functions. Can only be called by the current owner. NOTE: Renouncing ownership will leave the contract without an owner, thereby disabling any functionality that is only available to the owner."
      },
      "transferOwnership(address)": {
        "details": "Starts the ownership transfer of the contract to a new account. Replaces the pending transfer if there is one. Can only be called by the current owner."
      }
    },
    "version": 1
  },
  "userdoc": {
    "errors": {
      "NativeTransferFailed()": [
        {
          "notice": "Thrown when a native transfer fails"
        }
      ],
      "ZeroAddressNotAllowed()": [
        {
          "notice": "Thrown if the supplied address is a zero address where it is not allowed"
        }
      ]
    },
    "kind": "user",
    "methods": {},
    "version": 1
  },
  "storageLayout": {
    "storage": [
      {
        "astId": 2525,
        "contract": "contracts/Governance/TokenRedeemer.sol:TokenRedeemer",
        "label": "_status",
        "offset": 0,
        "slot": "0",
        "type": "t_uint256"
      },
      {
        "astId": 1433,
        "contract": "contracts/Governance/TokenRedeemer.sol:TokenRedeemer",
        "label": "_owner",
        "offset": 0,
        "slot": "1",
        "type": "t_address"
      },
      {
        "astId": 1546,
        "contract": "contracts/Governance/TokenRedeemer.sol:TokenRedeemer",
        "label": "_pendingOwner",
        "offset": 0,
        "slot": "2",
        "type": "t_address"
      }
    ],
    "types": {
      "t_address": {
        "encoding": "inplace",
        "label": "address",
        "numberOfBytes": "20"
      },
      "t_uint256": {
        "encoding": "inplace",
        "label": "uint256",
        "numberOfBytes": "32"
      }
    }
  }
}