{
  "address": "0xF48508A44da9C7D210a668eCe4d31Bc98702602b",
  "abi": [
    {
      "inputs": [
        {
          "internalType": "int256",
          "name": "baseRatePerYear_",
          "type": "int256"
        },
        {
          "internalType": "int256",
          "name": "multiplierPerYear_",
          "type": "int256"
        },
        {
          "internalType": "int256",
          "name": "kink1_",
          "type": "int256"
        },
        {
          "internalType": "int256",
          "name": "multiplier2PerYear_",
          "type": "int256"
        },
        {
          "internalType": "int256",
          "name": "baseRate2PerYear_",
          "type": "int256"
        },
        {
          "internalType": "int256",
          "name": "kink2_",
          "type": "int256"
        },
        {
          "internalType": "int256",
          "name": "jumpMultiplierPerYear_",
          "type": "int256"
        },
        {
          "internalType": "int256",
          "name": "blocksPerYear_",
          "type": "int256"
        }
      ],
      "stateMutability": "nonpayable",
      "type": "constructor"
    },
    {
      "inputs": [],
      "name": "InvalidKink",
      "type": "error"
    },
    {
      "inputs": [],
      "name": "NegativeValueNotAllowed",
      "type": "error"
    },
    {
      "inputs": [],
      "name": "BASE_RATE_2_PER_BLOCK",
      "outputs": [
        {
          "internalType": "int256",
          "name": "",
          "type": "int256"
        }
      ],
      "stateMutability": "view",
      "type": "function"
    },
    {
      "inputs": [],
      "name": "BASE_RATE_PER_BLOCK",
      "outputs": [
        {
          "internalType": "int256",
          "name": "",
          "type": "int256"
        }
      ],
      "stateMutability": "view",
      "type": "function"
    },
    {
      "inputs": [],
      "name": "BLOCKS_PER_YEAR",
      "outputs": [
        {
          "internalType": "int256",
          "name": "",
          "type": "int256"
        }
      ],
      "stateMutability": "view",
      "type": "function"
    },
    {
      "inputs": [],
      "name": "JUMP_MULTIPLIER_PER_BLOCK",
      "outputs": [
        {
          "internalType": "int256",
          "name": "",
          "type": "int256"
        }
      ],
      "stateMutability": "view",
      "type": "function"
    },
    {
      "inputs": [],
      "name": "KINK_1",
      "outputs": [
        {
          "internalType": "int256",
          "name": "",
          "type": "int256"
        }
      ],
      "stateMutability": "view",
      "type": "function"
    },
    {
      "inputs": [],
      "name": "KINK_2",
      "outputs": [
        {
          "internalType": "int256",
          "name": "",
          "type": "int256"
        }
      ],
      "stateMutability": "view",
      "type": "function"
    },
    {
      "inputs": [],
      "name": "MULTIPLIER_2_PER_BLOCK",
      "outputs": [
        {
          "internalType": "int256",
          "name": "",
          "type": "int256"
        }
      ],
      "stateMutability": "view",
      "type": "function"
    },
    {
      "inputs": [],
      "name": "MULTIPLIER_PER_BLOCK",
      "outputs": [
        {
          "internalType": "int256",
          "name": "",
          "type": "int256"
        }
      ],
      "stateMutability": "view",
      "type": "function"
    },
    {
      "inputs": [],
      "name": "RATE_1",
      "outputs": [
        {
          "internalType": "int256",
          "name": "",
          "type": "int256"
        }
      ],
      "stateMutability": "view",
      "type": "function"
    },
    {
      "inputs": [],
      "name": "RATE_2",
      "outputs": [
        {
          "internalType": "int256",
          "name": "",
          "type": "int256"
        }
      ],
      "stateMutability": "view",
      "type": "function"
    },
    {
      "inputs": [
        {
          "internalType": "uint256",
          "name": "cash",
          "type": "uint256"
        },
        {
          "internalType": "uint256",
          "name": "borrows",
          "type": "uint256"
        },
        {
          "internalType": "uint256",
          "name": "reserves",
          "type": "uint256"
        }
      ],
      "name": "getBorrowRate",
      "outputs": [
        {
          "internalType": "uint256",
          "name": "",
          "type": "uint256"
        }
      ],
      "stateMutability": "view",
      "type": "function"
    },
    {
      "inputs": [
        {
          "internalType": "uint256",
          "name": "cash",
          "type": "uint256"
        },
        {
          "internalType": "uint256",
          "name": "borrows",
          "type": "uint256"
        },
        {
          "internalType": "uint256",
          "name": "reserves",
          "type": "uint256"
        },
        {
          "internalType": "uint256",
          "name": "reserveFactorMantissa",
          "type": "uint256"
        }
      ],
      "name": "getSupplyRate",
      "outputs": [
        {
          "internalType": "uint256",
          "name": "",
          "type": "uint256"
        }
      ],
      "stateMutability": "view",
      "type": "function"
    },
    {
      "inputs": [],
      "name": "isInterestRateModel",
      "outputs": [
        {
          "internalType": "bool",
          "name": "",
          "type": "bool"
        }
      ],
      "stateMutability": "view",
      "type": "function"
    },
    {
      "inputs": [
        {
          "internalType": "uint256",
          "name": "cash",
          "type": "uint256"
        },
        {
          "internalType": "uint256",
          "name": "borrows",
          "type": "uint256"
        },
        {
          "internalType": "uint256",
          "name": "reserves",
          "type": "uint256"
        }
      ],
      "name": "utilizationRate",
      "outputs": [
        {
          "internalType": "uint256",
          "name": "",
          "type": "uint256"
        }
      ],
      "stateMutability": "pure",
      "type": "function"
    }
  ],
  "transactionHash": "0x4a012d63feeb99ce0f8d61c872cd5d278683a43944b42e1cdc871bb0116fbd0a",
  "args": [
    "0",
    "81250000000000000",
    "800000000000000000",
    "200000000000000000",
    "0",
    "900000000000000000",
    "3000000000000000000",
    42048000
  ],
  "numDeployments": 1,
  "solcInputHash": "faff93ff29539b1a8d8494a311908070",
  "bytecode": "0x6101c0604052348015610010575f80fd5b50604051610ad3380380610ad383398101604081905261002f91610167565b5f88128061003c57505f84125b1561005a576040516341820e7560e11b815260040160405180910390fd5b858313158061006957505f8613155b1561008757604051637099641d60e11b815260040160405180910390fd5b608081905261009681896101d3565b60c0526080516100a690886101d3565b60a05260e08690526080516100bb90866101d3565b610100526080516100cc90856101d3565b610120526101608390526080516100e390836101d3565b6101805260c05160a05160e051670de0b6b3a764000092918391610107919061020b565b61011191906101d3565b61011b9190610240565b6101405260e0516101605161012051610100519290910391839061013f908461020b565b61014991906101d3565b6101539190610240565b6101a0525061026798505050505050505050565b5f805f805f805f80610100898b03121561017f575f80fd5b505086516020880151604089015160608a015160808b015160a08c015160c08d015160e0909d0151959e949d50929b919a50985090965094509092509050565b634e487b7160e01b5f52601160045260245ffd5b5f826101ed57634e487b7160e01b5f52601260045260245ffd5b600160ff1b82145f1984141615610206576102066101bf565b500590565b8082025f8212600160ff1b84141615610226576102266101bf565b818105831482151761023a5761023a6101bf565b92915050565b8082018281125f83128015821682158216171561025f5761025f6101bf565b505092915050565b60805160a05160c05160e05161010051610120516101405161016051610180516101a0516107aa6103295f395f81816101a001526105c101525f81816102b0015261058701525f818161015201528181610479015261055f01525f818160ed0152818161052e01526105e201525f818161020101526104c501525f818161028901526104ea01525f8181610179015281816103e001526104a101525f818161023b015261040b01525f81816101da015261043001525f61026201526107aa5ff3fe608060405234801561000f575f80fd5b50600436106100e4575f3560e01c80638ea0930e11610088578063c563364911610063578063c563364914610236578063d37db1d21461025d578063ebf22a0814610284578063fe8167d8146102ab575f80fd5b80638ea0930e146101d5578063b5712681146101fc578063b816881614610223575f80fd5b806338afe9c4116100c357806338afe9c41461014d5780633b53e888146101745780635d0054c41461019b5780636e71e2d8146101c2575f80fd5b8062084e89146100e857806315f24053146101225780632191f92a14610135575b5f80fd5b61010f7f000000000000000000000000000000000000000000000000000000000000000081565b6040519081526020015b60405180910390f35b61010f61013036600461061c565b6102d2565b61013d600181565b6040519015158152602001610119565b61010f7f000000000000000000000000000000000000000000000000000000000000000081565b61010f7f000000000000000000000000000000000000000000000000000000000000000081565b61010f7f000000000000000000000000000000000000000000000000000000000000000081565b61010f6101d036600461061c565b6102e8565b61010f7f000000000000000000000000000000000000000000000000000000000000000081565b61010f7f000000000000000000000000000000000000000000000000000000000000000081565b61010f610231366004610645565b61034d565b61010f7f000000000000000000000000000000000000000000000000000000000000000081565b61010f7f000000000000000000000000000000000000000000000000000000000000000081565b61010f7f000000000000000000000000000000000000000000000000000000000000000081565b61010f7f000000000000000000000000000000000000000000000000000000000000000081565b5f6102de8484846103c6565b90505b9392505050565b5f825f036102f757505f6102e1565b5f826103038587610688565b61030d91906106a1565b61031f670de0b6b3a7640000866106b4565b61032991906106df565b9050670de0b6b3a76400008111156102de5750670de0b6b3a7640000949350505050565b5f8061036183670de0b6b3a76400006106a1565b90505f61036f8787876103c6565b90505f670de0b6b3a764000061038584846106b4565b61038f91906106df565b9050670de0b6b3a7640000816103a68a8a8a6102e8565b6103b091906106b4565b6103ba91906106df565b98975050505050505050565b5f806103d38585856102e8565b9050670de0b6b3a76400007f00000000000000000000000000000000000000000000000000000000000000008212156104775761046e7f0000000000000000000000000000000000000000000000000000000000000000826104557f0000000000000000000000000000000000000000000000000000000000000000866106f2565b61045f9190610721565b610469919061074d565b610606565b925050506102e1565b7f000000000000000000000000000000000000000000000000000000000000000082121561055d577f000000000000000000000000000000000000000000000000000000000000000082035f7f00000000000000000000000000000000000000000000000000000000000000008361050f7f0000000000000000000000000000000000000000000000000000000000000000856106f2565b6105199190610721565b610523919061074d565b9050610552610469827f000000000000000000000000000000000000000000000000000000000000000061074d565b9450505050506102e1565b7f000000000000000000000000000000000000000000000000000000000000000082035f826105ac7f0000000000000000000000000000000000000000000000000000000000000000846106f2565b6105b69190610721565b90506105528161045f7f00000000000000000000000000000000000000000000000000000000000000007f000000000000000000000000000000000000000000000000000000000000000061074d565b5f8080831361061557806102e1565b5090919050565b5f805f6060848603121561062e575f80fd5b505081359360208301359350604090920135919050565b5f805f8060808587031215610658575f80fd5b5050823594602084013594506040840135936060013592509050565b634e487b7160e01b5f52601160045260245ffd5b8082018082111561069b5761069b610674565b92915050565b8181038181111561069b5761069b610674565b808202811582820484141761069b5761069b610674565b634e487b7160e01b5f52601260045260245ffd5b5f826106ed576106ed6106cb565b500490565b8082025f8212600160ff1b8414161561070d5761070d610674565b818105831482151761069b5761069b610674565b5f8261072f5761072f6106cb565b600160ff1b82145f198414161561074857610748610674565b500590565b8082018281125f83128015821682158216171561076c5761076c610674565b50509291505056fea264697066735822122098d480280f56c3aa207d69220f86773e94b28973cb0157107164c42807551fbf64736f6c63430008190033",
  "devdoc": {
    "author": "Venus",
    "kind": "dev",
    "methods": {
      "constructor": {
        "params": {
          "baseRate2PerYear_": "The additional base APR after hitting KINK_1, as a mantissa (scaled by EXP_SCALE)",
          "baseRatePerYear_": "The approximate target base APR, as a mantissa (scaled by EXP_SCALE)",
          "blocksPerYear_": "The approximate number of blocks per year to assume",
          "jumpMultiplierPerYear_": "The multiplier after hitting KINK_2",
          "kink1_": "The utilization point at which the multiplier2 is applied",
          "kink2_": "The utilization point at which the jump multiplier is applied",
          "multiplier2PerYear_": "The rate of increase or decrease in interest rate wrt utilization after hitting KINK_1 (scaled by EXP_SCALE)",
          "multiplierPerYear_": "The rate of increase or decrease in interest rate wrt utilization (scaled by EXP_SCALE)"
        }
      },
      "getBorrowRate(uint256,uint256,uint256)": {
        "params": {
          "borrows": "The amount of borrows in the market",
          "cash": "The amount of cash in the market",
          "reserves": "The amount of reserves in the market"
        },
        "returns": {
          "_0": "The borrow rate percentage per slot (block) as a mantissa (scaled by EXP_SCALE)"
        }
      },
      "getSupplyRate(uint256,uint256,uint256,uint256)": {
        "params": {
          "borrows": "The amount of borrows in the market",
          "cash": "The amount of cash in the market",
          "reserveFactorMantissa": "The current reserve factor for the market",
          "reserves": "The amount of reserves in the market"
        },
        "returns": {
          "_0": "The supply rate percentage per slot (block) as a mantissa (scaled by EXP_SCALE)"
        }
      },
      "utilizationRate(uint256,uint256,uint256)": {
        "params": {
          "borrows": "The amount of borrows in the market",
          "cash": "The amount of cash in the market",
          "reserves": "The amount of reserves in the market"
        },
        "returns": {
          "_0": "The utilization rate as a mantissa between [0, EXP_SCALE]"
        }
      }
    },
    "title": "TwoKinksInterestRateModel",
    "version": 1
  },
  "userdoc": {
    "errors": {
      "InvalidKink()": [
        {
          "notice": "Thrown when the kink points are not in the correct order"
        }
      ],
      "NegativeValueNotAllowed()": [
        {
          "notice": "Thrown when a negative value is not allowed"
        }
      ]
    },
    "kind": "user",
    "methods": {
      "BASE_RATE_2_PER_BLOCK()": {
        "notice": "The base interest rate per block which is the y-intercept when utilization rate hits KINK_1 scaled by EXP_SCALE"
      },
      "BASE_RATE_PER_BLOCK()": {
        "notice": "The base interest rate per block which is the y-intercept when utilization rate is 0 scaled by EXP_SCALE"
      },
      "JUMP_MULTIPLIER_PER_BLOCK()": {
        "notice": "The multiplier of utilization rate per block that gives the slope 3 of interest rate scaled by EXP_SCALE"
      },
      "KINK_1()": {
        "notice": "The utilization point at which the multiplier2 is applied"
      },
      "KINK_2()": {
        "notice": "The utilization point at which the jump multiplier is applied"
      },
      "MULTIPLIER_2_PER_BLOCK()": {
        "notice": "The multiplier of utilization rate per block that gives the slope 2 of the interest rate scaled by EXP_SCALE"
      },
      "MULTIPLIER_PER_BLOCK()": {
        "notice": "The multiplier of utilization rate per block that gives the slope 1 of the interest rate scaled by EXP_SCALE"
      },
      "RATE_1()": {
        "notice": "The maximum kink interest rate scaled by EXP_SCALE"
      },
      "RATE_2()": {
        "notice": "The maximum kink interest rate scaled by EXP_SCALE"
      },
      "constructor": {
        "notice": "Construct an interest rate model"
      },
      "getBorrowRate(uint256,uint256,uint256)": {
        "notice": "Calculates the current borrow rate per slot (block)"
      },
      "getSupplyRate(uint256,uint256,uint256,uint256)": {
        "notice": "Calculates the current supply rate per slot (block)"
      },
      "isInterestRateModel()": {
        "notice": "Indicator that this is an InterestRateModel contract (for inspection)"
      },
      "utilizationRate(uint256,uint256,uint256)": {
        "notice": "Calculates the utilization rate of the market: `borrows / (cash + borrows - reserves)`"
      }
    },
    "notice": "An interest rate model with two different slope increase or decrease each after a certain utilization threshold called **kink** is reached.",
    "version": 1
  },
  "storageLayout": {
    "storage": [],
    "types": null
  }
}