{
  "address": "0x347ba9559fFC65A94af0F6a513037Cd4982b7b18",
  "abi": [
    {
      "anonymous": false,
      "inputs": [
        {
          "components": [
            {
              "internalType": "address",
              "name": "facetAddress",
              "type": "address"
            },
            {
              "internalType": "enum IDiamondCut.FacetCutAction",
              "name": "action",
              "type": "uint8"
            },
            {
              "internalType": "bytes4[]",
              "name": "functionSelectors",
              "type": "bytes4[]"
            }
          ],
          "indexed": false,
          "internalType": "struct IDiamondCut.FacetCut[]",
          "name": "_diamondCut",
          "type": "tuple[]"
        }
      ],
      "name": "DiamondCut",
      "type": "event"
    },
    {
      "payable": true,
      "stateMutability": "payable",
      "type": "fallback"
    },
    {
      "constant": false,
      "inputs": [
        {
          "internalType": "contract Unitroller",
          "name": "unitroller",
          "type": "address"
        }
      ],
      "name": "_become",
      "outputs": [],
      "payable": false,
      "stateMutability": "nonpayable",
      "type": "function"
    },
    {
      "constant": true,
      "inputs": [
        {
          "internalType": "address",
          "name": "",
          "type": "address"
        },
        {
          "internalType": "uint256",
          "name": "",
          "type": "uint256"
        }
      ],
      "name": "accountAssets",
      "outputs": [
        {
          "internalType": "contract VToken",
          "name": "",
          "type": "address"
        }
      ],
      "payable": false,
      "stateMutability": "view",
      "type": "function"
    },
    {
      "constant": true,
      "inputs": [],
      "name": "admin",
      "outputs": [
        {
          "internalType": "address",
          "name": "",
          "type": "address"
        }
      ],
      "payable": false,
      "stateMutability": "view",
      "type": "function"
    },
    {
      "constant": true,
      "inputs": [
        {
          "internalType": "uint256",
          "name": "",
          "type": "uint256"
        }
      ],
      "name": "allMarkets",
      "outputs": [
        {
          "internalType": "contract VToken",
          "name": "",
          "type": "address"
        }
      ],
      "payable": false,
      "stateMutability": "view",
      "type": "function"
    },
    {
      "constant": true,
      "inputs": [
        {
          "internalType": "address",
          "name": "",
          "type": "address"
        },
        {
          "internalType": "address",
          "name": "",
          "type": "address"
        }
      ],
      "name": "approvedDelegates",
      "outputs": [
        {
          "internalType": "bool",
          "name": "",
          "type": "bool"
        }
      ],
      "payable": false,
      "stateMutability": "view",
      "type": "function"
    },
    {
      "constant": true,
      "inputs": [],
      "name": "borrowCapGuardian",
      "outputs": [
        {
          "internalType": "address",
          "name": "",
          "type": "address"
        }
      ],
      "payable": false,
      "stateMutability": "view",
      "type": "function"
    },
    {
      "constant": true,
      "inputs": [
        {
          "internalType": "address",
          "name": "",
          "type": "address"
        }
      ],
      "name": "borrowCaps",
      "outputs": [
        {
          "internalType": "uint256",
          "name": "",
          "type": "uint256"
        }
      ],
      "payable": false,
      "stateMutability": "view",
      "type": "function"
    },
    {
      "constant": true,
      "inputs": [],
      "name": "closeFactorMantissa",
      "outputs": [
        {
          "internalType": "uint256",
          "name": "",
          "type": "uint256"
        }
      ],
      "payable": false,
      "stateMutability": "view",
      "type": "function"
    },
    {
      "constant": true,
      "inputs": [],
      "name": "comptrollerImplementation",
      "outputs": [
        {
          "internalType": "address",
          "name": "",
          "type": "address"
        }
      ],
      "payable": false,
      "stateMutability": "view",
      "type": "function"
    },
    {
      "constant": true,
      "inputs": [],
      "name": "comptrollerLens",
      "outputs": [
        {
          "internalType": "contract ComptrollerLensInterface",
          "name": "",
          "type": "address"
        }
      ],
      "payable": false,
      "stateMutability": "view",
      "type": "function"
    },
    {
      "constant": false,
      "inputs": [
        {
          "components": [
            {
              "internalType": "address",
              "name": "facetAddress",
              "type": "address"
            },
            {
              "internalType": "enum IDiamondCut.FacetCutAction",
              "name": "action",
              "type": "uint8"
            },
            {
              "internalType": "bytes4[]",
              "name": "functionSelectors",
              "type": "bytes4[]"
            }
          ],
          "internalType": "struct IDiamondCut.FacetCut[]",
          "name": "diamondCut_",
          "type": "tuple[]"
        }
      ],
      "name": "diamondCut",
      "outputs": [],
      "payable": false,
      "stateMutability": "nonpayable",
      "type": "function"
    },
    {
      "constant": true,
      "inputs": [
        {
          "internalType": "bytes4",
          "name": "functionSelector",
          "type": "bytes4"
        }
      ],
      "name": "facetAddress",
      "outputs": [
        {
          "components": [
            {
              "internalType": "address",
              "name": "facetAddress",
              "type": "address"
            },
            {
              "internalType": "uint96",
              "name": "functionSelectorPosition",
              "type": "uint96"
            }
          ],
          "internalType": "struct ComptrollerV13Storage.FacetAddressAndPosition",
          "name": "",
          "type": "tuple"
        }
      ],
      "payable": false,
      "stateMutability": "view",
      "type": "function"
    },
    {
      "constant": true,
      "inputs": [],
      "name": "facetAddresses",
      "outputs": [
        {
          "internalType": "address[]",
          "name": "",
          "type": "address[]"
        }
      ],
      "payable": false,
      "stateMutability": "view",
      "type": "function"
    },
    {
      "constant": true,
      "inputs": [
        {
          "internalType": "address",
          "name": "facet",
          "type": "address"
        }
      ],
      "name": "facetFunctionSelectors",
      "outputs": [
        {
          "internalType": "bytes4[]",
          "name": "",
          "type": "bytes4[]"
        }
      ],
      "payable": false,
      "stateMutability": "view",
      "type": "function"
    },
    {
      "constant": true,
      "inputs": [
        {
          "internalType": "address",
          "name": "facet",
          "type": "address"
        }
      ],
      "name": "facetPosition",
      "outputs": [
        {
          "internalType": "uint256",
          "name": "",
          "type": "uint256"
        }
      ],
      "payable": false,
      "stateMutability": "view",
      "type": "function"
    },
    {
      "constant": true,
      "inputs": [],
      "name": "facets",
      "outputs": [
        {
          "components": [
            {
              "internalType": "address",
              "name": "facetAddress",
              "type": "address"
            },
            {
              "internalType": "bytes4[]",
              "name": "functionSelectors",
              "type": "bytes4[]"
            }
          ],
          "internalType": "struct Diamond.Facet[]",
          "name": "",
          "type": "tuple[]"
        }
      ],
      "payable": false,
      "stateMutability": "view",
      "type": "function"
    },
    {
      "constant": true,
      "inputs": [
        {
          "internalType": "address",
          "name": "",
          "type": "address"
        }
      ],
      "name": "isForcedLiquidationEnabled",
      "outputs": [
        {
          "internalType": "bool",
          "name": "",
          "type": "bool"
        }
      ],
      "payable": false,
      "stateMutability": "view",
      "type": "function"
    },
    {
      "constant": true,
      "inputs": [
        {
          "internalType": "address",
          "name": "",
          "type": "address"
        },
        {
          "internalType": "address",
          "name": "",
          "type": "address"
        }
      ],
      "name": "isForcedLiquidationEnabledForUser",
      "outputs": [
        {
          "internalType": "bool",
          "name": "",
          "type": "bool"
        }
      ],
      "payable": false,
      "stateMutability": "view",
      "type": "function"
    },
    {
      "constant": true,
      "inputs": [],
      "name": "liquidationIncentiveMantissa",
      "outputs": [
        {
          "internalType": "uint256",
          "name": "",
          "type": "uint256"
        }
      ],
      "payable": false,
      "stateMutability": "view",
      "type": "function"
    },
    {
      "constant": true,
      "inputs": [],
      "name": "liquidatorContract",
      "outputs": [
        {
          "internalType": "address",
          "name": "",
          "type": "address"
        }
      ],
      "payable": false,
      "stateMutability": "view",
      "type": "function"
    },
    {
      "constant": true,
      "inputs": [
        {
          "internalType": "address",
          "name": "",
          "type": "address"
        }
      ],
      "name": "markets",
      "outputs": [
        {
          "internalType": "bool",
          "name": "isListed",
          "type": "bool"
        },
        {
          "internalType": "uint256",
          "name": "collateralFactorMantissa",
          "type": "uint256"
        },
        {
          "internalType": "bool",
          "name": "isVenus",
          "type": "bool"
        }
      ],
      "payable": false,
      "stateMutability": "view",
      "type": "function"
    },
    {
      "constant": true,
      "inputs": [],
      "name": "maxAssets",
      "outputs": [
        {
          "internalType": "uint256",
          "name": "",
          "type": "uint256"
        }
      ],
      "payable": false,
      "stateMutability": "view",
      "type": "function"
    },
    {
      "constant": true,
      "inputs": [],
      "name": "minReleaseAmount",
      "outputs": [
        {
          "internalType": "uint256",
          "name": "",
          "type": "uint256"
        }
      ],
      "payable": false,
      "stateMutability": "view",
      "type": "function"
    },
    {
      "constant": true,
      "inputs": [],
      "name": "mintVAIGuardianPaused",
      "outputs": [
        {
          "internalType": "bool",
          "name": "",
          "type": "bool"
        }
      ],
      "payable": false,
      "stateMutability": "view",
      "type": "function"
    },
    {
      "constant": true,
      "inputs": [
        {
          "internalType": "address",
          "name": "",
          "type": "address"
        }
      ],
      "name": "mintedVAIs",
      "outputs": [
        {
          "internalType": "uint256",
          "name": "",
          "type": "uint256"
        }
      ],
      "payable": false,
      "stateMutability": "view",
      "type": "function"
    },
    {
      "constant": true,
      "inputs": [],
      "name": "oracle",
      "outputs": [
        {
          "internalType": "contract PriceOracle",
          "name": "",
          "type": "address"
        }
      ],
      "payable": false,
      "stateMutability": "view",
      "type": "function"
    },
    {
      "constant": true,
      "inputs": [],
      "name": "pauseGuardian",
      "outputs": [
        {
          "internalType": "address",
          "name": "",
          "type": "address"
        }
      ],
      "payable": false,
      "stateMutability": "view",
      "type": "function"
    },
    {
      "constant": true,
      "inputs": [],
      "name": "pendingAdmin",
      "outputs": [
        {
          "internalType": "address",
          "name": "",
          "type": "address"
        }
      ],
      "payable": false,
      "stateMutability": "view",
      "type": "function"
    },
    {
      "constant": true,
      "inputs": [],
      "name": "pendingComptrollerImplementation",
      "outputs": [
        {
          "internalType": "address",
          "name": "",
          "type": "address"
        }
      ],
      "payable": false,
      "stateMutability": "view",
      "type": "function"
    },
    {
      "constant": true,
      "inputs": [],
      "name": "prime",
      "outputs": [
        {
          "internalType": "contract IPrime",
          "name": "",
          "type": "address"
        }
      ],
      "payable": false,
      "stateMutability": "view",
      "type": "function"
    },
    {
      "constant": true,
      "inputs": [],
      "name": "protocolPaused",
      "outputs": [
        {
          "internalType": "bool",
          "name": "",
          "type": "bool"
        }
      ],
      "payable": false,
      "stateMutability": "view",
      "type": "function"
    },
    {
      "constant": true,
      "inputs": [],
      "name": "releaseStartBlock",
      "outputs": [
        {
          "internalType": "uint256",
          "name": "",
          "type": "uint256"
        }
      ],
      "payable": false,
      "stateMutability": "view",
      "type": "function"
    },
    {
      "constant": true,
      "inputs": [],
      "name": "repayVAIGuardianPaused",
      "outputs": [
        {
          "internalType": "bool",
          "name": "",
          "type": "bool"
        }
      ],
      "payable": false,
      "stateMutability": "view",
      "type": "function"
    },
    {
      "constant": true,
      "inputs": [
        {
          "internalType": "address",
          "name": "",
          "type": "address"
        }
      ],
      "name": "supplyCaps",
      "outputs": [
        {
          "internalType": "uint256",
          "name": "",
          "type": "uint256"
        }
      ],
      "payable": false,
      "stateMutability": "view",
      "type": "function"
    },
    {
      "constant": true,
      "inputs": [],
      "name": "treasuryAddress",
      "outputs": [
        {
          "internalType": "address",
          "name": "",
          "type": "address"
        }
      ],
      "payable": false,
      "stateMutability": "view",
      "type": "function"
    },
    {
      "constant": true,
      "inputs": [],
      "name": "treasuryGuardian",
      "outputs": [
        {
          "internalType": "address",
          "name": "",
          "type": "address"
        }
      ],
      "payable": false,
      "stateMutability": "view",
      "type": "function"
    },
    {
      "constant": true,
      "inputs": [],
      "name": "treasuryPercent",
      "outputs": [
        {
          "internalType": "uint256",
          "name": "",
          "type": "uint256"
        }
      ],
      "payable": false,
      "stateMutability": "view",
      "type": "function"
    },
    {
      "constant": true,
      "inputs": [],
      "name": "vaiController",
      "outputs": [
        {
          "internalType": "contract VAIControllerInterface",
          "name": "",
          "type": "address"
        }
      ],
      "payable": false,
      "stateMutability": "view",
      "type": "function"
    },
    {
      "constant": true,
      "inputs": [],
      "name": "vaiMintRate",
      "outputs": [
        {
          "internalType": "uint256",
          "name": "",
          "type": "uint256"
        }
      ],
      "payable": false,
      "stateMutability": "view",
      "type": "function"
    },
    {
      "constant": true,
      "inputs": [],
      "name": "vaiVaultAddress",
      "outputs": [
        {
          "internalType": "address",
          "name": "",
          "type": "address"
        }
      ],
      "payable": false,
      "stateMutability": "view",
      "type": "function"
    },
    {
      "constant": true,
      "inputs": [
        {
          "internalType": "address",
          "name": "",
          "type": "address"
        }
      ],
      "name": "venusAccrued",
      "outputs": [
        {
          "internalType": "uint256",
          "name": "",
          "type": "uint256"
        }
      ],
      "payable": false,
      "stateMutability": "view",
      "type": "function"
    },
    {
      "constant": true,
      "inputs": [
        {
          "internalType": "address",
          "name": "",
          "type": "address"
        }
      ],
      "name": "venusBorrowSpeeds",
      "outputs": [
        {
          "internalType": "uint256",
          "name": "",
          "type": "uint256"
        }
      ],
      "payable": false,
      "stateMutability": "view",
      "type": "function"
    },
    {
      "constant": true,
      "inputs": [
        {
          "internalType": "address",
          "name": "",
          "type": "address"
        }
      ],
      "name": "venusBorrowState",
      "outputs": [
        {
          "internalType": "uint224",
          "name": "index",
          "type": "uint224"
        },
        {
          "internalType": "uint32",
          "name": "block",
          "type": "uint32"
        }
      ],
      "payable": false,
      "stateMutability": "view",
      "type": "function"
    },
    {
      "constant": true,
      "inputs": [
        {
          "internalType": "address",
          "name": "",
          "type": "address"
        },
        {
          "internalType": "address",
          "name": "",
          "type": "address"
        }
      ],
      "name": "venusBorrowerIndex",
      "outputs": [
        {
          "internalType": "uint256",
          "name": "",
          "type": "uint256"
        }
      ],
      "payable": false,
      "stateMutability": "view",
      "type": "function"
    },
    {
      "constant": true,
      "inputs": [
        {
          "internalType": "address",
          "name": "",
          "type": "address"
        },
        {
          "internalType": "address",
          "name": "",
          "type": "address"
        }
      ],
      "name": "venusSupplierIndex",
      "outputs": [
        {
          "internalType": "uint256",
          "name": "",
          "type": "uint256"
        }
      ],
      "payable": false,
      "stateMutability": "view",
      "type": "function"
    },
    {
      "constant": true,
      "inputs": [
        {
          "internalType": "address",
          "name": "",
          "type": "address"
        }
      ],
      "name": "venusSupplySpeeds",
      "outputs": [
        {
          "internalType": "uint256",
          "name": "",
          "type": "uint256"
        }
      ],
      "payable": false,
      "stateMutability": "view",
      "type": "function"
    },
    {
      "constant": true,
      "inputs": [
        {
          "internalType": "address",
          "name": "",
          "type": "address"
        }
      ],
      "name": "venusSupplyState",
      "outputs": [
        {
          "internalType": "uint224",
          "name": "index",
          "type": "uint224"
        },
        {
          "internalType": "uint32",
          "name": "block",
          "type": "uint32"
        }
      ],
      "payable": false,
      "stateMutability": "view",
      "type": "function"
    },
    {
      "constant": true,
      "inputs": [],
      "name": "venusVAIVaultRate",
      "outputs": [
        {
          "internalType": "uint256",
          "name": "",
          "type": "uint256"
        }
      ],
      "payable": false,
      "stateMutability": "view",
      "type": "function"
    }
  ],
  "transactionHash": "0x4b7d2a5cdc7015ac85fb0b5e653933062094d86448f0fb10be0f765f5bb8acfa",
  "args": [],
  "numDeployments": 1,
  "solcInputHash": "ad834ffdd224ebe1944f429cc9972360",
  "bytecode": "0x608060405234801561001057600080fd5b50612464806100206000396000f3fe6080604052600436106102935760003560e01c80638c1ac18a1161015a578063c5f956af116100c1578063e37d4b791161007a578063e37d4b79146107c8578063e57e69c6146107e8578063e875544614610808578063f445d7031461081d578063f851a4401461083d578063fa6331d81461085257610293565b8063c5f956af14610727578063c7ee005e1461073c578063cdffacc614610751578063d3270f991461077e578063dce1544914610793578063dcfbc0c7146107b357610293565b8063adfca15e11610113578063adfca15e1461066d578063b2eafc391461069a578063b8324c7c146106af578063bb82aa5e146106dd578063bbb8864a146106f2578063bec04f721461071257610293565b80638c1ac18a146105bf5780638e8f294b146105df5780638f738f361461060e5780639254f5e51461062e57806394b2294b146106435780639bb27d621461065857610293565b8063425fad58116101fe578063719f701b116101b7578063719f701b14610529578063765513831461053e5780637a0ed627146105535780637d172bd5146105755780637dc0d1d01461058a5780638a7dc1651461059f57610293565b8063425fad58146104705780634a584432146104855780634ada90af146104a557806352d84d1e146104ba57806352ef6b2c146104e75780635dd3fc9d1461050957610293565b806321af45691161025057806321af4569146103cf57806324a3d622146103f157806326782247146104065780632bc7e29e1461041b5780634088c73e1461043b57806341a18d2c1461045057610293565b806302c3bcbb1461030057806304ef9d581461033657806308e0225c1461034b5780630db4b4e51461036b57806310b98338146103805780631d504dc6146103ad575b600080356001600160e01b0319168152602e60205260409020546001600160a01b0316806102dc5760405162461bcd60e51b81526004016102d390612259565b60405180910390fd5b3660008037600080366000845af43d6000803e8080156102fb573d6000f35b3d6000fd5b34801561030c57600080fd5b5061032061031b3660046119f0565b610867565b60405161032d91906122d2565b60405180910390f35b34801561034257600080fd5b50610320610879565b34801561035757600080fd5b50610320610366366004611a34565b61087f565b34801561037757600080fd5b5061032061089c565b34801561038c57600080fd5b506103a061039b366004611a34565b6108a2565b60405161032d91906121b4565b3480156103b957600080fd5b506103cd6103c8366004611af1565b6108c2565b005b3480156103db57600080fd5b506103e46109f6565b60405161032d9190612162565b3480156103fd57600080fd5b506103e4610a05565b34801561041257600080fd5b506103e4610a14565b34801561042757600080fd5b506103206104363660046119f0565b610a23565b34801561044757600080fd5b506103a0610a35565b34801561045c57600080fd5b5061032061046b366004611a34565b610a3e565b34801561047c57600080fd5b506103a0610a5b565b34801561049157600080fd5b506103206104a03660046119f0565b610a6a565b3480156104b157600080fd5b50610320610a7c565b3480156104c657600080fd5b506104da6104d5366004611b0f565b610a82565b60405161032d91906121ea565b3480156104f357600080fd5b506104fc610aa9565b60405161032d9190612170565b34801561051557600080fd5b506103206105243660046119f0565b610b0c565b34801561053557600080fd5b50610320610b1e565b34801561054a57600080fd5b506103a0610b24565b34801561055f57600080fd5b50610568610b32565b60405161032d91906121a3565b34801561058157600080fd5b506103e4610c8a565b34801561059657600080fd5b506104da610c99565b3480156105ab57600080fd5b506103206105ba3660046119f0565b610ca8565b3480156105cb57600080fd5b506103a06105da3660046119f0565b610cba565b3480156105eb57600080fd5b506105ff6105fa3660046119f0565b610ccf565b60405161032d939291906121c2565b34801561061a57600080fd5b506103206106293660046119f0565b610cf5565b34801561063a57600080fd5b506104da610d17565b34801561064f57600080fd5b50610320610d26565b34801561066457600080fd5b506103e4610d2c565b34801561067957600080fd5b5061068d6106883660046119f0565b610d3b565b60405161032d9190612181565b3480156106a657600080fd5b506103e4610dd4565b3480156106bb57600080fd5b506106cf6106ca3660046119f0565b610de3565b60405161032d9291906122b7565b3480156106e957600080fd5b506103e4610e0d565b3480156106fe57600080fd5b5061032061070d3660046119f0565b610e1c565b34801561071e57600080fd5b50610320610e2e565b34801561073357600080fd5b506103e4610e34565b34801561074857600080fd5b506104da610e43565b34801561075d57600080fd5b5061077161076c366004611ad3565b610e52565b60405161032d91906122a9565b34801561078a57600080fd5b506104da610ea3565b34801561079f57600080fd5b506104da6107ae366004611a6e565b610eb2565b3480156107bf57600080fd5b506103e4610ee7565b3480156107d457600080fd5b506106cf6107e33660046119f0565b610ef6565b3480156107f457600080fd5b506103cd610803366004611a9e565b610f20565b34801561081457600080fd5b50610320610f53565b34801561082957600080fd5b506103a0610838366004611a34565b610f59565b34801561084957600080fd5b506103e4610f79565b34801561085e57600080fd5b50610320610f88565b60276020526000908152604090205481565b60225481565b601360209081526000928352604080842090915290825290205481565b601d5481565b602c60209081526000928352604080842090915290825290205460ff1681565b806001600160a01b031663f851a4406040518163ffffffff1660e01b815260040160206040518083038186803b1580156108fb57600080fd5b505afa15801561090f573d6000803e3d6000fd5b505050506040513d601f19601f820116820180604052506109339190810190611a16565b6001600160a01b0316336001600160a01b0316146109635760405162461bcd60e51b81526004016102d390612239565b806001600160a01b031663c1e803346040518163ffffffff1660e01b8152600401602060405180830381600087803b15801561099e57600080fd5b505af11580156109b2573d6000803e3d6000fd5b505050506040513d601f19601f820116820180604052506109d69190810190611b2d565b156109f35760405162461bcd60e51b81526004016102d390612269565b50565b601e546001600160a01b031681565b600a546001600160a01b031681565b6001546001600160a01b031681565b60166020526000908152604090205481565b60185460ff1681565b601260209081526000928352604080842090915290825290205481565b60185462010000900460ff1681565b601f6020526000908152604090205481565b60065481565b600d8181548110610a8f57fe5b6000918252602090912001546001600160a01b0316905081565b60606030805480602002602001604051908101604052809291908181526020018280548015610b0157602002820191906000526020600020905b81546001600160a01b03168152600190910190602001808311610ae3575b505050505090505b90565b602b6020526000908152604090205481565b601c5481565b601854610100900460ff1681565b603054604080518281526020808402820101909152606091908290828015610b7457816020015b610b616117e1565b815260200190600190039081610b595790505b50905060005b82811015610c8357600060308281548110610b9157fe5b9060005260206000200160009054906101000a90046001600160a01b0316905080838381518110610bbe57fe5b6020908102919091018101516001600160a01b0392831690529082166000908152602f825260409081902080548251818502810185019093528083529192909190830182828015610c5b57602002820191906000526020600020906000905b82829054906101000a900460e01b6001600160e01b03191681526020019060040190602082600301049283019260010382029150808411610c1d5790505b5050505050838381518110610c6c57fe5b602090810291909101810151015250600101610b7a565b5091505090565b601b546001600160a01b031681565b6004546001600160a01b031681565b60146020526000908152604090205481565b602d6020526000908152604090205460ff1681565b60096020526000908152604090208054600182015460039092015460ff91821692911683565b6001600160a01b0381166000908152602f60205260409020600101545b919050565b6015546001600160a01b031681565b60075481565b6025546001600160a01b031681565b6001600160a01b0381166000908152602f6020908152604091829020805483518184028101840190945280845260609392830182828015610dc857602002820191906000526020600020906000905b82829054906101000a900460e01b6001600160e01b03191681526020019060040190602082600301049283019260010382029150808411610d8a5790505b50505050509050919050565b6020546001600160a01b031681565b6010602052600090815260409020546001600160e01b03811690600160e01b900463ffffffff1682565b6002546001600160a01b031681565b602a6020526000908152604090205481565b60175481565b6021546001600160a01b031681565b6031546001600160a01b031681565b610e5a6117f9565b506001600160e01b0319166000908152602e60209081526040918290208251808401909352546001600160a01b0381168352600160a01b90046001600160601b03169082015290565b6026546001600160a01b031681565b60086020528160005260406000208181548110610ecb57fe5b6000918252602090912001546001600160a01b03169150829050565b6003546001600160a01b031681565b6011602052600090815260409020546001600160e01b03811690600160e01b900463ffffffff1682565b6000546001600160a01b03163314610f4a5760405162461bcd60e51b81526004016102d390612239565b6109f381610f8e565b60055481565b603260209081526000928352604080842090915290825290205460ff1681565b6000546001600160a01b031681565b601a5481565b805160005b818110156110cc576000838281518110610fa957fe5b602002602001015160200151905060006002811115610fc457fe5b816002811115610fd057fe5b14156110135761100e848381518110610fe557fe5b602002602001015160000151858481518110610ffd57fe5b602002602001015160400151611108565b6110c3565b600181600281111561102157fe5b141561105f5761100e84838151811061103657fe5b60200260200101516000015185848151811061104e57fe5b602002602001015160400151611208565b600281600281111561106d57fe5b14156110ab5761100e84838151811061108257fe5b60200260200101516000015185848151811061109a57fe5b602002602001015160400151611311565b60405162461bcd60e51b81526004016102d390612229565b50600101610f93565b507f2e97860c6f47eab0292d51fa3ceec7e373c62af1e7eb2a28ae82998b80de6cfd826040516110fc9190612192565b60405180910390a15050565b80516111265760405162461bcd60e51b81526004016102d390612209565b6001600160a01b03821661114c5760405162461bcd60e51b81526004016102d390612249565b6001600160a01b0382166000908152602f60205260409020546001600160601b03811661117c5761117c836113bd565b815160005b8181101561120157600084828151811061119757fe5b6020908102919091018101516001600160e01b031981166000908152602e9092526040909120549091506001600160a01b031680156111e85760405162461bcd60e51b81526004016102d390612279565b6111f3828689611460565b505060019283019201611181565b5050505050565b80516112265760405162461bcd60e51b81526004016102d390612209565b6001600160a01b03821661124c5760405162461bcd60e51b81526004016102d390612249565b6001600160a01b0382166000908152602f60205260409020546001600160601b03811661127c5761127c836113bd565b815160005b8181101561120157600084828151811061129757fe5b6020908102919091018101516001600160e01b031981166000908152602e9092526040909120549091506001600160a01b039081169087168114156112ee5760405162461bcd60e51b81526004016102d390612289565b6112f881836114ff565b611303828689611460565b505060019283019201611281565b8051806113305760405162461bcd60e51b81526004016102d390612209565b6001600160a01b038316156113575760405162461bcd60e51b81526004016102d390612299565b60005b818110156113b757600083828151811061137057fe5b6020908102919091018101516001600160e01b031981166000908152602e9092526040909120549091506001600160a01b03166113ad81836114ff565b505060010161135a565b50505050565b6113fc816040518060400160405280601e81526020017f4469616d6f6e643a204e657720666163657420686173206e6f20636f646500008152506117c0565b603080546001600160a01b039092166000818152602f60205260408120600190810185905584018355919091527f6ff97a59c90d62cc7236ba3a37cd85351bf564556780cf8c1157a220f31f0cbb90910180546001600160a01b0319169091179055565b6001600160e01b031983166000818152602e6020818152604080842080546001600160601b03909816600160a01b026001600160a01b0398891617815595909616808452602f825295832080546001810182559084528184206008820401805460e09990991c60046007909316929092026101000a91820263ffffffff909202199098161790965591905290925281546001600160a01b031916179055565b6001600160a01b0382166115255760405162461bcd60e51b81526004016102d390612219565b6001600160e01b031981166000908152602e60209081526040808320546001600160a01b0386168452602f90925290912054600160a01b9091046001600160601b0316906000190180821461164e576001600160a01b0384166000908152602f6020526040812080548390811061159857fe5b600091825260208083206008830401546001600160a01b0389168452602f9091526040909220805460079092166004026101000a90920460e01b9250829190859081106115e157fe5b600091825260208083206008830401805463ffffffff60079094166004026101000a938402191660e09590951c929092029390931790556001600160e01b0319929092168252602e90526040902080546001600160a01b0316600160a01b6001600160601b038516021790555b6001600160a01b0384166000908152602f6020526040902080548061166f57fe5b60008281526020808220600860001990940193840401805463ffffffff600460078716026101000a0219169055919092556001600160e01b031985168252602e90526040812055806113b7576030546001600160a01b0385166000908152602f60205260409020600101546000199091019080821461175e576000603083815481106116f757fe5b600091825260209091200154603080546001600160a01b03909216925082918490811061172057fe5b600091825260208083209190910180546001600160a01b0319166001600160a01b03948516179055929091168152602f909152604090206001018190555b603080548061176957fe5b60008281526020808220830160001990810180546001600160a01b03191690559092019092556001600160a01b0388168252602f905260408120906117ae8282611810565b60018201600090555050505050505050565b813b81816113b75760405162461bcd60e51b81526004016102d391906121f8565b60408051808201909152600081526060602082015290565b604080518082019091526000808252602082015290565b5080546000825560070160089004906000526020600020908101906109f39190610b0991905b8082111561184a5760008155600101611836565b5090565b8035611859816123e5565b92915050565b8051611859816123e5565b600082601f83011261187b57600080fd5b813561188e61188982612307565b6122e0565b915081818352602084019350602081019050838560208402820111156118b357600080fd5b60005b838110156118df57816118c98882611946565b84525060209283019291909101906001016118b6565b5050505092915050565b600082601f8301126118fa57600080fd5b813561190861188982612307565b81815260209384019390925082018360005b838110156118df57813586016119308882611967565b845250602092830192919091019060010161191a565b8035611859816123f9565b803561185981612402565b80356118598161240b565b60006060828403121561197957600080fd5b61198360606122e0565b90506000611991848461184e565b82525060206119a28484830161195c565b602083015250604082013567ffffffffffffffff8111156119c257600080fd5b6119ce8482850161186a565b60408301525092915050565b803561185981612418565b805161185981612418565b600060208284031215611a0257600080fd5b6000611a0e848461184e565b949350505050565b600060208284031215611a2857600080fd5b6000611a0e848461185f565b60008060408385031215611a4757600080fd5b6000611a53858561184e565b9250506020611a648582860161184e565b9150509250929050565b60008060408385031215611a8157600080fd5b6000611a8d858561184e565b9250506020611a64858286016119da565b600060208284031215611ab057600080fd5b813567ffffffffffffffff811115611ac757600080fd5b611a0e848285016118e9565b600060208284031215611ae557600080fd5b6000611a0e8484611946565b600060208284031215611b0357600080fd5b6000611a0e8484611951565b600060208284031215611b2157600080fd5b6000611a0e84846119da565b600060208284031215611b3f57600080fd5b6000611a0e84846119e5565b6000611b578383611b8a565b505060200190565b6000611b578383611d66565b6000611b7783836120ca565b9392505050565b6000611b778383612112565b611b938161233b565b82525050565b6000611ba48261232e565b611bae8185612332565b9350611bb983612328565b8060005b83811015611be7578151611bd18882611b4b565b9750611bdc83612328565b925050600101611bbd565b509495945050505050565b6000611bfd8261232e565b611c078185612332565b9350611c1283612328565b8060005b83811015611be7578151611c2a8882611b5f565b9750611c3583612328565b925050600101611c16565b6000611c4b8261232e565b611c558185612332565b9350611c6083612328565b8060005b83811015611be7578151611c788882611b5f565b9750611c8383612328565b925050600101611c64565b6000611c998261232e565b611ca38185612332565b935083602082028501611cb585612328565b8060005b85811015611cef5784840389528151611cd28582611b6b565b9450611cdd83612328565b60209a909a0199925050600101611cb9565b5091979650505050505050565b6000611d078261232e565b611d118185612332565b935083602082028501611d2385612328565b8060005b85811015611cef5784840389528151611d408582611b7e565b9450611d4b83612328565b60209a909a0199925050600101611d27565b611b9381612346565b611b938161234b565b611b9381612358565b611b938161239a565b6000611d8c8261232e565b611d968185612332565b9350611da68185602086016123a5565b611daf816123d1565b9093019392505050565b6000611dc6602b83612332565b7f4c69624469616d6f6e644375743a204e6f2073656c6563746f727320696e206681526a1858d95d081d1bc818dd5d60aa1b602082015260400192915050565b6000611e13603783612332565b7f4c69624469616d6f6e644375743a2043616e27742072656d6f76652066756e6381527f74696f6e207468617420646f65736e2774206578697374000000000000000000602082015260400192915050565b6000611e72602783612332565b7f4c69624469616d6f6e644375743a20496e636f727265637420466163657443758152663a20b1ba34b7b760c91b602082015260400192915050565b6000611ebb601983612332565b7f6f6e6c7920756e6974726f6c6c65722061646d696e2063616e00000000000000815260200192915050565b6000611ef4602c83612332565b7f4c69624469616d6f6e644375743a204164642066616365742063616e2774206281526b65206164647265737328302960a01b602082015260400192915050565b6000611f42602083612332565b7f4469616d6f6e643a2046756e6374696f6e20646f6573206e6f74206578697374815260200192915050565b6000611f7b600e83612332565b6d1b9bdd08185d5d1a1bdc9a5e995960921b815260200192915050565b6000611fa5603583612332565b7f4c69624469616d6f6e644375743a2043616e2774206164642066756e6374696f8152746e207468617420616c72656164792065786973747360581b602082015260400192915050565b6000611ffc603883612332565b7f4c69624469616d6f6e644375743a2043616e2774207265706c6163652066756e81527f6374696f6e20776974682073616d652066756e6374696f6e0000000000000000602082015260400192915050565b600061205b603683612332565b7f4c69624469616d6f6e644375743a2052656d6f76652066616365742061646472815275657373206d757374206265206164647265737328302960501b602082015260400192915050565b805160408301906120b78482611b8a565b5060208201516113b76020850182612159565b805160009060608401906120de8582611b8a565b5060208301516120f16020860182611d78565b50604083015184820360408601526121098282611c40565b95945050505050565b805160009060408401906121268582611b8a565b50602083015184820360208601526121098282611c40565b611b9381612379565b611b9381610b09565b611b9381612385565b611b938161238e565b602081016118598284611b8a565b60208082528101611b778184611b99565b60208082528101611b778184611bf2565b60208082528101611b778184611c8e565b60208082528101611b778184611cfc565b602081016118598284611d5d565b606081016121d08286611d5d565b6121dd6020830185612147565b611a0e6040830184611d5d565b602081016118598284611d6f565b60208082528101611b778184611d81565b6020808252810161185981611db9565b6020808252810161185981611e06565b6020808252810161185981611e65565b6020808252810161185981611eae565b6020808252810161185981611ee7565b6020808252810161185981611f35565b6020808252810161185981611f6e565b6020808252810161185981611f98565b6020808252810161185981611fef565b602080825281016118598161204e565b6040810161185982846120a6565b604081016122c5828561213e565b611b776020830184612150565b602081016118598284612147565b60405181810167ffffffffffffffff811182821017156122ff57600080fd5b604052919050565b600067ffffffffffffffff82111561231e57600080fd5b5060209081020190565b60200190565b5190565b90815260200190565b60006118598261236d565b151590565b6001600160e01b03191690565b60006118598261233b565b80610d12816123db565b6001600160a01b031690565b6001600160e01b031690565b63ffffffff1690565b6001600160601b031690565b600061185982612363565b60005b838110156123c05781810151838201526020016123a8565b838111156113b75750506000910152565b601f01601f191690565b600381106109f357fe5b6123ee8161233b565b81146109f357600080fd5b6123ee8161234b565b6123ee81612358565b600381106109f357600080fd5b6123ee81610b0956fea365627a7a72315820d50fd576b618e9e6bbd6e2133acfc3795aa34ee53a6454824d66872ee295553a6c6578706572696d656e74616cf564736f6c63430005100040",
  "devdoc": {
    "author": "Venus",
    "methods": {
      "_become(address)": {
        "params": {
          "unitroller": "Address of the unitroller"
        }
      },
      "diamondCut((address,uint8,bytes4[])[])": {
        "details": "Allows the contract admin to add function selectors",
        "params": {
          "diamondCut_": "IDiamondCut contains facets address, action and function selectors"
        }
      },
      "facetAddress(bytes4)": {
        "params": {
          "functionSelector": "function selector"
        },
        "return": "FacetAddressAndPosition facet address and position"
      },
      "facetAddresses()": {
        "return": "facetAddresses Array of facet addresses"
      },
      "facetFunctionSelectors(address)": {
        "params": {
          "facet": "Address of the facet"
        },
        "return": "selectors Array of function selectors"
      },
      "facetPosition(address)": {
        "params": {
          "facet": "Address of the facet"
        },
        "return": "Position of the facet"
      },
      "facets()": {
        "return": "facets_ Array of Facet"
      }
    },
    "title": "Diamond"
  },
  "userdoc": {
    "methods": {
      "_become(address)": {
        "notice": "Call _acceptImplementation to accept the diamond proxy as new implementaion"
      },
      "diamondCut((address,uint8,bytes4[])[])": {
        "notice": "To add function selectors to the facet's mapping"
      },
      "facetAddress(bytes4)": {
        "notice": "Get facet address and position through function selector"
      },
      "facetAddresses()": {
        "notice": "Get all facet addresses"
      },
      "facetFunctionSelectors(address)": {
        "notice": "Get all function selectors mapped to the facet address"
      },
      "facetPosition(address)": {
        "notice": "Get facet position in the _facetFunctionSelectors through facet address"
      },
      "facets()": {
        "notice": "Get all facets address and their function selector"
      }
    },
    "notice": "This contract contains functions related to facets"
  },
  "storageLayout": {
    "storage": [
      {
        "astId": 2402,
        "contract": "contracts/Comptroller/Diamond/Diamond.sol:Diamond",
        "label": "admin",
        "offset": 0,
        "slot": "0",
        "type": "t_address"
      },
      {
        "astId": 2404,
        "contract": "contracts/Comptroller/Diamond/Diamond.sol:Diamond",
        "label": "pendingAdmin",
        "offset": 0,
        "slot": "1",
        "type": "t_address"
      },
      {
        "astId": 2406,
        "contract": "contracts/Comptroller/Diamond/Diamond.sol:Diamond",
        "label": "comptrollerImplementation",
        "offset": 0,
        "slot": "2",
        "type": "t_address"
      },
      {
        "astId": 2408,
        "contract": "contracts/Comptroller/Diamond/Diamond.sol:Diamond",
        "label": "pendingComptrollerImplementation",
        "offset": 0,
        "slot": "3",
        "type": "t_address"
      },
      {
        "astId": 2415,
        "contract": "contracts/Comptroller/Diamond/Diamond.sol:Diamond",
        "label": "oracle",
        "offset": 0,
        "slot": "4",
        "type": "t_contract(PriceOracle)12106"
      },
      {
        "astId": 2417,
        "contract": "contracts/Comptroller/Diamond/Diamond.sol:Diamond",
        "label": "closeFactorMantissa",
        "offset": 0,
        "slot": "5",
        "type": "t_uint256"
      },
      {
        "astId": 2419,
        "contract": "contracts/Comptroller/Diamond/Diamond.sol:Diamond",
        "label": "liquidationIncentiveMantissa",
        "offset": 0,
        "slot": "6",
        "type": "t_uint256"
      },
      {
        "astId": 2421,
        "contract": "contracts/Comptroller/Diamond/Diamond.sol:Diamond",
        "label": "maxAssets",
        "offset": 0,
        "slot": "7",
        "type": "t_uint256"
      },
      {
        "astId": 2426,
        "contract": "contracts/Comptroller/Diamond/Diamond.sol:Diamond",
        "label": "accountAssets",
        "offset": 0,
        "slot": "8",
        "type": "t_mapping(t_address,t_array(t_contract(VToken)23033)dyn_storage)"
      },
      {
        "astId": 2441,
        "contract": "contracts/Comptroller/Diamond/Diamond.sol:Diamond",
        "label": "markets",
        "offset": 0,
        "slot": "9",
        "type": "t_mapping(t_address,t_struct(Market)2437_storage)"
      },
      {
        "astId": 2443,
        "contract": "contracts/Comptroller/Diamond/Diamond.sol:Diamond",
        "label": "pauseGuardian",
        "offset": 0,
        "slot": "10",
        "type": "t_address"
      },
      {
        "astId": 2445,
        "contract": "contracts/Comptroller/Diamond/Diamond.sol:Diamond",
        "label": "_mintGuardianPaused",
        "offset": 20,
        "slot": "10",
        "type": "t_bool"
      },
      {
        "astId": 2447,
        "contract": "contracts/Comptroller/Diamond/Diamond.sol:Diamond",
        "label": "_borrowGuardianPaused",
        "offset": 21,
        "slot": "10",
        "type": "t_bool"
      },
      {
        "astId": 2449,
        "contract": "contracts/Comptroller/Diamond/Diamond.sol:Diamond",
        "label": "transferGuardianPaused",
        "offset": 22,
        "slot": "10",
        "type": "t_bool"
      },
      {
        "astId": 2451,
        "contract": "contracts/Comptroller/Diamond/Diamond.sol:Diamond",
        "label": "seizeGuardianPaused",
        "offset": 23,
        "slot": "10",
        "type": "t_bool"
      },
      {
        "astId": 2455,
        "contract": "contracts/Comptroller/Diamond/Diamond.sol:Diamond",
        "label": "mintGuardianPaused",
        "offset": 0,
        "slot": "11",
        "type": "t_mapping(t_address,t_bool)"
      },
      {
        "astId": 2459,
        "contract": "contracts/Comptroller/Diamond/Diamond.sol:Diamond",
        "label": "borrowGuardianPaused",
        "offset": 0,
        "slot": "12",
        "type": "t_mapping(t_address,t_bool)"
      },
      {
        "astId": 2467,
        "contract": "contracts/Comptroller/Diamond/Diamond.sol:Diamond",
        "label": "allMarkets",
        "offset": 0,
        "slot": "13",
        "type": "t_array(t_contract(VToken)23033)dyn_storage"
      },
      {
        "astId": 2469,
        "contract": "contracts/Comptroller/Diamond/Diamond.sol:Diamond",
        "label": "venusRate",
        "offset": 0,
        "slot": "14",
        "type": "t_uint256"
      },
      {
        "astId": 2473,
        "contract": "contracts/Comptroller/Diamond/Diamond.sol:Diamond",
        "label": "venusSpeeds",
        "offset": 0,
        "slot": "15",
        "type": "t_mapping(t_address,t_uint256)"
      },
      {
        "astId": 2477,
        "contract": "contracts/Comptroller/Diamond/Diamond.sol:Diamond",
        "label": "venusSupplyState",
        "offset": 0,
        "slot": "16",
        "type": "t_mapping(t_address,t_struct(VenusMarketState)2464_storage)"
      },
      {
        "astId": 2481,
        "contract": "contracts/Comptroller/Diamond/Diamond.sol:Diamond",
        "label": "venusBorrowState",
        "offset": 0,
        "slot": "17",
        "type": "t_mapping(t_address,t_struct(VenusMarketState)2464_storage)"
      },
      {
        "astId": 2487,
        "contract": "contracts/Comptroller/Diamond/Diamond.sol:Diamond",
        "label": "venusSupplierIndex",
        "offset": 0,
        "slot": "18",
        "type": "t_mapping(t_address,t_mapping(t_address,t_uint256))"
      },
      {
        "astId": 2493,
        "contract": "contracts/Comptroller/Diamond/Diamond.sol:Diamond",
        "label": "venusBorrowerIndex",
        "offset": 0,
        "slot": "19",
        "type": "t_mapping(t_address,t_mapping(t_address,t_uint256))"
      },
      {
        "astId": 2497,
        "contract": "contracts/Comptroller/Diamond/Diamond.sol:Diamond",
        "label": "venusAccrued",
        "offset": 0,
        "slot": "20",
        "type": "t_mapping(t_address,t_uint256)"
      },
      {
        "astId": 2499,
        "contract": "contracts/Comptroller/Diamond/Diamond.sol:Diamond",
        "label": "vaiController",
        "offset": 0,
        "slot": "21",
        "type": "t_contract(VAIControllerInterface)15582"
      },
      {
        "astId": 2503,
        "contract": "contracts/Comptroller/Diamond/Diamond.sol:Diamond",
        "label": "mintedVAIs",
        "offset": 0,
        "slot": "22",
        "type": "t_mapping(t_address,t_uint256)"
      },
      {
        "astId": 2505,
        "contract": "contracts/Comptroller/Diamond/Diamond.sol:Diamond",
        "label": "vaiMintRate",
        "offset": 0,
        "slot": "23",
        "type": "t_uint256"
      },
      {
        "astId": 2507,
        "contract": "contracts/Comptroller/Diamond/Diamond.sol:Diamond",
        "label": "mintVAIGuardianPaused",
        "offset": 0,
        "slot": "24",
        "type": "t_bool"
      },
      {
        "astId": 2509,
        "contract": "contracts/Comptroller/Diamond/Diamond.sol:Diamond",
        "label": "repayVAIGuardianPaused",
        "offset": 1,
        "slot": "24",
        "type": "t_bool"
      },
      {
        "astId": 2511,
        "contract": "contracts/Comptroller/Diamond/Diamond.sol:Diamond",
        "label": "protocolPaused",
        "offset": 2,
        "slot": "24",
        "type": "t_bool"
      },
      {
        "astId": 2513,
        "contract": "contracts/Comptroller/Diamond/Diamond.sol:Diamond",
        "label": "venusVAIRate",
        "offset": 0,
        "slot": "25",
        "type": "t_uint256"
      },
      {
        "astId": 2518,
        "contract": "contracts/Comptroller/Diamond/Diamond.sol:Diamond",
        "label": "venusVAIVaultRate",
        "offset": 0,
        "slot": "26",
        "type": "t_uint256"
      },
      {
        "astId": 2520,
        "contract": "contracts/Comptroller/Diamond/Diamond.sol:Diamond",
        "label": "vaiVaultAddress",
        "offset": 0,
        "slot": "27",
        "type": "t_address"
      },
      {
        "astId": 2522,
        "contract": "contracts/Comptroller/Diamond/Diamond.sol:Diamond",
        "label": "releaseStartBlock",
        "offset": 0,
        "slot": "28",
        "type": "t_uint256"
      },
      {
        "astId": 2524,
        "contract": "contracts/Comptroller/Diamond/Diamond.sol:Diamond",
        "label": "minReleaseAmount",
        "offset": 0,
        "slot": "29",
        "type": "t_uint256"
      },
      {
        "astId": 2529,
        "contract": "contracts/Comptroller/Diamond/Diamond.sol:Diamond",
        "label": "borrowCapGuardian",
        "offset": 0,
        "slot": "30",
        "type": "t_address"
      },
      {
        "astId": 2533,
        "contract": "contracts/Comptroller/Diamond/Diamond.sol:Diamond",
        "label": "borrowCaps",
        "offset": 0,
        "slot": "31",
        "type": "t_mapping(t_address,t_uint256)"
      },
      {
        "astId": 2538,
        "contract": "contracts/Comptroller/Diamond/Diamond.sol:Diamond",
        "label": "treasuryGuardian",
        "offset": 0,
        "slot": "32",
        "type": "t_address"
      },
      {
        "astId": 2540,
        "contract": "contracts/Comptroller/Diamond/Diamond.sol:Diamond",
        "label": "treasuryAddress",
        "offset": 0,
        "slot": "33",
        "type": "t_address"
      },
      {
        "astId": 2542,
        "contract": "contracts/Comptroller/Diamond/Diamond.sol:Diamond",
        "label": "treasuryPercent",
        "offset": 0,
        "slot": "34",
        "type": "t_uint256"
      },
      {
        "astId": 2549,
        "contract": "contracts/Comptroller/Diamond/Diamond.sol:Diamond",
        "label": "venusContributorSpeeds",
        "offset": 0,
        "slot": "35",
        "type": "t_mapping(t_address,t_uint256)"
      },
      {
        "astId": 2553,
        "contract": "contracts/Comptroller/Diamond/Diamond.sol:Diamond",
        "label": "lastContributorBlock",
        "offset": 0,
        "slot": "36",
        "type": "t_mapping(t_address,t_uint256)"
      },
      {
        "astId": 2558,
        "contract": "contracts/Comptroller/Diamond/Diamond.sol:Diamond",
        "label": "liquidatorContract",
        "offset": 0,
        "slot": "37",
        "type": "t_address"
      },
      {
        "astId": 2563,
        "contract": "contracts/Comptroller/Diamond/Diamond.sol:Diamond",
        "label": "comptrollerLens",
        "offset": 0,
        "slot": "38",
        "type": "t_contract(ComptrollerLensInterface)2377"
      },
      {
        "astId": 2570,
        "contract": "contracts/Comptroller/Diamond/Diamond.sol:Diamond",
        "label": "supplyCaps",
        "offset": 0,
        "slot": "39",
        "type": "t_mapping(t_address,t_uint256)"
      },
      {
        "astId": 2575,
        "contract": "contracts/Comptroller/Diamond/Diamond.sol:Diamond",
        "label": "accessControl",
        "offset": 0,
        "slot": "40",
        "type": "t_address"
      },
      {
        "astId": 2581,
        "contract": "contracts/Comptroller/Diamond/Diamond.sol:Diamond",
        "label": "_actionPaused",
        "offset": 0,
        "slot": "41",
        "type": "t_mapping(t_address,t_mapping(t_uint256,t_bool))"
      },
      {
        "astId": 2588,
        "contract": "contracts/Comptroller/Diamond/Diamond.sol:Diamond",
        "label": "venusBorrowSpeeds",
        "offset": 0,
        "slot": "42",
        "type": "t_mapping(t_address,t_uint256)"
      },
      {
        "astId": 2592,
        "contract": "contracts/Comptroller/Diamond/Diamond.sol:Diamond",
        "label": "venusSupplySpeeds",
        "offset": 0,
        "slot": "43",
        "type": "t_mapping(t_address,t_uint256)"
      },
      {
        "astId": 2601,
        "contract": "contracts/Comptroller/Diamond/Diamond.sol:Diamond",
        "label": "approvedDelegates",
        "offset": 0,
        "slot": "44",
        "type": "t_mapping(t_address,t_mapping(t_address,t_bool))"
      },
      {
        "astId": 2608,
        "contract": "contracts/Comptroller/Diamond/Diamond.sol:Diamond",
        "label": "isForcedLiquidationEnabled",
        "offset": 0,
        "slot": "45",
        "type": "t_mapping(t_address,t_bool)"
      },
      {
        "astId": 2626,
        "contract": "contracts/Comptroller/Diamond/Diamond.sol:Diamond",
        "label": "_selectorToFacetAndPosition",
        "offset": 0,
        "slot": "46",
        "type": "t_mapping(t_bytes4,t_struct(FacetAddressAndPosition)2616_storage)"
      },
      {
        "astId": 2630,
        "contract": "contracts/Comptroller/Diamond/Diamond.sol:Diamond",
        "label": "_facetFunctionSelectors",
        "offset": 0,
        "slot": "47",
        "type": "t_mapping(t_address,t_struct(FacetFunctionSelectors)2622_storage)"
      },
      {
        "astId": 2633,
        "contract": "contracts/Comptroller/Diamond/Diamond.sol:Diamond",
        "label": "_facetAddresses",
        "offset": 0,
        "slot": "48",
        "type": "t_array(t_address)dyn_storage"
      },
      {
        "astId": 2638,
        "contract": "contracts/Comptroller/Diamond/Diamond.sol:Diamond",
        "label": "prime",
        "offset": 0,
        "slot": "49",
        "type": "t_contract(IPrime)12283"
      },
      {
        "astId": 2647,
        "contract": "contracts/Comptroller/Diamond/Diamond.sol:Diamond",
        "label": "isForcedLiquidationEnabledForUser",
        "offset": 0,
        "slot": "50",
        "type": "t_mapping(t_address,t_mapping(t_address,t_bool))"
      },
      {
        "astId": 2652,
        "contract": "contracts/Comptroller/Diamond/Diamond.sol:Diamond",
        "label": "xvs",
        "offset": 0,
        "slot": "51",
        "type": "t_address"
      },
      {
        "astId": 2654,
        "contract": "contracts/Comptroller/Diamond/Diamond.sol:Diamond",
        "label": "xvsVToken",
        "offset": 0,
        "slot": "52",
        "type": "t_address"
      }
    ],
    "types": {
      "t_address": {
        "encoding": "inplace",
        "label": "address",
        "numberOfBytes": "20"
      },
      "t_array(t_address)dyn_storage": {
        "base": "t_address",
        "encoding": "dynamic_array",
        "label": "address[]",
        "numberOfBytes": "32"
      },
      "t_array(t_bytes4)dyn_storage": {
        "base": "t_bytes4",
        "encoding": "dynamic_array",
        "label": "bytes4[]",
        "numberOfBytes": "32"
      },
      "t_array(t_contract(VToken)23033)dyn_storage": {
        "base": "t_contract(VToken)23033",
        "encoding": "dynamic_array",
        "label": "contract VToken[]",
        "numberOfBytes": "32"
      },
      "t_bool": {
        "encoding": "inplace",
        "label": "bool",
        "numberOfBytes": "1"
      },
      "t_bytes4": {
        "encoding": "inplace",
        "label": "bytes4",
        "numberOfBytes": "4"
      },
      "t_contract(ComptrollerLensInterface)2377": {
        "encoding": "inplace",
        "label": "contract ComptrollerLensInterface",
        "numberOfBytes": "20"
      },
      "t_contract(IPrime)12283": {
        "encoding": "inplace",
        "label": "contract IPrime",
        "numberOfBytes": "20"
      },
      "t_contract(PriceOracle)12106": {
        "encoding": "inplace",
        "label": "contract PriceOracle",
        "numberOfBytes": "20"
      },
      "t_contract(VAIControllerInterface)15582": {
        "encoding": "inplace",
        "label": "contract VAIControllerInterface",
        "numberOfBytes": "20"
      },
      "t_contract(VToken)23033": {
        "encoding": "inplace",
        "label": "contract VToken",
        "numberOfBytes": "20"
      },
      "t_mapping(t_address,t_array(t_contract(VToken)23033)dyn_storage)": {
        "encoding": "mapping",
        "key": "t_address",
        "label": "mapping(address => contract VToken[])",
        "numberOfBytes": "32",
        "value": "t_array(t_contract(VToken)23033)dyn_storage"
      },
      "t_mapping(t_address,t_bool)": {
        "encoding": "mapping",
        "key": "t_address",
        "label": "mapping(address => bool)",
        "numberOfBytes": "32",
        "value": "t_bool"
      },
      "t_mapping(t_address,t_mapping(t_address,t_bool))": {
        "encoding": "mapping",
        "key": "t_address",
        "label": "mapping(address => mapping(address => bool))",
        "numberOfBytes": "32",
        "value": "t_mapping(t_address,t_bool)"
      },
      "t_mapping(t_address,t_mapping(t_address,t_uint256))": {
        "encoding": "mapping",
        "key": "t_address",
        "label": "mapping(address => mapping(address => uint256))",
        "numberOfBytes": "32",
        "value": "t_mapping(t_address,t_uint256)"
      },
      "t_mapping(t_address,t_mapping(t_uint256,t_bool))": {
        "encoding": "mapping",
        "key": "t_address",
        "label": "mapping(address => mapping(uint256 => bool))",
        "numberOfBytes": "32",
        "value": "t_mapping(t_uint256,t_bool)"
      },
      "t_mapping(t_address,t_struct(FacetFunctionSelectors)2622_storage)": {
        "encoding": "mapping",
        "key": "t_address",
        "label": "mapping(address => struct ComptrollerV13Storage.FacetFunctionSelectors)",
        "numberOfBytes": "32",
        "value": "t_struct(FacetFunctionSelectors)2622_storage"
      },
      "t_mapping(t_address,t_struct(Market)2437_storage)": {
        "encoding": "mapping",
        "key": "t_address",
        "label": "mapping(address => struct ComptrollerV1Storage.Market)",
        "numberOfBytes": "32",
        "value": "t_struct(Market)2437_storage"
      },
      "t_mapping(t_address,t_struct(VenusMarketState)2464_storage)": {
        "encoding": "mapping",
        "key": "t_address",
        "label": "mapping(address => struct ComptrollerV1Storage.VenusMarketState)",
        "numberOfBytes": "32",
        "value": "t_struct(VenusMarketState)2464_storage"
      },
      "t_mapping(t_address,t_uint256)": {
        "encoding": "mapping",
        "key": "t_address",
        "label": "mapping(address => uint256)",
        "numberOfBytes": "32",
        "value": "t_uint256"
      },
      "t_mapping(t_bytes4,t_struct(FacetAddressAndPosition)2616_storage)": {
        "encoding": "mapping",
        "key": "t_bytes4",
        "label": "mapping(bytes4 => struct ComptrollerV13Storage.FacetAddressAndPosition)",
        "numberOfBytes": "32",
        "value": "t_struct(FacetAddressAndPosition)2616_storage"
      },
      "t_mapping(t_uint256,t_bool)": {
        "encoding": "mapping",
        "key": "t_uint256",
        "label": "mapping(uint256 => bool)",
        "numberOfBytes": "32",
        "value": "t_bool"
      },
      "t_struct(FacetAddressAndPosition)2616_storage": {
        "encoding": "inplace",
        "label": "struct ComptrollerV13Storage.FacetAddressAndPosition",
        "members": [
          {
            "astId": 2613,
            "contract": "contracts/Comptroller/Diamond/Diamond.sol:Diamond",
            "label": "facetAddress",
            "offset": 0,
            "slot": "0",
            "type": "t_address"
          },
          {
            "astId": 2615,
            "contract": "contracts/Comptroller/Diamond/Diamond.sol:Diamond",
            "label": "functionSelectorPosition",
            "offset": 20,
            "slot": "0",
            "type": "t_uint96"
          }
        ],
        "numberOfBytes": "32"
      },
      "t_struct(FacetFunctionSelectors)2622_storage": {
        "encoding": "inplace",
        "label": "struct ComptrollerV13Storage.FacetFunctionSelectors",
        "members": [
          {
            "astId": 2619,
            "contract": "contracts/Comptroller/Diamond/Diamond.sol:Diamond",
            "label": "functionSelectors",
            "offset": 0,
            "slot": "0",
            "type": "t_array(t_bytes4)dyn_storage"
          },
          {
            "astId": 2621,
            "contract": "contracts/Comptroller/Diamond/Diamond.sol:Diamond",
            "label": "facetAddressPosition",
            "offset": 0,
            "slot": "1",
            "type": "t_uint256"
          }
        ],
        "numberOfBytes": "64"
      },
      "t_struct(Market)2437_storage": {
        "encoding": "inplace",
        "label": "struct ComptrollerV1Storage.Market",
        "members": [
          {
            "astId": 2428,
            "contract": "contracts/Comptroller/Diamond/Diamond.sol:Diamond",
            "label": "isListed",
            "offset": 0,
            "slot": "0",
            "type": "t_bool"
          },
          {
            "astId": 2430,
            "contract": "contracts/Comptroller/Diamond/Diamond.sol:Diamond",
            "label": "collateralFactorMantissa",
            "offset": 0,
            "slot": "1",
            "type": "t_uint256"
          },
          {
            "astId": 2434,
            "contract": "contracts/Comptroller/Diamond/Diamond.sol:Diamond",
            "label": "accountMembership",
            "offset": 0,
            "slot": "2",
            "type": "t_mapping(t_address,t_bool)"
          },
          {
            "astId": 2436,
            "contract": "contracts/Comptroller/Diamond/Diamond.sol:Diamond",
            "label": "isVenus",
            "offset": 0,
            "slot": "3",
            "type": "t_bool"
          }
        ],
        "numberOfBytes": "128"
      },
      "t_struct(VenusMarketState)2464_storage": {
        "encoding": "inplace",
        "label": "struct ComptrollerV1Storage.VenusMarketState",
        "members": [
          {
            "astId": 2461,
            "contract": "contracts/Comptroller/Diamond/Diamond.sol:Diamond",
            "label": "index",
            "offset": 0,
            "slot": "0",
            "type": "t_uint224"
          },
          {
            "astId": 2463,
            "contract": "contracts/Comptroller/Diamond/Diamond.sol:Diamond",
            "label": "block",
            "offset": 28,
            "slot": "0",
            "type": "t_uint32"
          }
        ],
        "numberOfBytes": "32"
      },
      "t_uint224": {
        "encoding": "inplace",
        "label": "uint224",
        "numberOfBytes": "28"
      },
      "t_uint256": {
        "encoding": "inplace",
        "label": "uint256",
        "numberOfBytes": "32"
      },
      "t_uint32": {
        "encoding": "inplace",
        "label": "uint32",
        "numberOfBytes": "4"
      },
      "t_uint96": {
        "encoding": "inplace",
        "label": "uint96",
        "numberOfBytes": "12"
      }
    }
  }
}