{
  "address": "0x9817823d5C4023EFb6173099928F17bb77CD1d69",
  "abi": [
    {
      "anonymous": false,
      "inputs": [
        {
          "indexed": false,
          "internalType": "uint256",
          "name": "error",
          "type": "uint256"
        },
        {
          "indexed": false,
          "internalType": "uint256",
          "name": "info",
          "type": "uint256"
        },
        {
          "indexed": false,
          "internalType": "uint256",
          "name": "detail",
          "type": "uint256"
        }
      ],
      "name": "Failure",
      "type": "event"
    },
    {
      "anonymous": false,
      "inputs": [
        {
          "indexed": false,
          "internalType": "address",
          "name": "liquidator",
          "type": "address"
        },
        {
          "indexed": false,
          "internalType": "address",
          "name": "borrower",
          "type": "address"
        },
        {
          "indexed": false,
          "internalType": "uint256",
          "name": "repayAmount",
          "type": "uint256"
        },
        {
          "indexed": false,
          "internalType": "address",
          "name": "vTokenCollateral",
          "type": "address"
        },
        {
          "indexed": false,
          "internalType": "uint256",
          "name": "seizeTokens",
          "type": "uint256"
        }
      ],
      "name": "LiquidateVAI",
      "type": "event"
    },
    {
      "anonymous": false,
      "inputs": [
        {
          "indexed": false,
          "internalType": "address",
          "name": "minter",
          "type": "address"
        },
        {
          "indexed": false,
          "internalType": "uint256",
          "name": "feeAmount",
          "type": "uint256"
        }
      ],
      "name": "MintFee",
      "type": "event"
    },
    {
      "anonymous": false,
      "inputs": [
        {
          "indexed": false,
          "internalType": "bool",
          "name": "previousMintEnabledOnlyForPrimeHolder",
          "type": "bool"
        },
        {
          "indexed": false,
          "internalType": "bool",
          "name": "newMintEnabledOnlyForPrimeHolder",
          "type": "bool"
        }
      ],
      "name": "MintOnlyForPrimeHolder",
      "type": "event"
    },
    {
      "anonymous": false,
      "inputs": [
        {
          "indexed": false,
          "internalType": "address",
          "name": "minter",
          "type": "address"
        },
        {
          "indexed": false,
          "internalType": "uint256",
          "name": "mintVAIAmount",
          "type": "uint256"
        }
      ],
      "name": "MintVAI",
      "type": "event"
    },
    {
      "anonymous": false,
      "inputs": [
        {
          "indexed": false,
          "internalType": "address",
          "name": "oldAccessControlAddress",
          "type": "address"
        },
        {
          "indexed": false,
          "internalType": "address",
          "name": "newAccessControlAddress",
          "type": "address"
        }
      ],
      "name": "NewAccessControl",
      "type": "event"
    },
    {
      "anonymous": false,
      "inputs": [
        {
          "indexed": false,
          "internalType": "contract ComptrollerInterface",
          "name": "oldComptroller",
          "type": "address"
        },
        {
          "indexed": false,
          "internalType": "contract ComptrollerInterface",
          "name": "newComptroller",
          "type": "address"
        }
      ],
      "name": "NewComptroller",
      "type": "event"
    },
    {
      "anonymous": false,
      "inputs": [
        {
          "indexed": false,
          "internalType": "address",
          "name": "oldPrime",
          "type": "address"
        },
        {
          "indexed": false,
          "internalType": "address",
          "name": "newPrime",
          "type": "address"
        }
      ],
      "name": "NewPrime",
      "type": "event"
    },
    {
      "anonymous": false,
      "inputs": [
        {
          "indexed": false,
          "internalType": "address",
          "name": "oldTreasuryAddress",
          "type": "address"
        },
        {
          "indexed": false,
          "internalType": "address",
          "name": "newTreasuryAddress",
          "type": "address"
        }
      ],
      "name": "NewTreasuryAddress",
      "type": "event"
    },
    {
      "anonymous": false,
      "inputs": [
        {
          "indexed": false,
          "internalType": "address",
          "name": "oldTreasuryGuardian",
          "type": "address"
        },
        {
          "indexed": false,
          "internalType": "address",
          "name": "newTreasuryGuardian",
          "type": "address"
        }
      ],
      "name": "NewTreasuryGuardian",
      "type": "event"
    },
    {
      "anonymous": false,
      "inputs": [
        {
          "indexed": false,
          "internalType": "uint256",
          "name": "oldTreasuryPercent",
          "type": "uint256"
        },
        {
          "indexed": false,
          "internalType": "uint256",
          "name": "newTreasuryPercent",
          "type": "uint256"
        }
      ],
      "name": "NewTreasuryPercent",
      "type": "event"
    },
    {
      "anonymous": false,
      "inputs": [
        {
          "indexed": false,
          "internalType": "uint256",
          "name": "oldBaseRateMantissa",
          "type": "uint256"
        },
        {
          "indexed": false,
          "internalType": "uint256",
          "name": "newBaseRateMantissa",
          "type": "uint256"
        }
      ],
      "name": "NewVAIBaseRate",
      "type": "event"
    },
    {
      "anonymous": false,
      "inputs": [
        {
          "indexed": false,
          "internalType": "uint256",
          "name": "oldFloatRateMantissa",
          "type": "uint256"
        },
        {
          "indexed": false,
          "internalType": "uint256",
          "name": "newFlatRateMantissa",
          "type": "uint256"
        }
      ],
      "name": "NewVAIFloatRate",
      "type": "event"
    },
    {
      "anonymous": false,
      "inputs": [
        {
          "indexed": false,
          "internalType": "uint256",
          "name": "oldMintCap",
          "type": "uint256"
        },
        {
          "indexed": false,
          "internalType": "uint256",
          "name": "newMintCap",
          "type": "uint256"
        }
      ],
      "name": "NewVAIMintCap",
      "type": "event"
    },
    {
      "anonymous": false,
      "inputs": [
        {
          "indexed": false,
          "internalType": "address",
          "name": "oldReceiver",
          "type": "address"
        },
        {
          "indexed": false,
          "internalType": "address",
          "name": "newReceiver",
          "type": "address"
        }
      ],
      "name": "NewVAIReceiver",
      "type": "event"
    },
    {
      "anonymous": false,
      "inputs": [
        {
          "indexed": false,
          "internalType": "address",
          "name": "oldVaiToken",
          "type": "address"
        },
        {
          "indexed": false,
          "internalType": "address",
          "name": "newVaiToken",
          "type": "address"
        }
      ],
      "name": "NewVaiToken",
      "type": "event"
    },
    {
      "anonymous": false,
      "inputs": [
        {
          "indexed": false,
          "internalType": "address",
          "name": "payer",
          "type": "address"
        },
        {
          "indexed": false,
          "internalType": "address",
          "name": "borrower",
          "type": "address"
        },
        {
          "indexed": false,
          "internalType": "uint256",
          "name": "repayVAIAmount",
          "type": "uint256"
        }
      ],
      "name": "RepayVAI",
      "type": "event"
    },
    {
      "constant": true,
      "inputs": [],
      "name": "INITIAL_VAI_MINT_INDEX",
      "outputs": [
        {
          "internalType": "uint256",
          "name": "",
          "type": "uint256"
        }
      ],
      "payable": false,
      "stateMutability": "view",
      "type": "function"
    },
    {
      "constant": false,
      "inputs": [
        {
          "internalType": "contract VAIUnitroller",
          "name": "unitroller",
          "type": "address"
        }
      ],
      "name": "_become",
      "outputs": [],
      "payable": false,
      "stateMutability": "nonpayable",
      "type": "function"
    },
    {
      "constant": false,
      "inputs": [
        {
          "internalType": "contract ComptrollerInterface",
          "name": "comptroller_",
          "type": "address"
        }
      ],
      "name": "_setComptroller",
      "outputs": [
        {
          "internalType": "uint256",
          "name": "",
          "type": "uint256"
        }
      ],
      "payable": false,
      "stateMutability": "nonpayable",
      "type": "function"
    },
    {
      "constant": false,
      "inputs": [
        {
          "internalType": "address",
          "name": "newTreasuryGuardian",
          "type": "address"
        },
        {
          "internalType": "address",
          "name": "newTreasuryAddress",
          "type": "address"
        },
        {
          "internalType": "uint256",
          "name": "newTreasuryPercent",
          "type": "uint256"
        }
      ],
      "name": "_setTreasuryData",
      "outputs": [
        {
          "internalType": "uint256",
          "name": "",
          "type": "uint256"
        }
      ],
      "payable": false,
      "stateMutability": "nonpayable",
      "type": "function"
    },
    {
      "constant": true,
      "inputs": [],
      "name": "accessControl",
      "outputs": [
        {
          "internalType": "address",
          "name": "",
          "type": "address"
        }
      ],
      "payable": false,
      "stateMutability": "view",
      "type": "function"
    },
    {
      "constant": false,
      "inputs": [],
      "name": "accrueVAIInterest",
      "outputs": [],
      "payable": false,
      "stateMutability": "nonpayable",
      "type": "function"
    },
    {
      "constant": true,
      "inputs": [],
      "name": "admin",
      "outputs": [
        {
          "internalType": "address",
          "name": "",
          "type": "address"
        }
      ],
      "payable": false,
      "stateMutability": "view",
      "type": "function"
    },
    {
      "constant": true,
      "inputs": [],
      "name": "baseRateMantissa",
      "outputs": [
        {
          "internalType": "uint256",
          "name": "",
          "type": "uint256"
        }
      ],
      "payable": false,
      "stateMutability": "view",
      "type": "function"
    },
    {
      "constant": true,
      "inputs": [],
      "name": "comptroller",
      "outputs": [
        {
          "internalType": "contract ComptrollerInterface",
          "name": "",
          "type": "address"
        }
      ],
      "payable": false,
      "stateMutability": "view",
      "type": "function"
    },
    {
      "constant": true,
      "inputs": [],
      "name": "floatRateMantissa",
      "outputs": [
        {
          "internalType": "uint256",
          "name": "",
          "type": "uint256"
        }
      ],
      "payable": false,
      "stateMutability": "view",
      "type": "function"
    },
    {
      "constant": true,
      "inputs": [],
      "name": "getBlocksPerYear",
      "outputs": [
        {
          "internalType": "uint256",
          "name": "",
          "type": "uint256"
        }
      ],
      "payable": false,
      "stateMutability": "view",
      "type": "function"
    },
    {
      "constant": true,
      "inputs": [
        {
          "internalType": "address",
          "name": "minter",
          "type": "address"
        }
      ],
      "name": "getMintableVAI",
      "outputs": [
        {
          "internalType": "uint256",
          "name": "",
          "type": "uint256"
        },
        {
          "internalType": "uint256",
          "name": "",
          "type": "uint256"
        }
      ],
      "payable": false,
      "stateMutability": "view",
      "type": "function"
    },
    {
      "constant": true,
      "inputs": [],
      "name": "getVAIAddress",
      "outputs": [
        {
          "internalType": "address",
          "name": "",
          "type": "address"
        }
      ],
      "payable": false,
      "stateMutability": "view",
      "type": "function"
    },
    {
      "constant": true,
      "inputs": [
        {
          "internalType": "address",
          "name": "borrower",
          "type": "address"
        },
        {
          "internalType": "uint256",
          "name": "repayAmount",
          "type": "uint256"
        }
      ],
      "name": "getVAICalculateRepayAmount",
      "outputs": [
        {
          "internalType": "uint256",
          "name": "",
          "type": "uint256"
        },
        {
          "internalType": "uint256",
          "name": "",
          "type": "uint256"
        },
        {
          "internalType": "uint256",
          "name": "",
          "type": "uint256"
        }
      ],
      "payable": false,
      "stateMutability": "view",
      "type": "function"
    },
    {
      "constant": true,
      "inputs": [
        {
          "internalType": "address",
          "name": "minter",
          "type": "address"
        }
      ],
      "name": "getVAIMinterInterestIndex",
      "outputs": [
        {
          "internalType": "uint256",
          "name": "",
          "type": "uint256"
        }
      ],
      "payable": false,
      "stateMutability": "view",
      "type": "function"
    },
    {
      "constant": true,
      "inputs": [
        {
          "internalType": "address",
          "name": "account",
          "type": "address"
        }
      ],
      "name": "getVAIRepayAmount",
      "outputs": [
        {
          "internalType": "uint256",
          "name": "",
          "type": "uint256"
        }
      ],
      "payable": false,
      "stateMutability": "view",
      "type": "function"
    },
    {
      "constant": true,
      "inputs": [],
      "name": "getVAIRepayRate",
      "outputs": [
        {
          "internalType": "uint256",
          "name": "",
          "type": "uint256"
        }
      ],
      "payable": false,
      "stateMutability": "view",
      "type": "function"
    },
    {
      "constant": true,
      "inputs": [],
      "name": "getVAIRepayRatePerBlock",
      "outputs": [
        {
          "internalType": "uint256",
          "name": "",
          "type": "uint256"
        }
      ],
      "payable": false,
      "stateMutability": "view",
      "type": "function"
    },
    {
      "constant": false,
      "inputs": [],
      "name": "initialize",
      "outputs": [],
      "payable": false,
      "stateMutability": "nonpayable",
      "type": "function"
    },
    {
      "constant": true,
      "inputs": [],
      "name": "isVenusVAIInitialized",
      "outputs": [
        {
          "internalType": "bool",
          "name": "",
          "type": "bool"
        }
      ],
      "payable": false,
      "stateMutability": "view",
      "type": "function"
    },
    {
      "constant": false,
      "inputs": [
        {
          "internalType": "address",
          "name": "borrower",
          "type": "address"
        },
        {
          "internalType": "uint256",
          "name": "repayAmount",
          "type": "uint256"
        },
        {
          "internalType": "contract VTokenInterface",
          "name": "vTokenCollateral",
          "type": "address"
        }
      ],
      "name": "liquidateVAI",
      "outputs": [
        {
          "internalType": "uint256",
          "name": "",
          "type": "uint256"
        },
        {
          "internalType": "uint256",
          "name": "",
          "type": "uint256"
        }
      ],
      "payable": false,
      "stateMutability": "nonpayable",
      "type": "function"
    },
    {
      "constant": true,
      "inputs": [],
      "name": "mintCap",
      "outputs": [
        {
          "internalType": "uint256",
          "name": "",
          "type": "uint256"
        }
      ],
      "payable": false,
      "stateMutability": "view",
      "type": "function"
    },
    {
      "constant": true,
      "inputs": [],
      "name": "mintEnabledOnlyForPrimeHolder",
      "outputs": [
        {
          "internalType": "bool",
          "name": "",
          "type": "bool"
        }
      ],
      "payable": false,
      "stateMutability": "view",
      "type": "function"
    },
    {
      "constant": false,
      "inputs": [
        {
          "internalType": "uint256",
          "name": "mintVAIAmount",
          "type": "uint256"
        }
      ],
      "name": "mintVAI",
      "outputs": [
        {
          "internalType": "uint256",
          "name": "",
          "type": "uint256"
        }
      ],
      "payable": false,
      "stateMutability": "nonpayable",
      "type": "function"
    },
    {
      "constant": true,
      "inputs": [
        {
          "internalType": "address",
          "name": "",
          "type": "address"
        }
      ],
      "name": "pastVAIInterest",
      "outputs": [
        {
          "internalType": "uint256",
          "name": "",
          "type": "uint256"
        }
      ],
      "payable": false,
      "stateMutability": "view",
      "type": "function"
    },
    {
      "constant": true,
      "inputs": [],
      "name": "pendingAdmin",
      "outputs": [
        {
          "internalType": "address",
          "name": "",
          "type": "address"
        }
      ],
      "payable": false,
      "stateMutability": "view",
      "type": "function"
    },
    {
      "constant": true,
      "inputs": [],
      "name": "pendingVAIControllerImplementation",
      "outputs": [
        {
          "internalType": "address",
          "name": "",
          "type": "address"
        }
      ],
      "payable": false,
      "stateMutability": "view",
      "type": "function"
    },
    {
      "constant": true,
      "inputs": [],
      "name": "prime",
      "outputs": [
        {
          "internalType": "address",
          "name": "",
          "type": "address"
        }
      ],
      "payable": false,
      "stateMutability": "view",
      "type": "function"
    },
    {
      "constant": true,
      "inputs": [],
      "name": "receiver",
      "outputs": [
        {
          "internalType": "address",
          "name": "",
          "type": "address"
        }
      ],
      "payable": false,
      "stateMutability": "view",
      "type": "function"
    },
    {
      "constant": false,
      "inputs": [
        {
          "internalType": "uint256",
          "name": "repayVAIAmount",
          "type": "uint256"
        }
      ],
      "name": "repayVAI",
      "outputs": [
        {
          "internalType": "uint256",
          "name": "",
          "type": "uint256"
        },
        {
          "internalType": "uint256",
          "name": "",
          "type": "uint256"
        }
      ],
      "payable": false,
      "stateMutability": "nonpayable",
      "type": "function"
    },
    {
      "constant": false,
      "inputs": [
        {
          "internalType": "address",
          "name": "newAccessControlAddress",
          "type": "address"
        }
      ],
      "name": "setAccessControl",
      "outputs": [],
      "payable": false,
      "stateMutability": "nonpayable",
      "type": "function"
    },
    {
      "constant": false,
      "inputs": [
        {
          "internalType": "uint256",
          "name": "newBaseRateMantissa",
          "type": "uint256"
        }
      ],
      "name": "setBaseRate",
      "outputs": [],
      "payable": false,
      "stateMutability": "nonpayable",
      "type": "function"
    },
    {
      "constant": false,
      "inputs": [
        {
          "internalType": "uint256",
          "name": "newFloatRateMantissa",
          "type": "uint256"
        }
      ],
      "name": "setFloatRate",
      "outputs": [],
      "payable": false,
      "stateMutability": "nonpayable",
      "type": "function"
    },
    {
      "constant": false,
      "inputs": [
        {
          "internalType": "uint256",
          "name": "_mintCap",
          "type": "uint256"
        }
      ],
      "name": "setMintCap",
      "outputs": [],
      "payable": false,
      "stateMutability": "nonpayable",
      "type": "function"
    },
    {
      "constant": false,
      "inputs": [
        {
          "internalType": "address",
          "name": "prime_",
          "type": "address"
        }
      ],
      "name": "setPrimeToken",
      "outputs": [],
      "payable": false,
      "stateMutability": "nonpayable",
      "type": "function"
    },
    {
      "constant": false,
      "inputs": [
        {
          "internalType": "address",
          "name": "newReceiver",
          "type": "address"
        }
      ],
      "name": "setReceiver",
      "outputs": [],
      "payable": false,
      "stateMutability": "nonpayable",
      "type": "function"
    },
    {
      "constant": false,
      "inputs": [
        {
          "internalType": "address",
          "name": "vai_",
          "type": "address"
        }
      ],
      "name": "setVAIToken",
      "outputs": [],
      "payable": false,
      "stateMutability": "nonpayable",
      "type": "function"
    },
    {
      "constant": false,
      "inputs": [],
      "name": "toggleOnlyPrimeHolderMint",
      "outputs": [
        {
          "internalType": "uint256",
          "name": "",
          "type": "uint256"
        }
      ],
      "payable": false,
      "stateMutability": "nonpayable",
      "type": "function"
    },
    {
      "constant": true,
      "inputs": [],
      "name": "treasuryAddress",
      "outputs": [
        {
          "internalType": "address",
          "name": "",
          "type": "address"
        }
      ],
      "payable": false,
      "stateMutability": "view",
      "type": "function"
    },
    {
      "constant": true,
      "inputs": [],
      "name": "treasuryGuardian",
      "outputs": [
        {
          "internalType": "address",
          "name": "",
          "type": "address"
        }
      ],
      "payable": false,
      "stateMutability": "view",
      "type": "function"
    },
    {
      "constant": true,
      "inputs": [],
      "name": "treasuryPercent",
      "outputs": [
        {
          "internalType": "uint256",
          "name": "",
          "type": "uint256"
        }
      ],
      "payable": false,
      "stateMutability": "view",
      "type": "function"
    },
    {
      "constant": true,
      "inputs": [],
      "name": "vaiControllerImplementation",
      "outputs": [
        {
          "internalType": "address",
          "name": "",
          "type": "address"
        }
      ],
      "payable": false,
      "stateMutability": "view",
      "type": "function"
    },
    {
      "constant": true,
      "inputs": [],
      "name": "vaiMintIndex",
      "outputs": [
        {
          "internalType": "uint256",
          "name": "",
          "type": "uint256"
        }
      ],
      "payable": false,
      "stateMutability": "view",
      "type": "function"
    },
    {
      "constant": true,
      "inputs": [
        {
          "internalType": "address",
          "name": "",
          "type": "address"
        }
      ],
      "name": "venusVAIMinterIndex",
      "outputs": [
        {
          "internalType": "uint256",
          "name": "",
          "type": "uint256"
        }
      ],
      "payable": false,
      "stateMutability": "view",
      "type": "function"
    },
    {
      "constant": true,
      "inputs": [],
      "name": "venusVAIState",
      "outputs": [
        {
          "internalType": "uint224",
          "name": "index",
          "type": "uint224"
        },
        {
          "internalType": "uint32",
          "name": "block",
          "type": "uint32"
        }
      ],
      "payable": false,
      "stateMutability": "view",
      "type": "function"
    }
  ],
  "transactionHash": "0x71f21e4695e07f1756e23480a7dc821585f599ac607168a931611fabebf41882",
  "args": [],
  "numDeployments": 1,
  "solcInputHash": "7830d2b3dd486e9651687b362529ec15",
  "bytecode": "0x608060405234801561001057600080fd5b50614515806100206000396000f3fe608060405234801561001057600080fd5b506004361061027e5760003560e01c8063691e45ac1161015c578063b49b1005116100ce578063d24febad11610087578063d24febad1461061d578063e44e616814610653578063ee1fa41e14610683578063f20fd8f41461068b578063f7260d3e146106b1578063f851a440146106b95761027e565b8063b49b1005146105cf578063b9ee8726146105d7578063c32094c7146105df578063c5f956af14610605578063c7ee005e1461060d578063cbeb2b28146106155761027e565b806376c71ca11161012057806376c71ca11461058157806378c2f922146105895780638129fc1c146105af578063b06bb426146105b7578063b2b481bc146105bf578063b2eafc39146105c75761027e565b8063691e45ac146104e45780636fe74a211461052e578063718da7ee1461054b578063741de1481461057157806375c3de43146105795761027e565b80633b5a0a64116101f55780635ce73240116101b95780635ce73240146104825780635fe3b5671461048a57806360c954ef1461049257806361b3311c146104ae57806365097954146104d4578063657bdf94146104dc5761027e565b80633b5a0a64146103fd5780633b72fbef1461041a5780634070a0c9146104225780634576b5db1461043f5780634712ee7d146104655761027e565b80631d08837b116102475780631d08837b146103405780631d504dc61461035d578063234f89771461038357806324650602146103a957806326782247146103cf5780633785d1d6146103d75761027e565b80623b58841461028357806304ef9d58146102a757806311b3d5e7146102c157806313007d551461031057806319129e5a14610318575b600080fd5b61028b6106c1565b604080516001600160a01b039092168252519081900360200190f35b6102af6106d0565b60408051918252519081900360200190f35b6102f7600480360360608110156102d757600080fd5b506001600160a01b038135811691602081013591604090910135166106d6565b6040805192835260208301919091528051918290030190f35b61028b61089b565b61033e6004803603602081101561032e57600080fd5b50356001600160a01b03166108aa565b005b61033e6004803603602081101561035657600080fd5b5035610965565b61033e6004803603602081101561037357600080fd5b50356001600160a01b03166109e1565b6102af6004803603602081101561039957600080fd5b50356001600160a01b0316610b40565b6102af600480360360208110156103bf57600080fd5b50356001600160a01b0316610b77565b61028b610b89565b6102f7600480360360208110156103ed57600080fd5b50356001600160a01b0316610b98565b61033e6004803603602081101561041357600080fd5b503561153e565b6102af6115bb565b61033e6004803603602081101561043857600080fd5b50356115c1565b6102af6004803603602081101561045557600080fd5b50356001600160a01b031661163c565b6102af6004803603602081101561047b57600080fd5b50356116ca565b6102af611f4a565b61028b611f50565b61049a611f5f565b604080519115158252519081900360200190f35b61033e600480360360208110156104c457600080fd5b50356001600160a01b0316611f68565b6102af612022565b6102af61202e565b610510600480360360408110156104fa57600080fd5b506001600160a01b03813516906020013561210d565b60408051938452602084019290925282820152519081900360600190f35b6102f76004803603602081101561054457600080fd5b5035612687565b61033e6004803603602081101561056157600080fd5b50356001600160a01b0316612821565b6102af61292f565b6102af612936565b6102af6129ad565b6102af6004803603602081101561059f57600080fd5b50356001600160a01b03166129b3565b61033e612c48565b61028b612d0f565b6102af612d1e565b61028b612d24565b61033e612d33565b6102af612e3c565b61033e600480360360208110156105f557600080fd5b50356001600160a01b031661310a565b61028b6131c4565b61028b6131d3565b61028b6131e2565b6102af6004803603606081101561063357600080fd5b506001600160a01b038135811691602081013590911690604001356131f1565b61065b613394565b604080516001600160e01b03909316835263ffffffff90911660208301528051918290030190f35b61049a6133b2565b6102af600480360360208110156106a157600080fd5b50356001600160a01b03166133c2565b61028b6133d4565b61028b6133e3565b6002546001600160a01b031681565b600a5481565b600b54600090819060ff1661071f576040805162461bcd60e51b815260206004820152600a6024820152691c994b595b9d195c995960b21b604482015290519081900360640190fd5b600b805460ff19169055600480546040805163084bf5ab60e31b815290516001600160a01b039092169263425fad58928282019260209290829003018186803b15801561076b57600080fd5b505afa15801561077f573d6000803e3d6000fd5b505050506040513d602081101561079557600080fd5b5051156107de576040805162461bcd60e51b81526020600482015260126024820152711c1c9bdd1bd8dbdb081a5cc81c185d5cd95960721b604482015290519081900360640190fd5b6000836001600160a01b031663a6afed956040518163ffffffff1660e01b8152600401602060405180830381600087803b15801561081b57600080fd5b505af115801561082f573d6000803e3d6000fd5b505050506040513d602081101561084557600080fd5b5051905080156108725761086581600681111561085e57fe5b60086133f2565b9250600091506108849050565b61087e33878787613458565b92509250505b600b805460ff191660011790559094909350915050565b6014546001600160a01b031681565b6000546001600160a01b031633146108fa576040805162461bcd60e51b815260206004820152600e60248201526d37b7363c9030b236b4b71031b0b760911b604482015290519081900360640190fd5b610903816139b3565b601480546001600160a01b038381166001600160a01b0319831617928390556040805192821680845293909116602083015280517f0f1eca7612e020f6e4582bcead0573eba4b5f7b56668754c6aed82ef12057dd49281900390910190a15050565b61099a6040518060400160405280601481526020017373657442617365526174652875696e743235362960601b815250613a06565b600c805490829055604080518281526020810184905281517fc84c32795e68685ec107b0e94ae126ef464095f342c7e2e0fec06a23d2e8677e929181900390910190a15050565b806001600160a01b031663f851a4406040518163ffffffff1660e01b815260040160206040518083038186803b158015610a1a57600080fd5b505afa158015610a2e573d6000803e3d6000fd5b505050506040513d6020811015610a4457600080fd5b50516001600160a01b03163314610a8c5760405162461bcd60e51b81526004018080602001828103825260278152602001806144ba6027913960400191505060405180910390fd5b806001600160a01b031663c1e803346040518163ffffffff1660e01b8152600401602060405180830381600087803b158015610ac757600080fd5b505af1158015610adb573d6000803e3d6000fd5b505050506040513d6020811015610af157600080fd5b505115610b3d576040805162461bcd60e51b815260206004820152601560248201527418da185b99d9481b9bdd08185d5d1a1bdc9a5e9959605a1b604482015290519081900360640190fd5b50565b6001600160a01b03811660009081526011602052604081205480610b6f57670de0b6b3a7640000915050610b72565b90505b919050565b60076020526000908152604090205481565b6001546001600160a01b031681565b6015546000908190600160a01b900460ff168015610c2c575060155460408051630e3da90d60e21b81526001600160a01b038681166004830152915191909216916338f6a434916024808301926020929190829003018186803b158015610bfe57600080fd5b505afa158015610c12573d6000803e3d6000fd5b505050506040513d6020811015610c2857600080fd5b5051155b15610c3d5750600290506000611539565b6000600460009054906101000a90046001600160a01b03166001600160a01b0316637dc0d1d06040518163ffffffff1660e01b815260040160206040518083038186803b158015610c8d57600080fd5b505afa158015610ca1573d6000803e3d6000fd5b505050506040513d6020811015610cb757600080fd5b50516004805460408051632aff3bff60e21b81526001600160a01b03898116948201949094529051939450606093929091169163abfceffc91602480820192600092909190829003018186803b158015610d1057600080fd5b505afa158015610d24573d6000803e3d6000fd5b505050506040513d6000823e601f3d908101601f191682016040526020811015610d4d57600080fd5b8101908080516040519392919084640100000000821115610d6d57600080fd5b908301906020820185811115610d8257600080fd5b8251866020820283011164010000000082111715610d9f57600080fd5b82525081516020918201928201910280838360005b83811015610dcc578181015183820152602001610db4565b505050509050016040525050509050610de36142c8565b6000805b835181101561127057838181518110610dfc57fe5b60200260200101516001600160a01b031663c37f68e2896040518263ffffffff1660e01b815260040180826001600160a01b03166001600160a01b0316815260200191505060806040518083038186803b158015610e5957600080fd5b505afa158015610e6d573d6000803e3d6000fd5b505050506040513d6080811015610e8357600080fd5b5080516020820151604083015160609093015160e087015260c086019290925260a085019190915280845215610ec75760035b965060009550611539945050505050565b60405180602001604052808460e00151815250836101200181905250846001600160a01b031663fc57d4df858381518110610efe57fe5b60200260200101516040518263ffffffff1660e01b815260040180826001600160a01b03166001600160a01b0316815260200191505060206040518083038186803b158015610f4c57600080fd5b505afa158015610f60573d6000803e3d6000fd5b505050506040513d6020811015610f7657600080fd5b50516101008401819052610f8b576004610eb6565b604080516020810190915261010084015181526101408401819052610120840151610fb591613b27565b610160850181905260208501826003811115610fcd57fe5b6003811115610fd857fe5b9052506000905083602001516003811115610fef57fe5b14610ffb576005610eb6565b61100e8361016001518460a00151613c12565b606085018190526020850182600381111561102557fe5b600381111561103057fe5b905250600090508360200151600381111561104757fe5b14611053576005610eb6565b60045484516000916001600160a01b031690638e8f294b9087908590811061107757fe5b60200260200101516040518263ffffffff1660e01b815260040180826001600160a01b03166001600160a01b03168152602001915050604080518083038186803b1580156110c457600080fd5b505afa1580156110d8573d6000803e3d6000fd5b505050506040513d60408110156110ee57600080fd5b506020015160608501519091506111059082613c65565b606086018190526020860182600381111561111c57fe5b600381111561112757fe5b905250600090508460200151600381111561113e57fe5b146111585760055b97506000965061153995505050505050565b61116e8460600151670de0b6b3a7640000613ca4565b606086018190526020860182600381111561118557fe5b600381111561119057fe5b90525060009050846020015160038111156111a757fe5b146111b3576005611146565b6111c584604001518560600151613ccf565b60408601819052602086018260038111156111dc57fe5b60038111156111e757fe5b90525060009050846020015160038111156111fe57fe5b1461120a576005611146565b6112228461014001518560c001518660800151613cf5565b608086018190526020860182600381111561123957fe5b600381111561124457fe5b905250600090508460200151600381111561125b57fe5b14611267576005611146565b50600101610de7565b60048054604080516315e3f14f60e11b81526001600160a01b038c811694820194909452905160009390921691632bc7e29e91602480820192602092909190829003018186803b1580156112c357600080fd5b505afa1580156112d7573d6000803e3d6000fd5b505050506040513d60208110156112ed57600080fd5b5051905060008115611305576113028a6129b3565b90505b611313856080015182613ccf565b608087018190526020870182600381111561132a57fe5b600381111561133557fe5b905250600090508560200151600381111561134c57fe5b146113675760055b9850600097506115399650505050505050565b6113ee8560400151600460009054906101000a90046001600160a01b03166001600160a01b031663bec04f726040518163ffffffff1660e01b815260040160206040518083038186803b1580156113bd57600080fd5b505afa1580156113d1573d6000803e3d6000fd5b505050506040513d60208110156113e757600080fd5b5051613c65565b8660200181965082600381111561140157fe5b600381111561140c57fe5b905250600090508560200151600381111561142357fe5b1461145f5760405162461bcd60e51b81526004018080602001828103825260228152602001806143a36022913960400191505060405180910390fd5b61146b84612710613ca4565b8660200181965082600381111561147e57fe5b600381111561148957fe5b90525060009050856020015160038111156114a057fe5b146114dc5760405162461bcd60e51b81526004018080602001828103825260228152602001806143a36022913960400191505060405180910390fd5b6114ea848660800151613d51565b866020018196508260038111156114fd57fe5b600381111561150857fe5b905250600090508560200151600381111561151f57fe5b1461152b576002611354565b600098509296505050505050505b915091565b61157460405180604001604052806015815260200174736574466c6f6174526174652875696e743235362960581b815250613a06565b600d805490829055604080518281526020810184905281517f546fb35dbbd92233aecc22b5a11a6791e5db7ec14f62e49cbac2a10c0437f561929181900390910190a15050565b600c5481565b6115f5604051806040016040528060138152602001727365744d696e744361702875696e743235362960681b815250613a06565b6013805490829055604080518281526020810184905281517f43862b3eea2df8fce70329f3f84cbcad220f47a73be46c5e00df25165a6e1695929181900390910190a15050565b600080546001600160a01b031633146116625761165b600160026133f2565b9050610b72565b600480546001600160a01b038481166001600160a01b0319831681179093556040805191909216808252602082019390935281517f7ac369dbd14fa5ea3f473ed67cc9d598964a77501540ba6751eb0b3decf5870d929181900390910190a160009392505050565b600b5460009060ff16611711576040805162461bcd60e51b815260206004820152600a6024820152691c994b595b9d195c995960b21b604482015290519081900360640190fd5b600b805460ff191690556004546001600160a01b031615611f385760008211611781576040805162461bcd60e51b815260206004820152601c60248201527f6d696e74564149416d6f756e742063616e6e6f74206265207a65726f00000000604482015290519081900360640190fd5b600480546040805163084bf5ab60e31b815290516001600160a01b039092169263425fad58928282019260209290829003018186803b1580156117c357600080fd5b505afa1580156117d7573d6000803e3d6000fd5b505050506040513d60208110156117ed57600080fd5b505115611836576040805162461bcd60e51b81526020600482015260126024820152711c1c9bdd1bd8dbdb081a5cc81c185d5cd95960721b604482015290519081900360640190fd5b61183e612d33565b61184661433b565b601654604080516318160ddd60e01b8152905133926001600160a01b03169160009183916318160ddd916004808301926020929190829003018186803b15801561188f57600080fd5b505afa1580156118a3573d6000803e3d6000fd5b505050506040513d60208110156118b957600080fd5b5051905060006118c98288613ccf565b866020018193508260038111156118dc57fe5b60038111156118e757fe5b90525050601354811115611935576040805162461bcd60e51b815260206004820152601060248201526f1b5a5b9d0818d85c081c995858da195960821b604482015290519081900360640190fd5b60008560200151600381111561194757fe5b1461197457611968600560168760200151600381111561196357fe5b613d74565b95505050505050611f38565b61197d84610b98565b608087015280865215611991576002611968565b84608001518711156119a957611968600260056133f2565b60048054604080516315e3f14f60e11b81526001600160a01b0388811694820194909452905160009390921691632bc7e29e91602480820192602092909190829003018186803b1580156119fc57600080fd5b505afa158015611a10573d6000803e3d6000fd5b505050506040513d6020811015611a2657600080fd5b505190508015611b3a576000611a3b866129b3565b90506000611a498284613d51565b89602001819350826003811115611a5c57fe5b6003811115611a6757fe5b9052506000905088602001516003811115611a7e57fe5b14611aa957611a9a600560168a60200151600381111561196357fe5b98505050505050505050611f38565b6001600160a01b038716600090815260126020526040902054611acc9082613ccf565b6001600160a01b03891660009081526012602090815260409091208290558a01826003811115611af857fe5b6003811115611b0357fe5b9052506000905088602001516003811115611b1a57fe5b14611b3657611a9a600560168a60200151600381111561196357fe5b5090505b611b448189613ccf565b6060880181905260208801826003811115611b5b57fe5b6003811115611b6657fe5b9052506000905086602001516003811115611b7d57fe5b14611bb95760405162461bcd60e51b81526004018080602001828103825260228152602001806143a36022913960400191505060405180910390fd5b6004805460608801516040805163fd51a3ad60e01b81526001600160a01b038a8116958201959095526024810192909252516000939092169163fd51a3ad9160448082019260209290919082900301818787803b158015611c1957600080fd5b505af1158015611c2d573d6000803e3d6000fd5b505050506040513d6020811015611c4357600080fd5b505190508015611c5b579650611f3895505050505050565b60408701899052600a54600090819015611e5857611c7f8960400151600a54613c65565b8a602001819450826003811115611c9257fe5b6003811115611c9d57fe5b9052506000905089602001516003811115611cb457fe5b14611ce057611cd0600560168b60200151600381111561196357fe5b9950505050505050505050611f38565b611cf282670de0b6b3a7640000613ca4565b8a602001819450826003811115611d0557fe5b6003811115611d1057fe5b9052506000905089602001516003811115611d2757fe5b14611d4357611cd0600560168b60200151600381111561196357fe5b611d51896040015183613d51565b8a602001819350826003811115611d6457fe5b6003811115611d6f57fe5b9052506000905089602001516003811115611d8657fe5b14611da257611cd0600560168b60200151600381111561196357fe5b600954604080516340c10f1960e01b81526001600160a01b039283166004820152602481018590529051918916916340c10f199160448082019260009290919082900301818387803b158015611df757600080fd5b505af1158015611e0b573d6000803e3d6000fd5b5050604080516001600160a01b038c1681526020810186905281517fb0715a6d41a37c1b0672c22c09a31a0642c1fb3f9efa2d5fd5c6d2d891ee78c69450908190039091019150a1611e5f565b5060408801515b866001600160a01b03166340c10f1989836040518363ffffffff1660e01b815260040180836001600160a01b03166001600160a01b0316815260200182815260200192505050600060405180830381600087803b158015611ebf57600080fd5b505af1158015611ed3573d6000803e3d6000fd5b5050600f546001600160a01b038b1660008181526011602090815260409182902093909355805191825291810185905281517e2e68ab1600fc5e7290e2ceaa79e2f86b4dbaca84a48421e167e0b40409218a9450908190039091019150a16000611cd0565b600b805460ff19166001179055919050565b600d5481565b6004546001600160a01b031681565b60065460ff1681565b6000546001600160a01b03163314611fb8576040805162461bcd60e51b815260206004820152600e60248201526d37b7363c9030b236b4b71031b0b760911b604482015290519081900360640190fd5b601654604080516001600160a01b039283168152918316602083015280517fe45150fb0a88e2274ecbca05ddde9925dd64b6e126ae0fa23ee2d42e668a49d39281900390910190a1601680546001600160a01b0319166001600160a01b0392909216919091179055565b670de0b6b3a764000081565b600061206e6040518060400160405280601b81526020017f746f67676c654f6e6c795072696d65486f6c6465724d696e7428290000000000815250613a06565b601554600160a01b900460ff1615801561209157506015546001600160a01b0316155b1561209e5750600261210a565b60155460408051600160a01b90920460ff161580158352602083015280517f8efa7b6021d602e0cdef814b7435609ee40deb2a0352ca676d10045750516a5f9281900390910190a16015805460ff60a01b198116600160a01b9182900460ff1615909102179055600090505b90565b600080600080600061211e876129b3565b60048054604080516315e3f14f60e11b81526001600160a01b038c81169482019490945290519394506000936121a89386931691632bc7e29e916024808301926020929190829003018186803b15801561217757600080fd5b505afa15801561218b573d6000803e3d6000fd5b505050506040513d60208110156121a157600080fd5b5051613d51565b909350905060008360038111156121bb57fe5b146121f75760405162461bcd60e51b81526004018080602001828103825260228152602001806143c56022913960400191505060405180910390fd5b6001600160a01b03881660009081526012602052604090205461221a9082613ccf565b9093509050600083600381111561222d57fe5b146122695760405162461bcd60e51b81526004018080602001828103825260228152602001806143c56022913960400191505060405180910390fd5b6001600160a01b0388166000908152601260205260408120548290848a106122e9576122958585613d51565b909650925060008660038111156122a857fe5b146122e45760405162461bcd60e51b81526004018080602001828103825260228152602001806143c56022913960400191505060405180910390fd5b612676565b60006122fd8b670de0b6b3a7640000613c65565b9097509050600087600381111561231057fe5b14612362576040805162461bcd60e51b815260206004820152601b60248201527f5641495f504152545f43414c43554c4154494f4e5f4641494c45440000000000604482015290519081900360640190fd5b61236c8187613ca4565b9097509050600087600381111561237f57fe5b146123d1576040805162461bcd60e51b815260206004820152601b60248201527f5641495f504152545f43414c43554c4154494f4e5f4641494c45440000000000604482015290519081900360640190fd5b60006123dd8787613d51565b909850905060008860038111156123f057fe5b1461242c5760405162461bcd60e51b81526004018080602001828103825260248152602001806144756024913960400191505060405180910390fd5b6124368183613c65565b9098509450600088600381111561244957fe5b146124855760405162461bcd60e51b81526004018080602001828103825260228152602001806143c56022913960400191505060405180910390fd5b61249785670de0b6b3a7640000613ca4565b909850945060008860038111156124aa57fe5b146124e65760405162461bcd60e51b81526004018080602001828103825260228152602001806143c56022913960400191505060405180910390fd5b6124f08683613c65565b9098509350600088600381111561250357fe5b1461253f5760405162461bcd60e51b815260040180806020018281038252602e8152602001806143e7602e913960400191505060405180910390fd5b61255184670de0b6b3a7640000613ca4565b9098509350600088600381111561256457fe5b146125a05760405162461bcd60e51b815260040180806020018281038252602e8152602001806143e7602e913960400191505060405180910390fd5b6001600160a01b038d166000908152601260205260409020546125c39083613c65565b909850925060008860038111156125d657fe5b146126125760405162461bcd60e51b815260040180806020018281038252602481526020018061437f6024913960400191505060405180910390fd5b61262483670de0b6b3a7640000613ca4565b9098509250600088600381111561263757fe5b146126735760405162461bcd60e51b815260040180806020018281038252602481526020018061437f6024913960400191505060405180910390fd5b50505b919750955093505050509250925092565b600b54600090819060ff166126d0576040805162461bcd60e51b815260206004820152600a6024820152691c994b595b9d195c995960b21b604482015290519081900360640190fd5b600b805460ff191690556004546001600160a01b03161561280d576126f3612d33565b60008311612748576040805162461bcd60e51b815260206004820152601c60248201527f7265706179564149416d6f756e742063616e6e74206265207a65726f00000000604482015290519081900360640190fd5b600480546040805163084bf5ab60e31b815290516001600160a01b039092169263425fad58928282019260209290829003018186803b15801561278a57600080fd5b505afa15801561279e573d6000803e3d6000fd5b505050506040513d60208110156127b457600080fd5b5051156127fd576040805162461bcd60e51b81526020600482015260126024820152711c1c9bdd1bd8dbdb081a5cc81c185d5cd95960721b604482015290519081900360640190fd5b612808333385613de2565b915091505b600b805460ff191660011790559092909150565b6000546001600160a01b03163314612871576040805162461bcd60e51b815260206004820152600e60248201526d37b7363c9030b236b4b71031b0b760911b604482015290519081900360640190fd5b6001600160a01b0381166128cc576040805162461bcd60e51b815260206004820152601860248201527f696e76616c696420726563656976657220616464726573730000000000000000604482015290519081900360640190fd5b600e80546001600160a01b038381166001600160a01b0319831681179093556040805191909216808252602082019390935281517f4df62dd7d9cc4f480a167c19c616ae5d5bb40db6d0c2bc66dba57068225f00d8929181900390910190a15050565b62a0668090565b600080612941612e3c565b90506000806129578361295261292f565b613ca4565b9092509050600082600381111561296a57fe5b146129a65760405162461bcd60e51b81526004018080602001828103825260218152602001806144996021913960400191505060405180910390fd5b9250505090565b60135481565b600080600080600460009054906101000a90046001600160a01b03166001600160a01b0316632bc7e29e866040518263ffffffff1660e01b815260040180826001600160a01b03166001600160a01b0316815260200191505060206040518083038186803b158015612a2457600080fd5b505afa158015612a38573d6000803e3d6000fd5b505050506040513d6020811015612a4e57600080fd5b50516001600160a01b03861660009081526012602052604081205491925080612a778484613d51565b90965091506000866003811115612a8a57fe5b14612ac65760405162461bcd60e51b81526004018080602001828103825260298152602001806144156029913960400191505060405180910390fd5b612ada600f54612ad58a610b40565b613d51565b90965094506000866003811115612aed57fe5b14612b295760405162461bcd60e51b81526004018080602001828103825260298152602001806144156029913960400191505060405180910390fd5b612b338583613c65565b90965090506000866003811115612b4657fe5b14612b825760405162461bcd60e51b81526004018080602001828103825260298152602001806144156029913960400191505060405180910390fd5b612b9481670de0b6b3a7640000613ca4565b90965090506000866003811115612ba757fe5b14612be35760405162461bcd60e51b81526004018080602001828103825260298152602001806144156029913960400191505060405180910390fd5b612bed8482613ccf565b90965093506000866003811115612c0057fe5b14612c3c5760405162461bcd60e51b81526004018080602001828103825260298152602001806144156029913960400191505060405180910390fd5b50919695505050505050565b6000546001600160a01b03163314612c98576040805162461bcd60e51b815260206004820152600e60248201526d37b7363c9030b236b4b71031b0b760911b604482015290519081900360640190fd5b600f5415612ce3576040805162461bcd60e51b8152602060048201526013602482015272185b1c9958591e481a5b9a5d1a585b1a5e9959606a1b604482015290519081900360640190fd5b670de0b6b3a7640000600f55612cf761424d565b601055600019601355600b805460ff19166001179055565b6003546001600160a01b031681565b600f5481565b6008546001600160a01b031681565b600080612d52612d41612936565b601054612d4c61424d565b03613c65565b90925090506000826003811115612d6557fe5b14612db7576040805162461bcd60e51b815260206004820152601a60248201527f5641495f494e5445524553545f4143435552455f4641494c4544000000000000604482015290519081900360640190fd5b612dc381600f54613ccf565b90925090506000826003811115612dd657fe5b14612e28576040805162461bcd60e51b815260206004820152601a60248201527f5641495f494e5445524553545f4143435552455f4641494c4544000000000000604482015290519081900360640190fd5b600f819055612e3561424d565b6010555050565b60048054604080516307dc0d1d60e41b8152905160009384936001600160a01b031692637dc0d1d09281830192602092829003018186803b158015612e8057600080fd5b505afa158015612e94573d6000803e3d6000fd5b505050506040513d6020811015612eaa57600080fd5b5051600c54909150600090156130ff57600d54156130f3576000826001600160a01b031663fc57d4df612edb6131e2565b6040518263ffffffff1660e01b815260040180826001600160a01b03166001600160a01b0316815260200191505060206040518083038186803b158015612f2157600080fd5b505afa158015612f35573d6000803e3d6000fd5b505050506040513d6020811015612f4b57600080fd5b50519050670de0b6b3a76400008110156130e657600080612f74670de0b6b3a764000084613d51565b90945091506000846003811115612f8757fe5b14612fc35760405162461bcd60e51b81526004018080602001828103825260218152602001806144996021913960400191505060405180910390fd5b612fcf82600d54613c65565b90945091506000846003811115612fe257fe5b1461301e5760405162461bcd60e51b81526004018080602001828103825260218152602001806144996021913960400191505060405180910390fd5b61303082670de0b6b3a7640000613ca4565b9094509150600084600381111561304357fe5b1461307f5760405162461bcd60e51b81526004018080602001828103825260218152602001806144996021913960400191505060405180910390fd5b61308b82600c54613ccf565b9094509050600084600381111561309e57fe5b146130da5760405162461bcd60e51b81526004018080602001828103825260218152602001806144996021913960400191505060405180910390fd5b945061210a9350505050565b600c54935050505061210a565b600c549250505061210a565b60009250505061210a565b6000546001600160a01b0316331461315a576040805162461bcd60e51b815260206004820152600e60248201526d37b7363c9030b236b4b71031b0b760911b604482015290519081900360640190fd5b601554604080516001600160a01b039283168152918316602083015280517ffb26401242c61b503dd09c29da64a5d4f451549f574b882a40bcdc64ee68b83c9281900390910190a1601580546001600160a01b0319166001600160a01b0392909216919091179055565b6009546001600160a01b031681565b6015546001600160a01b031681565b6016546001600160a01b031690565b600080546001600160a01b031633148061321557506008546001600160a01b031633145b61322c57613225600160176133f2565b905061338d565b670de0b6b3a76400008210613288576040805162461bcd60e51b815260206004820152601d60248201527f74726561737572792070657263656e7420636170206f766572666c6f77000000604482015290519081900360640190fd5b6008805460098054600a80546001600160a01b038a81166001600160a01b031980881682179098558a821697851697909717909455908790556040805194841680865260208601969096528051929093169390927f29f06ea15931797ebaed313d81d100963dc22cb213cb4ce2737b5a62b1a8b1e892918290030190a1604080516001600160a01b0380851682528816602082015281517f8de763046d7b8f08b6c3d03543de1d615309417842bb5d2d62f110f65809ddac929181900390910190a1604080518281526020810187905281517f0893f8f4101baaabbeb513f96761e7a36eb837403c82cc651c292a4abdc94ed7929181900390910190a1600093505050505b9392505050565b6005546001600160e01b03811690600160e01b900463ffffffff1682565b601554600160a01b900460ff1681565b60126020526000908152604090205481565b600e546001600160a01b031681565b6000546001600160a01b031681565b60007f45b96fe442630264581b197e84bbada861235052c5a1aadfff9ea4e40a969aa083600681111561342157fe5b83601781111561342d57fe5b604080519283526020830191909152600082820152519081900360600190a182600681111561338d57fe5b60045460009081906001600160a01b0316156139aa57613476612d33565b6004805460408051632fe3f38f60e11b815230938101939093526001600160a01b038681166024850152898116604485015288811660648501526084840188905290516000939190921691635fc7e71e9160a48082019260209290919082900301818787803b1580156134e857600080fd5b505af11580156134fc573d6000803e3d6000fd5b505050506040513d602081101561351257600080fd5b505190508015613536576135296002600a83613d74565b9250600091506139aa9050565b61353e61424d565b846001600160a01b0316636c540baf6040518163ffffffff1660e01b815260040160206040518083038186803b15801561357757600080fd5b505afa15801561358b573d6000803e3d6000fd5b505050506040513d60208110156135a157600080fd5b5051146135b457613529600260096133f2565b866001600160a01b0316866001600160a01b031614156135da576135296002600f6133f2565b846135eb576135296002600d6133f2565b600019851415613601576135296002600c6133f2565b60008061360f898989613de2565b9092509050811561363f5761363082600681111561362957fe5b60106133f2565b9450600093506139aa92505050565b600480546040805163a78dc77560e01b81526001600160a01b038a8116948201949094526024810185905281516000948594169263a78dc7759260448082019391829003018186803b15801561369457600080fd5b505afa1580156136a8573d6000803e3d6000fd5b505050506040513d60408110156136be57600080fd5b508051602090910151909250905081156137095760405162461bcd60e51b815260040180806020018281038252603781526020018061443e6037913960400191505060405180910390fd5b80886001600160a01b03166370a082318c6040518263ffffffff1660e01b815260040180826001600160a01b03166001600160a01b0316815260200191505060206040518083038186803b15801561376057600080fd5b505afa158015613774573d6000803e3d6000fd5b505050506040513d602081101561378a57600080fd5b505110156137df576040805162461bcd60e51b815260206004820152601c60248201527f5641495f4c49515549444154455f5345495a455f544f4f5f4d55434800000000604482015290519081900360640190fd5b6040805163b2a02ff160e01b81526001600160a01b038d811660048301528c811660248301526044820184905291516000928b169163b2a02ff191606480830192602092919082900301818787803b15801561383a57600080fd5b505af115801561384e573d6000803e3d6000fd5b505050506040513d602081101561386457600080fd5b5051905080156138b2576040805162461bcd60e51b81526020600482015260146024820152731d1bdad95b881cd95a5e9d5c994819985a5b195960621b604482015290519081900360640190fd5b604080516001600160a01b03808f168252808e1660208301528183018790528b1660608201526080810184905290517f42d401f96718a0c42e5cea8108973f0022677b7e2e5f4ee19851b2de7a0394e79181900360a00190a160048054604080516347ef3b3b60e01b815230938101939093526001600160a01b038c811660248501528f811660448501528e811660648501526084840188905260a4840186905290519116916347ef3b3b9160c480830192600092919082900301818387803b15801561397e57600080fd5b505af1158015613992573d6000803e3d6000fd5b506000925061399f915050565b975092955050505050505b94509492505050565b6001600160a01b038116610b3d576040805162461bcd60e51b815260206004820152601560248201527463616e2774206265207a65726f206164647265737360581b604482015290519081900360640190fd5b601454604080516318c5e8ab60e01b81523360048201818152602483019384528551604484015285516001600160a01b03909516946318c5e8ab949293879391606490910190602085019080838360005b83811015613a6f578181015183820152602001613a57565b50505050905090810190601f168015613a9c5780820380516001836020036101000a031916815260200191505b50935050505060206040518083038186803b158015613aba57600080fd5b505afa158015613ace573d6000803e3d6000fd5b505050506040513d6020811015613ae457600080fd5b5051610b3d576040805162461bcd60e51b815260206004820152600d60248201526c1858d8d95cdcc819195b9a5959609a1b604482015290519081900360640190fd5b6000613b3161436b565b600080613b4686600001518660000151613c65565b90925090506000826003811115613b5957fe5b14613b7857506040805160208101909152600081529092509050613c0b565b600080613b8d6706f05b59d3b2000084613ccf565b90925090506000826003811115613ba057fe5b14613bc257506040805160208101909152600081529094509250613c0b915050565b600080613bd783670de0b6b3a7640000613ca4565b90925090506000826003811115613bea57fe5b14613bf157fe5b604080516020810190915290815260009750955050505050505b9250929050565b6000806000613c1f61436b565b613c298686614251565b90925090506000826003811115613c3c57fe5b14613c4d5750915060009050613c0b565b6000613c58826142b9565b9350935050509250929050565b60008083613c7857506000905080613c0b565b83830283858281613c8557fe5b0414613c9957506002915060009050613c0b565b600092509050613c0b565b60008082613cb85750600190506000613c0b565b6000838581613cc357fe5b04915091509250929050565b600080838301848110613ce757600092509050613c0b565b506002915060009050613c0b565b6000806000613d0261436b565b613d0c8787614251565b90925090506000826003811115613d1f57fe5b14613d305750915060009050613d49565b613d42613d3c826142b9565b86613ccf565b9350935050505b935093915050565b600080838311613d68575060009050818303613c0b565b50600390506000613c0b565b60007f45b96fe442630264581b197e84bbada861235052c5a1aadfff9ea4e40a969aa0846006811115613da357fe5b846017811115613daf57fe5b604080519283526020830191909152818101859052519081900360600190a1836006811115613dda57fe5b949350505050565b600080600080600080613df5888861210d565b60165460408051632770a7eb60e21b81526001600160a01b038f8116600483015260248201879052915195985093965091945016918291639dc29fac91604480830192600092919082900301818387803b158015613e5257600080fd5b505af1158015613e66573d6000803e3d6000fd5b5050600e54604080516323b872dd60e01b81526001600160a01b038f8116600483015292831660248201526044810188905290516000945091851692506323b872dd91606480830192602092919082900301818787803b158015613ec957600080fd5b505af1158015613edd573d6000803e3d6000fd5b505050506040513d6020811015613ef357600080fd5b50519050600181151514613f4e576040805162461bcd60e51b815260206004820152601a60248201527f6661696c656420746f207472616e736665722056414920666565000000000000604482015290519081900360640190fd5b60048054604080516315e3f14f60e11b81526001600160a01b038e811694820194909452905160009390921691632bc7e29e91602480820192602092909190829003018186803b158015613fa157600080fd5b505afa158015613fb5573d6000803e3d6000fd5b505050506040513d6020811015613fcb57600080fd5b505190506000613fdb8288613d51565b90985090506000886003811115613fee57fe5b1461402a5760405162461bcd60e51b81526004018080602001828103825260228152602001806143c56022913960400191505060405180910390fd5b6140348186613d51565b9098509050600088600381111561404757fe5b146140835760405162461bcd60e51b81526004018080602001828103825260228152602001806143c56022913960400191505060405180910390fd5b6001600160a01b038c166000908152601260205260409020546140a69086613d51565b6001600160a01b038e166000908152601260205260408120919091559098508860038111156140d157fe5b1461410d5760405162461bcd60e51b81526004018080602001828103825260228152602001806143c56022913960400191505060405180910390fd5b6000600460009054906101000a90046001600160a01b03166001600160a01b031663fd51a3ad8e846040518363ffffffff1660e01b815260040180836001600160a01b03166001600160a01b0316815260200182815260200192505050602060405180830381600087803b15801561418457600080fd5b505af1158015614198573d6000803e3d6000fd5b505050506040513d60208110156141ae57600080fd5b5051905080156141cc57995060009850613d49975050505050505050565b7f1db858e6f7e1a0d5e92c10c6507d42b3dabfe0a4867fe90c5a14d9963662ef7e8e8e8a60405180846001600160a01b03166001600160a01b03168152602001836001600160a01b03166001600160a01b03168152602001828152602001935050505060405180910390a160009e979d50969b505050505050505050505050565b4390565b600061425b61436b565b60008061426c866000015186613c65565b9092509050600082600381111561427f57fe5b1461429e57506040805160208101909152600081529092509050613c0b565b60408051602081019091529081526000969095509350505050565b51670de0b6b3a7640000900490565b6040805161018081019091526000808252602082019081526020016000815260200160008152602001600081526020016000815260200160008152602001600081526020016000815260200161431c61436b565b815260200161432961436b565b815260200161433661436b565b905290565b6040805160a081019091526000808252602082019081526020016000815260200160008152602001600081525090565b604051806020016040528060008152509056fe5641495f504153545f494e5445524553545f43414c43554c4154494f4e5f4641494c45445641495f4d494e545f414d4f554e545f43414c43554c4154494f4e5f4641494c45445641495f4255524e5f414d4f554e545f43414c43554c4154494f4e5f4641494c45445641495f43555252454e545f494e5445524553545f414d4f554e545f43414c43554c4154494f4e5f4641494c45445641495f544f54414c5f52455041595f414d4f554e545f43414c43554c4154494f4e5f4641494c45445641495f4c49515549444154455f434f4d5054524f4c4c45525f43414c43554c4154455f414d4f554e545f5345495a455f4641494c45445641495f4d494e5445445f414d4f554e545f43414c43554c4154494f4e5f4641494c45445641495f52455041595f524154455f43414c43554c4154494f4e5f4641494c45446f6e6c7920756e6974726f6c6c65722061646d696e2063616e206368616e676520627261696e73a265627a7a72315820009e524be3c8d5acac97b880ce3cecc5477c99e672e23f9350ebfab2d2b6eabd64736f6c63430005100032",
  "devdoc": {
    "author": "Venus",
    "methods": {
      "_setComptroller(address)": {
        "details": "Admin function to set a new comptroller",
        "return": "uint 0=success, otherwise a failure (see ErrorReporter.sol for details)"
      },
      "getVAIAddress()": {
        "return": "The address of VAI"
      },
      "getVAICalculateRepayAmount(address,uint256)": {
        "params": {
          "borrower": "The address of the VAI borrower",
          "repayAmount": "The amount of VAI being returned"
        },
        "return": "(uint, uint, uint) Amount of VAI to be burned, amount of VAI the user needs to pay in current interest and amount of VAI the user needs to pay in past interest"
      },
      "getVAIRepayAmount(address)": {
        "params": {
          "account": "The address of the VAI borrower"
        },
        "return": "(uint) The total amount of VAI the user needs to repay"
      },
      "liquidateVAI(address,uint256,address)": {
        "params": {
          "borrower": "The borrower of vai to be liquidated",
          "repayAmount": "The amount of the underlying borrowed asset to repay",
          "vTokenCollateral": "The market in which to seize collateral from the borrower"
        },
        "return": "(uint, uint) An error code (0=success, otherwise a failure, see ErrorReporter.sol), and the actual repayment amount."
      },
      "mintVAI(uint256)": {
        "params": {
          "mintVAIAmount": "The amount of the VAI to be minted."
        },
        "return": "0 on success, otherwise an error code"
      },
      "repayVAI(uint256)": {
        "params": {
          "repayVAIAmount": "The amount of the VAI to be repaid."
        },
        "return": "0 on success, otherwise an error code"
      },
      "setAccessControl(address)": {
        "details": "Admin function to set the access control address",
        "params": {
          "newAccessControlAddress": "New address for the access control"
        }
      },
      "setBaseRate(uint256)": {
        "params": {
          "newBaseRateMantissa": "the base rate multiplied by 10**18"
        }
      },
      "setFloatRate(uint256)": {
        "params": {
          "newFloatRateMantissa": "the VAI float rate multiplied by 10**18"
        }
      },
      "setMintCap(uint256)": {
        "params": {
          "_mintCap": "the amount of VAI that can be minted"
        }
      },
      "setPrimeToken(address)": {
        "params": {
          "prime_": "The new address of the prime token contract"
        }
      },
      "setReceiver(address)": {
        "params": {
          "newReceiver": "the address of the VAI fee receiver"
        }
      },
      "setVAIToken(address)": {
        "params": {
          "vai_": "The new address of the VAI token contract"
        }
      },
      "toggleOnlyPrimeHolderMint()": {
        "return": "uint 0=success, otherwise a failure (see ErrorReporter.sol for details)"
      }
    },
    "title": "VAI Comptroller"
  },
  "userdoc": {
    "methods": {
      "_setComptroller(address)": {
        "notice": "Sets a new comptroller"
      },
      "getVAIAddress()": {
        "notice": "Return the address of the VAI token"
      },
      "getVAICalculateRepayAmount(address,uint256)": {
        "notice": "Calculate how much VAI the user needs to repay"
      },
      "getVAIRepayAmount(address)": {
        "notice": "Get the current total VAI a user needs to repay"
      },
      "liquidateVAI(address,uint256,address)": {
        "notice": "The sender liquidates the vai minters collateral. The collateral seized is transferred to the liquidator."
      },
      "mintVAI(uint256)": {
        "notice": "The mintVAI function mints and transfers VAI from the protocol to the user, and adds a borrow balance. The amount minted must be less than the user's Account Liquidity and the mint vai limit."
      },
      "repayVAI(uint256)": {
        "notice": "The repay function transfers VAI into the protocol and burn, reducing the user's borrow balance. Before repaying an asset, users must first approve the VAI to access their VAI balance."
      },
      "setAccessControl(address)": {
        "notice": "Sets the address of the access control of this contract"
      },
      "setBaseRate(uint256)": {
        "notice": "Set VAI borrow base rate"
      },
      "setFloatRate(uint256)": {
        "notice": "Set VAI borrow float rate"
      },
      "setMintCap(uint256)": {
        "notice": "Set VAI mint cap"
      },
      "setPrimeToken(address)": {
        "notice": "Set the prime token contract address"
      },
      "setReceiver(address)": {
        "notice": "Set VAI stability fee receiver address"
      },
      "setVAIToken(address)": {
        "notice": "Set the VAI token contract address"
      },
      "toggleOnlyPrimeHolderMint()": {
        "notice": "Toggle mint only for prime holder"
      }
    },
    "notice": "This is the implementation contract for the VAIUnitroller proxy"
  },
  "storageLayout": {
    "storage": [
      {
        "astId": 15314,
        "contract": "contracts/Tokens/VAI/VAIController.sol:VAIController",
        "label": "admin",
        "offset": 0,
        "slot": "0",
        "type": "t_address"
      },
      {
        "astId": 15316,
        "contract": "contracts/Tokens/VAI/VAIController.sol:VAIController",
        "label": "pendingAdmin",
        "offset": 0,
        "slot": "1",
        "type": "t_address"
      },
      {
        "astId": 15318,
        "contract": "contracts/Tokens/VAI/VAIController.sol:VAIController",
        "label": "vaiControllerImplementation",
        "offset": 0,
        "slot": "2",
        "type": "t_address"
      },
      {
        "astId": 15320,
        "contract": "contracts/Tokens/VAI/VAIController.sol:VAIController",
        "label": "pendingVAIControllerImplementation",
        "offset": 0,
        "slot": "3",
        "type": "t_address"
      },
      {
        "astId": 15325,
        "contract": "contracts/Tokens/VAI/VAIController.sol:VAIController",
        "label": "comptroller",
        "offset": 0,
        "slot": "4",
        "type": "t_contract(ComptrollerInterface)2310"
      },
      {
        "astId": 15332,
        "contract": "contracts/Tokens/VAI/VAIController.sol:VAIController",
        "label": "venusVAIState",
        "offset": 0,
        "slot": "5",
        "type": "t_struct(VenusVAIState)15330_storage"
      },
      {
        "astId": 15334,
        "contract": "contracts/Tokens/VAI/VAIController.sol:VAIController",
        "label": "isVenusVAIInitialized",
        "offset": 0,
        "slot": "6",
        "type": "t_bool"
      },
      {
        "astId": 15338,
        "contract": "contracts/Tokens/VAI/VAIController.sol:VAIController",
        "label": "venusVAIMinterIndex",
        "offset": 0,
        "slot": "7",
        "type": "t_mapping(t_address,t_uint256)"
      },
      {
        "astId": 15343,
        "contract": "contracts/Tokens/VAI/VAIController.sol:VAIController",
        "label": "treasuryGuardian",
        "offset": 0,
        "slot": "8",
        "type": "t_address"
      },
      {
        "astId": 15345,
        "contract": "contracts/Tokens/VAI/VAIController.sol:VAIController",
        "label": "treasuryAddress",
        "offset": 0,
        "slot": "9",
        "type": "t_address"
      },
      {
        "astId": 15347,
        "contract": "contracts/Tokens/VAI/VAIController.sol:VAIController",
        "label": "treasuryPercent",
        "offset": 0,
        "slot": "10",
        "type": "t_uint256"
      },
      {
        "astId": 15349,
        "contract": "contracts/Tokens/VAI/VAIController.sol:VAIController",
        "label": "_notEntered",
        "offset": 0,
        "slot": "11",
        "type": "t_bool"
      },
      {
        "astId": 15351,
        "contract": "contracts/Tokens/VAI/VAIController.sol:VAIController",
        "label": "baseRateMantissa",
        "offset": 0,
        "slot": "12",
        "type": "t_uint256"
      },
      {
        "astId": 15353,
        "contract": "contracts/Tokens/VAI/VAIController.sol:VAIController",
        "label": "floatRateMantissa",
        "offset": 0,
        "slot": "13",
        "type": "t_uint256"
      },
      {
        "astId": 15355,
        "contract": "contracts/Tokens/VAI/VAIController.sol:VAIController",
        "label": "receiver",
        "offset": 0,
        "slot": "14",
        "type": "t_address"
      },
      {
        "astId": 15357,
        "contract": "contracts/Tokens/VAI/VAIController.sol:VAIController",
        "label": "vaiMintIndex",
        "offset": 0,
        "slot": "15",
        "type": "t_uint256"
      },
      {
        "astId": 15359,
        "contract": "contracts/Tokens/VAI/VAIController.sol:VAIController",
        "label": "accrualBlockNumber",
        "offset": 0,
        "slot": "16",
        "type": "t_uint256"
      },
      {
        "astId": 15363,
        "contract": "contracts/Tokens/VAI/VAIController.sol:VAIController",
        "label": "vaiMinterInterestIndex",
        "offset": 0,
        "slot": "17",
        "type": "t_mapping(t_address,t_uint256)"
      },
      {
        "astId": 15367,
        "contract": "contracts/Tokens/VAI/VAIController.sol:VAIController",
        "label": "pastVAIInterest",
        "offset": 0,
        "slot": "18",
        "type": "t_mapping(t_address,t_uint256)"
      },
      {
        "astId": 15369,
        "contract": "contracts/Tokens/VAI/VAIController.sol:VAIController",
        "label": "mintCap",
        "offset": 0,
        "slot": "19",
        "type": "t_uint256"
      },
      {
        "astId": 15371,
        "contract": "contracts/Tokens/VAI/VAIController.sol:VAIController",
        "label": "accessControl",
        "offset": 0,
        "slot": "20",
        "type": "t_address"
      },
      {
        "astId": 15376,
        "contract": "contracts/Tokens/VAI/VAIController.sol:VAIController",
        "label": "prime",
        "offset": 0,
        "slot": "21",
        "type": "t_address"
      },
      {
        "astId": 15378,
        "contract": "contracts/Tokens/VAI/VAIController.sol:VAIController",
        "label": "mintEnabledOnlyForPrimeHolder",
        "offset": 20,
        "slot": "21",
        "type": "t_bool"
      },
      {
        "astId": 15383,
        "contract": "contracts/Tokens/VAI/VAIController.sol:VAIController",
        "label": "vai",
        "offset": 0,
        "slot": "22",
        "type": "t_address"
      }
    ],
    "types": {
      "t_address": {
        "encoding": "inplace",
        "label": "address",
        "numberOfBytes": "20"
      },
      "t_bool": {
        "encoding": "inplace",
        "label": "bool",
        "numberOfBytes": "1"
      },
      "t_contract(ComptrollerInterface)2310": {
        "encoding": "inplace",
        "label": "contract ComptrollerInterface",
        "numberOfBytes": "20"
      },
      "t_mapping(t_address,t_uint256)": {
        "encoding": "mapping",
        "key": "t_address",
        "label": "mapping(address => uint256)",
        "numberOfBytes": "32",
        "value": "t_uint256"
      },
      "t_struct(VenusVAIState)15330_storage": {
        "encoding": "inplace",
        "label": "struct VAIControllerStorageG1.VenusVAIState",
        "members": [
          {
            "astId": 15327,
            "contract": "contracts/Tokens/VAI/VAIController.sol:VAIController",
            "label": "index",
            "offset": 0,
            "slot": "0",
            "type": "t_uint224"
          },
          {
            "astId": 15329,
            "contract": "contracts/Tokens/VAI/VAIController.sol:VAIController",
            "label": "block",
            "offset": 28,
            "slot": "0",
            "type": "t_uint32"
          }
        ],
        "numberOfBytes": "32"
      },
      "t_uint224": {
        "encoding": "inplace",
        "label": "uint224",
        "numberOfBytes": "28"
      },
      "t_uint256": {
        "encoding": "inplace",
        "label": "uint256",
        "numberOfBytes": "32"
      },
      "t_uint32": {
        "encoding": "inplace",
        "label": "uint32",
        "numberOfBytes": "4"
      }
    }
  }
}