{
  "address": "0x6E5cFf66C7b671fA1D5782866D80BD15955d79F6",
  "abi": [
    {
      "inputs": [],
      "payable": false,
      "stateMutability": "nonpayable",
      "type": "constructor"
    },
    {
      "anonymous": false,
      "inputs": [
        {
          "indexed": false,
          "internalType": "uint256",
          "name": "cashPrior",
          "type": "uint256"
        },
        {
          "indexed": false,
          "internalType": "uint256",
          "name": "interestAccumulated",
          "type": "uint256"
        },
        {
          "indexed": false,
          "internalType": "uint256",
          "name": "borrowIndex",
          "type": "uint256"
        },
        {
          "indexed": false,
          "internalType": "uint256",
          "name": "totalBorrows",
          "type": "uint256"
        }
      ],
      "name": "AccrueInterest",
      "type": "event"
    },
    {
      "anonymous": false,
      "inputs": [
        {
          "indexed": true,
          "internalType": "address",
          "name": "owner",
          "type": "address"
        },
        {
          "indexed": true,
          "internalType": "address",
          "name": "spender",
          "type": "address"
        },
        {
          "indexed": false,
          "internalType": "uint256",
          "name": "amount",
          "type": "uint256"
        }
      ],
      "name": "Approval",
      "type": "event"
    },
    {
      "anonymous": false,
      "inputs": [
        {
          "indexed": false,
          "internalType": "address",
          "name": "borrower",
          "type": "address"
        },
        {
          "indexed": false,
          "internalType": "uint256",
          "name": "borrowAmount",
          "type": "uint256"
        },
        {
          "indexed": false,
          "internalType": "uint256",
          "name": "accountBorrows",
          "type": "uint256"
        },
        {
          "indexed": false,
          "internalType": "uint256",
          "name": "totalBorrows",
          "type": "uint256"
        }
      ],
      "name": "Borrow",
      "type": "event"
    },
    {
      "anonymous": false,
      "inputs": [
        {
          "indexed": false,
          "internalType": "uint256",
          "name": "error",
          "type": "uint256"
        },
        {
          "indexed": false,
          "internalType": "uint256",
          "name": "info",
          "type": "uint256"
        },
        {
          "indexed": false,
          "internalType": "uint256",
          "name": "detail",
          "type": "uint256"
        }
      ],
      "name": "Failure",
      "type": "event"
    },
    {
      "anonymous": false,
      "inputs": [
        {
          "indexed": false,
          "internalType": "address",
          "name": "liquidator",
          "type": "address"
        },
        {
          "indexed": false,
          "internalType": "address",
          "name": "borrower",
          "type": "address"
        },
        {
          "indexed": false,
          "internalType": "uint256",
          "name": "repayAmount",
          "type": "uint256"
        },
        {
          "indexed": false,
          "internalType": "address",
          "name": "vTokenCollateral",
          "type": "address"
        },
        {
          "indexed": false,
          "internalType": "uint256",
          "name": "seizeTokens",
          "type": "uint256"
        }
      ],
      "name": "LiquidateBorrow",
      "type": "event"
    },
    {
      "anonymous": false,
      "inputs": [
        {
          "indexed": false,
          "internalType": "address",
          "name": "minter",
          "type": "address"
        },
        {
          "indexed": false,
          "internalType": "uint256",
          "name": "mintAmount",
          "type": "uint256"
        },
        {
          "indexed": false,
          "internalType": "uint256",
          "name": "mintTokens",
          "type": "uint256"
        },
        {
          "indexed": false,
          "internalType": "uint256",
          "name": "totalSupply",
          "type": "uint256"
        }
      ],
      "name": "Mint",
      "type": "event"
    },
    {
      "anonymous": false,
      "inputs": [
        {
          "indexed": false,
          "internalType": "address",
          "name": "payer",
          "type": "address"
        },
        {
          "indexed": false,
          "internalType": "address",
          "name": "receiver",
          "type": "address"
        },
        {
          "indexed": false,
          "internalType": "uint256",
          "name": "mintAmount",
          "type": "uint256"
        },
        {
          "indexed": false,
          "internalType": "uint256",
          "name": "mintTokens",
          "type": "uint256"
        },
        {
          "indexed": false,
          "internalType": "uint256",
          "name": "totalSupply",
          "type": "uint256"
        }
      ],
      "name": "MintBehalf",
      "type": "event"
    },
    {
      "anonymous": false,
      "inputs": [
        {
          "indexed": false,
          "internalType": "address",
          "name": "oldAccessControlAddress",
          "type": "address"
        },
        {
          "indexed": false,
          "internalType": "address",
          "name": "newAccessControlAddress",
          "type": "address"
        }
      ],
      "name": "NewAccessControlManager",
      "type": "event"
    },
    {
      "anonymous": false,
      "inputs": [
        {
          "indexed": false,
          "internalType": "address",
          "name": "oldAdmin",
          "type": "address"
        },
        {
          "indexed": false,
          "internalType": "address",
          "name": "newAdmin",
          "type": "address"
        }
      ],
      "name": "NewAdmin",
      "type": "event"
    },
    {
      "anonymous": false,
      "inputs": [
        {
          "indexed": false,
          "internalType": "contract ComptrollerInterface",
          "name": "oldComptroller",
          "type": "address"
        },
        {
          "indexed": false,
          "internalType": "contract ComptrollerInterface",
          "name": "newComptroller",
          "type": "address"
        }
      ],
      "name": "NewComptroller",
      "type": "event"
    },
    {
      "anonymous": false,
      "inputs": [
        {
          "indexed": false,
          "internalType": "contract InterestRateModel",
          "name": "oldInterestRateModel",
          "type": "address"
        },
        {
          "indexed": false,
          "internalType": "contract InterestRateModel",
          "name": "newInterestRateModel",
          "type": "address"
        }
      ],
      "name": "NewMarketInterestRateModel",
      "type": "event"
    },
    {
      "anonymous": false,
      "inputs": [
        {
          "indexed": false,
          "internalType": "address",
          "name": "oldPendingAdmin",
          "type": "address"
        },
        {
          "indexed": false,
          "internalType": "address",
          "name": "newPendingAdmin",
          "type": "address"
        }
      ],
      "name": "NewPendingAdmin",
      "type": "event"
    },
    {
      "anonymous": false,
      "inputs": [
        {
          "indexed": true,
          "internalType": "address",
          "name": "oldProtocolShareReserve",
          "type": "address"
        },
        {
          "indexed": true,
          "internalType": "address",
          "name": "newProtocolShareReserve",
          "type": "address"
        }
      ],
      "name": "NewProtocolShareReserve",
      "type": "event"
    },
    {
      "anonymous": false,
      "inputs": [
        {
          "indexed": false,
          "internalType": "uint256",
          "name": "oldReduceReservesBlockDelta",
          "type": "uint256"
        },
        {
          "indexed": false,
          "internalType": "uint256",
          "name": "newReduceReservesBlockDelta",
          "type": "uint256"
        }
      ],
      "name": "NewReduceReservesBlockDelta",
      "type": "event"
    },
    {
      "anonymous": false,
      "inputs": [
        {
          "indexed": false,
          "internalType": "uint256",
          "name": "oldReserveFactorMantissa",
          "type": "uint256"
        },
        {
          "indexed": false,
          "internalType": "uint256",
          "name": "newReserveFactorMantissa",
          "type": "uint256"
        }
      ],
      "name": "NewReserveFactor",
      "type": "event"
    },
    {
      "anonymous": false,
      "inputs": [
        {
          "indexed": false,
          "internalType": "address",
          "name": "redeemer",
          "type": "address"
        },
        {
          "indexed": false,
          "internalType": "uint256",
          "name": "redeemAmount",
          "type": "uint256"
        },
        {
          "indexed": false,
          "internalType": "uint256",
          "name": "redeemTokens",
          "type": "uint256"
        },
        {
          "indexed": false,
          "internalType": "uint256",
          "name": "totalSupply",
          "type": "uint256"
        }
      ],
      "name": "Redeem",
      "type": "event"
    },
    {
      "anonymous": false,
      "inputs": [
        {
          "indexed": false,
          "internalType": "address",
          "name": "redeemer",
          "type": "address"
        },
        {
          "indexed": false,
          "internalType": "uint256",
          "name": "feeAmount",
          "type": "uint256"
        },
        {
          "indexed": false,
          "internalType": "uint256",
          "name": "redeemTokens",
          "type": "uint256"
        }
      ],
      "name": "RedeemFee",
      "type": "event"
    },
    {
      "anonymous": false,
      "inputs": [
        {
          "indexed": false,
          "internalType": "address",
          "name": "payer",
          "type": "address"
        },
        {
          "indexed": false,
          "internalType": "address",
          "name": "borrower",
          "type": "address"
        },
        {
          "indexed": false,
          "internalType": "uint256",
          "name": "repayAmount",
          "type": "uint256"
        },
        {
          "indexed": false,
          "internalType": "uint256",
          "name": "accountBorrows",
          "type": "uint256"
        },
        {
          "indexed": false,
          "internalType": "uint256",
          "name": "totalBorrows",
          "type": "uint256"
        }
      ],
      "name": "RepayBorrow",
      "type": "event"
    },
    {
      "anonymous": false,
      "inputs": [
        {
          "indexed": false,
          "internalType": "address",
          "name": "benefactor",
          "type": "address"
        },
        {
          "indexed": false,
          "internalType": "uint256",
          "name": "addAmount",
          "type": "uint256"
        },
        {
          "indexed": false,
          "internalType": "uint256",
          "name": "newTotalReserves",
          "type": "uint256"
        }
      ],
      "name": "ReservesAdded",
      "type": "event"
    },
    {
      "anonymous": false,
      "inputs": [
        {
          "indexed": false,
          "internalType": "address",
          "name": "protocolShareReserve",
          "type": "address"
        },
        {
          "indexed": false,
          "internalType": "uint256",
          "name": "reduceAmount",
          "type": "uint256"
        },
        {
          "indexed": false,
          "internalType": "uint256",
          "name": "newTotalReserves",
          "type": "uint256"
        }
      ],
      "name": "ReservesReduced",
      "type": "event"
    },
    {
      "anonymous": false,
      "inputs": [
        {
          "indexed": true,
          "internalType": "address",
          "name": "from",
          "type": "address"
        },
        {
          "indexed": true,
          "internalType": "address",
          "name": "to",
          "type": "address"
        },
        {
          "indexed": false,
          "internalType": "uint256",
          "name": "amount",
          "type": "uint256"
        }
      ],
      "name": "Transfer",
      "type": "event"
    },
    {
      "constant": false,
      "inputs": [],
      "name": "_acceptAdmin",
      "outputs": [
        {
          "internalType": "uint256",
          "name": "",
          "type": "uint256"
        }
      ],
      "payable": false,
      "stateMutability": "nonpayable",
      "type": "function"
    },
    {
      "constant": false,
      "inputs": [
        {
          "internalType": "uint256",
          "name": "addAmount",
          "type": "uint256"
        }
      ],
      "name": "_addReserves",
      "outputs": [
        {
          "internalType": "uint256",
          "name": "",
          "type": "uint256"
        }
      ],
      "payable": false,
      "stateMutability": "nonpayable",
      "type": "function"
    },
    {
      "constant": false,
      "inputs": [
        {
          "internalType": "bytes",
          "name": "data",
          "type": "bytes"
        }
      ],
      "name": "_becomeImplementation",
      "outputs": [],
      "payable": false,
      "stateMutability": "nonpayable",
      "type": "function"
    },
    {
      "constant": false,
      "inputs": [
        {
          "internalType": "uint256",
          "name": "reduceAmount_",
          "type": "uint256"
        }
      ],
      "name": "_reduceReserves",
      "outputs": [
        {
          "internalType": "uint256",
          "name": "",
          "type": "uint256"
        }
      ],
      "payable": false,
      "stateMutability": "nonpayable",
      "type": "function"
    },
    {
      "constant": false,
      "inputs": [],
      "name": "_resignImplementation",
      "outputs": [],
      "payable": false,
      "stateMutability": "nonpayable",
      "type": "function"
    },
    {
      "constant": false,
      "inputs": [
        {
          "internalType": "contract ComptrollerInterface",
          "name": "newComptroller",
          "type": "address"
        }
      ],
      "name": "_setComptroller",
      "outputs": [
        {
          "internalType": "uint256",
          "name": "",
          "type": "uint256"
        }
      ],
      "payable": false,
      "stateMutability": "nonpayable",
      "type": "function"
    },
    {
      "constant": false,
      "inputs": [
        {
          "internalType": "contract InterestRateModel",
          "name": "newInterestRateModel_",
          "type": "address"
        }
      ],
      "name": "_setInterestRateModel",
      "outputs": [
        {
          "internalType": "uint256",
          "name": "",
          "type": "uint256"
        }
      ],
      "payable": false,
      "stateMutability": "nonpayable",
      "type": "function"
    },
    {
      "constant": false,
      "inputs": [
        {
          "internalType": "address payable",
          "name": "newPendingAdmin",
          "type": "address"
        }
      ],
      "name": "_setPendingAdmin",
      "outputs": [
        {
          "internalType": "uint256",
          "name": "",
          "type": "uint256"
        }
      ],
      "payable": false,
      "stateMutability": "nonpayable",
      "type": "function"
    },
    {
      "constant": false,
      "inputs": [
        {
          "internalType": "uint256",
          "name": "newReserveFactorMantissa_",
          "type": "uint256"
        }
      ],
      "name": "_setReserveFactor",
      "outputs": [
        {
          "internalType": "uint256",
          "name": "",
          "type": "uint256"
        }
      ],
      "payable": false,
      "stateMutability": "nonpayable",
      "type": "function"
    },
    {
      "constant": true,
      "inputs": [],
      "name": "accessControlManager",
      "outputs": [
        {
          "internalType": "address",
          "name": "",
          "type": "address"
        }
      ],
      "payable": false,
      "stateMutability": "view",
      "type": "function"
    },
    {
      "constant": true,
      "inputs": [],
      "name": "accrualBlockNumber",
      "outputs": [
        {
          "internalType": "uint256",
          "name": "",
          "type": "uint256"
        }
      ],
      "payable": false,
      "stateMutability": "view",
      "type": "function"
    },
    {
      "constant": false,
      "inputs": [],
      "name": "accrueInterest",
      "outputs": [
        {
          "internalType": "uint256",
          "name": "",
          "type": "uint256"
        }
      ],
      "payable": false,
      "stateMutability": "nonpayable",
      "type": "function"
    },
    {
      "constant": true,
      "inputs": [],
      "name": "admin",
      "outputs": [
        {
          "internalType": "address payable",
          "name": "",
          "type": "address"
        }
      ],
      "payable": false,
      "stateMutability": "view",
      "type": "function"
    },
    {
      "constant": true,
      "inputs": [
        {
          "internalType": "address",
          "name": "owner",
          "type": "address"
        },
        {
          "internalType": "address",
          "name": "spender",
          "type": "address"
        }
      ],
      "name": "allowance",
      "outputs": [
        {
          "internalType": "uint256",
          "name": "",
          "type": "uint256"
        }
      ],
      "payable": false,
      "stateMutability": "view",
      "type": "function"
    },
    {
      "constant": false,
      "inputs": [
        {
          "internalType": "address",
          "name": "spender",
          "type": "address"
        },
        {
          "internalType": "uint256",
          "name": "amount",
          "type": "uint256"
        }
      ],
      "name": "approve",
      "outputs": [
        {
          "internalType": "bool",
          "name": "",
          "type": "bool"
        }
      ],
      "payable": false,
      "stateMutability": "nonpayable",
      "type": "function"
    },
    {
      "constant": true,
      "inputs": [
        {
          "internalType": "address",
          "name": "owner",
          "type": "address"
        }
      ],
      "name": "balanceOf",
      "outputs": [
        {
          "internalType": "uint256",
          "name": "",
          "type": "uint256"
        }
      ],
      "payable": false,
      "stateMutability": "view",
      "type": "function"
    },
    {
      "constant": false,
      "inputs": [
        {
          "internalType": "address",
          "name": "owner",
          "type": "address"
        }
      ],
      "name": "balanceOfUnderlying",
      "outputs": [
        {
          "internalType": "uint256",
          "name": "",
          "type": "uint256"
        }
      ],
      "payable": false,
      "stateMutability": "nonpayable",
      "type": "function"
    },
    {
      "constant": false,
      "inputs": [
        {
          "internalType": "uint256",
          "name": "borrowAmount",
          "type": "uint256"
        }
      ],
      "name": "borrow",
      "outputs": [
        {
          "internalType": "uint256",
          "name": "",
          "type": "uint256"
        }
      ],
      "payable": false,
      "stateMutability": "nonpayable",
      "type": "function"
    },
    {
      "constant": false,
      "inputs": [
        {
          "internalType": "address",
          "name": "account",
          "type": "address"
        }
      ],
      "name": "borrowBalanceCurrent",
      "outputs": [
        {
          "internalType": "uint256",
          "name": "",
          "type": "uint256"
        }
      ],
      "payable": false,
      "stateMutability": "nonpayable",
      "type": "function"
    },
    {
      "constant": true,
      "inputs": [
        {
          "internalType": "address",
          "name": "account",
          "type": "address"
        }
      ],
      "name": "borrowBalanceStored",
      "outputs": [
        {
          "internalType": "uint256",
          "name": "",
          "type": "uint256"
        }
      ],
      "payable": false,
      "stateMutability": "view",
      "type": "function"
    },
    {
      "constant": false,
      "inputs": [
        {
          "internalType": "address",
          "name": "borrower",
          "type": "address"
        },
        {
          "internalType": "uint256",
          "name": "borrowAmount",
          "type": "uint256"
        }
      ],
      "name": "borrowBehalf",
      "outputs": [
        {
          "internalType": "uint256",
          "name": "",
          "type": "uint256"
        }
      ],
      "payable": false,
      "stateMutability": "nonpayable",
      "type": "function"
    },
    {
      "constant": true,
      "inputs": [],
      "name": "borrowIndex",
      "outputs": [
        {
          "internalType": "uint256",
          "name": "",
          "type": "uint256"
        }
      ],
      "payable": false,
      "stateMutability": "view",
      "type": "function"
    },
    {
      "constant": true,
      "inputs": [],
      "name": "borrowRatePerBlock",
      "outputs": [
        {
          "internalType": "uint256",
          "name": "",
          "type": "uint256"
        }
      ],
      "payable": false,
      "stateMutability": "view",
      "type": "function"
    },
    {
      "constant": true,
      "inputs": [],
      "name": "comptroller",
      "outputs": [
        {
          "internalType": "contract ComptrollerInterface",
          "name": "",
          "type": "address"
        }
      ],
      "payable": false,
      "stateMutability": "view",
      "type": "function"
    },
    {
      "constant": true,
      "inputs": [],
      "name": "decimals",
      "outputs": [
        {
          "internalType": "uint8",
          "name": "",
          "type": "uint8"
        }
      ],
      "payable": false,
      "stateMutability": "view",
      "type": "function"
    },
    {
      "constant": false,
      "inputs": [],
      "name": "exchangeRateCurrent",
      "outputs": [
        {
          "internalType": "uint256",
          "name": "",
          "type": "uint256"
        }
      ],
      "payable": false,
      "stateMutability": "nonpayable",
      "type": "function"
    },
    {
      "constant": true,
      "inputs": [],
      "name": "exchangeRateStored",
      "outputs": [
        {
          "internalType": "uint256",
          "name": "",
          "type": "uint256"
        }
      ],
      "payable": false,
      "stateMutability": "view",
      "type": "function"
    },
    {
      "constant": true,
      "inputs": [
        {
          "internalType": "address",
          "name": "account",
          "type": "address"
        }
      ],
      "name": "getAccountSnapshot",
      "outputs": [
        {
          "internalType": "uint256",
          "name": "",
          "type": "uint256"
        },
        {
          "internalType": "uint256",
          "name": "",
          "type": "uint256"
        },
        {
          "internalType": "uint256",
          "name": "",
          "type": "uint256"
        },
        {
          "internalType": "uint256",
          "name": "",
          "type": "uint256"
        }
      ],
      "payable": false,
      "stateMutability": "view",
      "type": "function"
    },
    {
      "constant": true,
      "inputs": [],
      "name": "getCash",
      "outputs": [
        {
          "internalType": "uint256",
          "name": "",
          "type": "uint256"
        }
      ],
      "payable": false,
      "stateMutability": "view",
      "type": "function"
    },
    {
      "constant": true,
      "inputs": [],
      "name": "implementation",
      "outputs": [
        {
          "internalType": "address",
          "name": "",
          "type": "address"
        }
      ],
      "payable": false,
      "stateMutability": "view",
      "type": "function"
    },
    {
      "constant": false,
      "inputs": [
        {
          "internalType": "address",
          "name": "underlying_",
          "type": "address"
        },
        {
          "internalType": "contract ComptrollerInterface",
          "name": "comptroller_",
          "type": "address"
        },
        {
          "internalType": "contract InterestRateModel",
          "name": "interestRateModel_",
          "type": "address"
        },
        {
          "internalType": "uint256",
          "name": "initialExchangeRateMantissa_",
          "type": "uint256"
        },
        {
          "internalType": "string",
          "name": "name_",
          "type": "string"
        },
        {
          "internalType": "string",
          "name": "symbol_",
          "type": "string"
        },
        {
          "internalType": "uint8",
          "name": "decimals_",
          "type": "uint8"
        }
      ],
      "name": "initialize",
      "outputs": [],
      "payable": false,
      "stateMutability": "nonpayable",
      "type": "function"
    },
    {
      "constant": false,
      "inputs": [
        {
          "internalType": "contract ComptrollerInterface",
          "name": "comptroller_",
          "type": "address"
        },
        {
          "internalType": "contract InterestRateModel",
          "name": "interestRateModel_",
          "type": "address"
        },
        {
          "internalType": "uint256",
          "name": "initialExchangeRateMantissa_",
          "type": "uint256"
        },
        {
          "internalType": "string",
          "name": "name_",
          "type": "string"
        },
        {
          "internalType": "string",
          "name": "symbol_",
          "type": "string"
        },
        {
          "internalType": "uint8",
          "name": "decimals_",
          "type": "uint8"
        }
      ],
      "name": "initialize",
      "outputs": [],
      "payable": false,
      "stateMutability": "nonpayable",
      "type": "function"
    },
    {
      "constant": true,
      "inputs": [],
      "name": "interestRateModel",
      "outputs": [
        {
          "internalType": "contract InterestRateModel",
          "name": "",
          "type": "address"
        }
      ],
      "payable": false,
      "stateMutability": "view",
      "type": "function"
    },
    {
      "constant": true,
      "inputs": [],
      "name": "isVToken",
      "outputs": [
        {
          "internalType": "bool",
          "name": "",
          "type": "bool"
        }
      ],
      "payable": false,
      "stateMutability": "view",
      "type": "function"
    },
    {
      "constant": false,
      "inputs": [
        {
          "internalType": "address",
          "name": "borrower",
          "type": "address"
        },
        {
          "internalType": "uint256",
          "name": "repayAmount",
          "type": "uint256"
        },
        {
          "internalType": "contract VTokenInterface",
          "name": "vTokenCollateral",
          "type": "address"
        }
      ],
      "name": "liquidateBorrow",
      "outputs": [
        {
          "internalType": "uint256",
          "name": "",
          "type": "uint256"
        }
      ],
      "payable": false,
      "stateMutability": "nonpayable",
      "type": "function"
    },
    {
      "constant": false,
      "inputs": [
        {
          "internalType": "uint256",
          "name": "mintAmount",
          "type": "uint256"
        }
      ],
      "name": "mint",
      "outputs": [
        {
          "internalType": "uint256",
          "name": "",
          "type": "uint256"
        }
      ],
      "payable": false,
      "stateMutability": "nonpayable",
      "type": "function"
    },
    {
      "constant": false,
      "inputs": [
        {
          "internalType": "address",
          "name": "receiver",
          "type": "address"
        },
        {
          "internalType": "uint256",
          "name": "mintAmount",
          "type": "uint256"
        }
      ],
      "name": "mintBehalf",
      "outputs": [
        {
          "internalType": "uint256",
          "name": "",
          "type": "uint256"
        }
      ],
      "payable": false,
      "stateMutability": "nonpayable",
      "type": "function"
    },
    {
      "constant": true,
      "inputs": [],
      "name": "name",
      "outputs": [
        {
          "internalType": "string",
          "name": "",
          "type": "string"
        }
      ],
      "payable": false,
      "stateMutability": "view",
      "type": "function"
    },
    {
      "constant": true,
      "inputs": [],
      "name": "pendingAdmin",
      "outputs": [
        {
          "internalType": "address payable",
          "name": "",
          "type": "address"
        }
      ],
      "payable": false,
      "stateMutability": "view",
      "type": "function"
    },
    {
      "constant": true,
      "inputs": [],
      "name": "protocolShareReserve",
      "outputs": [
        {
          "internalType": "address payable",
          "name": "",
          "type": "address"
        }
      ],
      "payable": false,
      "stateMutability": "view",
      "type": "function"
    },
    {
      "constant": false,
      "inputs": [
        {
          "internalType": "uint256",
          "name": "redeemTokens",
          "type": "uint256"
        }
      ],
      "name": "redeem",
      "outputs": [
        {
          "internalType": "uint256",
          "name": "",
          "type": "uint256"
        }
      ],
      "payable": false,
      "stateMutability": "nonpayable",
      "type": "function"
    },
    {
      "constant": false,
      "inputs": [
        {
          "internalType": "address",
          "name": "redeemer",
          "type": "address"
        },
        {
          "internalType": "uint256",
          "name": "redeemTokens",
          "type": "uint256"
        }
      ],
      "name": "redeemBehalf",
      "outputs": [
        {
          "internalType": "uint256",
          "name": "",
          "type": "uint256"
        }
      ],
      "payable": false,
      "stateMutability": "nonpayable",
      "type": "function"
    },
    {
      "constant": false,
      "inputs": [
        {
          "internalType": "uint256",
          "name": "redeemAmount",
          "type": "uint256"
        }
      ],
      "name": "redeemUnderlying",
      "outputs": [
        {
          "internalType": "uint256",
          "name": "",
          "type": "uint256"
        }
      ],
      "payable": false,
      "stateMutability": "nonpayable",
      "type": "function"
    },
    {
      "constant": false,
      "inputs": [
        {
          "internalType": "address",
          "name": "redeemer",
          "type": "address"
        },
        {
          "internalType": "uint256",
          "name": "redeemAmount",
          "type": "uint256"
        }
      ],
      "name": "redeemUnderlyingBehalf",
      "outputs": [
        {
          "internalType": "uint256",
          "name": "",
          "type": "uint256"
        }
      ],
      "payable": false,
      "stateMutability": "nonpayable",
      "type": "function"
    },
    {
      "constant": true,
      "inputs": [],
      "name": "reduceReservesBlockDelta",
      "outputs": [
        {
          "internalType": "uint256",
          "name": "",
          "type": "uint256"
        }
      ],
      "payable": false,
      "stateMutability": "view",
      "type": "function"
    },
    {
      "constant": true,
      "inputs": [],
      "name": "reduceReservesBlockNumber",
      "outputs": [
        {
          "internalType": "uint256",
          "name": "",
          "type": "uint256"
        }
      ],
      "payable": false,
      "stateMutability": "view",
      "type": "function"
    },
    {
      "constant": false,
      "inputs": [
        {
          "internalType": "uint256",
          "name": "repayAmount",
          "type": "uint256"
        }
      ],
      "name": "repayBorrow",
      "outputs": [
        {
          "internalType": "uint256",
          "name": "",
          "type": "uint256"
        }
      ],
      "payable": false,
      "stateMutability": "nonpayable",
      "type": "function"
    },
    {
      "constant": false,
      "inputs": [
        {
          "internalType": "address",
          "name": "borrower",
          "type": "address"
        },
        {
          "internalType": "uint256",
          "name": "repayAmount",
          "type": "uint256"
        }
      ],
      "name": "repayBorrowBehalf",
      "outputs": [
        {
          "internalType": "uint256",
          "name": "",
          "type": "uint256"
        }
      ],
      "payable": false,
      "stateMutability": "nonpayable",
      "type": "function"
    },
    {
      "constant": true,
      "inputs": [],
      "name": "reserveFactorMantissa",
      "outputs": [
        {
          "internalType": "uint256",
          "name": "",
          "type": "uint256"
        }
      ],
      "payable": false,
      "stateMutability": "view",
      "type": "function"
    },
    {
      "constant": false,
      "inputs": [
        {
          "internalType": "address",
          "name": "liquidator",
          "type": "address"
        },
        {
          "internalType": "address",
          "name": "borrower",
          "type": "address"
        },
        {
          "internalType": "uint256",
          "name": "seizeTokens",
          "type": "uint256"
        }
      ],
      "name": "seize",
      "outputs": [
        {
          "internalType": "uint256",
          "name": "",
          "type": "uint256"
        }
      ],
      "payable": false,
      "stateMutability": "nonpayable",
      "type": "function"
    },
    {
      "constant": false,
      "inputs": [
        {
          "internalType": "address",
          "name": "newAccessControlManagerAddress",
          "type": "address"
        }
      ],
      "name": "setAccessControlManager",
      "outputs": [
        {
          "internalType": "uint256",
          "name": "",
          "type": "uint256"
        }
      ],
      "payable": false,
      "stateMutability": "nonpayable",
      "type": "function"
    },
    {
      "constant": false,
      "inputs": [
        {
          "internalType": "address payable",
          "name": "protcolShareReserve_",
          "type": "address"
        }
      ],
      "name": "setProtocolShareReserve",
      "outputs": [],
      "payable": false,
      "stateMutability": "nonpayable",
      "type": "function"
    },
    {
      "constant": false,
      "inputs": [
        {
          "internalType": "uint256",
          "name": "newReduceReservesBlockDelta_",
          "type": "uint256"
        }
      ],
      "name": "setReduceReservesBlockDelta",
      "outputs": [],
      "payable": false,
      "stateMutability": "nonpayable",
      "type": "function"
    },
    {
      "constant": true,
      "inputs": [],
      "name": "supplyRatePerBlock",
      "outputs": [
        {
          "internalType": "uint256",
          "name": "",
          "type": "uint256"
        }
      ],
      "payable": false,
      "stateMutability": "view",
      "type": "function"
    },
    {
      "constant": true,
      "inputs": [],
      "name": "symbol",
      "outputs": [
        {
          "internalType": "string",
          "name": "",
          "type": "string"
        }
      ],
      "payable": false,
      "stateMutability": "view",
      "type": "function"
    },
    {
      "constant": true,
      "inputs": [],
      "name": "totalBorrows",
      "outputs": [
        {
          "internalType": "uint256",
          "name": "",
          "type": "uint256"
        }
      ],
      "payable": false,
      "stateMutability": "view",
      "type": "function"
    },
    {
      "constant": false,
      "inputs": [],
      "name": "totalBorrowsCurrent",
      "outputs": [
        {
          "internalType": "uint256",
          "name": "",
          "type": "uint256"
        }
      ],
      "payable": false,
      "stateMutability": "nonpayable",
      "type": "function"
    },
    {
      "constant": true,
      "inputs": [],
      "name": "totalReserves",
      "outputs": [
        {
          "internalType": "uint256",
          "name": "",
          "type": "uint256"
        }
      ],
      "payable": false,
      "stateMutability": "view",
      "type": "function"
    },
    {
      "constant": true,
      "inputs": [],
      "name": "totalSupply",
      "outputs": [
        {
          "internalType": "uint256",
          "name": "",
          "type": "uint256"
        }
      ],
      "payable": false,
      "stateMutability": "view",
      "type": "function"
    },
    {
      "constant": false,
      "inputs": [
        {
          "internalType": "address",
          "name": "dst",
          "type": "address"
        },
        {
          "internalType": "uint256",
          "name": "amount",
          "type": "uint256"
        }
      ],
      "name": "transfer",
      "outputs": [
        {
          "internalType": "bool",
          "name": "",
          "type": "bool"
        }
      ],
      "payable": false,
      "stateMutability": "nonpayable",
      "type": "function"
    },
    {
      "constant": false,
      "inputs": [
        {
          "internalType": "address",
          "name": "src",
          "type": "address"
        },
        {
          "internalType": "address",
          "name": "dst",
          "type": "address"
        },
        {
          "internalType": "uint256",
          "name": "amount",
          "type": "uint256"
        }
      ],
      "name": "transferFrom",
      "outputs": [
        {
          "internalType": "bool",
          "name": "",
          "type": "bool"
        }
      ],
      "payable": false,
      "stateMutability": "nonpayable",
      "type": "function"
    },
    {
      "constant": true,
      "inputs": [],
      "name": "underlying",
      "outputs": [
        {
          "internalType": "address",
          "name": "",
          "type": "address"
        }
      ],
      "payable": false,
      "stateMutability": "view",
      "type": "function"
    }
  ],
  "transactionHash": "0x2e5d2514d8487d05f4404779c332fe5d08ab9a18e1206520d17614f813f95e8e",
  "args": [],
  "numDeployments": 2,
  "solcInputHash": "ad834ffdd224ebe1944f429cc9972360",
  "bytecode": "0x608060405234801561001057600080fd5b50615bd980620000216000396000f3fe608060405234801561001057600080fd5b50600436106103ba5760003560e01c806373acee98116101f4578063b71d1a0c1161011a578063e9a44fd9116100ad578063f5e3c4621161007c578063f5e3c46214610d06578063f851a44014610d3c578063f8f9da2814610d44578063fca7820b14610d4c576103ba565b8063e9a44fd914610cc8578063e9c714f214610cd0578063f2b3abbd14610cd8578063f3fdb15a14610cfe576103ba565b8063d1109c2f116100e9578063d1109c2f14610c49578063db006a7514610c51578063dd62ed3e14610c6e578063df3a516e14610c9c576103ba565b8063b71d1a0c14610bb2578063bd6d894d14610bd8578063c37f68e214610be0578063c5ebeaec14610c2c576103ba565b8063a0712d6811610192578063ae96f14111610161578063ae96f14114610b64578063ae9d70b014610b6c578063b2a02ff114610b74578063b4a0bdf314610baa576103ba565b8063a0712d6814610b0b578063a6afed9514610b28578063a9059cbb14610b30578063aa5af0fd14610b5c576103ba565b80638f840ddd116101ce5780638f840ddd1461098757806395d89b411461098f57806395dd91931461099757806399d8c1b4146109bd576103ba565b806373acee9814610936578063852a12e31461093e578063856e5bb31461095b576103ba565b80632608f818116102e457806347bd371811610277578063601a0bf111610246578063601a0bf1146108e35780636c540baf146109005780636f307dc31461090857806370a0823114610910576103ba565b806347bd37181461082757806356e677281461082f5780635c60da1b146108d35780635fe3b567146108db576103ba565b80633b1d21a2116102b35780633b1d21a2146107d45780633d9ea3a1146107dc5780633e941010146107e45780634576b5db14610801576103ba565b80632608f81814610740578063267822471461076c578063313ce567146107905780633af9e669146107ae576103ba565b806317bfdfbc1161035c578063210bc0521161032b578063210bc0521461069557806323323e03146106c157806323b872dd146106ed5780632464176b14610723576103ba565b806317bfdfbc1461050957806318160ddd1461052f578063182df0f5146105375780631a31d4651461053f576103ba565b80630e752702116103985780630e752702146104b4578063107568df146104d1578063153ab505146104f9578063173b990414610501576103ba565b806306fdde03146103bf578063095ea7b31461043c5780630e32cb861461047c575b600080fd5b6103c7610d69565b6040805160208082528351818301528351919283929083019185019080838360005b838110156104015781810151838201526020016103e9565b50505050905090810190601f16801561042e5780820380516001836020036101000a031916815260200191505b509250505060405180910390f35b6104686004803603604081101561045257600080fd5b506001600160a01b038135169060200135610df6565b604080519115158252519081900360200190f35b6104a26004803603602081101561049257600080fd5b50356001600160a01b0316610e5c565b60408051918252519081900360200190f35b6104a2600480360360208110156104ca57600080fd5b5035610ede565b6104f7600480360360208110156104e757600080fd5b50356001600160a01b0316610ef2565b005b6104f7610f60565b6104a2610fb0565b6104a26004803603602081101561051f57600080fd5b50356001600160a01b0316610fb6565b6104a2611076565b6104a261107c565b6104f7600480360360e081101561055557600080fd5b6001600160a01b03823581169260208101358216926040820135909216916060820135919081019060a081016080820135600160201b81111561059757600080fd5b8201836020820111156105a957600080fd5b803590602001918460018302840111600160201b831117156105ca57600080fd5b91908080601f0160208091040260200160405190810160405280939291908181526020018383808284376000920191909152509295949360208101935035915050600160201b81111561061c57600080fd5b82018360208201111561062e57600080fd5b803590602001918460018302840111600160201b8311171561064f57600080fd5b91908080601f0160208091040260200160405190810160405280939291908181526020018383808284376000920191909152509295505050903560ff16915061109d9050565b6104a2600480360360408110156106ab57600080fd5b506001600160a01b03813516906020013561113c565b6104a2600480360360408110156106d757600080fd5b506001600160a01b03813516906020013561121d565b6104686004803603606081101561070357600080fd5b506001600160a01b03813581169160208101359091169060400135611233565b6104f76004803603602081101561073957600080fd5b50356112a6565b6104a26004803603604081101561075657600080fd5b506001600160a01b03813516906020013561134e565b61077461135b565b604080516001600160a01b039092168252519081900360200190f35b61079861136a565b6040805160ff9092168252519081900360200190f35b6104a2600480360360208110156107c457600080fd5b50356001600160a01b0316611373565b6104a26113d1565b6104686113e0565b6104a2600480360360208110156107fa57600080fd5b50356113e5565b6104a26004803603602081101561081757600080fd5b50356001600160a01b03166113f0565b6104a2611522565b6104f76004803603602081101561084557600080fd5b810190602081018135600160201b81111561085f57600080fd5b82018360208201111561087157600080fd5b803590602001918460018302840111600160201b8311171561089257600080fd5b91908080601f016020809104026020016040519081016040528093929190818152602001838380828437600092019190915250929550611528945050505050565b610774611579565b610774611588565b6104a2600480360360208110156108f957600080fd5b5035611597565b6104a2611682565b610774611688565b6104a26004803603602081101561092657600080fd5b50356001600160a01b0316611697565b6104a26116b2565b6104a26004803603602081101561095457600080fd5b5035611768565b6104a26004803603604081101561097157600080fd5b506001600160a01b038135169060200135611775565b6104a261184f565b6103c7611855565b6104a2600480360360208110156109ad57600080fd5b50356001600160a01b03166118ad565b6104f7600480360360c08110156109d357600080fd5b6001600160a01b03823581169260208101359091169160408201359190810190608081016060820135600160201b811115610a0d57600080fd5b820183602082011115610a1f57600080fd5b803590602001918460018302840111600160201b83111715610a4057600080fd5b91908080601f0160208091040260200160405190810160405280939291908181526020018383808284376000920191909152509295949360208101935035915050600160201b811115610a9257600080fd5b820183602082011115610aa457600080fd5b803590602001918460018302840111600160201b83111715610ac557600080fd5b91908080601f0160208091040260200160405190810160405280939291908181526020018383808284376000920191909152509295505050903560ff1691506118c89050565b6104a260048036036020811015610b2157600080fd5b5035611a63565b6104a2611a6f565b61046860048036036040811015610b4657600080fd5b506001600160a01b038135169060200135611db2565b6104a2611e23565b6104a2611e29565b6104a2611e2f565b6104a260048036036060811015610b8a57600080fd5b506001600160a01b03813581169160208101359091169060400135611ece565b610774611f3f565b6104a260048036036020811015610bc857600080fd5b50356001600160a01b0316611f4e565b6104a2611fbf565b610c0660048036036020811015610bf657600080fd5b50356001600160a01b031661207b565b604080519485526020850193909352838301919091526060830152519081900360800190f35b6104a260048036036020811015610c4257600080fd5b5035612110565b6104a261211d565b6104a260048036036020811015610c6757600080fd5b5035612123565b6104a260048036036040811015610c8457600080fd5b506001600160a01b0381358116916020013516612130565b6104a260048036036040811015610cb257600080fd5b506001600160a01b03813516906020013561215b565b610774612235565b6104a2612244565b6104a260048036036020811015610cee57600080fd5b50356001600160a01b031661233c565b6107746123b5565b6104a260048036036060811015610d1c57600080fd5b506001600160a01b038135811691602081013591604090910135166123c4565b6107746123dc565b6104a26123f0565b6104a260048036036020811015610d6257600080fd5b5035612454565b60018054604080516020600284861615610100026000190190941693909304601f81018490048402820184019092528181529291830182828015610dee5780601f10610dc357610100808354040283529160200191610dee565b820191906000526020600020905b815481529060010190602001808311610dd157829003601f168201915b505050505081565b336000818152600f602090815260408083206001600160a01b038716808552908352818420869055815186815291519394909390927f8c5be1e5ebec7d5bd14f71427d1e84f3dd0314c0f7b2291e5b200ac8c7c3b925928290030190a350600192915050565b6000610e6733612511565b610e7082612567565b601654604080516001600160a01b039283168152918416602083015280517f66fd58e82f7b31a2a5c30e0888f3093efe4e111b00cd2b0c31fe014601293aa09281900390910190a1601680546001600160a01b0319166001600160a01b03841617905560005b90505b919050565b600080610eea836125b1565b509392505050565b610efb33612511565b610f0481612567565b6015546040516001600160a01b038084169216907fafec95c8612496c3ecf5dddc71e393528fe29bd145fbaf9c6b496d78d7e2d79b90600090a3601580546001600160a01b0319166001600160a01b0392909216919091179055565b60035461010090046001600160a01b03163314610fae5760405162461bcd60e51b815260040180806020018281038252602d815260200180615ac4602d913960400191505060405180910390fd5b565b60085481565b6000805460ff16610ffb576040805162461bcd60e51b815260206004820152600a6024820152691c994b595b9d195c995960b21b604482015290519081900360640190fd5b6000805460ff1916815561100d611a6f565b14611058576040805162461bcd60e51b81526020600482015260166024820152751858d8dc9d59481a5b9d195c995cdd0819985a5b195960521b604482015290519081900360640190fd5b611061826118ad565b90505b6000805460ff19166001179055919050565b600d5481565b600080600061108961265a565b9150915061109682612709565b9150505b90565b6110ab8686868686866118c8565b601180546001600160a01b0319166001600160a01b038981169190911791829055604080516318160ddd60e01b8152905192909116916318160ddd91600480820192602092909190829003018186803b15801561110757600080fd5b505afa15801561111b573d6000803e3d6000fd5b505050506040513d602081101561113157600080fd5b505050505050505050565b60055460408051630217306760e31b81526001600160a01b038581166004830152336024830152915160009392909216916310b9833891604480820192602092909190829003018186803b15801561119357600080fd5b505afa1580156111a7573d6000803e3d6000fd5b505050506040513d60208110156111bd57600080fd5b505161120b576040805162461bcd60e51b81526020600482015260186024820152776e6f7420616e20617070726f7665642064656c656761746560401b604482015290519081900360640190fd5b611216833384612756565b9392505050565b60008061122a84846127f7565b50949350505050565b6000805460ff16611278576040805162461bcd60e51b815260206004820152600a6024820152691c994b595b9d195c995960b21b604482015290519081900360640190fd5b6000805460ff1916815561128e338686866128a2565b1490505b6000805460ff191660011790559392505050565b600081116112eb576040805162461bcd60e51b815260206004820152600d60248201526c125b9d985b1a5908125b9c1d5d609a1b604482015290519081900360640190fd5b61130c604051806060016040528060248152602001615a4e60249139612bb0565b601354604080519182526020820183905280517fc2ac513cdb57f91eb2bef4db918c285829524f549682b99717c6cb06cc0111839281900390910190a1601355565b60008061122a8484612cd1565b6004546001600160a01b031681565b60035460ff1681565b600061137d6158d9565b6040518060200160405280611390611fbf565b90526001600160a01b0384166000908152600e60205260408120549192509081906113bc908490612d53565b915091506113c982612709565b949350505050565b60006113db612da7565b905090565b600181565b6000610ed682612df2565b60006113fb33612511565b60055460408051623f1ee960e11b815290516001600160a01b0392831692851691627e3dd2916004808301926020929190829003018186803b15801561144057600080fd5b505afa158015611454573d6000803e3d6000fd5b505050506040513d602081101561146a57600080fd5b50516114bd576040805162461bcd60e51b815260206004820152601c60248201527f6d61726b6572206d6574686f642072657475726e65642066616c736500000000604482015290519081900360640190fd5b600580546001600160a01b0319166001600160a01b03858116918217909255604080519284168352602083019190915280517f7ac369dbd14fa5ea3f473ed67cc9d598964a77501540ba6751eb0b3decf5870d9281900390910190a160009392505050565b600b5481565b60035461010090046001600160a01b031633146115765760405162461bcd60e51b815260040180806020018281038252602d815260200180615b78602d913960400191505060405180910390fd5b50565b6012546001600160a01b031681565b6005546001600160a01b031681565b6000805460ff166115dc576040805162461bcd60e51b815260206004820152600a6024820152691c994b595b9d195c995960b21b604482015290519081900360640190fd5b6000805460ff1916905560408051808201909152601881527f5f72656475636552657365727665732875696e74323536290000000000000000602082015261162390612bb0565b600061162d611a6f565b905080156116535761164b81601181111561164457fe5b6030612e86565b915050611064565b43601454141561166457600061164b565b61166d83612eec565b9150506000805460ff19166001179055919050565b60095481565b6011546001600160a01b031681565b6001600160a01b03166000908152600e602052604090205490565b6000805460ff166116f7576040805162461bcd60e51b815260206004820152600a6024820152691c994b595b9d195c995960b21b604482015290519081900360640190fd5b6000805460ff19168155611709611a6f565b14611754576040805162461bcd60e51b81526020600482015260166024820152751858d8dc9d59481a5b9d195c995cdd0819985a5b195960521b604482015290519081900360640190fd5b50600b546000805460ff1916600117905590565b6000610ed6333384613030565b60055460408051630217306760e31b81526001600160a01b038581166004830152336024830152915160009392909216916310b9833891604480820192602092909190829003018186803b1580156117cc57600080fd5b505afa1580156117e0573d6000803e3d6000fd5b505050506040513d60208110156117f657600080fd5b5051611844576040805162461bcd60e51b81526020600482015260186024820152776e6f7420616e20617070726f7665642064656c656761746560401b604482015290519081900360640190fd5b6112168333846130ab565b600c5481565b6002805460408051602060018416156101000260001901909316849004601f81018490048402820184019092528181529291830182828015610dee5780601f10610dc357610100808354040283529160200191610dee565b60008060006118bb8461312b565b9150915061121682612709565b6118d133612511565b6009541580156118e15750600a54155b61191c5760405162461bcd60e51b8152600401808060200182810382526023815260200180615a2b6023913960400191505060405180910390fd5b60078490558361195d5760405162461bcd60e51b8152600401808060200182810382526030815260200180615a726030913960400191505060405180910390fd5b6000611968876113f0565b905080156119bd576040805162461bcd60e51b815260206004820152601a60248201527f73657474696e6720636f6d7074726f6c6c6572206661696c6564000000000000604482015290519081900360640190fd5b43600955670de0b6b3a7640000600a556119d6866131df565b90508015611a155760405162461bcd60e51b8152600401808060200182810382526022815260200180615aa26022913960400191505060405180910390fd5b8351611a289060019060208701906158ec565b508251611a3c9060029060208601906158ec565b50506003805460ff90921660ff199283161790556000805490911660011790555050505050565b600080610eea83613328565b600954600090439080821415611a8a5760009250505061109a565b6000611a94612da7565b600b54600c54600a54600654604080516315f2405360e01b815260048101879052602481018690526044810185905290519596509394929391926000926001600160a01b03909216916315f24053916064808301926020929190829003018186803b158015611b0257600080fd5b505afa158015611b16573d6000803e3d6000fd5b505050506040513d6020811015611b2c57600080fd5b5051905065048c27395000811115611b8b576040805162461bcd60e51b815260206004820152601c60248201527f626f72726f772072617465206973206162737572646c79206869676800000000604482015290519081900360640190fd5b600080611b9889896133a2565b91509150611ba582612709565b611bad6158d9565b600080600080611bcb60405180602001604052808a815250876133c5565b90975094506000876003811115611bde57fe5b14611c1057611bfb60096006896003811115611bf657fe5b61342d565b9e50505050505050505050505050505061109a565b611c1a858c612d53565b90975093506000876003811115611c2d57fe5b14611c4557611bfb60096001896003811115611bf657fe5b611c4f848c613493565b90975092506000876003811115611c6257fe5b14611c7a57611bfb60096004896003811115611bf657fe5b611c956040518060200160405280600854815250858c6134b9565b90975091506000876003811115611ca857fe5b14611cc057611bfb60096005896003811115611bf657fe5b611ccb858a8b6134b9565b90975090506000876003811115611cde57fe5b14611cf657611bfb60096003896003811115611bf657fe5b60098e9055600a819055600b839055600c829055601454611d18908f906133a2565b9097509550611d2687612709565b6013548610611d565760148e9055818c1015611d4b57611d458c612eec565b50611d56565b611d5482612eec565b505b604080518d8152602081018690528082018390526060810185905290517f4dec04e750ca11537cabcd8a9eab06494de08da3735bc8871cd41250e190bc049181900360800190a160009e50505050505050505050505050505090565b6000805460ff16611df7576040805162461bcd60e51b815260206004820152600a6024820152691c994b595b9d195c995960b21b604482015290519081900360640190fd5b6000805460ff19168155611e0d333386866128a2565b1490506000805460ff1916600117905592915050565b600a5481565b60145481565b6006546000906001600160a01b031663b8168816611e4b612da7565b600b54600c546008546040518563ffffffff1660e01b81526004018085815260200184815260200183815260200182815260200194505050505060206040518083038186803b158015611e9d57600080fd5b505afa158015611eb1573d6000803e3d6000fd5b505050506040513d6020811015611ec757600080fd5b5051905090565b6000805460ff16611f13576040805162461bcd60e51b815260206004820152600a6024820152691c994b595b9d195c995960b21b604482015290519081900360640190fd5b6000805460ff19169055611f2933858585613515565b90506000805460ff191660011790559392505050565b6016546001600160a01b031681565b6000611f5933612511565b600480546001600160a01b038481166001600160a01b0319831681179093556040805191909216808252602082019390935281517fca4f2f25d0898edd99413412fb94012f9e54ec8142f9b093e7720646a95b16a9929181900390910190a16000611216565b6000805460ff16612004576040805162461bcd60e51b815260206004820152600a6024820152691c994b595b9d195c995960b21b604482015290519081900360640190fd5b6000805460ff19168155612016611a6f565b14612061576040805162461bcd60e51b81526020600482015260166024820152751858d8dc9d59481a5b9d195c995cdd0819985a5b195960521b604482015290519081900360640190fd5b61206961107c565b90506000805460ff1916600117905590565b6001600160a01b0381166000908152600e60205260408120548190819081908180806120a68961312b565b9350905060008160038111156120b857fe5b146120d65760095b9750600096508695508594506121099350505050565b6120de61265a565b9250905060008160038111156120f057fe5b146120fc5760096120c0565b5060009650919450925090505b9193509193565b6000610ed63333846130ab565b60135481565b6000610ed6333384612756565b6001600160a01b039182166000908152600f6020908152604080832093909416825291909152205490565b60055460408051630217306760e31b81526001600160a01b038581166004830152336024830152915160009392909216916310b9833891604480820192602092909190829003018186803b1580156121b257600080fd5b505afa1580156121c6573d6000803e3d6000fd5b505050506040513d60208110156121dc57600080fd5b505161222a576040805162461bcd60e51b81526020600482015260186024820152776e6f7420616e20617070726f7665642064656c656761746560401b604482015290519081900360640190fd5b611216833384613030565b6015546001600160a01b031681565b6004546000906001600160a01b0316331461226c5761226560016000612e86565b905061109a565b60038054600480546001600160a01b03818116610100818102610100600160a81b0319871617968790556001600160a01b031990931690935560408051948390048216808652929095041660208401528351909391927ff9ffabca9c8276e99321725bcb43fb076a6c66a54b7f21c4e8146d8519b417dc92908290030190a1600454604080516001600160a01b038085168252909216602083015280517fca4f2f25d0898edd99413412fb94012f9e54ec8142f9b093e7720646a95b16a99281900390910190a160009250505090565b600061237c6040518060400160405280601e81526020017f5f736574496e746572657374526174654d6f64656c2861646472657373290000815250612bb0565b6000612386611a6f565b905080156123ac576123a481601181111561239d57fe5b6040612e86565b915050610ed9565b611216836131df565b6006546001600160a01b031681565b6000806123d285858561377b565b5095945050505050565b60035461010090046001600160a01b031681565b6006546000906001600160a01b03166315f2405361240c612da7565b600b54600c546040518463ffffffff1660e01b815260040180848152602001838152602001828152602001935050505060206040518083038186803b158015611e9d57600080fd5b6000805460ff16612499576040805162461bcd60e51b815260206004820152600a6024820152691c994b595b9d195c995960b21b604482015290519081900360640190fd5b6000805460ff1916905560408051808201909152601a81527f5f73657452657365727665466163746f722875696e743235362900000000000060208201526124e090612bb0565b60006124ea611a6f565b905080156125085761164b81601181111561250157fe5b6046612e86565b61166d836138ad565b6003546001600160a01b038281166101009092041614611576576040805162461bcd60e51b815260206004820152600c60248201526b155b985d5d1a1bdc9a5e995960a21b604482015290519081900360640190fd5b6001600160a01b038116611576576040805162461bcd60e51b815260206004820152600c60248201526b7a65726f206164647265737360a01b604482015290519081900360640190fd5b60008054819060ff166125f8576040805162461bcd60e51b815260206004820152600a6024820152691c994b595b9d195c995960b21b604482015290519081900360640190fd5b6000805460ff1916815561260a611a6f565b905080156126355761262881601181111561262157fe5b6036612e86565b9250600091506126469050565b61264033338661392a565b92509250505b6000805460ff191660011790559092909150565b600d5460009081908061267557505060075460009150612705565b600061267f612da7565b9050600061268b6158d9565b600061269c84600b54600c54613c86565b9350905060008160038111156126ae57fe5b146126c3579550600094506127059350505050565b6126cd8386613cc4565b9250905060008160038111156126df57fe5b146126f4579550600094506127059350505050565b505160009550935061270592505050565b9091565b600081600381111561271757fe5b14611576576040805162461bcd60e51b815260206004820152600a60248201526936b0ba341032b93937b960b11b604482015290519081900360640190fd5b6000805460ff1661279b576040805162461bcd60e51b815260206004820152600a6024820152691c994b595b9d195c995960b21b604482015290519081900360640190fd5b6000805460ff191681556127ad611a6f565b905080156127d3576127cb8160118111156127c457fe5b6027612e86565b915050611292565b6127e08585856000613d74565b9150506000805460ff191660011790559392505050565b60008054819060ff1661283e576040805162461bcd60e51b815260206004820152600a6024820152691c994b595b9d195c995960b21b604482015290519081900360640190fd5b6000805460ff19168155612850611a6f565b9050801561287b5761286e81601181111561286757fe5b601e612e86565b92506000915061288c9050565b612886338686614424565b92509250505b6000805460ff1916600117905590939092509050565b600554604080516317b9b84b60e31b81523060048201526001600160a01b03868116602483015285811660448301526064820185905291516000938493169163bdcdc25891608480830192602092919082900301818787803b15801561290757600080fd5b505af115801561291b573d6000803e3d6000fd5b505050506040513d602081101561293157600080fd5b505190508015612950576129486003604a8361342d565b9150506113c9565b836001600160a01b0316856001600160a01b03161415612976576129486002604b612e86565b60006001600160a01b03878116908716141561299557506000196129bd565b506001600160a01b038086166000908152600f60209081526040808320938a16835292905220545b6000806000806129cd85896133a2565b909450925060008460038111156129e057fe5b146129fe576129f16009604b612e86565b96505050505050506113c9565b6001600160a01b038a166000908152600e6020526040902054612a2190896133a2565b90945091506000846003811115612a3457fe5b14612a45576129f16009604c612e86565b6001600160a01b0389166000908152600e6020526040902054612a689089613493565b90945090506000846003811115612a7b57fe5b14612a8c576129f16009604d612e86565b6001600160a01b03808b166000908152600e6020526040808220859055918b168152208190556000198514612ae4576001600160a01b03808b166000908152600f60209081526040808320938f168352929052208390555b886001600160a01b03168a6001600160a01b0316600080516020615af18339815191528a6040518082815260200191505060405180910390a36005546040805163352b4a3f60e11b81523060048201526001600160a01b038d811660248301528c81166044830152606482018c905291519190921691636a56947e91608480830192600092919082900301818387803b158015612b8057600080fd5b505af1158015612b94573d6000803e3d6000fd5b5060009250612ba1915050565b9b9a5050505050505050505050565b601654604080516318c5e8ab60e01b81523360048201818152602483019384528551604484015285516001600160a01b03909516946318c5e8ab949293879391606490910190602085019080838360005b83811015612c19578181015183820152602001612c01565b50505050905090810190601f168015612c465780820380516001836020036101000a031916815260200191505b50935050505060206040518083038186803b158015612c6457600080fd5b505afa158015612c78573d6000803e3d6000fd5b505050506040513d6020811015612c8e57600080fd5b5051611576576040805162461bcd60e51b815260206004820152600d60248201526c1858d8d95cdcc819195b9a5959609a1b604482015290519081900360640190fd5b60008054819060ff16612d18576040805162461bcd60e51b815260206004820152600a6024820152691c994b595b9d195c995960b21b604482015290519081900360640190fd5b6000805460ff19168155612d2a611a6f565b90508015612d485761286e816011811115612d4157fe5b6035612e86565b61288633868661392a565b6000806000612d606158d9565b612d6a86866133c5565b90925090506000826003811115612d7d57fe5b14612d8e5750915060009050612da0565b6000612d99826147c7565b9350935050505b9250929050565b601154604080516370a0823160e01b815230600482015290516000926001600160a01b0316916370a08231916024808301926020929190829003018186803b158015611e9d57600080fd5b6000805460ff16612e37576040805162461bcd60e51b815260206004820152600a6024820152691c994b595b9d195c995960b21b604482015290519081900360640190fd5b6000805460ff19168155612e49611a6f565b90508015612e675761164b816011811115612e6057fe5b604e612e86565b612e70836147d6565b509150506000805460ff19166001179055919050565b60007f45b96fe442630264581b197e84bbada861235052c5a1aadfff9ea4e40a969aa0836011811115612eb557fe5b836055811115612ec157fe5b604080519283526020830191909152600082820152519081900360600190a182601181111561121657fe5b600081612efd5760005b9050610ed9565b4360095414612f1257612ef6600a6033612e86565b81612f1b612da7565b1015612f2d57612ef6600e6032612e86565b600c54821115612f4357612ef660026034612e86565b600c805483900390819055601554612f64906001600160a01b0316846148b7565b601554600554601154604080516305bebb3b60e21b81526001600160a01b0393841660048201529183166024830152600060448301819052905192909316926316faecec9260648084019382900301818387803b158015612fc457600080fd5b505af1158015612fd8573d6000803e3d6000fd5b5050601554604080516001600160a01b03909216825260208201879052818101859052517f3bad0c59cf2f06e7314077049f48a93578cd16f5ef92329f1dab1420a99c177e9350908190036060019150a16000611216565b6000805460ff16613075576040805162461bcd60e51b815260206004820152600a6024820152691c994b595b9d195c995960b21b604482015290519081900360640190fd5b6000805460ff19168155613087611a6f565b9050801561309e576127cb8160118111156127c457fe5b6127e08585600086613d74565b6000805460ff166130f0576040805162461bcd60e51b815260206004820152600a6024820152691c994b595b9d195c995960b21b604482015290519081900360640190fd5b6000805460ff19168155613102611a6f565b90508015613120576127cb81601181111561311957fe5b6008612e86565b6127e08585856149aa565b6001600160a01b0381166000908152601060205260408120805482918291829182916131625750600094508493506131da92505050565b6131728160000154600a54614cd0565b9094509250600084600381111561318557fe5b1461319a5750919350600092506131da915050565b6131a8838260010154614d0f565b909450915060008460038111156131bb57fe5b146131d05750919350600092506131da915050565b5060009450925050505b915091565b60008043600954146131f7576123a4600a6041612e86565b600660009054906101000a90046001600160a01b03169050826001600160a01b0316632191f92a6040518163ffffffff1660e01b815260040160206040518083038186803b15801561324857600080fd5b505afa15801561325c573d6000803e3d6000fd5b505050506040513d602081101561327257600080fd5b50516132c5576040805162461bcd60e51b815260206004820152601c60248201527f6d61726b6572206d6574686f642072657475726e65642066616c736500000000604482015290519081900360640190fd5b600680546001600160a01b0319166001600160a01b03858116918217909255604080519284168352602083019190915280517fedffc32e068c7c95dfd4bdfd5c4d939a084d6b11c4199eac8436ed234d72f9269281900390910190a16000611216565b60008054819060ff1661336f576040805162461bcd60e51b815260206004820152600a6024820152691c994b595b9d195c995960b21b604482015290519081900360640190fd5b6000805460ff19168155613381611a6f565b905080156133985761262881601181111561286757fe5b6126403385614d3a565b6000808383116133b9575060009050818303612da0565b50600390506000612da0565b60006133cf6158d9565b6000806133e0866000015186614cd0565b909250905060008260038111156133f357fe5b1461341257506040805160208101909152600081529092509050612da0565b60408051602081019091529081526000969095509350505050565b60007f45b96fe442630264581b197e84bbada861235052c5a1aadfff9ea4e40a969aa084601181111561345c57fe5b84605581111561346857fe5b604080519283526020830191909152818101859052519081900360600190a18360118111156113c957fe5b6000808383018481106134ab57600092509050612da0565b506002915060009050612da0565b60008060006134c66158d9565b6134d087876133c5565b909250905060008260038111156134e357fe5b146134f4575091506000905061350d565b613506613500826147c7565b86613493565b9350935050505b935093915050565b6005546040805163d02f735160e01b81523060048201526001600160a01b038781166024830152868116604483015285811660648301526084820185905291516000938493169163d02f73519160a480830192602092919082900301818787803b15801561358257600080fd5b505af1158015613596573d6000803e3d6000fd5b505050506040513d60208110156135ac57600080fd5b5051905080156135c3576129486003601b8361342d565b846001600160a01b0316846001600160a01b031614156135e9576129486006601c612e86565b6001600160a01b0384166000908152600e60205260408120548190819061361090876133a2565b9093509150600083600381111561362357fe5b146136465761363b6009601a856003811115611bf657fe5b9450505050506113c9565b6001600160a01b0388166000908152600e60205260409020546136699087613493565b9093509050600083600381111561367c57fe5b146136945761363b60096019856003811115611bf657fe5b6001600160a01b038088166000818152600e60209081526040808320879055938c168083529184902085905583518a815293519193600080516020615af1833981519152929081900390910190a360055460408051636d35bf9160e01b81523060048201526001600160a01b038c811660248301528b811660448301528a81166064830152608482018a905291519190921691636d35bf919160a480830192600092919082900301818387803b15801561374d57600080fd5b505af1158015613761573d6000803e3d6000fd5b506000925061376e915050565b9998505050505050505050565b60008054819060ff166137c2576040805162461bcd60e51b815260206004820152600a6024820152691c994b595b9d195c995960b21b604482015290519081900360640190fd5b6000805460ff191681556137d4611a6f565b905080156137ff576137f28160118111156137eb57fe5b600f612e86565b9250600091506138969050565b836001600160a01b031663a6afed956040518163ffffffff1660e01b8152600401602060405180830381600087803b15801561383a57600080fd5b505af115801561384e573d6000803e3d6000fd5b505050506040513d602081101561386457600080fd5b505190508015613884576137f281601181111561387d57fe5b6010612e86565b613890338787876150a7565b92509250505b6000805460ff191660011790559094909350915050565b600043600954146138c457612ef6600a6048612e86565b670de0b6b3a76400008211156138e057612ef660026049612e86565b6008805490839055604080518281526020810185905281517faaa68312e2ea9d50e16af5068410ab56e1a1fd06037b1a35664812c30f821460929181900390910190a16000611216565b60055460408051631200453160e11b81523060048201526001600160a01b0386811660248301528581166044830152606482018590529151600093849384939116916324008a629160848082019260209290919082900301818787803b15801561399357600080fd5b505af11580156139a7573d6000803e3d6000fd5b505050506040513d60208110156139bd57600080fd5b5051905080156139e1576139d4600360388361342d565b92506000915061350d9050565b43600954146139f6576139d4600a6039612e86565b6139fe61596a565b6001600160a01b0386166000908152601060205260409020600101546060820152613a288661312b565b6080830181905260208301826003811115613a3f57fe5b6003811115613a4a57fe5b9052506000905081602001516003811115613a6157fe5b14613a8b57613a7d6009603783602001516003811115611bf657fe5b93506000925061350d915050565b600019851415613aa45760808101516040820152613aac565b604081018590525b613aba87826040015161561c565b60e082018190526080820151613acf916133a2565b60a0830181905260208301826003811115613ae657fe5b6003811115613af157fe5b8152505050613b038160200151612709565b613b13600b548260e001516133a2565b60c0830181905260208301826003811115613b2a57fe5b6003811115613b3557fe5b8152505050613b478160200151612709565b60a080820180516001600160a01b03808a16600081815260106020908152604091829020948555600a5460019095019490945560c0870151600b81905560e088015195518251948f16855294840192909252828101949094526060820192909252608081019190915290517f1a2a22cb034d26d1854bdc6666a5b91fe25efbbb5dcad3b0355478d6f5c362a1929181900390910190a160055460e0820151606083015160408051631ededc9160e01b81523060048201526001600160a01b038c811660248301528b8116604483015260648201949094526084810192909252519190921691631ededc919160a480830192600092919082900301818387803b158015613c5257600080fd5b505af1158015613c66573d6000803e3d6000fd5b5060009250613c73915050565b8160e00151935093505050935093915050565b600080600080613c968787613493565b90925090506000826003811115613ca957fe5b14613cba575091506000905061350d565b61350681866133a2565b6000613cce6158d9565b600080613ce386670de0b6b3a7640000614cd0565b90925090506000826003811115613cf657fe5b14613d1557506040805160208101909152600081529092509050612da0565b600080613d228388614d0f565b90925090506000826003811115613d3557fe5b14613d5757506040805160208101909152600081529094509250612da0915050565b604080516020810190915290815260009890975095505050505050565b6000821580613d81575081155b613dbc5760405162461bcd60e51b8152600401808060200182810382526034815260200180615b446034913960400191505060405180910390fd5b613dc46159b0565b613dcc61265a565b6020830181905282826003811115613de057fe5b6003811115613deb57fe5b905250508051613dfa90612709565b8315613e5557604080820185905280516020808201909252908201518152613e229085612d53565b6060830181905282826003811115613e3657fe5b6003811115613e4157fe5b905250508051613e5090612709565b613ea7565b613e718360405180602001604052808460200151815250615868565b6040830181905282826003811115613e8557fe5b6003811115613e9057fe5b905250508051613e9f90612709565b606081018390525b600554604080830151815163eabe7d9160e01b81523060048201526001600160a01b038a8116602483015260448201929092529151600093919091169163eabe7d9191606480830192602092919082900301818787803b158015613f0a57600080fd5b505af1158015613f1e573d6000803e3d6000fd5b505050506040513d6020811015613f3457600080fd5b505190508015613f78576040805162461bcd60e51b815260206004820152600a60248201526936b0ba341032b93937b960b11b604482015290519081900360640190fd5b4360095414613fbb576040805162461bcd60e51b815260206004820152600a60248201526936b0ba341032b93937b960b11b604482015290519081900360640190fd5b613fcb600d5483604001516133a2565b6080840181905283826003811115613fdf57fe5b6003811115613fea57fe5b905250508151613ff990612709565b6001600160a01b0387166000908152600e602052604090819020549083015161402291906133a2565b60a084018190528382600381111561403657fe5b600381111561404157fe5b90525050815161405090612709565b816060015161405d612da7565b101561409d576040805162461bcd60e51b815260206004820152600a60248201526936b0ba341032b93937b960b11b604482015290519081900360640190fd5b6080820151600d5560a08201516001600160a01b038089166000908152600e60209081526040808320949094556005548451629df3ab60e31b815294519294859491909116926304ef9d5892600480840193919291829003018186803b15801561410657600080fd5b505afa15801561411a573d6000803e3d6000fd5b505050506040513d602081101561413057600080fd5b50511561431c57606084015160055460408051629df3ab60e31b815290516141b393926001600160a01b0316916304ef9d58916004808301926020929190829003018186803b15801561418257600080fd5b505afa158015614196573d6000803e3d6000fd5b505050506040513d60208110156141ac57600080fd5b5051614cd0565b925082858260038111156141c357fe5b60038111156141ce57fe5b9052505083516141dd90612709565b6141ef82670de0b6b3a7640000614d0f565b925082858260038111156141ff57fe5b600381111561420a57fe5b90525050835161421990612709565b6142278460600151836133a2565b9150818582600381111561423757fe5b600381111561424257fe5b90525050835161425190612709565b6005546040805163c5f956af60e01b815290516142c9926001600160a01b03169163c5f956af916004808301926020929190829003018186803b15801561429757600080fd5b505afa1580156142ab573d6000803e3d6000fd5b505050506040513d60208110156142c157600080fd5b5051836148b7565b60408085015181516001600160a01b038c168152602081018590528083019190915290517fccf8e53b86a99b7e9ecf796342c165764d66154780f638c08e6241d711fba6d49181900360600190a1614323565b5060608301515b61432d88826148b7565b6040808501518151908152905130916001600160a01b038c1691600080516020615af18339815191529181900360200190a360408085015160a086015182516001600160a01b038d1681526020810185905280840192909252606082015290517fbd5034ffbd47e4e72a94baa2cdb74c6fad73cb3bcdc13036b72ec8306f5a76469181900360800190a1600554606085015160408087015181516351dff98960e01b81523060048201526001600160a01b038e8116602483015260448201949094526064810191909152905191909216916351dff98991608480830192600092919082900301818387803b15801561374d57600080fd5b60008061443084612567565b60055460408051634ef4c3e160e01b81523060048201526001600160a01b0387811660248301526044820187905291516000939290921691634ef4c3e19160648082019260209290919082900301818787803b15801561448f57600080fd5b505af11580156144a3573d6000803e3d6000fd5b505050506040513d60208110156144b957600080fd5b5051905080156144d0576139d46003601f8361342d565b43600954146144e5576139d4600a6022612e86565b6144ed6159b0565b6144f561265a565b602083018190528282600381111561450957fe5b600381111561451457fe5b905250600090508151600381111561452857fe5b1461454457613a7d6009602183600001516003811115611bf657fe5b61454e878661561c565b60a082018190526040805160208082019092529083015181526145719190615868565b604083018190528282600381111561458557fe5b600381111561459057fe5b90525050805161459f90612709565b6145af600d548260400151613493565b60608301819052828260038111156145c357fe5b60038111156145ce57fe5b9052505080516145dd90612709565b6001600160a01b0386166000908152600e60205260409081902054908201516146069190613493565b608083018190528282600381111561461a57fe5b600381111561462557fe5b90525050805161463490612709565b8060600151600d819055508060800151600e6000886001600160a01b03166001600160a01b03168152602001908152602001600020819055507fa24ddbdf0865ba440d364725c062eac72a908faeedffc33fe64d4640c82e3ab887878360a001518460400151856080015160405180866001600160a01b03166001600160a01b03168152602001856001600160a01b03166001600160a01b031681526020018481526020018381526020018281526020019550505050505060405180910390a1604080820151815190815290516001600160a01b038816913091600080516020615af18339815191529181900360200190a360055460a082015160408084015181516341c728b960e01b81523060048201526001600160a01b038b8116602483015260448201949094526064810191909152905191909216916341c728b991608480830192600092919082900301818387803b15801561479357600080fd5b505af11580156147a7573d6000803e3d6000fd5b50600092506147b4915050565b8160a00151935093505050935093915050565b51670de0b6b3a7640000900490565b60008060008043600954146147fc576147f1600a604f612e86565b935091506131da9050565b614806338661561c565b905080600c54019150600c54821015614866576040805162461bcd60e51b815260206004820181905260248201527f61646420726573657276657320756e6578706563746564206f766572666c6f77604482015290519081900360640190fd5b600c829055604080513381526020810183905280820184905290517fa91e67c5ea634cd43a12c5a482724b03de01e85ca68702a53d0c2f45cb7c1dc59181900360600190a160009350915050915091565b6011546040805163a9059cbb60e01b81526001600160a01b038581166004830152602482018590529151919092169163a9059cbb91604480830192600092919082900301818387803b15801561490c57600080fd5b505af1158015614920573d6000803e3d6000fd5b5050505060003d6000811461493c576020811461494657600080fd5b6000199150614952565b60206000803e60005191505b50806149a5576040805162461bcd60e51b815260206004820152601960248201527f544f4b454e5f5452414e534645525f4f55545f4641494c454400000000000000604482015290519081900360640190fd5b505050565b6005546040805163368f515360e21b81523060048201526001600160a01b0386811660248301526044820185905291516000938493169163da3d454c91606480830192602092919082900301818787803b158015614a0757600080fd5b505af1158015614a1b573d6000803e3d6000fd5b505050506040513d6020811015614a3157600080fd5b505190508015614a75576040805162461bcd60e51b815260206004820152600a60248201526936b0ba341032b93937b960b11b604482015290519081900360640190fd5b4360095414614ab8576040805162461bcd60e51b815260206004820152600a60248201526936b0ba341032b93937b960b11b604482015290519081900360640190fd5b82614ac1612da7565b1015614b01576040805162461bcd60e51b815260206004820152600a60248201526936b0ba341032b93937b960b11b604482015290519081900360640190fd5b614b096159e7565b614b128661312b565b6020830181905282826003811115614b2657fe5b6003811115614b3157fe5b905250508051614b4090612709565b614b4e816020015185613493565b6040830181905282826003811115614b6257fe5b6003811115614b6d57fe5b905250508051614b7c90612709565b614b88600b5485613493565b6060830181905282826003811115614b9c57fe5b6003811115614ba757fe5b905250508051614bb690612709565b6040808201516001600160a01b0388166000908152601060205291909120908155600a546001909101556060810151600b55614bf285856148b7565b60408082015160608084015183516001600160a01b038b16815260208101899052808501939093529082015290517f13ed6866d4e1ee6da46f845c46d7e54120883d75c5ea9a2dacc1c4ca8984ab809181900360800190a160055460408051635c77860560e01b81523060048201526001600160a01b0389811660248301526044820188905291519190921691635c77860591606480830192600092919082900301818387803b158015614ca557600080fd5b505af1158015614cb9573d6000803e3d6000fd5b5060009250614cc6915050565b9695505050505050565b60008083614ce357506000905080612da0565b83830283858281614cf057fe5b0414614d0457506002915060009050612da0565b600092509050612da0565b60008082614d235750600190506000612da0565b6000838581614d2e57fe5b04915091509250929050565b60055460408051634ef4c3e160e01b81523060048201526001600160a01b03858116602483015260448201859052915160009384938493911691634ef4c3e19160648082019260209290919082900301818787803b158015614d9b57600080fd5b505af1158015614daf573d6000803e3d6000fd5b505050506040513d6020811015614dc557600080fd5b505190508015614de957614ddc6003601f8361342d565b925060009150612da09050565b4360095414614dfe57614ddc600a6022612e86565b614e066159b0565b614e0e61265a565b6020830181905282826003811115614e2257fe5b6003811115614e2d57fe5b9052506000905081516003811115614e4157fe5b14614e6b57614e5d6009602183600001516003811115611bf657fe5b935060009250612da0915050565b614e75868661561c565b60a08201819052604080516020808201909252908301518152614e989190615868565b6040830181905282826003811115614eac57fe5b6003811115614eb757fe5b905250508051614ec690612709565b614ed6600d548260400151613493565b6060830181905282826003811115614eea57fe5b6003811115614ef557fe5b905250508051614f0490612709565b6001600160a01b0386166000908152600e6020526040908190205490820151614f2d9190613493565b6080830181905282826003811115614f4157fe5b6003811115614f4c57fe5b905250508051614f5b90612709565b606080820151600d55608080830180516001600160a01b038a166000818152600e60209081526040918290209390935560a08701518188015194518251938452938301528181019390935293840152517fb4c03061fb5b7fed76389d5af8f2e0ddb09f8c70d1333abbb62582835e10accb9281900390910190a1604080820151815190815290516001600160a01b038816913091600080516020615af18339815191529181900360200190a360055460a082015160408084015181516341c728b960e01b81523060048201526001600160a01b038b8116602483015260448201949094526064810191909152905191909216916341c728b991608480830192600092919082900301818387803b15801561507457600080fd5b505af1158015615088573d6000803e3d6000fd5b5060009250615095915050565b8160a001519350935050509250929050565b60055460408051632fe3f38f60e11b81523060048201526001600160a01b0384811660248301528781166044830152868116606483015260848201869052915160009384938493911691635fc7e71e9160a48082019260209290919082900301818787803b15801561511857600080fd5b505af115801561512c573d6000803e3d6000fd5b505050506040513d602081101561514257600080fd5b50519050801561516657615159600360128361342d565b9250600091506156139050565b436009541461517b57615159600a6016612e86565b43846001600160a01b0316636c540baf6040518163ffffffff1660e01b815260040160206040518083038186803b1580156151b557600080fd5b505afa1580156151c9573d6000803e3d6000fd5b505050506040513d60208110156151df57600080fd5b5051146151f257615159600a6011612e86565b866001600160a01b0316866001600160a01b031614156152185761515960066017612e86565b846152295761515960076015612e86565b60001985141561523f5761515960076014612e86565b60008061524d89898961392a565b9092509050811561527d5761526e82601181111561526757fe5b6018612e86565b94506000935061561392505050565b6005546040805163c488847b60e01b81523060048201526001600160a01b038981166024830152604482018590528251600094859492169263c488847b926064808301939192829003018186803b1580156152d757600080fd5b505afa1580156152eb573d6000803e3d6000fd5b505050506040513d604081101561530157600080fd5b5080516020909101519092509050811561534c5760405162461bcd60e51b8152600401808060200182810382526033815260200180615b116033913960400191505060405180910390fd5b80886001600160a01b03166370a082318c6040518263ffffffff1660e01b815260040180826001600160a01b03166001600160a01b0316815260200191505060206040518083038186803b1580156153a357600080fd5b505afa1580156153b7573d6000803e3d6000fd5b505050506040513d60208110156153cd57600080fd5b50511015615422576040805162461bcd60e51b815260206004820152601860248201527f4c49515549444154455f5345495a455f544f4f5f4d5543480000000000000000604482015290519081900360640190fd5b60006001600160a01b03891630141561544857615441308d8d85613515565b90506154d2565b6040805163b2a02ff160e01b81526001600160a01b038e811660048301528d81166024830152604482018590529151918b169163b2a02ff1916064808201926020929091908290030181600087803b1580156154a357600080fd5b505af11580156154b7573d6000803e3d6000fd5b505050506040513d60208110156154cd57600080fd5b505190505b801561551c576040805162461bcd60e51b81526020600482015260146024820152731d1bdad95b881cd95a5e9d5c994819985a5b195960621b604482015290519081900360640190fd5b604080516001600160a01b03808f168252808e1660208301528183018790528b1660608201526080810184905290517f298637f684da70674f26509b10f07ec2fbc77a335ab1e7d6215a4b2484d8bb529181900360a00190a1600554604080516347ef3b3b60e01b81523060048201526001600160a01b038c811660248301528f811660448301528e811660648301526084820188905260a48201869052915191909216916347ef3b3b9160c480830192600092919082900301818387803b1580156155e757600080fd5b505af11580156155fb573d6000803e3d6000fd5b5060009250615608915050565b975092955050505050505b94509492505050565b601154604080516370a0823160e01b8152306004820152905160009283926001600160a01b03909116916370a0823191602480820192602092909190829003018186803b15801561566c57600080fd5b505afa158015615680573d6000803e3d6000fd5b505050506040513d602081101561569657600080fd5b5051601154604080516323b872dd60e01b81526001600160a01b0388811660048301523060248301526044820188905291519394509116916323b872dd9160648082019260009290919082900301818387803b1580156156f557600080fd5b505af1158015615709573d6000803e3d6000fd5b5050505060003d60008114615725576020811461572f57600080fd5b600019915061573b565b60206000803e60005191505b508061578e576040805162461bcd60e51b815260206004820152601860248201527f544f4b454e5f5452414e534645525f494e5f4641494c45440000000000000000604482015290519081900360640190fd5b601154604080516370a0823160e01b815230600482015290516000926001600160a01b0316916370a08231916024808301926020929190829003018186803b1580156157d957600080fd5b505afa1580156157ed573d6000803e3d6000fd5b505050506040513d602081101561580357600080fd5b505190508281101561585c576040805162461bcd60e51b815260206004820152601a60248201527f544f4b454e5f5452414e534645525f494e5f4f564552464c4f57000000000000604482015290519081900360640190fd5b91909103949350505050565b60008060006158756158d9565b612d6a868660006158846158d9565b600080615899670de0b6b3a764000087614cd0565b909250905060008260038111156158ac57fe5b146158cb57506040805160208101909152600081529092509050612da0565b612d99818660000151613cc4565b6040518060200160405280600081525090565b828054600181600116156101000203166002900490600052602060002090601f016020900481019282601f1061592d57805160ff191683800117855561595a565b8280016001018555821561595a579182015b8281111561595a57825182559160200191906001019061593f565b50615966929150615a10565b5090565b6040805161010081019091528060008152602001600081526020016000815260200160008152602001600081526020016000815260200160008152602001600081525090565b6040805160c08101909152806000815260200160008152602001600081526020016000815260200160008152602001600081525090565b604080516080810190915280600081526020016000815260200160008152602001600081525090565b61109a91905b808211156159665760008155600101615a1656fe6d61726b6574206d6179206f6e6c7920626520696e697469616c697a6564206f6e63657365745265647563655265736572766573426c6f636b44656c74612875696e7432353629696e697469616c2065786368616e67652072617465206d7573742062652067726561746572207468616e207a65726f2e73657474696e6720696e7465726573742072617465206d6f64656c206661696c65646f6e6c79207468652061646d696e206d61792063616c6c205f72657369676e496d706c656d656e746174696f6eddf252ad1be2c89b69c2b068fc378daa952ba7f163c4a11628f55a4df523b3ef4c49515549444154455f434f4d5054524f4c4c45525f43414c43554c4154455f414d4f554e545f5345495a455f4641494c45446f6e65206f662072656465656d546f6b656e73496e206f722072656465656d416d6f756e74496e206d757374206265207a65726f6f6e6c79207468652061646d696e206d61792063616c6c205f6265636f6d65496d706c656d656e746174696f6ea265627a7a723158207d63dccedf29762e5b12f4fa10429917de4168036b8988bbb8e510958e13dbeb64736f6c63430005100032",
  "devdoc": {
    "author": "Venus",
    "methods": {
      "_acceptAdmin()": {
        "details": "Admin function for pending admin to accept role and update admin",
        "return": "uint Returns 0 on success, otherwise returns a failure code (see ErrorReporter.sol for details)."
      },
      "_addReserves(uint256)": {
        "params": {
          "addAmount": "The amount of underlying tokens to add as reserves"
        },
        "return": "uint Returns 0 on success, otherwise returns a failure code (see ErrorReporter.sol for details)."
      },
      "_becomeImplementation(bytes)": {
        "params": {
          "data": "The encoded bytes data for any initialization"
        }
      },
      "_reduceReserves(uint256)": {
        "params": {
          "reduceAmount_": "Amount of reduction to reserves"
        },
        "return": "uint Returns 0 on success, otherwise returns a failure code (see ErrorReporter.sol for details)."
      },
      "_setComptroller(address)": {
        "details": "Admin function to set a new comptroller",
        "return": "uint Returns 0 on success, otherwise returns a failure code (see ErrorReporter.sol for details)."
      },
      "_setInterestRateModel(address)": {
        "details": "Governance function to accrue interest and update the interest rate model",
        "params": {
          "newInterestRateModel_": "The new interest rate model to use"
        },
        "return": "uint Returns 0 on success, otherwise returns a failure code (see ErrorReporter.sol for details)."
      },
      "_setPendingAdmin(address)": {
        "details": "Admin function to begin change of admin. The newPendingAdmin must call `_acceptAdmin` to finalize the transfer.",
        "params": {
          "newPendingAdmin": "New pending admin."
        },
        "return": "uint Returns 0 on success, otherwise returns a failure code (see ErrorReporter.sol for details)."
      },
      "_setReserveFactor(uint256)": {
        "details": "Governor function to accrue interest and set a new reserve factor",
        "return": "uint Returns 0 on success, otherwise returns a failure code (see ErrorReporter.sol for details)."
      },
      "accrueInterest()": {
        "details": "This calculates interest accrued from the last checkpointed block up to the current block and writes new checkpoint to storage and reduce spread reserves to protocol share reserve if currentBlock - reduceReservesBlockNumber >= blockDelta"
      },
      "allowance(address,address)": {
        "params": {
          "owner": "The address of the account which owns the tokens to be spent",
          "spender": "The address of the account which may transfer tokens"
        },
        "return": "The number of tokens allowed to be spent (-1 means infinite)"
      },
      "approve(address,uint256)": {
        "details": "This will overwrite the approval amount for `spender` and is subject to issues noted [here](https://eips.ethereum.org/EIPS/eip-20#approve)",
        "params": {
          "amount": "The number of tokens that are approved (-1 means infinite)",
          "spender": "The address of the account which may transfer tokens"
        },
        "return": "Whether or not the approval succeeded"
      },
      "balanceOf(address)": {
        "params": {
          "owner": "The address of the account to query"
        },
        "return": "The number of tokens owned by `owner`"
      },
      "balanceOfUnderlying(address)": {
        "details": "This also accrues interest in a transaction",
        "params": {
          "owner": "The address of the account to query"
        },
        "return": "The amount of underlying owned by `owner`"
      },
      "borrow(uint256)": {
        "params": {
          "borrowAmount": "The amount of the underlying asset to borrow"
        },
        "return": "uint Returns 0 on success, otherwise returns a failure code (see ErrorReporter.sol for details)."
      },
      "borrowBalanceCurrent(address)": {
        "params": {
          "account": "The address whose balance should be calculated after updating borrowIndex"
        },
        "return": "The calculated balance"
      },
      "borrowBalanceStored(address)": {
        "params": {
          "account": "The address whose balance should be calculated"
        },
        "return": "The calculated balance"
      },
      "borrowBehalf(address,uint256)": {
        "params": {
          "borrowAmount": "The amount of the underlying asset to borrow",
          "borrower": "The borrower, on behalf of whom to borrow."
        },
        "return": "uint Returns 0 on success, otherwise returns a failure code (see ErrorReporter.sol for details)."
      },
      "borrowRatePerBlock()": {
        "return": "The borrow interest rate per block, scaled by 1e18"
      },
      "exchangeRateCurrent()": {
        "return": "Calculated exchange rate scaled by 1e18"
      },
      "exchangeRateStored()": {
        "details": "This function does not accrue interest before calculating the exchange rate",
        "return": "Calculated exchange rate scaled by 1e18"
      },
      "getAccountSnapshot(address)": {
        "details": "This is used by comptroller to more efficiently perform liquidity checks.",
        "params": {
          "account": "Address of the account to snapshot"
        },
        "return": "(possible error, token balance, borrow balance, exchange rate mantissa)"
      },
      "getCash()": {
        "return": "The quantity of underlying asset owned by this contract"
      },
      "initialize(address,address,address,uint256,string,string,uint8)": {
        "params": {
          "comptroller_": "The address of the Comptroller",
          "decimals_": "BEP-20 decimal precision of this token",
          "initialExchangeRateMantissa_": "The initial exchange rate, scaled by 1e18",
          "interestRateModel_": "The address of the interest rate model",
          "name_": "BEP-20 name of this token",
          "symbol_": "BEP-20 symbol of this token",
          "underlying_": "The address of the underlying asset"
        }
      },
      "initialize(address,address,uint256,string,string,uint8)": {
        "params": {
          "comptroller_": "The address of the Comptroller",
          "decimals_": "EIP-20 decimal precision of this token",
          "initialExchangeRateMantissa_": "The initial exchange rate, scaled by 1e18",
          "interestRateModel_": "The address of the interest rate model",
          "name_": "EIP-20 name of this token",
          "symbol_": "EIP-20 symbol of this token"
        }
      },
      "liquidateBorrow(address,uint256,address)": {
        "params": {
          "borrower": "The borrower of this vToken to be liquidated",
          "repayAmount": "The amount of the underlying borrowed asset to repay",
          "vTokenCollateral": "The market in which to seize collateral from the borrower"
        },
        "return": "uint Returns 0 on success, otherwise returns a failure code (see ErrorReporter.sol for details)."
      },
      "mint(uint256)": {
        "details": "Accrues interest whether or not the operation succeeds, unless reverted",
        "params": {
          "mintAmount": "The amount of the underlying asset to supply"
        },
        "return": "uint Returns 0 on success, otherwise returns a failure code (see ErrorReporter.sol for details)."
      },
      "mintBehalf(address,uint256)": {
        "details": "Accrues interest whether or not the operation succeeds, unless reverted",
        "params": {
          "mintAmount": "The amount of the underlying asset to supply",
          "receiver": "The account which is receiving the vTokens"
        },
        "return": "uint Returns 0 on success, otherwise returns a failure code (see ErrorReporter.sol for details)."
      },
      "redeem(uint256)": {
        "details": "Accrues interest whether or not the operation succeeds, unless reverted",
        "params": {
          "redeemTokens": "The number of vTokens to redeem into underlying"
        },
        "return": "uint Returns 0 on success, otherwise returns a failure code (see ErrorReporter.sol for details)."
      },
      "redeemBehalf(address,uint256)": {
        "details": "Accrues interest whether or not the operation succeeds, unless reverted",
        "params": {
          "redeemTokens": "The number of vTokens to redeem into underlying",
          "redeemer": "The user on behalf of whom to redeem"
        },
        "return": "uint Returns 0 on success, otherwise returns a failure code (see ErrorReporter.sol for details)."
      },
      "redeemUnderlying(uint256)": {
        "details": "Accrues interest whether or not the operation succeeds, unless reverted",
        "params": {
          "redeemAmount": "The amount of underlying to redeem"
        },
        "return": "uint Returns 0 on success, otherwise returns a failure code (see ErrorReporter.sol for details)."
      },
      "redeemUnderlyingBehalf(address,uint256)": {
        "details": "Accrues interest whether or not the operation succeeds, unless reverted",
        "params": {
          "redeemAmount": "The amount of underlying to receive from redeeming vTokens",
          "redeemer": ", on behalf of whom to redeem"
        },
        "return": "uint Returns 0 on success, otherwise returns a failure code (see ErrorReporter.sol for details)."
      },
      "repayBorrow(uint256)": {
        "params": {
          "repayAmount": "The amount to repay"
        },
        "return": "uint Returns 0 on success, otherwise returns a failure code (see ErrorReporter.sol for details)."
      },
      "repayBorrowBehalf(address,uint256)": {
        "params": {
          "borrower": "The account with the debt being payed off",
          "repayAmount": "The amount to repay"
        },
        "return": "uint Returns 0 on success, otherwise returns a failure code (see ErrorReporter.sol for details)."
      },
      "seize(address,address,uint256)": {
        "details": "Will fail unless called by another vToken during the process of liquidation. Its absolutely critical to use msg.sender as the borrowed vToken and not a parameter.",
        "params": {
          "borrower": "The account having collateral seized",
          "liquidator": "The account receiving seized collateral",
          "seizeTokens": "The number of vTokens to seize"
        },
        "return": "uint Returns 0 on success, otherwise returns a failure code (see ErrorReporter.sol for details)."
      },
      "setAccessControlManager(address)": {
        "details": "Admin function to set the access control address",
        "params": {
          "newAccessControlManagerAddress": "New address for the access control"
        },
        "return": "uint 0=success, otherwise will revert"
      },
      "setProtocolShareReserve(address)": {
        "params": {
          "protcolShareReserve_": "The address of protocol share reserve contract"
        }
      },
      "setReduceReservesBlockDelta(uint256)": {
        "params": {
          "newReduceReservesBlockDelta_": "block difference value"
        }
      },
      "supplyRatePerBlock()": {
        "return": "The supply interest rate per block, scaled by 1e18"
      },
      "totalBorrowsCurrent()": {
        "return": "The total borrows with interest"
      },
      "transfer(address,uint256)": {
        "params": {
          "amount": "The number of tokens to transfer",
          "dst": "The address of the destination account"
        },
        "return": "Whether or not the transfer succeeded"
      },
      "transferFrom(address,address,uint256)": {
        "params": {
          "amount": "The number of tokens to transfer",
          "dst": "The address of the destination account",
          "src": "The address of the source account"
        },
        "return": "Whether or not the transfer succeeded"
      }
    },
    "title": "Venus's VBep20Delegate Contract"
  },
  "userdoc": {
    "methods": {
      "_acceptAdmin()": {
        "notice": "Accepts transfer of admin rights. msg.sender must be pendingAdmin"
      },
      "_addReserves(uint256)": {
        "notice": "The sender adds to reserves."
      },
      "_becomeImplementation(bytes)": {
        "notice": "Called by the delegator on a delegate to initialize it for duty"
      },
      "_reduceReserves(uint256)": {
        "notice": "Accrues interest and reduces reserves by transferring to protocol share reserve"
      },
      "_resignImplementation()": {
        "notice": "Called by the delegator on a delegate to forfeit its responsibility"
      },
      "_setComptroller(address)": {
        "notice": "Sets a new comptroller for the market"
      },
      "_setInterestRateModel(address)": {
        "notice": "Accrues interest and updates the interest rate model using _setInterestRateModelFresh"
      },
      "_setPendingAdmin(address)": {
        "notice": "Begins transfer of admin rights. The newPendingAdmin must call `_acceptAdmin` to finalize the transfer."
      },
      "_setReserveFactor(uint256)": {
        "notice": "accrues interest and sets a new reserve factor for the protocol using `_setReserveFactorFresh`"
      },
      "accrueInterest()": {
        "notice": "Applies accrued interest to total borrows and reserves"
      },
      "allowance(address,address)": {
        "notice": "Get the current allowance from `owner` for `spender`"
      },
      "approve(address,uint256)": {
        "notice": "Approve `spender` to transfer up to `amount` from `src`"
      },
      "balanceOf(address)": {
        "notice": "Get the token balance of the `owner`"
      },
      "balanceOfUnderlying(address)": {
        "notice": "Get the underlying balance of the `owner`"
      },
      "borrow(uint256)": {
        "notice": "Sender borrows assets from the protocol to their own address"
      },
      "borrowBalanceCurrent(address)": {
        "notice": "Accrue interest to updated borrowIndex and then calculate account's borrow balance using the updated borrowIndex"
      },
      "borrowBalanceStored(address)": {
        "notice": "Return the borrow balance of account based on stored data"
      },
      "borrowBehalf(address,uint256)": {
        "notice": "Sender borrows assets on behalf of some other address. This function is only available  for senders, explicitly marked as delegates of the borrower using `comptroller.updateDelegate`"
      },
      "borrowRatePerBlock()": {
        "notice": "Returns the current per-block borrow interest rate for this vToken"
      },
      "constructor": "Construct an empty delegate",
      "exchangeRateCurrent()": {
        "notice": "Accrue interest then return the up-to-date exchange rate"
      },
      "exchangeRateStored()": {
        "notice": "Calculates the exchange rate from the underlying to the VToken"
      },
      "getAccountSnapshot(address)": {
        "notice": "Get a snapshot of the account's balances, and the cached exchange rate"
      },
      "getCash()": {
        "notice": "Get cash balance of this vToken in the underlying asset"
      },
      "initialize(address,address,address,uint256,string,string,uint8)": {
        "notice": "Initialize the new money market"
      },
      "initialize(address,address,uint256,string,string,uint8)": {
        "notice": "Initialize the money market"
      },
      "liquidateBorrow(address,uint256,address)": {
        "notice": "The sender liquidates the borrowers collateral. The collateral seized is transferred to the liquidator."
      },
      "mint(uint256)": {
        "notice": "Sender supplies assets into the market and receives vTokens in exchange"
      },
      "mintBehalf(address,uint256)": {
        "notice": "Sender supplies assets into the market and receiver receives vTokens in exchange"
      },
      "redeem(uint256)": {
        "notice": "Sender redeems vTokens in exchange for the underlying asset"
      },
      "redeemBehalf(address,uint256)": {
        "notice": "Sender redeems assets on behalf of some other address. This function is only available  for senders, explicitly marked as delegates of the supplier using `comptroller.updateDelegate`"
      },
      "redeemUnderlying(uint256)": {
        "notice": "Sender redeems vTokens in exchange for a specified amount of underlying asset"
      },
      "redeemUnderlyingBehalf(address,uint256)": {
        "notice": "Sender redeems underlying assets on behalf of some other address. This function is only available  for senders, explicitly marked as delegates of the supplier using `comptroller.updateDelegate`"
      },
      "repayBorrow(uint256)": {
        "notice": "Sender repays their own borrow"
      },
      "repayBorrowBehalf(address,uint256)": {
        "notice": "Sender repays a borrow belonging to another borrowing account"
      },
      "seize(address,address,uint256)": {
        "notice": "Transfers collateral tokens (this market) to the liquidator."
      },
      "setAccessControlManager(address)": {
        "notice": "Sets the address of the access control manager of this contract"
      },
      "setProtocolShareReserve(address)": {
        "notice": "Sets protocol share reserve contract address"
      },
      "setReduceReservesBlockDelta(uint256)": {
        "notice": "Governance function to set new threshold of block difference after which funds will be sent to the protocol share reserve"
      },
      "supplyRatePerBlock()": {
        "notice": "Returns the current per-block supply interest rate for this vToken"
      },
      "totalBorrowsCurrent()": {
        "notice": "Returns the current total borrows plus accrued interest"
      },
      "transfer(address,uint256)": {
        "notice": "Transfer `amount` tokens from `msg.sender` to `dst`"
      },
      "transferFrom(address,address,uint256)": {
        "notice": "Transfer `amount` tokens from `src` to `dst`"
      }
    },
    "notice": "VTokens which wrap an EIP-20 underlying and are delegated to"
  },
  "storageLayout": {
    "storage": [
      {
        "astId": 23057,
        "contract": "contracts/Tokens/VTokens/VBep20Delegate.sol:VBep20Delegate",
        "label": "_notEntered",
        "offset": 0,
        "slot": "0",
        "type": "t_bool"
      },
      {
        "astId": 23059,
        "contract": "contracts/Tokens/VTokens/VBep20Delegate.sol:VBep20Delegate",
        "label": "name",
        "offset": 0,
        "slot": "1",
        "type": "t_string_storage"
      },
      {
        "astId": 23061,
        "contract": "contracts/Tokens/VTokens/VBep20Delegate.sol:VBep20Delegate",
        "label": "symbol",
        "offset": 0,
        "slot": "2",
        "type": "t_string_storage"
      },
      {
        "astId": 23063,
        "contract": "contracts/Tokens/VTokens/VBep20Delegate.sol:VBep20Delegate",
        "label": "decimals",
        "offset": 0,
        "slot": "3",
        "type": "t_uint8"
      },
      {
        "astId": 23071,
        "contract": "contracts/Tokens/VTokens/VBep20Delegate.sol:VBep20Delegate",
        "label": "admin",
        "offset": 1,
        "slot": "3",
        "type": "t_address_payable"
      },
      {
        "astId": 23073,
        "contract": "contracts/Tokens/VTokens/VBep20Delegate.sol:VBep20Delegate",
        "label": "pendingAdmin",
        "offset": 0,
        "slot": "4",
        "type": "t_address_payable"
      },
      {
        "astId": 23075,
        "contract": "contracts/Tokens/VTokens/VBep20Delegate.sol:VBep20Delegate",
        "label": "comptroller",
        "offset": 0,
        "slot": "5",
        "type": "t_contract(ComptrollerInterface)2305"
      },
      {
        "astId": 23077,
        "contract": "contracts/Tokens/VTokens/VBep20Delegate.sol:VBep20Delegate",
        "label": "interestRateModel",
        "offset": 0,
        "slot": "6",
        "type": "t_contract(InterestRateModel)8969"
      },
      {
        "astId": 23079,
        "contract": "contracts/Tokens/VTokens/VBep20Delegate.sol:VBep20Delegate",
        "label": "initialExchangeRateMantissa",
        "offset": 0,
        "slot": "7",
        "type": "t_uint256"
      },
      {
        "astId": 23081,
        "contract": "contracts/Tokens/VTokens/VBep20Delegate.sol:VBep20Delegate",
        "label": "reserveFactorMantissa",
        "offset": 0,
        "slot": "8",
        "type": "t_uint256"
      },
      {
        "astId": 23083,
        "contract": "contracts/Tokens/VTokens/VBep20Delegate.sol:VBep20Delegate",
        "label": "accrualBlockNumber",
        "offset": 0,
        "slot": "9",
        "type": "t_uint256"
      },
      {
        "astId": 23085,
        "contract": "contracts/Tokens/VTokens/VBep20Delegate.sol:VBep20Delegate",
        "label": "borrowIndex",
        "offset": 0,
        "slot": "10",
        "type": "t_uint256"
      },
      {
        "astId": 23087,
        "contract": "contracts/Tokens/VTokens/VBep20Delegate.sol:VBep20Delegate",
        "label": "totalBorrows",
        "offset": 0,
        "slot": "11",
        "type": "t_uint256"
      },
      {
        "astId": 23089,
        "contract": "contracts/Tokens/VTokens/VBep20Delegate.sol:VBep20Delegate",
        "label": "totalReserves",
        "offset": 0,
        "slot": "12",
        "type": "t_uint256"
      },
      {
        "astId": 23091,
        "contract": "contracts/Tokens/VTokens/VBep20Delegate.sol:VBep20Delegate",
        "label": "totalSupply",
        "offset": 0,
        "slot": "13",
        "type": "t_uint256"
      },
      {
        "astId": 23095,
        "contract": "contracts/Tokens/VTokens/VBep20Delegate.sol:VBep20Delegate",
        "label": "accountTokens",
        "offset": 0,
        "slot": "14",
        "type": "t_mapping(t_address,t_uint256)"
      },
      {
        "astId": 23101,
        "contract": "contracts/Tokens/VTokens/VBep20Delegate.sol:VBep20Delegate",
        "label": "transferAllowances",
        "offset": 0,
        "slot": "15",
        "type": "t_mapping(t_address,t_mapping(t_address,t_uint256))"
      },
      {
        "astId": 23105,
        "contract": "contracts/Tokens/VTokens/VBep20Delegate.sol:VBep20Delegate",
        "label": "accountBorrows",
        "offset": 0,
        "slot": "16",
        "type": "t_mapping(t_address,t_struct(BorrowSnapshot)23055_storage)"
      },
      {
        "astId": 23107,
        "contract": "contracts/Tokens/VTokens/VBep20Delegate.sol:VBep20Delegate",
        "label": "underlying",
        "offset": 0,
        "slot": "17",
        "type": "t_address"
      },
      {
        "astId": 23109,
        "contract": "contracts/Tokens/VTokens/VBep20Delegate.sol:VBep20Delegate",
        "label": "implementation",
        "offset": 0,
        "slot": "18",
        "type": "t_address"
      },
      {
        "astId": 23111,
        "contract": "contracts/Tokens/VTokens/VBep20Delegate.sol:VBep20Delegate",
        "label": "reduceReservesBlockDelta",
        "offset": 0,
        "slot": "19",
        "type": "t_uint256"
      },
      {
        "astId": 23113,
        "contract": "contracts/Tokens/VTokens/VBep20Delegate.sol:VBep20Delegate",
        "label": "reduceReservesBlockNumber",
        "offset": 0,
        "slot": "20",
        "type": "t_uint256"
      },
      {
        "astId": 23115,
        "contract": "contracts/Tokens/VTokens/VBep20Delegate.sol:VBep20Delegate",
        "label": "protocolShareReserve",
        "offset": 0,
        "slot": "21",
        "type": "t_address_payable"
      },
      {
        "astId": 23117,
        "contract": "contracts/Tokens/VTokens/VBep20Delegate.sol:VBep20Delegate",
        "label": "accessControlManager",
        "offset": 0,
        "slot": "22",
        "type": "t_address"
      },
      {
        "astId": 23124,
        "contract": "contracts/Tokens/VTokens/VBep20Delegate.sol:VBep20Delegate",
        "label": "__gap",
        "offset": 0,
        "slot": "23",
        "type": "t_array(t_uint256)50_storage"
      }
    ],
    "types": {
      "t_address": {
        "encoding": "inplace",
        "label": "address",
        "numberOfBytes": "20"
      },
      "t_address_payable": {
        "encoding": "inplace",
        "label": "address payable",
        "numberOfBytes": "20"
      },
      "t_array(t_uint256)50_storage": {
        "base": "t_uint256",
        "encoding": "inplace",
        "label": "uint256[50]",
        "numberOfBytes": "1600"
      },
      "t_bool": {
        "encoding": "inplace",
        "label": "bool",
        "numberOfBytes": "1"
      },
      "t_contract(ComptrollerInterface)2305": {
        "encoding": "inplace",
        "label": "contract ComptrollerInterface",
        "numberOfBytes": "20"
      },
      "t_contract(InterestRateModel)8969": {
        "encoding": "inplace",
        "label": "contract InterestRateModel",
        "numberOfBytes": "20"
      },
      "t_mapping(t_address,t_mapping(t_address,t_uint256))": {
        "encoding": "mapping",
        "key": "t_address",
        "label": "mapping(address => mapping(address => uint256))",
        "numberOfBytes": "32",
        "value": "t_mapping(t_address,t_uint256)"
      },
      "t_mapping(t_address,t_struct(BorrowSnapshot)23055_storage)": {
        "encoding": "mapping",
        "key": "t_address",
        "label": "mapping(address => struct VTokenStorageBase.BorrowSnapshot)",
        "numberOfBytes": "32",
        "value": "t_struct(BorrowSnapshot)23055_storage"
      },
      "t_mapping(t_address,t_uint256)": {
        "encoding": "mapping",
        "key": "t_address",
        "label": "mapping(address => uint256)",
        "numberOfBytes": "32",
        "value": "t_uint256"
      },
      "t_string_storage": {
        "encoding": "bytes",
        "label": "string",
        "numberOfBytes": "32"
      },
      "t_struct(BorrowSnapshot)23055_storage": {
        "encoding": "inplace",
        "label": "struct VTokenStorageBase.BorrowSnapshot",
        "members": [
          {
            "astId": 23052,
            "contract": "contracts/Tokens/VTokens/VBep20Delegate.sol:VBep20Delegate",
            "label": "principal",
            "offset": 0,
            "slot": "0",
            "type": "t_uint256"
          },
          {
            "astId": 23054,
            "contract": "contracts/Tokens/VTokens/VBep20Delegate.sol:VBep20Delegate",
            "label": "interestIndex",
            "offset": 0,
            "slot": "1",
            "type": "t_uint256"
          }
        ],
        "numberOfBytes": "64"
      },
      "t_uint256": {
        "encoding": "inplace",
        "label": "uint256",
        "numberOfBytes": "32"
      },
      "t_uint8": {
        "encoding": "inplace",
        "label": "uint8",
        "numberOfBytes": "1"
      }
    }
  }
}