{
  "address": "0xae2713FbdF95d914182f7055ec1Ff6C64F41c275",
  "abi": [
    {
      "inputs": [
        {
          "internalType": "contract VTokenInterface",
          "name": "_vBNB",
          "type": "address"
        },
        {
          "internalType": "contract IWBNB",
          "name": "_WBNB",
          "type": "address"
        }
      ],
      "stateMutability": "nonpayable",
      "type": "constructor"
    },
    {
      "inputs": [
        {
          "internalType": "address",
          "name": "sender",
          "type": "address"
        },
        {
          "internalType": "address",
          "name": "calledContract",
          "type": "address"
        },
        {
          "internalType": "string",
          "name": "methodSignature",
          "type": "string"
        }
      ],
      "name": "Unauthorized",
      "type": "error"
    },
    {
      "anonymous": false,
      "inputs": [
        {
          "indexed": false,
          "internalType": "uint8",
          "name": "version",
          "type": "uint8"
        }
      ],
      "name": "Initialized",
      "type": "event"
    },
    {
      "anonymous": false,
      "inputs": [
        {
          "indexed": false,
          "internalType": "address",
          "name": "oldAccessControlManager",
          "type": "address"
        },
        {
          "indexed": false,
          "internalType": "address",
          "name": "newAccessControlManager",
          "type": "address"
        }
      ],
      "name": "NewAccessControlManager",
      "type": "event"
    },
    {
      "anonymous": false,
      "inputs": [
        {
          "indexed": true,
          "internalType": "address",
          "name": "previousOwner",
          "type": "address"
        },
        {
          "indexed": true,
          "internalType": "address",
          "name": "newOwner",
          "type": "address"
        }
      ],
      "name": "OwnershipTransferStarted",
      "type": "event"
    },
    {
      "anonymous": false,
      "inputs": [
        {
          "indexed": true,
          "internalType": "address",
          "name": "previousOwner",
          "type": "address"
        },
        {
          "indexed": true,
          "internalType": "address",
          "name": "newOwner",
          "type": "address"
        }
      ],
      "name": "OwnershipTransferred",
      "type": "event"
    },
    {
      "anonymous": false,
      "inputs": [
        {
          "indexed": true,
          "internalType": "contract IProtocolShareReserve",
          "name": "oldProtocolShareReserve",
          "type": "address"
        },
        {
          "indexed": true,
          "internalType": "contract IProtocolShareReserve",
          "name": "newProtocolShareReserve",
          "type": "address"
        }
      ],
      "name": "ProtocolShareReserveUpdated",
      "type": "event"
    },
    {
      "anonymous": false,
      "inputs": [
        {
          "indexed": false,
          "internalType": "uint256",
          "name": "reduceAmount",
          "type": "uint256"
        }
      ],
      "name": "ReservesReduced",
      "type": "event"
    },
    {
      "stateMutability": "payable",
      "type": "fallback"
    },
    {
      "inputs": [],
      "name": "WBNB",
      "outputs": [
        {
          "internalType": "contract IWBNB",
          "name": "",
          "type": "address"
        }
      ],
      "stateMutability": "view",
      "type": "function"
    },
    {
      "inputs": [],
      "name": "acceptOwnership",
      "outputs": [],
      "stateMutability": "nonpayable",
      "type": "function"
    },
    {
      "inputs": [],
      "name": "accessControlManager",
      "outputs": [
        {
          "internalType": "contract IAccessControlManagerV8",
          "name": "",
          "type": "address"
        }
      ],
      "stateMutability": "view",
      "type": "function"
    },
    {
      "inputs": [
        {
          "internalType": "contract IProtocolShareReserve",
          "name": "_protocolShareReserve",
          "type": "address"
        },
        {
          "internalType": "address",
          "name": "accessControlManager",
          "type": "address"
        }
      ],
      "name": "initialize",
      "outputs": [],
      "stateMutability": "nonpayable",
      "type": "function"
    },
    {
      "inputs": [],
      "name": "owner",
      "outputs": [
        {
          "internalType": "address",
          "name": "",
          "type": "address"
        }
      ],
      "stateMutability": "view",
      "type": "function"
    },
    {
      "inputs": [],
      "name": "pendingOwner",
      "outputs": [
        {
          "internalType": "address",
          "name": "",
          "type": "address"
        }
      ],
      "stateMutability": "view",
      "type": "function"
    },
    {
      "inputs": [],
      "name": "protocolShareReserve",
      "outputs": [
        {
          "internalType": "contract IProtocolShareReserve",
          "name": "",
          "type": "address"
        }
      ],
      "stateMutability": "view",
      "type": "function"
    },
    {
      "inputs": [
        {
          "internalType": "uint256",
          "name": "reduceAmount",
          "type": "uint256"
        }
      ],
      "name": "reduceReserves",
      "outputs": [],
      "stateMutability": "nonpayable",
      "type": "function"
    },
    {
      "inputs": [],
      "name": "renounceOwnership",
      "outputs": [],
      "stateMutability": "nonpayable",
      "type": "function"
    },
    {
      "inputs": [
        {
          "internalType": "address",
          "name": "accessControlManager_",
          "type": "address"
        }
      ],
      "name": "setAccessControlManager",
      "outputs": [],
      "stateMutability": "nonpayable",
      "type": "function"
    },
    {
      "inputs": [
        {
          "internalType": "address",
          "name": "newInterestRateModel",
          "type": "address"
        }
      ],
      "name": "setInterestRateModel",
      "outputs": [
        {
          "internalType": "uint256",
          "name": "",
          "type": "uint256"
        }
      ],
      "stateMutability": "nonpayable",
      "type": "function"
    },
    {
      "inputs": [
        {
          "internalType": "contract IProtocolShareReserve",
          "name": "protocolShareReserve_",
          "type": "address"
        }
      ],
      "name": "setProtocolShareReserve",
      "outputs": [],
      "stateMutability": "nonpayable",
      "type": "function"
    },
    {
      "inputs": [
        {
          "internalType": "address",
          "name": "newOwner",
          "type": "address"
        }
      ],
      "name": "transferOwnership",
      "outputs": [],
      "stateMutability": "nonpayable",
      "type": "function"
    },
    {
      "inputs": [],
      "name": "vBNB",
      "outputs": [
        {
          "internalType": "contract VTokenInterface",
          "name": "",
          "type": "address"
        }
      ],
      "stateMutability": "view",
      "type": "function"
    },
    {
      "stateMutability": "payable",
      "type": "receive"
    }
  ],
  "transactionHash": "0xab279122caf70dbc0b0c90c543ab276a4970ced1f4ab3ea61b4871c0bd379818",
  "args": [
    "0xA07c5b74C9B40447a954e1466938b865b6BBea36",
    "0xbb4CdB9CBd36B01bD1cBaEBF2De08d9173bc095c"
  ],
  "numDeployments": 1,
  "solcInputHash": "ba77843cff9e1425bead54101e438cee",
  "bytecode": "0x60c060405234801561000f575f80fd5b506040516116a33803806116a383398101604081905261002e916101d0565b6001600160a01b0381166100895760405162461bcd60e51b815260206004820152601460248201527f57424e42206164647265737320696e76616c696400000000000000000000000060448201526064015b60405180910390fd5b6001600160a01b0382166100df5760405162461bcd60e51b815260206004820152601460248201527f76424e42206164647265737320696e76616c69640000000000000000000000006044820152606401610080565b6001600160a01b03808316608052811660a0526100fa610101565b5050610208565b5f54610100900460ff16156101685760405162461bcd60e51b815260206004820152602760248201527f496e697469616c697a61626c653a20636f6e747261637420697320696e697469604482015266616c697a696e6760c81b6064820152608401610080565b5f5460ff908116146101b7575f805460ff191660ff9081179091556040519081527f7f26b83ff96e1f2b6a682f133852f6798a09c465da95921460cefb38474024989060200160405180910390a15b565b6001600160a01b03811681146101cd575f80fd5b50565b5f80604083850312156101e1575f80fd5b82516101ec816101b9565b60208401519092506101fd816101b9565b809150509250929050565b60805160a05161143c6102675f395f81816103980152818161058201528181610607015281816106d60152610bea01525f818160f001528181610184015281816102b7015281816104ac015281816106550152610aaa015261143c5ff3fe6080604052600436106100e0575f3560e01c80638bcd40161161007e578063b4a0bdf311610058578063b4a0bdf3146103ba578063e30c3978146103d7578063e9a44fd9146103f4578063f2fde38b1461041357610174565b80638bcd40161461033d5780638da5cb5b1461036a5780638dd950021461038757610174565b806333e1567f116100ba57806333e1567f146102a6578063485cc955146102f6578063715018a61461031557806379ba50971461032957610174565b806307e27959146102495780630e32cb8614610268578063107568df1461028757610174565b3661017457336001600160a01b037f000000000000000000000000000000000000000000000000000000000000000016146101725760405162461bcd60e51b815260206004820152602760248201527f6f6e6c792076424e422063616e2073656e6420424e4220746f207468697320636044820152661bdb9d1c9858dd60ca1b60648201526084015b60405180910390fd5b005b5f366060610180610432565b5f807f00000000000000000000000000000000000000000000000000000000000000006001600160a01b03163486866040516101bd9291906111e8565b5f6040518083038185875af1925050503d805f81146101f7576040519150601f19603f3d011682016040523d82523d5f602084013e6101fc565b606091505b50915091508161023c5760405162461bcd60e51b815260206004820152600b60248201526a18d85b1b0819985a5b195960aa1b6044820152606401610169565b8051945060200192505050f35b348015610254575f80fd5b506101726102633660046111f7565b61048e565b348015610273575f80fd5b50610172610282366004611222565b610787565b348015610292575f80fd5b506101726102a1366004611222565b610798565b3480156102b1575f80fd5b506102d97f000000000000000000000000000000000000000000000000000000000000000081565b6040516001600160a01b0390911681526020015b60405180910390f35b348015610301575f80fd5b50610172610310366004611244565b610847565b348015610320575f80fd5b506101726109c4565b348015610334575f80fd5b506101726109d5565b348015610348575f80fd5b5061035c610357366004611222565b610a4c565b6040519081526020016102ed565b348015610375575f80fd5b506065546001600160a01b03166102d9565b348015610392575f80fd5b506102d97f000000000000000000000000000000000000000000000000000000000000000081565b3480156103c5575f80fd5b5060c9546001600160a01b03166102d9565b3480156103e2575f80fd5b506097546001600160a01b03166102d9565b3480156103ff575f80fd5b5060fb546102d9906001600160a01b031681565b34801561041e575f80fd5b5061017261042d366004611222565b610b1a565b6065546001600160a01b0316331461048c5760405162461bcd60e51b815260206004820181905260248201527f4f776e61626c653a2063616c6c6572206973206e6f7420746865206f776e65726044820152606401610169565b565b610496610b8b565b60405163601a0bf160e01b8152600481018290527f00000000000000000000000000000000000000000000000000000000000000006001600160a01b03169063601a0bf1906024016020604051808303815f875af11580156104fa573d5f803e3d5ffd5b505050506040513d601f19601f8201168201806040525081019061051e919061127b565b156105635760405162461bcd60e51b81526020600482015260156024820152741c99591d58d954995cd95c9d995cc819985a5b1959605a1b6044820152606401610169565b61056b610be4565b6040516370a0823160e01b81523060048201525f907f00000000000000000000000000000000000000000000000000000000000000006001600160a01b0316906370a0823190602401602060405180830381865afa1580156105cf573d5f803e3d5ffd5b505050506040513d601f19601f820116820180604052508101906105f3919061127b565b60fb54909150610630906001600160a01b037f00000000000000000000000000000000000000000000000000000000000000008116911683610c5b565b60fb5f9054906101000a90046001600160a01b03166001600160a01b03166316faecec7f00000000000000000000000000000000000000000000000000000000000000006001600160a01b0316635fe3b5676040518163ffffffff1660e01b81526004016020604051808303815f875af11580156106b0573d5f803e3d5ffd5b505050506040513d601f19601f820116820180604052508101906106d49190611292565b7f00000000000000000000000000000000000000000000000000000000000000005f6040518463ffffffff1660e01b8152600401610714939291906112ad565b5f604051808303815f87803b15801561072b575f80fd5b505af115801561073d573d5f803e3d5ffd5b505050507f5613a0582c3342b7f79f0fb769c4fc616285893163837fa2891a118ee024b0d68260405161077291815260200190565b60405180910390a15061078460018055565b50565b61078f610432565b61078481610cb3565b6107a0610432565b6001600160a01b0381166107ec5760405162461bcd60e51b81526020600482015260136024820152721414d4881859191c995cdcc81a5b9d985b1a59606a1b6044820152606401610169565b60fb546040516001600160a01b038084169216907f67bd76c153f3af98b05bd613863bf4115f6c5fd2628d2bf2b498259cfc169e27905f90a360fb80546001600160a01b0319166001600160a01b0392909216919091179055565b5f54610100900460ff161580801561086557505f54600160ff909116105b8061087e5750303b15801561087e57505f5460ff166001145b6108e15760405162461bcd60e51b815260206004820152602e60248201527f496e697469616c697a61626c653a20636f6e747261637420697320616c72656160448201526d191e481a5b9a5d1a585b1a5e995960921b6064820152608401610169565b5f805460ff191660011790558015610902575f805461ff0019166101001790555b6001600160a01b03831661094e5760405162461bcd60e51b81526020600482015260136024820152721414d4881859191c995cdcc81a5b9d985b1a59606a1b6044820152606401610169565b60fb80546001600160a01b0319166001600160a01b038516179055610971610d78565b61097a82610da6565b80156109bf575f805461ff0019169055604051600181527f7f26b83ff96e1f2b6a682f133852f6798a09c465da95921460cefb38474024989060200160405180910390a15b505050565b6109cc610432565b61048c5f610ddd565b60975433906001600160a01b03168114610a435760405162461bcd60e51b815260206004820152602960248201527f4f776e61626c6532537465703a2063616c6c6572206973206e6f7420746865206044820152683732bb9037bbb732b960b91b6064820152608401610169565b61078481610ddd565b5f610a8b6040518060400160405280601d81526020017f736574496e746572657374526174654d6f64656c286164647265737329000000815250610df6565b60405163f2b3abbd60e01b81526001600160a01b0383811660048301527f0000000000000000000000000000000000000000000000000000000000000000169063f2b3abbd906024016020604051808303815f875af1158015610af0573d5f803e3d5ffd5b505050506040513d601f19601f82011682018060405250810190610b14919061127b565b92915050565b610b22610432565b609780546001600160a01b0383166001600160a01b03199091168117909155610b536065546001600160a01b031690565b6001600160a01b03167f38d16b8cac22d99fc7c124b9cd0de2d3fa1faef420bfe791d8c362d765e2270060405160405180910390a350565b600260015403610bdd5760405162461bcd60e51b815260206004820152601f60248201527f5265656e7472616e637947756172643a207265656e7472616e742063616c6c006044820152606401610169565b6002600155565b5f4790507f00000000000000000000000000000000000000000000000000000000000000006001600160a01b031663d0e30db0826040518263ffffffff1660e01b81526004015f604051808303818588803b158015610c41575f80fd5b505af1158015610c53573d5f803e3d5ffd5b505050505050565b604080516001600160a01b038416602482015260448082018490528251808303909101815260649091019091526020810180516001600160e01b031663a9059cbb60e01b1790526109bf908490610e91565b60018055565b6001600160a01b038116610d175760405162461bcd60e51b815260206004820152602560248201527f696e76616c696420616365737320636f6e74726f6c206d616e61676572206164604482015264647265737360d81b6064820152608401610169565b60c980546001600160a01b038381166001600160a01b031983168117909355604080519190921680825260208201939093527f66fd58e82f7b31a2a5c30e0888f3093efe4e111b00cd2b0c31fe014601293aa0910160405180910390a15050565b5f54610100900460ff16610d9e5760405162461bcd60e51b8152600401610169906112ef565b61048c610f64565b5f54610100900460ff16610dcc5760405162461bcd60e51b8152600401610169906112ef565b610dd4610f8a565b61078481610fb8565b609780546001600160a01b031916905561078481610fde565b60c9546040516318c5e8ab60e01b81525f916001600160a01b0316906318c5e8ab90610e289033908690600401611368565b602060405180830381865afa158015610e43573d5f803e3d5ffd5b505050506040513d601f19601f82011682018060405250810190610e67919061138b565b905080610e8d57333083604051634a3fa29360e01b8152600401610169939291906113aa565b5050565b5f610ee5826040518060400160405280602081526020017f5361666545524332303a206c6f772d6c6576656c2063616c6c206661696c6564815250856001600160a01b031661102f9092919063ffffffff16565b905080515f1480610f05575080806020019051810190610f05919061138b565b6109bf5760405162461bcd60e51b815260206004820152602a60248201527f5361666545524332303a204552433230206f7065726174696f6e20646964206e6044820152691bdd081cdd58d8d9595960b21b6064820152608401610169565b5f54610100900460ff16610cad5760405162461bcd60e51b8152600401610169906112ef565b5f54610100900460ff16610fb05760405162461bcd60e51b8152600401610169906112ef565b61048c611045565b5f54610100900460ff1661078f5760405162461bcd60e51b8152600401610169906112ef565b606580546001600160a01b038381166001600160a01b0319831681179093556040519116919082907f8be0079c531659141344cd1fd0a4f28419497f9722a3daafe3b4186f6b6457e0905f90a35050565b606061103d84845f85611074565b949350505050565b5f54610100900460ff1661106b5760405162461bcd60e51b8152600401610169906112ef565b61048c33610ddd565b6060824710156110d55760405162461bcd60e51b815260206004820152602660248201527f416464726573733a20696e73756666696369656e742062616c616e636520666f6044820152651c8818d85b1b60d21b6064820152608401610169565b5f80866001600160a01b031685876040516110f091906113de565b5f6040518083038185875af1925050503d805f811461112a576040519150601f19603f3d011682016040523d82523d5f602084013e61112f565b606091505b50915091506111408783838761114b565b979650505050505050565b606083156111b95782515f036111b2576001600160a01b0385163b6111b25760405162461bcd60e51b815260206004820152601d60248201527f416464726573733a2063616c6c20746f206e6f6e2d636f6e74726163740000006044820152606401610169565b508161103d565b61103d83838151156111ce5781518083602001fd5b8060405162461bcd60e51b815260040161016991906113f4565b818382375f9101908152919050565b5f60208284031215611207575f80fd5b5035919050565b6001600160a01b0381168114610784575f80fd5b5f60208284031215611232575f80fd5b813561123d8161120e565b9392505050565b5f8060408385031215611255575f80fd5b82356112608161120e565b915060208301356112708161120e565b809150509250929050565b5f6020828403121561128b575f80fd5b5051919050565b5f602082840312156112a2575f80fd5b815161123d8161120e565b6001600160a01b0384811682528316602082015260608101600283106112e157634e487b7160e01b5f52602160045260245ffd5b826040830152949350505050565b6020808252602b908201527f496e697469616c697a61626c653a20636f6e7472616374206973206e6f74206960408201526a6e697469616c697a696e6760a81b606082015260800190565b5f81518084528060208401602086015e5f602082860101526020601f19601f83011685010191505092915050565b6001600160a01b03831681526040602082018190525f9061103d9083018461133a565b5f6020828403121561139b575f80fd5b8151801515811461123d575f80fd5b6001600160a01b038481168252831660208201526060604082018190525f906113d59083018461133a565b95945050505050565b5f82518060208501845e5f920191825250919050565b602081525f61123d602083018461133a56fea2646970667358221220aff42f44f966118090fb706ff26d9134e2a23269b1aa7cc047a71734a7a6bd7164736f6c63430008190033",
  "devdoc": {
    "author": "Venus",
    "events": {
      "Initialized(uint8)": {
        "details": "Triggered when the contract has been initialized or reinitialized."
      }
    },
    "kind": "dev",
    "methods": {
      "acceptOwnership()": {
        "details": "The new owner accepts the ownership transfer."
      },
      "constructor": {
        "custom:oz-upgrades-unsafe-allow": "constructor",
        "params": {
          "_WBNB": "Address of the WBNB token",
          "_vBNB": "Address of the vBNB contract"
        }
      },
      "owner()": {
        "details": "Returns the address of the current owner."
      },
      "pendingOwner()": {
        "details": "Returns the address of the pending owner."
      },
      "reduceReserves(uint256)": {
        "custom:event": "Emits ReservesReduced event.",
        "params": {
          "reduceAmount": "amount of reserves to reduce"
        }
      },
      "renounceOwnership()": {
        "details": "Leaves the contract without owner. It will not be possible to call `onlyOwner` functions. Can only be called by the current owner. NOTE: Renouncing ownership will leave the contract without an owner, thereby disabling any functionality that is only available to the owner."
      },
      "setAccessControlManager(address)": {
        "custom:access": "Only Governance",
        "custom:event": "Emits NewAccessControlManager event",
        "details": "Admin function to set address of AccessControlManager",
        "params": {
          "accessControlManager_": "The new address of the AccessControlManager"
        }
      },
      "setInterestRateModel(address)": {
        "custom:access": "Controlled by ACM",
        "params": {
          "newInterestRateModel": "Address of the new interest rate model"
        }
      },
      "setProtocolShareReserve(address)": {
        "custom:access": "Only owner (Governance)",
        "custom:event": "Emits ProtocolShareReserveUpdated event.",
        "params": {
          "protocolShareReserve_": "Address of the PSR contract"
        }
      },
      "transferOwnership(address)": {
        "details": "Starts the ownership transfer of the contract to a new account. Replaces the pending transfer if there is one. Can only be called by the current owner."
      }
    },
    "stateVariables": {
      "WBNB": {
        "custom:oz-upgrades-unsafe-allow": "state-variable-immutable"
      },
      "vBNB": {
        "custom:oz-upgrades-unsafe-allow": "state-variable-immutable"
      }
    },
    "title": "VBNBAdmin",
    "version": 1
  },
  "userdoc": {
    "errors": {
      "Unauthorized(address,address,string)": [
        {
          "notice": "Thrown when the action is prohibited by AccessControlManager"
        }
      ]
    },
    "events": {
      "NewAccessControlManager(address,address)": {
        "notice": "Emitted when access control manager contract address is changed"
      },
      "ProtocolShareReserveUpdated(address,address)": {
        "notice": "Emitted when PSR is updated"
      },
      "ReservesReduced(uint256)": {
        "notice": "Emitted reserves are reduced"
      }
    },
    "kind": "user",
    "methods": {
      "WBNB()": {
        "notice": "address of WBNB contract"
      },
      "accessControlManager()": {
        "notice": "Returns the address of the access control manager contract"
      },
      "initialize(address,address)": {
        "notice": "Used to initialize non-immutable variables"
      },
      "protocolShareReserve()": {
        "notice": "address of protocol share reserve contract"
      },
      "reduceReserves(uint256)": {
        "notice": "Reduce reserves of vBNB, wrap them and send them to the PSR contract"
      },
      "setAccessControlManager(address)": {
        "notice": "Sets the address of AccessControlManager"
      },
      "setInterestRateModel(address)": {
        "notice": "Sets the interest rate model of the vBNB contract"
      },
      "setProtocolShareReserve(address)": {
        "notice": "PSR setter."
      },
      "vBNB()": {
        "notice": "address of vBNB"
      }
    },
    "notice": "This contract is the \"admin\" of the vBNB market, reducing the reserves of the market, sending them to the `ProtocolShareReserve` contract, and allowing the executions of the rest of the privileged functions in the vBNB contract (after checking if the sender has the required permissions).",
    "version": 1
  },
  "storageLayout": {
    "storage": [
      {
        "astId": 246,
        "contract": "contracts/Admin/VBNBAdmin.sol:VBNBAdmin",
        "label": "_initialized",
        "offset": 0,
        "slot": "0",
        "type": "t_uint8"
      },
      {
        "astId": 249,
        "contract": "contracts/Admin/VBNBAdmin.sol:VBNBAdmin",
        "label": "_initializing",
        "offset": 1,
        "slot": "0",
        "type": "t_bool"
      },
      {
        "astId": 551,
        "contract": "contracts/Admin/VBNBAdmin.sol:VBNBAdmin",
        "label": "_status",
        "offset": 0,
        "slot": "1",
        "type": "t_uint256"
      },
      {
        "astId": 620,
        "contract": "contracts/Admin/VBNBAdmin.sol:VBNBAdmin",
        "label": "__gap",
        "offset": 0,
        "slot": "2",
        "type": "t_array(t_uint256)49_storage"
      },
      {
        "astId": 1516,
        "contract": "contracts/Admin/VBNBAdmin.sol:VBNBAdmin",
        "label": "__gap",
        "offset": 0,
        "slot": "51",
        "type": "t_array(t_uint256)50_storage"
      },
      {
        "astId": 118,
        "contract": "contracts/Admin/VBNBAdmin.sol:VBNBAdmin",
        "label": "_owner",
        "offset": 0,
        "slot": "101",
        "type": "t_address"
      },
      {
        "astId": 238,
        "contract": "contracts/Admin/VBNBAdmin.sol:VBNBAdmin",
        "label": "__gap",
        "offset": 0,
        "slot": "102",
        "type": "t_array(t_uint256)49_storage"
      },
      {
        "astId": 11,
        "contract": "contracts/Admin/VBNBAdmin.sol:VBNBAdmin",
        "label": "_pendingOwner",
        "offset": 0,
        "slot": "151",
        "type": "t_address"
      },
      {
        "astId": 105,
        "contract": "contracts/Admin/VBNBAdmin.sol:VBNBAdmin",
        "label": "__gap",
        "offset": 0,
        "slot": "152",
        "type": "t_array(t_uint256)49_storage"
      },
      {
        "astId": 5863,
        "contract": "contracts/Admin/VBNBAdmin.sol:VBNBAdmin",
        "label": "_accessControlManager",
        "offset": 0,
        "slot": "201",
        "type": "t_contract(IAccessControlManagerV8)6048"
      },
      {
        "astId": 5868,
        "contract": "contracts/Admin/VBNBAdmin.sol:VBNBAdmin",
        "label": "__gap",
        "offset": 0,
        "slot": "202",
        "type": "t_array(t_uint256)49_storage"
      },
      {
        "astId": 6677,
        "contract": "contracts/Admin/VBNBAdmin.sol:VBNBAdmin",
        "label": "protocolShareReserve",
        "offset": 0,
        "slot": "251",
        "type": "t_contract(IProtocolShareReserve)47194"
      },
      {
        "astId": 6682,
        "contract": "contracts/Admin/VBNBAdmin.sol:VBNBAdmin",
        "label": "__gap",
        "offset": 0,
        "slot": "252",
        "type": "t_array(t_uint256)49_storage"
      }
    ],
    "types": {
      "t_address": {
        "encoding": "inplace",
        "label": "address",
        "numberOfBytes": "20"
      },
      "t_array(t_uint256)49_storage": {
        "base": "t_uint256",
        "encoding": "inplace",
        "label": "uint256[49]",
        "numberOfBytes": "1568"
      },
      "t_array(t_uint256)50_storage": {
        "base": "t_uint256",
        "encoding": "inplace",
        "label": "uint256[50]",
        "numberOfBytes": "1600"
      },
      "t_bool": {
        "encoding": "inplace",
        "label": "bool",
        "numberOfBytes": "1"
      },
      "t_contract(IAccessControlManagerV8)6048": {
        "encoding": "inplace",
        "label": "contract IAccessControlManagerV8",
        "numberOfBytes": "20"
      },
      "t_contract(IProtocolShareReserve)47194": {
        "encoding": "inplace",
        "label": "contract IProtocolShareReserve",
        "numberOfBytes": "20"
      },
      "t_uint256": {
        "encoding": "inplace",
        "label": "uint256",
        "numberOfBytes": "32"
      },
      "t_uint8": {
        "encoding": "inplace",
        "label": "uint8",
        "numberOfBytes": "1"
      }
    }
  }
}