{
  "address": "0xe4C455cBf870A86399043B8A36A669FfA1583e95",
  "abi": [
    {
      "constant": true,
      "inputs": [],
      "name": "BLOCKS_PER_DAY",
      "outputs": [
        {
          "internalType": "uint256",
          "name": "",
          "type": "uint256"
        }
      ],
      "payable": false,
      "stateMutability": "view",
      "type": "function"
    },
    {
      "constant": true,
      "inputs": [],
      "name": "VTOKEN_ACTIONS",
      "outputs": [
        {
          "internalType": "uint256",
          "name": "",
          "type": "uint256"
        }
      ],
      "payable": false,
      "stateMutability": "view",
      "type": "function"
    },
    {
      "constant": true,
      "inputs": [
        {
          "internalType": "contract ComptrollerInterface",
          "name": "comptroller",
          "type": "address"
        },
        {
          "internalType": "address",
          "name": "account",
          "type": "address"
        }
      ],
      "name": "getAccountLimits",
      "outputs": [
        {
          "components": [
            {
              "internalType": "contract VToken[]",
              "name": "markets",
              "type": "address[]"
            },
            {
              "internalType": "uint256",
              "name": "liquidity",
              "type": "uint256"
            },
            {
              "internalType": "uint256",
              "name": "shortfall",
              "type": "uint256"
            }
          ],
          "internalType": "struct VenusLens.AccountLimits",
          "name": "",
          "type": "tuple"
        }
      ],
      "payable": false,
      "stateMutability": "view",
      "type": "function"
    },
    {
      "constant": false,
      "inputs": [
        {
          "internalType": "address payable",
          "name": "account",
          "type": "address"
        },
        {
          "internalType": "address",
          "name": "comptrollerAddress",
          "type": "address"
        }
      ],
      "name": "getDailyXVS",
      "outputs": [
        {
          "internalType": "uint256",
          "name": "",
          "type": "uint256"
        }
      ],
      "payable": false,
      "stateMutability": "nonpayable",
      "type": "function"
    },
    {
      "constant": true,
      "inputs": [
        {
          "internalType": "contract XVS",
          "name": "xvs",
          "type": "address"
        },
        {
          "internalType": "address",
          "name": "account",
          "type": "address"
        },
        {
          "internalType": "uint32[]",
          "name": "blockNumbers",
          "type": "uint32[]"
        }
      ],
      "name": "getVenusVotes",
      "outputs": [
        {
          "components": [
            {
              "internalType": "uint256",
              "name": "blockNumber",
              "type": "uint256"
            },
            {
              "internalType": "uint256",
              "name": "votes",
              "type": "uint256"
            }
          ],
          "internalType": "struct VenusLens.VenusVotes[]",
          "name": "",
          "type": "tuple[]"
        }
      ],
      "payable": false,
      "stateMutability": "view",
      "type": "function"
    },
    {
      "constant": true,
      "inputs": [
        {
          "internalType": "contract XVS",
          "name": "xvs",
          "type": "address"
        },
        {
          "internalType": "address",
          "name": "account",
          "type": "address"
        }
      ],
      "name": "getXVSBalanceMetadata",
      "outputs": [
        {
          "components": [
            {
              "internalType": "uint256",
              "name": "balance",
              "type": "uint256"
            },
            {
              "internalType": "uint256",
              "name": "votes",
              "type": "uint256"
            },
            {
              "internalType": "address",
              "name": "delegate",
              "type": "address"
            }
          ],
          "internalType": "struct VenusLens.XVSBalanceMetadata",
          "name": "",
          "type": "tuple"
        }
      ],
      "payable": false,
      "stateMutability": "view",
      "type": "function"
    },
    {
      "constant": false,
      "inputs": [
        {
          "internalType": "contract XVS",
          "name": "xvs",
          "type": "address"
        },
        {
          "internalType": "contract ComptrollerInterface",
          "name": "comptroller",
          "type": "address"
        },
        {
          "internalType": "address",
          "name": "account",
          "type": "address"
        }
      ],
      "name": "getXVSBalanceMetadataExt",
      "outputs": [
        {
          "components": [
            {
              "internalType": "uint256",
              "name": "balance",
              "type": "uint256"
            },
            {
              "internalType": "uint256",
              "name": "votes",
              "type": "uint256"
            },
            {
              "internalType": "address",
              "name": "delegate",
              "type": "address"
            },
            {
              "internalType": "uint256",
              "name": "allocated",
              "type": "uint256"
            }
          ],
          "internalType": "struct VenusLens.XVSBalanceMetadataExt",
          "name": "",
          "type": "tuple"
        }
      ],
      "payable": false,
      "stateMutability": "nonpayable",
      "type": "function"
    },
    {
      "constant": true,
      "inputs": [
        {
          "internalType": "address",
          "name": "holder",
          "type": "address"
        },
        {
          "internalType": "contract ComptrollerInterface",
          "name": "comptroller",
          "type": "address"
        }
      ],
      "name": "pendingRewards",
      "outputs": [
        {
          "components": [
            {
              "internalType": "address",
              "name": "distributorAddress",
              "type": "address"
            },
            {
              "internalType": "address",
              "name": "rewardTokenAddress",
              "type": "address"
            },
            {
              "internalType": "uint256",
              "name": "totalRewards",
              "type": "uint256"
            },
            {
              "components": [
                {
                  "internalType": "address",
                  "name": "vTokenAddress",
                  "type": "address"
                },
                {
                  "internalType": "uint256",
                  "name": "amount",
                  "type": "uint256"
                }
              ],
              "internalType": "struct VenusLens.PendingReward[]",
              "name": "pendingRewards",
              "type": "tuple[]"
            }
          ],
          "internalType": "struct VenusLens.RewardSummary",
          "name": "",
          "type": "tuple"
        }
      ],
      "payable": false,
      "stateMutability": "view",
      "type": "function"
    },
    {
      "constant": false,
      "inputs": [
        {
          "internalType": "contract VToken",
          "name": "vToken",
          "type": "address"
        },
        {
          "internalType": "address payable",
          "name": "account",
          "type": "address"
        }
      ],
      "name": "vTokenBalances",
      "outputs": [
        {
          "components": [
            {
              "internalType": "address",
              "name": "vToken",
              "type": "address"
            },
            {
              "internalType": "uint256",
              "name": "balanceOf",
              "type": "uint256"
            },
            {
              "internalType": "uint256",
              "name": "borrowBalanceCurrent",
              "type": "uint256"
            },
            {
              "internalType": "uint256",
              "name": "balanceOfUnderlying",
              "type": "uint256"
            },
            {
              "internalType": "uint256",
              "name": "tokenBalance",
              "type": "uint256"
            },
            {
              "internalType": "uint256",
              "name": "tokenAllowance",
              "type": "uint256"
            }
          ],
          "internalType": "struct VenusLens.VTokenBalances",
          "name": "",
          "type": "tuple"
        }
      ],
      "payable": false,
      "stateMutability": "nonpayable",
      "type": "function"
    },
    {
      "constant": false,
      "inputs": [
        {
          "internalType": "contract VToken[]",
          "name": "vTokens",
          "type": "address[]"
        },
        {
          "internalType": "address payable",
          "name": "account",
          "type": "address"
        }
      ],
      "name": "vTokenBalancesAll",
      "outputs": [
        {
          "components": [
            {
              "internalType": "address",
              "name": "vToken",
              "type": "address"
            },
            {
              "internalType": "uint256",
              "name": "balanceOf",
              "type": "uint256"
            },
            {
              "internalType": "uint256",
              "name": "borrowBalanceCurrent",
              "type": "uint256"
            },
            {
              "internalType": "uint256",
              "name": "balanceOfUnderlying",
              "type": "uint256"
            },
            {
              "internalType": "uint256",
              "name": "tokenBalance",
              "type": "uint256"
            },
            {
              "internalType": "uint256",
              "name": "tokenAllowance",
              "type": "uint256"
            }
          ],
          "internalType": "struct VenusLens.VTokenBalances[]",
          "name": "",
          "type": "tuple[]"
        }
      ],
      "payable": false,
      "stateMutability": "nonpayable",
      "type": "function"
    },
    {
      "constant": false,
      "inputs": [
        {
          "internalType": "contract VToken",
          "name": "vToken",
          "type": "address"
        }
      ],
      "name": "vTokenMetadata",
      "outputs": [
        {
          "components": [
            {
              "internalType": "address",
              "name": "vToken",
              "type": "address"
            },
            {
              "internalType": "uint256",
              "name": "exchangeRateCurrent",
              "type": "uint256"
            },
            {
              "internalType": "uint256",
              "name": "supplyRatePerBlock",
              "type": "uint256"
            },
            {
              "internalType": "uint256",
              "name": "borrowRatePerBlock",
              "type": "uint256"
            },
            {
              "internalType": "uint256",
              "name": "reserveFactorMantissa",
              "type": "uint256"
            },
            {
              "internalType": "uint256",
              "name": "totalBorrows",
              "type": "uint256"
            },
            {
              "internalType": "uint256",
              "name": "totalReserves",
              "type": "uint256"
            },
            {
              "internalType": "uint256",
              "name": "totalSupply",
              "type": "uint256"
            },
            {
              "internalType": "uint256",
              "name": "totalCash",
              "type": "uint256"
            },
            {
              "internalType": "bool",
              "name": "isListed",
              "type": "bool"
            },
            {
              "internalType": "uint256",
              "name": "collateralFactorMantissa",
              "type": "uint256"
            },
            {
              "internalType": "address",
              "name": "underlyingAssetAddress",
              "type": "address"
            },
            {
              "internalType": "uint256",
              "name": "vTokenDecimals",
              "type": "uint256"
            },
            {
              "internalType": "uint256",
              "name": "underlyingDecimals",
              "type": "uint256"
            },
            {
              "internalType": "uint256",
              "name": "venusSupplySpeed",
              "type": "uint256"
            },
            {
              "internalType": "uint256",
              "name": "venusBorrowSpeed",
              "type": "uint256"
            },
            {
              "internalType": "uint256",
              "name": "dailySupplyXvs",
              "type": "uint256"
            },
            {
              "internalType": "uint256",
              "name": "dailyBorrowXvs",
              "type": "uint256"
            },
            {
              "internalType": "uint256",
              "name": "pausedActions",
              "type": "uint256"
            }
          ],
          "internalType": "struct VenusLens.VTokenMetadata",
          "name": "",
          "type": "tuple"
        }
      ],
      "payable": false,
      "stateMutability": "nonpayable",
      "type": "function"
    },
    {
      "constant": false,
      "inputs": [
        {
          "internalType": "contract VToken[]",
          "name": "vTokens",
          "type": "address[]"
        }
      ],
      "name": "vTokenMetadataAll",
      "outputs": [
        {
          "components": [
            {
              "internalType": "address",
              "name": "vToken",
              "type": "address"
            },
            {
              "internalType": "uint256",
              "name": "exchangeRateCurrent",
              "type": "uint256"
            },
            {
              "internalType": "uint256",
              "name": "supplyRatePerBlock",
              "type": "uint256"
            },
            {
              "internalType": "uint256",
              "name": "borrowRatePerBlock",
              "type": "uint256"
            },
            {
              "internalType": "uint256",
              "name": "reserveFactorMantissa",
              "type": "uint256"
            },
            {
              "internalType": "uint256",
              "name": "totalBorrows",
              "type": "uint256"
            },
            {
              "internalType": "uint256",
              "name": "totalReserves",
              "type": "uint256"
            },
            {
              "internalType": "uint256",
              "name": "totalSupply",
              "type": "uint256"
            },
            {
              "internalType": "uint256",
              "name": "totalCash",
              "type": "uint256"
            },
            {
              "internalType": "bool",
              "name": "isListed",
              "type": "bool"
            },
            {
              "internalType": "uint256",
              "name": "collateralFactorMantissa",
              "type": "uint256"
            },
            {
              "internalType": "address",
              "name": "underlyingAssetAddress",
              "type": "address"
            },
            {
              "internalType": "uint256",
              "name": "vTokenDecimals",
              "type": "uint256"
            },
            {
              "internalType": "uint256",
              "name": "underlyingDecimals",
              "type": "uint256"
            },
            {
              "internalType": "uint256",
              "name": "venusSupplySpeed",
              "type": "uint256"
            },
            {
              "internalType": "uint256",
              "name": "venusBorrowSpeed",
              "type": "uint256"
            },
            {
              "internalType": "uint256",
              "name": "dailySupplyXvs",
              "type": "uint256"
            },
            {
              "internalType": "uint256",
              "name": "dailyBorrowXvs",
              "type": "uint256"
            },
            {
              "internalType": "uint256",
              "name": "pausedActions",
              "type": "uint256"
            }
          ],
          "internalType": "struct VenusLens.VTokenMetadata[]",
          "name": "",
          "type": "tuple[]"
        }
      ],
      "payable": false,
      "stateMutability": "nonpayable",
      "type": "function"
    },
    {
      "constant": true,
      "inputs": [
        {
          "internalType": "contract VToken",
          "name": "vToken",
          "type": "address"
        }
      ],
      "name": "vTokenUnderlyingPrice",
      "outputs": [
        {
          "components": [
            {
              "internalType": "address",
              "name": "vToken",
              "type": "address"
            },
            {
              "internalType": "uint256",
              "name": "underlyingPrice",
              "type": "uint256"
            }
          ],
          "internalType": "struct VenusLens.VTokenUnderlyingPrice",
          "name": "",
          "type": "tuple"
        }
      ],
      "payable": false,
      "stateMutability": "view",
      "type": "function"
    },
    {
      "constant": true,
      "inputs": [
        {
          "internalType": "contract VToken[]",
          "name": "vTokens",
          "type": "address[]"
        }
      ],
      "name": "vTokenUnderlyingPriceAll",
      "outputs": [
        {
          "components": [
            {
              "internalType": "address",
              "name": "vToken",
              "type": "address"
            },
            {
              "internalType": "uint256",
              "name": "underlyingPrice",
              "type": "uint256"
            }
          ],
          "internalType": "struct VenusLens.VTokenUnderlyingPrice[]",
          "name": "",
          "type": "tuple[]"
        }
      ],
      "payable": false,
      "stateMutability": "view",
      "type": "function"
    }
  ],
  "transactionHash": "0x6bcadf8fd53fa894e44c13346bfbe3301c60d9f01c85ea1dc7976d1f92de89ad",
  "args": [],
  "numDeployments": 1,
  "solcInputHash": "6c1abbd8750b33bba172de889bb7ec62",
  "bytecode": "0x608060405234801561001057600080fd5b50614189806100206000396000f3fe608060405234801561001057600080fd5b50600436106100ea5760003560e01c8063aa5dbd231161008c578063e09744c611610066578063e09744c614610208578063e0a67f1114610228578063f40c277714610248578063fbd88b4614610268576100ea565b8063aa5dbd23146101b5578063b3124239146101d5578063b814a8a6146101f5576100ea565b80637c51b642116100c85780637c51b642146101355780637c84e3b3146101555780637dd8f6d91461017557806380ac822814610195576100ea565b80631f884fdf146100ef5780635a89b0e7146101185780636bb987fe1461012d575b600080fd5b6101026100fd36600461342a565b610288565b60405161010f9190613ed9565b60405180910390f35b610120610324565b60405161010f9190613fa3565b610120610329565b61014861014336600461346c565b61032f565b60405161010f9190613eb7565b610168610163366004613581565b6103d2565b60405161010f9190613f79565b610188610183366004613562565b610566565b60405161010f9190613f3a565b6101a86101a33660046133fa565b6106be565b60405161010f9190613f4b565b6101c86101c3366004613581565b610bf2565b60405161010f9190613f6a565b6101e86101e3366004613562565b611586565b60405161010f9190613f5c565b6101206102033660046133c0565b611926565b61021b610216366004613607565b611c53565b60405161010f9190613f87565b61023b61023636600461342a565b611fd9565b60405161010f9190613ec8565b61025b610256366004613562565b61206a565b60405161010f9190613f95565b61027b61027636600461359f565b612213565b60405161010f9190613eea565b604080518281526020808402820101909152606090829082908280156102c857816020015b6102b5613019565b8152602001906001900390816102ad5790505b50905060005b82811015610319576102fa8686838181106102e557fe5b90506020020160206101639190810190613581565b82828151811061030657fe5b60209081029190910101526001016102ce565b509150505b92915050565b600881565b61708081565b6040805183815260208085028201019091526060908390829082801561036f57816020015b61035c613030565b8152602001906001900390816103545790505b50905060005b828110156103c6576103a787878381811061038c57fe5b90506020020160206103a19190810190613581565b86611586565b8282815181106103b357fe5b6020908102919091010152600101610375565b509150505b9392505050565b6103da613019565b6000826001600160a01b0316635fe3b5676040518163ffffffff1660e01b815260040160206040518083038186803b15801561041557600080fd5b505afa158015610429573d6000803e3d6000fd5b505050506040513d601f19601f8201168201806040525061044d9190810190613544565b90506000816001600160a01b0316637dc0d1d06040518163ffffffff1660e01b815260040160206040518083038186803b15801561048a57600080fd5b505afa15801561049e573d6000803e3d6000fd5b505050506040513d601f19601f820116820180604052506104c29190810190613544565b90506040518060400160405280856001600160a01b03168152602001826001600160a01b031663fc57d4df876040518263ffffffff1660e01b815260040161050a9190613efb565b60206040518083038186803b15801561052257600080fd5b505afa158015610536573d6000803e3d6000fd5b505050506040513d601f19601f8201168201806040525061055a91908101906136cd565b9052925050505b919050565b61056e61306f565b6000806000856001600160a01b0316635ec88c79866040518263ffffffff1660e01b815260040161059f9190613e3c565b60606040518083038186803b1580156105b757600080fd5b505afa1580156105cb573d6000803e3d6000fd5b505050506040513d601f19601f820116820180604052506105ef91908101906136eb565b9250925092508260001461061e5760405162461bcd60e51b815260040161061590613f1a565b60405180910390fd5b604080516060810191829052632aff3bff60e21b909152806001600160a01b03881663abfceffc6106528960648501613e3c565b60006040518083038186803b15801561066a57600080fd5b505afa15801561067e573d6000803e3d6000fd5b505050506040513d6000823e601f3d908101601f191682016040526106a691908101906134c1565b81526020810193909352604090920152949350505050565b6106c6613090565b6060826001600160a01b031663b0772d0b6040518163ffffffff1660e01b815260040160006040518083038186803b15801561070157600080fd5b505afa158015610715573d6000803e3d6000fd5b505050506040513d6000823e601f3d908101601f1916820160405261073d91908101906134c1565b90506107476130b6565b61074f613090565b6001600160a01b0385168082526040805163bf32442d60e01b8152905163bf32442d91600480820192602092909190829003018186803b15801561079257600080fd5b505afa1580156107a6573d6000803e3d6000fd5b505050506040513d601f19601f820116820180604052506107ca91908101906133a2565b6001600160a01b039081166020830152604051638a7dc16560e01b815290861690638a7dc165906107ff908990600401613e3c565b60206040518083038186803b15801561081757600080fd5b505afa15801561082b573d6000803e3d6000fd5b505050506040513d601f19601f8201168201806040525061084f91908101906136cd565b816040018181525050825160405190808252806020026020018201604052801561089357816020015b610880613019565b8152602001906001900390816108785790505b50606082015260005b8351811015610be857856001600160a01b031663e37d4b798583815181106108c057fe5b60200260200101516040518263ffffffff1660e01b81526004016108e49190613e3c565b604080518083038186803b1580156108fb57600080fd5b505afa15801561090f573d6000803e3d6000fd5b505050506040513d601f19601f82011682018060405250610933919081019061369d565b63ffffffff1660408501526001600160e01b03166020840152610954613019565b604051806040016040528085602001516001600160e01b03168152602001856040015163ffffffff168152509050866001600160a01b031663b8324c7c86848151811061099d57fe5b60200260200101516040518263ffffffff1660e01b81526004016109c19190613e3c565b604080518083038186803b1580156109d857600080fd5b505afa1580156109ec573d6000803e3d6000fd5b505050506040513d601f19601f82011682018060405250610a10919081019061369d565b63ffffffff1660808601526001600160e01b03166060850152610a31613019565b506040805180820190915260608501516001600160e01b03168152608085015163ffffffff166020820152610a646130e4565b6040518060200160405280888681518110610a7b57fe5b60200260200101516001600160a01b031663aa5af0fd6040518163ffffffff1660e01b815260040160206040518083038186803b158015610abb57600080fd5b505afa158015610acf573d6000803e3d6000fd5b505050506040513d601f19601f82011682018060405250610af391908101906136cd565b90529050610aff613019565b878581518110610b0b57fe5b60209081029190910101516001600160a01b031681528751610b449085908a9088908110610b3557fe5b6020026020010151848d612361565b6000610b66858a8881518110610b5657fe5b60200260200101518e868f6125e1565b9050610b86848a8881518110610b7857fe5b60200260200101518d612763565b6000610ba7858b8981518110610b9857fe5b60200260200101518f8f6129d9565b9050610bb38282612bcd565b60208401526060880151805184919089908110610bcc57fe5b602002602001018190525050505050505080600101905061089c565b5095945050505050565b610bfa6130f7565b6000826001600160a01b031663bd6d894d6040518163ffffffff1660e01b8152600401602060405180830381600087803b158015610c3757600080fd5b505af1158015610c4b573d6000803e3d6000fd5b505050506040513d601f19601f82011682018060405250610c6f91908101906136cd565b90506000836001600160a01b0316635fe3b5676040518163ffffffff1660e01b815260040160206040518083038186803b158015610cac57600080fd5b505afa158015610cc0573d6000803e3d6000fd5b505050506040513d601f19601f82011682018060405250610ce49190810190613544565b604051638e8f294b60e01b8152909150819060009081906001600160a01b03841690638e8f294b90610d1a908a90600401613e3c565b604080518083038186803b158015610d3157600080fd5b505afa158015610d45573d6000803e3d6000fd5b505050506040513d601f19601f82011682018060405250610d699190810190613514565b91509150600080610e0a896001600160a01b03166395d89b416040518163ffffffff1660e01b815260040160006040518083038186803b158015610dac57600080fd5b505afa158015610dc0573d6000803e3d6000fd5b505050506040513d6000823e601f3d908101601f19168201604052610de8919081019061364a565b604051806040016040528060048152602001633b21272160e11b815250612c03565b15610e1b5750600090506012610f7b565b6000899050806001600160a01b0316636f307dc36040518163ffffffff1660e01b815260040160206040518083038186803b158015610e5957600080fd5b505afa158015610e6d573d6000803e3d6000fd5b505050506040513d601f19601f82011682018060405250610e9191908101906133a2565b9250806001600160a01b0316636f307dc36040518163ffffffff1660e01b815260040160206040518083038186803b158015610ecc57600080fd5b505afa158015610ee0573d6000803e3d6000fd5b505050506040513d601f19601f82011682018060405250610f0491908101906133a2565b6001600160a01b031663313ce5676040518163ffffffff1660e01b815260040160206040518083038186803b158015610f3c57600080fd5b505afa158015610f50573d6000803e3d6000fd5b505050506040513d601f19601f82011682018060405250610f74919081019061374c565b60ff169150505b604051635dd3fc9d60e01b81526000906001600160a01b03871690635dd3fc9d90610faa908d90600401613e3c565b60206040518083038186803b158015610fc257600080fd5b505afa158015610fd6573d6000803e3d6000fd5b505050506040513d601f19601f82011682018060405250610ffa91908101906136cd565b90506000866001600160a01b031663bbb8864a8c6040518263ffffffff1660e01b815260040161102a9190613e3c565b60206040518083038186803b15801561104257600080fd5b505afa158015611056573d6000803e3d6000fd5b505050506040513d601f19601f8201168201806040525061107a91908101906136cd565b90506000805b60088160ff161161113e576000896001600160a01b031663e85a29608f8460ff1660088111156110ac57fe5b6040518363ffffffff1660e01b81526004016110c9929190613e81565b60206040518083038186803b1580156110e157600080fd5b505afa1580156110f5573d6000803e3d6000fd5b505050506040513d601f19601f8201168201806040525061111991908101906134f6565b611124576000611127565b60015b60ff9081169083161b929092179150600101611080565b506040518061026001604052808d6001600160a01b031681526020018b81526020018d6001600160a01b031663ae9d70b06040518163ffffffff1660e01b815260040160206040518083038186803b15801561119957600080fd5b505afa1580156111ad573d6000803e3d6000fd5b505050506040513d601f19601f820116820180604052506111d191908101906136cd565b81526020018d6001600160a01b031663f8f9da286040518163ffffffff1660e01b815260040160206040518083038186803b15801561120f57600080fd5b505afa158015611223573d6000803e3d6000fd5b505050506040513d601f19601f8201168201806040525061124791908101906136cd565b81526020018d6001600160a01b031663173b99046040518163ffffffff1660e01b815260040160206040518083038186803b15801561128557600080fd5b505afa158015611299573d6000803e3d6000fd5b505050506040513d601f19601f820116820180604052506112bd91908101906136cd565b81526020018d6001600160a01b03166347bd37186040518163ffffffff1660e01b815260040160206040518083038186803b1580156112fb57600080fd5b505afa15801561130f573d6000803e3d6000fd5b505050506040513d601f19601f8201168201806040525061133391908101906136cd565b81526020018d6001600160a01b0316638f840ddd6040518163ffffffff1660e01b815260040160206040518083038186803b15801561137157600080fd5b505afa158015611385573d6000803e3d6000fd5b505050506040513d601f19601f820116820180604052506113a991908101906136cd565b81526020018d6001600160a01b03166318160ddd6040518163ffffffff1660e01b815260040160206040518083038186803b1580156113e757600080fd5b505afa1580156113fb573d6000803e3d6000fd5b505050506040513d601f19601f8201168201806040525061141f91908101906136cd565b81526020018d6001600160a01b0316633b1d21a26040518163ffffffff1660e01b815260040160206040518083038186803b15801561145d57600080fd5b505afa158015611471573d6000803e3d6000fd5b505050506040513d601f19601f8201168201806040525061149591908101906136cd565b81526020018815158152602001878152602001866001600160a01b031681526020018d6001600160a01b031663313ce5676040518163ffffffff1660e01b815260040160206040518083038186803b1580156114f057600080fd5b505afa158015611504573d6000803e3d6000fd5b505050506040513d601f19601f82011682018060405250611528919081019061374c565b60ff16815260200185815260200184815260200183815260200161155761708086612c5c90919063ffffffff16565b815260200161156e8461708063ffffffff612c5c16565b8152602001919091529b9a5050505050505050505050565b61158e613030565b6040516370a0823160e01b81526000906001600160a01b038516906370a08231906115bd908690600401613e4a565b60206040518083038186803b1580156115d557600080fd5b505afa1580156115e9573d6000803e3d6000fd5b505050506040513d601f19601f8201168201806040525061160d91908101906136cd565b90506000846001600160a01b03166317bfdfbc856040518263ffffffff1660e01b815260040161163d9190613e4a565b602060405180830381600087803b15801561165757600080fd5b505af115801561166b573d6000803e3d6000fd5b505050506040513d601f19601f8201168201806040525061168f91908101906136cd565b90506000856001600160a01b0316633af9e669866040518263ffffffff1660e01b81526004016116bf9190613e4a565b602060405180830381600087803b1580156116d957600080fd5b505af11580156116ed573d6000803e3d6000fd5b505050506040513d601f19601f8201168201806040525061171191908101906136cd565b9050600080611752886001600160a01b03166395d89b416040518163ffffffff1660e01b815260040160006040518083038186803b158015610dac57600080fd5b1561176c5750506001600160a01b038516803190316118e9565b60008890506000816001600160a01b0316636f307dc36040518163ffffffff1660e01b815260040160206040518083038186803b1580156117ac57600080fd5b505afa1580156117c0573d6000803e3d6000fd5b505050506040513d601f19601f820116820180604052506117e491908101906133a2565b6040516370a0823160e01b81529091506001600160a01b038216906370a0823190611813908c90600401613e4a565b60206040518083038186803b15801561182b57600080fd5b505afa15801561183f573d6000803e3d6000fd5b505050506040513d601f19601f8201168201806040525061186391908101906136cd565b604051636eb1769f60e11b81529094506001600160a01b0382169063dd62ed3e90611894908c908e90600401613e58565b60206040518083038186803b1580156118ac57600080fd5b505afa1580156118c0573d6000803e3d6000fd5b505050506040513d601f19601f820116820180604052506118e491908101906136cd565b925050505b6040805160c0810182526001600160a01b039990991689526020890195909552938701929092526060860152608085015260a08401525090919050565b6000808290506060816001600160a01b031663b0772d0b6040518163ffffffff1660e01b815260040160006040518083038186803b15801561196757600080fd5b505afa15801561197b573d6000803e3d6000fd5b505050506040513d6000823e601f3d908101601f191682016040526119a391908101906134c1565b90506000805b8251811015610be85760008382815181106119c057fe5b60200260200101519050611a64816001600160a01b03166395d89b416040518163ffffffff1660e01b815260040160006040518083038186803b158015611a0657600080fd5b505afa158015611a1a573d6000803e3d6000fd5b505050506040513d6000823e601f3d908101601f19168201604052611a42919081019061364a565b604051806040016040528060048152602001631d9554d560e21b815250612c03565b158015611b095750611b07816001600160a01b03166395d89b416040518163ffffffff1660e01b815260040160006040518083038186803b158015611aa857600080fd5b505afa158015611abc573d6000803e3d6000fd5b505050506040513d6000823e601f3d908101601f19168201604052611ae4919081019061364a565b60405180604001604052806005815260200164764c554e4160d81b815250612c03565b155b15611c4a57611b166130f7565b611b1f82610bf2565b9050611b29613030565b611b33838b611586565b9050611b3d613019565b611b46846103d2565b6020810151909150611b566130e4565b604051806020016040528083815250905060008090506000611b7c838760600151612c96565b90506000611bb3670de0b6b3a7640000611ba78a602001518b60e00151612c5c90919063ffffffff16565b9063ffffffff612cbd16565b90506000611bc18583612c96565b90508015611be857611be581611ba7858c6102000151612c5c90919063ffffffff16565b93505b60008090506000611bfd878b60400151612c96565b90506000611c0f888d60a00151612c96565b90508015611c3657611c3381611ba7848f6102200151612c5c90919063ffffffff16565b92505b8287018f019e505050505050505050505050505b506001016119a9565b611c5b61319d565b6040516370a0823160e01b81526000906001600160a01b038616906370a0823190611c8a908690600401613e3c565b60206040518083038186803b158015611ca257600080fd5b505afa158015611cb6573d6000803e3d6000fd5b505050506040513d601f19601f82011682018060405250611cda91908101906136cd565b60405163adcd5fb960e01b81529091506001600160a01b0385169063adcd5fb990611d09908690600401613e3c565b600060405180830381600087803b158015611d2357600080fd5b505af1158015611d37573d6000803e3d6000fd5b50506040516370a0823160e01b8152600092506001600160a01b03881691506370a0823190611d6a908790600401613e3c565b60206040518083038186803b158015611d8257600080fd5b505afa158015611d96573d6000803e3d6000fd5b505050506040513d601f19601f82011682018060405250611dba91908101906136cd565b90506000856001600160a01b0316638a7dc165866040518263ffffffff1660e01b8152600401611dea9190613e3c565b60206040518083038186803b158015611e0257600080fd5b505afa158015611e16573d6000803e3d6000fd5b505050506040513d601f19601f82011682018060405250611e3a91908101906136cd565b90506000611e6e82846040518060400160405280600d81526020016c1cdd5b481e1d9cc81d1bdd185b609a1b815250612cff565b90506000611ea282866040518060400160405280600d81526020016c1cdd5888185b1b1bd8d85d1959609a1b815250612d2f565b905060405180608001604052808681526020018a6001600160a01b031663b4b5ea578a6040518263ffffffff1660e01b8152600401611ee19190613e3c565b60206040518083038186803b158015611ef957600080fd5b505afa158015611f0d573d6000803e3d6000fd5b505050506040513d601f19601f82011682018060405250611f31919081019061376a565b6001600160601b031681526020018a6001600160a01b031663587cde1e8a6040518263ffffffff1660e01b8152600401611f6b9190613e3c565b60206040518083038186803b158015611f8357600080fd5b505afa158015611f97573d6000803e3d6000fd5b505050506040513d601f19601f82011682018060405250611fbb91908101906133a2565b6001600160a01b031681526020019190915298975050505050505050565b6040805182815260208084028201019091526060908290829082801561201957816020015b6120066130f7565b815260200190600190039081611ffe5790505b50905060005b828110156103195761204b86868381811061203657fe5b90506020020160206101c39190810190613581565b82828151811061205757fe5b602090810291909101015260010161201f565b6120726131ce565b6040805160608101918290526370a0823160e01b909152806001600160a01b0385166370a082316120a68660648501613e3c565b60206040518083038186803b1580156120be57600080fd5b505afa1580156120d2573d6000803e3d6000fd5b505050506040513d601f19601f820116820180604052506120f691908101906136cd565b8152602001846001600160a01b031663b4b5ea57856040518263ffffffff1660e01b81526004016121279190613e3c565b60206040518083038186803b15801561213f57600080fd5b505afa158015612153573d6000803e3d6000fd5b505050506040513d601f19601f82011682018060405250612177919081019061376a565b6001600160601b03168152602001846001600160a01b031663587cde1e856040518263ffffffff1660e01b81526004016121b19190613e3c565b60206040518083038186803b1580156121c957600080fd5b505afa1580156121dd573d6000803e3d6000fd5b505050506040513d601f19601f8201168201806040525061220191908101906133a2565b6001600160a01b031690529392505050565b6060808383905060405190808252806020026020018201604052801561225357816020015b6122406131f8565b8152602001906001900390816122385790505b50905060005b83811015610be857604051806040016040528086868481811061227857fe5b905060200201602061228d919081019061372e565b63ffffffff168152602001886001600160a01b031663782d6fe1898989878181106122b457fe5b90506020020160206122c9919081019061372e565b6040518363ffffffff1660e01b81526004016122e6929190613e9c565b60206040518083038186803b1580156122fe57600080fd5b505afa158015612312573d6000803e3d6000fd5b505050506040513d601f19601f82011682018060405250612336919081019061376a565b6001600160601b031681525082828151811061234e57fe5b6020908102919091010152600101612259565b604051635ddc432560e11b81526000906001600160a01b0383169063bbb8864a90612390908790600401613e3c565b60206040518083038186803b1580156123a857600080fd5b505afa1580156123bc573d6000803e3d6000fd5b505050506040513d601f19601f820116820180604052506123e091908101906136cd565b9050600043905060006123fd82886020015163ffffffff16612d5b565b905060008111801561240f5750600083115b1561258e576000612490876001600160a01b03166347bd37186040518163ffffffff1660e01b815260040160206040518083038186803b15801561245257600080fd5b505afa158015612466573d6000803e3d6000fd5b505050506040513d601f19601f8201168201806040525061248a91908101906136cd565b87612d95565b9050600061249e8386612db3565b90506124a86130e4565b600083116124c557604051806020016040528060008152506124cf565b6124cf8284612df5565b90506124d96130e4565b60408051602081019091528b516001600160e01b031681526124fb9083612e33565b90506125368160000151604051806040016040528060138152602001726e657720696e646578206f766572666c6f777360681b815250612e58565b6001600160e01b03168b52604080518082019091526016815275626c6f636b206e756d626572206f766572666c6f777360501b6020820152612579908790612e87565b63ffffffff1660208c0152506125d892505050565b80156125d8576125cc8260405180604001604052806016815260200175626c6f636b206e756d626572206f766572666c6f777360501b815250612e87565b63ffffffff1660208801525b50505050505050565b60006125eb6130e4565b50604080516020810190915286516001600160e01b0316815261260c6130e4565b604080516020810191829052630238089760e21b909152806001600160a01b0386166308e0225c6126418b8b60248601613e73565b60206040518083038186803b15801561265957600080fd5b505afa15801561266d573d6000803e3d6000fd5b505050506040513d601f19601f8201168201806040525061269191908101906136cd565b9052805190915015612753576126a56130e4565b6126af8383612eaf565b90506000612738896001600160a01b03166395dd91938a6040518263ffffffff1660e01b81526004016126e29190613e3c565b60206040518083038186803b1580156126fa57600080fd5b505afa15801561270e573d6000803e3d6000fd5b505050506040513d601f19601f8201168201806040525061273291908101906136cd565b88612d95565b905060006127468284612ed4565b955061275a945050505050565b6000925050505b95945050505050565b604051635dd3fc9d60e01b81526000906001600160a01b03831690635dd3fc9d90612792908690600401613e3c565b60206040518083038186803b1580156127aa57600080fd5b505afa1580156127be573d6000803e3d6000fd5b505050506040513d601f19601f820116820180604052506127e291908101906136cd565b9050600043905060006127ff82876020015163ffffffff16612d5b565b90506000811180156128115750600083115b15612987576000856001600160a01b03166318160ddd6040518163ffffffff1660e01b815260040160206040518083038186803b15801561285157600080fd5b505afa158015612865573d6000803e3d6000fd5b505050506040513d601f19601f8201168201806040525061288991908101906136cd565b905060006128978386612db3565b90506128a16130e4565b600083116128be57604051806020016040528060008152506128c8565b6128c88284612df5565b90506128d26130e4565b60408051602081019091528a516001600160e01b031681526128f49083612e33565b905061292f8160000151604051806040016040528060138152602001726e657720696e646578206f766572666c6f777360681b815250612e58565b6001600160e01b03168a52604080518082019091526016815275626c6f636b206e756d626572206f766572666c6f777360501b6020820152612972908790612e87565b63ffffffff1660208b0152506129d192505050565b80156129d1576129c58260405180604001604052806016815260200175626c6f636b206e756d626572206f766572666c6f777360501b815250612e87565b63ffffffff1660208701525b505050505050565b60006129e36130e4565b50604080516020810190915285516001600160e01b03168152612a046130e4565b604080516020810191829052631068634b60e21b909152806001600160a01b0386166341a18d2c612a398a8a60248601613e73565b60206040518083038186803b158015612a5157600080fd5b505afa158015612a65573d6000803e3d6000fd5b505050506040513d601f19601f82011682018060405250612a8991908101906136cd565b90528051909150158015612a9d5750815115155b15612b1f57836001600160a01b031663c5b4db556040518163ffffffff1660e01b815260040160206040518083038186803b158015612adb57600080fd5b505afa158015612aef573d6000803e3d6000fd5b505050506040513d601f19601f82011682018060405250612b13919081019061367f565b6001600160e01b031681525b612b276130e4565b612b318383612eaf565b90506000876001600160a01b03166370a08231886040518263ffffffff1660e01b8152600401612b619190613e3c565b60206040518083038186803b158015612b7957600080fd5b505afa158015612b8d573d6000803e3d6000fd5b505050506040513d601f19601f82011682018060405250612bb191908101906136cd565b90506000612bbf8284612ed4565b9a9950505050505050505050565b60006103cb8383604051806040016040528060118152602001706164646974696f6e206f766572666c6f7760781b815250612cff565b600081604051602001612c169190613e30565b6040516020818303038152906040528051906020012083604051602001612c3d9190613e30565b6040516020818303038152906040528051906020012014905092915050565b600082612c6b5750600061031e565b82820282848281612c7857fe5b04146103cb5760405162461bcd60e51b815260040161061590613f2a565b6000612ca06130e4565b612caa8484612f03565b9050612cb581612f24565b949350505050565b60006103cb83836040518060400160405280601a81526020017f536166654d6174683a206469766973696f6e206279207a65726f000000000000815250612f33565b60008383018285821015612d265760405162461bcd60e51b81526004016106159190613f09565b50949350505050565b60008184841115612d535760405162461bcd60e51b81526004016106159190613f09565b505050900390565b60006103cb8383604051806040016040528060158152602001747375627472616374696f6e20756e646572666c6f7760581b815250612d2f565b60006103cb612dac84670de0b6b3a7640000612db3565b8351612f6a565b60006103cb83836040518060400160405280601781526020017f6d756c7469706c69636174696f6e206f766572666c6f77000000000000000000815250612f9d565b612dfd6130e4565b6040518060200160405280612e2a612e24866ec097ce7bc90715b34b9f1000000000612db3565b85612f6a565b90529392505050565b612e3b6130e4565b6040518060200160405280612e2a85600001518560000151612bcd565b600081600160e01b8410612e7f5760405162461bcd60e51b81526004016106159190613f09565b509192915050565b6000816401000000008410612e7f5760405162461bcd60e51b81526004016106159190613f09565b612eb76130e4565b6040518060200160405280612e2a85600001518560000151612d5b565b60006ec097ce7bc90715b34b9f1000000000612ef4848460000151612db3565b81612efb57fe5b049392505050565b612f0b6130e4565b6040518060200160405280612e2a856000015185612db3565b51670de0b6b3a7640000900490565b60008183612f545760405162461bcd60e51b81526004016106159190613f09565b506000838581612f6057fe5b0495945050505050565b60006103cb83836040518060400160405280600e81526020016d646976696465206279207a65726f60901b815250612fe5565b6000831580612faa575082155b15612fb7575060006103cb565b83830283858281612fc457fe5b04148390612d265760405162461bcd60e51b81526004016106159190613f09565b600081836130065760405162461bcd60e51b81526004016106159190613f09565b5082848161301057fe5b04949350505050565b604080518082019091526000808252602082015290565b6040518060c0016040528060006001600160a01b0316815260200160008152602001600081526020016000815260200160008152602001600081525090565b60405180606001604052806060815260200160008152602001600081525090565b604080516080810182526000808252602082018190529181019190915260608082015290565b6040805160a08101825260008082526020820181905291810182905260608101829052608081019190915290565b6040518060200160405280600081525090565b60405180610260016040528060006001600160a01b0316815260200160008152602001600081526020016000815260200160008152602001600081526020016000815260200160008152602001600081526020016000151581526020016000815260200160006001600160a01b03168152602001600081526020016000815260200160008152602001600081526020016000815260200160008152602001600081525090565b6040518060800160405280600081526020016000815260200160006001600160a01b03168152602001600081525090565b6040518060600160405280600081526020016000815260200160006001600160a01b031681525090565b604051806040016040528060008152602001600081525090565b803561031e816140f3565b805161031e816140f3565b60008083601f84011261323a57600080fd5b50813567ffffffffffffffff81111561325257600080fd5b60208301915083602082028301111561326a57600080fd5b9250929050565b600082601f83011261328257600080fd5b815161329561329082613fd8565b613fb1565b915081818352602084019350602081019050838560208402820111156132ba57600080fd5b60005b838110156132e657816132d08882613306565b84525060209283019291909101906001016132bd565b5050505092915050565b805161031e81614107565b803561031e81614110565b805161031e81614110565b600082601f83011261332257600080fd5b815161333061329082613ff9565b9150808252602083016020830185838301111561334c57600080fd5b6133578382846140b0565b50505092915050565b805161031e81614119565b805161031e81614122565b803561031e8161412b565b805161031e8161412b565b805161031e81614134565b805161031e8161413d565b6000602082840312156133b457600080fd5b6000612cb5848461321d565b600080604083850312156133d357600080fd5b60006133df8585613212565b92505060206133f085828601613212565b9150509250929050565b6000806040838503121561340d57600080fd5b60006134198585613212565b92505060206133f0858286016132fb565b6000806020838503121561343d57600080fd5b823567ffffffffffffffff81111561345457600080fd5b61346085828601613228565b92509250509250929050565b60008060006040848603121561348157600080fd5b833567ffffffffffffffff81111561349857600080fd5b6134a486828701613228565b935093505060206134b786828701613212565b9150509250925092565b6000602082840312156134d357600080fd5b815167ffffffffffffffff8111156134ea57600080fd5b612cb584828501613271565b60006020828403121561350857600080fd5b6000612cb584846132f0565b6000806040838503121561352757600080fd5b600061353385856132f0565b92505060206133f08582860161336b565b60006020828403121561355657600080fd5b6000612cb58484613306565b6000806040838503121561357557600080fd5b60006133df85856132fb565b60006020828403121561359357600080fd5b6000612cb584846132fb565b600080600080606085870312156135b557600080fd5b60006135c187876132fb565b94505060206135d287828801613212565b935050604085013567ffffffffffffffff8111156135ef57600080fd5b6135fb87828801613228565b95989497509550505050565b60008060006060848603121561361c57600080fd5b600061362886866132fb565b9350506020613639868287016132fb565b92505060406134b786828701613212565b60006020828403121561365c57600080fd5b815167ffffffffffffffff81111561367357600080fd5b612cb584828501613311565b60006020828403121561369157600080fd5b6000612cb58484613360565b600080604083850312156136b057600080fd5b60006136bc8585613360565b92505060206133f085828601613381565b6000602082840312156136df57600080fd5b6000612cb5848461336b565b60008060006060848603121561370057600080fd5b600061370c868661336b565b935050602061371d8682870161336b565b92505060406134b78682870161336b565b60006020828403121561374057600080fd5b6000612cb58484613376565b60006020828403121561375e57600080fd5b6000612cb5848461338c565b60006020828403121561377c57600080fd5b6000612cb58484613397565b600061379483836139e5565b505060200190565b60006137a88383613b22565b505060400190565b60006137bc8383613b9e565b505060c00190565b60006137d08383613c0e565b50506102600190565b60006137a88383613d8c565b6137ee8161408f565b82525050565b6137ee81614034565b600061380882614027565b613812818561402b565b935061381d83614021565b8060005b8381101561384b5781516138358882613788565b975061384083614021565b925050600101613821565b509495945050505050565b600061386182614027565b61386b818561402b565b935061387683614021565b8060005b8381101561384b57815161388e888261379c565b975061389983614021565b92505060010161387a565b60006138af82614027565b6138b9818561402b565b93506138c483614021565b8060005b8381101561384b5781516138dc88826137b0565b97506138e783614021565b9250506001016138c8565b60006138fd82614027565b613907818561402b565b935061391283614021565b8060005b8381101561384b57815161392a88826137c4565b975061393583614021565b925050600101613916565b600061394b82614027565b613955818561402b565b935061396083614021565b8060005b8381101561384b578151613978888261379c565b975061398383614021565b925050600101613964565b600061399982614027565b6139a3818561402b565b93506139ae83614021565b8060005b8381101561384b5781516139c688826137d9565b97506139d183614021565b9250506001016139b2565b6137ee8161403f565b6137ee81614044565b6137ee8161409a565b6000613a0282614027565b613a0c818561402b565b9350613a1c8185602086016140b0565b613a25816140dc565b9093019392505050565b6000613a3a82614027565b613a448185610561565b9350613a548185602086016140b0565b9290920192915050565b6000613a6b60178361402b565b7f6163636f756e74206c6971756964697479206572726f72000000000000000000815260200192915050565b6000613aa460218361402b565b7f536166654d6174683a206d756c7469706c69636174696f6e206f766572666c6f8152607760f81b602082015260400192915050565b8051606080845260009190840190613af282826137fd565b9150506020830151613b076020860182613e1e565b506040830151613b1a6040860182613e1e565b509392505050565b80516040830190613b3384826137f4565b506020820151613b466020850182613e1e565b50505050565b80516000906080840190613b6085826137f4565b506020830151613b7360208601826137f4565b506040830151613b866040860182613e1e565b506060830151848203606086015261275a8282613856565b805160c0830190613baf84826137f4565b506020820151613bc26020850182613e1e565b506040820151613bd56040850182613e1e565b506060820151613be86060850182613e1e565b506080820151613bfb6080850182613e1e565b5060a0820151613b4660a0850182613e1e565b8051610260830190613c2084826137f4565b506020820151613c336020850182613e1e565b506040820151613c466040850182613e1e565b506060820151613c596060850182613e1e565b506080820151613c6c6080850182613e1e565b5060a0820151613c7f60a0850182613e1e565b5060c0820151613c9260c0850182613e1e565b5060e0820151613ca560e0850182613e1e565b50610100820151613cba610100850182613e1e565b50610120820151613ccf6101208501826139dc565b50610140820151613ce4610140850182613e1e565b50610160820151613cf96101608501826137f4565b50610180820151613d0e610180850182613e1e565b506101a0820151613d236101a0850182613e1e565b506101c0820151613d386101c0850182613e1e565b506101e0820151613d4d6101e0850182613e1e565b50610200820151613d62610200850182613e1e565b50610220820151613d77610220850182613e1e565b50610240820151613b46610240850182613e1e565b80516040830190613b338482613e1e565b80516080830190613dae8482613e1e565b506020820151613dc16020850182613e1e565b506040820151613dd460408501826137f4565b506060820151613b466060850182613e1e565b80516060830190613df88482613e1e565b506020820151613e0b6020850182613e1e565b506040820151613b4660408501826137f4565b6137ee81614071565b6137ee816140a5565b60006103cb8284613a2f565b6020810161031e82846137f4565b6020810161031e82846137e5565b60408101613e6682856137e5565b6103cb60208301846137f4565b60408101613e6682856137f4565b60408101613e8f82856137f4565b6103cb60208301846139ee565b60408101613eaa82856137f4565b6103cb6020830184613e27565b602080825281016103cb81846138a4565b602080825281016103cb81846138f2565b602080825281016103cb8184613940565b602080825281016103cb818461398e565b6020810161031e82846139e5565b602080825281016103cb81846139f7565b6020808252810161031e81613a5e565b6020808252810161031e81613a97565b602080825281016103cb8184613ada565b602080825281016103cb8184613b4c565b60c0810161031e8284613b9e565b610260810161031e8284613c0e565b6040810161031e8284613b22565b6080810161031e8284613d9d565b6060810161031e8284613de7565b6020810161031e8284613e1e565b60405181810167ffffffffffffffff81118282101715613fd057600080fd5b604052919050565b600067ffffffffffffffff821115613fef57600080fd5b5060209081020190565b600067ffffffffffffffff82111561401057600080fd5b506020601f91909101601f19160190565b60200190565b5190565b90815260200190565b600061031e82614059565b151590565b600061031e82614034565b80610561816140e6565b6001600160a01b031690565b6001600160e01b031690565b90565b63ffffffff1690565b60ff1690565b6001600160601b031690565b600061031e82614044565b600061031e8261404f565b600061031e82614074565b60005b838110156140cb5781810151838201526020016140b3565b83811115613b465750506000910152565b601f01601f191690565b600981106140f057fe5b50565b6140fc81614034565b81146140f057600080fd5b6140fc8161403f565b6140fc81614044565b6140fc81614065565b6140fc81614071565b6140fc81614074565b6140fc8161407d565b6140fc8161408356fea365627a7a723158202eef598709076206d066560319dbcdc46c314ae421948d57467f77fb53c623ac6c6578706572696d656e74616cf564736f6c63430005100040",
  "devdoc": {
    "methods": {
      "getAccountLimits(address,address)": {
        "params": {
          "account": "Address of the account to query",
          "comptroller": "Address of comptroller proxy"
        },
        "return": "Struct with markets user has entered, liquidity, and shortfall of the account"
      },
      "getDailyXVS(address,address)": {
        "params": {
          "account": "Address of account to fetch the daily XVS distribution",
          "comptrollerAddress": "Address of the comptroller proxy"
        },
        "return": "Amount of XVS distributed daily to an account"
      },
      "getVenusVotes(address,address,uint32[])": {
        "params": {
          "account": "Address of the account",
          "blockNumbers": "Array of blocks to query",
          "xvs": "XVS contract address"
        },
        "return": "Array of VenusVotes structs with block number and vote count"
      },
      "getXVSBalanceMetadata(address,address)": {
        "params": {
          "account": "Account address",
          "xvs": "XVS contract address"
        },
        "return": "Struct with XVS balance and voter details"
      },
      "getXVSBalanceMetadataExt(address,address,address)": {
        "params": {
          "account": "Account address",
          "comptroller": "Comptroller proxy contract address",
          "xvs": "XVS contract address"
        },
        "return": "Struct with XVS balance and voter details and XVS allocation"
      },
      "pendingRewards(address,address)": {
        "params": {
          "comptroller": "Address of the comptroller",
          "holder": "Account to query pending XVS"
        },
        "return": "Reward object contraining the totalRewards and pending rewards for each market"
      },
      "vTokenBalances(address,address)": {
        "params": {
          "account": "Account address to fetch the balance of",
          "vToken": "Address of the token to check the balance of"
        },
        "return": "VTokenBalances with token balance information"
      },
      "vTokenBalancesAll(address[],address)": {
        "params": {
          "account": "Account address to fetch the balance of",
          "vTokens": "Addresses of the tokens to check the balance of"
        },
        "return": "VTokenBalances Array with token balance information"
      },
      "vTokenMetadata(address)": {
        "params": {
          "vToken": "The address of the vToken to fetch VTokenMetadata"
        },
        "return": "VTokenMetadata struct with vToken supply and borrow information."
      },
      "vTokenMetadataAll(address[])": {
        "params": {
          "vTokens": "Array of vToken addresses to fetch VTokenMetadata"
        },
        "return": "Array of structs with vToken supply and borrow information."
      },
      "vTokenUnderlyingPrice(address)": {
        "params": {
          "vToken": "address of the vToken"
        },
        "return": "response struct with underlyingPrice info of vToken"
      },
      "vTokenUnderlyingPriceAll(address[])": {
        "params": {
          "vTokens": "Array of vToken addresses"
        },
        "return": "array of response structs with underlying price information of vTokens"
      }
    }
  },
  "userdoc": {
    "methods": {
      "getAccountLimits(address,address)": {
        "notice": "Query the account liquidity and shortfall of an account"
      },
      "getDailyXVS(address,address)": {
        "notice": "Get amount of XVS distributed daily to an account"
      },
      "getVenusVotes(address,address,uint32[])": {
        "notice": "Query the voting power for an account at a specific list of block numbers"
      },
      "getXVSBalanceMetadata(address,address)": {
        "notice": "Query the XVSBalance info of an account"
      },
      "getXVSBalanceMetadataExt(address,address,address)": {
        "notice": "Query the XVSBalance extended info of an account"
      },
      "pendingRewards(address,address)": {
        "notice": "Calculate the total XVS tokens pending and accrued by a user account"
      },
      "vTokenBalances(address,address)": {
        "notice": "Get the current vToken balance (outstanding borrows) for an account"
      },
      "vTokenBalancesAll(address[],address)": {
        "notice": "Get the current vToken balances (outstanding borrows) for all vTokens on an account"
      },
      "vTokenMetadata(address)": {
        "notice": "Query the metadata of a vToken by its address"
      },
      "vTokenMetadataAll(address[])": {
        "notice": "Get VTokenMetadata for an array of vToken addresses"
      },
      "vTokenUnderlyingPrice(address)": {
        "notice": "Get the price for the underlying asset of a vToken"
      },
      "vTokenUnderlyingPriceAll(address[])": {
        "notice": "Query the underlyingPrice of an array of vTokens"
      }
    }
  },
  "storageLayout": {
    "storage": [],
    "types": null
  }
}