{
  "address": "0x6D0cDb3355c93A0cD20071aBbb3622731a95c73E",
  "abi": [
    {
      "inputs": [
        {
          "internalType": "address",
          "name": "underlying_",
          "type": "address"
        },
        {
          "internalType": "contract ComptrollerInterface",
          "name": "comptroller_",
          "type": "address"
        },
        {
          "internalType": "contract InterestRateModelV8",
          "name": "interestRateModel_",
          "type": "address"
        },
        {
          "internalType": "uint256",
          "name": "initialExchangeRateMantissa_",
          "type": "uint256"
        },
        {
          "internalType": "string",
          "name": "name_",
          "type": "string"
        },
        {
          "internalType": "string",
          "name": "symbol_",
          "type": "string"
        },
        {
          "internalType": "uint8",
          "name": "decimals_",
          "type": "uint8"
        },
        {
          "internalType": "address payable",
          "name": "admin_",
          "type": "address"
        },
        {
          "internalType": "address",
          "name": "implementation_",
          "type": "address"
        },
        {
          "internalType": "bytes",
          "name": "becomeImplementationData",
          "type": "bytes"
        }
      ],
      "stateMutability": "nonpayable",
      "type": "constructor"
    },
    {
      "anonymous": false,
      "inputs": [
        {
          "indexed": false,
          "internalType": "uint256",
          "name": "cashPrior",
          "type": "uint256"
        },
        {
          "indexed": false,
          "internalType": "uint256",
          "name": "interestAccumulated",
          "type": "uint256"
        },
        {
          "indexed": false,
          "internalType": "uint256",
          "name": "borrowIndex",
          "type": "uint256"
        },
        {
          "indexed": false,
          "internalType": "uint256",
          "name": "totalBorrows",
          "type": "uint256"
        }
      ],
      "name": "AccrueInterest",
      "type": "event"
    },
    {
      "anonymous": false,
      "inputs": [
        {
          "indexed": true,
          "internalType": "address",
          "name": "owner",
          "type": "address"
        },
        {
          "indexed": true,
          "internalType": "address",
          "name": "spender",
          "type": "address"
        },
        {
          "indexed": false,
          "internalType": "uint256",
          "name": "amount",
          "type": "uint256"
        }
      ],
      "name": "Approval",
      "type": "event"
    },
    {
      "anonymous": false,
      "inputs": [
        {
          "indexed": false,
          "internalType": "address",
          "name": "borrower",
          "type": "address"
        },
        {
          "indexed": false,
          "internalType": "uint256",
          "name": "borrowAmount",
          "type": "uint256"
        },
        {
          "indexed": false,
          "internalType": "uint256",
          "name": "accountBorrows",
          "type": "uint256"
        },
        {
          "indexed": false,
          "internalType": "uint256",
          "name": "totalBorrows",
          "type": "uint256"
        }
      ],
      "name": "Borrow",
      "type": "event"
    },
    {
      "anonymous": false,
      "inputs": [
        {
          "indexed": false,
          "internalType": "address",
          "name": "liquidator",
          "type": "address"
        },
        {
          "indexed": false,
          "internalType": "address",
          "name": "borrower",
          "type": "address"
        },
        {
          "indexed": false,
          "internalType": "uint256",
          "name": "repayAmount",
          "type": "uint256"
        },
        {
          "indexed": false,
          "internalType": "address",
          "name": "vTokenCollateral",
          "type": "address"
        },
        {
          "indexed": false,
          "internalType": "uint256",
          "name": "seizeTokens",
          "type": "uint256"
        }
      ],
      "name": "LiquidateBorrow",
      "type": "event"
    },
    {
      "anonymous": false,
      "inputs": [
        {
          "indexed": false,
          "internalType": "address",
          "name": "minter",
          "type": "address"
        },
        {
          "indexed": false,
          "internalType": "uint256",
          "name": "mintAmount",
          "type": "uint256"
        },
        {
          "indexed": false,
          "internalType": "uint256",
          "name": "mintTokens",
          "type": "uint256"
        },
        {
          "indexed": false,
          "internalType": "uint256",
          "name": "totalSupply",
          "type": "uint256"
        }
      ],
      "name": "Mint",
      "type": "event"
    },
    {
      "anonymous": false,
      "inputs": [
        {
          "indexed": false,
          "internalType": "address",
          "name": "payer",
          "type": "address"
        },
        {
          "indexed": false,
          "internalType": "address",
          "name": "receiver",
          "type": "address"
        },
        {
          "indexed": false,
          "internalType": "uint256",
          "name": "mintAmount",
          "type": "uint256"
        },
        {
          "indexed": false,
          "internalType": "uint256",
          "name": "mintTokens",
          "type": "uint256"
        },
        {
          "indexed": false,
          "internalType": "uint256",
          "name": "totalSupply",
          "type": "uint256"
        }
      ],
      "name": "MintBehalf",
      "type": "event"
    },
    {
      "anonymous": false,
      "inputs": [
        {
          "indexed": false,
          "internalType": "address",
          "name": "oldAccessControlAddress",
          "type": "address"
        },
        {
          "indexed": false,
          "internalType": "address",
          "name": "newAccessControlAddress",
          "type": "address"
        }
      ],
      "name": "NewAccessControlManager",
      "type": "event"
    },
    {
      "anonymous": false,
      "inputs": [
        {
          "indexed": false,
          "internalType": "address",
          "name": "oldAdmin",
          "type": "address"
        },
        {
          "indexed": false,
          "internalType": "address",
          "name": "newAdmin",
          "type": "address"
        }
      ],
      "name": "NewAdmin",
      "type": "event"
    },
    {
      "anonymous": false,
      "inputs": [
        {
          "indexed": false,
          "internalType": "contract ComptrollerInterface",
          "name": "oldComptroller",
          "type": "address"
        },
        {
          "indexed": false,
          "internalType": "contract ComptrollerInterface",
          "name": "newComptroller",
          "type": "address"
        }
      ],
      "name": "NewComptroller",
      "type": "event"
    },
    {
      "anonymous": false,
      "inputs": [
        {
          "indexed": false,
          "internalType": "address",
          "name": "oldImplementation",
          "type": "address"
        },
        {
          "indexed": false,
          "internalType": "address",
          "name": "newImplementation",
          "type": "address"
        }
      ],
      "name": "NewImplementation",
      "type": "event"
    },
    {
      "anonymous": false,
      "inputs": [
        {
          "indexed": false,
          "internalType": "contract InterestRateModelV8",
          "name": "oldInterestRateModel",
          "type": "address"
        },
        {
          "indexed": false,
          "internalType": "contract InterestRateModelV8",
          "name": "newInterestRateModel",
          "type": "address"
        }
      ],
      "name": "NewMarketInterestRateModel",
      "type": "event"
    },
    {
      "anonymous": false,
      "inputs": [
        {
          "indexed": false,
          "internalType": "address",
          "name": "oldPendingAdmin",
          "type": "address"
        },
        {
          "indexed": false,
          "internalType": "address",
          "name": "newPendingAdmin",
          "type": "address"
        }
      ],
      "name": "NewPendingAdmin",
      "type": "event"
    },
    {
      "anonymous": false,
      "inputs": [
        {
          "indexed": true,
          "internalType": "address",
          "name": "oldProtocolShareReserve",
          "type": "address"
        },
        {
          "indexed": true,
          "internalType": "address",
          "name": "newProtocolShareReserve",
          "type": "address"
        }
      ],
      "name": "NewProtocolShareReserve",
      "type": "event"
    },
    {
      "anonymous": false,
      "inputs": [
        {
          "indexed": false,
          "internalType": "uint256",
          "name": "oldReduceReservesBlockDelta",
          "type": "uint256"
        },
        {
          "indexed": false,
          "internalType": "uint256",
          "name": "newReduceReservesBlockDelta",
          "type": "uint256"
        }
      ],
      "name": "NewReduceReservesBlockDelta",
      "type": "event"
    },
    {
      "anonymous": false,
      "inputs": [
        {
          "indexed": false,
          "internalType": "uint256",
          "name": "oldReserveFactorMantissa",
          "type": "uint256"
        },
        {
          "indexed": false,
          "internalType": "uint256",
          "name": "newReserveFactorMantissa",
          "type": "uint256"
        }
      ],
      "name": "NewReserveFactor",
      "type": "event"
    },
    {
      "anonymous": false,
      "inputs": [
        {
          "indexed": false,
          "internalType": "address",
          "name": "redeemer",
          "type": "address"
        },
        {
          "indexed": false,
          "internalType": "uint256",
          "name": "redeemAmount",
          "type": "uint256"
        },
        {
          "indexed": false,
          "internalType": "uint256",
          "name": "redeemTokens",
          "type": "uint256"
        },
        {
          "indexed": false,
          "internalType": "uint256",
          "name": "totalSupply",
          "type": "uint256"
        }
      ],
      "name": "Redeem",
      "type": "event"
    },
    {
      "anonymous": false,
      "inputs": [
        {
          "indexed": false,
          "internalType": "address",
          "name": "redeemer",
          "type": "address"
        },
        {
          "indexed": false,
          "internalType": "uint256",
          "name": "feeAmount",
          "type": "uint256"
        },
        {
          "indexed": false,
          "internalType": "uint256",
          "name": "redeemTokens",
          "type": "uint256"
        }
      ],
      "name": "RedeemFee",
      "type": "event"
    },
    {
      "anonymous": false,
      "inputs": [
        {
          "indexed": false,
          "internalType": "address",
          "name": "payer",
          "type": "address"
        },
        {
          "indexed": false,
          "internalType": "address",
          "name": "borrower",
          "type": "address"
        },
        {
          "indexed": false,
          "internalType": "uint256",
          "name": "repayAmount",
          "type": "uint256"
        },
        {
          "indexed": false,
          "internalType": "uint256",
          "name": "accountBorrows",
          "type": "uint256"
        },
        {
          "indexed": false,
          "internalType": "uint256",
          "name": "totalBorrows",
          "type": "uint256"
        }
      ],
      "name": "RepayBorrow",
      "type": "event"
    },
    {
      "anonymous": false,
      "inputs": [
        {
          "indexed": false,
          "internalType": "address",
          "name": "benefactor",
          "type": "address"
        },
        {
          "indexed": false,
          "internalType": "uint256",
          "name": "addAmount",
          "type": "uint256"
        },
        {
          "indexed": false,
          "internalType": "uint256",
          "name": "newTotalReserves",
          "type": "uint256"
        }
      ],
      "name": "ReservesAdded",
      "type": "event"
    },
    {
      "anonymous": false,
      "inputs": [
        {
          "indexed": false,
          "internalType": "address",
          "name": "protocolShareReserve",
          "type": "address"
        },
        {
          "indexed": false,
          "internalType": "uint256",
          "name": "reduceAmount",
          "type": "uint256"
        },
        {
          "indexed": false,
          "internalType": "uint256",
          "name": "newTotalReserves",
          "type": "uint256"
        }
      ],
      "name": "ReservesReduced",
      "type": "event"
    },
    {
      "anonymous": false,
      "inputs": [
        {
          "indexed": true,
          "internalType": "address",
          "name": "from",
          "type": "address"
        },
        {
          "indexed": true,
          "internalType": "address",
          "name": "to",
          "type": "address"
        },
        {
          "indexed": false,
          "internalType": "uint256",
          "name": "amount",
          "type": "uint256"
        }
      ],
      "name": "Transfer",
      "type": "event"
    },
    {
      "stateMutability": "nonpayable",
      "type": "fallback"
    },
    {
      "inputs": [],
      "name": "_acceptAdmin",
      "outputs": [
        {
          "internalType": "uint256",
          "name": "",
          "type": "uint256"
        }
      ],
      "stateMutability": "nonpayable",
      "type": "function"
    },
    {
      "inputs": [
        {
          "internalType": "uint256",
          "name": "addAmount",
          "type": "uint256"
        }
      ],
      "name": "_addReserves",
      "outputs": [
        {
          "internalType": "uint256",
          "name": "",
          "type": "uint256"
        }
      ],
      "stateMutability": "nonpayable",
      "type": "function"
    },
    {
      "inputs": [
        {
          "internalType": "uint256",
          "name": "reduceAmount",
          "type": "uint256"
        }
      ],
      "name": "_reduceReserves",
      "outputs": [
        {
          "internalType": "uint256",
          "name": "",
          "type": "uint256"
        }
      ],
      "stateMutability": "nonpayable",
      "type": "function"
    },
    {
      "inputs": [
        {
          "internalType": "contract ComptrollerInterface",
          "name": "newComptroller",
          "type": "address"
        }
      ],
      "name": "_setComptroller",
      "outputs": [
        {
          "internalType": "uint256",
          "name": "",
          "type": "uint256"
        }
      ],
      "stateMutability": "nonpayable",
      "type": "function"
    },
    {
      "inputs": [
        {
          "internalType": "address",
          "name": "implementation_",
          "type": "address"
        },
        {
          "internalType": "bool",
          "name": "allowResign",
          "type": "bool"
        },
        {
          "internalType": "bytes",
          "name": "becomeImplementationData",
          "type": "bytes"
        }
      ],
      "name": "_setImplementation",
      "outputs": [],
      "stateMutability": "nonpayable",
      "type": "function"
    },
    {
      "inputs": [
        {
          "internalType": "contract InterestRateModelV8",
          "name": "newInterestRateModel",
          "type": "address"
        }
      ],
      "name": "_setInterestRateModel",
      "outputs": [
        {
          "internalType": "uint256",
          "name": "",
          "type": "uint256"
        }
      ],
      "stateMutability": "nonpayable",
      "type": "function"
    },
    {
      "inputs": [
        {
          "internalType": "address payable",
          "name": "newPendingAdmin",
          "type": "address"
        }
      ],
      "name": "_setPendingAdmin",
      "outputs": [
        {
          "internalType": "uint256",
          "name": "",
          "type": "uint256"
        }
      ],
      "stateMutability": "nonpayable",
      "type": "function"
    },
    {
      "inputs": [
        {
          "internalType": "uint256",
          "name": "newReserveFactorMantissa",
          "type": "uint256"
        }
      ],
      "name": "_setReserveFactor",
      "outputs": [
        {
          "internalType": "uint256",
          "name": "",
          "type": "uint256"
        }
      ],
      "stateMutability": "nonpayable",
      "type": "function"
    },
    {
      "inputs": [],
      "name": "accessControlManager",
      "outputs": [
        {
          "internalType": "address",
          "name": "",
          "type": "address"
        }
      ],
      "stateMutability": "view",
      "type": "function"
    },
    {
      "inputs": [],
      "name": "accrualBlockNumber",
      "outputs": [
        {
          "internalType": "uint256",
          "name": "",
          "type": "uint256"
        }
      ],
      "stateMutability": "view",
      "type": "function"
    },
    {
      "inputs": [],
      "name": "accrueInterest",
      "outputs": [
        {
          "internalType": "uint256",
          "name": "",
          "type": "uint256"
        }
      ],
      "stateMutability": "nonpayable",
      "type": "function"
    },
    {
      "inputs": [],
      "name": "admin",
      "outputs": [
        {
          "internalType": "address payable",
          "name": "",
          "type": "address"
        }
      ],
      "stateMutability": "view",
      "type": "function"
    },
    {
      "inputs": [
        {
          "internalType": "address",
          "name": "owner",
          "type": "address"
        },
        {
          "internalType": "address",
          "name": "spender",
          "type": "address"
        }
      ],
      "name": "allowance",
      "outputs": [
        {
          "internalType": "uint256",
          "name": "",
          "type": "uint256"
        }
      ],
      "stateMutability": "view",
      "type": "function"
    },
    {
      "inputs": [
        {
          "internalType": "address",
          "name": "spender",
          "type": "address"
        },
        {
          "internalType": "uint256",
          "name": "amount",
          "type": "uint256"
        }
      ],
      "name": "approve",
      "outputs": [
        {
          "internalType": "bool",
          "name": "",
          "type": "bool"
        }
      ],
      "stateMutability": "nonpayable",
      "type": "function"
    },
    {
      "inputs": [
        {
          "internalType": "address",
          "name": "owner",
          "type": "address"
        }
      ],
      "name": "balanceOf",
      "outputs": [
        {
          "internalType": "uint256",
          "name": "",
          "type": "uint256"
        }
      ],
      "stateMutability": "view",
      "type": "function"
    },
    {
      "inputs": [
        {
          "internalType": "address",
          "name": "owner",
          "type": "address"
        }
      ],
      "name": "balanceOfUnderlying",
      "outputs": [
        {
          "internalType": "uint256",
          "name": "",
          "type": "uint256"
        }
      ],
      "stateMutability": "nonpayable",
      "type": "function"
    },
    {
      "inputs": [
        {
          "internalType": "uint256",
          "name": "borrowAmount",
          "type": "uint256"
        }
      ],
      "name": "borrow",
      "outputs": [
        {
          "internalType": "uint256",
          "name": "",
          "type": "uint256"
        }
      ],
      "stateMutability": "nonpayable",
      "type": "function"
    },
    {
      "inputs": [
        {
          "internalType": "address",
          "name": "account",
          "type": "address"
        }
      ],
      "name": "borrowBalanceCurrent",
      "outputs": [
        {
          "internalType": "uint256",
          "name": "",
          "type": "uint256"
        }
      ],
      "stateMutability": "nonpayable",
      "type": "function"
    },
    {
      "inputs": [
        {
          "internalType": "address",
          "name": "account",
          "type": "address"
        }
      ],
      "name": "borrowBalanceStored",
      "outputs": [
        {
          "internalType": "uint256",
          "name": "",
          "type": "uint256"
        }
      ],
      "stateMutability": "view",
      "type": "function"
    },
    {
      "inputs": [],
      "name": "borrowIndex",
      "outputs": [
        {
          "internalType": "uint256",
          "name": "",
          "type": "uint256"
        }
      ],
      "stateMutability": "view",
      "type": "function"
    },
    {
      "inputs": [],
      "name": "borrowRatePerBlock",
      "outputs": [
        {
          "internalType": "uint256",
          "name": "",
          "type": "uint256"
        }
      ],
      "stateMutability": "view",
      "type": "function"
    },
    {
      "inputs": [],
      "name": "comptroller",
      "outputs": [
        {
          "internalType": "contract ComptrollerInterface",
          "name": "",
          "type": "address"
        }
      ],
      "stateMutability": "view",
      "type": "function"
    },
    {
      "inputs": [],
      "name": "decimals",
      "outputs": [
        {
          "internalType": "uint8",
          "name": "",
          "type": "uint8"
        }
      ],
      "stateMutability": "view",
      "type": "function"
    },
    {
      "inputs": [
        {
          "internalType": "bytes",
          "name": "data",
          "type": "bytes"
        }
      ],
      "name": "delegateToImplementation",
      "outputs": [
        {
          "internalType": "bytes",
          "name": "",
          "type": "bytes"
        }
      ],
      "stateMutability": "nonpayable",
      "type": "function"
    },
    {
      "inputs": [
        {
          "internalType": "bytes",
          "name": "data",
          "type": "bytes"
        }
      ],
      "name": "delegateToViewImplementation",
      "outputs": [
        {
          "internalType": "bytes",
          "name": "",
          "type": "bytes"
        }
      ],
      "stateMutability": "view",
      "type": "function"
    },
    {
      "inputs": [],
      "name": "exchangeRateCurrent",
      "outputs": [
        {
          "internalType": "uint256",
          "name": "",
          "type": "uint256"
        }
      ],
      "stateMutability": "nonpayable",
      "type": "function"
    },
    {
      "inputs": [],
      "name": "exchangeRateStored",
      "outputs": [
        {
          "internalType": "uint256",
          "name": "",
          "type": "uint256"
        }
      ],
      "stateMutability": "view",
      "type": "function"
    },
    {
      "inputs": [
        {
          "internalType": "address",
          "name": "account",
          "type": "address"
        }
      ],
      "name": "getAccountSnapshot",
      "outputs": [
        {
          "internalType": "uint256",
          "name": "",
          "type": "uint256"
        },
        {
          "internalType": "uint256",
          "name": "",
          "type": "uint256"
        },
        {
          "internalType": "uint256",
          "name": "",
          "type": "uint256"
        },
        {
          "internalType": "uint256",
          "name": "",
          "type": "uint256"
        }
      ],
      "stateMutability": "view",
      "type": "function"
    },
    {
      "inputs": [],
      "name": "getCash",
      "outputs": [
        {
          "internalType": "uint256",
          "name": "",
          "type": "uint256"
        }
      ],
      "stateMutability": "view",
      "type": "function"
    },
    {
      "inputs": [],
      "name": "implementation",
      "outputs": [
        {
          "internalType": "address",
          "name": "",
          "type": "address"
        }
      ],
      "stateMutability": "view",
      "type": "function"
    },
    {
      "inputs": [],
      "name": "interestRateModel",
      "outputs": [
        {
          "internalType": "contract InterestRateModelV8",
          "name": "",
          "type": "address"
        }
      ],
      "stateMutability": "view",
      "type": "function"
    },
    {
      "inputs": [],
      "name": "isVToken",
      "outputs": [
        {
          "internalType": "bool",
          "name": "",
          "type": "bool"
        }
      ],
      "stateMutability": "view",
      "type": "function"
    },
    {
      "inputs": [
        {
          "internalType": "address",
          "name": "borrower",
          "type": "address"
        },
        {
          "internalType": "uint256",
          "name": "repayAmount",
          "type": "uint256"
        },
        {
          "internalType": "contract VTokenInterface",
          "name": "vTokenCollateral",
          "type": "address"
        }
      ],
      "name": "liquidateBorrow",
      "outputs": [
        {
          "internalType": "uint256",
          "name": "",
          "type": "uint256"
        }
      ],
      "stateMutability": "nonpayable",
      "type": "function"
    },
    {
      "inputs": [
        {
          "internalType": "uint256",
          "name": "mintAmount",
          "type": "uint256"
        }
      ],
      "name": "mint",
      "outputs": [
        {
          "internalType": "uint256",
          "name": "",
          "type": "uint256"
        }
      ],
      "stateMutability": "nonpayable",
      "type": "function"
    },
    {
      "inputs": [
        {
          "internalType": "address",
          "name": "receiver",
          "type": "address"
        },
        {
          "internalType": "uint256",
          "name": "mintAmount",
          "type": "uint256"
        }
      ],
      "name": "mintBehalf",
      "outputs": [
        {
          "internalType": "uint256",
          "name": "",
          "type": "uint256"
        }
      ],
      "stateMutability": "nonpayable",
      "type": "function"
    },
    {
      "inputs": [],
      "name": "name",
      "outputs": [
        {
          "internalType": "string",
          "name": "",
          "type": "string"
        }
      ],
      "stateMutability": "view",
      "type": "function"
    },
    {
      "inputs": [],
      "name": "pendingAdmin",
      "outputs": [
        {
          "internalType": "address payable",
          "name": "",
          "type": "address"
        }
      ],
      "stateMutability": "view",
      "type": "function"
    },
    {
      "inputs": [],
      "name": "protocolShareReserve",
      "outputs": [
        {
          "internalType": "address payable",
          "name": "",
          "type": "address"
        }
      ],
      "stateMutability": "view",
      "type": "function"
    },
    {
      "inputs": [
        {
          "internalType": "uint256",
          "name": "redeemTokens",
          "type": "uint256"
        }
      ],
      "name": "redeem",
      "outputs": [
        {
          "internalType": "uint256",
          "name": "",
          "type": "uint256"
        }
      ],
      "stateMutability": "nonpayable",
      "type": "function"
    },
    {
      "inputs": [
        {
          "internalType": "uint256",
          "name": "redeemAmount",
          "type": "uint256"
        }
      ],
      "name": "redeemUnderlying",
      "outputs": [
        {
          "internalType": "uint256",
          "name": "",
          "type": "uint256"
        }
      ],
      "stateMutability": "nonpayable",
      "type": "function"
    },
    {
      "inputs": [],
      "name": "reduceReservesBlockDelta",
      "outputs": [
        {
          "internalType": "uint256",
          "name": "",
          "type": "uint256"
        }
      ],
      "stateMutability": "view",
      "type": "function"
    },
    {
      "inputs": [],
      "name": "reduceReservesBlockNumber",
      "outputs": [
        {
          "internalType": "uint256",
          "name": "",
          "type": "uint256"
        }
      ],
      "stateMutability": "view",
      "type": "function"
    },
    {
      "inputs": [
        {
          "internalType": "uint256",
          "name": "repayAmount",
          "type": "uint256"
        }
      ],
      "name": "repayBorrow",
      "outputs": [
        {
          "internalType": "uint256",
          "name": "",
          "type": "uint256"
        }
      ],
      "stateMutability": "nonpayable",
      "type": "function"
    },
    {
      "inputs": [
        {
          "internalType": "address",
          "name": "borrower",
          "type": "address"
        },
        {
          "internalType": "uint256",
          "name": "repayAmount",
          "type": "uint256"
        }
      ],
      "name": "repayBorrowBehalf",
      "outputs": [
        {
          "internalType": "uint256",
          "name": "",
          "type": "uint256"
        }
      ],
      "stateMutability": "nonpayable",
      "type": "function"
    },
    {
      "inputs": [],
      "name": "reserveFactorMantissa",
      "outputs": [
        {
          "internalType": "uint256",
          "name": "",
          "type": "uint256"
        }
      ],
      "stateMutability": "view",
      "type": "function"
    },
    {
      "inputs": [
        {
          "internalType": "address",
          "name": "liquidator",
          "type": "address"
        },
        {
          "internalType": "address",
          "name": "borrower",
          "type": "address"
        },
        {
          "internalType": "uint256",
          "name": "seizeTokens",
          "type": "uint256"
        }
      ],
      "name": "seize",
      "outputs": [
        {
          "internalType": "uint256",
          "name": "",
          "type": "uint256"
        }
      ],
      "stateMutability": "nonpayable",
      "type": "function"
    },
    {
      "inputs": [],
      "name": "supplyRatePerBlock",
      "outputs": [
        {
          "internalType": "uint256",
          "name": "",
          "type": "uint256"
        }
      ],
      "stateMutability": "view",
      "type": "function"
    },
    {
      "inputs": [],
      "name": "symbol",
      "outputs": [
        {
          "internalType": "string",
          "name": "",
          "type": "string"
        }
      ],
      "stateMutability": "view",
      "type": "function"
    },
    {
      "inputs": [],
      "name": "totalBorrows",
      "outputs": [
        {
          "internalType": "uint256",
          "name": "",
          "type": "uint256"
        }
      ],
      "stateMutability": "view",
      "type": "function"
    },
    {
      "inputs": [],
      "name": "totalBorrowsCurrent",
      "outputs": [
        {
          "internalType": "uint256",
          "name": "",
          "type": "uint256"
        }
      ],
      "stateMutability": "nonpayable",
      "type": "function"
    },
    {
      "inputs": [],
      "name": "totalReserves",
      "outputs": [
        {
          "internalType": "uint256",
          "name": "",
          "type": "uint256"
        }
      ],
      "stateMutability": "view",
      "type": "function"
    },
    {
      "inputs": [],
      "name": "totalSupply",
      "outputs": [
        {
          "internalType": "uint256",
          "name": "",
          "type": "uint256"
        }
      ],
      "stateMutability": "view",
      "type": "function"
    },
    {
      "inputs": [
        {
          "internalType": "address",
          "name": "dst",
          "type": "address"
        },
        {
          "internalType": "uint256",
          "name": "amount",
          "type": "uint256"
        }
      ],
      "name": "transfer",
      "outputs": [
        {
          "internalType": "bool",
          "name": "",
          "type": "bool"
        }
      ],
      "stateMutability": "nonpayable",
      "type": "function"
    },
    {
      "inputs": [
        {
          "internalType": "address",
          "name": "src",
          "type": "address"
        },
        {
          "internalType": "address",
          "name": "dst",
          "type": "address"
        },
        {
          "internalType": "uint256",
          "name": "amount",
          "type": "uint256"
        }
      ],
      "name": "transferFrom",
      "outputs": [
        {
          "internalType": "bool",
          "name": "",
          "type": "bool"
        }
      ],
      "stateMutability": "nonpayable",
      "type": "function"
    },
    {
      "inputs": [],
      "name": "underlying",
      "outputs": [
        {
          "internalType": "address",
          "name": "",
          "type": "address"
        }
      ],
      "stateMutability": "view",
      "type": "function"
    }
  ],
  "transactionHash": "0xe09ee66075e51b8706f1aa7a8b3b8248afa53e8d7ff569113c9fe3d2a5129b1a",
  "args": [
    "0x607c834cfb7fcbbb341cbe23f77a6e83bcf3f55c",
    "0xfD36E2c2a6789Db23113685031d7F16329158384",
    "0x6D7c746D4A9170F1731F89580414235dA47787fc",
    "10000000000000000000000000000",
    "Venus PT-USDe-30OCT2025",
    "vPT-USDe-30OCT2025",
    8,
    "0x939bD8d64c0A9583A7Dcea9933f7b21697ab6396",
    "0xAF658DF443a937C88c955c737532E9a601ccEF8c",
    "0x"
  ],
  "numDeployments": 1,
  "solcInputHash": "cf8942cbfd972292ad670d06ce945b7f",
  "bytecode": "0x608060405234801561000f575f80fd5b50604051611e58380380611e5883398101604081905261002e916103b4565b60038054610100600160a81b031916336101000217905560405161009b908390610068908d908d908d908d908d908d908d906024016104d1565b60408051601f198184030181529190526020810180516001600160e01b03908116631a31d46560e01b179091526100dc16565b506100a7825f8361014f565b5050600380546001600160a01b0390921661010002610100600160a81b03199092169190911790555061056495505050505050565b60605f80846001600160a01b0316846040516100f89190610535565b5f60405180830381855af49150503d805f8114610130576040519150601f19603f3d011682016040523d82523d5f602084013e610135565b606091505b50909250905081610147573d60208201fd5b949350505050565b60035461010090046001600160a01b031633146101d85760405162461bcd60e51b815260206004820152603960248201527f56426570323044656c656761746f723a3a5f736574496d706c656d656e74617460448201527f696f6e3a2043616c6c6572206d7573742062652061646d696e00000000000000606482015260840160405180910390fd5b8115610217576040805160048152602481019091526020810180516001600160e01b0390811663153ab50560e01b1790915261021591906102ce16565b505b601280546001600160a01b038581166001600160a01b03198316179092556040519116906102809061024d90849060240161054b565b60408051601f198184030181529190526020810180516001600160e01b03908116630adccee560e31b179091526102ce16565b50601254604080516001600160a01b03808516825290921660208301527fd604de94d45953f9138079ec1b82d533cb2160c906d1076d1f7ed54befbca97a910160405180910390a150505050565b6012546060906102e7906001600160a01b0316836100dc565b92915050565b80516001600160a01b0381168114610303575f80fd5b919050565b634e487b7160e01b5f52604160045260245ffd5b5f82601f83011261032b575f80fd5b81516001600160401b038082111561034557610345610308565b604051601f8301601f19908116603f0116810190828211818310171561036d5761036d610308565b81604052838152866020858801011115610385575f80fd5b8360208701602083015e5f602085830101528094505050505092915050565b805160ff81168114610303575f80fd5b5f805f805f805f805f806101408b8d0312156103ce575f80fd5b6103d78b6102ed565b99506103e560208c016102ed565b98506103f360408c016102ed565b60608c015160808d015191995097506001600160401b0380821115610416575f80fd5b6104228e838f0161031c565b975060a08d0151915080821115610437575f80fd5b6104438e838f0161031c565b965061045160c08e016103a4565b955061045f60e08e016102ed565b945061046e6101008e016102ed565b93506101208d0151915080821115610484575f80fd5b506104918d828e0161031c565b9150509295989b9194979a5092959850565b5f81518084528060208401602086015e5f602082860101526020601f19601f83011685010191505092915050565b6001600160a01b0388811682528781166020830152861660408201526060810185905260e0608082018190525f9061050b908301866104a3565b82810360a084015261051d81866104a3565b91505060ff831660c083015298975050505050505050565b5f82518060208501845e5f920191825250919050565b602081525f61055d60208301846104a3565b9392505050565b6118e7806105715f395ff3fe608060405234801561000f575f80fd5b506004361061035b575f3560e01c806373acee98116101d1578063bd6d894d11610102578063e9c714f2116100a0578063f5e3c4621161007a578063f5e3c46214610756578063f851a44014610769578063f8f9da2814610781578063fca7820b146107895761035b565b8063e9c714f214610728578063f2b3abbd14610730578063f3fdb15a146107435761035b565b8063d1109c2f116100dc578063d1109c2f146106e6578063db006a75146106ef578063dd62ed3e14610702578063e9a44fd9146107155761035b565b8063bd6d894d14610698578063c37f68e2146106a0578063c5ebeaec146106d35761035b565b8063a9059cbb1161016f578063ae9d70b011610149578063ae9d70b014610657578063b2a02ff11461065f578063b4a0bdf314610672578063b71d1a0c146106855761035b565b8063a9059cbb14610632578063aa5af0fd14610645578063ae96f1411461064e5761035b565b806395d89b41116101ab57806395d89b41146105fc57806395dd919314610604578063a0712d6814610617578063a6afed951461062a5761035b565b806373acee98146105d8578063852a12e3146105e05780638f840ddd146105f35761035b565b80633af9e669116102ab578063555bcc4011610249578063601a0bf111610223578063601a0bf1146105965780636c540baf146105a95780636f307dc3146105b257806370a08231146105c55761035b565b8063555bcc401461055d5780635c60da1b146105705780635fe3b567146105835761035b565b80633e941010116102855780633e9410101461051b5780634487152f1461052e5780634576b5db1461054157806347bd3718146105545761035b565b80633af9e669146104f85780633b1d21a21461050b5780633d9ea3a1146105135761035b565b806318160ddd1161031857806323b872dd116102f257806323b872dd146104885780632608f8181461049b57806326782247146104ae578063313ce567146104d95761035b565b806318160ddd14610464578063182df0f51461046d57806323323e03146104755761035b565b806306fdde03146103d35780630933c1ed146103f1578063095ea7b3146104045780630e75270214610427578063173b99041461044857806317bfdfbc14610451575b6012546040515f916001600160a01b03169061037a90839036906114b8565b5f60405180830381855af49150503d805f81146103b2576040519150601f19603f3d011682016040523d82523d5f602084013e6103b7565b606091505b505090506040513d5f823e8180156103cd573d82f35b3d82fd5b005b6103db61079c565b6040516103e891906114f5565b60405180910390f35b6103db6103ff3660046115c5565b610828565b61041761041236600461160e565b610847565b60405190151581526020016103e8565b61043a610435366004611638565b6108b8565b6040519081526020016103e8565b61043a60085481565b61043a61045f36600461164f565b61091c565b61043a600d5481565b61043a610968565b61043a61048336600461160e565b6109ba565b61041761049636600461166a565b610a23565b61043a6104a936600461160e565b610a9d565b6004546104c1906001600160a01b031681565b6040516001600160a01b0390911681526020016103e8565b6003546104e69060ff1681565b60405160ff90911681526020016103e8565b61043a61050636600461164f565b610af0565b61043a610b3c565b610417600181565b61043a610529366004611638565b610b72565b6103db61053c3660046115c5565b610bb9565b61043a61054f36600461164f565b610c70565b61043a600b5481565b6103d161056b3660046116b5565b610cbc565b6012546104c1906001600160a01b031681565b6005546104c1906001600160a01b031681565b61043a6105a4366004611638565b610e32565b61043a60095481565b6011546104c1906001600160a01b031681565b61043a6105d336600461164f565b610e79565b61043a610ec5565b61043a6105ee366004611638565b610efb565b61043a600c5481565b6103db610f42565b61043a61061236600461164f565b610f4f565b61043a610625366004611638565b610f9b565b61043a610fe2565b61041761064036600461160e565b611018565b61043a600a5481565b61043a60145481565b61043a61106b565b61043a61066d36600461166a565b6110a1565b6016546104c1906001600160a01b031681565b61043a61069336600461164f565b611112565b61043a61115e565b6106b36106ae36600461164f565b611194565b6040805194855260208501939093529183015260608201526080016103e8565b61043a6106e1366004611638565b611211565b61043a60135481565b61043a6106fd366004611638565b611258565b61043a610710366004611713565b61129f565b6015546104c1906001600160a01b031681565b61043a6112f3565b61043a61073e36600461164f565b611329565b6006546104c1906001600160a01b031681565b61043a61076436600461174a565b611375565b6003546104c19061010090046001600160a01b031681565b61043a6113d0565b61043a610797366004611638565b611406565b600180546107a990611789565b80601f01602080910402602001604051908101604052809291908181526020018280546107d590611789565b80156108205780601f106107f757610100808354040283529160200191610820565b820191905f5260205f20905b81548152906001019060200180831161080357829003601f168201915b505050505081565b601254606090610841906001600160a01b03168361144d565b92915050565b6040516001600160a01b0383166024820152604481018290525f90819061089a9060640160408051601f198184030181529190526020810180516001600160e01b031663095ea7b360e01b179052610828565b9050808060200190518101906108b091906117c1565b949350505050565b5f806108ff836040516024016108d091815260200190565b60408051601f198184030181529190526020810180516001600160e01b031663073a938160e11b179052610828565b90508080602001905181019061091591906117dc565b9392505050565b6040516001600160a01b03821660248201525f9081906108ff9060440160408051601f198184030181529190526020810180516001600160e01b03166305eff7ef60e21b179052610828565b6040805160048152602481019091526020810180516001600160e01b031663182df0f560e01b1790525f90819061099e90610bb9565b9050808060200190518101906109b491906117dc565b91505090565b6040516001600160a01b0383166024820152604481018290525f908190610a0d9060640160408051601f198184030181529190526020810180516001600160e01b03166323323e0360e01b179052610828565b9050808060200190518101906108b091906117dc565b6040516001600160a01b03808516602483015283166044820152606481018290525f908190610a7e9060840160408051601f198184030181529190526020810180516001600160e01b03166323b872dd60e01b179052610828565b905080806020019051810190610a9491906117c1565b95945050505050565b6040516001600160a01b0383166024820152604481018290525f908190610a0d9060640160408051601f198184030181529190526020810180516001600160e01b03166304c11f0360e31b179052610828565b6040516001600160a01b03821660248201525f9081906108ff9060440160408051601f198184030181529190526020810180516001600160e01b0316633af9e66960e01b179052610828565b6040805160048152602481019091526020810180516001600160e01b0316631d8e90d160e11b1790525f90819061099e90610bb9565b5f806108ff83604051602401610b8a91815260200190565b60408051601f198184030181529190526020810180516001600160e01b03166303e9410160e41b179052610828565b60605f80306001600160a01b031684604051602401610bd891906114f5565b60408051601f198184030181529181526020820180516001600160e01b0316630933c1ed60e01b17905251610c0d91906117f3565b5f60405180830381855afa9150503d805f8114610c45576040519150601f19603f3d011682016040523d82523d5f602084013e610c4a565b606091505b50909250905081610c5c573d60208201fd5b808060200190518101906108b09190611809565b6040516001600160a01b03821660248201525f9081906108ff9060440160408051601f198184030181529190526020810180516001600160e01b0316634576b5db60e01b179052610828565b60035461010090046001600160a01b03163314610d455760405162461bcd60e51b815260206004820152603960248201527f56426570323044656c656761746f723a3a5f736574496d706c656d656e74617460448201527f696f6e3a2043616c6c6572206d7573742062652061646d696e00000000000000606482015260840160405180910390fd5b8115610d7f576040805160048152602481019091526020810180516001600160e01b031663153ab50560e01b179052610d7d90610828565b505b601280546001600160a01b038581166001600160a01b0319831617909255604051911690610de490610db59084906024016114f5565b60408051601f198184030181529190526020810180516001600160e01b0316630adccee560e31b179052610828565b50601254604080516001600160a01b03808516825290921660208301527fd604de94d45953f9138079ec1b82d533cb2160c906d1076d1f7ed54befbca97a910160405180910390a150505050565b5f806108ff83604051602401610e4a91815260200190565b60408051601f198184030181529190526020810180516001600160e01b031663601a0bf160e01b179052610828565b6040516001600160a01b03821660248201525f9081906108ff9060440160408051601f198184030181529190526020810180516001600160e01b03166370a0823160e01b179052610bb9565b6040805160048152602481019091526020810180516001600160e01b0316630e759dd360e31b1790525f90819061099e90610828565b5f806108ff83604051602401610f1391815260200190565b60408051601f198184030181529190526020810180516001600160e01b031663852a12e360e01b179052610828565b600280546107a990611789565b6040516001600160a01b03821660248201525f9081906108ff9060440160408051601f198184030181529190526020810180516001600160e01b03166395dd919360e01b179052610bb9565b5f806108ff83604051602401610fb391815260200190565b60408051601f198184030181529190526020810180516001600160e01b031663140e25ad60e31b179052610828565b6040805160048152602481019091526020810180516001600160e01b031663a6afed9560e01b1790525f90819061099e90610828565b6040516001600160a01b0383166024820152604481018290525f90819061089a9060640160408051601f198184030181529190526020810180516001600160e01b031663a9059cbb60e01b179052610828565b6040805160048152602481019091526020810180516001600160e01b0316630ae9d70b60e41b1790525f90819061099e90610bb9565b6040516001600160a01b03808516602483015283166044820152606481018290525f9081906110fc9060840160408051601f198184030181529190526020810180516001600160e01b031663b2a02ff160e01b179052610828565b905080806020019051810190610a9491906117dc565b6040516001600160a01b03821660248201525f9081906108ff9060440160408051601f198184030181529190526020810180516001600160e01b0316632dc7468360e21b179052610828565b6040805160048152602481019091526020810180516001600160e01b031663bd6d894d60e01b1790525f90819061099e90610828565b5f805f805f6111eb866040516024016111bc91906001600160a01b0391909116815260200190565b60408051601f198184030181529190526020810180516001600160e01b03166361bfb47160e11b179052610bb9565b905080806020019051810190611201919061187e565b9450945094509450509193509193565b5f806108ff8360405160240161122991815260200190565b60408051601f198184030181529190526020810180516001600160e01b031663317afabb60e21b179052610828565b5f806108ff8360405160240161127091815260200190565b60408051601f198184030181529190526020810180516001600160e01b031663db006a7560e01b179052610828565b6040516001600160a01b038084166024830152821660448201525f908190610a0d9060640160408051601f198184030181529190526020810180516001600160e01b0316636eb1769f60e11b179052610bb9565b6040805160048152602481019091526020810180516001600160e01b03166374e38a7960e11b1790525f90819061099e90610828565b6040516001600160a01b03821660248201525f9081906108ff9060440160408051601f198184030181529190526020810180516001600160e01b031663f2b3abbd60e01b179052610828565b6040516001600160a01b03808516602483015260448201849052821660648201525f9081906110fc9060840160408051601f198184030181529190526020810180516001600160e01b0316637af1e23160e11b179052610828565b6040805160048152602481019091526020810180516001600160e01b0316631f1f3b4560e31b1790525f90819061099e90610bb9565b5f806108ff8360405160240161141e91815260200190565b60408051601f198184030181529190526020810180516001600160e01b031663fca7820b60e01b179052610828565b60605f80846001600160a01b03168460405161146991906117f3565b5f60405180830381855af49150503d805f81146114a1576040519150601f19603f3d011682016040523d82523d5f602084013e6114a6565b606091505b509092509050816108b0573d60208201fd5b818382375f9101908152919050565b5f81518084528060208401602086015e5f602082860101526020601f19601f83011685010191505092915050565b602081525f61091560208301846114c7565b634e487b7160e01b5f52604160045260245ffd5b604051601f8201601f1916810167ffffffffffffffff8111828210171561154457611544611507565b604052919050565b5f67ffffffffffffffff82111561156557611565611507565b50601f01601f191660200190565b5f82601f830112611582575f80fd5b81356115956115908261154c565b61151b565b8181528460208386010111156115a9575f80fd5b816020850160208301375f918101602001919091529392505050565b5f602082840312156115d5575f80fd5b813567ffffffffffffffff8111156115eb575f80fd5b6108b084828501611573565b6001600160a01b038116811461160b575f80fd5b50565b5f806040838503121561161f575f80fd5b823561162a816115f7565b946020939093013593505050565b5f60208284031215611648575f80fd5b5035919050565b5f6020828403121561165f575f80fd5b8135610915816115f7565b5f805f6060848603121561167c575f80fd5b8335611687816115f7565b92506020840135611697816115f7565b929592945050506040919091013590565b801515811461160b575f80fd5b5f805f606084860312156116c7575f80fd5b83356116d2816115f7565b925060208401356116e2816116a8565b9150604084013567ffffffffffffffff8111156116fd575f80fd5b61170986828701611573565b9150509250925092565b5f8060408385031215611724575f80fd5b823561172f816115f7565b9150602083013561173f816115f7565b809150509250929050565b5f805f6060848603121561175c575f80fd5b8335611767816115f7565b925060208401359150604084013561177e816115f7565b809150509250925092565b600181811c9082168061179d57607f821691505b6020821081036117bb57634e487b7160e01b5f52602260045260245ffd5b50919050565b5f602082840312156117d1575f80fd5b8151610915816116a8565b5f602082840312156117ec575f80fd5b5051919050565b5f82518060208501845e5f920191825250919050565b5f60208284031215611819575f80fd5b815167ffffffffffffffff81111561182f575f80fd5b8201601f8101841361183f575f80fd5b805161184d6115908261154c565b818152856020838501011115611861575f80fd5b8160208401602083015e5f91810160200191909152949350505050565b5f805f8060808587031215611891575f80fd5b50508251602084015160408501516060909501519196909550909250905056fea2646970667358221220d33c51087e00dc3180e65c57a38002ca4353af11b7fe8d05cbb3b4ea4430818764736f6c63430008190033",
  "devdoc": {
    "author": "Venus",
    "kind": "dev",
    "methods": {
      "_acceptAdmin()": {
        "details": "Admin function for pending admin to accept role and update admin",
        "returns": {
          "_0": "uint Returns 0 on success, otherwise returns a failure code (see ErrorReporter.sol for details)."
        }
      },
      "_addReserves(uint256)": {
        "params": {
          "addAmount": "Amount of reserves to add"
        },
        "returns": {
          "_0": "uint Returns 0 on success, otherwise returns a failure code (see ErrorReporter.sol for details)."
        }
      },
      "_reduceReserves(uint256)": {
        "params": {
          "reduceAmount": "Amount of reduction to reserves"
        },
        "returns": {
          "_0": "uint Returns 0 on success, otherwise returns a failure code (see ErrorReporter.sol for details)."
        }
      },
      "_setComptroller(address)": {
        "details": "Admin function to set a new comptroller",
        "returns": {
          "_0": "uint Returns 0 on success, otherwise returns a failure code (see ErrorReporter.sol for details)."
        }
      },
      "_setImplementation(address,bool,bytes)": {
        "params": {
          "allowResign": "Flag to indicate whether to call _resignImplementation on the old implementation",
          "becomeImplementationData": "The encoded bytes data to be passed to _becomeImplementation",
          "implementation_": "The address of the new implementation for delegation"
        }
      },
      "_setInterestRateModel(address)": {
        "details": "Admin function to accrue interest and update the interest rate model",
        "params": {
          "newInterestRateModel": "The new interest rate model to use"
        },
        "returns": {
          "_0": "uint Returns 0 on success, otherwise returns a failure code (see ErrorReporter.sol for details)."
        }
      },
      "_setPendingAdmin(address)": {
        "details": "Admin function to begin change of admin. The newPendingAdmin must call `_acceptAdmin` to finalize the transfer.",
        "params": {
          "newPendingAdmin": "New pending admin."
        },
        "returns": {
          "_0": "uint Returns 0 on success, otherwise returns a failure code (see ErrorReporter.sol for details)."
        }
      },
      "_setReserveFactor(uint256)": {
        "details": "Admin function to accrue interest and set a new reserve factor",
        "returns": {
          "_0": "uint Returns 0 on success, otherwise returns a failure code (see ErrorReporter.sol for details)."
        }
      },
      "accrueInterest()": {
        "details": "This calculates interest accrued from the last checkpointed block      up to the current block and writes new checkpoint to storage."
      },
      "allowance(address,address)": {
        "params": {
          "owner": "The address of the account which owns the tokens to be spent",
          "spender": "The address of the account which may transfer tokens"
        },
        "returns": {
          "_0": "The number of tokens allowed to be spent (type(uint256).max means infinite)"
        }
      },
      "approve(address,uint256)": {
        "details": "This will overwrite the approval amount for `spender`  and is subject to issues noted [here](https://eips.ethereum.org/EIPS/eip-20#approve)",
        "params": {
          "amount": "The number of tokens that are approved (type(uint256).max means infinite)",
          "spender": "The address of the account which may transfer tokens"
        },
        "returns": {
          "_0": "Whether or not the approval succeeded"
        }
      },
      "balanceOf(address)": {
        "params": {
          "owner": "The address of the account to query"
        },
        "returns": {
          "_0": "The number of tokens owned by `owner`"
        }
      },
      "balanceOfUnderlying(address)": {
        "details": "This also accrues interest in a transaction",
        "params": {
          "owner": "The address of the account to query"
        },
        "returns": {
          "_0": "The amount of underlying owned by `owner`"
        }
      },
      "borrow(uint256)": {
        "params": {
          "borrowAmount": "The amount of the underlying asset to borrow"
        },
        "returns": {
          "_0": "uint Returns 0 on success, otherwise returns a failure code (see ErrorReporter.sol for details)."
        }
      },
      "borrowBalanceCurrent(address)": {
        "params": {
          "account": "The address whose balance should be calculated after updating borrowIndex"
        },
        "returns": {
          "_0": "The calculated balance"
        }
      },
      "borrowBalanceStored(address)": {
        "params": {
          "account": "The address whose balance should be calculated"
        },
        "returns": {
          "_0": "The calculated balance"
        }
      },
      "borrowRatePerBlock()": {
        "returns": {
          "_0": "The borrow interest rate per block, scaled by 1e18"
        }
      },
      "constructor": {
        "params": {
          "admin_": "Address of the administrator of this token",
          "becomeImplementationData": "The encoded args for becomeImplementation",
          "comptroller_": "The address of the comptroller",
          "decimals_": "BEP-20 decimal precision of this token",
          "implementation_": "The address of the implementation the contract delegates to",
          "initialExchangeRateMantissa_": "The initial exchange rate, scaled by 1e18",
          "interestRateModel_": "The address of the interest rate model",
          "name_": "BEP-20 name of this token",
          "symbol_": "BEP-20 symbol of this token",
          "underlying_": "The address of the underlying asset"
        }
      },
      "delegateToImplementation(bytes)": {
        "details": "It returns to the external caller whatever the implementation returns or forwards reverts",
        "params": {
          "data": "The raw data to delegatecall"
        },
        "returns": {
          "_0": "The returned bytes from the delegatecall"
        }
      },
      "delegateToViewImplementation(bytes)": {
        "details": "It returns to the external caller whatever the implementation returns or forwards reverts  There are an additional 2 prefix uints from the wrapper returndata, which we ignore since we make an extra hop.",
        "params": {
          "data": "The raw data to delegatecall"
        },
        "returns": {
          "_0": "The returned bytes from the delegatecall"
        }
      },
      "exchangeRateCurrent()": {
        "returns": {
          "_0": "Calculated exchange rate scaled by 1e18"
        }
      },
      "exchangeRateStored()": {
        "details": "This function does not accrue interest before calculating the exchange rate",
        "returns": {
          "_0": "Calculated exchange rate scaled by 1e18"
        }
      },
      "getAccountSnapshot(address)": {
        "details": "This is used by comptroller to more efficiently perform liquidity checks.",
        "params": {
          "account": "Address of the account to snapshot"
        },
        "returns": {
          "_0": "(possible error, token balance, borrow balance, exchange rate mantissa)"
        }
      },
      "getCash()": {
        "returns": {
          "_0": "The quantity of underlying asset owned by this contract"
        }
      },
      "liquidateBorrow(address,uint256,address)": {
        "params": {
          "borrower": "The borrower of this vToken to be liquidated",
          "repayAmount": "The amount of the underlying borrowed asset to repay",
          "vTokenCollateral": "The market in which to seize collateral from the borrower"
        },
        "returns": {
          "_0": "uint Returns 0 on success, otherwise returns a failure code (see ErrorReporter.sol for details)."
        }
      },
      "mint(uint256)": {
        "details": "Accrues interest whether or not the operation succeeds, unless reverted",
        "params": {
          "mintAmount": "The amount of the underlying asset to supply"
        },
        "returns": {
          "_0": "uint Returns 0 on success, otherwise returns a failure code (see ErrorReporter.sol for details)."
        }
      },
      "mintBehalf(address,uint256)": {
        "details": "Accrues interest whether or not the operation succeeds, unless reverted",
        "params": {
          "mintAmount": "The amount of the underlying asset to supply"
        },
        "returns": {
          "_0": "uint Returns 0 on success, otherwise returns a failure code (see ErrorReporter.sol for details)."
        }
      },
      "redeem(uint256)": {
        "details": "Accrues interest whether or not the operation succeeds, unless reverted",
        "params": {
          "redeemTokens": "The number of vTokens to redeem into underlying asset"
        },
        "returns": {
          "_0": "uint Returns 0 on success, otherwise returns a failure code (see ErrorReporter.sol for details)."
        }
      },
      "redeemUnderlying(uint256)": {
        "details": "Accrues interest whether or not the operation succeeds, unless reverted",
        "params": {
          "redeemAmount": "The amount of underlying to redeem"
        },
        "returns": {
          "_0": "uint Returns 0 on success, otherwise returns a failure code (see ErrorReporter.sol for details)."
        }
      },
      "repayBorrow(uint256)": {
        "params": {
          "repayAmount": "The amount to repay"
        },
        "returns": {
          "_0": "uint Returns 0 on success, otherwise returns a failure code (see ErrorReporter.sol for details)."
        }
      },
      "repayBorrowBehalf(address,uint256)": {
        "params": {
          "borrower": "The account with the debt being payed off",
          "repayAmount": "The amount to repay"
        },
        "returns": {
          "_0": "uint Returns 0 on success, otherwise returns a failure code (see ErrorReporter.sol for details)."
        }
      },
      "seize(address,address,uint256)": {
        "details": "Will fail unless called by another vToken during the process of liquidation.  It's absolutely critical to use msg.sender as the borrowed vToken and not a parameter.",
        "params": {
          "borrower": "The account having collateral seized",
          "liquidator": "The account receiving seized collateral",
          "seizeTokens": "The number of vTokens to seize"
        },
        "returns": {
          "_0": "uint Returns 0 on success, otherwise returns a failure code (see ErrorReporter.sol for details)."
        }
      },
      "supplyRatePerBlock()": {
        "returns": {
          "_0": "The supply interest rate per block, scaled by 1e18"
        }
      },
      "totalBorrowsCurrent()": {
        "returns": {
          "_0": "The total borrows with interest"
        }
      },
      "transfer(address,uint256)": {
        "params": {
          "amount": "The number of tokens to transfer",
          "dst": "The address of the destination account"
        },
        "returns": {
          "_0": "Whether or not the transfer succeeded"
        }
      },
      "transferFrom(address,address,uint256)": {
        "params": {
          "amount": "The number of tokens to transfer",
          "dst": "The address of the destination account",
          "src": "The address of the source account"
        },
        "returns": {
          "_0": "Whether or not the transfer succeeded"
        }
      }
    },
    "title": "Venus's VBep20Delegator Contract",
    "version": 1
  },
  "userdoc": {
    "events": {
      "AccrueInterest(uint256,uint256,uint256,uint256)": {
        "notice": "Event emitted when interest is accrued"
      },
      "Approval(address,address,uint256)": {
        "notice": "EIP20 Approval event"
      },
      "Borrow(address,uint256,uint256,uint256)": {
        "notice": "Event emitted when underlying is borrowed"
      },
      "LiquidateBorrow(address,address,uint256,address,uint256)": {
        "notice": "Event emitted when a borrow is liquidated"
      },
      "Mint(address,uint256,uint256,uint256)": {
        "notice": "Event emitted when tokens are minted"
      },
      "MintBehalf(address,address,uint256,uint256,uint256)": {
        "notice": "Event emitted when tokens are minted behalf by payer to receiver"
      },
      "NewAccessControlManager(address,address)": {
        "notice": "Emitted when access control address is changed by admin"
      },
      "NewAdmin(address,address)": {
        "notice": "Event emitted when pendingAdmin is accepted, which means admin has been updated"
      },
      "NewComptroller(address,address)": {
        "notice": "Event emitted when comptroller is changed"
      },
      "NewImplementation(address,address)": {
        "notice": "Emitted when implementation is changed"
      },
      "NewMarketInterestRateModel(address,address)": {
        "notice": "Event emitted when interestRateModel is changed"
      },
      "NewPendingAdmin(address,address)": {
        "notice": "Event emitted when pendingAdmin is changed"
      },
      "NewProtocolShareReserve(address,address)": {
        "notice": "Event emitted when address of ProtocolShareReserve contract get updated"
      },
      "NewReduceReservesBlockDelta(uint256,uint256)": {
        "notice": "Event emitted when block delta for reduce reserves get updated"
      },
      "NewReserveFactor(uint256,uint256)": {
        "notice": "Event emitted when the reserve factor is changed"
      },
      "Redeem(address,uint256,uint256,uint256)": {
        "notice": "Event emitted when tokens are redeemed"
      },
      "RedeemFee(address,uint256,uint256)": {
        "notice": "Event emitted when tokens are redeemed and fee is transferred"
      },
      "RepayBorrow(address,address,uint256,uint256,uint256)": {
        "notice": "Event emitted when a borrow is repaid"
      },
      "ReservesAdded(address,uint256,uint256)": {
        "notice": "Event emitted when the reserves are added"
      },
      "ReservesReduced(address,uint256,uint256)": {
        "notice": "Event emitted when the reserves are reduced"
      },
      "Transfer(address,address,uint256)": {
        "notice": "EIP20 Transfer event"
      }
    },
    "kind": "user",
    "methods": {
      "_acceptAdmin()": {
        "notice": "Accepts transfer of admin rights. `msg.sender` must be pendingAdmin"
      },
      "_addReserves(uint256)": {
        "notice": "Accrues interest and adds reserves by transferring from admin"
      },
      "_reduceReserves(uint256)": {
        "notice": "Accrues interest and reduces reserves by transferring to admin"
      },
      "_setComptroller(address)": {
        "notice": "Sets a new comptroller for the market"
      },
      "_setImplementation(address,bool,bytes)": {
        "notice": "Called by the admin to update the implementation of the delegator"
      },
      "_setInterestRateModel(address)": {
        "notice": "Accrues interest and updates the interest rate model using `_setInterestRateModelFresh`"
      },
      "_setPendingAdmin(address)": {
        "notice": "Begins transfer of admin rights. The newPendingAdmin must call `_acceptAdmin` to finalize the transfer."
      },
      "_setReserveFactor(uint256)": {
        "notice": "Accrues interest and sets a new reserve factor for the protocol using _setReserveFactorFresh"
      },
      "accessControlManager()": {
        "notice": "address of accessControlManager"
      },
      "accrualBlockNumber()": {
        "notice": "Block number that interest was last accrued at"
      },
      "accrueInterest()": {
        "notice": "Applies accrued interest to total borrows and reserves."
      },
      "admin()": {
        "notice": "Administrator for this contract"
      },
      "allowance(address,address)": {
        "notice": "Get the current allowance from `owner` for `spender`"
      },
      "approve(address,uint256)": {
        "notice": "Approve `spender` to transfer up to `amount` from `src`"
      },
      "balanceOf(address)": {
        "notice": "Get the token balance of the `owner`"
      },
      "balanceOfUnderlying(address)": {
        "notice": "Get the underlying balance of the `owner`"
      },
      "borrow(uint256)": {
        "notice": "Sender borrows assets from the protocol to their own address"
      },
      "borrowBalanceCurrent(address)": {
        "notice": "Accrue interest to updated borrowIndex and then calculate account's borrow balance using the updated borrowIndex"
      },
      "borrowBalanceStored(address)": {
        "notice": "Return the borrow balance of account based on stored data"
      },
      "borrowIndex()": {
        "notice": "Accumulator of the total earned interest rate since the opening of the market"
      },
      "borrowRatePerBlock()": {
        "notice": "Returns the current per-block borrow interest rate for this vToken"
      },
      "comptroller()": {
        "notice": "Contract which oversees inter-vToken operations"
      },
      "constructor": {
        "notice": "Construct a new money market"
      },
      "decimals()": {
        "notice": "EIP-20 token decimals for this token"
      },
      "delegateToImplementation(bytes)": {
        "notice": "Delegates execution to the implementation contract"
      },
      "delegateToViewImplementation(bytes)": {
        "notice": "Delegates execution to an implementation contract"
      },
      "exchangeRateCurrent()": {
        "notice": "Accrue interest then return the up-to-date exchange rate"
      },
      "exchangeRateStored()": {
        "notice": "Calculates the exchange rate from the underlying to the VToken"
      },
      "getAccountSnapshot(address)": {
        "notice": "Get a snapshot of the account's balances and the cached exchange rate"
      },
      "getCash()": {
        "notice": "Get cash balance of this vToken in the underlying asset"
      },
      "implementation()": {
        "notice": "Implementation address for this contract"
      },
      "interestRateModel()": {
        "notice": "Model which tells what the current interest rate should be"
      },
      "isVToken()": {
        "notice": "Indicator that this is a vToken contract (for inspection)"
      },
      "liquidateBorrow(address,uint256,address)": {
        "notice": "The sender liquidates the borrowers collateral.  The collateral seized is transferred to the liquidator."
      },
      "mint(uint256)": {
        "notice": "Sender supplies assets into the market and receives vTokens in exchange"
      },
      "mintBehalf(address,uint256)": {
        "notice": "Sender supplies assets into the market and receiver receives vTokens in exchange"
      },
      "name()": {
        "notice": "EIP-20 token name for this token"
      },
      "pendingAdmin()": {
        "notice": "Pending administrator for this contract"
      },
      "protocolShareReserve()": {
        "notice": "address of protocol share reserve contract"
      },
      "redeem(uint256)": {
        "notice": "Sender redeems vTokens in exchange for the underlying asset"
      },
      "redeemUnderlying(uint256)": {
        "notice": "Sender redeems vTokens in exchange for a specified amount of underlying asset"
      },
      "reduceReservesBlockDelta()": {
        "notice": "delta block after which reserves will be reduced"
      },
      "reduceReservesBlockNumber()": {
        "notice": "last block number at which reserves were reduced"
      },
      "repayBorrow(uint256)": {
        "notice": "Sender repays their own borrow"
      },
      "repayBorrowBehalf(address,uint256)": {
        "notice": "Sender repays a borrow belonging to another borrower"
      },
      "reserveFactorMantissa()": {
        "notice": "Fraction of interest currently set aside for reserves"
      },
      "seize(address,address,uint256)": {
        "notice": "Transfers collateral tokens (this market) to the liquidator."
      },
      "supplyRatePerBlock()": {
        "notice": "Returns the current per-block supply interest rate for this vToken"
      },
      "symbol()": {
        "notice": "EIP-20 token symbol for this token"
      },
      "totalBorrows()": {
        "notice": "Total amount of outstanding borrows of the underlying in this market"
      },
      "totalBorrowsCurrent()": {
        "notice": "Returns the current total borrows plus accrued interest"
      },
      "totalReserves()": {
        "notice": "Total amount of reserves of the underlying held in this market"
      },
      "totalSupply()": {
        "notice": "Total number of tokens in circulation"
      },
      "transfer(address,uint256)": {
        "notice": "Transfer `amount` tokens from `msg.sender` to `dst`"
      },
      "transferFrom(address,address,uint256)": {
        "notice": "Transfer `amount` tokens from `src` to `dst`"
      },
      "underlying()": {
        "notice": "Underlying asset for this VToken"
      }
    },
    "notice": "vTokens which wrap an EIP-20 underlying and delegate to an implementation",
    "version": 1
  },
  "storageLayout": {
    "storage": [
      {
        "astId": 54557,
        "contract": "contracts/Tokens/VTokens/VBep20Delegator.sol:VBep20Delegator",
        "label": "_notEntered",
        "offset": 0,
        "slot": "0",
        "type": "t_bool"
      },
      {
        "astId": 54560,
        "contract": "contracts/Tokens/VTokens/VBep20Delegator.sol:VBep20Delegator",
        "label": "name",
        "offset": 0,
        "slot": "1",
        "type": "t_string_storage"
      },
      {
        "astId": 54563,
        "contract": "contracts/Tokens/VTokens/VBep20Delegator.sol:VBep20Delegator",
        "label": "symbol",
        "offset": 0,
        "slot": "2",
        "type": "t_string_storage"
      },
      {
        "astId": 54566,
        "contract": "contracts/Tokens/VTokens/VBep20Delegator.sol:VBep20Delegator",
        "label": "decimals",
        "offset": 0,
        "slot": "3",
        "type": "t_uint8"
      },
      {
        "astId": 54577,
        "contract": "contracts/Tokens/VTokens/VBep20Delegator.sol:VBep20Delegator",
        "label": "admin",
        "offset": 1,
        "slot": "3",
        "type": "t_address_payable"
      },
      {
        "astId": 54580,
        "contract": "contracts/Tokens/VTokens/VBep20Delegator.sol:VBep20Delegator",
        "label": "pendingAdmin",
        "offset": 0,
        "slot": "4",
        "type": "t_address_payable"
      },
      {
        "astId": 54584,
        "contract": "contracts/Tokens/VTokens/VBep20Delegator.sol:VBep20Delegator",
        "label": "comptroller",
        "offset": 0,
        "slot": "5",
        "type": "t_contract(ComptrollerInterface)7197"
      },
      {
        "astId": 54588,
        "contract": "contracts/Tokens/VTokens/VBep20Delegator.sol:VBep20Delegator",
        "label": "interestRateModel",
        "offset": 0,
        "slot": "6",
        "type": "t_contract(InterestRateModelV8)26572"
      },
      {
        "astId": 54591,
        "contract": "contracts/Tokens/VTokens/VBep20Delegator.sol:VBep20Delegator",
        "label": "initialExchangeRateMantissa",
        "offset": 0,
        "slot": "7",
        "type": "t_uint256"
      },
      {
        "astId": 54594,
        "contract": "contracts/Tokens/VTokens/VBep20Delegator.sol:VBep20Delegator",
        "label": "reserveFactorMantissa",
        "offset": 0,
        "slot": "8",
        "type": "t_uint256"
      },
      {
        "astId": 54597,
        "contract": "contracts/Tokens/VTokens/VBep20Delegator.sol:VBep20Delegator",
        "label": "accrualBlockNumber",
        "offset": 0,
        "slot": "9",
        "type": "t_uint256"
      },
      {
        "astId": 54600,
        "contract": "contracts/Tokens/VTokens/VBep20Delegator.sol:VBep20Delegator",
        "label": "borrowIndex",
        "offset": 0,
        "slot": "10",
        "type": "t_uint256"
      },
      {
        "astId": 54603,
        "contract": "contracts/Tokens/VTokens/VBep20Delegator.sol:VBep20Delegator",
        "label": "totalBorrows",
        "offset": 0,
        "slot": "11",
        "type": "t_uint256"
      },
      {
        "astId": 54606,
        "contract": "contracts/Tokens/VTokens/VBep20Delegator.sol:VBep20Delegator",
        "label": "totalReserves",
        "offset": 0,
        "slot": "12",
        "type": "t_uint256"
      },
      {
        "astId": 54609,
        "contract": "contracts/Tokens/VTokens/VBep20Delegator.sol:VBep20Delegator",
        "label": "totalSupply",
        "offset": 0,
        "slot": "13",
        "type": "t_uint256"
      },
      {
        "astId": 54614,
        "contract": "contracts/Tokens/VTokens/VBep20Delegator.sol:VBep20Delegator",
        "label": "accountTokens",
        "offset": 0,
        "slot": "14",
        "type": "t_mapping(t_address,t_uint256)"
      },
      {
        "astId": 54621,
        "contract": "contracts/Tokens/VTokens/VBep20Delegator.sol:VBep20Delegator",
        "label": "transferAllowances",
        "offset": 0,
        "slot": "15",
        "type": "t_mapping(t_address,t_mapping(t_address,t_uint256))"
      },
      {
        "astId": 54627,
        "contract": "contracts/Tokens/VTokens/VBep20Delegator.sol:VBep20Delegator",
        "label": "accountBorrows",
        "offset": 0,
        "slot": "16",
        "type": "t_mapping(t_address,t_struct(BorrowSnapshot)54554_storage)"
      },
      {
        "astId": 54630,
        "contract": "contracts/Tokens/VTokens/VBep20Delegator.sol:VBep20Delegator",
        "label": "underlying",
        "offset": 0,
        "slot": "17",
        "type": "t_address"
      },
      {
        "astId": 54633,
        "contract": "contracts/Tokens/VTokens/VBep20Delegator.sol:VBep20Delegator",
        "label": "implementation",
        "offset": 0,
        "slot": "18",
        "type": "t_address"
      },
      {
        "astId": 54636,
        "contract": "contracts/Tokens/VTokens/VBep20Delegator.sol:VBep20Delegator",
        "label": "reduceReservesBlockDelta",
        "offset": 0,
        "slot": "19",
        "type": "t_uint256"
      },
      {
        "astId": 54639,
        "contract": "contracts/Tokens/VTokens/VBep20Delegator.sol:VBep20Delegator",
        "label": "reduceReservesBlockNumber",
        "offset": 0,
        "slot": "20",
        "type": "t_uint256"
      },
      {
        "astId": 54642,
        "contract": "contracts/Tokens/VTokens/VBep20Delegator.sol:VBep20Delegator",
        "label": "protocolShareReserve",
        "offset": 0,
        "slot": "21",
        "type": "t_address_payable"
      },
      {
        "astId": 54645,
        "contract": "contracts/Tokens/VTokens/VBep20Delegator.sol:VBep20Delegator",
        "label": "accessControlManager",
        "offset": 0,
        "slot": "22",
        "type": "t_address"
      },
      {
        "astId": 54653,
        "contract": "contracts/Tokens/VTokens/VBep20Delegator.sol:VBep20Delegator",
        "label": "__gap",
        "offset": 0,
        "slot": "23",
        "type": "t_array(t_uint256)50_storage"
      }
    ],
    "types": {
      "t_address": {
        "encoding": "inplace",
        "label": "address",
        "numberOfBytes": "20"
      },
      "t_address_payable": {
        "encoding": "inplace",
        "label": "address payable",
        "numberOfBytes": "20"
      },
      "t_array(t_uint256)50_storage": {
        "base": "t_uint256",
        "encoding": "inplace",
        "label": "uint256[50]",
        "numberOfBytes": "1600"
      },
      "t_bool": {
        "encoding": "inplace",
        "label": "bool",
        "numberOfBytes": "1"
      },
      "t_contract(ComptrollerInterface)7197": {
        "encoding": "inplace",
        "label": "contract ComptrollerInterface",
        "numberOfBytes": "20"
      },
      "t_contract(InterestRateModelV8)26572": {
        "encoding": "inplace",
        "label": "contract InterestRateModelV8",
        "numberOfBytes": "20"
      },
      "t_mapping(t_address,t_mapping(t_address,t_uint256))": {
        "encoding": "mapping",
        "key": "t_address",
        "label": "mapping(address => mapping(address => uint256))",
        "numberOfBytes": "32",
        "value": "t_mapping(t_address,t_uint256)"
      },
      "t_mapping(t_address,t_struct(BorrowSnapshot)54554_storage)": {
        "encoding": "mapping",
        "key": "t_address",
        "label": "mapping(address => struct VTokenStorageBase.BorrowSnapshot)",
        "numberOfBytes": "32",
        "value": "t_struct(BorrowSnapshot)54554_storage"
      },
      "t_mapping(t_address,t_uint256)": {
        "encoding": "mapping",
        "key": "t_address",
        "label": "mapping(address => uint256)",
        "numberOfBytes": "32",
        "value": "t_uint256"
      },
      "t_string_storage": {
        "encoding": "bytes",
        "label": "string",
        "numberOfBytes": "32"
      },
      "t_struct(BorrowSnapshot)54554_storage": {
        "encoding": "inplace",
        "label": "struct VTokenStorageBase.BorrowSnapshot",
        "members": [
          {
            "astId": 54551,
            "contract": "contracts/Tokens/VTokens/VBep20Delegator.sol:VBep20Delegator",
            "label": "principal",
            "offset": 0,
            "slot": "0",
            "type": "t_uint256"
          },
          {
            "astId": 54553,
            "contract": "contracts/Tokens/VTokens/VBep20Delegator.sol:VBep20Delegator",
            "label": "interestIndex",
            "offset": 0,
            "slot": "1",
            "type": "t_uint256"
          }
        ],
        "numberOfBytes": "64"
      },
      "t_uint256": {
        "encoding": "inplace",
        "label": "uint256",
        "numberOfBytes": "32"
      },
      "t_uint8": {
        "encoding": "inplace",
        "label": "uint8",
        "numberOfBytes": "1"
      }
    }
  }
}