{
  "address": "0x8386d33b60E9ec73387cBAD9402e88f3b46693B1",
  "abi": [
    {
      "anonymous": false,
      "inputs": [
        {
          "indexed": false,
          "internalType": "uint256",
          "name": "error",
          "type": "uint256"
        },
        {
          "indexed": false,
          "internalType": "uint256",
          "name": "info",
          "type": "uint256"
        },
        {
          "indexed": false,
          "internalType": "uint256",
          "name": "detail",
          "type": "uint256"
        }
      ],
      "name": "Failure",
      "type": "event"
    },
    {
      "constant": true,
      "inputs": [
        {
          "internalType": "address",
          "name": "comptroller",
          "type": "address"
        },
        {
          "internalType": "address",
          "name": "account",
          "type": "address"
        },
        {
          "internalType": "contract VToken",
          "name": "vTokenModify",
          "type": "address"
        },
        {
          "internalType": "uint256",
          "name": "redeemTokens",
          "type": "uint256"
        },
        {
          "internalType": "uint256",
          "name": "borrowAmount",
          "type": "uint256"
        }
      ],
      "name": "getHypotheticalAccountLiquidity",
      "outputs": [
        {
          "internalType": "uint256",
          "name": "",
          "type": "uint256"
        },
        {
          "internalType": "uint256",
          "name": "",
          "type": "uint256"
        },
        {
          "internalType": "uint256",
          "name": "",
          "type": "uint256"
        }
      ],
      "payable": false,
      "stateMutability": "view",
      "type": "function"
    },
    {
      "constant": true,
      "inputs": [
        {
          "internalType": "address",
          "name": "comptroller",
          "type": "address"
        },
        {
          "internalType": "address",
          "name": "vTokenBorrowed",
          "type": "address"
        },
        {
          "internalType": "address",
          "name": "vTokenCollateral",
          "type": "address"
        },
        {
          "internalType": "uint256",
          "name": "actualRepayAmount",
          "type": "uint256"
        }
      ],
      "name": "liquidateCalculateSeizeTokens",
      "outputs": [
        {
          "internalType": "uint256",
          "name": "",
          "type": "uint256"
        },
        {
          "internalType": "uint256",
          "name": "",
          "type": "uint256"
        }
      ],
      "payable": false,
      "stateMutability": "view",
      "type": "function"
    },
    {
      "constant": true,
      "inputs": [
        {
          "internalType": "address",
          "name": "comptroller",
          "type": "address"
        },
        {
          "internalType": "address",
          "name": "vTokenCollateral",
          "type": "address"
        },
        {
          "internalType": "uint256",
          "name": "actualRepayAmount",
          "type": "uint256"
        }
      ],
      "name": "liquidateVAICalculateSeizeTokens",
      "outputs": [
        {
          "internalType": "uint256",
          "name": "",
          "type": "uint256"
        },
        {
          "internalType": "uint256",
          "name": "",
          "type": "uint256"
        }
      ],
      "payable": false,
      "stateMutability": "view",
      "type": "function"
    }
  ],
  "transactionHash": "0xb70bcbf22846662cbdc811dae02bb7f7adbf153aa48ad9141fb2ba93d79ad6fa",
  "args": [],
  "numDeployments": 1,
  "solcInputHash": "e13559df5a195cb00a5fb3bcd0849bd2",
  "bytecode": "0x608060405234801561001057600080fd5b5061136c806100206000396000f3fe608060405234801561001057600080fd5b50600436106100415760003560e01c80630ef332ca1461004657806313d97e2c14610070578063a7032efb14610083575b600080fd5b610059610054366004610f52565b6100a5565b6040516100679291906111fb565b60405180910390f35b61005961007e366004611028565b610422565b610096610091366004610fb3565b610663565b60405161006793929190611216565b6000806000866001600160a01b0316637dc0d1d06040518163ffffffff1660e01b815260040160206040518083038186803b1580156100e357600080fd5b505afa1580156100f7573d6000803e3d6000fd5b505050506040513d601f19601f8201168201806040525061011b91908101906110e4565b6001600160a01b031663fc57d4df876040518263ffffffff1660e01b815260040161014691906111dc565b60206040518083038186803b15801561015e57600080fd5b505afa158015610172573d6000803e3d6000fd5b505050506040513d601f19601f820116820180604052506101969190810190611102565b90506000876001600160a01b0316637dc0d1d06040518163ffffffff1660e01b815260040160206040518083038186803b1580156101d357600080fd5b505afa1580156101e7573d6000803e3d6000fd5b505050506040513d601f19601f8201168201806040525061020b91908101906110e4565b6001600160a01b031663fc57d4df876040518263ffffffff1660e01b815260040161023691906111dc565b60206040518083038186803b15801561024e57600080fd5b505afa158015610262573d6000803e3d6000fd5b505050506040513d601f19601f820116820180604052506102869190810190611102565b9050811580610293575080155b156102a857600d935060009250610419915050565b6000866001600160a01b031663182df0f56040518163ffffffff1660e01b815260040160206040518083038186803b1580156102e357600080fd5b505afa1580156102f7573d6000803e3d6000fd5b505050506040513d601f19601f8201168201806040525061031b9190810190611102565b90506000610327610e14565b61032f610e14565b610337610e14565b6103cb60405180602001604052808f6001600160a01b0316634ada90af6040518163ffffffff1660e01b815260040160206040518083038186803b15801561037e57600080fd5b505afa158015610392573d6000803e3d6000fd5b505050506040513d601f19601f820116820180604052506103b69190810190611102565b90526040805160208101909152898152610bad565b92506103f3604051806020016040528088815250604051806020016040528088815250610bad565b91506103ff8383610bee565b905061040b818b610c2a565b600099509750505050505050505b94509492505050565b6000806000670de0b6b3a764000090506000866001600160a01b0316637dc0d1d06040518163ffffffff1660e01b815260040160206040518083038186803b15801561046d57600080fd5b505afa158015610481573d6000803e3d6000fd5b505050506040513d601f19601f820116820180604052506104a591908101906110e4565b6001600160a01b031663fc57d4df876040518263ffffffff1660e01b81526004016104d091906111dc565b60206040518083038186803b1580156104e857600080fd5b505afa1580156104fc573d6000803e3d6000fd5b505050506040513d601f19601f820116820180604052506105209190810190611102565b90508061053757600d93506000925061065b915050565b6000866001600160a01b031663182df0f56040518163ffffffff1660e01b815260040160206040518083038186803b15801561057257600080fd5b505afa158015610586573d6000803e3d6000fd5b505050506040513d601f19601f820116820180604052506105aa9190810190611102565b905060006105b6610e14565b6105be610e14565b6105c6610e14565b61060d60405180602001604052808e6001600160a01b0316634ada90af6040518163ffffffff1660e01b815260040160206040518083038186803b15801561037e57600080fd5b9250610635604051806020016040528088815250604051806020016040528088815250610bad565b91506106418383610bee565b905061064d818b610c2a565b600099509750505050505050505b935093915050565b6000806000610670610e27565b600060608a6001600160a01b031663abfceffc8b6040518263ffffffff1660e01b81526004016106a091906111ce565b60006040518083038186803b1580156106b857600080fd5b505afa1580156106cc573d6000803e3d6000fd5b505050506040513d6000823e601f3d908101601f191682016040526106f49190810190611075565b805190915060005b81811015610a4d57600083828151811061071257fe5b60200260200101519050806001600160a01b031663c37f68e28e6040518263ffffffff1660e01b815260040161074891906111ce565b60806040518083038186803b15801561076057600080fd5b505afa158015610774573d6000803e3d6000fd5b505050506040513d601f19601f820116820180604052506107989190810190611120565b60808a015260608901526040880152945084156107c657600f985060009750879650610ba295505050505050565b60008e6001600160a01b0316638e8f294b836040518263ffffffff1660e01b81526004016107f491906111ce565b604080518083038186803b15801561080b57600080fd5b505afa15801561081f573d6000803e3d6000fd5b505050506040513d601f19601f8201168201806040525061084391908101906110aa565b9150506040518060200160405280828152508760c00181905250604051806020016040528088608001518152508760e001819052508e6001600160a01b0316637dc0d1d06040518163ffffffff1660e01b815260040160206040518083038186803b1580156108b157600080fd5b505afa1580156108c5573d6000803e3d6000fd5b505050506040513d601f19601f820116820180604052506108e991908101906110e4565b6001600160a01b031663fc57d4df836040518263ffffffff1660e01b815260040161091491906111dc565b60206040518083038186803b15801561092c57600080fd5b505afa158015610940573d6000803e3d6000fd5b505050506040513d601f19601f820116820180604052506109649190810190611102565b60a0880181905261098757600d995060009850889750610ba29650505050505050565b604080516020810190915260a0880151815261010088015260c087015160e08801516109c1916109b691610bad565b886101000151610bad565b6101208801819052604088015188516109db929190610c51565b8752610100870151606088015160208901516109f8929190610c51565b60208801526001600160a01b03828116908e161415610a4357610a258761012001518d8960200151610c51565b60208801819052610100880151610a3d918d90610c51565b60208801525b50506001016106fc565b5060008c6001600160a01b0316639254f5e56040518163ffffffff1660e01b815260040160206040518083038186803b158015610a8957600080fd5b505afa158015610a9d573d6000803e3d6000fd5b505050506040513d601f19601f82011682018060405250610ac191908101906110e4565b90506001600160a01b03811615610b6157610b5b8560200151826001600160a01b03166378c2f9228f6040518263ffffffff1660e01b8152600401610b0691906111ce565b60206040518083038186803b158015610b1e57600080fd5b505afa158015610b32573d6000803e3d6000fd5b505050506040513d601f19601f82011682018060405250610b569190810190611102565b610c84565b60208601525b602085015185511115610b8857505050506020810151905160009450039150829050610ba2565b505082516020909301516000965086955092909203925050505b955095509592505050565b610bb5610e14565b6040518060200160405280670de0b6b3a7640000610bdb86600001518660000151610cba565b81610be257fe5b04905290505b92915050565b610bf6610e14565b6040518060200160405280610c21610c1a8660000151670de0b6b3a7640000610cba565b8551610cfc565b90529392505050565b6000610c34610e14565b610c3e8484610d2f565b9050610c4981610d50565b949350505050565b6000610c5b610e14565b610c658585610d2f565b9050610c79610c7382610d50565b84610c84565b9150505b9392505050565b6000610c7d8383604051806040016040528060118152602001706164646974696f6e206f766572666c6f7760781b815250610d5f565b6000610c7d83836040518060400160405280601781526020017f6d756c7469706c69636174696f6e206f766572666c6f77000000000000000000815250610d98565b6000610c7d83836040518060400160405280600e81526020016d646976696465206279207a65726f60901b815250610de0565b610d37610e14565b6040518060200160405280610c21856000015185610cba565b51670de0b6b3a7640000900490565b60008383018285821015610d8f5760405162461bcd60e51b8152600401610d8691906111ea565b60405180910390fd5b50949350505050565b6000831580610da5575082155b15610db257506000610c7d565b83830283858281610dbf57fe5b04148390610d8f5760405162461bcd60e51b8152600401610d8691906111ea565b60008183610e015760405162461bcd60e51b8152600401610d8691906111ea565b50828481610e0b57fe5b04949350505050565b6040518060200160405280600081525090565b604051806101400160405280600081526020016000815260200160008152602001600081526020016000815260200160008152602001610e65610e14565b8152602001610e72610e14565b8152602001610e7f610e14565b8152602001610e8c610e14565b905290565b8035610be8816112f7565b600082601f830112610ead57600080fd5b8151610ec0610ebb82611265565b61123e565b91508181835260208401935060208101905083856020840282011115610ee557600080fd5b60005b83811015610f115781610efb8882610f26565b8452506020928301929190910190600101610ee8565b5050505092915050565b8051610be88161130e565b8051610be881611317565b8035610be881611317565b8035610be881611320565b8051610be881611320565b60008060008060808587031215610f6857600080fd5b6000610f748787610e91565b9450506020610f8587828801610e91565b9350506040610f9687828801610e91565b9250506060610fa787828801610f3c565b91505092959194509250565b600080600080600060a08688031215610fcb57600080fd5b6000610fd78888610e91565b9550506020610fe888828901610e91565b9450506040610ff988828901610f31565b935050606061100a88828901610f3c565b925050608061101b88828901610f3c565b9150509295509295909350565b60008060006060848603121561103d57600080fd5b60006110498686610e91565b935050602061105a86828701610e91565b925050604061106b86828701610f3c565b9150509250925092565b60006020828403121561108757600080fd5b815167ffffffffffffffff81111561109e57600080fd5b610c4984828501610e9c565b600080604083850312156110bd57600080fd5b60006110c98585610f1b565b92505060206110da85828601610f47565b9150509250929050565b6000602082840312156110f657600080fd5b6000610c498484610f26565b60006020828403121561111457600080fd5b6000610c498484610f47565b6000806000806080858703121561113657600080fd5b60006111428787610f47565b945050602061115387828801610f47565b935050604061116487828801610f47565b9250506060610fa787828801610f47565b61117e81611293565b82525050565b61117e816112a3565b600061119882611286565b6111a2818561128a565b93506111b28185602086016112bd565b6111bb816112ed565b9093019392505050565b61117e816112ba565b60208101610be88284611175565b60208101610be88284611184565b60208082528101610c7d818461118d565b6040810161120982856111c5565b610c7d60208301846111c5565b6060810161122482866111c5565b61123160208301856111c5565b610c4960408301846111c5565b60405181810167ffffffffffffffff8111828210171561125d57600080fd5b604052919050565b600067ffffffffffffffff82111561127c57600080fd5b5060209081020190565b5190565b90815260200190565b6000610be8826112ae565b151590565b6000610be882611293565b6001600160a01b031690565b90565b60005b838110156112d85781810151838201526020016112c0565b838111156112e7576000848401525b50505050565b601f01601f191690565b61130081611293565b811461130b57600080fd5b50565b6113008161129e565b611300816112a3565b611300816112ba56fea365627a7a72315820e226d4f0945398ba838375d5fa73f4134e7a9af6ee119ae37bc5f66e0beb20f36c6578706572696d656e74616cf564736f6c63430005100040",
  "devdoc": {
    "author": "Venus",
    "methods": {
      "getHypotheticalAccountLiquidity(address,address,address,uint256,uint256)": {
        "params": {
          "account": "Address of the borrowed vToken",
          "borrowAmount": "Amount borrowed",
          "comptroller": "Address of comptroller",
          "redeemTokens": "Number of vTokens being redeemed",
          "vTokenModify": "Address of collateral for vToken"
        },
        "return": "Returns a tuple of error code, liquidity, and shortfall"
      },
      "liquidateCalculateSeizeTokens(address,address,address,uint256)": {
        "params": {
          "actualRepayAmount": "Repayment amount i.e amount to be repaid of total borrowed amount",
          "comptroller": "Address of comptroller",
          "vTokenBorrowed": "Address of the borrowed vToken",
          "vTokenCollateral": "Address of collateral for the borrow"
        },
        "return": "A tuple of error code, and tokens to seize"
      },
      "liquidateVAICalculateSeizeTokens(address,address,uint256)": {
        "params": {
          "actualRepayAmount": "Repayment amount i.e amount to be repaid of the total borrowed amount",
          "comptroller": "Address of comptroller",
          "vTokenCollateral": "Address of collateral for vToken"
        },
        "return": "A tuple of error code, and tokens to seize"
      }
    },
    "title": "ComptrollerLens Contract"
  },
  "userdoc": {
    "methods": {
      "getHypotheticalAccountLiquidity(address,address,address,uint256,uint256)": {
        "notice": "Computes the hypothetical liquidity and shortfall of an account given a hypothetical borrow     A snapshot of the account is taken and the total borrow amount of the account is calculated"
      },
      "liquidateCalculateSeizeTokens(address,address,address,uint256)": {
        "notice": "Computes the number of collateral tokens to be seized in a liquidation event"
      },
      "liquidateVAICalculateSeizeTokens(address,address,uint256)": {
        "notice": "Computes the number of VAI tokens to be seized in a liquidation event"
      }
    },
    "notice": "The ComptrollerLens contract has functions to get the number of tokens that can be seized through liquidation, hypothetical account liquidity and shortfall of an account."
  },
  "storageLayout": {
    "storage": [],
    "types": null
  }
}