{
  "address": "0x8AEA11B6b414Ce39F086563CeFA4e154368f9eFb",
  "abi": [
    {
      "inputs": [],
      "name": "AlreadyInSelectedPool",
      "type": "error"
    },
    {
      "inputs": [],
      "name": "ArrayLengthMismatch",
      "type": "error"
    },
    {
      "inputs": [],
      "name": "BorrowNotAllowedInPool",
      "type": "error"
    },
    {
      "inputs": [],
      "name": "CorePoolModificationNotAllowed",
      "type": "error"
    },
    {
      "inputs": [],
      "name": "EmptyPoolLabel",
      "type": "error"
    },
    {
      "inputs": [],
      "name": "IncompatibleBorrowedAssets",
      "type": "error"
    },
    {
      "inputs": [
        {
          "internalType": "enum WeightFunction",
          "name": "strategy",
          "type": "uint8"
        }
      ],
      "name": "InvalidWeightingStrategy",
      "type": "error"
    },
    {
      "inputs": [
        {
          "internalType": "uint256",
          "name": "errorCode",
          "type": "uint256"
        },
        {
          "internalType": "uint256",
          "name": "shortfall",
          "type": "uint256"
        }
      ],
      "name": "LiquidityCheckFailed",
      "type": "error"
    },
    {
      "inputs": [
        {
          "internalType": "uint96",
          "name": "poolId",
          "type": "uint96"
        },
        {
          "internalType": "address",
          "name": "vToken",
          "type": "address"
        }
      ],
      "name": "MarketAlreadyListed",
      "type": "error"
    },
    {
      "inputs": [],
      "name": "MarketConfigNotFound",
      "type": "error"
    },
    {
      "inputs": [],
      "name": "MarketNotListedInCorePool",
      "type": "error"
    },
    {
      "inputs": [
        {
          "internalType": "uint96",
          "name": "poolId",
          "type": "uint96"
        }
      ],
      "name": "PoolDoesNotExist",
      "type": "error"
    },
    {
      "inputs": [
        {
          "internalType": "uint96",
          "name": "poolId",
          "type": "uint96"
        },
        {
          "internalType": "address",
          "name": "vToken",
          "type": "address"
        }
      ],
      "name": "PoolMarketNotFound",
      "type": "error"
    },
    {
      "anonymous": false,
      "inputs": [
        {
          "indexed": false,
          "internalType": "uint256",
          "name": "error",
          "type": "uint256"
        },
        {
          "indexed": false,
          "internalType": "uint256",
          "name": "info",
          "type": "uint256"
        },
        {
          "indexed": false,
          "internalType": "uint256",
          "name": "detail",
          "type": "uint256"
        }
      ],
      "name": "Failure",
      "type": "event"
    },
    {
      "inputs": [
        {
          "internalType": "address",
          "name": "comptroller",
          "type": "address"
        },
        {
          "internalType": "address",
          "name": "account",
          "type": "address"
        },
        {
          "internalType": "contract VToken",
          "name": "vTokenModify",
          "type": "address"
        },
        {
          "internalType": "uint256",
          "name": "redeemTokens",
          "type": "uint256"
        },
        {
          "internalType": "uint256",
          "name": "borrowAmount",
          "type": "uint256"
        },
        {
          "internalType": "enum WeightFunction",
          "name": "weightingStrategy",
          "type": "uint8"
        }
      ],
      "name": "getAccountHealthSnapshot",
      "outputs": [
        {
          "internalType": "uint256",
          "name": "",
          "type": "uint256"
        },
        {
          "components": [
            {
              "internalType": "uint256",
              "name": "totalCollateral",
              "type": "uint256"
            },
            {
              "internalType": "uint256",
              "name": "weightedCollateral",
              "type": "uint256"
            },
            {
              "internalType": "uint256",
              "name": "borrows",
              "type": "uint256"
            },
            {
              "internalType": "uint256",
              "name": "liquidity",
              "type": "uint256"
            },
            {
              "internalType": "uint256",
              "name": "shortfall",
              "type": "uint256"
            },
            {
              "internalType": "uint256",
              "name": "liquidationThresholdAvg",
              "type": "uint256"
            },
            {
              "internalType": "uint256",
              "name": "healthFactor",
              "type": "uint256"
            },
            {
              "internalType": "uint256",
              "name": "dynamicLiquidationIncentiveMantissa",
              "type": "uint256"
            }
          ],
          "internalType": "struct ComptrollerLensInterface.AccountSnapshot",
          "name": "",
          "type": "tuple"
        }
      ],
      "stateMutability": "view",
      "type": "function"
    },
    {
      "inputs": [
        {
          "internalType": "address",
          "name": "comptroller",
          "type": "address"
        },
        {
          "internalType": "address",
          "name": "account",
          "type": "address"
        },
        {
          "internalType": "contract VToken",
          "name": "vTokenModify",
          "type": "address"
        },
        {
          "internalType": "uint256",
          "name": "redeemTokens",
          "type": "uint256"
        },
        {
          "internalType": "uint256",
          "name": "borrowAmount",
          "type": "uint256"
        },
        {
          "internalType": "enum WeightFunction",
          "name": "weightingStrategy",
          "type": "uint8"
        }
      ],
      "name": "getHypotheticalAccountLiquidity",
      "outputs": [
        {
          "internalType": "uint256",
          "name": "",
          "type": "uint256"
        },
        {
          "internalType": "uint256",
          "name": "",
          "type": "uint256"
        },
        {
          "internalType": "uint256",
          "name": "",
          "type": "uint256"
        }
      ],
      "stateMutability": "view",
      "type": "function"
    },
    {
      "inputs": [
        {
          "internalType": "address",
          "name": "comptroller",
          "type": "address"
        },
        {
          "internalType": "address",
          "name": "vTokenBorrowed",
          "type": "address"
        },
        {
          "internalType": "address",
          "name": "vTokenCollateral",
          "type": "address"
        },
        {
          "internalType": "uint256",
          "name": "actualRepayAmount",
          "type": "uint256"
        },
        {
          "internalType": "uint256",
          "name": "liquidationIncentiveMantissa",
          "type": "uint256"
        }
      ],
      "name": "liquidateCalculateSeizeTokens",
      "outputs": [
        {
          "internalType": "uint256",
          "name": "",
          "type": "uint256"
        },
        {
          "internalType": "uint256",
          "name": "",
          "type": "uint256"
        }
      ],
      "stateMutability": "view",
      "type": "function"
    },
    {
      "inputs": [
        {
          "internalType": "address",
          "name": "borrower",
          "type": "address"
        },
        {
          "internalType": "address",
          "name": "comptroller",
          "type": "address"
        },
        {
          "internalType": "address",
          "name": "vTokenBorrowed",
          "type": "address"
        },
        {
          "internalType": "address",
          "name": "vTokenCollateral",
          "type": "address"
        },
        {
          "internalType": "uint256",
          "name": "actualRepayAmount",
          "type": "uint256"
        }
      ],
      "name": "liquidateCalculateSeizeTokens",
      "outputs": [
        {
          "internalType": "uint256",
          "name": "",
          "type": "uint256"
        },
        {
          "internalType": "uint256",
          "name": "",
          "type": "uint256"
        }
      ],
      "stateMutability": "view",
      "type": "function"
    },
    {
      "inputs": [
        {
          "internalType": "address",
          "name": "comptroller",
          "type": "address"
        },
        {
          "internalType": "address",
          "name": "borrower",
          "type": "address"
        },
        {
          "internalType": "address",
          "name": "vTokenCollateral",
          "type": "address"
        },
        {
          "internalType": "uint256",
          "name": "actualRepayAmount",
          "type": "uint256"
        }
      ],
      "name": "liquidateVAICalculateSeizeTokens",
      "outputs": [
        {
          "internalType": "uint256",
          "name": "",
          "type": "uint256"
        },
        {
          "internalType": "uint256",
          "name": "",
          "type": "uint256"
        }
      ],
      "stateMutability": "view",
      "type": "function"
    },
    {
      "inputs": [
        {
          "internalType": "address",
          "name": "comptroller",
          "type": "address"
        },
        {
          "internalType": "address",
          "name": "vTokenCollateral",
          "type": "address"
        },
        {
          "internalType": "uint256",
          "name": "actualRepayAmount",
          "type": "uint256"
        },
        {
          "internalType": "uint256",
          "name": "liquidationIncentiveMantissa",
          "type": "uint256"
        }
      ],
      "name": "liquidateVAICalculateSeizeTokens",
      "outputs": [
        {
          "internalType": "uint256",
          "name": "",
          "type": "uint256"
        },
        {
          "internalType": "uint256",
          "name": "",
          "type": "uint256"
        }
      ],
      "stateMutability": "view",
      "type": "function"
    }
  ],
  "transactionHash": "0xbaeb640a3b321ed722b3788bdcf6522e68c597bcd7033555e63dced8f1b60662",
  "args": [],
  "numDeployments": 2,
  "solcInputHash": "afad615deb23556b23fa1a0101f6bced",
  "bytecode": "0x6080604052348015600e575f80fd5b5061175b8061001c5f395ff3fe608060405234801561000f575f80fd5b5060043610610060575f3560e01c806376bde011146100645780637a313a83146100e957806380bded9b14610111578063a5d5a05014610124578063b709f91814610137578063f7a9183e1461014a575b5f80fd5b610077610072366004611336565b610178565b6040516100e09291905f6101208201905083825282516020830152602083015160408301526040830151606083015260608301516080830152608083015160a083015260a083015160c083015260c083015160e083015260e08301516101008301529392505050565b60405180910390f35b6100fc6100f73660046113a5565b6101a4565b604080519283526020830191909152016100e0565b6100fc61011f3660046113fc565b6103e4565b6100fc61013236600461144a565b6105cf565b6100fc6101453660046114aa565b61087b565b61015d610158366004611336565b6109e6565b604080519384526020840192909252908201526060016100e0565b5f610181611266565b5f806101918a8a8a8a8a8a610a18565b909450925050505b965096945050505050565b5f805f876001600160a01b0316637dc0d1d06040518163ffffffff1660e01b8152600401602060405180830381865afa1580156101e3573d5f803e3d5ffd5b505050506040513d601f19601f8201168201806040525081019061020791906114ed565b60405163fc57d4df60e01b81526001600160a01b038981166004830152919091169063fc57d4df90602401602060405180830381865afa15801561024d573d5f803e3d5ffd5b505050506040513d601f19601f820116820180604052508101906102719190611508565b90505f886001600160a01b0316637dc0d1d06040518163ffffffff1660e01b8152600401602060405180830381865afa1580156102b0573d5f803e3d5ffd5b505050506040513d601f19601f820116820180604052508101906102d491906114ed565b60405163fc57d4df60e01b81526001600160a01b038981166004830152919091169063fc57d4df90602401602060405180830381865afa15801561031a573d5f803e3d5ffd5b505050506040513d601f19601f8201168201806040525081019061033e9190611508565b905081158061034b575080155b1561035f57600d5b5f9350935050506103da565b5f876001600160a01b031663182df0f56040518163ffffffff1660e01b8152600401602060405180830381865afa15801561039c573d5f803e3d5ffd5b505050506040513d601f19601f820116820180604052508101906103c09190611508565b90505f6103d08888868686610ee8565b5f96509450505050505b9550959350505050565b5f805f670de0b6b3a764000090505f876001600160a01b0316637dc0d1d06040518163ffffffff1660e01b8152600401602060405180830381865afa15801561042f573d5f803e3d5ffd5b505050506040513d601f19601f8201168201806040525081019061045391906114ed565b60405163fc57d4df60e01b81526001600160a01b038881166004830152919091169063fc57d4df90602401602060405180830381865afa158015610499573d5f803e3d5ffd5b505050506040513d601f19601f820116820180604052508101906104bd9190611508565b9050805f036104d557600d5b5f9350935050506105c6565b5f866001600160a01b031663182df0f56040518163ffffffff1660e01b8152600401602060405180830381865afa158015610512573d5f803e3d5ffd5b505050506040513d601f19601f820116820180604052508101906105369190611508565b60405163335513c960e21b81526001600160a01b038a8116600483015289811660248301529192505f918b169063cd544f2490604401602060405180830381865afa158015610587573d5f803e3d5ffd5b505050506040513d601f19601f820116820180604052508101906105ab9190611508565b90505f6105bb8883878787610ee8565b5f9750955050505050505b94509492505050565b5f805f866001600160a01b0316637dc0d1d06040518163ffffffff1660e01b8152600401602060405180830381865afa15801561060e573d5f803e3d5ffd5b505050506040513d601f19601f8201168201806040525081019061063291906114ed565b60405163fc57d4df60e01b81526001600160a01b038881166004830152919091169063fc57d4df90602401602060405180830381865afa158015610678573d5f803e3d5ffd5b505050506040513d601f19601f8201168201806040525081019061069c9190611508565b90505f876001600160a01b0316637dc0d1d06040518163ffffffff1660e01b8152600401602060405180830381865afa1580156106db573d5f803e3d5ffd5b505050506040513d601f19601f820116820180604052508101906106ff91906114ed565b60405163fc57d4df60e01b81526001600160a01b038881166004830152919091169063fc57d4df90602401602060405180830381865afa158015610745573d5f803e3d5ffd5b505050506040513d601f19601f820116820180604052508101906107699190611508565b9050811580610776575080155b1561078257600d610353565b5f866001600160a01b031663182df0f56040518163ffffffff1660e01b8152600401602060405180830381865afa1580156107bf573d5f803e3d5ffd5b505050506040513d601f19601f820116820180604052508101906107e39190611508565b60405163335513c960e21b81526001600160a01b038c8116600483015289811660248301529192505f918b169063cd544f2490604401602060405180830381865afa158015610834573d5f803e3d5ffd5b505050506040513d601f19601f820116820180604052508101906108589190611508565b90505f6108688883878787610ee8565b5f9d909c509a5050505050505050505050565b5f805f670de0b6b3a764000090505f876001600160a01b0316637dc0d1d06040518163ffffffff1660e01b8152600401602060405180830381865afa1580156108c6573d5f803e3d5ffd5b505050506040513d601f19601f820116820180604052508101906108ea91906114ed565b60405163fc57d4df60e01b81526001600160a01b038981166004830152919091169063fc57d4df90602401602060405180830381865afa158015610930573d5f803e3d5ffd5b505050506040513d601f19601f820116820180604052508101906109549190611508565b9050805f0361096457600d6104c9565b5f876001600160a01b031663182df0f56040518163ffffffff1660e01b8152600401602060405180830381865afa1580156109a1573d5f803e3d5ffd5b505050506040513d601f19601f820116820180604052508101906109c59190611508565b90505f6109d58888868686610ee8565b5f9b909a5098505050505050505050565b5f805f805f6109f98b8b8b8b8b8b610a18565b6060810151608090910151919d909c50909a5098505050505050505050565b5f610a21611266565b610a296112a3565b604051632aff3bff60e21b81526001600160a01b0389811660048301525f91908b169063abfceffc906024015f60405180830381865afa158015610a6f573d5f803e3d5ffd5b505050506040513d5f823e601f3d908101601f19168201604052610a969190810190611543565b90508051825f0181815250505f8a6001600160a01b0316637dc0d1d06040518163ffffffff1660e01b8152600401602060405180830381865afa158015610adf573d5f803e3d5ffd5b505050506040513d601f19601f82011682018060405250810190610b0391906114ed565b90505f5b8351811015610ddc575f838281518110610b2357610b236115f7565b60209081029190910101516040516361bfb47160e11b81526001600160a01b038e811660048301529192509082169063c37f68e290602401608060405180830381865afa158015610b76573d5f803e3d5ffd5b505050506040513d601f19601f82011682018060405250810190610b9a919061160b565b606089015260408801526020870152610100860181905215610bc85784610100015196505050505050610199565b60405163fc57d4df60e01b81526001600160a01b03828116600483015284169063fc57d4df90602401602060405180830381865afa158015610c0c573d5f803e3d5ffd5b505050506040513d601f19601f82011682018060405250810190610c309190611508565b608086018190525f03610c4b57600d96505050505050610199565b610c796040518060200160405280876060015181525060405180602001604052808860800151815250610f5a565b8560a0018190525060405180602001604052808e6001600160a01b03166319ef3e8b8f858d6040518463ffffffff1660e01b8152600401610cbc9392919061163e565b602060405180830381865afa158015610cd7573d5f803e3d5ffd5b505050506040513d601f19601f82011682018060405250810190610cfb9190611508565b905260c0860181905260a0860151610d139190610f5a565b60e08601526001600160a01b03808c1690821603610d6e578915610d4757898560200151610d419190611694565b60208601525b610d68604051806020016040528087608001518152508a8860400151610fa1565b60408701525b610d848560a001518660200151885f0151610fa1565b865260e085015160208087015190880151610da0929190610fa1565b866020018181525050610dce6040518060200160405280876080015181525086604001518860400151610fa1565b604087015250600101610b07565b505f8b6001600160a01b0316639254f5e56040518163ffffffff1660e01b8152600401602060405180830381865afa158015610e1a573d5f803e3d5ffd5b505050506040513d601f19601f82011682018060405250810190610e3e91906114ed565b90506001600160a01b03811615610ecd576040808601519051633c617c9160e11b81526001600160a01b038d81166004830152610ec79291908416906378c2f92290602401602060405180830381865afa158015610e9e573d5f803e3d5ffd5b505050506040513d601f19601f82011682018060405250810190610ec29190611508565b610fcc565b60408601525b610ed685611001565b5f955050505050965096945050505050565b5f80610f10604051806020016040528088815250604051806020016040528088815250610f5a565b90505f610f39604051806020016040528087815250604051806020016040528087815250610f5a565b9050610f4e610f4883836110a2565b896110da565b98975050505050505050565b60408051602081019091525f81526040518060200160405280670de0b6b3a7640000610f8c865f0151865f01516110f9565b610f9691906116a7565b905290505b92915050565b5f80610fad858561113a565b9050610fc1610fbb82611160565b84610fcc565b9150505b9392505050565b5f610fc58383604051806040016040528060118152602001706164646974696f6e206f766572666c6f7760781b815250611177565b80511561101f576110198160200151825f01516111b9565b60a08201525b6040810151156110455761103b816020015182604001516111b9565b60c082015261104d565b5f1960c08201525b80604001518160200151111561107f57806040015181602001516110719190611694565b60608201525f608082015250565b5f6060820152602081015160408201516110999190611694565b60808201525b50565b60408051602081019091525f81526040518060200160405280610f966110d3865f0151670de0b6b3a76400006110f9565b85516111b9565b5f806110e6848461113a565b90506110f181611160565b949350505050565b5f610fc583836040518060400160405280601781526020017f6d756c7469706c69636174696f6e206f766572666c6f770000000000000000008152506111eb565b60408051602081019091525f81526040518060200160405280610f96855f0151856110f9565b80515f90610f9b90670de0b6b3a7640000906116a7565b5f8061118384866116c6565b905082858210156111b05760405162461bcd60e51b81526004016111a791906116d9565b60405180910390fd5b50949350505050565b5f610fc583836040518060400160405280600e81526020016d646976696465206279207a65726f60901b81525061123b565b5f8315806111f7575082155b1561120357505f610fc5565b5f61120e848661170e565b90508361121b86836116a7565b1483906111b05760405162461bcd60e51b81526004016111a791906116d9565b5f818361125b5760405162461bcd60e51b81526004016111a791906116d9565b506110f183856116a7565b6040518061010001604052805f81526020015f81526020015f81526020015f81526020015f81526020015f81526020015f81526020015f81525090565b6040518061012001604052805f81526020015f81526020015f81526020015f81526020015f81526020016112e260405180602001604052805f81525090565b81526020016112fc60405180602001604052805f81525090565b815260200161131660405180602001604052805f81525090565b81526020015f81525090565b6001600160a01b038116811461109f575f80fd5b5f805f805f8060c0878903121561134b575f80fd5b863561135681611322565b9550602087013561136681611322565b9450604087013561137681611322565b9350606087013592506080870135915060a087013560028110611397575f80fd5b809150509295509295509295565b5f805f805f60a086880312156113b9575f80fd5b85356113c481611322565b945060208601356113d481611322565b935060408601356113e481611322565b94979396509394606081013594506080013592915050565b5f805f806080858703121561140f575f80fd5b843561141a81611322565b9350602085013561142a81611322565b9250604085013561143a81611322565b9396929550929360600135925050565b5f805f805f60a0868803121561145e575f80fd5b853561146981611322565b9450602086013561147981611322565b9350604086013561148981611322565b9250606086013561149981611322565b949793965091946080013592915050565b5f805f80608085870312156114bd575f80fd5b84356114c881611322565b935060208501356114d881611322565b93969395505050506040820135916060013590565b5f602082840312156114fd575f80fd5b8151610fc581611322565b5f60208284031215611518575f80fd5b5051919050565b634e487b7160e01b5f52604160045260245ffd5b805161153e81611322565b919050565b5f6020808385031215611554575f80fd5b825167ffffffffffffffff8082111561156b575f80fd5b818501915085601f83011261157e575f80fd5b8151818111156115905761159061151f565b8060051b604051601f19603f830116810181811085821117156115b5576115b561151f565b6040529182528482019250838101850191888311156115d2575f80fd5b938501935b82851015610f4e576115e885611533565b845293850193928501926115d7565b634e487b7160e01b5f52603260045260245ffd5b5f805f806080858703121561161e575f80fd5b505082516020840151604085015160609095015191969095509092509050565b6001600160a01b03848116825283166020820152606081016002831061167257634e487b7160e01b5f52602160045260245ffd5b826040830152949350505050565b634e487b7160e01b5f52601160045260245ffd5b81810381811115610f9b57610f9b611680565b5f826116c157634e487b7160e01b5f52601260045260245ffd5b500490565b80820180821115610f9b57610f9b611680565b602081525f82518060208401528060208501604085015e5f604082850101526040601f19601f83011684010191505092915050565b8082028115828204841417610f9b57610f9b61168056fea2646970667358221220ba1cff6f45c01831c74a71b2c70f3614eb0ba45245d79b6414a7f19c1b6fce6764736f6c63430008190033",
  "devdoc": {
    "author": "Venus",
    "events": {
      "Failure(uint256,uint256,uint256)": {
        "details": "`error` corresponds to enum Error; `info` corresponds to enum FailureInfo, and `detail` is an arbitrary contract-specific code that enables us to report opaque error codes from upgradeable contracts.*"
      }
    },
    "kind": "dev",
    "methods": {
      "getAccountHealthSnapshot(address,address,address,uint256,uint256,uint8)": {
        "params": {
          "account": "Address of the account to be queried",
          "borrowAmount": "Amount borrowed",
          "comptroller": "Address of comptroller",
          "redeemTokens": "Number of vTokens being redeemed",
          "vTokenModify": "The market to hypothetically redeem/borrow in",
          "weightingStrategy": "The weighting strategy to use:                          - `WeightFunction.USE_COLLATERAL_FACTOR` to use collateral factor                          - `WeightFunction.USE_LIQUIDATION_THRESHOLD` to use liquidation threshold"
        },
        "returns": {
          "_0": "Returns AccountSnapshot struct containing the account's position"
        }
      },
      "getHypotheticalAccountLiquidity(address,address,address,uint256,uint256,uint8)": {
        "params": {
          "account": "Address of the account to be queried",
          "borrowAmount": "Amount borrowed",
          "comptroller": "Address of comptroller",
          "redeemTokens": "Number of vTokens being redeemed",
          "vTokenModify": "The market to hypothetically redeem/borrow in",
          "weightingStrategy": "The weighting strategy to use:                          - `WeightFunction.USE_COLLATERAL_FACTOR` to use collateral factor                          - `WeightFunction.USE_LIQUIDATION_THRESHOLD` to use liquidation threshold"
        },
        "returns": {
          "_0": "Returns a tuple of error code, liquidity, and shortfall"
        }
      },
      "liquidateCalculateSeizeTokens(address,address,address,address,uint256)": {
        "params": {
          "actualRepayAmount": "Repayment amount i.e amount to be repaid of total borrowed amount",
          "borrower": "The address of the borrower to be liquidated",
          "comptroller": "Address of comptroller",
          "vTokenBorrowed": "Address of the borrowed vToken",
          "vTokenCollateral": "Address of collateral for the borrow"
        },
        "returns": {
          "_0": "A tuple of error code, and tokens to seize"
        }
      },
      "liquidateCalculateSeizeTokens(address,address,address,uint256,uint256)": {
        "details": "This will be used only in vBNB",
        "params": {
          "actualRepayAmount": "Repayment amount i.e amount to be repaid of total borrowed amount",
          "comptroller": "Address of comptroller",
          "liquidationIncentiveMantissa": "The liquidation incentive, scaled by 1e18",
          "vTokenBorrowed": "Address of the borrowed vToken",
          "vTokenCollateral": "Address of collateral for the borrow"
        },
        "returns": {
          "_0": "A tuple of error code, and tokens to seize"
        }
      },
      "liquidateVAICalculateSeizeTokens(address,address,address,uint256)": {
        "params": {
          "actualRepayAmount": "Repayment amount i.e amount to be repaid of the total borrowed amount",
          "borrower": "Address of borrower",
          "comptroller": "Address of comptroller",
          "vTokenCollateral": "Address of collateral for vToken"
        },
        "returns": {
          "_0": "A tuple of error code, and tokens to seize"
        }
      },
      "liquidateVAICalculateSeizeTokens(address,address,uint256,uint256)": {
        "params": {
          "actualRepayAmount": "Repayment amount i.e amount to be repaid of the total borrowed amount",
          "comptroller": "Address of comptroller",
          "liquidationIncentiveMantissa": "The liquidation incentive, scaled by 1e18",
          "vTokenCollateral": "Address of collateral for vToken"
        },
        "returns": {
          "_0": "A tuple of error code, and tokens to seize"
        }
      }
    },
    "title": "ComptrollerLens Contract",
    "version": 1
  },
  "userdoc": {
    "errors": {
      "AlreadyInSelectedPool()": [
        {
          "notice": "Thrown when You are already in the selected pool."
        }
      ],
      "ArrayLengthMismatch()": [
        {
          "notice": "Thrown when input array lengths do not match"
        }
      ],
      "BorrowNotAllowedInPool()": [
        {
          "notice": "Thrown when borrowing is not allowed in the selected pool for a given market."
        }
      ],
      "CorePoolModificationNotAllowed()": [
        {
          "notice": "Thrown when trying to modify the core pool (poolId == 0)"
        }
      ],
      "EmptyPoolLabel()": [
        {
          "notice": "Thrown when the pool label is empty"
        }
      ],
      "IncompatibleBorrowedAssets()": [
        {
          "notice": "Thrown when One or more of your assets are not compatible with the selected pool."
        }
      ],
      "InvalidWeightingStrategy(uint8)": [
        {
          "notice": "Thrown when an invalid weighting strategy is provided"
        }
      ],
      "LiquidityCheckFailed(uint256,uint256)": [
        {
          "notice": "Thrown when Switching to this pool would fail the liquidity check or lead to liquidation."
        }
      ],
      "MarketAlreadyListed(uint96,address)": [
        {
          "notice": "Thrown when a vToken is already listed in the specified pool"
        }
      ],
      "MarketConfigNotFound()": [
        {
          "notice": "Thrown when market is not set in the _poolMarkets mapping"
        }
      ],
      "MarketNotListedInCorePool()": [
        {
          "notice": "Thrown when market trying to add in a pool is not listed in the core pool"
        }
      ],
      "PoolDoesNotExist(uint96)": [
        {
          "notice": "Thrown when a given pool ID does not exist"
        }
      ],
      "PoolMarketNotFound(uint96,address)": [
        {
          "notice": "Thrown when trying to remove a market that is not listed in the given pool."
        }
      ]
    },
    "kind": "user",
    "methods": {
      "getAccountHealthSnapshot(address,address,address,uint256,uint256,uint8)": {
        "notice": "Computes the hypothetical health snapshot of an account given a hypothetical borrow      A snapshot of the account is taken and the total borrow amount of the account is calculated"
      },
      "getHypotheticalAccountLiquidity(address,address,address,uint256,uint256,uint8)": {
        "notice": "Computes the hypothetical liquidity and shortfall of an account given a hypothetical borrow      A snapshot of the account is taken and the total borrow amount of the account is calculated"
      },
      "liquidateCalculateSeizeTokens(address,address,address,address,uint256)": {
        "notice": "Computes the number of collateral tokens to be seized in a liquidation event"
      },
      "liquidateCalculateSeizeTokens(address,address,address,uint256,uint256)": {
        "notice": "Computes the number of collateral tokens to be seized in a liquidation event"
      },
      "liquidateVAICalculateSeizeTokens(address,address,address,uint256)": {
        "notice": "Computes the number of VAI tokens to be seized in a liquidation event"
      },
      "liquidateVAICalculateSeizeTokens(address,address,uint256,uint256)": {
        "notice": "Computes the number of VAI tokens to be seized in a liquidation event"
      }
    },
    "notice": "The ComptrollerLens contract has functions to get the number of tokens that can be seized through liquidation, hypothetical account liquidity and shortfall of an account.",
    "version": 1
  },
  "storageLayout": {
    "storage": [],
    "types": null
  }
}