{
  "address": "0xc3c4fc65102409EF0E93660eBDaF9D4dbb2bc52A",
  "abi": [
    {
      "anonymous": false,
      "inputs": [
        {
          "components": [
            {
              "internalType": "address",
              "name": "facetAddress",
              "type": "address"
            },
            {
              "internalType": "enum IDiamondCut.FacetCutAction",
              "name": "action",
              "type": "uint8"
            },
            {
              "internalType": "bytes4[]",
              "name": "functionSelectors",
              "type": "bytes4[]"
            }
          ],
          "indexed": false,
          "internalType": "struct IDiamondCut.FacetCut[]",
          "name": "_diamondCut",
          "type": "tuple[]"
        }
      ],
      "name": "DiamondCut",
      "type": "event"
    },
    {
      "stateMutability": "nonpayable",
      "type": "fallback"
    },
    {
      "inputs": [
        {
          "internalType": "contract Unitroller",
          "name": "unitroller",
          "type": "address"
        }
      ],
      "name": "_become",
      "outputs": [],
      "stateMutability": "nonpayable",
      "type": "function"
    },
    {
      "inputs": [
        {
          "internalType": "address",
          "name": "",
          "type": "address"
        },
        {
          "internalType": "uint256",
          "name": "",
          "type": "uint256"
        }
      ],
      "name": "accountAssets",
      "outputs": [
        {
          "internalType": "contract VToken",
          "name": "",
          "type": "address"
        }
      ],
      "stateMutability": "view",
      "type": "function"
    },
    {
      "inputs": [],
      "name": "admin",
      "outputs": [
        {
          "internalType": "address",
          "name": "",
          "type": "address"
        }
      ],
      "stateMutability": "view",
      "type": "function"
    },
    {
      "inputs": [
        {
          "internalType": "uint256",
          "name": "",
          "type": "uint256"
        }
      ],
      "name": "allMarkets",
      "outputs": [
        {
          "internalType": "contract VToken",
          "name": "",
          "type": "address"
        }
      ],
      "stateMutability": "view",
      "type": "function"
    },
    {
      "inputs": [
        {
          "internalType": "address",
          "name": "",
          "type": "address"
        },
        {
          "internalType": "address",
          "name": "",
          "type": "address"
        }
      ],
      "name": "approvedDelegates",
      "outputs": [
        {
          "internalType": "bool",
          "name": "",
          "type": "bool"
        }
      ],
      "stateMutability": "view",
      "type": "function"
    },
    {
      "inputs": [],
      "name": "borrowCapGuardian",
      "outputs": [
        {
          "internalType": "address",
          "name": "",
          "type": "address"
        }
      ],
      "stateMutability": "view",
      "type": "function"
    },
    {
      "inputs": [
        {
          "internalType": "address",
          "name": "",
          "type": "address"
        }
      ],
      "name": "borrowCaps",
      "outputs": [
        {
          "internalType": "uint256",
          "name": "",
          "type": "uint256"
        }
      ],
      "stateMutability": "view",
      "type": "function"
    },
    {
      "inputs": [],
      "name": "closeFactorMantissa",
      "outputs": [
        {
          "internalType": "uint256",
          "name": "",
          "type": "uint256"
        }
      ],
      "stateMutability": "view",
      "type": "function"
    },
    {
      "inputs": [],
      "name": "comptrollerImplementation",
      "outputs": [
        {
          "internalType": "address",
          "name": "",
          "type": "address"
        }
      ],
      "stateMutability": "view",
      "type": "function"
    },
    {
      "inputs": [],
      "name": "comptrollerLens",
      "outputs": [
        {
          "internalType": "contract ComptrollerLensInterface",
          "name": "",
          "type": "address"
        }
      ],
      "stateMutability": "view",
      "type": "function"
    },
    {
      "inputs": [
        {
          "components": [
            {
              "internalType": "address",
              "name": "facetAddress",
              "type": "address"
            },
            {
              "internalType": "enum IDiamondCut.FacetCutAction",
              "name": "action",
              "type": "uint8"
            },
            {
              "internalType": "bytes4[]",
              "name": "functionSelectors",
              "type": "bytes4[]"
            }
          ],
          "internalType": "struct IDiamondCut.FacetCut[]",
          "name": "diamondCut_",
          "type": "tuple[]"
        }
      ],
      "name": "diamondCut",
      "outputs": [],
      "stateMutability": "nonpayable",
      "type": "function"
    },
    {
      "inputs": [
        {
          "internalType": "bytes4",
          "name": "functionSelector",
          "type": "bytes4"
        }
      ],
      "name": "facetAddress",
      "outputs": [
        {
          "components": [
            {
              "internalType": "address",
              "name": "facetAddress",
              "type": "address"
            },
            {
              "internalType": "uint96",
              "name": "functionSelectorPosition",
              "type": "uint96"
            }
          ],
          "internalType": "struct ComptrollerV13Storage.FacetAddressAndPosition",
          "name": "",
          "type": "tuple"
        }
      ],
      "stateMutability": "view",
      "type": "function"
    },
    {
      "inputs": [],
      "name": "facetAddresses",
      "outputs": [
        {
          "internalType": "address[]",
          "name": "",
          "type": "address[]"
        }
      ],
      "stateMutability": "view",
      "type": "function"
    },
    {
      "inputs": [
        {
          "internalType": "address",
          "name": "facet",
          "type": "address"
        }
      ],
      "name": "facetFunctionSelectors",
      "outputs": [
        {
          "internalType": "bytes4[]",
          "name": "",
          "type": "bytes4[]"
        }
      ],
      "stateMutability": "view",
      "type": "function"
    },
    {
      "inputs": [
        {
          "internalType": "address",
          "name": "facet",
          "type": "address"
        }
      ],
      "name": "facetPosition",
      "outputs": [
        {
          "internalType": "uint256",
          "name": "",
          "type": "uint256"
        }
      ],
      "stateMutability": "view",
      "type": "function"
    },
    {
      "inputs": [],
      "name": "facets",
      "outputs": [
        {
          "components": [
            {
              "internalType": "address",
              "name": "facetAddress",
              "type": "address"
            },
            {
              "internalType": "bytes4[]",
              "name": "functionSelectors",
              "type": "bytes4[]"
            }
          ],
          "internalType": "struct Diamond.Facet[]",
          "name": "",
          "type": "tuple[]"
        }
      ],
      "stateMutability": "view",
      "type": "function"
    },
    {
      "inputs": [
        {
          "internalType": "address",
          "name": "",
          "type": "address"
        }
      ],
      "name": "isForcedLiquidationEnabled",
      "outputs": [
        {
          "internalType": "bool",
          "name": "",
          "type": "bool"
        }
      ],
      "stateMutability": "view",
      "type": "function"
    },
    {
      "inputs": [
        {
          "internalType": "address",
          "name": "user",
          "type": "address"
        },
        {
          "internalType": "address",
          "name": "market",
          "type": "address"
        }
      ],
      "name": "isForcedLiquidationEnabledForUser",
      "outputs": [
        {
          "internalType": "bool",
          "name": "",
          "type": "bool"
        }
      ],
      "stateMutability": "view",
      "type": "function"
    },
    {
      "inputs": [],
      "name": "liquidationIncentiveMantissa",
      "outputs": [
        {
          "internalType": "uint256",
          "name": "",
          "type": "uint256"
        }
      ],
      "stateMutability": "view",
      "type": "function"
    },
    {
      "inputs": [],
      "name": "liquidatorContract",
      "outputs": [
        {
          "internalType": "address",
          "name": "",
          "type": "address"
        }
      ],
      "stateMutability": "view",
      "type": "function"
    },
    {
      "inputs": [
        {
          "internalType": "address",
          "name": "",
          "type": "address"
        }
      ],
      "name": "markets",
      "outputs": [
        {
          "internalType": "bool",
          "name": "isListed",
          "type": "bool"
        },
        {
          "internalType": "uint256",
          "name": "collateralFactorMantissa",
          "type": "uint256"
        },
        {
          "internalType": "bool",
          "name": "isVenus",
          "type": "bool"
        }
      ],
      "stateMutability": "view",
      "type": "function"
    },
    {
      "inputs": [],
      "name": "maxAssets",
      "outputs": [
        {
          "internalType": "uint256",
          "name": "",
          "type": "uint256"
        }
      ],
      "stateMutability": "view",
      "type": "function"
    },
    {
      "inputs": [],
      "name": "minReleaseAmount",
      "outputs": [
        {
          "internalType": "uint256",
          "name": "",
          "type": "uint256"
        }
      ],
      "stateMutability": "view",
      "type": "function"
    },
    {
      "inputs": [],
      "name": "mintVAIGuardianPaused",
      "outputs": [
        {
          "internalType": "bool",
          "name": "",
          "type": "bool"
        }
      ],
      "stateMutability": "view",
      "type": "function"
    },
    {
      "inputs": [
        {
          "internalType": "address",
          "name": "",
          "type": "address"
        }
      ],
      "name": "mintedVAIs",
      "outputs": [
        {
          "internalType": "uint256",
          "name": "",
          "type": "uint256"
        }
      ],
      "stateMutability": "view",
      "type": "function"
    },
    {
      "inputs": [],
      "name": "oracle",
      "outputs": [
        {
          "internalType": "contract ResilientOracleInterface",
          "name": "",
          "type": "address"
        }
      ],
      "stateMutability": "view",
      "type": "function"
    },
    {
      "inputs": [],
      "name": "pauseGuardian",
      "outputs": [
        {
          "internalType": "address",
          "name": "",
          "type": "address"
        }
      ],
      "stateMutability": "view",
      "type": "function"
    },
    {
      "inputs": [],
      "name": "pendingAdmin",
      "outputs": [
        {
          "internalType": "address",
          "name": "",
          "type": "address"
        }
      ],
      "stateMutability": "view",
      "type": "function"
    },
    {
      "inputs": [],
      "name": "pendingComptrollerImplementation",
      "outputs": [
        {
          "internalType": "address",
          "name": "",
          "type": "address"
        }
      ],
      "stateMutability": "view",
      "type": "function"
    },
    {
      "inputs": [],
      "name": "prime",
      "outputs": [
        {
          "internalType": "contract IPrime",
          "name": "",
          "type": "address"
        }
      ],
      "stateMutability": "view",
      "type": "function"
    },
    {
      "inputs": [],
      "name": "protocolPaused",
      "outputs": [
        {
          "internalType": "bool",
          "name": "",
          "type": "bool"
        }
      ],
      "stateMutability": "view",
      "type": "function"
    },
    {
      "inputs": [],
      "name": "releaseStartBlock",
      "outputs": [
        {
          "internalType": "uint256",
          "name": "",
          "type": "uint256"
        }
      ],
      "stateMutability": "view",
      "type": "function"
    },
    {
      "inputs": [],
      "name": "repayVAIGuardianPaused",
      "outputs": [
        {
          "internalType": "bool",
          "name": "",
          "type": "bool"
        }
      ],
      "stateMutability": "view",
      "type": "function"
    },
    {
      "inputs": [
        {
          "internalType": "address",
          "name": "",
          "type": "address"
        }
      ],
      "name": "supplyCaps",
      "outputs": [
        {
          "internalType": "uint256",
          "name": "",
          "type": "uint256"
        }
      ],
      "stateMutability": "view",
      "type": "function"
    },
    {
      "inputs": [],
      "name": "treasuryAddress",
      "outputs": [
        {
          "internalType": "address",
          "name": "",
          "type": "address"
        }
      ],
      "stateMutability": "view",
      "type": "function"
    },
    {
      "inputs": [],
      "name": "treasuryGuardian",
      "outputs": [
        {
          "internalType": "address",
          "name": "",
          "type": "address"
        }
      ],
      "stateMutability": "view",
      "type": "function"
    },
    {
      "inputs": [],
      "name": "treasuryPercent",
      "outputs": [
        {
          "internalType": "uint256",
          "name": "",
          "type": "uint256"
        }
      ],
      "stateMutability": "view",
      "type": "function"
    },
    {
      "inputs": [],
      "name": "vaiController",
      "outputs": [
        {
          "internalType": "contract VAIControllerInterface",
          "name": "",
          "type": "address"
        }
      ],
      "stateMutability": "view",
      "type": "function"
    },
    {
      "inputs": [],
      "name": "vaiMintRate",
      "outputs": [
        {
          "internalType": "uint256",
          "name": "",
          "type": "uint256"
        }
      ],
      "stateMutability": "view",
      "type": "function"
    },
    {
      "inputs": [],
      "name": "vaiVaultAddress",
      "outputs": [
        {
          "internalType": "address",
          "name": "",
          "type": "address"
        }
      ],
      "stateMutability": "view",
      "type": "function"
    },
    {
      "inputs": [
        {
          "internalType": "address",
          "name": "",
          "type": "address"
        }
      ],
      "name": "venusAccrued",
      "outputs": [
        {
          "internalType": "uint256",
          "name": "",
          "type": "uint256"
        }
      ],
      "stateMutability": "view",
      "type": "function"
    },
    {
      "inputs": [
        {
          "internalType": "address",
          "name": "",
          "type": "address"
        }
      ],
      "name": "venusBorrowSpeeds",
      "outputs": [
        {
          "internalType": "uint256",
          "name": "",
          "type": "uint256"
        }
      ],
      "stateMutability": "view",
      "type": "function"
    },
    {
      "inputs": [
        {
          "internalType": "address",
          "name": "",
          "type": "address"
        }
      ],
      "name": "venusBorrowState",
      "outputs": [
        {
          "internalType": "uint224",
          "name": "index",
          "type": "uint224"
        },
        {
          "internalType": "uint32",
          "name": "block",
          "type": "uint32"
        }
      ],
      "stateMutability": "view",
      "type": "function"
    },
    {
      "inputs": [
        {
          "internalType": "address",
          "name": "",
          "type": "address"
        },
        {
          "internalType": "address",
          "name": "",
          "type": "address"
        }
      ],
      "name": "venusBorrowerIndex",
      "outputs": [
        {
          "internalType": "uint256",
          "name": "",
          "type": "uint256"
        }
      ],
      "stateMutability": "view",
      "type": "function"
    },
    {
      "inputs": [
        {
          "internalType": "address",
          "name": "",
          "type": "address"
        },
        {
          "internalType": "address",
          "name": "",
          "type": "address"
        }
      ],
      "name": "venusSupplierIndex",
      "outputs": [
        {
          "internalType": "uint256",
          "name": "",
          "type": "uint256"
        }
      ],
      "stateMutability": "view",
      "type": "function"
    },
    {
      "inputs": [
        {
          "internalType": "address",
          "name": "",
          "type": "address"
        }
      ],
      "name": "venusSupplySpeeds",
      "outputs": [
        {
          "internalType": "uint256",
          "name": "",
          "type": "uint256"
        }
      ],
      "stateMutability": "view",
      "type": "function"
    },
    {
      "inputs": [
        {
          "internalType": "address",
          "name": "",
          "type": "address"
        }
      ],
      "name": "venusSupplyState",
      "outputs": [
        {
          "internalType": "uint224",
          "name": "index",
          "type": "uint224"
        },
        {
          "internalType": "uint32",
          "name": "block",
          "type": "uint32"
        }
      ],
      "stateMutability": "view",
      "type": "function"
    },
    {
      "inputs": [],
      "name": "venusVAIVaultRate",
      "outputs": [
        {
          "internalType": "uint256",
          "name": "",
          "type": "uint256"
        }
      ],
      "stateMutability": "view",
      "type": "function"
    }
  ],
  "transactionHash": "0xc7bd9609e7d04adaed1550bf593ab12d1dd3d22227198822fda4d15c30b47ca4",
  "args": [],
  "numDeployments": 1,
  "solcInputHash": "ba77843cff9e1425bead54101e438cee",
  "bytecode": "0x6080604052348015600e575f80fd5b50611e328061001c5f395ff3fe608060405234801561000f575f80fd5b506004361061029e575f3560e01c80638c1ac18a11610165578063c5f956af116100cc578063e37d4b7911610085578063e37d4b791461081a578063e57e69c614610851578063e875544614610864578063f445d7031461086d578063f851a4401461089a578063fa6331d8146108ac5761029e565b8063c5f956af14610725578063c7ee005e14610738578063cdffacc61461074b578063d3270f99146107e1578063dce15449146107f4578063dcfbc0c7146108075761029e565b8063adfca15e1161011e578063adfca15e1461065c578063b2eafc391461067c578063b8324c7c1461068f578063bb82aa5e146106ea578063bbb8864a146106fd578063bec04f721461071c5761029e565b80638c1ac18a1461058e5780638e8f294b146105b05780638f738f36146106025780639254f5e51461062d57806394b2294b146106405780639bb27d62146106495761029e565b8063425fad5811610209578063719f701b116101c2578063719f701b1461051957806376551383146105225780637a0ed627146105345780637d172bd5146105495780637dc0d1d01461055c5780638a7dc1651461056f5761029e565b8063425fad58146104975780634a584432146104aa5780634ada90af146104c957806352d84d1e146104d257806352ef6b2c146104e55780635dd3fc9d146104fa5761029e565b806321af45691161025b57806321af4569146103f057806324a3d6221461041b578063267822471461042e5780632bc7e29e146104415780634088c73e1461046057806341a18d2c1461046d5761029e565b806302c3bcbb1461033257806304ef9d581461036457806308e0225c1461036d5780630db4b4e51461039757806310b98338146103a05780631d504dc6146103dd575b5f80356001600160e01b0319168152602e60205260409020546001600160a01b0316806103125760405162461bcd60e51b815260206004820181905260248201527f4469616d6f6e643a2046756e6374696f6e20646f6573206e6f7420657869737460448201526064015b60405180910390fd5b365f80375f80365f845af43d5f803e80801561032c573d5ff35b3d5ffd5b005b6103516103403660046117f2565b60276020525f908152604090205481565b6040519081526020015b60405180910390f35b61035160225481565b61035161037b366004611814565b601360209081525f928352604080842090915290825290205481565b610351601d5481565b6103cd6103ae366004611814565b602c60209081525f928352604080842090915290825290205460ff1681565b604051901515815260200161035b565b6103306103eb3660046117f2565b6108b5565b601e54610403906001600160a01b031681565b6040516001600160a01b03909116815260200161035b565b600a54610403906001600160a01b031681565b600154610403906001600160a01b031681565b61035161044f3660046117f2565b60166020525f908152604090205481565b6018546103cd9060ff1681565b61035161047b366004611814565b601260209081525f928352604080842090915290825290205481565b6018546103cd9062010000900460ff1681565b6103516104b83660046117f2565b601f6020525f908152604090205481565b61035160065481565b6104036104e036600461184b565b610a13565b6104ed610a3b565b60405161035b9190611862565b6103516105083660046117f2565b602b6020525f908152604090205481565b610351601c5481565b6018546103cd90610100900460ff1681565b61053c610a9b565b60405161035b91906118f2565b601b54610403906001600160a01b031681565b600454610403906001600160a01b031681565b61035161057d3660046117f2565b60146020525f908152604090205481565b6103cd61059c3660046117f2565b602d6020525f908152604090205460ff1681565b6105e36105be3660046117f2565b60096020525f908152604090208054600182015460039092015460ff91821692911683565b604080519315158452602084019290925215159082015260600161035b565b6103516106103660046117f2565b6001600160a01b03165f908152602f602052604090206001015490565b601554610403906001600160a01b031681565b61035160075481565b602554610403906001600160a01b031681565b61066f61066a3660046117f2565b610c1f565b60405161035b919061196f565b602054610403906001600160a01b031681565b6106c661069d3660046117f2565b60106020525f90815260409020546001600160e01b03811690600160e01b900463ffffffff1682565b604080516001600160e01b03909316835263ffffffff90911660208301520161035b565b600254610403906001600160a01b031681565b61035161070b3660046117f2565b602a6020525f908152604090205481565b61035160175481565b602154610403906001600160a01b031681565b603154610403906001600160a01b031681565b6107b461075936600461199d565b604080518082019091525f8082526020820152506001600160e01b0319165f908152602e60209081526040918290208251808401909352546001600160a01b0381168352600160a01b90046001600160601b03169082015290565b6040805182516001600160a01b031681526020928301516001600160601b0316928101929092520161035b565b602654610403906001600160a01b031681565b6104036108023660046119b6565b610cb4565b600354610403906001600160a01b031681565b6106c66108283660046117f2565b60116020525f90815260409020546001600160e01b03811690600160e01b900463ffffffff1682565b61033061085f366004611a71565b610ce8565b61035160055481565b6103cd61087b366004611814565b603260209081525f928352604080842090915290825290205460ff1681565b5f54610403906001600160a01b031681565b610351601a5481565b806001600160a01b031663f851a4406040518163ffffffff1660e01b8152600401602060405180830381865afa1580156108f1573d5f803e3d5ffd5b505050506040513d601f19601f820116820180604052508101906109159190611bd7565b6001600160a01b0316336001600160a01b0316146109715760405162461bcd60e51b815260206004820152601960248201527837b7363c903ab734ba3937b63632b91030b236b4b71031b0b760391b6044820152606401610309565b806001600160a01b031663c1e803346040518163ffffffff1660e01b81526004016020604051808303815f875af11580156109ae573d5f803e3d5ffd5b505050506040513d601f19601f820116820180604052508101906109d29190611bf2565b15610a105760405162461bcd60e51b815260206004820152600e60248201526d1b9bdd08185d5d1a1bdc9a5e995960921b6044820152606401610309565b50565b600d8181548110610a22575f80fd5b5f918252602090912001546001600160a01b0316905081565b60606030805480602002602001604051908101604052809291908181526020018280548015610a9157602002820191905f5260205f20905b81546001600160a01b03168152600190910190602001808311610a73575b5050505050905090565b6030546060905f8167ffffffffffffffff811115610abb57610abb6119e0565b604051908082528060200260200182016040528015610b0057816020015b604080518082019091525f815260606020820152815260200190600190039081610ad95790505b5090505f5b82811015610c18575f60308281548110610b2157610b21611c09565b905f5260205f20015f9054906101000a90046001600160a01b0316905080838381518110610b5157610b51611c09565b6020908102919091018101516001600160a01b0392831690529082165f908152602f825260409081902080548251818502810185019093528083529192909190830182828015610bea57602002820191905f5260205f20905f905b82829054906101000a900460e01b6001600160e01b03191681526020019060040190602082600301049283019260010382029150808411610bac5790505b5050505050838381518110610c0157610c01611c09565b602090810291909101810151015250600101610b05565b5092915050565b6001600160a01b0381165f908152602f6020908152604091829020805483518184028101840190945280845260609392830182828015610ca857602002820191905f5260205f20905f905b82829054906101000a900460e01b6001600160e01b03191681526020019060040190602082600301049283019260010382029150808411610c6a5790505b50505050509050919050565b6008602052815f5260405f208181548110610ccd575f80fd5b5f918252602090912001546001600160a01b03169150829050565b5f546001600160a01b03163314610d3d5760405162461bcd60e51b815260206004820152601960248201527837b7363c903ab734ba3937b63632b91030b236b4b71031b0b760391b6044820152606401610309565b610a108180515f5b81811015610ef8575f838281518110610d6057610d60611c09565b60200260200101516020015190505f6002811115610d8057610d80611c1d565b816002811115610d9257610d92611c1d565b03610ddf57610dda848381518110610dac57610dac611c09565b60200260200101515f0151858481518110610dc957610dc9611c09565b602002602001015160400151610f34565b610eef565b6001816002811115610df357610df3611c1d565b03610e3b57610dda848381518110610e0d57610e0d611c09565b60200260200101515f0151858481518110610e2a57610e2a611c09565b602002602001015160400151611093565b6002816002811115610e4f57610e4f611c1d565b03610e9757610dda848381518110610e6957610e69611c09565b60200260200101515f0151858481518110610e8657610e86611c09565b602002602001015160400151611202565b60405162461bcd60e51b815260206004820152602760248201527f4c69624469616d6f6e644375743a20496e636f727265637420466163657443756044820152663a20b1ba34b7b760c91b6064820152608401610309565b50600101610d45565b507f2e97860c6f47eab0292d51fa3ceec7e373c62af1e7eb2a28ae82998b80de6cfd82604051610f289190611c31565b60405180910390a15050565b80515f03610f545760405162461bcd60e51b815260040161030990611cca565b6001600160a01b038216610f7a5760405162461bcd60e51b815260040161030990611d15565b6001600160a01b0382165f908152602f6020526040812054906001600160601b0382169003610fac57610fac83611303565b81515f5b8181101561108c575f848281518110610fcb57610fcb611c09565b6020908102919091018101516001600160e01b031981165f908152602e9092526040909120549091506001600160a01b031680156110695760405162461bcd60e51b815260206004820152603560248201527f4c69624469616d6f6e644375743a2043616e2774206164642066756e6374696f6044820152746e207468617420616c72656164792065786973747360581b6064820152608401610309565b6110748286896113a5565b61107d85611d75565b94505050806001019050610fb0565b5050505050565b80515f036110b35760405162461bcd60e51b815260040161030990611cca565b6001600160a01b0382166110d95760405162461bcd60e51b815260040161030990611d15565b6001600160a01b0382165f908152602f6020526040812054906001600160601b038216900361110b5761110b83611303565b81515f5b8181101561108c575f84828151811061112a5761112a611c09565b6020908102919091018101516001600160e01b031981165f908152602e9092526040909120549091506001600160a01b0390811690871681036111d55760405162461bcd60e51b815260206004820152603860248201527f4c69624469616d6f6e644375743a2043616e2774207265706c6163652066756e60448201527f6374696f6e20776974682073616d652066756e6374696f6e00000000000000006064820152608401610309565b6111df8183611443565b6111ea8286896113a5565b6111f385611d75565b9450505080600101905061110f565b80515f8190036112245760405162461bcd60e51b815260040161030990611cca565b6001600160a01b0383161561129a5760405162461bcd60e51b815260206004820152603660248201527f4c69624469616d6f6e644375743a2052656d6f76652066616365742061646472604482015275657373206d757374206265206164647265737328302960501b6064820152608401610309565b5f5b818110156112fd575f8382815181106112b7576112b7611c09565b6020908102919091018101516001600160e01b031981165f908152602e9092526040909120549091506001600160a01b03166112f38183611443565b505060010161129c565b50505050565b611342816040518060400160405280601e81526020017f4469616d6f6e643a204e657720666163657420686173206e6f20636f64650000815250611788565b603080546001600160a01b039092165f818152602f60205260408120600190810185905584018355919091527f6ff97a59c90d62cc7236ba3a37cd85351bf564556780cf8c1157a220f31f0cbb90910180546001600160a01b0319169091179055565b6001600160e01b031983165f818152602e6020818152604080842080546001600160601b03909816600160a01b026001600160a01b0398891617815595909616808452602f825295832080546001810182559084528184206008820401805460e09990991c60046007909316929092026101000a91820263ffffffff909202199098161790965591905290925281546001600160a01b031916179055565b6001600160a01b0382166114bf5760405162461bcd60e51b815260206004820152603760248201527f4c69624469616d6f6e644375743a2043616e27742072656d6f76652066756e6360448201527f74696f6e207468617420646f65736e27742065786973740000000000000000006064820152608401610309565b6001600160e01b031981165f908152602e60209081526040808320546001600160a01b0386168452602f909252822054600160a01b9091046001600160601b0316919061150e90600190611d9a565b90508082146115fa576001600160a01b0384165f908152602f6020526040812080548390811061154057611540611c09565b5f91825260208083206008830401546001600160a01b0389168452602f9091526040909220805460079092166004026101000a90920460e01b92508291908590811061158e5761158e611c09565b5f91825260208083206008830401805463ffffffff60079094166004026101000a938402191660e09590951c929092029390931790556001600160e01b0319929092168252602e90526040902080546001600160a01b0316600160a01b6001600160601b038516021790555b6001600160a01b0384165f908152602f6020526040902080548061162057611620611db3565b5f828152602080822060085f1990940193840401805463ffffffff600460078716026101000a0219169055919092556001600160e01b031985168252602e9052604081208190558190036112fd576030545f9061167f90600190611d9a565b6001600160a01b0386165f908152602f6020526040902060010154909150808214611723575f603083815481106116b8576116b8611c09565b5f91825260209091200154603080546001600160a01b0390921692508291849081106116e6576116e6611c09565b5f91825260208083209190910180546001600160a01b0319166001600160a01b03948516179055929091168152602f909152604090206001018190555b603080548061173457611734611db3565b5f828152602080822083015f1990810180546001600160a01b03191690559092019092556001600160a01b0388168252602f9052604081209061177782826117a9565b600182015f90555050505050505050565b813b81816112fd5760405162461bcd60e51b81526004016103099190611dc7565b5080545f825560070160089004905f5260205f2090810190610a1091905b808211156117da575f81556001016117c7565b5090565b6001600160a01b0381168114610a10575f80fd5b5f60208284031215611802575f80fd5b813561180d816117de565b9392505050565b5f8060408385031215611825575f80fd5b8235611830816117de565b91506020830135611840816117de565b809150509250929050565b5f6020828403121561185b575f80fd5b5035919050565b602080825282518282018190525f9190848201906040850190845b818110156118a25783516001600160a01b03168352928401929184019160010161187d565b50909695505050505050565b5f815180845260208085019450602084015f5b838110156118e75781516001600160e01b031916875295820195908201906001016118c1565b509495945050505050565b5f60208083018184528085518083526040925060408601915060408160051b8701018488015f5b8381101561196157888303603f19018552815180516001600160a01b0316845287015187840187905261194e878501826118ae565b9588019593505090860190600101611919565b509098975050505050505050565b602081525f61180d60208301846118ae565b80356001600160e01b031981168114611998575f80fd5b919050565b5f602082840312156119ad575f80fd5b61180d82611981565b5f80604083850312156119c7575f80fd5b82356119d2816117de565b946020939093013593505050565b634e487b7160e01b5f52604160045260245ffd5b6040516060810167ffffffffffffffff81118282101715611a1757611a176119e0565b60405290565b604051601f8201601f1916810167ffffffffffffffff81118282101715611a4657611a466119e0565b604052919050565b5f67ffffffffffffffff821115611a6757611a676119e0565b5060051b60200190565b5f6020808385031215611a82575f80fd5b823567ffffffffffffffff80821115611a99575f80fd5b818501915085601f830112611aac575f80fd5b8135611abf611aba82611a4e565b611a1d565b81815260059190911b83018401908481019088831115611add575f80fd5b8585015b83811015611bca57803585811115611af7575f80fd5b86016060818c03601f1901811315611b0d575f80fd5b611b156119f4565b89830135611b22816117de565b815260408381013560038110611b36575f80fd5b828c0152918301359188831115611b4b575f80fd5b82840193508d603f850112611b5e575f80fd5b8a8401359250611b70611aba84611a4e565b83815260059390931b84018101928b8101908f851115611b8e575f80fd5b948201945b84861015611bb357611ba486611981565b8252948c0194908c0190611b93565b918301919091525085525050918601918601611ae1565b5098975050505050505050565b5f60208284031215611be7575f80fd5b815161180d816117de565b5f60208284031215611c02575f80fd5b5051919050565b634e487b7160e01b5f52603260045260245ffd5b634e487b7160e01b5f52602160045260245ffd5b5f60208083018184528085518083526040925060408601915060408160051b8701018488015f5b8381101561196157888303603f19018552815180516001600160a01b031684528781015160609060038110611c9b57634e487b7160e01b5f52602160045260245ffd5b858a01529087015187850182905290611cb6818601836118ae565b968901969450505090860190600101611c58565b6020808252602b908201527f4c69624469616d6f6e644375743a204e6f2073656c6563746f727320696e206660408201526a1858d95d081d1bc818dd5d60aa1b606082015260800190565b6020808252602c908201527f4c69624469616d6f6e644375743a204164642066616365742063616e2774206260408201526b65206164647265737328302960a01b606082015260800190565b634e487b7160e01b5f52601160045260245ffd5b5f6001600160601b03808316818103611d9057611d90611d61565b6001019392505050565b81810381811115611dad57611dad611d61565b92915050565b634e487b7160e01b5f52603160045260245ffd5b602081525f82518060208401528060208501604085015e5f604082850101526040601f19601f8301168401019150509291505056fea2646970667358221220aeded80bf10a62498505bbb8dd97f7fcea58ecadd23af414822a859e92cf886d64736f6c63430008190033",
  "devdoc": {
    "author": "Venus",
    "kind": "dev",
    "methods": {
      "_become(address)": {
        "params": {
          "unitroller": "Address of the unitroller"
        }
      },
      "diamondCut((address,uint8,bytes4[])[])": {
        "details": "Allows the contract admin to add function selectors",
        "params": {
          "diamondCut_": "IDiamondCut contains facets address, action and function selectors"
        }
      },
      "facetAddress(bytes4)": {
        "params": {
          "functionSelector": "function selector"
        },
        "returns": {
          "_0": "FacetAddressAndPosition facet address and position"
        }
      },
      "facetAddresses()": {
        "returns": {
          "_0": "facetAddresses Array of facet addresses"
        }
      },
      "facetFunctionSelectors(address)": {
        "params": {
          "facet": "Address of the facet"
        },
        "returns": {
          "_0": "selectors Array of function selectors"
        }
      },
      "facetPosition(address)": {
        "params": {
          "facet": "Address of the facet"
        },
        "returns": {
          "_0": "Position of the facet"
        }
      },
      "facets()": {
        "returns": {
          "_0": "facets_ Array of Facet"
        }
      }
    },
    "title": "Diamond",
    "version": 1
  },
  "userdoc": {
    "events": {
      "DiamondCut((address,uint8,bytes4[])[])": {
        "notice": "Emitted when functions are added, replaced or removed to facets"
      }
    },
    "kind": "user",
    "methods": {
      "_become(address)": {
        "notice": "Call _acceptImplementation to accept the diamond proxy as new implementaion"
      },
      "accountAssets(address,uint256)": {
        "notice": "Per-account mapping of \"assets you are in\", capped by maxAssets"
      },
      "admin()": {
        "notice": "Administrator for this contract"
      },
      "allMarkets(uint256)": {
        "notice": "A list of all markets"
      },
      "approvedDelegates(address,address)": {
        "notice": "Whether the delegate is allowed to borrow or redeem on behalf of the user"
      },
      "borrowCapGuardian()": {
        "notice": "The borrowCapGuardian can set borrowCaps to any number for any market. Lowering the borrow cap could disable borrowing on the given market."
      },
      "borrowCaps(address)": {
        "notice": "Borrow caps enforced by borrowAllowed for each vToken address."
      },
      "closeFactorMantissa()": {
        "notice": "Multiplier used to calculate the maximum repayAmount when liquidating a borrow"
      },
      "comptrollerImplementation()": {
        "notice": "Active brains of Unitroller"
      },
      "diamondCut((address,uint8,bytes4[])[])": {
        "notice": "To add function selectors to the facet's mapping"
      },
      "facetAddress(bytes4)": {
        "notice": "Get facet address and position through function selector"
      },
      "facetAddresses()": {
        "notice": "Get all facet addresses"
      },
      "facetFunctionSelectors(address)": {
        "notice": "Get all function selectors mapped to the facet address"
      },
      "facetPosition(address)": {
        "notice": "Get facet position in the _facetFunctionSelectors through facet address"
      },
      "facets()": {
        "notice": "Get all facets address and their function selector"
      },
      "isForcedLiquidationEnabled(address)": {
        "notice": "Whether forced liquidation is enabled for all users borrowing in a certain market"
      },
      "isForcedLiquidationEnabledForUser(address,address)": {
        "notice": "Whether forced liquidation is enabled for the borrows of a user in a market"
      },
      "liquidationIncentiveMantissa()": {
        "notice": "Multiplier representing the discount on collateral that a liquidator receives"
      },
      "markets(address)": {
        "notice": "Official mapping of vTokens -> Market metadata"
      },
      "maxAssets()": {
        "notice": "Max number of assets a single account can participate in (borrow or use as collateral)"
      },
      "mintVAIGuardianPaused()": {
        "notice": "The Pause Guardian can pause certain actions as a safety mechanism."
      },
      "mintedVAIs(address)": {
        "notice": "The minted VAI amount to each user"
      },
      "oracle()": {
        "notice": "Oracle which gives the price of any given asset"
      },
      "pauseGuardian()": {
        "notice": "The Pause Guardian can pause certain actions as a safety mechanism."
      },
      "pendingAdmin()": {
        "notice": "Pending administrator for this contract"
      },
      "pendingComptrollerImplementation()": {
        "notice": "Pending brains of Unitroller"
      },
      "prime()": {
        "notice": "Prime token address"
      },
      "protocolPaused()": {
        "notice": "Pause/Unpause whole protocol actions"
      },
      "supplyCaps(address)": {
        "notice": "Supply caps enforced by mintAllowed for each vToken address. Defaults to zero which corresponds to minting notAllowed"
      },
      "treasuryAddress()": {
        "notice": "Treasury address"
      },
      "treasuryGuardian()": {
        "notice": "Treasury Guardian address"
      },
      "treasuryPercent()": {
        "notice": "Fee percent of accrued interest with decimal 18"
      },
      "vaiController()": {
        "notice": "The Address of VAIController"
      },
      "vaiMintRate()": {
        "notice": "VAI Mint Rate as a percentage"
      },
      "venusAccrued(address)": {
        "notice": "The XVS accrued but not yet transferred to each user"
      },
      "venusBorrowSpeeds(address)": {
        "notice": "The rate at which venus is distributed to the corresponding borrow market (per block)"
      },
      "venusBorrowState(address)": {
        "notice": "The Venus market borrow state for each market"
      },
      "venusBorrowerIndex(address,address)": {
        "notice": "The Venus borrow index for each market for each borrower as of the last time they accrued XVS"
      },
      "venusSupplierIndex(address,address)": {
        "notice": "The Venus supply index for each market for each supplier as of the last time they accrued XVS"
      },
      "venusSupplySpeeds(address)": {
        "notice": "The rate at which venus is distributed to the corresponding supply market (per block)"
      },
      "venusSupplyState(address)": {
        "notice": "The Venus market supply state for each market"
      },
      "venusVAIVaultRate()": {
        "notice": "The rate at which the flywheel distributes XVS to VAI Vault, per block"
      }
    },
    "notice": "This contract contains functions related to facets",
    "version": 1
  },
  "storageLayout": {
    "storage": [
      {
        "astId": 7178,
        "contract": "contracts/Comptroller/Diamond/Diamond.sol:Diamond",
        "label": "admin",
        "offset": 0,
        "slot": "0",
        "type": "t_address"
      },
      {
        "astId": 7181,
        "contract": "contracts/Comptroller/Diamond/Diamond.sol:Diamond",
        "label": "pendingAdmin",
        "offset": 0,
        "slot": "1",
        "type": "t_address"
      },
      {
        "astId": 7184,
        "contract": "contracts/Comptroller/Diamond/Diamond.sol:Diamond",
        "label": "comptrollerImplementation",
        "offset": 0,
        "slot": "2",
        "type": "t_address"
      },
      {
        "astId": 7187,
        "contract": "contracts/Comptroller/Diamond/Diamond.sol:Diamond",
        "label": "pendingComptrollerImplementation",
        "offset": 0,
        "slot": "3",
        "type": "t_address"
      },
      {
        "astId": 7194,
        "contract": "contracts/Comptroller/Diamond/Diamond.sol:Diamond",
        "label": "oracle",
        "offset": 0,
        "slot": "4",
        "type": "t_contract(ResilientOracleInterface)6078"
      },
      {
        "astId": 7197,
        "contract": "contracts/Comptroller/Diamond/Diamond.sol:Diamond",
        "label": "closeFactorMantissa",
        "offset": 0,
        "slot": "5",
        "type": "t_uint256"
      },
      {
        "astId": 7200,
        "contract": "contracts/Comptroller/Diamond/Diamond.sol:Diamond",
        "label": "liquidationIncentiveMantissa",
        "offset": 0,
        "slot": "6",
        "type": "t_uint256"
      },
      {
        "astId": 7203,
        "contract": "contracts/Comptroller/Diamond/Diamond.sol:Diamond",
        "label": "maxAssets",
        "offset": 0,
        "slot": "7",
        "type": "t_uint256"
      },
      {
        "astId": 7210,
        "contract": "contracts/Comptroller/Diamond/Diamond.sol:Diamond",
        "label": "accountAssets",
        "offset": 0,
        "slot": "8",
        "type": "t_mapping(t_address,t_array(t_contract(VToken)44340)dyn_storage)"
      },
      {
        "astId": 7231,
        "contract": "contracts/Comptroller/Diamond/Diamond.sol:Diamond",
        "label": "markets",
        "offset": 0,
        "slot": "9",
        "type": "t_mapping(t_address,t_struct(Market)7225_storage)"
      },
      {
        "astId": 7234,
        "contract": "contracts/Comptroller/Diamond/Diamond.sol:Diamond",
        "label": "pauseGuardian",
        "offset": 0,
        "slot": "10",
        "type": "t_address"
      },
      {
        "astId": 7237,
        "contract": "contracts/Comptroller/Diamond/Diamond.sol:Diamond",
        "label": "_mintGuardianPaused",
        "offset": 20,
        "slot": "10",
        "type": "t_bool"
      },
      {
        "astId": 7240,
        "contract": "contracts/Comptroller/Diamond/Diamond.sol:Diamond",
        "label": "_borrowGuardianPaused",
        "offset": 21,
        "slot": "10",
        "type": "t_bool"
      },
      {
        "astId": 7243,
        "contract": "contracts/Comptroller/Diamond/Diamond.sol:Diamond",
        "label": "transferGuardianPaused",
        "offset": 22,
        "slot": "10",
        "type": "t_bool"
      },
      {
        "astId": 7246,
        "contract": "contracts/Comptroller/Diamond/Diamond.sol:Diamond",
        "label": "seizeGuardianPaused",
        "offset": 23,
        "slot": "10",
        "type": "t_bool"
      },
      {
        "astId": 7251,
        "contract": "contracts/Comptroller/Diamond/Diamond.sol:Diamond",
        "label": "mintGuardianPaused",
        "offset": 0,
        "slot": "11",
        "type": "t_mapping(t_address,t_bool)"
      },
      {
        "astId": 7256,
        "contract": "contracts/Comptroller/Diamond/Diamond.sol:Diamond",
        "label": "borrowGuardianPaused",
        "offset": 0,
        "slot": "12",
        "type": "t_mapping(t_address,t_bool)"
      },
      {
        "astId": 7268,
        "contract": "contracts/Comptroller/Diamond/Diamond.sol:Diamond",
        "label": "allMarkets",
        "offset": 0,
        "slot": "13",
        "type": "t_array(t_contract(VToken)44340)dyn_storage"
      },
      {
        "astId": 7271,
        "contract": "contracts/Comptroller/Diamond/Diamond.sol:Diamond",
        "label": "venusRate",
        "offset": 0,
        "slot": "14",
        "type": "t_uint256"
      },
      {
        "astId": 7276,
        "contract": "contracts/Comptroller/Diamond/Diamond.sol:Diamond",
        "label": "venusSpeeds",
        "offset": 0,
        "slot": "15",
        "type": "t_mapping(t_address,t_uint256)"
      },
      {
        "astId": 7282,
        "contract": "contracts/Comptroller/Diamond/Diamond.sol:Diamond",
        "label": "venusSupplyState",
        "offset": 0,
        "slot": "16",
        "type": "t_mapping(t_address,t_struct(VenusMarketState)7263_storage)"
      },
      {
        "astId": 7288,
        "contract": "contracts/Comptroller/Diamond/Diamond.sol:Diamond",
        "label": "venusBorrowState",
        "offset": 0,
        "slot": "17",
        "type": "t_mapping(t_address,t_struct(VenusMarketState)7263_storage)"
      },
      {
        "astId": 7295,
        "contract": "contracts/Comptroller/Diamond/Diamond.sol:Diamond",
        "label": "venusSupplierIndex",
        "offset": 0,
        "slot": "18",
        "type": "t_mapping(t_address,t_mapping(t_address,t_uint256))"
      },
      {
        "astId": 7302,
        "contract": "contracts/Comptroller/Diamond/Diamond.sol:Diamond",
        "label": "venusBorrowerIndex",
        "offset": 0,
        "slot": "19",
        "type": "t_mapping(t_address,t_mapping(t_address,t_uint256))"
      },
      {
        "astId": 7307,
        "contract": "contracts/Comptroller/Diamond/Diamond.sol:Diamond",
        "label": "venusAccrued",
        "offset": 0,
        "slot": "20",
        "type": "t_mapping(t_address,t_uint256)"
      },
      {
        "astId": 7311,
        "contract": "contracts/Comptroller/Diamond/Diamond.sol:Diamond",
        "label": "vaiController",
        "offset": 0,
        "slot": "21",
        "type": "t_contract(VAIControllerInterface)37793"
      },
      {
        "astId": 7316,
        "contract": "contracts/Comptroller/Diamond/Diamond.sol:Diamond",
        "label": "mintedVAIs",
        "offset": 0,
        "slot": "22",
        "type": "t_mapping(t_address,t_uint256)"
      },
      {
        "astId": 7319,
        "contract": "contracts/Comptroller/Diamond/Diamond.sol:Diamond",
        "label": "vaiMintRate",
        "offset": 0,
        "slot": "23",
        "type": "t_uint256"
      },
      {
        "astId": 7322,
        "contract": "contracts/Comptroller/Diamond/Diamond.sol:Diamond",
        "label": "mintVAIGuardianPaused",
        "offset": 0,
        "slot": "24",
        "type": "t_bool"
      },
      {
        "astId": 7324,
        "contract": "contracts/Comptroller/Diamond/Diamond.sol:Diamond",
        "label": "repayVAIGuardianPaused",
        "offset": 1,
        "slot": "24",
        "type": "t_bool"
      },
      {
        "astId": 7327,
        "contract": "contracts/Comptroller/Diamond/Diamond.sol:Diamond",
        "label": "protocolPaused",
        "offset": 2,
        "slot": "24",
        "type": "t_bool"
      },
      {
        "astId": 7330,
        "contract": "contracts/Comptroller/Diamond/Diamond.sol:Diamond",
        "label": "venusVAIRate",
        "offset": 0,
        "slot": "25",
        "type": "t_uint256"
      },
      {
        "astId": 7336,
        "contract": "contracts/Comptroller/Diamond/Diamond.sol:Diamond",
        "label": "venusVAIVaultRate",
        "offset": 0,
        "slot": "26",
        "type": "t_uint256"
      },
      {
        "astId": 7338,
        "contract": "contracts/Comptroller/Diamond/Diamond.sol:Diamond",
        "label": "vaiVaultAddress",
        "offset": 0,
        "slot": "27",
        "type": "t_address"
      },
      {
        "astId": 7340,
        "contract": "contracts/Comptroller/Diamond/Diamond.sol:Diamond",
        "label": "releaseStartBlock",
        "offset": 0,
        "slot": "28",
        "type": "t_uint256"
      },
      {
        "astId": 7342,
        "contract": "contracts/Comptroller/Diamond/Diamond.sol:Diamond",
        "label": "minReleaseAmount",
        "offset": 0,
        "slot": "29",
        "type": "t_uint256"
      },
      {
        "astId": 7348,
        "contract": "contracts/Comptroller/Diamond/Diamond.sol:Diamond",
        "label": "borrowCapGuardian",
        "offset": 0,
        "slot": "30",
        "type": "t_address"
      },
      {
        "astId": 7353,
        "contract": "contracts/Comptroller/Diamond/Diamond.sol:Diamond",
        "label": "borrowCaps",
        "offset": 0,
        "slot": "31",
        "type": "t_mapping(t_address,t_uint256)"
      },
      {
        "astId": 7359,
        "contract": "contracts/Comptroller/Diamond/Diamond.sol:Diamond",
        "label": "treasuryGuardian",
        "offset": 0,
        "slot": "32",
        "type": "t_address"
      },
      {
        "astId": 7362,
        "contract": "contracts/Comptroller/Diamond/Diamond.sol:Diamond",
        "label": "treasuryAddress",
        "offset": 0,
        "slot": "33",
        "type": "t_address"
      },
      {
        "astId": 7365,
        "contract": "contracts/Comptroller/Diamond/Diamond.sol:Diamond",
        "label": "treasuryPercent",
        "offset": 0,
        "slot": "34",
        "type": "t_uint256"
      },
      {
        "astId": 7373,
        "contract": "contracts/Comptroller/Diamond/Diamond.sol:Diamond",
        "label": "venusContributorSpeeds",
        "offset": 0,
        "slot": "35",
        "type": "t_mapping(t_address,t_uint256)"
      },
      {
        "astId": 7378,
        "contract": "contracts/Comptroller/Diamond/Diamond.sol:Diamond",
        "label": "lastContributorBlock",
        "offset": 0,
        "slot": "36",
        "type": "t_mapping(t_address,t_uint256)"
      },
      {
        "astId": 7383,
        "contract": "contracts/Comptroller/Diamond/Diamond.sol:Diamond",
        "label": "liquidatorContract",
        "offset": 0,
        "slot": "37",
        "type": "t_address"
      },
      {
        "astId": 7389,
        "contract": "contracts/Comptroller/Diamond/Diamond.sol:Diamond",
        "label": "comptrollerLens",
        "offset": 0,
        "slot": "38",
        "type": "t_contract(ComptrollerLensInterface)7163"
      },
      {
        "astId": 7397,
        "contract": "contracts/Comptroller/Diamond/Diamond.sol:Diamond",
        "label": "supplyCaps",
        "offset": 0,
        "slot": "39",
        "type": "t_mapping(t_address,t_uint256)"
      },
      {
        "astId": 7403,
        "contract": "contracts/Comptroller/Diamond/Diamond.sol:Diamond",
        "label": "accessControl",
        "offset": 0,
        "slot": "40",
        "type": "t_address"
      },
      {
        "astId": 7410,
        "contract": "contracts/Comptroller/Diamond/Diamond.sol:Diamond",
        "label": "_actionPaused",
        "offset": 0,
        "slot": "41",
        "type": "t_mapping(t_address,t_mapping(t_uint256,t_bool))"
      },
      {
        "astId": 7418,
        "contract": "contracts/Comptroller/Diamond/Diamond.sol:Diamond",
        "label": "venusBorrowSpeeds",
        "offset": 0,
        "slot": "42",
        "type": "t_mapping(t_address,t_uint256)"
      },
      {
        "astId": 7423,
        "contract": "contracts/Comptroller/Diamond/Diamond.sol:Diamond",
        "label": "venusSupplySpeeds",
        "offset": 0,
        "slot": "43",
        "type": "t_mapping(t_address,t_uint256)"
      },
      {
        "astId": 7433,
        "contract": "contracts/Comptroller/Diamond/Diamond.sol:Diamond",
        "label": "approvedDelegates",
        "offset": 0,
        "slot": "44",
        "type": "t_mapping(t_address,t_mapping(t_address,t_bool))"
      },
      {
        "astId": 7441,
        "contract": "contracts/Comptroller/Diamond/Diamond.sol:Diamond",
        "label": "isForcedLiquidationEnabled",
        "offset": 0,
        "slot": "45",
        "type": "t_mapping(t_address,t_bool)"
      },
      {
        "astId": 7460,
        "contract": "contracts/Comptroller/Diamond/Diamond.sol:Diamond",
        "label": "_selectorToFacetAndPosition",
        "offset": 0,
        "slot": "46",
        "type": "t_mapping(t_bytes4,t_struct(FacetAddressAndPosition)7449_storage)"
      },
      {
        "astId": 7465,
        "contract": "contracts/Comptroller/Diamond/Diamond.sol:Diamond",
        "label": "_facetFunctionSelectors",
        "offset": 0,
        "slot": "47",
        "type": "t_mapping(t_address,t_struct(FacetFunctionSelectors)7455_storage)"
      },
      {
        "astId": 7468,
        "contract": "contracts/Comptroller/Diamond/Diamond.sol:Diamond",
        "label": "_facetAddresses",
        "offset": 0,
        "slot": "48",
        "type": "t_array(t_address)dyn_storage"
      },
      {
        "astId": 7475,
        "contract": "contracts/Comptroller/Diamond/Diamond.sol:Diamond",
        "label": "prime",
        "offset": 0,
        "slot": "49",
        "type": "t_contract(IPrime)29106"
      },
      {
        "astId": 7485,
        "contract": "contracts/Comptroller/Diamond/Diamond.sol:Diamond",
        "label": "isForcedLiquidationEnabledForUser",
        "offset": 0,
        "slot": "50",
        "type": "t_mapping(t_address,t_mapping(t_address,t_bool))"
      },
      {
        "astId": 7491,
        "contract": "contracts/Comptroller/Diamond/Diamond.sol:Diamond",
        "label": "xvs",
        "offset": 0,
        "slot": "51",
        "type": "t_address"
      },
      {
        "astId": 7494,
        "contract": "contracts/Comptroller/Diamond/Diamond.sol:Diamond",
        "label": "xvsVToken",
        "offset": 0,
        "slot": "52",
        "type": "t_address"
      }
    ],
    "types": {
      "t_address": {
        "encoding": "inplace",
        "label": "address",
        "numberOfBytes": "20"
      },
      "t_array(t_address)dyn_storage": {
        "base": "t_address",
        "encoding": "dynamic_array",
        "label": "address[]",
        "numberOfBytes": "32"
      },
      "t_array(t_bytes4)dyn_storage": {
        "base": "t_bytes4",
        "encoding": "dynamic_array",
        "label": "bytes4[]",
        "numberOfBytes": "32"
      },
      "t_array(t_contract(VToken)44340)dyn_storage": {
        "base": "t_contract(VToken)44340",
        "encoding": "dynamic_array",
        "label": "contract VToken[]",
        "numberOfBytes": "32"
      },
      "t_bool": {
        "encoding": "inplace",
        "label": "bool",
        "numberOfBytes": "1"
      },
      "t_bytes4": {
        "encoding": "inplace",
        "label": "bytes4",
        "numberOfBytes": "4"
      },
      "t_contract(ComptrollerLensInterface)7163": {
        "encoding": "inplace",
        "label": "contract ComptrollerLensInterface",
        "numberOfBytes": "20"
      },
      "t_contract(IPrime)29106": {
        "encoding": "inplace",
        "label": "contract IPrime",
        "numberOfBytes": "20"
      },
      "t_contract(ResilientOracleInterface)6078": {
        "encoding": "inplace",
        "label": "contract ResilientOracleInterface",
        "numberOfBytes": "20"
      },
      "t_contract(VAIControllerInterface)37793": {
        "encoding": "inplace",
        "label": "contract VAIControllerInterface",
        "numberOfBytes": "20"
      },
      "t_contract(VToken)44340": {
        "encoding": "inplace",
        "label": "contract VToken",
        "numberOfBytes": "20"
      },
      "t_mapping(t_address,t_array(t_contract(VToken)44340)dyn_storage)": {
        "encoding": "mapping",
        "key": "t_address",
        "label": "mapping(address => contract VToken[])",
        "numberOfBytes": "32",
        "value": "t_array(t_contract(VToken)44340)dyn_storage"
      },
      "t_mapping(t_address,t_bool)": {
        "encoding": "mapping",
        "key": "t_address",
        "label": "mapping(address => bool)",
        "numberOfBytes": "32",
        "value": "t_bool"
      },
      "t_mapping(t_address,t_mapping(t_address,t_bool))": {
        "encoding": "mapping",
        "key": "t_address",
        "label": "mapping(address => mapping(address => bool))",
        "numberOfBytes": "32",
        "value": "t_mapping(t_address,t_bool)"
      },
      "t_mapping(t_address,t_mapping(t_address,t_uint256))": {
        "encoding": "mapping",
        "key": "t_address",
        "label": "mapping(address => mapping(address => uint256))",
        "numberOfBytes": "32",
        "value": "t_mapping(t_address,t_uint256)"
      },
      "t_mapping(t_address,t_mapping(t_uint256,t_bool))": {
        "encoding": "mapping",
        "key": "t_address",
        "label": "mapping(address => mapping(uint256 => bool))",
        "numberOfBytes": "32",
        "value": "t_mapping(t_uint256,t_bool)"
      },
      "t_mapping(t_address,t_struct(FacetFunctionSelectors)7455_storage)": {
        "encoding": "mapping",
        "key": "t_address",
        "label": "mapping(address => struct ComptrollerV13Storage.FacetFunctionSelectors)",
        "numberOfBytes": "32",
        "value": "t_struct(FacetFunctionSelectors)7455_storage"
      },
      "t_mapping(t_address,t_struct(Market)7225_storage)": {
        "encoding": "mapping",
        "key": "t_address",
        "label": "mapping(address => struct ComptrollerV1Storage.Market)",
        "numberOfBytes": "32",
        "value": "t_struct(Market)7225_storage"
      },
      "t_mapping(t_address,t_struct(VenusMarketState)7263_storage)": {
        "encoding": "mapping",
        "key": "t_address",
        "label": "mapping(address => struct ComptrollerV1Storage.VenusMarketState)",
        "numberOfBytes": "32",
        "value": "t_struct(VenusMarketState)7263_storage"
      },
      "t_mapping(t_address,t_uint256)": {
        "encoding": "mapping",
        "key": "t_address",
        "label": "mapping(address => uint256)",
        "numberOfBytes": "32",
        "value": "t_uint256"
      },
      "t_mapping(t_bytes4,t_struct(FacetAddressAndPosition)7449_storage)": {
        "encoding": "mapping",
        "key": "t_bytes4",
        "label": "mapping(bytes4 => struct ComptrollerV13Storage.FacetAddressAndPosition)",
        "numberOfBytes": "32",
        "value": "t_struct(FacetAddressAndPosition)7449_storage"
      },
      "t_mapping(t_uint256,t_bool)": {
        "encoding": "mapping",
        "key": "t_uint256",
        "label": "mapping(uint256 => bool)",
        "numberOfBytes": "32",
        "value": "t_bool"
      },
      "t_struct(FacetAddressAndPosition)7449_storage": {
        "encoding": "inplace",
        "label": "struct ComptrollerV13Storage.FacetAddressAndPosition",
        "members": [
          {
            "astId": 7446,
            "contract": "contracts/Comptroller/Diamond/Diamond.sol:Diamond",
            "label": "facetAddress",
            "offset": 0,
            "slot": "0",
            "type": "t_address"
          },
          {
            "astId": 7448,
            "contract": "contracts/Comptroller/Diamond/Diamond.sol:Diamond",
            "label": "functionSelectorPosition",
            "offset": 20,
            "slot": "0",
            "type": "t_uint96"
          }
        ],
        "numberOfBytes": "32"
      },
      "t_struct(FacetFunctionSelectors)7455_storage": {
        "encoding": "inplace",
        "label": "struct ComptrollerV13Storage.FacetFunctionSelectors",
        "members": [
          {
            "astId": 7452,
            "contract": "contracts/Comptroller/Diamond/Diamond.sol:Diamond",
            "label": "functionSelectors",
            "offset": 0,
            "slot": "0",
            "type": "t_array(t_bytes4)dyn_storage"
          },
          {
            "astId": 7454,
            "contract": "contracts/Comptroller/Diamond/Diamond.sol:Diamond",
            "label": "facetAddressPosition",
            "offset": 0,
            "slot": "1",
            "type": "t_uint256"
          }
        ],
        "numberOfBytes": "64"
      },
      "t_struct(Market)7225_storage": {
        "encoding": "inplace",
        "label": "struct ComptrollerV1Storage.Market",
        "members": [
          {
            "astId": 7213,
            "contract": "contracts/Comptroller/Diamond/Diamond.sol:Diamond",
            "label": "isListed",
            "offset": 0,
            "slot": "0",
            "type": "t_bool"
          },
          {
            "astId": 7216,
            "contract": "contracts/Comptroller/Diamond/Diamond.sol:Diamond",
            "label": "collateralFactorMantissa",
            "offset": 0,
            "slot": "1",
            "type": "t_uint256"
          },
          {
            "astId": 7221,
            "contract": "contracts/Comptroller/Diamond/Diamond.sol:Diamond",
            "label": "accountMembership",
            "offset": 0,
            "slot": "2",
            "type": "t_mapping(t_address,t_bool)"
          },
          {
            "astId": 7224,
            "contract": "contracts/Comptroller/Diamond/Diamond.sol:Diamond",
            "label": "isVenus",
            "offset": 0,
            "slot": "3",
            "type": "t_bool"
          }
        ],
        "numberOfBytes": "128"
      },
      "t_struct(VenusMarketState)7263_storage": {
        "encoding": "inplace",
        "label": "struct ComptrollerV1Storage.VenusMarketState",
        "members": [
          {
            "astId": 7259,
            "contract": "contracts/Comptroller/Diamond/Diamond.sol:Diamond",
            "label": "index",
            "offset": 0,
            "slot": "0",
            "type": "t_uint224"
          },
          {
            "astId": 7262,
            "contract": "contracts/Comptroller/Diamond/Diamond.sol:Diamond",
            "label": "block",
            "offset": 28,
            "slot": "0",
            "type": "t_uint32"
          }
        ],
        "numberOfBytes": "32"
      },
      "t_uint224": {
        "encoding": "inplace",
        "label": "uint224",
        "numberOfBytes": "28"
      },
      "t_uint256": {
        "encoding": "inplace",
        "label": "uint256",
        "numberOfBytes": "32"
      },
      "t_uint32": {
        "encoding": "inplace",
        "label": "uint32",
        "numberOfBytes": "4"
      },
      "t_uint96": {
        "encoding": "inplace",
        "label": "uint96",
        "numberOfBytes": "12"
      }
    }
  }
}