{
  "address": "0xA0Eef73F94DB337F08f34F9013bCAF8D392289A5",
  "abi": [
    {
      "inputs": [
        {
          "internalType": "uint256",
          "name": "baseCloseFactorMantissa_",
          "type": "uint256"
        },
        {
          "internalType": "uint256",
          "name": "defaultCloseFactorMantissa_",
          "type": "uint256"
        },
        {
          "internalType": "uint256",
          "name": "targetHealthFactor_",
          "type": "uint256"
        }
      ],
      "stateMutability": "nonpayable",
      "type": "constructor"
    },
    {
      "inputs": [],
      "name": "CollateralExceedsBorrowCapacity",
      "type": "error"
    },
    {
      "inputs": [],
      "name": "InvalidBaseCloseFactor",
      "type": "error"
    },
    {
      "inputs": [],
      "name": "InvalidDefaultCloseFactor",
      "type": "error"
    },
    {
      "inputs": [],
      "name": "InvalidTargetHealthFactor",
      "type": "error"
    },
    {
      "inputs": [
        {
          "internalType": "address",
          "name": "market",
          "type": "address"
        }
      ],
      "name": "MarketNotListed",
      "type": "error"
    },
    {
      "inputs": [
        {
          "internalType": "address",
          "name": "sender",
          "type": "address"
        },
        {
          "internalType": "address",
          "name": "calledContract",
          "type": "address"
        },
        {
          "internalType": "string",
          "name": "methodSignature",
          "type": "string"
        }
      ],
      "name": "Unauthorized",
      "type": "error"
    },
    {
      "anonymous": false,
      "inputs": [
        {
          "indexed": true,
          "internalType": "address",
          "name": "market",
          "type": "address"
        },
        {
          "indexed": false,
          "internalType": "bool",
          "name": "enabled",
          "type": "bool"
        }
      ],
      "name": "DynamicCloseFactorEnabledSet",
      "type": "event"
    },
    {
      "anonymous": false,
      "inputs": [
        {
          "indexed": true,
          "internalType": "address",
          "name": "market",
          "type": "address"
        },
        {
          "indexed": false,
          "internalType": "bool",
          "name": "enabled",
          "type": "bool"
        }
      ],
      "name": "DynamicLiquidationIncentiveEnabledSet",
      "type": "event"
    },
    {
      "anonymous": false,
      "inputs": [
        {
          "indexed": false,
          "internalType": "uint8",
          "name": "version",
          "type": "uint8"
        }
      ],
      "name": "Initialized",
      "type": "event"
    },
    {
      "anonymous": false,
      "inputs": [
        {
          "indexed": false,
          "internalType": "address",
          "name": "oldAccessControlManager",
          "type": "address"
        },
        {
          "indexed": false,
          "internalType": "address",
          "name": "newAccessControlManager",
          "type": "address"
        }
      ],
      "name": "NewAccessControlManager",
      "type": "event"
    },
    {
      "anonymous": false,
      "inputs": [
        {
          "indexed": true,
          "internalType": "address",
          "name": "previousOwner",
          "type": "address"
        },
        {
          "indexed": true,
          "internalType": "address",
          "name": "newOwner",
          "type": "address"
        }
      ],
      "name": "OwnershipTransferStarted",
      "type": "event"
    },
    {
      "anonymous": false,
      "inputs": [
        {
          "indexed": true,
          "internalType": "address",
          "name": "previousOwner",
          "type": "address"
        },
        {
          "indexed": true,
          "internalType": "address",
          "name": "newOwner",
          "type": "address"
        }
      ],
      "name": "OwnershipTransferred",
      "type": "event"
    },
    {
      "inputs": [],
      "name": "acceptOwnership",
      "outputs": [],
      "stateMutability": "nonpayable",
      "type": "function"
    },
    {
      "inputs": [],
      "name": "accessControlManager",
      "outputs": [
        {
          "internalType": "contract IAccessControlManagerV8",
          "name": "",
          "type": "address"
        }
      ],
      "stateMutability": "view",
      "type": "function"
    },
    {
      "inputs": [],
      "name": "baseCloseFactorMantissa",
      "outputs": [
        {
          "internalType": "uint256",
          "name": "",
          "type": "uint256"
        }
      ],
      "stateMutability": "view",
      "type": "function"
    },
    {
      "inputs": [
        {
          "internalType": "address",
          "name": "market",
          "type": "address"
        },
        {
          "internalType": "uint256",
          "name": "borrowBalance",
          "type": "uint256"
        },
        {
          "internalType": "uint256",
          "name": "wtAvg",
          "type": "uint256"
        },
        {
          "internalType": "uint256",
          "name": "totalCollateral",
          "type": "uint256"
        },
        {
          "internalType": "uint256",
          "name": "dynamicLiquidationIncentive",
          "type": "uint256"
        },
        {
          "internalType": "uint256",
          "name": "maxLiquidationIncentive",
          "type": "uint256"
        }
      ],
      "name": "calculateDynamicCloseFactor",
      "outputs": [
        {
          "internalType": "uint256",
          "name": "closeFactor",
          "type": "uint256"
        }
      ],
      "stateMutability": "view",
      "type": "function"
    },
    {
      "inputs": [
        {
          "internalType": "address",
          "name": "market",
          "type": "address"
        },
        {
          "internalType": "uint256",
          "name": "healthFactor",
          "type": "uint256"
        },
        {
          "internalType": "uint256",
          "name": "liquidationThresholdAvg",
          "type": "uint256"
        },
        {
          "internalType": "uint256",
          "name": "maxLiquidationIncentiveMantissa",
          "type": "uint256"
        }
      ],
      "name": "calculateDynamicLiquidationIncentive",
      "outputs": [
        {
          "internalType": "uint256",
          "name": "incentive",
          "type": "uint256"
        }
      ],
      "stateMutability": "view",
      "type": "function"
    },
    {
      "inputs": [],
      "name": "defaultCloseFactorMantissa",
      "outputs": [
        {
          "internalType": "uint256",
          "name": "",
          "type": "uint256"
        }
      ],
      "stateMutability": "view",
      "type": "function"
    },
    {
      "inputs": [
        {
          "internalType": "address",
          "name": "",
          "type": "address"
        }
      ],
      "name": "dynamicCloseFactorEnabled",
      "outputs": [
        {
          "internalType": "bool",
          "name": "",
          "type": "bool"
        }
      ],
      "stateMutability": "view",
      "type": "function"
    },
    {
      "inputs": [
        {
          "internalType": "address",
          "name": "",
          "type": "address"
        }
      ],
      "name": "dynamicLiquidationIncentiveEnabled",
      "outputs": [
        {
          "internalType": "bool",
          "name": "",
          "type": "bool"
        }
      ],
      "stateMutability": "view",
      "type": "function"
    },
    {
      "inputs": [
        {
          "internalType": "address",
          "name": "accessControlManager_",
          "type": "address"
        }
      ],
      "name": "initialize",
      "outputs": [],
      "stateMutability": "nonpayable",
      "type": "function"
    },
    {
      "inputs": [],
      "name": "owner",
      "outputs": [
        {
          "internalType": "address",
          "name": "",
          "type": "address"
        }
      ],
      "stateMutability": "view",
      "type": "function"
    },
    {
      "inputs": [],
      "name": "pendingOwner",
      "outputs": [
        {
          "internalType": "address",
          "name": "",
          "type": "address"
        }
      ],
      "stateMutability": "view",
      "type": "function"
    },
    {
      "inputs": [],
      "name": "renounceOwnership",
      "outputs": [],
      "stateMutability": "nonpayable",
      "type": "function"
    },
    {
      "inputs": [
        {
          "internalType": "address",
          "name": "accessControlManager_",
          "type": "address"
        }
      ],
      "name": "setAccessControlManager",
      "outputs": [],
      "stateMutability": "nonpayable",
      "type": "function"
    },
    {
      "inputs": [
        {
          "internalType": "address",
          "name": "market",
          "type": "address"
        },
        {
          "internalType": "bool",
          "name": "enabled",
          "type": "bool"
        }
      ],
      "name": "setDynamicCloseFactorEnabled",
      "outputs": [],
      "stateMutability": "nonpayable",
      "type": "function"
    },
    {
      "inputs": [
        {
          "internalType": "address",
          "name": "market",
          "type": "address"
        },
        {
          "internalType": "bool",
          "name": "enabled",
          "type": "bool"
        }
      ],
      "name": "setDynamicLiquidationIncentiveEnabled",
      "outputs": [],
      "stateMutability": "nonpayable",
      "type": "function"
    },
    {
      "inputs": [],
      "name": "targetHealthFactor",
      "outputs": [
        {
          "internalType": "uint256",
          "name": "",
          "type": "uint256"
        }
      ],
      "stateMutability": "view",
      "type": "function"
    },
    {
      "inputs": [
        {
          "internalType": "address",
          "name": "newOwner",
          "type": "address"
        }
      ],
      "name": "transferOwnership",
      "outputs": [],
      "stateMutability": "nonpayable",
      "type": "function"
    }
  ],
  "transactionHash": "0x9ca6c4c0c5b29c30ab298355d071eabae146eaee0626ceff1e073565f7b8088d",
  "args": [
    "50000000000000000",
    "500000000000000000",
    "1100000000000000000"
  ],
  "numDeployments": 1,
  "solcInputHash": "b399e251f37c023617074e75c68b227e",
  "bytecode": "0x60e060405234801561000f575f80fd5b50604051610f7e380380610f7e83398101604081905261002e916100c4565b670de0b6b3a764000083118061004357508183115b156100615760405163064e6dc760e41b815260040160405180910390fd5b670de0b6b3a764000082111561008a5760405163cb619fd560e01b815260040160405180910390fd5b670de0b6b3a76400008110156100b35760405163361804a960e21b815260040160405180910390fd5b60809290925260a05260c0526100ef565b5f805f606084860312156100d6575f80fd5b8351925060208401519150604084015190509250925092565b60805160a05160c051610e496101355f395f818161015b015281816104e9015261054801525f8181610198015261046a01525f818161028f015261059e0152610e495ff3fe608060405234801561000f575f80fd5b5060043610610106575f3560e01c8063894b0fd61161009e578063b4cefb1e1161006e578063b4cefb1e14610253578063c4d66de814610266578063e30c397814610279578063e46b6d0a1461028a578063f2fde38b146102b1575f80fd5b8063894b0fd6146101e85780638da5cb5b1461020a5780639dbd19c71461022f578063b4a0bdf314610242575f80fd5b8063750142ab116100d9578063750142ab1461019357806379ba5097146101ba5780637d90d37a146101c257806384ba0c57146101d5575f80fd5b80630e32cb861461010a57806322556d431461011f578063254cf43914610156578063715018a61461018b575b5f80fd5b61011d610118366004610b6b565b6102c4565b005b61014161012d366004610b6b565b60ca6020525f908152604090205460ff1681565b60405190151581526020015b60405180910390f35b61017d7f000000000000000000000000000000000000000000000000000000000000000081565b60405190815260200161014d565b61011d6102d8565b61017d7f000000000000000000000000000000000000000000000000000000000000000081565b61011d6102eb565b61017d6101d0366004610b84565b610367565b61011d6101e3366004610bc7565b6103c8565b6101416101f6366004610b6b565b60c96020525f908152604090205460ff1681565b6033546001600160a01b03165b6040516001600160a01b03909116815260200161014d565b61017d61023d366004610bfc565b610448565b6097546001600160a01b0316610217565b61011d610261366004610bc7565b61060f565b61011d610274366004610b6b565b610687565b6065546001600160a01b0316610217565b61017d7f000000000000000000000000000000000000000000000000000000000000000081565b61011d6102bf366004610b6b565b610795565b6102cc610806565b6102d581610860565b50565b6102e0610806565b6102e95f61091e565b565b60655433906001600160a01b0316811461035e5760405162461bcd60e51b815260206004820152602960248201527f4f776e61626c6532537465703a2063616c6c6572206973206e6f7420746865206044820152683732bb9037bbb732b960b91b60648201526084015b60405180910390fd5b6102d58161091e565b6001600160a01b0384165f90815260ca602052604081205460ff1661038d5750806103c0565b5f836103a1670de0b6b3a764000087610c56565b6103ab9190610c6d565b90508281116103ba57806103bc565b825b9150505b949350505050565b6103e9604051806060016040528060338152602001610db760339139610937565b6001600160a01b0382165f81815260ca6020908152604091829020805460ff191685151590811790915591519182527f3698b1bcd81ea2ecfc6c887e8019ee219e4957558a57ad4e8fd25f2bcacd8b6991015b60405180910390a25050565b6001600160a01b0386165f90815260c9602052604081205460ff1661048e57507f0000000000000000000000000000000000000000000000000000000000000000610605565b8183036105fa576104a7670de0b6b3a764000087610c56565b6104b18587610c56565b11156104d05760405163029df97960e11b815260040160405180910390fd5b5f670de0b6b3a76400006104e48688610c56565b61050e7f00000000000000000000000000000000000000000000000000000000000000008a610c56565b6105189190610c8c565b6105229190610c6d565b90505f670de0b6b3a76400006105388589610c56565b6105429190610c6d565b61056c907f0000000000000000000000000000000000000000000000000000000000000000610c8c565b6105769089610c56565b90505f6105838284610c6d565b90505f61059882670de0b6b3a7640000610c8c565b6105c2907f0000000000000000000000000000000000000000000000000000000000000000610c56565b90506105ce82826109ce565b9450670de0b6b3a764000085116105e557846105ef565b670de0b6b3a76400005b945050505050610605565b50670de0b6b3a76400005b9695505050505050565b6106306040518060600160405280602a8152602001610dea602a9139610937565b6001600160a01b0382165f81815260c96020908152604091829020805460ff191685151590811790915591519182527f3e854e8ee8ebcaef119dea646cd28bdd4f19f673d3855ce4865f9909c2acae60910161043c565b5f54610100900460ff16158080156106a557505f54600160ff909116105b806106be5750303b1580156106be57505f5460ff166001145b6107215760405162461bcd60e51b815260206004820152602e60248201527f496e697469616c697a61626c653a20636f6e747261637420697320616c72656160448201526d191e481a5b9a5d1a585b1a5e995960921b6064820152608401610355565b5f805460ff191660011790558015610742575f805461ff0019166101001790555b61074b82610a0c565b8015610791575f805461ff0019169055604051600181527f7f26b83ff96e1f2b6a682f133852f6798a09c465da95921460cefb3847402498906020015b60405180910390a15b5050565b61079d610806565b606580546001600160a01b0383166001600160a01b031990911681179091556107ce6033546001600160a01b031690565b6001600160a01b03167f38d16b8cac22d99fc7c124b9cd0de2d3fa1faef420bfe791d8c362d765e2270060405160405180910390a350565b6033546001600160a01b031633146102e95760405162461bcd60e51b815260206004820181905260248201527f4f776e61626c653a2063616c6c6572206973206e6f7420746865206f776e65726044820152606401610355565b6001600160a01b0381166108c45760405162461bcd60e51b815260206004820152602560248201527f696e76616c696420616365737320636f6e74726f6c206d616e61676572206164604482015264647265737360d81b6064820152608401610355565b609780546001600160a01b038381166001600160a01b031983168117909355604080519190921680825260208201939093527f66fd58e82f7b31a2a5c30e0888f3093efe4e111b00cd2b0c31fe014601293aa09101610788565b606580546001600160a01b03191690556102d581610a43565b6097546040516318c5e8ab60e01b81525f916001600160a01b0316906318c5e8ab906109699033908690600401610ccd565b602060405180830381865afa158015610984573d5f803e3d5ffd5b505050506040513d601f19601f820116820180604052508101906109a89190610cf0565b90508061079157333083604051634a3fa29360e01b815260040161035593929190610d12565b5f610a038383604051806040016040528060118152602001706164646974696f6e206f766572666c6f7760781b815250610a94565b90505b92915050565b5f54610100900460ff16610a325760405162461bcd60e51b815260040161035590610d46565b610a3a610acd565b6102d581610afb565b603380546001600160a01b038381166001600160a01b0319831681179093556040519116919082907f8be0079c531659141344cd1fd0a4f28419497f9722a3daafe3b4186f6b6457e0905f90a35050565b5f80610aa08486610d91565b90508285821015610ac45760405162461bcd60e51b81526004016103559190610da4565b50949350505050565b5f54610100900460ff16610af35760405162461bcd60e51b815260040161035590610d46565b6102e9610b21565b5f54610100900460ff166102cc5760405162461bcd60e51b815260040161035590610d46565b5f54610100900460ff16610b475760405162461bcd60e51b815260040161035590610d46565b6102e93361091e565b80356001600160a01b0381168114610b66575f80fd5b919050565b5f60208284031215610b7b575f80fd5b610a0382610b50565b5f805f8060808587031215610b97575f80fd5b610ba085610b50565b966020860135965060408601359560600135945092505050565b80151581146102d5575f80fd5b5f8060408385031215610bd8575f80fd5b610be183610b50565b91506020830135610bf181610bba565b809150509250929050565b5f805f805f8060c08789031215610c11575f80fd5b610c1a87610b50565b9860208801359850604088013597606081013597506080810135965060a00135945092505050565b634e487b7160e01b5f52601160045260245ffd5b8082028115828204841417610a0657610a06610c42565b5f82610c8757634e487b7160e01b5f52601260045260245ffd5b500490565b81810381811115610a0657610a06610c42565b5f81518084528060208401602086015e5f602082860101526020601f19601f83011685010191505092915050565b6001600160a01b03831681526040602082018190525f906103c090830184610c9f565b5f60208284031215610d00575f80fd5b8151610d0b81610bba565b9392505050565b6001600160a01b038481168252831660208201526060604082018190525f90610d3d90830184610c9f565b95945050505050565b6020808252602b908201527f496e697469616c697a61626c653a20636f6e7472616374206973206e6f74206960408201526a6e697469616c697a696e6760a81b606082015260800190565b80820180821115610a0657610a06610c42565b602081525f610a036020830184610c9f56fe73657444796e616d69634c69717569646174696f6e496e63656e74697665456e61626c656428616464726573732c626f6f6c2973657444796e616d6963436c6f7365466163746f72456e61626c656428616464726573732c626f6f6c29a264697066735822122095c32b5382f21087bce1a2205d21023457e55e5df36224084b66c51c313b051f64736f6c63430008190033",
  "devdoc": {
    "author": "Venus",
    "details": "This contract provides functions to manage liquidations in the venus protocol. It calculates close factors, dynamic liquidation incentives, and the number of tokens to seize during liquidation. It also checks if a liquidation is toxic based on average liquidation threshold and health factor.",
    "errors": {
      "MarketNotListed(address)": [
        {
          "params": {
            "market": "The address of the market that is not listed."
          }
        }
      ]
    },
    "events": {
      "Initialized(uint8)": {
        "details": "Triggered when the contract has been initialized or reinitialized."
      }
    },
    "kind": "dev",
    "methods": {
      "acceptOwnership()": {
        "details": "The new owner accepts the ownership transfer."
      },
      "calculateDynamicCloseFactor(address,uint256,uint256,uint256,uint256,uint256)": {
        "params": {
          "borrowBalance": "The borrow balance of the borrower",
          "dynamicLiquidationIncentive": "The dynamic liquidation incentive, scaled by 1e18",
          "maxLiquidationIncentive": "The maximum liquidation incentive allowed",
          "totalCollateral": "The total collateral available for liquidation",
          "wtAvg": "The weighted average of the collateral"
        },
        "returns": {
          "closeFactor": "The calculated close factor, scaled by 1e18"
        }
      },
      "calculateDynamicLiquidationIncentive(address,uint256,uint256,uint256)": {
        "params": {
          "healthFactor": "The health factor of the borrower",
          "liquidationThresholdAvg": "The average liquidation threshold of the collateral",
          "maxLiquidationIncentiveMantissa": "The maximum liquidation incentive allowed, scaled by 1e18"
        },
        "returns": {
          "incentive": "The calculated dynamic liquidation incentive, scaled by 1e18"
        }
      },
      "constructor": {
        "details": "Ensures that the provided addresses are non-zero and that the close factors and health factor are within valid ranges.      Reverts with `InvalidBaseCloseFactor` if `_baseCloseFactorMantissa` is invalid.      Reverts with `InvalidDefaultCloseFactor` if `_defaultCloseFactorMantissa` is invalid.      Reverts with `InvalidTargetHealthFactor` if `_targetHealthFactor` is invalid.",
        "params": {
          "baseCloseFactorMantissa_": "The base close factor, scaled by 1e18.",
          "defaultCloseFactorMantissa_": "The default close factor, scaled by 1e18.",
          "targetHealthFactor_": "The target health factor, scaled by 1e18."
        }
      },
      "initialize(address)": {
        "params": {
          "accessControlManager_": "The address of the access control manager contract."
        }
      },
      "owner()": {
        "details": "Returns the address of the current owner."
      },
      "pendingOwner()": {
        "details": "Returns the address of the pending owner."
      },
      "renounceOwnership()": {
        "details": "Leaves the contract without owner. It will not be possible to call `onlyOwner` functions. Can only be called by the current owner. NOTE: Renouncing ownership will leave the contract without an owner, thereby disabling any functionality that is only available to the owner."
      },
      "setAccessControlManager(address)": {
        "custom:access": "Only Governance",
        "custom:event": "Emits NewAccessControlManager event",
        "details": "Admin function to set address of AccessControlManager",
        "params": {
          "accessControlManager_": "The new address of the AccessControlManager"
        }
      },
      "setDynamicCloseFactorEnabled(address,bool)": {
        "custom:event": "DynamicCloseFactorEnabledSet",
        "params": {
          "enabled": "Boolean indicating whether the dynamic close factor should be enabled or disabled.",
          "market": "The address of the market to update."
        }
      },
      "setDynamicLiquidationIncentiveEnabled(address,bool)": {
        "custom:event": "DynamicLiquidationIncentiveEnabledSet",
        "params": {
          "enabled": "Boolean indicating whether the dynamic liquidation incentive should be enabled or disabled.",
          "market": "The address of the market to update."
        }
      },
      "transferOwnership(address)": {
        "details": "Starts the ownership transfer of the contract to a new account. Replaces the pending transfer if there is one. Can only be called by the current owner."
      }
    },
    "stateVariables": {
      "dynamicCloseFactorEnabled": {
        "details": "Maps a market address to a boolean flag for dynamic close factor activation."
      },
      "dynamicLiquidationIncentiveEnabled": {
        "details": "Maps a market address to a boolean flag for dynamic liquidation incentive activation."
      }
    },
    "title": "LiquidationManager",
    "version": 1
  },
  "userdoc": {
    "errors": {
      "CollateralExceedsBorrowCapacity()": [
        {
          "notice": "Error thrown when collateral exceeds borrow capacity"
        }
      ],
      "InvalidBaseCloseFactor()": [
        {
          "notice": "Error thrown when the provided base close factor is invalid."
        }
      ],
      "InvalidDefaultCloseFactor()": [
        {
          "notice": "Error thrown when the provided default close factor is invalid."
        }
      ],
      "InvalidTargetHealthFactor()": [
        {
          "notice": "Error thrown when the provided target health factor is invalid."
        }
      ],
      "MarketNotListed(address)": [
        {
          "notice": "Error thrown when the specified market is not listed."
        }
      ],
      "Unauthorized(address,address,string)": [
        {
          "notice": "Thrown when the action is prohibited by AccessControlManager"
        }
      ]
    },
    "events": {
      "DynamicCloseFactorEnabledSet(address,bool)": {
        "notice": "Emitted when the dynamic close factor is enabled or disabled for a market."
      },
      "DynamicLiquidationIncentiveEnabledSet(address,bool)": {
        "notice": "Emitted when the dynamic liquidation incentive is enabled or disabled for a market."
      },
      "NewAccessControlManager(address,address)": {
        "notice": "Emitted when access control manager contract address is changed"
      }
    },
    "kind": "user",
    "methods": {
      "accessControlManager()": {
        "notice": "Returns the address of the access control manager contract"
      },
      "baseCloseFactorMantissa()": {
        "notice": "Base close factor, scaled by 1e18 (e.g., 0.05e18 for 5%)"
      },
      "calculateDynamicCloseFactor(address,uint256,uint256,uint256,uint256,uint256)": {
        "notice": "Calculate the close factor for a liquidation"
      },
      "calculateDynamicLiquidationIncentive(address,uint256,uint256,uint256)": {
        "notice": "Calculate the dynamic liquidation incentive based on health factor and average liquidation threshold"
      },
      "constructor": {
        "notice": "Constructor for the LiquidationManager contract."
      },
      "defaultCloseFactorMantissa()": {
        "notice": "Default close factor, scaled by 1e18 (e.g., 5e17 for 50%)"
      },
      "dynamicCloseFactorEnabled(address)": {
        "notice": "Indicates whether the dynamic close factor is enabled for a given market."
      },
      "dynamicLiquidationIncentiveEnabled(address)": {
        "notice": "Indicates whether the dynamic liquidation incentive is enabled for a given market."
      },
      "initialize(address)": {
        "notice": "Initializes the contract with the access control manager."
      },
      "setAccessControlManager(address)": {
        "notice": "Sets the address of AccessControlManager"
      },
      "setDynamicCloseFactorEnabled(address,bool)": {
        "notice": "Enables or disables the dynamic close factor for a specific market."
      },
      "setDynamicLiquidationIncentiveEnabled(address,bool)": {
        "notice": "Enables or disables the dynamic liquidation incentive for a specific market."
      },
      "targetHealthFactor()": {
        "notice": "Target health factor, scaled by 1e18 (e.g., 1.5e18 for 1.5)"
      }
    },
    "notice": "This contract is designed to be used in conjunction with the venus protocol's liquidation process.",
    "version": 1
  },
  "storageLayout": {
    "storage": [
      {
        "astId": 246,
        "contract": "contracts/LiquidationManager.sol:LiquidationManager",
        "label": "_initialized",
        "offset": 0,
        "slot": "0",
        "type": "t_uint8"
      },
      {
        "astId": 249,
        "contract": "contracts/LiquidationManager.sol:LiquidationManager",
        "label": "_initializing",
        "offset": 1,
        "slot": "0",
        "type": "t_bool"
      },
      {
        "astId": 1516,
        "contract": "contracts/LiquidationManager.sol:LiquidationManager",
        "label": "__gap",
        "offset": 0,
        "slot": "1",
        "type": "t_array(t_uint256)50_storage"
      },
      {
        "astId": 118,
        "contract": "contracts/LiquidationManager.sol:LiquidationManager",
        "label": "_owner",
        "offset": 0,
        "slot": "51",
        "type": "t_address"
      },
      {
        "astId": 238,
        "contract": "contracts/LiquidationManager.sol:LiquidationManager",
        "label": "__gap",
        "offset": 0,
        "slot": "52",
        "type": "t_array(t_uint256)49_storage"
      },
      {
        "astId": 11,
        "contract": "contracts/LiquidationManager.sol:LiquidationManager",
        "label": "_pendingOwner",
        "offset": 0,
        "slot": "101",
        "type": "t_address"
      },
      {
        "astId": 105,
        "contract": "contracts/LiquidationManager.sol:LiquidationManager",
        "label": "__gap",
        "offset": 0,
        "slot": "102",
        "type": "t_array(t_uint256)49_storage"
      },
      {
        "astId": 5863,
        "contract": "contracts/LiquidationManager.sol:LiquidationManager",
        "label": "_accessControlManager",
        "offset": 0,
        "slot": "151",
        "type": "t_contract(IAccessControlManagerV8)6048"
      },
      {
        "astId": 5868,
        "contract": "contracts/LiquidationManager.sol:LiquidationManager",
        "label": "__gap",
        "offset": 0,
        "slot": "152",
        "type": "t_array(t_uint256)49_storage"
      },
      {
        "astId": 24093,
        "contract": "contracts/LiquidationManager.sol:LiquidationManager",
        "label": "dynamicCloseFactorEnabled",
        "offset": 0,
        "slot": "201",
        "type": "t_mapping(t_address,t_bool)"
      },
      {
        "astId": 24098,
        "contract": "contracts/LiquidationManager.sol:LiquidationManager",
        "label": "dynamicLiquidationIncentiveEnabled",
        "offset": 0,
        "slot": "202",
        "type": "t_mapping(t_address,t_bool)"
      }
    ],
    "types": {
      "t_address": {
        "encoding": "inplace",
        "label": "address",
        "numberOfBytes": "20"
      },
      "t_array(t_uint256)49_storage": {
        "base": "t_uint256",
        "encoding": "inplace",
        "label": "uint256[49]",
        "numberOfBytes": "1568"
      },
      "t_array(t_uint256)50_storage": {
        "base": "t_uint256",
        "encoding": "inplace",
        "label": "uint256[50]",
        "numberOfBytes": "1600"
      },
      "t_bool": {
        "encoding": "inplace",
        "label": "bool",
        "numberOfBytes": "1"
      },
      "t_contract(IAccessControlManagerV8)6048": {
        "encoding": "inplace",
        "label": "contract IAccessControlManagerV8",
        "numberOfBytes": "20"
      },
      "t_mapping(t_address,t_bool)": {
        "encoding": "mapping",
        "key": "t_address",
        "label": "mapping(address => bool)",
        "numberOfBytes": "32",
        "value": "t_bool"
      },
      "t_uint256": {
        "encoding": "inplace",
        "label": "uint256",
        "numberOfBytes": "32"
      },
      "t_uint8": {
        "encoding": "inplace",
        "label": "uint8",
        "numberOfBytes": "1"
      }
    }
  }
}