{
  "address": "0x549ECe7d8Fe25343189EB09F6214B0d9Bc072F06",
  "abi": [
    {
      "inputs": [
        {
          "internalType": "address",
          "name": "comptroller_",
          "type": "address"
        },
        {
          "internalType": "address payable",
          "name": "vBnb_",
          "type": "address"
        },
        {
          "internalType": "address",
          "name": "wBNB_",
          "type": "address"
        },
        {
          "internalType": "address",
          "name": "comptrollerLens_",
          "type": "address"
        }
      ],
      "stateMutability": "nonpayable",
      "type": "constructor"
    },
    {
      "inputs": [
        {
          "internalType": "address",
          "name": "borrower",
          "type": "address"
        },
        {
          "internalType": "address",
          "name": "liquidator",
          "type": "address"
        }
      ],
      "name": "AllowlistEntryNotFound",
      "type": "error"
    },
    {
      "inputs": [
        {
          "internalType": "address",
          "name": "borrower",
          "type": "address"
        },
        {
          "internalType": "address",
          "name": "liquidator",
          "type": "address"
        }
      ],
      "name": "AlreadyAllowed",
      "type": "error"
    },
    {
      "inputs": [
        {
          "internalType": "address",
          "name": "borrower",
          "type": "address"
        }
      ],
      "name": "AlreadyRestricted",
      "type": "error"
    },
    {
      "inputs": [
        {
          "internalType": "uint256",
          "name": "errorCode",
          "type": "uint256"
        }
      ],
      "name": "LiquidationFailed",
      "type": "error"
    },
    {
      "inputs": [
        {
          "internalType": "address",
          "name": "borrower",
          "type": "address"
        },
        {
          "internalType": "address",
          "name": "liquidator",
          "type": "address"
        }
      ],
      "name": "LiquidationNotAllowed",
      "type": "error"
    },
    {
      "inputs": [
        {
          "internalType": "address",
          "name": "vToken",
          "type": "address"
        }
      ],
      "name": "MarketNotListed",
      "type": "error"
    },
    {
      "inputs": [
        {
          "internalType": "address",
          "name": "borrower",
          "type": "address"
        }
      ],
      "name": "NoRestrictionsExist",
      "type": "error"
    },
    {
      "inputs": [
        {
          "internalType": "uint256",
          "name": "errorCode",
          "type": "uint256"
        }
      ],
      "name": "SnapshotError",
      "type": "error"
    },
    {
      "inputs": [
        {
          "internalType": "uint256",
          "name": "maxTreasuryPercentMantissa",
          "type": "uint256"
        },
        {
          "internalType": "uint256",
          "name": "treasuryPercentMantissa_",
          "type": "uint256"
        }
      ],
      "name": "TreasuryPercentTooHigh",
      "type": "error"
    },
    {
      "inputs": [
        {
          "internalType": "address",
          "name": "sender",
          "type": "address"
        },
        {
          "internalType": "address",
          "name": "calledContract",
          "type": "address"
        },
        {
          "internalType": "string",
          "name": "methodSignature",
          "type": "string"
        }
      ],
      "name": "Unauthorized",
      "type": "error"
    },
    {
      "inputs": [
        {
          "internalType": "uint256",
          "name": "vaiDebt",
          "type": "uint256"
        },
        {
          "internalType": "uint256",
          "name": "minLiquidatableVAI",
          "type": "uint256"
        }
      ],
      "name": "VAIDebtTooHigh",
      "type": "error"
    },
    {
      "inputs": [
        {
          "internalType": "address",
          "name": "from",
          "type": "address"
        },
        {
          "internalType": "address",
          "name": "to",
          "type": "address"
        },
        {
          "internalType": "uint256",
          "name": "amount",
          "type": "uint256"
        }
      ],
      "name": "VTokenTransferFailed",
      "type": "error"
    },
    {
      "inputs": [
        {
          "internalType": "uint256",
          "name": "expected",
          "type": "uint256"
        },
        {
          "internalType": "uint256",
          "name": "actual",
          "type": "uint256"
        }
      ],
      "name": "WrongTransactionAmount",
      "type": "error"
    },
    {
      "inputs": [],
      "name": "ZeroAddressNotAllowed",
      "type": "error"
    },
    {
      "anonymous": false,
      "inputs": [
        {
          "indexed": true,
          "internalType": "address",
          "name": "borrower",
          "type": "address"
        },
        {
          "indexed": true,
          "internalType": "address",
          "name": "liquidator",
          "type": "address"
        }
      ],
      "name": "AllowlistEntryAdded",
      "type": "event"
    },
    {
      "anonymous": false,
      "inputs": [
        {
          "indexed": true,
          "internalType": "address",
          "name": "borrower",
          "type": "address"
        },
        {
          "indexed": true,
          "internalType": "address",
          "name": "liquidator",
          "type": "address"
        }
      ],
      "name": "AllowlistEntryRemoved",
      "type": "event"
    },
    {
      "anonymous": false,
      "inputs": [
        {
          "indexed": true,
          "internalType": "address",
          "name": "sender",
          "type": "address"
        }
      ],
      "name": "ForceVAILiquidationPaused",
      "type": "event"
    },
    {
      "anonymous": false,
      "inputs": [
        {
          "indexed": true,
          "internalType": "address",
          "name": "sender",
          "type": "address"
        }
      ],
      "name": "ForceVAILiquidationResumed",
      "type": "event"
    },
    {
      "anonymous": false,
      "inputs": [
        {
          "indexed": false,
          "internalType": "uint8",
          "name": "version",
          "type": "uint8"
        }
      ],
      "name": "Initialized",
      "type": "event"
    },
    {
      "anonymous": false,
      "inputs": [
        {
          "indexed": true,
          "internalType": "address",
          "name": "liquidator",
          "type": "address"
        },
        {
          "indexed": true,
          "internalType": "address",
          "name": "borrower",
          "type": "address"
        },
        {
          "indexed": false,
          "internalType": "uint256",
          "name": "repayAmount",
          "type": "uint256"
        },
        {
          "indexed": false,
          "internalType": "address",
          "name": "vTokenBorrowed",
          "type": "address"
        },
        {
          "indexed": true,
          "internalType": "address",
          "name": "vTokenCollateral",
          "type": "address"
        },
        {
          "indexed": false,
          "internalType": "uint256",
          "name": "seizeTokensForTreasury",
          "type": "uint256"
        },
        {
          "indexed": false,
          "internalType": "uint256",
          "name": "seizeTokensForLiquidator",
          "type": "uint256"
        }
      ],
      "name": "LiquidateBorrowedTokens",
      "type": "event"
    },
    {
      "anonymous": false,
      "inputs": [
        {
          "indexed": true,
          "internalType": "address",
          "name": "borrower",
          "type": "address"
        }
      ],
      "name": "LiquidationRestricted",
      "type": "event"
    },
    {
      "anonymous": false,
      "inputs": [
        {
          "indexed": true,
          "internalType": "address",
          "name": "borrower",
          "type": "address"
        }
      ],
      "name": "LiquidationRestrictionsDisabled",
      "type": "event"
    },
    {
      "anonymous": false,
      "inputs": [
        {
          "indexed": false,
          "internalType": "address",
          "name": "oldAccessControlManager",
          "type": "address"
        },
        {
          "indexed": false,
          "internalType": "address",
          "name": "newAccessControlManager",
          "type": "address"
        }
      ],
      "name": "NewAccessControlManager",
      "type": "event"
    },
    {
      "anonymous": false,
      "inputs": [
        {
          "indexed": false,
          "internalType": "uint256",
          "name": "oldPercent",
          "type": "uint256"
        },
        {
          "indexed": false,
          "internalType": "uint256",
          "name": "newPercent",
          "type": "uint256"
        }
      ],
      "name": "NewLiquidationTreasuryPercent",
      "type": "event"
    },
    {
      "anonymous": false,
      "inputs": [
        {
          "indexed": false,
          "internalType": "uint256",
          "name": "oldMinLiquidatableVAI",
          "type": "uint256"
        },
        {
          "indexed": false,
          "internalType": "uint256",
          "name": "newMinLiquidatableVAI",
          "type": "uint256"
        }
      ],
      "name": "NewMinLiquidatableVAI",
      "type": "event"
    },
    {
      "anonymous": false,
      "inputs": [
        {
          "indexed": false,
          "internalType": "uint256",
          "name": "oldPendingRedeemChunkLength",
          "type": "uint256"
        },
        {
          "indexed": false,
          "internalType": "uint256",
          "name": "newPendingRedeemChunkLength",
          "type": "uint256"
        }
      ],
      "name": "NewPendingRedeemChunkLength",
      "type": "event"
    },
    {
      "anonymous": false,
      "inputs": [
        {
          "indexed": true,
          "internalType": "address",
          "name": "oldProtocolShareReserve",
          "type": "address"
        },
        {
          "indexed": true,
          "internalType": "address",
          "name": "newProtocolShareReserves",
          "type": "address"
        }
      ],
      "name": "NewProtocolShareReserve",
      "type": "event"
    },
    {
      "anonymous": false,
      "inputs": [
        {
          "indexed": true,
          "internalType": "address",
          "name": "previousOwner",
          "type": "address"
        },
        {
          "indexed": true,
          "internalType": "address",
          "name": "newOwner",
          "type": "address"
        }
      ],
      "name": "OwnershipTransferStarted",
      "type": "event"
    },
    {
      "anonymous": false,
      "inputs": [
        {
          "indexed": true,
          "internalType": "address",
          "name": "previousOwner",
          "type": "address"
        },
        {
          "indexed": true,
          "internalType": "address",
          "name": "newOwner",
          "type": "address"
        }
      ],
      "name": "OwnershipTransferred",
      "type": "event"
    },
    {
      "anonymous": false,
      "inputs": [
        {
          "indexed": true,
          "internalType": "address",
          "name": "sender",
          "type": "address"
        },
        {
          "indexed": true,
          "internalType": "address",
          "name": "token",
          "type": "address"
        },
        {
          "indexed": false,
          "internalType": "uint256",
          "name": "reducedAmount",
          "type": "uint256"
        }
      ],
      "name": "ProtocolLiquidationIncentiveTransferred",
      "type": "event"
    },
    {
      "inputs": [],
      "name": "acceptOwnership",
      "outputs": [],
      "stateMutability": "nonpayable",
      "type": "function"
    },
    {
      "inputs": [],
      "name": "accessControlManager",
      "outputs": [
        {
          "internalType": "contract IAccessControlManagerV8",
          "name": "",
          "type": "address"
        }
      ],
      "stateMutability": "view",
      "type": "function"
    },
    {
      "inputs": [
        {
          "internalType": "address",
          "name": "borrower",
          "type": "address"
        },
        {
          "internalType": "address",
          "name": "liquidator",
          "type": "address"
        }
      ],
      "name": "addToAllowlist",
      "outputs": [],
      "stateMutability": "nonpayable",
      "type": "function"
    },
    {
      "inputs": [
        {
          "internalType": "address",
          "name": "",
          "type": "address"
        },
        {
          "internalType": "address",
          "name": "",
          "type": "address"
        }
      ],
      "name": "allowedLiquidatorsByAccount",
      "outputs": [
        {
          "internalType": "bool",
          "name": "",
          "type": "bool"
        }
      ],
      "stateMutability": "view",
      "type": "function"
    },
    {
      "inputs": [],
      "name": "comptroller",
      "outputs": [
        {
          "internalType": "contract IComptroller",
          "name": "",
          "type": "address"
        }
      ],
      "stateMutability": "view",
      "type": "function"
    },
    {
      "inputs": [],
      "name": "comptrollerLens",
      "outputs": [
        {
          "internalType": "contract ComptrollerLensInterface",
          "name": "",
          "type": "address"
        }
      ],
      "stateMutability": "view",
      "type": "function"
    },
    {
      "inputs": [],
      "name": "forceVAILiquidate",
      "outputs": [
        {
          "internalType": "bool",
          "name": "",
          "type": "bool"
        }
      ],
      "stateMutability": "view",
      "type": "function"
    },
    {
      "inputs": [
        {
          "internalType": "uint256",
          "name": "treasuryPercentMantissa_",
          "type": "uint256"
        },
        {
          "internalType": "address",
          "name": "accessControlManager_",
          "type": "address"
        },
        {
          "internalType": "address",
          "name": "protocolShareReserve_",
          "type": "address"
        }
      ],
      "name": "initialize",
      "outputs": [],
      "stateMutability": "nonpayable",
      "type": "function"
    },
    {
      "inputs": [
        {
          "internalType": "address",
          "name": "vToken",
          "type": "address"
        },
        {
          "internalType": "address",
          "name": "borrower",
          "type": "address"
        },
        {
          "internalType": "uint256",
          "name": "repayAmount",
          "type": "uint256"
        },
        {
          "internalType": "contract IVToken",
          "name": "vTokenCollateral",
          "type": "address"
        }
      ],
      "name": "liquidateBorrow",
      "outputs": [],
      "stateMutability": "payable",
      "type": "function"
    },
    {
      "inputs": [
        {
          "internalType": "address",
          "name": "",
          "type": "address"
        }
      ],
      "name": "liquidationRestricted",
      "outputs": [
        {
          "internalType": "bool",
          "name": "",
          "type": "bool"
        }
      ],
      "stateMutability": "view",
      "type": "function"
    },
    {
      "inputs": [],
      "name": "minLiquidatableVAI",
      "outputs": [
        {
          "internalType": "uint256",
          "name": "",
          "type": "uint256"
        }
      ],
      "stateMutability": "view",
      "type": "function"
    },
    {
      "inputs": [],
      "name": "owner",
      "outputs": [
        {
          "internalType": "address",
          "name": "",
          "type": "address"
        }
      ],
      "stateMutability": "view",
      "type": "function"
    },
    {
      "inputs": [],
      "name": "pauseForceVAILiquidate",
      "outputs": [],
      "stateMutability": "nonpayable",
      "type": "function"
    },
    {
      "inputs": [],
      "name": "pendingOwner",
      "outputs": [
        {
          "internalType": "address",
          "name": "",
          "type": "address"
        }
      ],
      "stateMutability": "view",
      "type": "function"
    },
    {
      "inputs": [
        {
          "internalType": "uint256",
          "name": "",
          "type": "uint256"
        }
      ],
      "name": "pendingRedeem",
      "outputs": [
        {
          "internalType": "address",
          "name": "",
          "type": "address"
        }
      ],
      "stateMutability": "view",
      "type": "function"
    },
    {
      "inputs": [],
      "name": "protocolShareReserve",
      "outputs": [
        {
          "internalType": "address",
          "name": "",
          "type": "address"
        }
      ],
      "stateMutability": "view",
      "type": "function"
    },
    {
      "inputs": [],
      "name": "reduceReserves",
      "outputs": [],
      "stateMutability": "nonpayable",
      "type": "function"
    },
    {
      "inputs": [
        {
          "internalType": "address",
          "name": "borrower",
          "type": "address"
        },
        {
          "internalType": "address",
          "name": "liquidator",
          "type": "address"
        }
      ],
      "name": "removeFromAllowlist",
      "outputs": [],
      "stateMutability": "nonpayable",
      "type": "function"
    },
    {
      "inputs": [],
      "name": "renounceOwnership",
      "outputs": [],
      "stateMutability": "nonpayable",
      "type": "function"
    },
    {
      "inputs": [
        {
          "internalType": "address",
          "name": "borrower",
          "type": "address"
        }
      ],
      "name": "restrictLiquidation",
      "outputs": [],
      "stateMutability": "nonpayable",
      "type": "function"
    },
    {
      "inputs": [],
      "name": "resumeForceVAILiquidate",
      "outputs": [],
      "stateMutability": "nonpayable",
      "type": "function"
    },
    {
      "inputs": [
        {
          "internalType": "address",
          "name": "accessControlManager_",
          "type": "address"
        }
      ],
      "name": "setAccessControlManager",
      "outputs": [],
      "stateMutability": "nonpayable",
      "type": "function"
    },
    {
      "inputs": [
        {
          "internalType": "uint256",
          "name": "minLiquidatableVAI_",
          "type": "uint256"
        }
      ],
      "name": "setMinLiquidatableVAI",
      "outputs": [],
      "stateMutability": "nonpayable",
      "type": "function"
    },
    {
      "inputs": [
        {
          "internalType": "uint256",
          "name": "newLength_",
          "type": "uint256"
        }
      ],
      "name": "setPendingRedeemChunkLength",
      "outputs": [],
      "stateMutability": "nonpayable",
      "type": "function"
    },
    {
      "inputs": [
        {
          "internalType": "address payable",
          "name": "protocolShareReserve_",
          "type": "address"
        }
      ],
      "name": "setProtocolShareReserve",
      "outputs": [],
      "stateMutability": "nonpayable",
      "type": "function"
    },
    {
      "inputs": [
        {
          "internalType": "uint256",
          "name": "newTreasuryPercentMantissa",
          "type": "uint256"
        }
      ],
      "name": "setTreasuryPercent",
      "outputs": [],
      "stateMutability": "nonpayable",
      "type": "function"
    },
    {
      "inputs": [
        {
          "internalType": "address",
          "name": "newOwner",
          "type": "address"
        }
      ],
      "name": "transferOwnership",
      "outputs": [],
      "stateMutability": "nonpayable",
      "type": "function"
    },
    {
      "inputs": [],
      "name": "treasuryPercentMantissa",
      "outputs": [
        {
          "internalType": "uint256",
          "name": "",
          "type": "uint256"
        }
      ],
      "stateMutability": "view",
      "type": "function"
    },
    {
      "inputs": [
        {
          "internalType": "address",
          "name": "borrower",
          "type": "address"
        }
      ],
      "name": "unrestrictLiquidation",
      "outputs": [],
      "stateMutability": "nonpayable",
      "type": "function"
    },
    {
      "inputs": [],
      "name": "vBnb",
      "outputs": [
        {
          "internalType": "contract IVBNB",
          "name": "",
          "type": "address"
        }
      ],
      "stateMutability": "view",
      "type": "function"
    },
    {
      "inputs": [],
      "name": "vaiController",
      "outputs": [
        {
          "internalType": "contract IVAIController",
          "name": "",
          "type": "address"
        }
      ],
      "stateMutability": "view",
      "type": "function"
    },
    {
      "inputs": [],
      "name": "wBNB",
      "outputs": [
        {
          "internalType": "address",
          "name": "",
          "type": "address"
        }
      ],
      "stateMutability": "view",
      "type": "function"
    },
    {
      "stateMutability": "payable",
      "type": "receive"
    }
  ],
  "transactionHash": "0x0043eec8a7c87bb104a0b5e595a00b90a787e46d54802910076b3cdee50d1e03",
  "args": [
    "0x94d1820b2D1c7c7452A163983Dc888CEC546b77D",
    "0x2E7222e51c0f6e98610A1543Aa3836E092CDe62c",
    "0xae13d989daC2f0dEbFf460aC112a837C89BAa7cd",
    "0x8AEA11B6b414Ce39F086563CeFA4e154368f9eFb"
  ],
  "numDeployments": 2,
  "solcInputHash": "afad615deb23556b23fa1a0101f6bced",
  "bytecode": "0x610120604052348015610010575f80fd5b5060405161357338038061357383398101604081905261002f916101ea565b610038836100f0565b610041846100f0565b61004a826100f0565b610053816100f0565b6001600160a01b0380841660805282811660e05284811660a08190529082166101005260408051639254f5e560e01b81529051639254f5e5916004808201926020929091908290030181865afa1580156100af573d5f803e3d5ffd5b505050506040513d601f19601f820116820180604052508101906100d39190610246565b6001600160a01b031660c0526100e761011a565b50505050610268565b6001600160a01b038116610117576040516342bcdf7f60e11b815260040160405180910390fd5b50565b5f54610100900460ff16156101855760405162461bcd60e51b815260206004820152602760248201527f496e697469616c697a61626c653a20636f6e747261637420697320696e697469604482015266616c697a696e6760c81b606482015260840160405180910390fd5b5f5460ff908116146101d4575f805460ff191660ff9081179091556040519081527f7f26b83ff96e1f2b6a682f133852f6798a09c465da95921460cefb38474024989060200160405180910390a15b565b6001600160a01b0381168114610117575f80fd5b5f805f80608085870312156101fd575f80fd5b8451610208816101d6565b6020860151909450610219816101d6565b604086015190935061022a816101d6565b606086015190925061023b816101d6565b939692955090935050565b5f60208284031215610256575f80fd5b8151610261816101d6565b9392505050565b60805160a05160c05160e0516101005161321f6103545f395f818161056d01526116ee01525f818161053a01528181612584015281816126010152818161267701526126dd01525f818161045501528181610be1015281816117f401528181611893015281816119ca01528181611a3401528181611ad801528181611b0c0152611b4a01525f818161033e01528181610906015281816109e80152818161171d015281816118640152818161193401528181611bf901528181612655015261284301525f81816102f301528181610ad201528181610b5901528181611f1c0152612039015261321f5ff3fe6080604052600436106101de575f3560e01c80638da5cb5b116100fd578063b8332db711610092578063e9a44fd911610062578063e9a44fd9146105ac578063f2fde38b146105cb578063f52421b3146105ea578063f7dcd96e14610609575f80fd5b8063b8332db714610515578063d02eb3f414610529578063d3270f991461055c578063e30c39781461058f575f80fd5b8063b09c7742116100cd578063b09c774214610496578063b26461de146104aa578063b4988fd0146104d8578063b4a0bdf3146104f7575f80fd5b80638da5cb5b146104125780638e3525fc1461042f5780639254f5e514610444578063a093796a14610477575f80fd5b80635fe3b567116101735780637debe3fe116101435780637debe3fe146103925780638722ddf2146103b15780638765adcb146103d457806389a2bc25146103f3575f80fd5b80635fe3b5671461032d57806364fd707814610360578063715018a61461037357806379ba50971461037e575f80fd5b806336eab4ae116101ae57806336eab4ae1461025c57806344b3716a1461028a57806347a6a971146102c35780635ba3792d146102e2575f80fd5b80630d060ea8146101e95780630e32cb86146101ff578063107568df1461021e57806311ec4b7a1461023d575f80fd5b366101e557005b5f80fd5b3480156101f4575f80fd5b506101fd610628565b005b34801561020a575f80fd5b506101fd610219366004612c7b565b610706565b348015610229575f80fd5b506101fd610238366004612c7b565b61071a565b348015610248575f80fd5b506101fd610257366004612c7b565b61072b565b348015610267575f80fd5b5060cd546102759060ff1681565b60405190151581526020015b60405180910390f35b348015610295575f80fd5b506102756102a4366004612c9d565b60ca60209081525f928352604080842090915290825290205460ff1681565b3480156102ce575f80fd5b506101fd6102dd366004612c9d565b6107f8565b3480156102ed575f80fd5b506103157f000000000000000000000000000000000000000000000000000000000000000081565b6040516001600160a01b039091168152602001610281565b348015610338575f80fd5b506103157f000000000000000000000000000000000000000000000000000000000000000081565b6101fd61036e366004612cd4565b6108ca565b3480156101fd575f80fd5b348015610389575f80fd5b506101fd610d35565b34801561039d575f80fd5b506101fd6103ac366004612c9d565b610dac565b3480156103bc575f80fd5b506103c660cc5481565b604051908152602001610281565b3480156103df575f80fd5b506101fd6103ee366004612c7b565b610e9f565b3480156103fe575f80fd5b506101fd61040d366004612d24565b610f68565b34801561041d575f80fd5b506033546001600160a01b0316610315565b34801561043a575f80fd5b506103c660c95481565b34801561044f575f80fd5b506103157f000000000000000000000000000000000000000000000000000000000000000081565b348015610482575f80fd5b506101fd610491366004612d24565b610ff0565b3480156104a1575f80fd5b506101fd611096565b3480156104b5575f80fd5b506102756104c4366004612c7b565b60cb6020525f908152604090205460ff1681565b3480156104e3575f80fd5b506101fd6104f2366004612d3b565b611174565b348015610502575f80fd5b50610102546001600160a01b0316610315565b348015610520575f80fd5b506101fd61125b565b348015610534575f80fd5b506103157f000000000000000000000000000000000000000000000000000000000000000081565b348015610567575f80fd5b506103157f000000000000000000000000000000000000000000000000000000000000000081565b34801561059a575f80fd5b506065546001600160a01b0316610315565b3480156105b7575f80fd5b5060cf54610315906001600160a01b031681565b3480156105d6575f80fd5b506101fd6105e5366004612c7b565b611275565b3480156105f5575f80fd5b506101fd610604366004612d24565b6112e6565b348015610614575f80fd5b50610315610623366004612d24565b611365565b6106666040518060400160405280601881526020017f7061757365466f7263655641494c69717569646174652829000000000000000081525061138d565b60cd5460ff166106d05760405162461bcd60e51b815260206004820152602a60248201527f466f726365204c69717569646174696f6e206f662056414920697320616c726560448201526918591e4814185d5cd95960b21b60648201526084015b60405180910390fd5b60cd805460ff1916905560405133907f42388332be4beb2ad2ff83017119b9d702ce7fbaf67e18e53a137508cf967e43905f90a2565b61070e611429565b61071781611483565b50565b610722611429565b61071781611549565b6107696040518060400160405280601c81526020017f72657374726963744c69717569646174696f6e2861646472657373290000000081525061138d565b6001600160a01b0381165f90815260cb602052604090205460ff16156107ad5760405163404fe9fb60e11b81526001600160a01b03821660048201526024016106c7565b6001600160a01b0381165f81815260cb6020526040808220805460ff19166001179055517f614c47c82976e8f145409efb6366fe2cefa323f389ed9354649262e38dbb35899190a250565b6108196040518060600160405280602481526020016131a26024913961138d565b6001600160a01b038083165f90815260ca602090815260408083209385168352929052205460ff166108715760405163435aad4360e01b81526001600160a01b038084166004830152821660248201526044016106c7565b6001600160a01b038083165f81815260ca6020908152604080832094861680845294909152808220805460ff19169055517f6b0d38eafddac0d37e0aff8f4bbd5f3a3cfe124b8eabea27558bffc931ac05b59190a35050565b6108d26115ad565b6108db83611606565b6108e5833361162d565b604051638e8f294b60e01b81526001600160a01b0382811660048301525f917f000000000000000000000000000000000000000000000000000000000000000090911690638e8f294b90602401606060405180830381865afa15801561094d573d5f803e3d5ffd5b505050506040513d601f19601f820116820180604052508101906109719190612d8e565b505090508061099e57604051635a9a1eb960e11b81526001600160a01b03831660048201526024016106c7565b5f6109aa8584866116aa565b60a081015160c0820151604051630f645d0160e11b81526001600160a01b038781166004830152602482019390935260448101919091529192505f917f000000000000000000000000000000000000000000000000000000000000000090911690631ec8ba0290606401602060405180830381865afa158015610a2f573d5f803e3d5ffd5b505050506040513d601f19601f82011682018060405250810190610a539190612dc7565b60e083018190529050610a6687876117d3565b6040516370a0823160e01b81523060048201525f906001600160a01b038616906370a0823190602401602060405180830381865afa158015610aaa573d5f803e3d5ffd5b505050506040513d601f19601f82011682018060405250810190610ace9190612dc7565b90507f00000000000000000000000000000000000000000000000000000000000000006001600160a01b0316886001600160a01b031603610bb857348614610b325760405163dd97100160e01b8152600481018790523460248201526044016106c7565b604051635572051560e11b81526001600160a01b03888116600483015286811660248301527f0000000000000000000000000000000000000000000000000000000000000000169063aae40a2a9034906044015f604051808303818588803b158015610b9c575f80fd5b505af1158015610bae573d5f803e3d5ffd5b5050505050610c36565b3415610bdf5760405163dd97100160e01b81525f60048201523460248201526044016106c7565b7f00000000000000000000000000000000000000000000000000000000000000006001600160a01b0316886001600160a01b031603610c2957610c2487878786611a31565b610c36565b610c368888888887611bd8565b6040516370a0823160e01b81523060048201525f906001600160a01b038716906370a0823190602401602060405180830381865afa158015610c7a573d5f803e3d5ffd5b505050506040513d601f19601f82011682018060405250810190610c9e9190612dc7565b90505f80610cb688610cb08686612df2565b87611db0565b91509150610cc2611f71565b604080518a81526001600160a01b038d8116602083015291810184905260608101839052818a16918c169033907fdd091524d794aecdb5235b2d816620c2598790835e0f3849808504c2dcb4f1a99060800160405180910390a450505050505050610d2d6001609755565b50505050565b565b60655433906001600160a01b03168114610da35760405162461bcd60e51b815260206004820152602960248201527f4f776e61626c6532537465703a2063616c6c6572206973206e6f7420746865206044820152683732bb9037bbb732b960b91b60648201526084016106c7565b6107178161214a565b610dea6040518060400160405280601f81526020017f616464546f416c6c6f776c69737428616464726573732c61646472657373290081525061138d565b6001600160a01b038083165f90815260ca602090815260408083209385168352929052205460ff1615610e435760405163071df39160e01b81526001600160a01b038084166004830152821660248201526044016106c7565b6001600160a01b038083165f81815260ca6020908152604080832094861680845294909152808220805460ff19166001179055517ffe40417b78788808c927141f806ef5082e7bba0f7790f2e85b811621a91094339190a35050565b610edd6040518060400160405280601e81526020017f756e72657374726963744c69717569646174696f6e286164647265737329000081525061138d565b6001600160a01b0381165f90815260cb602052604090205460ff16610f2057604051633bf9d98960e11b81526001600160a01b03821660048201526024016106c7565b6001600160a01b0381165f81815260cb6020526040808220805460ff19169055517fe1f03de94d16c262d2f0e89a1c42ede8899d540ac992cf53495a5cf29c2896af9190a250565b610fa66040518060400160405280601b81526020017f736574547265617375727950657263656e742875696e7432353629000000000081525061138d565b610faf81612163565b60c95460408051918252602082018390527f0e9a1641744b21c49e4183ab9ce941d420e05a05a446c71875fb07814f362c1a910160405180910390a160c955565b6110116040518060600160405280602481526020016131c66024913961138d565b5f81116110555760405162461bcd60e51b8152602060048201526012602482015271496e76616c6964206368756e6b2073697a6560701b60448201526064016106c7565b60d05460408051918252602082018390527fe5eef53e396f0cb79322e15e72b6c6613ae3e62c9079f5a12f2c410867c28b2c910160405180910390a160d055565b6110d46040518060400160405280601981526020017f726573756d65466f7263655641494c697175696461746528290000000000000081525061138d565b60cd5460ff161561113b5760405162461bcd60e51b815260206004820152602b60248201527f466f726365204c69717569646174696f6e206f662056414920697320616c726560448201526a18591e481c995cdd5b595960aa1b60648201526084016106c7565b60cd805460ff1916600117905560405133907fd4b8f320ada24d048ee6c25c53a31aa20b2ea37fa25542e6e239c80d31d5b60b905f90a2565b5f54600290610100900460ff1615801561119457505f5460ff8083169116105b6111f75760405162461bcd60e51b815260206004820152602e60248201527f496e697469616c697a61626c653a20636f6e747261637420697320616c72656160448201526d191e481a5b9a5d1a585b1a5e995960921b60648201526084016106c7565b5f805461ffff191660ff83161761010017905561121584848461219d565b5f805461ff001916905560405160ff821681527f7f26b83ff96e1f2b6a682f133852f6798a09c465da95921460cefb38474024989060200160405180910390a150505050565b6112636115ad565b61126b611f71565b610d336001609755565b61127d611429565b606580546001600160a01b0383166001600160a01b031990911681179091556112ae6033546001600160a01b031690565b6001600160a01b03167f38d16b8cac22d99fc7c124b9cd0de2d3fa1faef420bfe791d8c362d765e2270060405160405180910390a350565b6113246040518060400160405280601e81526020017f7365744d696e4c6971756964617461626c655641492875696e7432353629000081525061138d565b60cc5460408051918252602082018390527f8df018dc5fe866d192a3f4d9f16dbfdb38f58a7470a65b92262ccc008c55fff0910160405180910390a160cc55565b60ce8181548110611374575f80fd5b5f918252602090912001546001600160a01b0316905081565b610102546040516318c5e8ab60e01b81525f916001600160a01b0316906318c5e8ab906113c09033908690600401612e33565b602060405180830381865afa1580156113db573d5f803e3d5ffd5b505050506040513d601f19601f820116820180604052508101906113ff9190612e56565b90508061142557333083604051634a3fa29360e01b81526004016106c793929190612e6f565b5050565b6033546001600160a01b03163314610d335760405162461bcd60e51b815260206004820181905260248201527f4f776e61626c653a2063616c6c6572206973206e6f7420746865206f776e657260448201526064016106c7565b6001600160a01b0381166114e75760405162461bcd60e51b815260206004820152602560248201527f696e76616c696420616365737320636f6e74726f6c206d616e61676572206164604482015264647265737360d81b60648201526084016106c7565b61010280546001600160a01b038381166001600160a01b031983168117909355604080519190921680825260208201939093527f66fd58e82f7b31a2a5c30e0888f3093efe4e111b00cd2b0c31fe014601293aa0910160405180910390a15050565b61155281611606565b60cf546040516001600160a01b038084169216907fafec95c8612496c3ecf5dddc71e393528fe29bd145fbaf9c6b496d78d7e2d79b905f90a360cf80546001600160a01b0319166001600160a01b0392909216919091179055565b6002609754036115ff5760405162461bcd60e51b815260206004820152601f60248201527f5265656e7472616e637947756172643a207265656e7472616e742063616c6c0060448201526064016106c7565b6002609755565b6001600160a01b038116610717576040516342bcdf7f60e11b815260040160405180910390fd5b6001600160a01b0382165f90815260cb602052604090205460ff16801561167957506001600160a01b038083165f90815260ca602090815260408083209385168352929052205460ff16155b156114255760405163074c80eb60e51b81526001600160a01b038084166004830152821660248201526044016106c7565b6116ea6040518061010001604052805f81526020015f81526020015f81526020015f81526020015f81526020015f81526020015f81526020015f81525090565b5f807f00000000000000000000000000000000000000000000000000000000000000006001600160a01b03166376bde0117f000000000000000000000000000000000000000000000000000000000000000088885f8960016040518763ffffffff1660e01b815260040161176396959493929190612eae565b61012060405180830381865afa15801561177f573d5f803e3d5ffd5b505050506040513d601f19601f820116820180604052508101906117a39190612efd565b91509150815f146117ca57604051639678800960e01b8152600481018390526024016106c7565b95945050505050565b604051633c617c9160e11b81526001600160a01b0382811660048301525f917f0000000000000000000000000000000000000000000000000000000000000000909116906378c2f92290602401602060405180830381865afa15801561183b573d5f803e3d5ffd5b505050506040513d601f19601f8201168201806040525081019061185f9190612dc7565b90505f7f00000000000000000000000000000000000000000000000000000000000000006001600160a01b031663e85a29607f000000000000000000000000000000000000000000000000000000000000000060056040518363ffffffff1660e01b81526004016118d1929190612fb4565b602060405180830381865afa1580156118ec573d5f803e3d5ffd5b505050506040513d601f19601f820116820180604052508101906119109190612e56565b60405163460d60c560e11b81526001600160a01b0386811660048301529192505f917f00000000000000000000000000000000000000000000000000000000000000001690638c1ac18a90602401602060405180830381865afa158015611979573d5f803e3d5ffd5b505050506040513d601f19601f8201168201806040525081019061199d9190612e56565b905080806119a85750815b806119b6575060cd5460ff16155b806119c2575060cc5483105b806119fe57507f00000000000000000000000000000000000000000000000000000000000000006001600160a01b0316856001600160a01b0316145b15611a0a575050505050565b60cc546040516329eb1e8760e01b81526106c7918591600401918252602082015260400190565b5f7f00000000000000000000000000000000000000000000000000000000000000006001600160a01b031663cbeb2b286040518163ffffffff1660e01b8152600401602060405180830381865afa158015611a8e573d5f803e3d5ffd5b505050506040513d601f19601f82011682018060405250810190611ab29190612fe1565b9050611ac96001600160a01b0382163330876121e6565b611afd6001600160a01b0382167f00000000000000000000000000000000000000000000000000000000000000005f612251565b611b316001600160a01b0382167f000000000000000000000000000000000000000000000000000000000000000086612251565b604051639680e96160e01b81525f906001600160a01b037f00000000000000000000000000000000000000000000000000000000000000001690639680e96190611b85908990899089908990600401612ffc565b60408051808303815f875af1158015611ba0573d5f803e3d5ffd5b505050506040513d601f19601f82011682018060405250810190611bc49190613078565b509050611bd081612364565b505050505050565b604051638e8f294b60e01b81526001600160a01b0386811660048301525f917f000000000000000000000000000000000000000000000000000000000000000090911690638e8f294b90602401606060405180830381865afa158015611c40573d5f803e3d5ffd5b505050506040513d601f19601f82011682018060405250810190611c649190612d8e565b5050905080611c9157604051635a9a1eb960e11b81526001600160a01b03871660048201526024016106c7565b5f866001600160a01b0316636f307dc36040518163ffffffff1660e01b8152600401602060405180830381865afa158015611cce573d5f803e3d5ffd5b505050506040513d601f19601f82011682018060405250810190611cf29190612fe1565b90505f611d0182333089612388565b9050611d176001600160a01b038316895f612251565b611d2b6001600160a01b0383168983612251565b60405163579fb75760e01b8152611da6906001600160a01b038a169063579fb75790611d61908b9086908b908b90600401612ffc565b6020604051808303815f875af1158015611d7d573d5f803e3d5ffd5b505050506040513d601f19601f82011682018060405250810190611da19190612dc7565b612364565b5050505050505050565b5f80611dbc848461248c565b60405163a9059cbb60e01b81523360048201526024810182905291935091506001600160a01b0386169063a9059cbb906044016020604051808303815f875af1158015611e0b573d5f803e3d5ffd5b505050506040513d601f19601f82011682018060405250810190611e2f9190612e56565b611e5b5760405163241165bb60e21b8152306004820152336024820152604481018290526064016106c7565b5f82118015611e715750611e6f85836124f3565b155b15611f1a575f5b60ce54811015611ec057856001600160a01b031660ce8281548110611e9f57611e9f61309a565b5f918252602090912001546001600160a01b031614611ec057600101611e78565b60ce548103611f145760ce80546001810182555f919091527fd36cd1c74ef8d7326d8021b776c18fb5a5724b7f7bc93c2f42e43e10ef27d12a0180546001600160a01b0319166001600160a01b0388161790555b50611f69565b7f00000000000000000000000000000000000000000000000000000000000000006001600160a01b0316856001600160a01b031603611f6057611f5b61257e565b611f69565b611f6985612732565b935093915050565b60ce5460d0545f90821015611f865781611f8a565b60d0545b9050805b801561213e575f60ce611fa2600184612df2565b81548110611fb257611fb261309a565b5f9182526020822001546040516370a0823160e01b81523060048201526001600160a01b03909116925082906370a0823190602401602060405180830381865afa158015612002573d5f803e3d5ffd5b505050506040513d601f19601f820116820180604052508101906120269190612dc7565b905061203282826124f3565b15612134577f00000000000000000000000000000000000000000000000000000000000000006001600160a01b0316826001600160a01b03160361207d5761207861257e565b612086565b61208682612732565b60ce805461209690600190612df2565b815481106120a6576120a661309a565b5f918252602090912001546001600160a01b031660ce6120c7600186612df2565b815481106120d7576120d761309a565b905f5260205f20015f6101000a8154816001600160a01b0302191690836001600160a01b0316021790555060ce805480612113576121136130ae565b5f8281526020902081015f1990810180546001600160a01b03191690550190555b50505f1901611f8e565b505050565b6001609755565b606580546001600160a01b0319169055610717816128e2565b670de0b6b3a764000081111561071757604051635659cb3b60e01b8152670de0b6b3a76400006004820152602481018290526044016106c7565b5f54610100900460ff166121c35760405162461bcd60e51b81526004016106c7906130c2565b6121cb612933565b6121d3612961565b6121dd838261298f565b61213e826129cc565b6040516001600160a01b0380851660248301528316604482015260648101829052610d2d9085906323b872dd60e01b906084015b60408051601f198184030181529190526020810180516001600160e01b03166001600160e01b0319909316929092179091526129f2565b8015806122c95750604051636eb1769f60e11b81523060048201526001600160a01b03838116602483015284169063dd62ed3e90604401602060405180830381865afa1580156122a3573d5f803e3d5ffd5b505050506040513d601f19601f820116820180604052508101906122c79190612dc7565b155b6123345760405162461bcd60e51b815260206004820152603660248201527f5361666545524332303a20617070726f76652066726f6d206e6f6e2d7a65726f60448201527520746f206e6f6e2d7a65726f20616c6c6f77616e636560501b60648201526084016106c7565b6040516001600160a01b03831660248201526044810182905261213e90849063095ea7b360e01b9060640161221a565b8061236c5750565b60405163125a96ab60e01b8152600481018290526024016106c7565b6040516370a0823160e01b81526001600160a01b0383811660048301525f9182918716906370a0823190602401602060405180830381865afa1580156123d0573d5f803e3d5ffd5b505050506040513d601f19601f820116820180604052508101906123f49190612dc7565b905061240b6001600160a01b0387168686866121e6565b6040516370a0823160e01b81526001600160a01b0385811660048301528291908816906370a0823190602401602060405180830381865afa158015612452573d5f803e3d5ffd5b505050506040513d601f19601f820116820180604052508101906124769190612dc7565b6124809190612df2565b9150505b949350505050565b5f80806124a1670de0b6b3a764000085612df2565b90505f846124af838861310d565b6124b99190613124565b9050670de0b6b3a764000060c954826124d2919061310d565b6124dc9190613124565b93506124e88487612df2565b925050509250929050565b60405163db006a7560e01b8152600481018290525f906001600160a01b0384169063db006a75906024016020604051808303815f875af1925050508015612557575060408051601f3d908101601f1916820190925261255491810190612dc7565b60015b61256257505f612578565b805f03612573576001915050612578565b5f9150505b92915050565b5f4790507f00000000000000000000000000000000000000000000000000000000000000006001600160a01b031663d0e30db0826040518263ffffffff1660e01b81526004015f604051808303818588803b1580156125db575f80fd5b505af11580156125ed573d5f803e3d5ffd5b505060cf5461262d93506001600160a01b037f00000000000000000000000000000000000000000000000000000000000000008116935016905083612ac5565b60cf546040516305bebb3b60e21b81526001600160a01b03909116906316faecec906126a2907f0000000000000000000000000000000000000000000000000000000000000000907f000000000000000000000000000000000000000000000000000000000000000090600190600401613143565b5f604051808303815f87803b1580156126b9575f80fd5b505af11580156126cb573d5f803e3d5ffd5b50506040518381526001600160a01b037f00000000000000000000000000000000000000000000000000000000000000001692503391507fb68163184d017d69dff908f587b51f68dc2689426509efd546fbf77b518cc8769060200160405180910390a350565b5f816001600160a01b0316636f307dc36040518163ffffffff1660e01b8152600401602060405180830381865afa15801561276f573d5f803e3d5ffd5b505050506040513d601f19601f820116820180604052508101906127939190612fe1565b6040516370a0823160e01b81523060048201529091505f906001600160a01b038316906370a0823190602401602060405180830381865afa1580156127da573d5f803e3d5ffd5b505050506040513d601f19601f820116820180604052508101906127fe9190612dc7565b60cf5490915061281b906001600160a01b03848116911683612ac5565b60cf546040516305bebb3b60e21b81526001600160a01b03909116906316faecec90612870907f0000000000000000000000000000000000000000000000000000000000000000908690600190600401613143565b5f604051808303815f87803b158015612887575f80fd5b505af1158015612899573d5f803e3d5ffd5b50506040518381526001600160a01b03851692503391507fb68163184d017d69dff908f587b51f68dc2689426509efd546fbf77b518cc8769060200160405180910390a3505050565b603380546001600160a01b038381166001600160a01b0319831681179093556040519116919082907f8be0079c531659141344cd1fd0a4f28419497f9722a3daafe3b4186f6b6457e0905f90a35050565b5f54610100900460ff166129595760405162461bcd60e51b81526004016106c7906130c2565b610d33612af5565b5f54610100900460ff166129875760405162461bcd60e51b81526004016106c7906130c2565b610d33612b24565b5f54610100900460ff166129b55760405162461bcd60e51b81526004016106c7906130c2565b6129be82612163565b60c982905561142581611549565b5f54610100900460ff1661070e5760405162461bcd60e51b81526004016106c7906130c2565b5f612a46826040518060400160405280602081526020017f5361666545524332303a206c6f772d6c6576656c2063616c6c206661696c6564815250856001600160a01b0316612b4a9092919063ffffffff16565b905080515f1480612a66575080806020019051810190612a669190612e56565b61213e5760405162461bcd60e51b815260206004820152602a60248201527f5361666545524332303a204552433230206f7065726174696f6e20646964206e6044820152691bdd081cdd58d8d9595960b21b60648201526084016106c7565b6040516001600160a01b03831660248201526044810182905261213e90849063a9059cbb60e01b9060640161221a565b5f54610100900460ff16612b1b5760405162461bcd60e51b81526004016106c7906130c2565b610d333361214a565b5f54610100900460ff166121435760405162461bcd60e51b81526004016106c7906130c2565b606061248484845f85855f80866001600160a01b03168587604051612b6f9190613179565b5f6040518083038185875af1925050503d805f8114612ba9576040519150601f19603f3d011682016040523d82523d5f602084013e612bae565b606091505b5091509150612bbf87838387612bca565b979650505050505050565b60608315612c385782515f03612c31576001600160a01b0385163b612c315760405162461bcd60e51b815260206004820152601d60248201527f416464726573733a2063616c6c20746f206e6f6e2d636f6e747261637400000060448201526064016106c7565b5081612484565b6124848383815115612c4d5781518083602001fd5b8060405162461bcd60e51b81526004016106c7919061318f565b6001600160a01b0381168114610717575f80fd5b5f60208284031215612c8b575f80fd5b8135612c9681612c67565b9392505050565b5f8060408385031215612cae575f80fd5b8235612cb981612c67565b91506020830135612cc981612c67565b809150509250929050565b5f805f8060808587031215612ce7575f80fd5b8435612cf281612c67565b93506020850135612d0281612c67565b9250604085013591506060850135612d1981612c67565b939692955090935050565b5f60208284031215612d34575f80fd5b5035919050565b5f805f60608486031215612d4d575f80fd5b833592506020840135612d5f81612c67565b91506040840135612d6f81612c67565b809150509250925092565b80518015158114612d89575f80fd5b919050565b5f805f60608486031215612da0575f80fd5b612da984612d7a565b925060208401519150612dbe60408501612d7a565b90509250925092565b5f60208284031215612dd7575f80fd5b5051919050565b634e487b7160e01b5f52601160045260245ffd5b8181038181111561257857612578612dde565b5f81518084528060208401602086015e5f602082860101526020601f19601f83011685010191505092915050565b6001600160a01b03831681526040602082018190525f9061248490830184612e05565b5f60208284031215612e66575f80fd5b612c9682612d7a565b6001600160a01b038481168252831660208201526060604082018190525f906117ca90830184612e05565b634e487b7160e01b5f52602160045260245ffd5b6001600160a01b038781168252868116602083015285166040820152606081018490526080810183905260c0810160028310612eec57612eec612e9a565b8260a0830152979650505050505050565b5f80828403610120811215612f10575f80fd5b8351925061010080601f1983011215612f27575f80fd5b604051915080820182811067ffffffffffffffff82111715612f5757634e487b7160e01b5f52604160045260245ffd5b80604052506020850151825260408501516020830152606085015160408301526080850151606083015260a0850151608083015260c085015160a083015260e085015160c08301528085015160e083015250809150509250929050565b6001600160a01b03831681526040810160098310612fd457612fd4612e9a565b8260208301529392505050565b5f60208284031215612ff1575f80fd5b8151612c9681612c67565b5f6101608201905060018060a01b0380871683528560208401528085166040840152508251606083015260208301516080830152604083015160a0830152606083015160c0830152608083015160e083015260a083015161010083015260c083015161012083015260e083015161014083015295945050505050565b5f8060408385031215613089575f80fd5b505080516020909101519092909150565b634e487b7160e01b5f52603260045260245ffd5b634e487b7160e01b5f52603160045260245ffd5b6020808252602b908201527f496e697469616c697a61626c653a20636f6e7472616374206973206e6f74206960408201526a6e697469616c697a696e6760a81b606082015260800190565b808202811582820484141761257857612578612dde565b5f8261313e57634e487b7160e01b5f52601260045260245ffd5b500490565b6001600160a01b03848116825283166020820152606081016003831061316b5761316b612e9a565b826040830152949350505050565b5f82518060208501845e5f920191825250919050565b602081525f612c966020830184612e0556fe72656d6f766546726f6d416c6c6f776c69737428616464726573732c616464726573732973657450656e64696e6752656465656d4368756e6b4c656e6774682875696e7432353629a2646970667358221220864384fbde0b8ca2ccfefde1cfcf3a4b6fb113c8dea99e6aff6d4a2e124f33b064736f6c63430008190033",
  "devdoc": {
    "events": {
      "Initialized(uint8)": {
        "details": "Triggered when the contract has been initialized or reinitialized."
      }
    },
    "kind": "dev",
    "methods": {
      "acceptOwnership()": {
        "details": "The new owner accepts the ownership transfer."
      },
      "addToAllowlist(address,address)": {
        "params": {
          "borrower": "The address of the liquidator"
        }
      },
      "constructor": {
        "custom:oz-upgrades-unsafe-allow": "constructor",
        "params": {
          "comptrollerLens_": "The address of the ComptrollerLens contract",
          "comptroller_": "The address of the Comptroller contract",
          "vBnb_": "The address of the VBNB",
          "wBNB_": "The address of wBNB"
        }
      },
      "initialize(uint256,address,address)": {
        "params": {
          "accessControlManager_": "address of access control manager",
          "protocolShareReserve_": "The address of the protocol share reserve contract",
          "treasuryPercentMantissa_": "Treasury share, scaled by 1e18 (e.g. 0.2 * 1e18 for 20%)"
        }
      },
      "liquidateBorrow(address,address,uint256,address)": {
        "params": {
          "borrower": "The address of the borrower",
          "repayAmount": "The amount to repay on behalf of the borrower",
          "vToken": "Borrowed vToken",
          "vTokenCollateral": "The collateral to seize"
        }
      },
      "owner()": {
        "details": "Returns the address of the current owner."
      },
      "pendingOwner()": {
        "details": "Returns the address of the pending owner."
      },
      "removeFromAllowlist(address,address)": {
        "params": {
          "borrower": "The address of the liquidator"
        }
      },
      "renounceOwnership()": {
        "details": "Leaves the contract without owner. It will not be possible to call `onlyOwner` functions. Can only be called by the current owner. NOTE: Renouncing ownership will leave the contract without an owner, thereby disabling any functionality that is only available to the owner."
      },
      "restrictLiquidation(address)": {
        "details": "Use {addTo,removeFrom}AllowList to configure the allowed addresses.",
        "params": {
          "borrower": "The address of the borrower"
        }
      },
      "setAccessControlManager(address)": {
        "custom:access": "Only Governance",
        "custom:event": "Emits NewAccessControlManager event",
        "details": "Admin function to set address of AccessControlManager",
        "params": {
          "accessControlManager_": "The new address of the AccessControlManager"
        }
      },
      "setMinLiquidatableVAI(uint256)": {
        "params": {
          "minLiquidatableVAI_": "New address for the access control"
        }
      },
      "setPendingRedeemChunkLength(uint256)": {
        "params": {
          "newLength_": "Length of the chunk"
        }
      },
      "setProtocolShareReserve(address)": {
        "params": {
          "protocolShareReserve_": "The address of the protocol share reserve contract"
        }
      },
      "setTreasuryPercent(uint256)": {
        "params": {
          "newTreasuryPercentMantissa": "New treasury percent (scaled by 10^18)."
        }
      },
      "transferOwnership(address)": {
        "details": "Starts the ownership transfer of the contract to a new account. Replaces the pending transfer if there is one. Can only be called by the current owner."
      },
      "unrestrictLiquidation(address)": {
        "details": "Does not impact the allowedLiquidatorsByAccount mapping for the borrower, just turns off the check.",
        "params": {
          "borrower": "The address of the borrower"
        }
      }
    },
    "stateVariables": {
      "MANTISSA_ONE": {
        "details": "A unit (literal one) in EXP_SCALE, usually used in additions/subtractions"
      },
      "comptroller": {
        "custom:oz-upgrades-unsafe-allow": "state-variable-immutable"
      },
      "comptrollerLens": {
        "custom:oz-upgrades-unsafe-allow": "state-variable-immutable"
      },
      "vBnb": {
        "custom:oz-upgrades-unsafe-allow": "state-variable-immutable"
      },
      "vaiController": {
        "custom:oz-upgrades-unsafe-allow": "state-variable-immutable"
      },
      "wBNB": {
        "custom:oz-upgrades-unsafe-allow": "state-variable-immutable"
      }
    },
    "version": 1
  },
  "userdoc": {
    "errors": {
      "AllowlistEntryNotFound(address,address)": [
        {
          "notice": "Thrown if trying to remove a liquidator that is not in the allowedLiquidatorsByAccount mapping"
        }
      ],
      "AlreadyAllowed(address,address)": [
        {
          "notice": "Thrown if the liquidator is already in the allowedLiquidatorsByAccount mapping"
        }
      ],
      "AlreadyRestricted(address)": [
        {
          "notice": "Thrown if trying to restrict liquidations for an already restricted borrower"
        }
      ],
      "LiquidationFailed(uint256)": [
        {
          "notice": "Thrown if the liquidation is not successful (the error code is from TokenErrorReporter)"
        }
      ],
      "LiquidationNotAllowed(address,address)": [
        {
          "notice": "Thrown if the liquidation is restricted and the liquidator is not in the allowedLiquidatorsByAccount mapping"
        }
      ],
      "MarketNotListed(address)": [
        {
          "notice": "Thrown when vToken is not listed"
        }
      ],
      "NoRestrictionsExist(address)": [
        {
          "notice": "Thrown if trying to unrestrict liquidations for a borrower that is not restricted"
        }
      ],
      "SnapshotError(uint256)": [
        {
          "notice": "Thrown when the liquidation snapshot fails"
        }
      ],
      "TreasuryPercentTooHigh(uint256,uint256)": [
        {
          "notice": "Thrown if trying to set treasury percent larger than the liquidation profit"
        }
      ],
      "Unauthorized(address,address,string)": [
        {
          "notice": "Thrown when the action is prohibited by AccessControlManager"
        }
      ],
      "VAIDebtTooHigh(uint256,uint256)": [
        {
          "notice": "Thrown if trying to liquidate any token when VAI debt is too high"
        }
      ],
      "VTokenTransferFailed(address,address,uint256)": [
        {
          "notice": "Thrown if VToken transfer fails after the liquidation"
        }
      ],
      "WrongTransactionAmount(uint256,uint256)": [
        {
          "notice": "Thrown if BNB amount sent with the transaction doesn't correspond to the         intended BNB repayment"
        }
      ],
      "ZeroAddressNotAllowed()": [
        {
          "notice": "Thrown if the supplied address is a zero address where it is not allowed"
        }
      ]
    },
    "events": {
      "AllowlistEntryAdded(address,address)": {
        "notice": "Emitted when a liquidator is added to the allowedLiquidatorsByAccount mapping"
      },
      "AllowlistEntryRemoved(address,address)": {
        "notice": "Emitted when a liquidator is removed from the allowedLiquidatorsByAccount mapping"
      },
      "ForceVAILiquidationPaused(address)": {
        "notice": "Emitted when force liquidation is paused"
      },
      "ForceVAILiquidationResumed(address)": {
        "notice": "Emitted when force liquidation is resumed"
      },
      "LiquidateBorrowedTokens(address,address,uint256,address,address,uint256,uint256)": {
        "notice": "Emitted when a borrow is liquidated"
      },
      "LiquidationRestricted(address)": {
        "notice": "Emitted when the liquidation is restricted for a borrower"
      },
      "LiquidationRestrictionsDisabled(address)": {
        "notice": "Emitted when the liquidation restrictions are removed for a borrower"
      },
      "NewAccessControlManager(address,address)": {
        "notice": "Emitted when access control manager contract address is changed"
      },
      "NewLiquidationTreasuryPercent(uint256,uint256)": {
        "notice": "Emitted when the percent of the seized amount that goes to treasury changes."
      },
      "NewMinLiquidatableVAI(uint256,uint256)": {
        "notice": "Emitted when the amount of minLiquidatableVAI is updated"
      },
      "NewPendingRedeemChunkLength(uint256,uint256)": {
        "notice": "Emitted when the length of chunk gets updated"
      },
      "NewProtocolShareReserve(address,address)": {
        "notice": "Emitted when new address of protocol share reserve is set"
      },
      "ProtocolLiquidationIncentiveTransferred(address,address,uint256)": {
        "notice": "Emitted when reserves are reduced from liquidator contract to protocol share reserves"
      }
    },
    "kind": "user",
    "methods": {
      "accessControlManager()": {
        "notice": "Returns the address of the access control manager contract"
      },
      "addToAllowlist(address,address)": {
        "notice": "An admin function to add the liquidator to the allowedLiquidatorsByAccount mapping for a certain         borrower. If the liquidations are restricted, only liquidators from the         allowedLiquidatorsByAccount mapping can participate in liquidating the positions of this borrower."
      },
      "allowedLiquidatorsByAccount(address,address)": {
        "notice": "Mapping of addresses allowed to liquidate an account if liquidationRestricted[borrower] == true"
      },
      "comptroller()": {
        "notice": "Address of Venus Unitroller contract."
      },
      "comptrollerLens()": {
        "notice": "Address of Venus ComptrollerLens contract."
      },
      "constructor": {
        "notice": "Constructor for the implementation contract. Sets immutable variables."
      },
      "forceVAILiquidate()": {
        "notice": "check for liquidation of VAI"
      },
      "initialize(uint256,address,address)": {
        "notice": "Initializer for the implementation contract."
      },
      "liquidateBorrow(address,address,uint256,address)": {
        "notice": "Liquidates a borrow and splits the seized amount between protocol share reserve and         liquidator. The liquidators should use this interface instead of calling         vToken.liquidateBorrow(...) directly.Checks force VAI liquidation first; vToken should be address of vaiController if vaiDebt is greater than thresholdFor BNB borrows msg.value should be equal to repayAmount; otherwise msg.value      should be zero."
      },
      "liquidationRestricted(address)": {
        "notice": "Whether the liquidations are restricted to enabled allowedLiquidatorsByAccount addresses only"
      },
      "minLiquidatableVAI()": {
        "notice": "minimum amount of VAI liquidation threshold"
      },
      "pauseForceVAILiquidate()": {
        "notice": "Pause Force Liquidation of VAI"
      },
      "pendingRedeem(uint256)": {
        "notice": "assests whose redeem is pending to reduce reserves"
      },
      "protocolShareReserve()": {
        "notice": "protocol share reserve contract address"
      },
      "reduceReserves()": {
        "notice": "Reduce the reserves of the pending accumulated reserves"
      },
      "removeFromAllowlist(address,address)": {
        "notice": "An admin function to remove the liquidator from the allowedLiquidatorsByAccount mapping of a certain         borrower. If the liquidations are restricted, this liquidator will not be         able to liquidate the positions of this borrower."
      },
      "restrictLiquidation(address)": {
        "notice": "An admin function to restrict liquidations to allowed addresses only."
      },
      "resumeForceVAILiquidate()": {
        "notice": "Resume Force Liquidation of VAI"
      },
      "setAccessControlManager(address)": {
        "notice": "Sets the address of AccessControlManager"
      },
      "setMinLiquidatableVAI(uint256)": {
        "notice": "Sets the threshold for minimum amount of vaiLiquidate"
      },
      "setPendingRedeemChunkLength(uint256)": {
        "notice": "Length of the pendingRedeem array to be consider while redeeming in Liquidation transaction"
      },
      "setProtocolShareReserve(address)": {
        "notice": "Sets protocol share reserve contract address"
      },
      "setTreasuryPercent(uint256)": {
        "notice": "Sets the new percent of the seized amount that goes to treasury. Should         be less than or equal to comptroller.liquidationIncentiveMantissa().sub(1e18)."
      },
      "treasuryPercentMantissa()": {
        "notice": "Percent of seized amount that goes to treasury."
      },
      "unrestrictLiquidation(address)": {
        "notice": "An admin function to remove restrictions for liquidations."
      },
      "vBnb()": {
        "notice": "Address of vBNB contract."
      },
      "vaiController()": {
        "notice": "Address of VAIUnitroller contract."
      },
      "wBNB()": {
        "notice": "Address of wBNB contract"
      }
    },
    "version": 1
  },
  "storageLayout": {
    "storage": [
      {
        "astId": 246,
        "contract": "contracts/Liquidator/Liquidator.sol:Liquidator",
        "label": "_initialized",
        "offset": 0,
        "slot": "0",
        "type": "t_uint8"
      },
      {
        "astId": 249,
        "contract": "contracts/Liquidator/Liquidator.sol:Liquidator",
        "label": "_initializing",
        "offset": 1,
        "slot": "0",
        "type": "t_bool"
      },
      {
        "astId": 1363,
        "contract": "contracts/Liquidator/Liquidator.sol:Liquidator",
        "label": "__gap",
        "offset": 0,
        "slot": "1",
        "type": "t_array(t_uint256)50_storage"
      },
      {
        "astId": 118,
        "contract": "contracts/Liquidator/Liquidator.sol:Liquidator",
        "label": "_owner",
        "offset": 0,
        "slot": "51",
        "type": "t_address"
      },
      {
        "astId": 238,
        "contract": "contracts/Liquidator/Liquidator.sol:Liquidator",
        "label": "__gap",
        "offset": 0,
        "slot": "52",
        "type": "t_array(t_uint256)49_storage"
      },
      {
        "astId": 11,
        "contract": "contracts/Liquidator/Liquidator.sol:Liquidator",
        "label": "_pendingOwner",
        "offset": 0,
        "slot": "101",
        "type": "t_address"
      },
      {
        "astId": 105,
        "contract": "contracts/Liquidator/Liquidator.sol:Liquidator",
        "label": "__gap",
        "offset": 0,
        "slot": "102",
        "type": "t_array(t_uint256)49_storage"
      },
      {
        "astId": 423,
        "contract": "contracts/Liquidator/Liquidator.sol:Liquidator",
        "label": "_status",
        "offset": 0,
        "slot": "151",
        "type": "t_uint256"
      },
      {
        "astId": 492,
        "contract": "contracts/Liquidator/Liquidator.sol:Liquidator",
        "label": "__gap",
        "offset": 0,
        "slot": "152",
        "type": "t_array(t_uint256)49_storage"
      },
      {
        "astId": 23106,
        "contract": "contracts/Liquidator/Liquidator.sol:Liquidator",
        "label": "treasuryPercentMantissa",
        "offset": 0,
        "slot": "201",
        "type": "t_uint256"
      },
      {
        "astId": 23113,
        "contract": "contracts/Liquidator/Liquidator.sol:Liquidator",
        "label": "allowedLiquidatorsByAccount",
        "offset": 0,
        "slot": "202",
        "type": "t_mapping(t_address,t_mapping(t_address,t_bool))"
      },
      {
        "astId": 23118,
        "contract": "contracts/Liquidator/Liquidator.sol:Liquidator",
        "label": "liquidationRestricted",
        "offset": 0,
        "slot": "203",
        "type": "t_mapping(t_address,t_bool)"
      },
      {
        "astId": 23121,
        "contract": "contracts/Liquidator/Liquidator.sol:Liquidator",
        "label": "minLiquidatableVAI",
        "offset": 0,
        "slot": "204",
        "type": "t_uint256"
      },
      {
        "astId": 23124,
        "contract": "contracts/Liquidator/Liquidator.sol:Liquidator",
        "label": "forceVAILiquidate",
        "offset": 0,
        "slot": "205",
        "type": "t_bool"
      },
      {
        "astId": 23128,
        "contract": "contracts/Liquidator/Liquidator.sol:Liquidator",
        "label": "pendingRedeem",
        "offset": 0,
        "slot": "206",
        "type": "t_array(t_address)dyn_storage"
      },
      {
        "astId": 23131,
        "contract": "contracts/Liquidator/Liquidator.sol:Liquidator",
        "label": "protocolShareReserve",
        "offset": 0,
        "slot": "207",
        "type": "t_address"
      },
      {
        "astId": 23134,
        "contract": "contracts/Liquidator/Liquidator.sol:Liquidator",
        "label": "pendingRedeemChunkLength",
        "offset": 0,
        "slot": "208",
        "type": "t_uint256"
      },
      {
        "astId": 23139,
        "contract": "contracts/Liquidator/Liquidator.sol:Liquidator",
        "label": "__gap",
        "offset": 0,
        "slot": "209",
        "type": "t_array(t_uint256)49_storage"
      },
      {
        "astId": 3582,
        "contract": "contracts/Liquidator/Liquidator.sol:Liquidator",
        "label": "_accessControlManager",
        "offset": 0,
        "slot": "258",
        "type": "t_contract(IAccessControlManagerV8)3767"
      },
      {
        "astId": 3587,
        "contract": "contracts/Liquidator/Liquidator.sol:Liquidator",
        "label": "__gap",
        "offset": 0,
        "slot": "259",
        "type": "t_array(t_uint256)49_storage"
      }
    ],
    "types": {
      "t_address": {
        "encoding": "inplace",
        "label": "address",
        "numberOfBytes": "20"
      },
      "t_array(t_address)dyn_storage": {
        "base": "t_address",
        "encoding": "dynamic_array",
        "label": "address[]",
        "numberOfBytes": "32"
      },
      "t_array(t_uint256)49_storage": {
        "base": "t_uint256",
        "encoding": "inplace",
        "label": "uint256[49]",
        "numberOfBytes": "1568"
      },
      "t_array(t_uint256)50_storage": {
        "base": "t_uint256",
        "encoding": "inplace",
        "label": "uint256[50]",
        "numberOfBytes": "1600"
      },
      "t_bool": {
        "encoding": "inplace",
        "label": "bool",
        "numberOfBytes": "1"
      },
      "t_contract(IAccessControlManagerV8)3767": {
        "encoding": "inplace",
        "label": "contract IAccessControlManagerV8",
        "numberOfBytes": "20"
      },
      "t_mapping(t_address,t_bool)": {
        "encoding": "mapping",
        "key": "t_address",
        "label": "mapping(address => bool)",
        "numberOfBytes": "32",
        "value": "t_bool"
      },
      "t_mapping(t_address,t_mapping(t_address,t_bool))": {
        "encoding": "mapping",
        "key": "t_address",
        "label": "mapping(address => mapping(address => bool))",
        "numberOfBytes": "32",
        "value": "t_mapping(t_address,t_bool)"
      },
      "t_uint256": {
        "encoding": "inplace",
        "label": "uint256",
        "numberOfBytes": "32"
      },
      "t_uint8": {
        "encoding": "inplace",
        "label": "uint8",
        "numberOfBytes": "1"
      }
    }
  }
}