{
  "address": "0x92B9CE322B0A4a3701fd3dC609740c7Df80f479D",
  "abi": [
    {
      "inputs": [],
      "name": "AlreadyInSelectedPool",
      "type": "error"
    },
    {
      "inputs": [],
      "name": "ArrayLengthMismatch",
      "type": "error"
    },
    {
      "inputs": [],
      "name": "BorrowNotAllowedInPool",
      "type": "error"
    },
    {
      "inputs": [],
      "name": "EmptyPoolLabel",
      "type": "error"
    },
    {
      "inputs": [
        {
          "internalType": "uint96",
          "name": "poolId",
          "type": "uint96"
        }
      ],
      "name": "InactivePool",
      "type": "error"
    },
    {
      "inputs": [],
      "name": "IncompatibleBorrowedAssets",
      "type": "error"
    },
    {
      "inputs": [],
      "name": "InvalidOperationForCorePool",
      "type": "error"
    },
    {
      "inputs": [
        {
          "internalType": "enum WeightFunction",
          "name": "strategy",
          "type": "uint8"
        }
      ],
      "name": "InvalidWeightingStrategy",
      "type": "error"
    },
    {
      "inputs": [
        {
          "internalType": "uint256",
          "name": "errorCode",
          "type": "uint256"
        },
        {
          "internalType": "uint256",
          "name": "shortfall",
          "type": "uint256"
        }
      ],
      "name": "LiquidityCheckFailed",
      "type": "error"
    },
    {
      "inputs": [
        {
          "internalType": "uint96",
          "name": "poolId",
          "type": "uint96"
        },
        {
          "internalType": "address",
          "name": "vToken",
          "type": "address"
        }
      ],
      "name": "MarketAlreadyListed",
      "type": "error"
    },
    {
      "inputs": [],
      "name": "MarketConfigNotFound",
      "type": "error"
    },
    {
      "inputs": [],
      "name": "MarketNotListedInCorePool",
      "type": "error"
    },
    {
      "inputs": [
        {
          "internalType": "uint96",
          "name": "poolId",
          "type": "uint96"
        }
      ],
      "name": "PoolDoesNotExist",
      "type": "error"
    },
    {
      "inputs": [
        {
          "internalType": "uint96",
          "name": "poolId",
          "type": "uint96"
        },
        {
          "internalType": "address",
          "name": "vToken",
          "type": "address"
        }
      ],
      "name": "PoolMarketNotFound",
      "type": "error"
    },
    {
      "anonymous": false,
      "inputs": [
        {
          "indexed": true,
          "internalType": "address",
          "name": "approver",
          "type": "address"
        },
        {
          "indexed": true,
          "internalType": "address",
          "name": "delegate",
          "type": "address"
        },
        {
          "indexed": false,
          "internalType": "bool",
          "name": "approved",
          "type": "bool"
        }
      ],
      "name": "DelegateUpdated",
      "type": "event"
    },
    {
      "anonymous": false,
      "inputs": [
        {
          "indexed": false,
          "internalType": "uint256",
          "name": "amount",
          "type": "uint256"
        }
      ],
      "name": "DistributedVAIVaultVenus",
      "type": "event"
    },
    {
      "anonymous": false,
      "inputs": [
        {
          "indexed": false,
          "internalType": "uint256",
          "name": "error",
          "type": "uint256"
        },
        {
          "indexed": false,
          "internalType": "uint256",
          "name": "info",
          "type": "uint256"
        },
        {
          "indexed": false,
          "internalType": "uint256",
          "name": "detail",
          "type": "uint256"
        }
      ],
      "name": "Failure",
      "type": "event"
    },
    {
      "anonymous": false,
      "inputs": [
        {
          "indexed": true,
          "internalType": "contract VToken",
          "name": "vToken",
          "type": "address"
        },
        {
          "indexed": true,
          "internalType": "address",
          "name": "account",
          "type": "address"
        }
      ],
      "name": "MarketEntered",
      "type": "event"
    },
    {
      "anonymous": false,
      "inputs": [
        {
          "indexed": true,
          "internalType": "contract VToken",
          "name": "vToken",
          "type": "address"
        },
        {
          "indexed": true,
          "internalType": "address",
          "name": "account",
          "type": "address"
        }
      ],
      "name": "MarketExited",
      "type": "event"
    },
    {
      "anonymous": false,
      "inputs": [
        {
          "indexed": true,
          "internalType": "contract VToken",
          "name": "vToken",
          "type": "address"
        }
      ],
      "name": "MarketListed",
      "type": "event"
    },
    {
      "anonymous": false,
      "inputs": [
        {
          "indexed": true,
          "internalType": "address",
          "name": "vToken",
          "type": "address"
        }
      ],
      "name": "MarketUnlisted",
      "type": "event"
    },
    {
      "anonymous": false,
      "inputs": [
        {
          "indexed": true,
          "internalType": "uint96",
          "name": "poolId",
          "type": "uint96"
        },
        {
          "indexed": false,
          "internalType": "string",
          "name": "label",
          "type": "string"
        }
      ],
      "name": "PoolCreated",
      "type": "event"
    },
    {
      "anonymous": false,
      "inputs": [
        {
          "indexed": true,
          "internalType": "uint96",
          "name": "poolId",
          "type": "uint96"
        },
        {
          "indexed": true,
          "internalType": "address",
          "name": "market",
          "type": "address"
        }
      ],
      "name": "PoolMarketInitialized",
      "type": "event"
    },
    {
      "anonymous": false,
      "inputs": [
        {
          "indexed": true,
          "internalType": "uint96",
          "name": "poolId",
          "type": "uint96"
        },
        {
          "indexed": true,
          "internalType": "address",
          "name": "vToken",
          "type": "address"
        }
      ],
      "name": "PoolMarketRemoved",
      "type": "event"
    },
    {
      "anonymous": false,
      "inputs": [
        {
          "indexed": true,
          "internalType": "address",
          "name": "account",
          "type": "address"
        },
        {
          "indexed": false,
          "internalType": "uint96",
          "name": "previousPoolId",
          "type": "uint96"
        },
        {
          "indexed": true,
          "internalType": "uint96",
          "name": "newPoolId",
          "type": "uint96"
        }
      ],
      "name": "PoolSelected",
      "type": "event"
    },
    {
      "inputs": [
        {
          "internalType": "contract VToken",
          "name": "vToken",
          "type": "address"
        }
      ],
      "name": "_supportMarket",
      "outputs": [
        {
          "internalType": "uint256",
          "name": "",
          "type": "uint256"
        }
      ],
      "stateMutability": "nonpayable",
      "type": "function"
    },
    {
      "inputs": [
        {
          "internalType": "address",
          "name": "",
          "type": "address"
        },
        {
          "internalType": "uint256",
          "name": "",
          "type": "uint256"
        }
      ],
      "name": "accountAssets",
      "outputs": [
        {
          "internalType": "contract VToken",
          "name": "",
          "type": "address"
        }
      ],
      "stateMutability": "view",
      "type": "function"
    },
    {
      "inputs": [
        {
          "internalType": "address",
          "name": "market",
          "type": "address"
        },
        {
          "internalType": "enum Action",
          "name": "action",
          "type": "uint8"
        }
      ],
      "name": "actionPaused",
      "outputs": [
        {
          "internalType": "bool",
          "name": "",
          "type": "bool"
        }
      ],
      "stateMutability": "view",
      "type": "function"
    },
    {
      "inputs": [
        {
          "internalType": "uint96[]",
          "name": "poolIds",
          "type": "uint96[]"
        },
        {
          "internalType": "address[]",
          "name": "vTokens",
          "type": "address[]"
        }
      ],
      "name": "addPoolMarkets",
      "outputs": [],
      "stateMutability": "nonpayable",
      "type": "function"
    },
    {
      "inputs": [],
      "name": "admin",
      "outputs": [
        {
          "internalType": "address",
          "name": "",
          "type": "address"
        }
      ],
      "stateMutability": "view",
      "type": "function"
    },
    {
      "inputs": [
        {
          "internalType": "uint256",
          "name": "",
          "type": "uint256"
        }
      ],
      "name": "allMarkets",
      "outputs": [
        {
          "internalType": "contract VToken",
          "name": "",
          "type": "address"
        }
      ],
      "stateMutability": "view",
      "type": "function"
    },
    {
      "inputs": [
        {
          "internalType": "address",
          "name": "",
          "type": "address"
        },
        {
          "internalType": "address",
          "name": "",
          "type": "address"
        }
      ],
      "name": "approvedDelegates",
      "outputs": [
        {
          "internalType": "bool",
          "name": "",
          "type": "bool"
        }
      ],
      "stateMutability": "view",
      "type": "function"
    },
    {
      "inputs": [],
      "name": "borrowCapGuardian",
      "outputs": [
        {
          "internalType": "address",
          "name": "",
          "type": "address"
        }
      ],
      "stateMutability": "view",
      "type": "function"
    },
    {
      "inputs": [
        {
          "internalType": "address",
          "name": "",
          "type": "address"
        }
      ],
      "name": "borrowCaps",
      "outputs": [
        {
          "internalType": "uint256",
          "name": "",
          "type": "uint256"
        }
      ],
      "stateMutability": "view",
      "type": "function"
    },
    {
      "inputs": [
        {
          "internalType": "address",
          "name": "account",
          "type": "address"
        },
        {
          "internalType": "contract VToken",
          "name": "vToken",
          "type": "address"
        }
      ],
      "name": "checkMembership",
      "outputs": [
        {
          "internalType": "bool",
          "name": "",
          "type": "bool"
        }
      ],
      "stateMutability": "view",
      "type": "function"
    },
    {
      "inputs": [],
      "name": "closeFactorMantissa",
      "outputs": [
        {
          "internalType": "uint256",
          "name": "",
          "type": "uint256"
        }
      ],
      "stateMutability": "view",
      "type": "function"
    },
    {
      "inputs": [],
      "name": "comptrollerImplementation",
      "outputs": [
        {
          "internalType": "address",
          "name": "",
          "type": "address"
        }
      ],
      "stateMutability": "view",
      "type": "function"
    },
    {
      "inputs": [],
      "name": "comptrollerLens",
      "outputs": [
        {
          "internalType": "contract ComptrollerLensInterface",
          "name": "",
          "type": "address"
        }
      ],
      "stateMutability": "view",
      "type": "function"
    },
    {
      "inputs": [],
      "name": "corePoolId",
      "outputs": [
        {
          "internalType": "uint96",
          "name": "",
          "type": "uint96"
        }
      ],
      "stateMutability": "view",
      "type": "function"
    },
    {
      "inputs": [
        {
          "internalType": "string",
          "name": "label",
          "type": "string"
        }
      ],
      "name": "createPool",
      "outputs": [
        {
          "internalType": "uint96",
          "name": "",
          "type": "uint96"
        }
      ],
      "stateMutability": "nonpayable",
      "type": "function"
    },
    {
      "inputs": [
        {
          "internalType": "address[]",
          "name": "vTokens",
          "type": "address[]"
        }
      ],
      "name": "enterMarkets",
      "outputs": [
        {
          "internalType": "uint256[]",
          "name": "",
          "type": "uint256[]"
        }
      ],
      "stateMutability": "nonpayable",
      "type": "function"
    },
    {
      "inputs": [
        {
          "internalType": "uint96",
          "name": "poolId",
          "type": "uint96"
        }
      ],
      "name": "enterPool",
      "outputs": [],
      "stateMutability": "nonpayable",
      "type": "function"
    },
    {
      "inputs": [
        {
          "internalType": "address",
          "name": "vTokenAddress",
          "type": "address"
        }
      ],
      "name": "exitMarket",
      "outputs": [
        {
          "internalType": "uint256",
          "name": "",
          "type": "uint256"
        }
      ],
      "stateMutability": "nonpayable",
      "type": "function"
    },
    {
      "inputs": [],
      "name": "getAllMarkets",
      "outputs": [
        {
          "internalType": "contract VToken[]",
          "name": "",
          "type": "address[]"
        }
      ],
      "stateMutability": "view",
      "type": "function"
    },
    {
      "inputs": [
        {
          "internalType": "address",
          "name": "account",
          "type": "address"
        }
      ],
      "name": "getAssetsIn",
      "outputs": [
        {
          "internalType": "contract VToken[]",
          "name": "",
          "type": "address[]"
        }
      ],
      "stateMutability": "view",
      "type": "function"
    },
    {
      "inputs": [
        {
          "internalType": "address",
          "name": "vToken",
          "type": "address"
        }
      ],
      "name": "getCollateralFactor",
      "outputs": [
        {
          "internalType": "uint256",
          "name": "",
          "type": "uint256"
        }
      ],
      "stateMutability": "view",
      "type": "function"
    },
    {
      "inputs": [
        {
          "internalType": "address",
          "name": "account",
          "type": "address"
        },
        {
          "internalType": "address",
          "name": "vToken",
          "type": "address"
        }
      ],
      "name": "getEffectiveLiquidationIncentive",
      "outputs": [
        {
          "internalType": "uint256",
          "name": "",
          "type": "uint256"
        }
      ],
      "stateMutability": "view",
      "type": "function"
    },
    {
      "inputs": [
        {
          "internalType": "address",
          "name": "account",
          "type": "address"
        },
        {
          "internalType": "address",
          "name": "vToken",
          "type": "address"
        },
        {
          "internalType": "enum WeightFunction",
          "name": "weightingStrategy",
          "type": "uint8"
        }
      ],
      "name": "getEffectiveLtvFactor",
      "outputs": [
        {
          "internalType": "uint256",
          "name": "",
          "type": "uint256"
        }
      ],
      "stateMutability": "view",
      "type": "function"
    },
    {
      "inputs": [
        {
          "internalType": "address",
          "name": "vToken",
          "type": "address"
        }
      ],
      "name": "getLiquidationIncentive",
      "outputs": [
        {
          "internalType": "uint256",
          "name": "",
          "type": "uint256"
        }
      ],
      "stateMutability": "view",
      "type": "function"
    },
    {
      "inputs": [
        {
          "internalType": "address",
          "name": "vToken",
          "type": "address"
        }
      ],
      "name": "getLiquidationThreshold",
      "outputs": [
        {
          "internalType": "uint256",
          "name": "",
          "type": "uint256"
        }
      ],
      "stateMutability": "view",
      "type": "function"
    },
    {
      "inputs": [
        {
          "internalType": "uint96",
          "name": "poolId",
          "type": "uint96"
        },
        {
          "internalType": "address",
          "name": "vToken",
          "type": "address"
        }
      ],
      "name": "getPoolMarketIndex",
      "outputs": [
        {
          "internalType": "PoolMarketId",
          "name": "",
          "type": "bytes32"
        }
      ],
      "stateMutability": "pure",
      "type": "function"
    },
    {
      "inputs": [
        {
          "internalType": "uint96",
          "name": "poolId",
          "type": "uint96"
        }
      ],
      "name": "getPoolVTokens",
      "outputs": [
        {
          "internalType": "address[]",
          "name": "",
          "type": "address[]"
        }
      ],
      "stateMutability": "view",
      "type": "function"
    },
    {
      "inputs": [],
      "name": "getXVSAddress",
      "outputs": [
        {
          "internalType": "address",
          "name": "",
          "type": "address"
        }
      ],
      "stateMutability": "view",
      "type": "function"
    },
    {
      "inputs": [
        {
          "internalType": "address",
          "name": "account",
          "type": "address"
        },
        {
          "internalType": "uint96",
          "name": "targetPoolId",
          "type": "uint96"
        }
      ],
      "name": "hasValidPoolBorrows",
      "outputs": [
        {
          "internalType": "bool",
          "name": "",
          "type": "bool"
        }
      ],
      "stateMutability": "view",
      "type": "function"
    },
    {
      "inputs": [],
      "name": "isComptroller",
      "outputs": [
        {
          "internalType": "bool",
          "name": "",
          "type": "bool"
        }
      ],
      "stateMutability": "pure",
      "type": "function"
    },
    {
      "inputs": [
        {
          "internalType": "address",
          "name": "",
          "type": "address"
        }
      ],
      "name": "isForcedLiquidationEnabled",
      "outputs": [
        {
          "internalType": "bool",
          "name": "",
          "type": "bool"
        }
      ],
      "stateMutability": "view",
      "type": "function"
    },
    {
      "inputs": [
        {
          "internalType": "address",
          "name": "user",
          "type": "address"
        },
        {
          "internalType": "address",
          "name": "market",
          "type": "address"
        }
      ],
      "name": "isForcedLiquidationEnabledForUser",
      "outputs": [
        {
          "internalType": "bool",
          "name": "",
          "type": "bool"
        }
      ],
      "stateMutability": "view",
      "type": "function"
    },
    {
      "inputs": [
        {
          "internalType": "contract VToken",
          "name": "vToken",
          "type": "address"
        }
      ],
      "name": "isMarketListed",
      "outputs": [
        {
          "internalType": "bool",
          "name": "",
          "type": "bool"
        }
      ],
      "stateMutability": "view",
      "type": "function"
    },
    {
      "inputs": [],
      "name": "lastPoolId",
      "outputs": [
        {
          "internalType": "uint96",
          "name": "",
          "type": "uint96"
        }
      ],
      "stateMutability": "view",
      "type": "function"
    },
    {
      "inputs": [
        {
          "internalType": "address",
          "name": "borrower",
          "type": "address"
        },
        {
          "internalType": "address",
          "name": "vTokenBorrowed",
          "type": "address"
        },
        {
          "internalType": "address",
          "name": "vTokenCollateral",
          "type": "address"
        },
        {
          "internalType": "uint256",
          "name": "actualRepayAmount",
          "type": "uint256"
        }
      ],
      "name": "liquidateCalculateSeizeTokens",
      "outputs": [
        {
          "internalType": "uint256",
          "name": "",
          "type": "uint256"
        },
        {
          "internalType": "uint256",
          "name": "",
          "type": "uint256"
        }
      ],
      "stateMutability": "view",
      "type": "function"
    },
    {
      "inputs": [
        {
          "internalType": "address",
          "name": "vTokenBorrowed",
          "type": "address"
        },
        {
          "internalType": "address",
          "name": "vTokenCollateral",
          "type": "address"
        },
        {
          "internalType": "uint256",
          "name": "actualRepayAmount",
          "type": "uint256"
        }
      ],
      "name": "liquidateCalculateSeizeTokens",
      "outputs": [
        {
          "internalType": "uint256",
          "name": "",
          "type": "uint256"
        },
        {
          "internalType": "uint256",
          "name": "",
          "type": "uint256"
        }
      ],
      "stateMutability": "view",
      "type": "function"
    },
    {
      "inputs": [
        {
          "internalType": "address",
          "name": "vTokenCollateral",
          "type": "address"
        },
        {
          "internalType": "uint256",
          "name": "actualRepayAmount",
          "type": "uint256"
        }
      ],
      "name": "liquidateVAICalculateSeizeTokens",
      "outputs": [
        {
          "internalType": "uint256",
          "name": "",
          "type": "uint256"
        },
        {
          "internalType": "uint256",
          "name": "",
          "type": "uint256"
        }
      ],
      "stateMutability": "view",
      "type": "function"
    },
    {
      "inputs": [],
      "name": "liquidatorContract",
      "outputs": [
        {
          "internalType": "address",
          "name": "",
          "type": "address"
        }
      ],
      "stateMutability": "view",
      "type": "function"
    },
    {
      "inputs": [
        {
          "internalType": "address",
          "name": "vToken",
          "type": "address"
        }
      ],
      "name": "markets",
      "outputs": [
        {
          "internalType": "bool",
          "name": "isListed",
          "type": "bool"
        },
        {
          "internalType": "uint256",
          "name": "collateralFactorMantissa",
          "type": "uint256"
        },
        {
          "internalType": "bool",
          "name": "isVenus",
          "type": "bool"
        },
        {
          "internalType": "uint256",
          "name": "liquidationThresholdMantissa",
          "type": "uint256"
        },
        {
          "internalType": "uint256",
          "name": "liquidationIncentiveMantissa",
          "type": "uint256"
        },
        {
          "internalType": "uint96",
          "name": "marketPoolId",
          "type": "uint96"
        },
        {
          "internalType": "bool",
          "name": "isBorrowAllowed",
          "type": "bool"
        }
      ],
      "stateMutability": "view",
      "type": "function"
    },
    {
      "inputs": [],
      "name": "maxAssets",
      "outputs": [
        {
          "internalType": "uint256",
          "name": "",
          "type": "uint256"
        }
      ],
      "stateMutability": "view",
      "type": "function"
    },
    {
      "inputs": [],
      "name": "minReleaseAmount",
      "outputs": [
        {
          "internalType": "uint256",
          "name": "",
          "type": "uint256"
        }
      ],
      "stateMutability": "view",
      "type": "function"
    },
    {
      "inputs": [],
      "name": "mintVAIGuardianPaused",
      "outputs": [
        {
          "internalType": "bool",
          "name": "",
          "type": "bool"
        }
      ],
      "stateMutability": "view",
      "type": "function"
    },
    {
      "inputs": [
        {
          "internalType": "address",
          "name": "",
          "type": "address"
        }
      ],
      "name": "mintedVAIs",
      "outputs": [
        {
          "internalType": "uint256",
          "name": "",
          "type": "uint256"
        }
      ],
      "stateMutability": "view",
      "type": "function"
    },
    {
      "inputs": [],
      "name": "oracle",
      "outputs": [
        {
          "internalType": "contract ResilientOracleInterface",
          "name": "",
          "type": "address"
        }
      ],
      "stateMutability": "view",
      "type": "function"
    },
    {
      "inputs": [],
      "name": "pauseGuardian",
      "outputs": [
        {
          "internalType": "address",
          "name": "",
          "type": "address"
        }
      ],
      "stateMutability": "view",
      "type": "function"
    },
    {
      "inputs": [],
      "name": "pendingAdmin",
      "outputs": [
        {
          "internalType": "address",
          "name": "",
          "type": "address"
        }
      ],
      "stateMutability": "view",
      "type": "function"
    },
    {
      "inputs": [],
      "name": "pendingComptrollerImplementation",
      "outputs": [
        {
          "internalType": "address",
          "name": "",
          "type": "address"
        }
      ],
      "stateMutability": "view",
      "type": "function"
    },
    {
      "inputs": [
        {
          "internalType": "uint96",
          "name": "poolId",
          "type": "uint96"
        },
        {
          "internalType": "address",
          "name": "vToken",
          "type": "address"
        }
      ],
      "name": "poolMarkets",
      "outputs": [
        {
          "internalType": "bool",
          "name": "isListed",
          "type": "bool"
        },
        {
          "internalType": "uint256",
          "name": "collateralFactorMantissa",
          "type": "uint256"
        },
        {
          "internalType": "bool",
          "name": "isVenus",
          "type": "bool"
        },
        {
          "internalType": "uint256",
          "name": "liquidationThresholdMantissa",
          "type": "uint256"
        },
        {
          "internalType": "uint256",
          "name": "liquidationIncentiveMantissa",
          "type": "uint256"
        },
        {
          "internalType": "uint96",
          "name": "marketPoolId",
          "type": "uint96"
        },
        {
          "internalType": "bool",
          "name": "isBorrowAllowed",
          "type": "bool"
        }
      ],
      "stateMutability": "view",
      "type": "function"
    },
    {
      "inputs": [
        {
          "internalType": "uint96",
          "name": "",
          "type": "uint96"
        }
      ],
      "name": "pools",
      "outputs": [
        {
          "internalType": "string",
          "name": "label",
          "type": "string"
        },
        {
          "internalType": "bool",
          "name": "isActive",
          "type": "bool"
        }
      ],
      "stateMutability": "view",
      "type": "function"
    },
    {
      "inputs": [],
      "name": "prime",
      "outputs": [
        {
          "internalType": "contract IPrime",
          "name": "",
          "type": "address"
        }
      ],
      "stateMutability": "view",
      "type": "function"
    },
    {
      "inputs": [],
      "name": "protocolPaused",
      "outputs": [
        {
          "internalType": "bool",
          "name": "",
          "type": "bool"
        }
      ],
      "stateMutability": "view",
      "type": "function"
    },
    {
      "inputs": [],
      "name": "releaseStartBlock",
      "outputs": [
        {
          "internalType": "uint256",
          "name": "",
          "type": "uint256"
        }
      ],
      "stateMutability": "view",
      "type": "function"
    },
    {
      "inputs": [
        {
          "internalType": "uint96",
          "name": "poolId",
          "type": "uint96"
        },
        {
          "internalType": "address",
          "name": "vToken",
          "type": "address"
        }
      ],
      "name": "removePoolMarket",
      "outputs": [],
      "stateMutability": "nonpayable",
      "type": "function"
    },
    {
      "inputs": [],
      "name": "repayVAIGuardianPaused",
      "outputs": [
        {
          "internalType": "bool",
          "name": "",
          "type": "bool"
        }
      ],
      "stateMutability": "view",
      "type": "function"
    },
    {
      "inputs": [
        {
          "internalType": "address",
          "name": "",
          "type": "address"
        }
      ],
      "name": "supplyCaps",
      "outputs": [
        {
          "internalType": "uint256",
          "name": "",
          "type": "uint256"
        }
      ],
      "stateMutability": "view",
      "type": "function"
    },
    {
      "inputs": [
        {
          "internalType": "contract VToken",
          "name": "vToken",
          "type": "address"
        }
      ],
      "name": "supportMarket",
      "outputs": [
        {
          "internalType": "uint256",
          "name": "",
          "type": "uint256"
        }
      ],
      "stateMutability": "nonpayable",
      "type": "function"
    },
    {
      "inputs": [],
      "name": "treasuryAddress",
      "outputs": [
        {
          "internalType": "address",
          "name": "",
          "type": "address"
        }
      ],
      "stateMutability": "view",
      "type": "function"
    },
    {
      "inputs": [],
      "name": "treasuryGuardian",
      "outputs": [
        {
          "internalType": "address",
          "name": "",
          "type": "address"
        }
      ],
      "stateMutability": "view",
      "type": "function"
    },
    {
      "inputs": [],
      "name": "treasuryPercent",
      "outputs": [
        {
          "internalType": "uint256",
          "name": "",
          "type": "uint256"
        }
      ],
      "stateMutability": "view",
      "type": "function"
    },
    {
      "inputs": [
        {
          "internalType": "address",
          "name": "market",
          "type": "address"
        }
      ],
      "name": "unlistMarket",
      "outputs": [
        {
          "internalType": "uint256",
          "name": "",
          "type": "uint256"
        }
      ],
      "stateMutability": "nonpayable",
      "type": "function"
    },
    {
      "inputs": [
        {
          "internalType": "address",
          "name": "delegate",
          "type": "address"
        },
        {
          "internalType": "bool",
          "name": "approved",
          "type": "bool"
        }
      ],
      "name": "updateDelegate",
      "outputs": [],
      "stateMutability": "nonpayable",
      "type": "function"
    },
    {
      "inputs": [
        {
          "internalType": "address",
          "name": "",
          "type": "address"
        }
      ],
      "name": "userPoolId",
      "outputs": [
        {
          "internalType": "uint96",
          "name": "",
          "type": "uint96"
        }
      ],
      "stateMutability": "view",
      "type": "function"
    },
    {
      "inputs": [],
      "name": "vaiController",
      "outputs": [
        {
          "internalType": "contract VAIControllerInterface",
          "name": "",
          "type": "address"
        }
      ],
      "stateMutability": "view",
      "type": "function"
    },
    {
      "inputs": [],
      "name": "vaiMintRate",
      "outputs": [
        {
          "internalType": "uint256",
          "name": "",
          "type": "uint256"
        }
      ],
      "stateMutability": "view",
      "type": "function"
    },
    {
      "inputs": [],
      "name": "vaiVaultAddress",
      "outputs": [
        {
          "internalType": "address",
          "name": "",
          "type": "address"
        }
      ],
      "stateMutability": "view",
      "type": "function"
    },
    {
      "inputs": [
        {
          "internalType": "address",
          "name": "",
          "type": "address"
        }
      ],
      "name": "venusAccrued",
      "outputs": [
        {
          "internalType": "uint256",
          "name": "",
          "type": "uint256"
        }
      ],
      "stateMutability": "view",
      "type": "function"
    },
    {
      "inputs": [
        {
          "internalType": "address",
          "name": "",
          "type": "address"
        }
      ],
      "name": "venusBorrowSpeeds",
      "outputs": [
        {
          "internalType": "uint256",
          "name": "",
          "type": "uint256"
        }
      ],
      "stateMutability": "view",
      "type": "function"
    },
    {
      "inputs": [
        {
          "internalType": "address",
          "name": "",
          "type": "address"
        }
      ],
      "name": "venusBorrowState",
      "outputs": [
        {
          "internalType": "uint224",
          "name": "index",
          "type": "uint224"
        },
        {
          "internalType": "uint32",
          "name": "block",
          "type": "uint32"
        }
      ],
      "stateMutability": "view",
      "type": "function"
    },
    {
      "inputs": [
        {
          "internalType": "address",
          "name": "",
          "type": "address"
        },
        {
          "internalType": "address",
          "name": "",
          "type": "address"
        }
      ],
      "name": "venusBorrowerIndex",
      "outputs": [
        {
          "internalType": "uint256",
          "name": "",
          "type": "uint256"
        }
      ],
      "stateMutability": "view",
      "type": "function"
    },
    {
      "inputs": [],
      "name": "venusInitialIndex",
      "outputs": [
        {
          "internalType": "uint224",
          "name": "",
          "type": "uint224"
        }
      ],
      "stateMutability": "view",
      "type": "function"
    },
    {
      "inputs": [
        {
          "internalType": "address",
          "name": "",
          "type": "address"
        },
        {
          "internalType": "address",
          "name": "",
          "type": "address"
        }
      ],
      "name": "venusSupplierIndex",
      "outputs": [
        {
          "internalType": "uint256",
          "name": "",
          "type": "uint256"
        }
      ],
      "stateMutability": "view",
      "type": "function"
    },
    {
      "inputs": [
        {
          "internalType": "address",
          "name": "",
          "type": "address"
        }
      ],
      "name": "venusSupplySpeeds",
      "outputs": [
        {
          "internalType": "uint256",
          "name": "",
          "type": "uint256"
        }
      ],
      "stateMutability": "view",
      "type": "function"
    },
    {
      "inputs": [
        {
          "internalType": "address",
          "name": "",
          "type": "address"
        }
      ],
      "name": "venusSupplyState",
      "outputs": [
        {
          "internalType": "uint224",
          "name": "index",
          "type": "uint224"
        },
        {
          "internalType": "uint32",
          "name": "block",
          "type": "uint32"
        }
      ],
      "stateMutability": "view",
      "type": "function"
    },
    {
      "inputs": [],
      "name": "venusVAIVaultRate",
      "outputs": [
        {
          "internalType": "uint256",
          "name": "",
          "type": "uint256"
        }
      ],
      "stateMutability": "view",
      "type": "function"
    }
  ],
  "transactionHash": "0x8aff6258773a9ebf30ad1265dad2ef7ba11ca6b95aebf1d42969bf1a1be2bcb8",
  "args": [],
  "numDeployments": 9,
  "solcInputHash": "044dc7a340dfc156c37565adf2cf641a",
  "bytecode": "0x6080604052348015600e575f80fd5b5061371c8061001c5f395ff3fe608060405234801561000f575f80fd5b506004361061042c575f3560e01c806396c990641161022c578063c7ee005e11610135578063ddbf54fd116100bf578063f02fdf9711610084578063f02fdf9714610ae4578063f445d70314610af7578063f851a44014610b24578063f968273214610b36578063fa6331d814610b49575f80fd5b8063ddbf54fd14610a6b578063e37d4b7914610a7e578063e85a296014610ab5578063e875544614610ac8578063ede4edd014610ad1575f80fd5b8063d3270f9911610105578063d3270f9914610a18578063d463654c14610a2b578063d686e9ee14610a32578063dce1544914610a45578063dcfbc0c714610a58575f80fd5b8063c7ee005e146109df578063cab4f84c1461085d578063d0d13036146109f2578063d137f36e14610a05575f80fd5b8063b8324c7c116101b6578063bf32442d11610186578063bf32442d1461095a578063c29982381461096b578063c488847b1461098b578063c5b4db551461099e578063c5f956af146109cc575f80fd5b8063b8324c7c146108c4578063bb82aa5e1461091f578063bbb8864a14610932578063bec04f7214610951575f80fd5b8063a78dc775116101fc578063a78dc77514610870578063abfceffc14610883578063afd3783b14610896578063b0772d0b146108a9578063b2eafc39146108b1575f80fd5b806396c99064146108165780639bb27d6214610837578063a657e5791461084a578063a76b3fda1461085d575f80fd5b8063425fad58116103395780637b86e42c116102c35780638c1ac18a116102885780638c1ac18a146107b25780638e8f294b146107d45780639254f5e5146107e7578063929fe9a1146107fa57806394b2294b1461080d575f80fd5b80637b86e42c146107455780637d172bd5146107585780637dc0d1d01461076b57806389c13be01461077e5780638a7dc16514610793575f80fd5b80635dd3fc9d116103095780635dd3fc9d146106ab57806363e0d634146106ca578063719f701b146106ea57806373769099146106f35780637655138314610733575f80fd5b8063425fad58146106535780634a584432146106665780634d99c7761461068557806352d84d1e14610698575f80fd5b806321af4569116103ba5780632bc7e29e1161038a5780632bc7e29e146105905780633093c11e146105af5780633d98a1e5146106095780634088c73e1461061c57806341a18d2c14610629575f80fd5b806321af45691461052c578063236175851461055757806324a3d6221461056a578063267822471461057d575f80fd5b806308e0225c1161040057806308e0225c146104915780630db4b4e5146104bb5780630ef332ca146104c457806310b98338146104ec57806319ef3e8b14610519575f80fd5b80627e3dd21461043057806302c3bcbb1461044857806304ef9d58146104755780630686dab61461047e575b5f80fd5b60015b60405190151581526020015b60405180910390f35b610467610456366004612eb4565b60276020525f908152604090205481565b60405190815260200161043f565b61046760225481565b61046761048c366004612eb4565b610b52565b61046761049f366004612ecf565b601360209081525f928352604080842090915290825290205481565b610467601d5481565b6104d76104d2366004612f06565b611018565b6040805192835260208301919091520161043f565b6104336104fa366004612ecf565b602c60209081525f928352604080842090915290825290205460ff1681565b610467610527366004612f54565b6110b5565b601e5461053f906001600160a01b031681565b6040516001600160a01b03909116815260200161043f565b610467610565366004612eb4565b611147565b600a5461053f906001600160a01b031681565b60015461053f906001600160a01b031681565b61046761059e366004612eb4565b60166020525f908152604090205481565b6105c26105bd366004612fba565b61115d565b604080519715158852602088019690965293151594860194909452606085019190915260808401526001600160601b0390911660a0830152151560c082015260e00161043f565b610433610617366004612eb4565b611222565b6018546104339060ff1681565b610467610637366004612ecf565b601260209081525f928352604080842090915290825290205481565b6018546104339062010000900460ff1681565b610467610674366004612eb4565b601f6020525f908152604090205481565b610467610693366004612fba565b611236565b61053f6106a6366004612fd4565b611257565b6104676106b9366004612eb4565b602b6020525f908152604090205481565b6106dd6106d8366004612feb565b61127f565b60405161043f9190613004565b610467601c5481565b61071b610701366004612eb4565b60356020525f90815260409020546001600160601b031681565b6040516001600160601b03909116815260200161043f565b60185461043390610100900460ff1681565b610467610753366004612eb4565b611358565b601b5461053f906001600160a01b031681565b60045461053f906001600160a01b031681565b61079161078c366004613091565b61136d565b005b6104676107a1366004612eb4565b60146020525f908152604090205481565b6104336107c0366004612eb4565b602d6020525f908152604090205460ff1681565b6105c26107e2366004612eb4565b61142a565b60155461053f906001600160a01b031681565b610433610808366004612ecf565b611452565b61046760075481565b610829610824366004612feb565b611481565b60405161043f929190613126565b60255461053f906001600160a01b031681565b60375461071b906001600160601b031681565b61046761086b366004612eb4565b611525565b6104d761087e366004613149565b61152f565b6106dd610891366004612eb4565b6115bc565b6104676108a4366004612ecf565b611719565b6106dd611750565b60205461053f906001600160a01b031681565b6108fb6108d2366004612eb4565b60106020525f90815260409020546001600160e01b03811690600160e01b900463ffffffff1682565b604080516001600160e01b03909316835263ffffffff90911660208301520161043f565b60025461053f906001600160a01b031681565b610467610940366004612eb4565b602a6020525f908152604090205481565b61046760175481565b6033546001600160a01b031661053f565b61097e610979366004613173565b6117b0565b60405161043f91906131b2565b6104d76109993660046131e9565b611869565b6109b46ec097ce7bc90715b34b9f100000000081565b6040516001600160e01b03909116815260200161043f565b60215461053f906001600160a01b031681565b60315461053f906001600160a01b031681565b61071b610a0036600461323b565b6118fd565b610791610a13366004612fba565b611a03565b60265461053f906001600160a01b031681565b61071b5f81565b610467610a40366004612eb4565b611c5d565b61053f610a53366004613149565b611c72565b60035461053f906001600160a01b031681565b610791610a793660046132f3565b611ca6565b6108fb610a8c366004612eb4565b60116020525f90815260409020546001600160e01b03811690600160e01b900463ffffffff1682565b610433610ac336600461331f565b611d38565b61046760055481565b610467610adf366004612eb4565b611d7c565b610433610af236600461334e565b612025565b610433610b05366004612ecf565b603260209081525f928352604080842090915290825290205460ff1681565b5f5461053f906001600160a01b031681565b610791610b44366004612feb565b6121b4565b610467601a5481565b5f610b8960405180604001604052806015815260200174756e6c6973744d61726b657428616464726573732960581b815250612378565b5f610b9383612428565b805490915060ff16610bb257610bab6009601861244a565b9392505050565b610bbd836002611d38565b610c0e5760405162461bcd60e51b815260206004820152601b60248201527f626f72726f7720616374696f6e206973206e6f7420706175736564000000000060448201526064015b60405180910390fd5b610c18835f611d38565b610c645760405162461bcd60e51b815260206004820152601960248201527f6d696e7420616374696f6e206973206e6f7420706175736564000000000000006044820152606401610c05565b610c6f836001611d38565b610cbb5760405162461bcd60e51b815260206004820152601b60248201527f72656465656d20616374696f6e206973206e6f742070617573656400000000006044820152606401610c05565b610cc6836003611d38565b610d125760405162461bcd60e51b815260206004820152601a60248201527f726570617920616374696f6e206973206e6f74207061757365640000000000006044820152606401610c05565b610d1d836007611d38565b610d735760405162461bcd60e51b815260206004820152602160248201527f656e746572206d61726b657420616374696f6e206973206e6f742070617573656044820152601960fa1b6064820152608401610c05565b610d7e836005611d38565b610dca5760405162461bcd60e51b815260206004820152601e60248201527f6c697175696461746520616374696f6e206973206e6f742070617573656400006044820152606401610c05565b610dd5836004611d38565b610e215760405162461bcd60e51b815260206004820152601a60248201527f7365697a6520616374696f6e206973206e6f74207061757365640000000000006044820152606401610c05565b610e2c836006611d38565b610e785760405162461bcd60e51b815260206004820152601d60248201527f7472616e7366657220616374696f6e206973206e6f74207061757365640000006044820152606401610c05565b610e83836008611d38565b610ecf5760405162461bcd60e51b815260206004820181905260248201527f65786974206d61726b657420616374696f6e206973206e6f74207061757365646044820152606401610c05565b6001600160a01b0383165f908152601f602052604090205415610f2a5760405162461bcd60e51b81526020600482015260136024820152720626f72726f7720636170206973206e6f74203606c1b6044820152606401610c05565b6001600160a01b0383165f9081526027602052604090205415610f855760405162461bcd60e51b81526020600482015260136024820152720737570706c7920636170206973206e6f74203606c1b6044820152606401610c05565b600181015415610fd75760405162461bcd60e51b815260206004820152601a60248201527f636f6c6c61746572616c20666163746f72206973206e6f7420300000000000006044820152606401610c05565b805460ff191681556040516001600160a01b038416907f302feb03efd5741df80efe7f97f5d93d74d46a542a3d312d0faae64fa1f3e0e9905f90a25f610bab565b602654604051630a5d5a0560e41b81526001600160a01b03868116600483015230602483015285811660448301528481166064830152608482018490525f92839283928392169063a5d5a0509060a4016040805180830381865afa158015611082573d5f803e3d5ffd5b505050506040513d601f19601f820116820180604052508101906110a69190613395565b90999098509650505050505050565b6001600160a01b0383165f90815260356020526040812054819081906110e4906001600160601b0316866124c1565b5090925090505f8460018111156110fd576110fd613381565b0361110a57509050610bab565b600184600181111561111e5761111e613381565b0361112c579150610bab9050565b83604051632f03799f60e11b8152600401610c0591906133d7565b5f806111535f846124c1565b5090949350505050565b5f805f805f805f60375f9054906101000a90046001600160601b03166001600160601b0316896001600160601b031611156111b657604051632db8671b60e11b81526001600160601b038a166004820152602401610c05565b5f6111c18a8a611236565b5f9081526009602052604090208054600182015460038301546004840154600585015460069095015460ff9485169d50929b50908316995097509195506001600160601b0382169450600160601b9091041691505092959891949750929550565b5f61122c82612428565b5460ff1692915050565b6001600160a01b031960a083901b166001600160a01b038216175b92915050565b600d8181548110611266575f80fd5b5f918252602090912001546001600160a01b0316905081565b6037546060906001600160601b0390811690831611156112bd57604051632db8671b60e11b81526001600160601b0383166004820152602401610c05565b6001600160601b0382166112e457604051630203217b60e61b815260040160405180910390fd5b6001600160601b0382165f908152603660209081526040918290206001018054835181840281018401909452808452909183018282801561134c57602002820191905f5260205f20905b81546001600160a01b0316815260019091019060200180831161132e575b50505050509050919050565b5f806113645f846124c1565b50949350505050565b61138e6040518060600160405280602281526020016136c560229139612378565b8280158061139c5750808214155b156113ba5760405163512509d360e11b815260040160405180910390fd5b5f5b818110156114225761141a8686838181106113d9576113d96133e5565b90506020020160208101906113ee9190612feb565b858584818110611400576114006133e5565b90506020020160208101906114159190612eb4565b612562565b6001016113bc565b505050505050565b5f805f805f805f61143b5f8961115d565b959e949d50929b5090995097509550909350915050565b5f61145c82612428565b6001600160a01b03939093165f90815260029093016020525050604090205460ff1690565b60366020525f908152604090208054819061149b906133f9565b80601f01602080910402602001604051908101604052809291908181526020018280546114c7906133f9565b80156115125780601f106114e957610100808354040283529160200191611512565b820191905f5260205f20905b8154815290600101906020018083116114f557829003601f168201915b5050506002909301549192505060ff1682565b5f61125182612745565b6026546040516304f65f8b60e21b81523060048201526001600160a01b038481166024830152604482018490525f9283928392839216906313d97e2c906064016040805180830381865afa158015611589573d5f803e3d5ffd5b505050506040513d601f19601f820116820180604052508101906115ad9190613395565b909450925050505b9250929050565b6001600160a01b0381165f908152600860209081526040808320805482518185028101850190935280835260609493849392919083018282801561162757602002820191905f5260205f20905b81546001600160a01b03168152600190910190602001808311611609575b505050505090505f815190505f8167ffffffffffffffff81111561164d5761164d613227565b604051908082528060200260200182016040528015611676578160200160208202803683370190505b5090505f5b8281101561170c575f6116a6858381518110611699576116996133e5565b6020026020010151612428565b805490915060ff1615611703578482815181106116c5576116c56133e5565b60200260200101518387815181106116df576116df6133e5565b6001600160a01b039092166020928302919091019091015261170086613445565b95505b5060010161167b565b5092835250909392505050565b6001600160a01b0382165f908152603560205260408120548190611746906001600160601b0316846124c1565b9695505050505050565b6060600d8054806020026020016040519081016040528092919081815260200182805480156117a657602002820191905f5260205f20905b81546001600160a01b03168152600190910190602001808311611788575b5050505050905090565b6060815f8167ffffffffffffffff8111156117cd576117cd613227565b6040519080825280602002602001820160405280156117f6578160200160208202803683370190505b5090505f5b8281101561136457611833868683818110611818576118186133e5565b905060200201602081019061182d9190612eb4565b33612879565b601481111561184457611844613381565b828281518110611856576118566133e5565b60209081029190910101526001016117fb565b602654604051630779996560e11b81523060048201526001600160a01b0385811660248301528481166044830152606482018490525f928392839283921690630ef332ca906084016040805180830381865afa1580156118cb573d5f803e3d5ffd5b505050506040513d601f19601f820116820180604052508101906118ef9190613395565b909890975095505050505050565b5f61193160405180604001604052806012815260200171637265617465506f6f6c28737472696e672960701b815250612378565b81515f036119525760405163522e397360e11b815260040160405180910390fd5b603780545f9190829061196d906001600160601b031661345d565b82546001600160601b038083166101009490940a848102910219909116179092555f908152603660205260409020909150806119a985826134cd565b5060028101805460ff191660011790556040516001600160601b038316907fc419386a8582a5374f4db03fdbb9fd99c73ef32d6ce9fc3a8c249e97bf31f9af906119f4908790613589565b60405180910390a25092915050565b611a416040518060400160405280602081526020017f72656d6f7665506f6f6c4d61726b65742875696e7439362c6164647265737329815250612378565b6001600160601b038216611a6857604051630203217b60e61b815260040160405180910390fd5b5f611a738383611236565b5f8181526009602052604090205490915060ff16611abe576040516338ddb96b60e11b81526001600160601b03841660048201526001600160a01b0383166024820152604401610c05565b6001600160601b0383165f908152603660205260408120600101805490915b81811015611bcb57846001600160a01b0316838281548110611b0157611b016133e5565b5f918252602090912001546001600160a01b031603611bc35782611b2660018461359b565b81548110611b3657611b366133e5565b905f5260205f20015f9054906101000a90046001600160a01b0316838281548110611b6357611b636133e5565b905f5260205f20015f6101000a8154816001600160a01b0302191690836001600160a01b0316021790555082805480611b9e57611b9e6135ae565b5f8281526020902081015f1990810180546001600160a01b0319169055019055611bcb565b600101611add565b505f83815260096020526040808220805460ff199081168255600182018490556003820180549091169055600481018390556005810183905560060180546cffffffffffffffffffffffffff19169055516001600160a01b038616916001600160601b038816917fc8bef274db6d8c804aba68a69e64268bcfe7dd0aead2efcec0cac73a2df56e129190a35050505050565b5f80611c695f846124c1565b95945050505050565b6008602052815f5260405f208181548110611c8b575f80fd5b5f918252602090912001546001600160a01b03169150829050565b611caf8261294c565b335f908152602c602090815260408083206001600160a01b038616845290915290205481151560ff909116151503611d295760405162461bcd60e51b815260206004820152601b60248201527f44656c65676174696f6e2073746174757320756e6368616e67656400000000006044820152606401610c05565b611d3433838361299a565b5050565b6001600160a01b0382165f90815260296020526040812081836008811115611d6257611d62613381565b815260208101919091526040015f205460ff169392505050565b5f611d88826008612a06565b6040516361bfb47160e11b815233600482015282905f90819081906001600160a01b0385169063c37f68e290602401608060405180830381865afa158015611dd2573d5f803e3d5ffd5b505050506040513d601f19601f82011682018060405250810190611df691906135c2565b50925092509250825f14611e4c5760405162461bcd60e51b815260206004820152601960248201527f6765744163636f756e74536e617073686f74206661696c6564000000000000006044820152606401610c05565b8015611e5e57611746600c600261244a565b5f611e6a873385612a50565b90508015611e8a57611e7f600e600383612af7565b979650505050505050565b5f611e9486612428565b335f90815260028201602052604090205490915060ff16611ebc575f98975050505050505050565b335f9081526002820160209081526040808320805460ff1916905560089091528120805490915b81811015611fd157886001600160a01b0316838281548110611f0757611f076133e5565b5f918252602090912001546001600160a01b031603611fc95782611f2c60018461359b565b81548110611f3c57611f3c6133e5565b905f5260205f20015f9054906101000a90046001600160a01b0316838281548110611f6957611f696133e5565b905f5260205f20015f6101000a8154816001600160a01b0302191690836001600160a01b0316021790555082805480611fa457611fa46135ae565b5f8281526020902081015f1990810180546001600160a01b0319169055019055611fd1565b600101611ee3565b818110611fe057611fe06135f5565b60405133906001600160a01b038b16907fe699a64c18b07ac5b7301aa273f36a2287239eb9501d81950672794afba29a0d905f90a35f9b9a5050505050505050505050565b6001600160a01b0382165f9081526008602090815260408083208054825181850281018501909352808352849383018282801561208957602002820191905f5260205f20905b81546001600160a01b0316815260019091019060200180831161206b575b50939450505050506001600160601b038316158015906120bf57506001600160a01b0384165f9081526016602052604090205415155b156120cd575f915050611251565b5f5b81518110156121a9575f8282815181106120eb576120eb6133e5565b602002602001015190505f6121008683611236565b5f81815260096020526040902060060154909150600160601b900460ff1661219f576040516395dd919360e01b81526001600160a01b0388811660048301525f91908416906395dd919390602401602060405180830381865afa158015612169573d5f803e3d5ffd5b505050506040513d601f19601f8201168201806040525081019061218d9190613609565b111561219f575f945050505050611251565b50506001016120cf565b506001949350505050565b6037546001600160601b0390811690821611156121ef57604051632db8671b60e11b81526001600160601b0382166004820152602401610c05565b335f908152603560205260409020546001600160601b039081169082160361222a57604051631c9d4f3960e31b815260040160405180910390fd5b6001600160601b0381161580159061225d57506001600160601b0381165f9081526036602052604090206002015460ff16155b1561228657604051632da4cc0560e01b81526001600160601b0382166004820152602401610c05565b6122903382612025565b6122ad5760405163592ec11d60e01b815260040160405180910390fd5b335f818152603560209081526040918290205491516001600160601b03928316815291841692917f9181876220501cdac3aa7278fd34e9bd150c30a27b6ed95458fe859761b071f7910160405180910390a3335f81815260356020526040812080546bffffffffffffffffffffffff19166001600160601b0385161790559081906123389082612b76565b9250509150815f14158061234b57505f81115b156123735760405163c978466160e01b81526004810183905260248101829052604401610c05565b505050565b6028546040516318c5e8ab60e01b81526001600160a01b03909116906318c5e8ab906123aa9033908590600401613620565b602060405180830381865afa1580156123c5573d5f803e3d5ffd5b505050506040513d601f19601f820116820180604052508101906123e99190613643565b6124255760405162461bcd60e51b815260206004820152600d60248201526c1858d8d95cdcc819195b9a5959609a1b6044820152606401610c05565b50565b5f60095f6124365f85611236565b81526020019081526020015f209050919050565b5f7f45b96fe442630264581b197e84bbada861235052c5a1aadfff9ea4e40a969aa083601481111561247e5761247e613381565b83601a81111561249057612490613381565b6040805192835260208301919091525f9082015260600160405180910390a1826014811115610bab57610bab613381565b5f8080806001600160601b03861615806124f657506001600160601b0386165f9081526036602052604090206002015460ff16155b1561250b5761250485612428565b9050612545565b5f6125168787611236565b5f81815260096020526040902080549192509060ff1661253e5761253987612428565b612540565b805b925050505b806001015481600401548260050154935093509350509250925092565b6001600160601b03821661258957604051630203217b60e61b815260040160405180910390fd5b6037546001600160601b0390811690831611156125c457604051632db8671b60e11b81526001600160601b0383166004820152602401610c05565b6001600160601b0382165f9081526036602052604090206002015460ff1661260a57604051632da4cc0560e01b81526001600160601b0383166004820152602401610c05565b5f6126155f83611236565b5f8181526009602052604090205490915060ff16612646576040516386dccab760e01b815260040160405180910390fd5b6126508383611236565b5f8181526009602052604090205490915060ff161561269c5760405163d9d72f2b60e01b81526001600160601b03841660048201526001600160a01b0383166024820152604401610c05565b5f8181526009602090815260408083206006810180546bffffffffffffffffffffffff19166001600160601b038916908117909155815460ff19166001908117835581865260368552838620810180549182018155865293852090930180546001600160a01b0319166001600160a01b038816908117909155915190939192917f2159e9508e372ac69e1047a124c5478445206066e5d7df7e4214a1986cd78c8091a350505050565b5f6127846040518060400160405280601781526020017f5f737570706f72744d61726b6574286164647265737329000000000000000000815250612378565b61278d82612428565b5460ff16156127a257611251600a601161244a565b816001600160a01b0316633d9ea3a16040518163ffffffff1660e01b8152600401602060405180830381865afa1580156127de573d5f803e3d5ffd5b505050506040513d601f19601f820116820180604052508101906128029190613643565b505f61280d83612428565b8054600160ff19918216811783556003830180549092169091555f90820155905061283783612bae565b61284083612c84565b6040516001600160a01b038416907fcf583bb0c569eb967f806b11601c4cb93c10310485c67add5f8362c2f212321f905f90a25f610bab565b5f612885836007612a06565b5f61288f84612428565b905061289a81612d46565b6001600160a01b0383165f90815260028201602052604090205460ff16156128c5575f915050611251565b6001600160a01b038084165f8181526002840160209081526040808320805460ff191660019081179091556008835281842080549182018155845291832090910180549489166001600160a01b031990951685179055519192917f3ab23ab0d51cccc0c3085aec51f99228625aa1a922b3a8ca89a26b0f2027a1a59190a3505f9392505050565b6001600160a01b0381166124255760405162461bcd60e51b815260206004820152601560248201527463616e2774206265207a65726f206164647265737360581b6044820152606401610c05565b6001600160a01b038381165f818152602c6020908152604080832094871680845294825291829020805460ff191686151590811790915591519182527fcb325b7784f78486e42849c7a50b8c5ee008d00cd90e108a58912c0fcb6288b4910160405180910390a3505050565b612a108282611d38565b15611d345760405162461bcd60e51b815260206004820152601060248201526f1858dd1a5bdb881a5cc81c185d5cd95960821b6044820152606401610c05565b5f612a62612a5d85612428565b612d46565b612a6b84612428565b6001600160a01b0384165f908152600291909101602052604090205460ff16612a9557505f610bab565b5f80612aa48587865f80612d8b565b9193509091505f9050826014811115612abf57612abf613381565b14612adf57816014811115612ad657612ad6613381565b92505050610bab565b8015612aec576004612ad6565b5f9695505050505050565b5f7f45b96fe442630264581b197e84bbada861235052c5a1aadfff9ea4e40a969aa0846014811115612b2b57612b2b613381565b84601a811115612b3d57612b3d613381565b604080519283526020830191909152810184905260600160405180910390a1836014811115612b6e57612b6e613381565b949350505050565b5f805f805f80612b89885f805f8b612d8b565b925092509250826014811115612ba157612ba1613381565b9891975095509350505050565b600d545f5b81811015612c3157826001600160a01b0316600d8281548110612bd857612bd86133e5565b5f918252602090912001546001600160a01b031603612c295760405162461bcd60e51b815260206004820152600d60248201526c185b1c9958591e481859191959609a1b6044820152606401610c05565b600101612bb3565b5050600d80546001810182555f919091527fd7b6990105719101dabeb77144f2a3385c8033acd3af97e9423a695e81ad1eb50180546001600160a01b0319166001600160a01b0392909216919091179055565b5f612c8d612e38565b6001600160a01b0383165f908152601060209081526040808320601190925282208154939450909290916001600160e01b039091169003612ce85781546001600160e01b0319166ec097ce7bc90715b34b9f10000000001782555b80546001600160e01b03165f03612d195780546001600160e01b0319166ec097ce7bc90715b34b9f10000000001781555b805463ffffffff909316600160e01b026001600160e01b0393841681179091558154909216909117905550565b805460ff166124255760405162461bcd60e51b81526020600482015260116024820152701b585c9ad95d081b9bdd081b1a5cdd1959607a1b6044820152606401610c05565b602654604051637bd48c1f60e11b81525f91829182918291829182916001600160a01b039091169063f7a9183e90612dd19030908f908f908f908f908f9060040161365e565b606060405180830381865afa158015612dec573d5f803e3d5ffd5b505050506040513d601f19601f82011682018060405250810190612e109190613699565b925092509250826014811115612e2857612e28613381565b9b919a5098509650505050505050565b5f612e6c4360405180604001604052806011815260200170626c6f636b2023203e203332206269747360781b815250612e71565b905090565b5f816401000000008410612e985760405162461bcd60e51b8152600401610c059190613589565b509192915050565b6001600160a01b0381168114612425575f80fd5b5f60208284031215612ec4575f80fd5b8135610bab81612ea0565b5f8060408385031215612ee0575f80fd5b8235612eeb81612ea0565b91506020830135612efb81612ea0565b809150509250929050565b5f805f8060808587031215612f19575f80fd5b8435612f2481612ea0565b93506020850135612f3481612ea0565b92506040850135612f4481612ea0565b9396929550929360600135925050565b5f805f60608486031215612f66575f80fd5b8335612f7181612ea0565b92506020840135612f8181612ea0565b9150604084013560028110612f94575f80fd5b809150509250925092565b80356001600160601b0381168114612fb5575f80fd5b919050565b5f8060408385031215612fcb575f80fd5b612eeb83612f9f565b5f60208284031215612fe4575f80fd5b5035919050565b5f60208284031215612ffb575f80fd5b610bab82612f9f565b602080825282518282018190525f9190848201906040850190845b818110156130445783516001600160a01b03168352928401929184019160010161301f565b50909695505050505050565b5f8083601f840112613060575f80fd5b50813567ffffffffffffffff811115613077575f80fd5b6020830191508360208260051b85010111156115b5575f80fd5b5f805f80604085870312156130a4575f80fd5b843567ffffffffffffffff808211156130bb575f80fd5b6130c788838901613050565b909650945060208701359150808211156130df575f80fd5b506130ec87828801613050565b95989497509550505050565b5f81518084528060208401602086015e5f602082860101526020601f19601f83011685010191505092915050565b604081525f61313860408301856130f8565b905082151560208301529392505050565b5f806040838503121561315a575f80fd5b823561316581612ea0565b946020939093013593505050565b5f8060208385031215613184575f80fd5b823567ffffffffffffffff81111561319a575f80fd5b6131a685828601613050565b90969095509350505050565b602080825282518282018190525f9190848201906040850190845b81811015613044578351835292840192918401916001016131cd565b5f805f606084860312156131fb575f80fd5b833561320681612ea0565b9250602084013561321681612ea0565b929592945050506040919091013590565b634e487b7160e01b5f52604160045260245ffd5b5f6020828403121561324b575f80fd5b813567ffffffffffffffff80821115613262575f80fd5b818401915084601f830112613275575f80fd5b81358181111561328757613287613227565b604051601f8201601f19908116603f011681019083821181831017156132af576132af613227565b816040528281528760208487010111156132c7575f80fd5b826020860160208301375f928101602001929092525095945050505050565b8015158114612425575f80fd5b5f8060408385031215613304575f80fd5b823561330f81612ea0565b91506020830135612efb816132e6565b5f8060408385031215613330575f80fd5b823561333b81612ea0565b9150602083013560098110612efb575f80fd5b5f806040838503121561335f575f80fd5b823561336a81612ea0565b915061337860208401612f9f565b90509250929050565b634e487b7160e01b5f52602160045260245ffd5b5f80604083850312156133a6575f80fd5b505080516020909101519092909150565b600281106133d357634e487b7160e01b5f52602160045260245ffd5b9052565b6020810161125182846133b7565b634e487b7160e01b5f52603260045260245ffd5b600181811c9082168061340d57607f821691505b60208210810361342b57634e487b7160e01b5f52602260045260245ffd5b50919050565b634e487b7160e01b5f52601160045260245ffd5b5f6001820161345657613456613431565b5060010190565b5f6001600160601b0380831681810361347857613478613431565b6001019392505050565b601f82111561237357805f5260205f20601f840160051c810160208510156134a75750805b601f840160051c820191505b818110156134c6575f81556001016134b3565b5050505050565b815167ffffffffffffffff8111156134e7576134e7613227565b6134fb816134f584546133f9565b84613482565b602080601f83116001811461352e575f84156135175750858301515b5f19600386901b1c1916600185901b178555611422565b5f85815260208120601f198616915b8281101561355c5788860151825594840194600190910190840161353d565b508582101561357957878501515f19600388901b60f8161c191681555b5050505050600190811b01905550565b602081525f610bab60208301846130f8565b8181038181111561125157611251613431565b634e487b7160e01b5f52603160045260245ffd5b5f805f80608085870312156135d5575f80fd5b505082516020840151604085015160609095015191969095509092509050565b634e487b7160e01b5f52600160045260245ffd5b5f60208284031215613619575f80fd5b5051919050565b6001600160a01b03831681526040602082018190525f90612b6e908301846130f8565b5f60208284031215613653575f80fd5b8151610bab816132e6565b6001600160a01b038781168252868116602083015285166040820152606081018490526080810183905260c08101611e7f60a08301846133b7565b5f805f606084860312156136ab575f80fd5b835192506020840151915060408401519050925092509256fe616464506f6f6c4d61726b6574732875696e7439365b5d2c616464726573735b5d29a2646970667358221220ec09f4527c50092c4a965d56c9dbe154031dc2b8d98bb3327b6a4f9af4668f8064736f6c63430008190033",
  "devdoc": {
    "author": "Venus",
    "details": "This facet contains all the methods related to the market's management in the pool",
    "events": {
      "Failure(uint256,uint256,uint256)": {
        "details": "`error` corresponds to enum Error; `info` corresponds to enum FailureInfo, and `detail` is an arbitrary contract-specific code that enables us to report opaque error codes from upgradeable contracts.*"
      }
    },
    "kind": "dev",
    "methods": {
      "_supportMarket(address)": {
        "details": "Allows a privileged role to add and list markets to the Comptroller",
        "params": {
          "vToken": "The address of the vToken market to list in the Core Pool"
        },
        "returns": {
          "_0": "uint256 0=success, otherwise a failure. (See enum Error for details)"
        }
      },
      "actionPaused(address,uint8)": {
        "params": {
          "action": "Action id",
          "market": "vToken address"
        }
      },
      "addPoolMarkets(uint96[],address[])": {
        "custom:error": "ArrayLengthMismatch Reverts if `poolIds` and `vTokens` arrays have different lengths or if the length is zero.InvalidOperationForCorePool Reverts when attempting to call pool-specific methods on the Core Pool.PoolDoesNotExist Reverts if the target pool ID does not exist.MarketNotListedInCorePool Reverts if the market is not listed in the core pool.MarketAlreadyListed Reverts if the given market is already listed in the specified pool.InactivePool Reverts if attempted to add markets to an inactive pool.",
        "custom:event": "PoolMarketInitialized Emitted after successfully initializing a market in a pool.",
        "params": {
          "poolIds": "Array of pool IDs.",
          "vTokens": "Array of market (vToken) addresses."
        }
      },
      "checkMembership(address,address)": {
        "details": "Reads membership from the Core Pool (`poolId = 0`). Although the account may have entered other pools,      all entered market state is recorded in the Core Pool indexes, making this function applicable to all poolIds",
        "params": {
          "account": "The address of the account to check",
          "vToken": "The vToken to check"
        },
        "returns": {
          "_0": "True if the account is in the asset, otherwise false"
        }
      },
      "createPool(string)": {
        "custom:error": "EmptyPoolLabel Reverts if the provided label is an empty string.",
        "custom:event": "PoolCreated Emitted after successfully creating a new pool.",
        "params": {
          "label": "name for the pool (must be non-empty)."
        },
        "returns": {
          "_0": "poolId The incremental unique identifier of the newly created pool."
        }
      },
      "enterMarkets(address[])": {
        "params": {
          "vTokens": "The list of addresses of the vToken markets to be enabled"
        },
        "returns": {
          "_0": "Success indicator for whether each corresponding market was entered"
        }
      },
      "enterPool(uint96)": {
        "custom:error": "PoolDoesNotExist The specified pool ID does not exist.AlreadyInSelectedPool The user is already in the target pool.IncompatibleBorrowedAssets The user's current borrows are incompatible with the new pool.LiquidityCheckFailed The user's liquidity is insufficient after switching pools.InactivePool The user is trying to enter inactive pool.",
        "custom:event": "PoolSelected Emitted after a successful pool switch.",
        "params": {
          "poolId": "The ID of the pool the user wants to enter."
        }
      },
      "exitMarket(address)": {
        "details": "Sender must not have an outstanding borrow balance in the asset,  or be providing necessary collateral for an outstanding borrow",
        "params": {
          "vTokenAddress": "The address of the asset to be removed"
        },
        "returns": {
          "_0": "Whether or not the account successfully exited the market"
        }
      },
      "getAllMarkets()": {
        "details": "The automatic getter may be used to access an individual market",
        "returns": {
          "_0": "The list of market addresses"
        }
      },
      "getAssetsIn(address)": {
        "details": "Reads membership from the Core Pool (`poolId = 0`). Although the account may have entered other pools,      all entered market state is recorded in the Core Pool indexes, making this function applicable to all poolIds",
        "params": {
          "account": "The address of the account to query"
        },
        "returns": {
          "_0": "assets A dynamic array of vToken markets the account has entered"
        }
      },
      "getCollateralFactor(address)": {
        "params": {
          "vToken": "The address of the vToken to get the collateral factor for"
        },
        "returns": {
          "_0": "The collateral factor for the vToken, scaled by 1e18"
        }
      },
      "getEffectiveLiquidationIncentive(address,address)": {
        "details": "The incentive is determined by the pool entered by the account and the specified vToken      If the pool is inactive or the vToken is not part of the account's pool,      the core pool (poolId = 0) is used as a fallback via `getLiquidationParams()`",
        "params": {
          "account": "The account whose pool is used to determine the market's risk parameters",
          "vToken": "The address of the vToken market"
        },
        "returns": {
          "_0": "The liquidation Incentive for the vToken, scaled by 1e18"
        }
      },
      "getEffectiveLtvFactor(address,address,uint8)": {
        "details": "This value should be used when calculating account liquidity and during liquidation checks.",
        "params": {
          "account": "The account whose pool is used to determine the market's risk parameters.",
          "vToken": "The address of the vToken market.",
          "weightingStrategy": "The weighting strategy to use:                          - `WeightFunction.USE_COLLATERAL_FACTOR` to use collateral factor                          - `WeightFunction.USE_LIQUIDATION_THRESHOLD` to use liquidation threshold"
        },
        "returns": {
          "_0": "factor The effective loan-to-value factor, scaled by 1e18."
        }
      },
      "getLiquidationIncentive(address)": {
        "params": {
          "vToken": "The address of the vToken to get the liquidation Incentive for"
        },
        "returns": {
          "_0": "liquidationIncentive The liquidation incentive for the vToken, scaled by 1e18"
        }
      },
      "getLiquidationThreshold(address)": {
        "params": {
          "vToken": "The address of the vToken to get the liquidation threshold for"
        },
        "returns": {
          "_0": "The liquidation threshold for the vToken, scaled by 1e18"
        }
      },
      "getPoolMarketIndex(uint96,address)": {
        "details": "Computes a unique key for a (poolId, market) pair used in the `_poolMarkets` mapping - For the core pool (`poolId == 0`), this results in the address being left-padded to 32 bytes,   maintaining backward compatibility with legacy mappings - For other pools, packs the `poolId` and `market` address into a single `bytes32` key,   The first 96 bits are used for the `poolId`, and the remaining 160 bits for the `market` address",
        "params": {
          "poolId": "The ID of the pool",
          "vToken": "The address of the market (vToken)"
        },
        "returns": {
          "_0": "PoolMarketId The `bytes32` key that uniquely represents the (poolId, vToken) pair"
        }
      },
      "getPoolVTokens(uint96)": {
        "custom:error": "PoolDoesNotExist Reverts if the given pool ID do not exist.InvalidOperationForCorePool Reverts if called on the Core Pool.",
        "params": {
          "poolId": "The ID of the pool whose vTokens are being queried."
        },
        "returns": {
          "_0": "An array of vToken addresses associated with the pool."
        }
      },
      "getXVSAddress()": {
        "returns": {
          "_0": "The address of XVS token"
        }
      },
      "hasValidPoolBorrows(address,uint96)": {
        "params": {
          "account": "The address of the user attempting to switch pools.",
          "targetPoolId": "The pool ID the user wants to switch into."
        },
        "returns": {
          "_0": "bool True if the switch is allowed, otherwise False."
        }
      },
      "isMarketListed(address)": {
        "params": {
          "vToken": "The vToken Address of the market to check"
        },
        "returns": {
          "_0": "listed True if the (Core Pool, vToken) market is listed, otherwise false"
        }
      },
      "liquidateCalculateSeizeTokens(address,address,address,uint256)": {
        "details": "Used in liquidation (called in vToken.liquidateBorrowFresh)",
        "params": {
          "actualRepayAmount": "The amount of vTokenBorrowed underlying to convert into vTokenCollateral tokens",
          "borrower": "Address of borrower whose collateral is being seized",
          "vTokenBorrowed": "The address of the borrowed vToken",
          "vTokenCollateral": "The address of the collateral vToken"
        },
        "returns": {
          "_0": "(errorCode, number of vTokenCollateral tokens to be seized in a liquidation)"
        }
      },
      "liquidateCalculateSeizeTokens(address,address,uint256)": {
        "details": "Used in liquidation (called in vToken.liquidateBorrowFresh)",
        "params": {
          "actualRepayAmount": "The amount of vTokenBorrowed underlying to convert into vTokenCollateral tokens",
          "vTokenBorrowed": "The address of the borrowed vToken",
          "vTokenCollateral": "The address of the collateral vToken"
        },
        "returns": {
          "_0": "(errorCode, number of vTokenCollateral tokens to be seized in a liquidation)"
        }
      },
      "liquidateVAICalculateSeizeTokens(address,uint256)": {
        "details": "Used in liquidation (called in vToken.liquidateBorrowFresh)",
        "params": {
          "actualRepayAmount": "The amount of vTokenBorrowed underlying to convert into vTokenCollateral tokens",
          "vTokenCollateral": "The address of the collateral vToken"
        },
        "returns": {
          "_0": "(errorCode, number of vTokenCollateral tokens to be seized in a liquidation)"
        }
      },
      "markets(address)": {
        "details": "Fetches the Market struct associated with the core pool and returns all relevant parameters.",
        "params": {
          "vToken": "The address of the vToken whose market configuration is to be fetched."
        },
        "returns": {
          "collateralFactorMantissa": "The maximum borrowable percentage of collateral, in mantissa.",
          "isBorrowAllowed": "Whether borrowing is allowed in this market.",
          "isListed": "Whether the market is listed and enabled.",
          "isVenus": "Whether this market is eligible for VENUS rewards.",
          "liquidationIncentiveMantissa": "The max liquidation incentive allowed for this market, in mantissa.",
          "liquidationThresholdMantissa": "The threshold at which liquidation is triggered, in mantissa.",
          "marketPoolId": "The pool ID this market belongs to."
        }
      },
      "poolMarkets(uint96,address)": {
        "custom:error": "PoolDoesNotExist Reverts if the given pool ID do not exist.",
        "details": "Fetches the Market struct associated with the poolId and returns all relevant parameters.",
        "params": {
          "poolId": "The ID of the pool whose market configuration is being queried.",
          "vToken": "The address of the vToken whose market configuration is to be fetched."
        },
        "returns": {
          "collateralFactorMantissa": "The maximum borrowable percentage of collateral, in mantissa.",
          "isBorrowAllowed": "Whether borrowing is allowed in this market.",
          "isListed": "Whether the market is listed and enabled.",
          "isVenus": "Whether this market is eligible for XVS rewards.",
          "liquidationIncentiveMantissa": "The liquidation incentive allowed for this market, in mantissa.",
          "liquidationThresholdMantissa": "The threshold at which liquidation is triggered, in mantissa.",
          "marketPoolId": "The pool ID this market belongs to."
        }
      },
      "removePoolMarket(uint96,address)": {
        "custom:error": "InvalidOperationForCorePool Reverts if called on the Core Pool.PoolMarketNotFound Reverts if the market is not listed in the pool.",
        "custom:event": "PoolMarketRemoved Emitted after a market is successfully removed from a pool.",
        "params": {
          "poolId": "The ID of the pool from which the market should be removed.",
          "vToken": "The address of the market token to remove."
        }
      },
      "supportMarket(address)": {
        "params": {
          "vToken": "The address of the market (token) to list"
        },
        "returns": {
          "_0": "uint256 0=success, otherwise a failure. (See enum Error for details)"
        }
      },
      "unlistMarket(address)": {
        "details": "Checks if market actions are paused and borrowCap/supplyCap/CF are set to 0",
        "params": {
          "market": "The address of the market (vToken) to unlist"
        },
        "returns": {
          "_0": "uint256 0=success, otherwise a failure (See enum Error for details)"
        }
      },
      "updateDelegate(address,bool)": {
        "params": {
          "approved": "Whether to grant (true) or revoke (false) the borrowing or redeeming rights",
          "delegate": "The address to update the rights for"
        }
      }
    },
    "title": "MarketFacet",
    "version": 1
  },
  "userdoc": {
    "errors": {
      "AlreadyInSelectedPool()": [
        {
          "notice": "Thrown when You are already in the selected pool."
        }
      ],
      "ArrayLengthMismatch()": [
        {
          "notice": "Thrown when input array lengths do not match"
        }
      ],
      "BorrowNotAllowedInPool()": [
        {
          "notice": "Thrown when borrowing is not allowed in the selected pool for a given market."
        }
      ],
      "EmptyPoolLabel()": [
        {
          "notice": "Thrown when the pool label is empty"
        }
      ],
      "InactivePool(uint96)": [
        {
          "notice": "Thrown when attempting to interact with an inactive pool"
        }
      ],
      "IncompatibleBorrowedAssets()": [
        {
          "notice": "Thrown when One or more of your assets are not compatible with the selected pool."
        }
      ],
      "InvalidOperationForCorePool()": [
        {
          "notice": "Thrown when trying to call pool-specific methods on the Core Pool"
        }
      ],
      "InvalidWeightingStrategy(uint8)": [
        {
          "notice": "Thrown when an invalid weighting strategy is provided"
        }
      ],
      "LiquidityCheckFailed(uint256,uint256)": [
        {
          "notice": "Thrown when Switching to this pool would fail the liquidity check or lead to liquidation."
        }
      ],
      "MarketAlreadyListed(uint96,address)": [
        {
          "notice": "Thrown when a vToken is already listed in the specified pool"
        }
      ],
      "MarketConfigNotFound()": [
        {
          "notice": "Thrown when market is not set in the _poolMarkets mapping"
        }
      ],
      "MarketNotListedInCorePool()": [
        {
          "notice": "Thrown when market trying to add in a pool is not listed in the core pool"
        }
      ],
      "PoolDoesNotExist(uint96)": [
        {
          "notice": "Thrown when a given pool ID does not exist"
        }
      ],
      "PoolMarketNotFound(uint96,address)": [
        {
          "notice": "Thrown when trying to remove a market that is not listed in the given pool."
        }
      ]
    },
    "events": {
      "DelegateUpdated(address,address,bool)": {
        "notice": "Emitted when the borrowing or redeeming delegate rights are updated for an account"
      },
      "DistributedVAIVaultVenus(uint256)": {
        "notice": "Emitted when XVS is distributed to VAI Vault"
      },
      "MarketEntered(address,address)": {
        "notice": "Emitted when an account enters a market"
      },
      "MarketExited(address,address)": {
        "notice": "Emitted when an account exits a market"
      },
      "MarketListed(address)": {
        "notice": "Emitted when an admin supports a market"
      },
      "MarketUnlisted(address)": {
        "notice": "Emitted when an admin unlists a market"
      },
      "PoolCreated(uint96,string)": {
        "notice": "Emitted when a new pool is created"
      },
      "PoolMarketInitialized(uint96,address)": {
        "notice": "Emitted when a market is initialized in a pool"
      },
      "PoolMarketRemoved(uint96,address)": {
        "notice": "Emitted when a vToken market is removed from a pool"
      },
      "PoolSelected(address,uint96,uint96)": {
        "notice": "Emitted when a user enters or exits a pool (poolId = 0 means exit)"
      }
    },
    "kind": "user",
    "methods": {
      "_supportMarket(address)": {
        "notice": "Adds the given vToken market to the Core Pool (`poolId = 0`) and marks it as listed"
      },
      "accountAssets(address,uint256)": {
        "notice": "Per-account mapping of \"assets you are in\", capped by maxAssets"
      },
      "actionPaused(address,uint8)": {
        "notice": "Checks if a certain action is paused on a market"
      },
      "addPoolMarkets(uint96[],address[])": {
        "notice": "Batch initializes market entries with basic config."
      },
      "admin()": {
        "notice": "Administrator for this contract"
      },
      "allMarkets(uint256)": {
        "notice": "A list of all markets"
      },
      "approvedDelegates(address,address)": {
        "notice": "Whether the delegate is allowed to borrow or redeem on behalf of the user"
      },
      "borrowCapGuardian()": {
        "notice": "The borrowCapGuardian can set borrowCaps to any number for any market. Lowering the borrow cap could disable borrowing on the given market."
      },
      "borrowCaps(address)": {
        "notice": "Borrow caps enforced by borrowAllowed for each vToken address."
      },
      "checkMembership(address,address)": {
        "notice": "Returns whether the given account has entered the specified vToken market in the Core Pool"
      },
      "closeFactorMantissa()": {
        "notice": "Multiplier used to calculate the maximum repayAmount when liquidating a borrow"
      },
      "comptrollerImplementation()": {
        "notice": "Active brains of Unitroller"
      },
      "createPool(string)": {
        "notice": "Creates a new pool with the given label."
      },
      "enterMarkets(address[])": {
        "notice": "Add assets to be included in account liquidity calculation"
      },
      "enterPool(uint96)": {
        "notice": "Allows a user to switch to a new pool (e.g., e-mode )."
      },
      "exitMarket(address)": {
        "notice": "Removes asset from sender's account liquidity calculation"
      },
      "getAllMarkets()": {
        "notice": "Return all of the markets"
      },
      "getAssetsIn(address)": {
        "notice": "Returns the vToken markets an account has entered in the Core Pool"
      },
      "getCollateralFactor(address)": {
        "notice": "Get the core pool collateral factor for a vToken"
      },
      "getEffectiveLiquidationIncentive(address,address)": {
        "notice": "Get the Effective liquidation Incentive for a given account and market"
      },
      "getEffectiveLtvFactor(address,address,uint8)": {
        "notice": "Returns the effective loan-to-value factor (collateral factor or liquidation threshold) for a given account and market."
      },
      "getLiquidationIncentive(address)": {
        "notice": "Get the core pool liquidation Incentive for a vToken"
      },
      "getLiquidationThreshold(address)": {
        "notice": "Get the core pool liquidation threshold for a vToken"
      },
      "getPoolMarketIndex(uint96,address)": {
        "notice": "Returns the unique market index for the given poolId and vToken pair"
      },
      "getPoolVTokens(uint96)": {
        "notice": "Returns the full list of vTokens for a given pool ID."
      },
      "getXVSAddress()": {
        "notice": "Returns the XVS address"
      },
      "hasValidPoolBorrows(address,uint96)": {
        "notice": "Returns true if the user can switch to the given target pool, i.e., all markets they have borrowed from are also borrowable in the target pool."
      },
      "isComptroller()": {
        "notice": "Indicator that this is a Comptroller contract (for inspection)"
      },
      "isForcedLiquidationEnabled(address)": {
        "notice": "Whether forced liquidation is enabled for all users borrowing in a certain market"
      },
      "isForcedLiquidationEnabledForUser(address,address)": {
        "notice": "Whether forced liquidation is enabled for the borrows of a user in a market"
      },
      "isMarketListed(address)": {
        "notice": "Checks whether the given vToken market is listed in the Core Pool (`poolId = 0`)"
      },
      "lastPoolId()": {
        "notice": "Counter used to generate unique pool IDs"
      },
      "liquidateCalculateSeizeTokens(address,address,address,uint256)": {
        "notice": "Calculate number of tokens of collateral asset to seize given an underlying amount"
      },
      "liquidateCalculateSeizeTokens(address,address,uint256)": {
        "notice": "Calculate number of tokens of collateral asset to seize given an underlying amount"
      },
      "liquidateVAICalculateSeizeTokens(address,uint256)": {
        "notice": "Calculate number of tokens of collateral asset to seize given an underlying amount"
      },
      "markets(address)": {
        "notice": "Returns the market configuration for a vToken in the core pool (poolId = 0)."
      },
      "maxAssets()": {
        "notice": "Max number of assets a single account can participate in (borrow or use as collateral)"
      },
      "mintVAIGuardianPaused()": {
        "notice": "The Pause Guardian can pause certain actions as a safety mechanism."
      },
      "mintedVAIs(address)": {
        "notice": "The minted VAI amount to each user"
      },
      "oracle()": {
        "notice": "Oracle which gives the price of any given asset"
      },
      "pauseGuardian()": {
        "notice": "The Pause Guardian can pause certain actions as a safety mechanism."
      },
      "pendingAdmin()": {
        "notice": "Pending administrator for this contract"
      },
      "pendingComptrollerImplementation()": {
        "notice": "Pending brains of Unitroller"
      },
      "poolMarkets(uint96,address)": {
        "notice": "Returns the market configuration for a vToken from _poolMarkets."
      },
      "pools(uint96)": {
        "notice": "Mapping of pool ID to its corresponding metadata and configuration"
      },
      "prime()": {
        "notice": "Prime token address"
      },
      "protocolPaused()": {
        "notice": "Pause/Unpause whole protocol actions"
      },
      "removePoolMarket(uint96,address)": {
        "notice": "Removes a market (vToken) from the specified pool."
      },
      "supplyCaps(address)": {
        "notice": "Supply caps enforced by mintAllowed for each vToken address. Defaults to zero which corresponds to minting notAllowed"
      },
      "supportMarket(address)": {
        "notice": "Alias to _supportMarket to support the Isolated Lending Comptroller Interface"
      },
      "treasuryAddress()": {
        "notice": "Treasury address"
      },
      "treasuryGuardian()": {
        "notice": "Treasury Guardian address"
      },
      "treasuryPercent()": {
        "notice": "Fee percent of accrued interest with decimal 18"
      },
      "unlistMarket(address)": {
        "notice": "Unlists the given vToken market from the Core Pool (`poolId = 0`) by setting `isListed` to false"
      },
      "updateDelegate(address,bool)": {
        "notice": "Grants or revokes the borrowing or redeeming delegate rights to / from an account  If allowed, the delegate will be able to borrow funds on behalf of the sender  Upon a delegated borrow, the delegate will receive the funds, and the borrower  will see the debt on their account  Upon a delegated redeem, the delegate will receive the redeemed amount and the approver  will see a deduction in his vToken balance"
      },
      "userPoolId(address)": {
        "notice": "Tracks the selected pool for each user"
      },
      "vaiController()": {
        "notice": "The Address of VAIController"
      },
      "vaiMintRate()": {
        "notice": "VAI Mint Rate as a percentage"
      },
      "venusAccrued(address)": {
        "notice": "The XVS accrued but not yet transferred to each user"
      },
      "venusBorrowSpeeds(address)": {
        "notice": "The rate at which venus is distributed to the corresponding borrow market (per block)"
      },
      "venusBorrowState(address)": {
        "notice": "The Venus market borrow state for each market"
      },
      "venusBorrowerIndex(address,address)": {
        "notice": "The Venus borrow index for each market for each borrower as of the last time they accrued XVS"
      },
      "venusInitialIndex()": {
        "notice": "The initial Venus index for a market"
      },
      "venusSupplierIndex(address,address)": {
        "notice": "The Venus supply index for each market for each supplier as of the last time they accrued XVS"
      },
      "venusSupplySpeeds(address)": {
        "notice": "The rate at which venus is distributed to the corresponding supply market (per block)"
      },
      "venusSupplyState(address)": {
        "notice": "The Venus market supply state for each market"
      },
      "venusVAIVaultRate()": {
        "notice": "The rate at which the flywheel distributes XVS to VAI Vault, per block"
      }
    },
    "notice": "This facet contract contains functions regarding markets",
    "version": 1
  },
  "storageLayout": {
    "storage": [
      {
        "astId": 4481,
        "contract": "contracts/Comptroller/Diamond/facets/MarketFacet.sol:MarketFacet",
        "label": "admin",
        "offset": 0,
        "slot": "0",
        "type": "t_address"
      },
      {
        "astId": 4484,
        "contract": "contracts/Comptroller/Diamond/facets/MarketFacet.sol:MarketFacet",
        "label": "pendingAdmin",
        "offset": 0,
        "slot": "1",
        "type": "t_address"
      },
      {
        "astId": 4487,
        "contract": "contracts/Comptroller/Diamond/facets/MarketFacet.sol:MarketFacet",
        "label": "comptrollerImplementation",
        "offset": 0,
        "slot": "2",
        "type": "t_address"
      },
      {
        "astId": 4490,
        "contract": "contracts/Comptroller/Diamond/facets/MarketFacet.sol:MarketFacet",
        "label": "pendingComptrollerImplementation",
        "offset": 0,
        "slot": "3",
        "type": "t_address"
      },
      {
        "astId": 4497,
        "contract": "contracts/Comptroller/Diamond/facets/MarketFacet.sol:MarketFacet",
        "label": "oracle",
        "offset": 0,
        "slot": "4",
        "type": "t_contract(ResilientOracleInterface)3797"
      },
      {
        "astId": 4500,
        "contract": "contracts/Comptroller/Diamond/facets/MarketFacet.sol:MarketFacet",
        "label": "closeFactorMantissa",
        "offset": 0,
        "slot": "5",
        "type": "t_uint256"
      },
      {
        "astId": 4503,
        "contract": "contracts/Comptroller/Diamond/facets/MarketFacet.sol:MarketFacet",
        "label": "_oldLiquidationIncentiveMantissa",
        "offset": 0,
        "slot": "6",
        "type": "t_uint256"
      },
      {
        "astId": 4506,
        "contract": "contracts/Comptroller/Diamond/facets/MarketFacet.sol:MarketFacet",
        "label": "maxAssets",
        "offset": 0,
        "slot": "7",
        "type": "t_uint256"
      },
      {
        "astId": 4513,
        "contract": "contracts/Comptroller/Diamond/facets/MarketFacet.sol:MarketFacet",
        "label": "accountAssets",
        "offset": 0,
        "slot": "8",
        "type": "t_mapping(t_address,t_array(t_contract(VToken)33831)dyn_storage)"
      },
      {
        "astId": 4547,
        "contract": "contracts/Comptroller/Diamond/facets/MarketFacet.sol:MarketFacet",
        "label": "_poolMarkets",
        "offset": 0,
        "slot": "9",
        "type": "t_mapping(t_userDefinedValueType(PoolMarketId)13320,t_struct(Market)4540_storage)"
      },
      {
        "astId": 4550,
        "contract": "contracts/Comptroller/Diamond/facets/MarketFacet.sol:MarketFacet",
        "label": "pauseGuardian",
        "offset": 0,
        "slot": "10",
        "type": "t_address"
      },
      {
        "astId": 4553,
        "contract": "contracts/Comptroller/Diamond/facets/MarketFacet.sol:MarketFacet",
        "label": "_mintGuardianPaused",
        "offset": 20,
        "slot": "10",
        "type": "t_bool"
      },
      {
        "astId": 4556,
        "contract": "contracts/Comptroller/Diamond/facets/MarketFacet.sol:MarketFacet",
        "label": "_borrowGuardianPaused",
        "offset": 21,
        "slot": "10",
        "type": "t_bool"
      },
      {
        "astId": 4559,
        "contract": "contracts/Comptroller/Diamond/facets/MarketFacet.sol:MarketFacet",
        "label": "transferGuardianPaused",
        "offset": 22,
        "slot": "10",
        "type": "t_bool"
      },
      {
        "astId": 4562,
        "contract": "contracts/Comptroller/Diamond/facets/MarketFacet.sol:MarketFacet",
        "label": "seizeGuardianPaused",
        "offset": 23,
        "slot": "10",
        "type": "t_bool"
      },
      {
        "astId": 4567,
        "contract": "contracts/Comptroller/Diamond/facets/MarketFacet.sol:MarketFacet",
        "label": "mintGuardianPaused",
        "offset": 0,
        "slot": "11",
        "type": "t_mapping(t_address,t_bool)"
      },
      {
        "astId": 4572,
        "contract": "contracts/Comptroller/Diamond/facets/MarketFacet.sol:MarketFacet",
        "label": "borrowGuardianPaused",
        "offset": 0,
        "slot": "12",
        "type": "t_mapping(t_address,t_bool)"
      },
      {
        "astId": 4584,
        "contract": "contracts/Comptroller/Diamond/facets/MarketFacet.sol:MarketFacet",
        "label": "allMarkets",
        "offset": 0,
        "slot": "13",
        "type": "t_array(t_contract(VToken)33831)dyn_storage"
      },
      {
        "astId": 4587,
        "contract": "contracts/Comptroller/Diamond/facets/MarketFacet.sol:MarketFacet",
        "label": "venusRate",
        "offset": 0,
        "slot": "14",
        "type": "t_uint256"
      },
      {
        "astId": 4592,
        "contract": "contracts/Comptroller/Diamond/facets/MarketFacet.sol:MarketFacet",
        "label": "venusSpeeds",
        "offset": 0,
        "slot": "15",
        "type": "t_mapping(t_address,t_uint256)"
      },
      {
        "astId": 4598,
        "contract": "contracts/Comptroller/Diamond/facets/MarketFacet.sol:MarketFacet",
        "label": "venusSupplyState",
        "offset": 0,
        "slot": "16",
        "type": "t_mapping(t_address,t_struct(VenusMarketState)4579_storage)"
      },
      {
        "astId": 4604,
        "contract": "contracts/Comptroller/Diamond/facets/MarketFacet.sol:MarketFacet",
        "label": "venusBorrowState",
        "offset": 0,
        "slot": "17",
        "type": "t_mapping(t_address,t_struct(VenusMarketState)4579_storage)"
      },
      {
        "astId": 4611,
        "contract": "contracts/Comptroller/Diamond/facets/MarketFacet.sol:MarketFacet",
        "label": "venusSupplierIndex",
        "offset": 0,
        "slot": "18",
        "type": "t_mapping(t_address,t_mapping(t_address,t_uint256))"
      },
      {
        "astId": 4618,
        "contract": "contracts/Comptroller/Diamond/facets/MarketFacet.sol:MarketFacet",
        "label": "venusBorrowerIndex",
        "offset": 0,
        "slot": "19",
        "type": "t_mapping(t_address,t_mapping(t_address,t_uint256))"
      },
      {
        "astId": 4623,
        "contract": "contracts/Comptroller/Diamond/facets/MarketFacet.sol:MarketFacet",
        "label": "venusAccrued",
        "offset": 0,
        "slot": "20",
        "type": "t_mapping(t_address,t_uint256)"
      },
      {
        "astId": 4627,
        "contract": "contracts/Comptroller/Diamond/facets/MarketFacet.sol:MarketFacet",
        "label": "vaiController",
        "offset": 0,
        "slot": "21",
        "type": "t_contract(VAIControllerInterface)27283"
      },
      {
        "astId": 4632,
        "contract": "contracts/Comptroller/Diamond/facets/MarketFacet.sol:MarketFacet",
        "label": "mintedVAIs",
        "offset": 0,
        "slot": "22",
        "type": "t_mapping(t_address,t_uint256)"
      },
      {
        "astId": 4635,
        "contract": "contracts/Comptroller/Diamond/facets/MarketFacet.sol:MarketFacet",
        "label": "vaiMintRate",
        "offset": 0,
        "slot": "23",
        "type": "t_uint256"
      },
      {
        "astId": 4638,
        "contract": "contracts/Comptroller/Diamond/facets/MarketFacet.sol:MarketFacet",
        "label": "mintVAIGuardianPaused",
        "offset": 0,
        "slot": "24",
        "type": "t_bool"
      },
      {
        "astId": 4640,
        "contract": "contracts/Comptroller/Diamond/facets/MarketFacet.sol:MarketFacet",
        "label": "repayVAIGuardianPaused",
        "offset": 1,
        "slot": "24",
        "type": "t_bool"
      },
      {
        "astId": 4643,
        "contract": "contracts/Comptroller/Diamond/facets/MarketFacet.sol:MarketFacet",
        "label": "protocolPaused",
        "offset": 2,
        "slot": "24",
        "type": "t_bool"
      },
      {
        "astId": 4646,
        "contract": "contracts/Comptroller/Diamond/facets/MarketFacet.sol:MarketFacet",
        "label": "venusVAIRate",
        "offset": 0,
        "slot": "25",
        "type": "t_uint256"
      },
      {
        "astId": 4652,
        "contract": "contracts/Comptroller/Diamond/facets/MarketFacet.sol:MarketFacet",
        "label": "venusVAIVaultRate",
        "offset": 0,
        "slot": "26",
        "type": "t_uint256"
      },
      {
        "astId": 4654,
        "contract": "contracts/Comptroller/Diamond/facets/MarketFacet.sol:MarketFacet",
        "label": "vaiVaultAddress",
        "offset": 0,
        "slot": "27",
        "type": "t_address"
      },
      {
        "astId": 4656,
        "contract": "contracts/Comptroller/Diamond/facets/MarketFacet.sol:MarketFacet",
        "label": "releaseStartBlock",
        "offset": 0,
        "slot": "28",
        "type": "t_uint256"
      },
      {
        "astId": 4658,
        "contract": "contracts/Comptroller/Diamond/facets/MarketFacet.sol:MarketFacet",
        "label": "minReleaseAmount",
        "offset": 0,
        "slot": "29",
        "type": "t_uint256"
      },
      {
        "astId": 4664,
        "contract": "contracts/Comptroller/Diamond/facets/MarketFacet.sol:MarketFacet",
        "label": "borrowCapGuardian",
        "offset": 0,
        "slot": "30",
        "type": "t_address"
      },
      {
        "astId": 4669,
        "contract": "contracts/Comptroller/Diamond/facets/MarketFacet.sol:MarketFacet",
        "label": "borrowCaps",
        "offset": 0,
        "slot": "31",
        "type": "t_mapping(t_address,t_uint256)"
      },
      {
        "astId": 4675,
        "contract": "contracts/Comptroller/Diamond/facets/MarketFacet.sol:MarketFacet",
        "label": "treasuryGuardian",
        "offset": 0,
        "slot": "32",
        "type": "t_address"
      },
      {
        "astId": 4678,
        "contract": "contracts/Comptroller/Diamond/facets/MarketFacet.sol:MarketFacet",
        "label": "treasuryAddress",
        "offset": 0,
        "slot": "33",
        "type": "t_address"
      },
      {
        "astId": 4681,
        "contract": "contracts/Comptroller/Diamond/facets/MarketFacet.sol:MarketFacet",
        "label": "treasuryPercent",
        "offset": 0,
        "slot": "34",
        "type": "t_uint256"
      },
      {
        "astId": 4689,
        "contract": "contracts/Comptroller/Diamond/facets/MarketFacet.sol:MarketFacet",
        "label": "venusContributorSpeeds",
        "offset": 0,
        "slot": "35",
        "type": "t_mapping(t_address,t_uint256)"
      },
      {
        "astId": 4694,
        "contract": "contracts/Comptroller/Diamond/facets/MarketFacet.sol:MarketFacet",
        "label": "lastContributorBlock",
        "offset": 0,
        "slot": "36",
        "type": "t_mapping(t_address,t_uint256)"
      },
      {
        "astId": 4699,
        "contract": "contracts/Comptroller/Diamond/facets/MarketFacet.sol:MarketFacet",
        "label": "liquidatorContract",
        "offset": 0,
        "slot": "37",
        "type": "t_address"
      },
      {
        "astId": 4705,
        "contract": "contracts/Comptroller/Diamond/facets/MarketFacet.sol:MarketFacet",
        "label": "comptrollerLens",
        "offset": 0,
        "slot": "38",
        "type": "t_contract(ComptrollerLensInterface)4464"
      },
      {
        "astId": 4713,
        "contract": "contracts/Comptroller/Diamond/facets/MarketFacet.sol:MarketFacet",
        "label": "supplyCaps",
        "offset": 0,
        "slot": "39",
        "type": "t_mapping(t_address,t_uint256)"
      },
      {
        "astId": 4719,
        "contract": "contracts/Comptroller/Diamond/facets/MarketFacet.sol:MarketFacet",
        "label": "accessControl",
        "offset": 0,
        "slot": "40",
        "type": "t_address"
      },
      {
        "astId": 4726,
        "contract": "contracts/Comptroller/Diamond/facets/MarketFacet.sol:MarketFacet",
        "label": "_actionPaused",
        "offset": 0,
        "slot": "41",
        "type": "t_mapping(t_address,t_mapping(t_uint256,t_bool))"
      },
      {
        "astId": 4734,
        "contract": "contracts/Comptroller/Diamond/facets/MarketFacet.sol:MarketFacet",
        "label": "venusBorrowSpeeds",
        "offset": 0,
        "slot": "42",
        "type": "t_mapping(t_address,t_uint256)"
      },
      {
        "astId": 4739,
        "contract": "contracts/Comptroller/Diamond/facets/MarketFacet.sol:MarketFacet",
        "label": "venusSupplySpeeds",
        "offset": 0,
        "slot": "43",
        "type": "t_mapping(t_address,t_uint256)"
      },
      {
        "astId": 4749,
        "contract": "contracts/Comptroller/Diamond/facets/MarketFacet.sol:MarketFacet",
        "label": "approvedDelegates",
        "offset": 0,
        "slot": "44",
        "type": "t_mapping(t_address,t_mapping(t_address,t_bool))"
      },
      {
        "astId": 4757,
        "contract": "contracts/Comptroller/Diamond/facets/MarketFacet.sol:MarketFacet",
        "label": "isForcedLiquidationEnabled",
        "offset": 0,
        "slot": "45",
        "type": "t_mapping(t_address,t_bool)"
      },
      {
        "astId": 4776,
        "contract": "contracts/Comptroller/Diamond/facets/MarketFacet.sol:MarketFacet",
        "label": "_selectorToFacetAndPosition",
        "offset": 0,
        "slot": "46",
        "type": "t_mapping(t_bytes4,t_struct(FacetAddressAndPosition)4765_storage)"
      },
      {
        "astId": 4781,
        "contract": "contracts/Comptroller/Diamond/facets/MarketFacet.sol:MarketFacet",
        "label": "_facetFunctionSelectors",
        "offset": 0,
        "slot": "47",
        "type": "t_mapping(t_address,t_struct(FacetFunctionSelectors)4771_storage)"
      },
      {
        "astId": 4784,
        "contract": "contracts/Comptroller/Diamond/facets/MarketFacet.sol:MarketFacet",
        "label": "_facetAddresses",
        "offset": 0,
        "slot": "48",
        "type": "t_array(t_address)dyn_storage"
      },
      {
        "astId": 4791,
        "contract": "contracts/Comptroller/Diamond/facets/MarketFacet.sol:MarketFacet",
        "label": "prime",
        "offset": 0,
        "slot": "49",
        "type": "t_contract(IPrime)24461"
      },
      {
        "astId": 4801,
        "contract": "contracts/Comptroller/Diamond/facets/MarketFacet.sol:MarketFacet",
        "label": "isForcedLiquidationEnabledForUser",
        "offset": 0,
        "slot": "50",
        "type": "t_mapping(t_address,t_mapping(t_address,t_bool))"
      },
      {
        "astId": 4807,
        "contract": "contracts/Comptroller/Diamond/facets/MarketFacet.sol:MarketFacet",
        "label": "xvs",
        "offset": 0,
        "slot": "51",
        "type": "t_address"
      },
      {
        "astId": 4810,
        "contract": "contracts/Comptroller/Diamond/facets/MarketFacet.sol:MarketFacet",
        "label": "xvsVToken",
        "offset": 0,
        "slot": "52",
        "type": "t_address"
      },
      {
        "astId": 4829,
        "contract": "contracts/Comptroller/Diamond/facets/MarketFacet.sol:MarketFacet",
        "label": "userPoolId",
        "offset": 0,
        "slot": "53",
        "type": "t_mapping(t_address,t_uint96)"
      },
      {
        "astId": 4835,
        "contract": "contracts/Comptroller/Diamond/facets/MarketFacet.sol:MarketFacet",
        "label": "pools",
        "offset": 0,
        "slot": "54",
        "type": "t_mapping(t_uint96,t_struct(PoolData)4824_storage)"
      },
      {
        "astId": 4838,
        "contract": "contracts/Comptroller/Diamond/facets/MarketFacet.sol:MarketFacet",
        "label": "lastPoolId",
        "offset": 0,
        "slot": "55",
        "type": "t_uint96"
      }
    ],
    "types": {
      "t_address": {
        "encoding": "inplace",
        "label": "address",
        "numberOfBytes": "20"
      },
      "t_array(t_address)dyn_storage": {
        "base": "t_address",
        "encoding": "dynamic_array",
        "label": "address[]",
        "numberOfBytes": "32"
      },
      "t_array(t_bytes4)dyn_storage": {
        "base": "t_bytes4",
        "encoding": "dynamic_array",
        "label": "bytes4[]",
        "numberOfBytes": "32"
      },
      "t_array(t_contract(VToken)33831)dyn_storage": {
        "base": "t_contract(VToken)33831",
        "encoding": "dynamic_array",
        "label": "contract VToken[]",
        "numberOfBytes": "32"
      },
      "t_bool": {
        "encoding": "inplace",
        "label": "bool",
        "numberOfBytes": "1"
      },
      "t_bytes4": {
        "encoding": "inplace",
        "label": "bytes4",
        "numberOfBytes": "4"
      },
      "t_contract(ComptrollerLensInterface)4464": {
        "encoding": "inplace",
        "label": "contract ComptrollerLensInterface",
        "numberOfBytes": "20"
      },
      "t_contract(IPrime)24461": {
        "encoding": "inplace",
        "label": "contract IPrime",
        "numberOfBytes": "20"
      },
      "t_contract(ResilientOracleInterface)3797": {
        "encoding": "inplace",
        "label": "contract ResilientOracleInterface",
        "numberOfBytes": "20"
      },
      "t_contract(VAIControllerInterface)27283": {
        "encoding": "inplace",
        "label": "contract VAIControllerInterface",
        "numberOfBytes": "20"
      },
      "t_contract(VToken)33831": {
        "encoding": "inplace",
        "label": "contract VToken",
        "numberOfBytes": "20"
      },
      "t_mapping(t_address,t_array(t_contract(VToken)33831)dyn_storage)": {
        "encoding": "mapping",
        "key": "t_address",
        "label": "mapping(address => contract VToken[])",
        "numberOfBytes": "32",
        "value": "t_array(t_contract(VToken)33831)dyn_storage"
      },
      "t_mapping(t_address,t_bool)": {
        "encoding": "mapping",
        "key": "t_address",
        "label": "mapping(address => bool)",
        "numberOfBytes": "32",
        "value": "t_bool"
      },
      "t_mapping(t_address,t_mapping(t_address,t_bool))": {
        "encoding": "mapping",
        "key": "t_address",
        "label": "mapping(address => mapping(address => bool))",
        "numberOfBytes": "32",
        "value": "t_mapping(t_address,t_bool)"
      },
      "t_mapping(t_address,t_mapping(t_address,t_uint256))": {
        "encoding": "mapping",
        "key": "t_address",
        "label": "mapping(address => mapping(address => uint256))",
        "numberOfBytes": "32",
        "value": "t_mapping(t_address,t_uint256)"
      },
      "t_mapping(t_address,t_mapping(t_uint256,t_bool))": {
        "encoding": "mapping",
        "key": "t_address",
        "label": "mapping(address => mapping(uint256 => bool))",
        "numberOfBytes": "32",
        "value": "t_mapping(t_uint256,t_bool)"
      },
      "t_mapping(t_address,t_struct(FacetFunctionSelectors)4771_storage)": {
        "encoding": "mapping",
        "key": "t_address",
        "label": "mapping(address => struct ComptrollerV13Storage.FacetFunctionSelectors)",
        "numberOfBytes": "32",
        "value": "t_struct(FacetFunctionSelectors)4771_storage"
      },
      "t_mapping(t_address,t_struct(VenusMarketState)4579_storage)": {
        "encoding": "mapping",
        "key": "t_address",
        "label": "mapping(address => struct ComptrollerV1Storage.VenusMarketState)",
        "numberOfBytes": "32",
        "value": "t_struct(VenusMarketState)4579_storage"
      },
      "t_mapping(t_address,t_uint256)": {
        "encoding": "mapping",
        "key": "t_address",
        "label": "mapping(address => uint256)",
        "numberOfBytes": "32",
        "value": "t_uint256"
      },
      "t_mapping(t_address,t_uint96)": {
        "encoding": "mapping",
        "key": "t_address",
        "label": "mapping(address => uint96)",
        "numberOfBytes": "32",
        "value": "t_uint96"
      },
      "t_mapping(t_bytes4,t_struct(FacetAddressAndPosition)4765_storage)": {
        "encoding": "mapping",
        "key": "t_bytes4",
        "label": "mapping(bytes4 => struct ComptrollerV13Storage.FacetAddressAndPosition)",
        "numberOfBytes": "32",
        "value": "t_struct(FacetAddressAndPosition)4765_storage"
      },
      "t_mapping(t_uint256,t_bool)": {
        "encoding": "mapping",
        "key": "t_uint256",
        "label": "mapping(uint256 => bool)",
        "numberOfBytes": "32",
        "value": "t_bool"
      },
      "t_mapping(t_uint96,t_struct(PoolData)4824_storage)": {
        "encoding": "mapping",
        "key": "t_uint96",
        "label": "mapping(uint96 => struct ComptrollerV17Storage.PoolData)",
        "numberOfBytes": "32",
        "value": "t_struct(PoolData)4824_storage"
      },
      "t_mapping(t_userDefinedValueType(PoolMarketId)13320,t_struct(Market)4540_storage)": {
        "encoding": "mapping",
        "key": "t_userDefinedValueType(PoolMarketId)13320",
        "label": "mapping(PoolMarketId => struct ComptrollerV1Storage.Market)",
        "numberOfBytes": "32",
        "value": "t_struct(Market)4540_storage"
      },
      "t_string_storage": {
        "encoding": "bytes",
        "label": "string",
        "numberOfBytes": "32"
      },
      "t_struct(FacetAddressAndPosition)4765_storage": {
        "encoding": "inplace",
        "label": "struct ComptrollerV13Storage.FacetAddressAndPosition",
        "members": [
          {
            "astId": 4762,
            "contract": "contracts/Comptroller/Diamond/facets/MarketFacet.sol:MarketFacet",
            "label": "facetAddress",
            "offset": 0,
            "slot": "0",
            "type": "t_address"
          },
          {
            "astId": 4764,
            "contract": "contracts/Comptroller/Diamond/facets/MarketFacet.sol:MarketFacet",
            "label": "functionSelectorPosition",
            "offset": 20,
            "slot": "0",
            "type": "t_uint96"
          }
        ],
        "numberOfBytes": "32"
      },
      "t_struct(FacetFunctionSelectors)4771_storage": {
        "encoding": "inplace",
        "label": "struct ComptrollerV13Storage.FacetFunctionSelectors",
        "members": [
          {
            "astId": 4768,
            "contract": "contracts/Comptroller/Diamond/facets/MarketFacet.sol:MarketFacet",
            "label": "functionSelectors",
            "offset": 0,
            "slot": "0",
            "type": "t_array(t_bytes4)dyn_storage"
          },
          {
            "astId": 4770,
            "contract": "contracts/Comptroller/Diamond/facets/MarketFacet.sol:MarketFacet",
            "label": "facetAddressPosition",
            "offset": 0,
            "slot": "1",
            "type": "t_uint256"
          }
        ],
        "numberOfBytes": "64"
      },
      "t_struct(Market)4540_storage": {
        "encoding": "inplace",
        "label": "struct ComptrollerV1Storage.Market",
        "members": [
          {
            "astId": 4516,
            "contract": "contracts/Comptroller/Diamond/facets/MarketFacet.sol:MarketFacet",
            "label": "isListed",
            "offset": 0,
            "slot": "0",
            "type": "t_bool"
          },
          {
            "astId": 4519,
            "contract": "contracts/Comptroller/Diamond/facets/MarketFacet.sol:MarketFacet",
            "label": "collateralFactorMantissa",
            "offset": 0,
            "slot": "1",
            "type": "t_uint256"
          },
          {
            "astId": 4524,
            "contract": "contracts/Comptroller/Diamond/facets/MarketFacet.sol:MarketFacet",
            "label": "accountMembership",
            "offset": 0,
            "slot": "2",
            "type": "t_mapping(t_address,t_bool)"
          },
          {
            "astId": 4527,
            "contract": "contracts/Comptroller/Diamond/facets/MarketFacet.sol:MarketFacet",
            "label": "isVenus",
            "offset": 0,
            "slot": "3",
            "type": "t_bool"
          },
          {
            "astId": 4530,
            "contract": "contracts/Comptroller/Diamond/facets/MarketFacet.sol:MarketFacet",
            "label": "liquidationThresholdMantissa",
            "offset": 0,
            "slot": "4",
            "type": "t_uint256"
          },
          {
            "astId": 4533,
            "contract": "contracts/Comptroller/Diamond/facets/MarketFacet.sol:MarketFacet",
            "label": "liquidationIncentiveMantissa",
            "offset": 0,
            "slot": "5",
            "type": "t_uint256"
          },
          {
            "astId": 4536,
            "contract": "contracts/Comptroller/Diamond/facets/MarketFacet.sol:MarketFacet",
            "label": "poolId",
            "offset": 0,
            "slot": "6",
            "type": "t_uint96"
          },
          {
            "astId": 4539,
            "contract": "contracts/Comptroller/Diamond/facets/MarketFacet.sol:MarketFacet",
            "label": "isBorrowAllowed",
            "offset": 12,
            "slot": "6",
            "type": "t_bool"
          }
        ],
        "numberOfBytes": "224"
      },
      "t_struct(PoolData)4824_storage": {
        "encoding": "inplace",
        "label": "struct ComptrollerV17Storage.PoolData",
        "members": [
          {
            "astId": 4816,
            "contract": "contracts/Comptroller/Diamond/facets/MarketFacet.sol:MarketFacet",
            "label": "label",
            "offset": 0,
            "slot": "0",
            "type": "t_string_storage"
          },
          {
            "astId": 4820,
            "contract": "contracts/Comptroller/Diamond/facets/MarketFacet.sol:MarketFacet",
            "label": "vTokens",
            "offset": 0,
            "slot": "1",
            "type": "t_array(t_address)dyn_storage"
          },
          {
            "astId": 4823,
            "contract": "contracts/Comptroller/Diamond/facets/MarketFacet.sol:MarketFacet",
            "label": "isActive",
            "offset": 0,
            "slot": "2",
            "type": "t_bool"
          }
        ],
        "numberOfBytes": "96"
      },
      "t_struct(VenusMarketState)4579_storage": {
        "encoding": "inplace",
        "label": "struct ComptrollerV1Storage.VenusMarketState",
        "members": [
          {
            "astId": 4575,
            "contract": "contracts/Comptroller/Diamond/facets/MarketFacet.sol:MarketFacet",
            "label": "index",
            "offset": 0,
            "slot": "0",
            "type": "t_uint224"
          },
          {
            "astId": 4578,
            "contract": "contracts/Comptroller/Diamond/facets/MarketFacet.sol:MarketFacet",
            "label": "block",
            "offset": 28,
            "slot": "0",
            "type": "t_uint32"
          }
        ],
        "numberOfBytes": "32"
      },
      "t_uint224": {
        "encoding": "inplace",
        "label": "uint224",
        "numberOfBytes": "28"
      },
      "t_uint256": {
        "encoding": "inplace",
        "label": "uint256",
        "numberOfBytes": "32"
      },
      "t_uint32": {
        "encoding": "inplace",
        "label": "uint32",
        "numberOfBytes": "4"
      },
      "t_uint96": {
        "encoding": "inplace",
        "label": "uint96",
        "numberOfBytes": "12"
      },
      "t_userDefinedValueType(PoolMarketId)13320": {
        "encoding": "inplace",
        "label": "PoolMarketId",
        "numberOfBytes": "32"
      }
    }
  }
}