{
  "address": "0xF2F2aE5480c4527787Fb7Cde1Ed9A3EdfD40A60d",
  "abi": [
    {
      "anonymous": false,
      "inputs": [
        {
          "indexed": true,
          "internalType": "address",
          "name": "approver",
          "type": "address"
        },
        {
          "indexed": true,
          "internalType": "address",
          "name": "delegate",
          "type": "address"
        },
        {
          "indexed": false,
          "internalType": "bool",
          "name": "approved",
          "type": "bool"
        }
      ],
      "name": "DelegateUpdated",
      "type": "event"
    },
    {
      "anonymous": false,
      "inputs": [
        {
          "indexed": false,
          "internalType": "uint256",
          "name": "amount",
          "type": "uint256"
        }
      ],
      "name": "DistributedVAIVaultVenus",
      "type": "event"
    },
    {
      "anonymous": false,
      "inputs": [
        {
          "indexed": false,
          "internalType": "uint256",
          "name": "error",
          "type": "uint256"
        },
        {
          "indexed": false,
          "internalType": "uint256",
          "name": "info",
          "type": "uint256"
        },
        {
          "indexed": false,
          "internalType": "uint256",
          "name": "detail",
          "type": "uint256"
        }
      ],
      "name": "Failure",
      "type": "event"
    },
    {
      "anonymous": false,
      "inputs": [
        {
          "indexed": true,
          "internalType": "contract VToken",
          "name": "vToken",
          "type": "address"
        },
        {
          "indexed": true,
          "internalType": "address",
          "name": "account",
          "type": "address"
        }
      ],
      "name": "MarketEntered",
      "type": "event"
    },
    {
      "anonymous": false,
      "inputs": [
        {
          "indexed": true,
          "internalType": "contract VToken",
          "name": "vToken",
          "type": "address"
        },
        {
          "indexed": true,
          "internalType": "address",
          "name": "account",
          "type": "address"
        }
      ],
      "name": "MarketExited",
      "type": "event"
    },
    {
      "anonymous": false,
      "inputs": [
        {
          "indexed": true,
          "internalType": "contract VToken",
          "name": "vToken",
          "type": "address"
        }
      ],
      "name": "MarketListed",
      "type": "event"
    },
    {
      "constant": false,
      "inputs": [
        {
          "internalType": "contract VToken",
          "name": "vToken",
          "type": "address"
        }
      ],
      "name": "_supportMarket",
      "outputs": [
        {
          "internalType": "uint256",
          "name": "",
          "type": "uint256"
        }
      ],
      "payable": false,
      "stateMutability": "nonpayable",
      "type": "function"
    },
    {
      "constant": true,
      "inputs": [
        {
          "internalType": "address",
          "name": "",
          "type": "address"
        },
        {
          "internalType": "uint256",
          "name": "",
          "type": "uint256"
        }
      ],
      "name": "accountAssets",
      "outputs": [
        {
          "internalType": "contract VToken",
          "name": "",
          "type": "address"
        }
      ],
      "payable": false,
      "stateMutability": "view",
      "type": "function"
    },
    {
      "constant": true,
      "inputs": [
        {
          "internalType": "address",
          "name": "market",
          "type": "address"
        },
        {
          "internalType": "enum ComptrollerTypes.Action",
          "name": "action",
          "type": "uint8"
        }
      ],
      "name": "actionPaused",
      "outputs": [
        {
          "internalType": "bool",
          "name": "",
          "type": "bool"
        }
      ],
      "payable": false,
      "stateMutability": "view",
      "type": "function"
    },
    {
      "constant": true,
      "inputs": [],
      "name": "admin",
      "outputs": [
        {
          "internalType": "address",
          "name": "",
          "type": "address"
        }
      ],
      "payable": false,
      "stateMutability": "view",
      "type": "function"
    },
    {
      "constant": true,
      "inputs": [
        {
          "internalType": "uint256",
          "name": "",
          "type": "uint256"
        }
      ],
      "name": "allMarkets",
      "outputs": [
        {
          "internalType": "contract VToken",
          "name": "",
          "type": "address"
        }
      ],
      "payable": false,
      "stateMutability": "view",
      "type": "function"
    },
    {
      "constant": true,
      "inputs": [
        {
          "internalType": "address",
          "name": "",
          "type": "address"
        },
        {
          "internalType": "address",
          "name": "",
          "type": "address"
        }
      ],
      "name": "approvedDelegates",
      "outputs": [
        {
          "internalType": "bool",
          "name": "",
          "type": "bool"
        }
      ],
      "payable": false,
      "stateMutability": "view",
      "type": "function"
    },
    {
      "constant": true,
      "inputs": [],
      "name": "borrowCapGuardian",
      "outputs": [
        {
          "internalType": "address",
          "name": "",
          "type": "address"
        }
      ],
      "payable": false,
      "stateMutability": "view",
      "type": "function"
    },
    {
      "constant": true,
      "inputs": [
        {
          "internalType": "address",
          "name": "",
          "type": "address"
        }
      ],
      "name": "borrowCaps",
      "outputs": [
        {
          "internalType": "uint256",
          "name": "",
          "type": "uint256"
        }
      ],
      "payable": false,
      "stateMutability": "view",
      "type": "function"
    },
    {
      "constant": true,
      "inputs": [
        {
          "internalType": "address",
          "name": "account",
          "type": "address"
        },
        {
          "internalType": "contract VToken",
          "name": "vToken",
          "type": "address"
        }
      ],
      "name": "checkMembership",
      "outputs": [
        {
          "internalType": "bool",
          "name": "",
          "type": "bool"
        }
      ],
      "payable": false,
      "stateMutability": "view",
      "type": "function"
    },
    {
      "constant": true,
      "inputs": [],
      "name": "closeFactorMantissa",
      "outputs": [
        {
          "internalType": "uint256",
          "name": "",
          "type": "uint256"
        }
      ],
      "payable": false,
      "stateMutability": "view",
      "type": "function"
    },
    {
      "constant": true,
      "inputs": [],
      "name": "comptrollerImplementation",
      "outputs": [
        {
          "internalType": "address",
          "name": "",
          "type": "address"
        }
      ],
      "payable": false,
      "stateMutability": "view",
      "type": "function"
    },
    {
      "constant": true,
      "inputs": [],
      "name": "comptrollerLens",
      "outputs": [
        {
          "internalType": "contract ComptrollerLensInterface",
          "name": "",
          "type": "address"
        }
      ],
      "payable": false,
      "stateMutability": "view",
      "type": "function"
    },
    {
      "constant": false,
      "inputs": [
        {
          "internalType": "address[]",
          "name": "vTokens",
          "type": "address[]"
        }
      ],
      "name": "enterMarkets",
      "outputs": [
        {
          "internalType": "uint256[]",
          "name": "",
          "type": "uint256[]"
        }
      ],
      "payable": false,
      "stateMutability": "nonpayable",
      "type": "function"
    },
    {
      "constant": false,
      "inputs": [
        {
          "internalType": "address",
          "name": "vTokenAddress",
          "type": "address"
        }
      ],
      "name": "exitMarket",
      "outputs": [
        {
          "internalType": "uint256",
          "name": "",
          "type": "uint256"
        }
      ],
      "payable": false,
      "stateMutability": "nonpayable",
      "type": "function"
    },
    {
      "constant": true,
      "inputs": [],
      "name": "getAllMarkets",
      "outputs": [
        {
          "internalType": "contract VToken[]",
          "name": "",
          "type": "address[]"
        }
      ],
      "payable": false,
      "stateMutability": "view",
      "type": "function"
    },
    {
      "constant": true,
      "inputs": [
        {
          "internalType": "address",
          "name": "account",
          "type": "address"
        }
      ],
      "name": "getAssetsIn",
      "outputs": [
        {
          "internalType": "contract VToken[]",
          "name": "",
          "type": "address[]"
        }
      ],
      "payable": false,
      "stateMutability": "view",
      "type": "function"
    },
    {
      "constant": true,
      "inputs": [],
      "name": "getXVSAddress",
      "outputs": [
        {
          "internalType": "address",
          "name": "",
          "type": "address"
        }
      ],
      "payable": false,
      "stateMutability": "view",
      "type": "function"
    },
    {
      "constant": true,
      "inputs": [],
      "name": "isComptroller",
      "outputs": [
        {
          "internalType": "bool",
          "name": "",
          "type": "bool"
        }
      ],
      "payable": false,
      "stateMutability": "pure",
      "type": "function"
    },
    {
      "constant": true,
      "inputs": [
        {
          "internalType": "address",
          "name": "",
          "type": "address"
        }
      ],
      "name": "isForcedLiquidationEnabled",
      "outputs": [
        {
          "internalType": "bool",
          "name": "",
          "type": "bool"
        }
      ],
      "payable": false,
      "stateMutability": "view",
      "type": "function"
    },
    {
      "constant": true,
      "inputs": [
        {
          "internalType": "address",
          "name": "",
          "type": "address"
        },
        {
          "internalType": "address",
          "name": "",
          "type": "address"
        }
      ],
      "name": "isForcedLiquidationEnabledForUser",
      "outputs": [
        {
          "internalType": "bool",
          "name": "",
          "type": "bool"
        }
      ],
      "payable": false,
      "stateMutability": "view",
      "type": "function"
    },
    {
      "constant": true,
      "inputs": [
        {
          "internalType": "address",
          "name": "vTokenBorrowed",
          "type": "address"
        },
        {
          "internalType": "address",
          "name": "vTokenCollateral",
          "type": "address"
        },
        {
          "internalType": "uint256",
          "name": "actualRepayAmount",
          "type": "uint256"
        }
      ],
      "name": "liquidateCalculateSeizeTokens",
      "outputs": [
        {
          "internalType": "uint256",
          "name": "",
          "type": "uint256"
        },
        {
          "internalType": "uint256",
          "name": "",
          "type": "uint256"
        }
      ],
      "payable": false,
      "stateMutability": "view",
      "type": "function"
    },
    {
      "constant": true,
      "inputs": [
        {
          "internalType": "address",
          "name": "vTokenCollateral",
          "type": "address"
        },
        {
          "internalType": "uint256",
          "name": "actualRepayAmount",
          "type": "uint256"
        }
      ],
      "name": "liquidateVAICalculateSeizeTokens",
      "outputs": [
        {
          "internalType": "uint256",
          "name": "",
          "type": "uint256"
        },
        {
          "internalType": "uint256",
          "name": "",
          "type": "uint256"
        }
      ],
      "payable": false,
      "stateMutability": "view",
      "type": "function"
    },
    {
      "constant": true,
      "inputs": [],
      "name": "liquidationIncentiveMantissa",
      "outputs": [
        {
          "internalType": "uint256",
          "name": "",
          "type": "uint256"
        }
      ],
      "payable": false,
      "stateMutability": "view",
      "type": "function"
    },
    {
      "constant": true,
      "inputs": [],
      "name": "liquidatorContract",
      "outputs": [
        {
          "internalType": "address",
          "name": "",
          "type": "address"
        }
      ],
      "payable": false,
      "stateMutability": "view",
      "type": "function"
    },
    {
      "constant": true,
      "inputs": [
        {
          "internalType": "address",
          "name": "",
          "type": "address"
        }
      ],
      "name": "markets",
      "outputs": [
        {
          "internalType": "bool",
          "name": "isListed",
          "type": "bool"
        },
        {
          "internalType": "uint256",
          "name": "collateralFactorMantissa",
          "type": "uint256"
        },
        {
          "internalType": "bool",
          "name": "isVenus",
          "type": "bool"
        }
      ],
      "payable": false,
      "stateMutability": "view",
      "type": "function"
    },
    {
      "constant": true,
      "inputs": [],
      "name": "maxAssets",
      "outputs": [
        {
          "internalType": "uint256",
          "name": "",
          "type": "uint256"
        }
      ],
      "payable": false,
      "stateMutability": "view",
      "type": "function"
    },
    {
      "constant": true,
      "inputs": [],
      "name": "minReleaseAmount",
      "outputs": [
        {
          "internalType": "uint256",
          "name": "",
          "type": "uint256"
        }
      ],
      "payable": false,
      "stateMutability": "view",
      "type": "function"
    },
    {
      "constant": true,
      "inputs": [],
      "name": "mintVAIGuardianPaused",
      "outputs": [
        {
          "internalType": "bool",
          "name": "",
          "type": "bool"
        }
      ],
      "payable": false,
      "stateMutability": "view",
      "type": "function"
    },
    {
      "constant": true,
      "inputs": [
        {
          "internalType": "address",
          "name": "",
          "type": "address"
        }
      ],
      "name": "mintedVAIs",
      "outputs": [
        {
          "internalType": "uint256",
          "name": "",
          "type": "uint256"
        }
      ],
      "payable": false,
      "stateMutability": "view",
      "type": "function"
    },
    {
      "constant": true,
      "inputs": [],
      "name": "oracle",
      "outputs": [
        {
          "internalType": "contract PriceOracle",
          "name": "",
          "type": "address"
        }
      ],
      "payable": false,
      "stateMutability": "view",
      "type": "function"
    },
    {
      "constant": true,
      "inputs": [],
      "name": "pauseGuardian",
      "outputs": [
        {
          "internalType": "address",
          "name": "",
          "type": "address"
        }
      ],
      "payable": false,
      "stateMutability": "view",
      "type": "function"
    },
    {
      "constant": true,
      "inputs": [],
      "name": "pendingAdmin",
      "outputs": [
        {
          "internalType": "address",
          "name": "",
          "type": "address"
        }
      ],
      "payable": false,
      "stateMutability": "view",
      "type": "function"
    },
    {
      "constant": true,
      "inputs": [],
      "name": "pendingComptrollerImplementation",
      "outputs": [
        {
          "internalType": "address",
          "name": "",
          "type": "address"
        }
      ],
      "payable": false,
      "stateMutability": "view",
      "type": "function"
    },
    {
      "constant": true,
      "inputs": [],
      "name": "prime",
      "outputs": [
        {
          "internalType": "contract IPrime",
          "name": "",
          "type": "address"
        }
      ],
      "payable": false,
      "stateMutability": "view",
      "type": "function"
    },
    {
      "constant": true,
      "inputs": [],
      "name": "protocolPaused",
      "outputs": [
        {
          "internalType": "bool",
          "name": "",
          "type": "bool"
        }
      ],
      "payable": false,
      "stateMutability": "view",
      "type": "function"
    },
    {
      "constant": true,
      "inputs": [],
      "name": "releaseStartBlock",
      "outputs": [
        {
          "internalType": "uint256",
          "name": "",
          "type": "uint256"
        }
      ],
      "payable": false,
      "stateMutability": "view",
      "type": "function"
    },
    {
      "constant": true,
      "inputs": [],
      "name": "repayVAIGuardianPaused",
      "outputs": [
        {
          "internalType": "bool",
          "name": "",
          "type": "bool"
        }
      ],
      "payable": false,
      "stateMutability": "view",
      "type": "function"
    },
    {
      "constant": true,
      "inputs": [
        {
          "internalType": "address",
          "name": "",
          "type": "address"
        }
      ],
      "name": "supplyCaps",
      "outputs": [
        {
          "internalType": "uint256",
          "name": "",
          "type": "uint256"
        }
      ],
      "payable": false,
      "stateMutability": "view",
      "type": "function"
    },
    {
      "constant": true,
      "inputs": [],
      "name": "treasuryAddress",
      "outputs": [
        {
          "internalType": "address",
          "name": "",
          "type": "address"
        }
      ],
      "payable": false,
      "stateMutability": "view",
      "type": "function"
    },
    {
      "constant": true,
      "inputs": [],
      "name": "treasuryGuardian",
      "outputs": [
        {
          "internalType": "address",
          "name": "",
          "type": "address"
        }
      ],
      "payable": false,
      "stateMutability": "view",
      "type": "function"
    },
    {
      "constant": true,
      "inputs": [],
      "name": "treasuryPercent",
      "outputs": [
        {
          "internalType": "uint256",
          "name": "",
          "type": "uint256"
        }
      ],
      "payable": false,
      "stateMutability": "view",
      "type": "function"
    },
    {
      "constant": false,
      "inputs": [
        {
          "internalType": "address",
          "name": "delegate",
          "type": "address"
        },
        {
          "internalType": "bool",
          "name": "approved",
          "type": "bool"
        }
      ],
      "name": "updateDelegate",
      "outputs": [],
      "payable": false,
      "stateMutability": "nonpayable",
      "type": "function"
    },
    {
      "constant": true,
      "inputs": [],
      "name": "vaiController",
      "outputs": [
        {
          "internalType": "contract VAIControllerInterface",
          "name": "",
          "type": "address"
        }
      ],
      "payable": false,
      "stateMutability": "view",
      "type": "function"
    },
    {
      "constant": true,
      "inputs": [],
      "name": "vaiMintRate",
      "outputs": [
        {
          "internalType": "uint256",
          "name": "",
          "type": "uint256"
        }
      ],
      "payable": false,
      "stateMutability": "view",
      "type": "function"
    },
    {
      "constant": true,
      "inputs": [],
      "name": "vaiVaultAddress",
      "outputs": [
        {
          "internalType": "address",
          "name": "",
          "type": "address"
        }
      ],
      "payable": false,
      "stateMutability": "view",
      "type": "function"
    },
    {
      "constant": true,
      "inputs": [
        {
          "internalType": "address",
          "name": "",
          "type": "address"
        }
      ],
      "name": "venusAccrued",
      "outputs": [
        {
          "internalType": "uint256",
          "name": "",
          "type": "uint256"
        }
      ],
      "payable": false,
      "stateMutability": "view",
      "type": "function"
    },
    {
      "constant": true,
      "inputs": [
        {
          "internalType": "address",
          "name": "",
          "type": "address"
        }
      ],
      "name": "venusBorrowSpeeds",
      "outputs": [
        {
          "internalType": "uint256",
          "name": "",
          "type": "uint256"
        }
      ],
      "payable": false,
      "stateMutability": "view",
      "type": "function"
    },
    {
      "constant": true,
      "inputs": [
        {
          "internalType": "address",
          "name": "",
          "type": "address"
        }
      ],
      "name": "venusBorrowState",
      "outputs": [
        {
          "internalType": "uint224",
          "name": "index",
          "type": "uint224"
        },
        {
          "internalType": "uint32",
          "name": "block",
          "type": "uint32"
        }
      ],
      "payable": false,
      "stateMutability": "view",
      "type": "function"
    },
    {
      "constant": true,
      "inputs": [
        {
          "internalType": "address",
          "name": "",
          "type": "address"
        },
        {
          "internalType": "address",
          "name": "",
          "type": "address"
        }
      ],
      "name": "venusBorrowerIndex",
      "outputs": [
        {
          "internalType": "uint256",
          "name": "",
          "type": "uint256"
        }
      ],
      "payable": false,
      "stateMutability": "view",
      "type": "function"
    },
    {
      "constant": true,
      "inputs": [],
      "name": "venusInitialIndex",
      "outputs": [
        {
          "internalType": "uint224",
          "name": "",
          "type": "uint224"
        }
      ],
      "payable": false,
      "stateMutability": "view",
      "type": "function"
    },
    {
      "constant": true,
      "inputs": [
        {
          "internalType": "address",
          "name": "",
          "type": "address"
        },
        {
          "internalType": "address",
          "name": "",
          "type": "address"
        }
      ],
      "name": "venusSupplierIndex",
      "outputs": [
        {
          "internalType": "uint256",
          "name": "",
          "type": "uint256"
        }
      ],
      "payable": false,
      "stateMutability": "view",
      "type": "function"
    },
    {
      "constant": true,
      "inputs": [
        {
          "internalType": "address",
          "name": "",
          "type": "address"
        }
      ],
      "name": "venusSupplySpeeds",
      "outputs": [
        {
          "internalType": "uint256",
          "name": "",
          "type": "uint256"
        }
      ],
      "payable": false,
      "stateMutability": "view",
      "type": "function"
    },
    {
      "constant": true,
      "inputs": [
        {
          "internalType": "address",
          "name": "",
          "type": "address"
        }
      ],
      "name": "venusSupplyState",
      "outputs": [
        {
          "internalType": "uint224",
          "name": "index",
          "type": "uint224"
        },
        {
          "internalType": "uint32",
          "name": "block",
          "type": "uint32"
        }
      ],
      "payable": false,
      "stateMutability": "view",
      "type": "function"
    },
    {
      "constant": true,
      "inputs": [],
      "name": "venusVAIVaultRate",
      "outputs": [
        {
          "internalType": "uint256",
          "name": "",
          "type": "uint256"
        }
      ],
      "payable": false,
      "stateMutability": "view",
      "type": "function"
    }
  ],
  "transactionHash": "0x67723c0eddb93856b5ce99ed119a517a6064c939a9cc33f9c6e58912a0b88cda",
  "args": [],
  "numDeployments": 4,
  "solcInputHash": "506bbeed5e5814c0309e06940945462d",
  "bytecode": "0x608060405234801561001057600080fd5b50611d2a806100206000396000f3fe608060405234801561001057600080fd5b50600436106103415760003560e01c80639bb27d62116101b8578063c5b4db5511610104578063e37d4b79116100a2578063ede4edd01161007c578063ede4edd014610929578063f445d7031461094f578063f851a4401461097d578063fa6331d81461098557610341565b8063e37d4b79146108cc578063e85a2960146108f2578063e87554461461092157610341565b8063d3270f99116100de578063d3270f9914610860578063dce1544914610868578063dcfbc0c714610894578063ddbf54fd1461089c57610341565b8063c5b4db551461082c578063c5f956af14610850578063c7ee005e1461085857610341565b8063b8324c7c11610171578063bec04f721161014b578063bec04f7214610776578063bf32442d1461077e578063c299823814610786578063c488847b146107f657610341565b8063b8324c7c146106fa578063bb82aa5e14610748578063bbb8864a1461075057610341565b80639bb27d6214610601578063a76b3fda14610609578063a78dc7751461062f578063abfceffc14610674578063b0772d0b146106ea578063b2eafc39146106f257610341565b80634a584432116102925780637dc0d1d0116102305780638e8f294b1161020a5780638e8f294b1461057b5780639254f5e5146105c3578063929fe9a1146105cb57806394b2294b146105f957610341565b80637dc0d1d0146105275780638a7dc1651461052f5780638c1ac18a1461055557610341565b80635dd3fc9d1161026c5780635dd3fc9d146104e9578063719f701b1461050f57806376551383146105175780637d172bd51461051f57610341565b80634a5844321461049e5780634ada90af146104c457806352d84d1e146104cc57610341565b806321af4569116102ff5780632bc7e29e116102d95780632bc7e29e1461043a5780634088c73e1461046057806341a18d2c14610468578063425fad581461049657610341565b806321af45691461040657806324a3d6221461042a578063267822471461043257610341565b80627e3dd21461034657806302c3bcbb1461036257806304ef9d581461039a57806308e0225c146103a25780630db4b4e5146103d057806310b98338146103d8575b600080fd5b61034e61098d565b604080519115158252519081900360200190f35b6103886004803603602081101561037857600080fd5b50356001600160a01b0316610993565b60408051918252519081900360200190f35b6103886109a5565b610388600480360360408110156103b857600080fd5b506001600160a01b03813581169160200135166109ab565b6103886109c8565b61034e600480360360408110156103ee57600080fd5b506001600160a01b03813581169160200135166109ce565b61040e6109ee565b604080516001600160a01b039092168252519081900360200190f35b61040e6109fd565b61040e610a0c565b6103886004803603602081101561045057600080fd5b50356001600160a01b0316610a1b565b61034e610a2d565b6103886004803603604081101561047e57600080fd5b506001600160a01b0381358116916020013516610a36565b61034e610a53565b610388600480360360208110156104b457600080fd5b50356001600160a01b0316610a62565b610388610a74565b61040e600480360360208110156104e257600080fd5b5035610a7a565b610388600480360360208110156104ff57600080fd5b50356001600160a01b0316610aa1565b610388610ab3565b61034e610ab9565b61040e610ac7565b61040e610ad6565b6103886004803603602081101561054557600080fd5b50356001600160a01b0316610ae5565b61034e6004803603602081101561056b57600080fd5b50356001600160a01b0316610af7565b6105a16004803603602081101561059157600080fd5b50356001600160a01b0316610b0c565b6040805193151584526020840192909252151582820152519081900360600190f35b61040e610b32565b61034e600480360360408110156105e157600080fd5b506001600160a01b0381358116916020013516610b41565b610388610b75565b61040e610b7b565b6103886004803603602081101561061f57600080fd5b50356001600160a01b0316610b8a565b61065b6004803603604081101561064557600080fd5b506001600160a01b038135169060200135610cec565b6040805192835260208301919091528051918290030190f35b61069a6004803603602081101561068a57600080fd5b50356001600160a01b0316610d8b565b60408051602080825283518183015283519192839290830191858101910280838360005b838110156106d65781810151838201526020016106be565b505050509050019250505060405180910390f35b61069a610e01565b61040e610e63565b6107206004803603602081101561071057600080fd5b50356001600160a01b0316610e72565b604080516001600160e01b03909316835263ffffffff90911660208301528051918290030190f35b61040e610e9c565b6103886004803603602081101561076657600080fd5b50356001600160a01b0316610eab565b610388610ebd565b61040e610ec3565b61069a6004803603602081101561079c57600080fd5b8101906020810181356401000000008111156107b757600080fd5b8201836020820111156107c957600080fd5b803590602001918460208302840111640100000000831117156107eb57600080fd5b509092509050610ed2565b61065b6004803603606081101561080c57600080fd5b506001600160a01b03813581169160208101359091169060400135610f68565b610834611010565b604080516001600160e01b039092168252519081900360200190f35b61040e611023565b61040e611032565b61040e611041565b61040e6004803603604081101561087e57600080fd5b506001600160a01b038135169060200135611050565b61040e611085565b6108ca600480360360408110156108b257600080fd5b506001600160a01b0381351690602001351515611094565b005b610720600480360360208110156108e257600080fd5b50356001600160a01b031661112b565b61034e6004803603604081101561090857600080fd5b5080356001600160a01b0316906020013560ff16611155565b610388611195565b6103886004803603602081101561093f57600080fd5b50356001600160a01b031661119b565b61034e6004803603604081101561096557600080fd5b506001600160a01b0381358116916020013516611445565b61040e611465565b610388611474565b60015b90565b60276020526000908152604090205481565b60225481565b601360209081526000928352604080842090915290825290205481565b601d5481565b602c60209081526000928352604080842090915290825290205460ff1681565b601e546001600160a01b031681565b600a546001600160a01b031681565b6001546001600160a01b031681565b60166020526000908152604090205481565b60185460ff1681565b601260209081526000928352604080842090915290825290205481565b60185462010000900460ff1681565b601f6020526000908152604090205481565b60065481565b600d8181548110610a8757fe5b6000918252602090912001546001600160a01b0316905081565b602b6020526000908152604090205481565b601c5481565b601854610100900460ff1681565b601b546001600160a01b031681565b6004546001600160a01b031681565b60146020526000908152604090205481565b602d6020526000908152604090205460ff1681565b60096020526000908152604090208054600182015460039092015460ff91821692911683565b6015546001600160a01b031681565b6001600160a01b038082166000908152600960209081526040808320938616835260029093019052205460ff165b92915050565b60075481565b6025546001600160a01b031681565b6000610bca6040518060400160405280601781526020017f5f737570706f72744d61726b657428616464726573732900000000000000000081525061147a565b6001600160a01b03821660009081526009602052604090205460ff1615610bfe57610bf7600a601161159e565b9050610ce7565b816001600160a01b0316633d9ea3a16040518163ffffffff1660e01b815260040160206040518083038186803b158015610c3757600080fd5b505afa158015610c4b573d6000803e3d6000fd5b505050506040513d6020811015610c6157600080fd5b50506001600160a01b03821660009081526009602052604081208054600160ff1991821681178355600383018054909216909155810191909155610ca48361160b565b610cad836116e4565b6040516001600160a01b038416907fcf583bb0c569eb967f806b11601c4cb93c10310485c67add5f8362c2f212321f90600090a260009150505b919050565b602654604080516304f65f8b60e21b81523060048201526001600160a01b038581166024830152604482018590528251600094859485948594909216926313d97e2c926064808201939291829003018186803b158015610d4b57600080fd5b505afa158015610d5f573d6000803e3d6000fd5b505050506040513d6040811015610d7557600080fd5b5080516020909101519097909650945050505050565b6001600160a01b038116600090815260086020908152604091829020805483518184028101840190945280845260609392830182828015610df557602002820191906000526020600020905b81546001600160a01b03168152600190910190602001808311610dd7575b50505050509050919050565b6060600d805480602002602001604051908101604052809291908181526020018280548015610e5957602002820191906000526020600020905b81546001600160a01b03168152600190910190602001808311610e3b575b5050505050905090565b6020546001600160a01b031681565b6010602052600090815260409020546001600160e01b03811690600160e01b900463ffffffff1682565b6002546001600160a01b031681565b602a6020526000908152604090205481565b60175481565b6033546001600160a01b031690565b60408051828152602080840282010190915260609082908290828015610f02578160200160208202803883390190505b50905060005b82811015610f5f57610f35868683818110610f1f57fe5b905060200201356001600160a01b0316336117a1565b6013811115610f4057fe5b828281518110610f4c57fe5b6020908102919091010152600101610f08565b50949350505050565b60265460408051630779996560e11b81523060048201526001600160a01b038681166024830152858116604483015260648201859052825160009485948594859490921692630ef332ca926084808201939291829003018186803b158015610fcf57600080fd5b505afa158015610fe3573d6000803e3d6000fd5b505050506040513d6040811015610ff957600080fd5b508051602090910151909890975095505050505050565b6ec097ce7bc90715b34b9f100000000081565b6021546001600160a01b031681565b6031546001600160a01b031681565b6026546001600160a01b031681565b6008602052816000526040600020818154811061106957fe5b6000918252602090912001546001600160a01b03169150829050565b6003546001600160a01b031681565b61109d82611885565b336000908152602c602090815260408083206001600160a01b038616845290915290205460ff161515811515141561111c576040805162461bcd60e51b815260206004820152601b60248201527f44656c65676174696f6e2073746174757320756e6368616e6765640000000000604482015290519081900360640190fd5b6111273383836118d8565b5050565b6011602052600090815260409020546001600160e01b03811690600160e01b900463ffffffff1682565b6001600160a01b03821660009081526029602052604081208183600881111561117a57fe5b815260208101919091526040016000205460ff169392505050565b60055481565b60006111a8826008611946565b604080516361bfb47160e11b815233600482015290518391600091829182916001600160a01b0386169163c37f68e2916024808301926080929190829003018186803b1580156111f757600080fd5b505afa15801561120b573d6000803e3d6000fd5b505050506040513d608081101561122157600080fd5b50805160208201516040909201519094509092509050821561128a576040805162461bcd60e51b815260206004820152601960248201527f6765744163636f756e74536e617073686f74206661696c656400000000000000604482015290519081900360640190fd5b80156112a75761129c600c600261159e565b945050505050610ce7565b60006112b4873385611995565b905080156112d5576112c9600e600383611a48565b95505050505050610ce7565b6001600160a01b0385166000908152600960209081526040808320338452600281019092529091205460ff166113145760009650505050505050610ce7565b3360009081526002820160209081526040808320805460ff1916905560089091528120805490915b818110156113f557886001600160a01b031683828154811061135a57fe5b6000918252602090912001546001600160a01b031614156113ed5782600183038154811061138457fe5b9060005260206000200160009054906101000a90046001600160a01b03168382815481106113ae57fe5b600091825260209091200180546001600160a01b0319166001600160a01b039290921691909117905582546113e7846000198301611cae565b506113f5565b60010161133c565b8181106113fe57fe5b60405133906001600160a01b038b16907fe699a64c18b07ac5b7301aa273f36a2287239eb9501d81950672794afba29a0d90600090a360009b9a5050505050505050505050565b603260209081526000928352604080842090915290825290205460ff1681565b6000546001600160a01b031681565b601a5481565b602854604080516318c5e8ab60e01b81523360048201818152602483019384528551604484015285516001600160a01b03909516946318c5e8ab949293879391606490910190602085019080838360005b838110156114e35781810151838201526020016114cb565b50505050905090810190601f1680156115105780820380516001836020036101000a031916815260200191505b50935050505060206040518083038186803b15801561152e57600080fd5b505afa158015611542573d6000803e3d6000fd5b505050506040513d602081101561155857600080fd5b505161159b576040805162461bcd60e51b815260206004820152600d60248201526c1858d8d95cdcc819195b9a5959609a1b604482015290519081900360640190fd5b50565b60007f45b96fe442630264581b197e84bbada861235052c5a1aadfff9ea4e40a969aa08360138111156115cd57fe5b8360178111156115d957fe5b604080519283526020830191909152600082820152519081900360600190a182601381111561160457fe5b9392505050565b600d5460005b8181101561169057826001600160a01b0316600d828154811061163057fe5b6000918252602090912001546001600160a01b03161415611688576040805162461bcd60e51b815260206004820152600d60248201526c185b1c9958591e481859191959609a1b604482015290519081900360640190fd5b600101611611565b5050600d80546001810182556000919091527fd7b6990105719101dabeb77144f2a3385c8033acd3af97e9423a695e81ad1eb50180546001600160a01b0319166001600160a01b0392909216919091179055565b60006116ee611ab6565b6001600160a01b03831660009081526010602090815260408083206011909252909120815492935090916001600160e01b03166117455781546001600160e01b0319166ec097ce7bc90715b34b9f10000000001782555b80546001600160e01b03166117745780546001600160e01b0319166ec097ce7bc90715b34b9f10000000001781555b805463ffffffff909316600160e01b026001600160e01b0393841681179091558154909216909117905550565b60006117ae836007611946565b6001600160a01b03831660009081526009602052604090206117cf81611af7565b6001600160a01b038316600090815260028201602052604090205460ff16156117fc576000915050610b6f565b6001600160a01b0380841660008181526002840160209081526040808320805460ff191660019081179091556008835281842080549182018155845291832090910180549489166001600160a01b031990951685179055519192917f3ab23ab0d51cccc0c3085aec51f99228625aa1a922b3a8ca89a26b0f2027a1a59190a35060009392505050565b6001600160a01b03811661159b576040805162461bcd60e51b815260206004820152601560248201527463616e2774206265207a65726f206164647265737360581b604482015290519081900360640190fd5b6001600160a01b038381166000818152602c6020908152604080832094871680845294825291829020805460ff1916861515908117909155825190815291517fcb325b7784f78486e42849c7a50b8c5ee008d00cd90e108a58912c0fcb6288b49281900390910190a3505050565b6119508282611155565b15611127576040805162461bcd60e51b815260206004820152601060248201526f1858dd1a5bdb881a5cc81c185d5cd95960821b604482015290519081900360640190fd5b6001600160a01b03831660009081526009602052604081206119b690611af7565b6001600160a01b038085166000908152600960209081526040808320938716835260029093019052205460ff166119ef57506000611604565b6000806119ff8587866000611b41565b91935090915060009050826013811115611a1557fe5b14611a2f57816013811115611a2657fe5b92505050611604565b8015611a3c576004611a26565b50600095945050505050565b60007f45b96fe442630264581b197e84bbada861235052c5a1aadfff9ea4e40a969aa0846013811115611a7757fe5b846017811115611a8357fe5b604080519283526020830191909152818101859052519081900360600190a1836013811115611aae57fe5b949350505050565b6000611af2611ac3611c0f565b60405180604001604052806011815260200170626c6f636b2023203e203332206269747360781b815250611c13565b905090565b805460ff1661159b576040805162461bcd60e51b81526020600482015260116024820152701b585c9ad95d081b9bdd081b1a5cdd1959607a1b604482015290519081900360640190fd5b6026546040805163a7032efb60e01b81523060048201526001600160a01b03878116602483015286811660448301526064820186905260848201859052915160009384938493849384938493169163a7032efb9160a4808301926060929190829003018186803b158015611bb457600080fd5b505afa158015611bc8573d6000803e3d6000fd5b505050506040513d6060811015611bde57600080fd5b50805160208201516040909201519094509092509050826013811115611c0057fe5b9a919950975095505050505050565b4390565b6000816401000000008410611ca65760405162461bcd60e51b81526004018080602001828103825283818151815260200191508051906020019080838360005b83811015611c6b578181015183820152602001611c53565b50505050905090810190601f168015611c985780820380516001836020036101000a031916815260200191505b509250505060405180910390fd5b509192915050565b815481835581811115611cd257600083815260209020611cd2918101908301611cd7565b505050565b61099091905b80821115611cf15760008155600101611cdd565b509056fea265627a7a72315820f632996f9702e42ca8eaa0859311c2e6557ca957e8fa39f6b1dffaa5173b84dd64736f6c63430005100032",
  "devdoc": {
    "author": "Venus",
    "details": "This facet contains all the methods related to the market's management in the pool",
    "methods": {
      "_supportMarket(address)": {
        "details": "Allows a privileged role to add and list markets to the Comptroller",
        "params": {
          "vToken": "The address of the market (token) to list"
        },
        "return": "uint256 0=success, otherwise a failure. (See enum Error for details)"
      },
      "actionPaused(address,uint8)": {
        "params": {
          "action": "Action id",
          "market": "vToken address"
        }
      },
      "checkMembership(address,address)": {
        "params": {
          "account": "The address of the account to check",
          "vToken": "The vToken to check"
        },
        "return": "True if the account is in the asset, otherwise false"
      },
      "enterMarkets(address[])": {
        "params": {
          "vTokens": "The list of addresses of the vToken markets to be enabled"
        },
        "return": "Success indicator for whether each corresponding market was entered"
      },
      "exitMarket(address)": {
        "details": "Sender must not have an outstanding borrow balance in the asset, or be providing necessary collateral for an outstanding borrow",
        "params": {
          "vTokenAddress": "The address of the asset to be removed"
        },
        "return": "Whether or not the account successfully exited the market"
      },
      "getAllMarkets()": {
        "details": "The automatic getter may be used to access an individual market",
        "return": "The list of market addresses"
      },
      "getAssetsIn(address)": {
        "params": {
          "account": "The address of the account to pull assets for"
        },
        "return": "A dynamic list with the assets the account has entered"
      },
      "getXVSAddress()": {
        "return": "The address of XVS token"
      },
      "liquidateCalculateSeizeTokens(address,address,uint256)": {
        "details": "Used in liquidation (called in vToken.liquidateBorrowFresh)",
        "params": {
          "actualRepayAmount": "The amount of vTokenBorrowed underlying to convert into vTokenCollateral tokens",
          "vTokenBorrowed": "The address of the borrowed vToken",
          "vTokenCollateral": "The address of the collateral vToken"
        },
        "return": "(errorCode, number of vTokenCollateral tokens to be seized in a liquidation)"
      },
      "liquidateVAICalculateSeizeTokens(address,uint256)": {
        "details": "Used in liquidation (called in vToken.liquidateBorrowFresh)",
        "params": {
          "actualRepayAmount": "The amount of vTokenBorrowed underlying to convert into vTokenCollateral tokens",
          "vTokenCollateral": "The address of the collateral vToken"
        },
        "return": "(errorCode, number of vTokenCollateral tokens to be seized in a liquidation)"
      },
      "updateDelegate(address,bool)": {
        "params": {
          "approved": "Whether to grant (true) or revoke (false) the borrowing or redeeming rights",
          "delegate": "The address to update the rights for"
        }
      }
    },
    "title": "MarketFacet"
  },
  "userdoc": {
    "methods": {
      "_supportMarket(address)": {
        "notice": "Add the market to the markets mapping and set it as listed"
      },
      "actionPaused(address,uint8)": {
        "notice": "Checks if a certain action is paused on a market"
      },
      "checkMembership(address,address)": {
        "notice": "Returns whether the given account is entered in the given asset"
      },
      "enterMarkets(address[])": {
        "notice": "Add assets to be included in account liquidity calculation"
      },
      "exitMarket(address)": {
        "notice": "Removes asset from sender's account liquidity calculation"
      },
      "getAllMarkets()": {
        "notice": "Return all of the markets"
      },
      "getAssetsIn(address)": {
        "notice": "Returns the assets an account has entered"
      },
      "getXVSAddress()": {
        "notice": "Returns the XVS address"
      },
      "isComptroller()": {
        "notice": "Indicator that this is a Comptroller contract (for inspection)"
      },
      "liquidateCalculateSeizeTokens(address,address,uint256)": {
        "notice": "Calculate number of tokens of collateral asset to seize given an underlying amount"
      },
      "liquidateVAICalculateSeizeTokens(address,uint256)": {
        "notice": "Calculate number of tokens of collateral asset to seize given an underlying amount"
      },
      "updateDelegate(address,bool)": {
        "notice": "Grants or revokes the borrowing or redeeming delegate rights to / from an account If allowed, the delegate will be able to borrow funds on behalf of the sender Upon a delegated borrow, the delegate will receive the funds, and the borrower will see the debt on their account Upon a delegated redeem, the delegate will receive the redeemed amount and the approver will see a deduction in his vToken balance"
      }
    },
    "notice": "This facet contract contains functions regarding markets"
  },
  "storageLayout": {
    "storage": [
      {
        "astId": 2391,
        "contract": "contracts/Comptroller/Diamond/facets/MarketFacet.sol:MarketFacet",
        "label": "admin",
        "offset": 0,
        "slot": "0",
        "type": "t_address"
      },
      {
        "astId": 2393,
        "contract": "contracts/Comptroller/Diamond/facets/MarketFacet.sol:MarketFacet",
        "label": "pendingAdmin",
        "offset": 0,
        "slot": "1",
        "type": "t_address"
      },
      {
        "astId": 2395,
        "contract": "contracts/Comptroller/Diamond/facets/MarketFacet.sol:MarketFacet",
        "label": "comptrollerImplementation",
        "offset": 0,
        "slot": "2",
        "type": "t_address"
      },
      {
        "astId": 2397,
        "contract": "contracts/Comptroller/Diamond/facets/MarketFacet.sol:MarketFacet",
        "label": "pendingComptrollerImplementation",
        "offset": 0,
        "slot": "3",
        "type": "t_address"
      },
      {
        "astId": 2404,
        "contract": "contracts/Comptroller/Diamond/facets/MarketFacet.sol:MarketFacet",
        "label": "oracle",
        "offset": 0,
        "slot": "4",
        "type": "t_contract(PriceOracle)12051"
      },
      {
        "astId": 2406,
        "contract": "contracts/Comptroller/Diamond/facets/MarketFacet.sol:MarketFacet",
        "label": "closeFactorMantissa",
        "offset": 0,
        "slot": "5",
        "type": "t_uint256"
      },
      {
        "astId": 2408,
        "contract": "contracts/Comptroller/Diamond/facets/MarketFacet.sol:MarketFacet",
        "label": "liquidationIncentiveMantissa",
        "offset": 0,
        "slot": "6",
        "type": "t_uint256"
      },
      {
        "astId": 2410,
        "contract": "contracts/Comptroller/Diamond/facets/MarketFacet.sol:MarketFacet",
        "label": "maxAssets",
        "offset": 0,
        "slot": "7",
        "type": "t_uint256"
      },
      {
        "astId": 2415,
        "contract": "contracts/Comptroller/Diamond/facets/MarketFacet.sol:MarketFacet",
        "label": "accountAssets",
        "offset": 0,
        "slot": "8",
        "type": "t_mapping(t_address,t_array(t_contract(VToken)22978)dyn_storage)"
      },
      {
        "astId": 2430,
        "contract": "contracts/Comptroller/Diamond/facets/MarketFacet.sol:MarketFacet",
        "label": "markets",
        "offset": 0,
        "slot": "9",
        "type": "t_mapping(t_address,t_struct(Market)2426_storage)"
      },
      {
        "astId": 2432,
        "contract": "contracts/Comptroller/Diamond/facets/MarketFacet.sol:MarketFacet",
        "label": "pauseGuardian",
        "offset": 0,
        "slot": "10",
        "type": "t_address"
      },
      {
        "astId": 2434,
        "contract": "contracts/Comptroller/Diamond/facets/MarketFacet.sol:MarketFacet",
        "label": "_mintGuardianPaused",
        "offset": 20,
        "slot": "10",
        "type": "t_bool"
      },
      {
        "astId": 2436,
        "contract": "contracts/Comptroller/Diamond/facets/MarketFacet.sol:MarketFacet",
        "label": "_borrowGuardianPaused",
        "offset": 21,
        "slot": "10",
        "type": "t_bool"
      },
      {
        "astId": 2438,
        "contract": "contracts/Comptroller/Diamond/facets/MarketFacet.sol:MarketFacet",
        "label": "transferGuardianPaused",
        "offset": 22,
        "slot": "10",
        "type": "t_bool"
      },
      {
        "astId": 2440,
        "contract": "contracts/Comptroller/Diamond/facets/MarketFacet.sol:MarketFacet",
        "label": "seizeGuardianPaused",
        "offset": 23,
        "slot": "10",
        "type": "t_bool"
      },
      {
        "astId": 2444,
        "contract": "contracts/Comptroller/Diamond/facets/MarketFacet.sol:MarketFacet",
        "label": "mintGuardianPaused",
        "offset": 0,
        "slot": "11",
        "type": "t_mapping(t_address,t_bool)"
      },
      {
        "astId": 2448,
        "contract": "contracts/Comptroller/Diamond/facets/MarketFacet.sol:MarketFacet",
        "label": "borrowGuardianPaused",
        "offset": 0,
        "slot": "12",
        "type": "t_mapping(t_address,t_bool)"
      },
      {
        "astId": 2456,
        "contract": "contracts/Comptroller/Diamond/facets/MarketFacet.sol:MarketFacet",
        "label": "allMarkets",
        "offset": 0,
        "slot": "13",
        "type": "t_array(t_contract(VToken)22978)dyn_storage"
      },
      {
        "astId": 2458,
        "contract": "contracts/Comptroller/Diamond/facets/MarketFacet.sol:MarketFacet",
        "label": "venusRate",
        "offset": 0,
        "slot": "14",
        "type": "t_uint256"
      },
      {
        "astId": 2462,
        "contract": "contracts/Comptroller/Diamond/facets/MarketFacet.sol:MarketFacet",
        "label": "venusSpeeds",
        "offset": 0,
        "slot": "15",
        "type": "t_mapping(t_address,t_uint256)"
      },
      {
        "astId": 2466,
        "contract": "contracts/Comptroller/Diamond/facets/MarketFacet.sol:MarketFacet",
        "label": "venusSupplyState",
        "offset": 0,
        "slot": "16",
        "type": "t_mapping(t_address,t_struct(VenusMarketState)2453_storage)"
      },
      {
        "astId": 2470,
        "contract": "contracts/Comptroller/Diamond/facets/MarketFacet.sol:MarketFacet",
        "label": "venusBorrowState",
        "offset": 0,
        "slot": "17",
        "type": "t_mapping(t_address,t_struct(VenusMarketState)2453_storage)"
      },
      {
        "astId": 2476,
        "contract": "contracts/Comptroller/Diamond/facets/MarketFacet.sol:MarketFacet",
        "label": "venusSupplierIndex",
        "offset": 0,
        "slot": "18",
        "type": "t_mapping(t_address,t_mapping(t_address,t_uint256))"
      },
      {
        "astId": 2482,
        "contract": "contracts/Comptroller/Diamond/facets/MarketFacet.sol:MarketFacet",
        "label": "venusBorrowerIndex",
        "offset": 0,
        "slot": "19",
        "type": "t_mapping(t_address,t_mapping(t_address,t_uint256))"
      },
      {
        "astId": 2486,
        "contract": "contracts/Comptroller/Diamond/facets/MarketFacet.sol:MarketFacet",
        "label": "venusAccrued",
        "offset": 0,
        "slot": "20",
        "type": "t_mapping(t_address,t_uint256)"
      },
      {
        "astId": 2488,
        "contract": "contracts/Comptroller/Diamond/facets/MarketFacet.sol:MarketFacet",
        "label": "vaiController",
        "offset": 0,
        "slot": "21",
        "type": "t_contract(VAIControllerInterface)15527"
      },
      {
        "astId": 2492,
        "contract": "contracts/Comptroller/Diamond/facets/MarketFacet.sol:MarketFacet",
        "label": "mintedVAIs",
        "offset": 0,
        "slot": "22",
        "type": "t_mapping(t_address,t_uint256)"
      },
      {
        "astId": 2494,
        "contract": "contracts/Comptroller/Diamond/facets/MarketFacet.sol:MarketFacet",
        "label": "vaiMintRate",
        "offset": 0,
        "slot": "23",
        "type": "t_uint256"
      },
      {
        "astId": 2496,
        "contract": "contracts/Comptroller/Diamond/facets/MarketFacet.sol:MarketFacet",
        "label": "mintVAIGuardianPaused",
        "offset": 0,
        "slot": "24",
        "type": "t_bool"
      },
      {
        "astId": 2498,
        "contract": "contracts/Comptroller/Diamond/facets/MarketFacet.sol:MarketFacet",
        "label": "repayVAIGuardianPaused",
        "offset": 1,
        "slot": "24",
        "type": "t_bool"
      },
      {
        "astId": 2500,
        "contract": "contracts/Comptroller/Diamond/facets/MarketFacet.sol:MarketFacet",
        "label": "protocolPaused",
        "offset": 2,
        "slot": "24",
        "type": "t_bool"
      },
      {
        "astId": 2502,
        "contract": "contracts/Comptroller/Diamond/facets/MarketFacet.sol:MarketFacet",
        "label": "venusVAIRate",
        "offset": 0,
        "slot": "25",
        "type": "t_uint256"
      },
      {
        "astId": 2507,
        "contract": "contracts/Comptroller/Diamond/facets/MarketFacet.sol:MarketFacet",
        "label": "venusVAIVaultRate",
        "offset": 0,
        "slot": "26",
        "type": "t_uint256"
      },
      {
        "astId": 2509,
        "contract": "contracts/Comptroller/Diamond/facets/MarketFacet.sol:MarketFacet",
        "label": "vaiVaultAddress",
        "offset": 0,
        "slot": "27",
        "type": "t_address"
      },
      {
        "astId": 2511,
        "contract": "contracts/Comptroller/Diamond/facets/MarketFacet.sol:MarketFacet",
        "label": "releaseStartBlock",
        "offset": 0,
        "slot": "28",
        "type": "t_uint256"
      },
      {
        "astId": 2513,
        "contract": "contracts/Comptroller/Diamond/facets/MarketFacet.sol:MarketFacet",
        "label": "minReleaseAmount",
        "offset": 0,
        "slot": "29",
        "type": "t_uint256"
      },
      {
        "astId": 2518,
        "contract": "contracts/Comptroller/Diamond/facets/MarketFacet.sol:MarketFacet",
        "label": "borrowCapGuardian",
        "offset": 0,
        "slot": "30",
        "type": "t_address"
      },
      {
        "astId": 2522,
        "contract": "contracts/Comptroller/Diamond/facets/MarketFacet.sol:MarketFacet",
        "label": "borrowCaps",
        "offset": 0,
        "slot": "31",
        "type": "t_mapping(t_address,t_uint256)"
      },
      {
        "astId": 2527,
        "contract": "contracts/Comptroller/Diamond/facets/MarketFacet.sol:MarketFacet",
        "label": "treasuryGuardian",
        "offset": 0,
        "slot": "32",
        "type": "t_address"
      },
      {
        "astId": 2529,
        "contract": "contracts/Comptroller/Diamond/facets/MarketFacet.sol:MarketFacet",
        "label": "treasuryAddress",
        "offset": 0,
        "slot": "33",
        "type": "t_address"
      },
      {
        "astId": 2531,
        "contract": "contracts/Comptroller/Diamond/facets/MarketFacet.sol:MarketFacet",
        "label": "treasuryPercent",
        "offset": 0,
        "slot": "34",
        "type": "t_uint256"
      },
      {
        "astId": 2538,
        "contract": "contracts/Comptroller/Diamond/facets/MarketFacet.sol:MarketFacet",
        "label": "venusContributorSpeeds",
        "offset": 0,
        "slot": "35",
        "type": "t_mapping(t_address,t_uint256)"
      },
      {
        "astId": 2542,
        "contract": "contracts/Comptroller/Diamond/facets/MarketFacet.sol:MarketFacet",
        "label": "lastContributorBlock",
        "offset": 0,
        "slot": "36",
        "type": "t_mapping(t_address,t_uint256)"
      },
      {
        "astId": 2547,
        "contract": "contracts/Comptroller/Diamond/facets/MarketFacet.sol:MarketFacet",
        "label": "liquidatorContract",
        "offset": 0,
        "slot": "37",
        "type": "t_address"
      },
      {
        "astId": 2552,
        "contract": "contracts/Comptroller/Diamond/facets/MarketFacet.sol:MarketFacet",
        "label": "comptrollerLens",
        "offset": 0,
        "slot": "38",
        "type": "t_contract(ComptrollerLensInterface)2366"
      },
      {
        "astId": 2559,
        "contract": "contracts/Comptroller/Diamond/facets/MarketFacet.sol:MarketFacet",
        "label": "supplyCaps",
        "offset": 0,
        "slot": "39",
        "type": "t_mapping(t_address,t_uint256)"
      },
      {
        "astId": 2564,
        "contract": "contracts/Comptroller/Diamond/facets/MarketFacet.sol:MarketFacet",
        "label": "accessControl",
        "offset": 0,
        "slot": "40",
        "type": "t_address"
      },
      {
        "astId": 2570,
        "contract": "contracts/Comptroller/Diamond/facets/MarketFacet.sol:MarketFacet",
        "label": "_actionPaused",
        "offset": 0,
        "slot": "41",
        "type": "t_mapping(t_address,t_mapping(t_uint256,t_bool))"
      },
      {
        "astId": 2577,
        "contract": "contracts/Comptroller/Diamond/facets/MarketFacet.sol:MarketFacet",
        "label": "venusBorrowSpeeds",
        "offset": 0,
        "slot": "42",
        "type": "t_mapping(t_address,t_uint256)"
      },
      {
        "astId": 2581,
        "contract": "contracts/Comptroller/Diamond/facets/MarketFacet.sol:MarketFacet",
        "label": "venusSupplySpeeds",
        "offset": 0,
        "slot": "43",
        "type": "t_mapping(t_address,t_uint256)"
      },
      {
        "astId": 2590,
        "contract": "contracts/Comptroller/Diamond/facets/MarketFacet.sol:MarketFacet",
        "label": "approvedDelegates",
        "offset": 0,
        "slot": "44",
        "type": "t_mapping(t_address,t_mapping(t_address,t_bool))"
      },
      {
        "astId": 2597,
        "contract": "contracts/Comptroller/Diamond/facets/MarketFacet.sol:MarketFacet",
        "label": "isForcedLiquidationEnabled",
        "offset": 0,
        "slot": "45",
        "type": "t_mapping(t_address,t_bool)"
      },
      {
        "astId": 2615,
        "contract": "contracts/Comptroller/Diamond/facets/MarketFacet.sol:MarketFacet",
        "label": "_selectorToFacetAndPosition",
        "offset": 0,
        "slot": "46",
        "type": "t_mapping(t_bytes4,t_struct(FacetAddressAndPosition)2605_storage)"
      },
      {
        "astId": 2619,
        "contract": "contracts/Comptroller/Diamond/facets/MarketFacet.sol:MarketFacet",
        "label": "_facetFunctionSelectors",
        "offset": 0,
        "slot": "47",
        "type": "t_mapping(t_address,t_struct(FacetFunctionSelectors)2611_storage)"
      },
      {
        "astId": 2622,
        "contract": "contracts/Comptroller/Diamond/facets/MarketFacet.sol:MarketFacet",
        "label": "_facetAddresses",
        "offset": 0,
        "slot": "48",
        "type": "t_array(t_address)dyn_storage"
      },
      {
        "astId": 2627,
        "contract": "contracts/Comptroller/Diamond/facets/MarketFacet.sol:MarketFacet",
        "label": "prime",
        "offset": 0,
        "slot": "49",
        "type": "t_contract(IPrime)12228"
      },
      {
        "astId": 2636,
        "contract": "contracts/Comptroller/Diamond/facets/MarketFacet.sol:MarketFacet",
        "label": "isForcedLiquidationEnabledForUser",
        "offset": 0,
        "slot": "50",
        "type": "t_mapping(t_address,t_mapping(t_address,t_bool))"
      },
      {
        "astId": 2641,
        "contract": "contracts/Comptroller/Diamond/facets/MarketFacet.sol:MarketFacet",
        "label": "xvs",
        "offset": 0,
        "slot": "51",
        "type": "t_address"
      },
      {
        "astId": 2643,
        "contract": "contracts/Comptroller/Diamond/facets/MarketFacet.sol:MarketFacet",
        "label": "xvsVToken",
        "offset": 0,
        "slot": "52",
        "type": "t_address"
      }
    ],
    "types": {
      "t_address": {
        "encoding": "inplace",
        "label": "address",
        "numberOfBytes": "20"
      },
      "t_array(t_address)dyn_storage": {
        "base": "t_address",
        "encoding": "dynamic_array",
        "label": "address[]",
        "numberOfBytes": "32"
      },
      "t_array(t_bytes4)dyn_storage": {
        "base": "t_bytes4",
        "encoding": "dynamic_array",
        "label": "bytes4[]",
        "numberOfBytes": "32"
      },
      "t_array(t_contract(VToken)22978)dyn_storage": {
        "base": "t_contract(VToken)22978",
        "encoding": "dynamic_array",
        "label": "contract VToken[]",
        "numberOfBytes": "32"
      },
      "t_bool": {
        "encoding": "inplace",
        "label": "bool",
        "numberOfBytes": "1"
      },
      "t_bytes4": {
        "encoding": "inplace",
        "label": "bytes4",
        "numberOfBytes": "4"
      },
      "t_contract(ComptrollerLensInterface)2366": {
        "encoding": "inplace",
        "label": "contract ComptrollerLensInterface",
        "numberOfBytes": "20"
      },
      "t_contract(IPrime)12228": {
        "encoding": "inplace",
        "label": "contract IPrime",
        "numberOfBytes": "20"
      },
      "t_contract(PriceOracle)12051": {
        "encoding": "inplace",
        "label": "contract PriceOracle",
        "numberOfBytes": "20"
      },
      "t_contract(VAIControllerInterface)15527": {
        "encoding": "inplace",
        "label": "contract VAIControllerInterface",
        "numberOfBytes": "20"
      },
      "t_contract(VToken)22978": {
        "encoding": "inplace",
        "label": "contract VToken",
        "numberOfBytes": "20"
      },
      "t_mapping(t_address,t_array(t_contract(VToken)22978)dyn_storage)": {
        "encoding": "mapping",
        "key": "t_address",
        "label": "mapping(address => contract VToken[])",
        "numberOfBytes": "32",
        "value": "t_array(t_contract(VToken)22978)dyn_storage"
      },
      "t_mapping(t_address,t_bool)": {
        "encoding": "mapping",
        "key": "t_address",
        "label": "mapping(address => bool)",
        "numberOfBytes": "32",
        "value": "t_bool"
      },
      "t_mapping(t_address,t_mapping(t_address,t_bool))": {
        "encoding": "mapping",
        "key": "t_address",
        "label": "mapping(address => mapping(address => bool))",
        "numberOfBytes": "32",
        "value": "t_mapping(t_address,t_bool)"
      },
      "t_mapping(t_address,t_mapping(t_address,t_uint256))": {
        "encoding": "mapping",
        "key": "t_address",
        "label": "mapping(address => mapping(address => uint256))",
        "numberOfBytes": "32",
        "value": "t_mapping(t_address,t_uint256)"
      },
      "t_mapping(t_address,t_mapping(t_uint256,t_bool))": {
        "encoding": "mapping",
        "key": "t_address",
        "label": "mapping(address => mapping(uint256 => bool))",
        "numberOfBytes": "32",
        "value": "t_mapping(t_uint256,t_bool)"
      },
      "t_mapping(t_address,t_struct(FacetFunctionSelectors)2611_storage)": {
        "encoding": "mapping",
        "key": "t_address",
        "label": "mapping(address => struct ComptrollerV13Storage.FacetFunctionSelectors)",
        "numberOfBytes": "32",
        "value": "t_struct(FacetFunctionSelectors)2611_storage"
      },
      "t_mapping(t_address,t_struct(Market)2426_storage)": {
        "encoding": "mapping",
        "key": "t_address",
        "label": "mapping(address => struct ComptrollerV1Storage.Market)",
        "numberOfBytes": "32",
        "value": "t_struct(Market)2426_storage"
      },
      "t_mapping(t_address,t_struct(VenusMarketState)2453_storage)": {
        "encoding": "mapping",
        "key": "t_address",
        "label": "mapping(address => struct ComptrollerV1Storage.VenusMarketState)",
        "numberOfBytes": "32",
        "value": "t_struct(VenusMarketState)2453_storage"
      },
      "t_mapping(t_address,t_uint256)": {
        "encoding": "mapping",
        "key": "t_address",
        "label": "mapping(address => uint256)",
        "numberOfBytes": "32",
        "value": "t_uint256"
      },
      "t_mapping(t_bytes4,t_struct(FacetAddressAndPosition)2605_storage)": {
        "encoding": "mapping",
        "key": "t_bytes4",
        "label": "mapping(bytes4 => struct ComptrollerV13Storage.FacetAddressAndPosition)",
        "numberOfBytes": "32",
        "value": "t_struct(FacetAddressAndPosition)2605_storage"
      },
      "t_mapping(t_uint256,t_bool)": {
        "encoding": "mapping",
        "key": "t_uint256",
        "label": "mapping(uint256 => bool)",
        "numberOfBytes": "32",
        "value": "t_bool"
      },
      "t_struct(FacetAddressAndPosition)2605_storage": {
        "encoding": "inplace",
        "label": "struct ComptrollerV13Storage.FacetAddressAndPosition",
        "members": [
          {
            "astId": 2602,
            "contract": "contracts/Comptroller/Diamond/facets/MarketFacet.sol:MarketFacet",
            "label": "facetAddress",
            "offset": 0,
            "slot": "0",
            "type": "t_address"
          },
          {
            "astId": 2604,
            "contract": "contracts/Comptroller/Diamond/facets/MarketFacet.sol:MarketFacet",
            "label": "functionSelectorPosition",
            "offset": 20,
            "slot": "0",
            "type": "t_uint96"
          }
        ],
        "numberOfBytes": "32"
      },
      "t_struct(FacetFunctionSelectors)2611_storage": {
        "encoding": "inplace",
        "label": "struct ComptrollerV13Storage.FacetFunctionSelectors",
        "members": [
          {
            "astId": 2608,
            "contract": "contracts/Comptroller/Diamond/facets/MarketFacet.sol:MarketFacet",
            "label": "functionSelectors",
            "offset": 0,
            "slot": "0",
            "type": "t_array(t_bytes4)dyn_storage"
          },
          {
            "astId": 2610,
            "contract": "contracts/Comptroller/Diamond/facets/MarketFacet.sol:MarketFacet",
            "label": "facetAddressPosition",
            "offset": 0,
            "slot": "1",
            "type": "t_uint256"
          }
        ],
        "numberOfBytes": "64"
      },
      "t_struct(Market)2426_storage": {
        "encoding": "inplace",
        "label": "struct ComptrollerV1Storage.Market",
        "members": [
          {
            "astId": 2417,
            "contract": "contracts/Comptroller/Diamond/facets/MarketFacet.sol:MarketFacet",
            "label": "isListed",
            "offset": 0,
            "slot": "0",
            "type": "t_bool"
          },
          {
            "astId": 2419,
            "contract": "contracts/Comptroller/Diamond/facets/MarketFacet.sol:MarketFacet",
            "label": "collateralFactorMantissa",
            "offset": 0,
            "slot": "1",
            "type": "t_uint256"
          },
          {
            "astId": 2423,
            "contract": "contracts/Comptroller/Diamond/facets/MarketFacet.sol:MarketFacet",
            "label": "accountMembership",
            "offset": 0,
            "slot": "2",
            "type": "t_mapping(t_address,t_bool)"
          },
          {
            "astId": 2425,
            "contract": "contracts/Comptroller/Diamond/facets/MarketFacet.sol:MarketFacet",
            "label": "isVenus",
            "offset": 0,
            "slot": "3",
            "type": "t_bool"
          }
        ],
        "numberOfBytes": "128"
      },
      "t_struct(VenusMarketState)2453_storage": {
        "encoding": "inplace",
        "label": "struct ComptrollerV1Storage.VenusMarketState",
        "members": [
          {
            "astId": 2450,
            "contract": "contracts/Comptroller/Diamond/facets/MarketFacet.sol:MarketFacet",
            "label": "index",
            "offset": 0,
            "slot": "0",
            "type": "t_uint224"
          },
          {
            "astId": 2452,
            "contract": "contracts/Comptroller/Diamond/facets/MarketFacet.sol:MarketFacet",
            "label": "block",
            "offset": 28,
            "slot": "0",
            "type": "t_uint32"
          }
        ],
        "numberOfBytes": "32"
      },
      "t_uint224": {
        "encoding": "inplace",
        "label": "uint224",
        "numberOfBytes": "28"
      },
      "t_uint256": {
        "encoding": "inplace",
        "label": "uint256",
        "numberOfBytes": "32"
      },
      "t_uint32": {
        "encoding": "inplace",
        "label": "uint32",
        "numberOfBytes": "4"
      },
      "t_uint96": {
        "encoding": "inplace",
        "label": "uint96",
        "numberOfBytes": "12"
      }
    }
  }
}