{
  "address": "0xf1b798Aa845eEC1B75C16B5C5B5693D8921C245F",
  "abi": [
    {
      "inputs": [
        {
          "internalType": "contract IXVSVault",
          "name": "XVSVault_",
          "type": "address"
        }
      ],
      "stateMutability": "nonpayable",
      "type": "constructor"
    },
    {
      "inputs": [
        {
          "internalType": "address",
          "name": "sender",
          "type": "address"
        },
        {
          "internalType": "address",
          "name": "calledContract",
          "type": "address"
        },
        {
          "internalType": "string",
          "name": "methodSignature",
          "type": "string"
        }
      ],
      "name": "Unauthorized",
      "type": "error"
    },
    {
      "inputs": [],
      "name": "ZeroAddressNotAllowed",
      "type": "error"
    },
    {
      "anonymous": false,
      "inputs": [
        {
          "indexed": true,
          "internalType": "uint16",
          "name": "chainId",
          "type": "uint16"
        },
        {
          "indexed": false,
          "internalType": "address",
          "name": "delegatee",
          "type": "address"
        },
        {
          "indexed": false,
          "internalType": "uint32",
          "name": "checkpoints",
          "type": "uint32"
        },
        {
          "indexed": false,
          "internalType": "uint32",
          "name": "blockNumber",
          "type": "uint32"
        },
        {
          "indexed": false,
          "internalType": "uint96",
          "name": "votes",
          "type": "uint96"
        },
        {
          "indexed": false,
          "internalType": "uint32",
          "name": "nCheckpoint",
          "type": "uint32"
        }
      ],
      "name": "DestVotesUpdated",
      "type": "event"
    },
    {
      "anonymous": false,
      "inputs": [
        {
          "indexed": false,
          "internalType": "uint8",
          "name": "version",
          "type": "uint8"
        }
      ],
      "name": "Initialized",
      "type": "event"
    },
    {
      "anonymous": false,
      "inputs": [
        {
          "indexed": false,
          "internalType": "address",
          "name": "oldAccessControlManager",
          "type": "address"
        },
        {
          "indexed": false,
          "internalType": "address",
          "name": "newAccessControlManager",
          "type": "address"
        }
      ],
      "name": "NewAccessControlManager",
      "type": "event"
    },
    {
      "anonymous": false,
      "inputs": [
        {
          "indexed": true,
          "internalType": "address",
          "name": "previousOwner",
          "type": "address"
        },
        {
          "indexed": true,
          "internalType": "address",
          "name": "newOwner",
          "type": "address"
        }
      ],
      "name": "OwnershipTransferStarted",
      "type": "event"
    },
    {
      "anonymous": false,
      "inputs": [
        {
          "indexed": true,
          "internalType": "address",
          "name": "previousOwner",
          "type": "address"
        },
        {
          "indexed": true,
          "internalType": "address",
          "name": "newOwner",
          "type": "address"
        }
      ],
      "name": "OwnershipTransferred",
      "type": "event"
    },
    {
      "inputs": [],
      "name": "XVSVault",
      "outputs": [
        {
          "internalType": "contract IXVSVault",
          "name": "",
          "type": "address"
        }
      ],
      "stateMutability": "view",
      "type": "function"
    },
    {
      "inputs": [],
      "name": "acceptOwnership",
      "outputs": [],
      "stateMutability": "nonpayable",
      "type": "function"
    },
    {
      "inputs": [],
      "name": "accessControlManager",
      "outputs": [
        {
          "internalType": "contract IAccessControlManagerV8",
          "name": "",
          "type": "address"
        }
      ],
      "stateMutability": "view",
      "type": "function"
    },
    {
      "inputs": [
        {
          "internalType": "address",
          "name": "",
          "type": "address"
        },
        {
          "internalType": "uint32",
          "name": "",
          "type": "uint32"
        }
      ],
      "name": "checkpoints",
      "outputs": [
        {
          "internalType": "uint32",
          "name": "fromBlock",
          "type": "uint32"
        },
        {
          "internalType": "uint96",
          "name": "votes",
          "type": "uint96"
        }
      ],
      "stateMutability": "view",
      "type": "function"
    },
    {
      "inputs": [
        {
          "internalType": "uint16",
          "name": "",
          "type": "uint16"
        },
        {
          "internalType": "address",
          "name": "",
          "type": "address"
        },
        {
          "internalType": "uint32",
          "name": "",
          "type": "uint32"
        }
      ],
      "name": "checkpointsWithChainId",
      "outputs": [
        {
          "internalType": "uint32",
          "name": "fromBlock",
          "type": "uint32"
        },
        {
          "internalType": "uint96",
          "name": "votes",
          "type": "uint96"
        }
      ],
      "stateMutability": "view",
      "type": "function"
    },
    {
      "inputs": [
        {
          "internalType": "address",
          "name": "account",
          "type": "address"
        },
        {
          "internalType": "uint256",
          "name": "blockNumber",
          "type": "uint256"
        }
      ],
      "name": "getPriorVotes",
      "outputs": [
        {
          "internalType": "uint96",
          "name": "",
          "type": "uint96"
        }
      ],
      "stateMutability": "view",
      "type": "function"
    },
    {
      "inputs": [
        {
          "internalType": "address",
          "name": "accessControlManager_",
          "type": "address"
        }
      ],
      "name": "initialize",
      "outputs": [],
      "stateMutability": "nonpayable",
      "type": "function"
    },
    {
      "inputs": [
        {
          "internalType": "address",
          "name": "",
          "type": "address"
        }
      ],
      "name": "numCheckpoints",
      "outputs": [
        {
          "internalType": "uint32",
          "name": "",
          "type": "uint32"
        }
      ],
      "stateMutability": "view",
      "type": "function"
    },
    {
      "inputs": [],
      "name": "owner",
      "outputs": [
        {
          "internalType": "address",
          "name": "",
          "type": "address"
        }
      ],
      "stateMutability": "view",
      "type": "function"
    },
    {
      "inputs": [],
      "name": "pendingOwner",
      "outputs": [
        {
          "internalType": "address",
          "name": "",
          "type": "address"
        }
      ],
      "stateMutability": "view",
      "type": "function"
    },
    {
      "inputs": [],
      "name": "renounceOwnership",
      "outputs": [],
      "stateMutability": "nonpayable",
      "type": "function"
    },
    {
      "inputs": [
        {
          "internalType": "address",
          "name": "accessControlManager_",
          "type": "address"
        }
      ],
      "name": "setAccessControlManager",
      "outputs": [],
      "stateMutability": "nonpayable",
      "type": "function"
    },
    {
      "inputs": [
        {
          "internalType": "uint16",
          "name": "chainId",
          "type": "uint16"
        },
        {
          "internalType": "address",
          "name": "delegatee",
          "type": "address"
        },
        {
          "internalType": "uint32",
          "name": "checkpoint",
          "type": "uint32"
        },
        {
          "internalType": "uint96",
          "name": "votes",
          "type": "uint96"
        },
        {
          "internalType": "uint32",
          "name": "nCheckpoint",
          "type": "uint32"
        }
      ],
      "name": "syncDestVotes",
      "outputs": [],
      "stateMutability": "nonpayable",
      "type": "function"
    },
    {
      "inputs": [
        {
          "internalType": "address",
          "name": "newOwner",
          "type": "address"
        }
      ],
      "name": "transferOwnership",
      "outputs": [],
      "stateMutability": "nonpayable",
      "type": "function"
    }
  ],
  "transactionHash": "0x1774341b7173efa599fe21f958f00b99eefe8ae90a46d85b29ed6e932023455d",
  "args": [
    "0x30EE880177eCE5Bc2f8865fAefa072e7386D4264"
  ],
  "numDeployments": 1,
  "solcInputHash": "2edd6c2641cf07b5b3effe5b2a097fd0",
  "bytecode": "0x60a060405234801561001057600080fd5b5060405161124838038061124883398101604081905261002f91610073565b61003881610049565b6001600160a01b03166080526100a3565b6001600160a01b038116610070576040516342bcdf7f60e11b815260040160405180910390fd5b50565b60006020828403121561008557600080fd5b81516001600160a01b038116811461009c57600080fd5b9392505050565b6080516111846100c46000396000818160f401526103a901526111846000f3fe608060405234801561001057600080fd5b50600436106100ea5760003560e01c80638d4a32741161008c578063c4d66de811610066578063c4d66de814610261578063e30c397814610274578063f1127ed814610285578063f2fde38b146102c957600080fd5b80638d4a32741461022c5780638da5cb5b1461023f578063b4a0bdf31461025057600080fd5b80636fcfff45116100c85780636fcfff45146101b6578063715018a6146101f1578063782d6fe1146101f957806379ba50971461022457600080fd5b806302357a1a146100ef5780630e32cb86146101335780633f9e4c3214610148575b600080fd5b6101167f000000000000000000000000000000000000000000000000000000000000000081565b6040516001600160a01b0390911681526020015b60405180910390f35b610146610141366004610de9565b6102dc565b005b610192610156366004610e31565b60cb60209081526000938452604080852082529284528284209052825290205463ffffffff81169064010000000090046001600160601b031682565b6040805163ffffffff90931683526001600160601b0390911660208301520161012a565b6101dc6101c4366004610de9565b60c96020526000908152604090205463ffffffff1681565b60405163ffffffff909116815260200161012a565b6101466102f0565b61020c610207366004610e74565b610304565b6040516001600160601b03909116815260200161012a565b610146610662565b61014661023a366004610eb3565b6106d9565b6033546001600160a01b0316610116565b6097546001600160a01b0316610116565b61014661026f366004610de9565b61093d565b6065546001600160a01b0316610116565b610192610293366004610f1a565b60ca60209081526000928352604080842090915290825290205463ffffffff81169064010000000090046001600160601b031682565b6101466102d7366004610de9565b610a5a565b6102e4610acb565b6102ed81610b25565b50565b6102f8610acb565b6103026000610be3565b565b60004382106103805760405162461bcd60e51b815260206004820152603960248201527f4d756c7469636861696e566f746552656769737472793a3a6765745072696f7260448201527f566f7465733a206e6f74207965742064657465726d696e65640000000000000060648201526084015b60405180910390fd5b60405163782d6fe160e01b81526001600160a01b038481166004830152602482018490526000917f00000000000000000000000000000000000000000000000000000000000000009091169063782d6fe190604401602060405180830381865afa1580156103f2573d6000803e3d6000fd5b505050506040513d601f19601f820116820180604052508101906104169190610f4d565b6001600160a01b038516600090815260c9602052604081205491925063ffffffff909116908190036104565761044d826000610f80565b9250505061065c565b6001600160a01b038516600090815260ca60205260408120859161047b600185610fab565b63ffffffff908116825260208201929092526040016000205416116104f1576001600160a01b038516600090815260ca6020526040812083916104bf600185610fab565b63ffffffff16815260208101919091526040016000205461044d919064010000000090046001600160601b0316610f80565b6001600160a01b038516600090815260ca6020908152604080832083805290915290205463ffffffff1684101561052d5760009250505061065c565b60008061053b600184610fab565b90505b8163ffffffff168163ffffffff16111561060f57600060026105608484610fab565b61056a9190610fd0565b6105749083610fab565b6001600160a01b038916600090815260ca6020908152604080832063ffffffff8581168552908352928190208151808301909252549283168082526401000000009093046001600160601b0316918101919091529192508890036105e35760200151955061065c945050505050565b805163ffffffff168811156105fa57819350610608565b610605600183610fab565b92505b505061053e565b6001600160a01b038716600090815260ca6020908152604080832063ffffffff8616845290915290205461065590859064010000000090046001600160601b0316610f80565b9450505050505b92915050565b60655433906001600160a01b031681146106d05760405162461bcd60e51b815260206004820152602960248201527f4f776e61626c6532537465703a2063616c6c6572206973206e6f7420746865206044820152683732bb9037bbb732b960b91b6064820152608401610377565b6102ed81610be3565b6106fa60405180606001604052806032815260200161111d60329139610bfc565b6000439050600060405180604001604052808363ffffffff168152602001856001600160601b031681525090508060ca6000886001600160a01b03166001600160a01b0316815260200190815260200160002060008763ffffffff1663ffffffff16815260200190815260200160002060008201518160000160006101000a81548163ffffffff021916908363ffffffff16021790555060208201518160000160046101000a8154816001600160601b0302191690836001600160601b031602179055509050508060cb60008961ffff1661ffff1681526020019081526020016000206000886001600160a01b03166001600160a01b0316815260200190815260200160002060008763ffffffff1663ffffffff16815260200190815260200160002060008201518160000160006101000a81548163ffffffff021916908363ffffffff16021790555060208201518160000160046101000a8154816001600160601b0302191690836001600160601b031602179055509050508260c96000886001600160a01b03166001600160a01b0316815260200190815260200160002060006101000a81548163ffffffff021916908363ffffffff1602179055508661ffff167f054c7868022713be1233b380e0a95f0b7968e34f076318465f6683c2eb07ad45878785888860405161092c9594939291906001600160a01b0395909516855263ffffffff938416602086015291831660408501526001600160601b0316606084015216608082015260a00190565b60405180910390a250505050505050565b600054610100900460ff161580801561095d5750600054600160ff909116105b806109775750303b158015610977575060005460ff166001145b6109da5760405162461bcd60e51b815260206004820152602e60248201527f496e697469616c697a61626c653a20636f6e747261637420697320616c72656160448201526d191e481a5b9a5d1a585b1a5e995960921b6064820152608401610377565b6000805460ff1916600117905580156109fd576000805461ff0019166101001790555b610a0682610c96565b610a0f82610cbd565b8015610a56576000805461ff0019169055604051600181527f7f26b83ff96e1f2b6a682f133852f6798a09c465da95921460cefb3847402498906020015b60405180910390a15b5050565b610a62610acb565b606580546001600160a01b0383166001600160a01b03199091168117909155610a936033546001600160a01b031690565b6001600160a01b03167f38d16b8cac22d99fc7c124b9cd0de2d3fa1faef420bfe791d8c362d765e2270060405160405180910390a350565b6033546001600160a01b031633146103025760405162461bcd60e51b815260206004820181905260248201527f4f776e61626c653a2063616c6c6572206973206e6f7420746865206f776e65726044820152606401610377565b6001600160a01b038116610b895760405162461bcd60e51b815260206004820152602560248201527f696e76616c696420616365737320636f6e74726f6c206d616e61676572206164604482015264647265737360d81b6064820152608401610377565b609780546001600160a01b038381166001600160a01b031983168117909355604080519190921680825260208201939093527f66fd58e82f7b31a2a5c30e0888f3093efe4e111b00cd2b0c31fe014601293aa09101610a4d565b606580546001600160a01b03191690556102ed81610cf5565b6097546040516318c5e8ab60e01b81526000916001600160a01b0316906318c5e8ab90610c2f903390869060040161104e565b602060405180830381865afa158015610c4c573d6000803e3d6000fd5b505050506040513d601f19601f82011682018060405250810190610c70919061107a565b905080610a5657333083604051634a3fa29360e01b81526004016103779392919061109c565b6001600160a01b0381166102ed576040516342bcdf7f60e11b815260040160405180910390fd5b600054610100900460ff16610ce45760405162461bcd60e51b8152600401610377906110d1565b610cec610d47565b6102ed81610d76565b603380546001600160a01b038381166001600160a01b0319831681179093556040519116919082907f8be0079c531659141344cd1fd0a4f28419497f9722a3daafe3b4186f6b6457e090600090a35050565b600054610100900460ff16610d6e5760405162461bcd60e51b8152600401610377906110d1565b610302610d9d565b600054610100900460ff166102e45760405162461bcd60e51b8152600401610377906110d1565b600054610100900460ff16610dc45760405162461bcd60e51b8152600401610377906110d1565b61030233610be3565b80356001600160a01b0381168114610de457600080fd5b919050565b600060208284031215610dfb57600080fd5b610e0482610dcd565b9392505050565b803561ffff81168114610de457600080fd5b803563ffffffff81168114610de457600080fd5b600080600060608486031215610e4657600080fd5b610e4f84610e0b565b9250610e5d60208501610dcd565b9150610e6b60408501610e1d565b90509250925092565b60008060408385031215610e8757600080fd5b610e9083610dcd565b946020939093013593505050565b6001600160601b03811681146102ed57600080fd5b600080600080600060a08688031215610ecb57600080fd5b610ed486610e0b565b9450610ee260208701610dcd565b9350610ef060408701610e1d565b92506060860135610f0081610e9e565b9150610f0e60808701610e1d565b90509295509295909350565b60008060408385031215610f2d57600080fd5b610f3683610dcd565b9150610f4460208401610e1d565b90509250929050565b600060208284031215610f5f57600080fd5b8151610e0481610e9e565b634e487b7160e01b600052601160045260246000fd5b60006001600160601b03808316818516808303821115610fa257610fa2610f6a565b01949350505050565b600063ffffffff83811690831681811015610fc857610fc8610f6a565b039392505050565b600063ffffffff80841680610ff557634e487b7160e01b600052601260045260246000fd5b92169190910492915050565b6000815180845260005b818110156110275760208185018101518683018201520161100b565b81811115611039576000602083870101525b50601f01601f19169290920160200192915050565b6001600160a01b038316815260406020820181905260009061107290830184611001565b949350505050565b60006020828403121561108c57600080fd5b81518015158114610e0457600080fd5b6001600160a01b038481168252831660208201526060604082018190526000906110c890830184611001565b95945050505050565b6020808252602b908201527f496e697469616c697a61626c653a20636f6e7472616374206973206e6f74206960408201526a6e697469616c697a696e6760a81b60608201526080019056fe73796e6344657374566f7465732875696e7431362c616464726573732c75696e7433322c75696e7439362c75696e74333229a2646970667358221220108b4f944a678c619d595ea5cb920b70214bfe87da3b6dcfe7617993f015014964736f6c634300080d0033",
  "devdoc": {
    "author": "Venus",
    "kind": "dev",
    "methods": {
      "acceptOwnership()": {
        "details": "The new owner accepts the ownership transfer."
      },
      "constructor": {
        "custom:oz-upgrades-unsafe-allow": "constructor"
      },
      "getPriorVotes(address,uint256)": {
        "params": {
          "account": "The address of the account to check",
          "blockNumber": "The block number to get the vote balance at"
        },
        "returns": {
          "_0": "The balance that user staked"
        }
      },
      "initialize(address)": {
        "params": {
          "accessControlManager_": "Address of access control manager"
        }
      },
      "owner()": {
        "details": "Returns the address of the current owner."
      },
      "pendingOwner()": {
        "details": "Returns the address of the pending owner."
      },
      "renounceOwnership()": {
        "details": "Leaves the contract without owner. It will not be possible to call `onlyOwner` functions. Can only be called by the current owner. NOTE: Renouncing ownership will leave the contract without an owner, thereby disabling any functionality that is only available to the owner."
      },
      "setAccessControlManager(address)": {
        "custom:access": "Only Governance",
        "custom:event": "Emits NewAccessControlManager event",
        "details": "Admin function to set address of AccessControlManager",
        "params": {
          "accessControlManager_": "The new address of the AccessControlManager"
        }
      },
      "syncDestVotes(uint16,address,uint32,uint96,uint32)": {
        "custom:access": "Controlled by Access Control Manager",
        "custom:event": "Emit DestVotesUpdated",
        "params": {
          "chainId": "The Id of the remote chain where votes are being synchronized",
          "checkpoint": "The number of checkpoints for the delegatee's votes",
          "delegatee": "The address of the delegatee whose votes are being synchronized",
          "nCheckpoint": "The number of checkpoints for each account",
          "votes": "The total number of votes to be synchronized"
        }
      },
      "transferOwnership(address)": {
        "details": "Starts the ownership transfer of the contract to a new account. Replaces the pending transfer if there is one. Can only be called by the current owner."
      }
    },
    "title": "MultichainVoteRegistry",
    "version": 1
  },
  "userdoc": {
    "errors": {
      "Unauthorized(address,address,string)": [
        {
          "notice": "Thrown when the action is prohibited by AccessControlManager"
        }
      ],
      "ZeroAddressNotAllowed()": [
        {
          "notice": "Thrown if the supplied address is a zero address where it is not allowed"
        }
      ]
    },
    "events": {
      "DestVotesUpdated(uint16,address,uint32,uint32,uint96,uint32)": {
        "notice": "Emitted when user's votes updated"
      },
      "NewAccessControlManager(address,address)": {
        "notice": "Emitted when access control manager contract address is changed"
      }
    },
    "kind": "user",
    "methods": {
      "XVSVault()": {
        "notice": "Address of XVSVault deployed on BSC chain"
      },
      "accessControlManager()": {
        "notice": "Returns the address of the access control manager contract"
      },
      "checkpoints(address,uint32)": {
        "notice": "Total number of votes irrespect of chain id"
      },
      "checkpointsWithChainId(uint16,address,uint32)": {
        "notice": "A record of votes checkpoints for each account, by chain id and index"
      },
      "getPriorVotes(address,uint256)": {
        "notice": "Determine the xvs stake balance for an account"
      },
      "initialize(address)": {
        "notice": "Initialize the contract"
      },
      "numCheckpoints(address)": {
        "notice": "The number of checkpoints for each account"
      },
      "setAccessControlManager(address)": {
        "notice": "Sets the address of AccessControlManager"
      },
      "syncDestVotes(uint16,address,uint32,uint96,uint32)": {
        "notice": "Synchronizes remote chain votes(amount of XVS stake) for a specific delegatee"
      }
    },
    "notice": "The MultichainVoteRegistry contract is access controlled which keeps the count of the votes on the basis of chainId. This contract is responsible for providing the final accumulated voting power (on all supported chains) to the governanceDelegate contract when voting on a proposal. It is invoked by layerZero bridge receiver contract to update the vote state/checkpoint for accounts that have staked on chains apart from BSC.",
    "version": 1
  },
  "storageLayout": {
    "storage": [
      {
        "astId": 3190,
        "contract": "contracts/XVSVault/MultichainVoteRegistry.sol:MultichainVoteRegistry",
        "label": "_initialized",
        "offset": 0,
        "slot": "0",
        "type": "t_uint8"
      },
      {
        "astId": 3193,
        "contract": "contracts/XVSVault/MultichainVoteRegistry.sol:MultichainVoteRegistry",
        "label": "_initializing",
        "offset": 1,
        "slot": "0",
        "type": "t_bool"
      },
      {
        "astId": 4449,
        "contract": "contracts/XVSVault/MultichainVoteRegistry.sol:MultichainVoteRegistry",
        "label": "__gap",
        "offset": 0,
        "slot": "1",
        "type": "t_array(t_uint256)50_storage"
      },
      {
        "astId": 3062,
        "contract": "contracts/XVSVault/MultichainVoteRegistry.sol:MultichainVoteRegistry",
        "label": "_owner",
        "offset": 0,
        "slot": "51",
        "type": "t_address"
      },
      {
        "astId": 3182,
        "contract": "contracts/XVSVault/MultichainVoteRegistry.sol:MultichainVoteRegistry",
        "label": "__gap",
        "offset": 0,
        "slot": "52",
        "type": "t_array(t_uint256)49_storage"
      },
      {
        "astId": 2971,
        "contract": "contracts/XVSVault/MultichainVoteRegistry.sol:MultichainVoteRegistry",
        "label": "_pendingOwner",
        "offset": 0,
        "slot": "101",
        "type": "t_address"
      },
      {
        "astId": 3050,
        "contract": "contracts/XVSVault/MultichainVoteRegistry.sol:MultichainVoteRegistry",
        "label": "__gap",
        "offset": 0,
        "slot": "102",
        "type": "t_array(t_uint256)49_storage"
      },
      {
        "astId": 7289,
        "contract": "contracts/XVSVault/MultichainVoteRegistry.sol:MultichainVoteRegistry",
        "label": "_accessControlManager",
        "offset": 0,
        "slot": "151",
        "type": "t_contract(IAccessControlManagerV8)7474"
      },
      {
        "astId": 7294,
        "contract": "contracts/XVSVault/MultichainVoteRegistry.sol:MultichainVoteRegistry",
        "label": "__gap",
        "offset": 0,
        "slot": "152",
        "type": "t_array(t_uint256)49_storage"
      },
      {
        "astId": 23344,
        "contract": "contracts/XVSVault/MultichainVoteRegistry.sol:MultichainVoteRegistry",
        "label": "numCheckpoints",
        "offset": 0,
        "slot": "201",
        "type": "t_mapping(t_address,t_uint32)"
      },
      {
        "astId": 23352,
        "contract": "contracts/XVSVault/MultichainVoteRegistry.sol:MultichainVoteRegistry",
        "label": "checkpoints",
        "offset": 0,
        "slot": "202",
        "type": "t_mapping(t_address,t_mapping(t_uint32,t_struct(Checkpoint)23335_storage))"
      },
      {
        "astId": 23362,
        "contract": "contracts/XVSVault/MultichainVoteRegistry.sol:MultichainVoteRegistry",
        "label": "checkpointsWithChainId",
        "offset": 0,
        "slot": "203",
        "type": "t_mapping(t_uint16,t_mapping(t_address,t_mapping(t_uint32,t_struct(Checkpoint)23335_storage)))"
      }
    ],
    "types": {
      "t_address": {
        "encoding": "inplace",
        "label": "address",
        "numberOfBytes": "20"
      },
      "t_array(t_uint256)49_storage": {
        "base": "t_uint256",
        "encoding": "inplace",
        "label": "uint256[49]",
        "numberOfBytes": "1568"
      },
      "t_array(t_uint256)50_storage": {
        "base": "t_uint256",
        "encoding": "inplace",
        "label": "uint256[50]",
        "numberOfBytes": "1600"
      },
      "t_bool": {
        "encoding": "inplace",
        "label": "bool",
        "numberOfBytes": "1"
      },
      "t_contract(IAccessControlManagerV8)7474": {
        "encoding": "inplace",
        "label": "contract IAccessControlManagerV8",
        "numberOfBytes": "20"
      },
      "t_mapping(t_address,t_mapping(t_uint32,t_struct(Checkpoint)23335_storage))": {
        "encoding": "mapping",
        "key": "t_address",
        "label": "mapping(address => mapping(uint32 => struct MultichainVoteRegistry.Checkpoint))",
        "numberOfBytes": "32",
        "value": "t_mapping(t_uint32,t_struct(Checkpoint)23335_storage)"
      },
      "t_mapping(t_address,t_uint32)": {
        "encoding": "mapping",
        "key": "t_address",
        "label": "mapping(address => uint32)",
        "numberOfBytes": "32",
        "value": "t_uint32"
      },
      "t_mapping(t_uint16,t_mapping(t_address,t_mapping(t_uint32,t_struct(Checkpoint)23335_storage)))": {
        "encoding": "mapping",
        "key": "t_uint16",
        "label": "mapping(uint16 => mapping(address => mapping(uint32 => struct MultichainVoteRegistry.Checkpoint)))",
        "numberOfBytes": "32",
        "value": "t_mapping(t_address,t_mapping(t_uint32,t_struct(Checkpoint)23335_storage))"
      },
      "t_mapping(t_uint32,t_struct(Checkpoint)23335_storage)": {
        "encoding": "mapping",
        "key": "t_uint32",
        "label": "mapping(uint32 => struct MultichainVoteRegistry.Checkpoint)",
        "numberOfBytes": "32",
        "value": "t_struct(Checkpoint)23335_storage"
      },
      "t_struct(Checkpoint)23335_storage": {
        "encoding": "inplace",
        "label": "struct MultichainVoteRegistry.Checkpoint",
        "members": [
          {
            "astId": 23332,
            "contract": "contracts/XVSVault/MultichainVoteRegistry.sol:MultichainVoteRegistry",
            "label": "fromBlock",
            "offset": 0,
            "slot": "0",
            "type": "t_uint32"
          },
          {
            "astId": 23334,
            "contract": "contracts/XVSVault/MultichainVoteRegistry.sol:MultichainVoteRegistry",
            "label": "votes",
            "offset": 4,
            "slot": "0",
            "type": "t_uint96"
          }
        ],
        "numberOfBytes": "32"
      },
      "t_uint16": {
        "encoding": "inplace",
        "label": "uint16",
        "numberOfBytes": "2"
      },
      "t_uint256": {
        "encoding": "inplace",
        "label": "uint256",
        "numberOfBytes": "32"
      },
      "t_uint32": {
        "encoding": "inplace",
        "label": "uint32",
        "numberOfBytes": "4"
      },
      "t_uint8": {
        "encoding": "inplace",
        "label": "uint8",
        "numberOfBytes": "1"
      },
      "t_uint96": {
        "encoding": "inplace",
        "label": "uint96",
        "numberOfBytes": "12"
      }
    }
  }
}