{
  "address": "0xDDa903294fB71141302aD3Bf2AF37dD6Cbd5DBbF",
  "abi": [
    {
      "inputs": [
        {
          "internalType": "address",
          "name": "stableTokenAddress_",
          "type": "address"
        },
        {
          "internalType": "address",
          "name": "vaiAddress_",
          "type": "address"
        }
      ],
      "stateMutability": "nonpayable",
      "type": "constructor"
    },
    {
      "inputs": [],
      "name": "AlreadyPaused",
      "type": "error"
    },
    {
      "inputs": [],
      "name": "AmountTooSmall",
      "type": "error"
    },
    {
      "inputs": [],
      "name": "InvalidFee",
      "type": "error"
    },
    {
      "inputs": [],
      "name": "NotEnoughVAI",
      "type": "error"
    },
    {
      "inputs": [],
      "name": "NotPaused",
      "type": "error"
    },
    {
      "inputs": [],
      "name": "Paused",
      "type": "error"
    },
    {
      "inputs": [],
      "name": "TooManyDecimals",
      "type": "error"
    },
    {
      "inputs": [
        {
          "internalType": "address",
          "name": "sender",
          "type": "address"
        },
        {
          "internalType": "address",
          "name": "calledContract",
          "type": "address"
        },
        {
          "internalType": "string",
          "name": "methodSignature",
          "type": "string"
        }
      ],
      "name": "Unauthorized",
      "type": "error"
    },
    {
      "inputs": [],
      "name": "VAIMintCapReached",
      "type": "error"
    },
    {
      "inputs": [],
      "name": "VAIMintedUnderflow",
      "type": "error"
    },
    {
      "inputs": [],
      "name": "VAITransferFail",
      "type": "error"
    },
    {
      "inputs": [],
      "name": "ZeroAddress",
      "type": "error"
    },
    {
      "inputs": [],
      "name": "ZeroAmount",
      "type": "error"
    },
    {
      "anonymous": false,
      "inputs": [
        {
          "indexed": false,
          "internalType": "uint256",
          "name": "oldFeeIn",
          "type": "uint256"
        },
        {
          "indexed": false,
          "internalType": "uint256",
          "name": "newFeeIn",
          "type": "uint256"
        }
      ],
      "name": "FeeInChanged",
      "type": "event"
    },
    {
      "anonymous": false,
      "inputs": [
        {
          "indexed": false,
          "internalType": "uint256",
          "name": "oldFeeOut",
          "type": "uint256"
        },
        {
          "indexed": false,
          "internalType": "uint256",
          "name": "newFeeOut",
          "type": "uint256"
        }
      ],
      "name": "FeeOutChanged",
      "type": "event"
    },
    {
      "anonymous": false,
      "inputs": [
        {
          "indexed": false,
          "internalType": "uint8",
          "name": "version",
          "type": "uint8"
        }
      ],
      "name": "Initialized",
      "type": "event"
    },
    {
      "anonymous": false,
      "inputs": [
        {
          "indexed": false,
          "internalType": "address",
          "name": "oldAccessControlManager",
          "type": "address"
        },
        {
          "indexed": false,
          "internalType": "address",
          "name": "newAccessControlManager",
          "type": "address"
        }
      ],
      "name": "NewAccessControlManager",
      "type": "event"
    },
    {
      "anonymous": false,
      "inputs": [
        {
          "indexed": true,
          "internalType": "address",
          "name": "oldOracle",
          "type": "address"
        },
        {
          "indexed": true,
          "internalType": "address",
          "name": "newOracle",
          "type": "address"
        }
      ],
      "name": "OracleChanged",
      "type": "event"
    },
    {
      "anonymous": false,
      "inputs": [
        {
          "indexed": true,
          "internalType": "address",
          "name": "previousOwner",
          "type": "address"
        },
        {
          "indexed": true,
          "internalType": "address",
          "name": "newOwner",
          "type": "address"
        }
      ],
      "name": "OwnershipTransferStarted",
      "type": "event"
    },
    {
      "anonymous": false,
      "inputs": [
        {
          "indexed": true,
          "internalType": "address",
          "name": "previousOwner",
          "type": "address"
        },
        {
          "indexed": true,
          "internalType": "address",
          "name": "newOwner",
          "type": "address"
        }
      ],
      "name": "OwnershipTransferred",
      "type": "event"
    },
    {
      "anonymous": false,
      "inputs": [
        {
          "indexed": true,
          "internalType": "address",
          "name": "admin",
          "type": "address"
        }
      ],
      "name": "PSMPaused",
      "type": "event"
    },
    {
      "anonymous": false,
      "inputs": [
        {
          "indexed": true,
          "internalType": "address",
          "name": "admin",
          "type": "address"
        }
      ],
      "name": "PSMResumed",
      "type": "event"
    },
    {
      "anonymous": false,
      "inputs": [
        {
          "indexed": false,
          "internalType": "uint256",
          "name": "stableIn",
          "type": "uint256"
        },
        {
          "indexed": false,
          "internalType": "uint256",
          "name": "vaiOut",
          "type": "uint256"
        },
        {
          "indexed": false,
          "internalType": "uint256",
          "name": "fee",
          "type": "uint256"
        }
      ],
      "name": "StableForVAISwapped",
      "type": "event"
    },
    {
      "anonymous": false,
      "inputs": [
        {
          "indexed": false,
          "internalType": "uint256",
          "name": "vaiBurnt",
          "type": "uint256"
        },
        {
          "indexed": false,
          "internalType": "uint256",
          "name": "stableOut",
          "type": "uint256"
        },
        {
          "indexed": false,
          "internalType": "uint256",
          "name": "vaiFee",
          "type": "uint256"
        }
      ],
      "name": "VAIForStableSwapped",
      "type": "event"
    },
    {
      "anonymous": false,
      "inputs": [
        {
          "indexed": false,
          "internalType": "uint256",
          "name": "oldCap",
          "type": "uint256"
        },
        {
          "indexed": false,
          "internalType": "uint256",
          "name": "newCap",
          "type": "uint256"
        }
      ],
      "name": "VAIMintCapChanged",
      "type": "event"
    },
    {
      "anonymous": false,
      "inputs": [
        {
          "indexed": true,
          "internalType": "address",
          "name": "oldTreasury",
          "type": "address"
        },
        {
          "indexed": true,
          "internalType": "address",
          "name": "newTreasury",
          "type": "address"
        }
      ],
      "name": "VenusTreasuryChanged",
      "type": "event"
    },
    {
      "inputs": [],
      "name": "BASIS_POINTS_DIVISOR",
      "outputs": [
        {
          "internalType": "uint256",
          "name": "",
          "type": "uint256"
        }
      ],
      "stateMutability": "view",
      "type": "function"
    },
    {
      "inputs": [],
      "name": "MANTISSA_ONE",
      "outputs": [
        {
          "internalType": "uint256",
          "name": "",
          "type": "uint256"
        }
      ],
      "stateMutability": "view",
      "type": "function"
    },
    {
      "inputs": [],
      "name": "ONE_DOLLAR",
      "outputs": [
        {
          "internalType": "uint256",
          "name": "",
          "type": "uint256"
        }
      ],
      "stateMutability": "view",
      "type": "function"
    },
    {
      "inputs": [],
      "name": "STABLE_TOKEN_ADDRESS",
      "outputs": [
        {
          "internalType": "address",
          "name": "",
          "type": "address"
        }
      ],
      "stateMutability": "view",
      "type": "function"
    },
    {
      "inputs": [],
      "name": "VAI",
      "outputs": [
        {
          "internalType": "contract IVAI",
          "name": "",
          "type": "address"
        }
      ],
      "stateMutability": "view",
      "type": "function"
    },
    {
      "inputs": [],
      "name": "acceptOwnership",
      "outputs": [],
      "stateMutability": "nonpayable",
      "type": "function"
    },
    {
      "inputs": [],
      "name": "accessControlManager",
      "outputs": [
        {
          "internalType": "contract IAccessControlManagerV8",
          "name": "",
          "type": "address"
        }
      ],
      "stateMutability": "view",
      "type": "function"
    },
    {
      "inputs": [],
      "name": "feeIn",
      "outputs": [
        {
          "internalType": "uint256",
          "name": "",
          "type": "uint256"
        }
      ],
      "stateMutability": "view",
      "type": "function"
    },
    {
      "inputs": [],
      "name": "feeOut",
      "outputs": [
        {
          "internalType": "uint256",
          "name": "",
          "type": "uint256"
        }
      ],
      "stateMutability": "view",
      "type": "function"
    },
    {
      "inputs": [
        {
          "internalType": "address",
          "name": "accessControlManager_",
          "type": "address"
        },
        {
          "internalType": "address",
          "name": "venusTreasury_",
          "type": "address"
        },
        {
          "internalType": "address",
          "name": "oracleAddress_",
          "type": "address"
        },
        {
          "internalType": "uint256",
          "name": "feeIn_",
          "type": "uint256"
        },
        {
          "internalType": "uint256",
          "name": "feeOut_",
          "type": "uint256"
        },
        {
          "internalType": "uint256",
          "name": "vaiMintCap_",
          "type": "uint256"
        }
      ],
      "name": "initialize",
      "outputs": [],
      "stateMutability": "nonpayable",
      "type": "function"
    },
    {
      "inputs": [],
      "name": "isPaused",
      "outputs": [
        {
          "internalType": "bool",
          "name": "",
          "type": "bool"
        }
      ],
      "stateMutability": "view",
      "type": "function"
    },
    {
      "inputs": [],
      "name": "oracle",
      "outputs": [
        {
          "internalType": "contract ResilientOracleInterface",
          "name": "",
          "type": "address"
        }
      ],
      "stateMutability": "view",
      "type": "function"
    },
    {
      "inputs": [],
      "name": "owner",
      "outputs": [
        {
          "internalType": "address",
          "name": "",
          "type": "address"
        }
      ],
      "stateMutability": "view",
      "type": "function"
    },
    {
      "inputs": [],
      "name": "pause",
      "outputs": [],
      "stateMutability": "nonpayable",
      "type": "function"
    },
    {
      "inputs": [],
      "name": "pendingOwner",
      "outputs": [
        {
          "internalType": "address",
          "name": "",
          "type": "address"
        }
      ],
      "stateMutability": "view",
      "type": "function"
    },
    {
      "inputs": [
        {
          "internalType": "uint256",
          "name": "stableTknAmount",
          "type": "uint256"
        }
      ],
      "name": "previewSwapStableForVAI",
      "outputs": [
        {
          "internalType": "uint256",
          "name": "",
          "type": "uint256"
        }
      ],
      "stateMutability": "view",
      "type": "function"
    },
    {
      "inputs": [
        {
          "internalType": "uint256",
          "name": "stableTknAmount",
          "type": "uint256"
        }
      ],
      "name": "previewSwapVAIForStable",
      "outputs": [
        {
          "internalType": "uint256",
          "name": "",
          "type": "uint256"
        }
      ],
      "stateMutability": "view",
      "type": "function"
    },
    {
      "inputs": [],
      "name": "renounceOwnership",
      "outputs": [],
      "stateMutability": "nonpayable",
      "type": "function"
    },
    {
      "inputs": [],
      "name": "resume",
      "outputs": [],
      "stateMutability": "nonpayable",
      "type": "function"
    },
    {
      "inputs": [
        {
          "internalType": "address",
          "name": "accessControlManager_",
          "type": "address"
        }
      ],
      "name": "setAccessControlManager",
      "outputs": [],
      "stateMutability": "nonpayable",
      "type": "function"
    },
    {
      "inputs": [
        {
          "internalType": "uint256",
          "name": "feeIn_",
          "type": "uint256"
        }
      ],
      "name": "setFeeIn",
      "outputs": [],
      "stateMutability": "nonpayable",
      "type": "function"
    },
    {
      "inputs": [
        {
          "internalType": "uint256",
          "name": "feeOut_",
          "type": "uint256"
        }
      ],
      "name": "setFeeOut",
      "outputs": [],
      "stateMutability": "nonpayable",
      "type": "function"
    },
    {
      "inputs": [
        {
          "internalType": "address",
          "name": "oracleAddress_",
          "type": "address"
        }
      ],
      "name": "setOracle",
      "outputs": [],
      "stateMutability": "nonpayable",
      "type": "function"
    },
    {
      "inputs": [
        {
          "internalType": "uint256",
          "name": "vaiMintCap_",
          "type": "uint256"
        }
      ],
      "name": "setVAIMintCap",
      "outputs": [],
      "stateMutability": "nonpayable",
      "type": "function"
    },
    {
      "inputs": [
        {
          "internalType": "address",
          "name": "venusTreasury_",
          "type": "address"
        }
      ],
      "name": "setVenusTreasury",
      "outputs": [],
      "stateMutability": "nonpayable",
      "type": "function"
    },
    {
      "inputs": [
        {
          "internalType": "address",
          "name": "receiver",
          "type": "address"
        },
        {
          "internalType": "uint256",
          "name": "stableTknAmount",
          "type": "uint256"
        }
      ],
      "name": "swapStableForVAI",
      "outputs": [
        {
          "internalType": "uint256",
          "name": "",
          "type": "uint256"
        }
      ],
      "stateMutability": "nonpayable",
      "type": "function"
    },
    {
      "inputs": [
        {
          "internalType": "address",
          "name": "receiver",
          "type": "address"
        },
        {
          "internalType": "uint256",
          "name": "stableTknAmount",
          "type": "uint256"
        }
      ],
      "name": "swapVAIForStable",
      "outputs": [
        {
          "internalType": "uint256",
          "name": "",
          "type": "uint256"
        }
      ],
      "stateMutability": "nonpayable",
      "type": "function"
    },
    {
      "inputs": [
        {
          "internalType": "address",
          "name": "newOwner",
          "type": "address"
        }
      ],
      "name": "transferOwnership",
      "outputs": [],
      "stateMutability": "nonpayable",
      "type": "function"
    },
    {
      "inputs": [],
      "name": "vaiMintCap",
      "outputs": [
        {
          "internalType": "uint256",
          "name": "",
          "type": "uint256"
        }
      ],
      "stateMutability": "view",
      "type": "function"
    },
    {
      "inputs": [],
      "name": "vaiMinted",
      "outputs": [
        {
          "internalType": "uint256",
          "name": "",
          "type": "uint256"
        }
      ],
      "stateMutability": "view",
      "type": "function"
    },
    {
      "inputs": [],
      "name": "venusTreasury",
      "outputs": [
        {
          "internalType": "address",
          "name": "",
          "type": "address"
        }
      ],
      "stateMutability": "view",
      "type": "function"
    }
  ],
  "transactionHash": "0xb9a823d382b902a2eed1fee1cfc76de8c98569103d2722538917ced54bdcd06f",
  "args": [
    "0xA11c8D9DC9b66E209Ef60F0C8D969D3CD988782c",
    "0x5fFbE5302BadED40941A403228E6AD03f93752d9"
  ],
  "numDeployments": 1,
  "solcInputHash": "ad861ed5d4e7191c78cab74f6cb7beec",
  "bytecode": "0x60e06040523480156200001157600080fd5b506040516200235638038062002356833981016040819052620000349162000225565b6200003f826200011c565b6200004a816200011c565b6000826001600160a01b031663313ce5676040518163ffffffff1660e01b8152600401602060405180830381865afa1580156200008b573d6000803e3d6000fd5b505050506040513d601f19601f82011682018060405250810190620000b191906200025d565b60ff1690506012811115620000d9576040516330e571f960e11b815260040160405180910390fd5b620000e68160246200029f565b620000f390600a620003b8565b6080526001600160a01b0380841660c052821660a0526200011362000147565b505050620003c6565b6001600160a01b038116620001445760405163d92e233d60e01b815260040160405180910390fd5b50565b600054610100900460ff1615620001b45760405162461bcd60e51b815260206004820152602760248201527f496e697469616c697a61626c653a20636f6e747261637420697320696e697469604482015266616c697a696e6760c81b606482015260840160405180910390fd5b60005460ff9081161462000206576000805460ff191660ff9081179091556040519081527f7f26b83ff96e1f2b6a682f133852f6798a09c465da95921460cefb38474024989060200160405180910390a15b565b80516001600160a01b03811681146200022057600080fd5b919050565b600080604083850312156200023957600080fd5b620002448362000208565b9150620002546020840162000208565b90509250929050565b6000602082840312156200027057600080fd5b815160ff811681146200028257600080fd5b9392505050565b634e487b7160e01b600052601160045260246000fd5b600082821015620002b457620002b462000289565b500390565b600181815b80851115620002fa578160001904821115620002de57620002de62000289565b80851615620002ec57918102915b93841c9390800290620002be565b509250929050565b6000826200031357506001620003b2565b816200032257506000620003b2565b81600181146200033b5760028114620003465762000366565b6001915050620003b2565b60ff8411156200035a576200035a62000289565b50506001821b620003b2565b5060208310610133831016604e8410600b84101617156200038b575081810a620003b2565b620003978383620002b9565b8060001904821115620003ae57620003ae62000289565b0290505b92915050565b600062000282838362000302565b60805160a05160c051611ef0620004666000396000818161033c0152818161051d015281816107d801528181610e9c01528181610f1e01528181610f5e01528181610ff90152611756015260008181610363015281816105bf015281816106bc01528181610767015281816110ec0152611179015260008181610287015281816117eb0152818161181201528181611838015261185f0152611ef06000f3fe608060405234801561001057600080fd5b50600436106101e55760003560e01c80637adbf9731161010f578063b187bd26116100a2578063e2608fba11610071578063e2608fba146103f6578063e30c397814610409578063f23c0f401461041a578063f2fde38b1461042957600080fd5b8063b187bd26146103ab578063b4a0bdf3146103c9578063d97c057d146103da578063dd081268146103e357600080fd5b80638ec2b239116100de5780638ec2b2391461033757806398f44cd11461035e578063a52f540c14610385578063a589e98a1461039857600080fd5b80637adbf973146102f85780637dc0d1d01461030b5780638456cb591461031e5780638da5cb5b1461032657600080fd5b806342e8a97211610187578063715018a611610156578063715018a6146101f2578063728cdbca146102d4578063769a48d9146102e757806379ba5097146102f057600080fd5b806342e8a9721461025c57806355725d411461026f578063572ca9e714610282578063586f9933146102a957600080fd5b80630e32cb86116101c35780630e32cb8614610223578063126082cf14610236578063187e28bd1461023f57806340a1dd461461025257600080fd5b8063046f7da2146101ea5780630696819f146101f45780630d35d2ed14610210575b600080fd5b6101f261043c565b005b6101fd60fe5481565b6040519081526020015b60405180910390f35b6101fd61021e366004611bfb565b6104c1565b6101f2610231366004611c25565b610855565b6101fd61271081565b6101fd61024d366004611c40565b610869565b6101fd6101005481565b6101f261026a366004611c40565b6108c8565b6101f261027d366004611c40565b610963565b6101fd7f000000000000000000000000000000000000000000000000000000000000000081565b60fc546102bc906001600160a01b031681565b6040516001600160a01b039091168152602001610207565b6101f26102e2366004611c59565b6109f7565b6101fd60fd5481565b6101f2610ba7565b6101f2610306366004611c25565b610c1e565b60fb546102bc906001600160a01b031681565b6101f2610cac565b6033546001600160a01b03166102bc565b6102bc7f000000000000000000000000000000000000000000000000000000000000000081565b6102bc7f000000000000000000000000000000000000000000000000000000000000000081565b6101f2610393366004611c25565b610d34565b6101f26103a6366004611c40565b610dcd565b610101546103b99060ff1681565b6040519015158152602001610207565b6097546001600160a01b03166102bc565b6101fd60ff5481565b6101fd6103f1366004611bfb565b610e42565b6101fd610404366004611c40565b61122a565b6065546001600160a01b03166102bc565b6101fd670de0b6b3a764000081565b6101f2610437366004611c25565b611292565b61046560405180604001604052806008815260200167726573756d65282960c01b815250611303565b6101015460ff1661048957604051636cd6020160e01b815260040160405180910390fd5b610101805460ff1916905560405133907f108589e68122bb4da8e5020c44387cab025243d0894392e275459641a90181a290600090a2565b6101015460009060ff16156104e9576040516313d0ff5960e31b815260040160405180910390fd5b6104f16113a1565b6104fa836113fa565b61050382611421565b60fb5460405163b62cad6960e01b81526001600160a01b037f0000000000000000000000000000000000000000000000000000000000000000811660048301529091169063b62cad6990602401600060405180830381600087803b15801561056a57600080fd5b505af115801561057e573d6000803e3d6000fd5b50505050600061058f836001611442565b9050600061059e826001611471565b90506105aa8183611cce565b6040516370a0823160e01b81523360048201527f00000000000000000000000000000000000000000000000000000000000000006001600160a01b0316906370a08231906024016020604051808303816000875af1158015610610573d6000803e3d6000fd5b505050506040513d601f19601f820116820180604052508101906106349190611ce6565b1015610656576040516001629d12e360e01b0319815260040160405180910390fd5b8161010054101561067a5760405163a5047e9560e01b815260040160405180910390fd5b61010080548390039055801561074b5760fc546040516323b872dd60e01b81523360048201526001600160a01b039182166024820152604481018390526000917f000000000000000000000000000000000000000000000000000000000000000016906323b872dd906064016020604051808303816000875af1158015610705573d6000803e3d6000fd5b505050506040513d601f19601f820116820180604052508101906107299190611cff565b9050806107495760405163aba1276560e01b815260040160405180910390fd5b505b604051632770a7eb60e21b8152336004820152602481018390527f00000000000000000000000000000000000000000000000000000000000000006001600160a01b031690639dc29fac90604401600060405180830381600087803b1580156107b357600080fd5b505af11580156107c7573d6000803e3d6000fd5b506108019250506001600160a01b037f000000000000000000000000000000000000000000000000000000000000000016905086866114f7565b60408051838152602081018690529081018290527f031e3397b091e3298ff850e89e965fe3543a0c64eb93659927433b06545f3f629060600160405180910390a150905061084f600160c955565b92915050565b61085d611566565b610866816115c0565b50565b600061087482611421565b6000610881836001611442565b90506000610890826001611471565b9050816101005410156108b65760405163a5047e9560e01b815260040160405180910390fd5b6108c08183611cce565b949350505050565b6108fb604051806040016040528060128152602001717365744665654f75742875696e743235362960701b815250611303565b612710811061091d576040516358d620b360e01b815260040160405180910390fd5b60fe80549082905560408051828152602081018490527fdc61767cf6b8f2d5ec16cd975db6d3a79fc69dc428b04c93e8db271de5e43b9f91015b60405180910390a15050565b61099560405180604001604052806011815260200170736574466565496e2875696e743235362960781b815250611303565b61271081106109b7576040516358d620b360e01b815260040160405180910390fd5b60fd80549082905560408051828152602081018490527fb76804f9786a4411a614b09a8211b2fd86f1f5b7a5e4410f35aa1578aac64e049101610957565b565b600054610100900460ff1615808015610a175750600054600160ff909116105b80610a315750303b158015610a31575060005460ff166001145b610a995760405162461bcd60e51b815260206004820152602e60248201527f496e697469616c697a61626c653a20636f6e747261637420697320616c72656160448201526d191e481a5b9a5d1a585b1a5e995960921b60648201526084015b60405180910390fd5b6000805460ff191660011790558015610abc576000805461ff0019166101001790555b610ac5876113fa565b610ace866113fa565b610ad7856113fa565b610ae08761167e565b610ae86116b6565b61271084101580610afb57506127108310155b15610b19576040516358d620b360e01b815260040160405180910390fd5b60fd84905560fe83905560ff82905560fc80546001600160a01b038089166001600160a01b03199283161790925560fb8054928816929091169190911790558015610b9e576000805461ff0019169055604051600181527f7f26b83ff96e1f2b6a682f133852f6798a09c465da95921460cefb38474024989060200160405180910390a15b50505050505050565b60655433906001600160a01b03168114610c155760405162461bcd60e51b815260206004820152602960248201527f4f776e61626c6532537465703a2063616c6c6572206973206e6f7420746865206044820152683732bb9037bbb732b960b91b6064820152608401610a90565b610866816116e5565b610c51604051806040016040528060128152602001717365744f7261636c6528616464726573732960701b815250611303565b610c5a816113fa565b60fb80546001600160a01b038381166001600160a01b0319831681179093556040519116919082907f05cd89403c6bdeac21c2ff33de395121a31fa1bc2bf3adf4825f1f86e79969dd90600090a35050565b610cd4604051806040016040528060078152602001667061757365282960c81b815250611303565b6101015460ff1615610cf957604051631785c68160e01b815260040160405180910390fd5b610101805460ff1916600117905560405133907fb7aabc84a8f1fe9971d4bfffb4bb336af2c63e547360dd116940dc70da8159e190600090a2565b610d726040518060400160405280601981526020017f73657456656e7573547265617375727928616464726573732900000000000000815250611303565b610d7b816113fa565b60fc80546001600160a01b038381166001600160a01b0319831681179093556040519116919082907f35655f8f1a1f8b7ff254ff70c675c0a26ddcb3da6cb6decd491ecdee167e220b90600090a35050565b610e04604051806040016040528060168152602001757365745641494d696e744361702875696e743235362960501b815250611303565b60ff80549082905560408051828152602081018490527f0f43249751c1ca8dedff5711840ef91871f6fc2ce9b3891c1f33f4163ba1a9a39101610957565b6101015460009060ff1615610e6a576040516313d0ff5960e31b815260040160405180910390fd5b610e726113a1565b610e7b836113fa565b610e8482611421565b6040516370a0823160e01b81523060048201526000907f00000000000000000000000000000000000000000000000000000000000000006001600160a01b0316906370a0823190602401602060405180830381865afa158015610eeb573d6000803e3d6000fd5b505050506040513d601f19601f82011682018060405250810190610f0f9190611ce6565b9050610f466001600160a01b037f0000000000000000000000000000000000000000000000000000000000000000163330866116fe565b6040516370a0823160e01b81523060048201526000907f00000000000000000000000000000000000000000000000000000000000000006001600160a01b0316906370a0823190602401602060405180830381865afa158015610fad573d6000803e3d6000fd5b505050506040513d601f19601f82011682018060405250810190610fd19190611ce6565b90506000610fdf8383611d21565b60fb5460405163b62cad6960e01b81526001600160a01b037f00000000000000000000000000000000000000000000000000000000000000008116600483015292935091169063b62cad6990602401600060405180830381600087803b15801561104857600080fd5b505af115801561105c573d6000803e3d6000fd5b50505050600061106d826000611442565b9050600061107c826000611471565b9050600061108a8284611d21565b905060ff54836101005461109e9190611cce565b11156110bd576040516313d3ad1560e31b815260040160405180910390fd5b6101008054840190556040516340c10f1960e01b81526001600160a01b038a81166004830152602482018390527f000000000000000000000000000000000000000000000000000000000000000016906340c10f1990604401600060405180830381600087803b15801561113057600080fd5b505af1158015611144573d6000803e3d6000fd5b50505050816000146111d85760fc546040516340c10f1960e01b81526001600160a01b039182166004820152602481018490527f0000000000000000000000000000000000000000000000000000000000000000909116906340c10f1990604401600060405180830381600087803b1580156111bf57600080fd5b505af11580156111d3573d6000803e3d6000fd5b505050505b60408051858152602081018390529081018390527f018e5c6d7bd9e0cafe3512ff02488f4c0ce3524a684e1097aab74666bf4fd00f9060600160405180910390a19550505050505061084f600160c955565b600061123582611421565b6000611242836000611442565b90506000611251826000611471565b9050600061125f8284611d21565b905060ff5483610100546112739190611cce565b11156108c0576040516313d3ad1560e31b815260040160405180910390fd5b61129a611566565b606580546001600160a01b0383166001600160a01b031990911681179091556112cb6033546001600160a01b031690565b6001600160a01b03167f38d16b8cac22d99fc7c124b9cd0de2d3fa1faef420bfe791d8c362d765e2270060405160405180910390a350565b6097546040516318c5e8ab60e01b81526000916001600160a01b0316906318c5e8ab906113369033908690600401611d90565b602060405180830381865afa158015611353573d6000803e3d6000fd5b505050506040513d601f19601f820116820180604052508101906113779190611cff565b90508061139d57333083604051634a3fa29360e01b8152600401610a9093929190611db4565b5050565b600260c954036113f35760405162461bcd60e51b815260206004820152601f60248201527f5265656e7472616e637947756172643a207265656e7472616e742063616c6c006044820152606401610a90565b600260c955565b6001600160a01b0381166108665760405163d92e233d60e01b815260040160405180910390fd5b8060000361086657604051631f2a200560e01b815260040160405180910390fd5b6000670de0b6b3a76400006114568361173c565b6114609085611de9565b61146a9190611e08565b9392505050565b6000808083600181111561148757611487611e2a565b03611495575060fd5461149a565b5060fe545b806000036114ac57600091505061084f565b6127106114b98286611de9565b10156114d85760405163617ab12d60e11b815260040160405180910390fd5b6127106114e58286611de9565b6114ef9190611e08565b91505061084f565b6040516001600160a01b03831660248201526044810182905261155a90849063a9059cbb60e01b906064015b60408051601f198184030181529190526020810180516001600160e01b03166001600160e01b031990931692909217909152611883565b505050565b600160c955565b6033546001600160a01b031633146109f55760405162461bcd60e51b815260206004820181905260248201527f4f776e61626c653a2063616c6c6572206973206e6f7420746865206f776e65726044820152606401610a90565b6001600160a01b0381166116245760405162461bcd60e51b815260206004820152602560248201527f696e76616c696420616365737320636f6e74726f6c206d616e61676572206164604482015264647265737360d81b6064820152608401610a90565b609780546001600160a01b038381166001600160a01b031983168117909355604080519190921680825260208201939093527f66fd58e82f7b31a2a5c30e0888f3093efe4e111b00cd2b0c31fe014601293aa09101610957565b600054610100900460ff166116a55760405162461bcd60e51b8152600401610a9090611e40565b6116ad611958565b61086681611987565b600054610100900460ff166116dd5760405162461bcd60e51b8152600401610a9090611e40565b6109f56119ae565b606580546001600160a01b0319169055610866816119d5565b6040516001600160a01b03808516602483015283166044820152606481018290526117369085906323b872dd60e01b90608401611523565b50505050565b60fb546040516341976e0960e01b81526001600160a01b037f00000000000000000000000000000000000000000000000000000000000000008116600483015260009283929116906341976e0990602401602060405180830381865afa1580156117aa573d6000803e3d6000fd5b505050506040513d601f19601f820116820180604052508101906117ce9190611ce6565b905060008360018111156117e4576117e4611e2a565b03611836577f0000000000000000000000000000000000000000000000000000000000000000811061084f577f000000000000000000000000000000000000000000000000000000000000000061146a565b7f0000000000000000000000000000000000000000000000000000000000000000811161084f577f000000000000000000000000000000000000000000000000000000000000000061146a565b60006118d8826040518060400160405280602081526020017f5361666545524332303a206c6f772d6c6576656c2063616c6c206661696c6564815250856001600160a01b0316611a279092919063ffffffff16565b90508051600014806118f95750808060200190518101906118f99190611cff565b61155a5760405162461bcd60e51b815260206004820152602a60248201527f5361666545524332303a204552433230206f7065726174696f6e20646964206e6044820152691bdd081cdd58d8d9595960b21b6064820152608401610a90565b600054610100900460ff1661197f5760405162461bcd60e51b8152600401610a9090611e40565b6109f5611a36565b600054610100900460ff1661085d5760405162461bcd60e51b8152600401610a9090611e40565b600054610100900460ff1661155f5760405162461bcd60e51b8152600401610a9090611e40565b603380546001600160a01b038381166001600160a01b0319831681179093556040519116919082907f8be0079c531659141344cd1fd0a4f28419497f9722a3daafe3b4186f6b6457e090600090a35050565b60606108c08484600085611a66565b600054610100900460ff16611a5d5760405162461bcd60e51b8152600401610a9090611e40565b6109f5336116e5565b606082471015611ac75760405162461bcd60e51b815260206004820152602660248201527f416464726573733a20696e73756666696369656e742062616c616e636520666f6044820152651c8818d85b1b60d21b6064820152608401610a90565b600080866001600160a01b03168587604051611ae39190611e8b565b60006040518083038185875af1925050503d8060008114611b20576040519150601f19603f3d011682016040523d82523d6000602084013e611b25565b606091505b5091509150611b3687838387611b41565b979650505050505050565b60608315611bb0578251600003611ba9576001600160a01b0385163b611ba95760405162461bcd60e51b815260206004820152601d60248201527f416464726573733a2063616c6c20746f206e6f6e2d636f6e74726163740000006044820152606401610a90565b50816108c0565b6108c08383815115611bc55781518083602001fd5b8060405162461bcd60e51b8152600401610a909190611ea7565b80356001600160a01b0381168114611bf657600080fd5b919050565b60008060408385031215611c0e57600080fd5b611c1783611bdf565b946020939093013593505050565b600060208284031215611c3757600080fd5b61146a82611bdf565b600060208284031215611c5257600080fd5b5035919050565b60008060008060008060c08789031215611c7257600080fd5b611c7b87611bdf565b9550611c8960208801611bdf565b9450611c9760408801611bdf565b9350606087013592506080870135915060a087013590509295509295509295565b634e487b7160e01b600052601160045260246000fd5b60008219821115611ce157611ce1611cb8565b500190565b600060208284031215611cf857600080fd5b5051919050565b600060208284031215611d1157600080fd5b8151801515811461146a57600080fd5b600082821015611d3357611d33611cb8565b500390565b60005b83811015611d53578181015183820152602001611d3b565b838111156117365750506000910152565b60008151808452611d7c816020860160208601611d38565b601f01601f19169290920160200192915050565b6001600160a01b03831681526040602082018190526000906108c090830184611d64565b6001600160a01b03848116825283166020820152606060408201819052600090611de090830184611d64565b95945050505050565b6000816000190483118215151615611e0357611e03611cb8565b500290565b600082611e2557634e487b7160e01b600052601260045260246000fd5b500490565b634e487b7160e01b600052602160045260246000fd5b6020808252602b908201527f496e697469616c697a61626c653a20636f6e7472616374206973206e6f74206960408201526a6e697469616c697a696e6760a81b606082015260800190565b60008251611e9d818460208701611d38565b9190910192915050565b60208152600061146a6020830184611d6456fea2646970667358221220776bae9a01444556f49e135e272e6d666dc0b437dde23f690af77c95ce44ac9b64736f6c634300080d0033",
  "devdoc": {
    "author": "Venus Protocol",
    "kind": "dev",
    "methods": {
      "acceptOwnership()": {
        "details": "The new owner accepts the ownership transfer."
      },
      "constructor": {
        "custom:oz-upgrades-unsafe-allow": "constructor"
      },
      "initialize(address,address,address,uint256,uint256,uint256)": {
        "params": {
          "accessControlManager_": "The address of the AccessControlManager contract.",
          "feeIn_": "The percentage of fees to be applied to a stablecoin -> VAI swap.",
          "feeOut_": "The percentage of fees to be applied to a VAI -> stablecoin swap.",
          "oracleAddress_": "The address of the ResilientOracle contract.",
          "vaiMintCap_": "The cap for the total amount of VAI that can be minted.",
          "venusTreasury_": "The address where fees will be sent."
        }
      },
      "owner()": {
        "details": "Returns the address of the current owner."
      },
      "pause()": {
        "details": "Reverts if the contract is already paused."
      },
      "pendingOwner()": {
        "details": "Returns the address of the pending owner."
      },
      "previewSwapStableForVAI(uint256)": {
        "details": "This calculation might be off with a bit, if the price of the oracle for this asset is not updated in the block this function is invoked.",
        "params": {
          "stableTknAmount": "The amount of stable tokens provided for the swap."
        },
        "returns": {
          "_0": "The amount of VAI that would be sent to the receiver."
        }
      },
      "previewSwapVAIForStable(uint256)": {
        "details": "This calculation might be off with a bit, if the price of the oracle for this asset is not updated in the block this function is invoked.",
        "params": {
          "stableTknAmount": "The amount of stable tokens to be received after the swap."
        },
        "returns": {
          "_0": "The amount of VAI that would be taken from the user."
        }
      },
      "renounceOwnership()": {
        "details": "Disabling renounceOwnership function."
      },
      "resume()": {
        "details": "Reverts if the contract is not paused."
      },
      "setAccessControlManager(address)": {
        "custom:access": "Only Governance",
        "custom:event": "Emits NewAccessControlManager event",
        "details": "Admin function to set address of AccessControlManager",
        "params": {
          "accessControlManager_": "The new address of the AccessControlManager"
        }
      },
      "setFeeIn(uint256)": {
        "details": "Reverts if the new fee percentage is invalid (greater than or equal to BASIS_POINTS_DIVISOR).",
        "params": {
          "feeIn_": "The new fee percentage for incoming swaps."
        }
      },
      "setFeeOut(uint256)": {
        "details": "Reverts if the new fee percentage is invalid (greater than or equal to BASIS_POINTS_DIVISOR).",
        "params": {
          "feeOut_": "The new fee percentage for outgoing swaps."
        }
      },
      "setOracle(address)": {
        "details": "Reverts if the new address is zero.",
        "params": {
          "oracleAddress_": "The new address of the ResilientOracle contract."
        }
      },
      "setVAIMintCap(uint256)": {
        "details": "Set the maximum amount of VAI that can be minted through this contract.",
        "params": {
          "vaiMintCap_": "The new maximum amount of VAI that can be minted."
        }
      },
      "setVenusTreasury(address)": {
        "details": "Reverts if the new address is zero.",
        "params": {
          "venusTreasury_": "The new address of the Venus Treasury contract."
        }
      },
      "swapStableForVAI(address,uint256)": {
        "details": "This function adds support to fee-on-transfer tokens. The actualTransferAmt is calculated, by recording token balance state before and after the transfer.",
        "params": {
          "receiver": "The address that will receive the VAI tokens.",
          "stableTknAmount": "The amount of stable tokens to be swapped."
        },
        "returns": {
          "_0": "Amount of VAI minted to the sender."
        }
      },
      "swapVAIForStable(address,uint256)": {
        "params": {
          "receiver": "The address where the stablecoin will be sent.",
          "stableTknAmount": "The amount of stable tokens to receive."
        },
        "returns": {
          "_0": "The amount of VAI received and burnt from the sender."
        }
      },
      "transferOwnership(address)": {
        "details": "Starts the ownership transfer of the contract to a new account. Replaces the pending transfer if there is one. Can only be called by the current owner."
      }
    },
    "stateVariables": {
      "ONE_DOLLAR": {
        "custom:oz-upgrades-unsafe-allow": "state-variable-immutable",
        "details": "Our oracle is returning amount depending on the number of decimals of the stable token. (36 - asset_decimals) E.g. 8 decimal asset = 1e28."
      },
      "STABLE_TOKEN_ADDRESS": {
        "custom:oz-upgrades-unsafe-allow": "state-variable-immutable"
      },
      "VAI": {
        "custom:oz-upgrades-unsafe-allow": "state-variable-immutable"
      }
    },
    "title": "Peg Stability Contract.",
    "version": 1
  },
  "userdoc": {
    "errors": {
      "AlreadyPaused()": [
        {
          "notice": "thrown when attempted to pause an already paused contract"
        }
      ],
      "AmountTooSmall()": [
        {
          "notice": "thrown when fee calculation will result in rounding down to 0 due to stable token amount being a too small number"
        }
      ],
      "InvalidFee()": [
        {
          "notice": "thrown when fee is >= 100%"
        }
      ],
      "NotEnoughVAI()": [
        {
          "notice": "thrown when the user doesn't have enough VAI balance to provide for the amount of stable tokens he wishes to get"
        }
      ],
      "NotPaused()": [
        {
          "notice": "thrown when attempted to resume the contract if it is already resumed"
        }
      ],
      "Paused()": [
        {
          "notice": "thrown when contract is in paused state"
        }
      ],
      "TooManyDecimals()": [
        {
          "notice": "thrown when stable token has more than 18 decimals"
        }
      ],
      "Unauthorized(address,address,string)": [
        {
          "notice": "Thrown when the action is prohibited by AccessControlManager"
        }
      ],
      "VAIMintCapReached()": [
        {
          "notice": "thrown when VAI to be minted will go beyond the mintCap threshold"
        }
      ],
      "VAIMintedUnderflow()": [
        {
          "notice": "thrown when the amount of VAI to be burnt exceeds the vaiMinted amount"
        }
      ],
      "VAITransferFail()": [
        {
          "notice": "thrown when the VAI transfer to treasury fails"
        }
      ],
      "ZeroAddress()": [
        {
          "notice": "thrown when a zero address is passed as a function parameter"
        }
      ],
      "ZeroAmount()": [
        {
          "notice": "thrown when a zero amount is passed as stable token amount parameter"
        }
      ]
    },
    "events": {
      "FeeInChanged(uint256,uint256)": {
        "notice": "Event emitted when feeIn state var is modified."
      },
      "FeeOutChanged(uint256,uint256)": {
        "notice": "Event emitted when feeOut state var is modified."
      },
      "NewAccessControlManager(address,address)": {
        "notice": "Emitted when access control manager contract address is changed"
      },
      "OracleChanged(address,address)": {
        "notice": "Event emitted when oracle state var is modified."
      },
      "PSMPaused(address)": {
        "notice": "Event emitted when contract is paused."
      },
      "PSMResumed(address)": {
        "notice": "Event emitted when the contract is resumed after pause."
      },
      "StableForVAISwapped(uint256,uint256,uint256)": {
        "notice": "Event emitted when stable token is swapped for VAI."
      },
      "VAIForStableSwapped(uint256,uint256,uint256)": {
        "notice": "Event emitted when stable token is swapped for VAI."
      },
      "VAIMintCapChanged(uint256,uint256)": {
        "notice": "Event emitted when vaiMintCap state var is modified."
      },
      "VenusTreasuryChanged(address,address)": {
        "notice": "Event emitted when venusTreasury state var is modified."
      }
    },
    "kind": "user",
    "methods": {
      "BASIS_POINTS_DIVISOR()": {
        "notice": "The divisor used to convert fees to basis points."
      },
      "MANTISSA_ONE()": {
        "notice": "The mantissa value representing 1 (used for calculations)."
      },
      "ONE_DOLLAR()": {
        "notice": "The value representing one dollar in the stable token."
      },
      "STABLE_TOKEN_ADDRESS()": {
        "notice": "The address of the stable token contract."
      },
      "VAI()": {
        "notice": "VAI token contract."
      },
      "accessControlManager()": {
        "notice": "Returns the address of the access control manager contract"
      },
      "feeIn()": {
        "notice": "The incoming stableCoin fee. (Fee for swapStableForVAI)."
      },
      "feeOut()": {
        "notice": "The outgoing stableCoin fee. (Fee for swapVAIForStable)."
      },
      "initialize(address,address,address,uint256,uint256,uint256)": {
        "notice": "Initializes the contract via Proxy Contract with the required parameters."
      },
      "isPaused()": {
        "notice": "A flag indicating whether the contract is currently paused or not."
      },
      "oracle()": {
        "notice": "The address of ResilientOracle contract wrapped in its interface."
      },
      "pause()": {
        "notice": "Pause the PSM contract."
      },
      "previewSwapStableForVAI(uint256)": {
        "notice": "Calculates the amount of VAI that would be sent to the receiver."
      },
      "previewSwapVAIForStable(uint256)": {
        "notice": "Calculates the amount of VAI that would be burnt from the user."
      },
      "resume()": {
        "notice": "Resume the PSM contract."
      },
      "setAccessControlManager(address)": {
        "notice": "Sets the address of AccessControlManager"
      },
      "setFeeIn(uint256)": {
        "notice": "Set the fee percentage for incoming swaps."
      },
      "setFeeOut(uint256)": {
        "notice": "Set the fee percentage for outgoing swaps."
      },
      "setOracle(address)": {
        "notice": "Set the address of the ResilientOracle contract."
      },
      "setVenusTreasury(address)": {
        "notice": "Set the address of the Venus Treasury contract."
      },
      "swapStableForVAI(address,uint256)": {
        "notice": "Swaps stable tokens for VAI with fees."
      },
      "swapVAIForStable(address,uint256)": {
        "notice": "Swaps VAI for a stable token."
      },
      "vaiMintCap()": {
        "notice": "The maximum amount of VAI that can be minted through this contract."
      },
      "vaiMinted()": {
        "notice": "The total amount of VAI minted through this contract."
      },
      "venusTreasury()": {
        "notice": "The address of the Venus Treasury contract."
      }
    },
    "notice": "Contract for swapping stable token for VAI token and vice versa to maintain the peg stability between them.",
    "version": 1
  },
  "storageLayout": {
    "storage": [
      {
        "astId": 244,
        "contract": "contracts/PegStability/PegStability.sol:PegStability",
        "label": "_initialized",
        "offset": 0,
        "slot": "0",
        "type": "t_uint8"
      },
      {
        "astId": 247,
        "contract": "contracts/PegStability/PegStability.sol:PegStability",
        "label": "_initializing",
        "offset": 1,
        "slot": "0",
        "type": "t_bool"
      },
      {
        "astId": 1376,
        "contract": "contracts/PegStability/PegStability.sol:PegStability",
        "label": "__gap",
        "offset": 0,
        "slot": "1",
        "type": "t_array(t_uint256)50_storage"
      },
      {
        "astId": 116,
        "contract": "contracts/PegStability/PegStability.sol:PegStability",
        "label": "_owner",
        "offset": 0,
        "slot": "51",
        "type": "t_address"
      },
      {
        "astId": 236,
        "contract": "contracts/PegStability/PegStability.sol:PegStability",
        "label": "__gap",
        "offset": 0,
        "slot": "52",
        "type": "t_array(t_uint256)49_storage"
      },
      {
        "astId": 25,
        "contract": "contracts/PegStability/PegStability.sol:PegStability",
        "label": "_pendingOwner",
        "offset": 0,
        "slot": "101",
        "type": "t_address"
      },
      {
        "astId": 104,
        "contract": "contracts/PegStability/PegStability.sol:PegStability",
        "label": "__gap",
        "offset": 0,
        "slot": "102",
        "type": "t_array(t_uint256)49_storage"
      },
      {
        "astId": 1464,
        "contract": "contracts/PegStability/PegStability.sol:PegStability",
        "label": "_accessControlManager",
        "offset": 0,
        "slot": "151",
        "type": "t_contract(IAccessControlManagerV8)1648"
      },
      {
        "astId": 1469,
        "contract": "contracts/PegStability/PegStability.sol:PegStability",
        "label": "__gap",
        "offset": 0,
        "slot": "152",
        "type": "t_array(t_uint256)49_storage"
      },
      {
        "astId": 420,
        "contract": "contracts/PegStability/PegStability.sol:PegStability",
        "label": "_status",
        "offset": 0,
        "slot": "201",
        "type": "t_uint256"
      },
      {
        "astId": 489,
        "contract": "contracts/PegStability/PegStability.sol:PegStability",
        "label": "__gap",
        "offset": 0,
        "slot": "202",
        "type": "t_array(t_uint256)49_storage"
      },
      {
        "astId": 1780,
        "contract": "contracts/PegStability/PegStability.sol:PegStability",
        "label": "oracle",
        "offset": 0,
        "slot": "251",
        "type": "t_contract(ResilientOracleInterface)1678"
      },
      {
        "astId": 1783,
        "contract": "contracts/PegStability/PegStability.sol:PegStability",
        "label": "venusTreasury",
        "offset": 0,
        "slot": "252",
        "type": "t_address"
      },
      {
        "astId": 1786,
        "contract": "contracts/PegStability/PegStability.sol:PegStability",
        "label": "feeIn",
        "offset": 0,
        "slot": "253",
        "type": "t_uint256"
      },
      {
        "astId": 1789,
        "contract": "contracts/PegStability/PegStability.sol:PegStability",
        "label": "feeOut",
        "offset": 0,
        "slot": "254",
        "type": "t_uint256"
      },
      {
        "astId": 1792,
        "contract": "contracts/PegStability/PegStability.sol:PegStability",
        "label": "vaiMintCap",
        "offset": 0,
        "slot": "255",
        "type": "t_uint256"
      },
      {
        "astId": 1795,
        "contract": "contracts/PegStability/PegStability.sol:PegStability",
        "label": "vaiMinted",
        "offset": 0,
        "slot": "256",
        "type": "t_uint256"
      },
      {
        "astId": 1798,
        "contract": "contracts/PegStability/PegStability.sol:PegStability",
        "label": "isPaused",
        "offset": 0,
        "slot": "257",
        "type": "t_bool"
      }
    ],
    "types": {
      "t_address": {
        "encoding": "inplace",
        "label": "address",
        "numberOfBytes": "20"
      },
      "t_array(t_uint256)49_storage": {
        "base": "t_uint256",
        "encoding": "inplace",
        "label": "uint256[49]",
        "numberOfBytes": "1568"
      },
      "t_array(t_uint256)50_storage": {
        "base": "t_uint256",
        "encoding": "inplace",
        "label": "uint256[50]",
        "numberOfBytes": "1600"
      },
      "t_bool": {
        "encoding": "inplace",
        "label": "bool",
        "numberOfBytes": "1"
      },
      "t_contract(IAccessControlManagerV8)1648": {
        "encoding": "inplace",
        "label": "contract IAccessControlManagerV8",
        "numberOfBytes": "20"
      },
      "t_contract(ResilientOracleInterface)1678": {
        "encoding": "inplace",
        "label": "contract ResilientOracleInterface",
        "numberOfBytes": "20"
      },
      "t_uint256": {
        "encoding": "inplace",
        "label": "uint256",
        "numberOfBytes": "32"
      },
      "t_uint8": {
        "encoding": "inplace",
        "label": "uint8",
        "numberOfBytes": "1"
      }
    }
  }
}