{
  "address": "0xC319b8207a9FB2797710BB79B4aB8933f90dA9B3",
  "abi": [
    {
      "inputs": [
        {
          "internalType": "address",
          "name": "vTokenAddress_",
          "type": "address"
        },
        {
          "internalType": "address",
          "name": "vaiAddress_",
          "type": "address"
        }
      ],
      "stateMutability": "nonpayable",
      "type": "constructor"
    },
    {
      "inputs": [
        {
          "internalType": "address",
          "name": "sender",
          "type": "address"
        },
        {
          "internalType": "address",
          "name": "calledContract",
          "type": "address"
        },
        {
          "internalType": "string",
          "name": "methodSignature",
          "type": "string"
        }
      ],
      "name": "Unauthorized",
      "type": "error"
    },
    {
      "anonymous": false,
      "inputs": [
        {
          "indexed": true,
          "internalType": "address",
          "name": "oldComptroller",
          "type": "address"
        },
        {
          "indexed": true,
          "internalType": "address",
          "name": "newComptroller",
          "type": "address"
        }
      ],
      "name": "ComptrollerChanged",
      "type": "event"
    },
    {
      "anonymous": false,
      "inputs": [
        {
          "indexed": false,
          "internalType": "uint256",
          "name": "oldFeeIn",
          "type": "uint256"
        },
        {
          "indexed": false,
          "internalType": "uint256",
          "name": "newFeeIn",
          "type": "uint256"
        }
      ],
      "name": "FeeInChanged",
      "type": "event"
    },
    {
      "anonymous": false,
      "inputs": [
        {
          "indexed": false,
          "internalType": "uint256",
          "name": "oldFeeOut",
          "type": "uint256"
        },
        {
          "indexed": false,
          "internalType": "uint256",
          "name": "newFeeOut",
          "type": "uint256"
        }
      ],
      "name": "FeeOutChanged",
      "type": "event"
    },
    {
      "anonymous": false,
      "inputs": [
        {
          "indexed": false,
          "internalType": "uint8",
          "name": "version",
          "type": "uint8"
        }
      ],
      "name": "Initialized",
      "type": "event"
    },
    {
      "anonymous": false,
      "inputs": [
        {
          "indexed": false,
          "internalType": "address",
          "name": "oldAccessControlManager",
          "type": "address"
        },
        {
          "indexed": false,
          "internalType": "address",
          "name": "newAccessControlManager",
          "type": "address"
        }
      ],
      "name": "NewAccessControlManager",
      "type": "event"
    },
    {
      "anonymous": false,
      "inputs": [
        {
          "indexed": true,
          "internalType": "address",
          "name": "previousOwner",
          "type": "address"
        },
        {
          "indexed": true,
          "internalType": "address",
          "name": "newOwner",
          "type": "address"
        }
      ],
      "name": "OwnershipTransferStarted",
      "type": "event"
    },
    {
      "anonymous": false,
      "inputs": [
        {
          "indexed": true,
          "internalType": "address",
          "name": "previousOwner",
          "type": "address"
        },
        {
          "indexed": true,
          "internalType": "address",
          "name": "newOwner",
          "type": "address"
        }
      ],
      "name": "OwnershipTransferred",
      "type": "event"
    },
    {
      "anonymous": false,
      "inputs": [
        {
          "indexed": true,
          "internalType": "address",
          "name": "admin",
          "type": "address"
        }
      ],
      "name": "PSMPaused",
      "type": "event"
    },
    {
      "anonymous": false,
      "inputs": [
        {
          "indexed": true,
          "internalType": "address",
          "name": "admin",
          "type": "address"
        }
      ],
      "name": "PSMResumed",
      "type": "event"
    },
    {
      "anonymous": false,
      "inputs": [
        {
          "indexed": false,
          "internalType": "uint256",
          "name": "stableIn",
          "type": "uint256"
        },
        {
          "indexed": false,
          "internalType": "uint256",
          "name": "vaiOut",
          "type": "uint256"
        },
        {
          "indexed": false,
          "internalType": "uint256",
          "name": "fee",
          "type": "uint256"
        }
      ],
      "name": "StableForVAISwapped",
      "type": "event"
    },
    {
      "anonymous": false,
      "inputs": [
        {
          "indexed": false,
          "internalType": "uint256",
          "name": "vaiBurnt",
          "type": "uint256"
        },
        {
          "indexed": false,
          "internalType": "uint256",
          "name": "vaiFee",
          "type": "uint256"
        },
        {
          "indexed": false,
          "internalType": "uint256",
          "name": "stableOut",
          "type": "uint256"
        }
      ],
      "name": "VaiForStableSwapped",
      "type": "event"
    },
    {
      "anonymous": false,
      "inputs": [
        {
          "indexed": false,
          "internalType": "uint256",
          "name": "oldCap",
          "type": "uint256"
        },
        {
          "indexed": false,
          "internalType": "uint256",
          "name": "newCap",
          "type": "uint256"
        }
      ],
      "name": "VaiMintCapChanged",
      "type": "event"
    },
    {
      "anonymous": false,
      "inputs": [
        {
          "indexed": true,
          "internalType": "address",
          "name": "oldTreasury",
          "type": "address"
        },
        {
          "indexed": true,
          "internalType": "address",
          "name": "newTreasury",
          "type": "address"
        }
      ],
      "name": "VenusTreasuryChanged",
      "type": "event"
    },
    {
      "inputs": [],
      "name": "BASIS_POINTS_DIVISOR",
      "outputs": [
        {
          "internalType": "uint256",
          "name": "",
          "type": "uint256"
        }
      ],
      "stateMutability": "view",
      "type": "function"
    },
    {
      "inputs": [],
      "name": "MANTISSA_ONE",
      "outputs": [
        {
          "internalType": "uint256",
          "name": "",
          "type": "uint256"
        }
      ],
      "stateMutability": "view",
      "type": "function"
    },
    {
      "inputs": [],
      "name": "ONE_DOLLAR",
      "outputs": [
        {
          "internalType": "uint256",
          "name": "",
          "type": "uint256"
        }
      ],
      "stateMutability": "view",
      "type": "function"
    },
    {
      "inputs": [],
      "name": "STABLE_TOKEN_ADDRESS",
      "outputs": [
        {
          "internalType": "address",
          "name": "",
          "type": "address"
        }
      ],
      "stateMutability": "view",
      "type": "function"
    },
    {
      "inputs": [],
      "name": "VAI_ADDRESS",
      "outputs": [
        {
          "internalType": "address",
          "name": "",
          "type": "address"
        }
      ],
      "stateMutability": "view",
      "type": "function"
    },
    {
      "inputs": [],
      "name": "VTOKEN_ADDRESS",
      "outputs": [
        {
          "internalType": "address",
          "name": "",
          "type": "address"
        }
      ],
      "stateMutability": "view",
      "type": "function"
    },
    {
      "inputs": [],
      "name": "acceptOwnership",
      "outputs": [],
      "stateMutability": "nonpayable",
      "type": "function"
    },
    {
      "inputs": [],
      "name": "accessControlManager",
      "outputs": [
        {
          "internalType": "contract IAccessControlManagerV8",
          "name": "",
          "type": "address"
        }
      ],
      "stateMutability": "view",
      "type": "function"
    },
    {
      "inputs": [],
      "name": "comptroller",
      "outputs": [
        {
          "internalType": "address",
          "name": "",
          "type": "address"
        }
      ],
      "stateMutability": "view",
      "type": "function"
    },
    {
      "inputs": [],
      "name": "feeIn",
      "outputs": [
        {
          "internalType": "uint256",
          "name": "",
          "type": "uint256"
        }
      ],
      "stateMutability": "view",
      "type": "function"
    },
    {
      "inputs": [],
      "name": "feeOut",
      "outputs": [
        {
          "internalType": "uint256",
          "name": "",
          "type": "uint256"
        }
      ],
      "stateMutability": "view",
      "type": "function"
    },
    {
      "inputs": [
        {
          "internalType": "address",
          "name": "accessControlManager_",
          "type": "address"
        },
        {
          "internalType": "address",
          "name": "venusTreasury_",
          "type": "address"
        },
        {
          "internalType": "address",
          "name": "comptroller_",
          "type": "address"
        },
        {
          "internalType": "uint256",
          "name": "feeIn_",
          "type": "uint256"
        },
        {
          "internalType": "uint256",
          "name": "feeOut_",
          "type": "uint256"
        },
        {
          "internalType": "uint256",
          "name": "vaiMintCap_",
          "type": "uint256"
        }
      ],
      "name": "initialize",
      "outputs": [],
      "stateMutability": "nonpayable",
      "type": "function"
    },
    {
      "inputs": [],
      "name": "isPaused",
      "outputs": [
        {
          "internalType": "bool",
          "name": "",
          "type": "bool"
        }
      ],
      "stateMutability": "view",
      "type": "function"
    },
    {
      "inputs": [],
      "name": "owner",
      "outputs": [
        {
          "internalType": "address",
          "name": "",
          "type": "address"
        }
      ],
      "stateMutability": "view",
      "type": "function"
    },
    {
      "inputs": [],
      "name": "pause",
      "outputs": [],
      "stateMutability": "nonpayable",
      "type": "function"
    },
    {
      "inputs": [],
      "name": "pendingOwner",
      "outputs": [
        {
          "internalType": "address",
          "name": "",
          "type": "address"
        }
      ],
      "stateMutability": "view",
      "type": "function"
    },
    {
      "inputs": [],
      "name": "renounceOwnership",
      "outputs": [],
      "stateMutability": "nonpayable",
      "type": "function"
    },
    {
      "inputs": [],
      "name": "resume",
      "outputs": [],
      "stateMutability": "nonpayable",
      "type": "function"
    },
    {
      "inputs": [
        {
          "internalType": "address",
          "name": "accessControlManager_",
          "type": "address"
        }
      ],
      "name": "setAccessControlManager",
      "outputs": [],
      "stateMutability": "nonpayable",
      "type": "function"
    },
    {
      "inputs": [
        {
          "internalType": "address",
          "name": "comptroller_",
          "type": "address"
        }
      ],
      "name": "setComptroller",
      "outputs": [],
      "stateMutability": "nonpayable",
      "type": "function"
    },
    {
      "inputs": [
        {
          "internalType": "uint256",
          "name": "feeIn_",
          "type": "uint256"
        }
      ],
      "name": "setFeeIn",
      "outputs": [],
      "stateMutability": "nonpayable",
      "type": "function"
    },
    {
      "inputs": [
        {
          "internalType": "uint256",
          "name": "feeOut_",
          "type": "uint256"
        }
      ],
      "name": "setFeeOut",
      "outputs": [],
      "stateMutability": "nonpayable",
      "type": "function"
    },
    {
      "inputs": [
        {
          "internalType": "uint256",
          "name": "vaiMintCap_",
          "type": "uint256"
        }
      ],
      "name": "setVaiMintCap",
      "outputs": [],
      "stateMutability": "nonpayable",
      "type": "function"
    },
    {
      "inputs": [
        {
          "internalType": "address",
          "name": "venusTreasury_",
          "type": "address"
        }
      ],
      "name": "setVenusTreasury",
      "outputs": [],
      "stateMutability": "nonpayable",
      "type": "function"
    },
    {
      "inputs": [
        {
          "internalType": "address",
          "name": "receiver",
          "type": "address"
        },
        {
          "internalType": "uint256",
          "name": "stableTknAmount",
          "type": "uint256"
        }
      ],
      "name": "swapStableForVAI",
      "outputs": [],
      "stateMutability": "nonpayable",
      "type": "function"
    },
    {
      "inputs": [
        {
          "internalType": "address",
          "name": "receiver",
          "type": "address"
        },
        {
          "internalType": "uint256",
          "name": "stableTknAmount",
          "type": "uint256"
        }
      ],
      "name": "swapVAIForStable",
      "outputs": [],
      "stateMutability": "nonpayable",
      "type": "function"
    },
    {
      "inputs": [
        {
          "internalType": "address",
          "name": "newOwner",
          "type": "address"
        }
      ],
      "name": "transferOwnership",
      "outputs": [],
      "stateMutability": "nonpayable",
      "type": "function"
    },
    {
      "inputs": [],
      "name": "vaiMintCap",
      "outputs": [
        {
          "internalType": "uint256",
          "name": "",
          "type": "uint256"
        }
      ],
      "stateMutability": "view",
      "type": "function"
    },
    {
      "inputs": [],
      "name": "vaiMinted",
      "outputs": [
        {
          "internalType": "uint256",
          "name": "",
          "type": "uint256"
        }
      ],
      "stateMutability": "view",
      "type": "function"
    },
    {
      "inputs": [],
      "name": "venusTreasury",
      "outputs": [
        {
          "internalType": "address",
          "name": "",
          "type": "address"
        }
      ],
      "stateMutability": "view",
      "type": "function"
    }
  ],
  "transactionHash": "0x0c0d681916965a130042f585f3ef1374e830653c976e79867c18a9ac698608b5",
  "args": [
    "0xb7526572FFE56AB9D7489838Bf2E18e3323b441A",
    "0x5fFbE5302BadED40941A403228E6AD03f93752d9"
  ],
  "numDeployments": 1,
  "solcInputHash": "70d128da5db4d0b45c404d3f3fe2c806",
  "bytecode": "0x6101006040523480156200001257600080fd5b5060405162002ee138038062002ee18339810160408190526200003591620002ec565b6200004082620001b5565b6200004b81620001b5565b6000826001600160a01b0316636f307dc36040518163ffffffff1660e01b8152600401602060405180830381865afa1580156200008c573d6000803e3d6000fd5b505050506040513d601f19601f82011682018060405250810190620000b2919062000324565b90506000816001600160a01b031663313ce5676040518163ffffffff1660e01b8152600401602060405180830381865afa158015620000f5573d6000803e3d6000fd5b505050506040513d601f19601f820116820180604052508101906200011b919062000349565b60ff16905060128111156200016b5760405162461bcd60e51b8152602060048201526011602482015270746f6f206d75636820646563696d616c7360781b60448201526064015b60405180910390fd5b6200017881602462000384565b6200018590600a6200049d565b6080526001600160a01b0380851660e05282811660c052831660a052620001ab62000210565b50505050620004ab565b6001600160a01b0381166200020d5760405162461bcd60e51b815260206004820152601660248201527f43616e2774206265207a65726f20616464726573732e00000000000000000000604482015260640162000162565b50565b600054610100900460ff16156200027a5760405162461bcd60e51b815260206004820152602760248201527f496e697469616c697a61626c653a20636f6e747261637420697320696e697469604482015266616c697a696e6760c81b606482015260840162000162565b60005460ff9081161015620002cd576000805460ff191660ff9081179091556040519081527f7f26b83ff96e1f2b6a682f133852f6798a09c465da95921460cefb38474024989060200160405180910390a15b565b80516001600160a01b0381168114620002e757600080fd5b919050565b600080604083850312156200030057600080fd5b6200030b83620002cf565b91506200031b60208401620002cf565b90509250929050565b6000602082840312156200033757600080fd5b6200034282620002cf565b9392505050565b6000602082840312156200035c57600080fd5b815160ff811681146200034257600080fd5b634e487b7160e01b600052601160045260246000fd5b6000828210156200039957620003996200036e565b500390565b600181815b80851115620003df578160001904821115620003c357620003c36200036e565b80851615620003d157918102915b93841c9390800290620003a3565b509250929050565b600082620003f85750600162000497565b81620004075750600062000497565b81600181146200042057600281146200042b576200044b565b600191505062000497565b60ff8411156200043f576200043f6200036e565b50506001821b62000497565b5060208310610133831016604e8410600b841016171562000470575081810a62000497565b6200047c83836200039e565b80600019048211156200049357620004936200036e565b0290505b92915050565b6000620003428383620003e7565b60805160a05160c05160e05161299a62000547600039600081816104660152611fa201526000818161036d015281816109ae015281816113e60152818161148201526114db0152600081816103e3015281816106a501528181610830015281816109230152818161164c01526116ff015260008181610269015281816120380152818161205f0152818161208f01526120b6015261299a6000f3fe608060405234801561001057600080fd5b50600436106101da5760003560e01c806379ba509711610104578063b4a0bdf3116100a2578063e30c397811610071578063e30c397814610421578063f23c0f401461043f578063f2fde38b1461044e578063f34d11191461046157600080fd5b8063b4a0bdf3146103c0578063bb644b03146103de578063d97c057d14610405578063dd0812681461040e57600080fd5b80638da5cb5b116100de5780638da5cb5b1461034a5780638ec2b23914610368578063a52f540c1461038f578063b187bd26146103a257600080fd5b806379ba5097146103275780638456cb591461032f5780638bad38dd1461033757600080fd5b806355725d411161017c5780636ebcd7ac1161014b5780636ebcd7ac146102f0578063715018a614610303578063728cdbca1461030b578063769a48d91461031e57600080fd5b806355725d4114610251578063572ca9e714610264578063586f99331461028b5780635fe3b567146102d057600080fd5b80630e32cb86116101b85780630e32cb8614610218578063126082cf1461022b57806340a1dd461461023457806342e8a9721461023e57600080fd5b8063046f7da2146101df5780630696819f146101e95780630d35d2ed14610205575b600080fd5b6101e7610488565b005b6101f260fe5481565b6040519081526020015b60405180910390f35b6101e7610213366004612623565b610574565b6101e761022636600461264f565b610a28565b6101f261271081565b6101f26101005481565b6101e761024c366004612673565b610a3c565b6101e761025f366004612673565b610b11565b6101f27f000000000000000000000000000000000000000000000000000000000000000081565b60fc546102ab9073ffffffffffffffffffffffffffffffffffffffff1681565b60405173ffffffffffffffffffffffffffffffffffffffff90911681526020016101fc565b60fb546102ab9073ffffffffffffffffffffffffffffffffffffffff1681565b6101e76102fe366004612673565b610bde565b6101e7610c5a565b6101e761031936600461268c565b610c6e565b6101f260fd5481565b6101e7610f8d565b6101e7611025565b6101e761034536600461264f565b611110565b60335473ffffffffffffffffffffffffffffffffffffffff166102ab565b6102ab7f000000000000000000000000000000000000000000000000000000000000000081565b6101e761039d36600461264f565b61121c565b610101546103b09060ff1681565b60405190151581526020016101fc565b60975473ffffffffffffffffffffffffffffffffffffffff166102ab565b6102ab7f000000000000000000000000000000000000000000000000000000000000000081565b6101f260ff5481565b6101e761041c366004612623565b6112da565b60655473ffffffffffffffffffffffffffffffffffffffff166102ab565b6101f2670de0b6b3a764000081565b6101e761045c36600461264f565b6117af565b6102ab7f000000000000000000000000000000000000000000000000000000000000000081565b6104c66040518060400160405280600881526020017f726573756d65282900000000000000000000000000000000000000000000000081525061185f565b6101015460ff1661051e5760405162461bcd60e51b815260206004820152601260248201527f50534d206973206e6f74207061757365642e000000000000000000000000000060448201526064015b60405180910390fd5b61010180547fffffffffffffffffffffffffffffffffffffffffffffffffffffffffffffff0016905560405133907f108589e68122bb4da8e5020c44387cab025243d0894392e275459641a90181a290600090a2565b6101015460ff16156105c85760405162461bcd60e51b815260206004820152601360248201527f436f6e7472616374206973207061757365642e000000000000000000000000006044820152606401610515565b6105d0611938565b6105d982611991565b6000811161064f5760405162461bcd60e51b815260206004820152602160248201527f416d6f756e74206d7573742062652067726561746572207468616e207a65726f60448201527f2e000000000000000000000000000000000000000000000000000000000000006064820152608401610515565b600061065c8260016119f4565b9050600061066b826001611a25565b90506106778183612720565b6040517f70a082310000000000000000000000000000000000000000000000000000000081523360048201527f000000000000000000000000000000000000000000000000000000000000000073ffffffffffffffffffffffffffffffffffffffff16906370a08231906024016020604051808303816000875af1158015610703573d6000803e3d6000fd5b505050506040513d601f19601f820116820180604052508101906107279190612738565b10156107755760405162461bcd60e51b815260206004820152600f60248201527f4e6f7420656e6f756768205641492e00000000000000000000000000000000006044820152606401610515565b816101005410156107c85760405162461bcd60e51b815260206004820181905260248201527f43616e2774206275726e206d6f726520564149207468616e206d696e7465642e6044820152606401610515565b6101008054839003905580156108ee5760fc546040517f23b872dd00000000000000000000000000000000000000000000000000000000815233600482015273ffffffffffffffffffffffffffffffffffffffff9182166024820152604481018390526000917f000000000000000000000000000000000000000000000000000000000000000016906323b872dd906064016020604051808303816000875af1158015610879573d6000803e3d6000fd5b505050506040513d601f19601f8201168201806040525081019061089d9190612751565b9050806108ec5760405162461bcd60e51b815260206004820152601860248201527f56414920666565207472616e73666572206661696c65642e00000000000000006044820152606401610515565b505b6040517f9dc29fac000000000000000000000000000000000000000000000000000000008152336004820152602481018390527f000000000000000000000000000000000000000000000000000000000000000073ffffffffffffffffffffffffffffffffffffffff1690639dc29fac90604401600060405180830381600087803b15801561097c57600080fd5b505af1158015610990573d6000803e3d6000fd5b506109d792505073ffffffffffffffffffffffffffffffffffffffff7f00000000000000000000000000000000000000000000000000000000000000001690508585611ada565b60408051838152602081018390529081018490527f193aebac4ee542588a7c4a31d025211f727993d5dcec18b4d6cd64518677c8d99060600160405180910390a15050610a24600160c955565b5050565b610a30611bba565b610a3981611c21565b50565b610a7a6040518060400160405280601281526020017f7365744665654f75742875696e7432353629000000000000000000000000000081525061185f565b6127108110610acb5760405162461bcd60e51b815260206004820152600c60248201527f496e76616c6964206665652e00000000000000000000000000000000000000006044820152606401610515565b60fe80549082905560408051828152602081018490527fdc61767cf6b8f2d5ec16cd975db6d3a79fc69dc428b04c93e8db271de5e43b9f91015b60405180910390a15050565b610b4f6040518060400160405280601181526020017f736574466565496e2875696e743235362900000000000000000000000000000081525061185f565b6127108110610ba05760405162461bcd60e51b815260206004820152600c60248201527f496e76616c6964206665652e00000000000000000000000000000000000000006044820152606401610515565b60fd80549082905560408051828152602081018490527fb76804f9786a4411a614b09a8211b2fd86f1f5b7a5e4410f35aa1578aac64e049101610b05565b610c1c6040518060400160405280601681526020017f7365745661694d696e744361702875696e74323536290000000000000000000081525061185f565b60ff80549082905560408051828152602081018490527f7c907ad6b82d09686cae9d7a7aeaca89d479b6f4bea645228455dc222d4ce4849101610b05565b610c62611bba565b610c6c6000611d29565b565b600054610100900460ff1615808015610c8e5750600054600160ff909116105b80610ca85750303b158015610ca8575060005460ff166001145b610d1a5760405162461bcd60e51b815260206004820152602e60248201527f496e697469616c697a61626c653a20636f6e747261637420697320616c72656160448201527f647920696e697469616c697a65640000000000000000000000000000000000006064820152608401610515565b600080547fffffffffffffffffffffffffffffffffffffffffffffffffffffffffffffff001660011790558015610d7857600080547fffffffffffffffffffffffffffffffffffffffffffffffffffffffffffff00ff166101001790555b610d8187611991565b610d8a86611991565b610d9385611991565b610e0a8573ffffffffffffffffffffffffffffffffffffffff16637dc0d1d06040518163ffffffff1660e01b8152600401602060405180830381865afa158015610de1573d6000803e3d6000fd5b505050506040513d601f19601f82011682018060405250810190610e059190612773565b611991565b610e1387611d5a565b610e1b611de8565b6127108410610e6c5760405162461bcd60e51b815260206004820152600f60248201527f496e76616c69642066656520696e2e00000000000000000000000000000000006044820152606401610515565b6127108310610ebd5760405162461bcd60e51b815260206004820152601060248201527f496e76616c696420666565206f75742e000000000000000000000000000000006044820152606401610515565b60fd84905560fe83905560ff82905560fc805473ffffffffffffffffffffffffffffffffffffffff8089167fffffffffffffffffffffffff00000000000000000000000000000000000000009283161790925560fb8054928816929091169190911790558015610f8457600080547fffffffffffffffffffffffffffffffffffffffffffffffffffffffffffff00ff169055604051600181527f7f26b83ff96e1f2b6a682f133852f6798a09c465da95921460cefb38474024989060200160405180910390a15b50505050505050565b606554339073ffffffffffffffffffffffffffffffffffffffff16811461101c5760405162461bcd60e51b815260206004820152602960248201527f4f776e61626c6532537465703a2063616c6c6572206973206e6f74207468652060448201527f6e6577206f776e657200000000000000000000000000000000000000000000006064820152608401610515565b610a3981611d29565b6110636040518060400160405280600781526020017f706175736528290000000000000000000000000000000000000000000000000081525061185f565b6101015460ff16156110b75760405162461bcd60e51b815260206004820152601660248201527f50534d20697320616c7265616479207061757365642e000000000000000000006044820152606401610515565b61010180547fffffffffffffffffffffffffffffffffffffffffffffffffffffffffffffff0016600117905560405133907fb7aabc84a8f1fe9971d4bfffb4bb336af2c63e547360dd116940dc70da8159e190600090a2565b61114e6040518060400160405280601781526020017f736574436f6d7074726f6c6c657228616464726573732900000000000000000081525061185f565b61115781611991565b6111a58173ffffffffffffffffffffffffffffffffffffffff16637dc0d1d06040518163ffffffff1660e01b8152600401602060405180830381865afa158015610de1573d6000803e3d6000fd5b60fb805473ffffffffffffffffffffffffffffffffffffffff8381167fffffffffffffffffffffffff0000000000000000000000000000000000000000831681179093556040519116919082907f14d85f53464bf93dea3f478c71487155c412ff19f1384aa9fc205fa7638a150d90600090a35050565b61125a6040518060400160405280601981526020017f73657456656e757354726561737572792861646472657373290000000000000081525061185f565b61126381611991565b60fc805473ffffffffffffffffffffffffffffffffffffffff8381167fffffffffffffffffffffffff0000000000000000000000000000000000000000831681179093556040519116919082907f35655f8f1a1f8b7ff254ff70c675c0a26ddcb3da6cb6decd491ecdee167e220b90600090a35050565b6101015460ff161561132e5760405162461bcd60e51b815260206004820152601360248201527f436f6e7472616374206973207061757365642e000000000000000000000000006044820152606401610515565b611336611938565b61133f82611991565b600081116113b55760405162461bcd60e51b815260206004820152602160248201527f416d6f756e74206d7573742062652067726561746572207468616e207a65726f60448201527f2e000000000000000000000000000000000000000000000000000000000000006064820152608401610515565b6040517f70a082310000000000000000000000000000000000000000000000000000000081523060048201526000907f000000000000000000000000000000000000000000000000000000000000000073ffffffffffffffffffffffffffffffffffffffff16906370a0823190602401602060405180830381865afa158015611442573d6000803e3d6000fd5b505050506040513d601f19601f820116820180604052508101906114669190612738565b90506114aa73ffffffffffffffffffffffffffffffffffffffff7f000000000000000000000000000000000000000000000000000000000000000016333085611e6d565b6040517f70a082310000000000000000000000000000000000000000000000000000000081523060048201526000907f000000000000000000000000000000000000000000000000000000000000000073ffffffffffffffffffffffffffffffffffffffff16906370a0823190602401602060405180830381865afa158015611537573d6000803e3d6000fd5b505050506040513d601f19601f8201168201806040525081019061155b9190612738565b905060006115698383612790565b905060006115788260006119f4565b90506000611587826000611a25565b905060006115958284612790565b905060ff5483610100546115a99190612720565b11156115f75760405162461bcd60e51b815260206004820152601560248201527f564149206d696e742063617020726561636865642e00000000000000000000006044820152606401610515565b6101008054840190556040517f40c10f1900000000000000000000000000000000000000000000000000000000815273ffffffffffffffffffffffffffffffffffffffff8981166004830152602482018390527f000000000000000000000000000000000000000000000000000000000000000016906340c10f1990604401600060405180830381600087803b15801561169057600080fd5b505af11580156116a4573d6000803e3d6000fd5b505050508160001461175e5760fc546040517f40c10f1900000000000000000000000000000000000000000000000000000000815273ffffffffffffffffffffffffffffffffffffffff9182166004820152602481018490527f0000000000000000000000000000000000000000000000000000000000000000909116906340c10f1990604401600060405180830381600087803b15801561174557600080fd5b505af1158015611759573d6000803e3d6000fd5b505050505b60408051858152602081018390529081018390527f018e5c6d7bd9e0cafe3512ff02488f4c0ce3524a684e1097aab74666bf4fd00f9060600160405180910390a1505050505050610a24600160c955565b6117b7611bba565b6065805473ffffffffffffffffffffffffffffffffffffffff83167fffffffffffffffffffffffff0000000000000000000000000000000000000000909116811790915561181a60335473ffffffffffffffffffffffffffffffffffffffff1690565b73ffffffffffffffffffffffffffffffffffffffff167f38d16b8cac22d99fc7c124b9cd0de2d3fa1faef420bfe791d8c362d765e2270060405160405180910390a350565b6097546040517f18c5e8ab00000000000000000000000000000000000000000000000000000000815260009173ffffffffffffffffffffffffffffffffffffffff16906318c5e8ab906118b8903390869060040161281d565b602060405180830381865afa1580156118d5573d6000803e3d6000fd5b505050506040513d601f19601f820116820180604052508101906118f99190612751565b905080610a24573330836040517f4a3fa2930000000000000000000000000000000000000000000000000000000081526004016105159392919061284c565b600260c9540361198a5760405162461bcd60e51b815260206004820152601f60248201527f5265656e7472616e637947756172643a207265656e7472616e742063616c6c006044820152606401610515565b600260c955565b73ffffffffffffffffffffffffffffffffffffffff8116610a395760405162461bcd60e51b815260206004820152601660248201527f43616e2774206265207a65726f20616464726573732e000000000000000000006044820152606401610515565b6000670de0b6b3a7640000611a0883611ed1565b611a12908561288e565b611a1c91906128cb565b90505b92915050565b60008080836001811115611a3b57611a3b612906565b03611a49575060fd54611a4e565b5060fe545b80600003611a60576000915050611a1f565b612710611a6d828661288e565b1015611abb5760405162461bcd60e51b815260206004820152601160248201527f416d6f756e7420746f6f20736d616c6c2e0000000000000000000000000000006044820152606401610515565b612710611ac8828661288e565b611ad291906128cb565b915050611a1f565b60405173ffffffffffffffffffffffffffffffffffffffff8316602482015260448101829052611bae9084907fa9059cbb00000000000000000000000000000000000000000000000000000000906064015b604080517fffffffffffffffffffffffffffffffffffffffffffffffffffffffffffffffe08184030181529190526020810180517bffffffffffffffffffffffffffffffffffffffffffffffffffffffff167fffffffff00000000000000000000000000000000000000000000000000000000909316929092179091526120da565b505050565b600160c955565b60335473ffffffffffffffffffffffffffffffffffffffff163314610c6c5760405162461bcd60e51b815260206004820181905260248201527f4f776e61626c653a2063616c6c6572206973206e6f7420746865206f776e65726044820152606401610515565b73ffffffffffffffffffffffffffffffffffffffff8116611caa5760405162461bcd60e51b815260206004820152602560248201527f696e76616c696420616365737320636f6e74726f6c206d616e6167657220616460448201527f64726573730000000000000000000000000000000000000000000000000000006064820152608401610515565b6097805473ffffffffffffffffffffffffffffffffffffffff8381167fffffffffffffffffffffffff000000000000000000000000000000000000000083168117909355604080519190921680825260208201939093527f66fd58e82f7b31a2a5c30e0888f3093efe4e111b00cd2b0c31fe014601293aa09101610b05565b606580547fffffffffffffffffffffffff0000000000000000000000000000000000000000169055610a39816121cc565b600054610100900460ff16611dd75760405162461bcd60e51b815260206004820152602b60248201527f496e697469616c697a61626c653a20636f6e7472616374206973206e6f74206960448201527f6e697469616c697a696e670000000000000000000000000000000000000000006064820152608401610515565b611ddf612243565b610a39816122c8565b600054610100900460ff16611e655760405162461bcd60e51b815260206004820152602b60248201527f496e697469616c697a61626c653a20636f6e7472616374206973206e6f74206960448201527f6e697469616c697a696e670000000000000000000000000000000000000000006064820152608401610515565b610c6c612345565b60405173ffffffffffffffffffffffffffffffffffffffff80851660248301528316604482015260648101829052611ecb9085907f23b872dd0000000000000000000000000000000000000000000000000000000090608401611b2c565b50505050565b60008060fb60009054906101000a900473ffffffffffffffffffffffffffffffffffffffff1673ffffffffffffffffffffffffffffffffffffffff16637dc0d1d06040518163ffffffff1660e01b8152600401602060405180830381865afa158015611f41573d6000803e3d6000fd5b505050506040513d601f19601f82011682018060405250810190611f659190612773565b6040517ffc57d4df00000000000000000000000000000000000000000000000000000000815273ffffffffffffffffffffffffffffffffffffffff7f00000000000000000000000000000000000000000000000000000000000000008116600483015291925060009183169063fc57d4df90602401602060405180830381865afa158015611ff7573d6000803e3d6000fd5b505050506040513d601f19601f8201168201806040525081019061201b9190612738565b9050600084600181111561203157612031612906565b0361208d577f00000000000000000000000000000000000000000000000000000000000000008110612083577f0000000000000000000000000000000000000000000000000000000000000000612085565b805b949350505050565b7f00000000000000000000000000000000000000000000000000000000000000008111612083577f0000000000000000000000000000000000000000000000000000000000000000612085565b600061213c826040518060400160405280602081526020017f5361666545524332303a206c6f772d6c6576656c2063616c6c206661696c65648152508573ffffffffffffffffffffffffffffffffffffffff166123c29092919063ffffffff16565b805190915015611bae578080602001905181019061215a9190612751565b611bae5760405162461bcd60e51b815260206004820152602a60248201527f5361666545524332303a204552433230206f7065726174696f6e20646964206e60448201527f6f742073756363656564000000000000000000000000000000000000000000006064820152608401610515565b6033805473ffffffffffffffffffffffffffffffffffffffff8381167fffffffffffffffffffffffff0000000000000000000000000000000000000000831681179093556040519116919082907f8be0079c531659141344cd1fd0a4f28419497f9722a3daafe3b4186f6b6457e090600090a35050565b600054610100900460ff166122c05760405162461bcd60e51b815260206004820152602b60248201527f496e697469616c697a61626c653a20636f6e7472616374206973206e6f74206960448201527f6e697469616c697a696e670000000000000000000000000000000000000000006064820152608401610515565b610c6c6123d1565b600054610100900460ff16610a305760405162461bcd60e51b815260206004820152602b60248201527f496e697469616c697a61626c653a20636f6e7472616374206973206e6f74206960448201527f6e697469616c697a696e670000000000000000000000000000000000000000006064820152608401610515565b600054610100900460ff16611bb35760405162461bcd60e51b815260206004820152602b60248201527f496e697469616c697a61626c653a20636f6e7472616374206973206e6f74206960448201527f6e697469616c697a696e670000000000000000000000000000000000000000006064820152608401610515565b60606120858484600085612457565b600054610100900460ff1661244e5760405162461bcd60e51b815260206004820152602b60248201527f496e697469616c697a61626c653a20636f6e7472616374206973206e6f74206960448201527f6e697469616c697a696e670000000000000000000000000000000000000000006064820152608401610515565b610c6c33611d29565b6060824710156124cf5760405162461bcd60e51b815260206004820152602660248201527f416464726573733a20696e73756666696369656e742062616c616e636520666f60448201527f722063616c6c00000000000000000000000000000000000000000000000000006064820152608401610515565b6000808673ffffffffffffffffffffffffffffffffffffffff1685876040516124f89190612935565b60006040518083038185875af1925050503d8060008114612535576040519150601f19603f3d011682016040523d82523d6000602084013e61253a565b606091505b509150915061254b87838387612556565b979650505050505050565b606083156125d25782516000036125cb5773ffffffffffffffffffffffffffffffffffffffff85163b6125cb5760405162461bcd60e51b815260206004820152601d60248201527f416464726573733a2063616c6c20746f206e6f6e2d636f6e74726163740000006044820152606401610515565b5081612085565b61208583838151156125e75781518083602001fd5b8060405162461bcd60e51b81526004016105159190612951565b73ffffffffffffffffffffffffffffffffffffffff81168114610a3957600080fd5b6000806040838503121561263657600080fd5b823561264181612601565b946020939093013593505050565b60006020828403121561266157600080fd5b813561266c81612601565b9392505050565b60006020828403121561268557600080fd5b5035919050565b60008060008060008060c087890312156126a557600080fd5b86356126b081612601565b955060208701356126c081612601565b945060408701356126d081612601565b959894975094956060810135955060808101359460a0909101359350915050565b7f4e487b7100000000000000000000000000000000000000000000000000000000600052601160045260246000fd5b60008219821115612733576127336126f1565b500190565b60006020828403121561274a57600080fd5b5051919050565b60006020828403121561276357600080fd5b8151801515811461266c57600080fd5b60006020828403121561278557600080fd5b815161266c81612601565b6000828210156127a2576127a26126f1565b500390565b60005b838110156127c25781810151838201526020016127aa565b83811115611ecb5750506000910152565b600081518084526127eb8160208601602086016127a7565b601f017fffffffffffffffffffffffffffffffffffffffffffffffffffffffffffffffe0169290920160200192915050565b73ffffffffffffffffffffffffffffffffffffffff8316815260406020820152600061208560408301846127d3565b600073ffffffffffffffffffffffffffffffffffffffff80861683528085166020840152506060604083015261288560608301846127d3565b95945050505050565b6000817fffffffffffffffffffffffffffffffffffffffffffffffffffffffffffffffff04831182151516156128c6576128c66126f1565b500290565b600082612901577f4e487b7100000000000000000000000000000000000000000000000000000000600052601260045260246000fd5b500490565b7f4e487b7100000000000000000000000000000000000000000000000000000000600052602160045260246000fd5b600082516129478184602087016127a7565b9190910192915050565b602081526000611a1c60208301846127d356fea2646970667358221220d5f0902ed9871f12679ff96b47767ac91cf55f1d2c1a746c5fdcc05b4856f88664736f6c634300080d0033",
  "devdoc": {
    "author": "Venus Protocol",
    "kind": "dev",
    "methods": {
      "acceptOwnership()": {
        "details": "The new owner accepts the ownership transfer."
      },
      "constructor": {
        "custom:oz-upgrades-unsafe-allow": "constructor"
      },
      "initialize(address,address,address,uint256,uint256,uint256)": {
        "params": {
          "accessControlManager_": "The address of the AccessControlManager contract",
          "comptroller_": "The address of the Comptroller contract",
          "feeIn_": "The percentage of fees to be applied to a stablecoin -> VAI swap",
          "feeOut_": "The percentage of fees to be applied to a VAI -> stablecoin swap",
          "vaiMintCap_": "The cap for the total amount of VAI that can be minted",
          "venusTreasury_": "The address where fees will be sent"
        }
      },
      "owner()": {
        "details": "Returns the address of the current owner."
      },
      "pause()": {
        "details": "Reverts if the contract is already paused"
      },
      "pendingOwner()": {
        "details": "Returns the address of the pending owner."
      },
      "renounceOwnership()": {
        "details": "Leaves the contract without owner. It will not be possible to call `onlyOwner` functions anymore. Can only be called by the current owner. NOTE: Renouncing ownership will leave the contract without an owner, thereby removing any functionality that is only available to the owner."
      },
      "resume()": {
        "details": "Reverts if the contract is not paused"
      },
      "setAccessControlManager(address)": {
        "custom:access": "Only Governance",
        "custom:event": "Emits NewAccessControlManager event",
        "details": "Admin function to set address of AccessControlManager",
        "params": {
          "accessControlManager_": "The new address of the AccessControlManager"
        }
      },
      "setComptroller(address)": {
        "details": "Reverts if the new address is zero or the oracle address returned from Comptroller is zero",
        "params": {
          "comptroller_": "The new address of the Comptroller contract"
        }
      },
      "setFeeIn(uint256)": {
        "details": "Reverts if the new fee percentage is invalid (greater than or equal to BASIS_POINTS_DIVISOR)",
        "params": {
          "feeIn_": "The new fee percentage for incoming swaps"
        }
      },
      "setFeeOut(uint256)": {
        "details": "Reverts if the new fee percentage is invalid (greater than or equal to BASIS_POINTS_DIVISOR)",
        "params": {
          "feeOut_": "The new fee percentage for outgoing swaps"
        }
      },
      "setVaiMintCap(uint256)": {
        "details": "Set the maximum amount of VAI that can be minted through this contract",
        "params": {
          "vaiMintCap_": "The new maximum amount of VAI that can be minted"
        }
      },
      "setVenusTreasury(address)": {
        "details": "Reverts if the new address is zero",
        "params": {
          "venusTreasury_": "The new address of the Venus Treasury contract"
        }
      },
      "swapStableForVAI(address,uint256)": {
        "details": "This function adds support to fee-on-transfer tokens. The actualTransferAmt is calculated, by recording token balance state before and after the transfer.",
        "params": {
          "receiver": "The address that will receive the VAI tokens.",
          "stableTknAmount": "The amount of stable tokens to be swapped."
        }
      },
      "swapVAIForStable(address,uint256)": {
        "params": {
          "receiver": "The address where the stablecoin will be sent",
          "stableTknAmount": "The amount of stable tokens to receive"
        }
      },
      "transferOwnership(address)": {
        "details": "Starts the ownership transfer of the contract to a new account. Replaces the pending transfer if there is one. Can only be called by the current owner."
      }
    },
    "title": "Peg Stability Contract",
    "version": 1
  },
  "userdoc": {
    "errors": {
      "Unauthorized(address,address,string)": [
        {
          "notice": "Thrown when the action is prohibited by AccessControlManager"
        }
      ]
    },
    "events": {
      "ComptrollerChanged(address,address)": {
        "notice": "Event emitted when comptroller  state var is modified"
      },
      "FeeInChanged(uint256,uint256)": {
        "notice": "Event emitted when feeIn state var is modified"
      },
      "FeeOutChanged(uint256,uint256)": {
        "notice": "Event emitted when feeOut state var is modified"
      },
      "NewAccessControlManager(address,address)": {
        "notice": "Emitted when access control manager contract address is changed"
      },
      "PSMPaused(address)": {
        "notice": "Event emitted when contract is paused"
      },
      "PSMResumed(address)": {
        "notice": "Event emitted when the contract is resumed after pause"
      },
      "StableForVAISwapped(uint256,uint256,uint256)": {
        "notice": "Event emitted when stable token is swapped for VAI"
      },
      "VaiForStableSwapped(uint256,uint256,uint256)": {
        "notice": "Event emitted when stable token is swapped for VAI"
      },
      "VaiMintCapChanged(uint256,uint256)": {
        "notice": "Event emitted when vaiMintCap state var is modified"
      },
      "VenusTreasuryChanged(address,address)": {
        "notice": "Event emitted when venusTreasury state var is modified"
      }
    },
    "kind": "user",
    "methods": {
      "accessControlManager()": {
        "notice": "Returns the address of the access control manager contract"
      },
      "initialize(address,address,address,uint256,uint256,uint256)": {
        "notice": "Initializes the contract via Proxy Contract with the required parameters"
      },
      "pause()": {
        "notice": "Pause the PSM contract"
      },
      "resume()": {
        "notice": "Resume the PSM contract"
      },
      "setAccessControlManager(address)": {
        "notice": "Sets the address of AccessControlManager"
      },
      "setComptroller(address)": {
        "notice": "Set the address of the Comptroller contract from which we obtain the oracle address"
      },
      "setFeeIn(uint256)": {
        "notice": "Set the fee percentage for incoming swaps"
      },
      "setFeeOut(uint256)": {
        "notice": "Set the fee percentage for outgoing swaps"
      },
      "setVenusTreasury(address)": {
        "notice": "Set the address of the Venus Treasury contract"
      },
      "swapStableForVAI(address,uint256)": {
        "notice": "Swaps stable tokens for VAI with fees."
      },
      "swapVAIForStable(address,uint256)": {
        "notice": "Swaps VAI for a stable token"
      }
    },
    "notice": "Contract for swapping stable token for VAI token and vice versa to maintain the peg stability between them.",
    "version": 1
  },
  "storageLayout": {
    "storage": [
      {
        "astId": 244,
        "contract": "contracts/PegStability/PegStability.sol:PegStability",
        "label": "_initialized",
        "offset": 0,
        "slot": "0",
        "type": "t_uint8"
      },
      {
        "astId": 247,
        "contract": "contracts/PegStability/PegStability.sol:PegStability",
        "label": "_initializing",
        "offset": 1,
        "slot": "0",
        "type": "t_bool"
      },
      {
        "astId": 1199,
        "contract": "contracts/PegStability/PegStability.sol:PegStability",
        "label": "__gap",
        "offset": 0,
        "slot": "1",
        "type": "t_array(t_uint256)50_storage"
      },
      {
        "astId": 116,
        "contract": "contracts/PegStability/PegStability.sol:PegStability",
        "label": "_owner",
        "offset": 0,
        "slot": "51",
        "type": "t_address"
      },
      {
        "astId": 236,
        "contract": "contracts/PegStability/PegStability.sol:PegStability",
        "label": "__gap",
        "offset": 0,
        "slot": "52",
        "type": "t_array(t_uint256)49_storage"
      },
      {
        "astId": 25,
        "contract": "contracts/PegStability/PegStability.sol:PegStability",
        "label": "_pendingOwner",
        "offset": 0,
        "slot": "101",
        "type": "t_address"
      },
      {
        "astId": 104,
        "contract": "contracts/PegStability/PegStability.sol:PegStability",
        "label": "__gap",
        "offset": 0,
        "slot": "102",
        "type": "t_array(t_uint256)49_storage"
      },
      {
        "astId": 1287,
        "contract": "contracts/PegStability/PegStability.sol:PegStability",
        "label": "_accessControlManager",
        "offset": 0,
        "slot": "151",
        "type": "t_contract(IAccessControlManagerV8)1471"
      },
      {
        "astId": 1292,
        "contract": "contracts/PegStability/PegStability.sol:PegStability",
        "label": "__gap",
        "offset": 0,
        "slot": "152",
        "type": "t_array(t_uint256)49_storage"
      },
      {
        "astId": 420,
        "contract": "contracts/PegStability/PegStability.sol:PegStability",
        "label": "_status",
        "offset": 0,
        "slot": "201",
        "type": "t_uint256"
      },
      {
        "astId": 478,
        "contract": "contracts/PegStability/PegStability.sol:PegStability",
        "label": "__gap",
        "offset": 0,
        "slot": "202",
        "type": "t_array(t_uint256)49_storage"
      },
      {
        "astId": 1564,
        "contract": "contracts/PegStability/PegStability.sol:PegStability",
        "label": "comptroller",
        "offset": 0,
        "slot": "251",
        "type": "t_address"
      },
      {
        "astId": 1566,
        "contract": "contracts/PegStability/PegStability.sol:PegStability",
        "label": "venusTreasury",
        "offset": 0,
        "slot": "252",
        "type": "t_address"
      },
      {
        "astId": 1568,
        "contract": "contracts/PegStability/PegStability.sol:PegStability",
        "label": "feeIn",
        "offset": 0,
        "slot": "253",
        "type": "t_uint256"
      },
      {
        "astId": 1570,
        "contract": "contracts/PegStability/PegStability.sol:PegStability",
        "label": "feeOut",
        "offset": 0,
        "slot": "254",
        "type": "t_uint256"
      },
      {
        "astId": 1572,
        "contract": "contracts/PegStability/PegStability.sol:PegStability",
        "label": "vaiMintCap",
        "offset": 0,
        "slot": "255",
        "type": "t_uint256"
      },
      {
        "astId": 1574,
        "contract": "contracts/PegStability/PegStability.sol:PegStability",
        "label": "vaiMinted",
        "offset": 0,
        "slot": "256",
        "type": "t_uint256"
      },
      {
        "astId": 1576,
        "contract": "contracts/PegStability/PegStability.sol:PegStability",
        "label": "isPaused",
        "offset": 0,
        "slot": "257",
        "type": "t_bool"
      }
    ],
    "types": {
      "t_address": {
        "encoding": "inplace",
        "label": "address",
        "numberOfBytes": "20"
      },
      "t_array(t_uint256)49_storage": {
        "base": "t_uint256",
        "encoding": "inplace",
        "label": "uint256[49]",
        "numberOfBytes": "1568"
      },
      "t_array(t_uint256)50_storage": {
        "base": "t_uint256",
        "encoding": "inplace",
        "label": "uint256[50]",
        "numberOfBytes": "1600"
      },
      "t_bool": {
        "encoding": "inplace",
        "label": "bool",
        "numberOfBytes": "1"
      },
      "t_contract(IAccessControlManagerV8)1471": {
        "encoding": "inplace",
        "label": "contract IAccessControlManagerV8",
        "numberOfBytes": "20"
      },
      "t_uint256": {
        "encoding": "inplace",
        "label": "uint256",
        "numberOfBytes": "32"
      },
      "t_uint8": {
        "encoding": "inplace",
        "label": "uint8",
        "numberOfBytes": "1"
      }
    }
  }
}