{
  "address": "0x1b9E17a9E6f0239DeD067bFCA916c5628972083B",
  "abi": [
    {
      "inputs": [],
      "name": "AlreadyInSelectedPool",
      "type": "error"
    },
    {
      "inputs": [],
      "name": "ArrayLengthMismatch",
      "type": "error"
    },
    {
      "inputs": [],
      "name": "BorrowNotAllowedInPool",
      "type": "error"
    },
    {
      "inputs": [],
      "name": "CorePoolModificationNotAllowed",
      "type": "error"
    },
    {
      "inputs": [],
      "name": "EmptyPoolLabel",
      "type": "error"
    },
    {
      "inputs": [],
      "name": "IncompatibleBorrowedAssets",
      "type": "error"
    },
    {
      "inputs": [
        {
          "internalType": "enum WeightFunction",
          "name": "strategy",
          "type": "uint8"
        }
      ],
      "name": "InvalidWeightingStrategy",
      "type": "error"
    },
    {
      "inputs": [
        {
          "internalType": "uint256",
          "name": "errorCode",
          "type": "uint256"
        },
        {
          "internalType": "uint256",
          "name": "shortfall",
          "type": "uint256"
        }
      ],
      "name": "LiquidityCheckFailed",
      "type": "error"
    },
    {
      "inputs": [
        {
          "internalType": "uint96",
          "name": "poolId",
          "type": "uint96"
        },
        {
          "internalType": "address",
          "name": "vToken",
          "type": "address"
        }
      ],
      "name": "MarketAlreadyListed",
      "type": "error"
    },
    {
      "inputs": [],
      "name": "MarketConfigNotFound",
      "type": "error"
    },
    {
      "inputs": [],
      "name": "MarketNotListedInCorePool",
      "type": "error"
    },
    {
      "inputs": [
        {
          "internalType": "uint96",
          "name": "poolId",
          "type": "uint96"
        }
      ],
      "name": "PoolDoesNotExist",
      "type": "error"
    },
    {
      "inputs": [
        {
          "internalType": "uint96",
          "name": "poolId",
          "type": "uint96"
        },
        {
          "internalType": "address",
          "name": "vToken",
          "type": "address"
        }
      ],
      "name": "PoolMarketNotFound",
      "type": "error"
    },
    {
      "anonymous": false,
      "inputs": [
        {
          "indexed": true,
          "internalType": "contract VToken",
          "name": "vToken",
          "type": "address"
        },
        {
          "indexed": true,
          "internalType": "address",
          "name": "borrower",
          "type": "address"
        },
        {
          "indexed": false,
          "internalType": "uint256",
          "name": "venusDelta",
          "type": "uint256"
        },
        {
          "indexed": false,
          "internalType": "uint256",
          "name": "venusBorrowIndex",
          "type": "uint256"
        }
      ],
      "name": "DistributedBorrowerVenus",
      "type": "event"
    },
    {
      "anonymous": false,
      "inputs": [
        {
          "indexed": true,
          "internalType": "contract VToken",
          "name": "vToken",
          "type": "address"
        },
        {
          "indexed": true,
          "internalType": "address",
          "name": "supplier",
          "type": "address"
        },
        {
          "indexed": false,
          "internalType": "uint256",
          "name": "venusDelta",
          "type": "uint256"
        },
        {
          "indexed": false,
          "internalType": "uint256",
          "name": "venusSupplyIndex",
          "type": "uint256"
        }
      ],
      "name": "DistributedSupplierVenus",
      "type": "event"
    },
    {
      "anonymous": false,
      "inputs": [
        {
          "indexed": false,
          "internalType": "uint256",
          "name": "amount",
          "type": "uint256"
        }
      ],
      "name": "DistributedVAIVaultVenus",
      "type": "event"
    },
    {
      "anonymous": false,
      "inputs": [
        {
          "indexed": false,
          "internalType": "uint256",
          "name": "error",
          "type": "uint256"
        },
        {
          "indexed": false,
          "internalType": "uint256",
          "name": "info",
          "type": "uint256"
        },
        {
          "indexed": false,
          "internalType": "uint256",
          "name": "detail",
          "type": "uint256"
        }
      ],
      "name": "Failure",
      "type": "event"
    },
    {
      "anonymous": false,
      "inputs": [
        {
          "indexed": false,
          "internalType": "address",
          "name": "receiver",
          "type": "address"
        },
        {
          "indexed": false,
          "internalType": "contract VToken[]",
          "name": "assets",
          "type": "address[]"
        },
        {
          "indexed": false,
          "internalType": "uint256[]",
          "name": "amounts",
          "type": "uint256[]"
        }
      ],
      "name": "FlashLoanExecuted",
      "type": "event"
    },
    {
      "anonymous": false,
      "inputs": [
        {
          "indexed": true,
          "internalType": "contract VToken",
          "name": "vToken",
          "type": "address"
        },
        {
          "indexed": true,
          "internalType": "address",
          "name": "account",
          "type": "address"
        }
      ],
      "name": "MarketEntered",
      "type": "event"
    },
    {
      "anonymous": false,
      "inputs": [
        {
          "indexed": true,
          "internalType": "contract VToken",
          "name": "vToken",
          "type": "address"
        },
        {
          "indexed": false,
          "internalType": "uint256",
          "name": "newSpeed",
          "type": "uint256"
        }
      ],
      "name": "VenusBorrowSpeedUpdated",
      "type": "event"
    },
    {
      "anonymous": false,
      "inputs": [
        {
          "indexed": true,
          "internalType": "contract VToken",
          "name": "vToken",
          "type": "address"
        },
        {
          "indexed": false,
          "internalType": "uint256",
          "name": "newSpeed",
          "type": "uint256"
        }
      ],
      "name": "VenusSupplySpeedUpdated",
      "type": "event"
    },
    {
      "inputs": [
        {
          "internalType": "contract VToken[]",
          "name": "vTokens",
          "type": "address[]"
        },
        {
          "internalType": "uint256[]",
          "name": "supplySpeeds",
          "type": "uint256[]"
        },
        {
          "internalType": "uint256[]",
          "name": "borrowSpeeds",
          "type": "uint256[]"
        }
      ],
      "name": "_setVenusSpeeds",
      "outputs": [],
      "stateMutability": "nonpayable",
      "type": "function"
    },
    {
      "inputs": [
        {
          "internalType": "address",
          "name": "",
          "type": "address"
        },
        {
          "internalType": "uint256",
          "name": "",
          "type": "uint256"
        }
      ],
      "name": "accountAssets",
      "outputs": [
        {
          "internalType": "contract VToken",
          "name": "",
          "type": "address"
        }
      ],
      "stateMutability": "view",
      "type": "function"
    },
    {
      "inputs": [
        {
          "internalType": "address",
          "name": "market",
          "type": "address"
        },
        {
          "internalType": "enum Action",
          "name": "action",
          "type": "uint8"
        }
      ],
      "name": "actionPaused",
      "outputs": [
        {
          "internalType": "bool",
          "name": "",
          "type": "bool"
        }
      ],
      "stateMutability": "view",
      "type": "function"
    },
    {
      "inputs": [],
      "name": "admin",
      "outputs": [
        {
          "internalType": "address",
          "name": "",
          "type": "address"
        }
      ],
      "stateMutability": "view",
      "type": "function"
    },
    {
      "inputs": [
        {
          "internalType": "uint256",
          "name": "",
          "type": "uint256"
        }
      ],
      "name": "allMarkets",
      "outputs": [
        {
          "internalType": "contract VToken",
          "name": "",
          "type": "address"
        }
      ],
      "stateMutability": "view",
      "type": "function"
    },
    {
      "inputs": [
        {
          "internalType": "address",
          "name": "",
          "type": "address"
        },
        {
          "internalType": "address",
          "name": "",
          "type": "address"
        }
      ],
      "name": "approvedDelegates",
      "outputs": [
        {
          "internalType": "bool",
          "name": "",
          "type": "bool"
        }
      ],
      "stateMutability": "view",
      "type": "function"
    },
    {
      "inputs": [
        {
          "internalType": "address",
          "name": "",
          "type": "address"
        }
      ],
      "name": "authorizedFlashLoan",
      "outputs": [
        {
          "internalType": "bool",
          "name": "",
          "type": "bool"
        }
      ],
      "stateMutability": "view",
      "type": "function"
    },
    {
      "inputs": [
        {
          "internalType": "address",
          "name": "vToken",
          "type": "address"
        },
        {
          "internalType": "address",
          "name": "borrower",
          "type": "address"
        },
        {
          "internalType": "uint256",
          "name": "borrowAmount",
          "type": "uint256"
        }
      ],
      "name": "borrowAllowed",
      "outputs": [
        {
          "internalType": "uint256",
          "name": "",
          "type": "uint256"
        }
      ],
      "stateMutability": "nonpayable",
      "type": "function"
    },
    {
      "inputs": [],
      "name": "borrowCapGuardian",
      "outputs": [
        {
          "internalType": "address",
          "name": "",
          "type": "address"
        }
      ],
      "stateMutability": "view",
      "type": "function"
    },
    {
      "inputs": [
        {
          "internalType": "address",
          "name": "",
          "type": "address"
        }
      ],
      "name": "borrowCaps",
      "outputs": [
        {
          "internalType": "uint256",
          "name": "",
          "type": "uint256"
        }
      ],
      "stateMutability": "view",
      "type": "function"
    },
    {
      "inputs": [
        {
          "internalType": "address",
          "name": "vToken",
          "type": "address"
        },
        {
          "internalType": "address",
          "name": "borrower",
          "type": "address"
        },
        {
          "internalType": "uint256",
          "name": "borrowAmount",
          "type": "uint256"
        }
      ],
      "name": "borrowVerify",
      "outputs": [],
      "stateMutability": "nonpayable",
      "type": "function"
    },
    {
      "inputs": [],
      "name": "closeFactorMantissa",
      "outputs": [
        {
          "internalType": "uint256",
          "name": "",
          "type": "uint256"
        }
      ],
      "stateMutability": "view",
      "type": "function"
    },
    {
      "inputs": [],
      "name": "comptrollerImplementation",
      "outputs": [
        {
          "internalType": "address",
          "name": "",
          "type": "address"
        }
      ],
      "stateMutability": "view",
      "type": "function"
    },
    {
      "inputs": [],
      "name": "comptrollerLens",
      "outputs": [
        {
          "internalType": "contract ComptrollerLensInterface",
          "name": "",
          "type": "address"
        }
      ],
      "stateMutability": "view",
      "type": "function"
    },
    {
      "inputs": [],
      "name": "corePoolId",
      "outputs": [
        {
          "internalType": "uint96",
          "name": "",
          "type": "uint96"
        }
      ],
      "stateMutability": "view",
      "type": "function"
    },
    {
      "inputs": [
        {
          "internalType": "address",
          "name": "",
          "type": "address"
        },
        {
          "internalType": "address",
          "name": "",
          "type": "address"
        },
        {
          "internalType": "address",
          "name": "",
          "type": "address"
        }
      ],
      "name": "delegateAuthorizationFlashloan",
      "outputs": [
        {
          "internalType": "bool",
          "name": "",
          "type": "bool"
        }
      ],
      "stateMutability": "view",
      "type": "function"
    },
    {
      "inputs": [
        {
          "internalType": "address payable",
          "name": "initiator",
          "type": "address"
        },
        {
          "internalType": "address payable",
          "name": "receiver",
          "type": "address"
        },
        {
          "internalType": "contract VToken[]",
          "name": "vTokens",
          "type": "address[]"
        },
        {
          "internalType": "uint256[]",
          "name": "underlyingAmounts",
          "type": "uint256[]"
        },
        {
          "internalType": "uint256[]",
          "name": "modes",
          "type": "uint256[]"
        },
        {
          "internalType": "address",
          "name": "onBehalfOf",
          "type": "address"
        },
        {
          "internalType": "bytes",
          "name": "param",
          "type": "bytes"
        }
      ],
      "name": "executeFlashLoan",
      "outputs": [],
      "stateMutability": "nonpayable",
      "type": "function"
    },
    {
      "inputs": [
        {
          "internalType": "address",
          "name": "account",
          "type": "address"
        }
      ],
      "name": "getAccountLiquidity",
      "outputs": [
        {
          "internalType": "uint256",
          "name": "",
          "type": "uint256"
        },
        {
          "internalType": "uint256",
          "name": "",
          "type": "uint256"
        },
        {
          "internalType": "uint256",
          "name": "",
          "type": "uint256"
        }
      ],
      "stateMutability": "view",
      "type": "function"
    },
    {
      "inputs": [
        {
          "internalType": "address",
          "name": "account",
          "type": "address"
        }
      ],
      "name": "getBorrowingPower",
      "outputs": [
        {
          "internalType": "uint256",
          "name": "",
          "type": "uint256"
        },
        {
          "internalType": "uint256",
          "name": "",
          "type": "uint256"
        },
        {
          "internalType": "uint256",
          "name": "",
          "type": "uint256"
        }
      ],
      "stateMutability": "view",
      "type": "function"
    },
    {
      "inputs": [
        {
          "internalType": "address",
          "name": "account",
          "type": "address"
        },
        {
          "internalType": "address",
          "name": "vTokenModify",
          "type": "address"
        },
        {
          "internalType": "uint256",
          "name": "redeemTokens",
          "type": "uint256"
        },
        {
          "internalType": "uint256",
          "name": "borrowAmount",
          "type": "uint256"
        }
      ],
      "name": "getHypotheticalAccountLiquidity",
      "outputs": [
        {
          "internalType": "uint256",
          "name": "",
          "type": "uint256"
        },
        {
          "internalType": "uint256",
          "name": "",
          "type": "uint256"
        },
        {
          "internalType": "uint256",
          "name": "",
          "type": "uint256"
        }
      ],
      "stateMutability": "view",
      "type": "function"
    },
    {
      "inputs": [
        {
          "internalType": "uint96",
          "name": "poolId",
          "type": "uint96"
        },
        {
          "internalType": "address",
          "name": "vToken",
          "type": "address"
        }
      ],
      "name": "getPoolMarketIndex",
      "outputs": [
        {
          "internalType": "PoolMarketId",
          "name": "",
          "type": "bytes32"
        }
      ],
      "stateMutability": "pure",
      "type": "function"
    },
    {
      "inputs": [],
      "name": "getXVSAddress",
      "outputs": [
        {
          "internalType": "address",
          "name": "",
          "type": "address"
        }
      ],
      "stateMutability": "view",
      "type": "function"
    },
    {
      "inputs": [
        {
          "internalType": "address",
          "name": "",
          "type": "address"
        }
      ],
      "name": "isForcedLiquidationEnabled",
      "outputs": [
        {
          "internalType": "bool",
          "name": "",
          "type": "bool"
        }
      ],
      "stateMutability": "view",
      "type": "function"
    },
    {
      "inputs": [
        {
          "internalType": "address",
          "name": "user",
          "type": "address"
        },
        {
          "internalType": "address",
          "name": "market",
          "type": "address"
        }
      ],
      "name": "isForcedLiquidationEnabledForUser",
      "outputs": [
        {
          "internalType": "bool",
          "name": "",
          "type": "bool"
        }
      ],
      "stateMutability": "view",
      "type": "function"
    },
    {
      "inputs": [],
      "name": "lastPoolId",
      "outputs": [
        {
          "internalType": "uint96",
          "name": "",
          "type": "uint96"
        }
      ],
      "stateMutability": "view",
      "type": "function"
    },
    {
      "inputs": [
        {
          "internalType": "address",
          "name": "vTokenBorrowed",
          "type": "address"
        },
        {
          "internalType": "address",
          "name": "vTokenCollateral",
          "type": "address"
        },
        {
          "internalType": "address",
          "name": "liquidator",
          "type": "address"
        },
        {
          "internalType": "address",
          "name": "borrower",
          "type": "address"
        },
        {
          "internalType": "uint256",
          "name": "repayAmount",
          "type": "uint256"
        }
      ],
      "name": "liquidateBorrowAllowed",
      "outputs": [
        {
          "internalType": "uint256",
          "name": "",
          "type": "uint256"
        }
      ],
      "stateMutability": "view",
      "type": "function"
    },
    {
      "inputs": [
        {
          "internalType": "address",
          "name": "vTokenBorrowed",
          "type": "address"
        },
        {
          "internalType": "address",
          "name": "vTokenCollateral",
          "type": "address"
        },
        {
          "internalType": "address",
          "name": "liquidator",
          "type": "address"
        },
        {
          "internalType": "address",
          "name": "borrower",
          "type": "address"
        },
        {
          "internalType": "uint256",
          "name": "actualRepayAmount",
          "type": "uint256"
        },
        {
          "internalType": "uint256",
          "name": "seizeTokens",
          "type": "uint256"
        }
      ],
      "name": "liquidateBorrowVerify",
      "outputs": [],
      "stateMutability": "nonpayable",
      "type": "function"
    },
    {
      "inputs": [],
      "name": "liquidatorContract",
      "outputs": [
        {
          "internalType": "address",
          "name": "",
          "type": "address"
        }
      ],
      "stateMutability": "view",
      "type": "function"
    },
    {
      "inputs": [],
      "name": "maxAssets",
      "outputs": [
        {
          "internalType": "uint256",
          "name": "",
          "type": "uint256"
        }
      ],
      "stateMutability": "view",
      "type": "function"
    },
    {
      "inputs": [],
      "name": "minReleaseAmount",
      "outputs": [
        {
          "internalType": "uint256",
          "name": "",
          "type": "uint256"
        }
      ],
      "stateMutability": "view",
      "type": "function"
    },
    {
      "inputs": [
        {
          "internalType": "address",
          "name": "vToken",
          "type": "address"
        },
        {
          "internalType": "address",
          "name": "minter",
          "type": "address"
        },
        {
          "internalType": "uint256",
          "name": "mintAmount",
          "type": "uint256"
        }
      ],
      "name": "mintAllowed",
      "outputs": [
        {
          "internalType": "uint256",
          "name": "",
          "type": "uint256"
        }
      ],
      "stateMutability": "nonpayable",
      "type": "function"
    },
    {
      "inputs": [],
      "name": "mintVAIGuardianPaused",
      "outputs": [
        {
          "internalType": "bool",
          "name": "",
          "type": "bool"
        }
      ],
      "stateMutability": "view",
      "type": "function"
    },
    {
      "inputs": [
        {
          "internalType": "address",
          "name": "vToken",
          "type": "address"
        },
        {
          "internalType": "address",
          "name": "minter",
          "type": "address"
        },
        {
          "internalType": "uint256",
          "name": "actualMintAmount",
          "type": "uint256"
        },
        {
          "internalType": "uint256",
          "name": "mintTokens",
          "type": "uint256"
        }
      ],
      "name": "mintVerify",
      "outputs": [],
      "stateMutability": "nonpayable",
      "type": "function"
    },
    {
      "inputs": [
        {
          "internalType": "address",
          "name": "",
          "type": "address"
        }
      ],
      "name": "mintedVAIs",
      "outputs": [
        {
          "internalType": "uint256",
          "name": "",
          "type": "uint256"
        }
      ],
      "stateMutability": "view",
      "type": "function"
    },
    {
      "inputs": [],
      "name": "oldLiquidationIncentiveMantissa",
      "outputs": [
        {
          "internalType": "uint256",
          "name": "",
          "type": "uint256"
        }
      ],
      "stateMutability": "view",
      "type": "function"
    },
    {
      "inputs": [],
      "name": "oracle",
      "outputs": [
        {
          "internalType": "contract ResilientOracleInterface",
          "name": "",
          "type": "address"
        }
      ],
      "stateMutability": "view",
      "type": "function"
    },
    {
      "inputs": [],
      "name": "pauseGuardian",
      "outputs": [
        {
          "internalType": "address",
          "name": "",
          "type": "address"
        }
      ],
      "stateMutability": "view",
      "type": "function"
    },
    {
      "inputs": [],
      "name": "pendingAdmin",
      "outputs": [
        {
          "internalType": "address",
          "name": "",
          "type": "address"
        }
      ],
      "stateMutability": "view",
      "type": "function"
    },
    {
      "inputs": [],
      "name": "pendingComptrollerImplementation",
      "outputs": [
        {
          "internalType": "address",
          "name": "",
          "type": "address"
        }
      ],
      "stateMutability": "view",
      "type": "function"
    },
    {
      "inputs": [
        {
          "internalType": "uint96",
          "name": "",
          "type": "uint96"
        }
      ],
      "name": "pools",
      "outputs": [
        {
          "internalType": "string",
          "name": "label",
          "type": "string"
        }
      ],
      "stateMutability": "view",
      "type": "function"
    },
    {
      "inputs": [],
      "name": "prime",
      "outputs": [
        {
          "internalType": "contract IPrime",
          "name": "",
          "type": "address"
        }
      ],
      "stateMutability": "view",
      "type": "function"
    },
    {
      "inputs": [],
      "name": "protocolPaused",
      "outputs": [
        {
          "internalType": "bool",
          "name": "",
          "type": "bool"
        }
      ],
      "stateMutability": "view",
      "type": "function"
    },
    {
      "inputs": [
        {
          "internalType": "address",
          "name": "vToken",
          "type": "address"
        },
        {
          "internalType": "address",
          "name": "redeemer",
          "type": "address"
        },
        {
          "internalType": "uint256",
          "name": "redeemTokens",
          "type": "uint256"
        }
      ],
      "name": "redeemAllowed",
      "outputs": [
        {
          "internalType": "uint256",
          "name": "",
          "type": "uint256"
        }
      ],
      "stateMutability": "nonpayable",
      "type": "function"
    },
    {
      "inputs": [
        {
          "internalType": "address",
          "name": "vToken",
          "type": "address"
        },
        {
          "internalType": "address",
          "name": "redeemer",
          "type": "address"
        },
        {
          "internalType": "uint256",
          "name": "redeemAmount",
          "type": "uint256"
        },
        {
          "internalType": "uint256",
          "name": "redeemTokens",
          "type": "uint256"
        }
      ],
      "name": "redeemVerify",
      "outputs": [],
      "stateMutability": "nonpayable",
      "type": "function"
    },
    {
      "inputs": [],
      "name": "releaseStartBlock",
      "outputs": [
        {
          "internalType": "uint256",
          "name": "",
          "type": "uint256"
        }
      ],
      "stateMutability": "view",
      "type": "function"
    },
    {
      "inputs": [
        {
          "internalType": "address",
          "name": "vToken",
          "type": "address"
        },
        {
          "internalType": "address",
          "name": "payer",
          "type": "address"
        },
        {
          "internalType": "address",
          "name": "borrower",
          "type": "address"
        },
        {
          "internalType": "uint256",
          "name": "repayAmount",
          "type": "uint256"
        }
      ],
      "name": "repayBorrowAllowed",
      "outputs": [
        {
          "internalType": "uint256",
          "name": "",
          "type": "uint256"
        }
      ],
      "stateMutability": "nonpayable",
      "type": "function"
    },
    {
      "inputs": [
        {
          "internalType": "address",
          "name": "vToken",
          "type": "address"
        },
        {
          "internalType": "address",
          "name": "payer",
          "type": "address"
        },
        {
          "internalType": "address",
          "name": "borrower",
          "type": "address"
        },
        {
          "internalType": "uint256",
          "name": "actualRepayAmount",
          "type": "uint256"
        },
        {
          "internalType": "uint256",
          "name": "borrowerIndex",
          "type": "uint256"
        }
      ],
      "name": "repayBorrowVerify",
      "outputs": [],
      "stateMutability": "nonpayable",
      "type": "function"
    },
    {
      "inputs": [],
      "name": "repayVAIGuardianPaused",
      "outputs": [
        {
          "internalType": "bool",
          "name": "",
          "type": "bool"
        }
      ],
      "stateMutability": "view",
      "type": "function"
    },
    {
      "inputs": [
        {
          "internalType": "address",
          "name": "vTokenCollateral",
          "type": "address"
        },
        {
          "internalType": "address",
          "name": "vTokenBorrowed",
          "type": "address"
        },
        {
          "internalType": "address",
          "name": "liquidator",
          "type": "address"
        },
        {
          "internalType": "address",
          "name": "borrower",
          "type": "address"
        },
        {
          "internalType": "uint256",
          "name": "seizeTokens",
          "type": "uint256"
        }
      ],
      "name": "seizeAllowed",
      "outputs": [
        {
          "internalType": "uint256",
          "name": "",
          "type": "uint256"
        }
      ],
      "stateMutability": "nonpayable",
      "type": "function"
    },
    {
      "inputs": [
        {
          "internalType": "address",
          "name": "vTokenCollateral",
          "type": "address"
        },
        {
          "internalType": "address",
          "name": "vTokenBorrowed",
          "type": "address"
        },
        {
          "internalType": "address",
          "name": "liquidator",
          "type": "address"
        },
        {
          "internalType": "address",
          "name": "borrower",
          "type": "address"
        },
        {
          "internalType": "uint256",
          "name": "seizeTokens",
          "type": "uint256"
        }
      ],
      "name": "seizeVerify",
      "outputs": [],
      "stateMutability": "nonpayable",
      "type": "function"
    },
    {
      "inputs": [
        {
          "internalType": "address",
          "name": "",
          "type": "address"
        }
      ],
      "name": "supplyCaps",
      "outputs": [
        {
          "internalType": "uint256",
          "name": "",
          "type": "uint256"
        }
      ],
      "stateMutability": "view",
      "type": "function"
    },
    {
      "inputs": [
        {
          "internalType": "address",
          "name": "vToken",
          "type": "address"
        },
        {
          "internalType": "address",
          "name": "src",
          "type": "address"
        },
        {
          "internalType": "address",
          "name": "dst",
          "type": "address"
        },
        {
          "internalType": "uint256",
          "name": "transferTokens",
          "type": "uint256"
        }
      ],
      "name": "transferAllowed",
      "outputs": [
        {
          "internalType": "uint256",
          "name": "",
          "type": "uint256"
        }
      ],
      "stateMutability": "nonpayable",
      "type": "function"
    },
    {
      "inputs": [
        {
          "internalType": "address",
          "name": "vToken",
          "type": "address"
        },
        {
          "internalType": "address",
          "name": "src",
          "type": "address"
        },
        {
          "internalType": "address",
          "name": "dst",
          "type": "address"
        },
        {
          "internalType": "uint256",
          "name": "transferTokens",
          "type": "uint256"
        }
      ],
      "name": "transferVerify",
      "outputs": [],
      "stateMutability": "nonpayable",
      "type": "function"
    },
    {
      "inputs": [],
      "name": "treasuryAddress",
      "outputs": [
        {
          "internalType": "address",
          "name": "",
          "type": "address"
        }
      ],
      "stateMutability": "view",
      "type": "function"
    },
    {
      "inputs": [],
      "name": "treasuryGuardian",
      "outputs": [
        {
          "internalType": "address",
          "name": "",
          "type": "address"
        }
      ],
      "stateMutability": "view",
      "type": "function"
    },
    {
      "inputs": [],
      "name": "treasuryPercent",
      "outputs": [
        {
          "internalType": "uint256",
          "name": "",
          "type": "uint256"
        }
      ],
      "stateMutability": "view",
      "type": "function"
    },
    {
      "inputs": [
        {
          "internalType": "address",
          "name": "",
          "type": "address"
        }
      ],
      "name": "userPoolId",
      "outputs": [
        {
          "internalType": "uint96",
          "name": "",
          "type": "uint96"
        }
      ],
      "stateMutability": "view",
      "type": "function"
    },
    {
      "inputs": [],
      "name": "vaiController",
      "outputs": [
        {
          "internalType": "contract VAIControllerInterface",
          "name": "",
          "type": "address"
        }
      ],
      "stateMutability": "view",
      "type": "function"
    },
    {
      "inputs": [],
      "name": "vaiMintRate",
      "outputs": [
        {
          "internalType": "uint256",
          "name": "",
          "type": "uint256"
        }
      ],
      "stateMutability": "view",
      "type": "function"
    },
    {
      "inputs": [],
      "name": "vaiVaultAddress",
      "outputs": [
        {
          "internalType": "address",
          "name": "",
          "type": "address"
        }
      ],
      "stateMutability": "view",
      "type": "function"
    },
    {
      "inputs": [
        {
          "internalType": "address",
          "name": "",
          "type": "address"
        }
      ],
      "name": "venusAccrued",
      "outputs": [
        {
          "internalType": "uint256",
          "name": "",
          "type": "uint256"
        }
      ],
      "stateMutability": "view",
      "type": "function"
    },
    {
      "inputs": [
        {
          "internalType": "address",
          "name": "",
          "type": "address"
        }
      ],
      "name": "venusBorrowSpeeds",
      "outputs": [
        {
          "internalType": "uint256",
          "name": "",
          "type": "uint256"
        }
      ],
      "stateMutability": "view",
      "type": "function"
    },
    {
      "inputs": [
        {
          "internalType": "address",
          "name": "",
          "type": "address"
        }
      ],
      "name": "venusBorrowState",
      "outputs": [
        {
          "internalType": "uint224",
          "name": "index",
          "type": "uint224"
        },
        {
          "internalType": "uint32",
          "name": "block",
          "type": "uint32"
        }
      ],
      "stateMutability": "view",
      "type": "function"
    },
    {
      "inputs": [
        {
          "internalType": "address",
          "name": "",
          "type": "address"
        },
        {
          "internalType": "address",
          "name": "",
          "type": "address"
        }
      ],
      "name": "venusBorrowerIndex",
      "outputs": [
        {
          "internalType": "uint256",
          "name": "",
          "type": "uint256"
        }
      ],
      "stateMutability": "view",
      "type": "function"
    },
    {
      "inputs": [],
      "name": "venusInitialIndex",
      "outputs": [
        {
          "internalType": "uint224",
          "name": "",
          "type": "uint224"
        }
      ],
      "stateMutability": "view",
      "type": "function"
    },
    {
      "inputs": [
        {
          "internalType": "address",
          "name": "",
          "type": "address"
        },
        {
          "internalType": "address",
          "name": "",
          "type": "address"
        }
      ],
      "name": "venusSupplierIndex",
      "outputs": [
        {
          "internalType": "uint256",
          "name": "",
          "type": "uint256"
        }
      ],
      "stateMutability": "view",
      "type": "function"
    },
    {
      "inputs": [
        {
          "internalType": "address",
          "name": "",
          "type": "address"
        }
      ],
      "name": "venusSupplySpeeds",
      "outputs": [
        {
          "internalType": "uint256",
          "name": "",
          "type": "uint256"
        }
      ],
      "stateMutability": "view",
      "type": "function"
    },
    {
      "inputs": [
        {
          "internalType": "address",
          "name": "",
          "type": "address"
        }
      ],
      "name": "venusSupplyState",
      "outputs": [
        {
          "internalType": "uint224",
          "name": "index",
          "type": "uint224"
        },
        {
          "internalType": "uint32",
          "name": "block",
          "type": "uint32"
        }
      ],
      "stateMutability": "view",
      "type": "function"
    },
    {
      "inputs": [],
      "name": "venusVAIVaultRate",
      "outputs": [
        {
          "internalType": "uint256",
          "name": "",
          "type": "uint256"
        }
      ],
      "stateMutability": "view",
      "type": "function"
    }
  ],
  "transactionHash": "0x61b45317af51a212edd7ab739f80a1b7643bff8678012bf5afb575400f3d484d",
  "args": [],
  "numDeployments": 6,
  "solcInputHash": "c33b7fcf83bb58226fe9a079903f59bc",
  "bytecode": "0x6080604052348015600e575f80fd5b506149008061001c5f395ff3fe608060405234801561000f575f80fd5b50600436106103f6575f3560e01c80637dc0d1d011610216578063c7ee005e1161012a578063e336b3db116100b4578063eabe7d9111610084578063eabe7d9114610a32578063ead1a8a014610a45578063f445d70314610a58578063f851a44014610a85578063fa6331d814610a97575f80fd5b8063e336b3db146109d6578063e37d4b79146109df578063e85a296014610a16578063e875544614610a29575f80fd5b8063d4b1fe58116100fa578063d4b1fe5814610968578063da3d454c1461097b578063dce154491461098e578063dcfbc0c7146109a1578063e0f6123d146109b4575f80fd5b8063c7ee005e14610928578063d02f73511461093b578063d3270f991461094e578063d463654c14610961575f80fd5b8063b2eafc39116101ab578063bdcdc2581161017b578063bdcdc258146108bb578063bec04f72146108ce578063bf32442d146108d7578063c5b4db55146108e8578063c5f956af14610915575f80fd5b8063b2eafc391461081b578063b8324c7c1461082e578063bb82aa5e14610889578063bbb8864a1461089c575f80fd5b806394b2294b116101e657806394b2294b146107cc57806396c99064146107d55780639bb27d62146107f5578063a657e57914610808575f80fd5b80637dc0d1d0146107655780638a7dc165146107785780638c1ac18a146107975780639254f5e5146107b9575f80fd5b80634a5844321161030d5780635dd3fc9d116102a25780636d35bf91116102725780636d35bf91146106e4578063719f701b146106f7578063737690991461070057806376551383146107405780637d172bd514610752575f80fd5b80635dd3fc9d1461069f5780635ec88c79146106665780635fc7e71e146106be5780636a56947e146106d1575f80fd5b806351dff989116102dd57806351dff98914610653578063528a174c1461066657806352d84d1e146106795780635c7786051461068c575f80fd5b80634a584432146105e05780634d99c776146105ff5780634e79238f146106125780634ef4c3e114610640575f80fd5b806324a3d6221161038e5780634088c73e1161035e5780634088c73e1461057057806341a18d2c1461057d57806341c728b9146105a7578063425fad58146105ba57806347ef3b3b146105cd575f80fd5b806324a3d622146104f8578063258c19c21461050b578063267822471461053e5780632bc7e29e14610551575f80fd5b806310b98338116103c957806310b98338146104685780631ededc91146104a557806321af4569146104ba57806324008a62146104e5575f80fd5b806302c3bcbb146103fa57806304ef9d581461042c57806308e0225c146104355780630db4b4e51461045f575b5f80fd5b610419610408366004613fa4565b60276020525f908152604090205481565b6040519081526020015b60405180910390f35b61041960225481565b610419610443366004613fbf565b601360209081525f928352604080842090915290825290205481565b610419601d5481565b610495610476366004613fbf565b602c60209081525f928352604080842090915290825290205460ff1681565b6040519015158152602001610423565b6104b86104b3366004613ff6565b610aa0565b005b601e546104cd906001600160a01b031681565b6040516001600160a01b039091168152602001610423565b6104196104f336600461404d565b610b18565b600a546104cd906001600160a01b031681565b61049561051936600461409b565b603960209081525f938452604080852082529284528284209052825290205460ff1681565b6001546104cd906001600160a01b031681565b61041961055f366004613fa4565b60166020525f908152604090205481565b6018546104959060ff1681565b61041961058b366004613fbf565b601260209081525f928352604080842090915290825290205481565b6104b86105b53660046140e3565b610bcf565b6018546104959062010000900460ff1681565b6104b86105db366004614126565b610c46565b6104196105ee366004613fa4565b601f6020525f908152604090205481565b61041961060d3660046141a6565b610d1e565b6106256106203660046140e3565b610d3f565b60408051938452602084019290925290820152606001610423565b61041961064e3660046141c0565b610d79565b6104b86106613660046140e3565b610f51565b610625610674366004613fa4565b610f9d565b6104cd6106873660046141fe565b610fb7565b6104b861069a3660046141c0565b610fdf565b6104196106ad366004613fa4565b602b6020525f908152604090205481565b6104196106cc366004614215565b611055565b6104b86106df36600461404d565b6112a5565b6104b86106f2366004614215565b611347565b610419601c5481565b61072861070e366004613fa4565b60356020525f90815260409020546001600160601b031681565b6040516001600160601b039091168152602001610423565b60185461049590610100900460ff1681565b601b546104cd906001600160a01b031681565b6004546104cd906001600160a01b031681565b610419610786366004613fa4565b60146020525f908152604090205481565b6104956107a5366004613fa4565b602d6020525f908152604090205460ff1681565b6015546104cd906001600160a01b031681565b61041960075481565b6107e86107e3366004614275565b6113e9565b60405161042391906142bc565b6025546104cd906001600160a01b031681565b603754610728906001600160601b031681565b6020546104cd906001600160a01b031681565b61086561083c366004613fa4565b60106020525f90815260409020546001600160e01b03811690600160e01b900463ffffffff1682565b604080516001600160e01b03909316835263ffffffff909116602083015201610423565b6002546104cd906001600160a01b031681565b6104196108aa366004613fa4565b602a6020525f908152604090205481565b6104196108c936600461404d565b611484565b61041960175481565b6033546001600160a01b03166104cd565b6108fd6a0c097ce7bc90715b34b9f160241b81565b6040516001600160e01b039091168152602001610423565b6021546104cd906001600160a01b031681565b6031546104cd906001600160a01b031681565b610419610949366004614215565b6114d0565b6026546104cd906001600160a01b031681565b6107285f81565b6104b8610976366004614354565b611659565b6104196109893660046141c0565b611a0b565b6104cd61099c366004614446565b611d7a565b6003546104cd906001600160a01b031681565b6104956109c2366004613fa4565b60386020525f908152604090205460ff1681565b61041960065481565b6108656109ed366004613fa4565b60116020525f90815260409020546001600160e01b03811690600160e01b900463ffffffff1682565b610495610a24366004614470565b611dae565b61041960055481565b610419610a403660046141c0565b611df2565b6104b8610a5336600461449f565b611e3e565b610495610a66366004613fbf565b603260209081525f928352604080842090915290825290205460ff1681565b5f546104cd906001600160a01b031681565b610419601a5481565b6031546001600160a01b031615610b11576031546040516367994e8b60e11b81526001600160a01b039091169063cf329d1690610ae39086908990600401614532565b5f604051808303815f87803b158015610afa575f80fd5b505af1158015610b0c573d5f803e3d5ffd5b505050505b5050505050565b5f610b21611f33565b610b2c856003611f83565b610b3d610b3886611fd1565b611ff2565b5f6040518060200160405280876001600160a01b031663aa5af0fd6040518163ffffffff1660e01b8152600401602060405180830381865afa158015610b85573d5f803e3d5ffd5b505050506040513d601f19601f82011682018060405250810190610ba9919061454c565b90529050610bb7868261203a565b610bc28685836121d1565b5f9150505b949350505050565b6031546001600160a01b031615610c40576031546040516367994e8b60e11b81526001600160a01b039091169063cf329d1690610c129086908890600401614532565b5f604051808303815f87803b158015610c29575f80fd5b505af1158015610c3b573d5f803e3d5ffd5b505050505b50505050565b6031546001600160a01b031615610d16576031546040516367994e8b60e11b81526001600160a01b039091169063cf329d1690610c899086908a90600401614532565b5f604051808303815f87803b158015610ca0575f80fd5b505af1158015610cb2573d5f803e3d5ffd5b50506031546040516367994e8b60e11b81526001600160a01b03909116925063cf329d169150610ce89087908a90600401614532565b5f604051808303815f87803b158015610cff575f80fd5b505af1158015610d11573d5f803e3d5ffd5b505050505b505050505050565b6001600160a01b031960a083901b166001600160a01b038216175b92915050565b5f805f805f80610d528a8a8a8a5f612355565b925092509250826014811115610d6a57610d6a614563565b9a919950975095505050505050565b5f610d82611f33565b610d8c845f611f83565b610d98610b3885611fd1565b6001600160a01b0384165f9081526027602052604081205490819003610dfe5760405162461bcd60e51b815260206004820152601660248201527506d61726b657420737570706c792063617020697320360541b60448201526064015b60405180910390fd5b5f856001600160a01b03166318160ddd6040518163ffffffff1660e01b8152600401602060405180830381865afa158015610e3b573d5f803e3d5ffd5b505050506040513d601f19601f82011682018060405250810190610e5f919061454c565b90505f6040518060200160405280886001600160a01b031663182df0f56040518163ffffffff1660e01b8152600401602060405180830381865afa158015610ea9573d5f803e3d5ffd5b505050506040513d601f19601f82011682018060405250810190610ecd919061454c565b905290505f610edd828488612402565b905083811115610f2f5760405162461bcd60e51b815260206004820152601960248201527f6d61726b657420737570706c79206361702072656163686564000000000000006044820152606401610df5565b610f3888612422565b610f42888861258f565b5f9450505050505b9392505050565b80151580610f5d575081155b610bcf5760405162461bcd60e51b815260206004820152601160248201527072656465656d546f6b656e73207a65726f60781b6044820152606401610df5565b5f805f610faa845f61272d565b9250925092509193909250565b600d8181548110610fc6575f80fd5b5f918252602090912001546001600160a01b0316905081565b6031546001600160a01b031615611050576031546040516367994e8b60e11b81526001600160a01b039091169063cf329d16906110229085908790600401614532565b5f604051808303815f87803b158015611039575f80fd5b505af115801561104b573d5f803e3d5ffd5b505050505b505050565b5f61105e611f33565b611069866005611f83565b6025546001600160a01b03161580159061109157506025546001600160a01b03858116911614155b1561109e5750600161129c565b6110aa610b3886611fd1565b6015545f906001600160a01b0388811691161461113c576110cd610b3888611fd1565b6040516395dd919360e01b81526001600160a01b0385811660048301528816906395dd919390602401602060405180830381865afa158015611111573d5f803e3d5ffd5b505050506040513d601f19601f82011682018060405250810190611135919061454c565b90506111ab565b601554604051633c617c9160e11b81526001600160a01b038681166004830152909116906378c2f92290602401602060405180830381865afa158015611184573d5f803e3d5ffd5b505050506040513d601f19601f820116820180604052508101906111a8919061454c565b90505b6001600160a01b0387165f908152602d602052604090205460ff16806111f557506001600160a01b038085165f908152603260209081526040808320938b168352929052205460ff165b15611213578083111561120d5760115b91505061129c565b5f611205565b5f80611223865f805f6001612355565b9193509091505f905082601481111561123e5761123e614563565b1461125f5781601481111561125557611255614563565b935050505061129c565b805f0361126d576003611255565b611287604051806020016040528060055481525084612765565b851115611295576011611255565b5f93505050505b95945050505050565b6031546001600160a01b031615610c40576031546040516367994e8b60e11b81526001600160a01b039091169063cf329d16906112e89086908890600401614532565b5f604051808303815f87803b1580156112ff575f80fd5b505af1158015611311573d5f803e3d5ffd5b50506031546040516367994e8b60e11b81526001600160a01b03909116925063cf329d169150610c129085908890600401614532565b6031546001600160a01b031615610b11576031546040516367994e8b60e11b81526001600160a01b039091169063cf329d169061138a9085908990600401614532565b5f604051808303815f87803b1580156113a1575f80fd5b505af11580156113b3573d5f803e3d5ffd5b50506031546040516367994e8b60e11b81526001600160a01b03909116925063cf329d169150610ae39086908990600401614532565b60366020525f908152604090208054819061140390614577565b80601f016020809104026020016040519081016040528092919081815260200182805461142f90614577565b801561147a5780601f106114515761010080835404028352916020019161147a565b820191905f5260205f20905b81548152906001019060200180831161145d57829003601f168201915b5050505050905081565b5f61148d611f33565b611498856006611f83565b5f6114a486868561277c565b905080156114b3579050610bc7565b6114bc86612422565b6114c6868661258f565b610bc2868561258f565b5f6114d9611f33565b6114e4866004611f83565b5f60095f6114f189612815565b81526020019081526020015f20905061150981611ff2565b6001600160a01b0384165f90815260028201602052604090205460ff16611531576013611205565b6015546001600160a01b0387811691161461155257611552610b3887611fd1565b856001600160a01b0316635fe3b5676040518163ffffffff1660e01b8152600401602060405180830381865afa15801561158e573d5f803e3d5ffd5b505050506040513d601f19601f820116820180604052508101906115b291906145af565b6001600160a01b0316876001600160a01b0316635fe3b5676040518163ffffffff1660e01b8152600401602060405180830381865afa1580156115f7573d5f803e3d5ffd5b505050506040513d601f19601f8201168201806040525081019061161b91906145af565b6001600160a01b031614611630576002611205565b61163987612422565b611643878561258f565b61164d878661258f565b5f979650505050505050565b5f5b8881101561178d57898982818110611675576116756145ca565b905060200201602081019061168a9190613fa4565b6001600160a01b031663ae3fcb1f6040518163ffffffff1660e01b8152600401602060405180830381865afa1580156116c5573d5f803e3d5ffd5b505050506040513d601f19601f820116820180604052508101906116e991906145de565b61172d5760405162461bcd60e51b8152602060048201526015602482015274119b185cda131bd85b881b9bdd08195b98589b1959605a1b6044820152606401610df5565b87878281811061173f5761173f6145ca565b905060200201355f036117855760405162461bcd60e51b815260206004820152600e60248201526d125b9d985b1a5908185b5bdd5b9d60921b6044820152606401610df5565b60010161165b565b506117978a612820565b6117a083612820565b87861415806117af5750878414155b806117b8575087155b156118055760405162461bcd60e51b815260206004820152601860248201527f496e76616c696420666c6173684c6f616e20706172616d7300000000000000006044820152606401610df5565b6118738b8a8a808060200260200160405190810160405280939291908181526020018383602002808284375f9201919091525050604080516020808c0282810182019093528b82529093508b92508a9182918501908490808284375f9201919091525089925061286e915050565b6001600160a01b038b165f9081526038602052604090205460ff166118ed5760405162461bcd60e51b815260206004820152602a60248201527f466c617368206c6f616e206e6f7420617574686f72697a656420666f722074686044820152691a5cc81858d8dbdd5b9d60b21b6064820152608401610df5565b6119be8a8a8a808060200260200160405190810160405280939291908181526020018383602002808284375f9201919091525050604080516020808e0282810182019093528d82529093508d92508c9182918501908490808284375f9201919091525050604080516020808d0282810182019093528c82529093508c92508b9182918501908490808284375f9201919091525050604080516020601f8b018190048102820181019092528981528b9350915089908990819084018382808284375f920191909152506129f392505050565b507f785e5057f6e5f2e298f8dce2755a6ef29f9dd8a0f82a8b5cad101ea5ef803f048a8a8a8a8a6040516119f69594939291906145fd565b60405180910390a15050505050505050505050565b5f611a14611f33565b611a1f846002611f83565b611a2b610b3885611fd1565b611a358385612c14565b6001600160a01b0384165f908152601f602052604081205490819003611a965760405162461bcd60e51b815260206004820152601660248201527506d61726b657420626f72726f772063617020697320360541b6044820152606401610df5565b611a9f85611fd1565b6001600160a01b0385165f908152600291909101602052604090205460ff16611b5457336001600160a01b03861614611b125760405162461bcd60e51b815260206004820152601560248201527439b2b73232b91036bab9ba103132903b2a37b5b2b760591b6044820152606401610df5565b5f611b1d8686612c7a565b90505f816014811115611b3257611b32614563565b14611b5257806014811115611b4957611b49614563565b92505050610f4a565b505b6004805460405163fc57d4df60e01b81526001600160a01b038881169382019390935291169063fc57d4df90602401602060405180830381865afa158015611b9e573d5f803e3d5ffd5b505050506040513d601f19601f82011682018060405250810190611bc2919061454c565b5f03611bd257600d915050610f4a565b5f611c3c866001600160a01b03166347bd37186040518163ffffffff1660e01b8152600401602060405180830381865afa158015611c12573d5f803e3d5ffd5b505050506040513d601f19601f82011682018060405250810190611c36919061454c565b85612d5d565b905081811115611c8e5760405162461bcd60e51b815260206004820152601960248201527f6d61726b657420626f72726f77206361702072656163686564000000000000006044820152606401610df5565b5f80611c9d87895f895f612355565b9193509091505f9050826014811115611cb857611cb8614563565b14611cda57816014811115611ccf57611ccf614563565b945050505050610f4a565b8015611ce7576004611ccf565b5f60405180602001604052808a6001600160a01b031663aa5af0fd6040518163ffffffff1660e01b8152600401602060405180830381865afa158015611d2f573d5f803e3d5ffd5b505050506040513d601f19601f82011682018060405250810190611d53919061454c565b90529050611d61898261203a565b611d6c8989836121d1565b5f9998505050505050505050565b6008602052815f5260405f208181548110611d93575f80fd5b5f918252602090912001546001600160a01b03169150829050565b6001600160a01b0382165f90815260296020526040812081836008811115611dd857611dd8614563565b815260208101919091526040015f205460ff169392505050565b5f611dfb611f33565b611e06846001611f83565b5f611e1285858561277c565b90508015611e21579050610f4a565b611e2a85612422565b611e34858561258f565b5f95945050505050565b611e46612d92565b848381148015611e5557508082145b611e915760405162461bcd60e51b815260206004820152600d60248201526c1a5b9d985b1a59081a5b9c1d5d609a1b6044820152606401610df5565b5f5b81811015610c3b57611eca888883818110611eb057611eb06145ca565b9050602002016020810190611ec59190613fa4565b612820565b611f2b888883818110611edf57611edf6145ca565b9050602002016020810190611ef49190613fa4565b878784818110611f0657611f066145ca565b90506020020135868685818110611f1f57611f1f6145ca565b90506020020135612ddc565b600101611e93565b60185462010000900460ff1615611f815760405162461bcd60e51b81526020600482015260126024820152711c1c9bdd1bd8dbdb081a5cc81c185d5cd95960721b6044820152606401610df5565b565b611f8d8282611dae565b15611fcd5760405162461bcd60e51b815260206004820152601060248201526f1858dd1a5bdb881a5cc81c185d5cd95960821b6044820152606401610df5565b5050565b5f60095f611fde84612815565b81526020019081526020015f209050919050565b805460ff166120375760405162461bcd60e51b81526020600482015260116024820152701b585c9ad95d081b9bdd081b1a5cdd1959607a1b6044820152606401610df5565b50565b6001600160a01b0382165f908152601160209081526040808320602a9092528220549091612066612f56565b83549091505f906120879063ffffffff80851691600160e01b900416612f8f565b9050801580159061209757508215155b156121a6575f612106876001600160a01b03166347bd37186040518163ffffffff1660e01b8152600401602060405180830381865afa1580156120dc573d5f803e3d5ffd5b505050506040513d601f19601f82011682018060405250810190612100919061454c565b87612fc8565b90505f6121138386612fe5565b90505f825f036121315760405180602001604052805f81525061213b565b61213b8284613026565b604080516020810190915288546001600160e01b03168152909150612184906121649083613069565b516040805180820190915260038152620c8c8d60ea1b6020820152613092565b6001600160e01b0316600160e01b63ffffffff87160217875550610d16915050565b8015610d1657835463ffffffff8316600160e01b026001600160e01b03909116178455505050505050565b601b546001600160a01b0316156121ea576121ea6130c0565b6001600160a01b038381165f9081526011602090815260408083205460138352818420948716845293909152902080546001600160e01b0390921690819055908015801561224657506a0c097ce7bc90715b34b9f160241b8210155b1561225c57506a0c097ce7bc90715b34b9f160241b5b5f60405180602001604052806122728585612f8f565b90526040516395dd919360e01b81526001600160a01b0387811660048301529192505f916122cb916122c5918a16906395dd919390602401602060405180830381865afa1580156120dc573d5f803e3d5ffd5b83613232565b6001600160a01b0387165f908152601460205260409020549091506122f09082612d5d565b6001600160a01b038781165f818152601460209081526040918290209490945580518581529384018890529092918a16917f837bdc11fca9f17ce44167944475225a205279b17e88c791c3b1f66f354668fb910160405180910390a350505050505050565b602654604051637bd48c1f60e11b81525f91829182918291829182916001600160a01b039091169063f7a9183e9061239b9030908f908f908f908f908f9060040161468a565b606060405180830381865afa1580156123b6573d5f803e3d5ffd5b505050506040513d601f19601f820116820180604052508101906123da91906146d9565b9250925092508260148111156123f2576123f2614563565b9b919a5098509650505050505050565b5f8061240e8585613259565b905061129c61241c8261327f565b84612d5d565b6001600160a01b0381165f908152601060209081526040808320602b909252822054909161244e612f56565b83549091505f9061246f9063ffffffff80851691600160e01b900416612f8f565b9050801580159061247f57508215155b15612565575f856001600160a01b03166318160ddd6040518163ffffffff1660e01b8152600401602060405180830381865afa1580156124c1573d5f803e3d5ffd5b505050506040513d601f19601f820116820180604052508101906124e5919061454c565b90505f6124f28386612fe5565b90505f825f036125105760405180602001604052805f81525061251a565b61251a8284613026565b604080516020810190915288546001600160e01b03168152909150612543906121649083613069565b6001600160e01b0316600160e01b63ffffffff87160217875550610b11915050565b8015610b1157835463ffffffff8316600160e01b026001600160e01b039091161784555050505050565b601b546001600160a01b0316156125a8576125a86130c0565b6001600160a01b038281165f9081526010602090815260408083205460128352818420948616845293909152902080546001600160e01b0390921690819055908015801561260457506a0c097ce7bc90715b34b9f160241b8210155b1561261a57506a0c097ce7bc90715b34b9f160241b5b5f60405180602001604052806126308585612f8f565b90526040516370a0823160e01b81526001600160a01b0386811660048301529192505f916126a491908816906370a0823190602401602060405180830381865afa158015612680573d5f803e3d5ffd5b505050506040513d601f19601f820116820180604052508101906122c5919061454c565b6001600160a01b0386165f908152601460205260409020549091506126c99082612d5d565b6001600160a01b038681165f818152601460209081526040918290209490945580518581529384018890529092918916917ffa9d964d891991c113b49e3db1932abd6c67263d387119707aafdd6c4010a3a9910160405180910390a3505050505050565b5f805f805f80612740885f805f8b612355565b92509250925082601481111561275857612758614563565b9891975095509350505050565b5f806127718484613259565b9050610bc78161327f565b5f612789610b3885611fd1565b61279284611fd1565b6001600160a01b0384165f908152600291909101602052604090205460ff166127bc57505f610f4a565b5f806127cb8587865f80612355565b9193509091505f90508260148111156127e6576127e6614563565b146127fd57816014811115611b4957611b49614563565b801561280a576004611b49565b5f9695505050505050565b5f610d395f83610d1e565b6001600160a01b0381166120375760405162461bcd60e51b815260206004820152601560248201527463616e2774206265207a65726f206164647265737360581b6044820152606401610df5565b836001600160a01b0316816001600160a01b031614612987575f5b8351811015612985578281815181106128a4576128a46145ca565b602002602001015160010361297d576001600160a01b0382165f90815260396020526040812085519091908690849081106128e1576128e16145ca565b6020908102919091018101516001600160a01b0390811683528282019390935260409182015f908120938916815292905290205460ff1661297d5760405162461bcd60e51b815260206004820152603060248201527f53656e646572206e6f7420617574686f72697a656420746f2075736520666c6160448201526f39b43637b0b71037b7103132b430b63360811b6064820152608401610df5565b600101612889565b505b5f5b8251811015610b115760018382815181106129a6576129a66145ca565b602002602001015111156129eb5760405162461bcd60e51b815260206004820152600c60248201526b496e76616c6964206d6f646560a01b6044820152606401610df5565b600101612989565b612a2c6040518060c001604052806060815260200160608152602001606081526020016060815260200160608152602001606081525090565b855167ffffffffffffffff811115612a4657612a46614704565b604051908082528060200260200182016040528015612a6f578160200160208202803683370190505b508152855167ffffffffffffffff811115612a8c57612a8c614704565b604051908082528060200260200182016040528015612ab5578160200160208202803683370190505b506020820152855167ffffffffffffffff811115612ad557612ad5614704565b604051908082528060200260200182016040528015612afe578160200160208202803683370190505b506040820152855167ffffffffffffffff811115612b1e57612b1e614704565b604051908082528060200260200182016040528015612b47578160200160208202803683370190505b506060820152855167ffffffffffffffff811115612b6757612b67614704565b604051908082528060200260200182016040528015612b90578160200160208202803683370190505b506080820152855167ffffffffffffffff811115612bb057612bb0614704565b604051908082528060200260200182016040528015612bd9578160200160208202803683370190505b5060a0820152612beb87878784613296565b612bfc8787878460400151866134c5565b612c0a878787878786613585565b9695505050505050565b6001600160a01b0382165f90815260356020526040812054612c3f906001600160601b031683610d1e565b5f81815260096020526040902060060154909150600160601b900460ff16611050576040516305b80c7960e41b815260040160405180910390fd5b5f612c86836007611f83565b5f60095f612c9386612815565b81526020019081526020015f209050612cab81611ff2565b6001600160a01b0383165f90815260028201602052604090205460ff1615612cd6575f915050610d39565b6001600160a01b038084165f8181526002840160209081526040808320805460ff191660019081179091556008835281842080549182018155845291832090910180549489166001600160a01b031990951685179055519192917f3ab23ab0d51cccc0c3085aec51f99228625aa1a922b3a8ca89a26b0f2027a1a59190a3505f9392505050565b5f610f4a8383604051806040016040528060118152602001706164646974696f6e206f766572666c6f7760781b8152506137d4565b5f546001600160a01b03163314611f815760405162461bcd60e51b815260206004820152600e60248201526d37b7363c9030b236b4b71031b0b760911b6044820152606401610df5565b612de8610b3884611fd1565b6001600160a01b0383165f908152602b60205260409020548214612e6457612e0f83612422565b6001600160a01b0383165f818152602b602052604090819020849055517fa9ff26899e4982e7634afa9f70115dcfb61a17d6e8cdd91aa837671d0ff40ba690612e5b9085815260200190565b60405180910390a25b6001600160a01b0383165f908152602a60205260409020548114611050575f6040518060200160405280856001600160a01b031663aa5af0fd6040518163ffffffff1660e01b8152600401602060405180830381865afa158015612eca573d5f803e3d5ffd5b505050506040513d601f19601f82011682018060405250810190612eee919061454c565b90529050612efc848261203a565b6001600160a01b0384165f818152602a602052604090819020849055517f0c62c1bc89ec4c40dccb4d21543e782c5ba43897c0075d108d8964181ea3c51b90612f489085815260200190565b60405180910390a250505050565b5f612f8a4360405180604001604052806011815260200170626c6f636b2023203e203332206269747360781b81525061380d565b905090565b5f610f4a8383604051806040016040528060158152602001747375627472616374696f6e20756e646572666c6f7760581b815250613834565b5f610f4a612fde84670de0b6b3a7640000612fe5565b8351613862565b5f610f4a83836040518060400160405280601781526020017f6d756c7469706c69636174696f6e206f766572666c6f77000000000000000000815250613894565b60408051602081019091525f8152604051806020016040528061306061305a866a0c097ce7bc90715b34b9f160241b612fe5565b85613862565b90529392505050565b60408051602081019091525f81526040518060200160405280613060855f0151855f0151612d5d565b5f81600160e01b84106130b85760405162461bcd60e51b8152600401610df591906142bc565b509192915050565b601c5415806130d05750601c5443105b156130d757565b6033546040516370a0823160e01b81523060048201526001600160a01b03909116905f9082906370a0823190602401602060405180830381865afa158015613121573d5f803e3d5ffd5b505050506040513d601f19601f82011682018060405250810190613145919061454c565b9050805f03613152575050565b5f8061316043601c54612f8f565b90505f61316f601a5483612fe5565b905080841061318057809250613184565b8392505b601d54831015613195575050505050565b43601c55601b546131b3906001600160a01b038781169116856138e4565b6040518381527ff6d4b8f74d85a6e2d7a50225957b8a6cfec69ad92f5905627260541aa0a5565d9060200160405180910390a1601b5f9054906101000a90046001600160a01b03166001600160a01b031663faa1809e6040518163ffffffff1660e01b81526004015f604051808303815f87803b158015610afa575f80fd5b5f6a0c097ce7bc90715b34b9f160241b61324f84845f0151612fe5565b610f4a919061472c565b60408051602081019091525f81526040518060200160405280613060855f015185612fe5565b80515f90610d3990670de0b6b3a76400009061472c565b5f5b8351811015610b11578381815181106132b3576132b36145ca565b60200260200101516001600160a01b03166371507cd58483815181106132db576132db6145ca565b60200260200101516040518263ffffffff1660e01b815260040161330191815260200190565b6040805180830381865afa15801561331b573d5f803e3d5ffd5b505050506040513d601f19601f8201168201806040525081019061333f919061474b565b8351805184908110613353576133536145ca565b6020026020010184602001518481518110613370576133706145ca565b602002602001018281525082815250505081602001518181518110613397576133976145ca565b6020026020010151825f015182815181106133b4576133b46145ca565b60200260200101516133c6919061476d565b826040015182815181106133dc576133dc6145ca565b6020026020010181815250508381815181106133fa576133fa6145ca565b60200260200101516001600160a01b031663dd5f608586858481518110613423576134236145ca565b60200260200101516040518363ffffffff1660e01b815260040161345c9291906001600160a01b03929092168252602082015260400190565b6020604051808303815f875af1158015613478573d5f803e3d5ffd5b505050506040513d601f19601f8201168201806040525081019061349c919061454c565b826060015182815181106134b2576134b26145ca565b6020908102919091010152600101613298565b604051632483d72160e21b81526001600160a01b0386169063920f5c84906134f990879087908790339088906004016147ba565b6020604051808303815f875af1158015613515573d5f803e3d5ffd5b505050506040513d601f19601f8201168201806040525081019061353991906145de565b610b115760405162461bcd60e51b815260206004820152601860248201527f4578656375746520666c6173684c6f616e206661696c656400000000000000006044820152606401610df5565b5f5b855181101561104b578381815181106135a2576135a26145ca565b60200260200101515f036136d2576136468682815181106135c5576135c56145ca565b6020026020010151888784815181106135e0576135e06145ca565b6020026020010151856040015185815181106135fe576135fe6145ca565b6020026020010151865f0151868151811061361b5761361b6145ca565b602002602001015187606001518781518110613639576136396145ca565b6020026020010151613936565b8160400151818151811061365c5761365c6145ca565b6020026020010151858281518110613676576136766145ca565b6020026020010151613688919061476d565b8260800151828151811061369e5761369e6145ca565b6020026020010181815250505f8260a0015182815181106136c1576136c16145ca565b6020026020010181815250506137cc565b8381815181106136e4576136e46145ca565b60200260200101516001036137cc57613789868281518110613708576137086145ca565b602002602001015184878481518110613723576137236145ca565b602002602001015185604001518581518110613741576137416145ca565b6020026020010151865f0151868151811061375e5761375e6145ca565b60200260200101518760600151878151811061377c5761377c6145ca565b6020026020010151613bcd565b8360800151838151811061379f5761379f6145ca565b602002602001018460a0015184815181106137bc576137bc6145ca565b6020908102919091010191909152525b600101613587565b5f806137e0848661476d565b905082858210156138045760405162461bcd60e51b8152600401610df591906142bc565b50949350505050565b5f8164010000000084106130b85760405162461bcd60e51b8152600401610df591906142bc565b5f81848411156138575760405162461bcd60e51b8152600401610df591906142bc565b50610bc78385614854565b5f610f4a83836040518060400160405280600e81526020016d646976696465206279207a65726f60901b815250613d65565b5f8315806138a0575082155b156138ac57505f610f4a565b5f6138b78486614867565b9050836138c4868361472c565b1483906138045760405162461bcd60e51b8152600401610df591906142bc565b604080516001600160a01b038416602482015260448082018490528251808303909101815260649091019091526020810180516001600160e01b031663a9059cbb60e01b179052611050908490613d90565b604051639bf829a760e01b81526001600160a01b038681166004830152602482018690526044820185905260648201839052871690639bf829a7906084015f604051808303815f87803b15801561398b575f80fd5b505af115801561399d573d5f803e3d5ffd5b50505050856001600160a01b031663dd5f6085876001600160a01b031663e9a44fd96040518163ffffffff1660e01b8152600401602060405180830381865afa1580156139ec573d5f803e3d5ffd5b505050506040513d601f19601f82011682018060405250810190613a1091906145af565b6040516001600160e01b031960e084901b1681526001600160a01b039091166004820152602481018590526044016020604051808303815f875af1158015613a5a573d5f803e3d5ffd5b505050506040513d601f19601f82011682018060405250810190613a7e919061454c565b50856001600160a01b031663e9a44fd96040518163ffffffff1660e01b8152600401602060405180830381865afa158015613abb573d5f803e3d5ffd5b505050506040513d601f19601f82011682018060405250810190613adf91906145af565b6001600160a01b03166316faecec876001600160a01b0316635fe3b5676040518163ffffffff1660e01b8152600401602060405180830381865afa158015613b29573d5f803e3d5ffd5b505050506040513d601f19601f82011682018060405250810190613b4d91906145af565b886001600160a01b0316636f307dc36040518163ffffffff1660e01b8152600401602060405180830381865afa158015613b89573d5f803e3d5ffd5b505050506040513d601f19601f82011682018060405250810190613bad91906145af565b60026040518463ffffffff1660e01b8152600401610ce89392919061487e565b5f808781613bdb878961476d565b90505f826001600160a01b031663a6afed956040518163ffffffff1660e01b81526004016020604051808303815f875af1158015613c1b573d5f803e3d5ffd5b505050506040513d601f19601f82011682018060405250810190613c3f919061454c565b90508015613c8f5760405162461bcd60e51b815260206004820152601960248201527f4661696c656420746f2061636372756520696e746572657374000000000000006044820152606401610df5565b60405163d310dce560e01b81526001600160a01b038b81166004830152602482018490525f919085169063d310dce5906044016020604051808303815f875af1158015613cde573d5f803e3d5ffd5b505050506040513d601f19601f82011682018060405250810190613d02919061454c565b90508015613d525760405162461bcd60e51b815260206004820152601e60248201527f4661696c656420746f20637265617465206465627420706f736974696f6e00006044820152606401610df5565b505f9b919a509098505050505050505050565b5f8183613d855760405162461bcd60e51b8152600401610df591906142bc565b50610bc7838561472c565b5f613de4826040518060400160405280602081526020017f5361666545524332303a206c6f772d6c6576656c2063616c6c206661696c6564815250856001600160a01b0316613e639092919063ffffffff16565b905080515f1480613e04575080806020019051810190613e0491906145de565b6110505760405162461bcd60e51b815260206004820152602a60248201527f5361666545524332303a204552433230206f7065726174696f6e20646964206e6044820152691bdd081cdd58d8d9595960b21b6064820152608401610df5565b6060610bc784845f85855f80866001600160a01b03168587604051613e8891906148b4565b5f6040518083038185875af1925050503d805f8114613ec2576040519150601f19603f3d011682016040523d82523d5f602084013e613ec7565b606091505b5091509150613ed887838387613ee3565b979650505050505050565b60608315613f515782515f03613f4a576001600160a01b0385163b613f4a5760405162461bcd60e51b815260206004820152601d60248201527f416464726573733a2063616c6c20746f206e6f6e2d636f6e74726163740000006044820152606401610df5565b5081610bc7565b610bc78383815115613f665781518083602001fd5b8060405162461bcd60e51b8152600401610df591906142bc565b6001600160a01b0381168114612037575f80fd5b8035613f9f81613f80565b919050565b5f60208284031215613fb4575f80fd5b8135610f4a81613f80565b5f8060408385031215613fd0575f80fd5b8235613fdb81613f80565b91506020830135613feb81613f80565b809150509250929050565b5f805f805f60a0868803121561400a575f80fd5b853561401581613f80565b9450602086013561402581613f80565b9350604086013561403581613f80565b94979396509394606081013594506080013592915050565b5f805f8060808587031215614060575f80fd5b843561406b81613f80565b9350602085013561407b81613f80565b9250604085013561408b81613f80565b9396929550929360600135925050565b5f805f606084860312156140ad575f80fd5b83356140b881613f80565b925060208401356140c881613f80565b915060408401356140d881613f80565b809150509250925092565b5f805f80608085870312156140f6575f80fd5b843561410181613f80565b9350602085013561411181613f80565b93969395505050506040820135916060013590565b5f805f805f8060c0878903121561413b575f80fd5b863561414681613f80565b9550602087013561415681613f80565b9450604087013561416681613f80565b9350606087013561417681613f80565b9598949750929560808101359460a0909101359350915050565b80356001600160601b0381168114613f9f575f80fd5b5f80604083850312156141b7575f80fd5b613fdb83614190565b5f805f606084860312156141d2575f80fd5b83356141dd81613f80565b925060208401356141ed81613f80565b929592945050506040919091013590565b5f6020828403121561420e575f80fd5b5035919050565b5f805f805f60a08688031215614229575f80fd5b853561423481613f80565b9450602086013561424481613f80565b9350604086013561425481613f80565b9250606086013561426481613f80565b949793965091946080013592915050565b5f60208284031215614285575f80fd5b610f4a82614190565b5f81518084528060208401602086015e5f602082860101526020601f19601f83011685010191505092915050565b602081525f610f4a602083018461428e565b5f8083601f8401126142de575f80fd5b50813567ffffffffffffffff8111156142f5575f80fd5b6020830191508360208260051b850101111561430f575f80fd5b9250929050565b5f8083601f840112614326575f80fd5b50813567ffffffffffffffff81111561433d575f80fd5b60208301915083602082850101111561430f575f80fd5b5f805f805f805f805f805f60e08c8e03121561436e575f80fd5b6143778c613f94565b9a5061438560208d01613f94565b995067ffffffffffffffff8060408e013511156143a0575f80fd5b6143b08e60408f01358f016142ce565b909a50985060608d01358110156143c5575f80fd5b6143d58e60608f01358f016142ce565b909850965060808d01358110156143ea575f80fd5b6143fa8e60808f01358f016142ce565b909650945061440b60a08e01613f94565b93508060c08e0135111561441d575f80fd5b5061442e8d60c08e01358e01614316565b81935080925050509295989b509295989b9093969950565b5f8060408385031215614457575f80fd5b823561446281613f80565b946020939093013593505050565b5f8060408385031215614481575f80fd5b823561448c81613f80565b9150602083013560098110613feb575f80fd5b5f805f805f80606087890312156144b4575f80fd5b863567ffffffffffffffff808211156144cb575f80fd5b6144d78a838b016142ce565b909850965060208901359150808211156144ef575f80fd5b6144fb8a838b016142ce565b90965094506040890135915080821115614513575f80fd5b5061452089828a016142ce565b979a9699509497509295939492505050565b6001600160a01b0392831681529116602082015260400190565b5f6020828403121561455c575f80fd5b5051919050565b634e487b7160e01b5f52602160045260245ffd5b600181811c9082168061458b57607f821691505b6020821081036145a957634e487b7160e01b5f52602260045260245ffd5b50919050565b5f602082840312156145bf575f80fd5b8151610f4a81613f80565b634e487b7160e01b5f52603260045260245ffd5b5f602082840312156145ee575f80fd5b81518015158114610f4a575f80fd5b6001600160a01b038681168252606060208084018290529083018690525f91879160808501845b8981101561464b57843561463781613f80565b841682529382019390820190600101614624565b5085810360408701528681526001600160fb1b0387111561466a575f80fd5b8660051b9350838860208301379092016020019998505050505050505050565b6001600160a01b038781168252868116602083015285166040820152606081018490526080810183905260c08101600283106146c8576146c8614563565b8260a0830152979650505050505050565b5f805f606084860312156146eb575f80fd5b8351925060208401519150604084015190509250925092565b634e487b7160e01b5f52604160045260245ffd5b634e487b7160e01b5f52601160045260245ffd5b5f8261474657634e487b7160e01b5f52601260045260245ffd5b500490565b5f806040838503121561475c575f80fd5b505080516020909101519092909150565b80820180821115610d3957610d39614718565b5f815180845260208085019450602084015f5b838110156147af57815187529582019590820190600101614793565b509495945050505050565b60a080825286519082018190525f9060209060c0840190828a01845b828110156147fb5781516001600160a01b0316845292840192908401906001016147d6565b50505083810360208501526148108189614780565b91505082810360408401526148258187614780565b6001600160a01b038616606085015283810360808501529050614848818561428e565b98975050505050505050565b81810381811115610d3957610d39614718565b8082028115828204841417610d3957610d39614718565b6001600160a01b0384811682528316602082015260608101600383106148a6576148a6614563565b826040830152949350505050565b5f82518060208501845e5f92019182525091905056fea2646970667358221220ded107e26a0459c0bc2a8e54886a14aca964ca12f347b7852ab538296207416564736f6c63430008190033",
  "devdoc": {
    "author": "Venus",
    "details": "This facet contains all the hooks used while transferring the assets",
    "events": {
      "Failure(uint256,uint256,uint256)": {
        "details": "`error` corresponds to enum Error; `info` corresponds to enum FailureInfo, and `detail` is an arbitrary contract-specific code that enables us to report opaque error codes from upgradeable contracts.*"
      }
    },
    "kind": "dev",
    "methods": {
      "_setVenusSpeeds(address[],uint256[],uint256[])": {
        "details": "Allows the contract admin to set XVS speed for a market",
        "params": {
          "borrowSpeeds": "New XVS speed for borrow",
          "supplySpeeds": "New XVS speed for supply",
          "vTokens": "The market whose XVS speed to update"
        }
      },
      "actionPaused(address,uint8)": {
        "params": {
          "action": "Action id",
          "market": "vToken address"
        }
      },
      "borrowAllowed(address,address,uint256)": {
        "params": {
          "borrowAmount": "The amount of underlying the account would borrow",
          "borrower": "The account which would borrow the asset",
          "vToken": "The market to verify the borrow against"
        },
        "returns": {
          "_0": "0 if the borrow is allowed, otherwise a semi-opaque error code (See ErrorReporter.sol)"
        }
      },
      "borrowVerify(address,address,uint256)": {
        "params": {
          "borrowAmount": "The amount of the underlying asset requested to borrow",
          "borrower": "The address borrowing the underlying",
          "vToken": "Asset whose underlying is being borrowed"
        }
      },
      "executeFlashLoan(address,address,address[],uint256[],uint256[],address,bytes)": {
        "details": "Transfer the specified assets to the receiver contract and handles repayment based on modes.      Mode 0: Classic flash loan - must repay everything or revert      Mode 1: Can create debt position for unpaid amounts",
        "params": {
          "initiator": "The address initiating the flash loan",
          "modes": "How each borrowed asset is handled if not repaid immediately (0: flash loan, 1: debt position)",
          "onBehalfOf": "The address for whom debt positions will be opened (if mode = 1)",
          "param": "The bytes passed in the executeOperation call",
          "receiver": "The address of the contract that will receive the flashLoan and execute the operation",
          "underlyingAmounts": "The amounts of each underlying asset to be loaned",
          "vTokens": "The addresses of the vToken assets to be loaned"
        }
      },
      "getAccountLiquidity(address)": {
        "params": {
          "account": "The account get liquidity for"
        },
        "returns": {
          "_0": "(possible error code (semi-opaque), account liquidity in excess of collateral requirements,          account shortfall below collateral requirements)"
        }
      },
      "getBorrowingPower(address)": {
        "params": {
          "account": "The account get liquidity for"
        },
        "returns": {
          "_0": "(possible error code (semi-opaque), account liquidity in excess of collateral requirements,          account shortfall below collateral requirements)"
        }
      },
      "getHypotheticalAccountLiquidity(address,address,uint256,uint256)": {
        "params": {
          "account": "The account to determine liquidity for",
          "borrowAmount": "The amount of underlying to hypothetically borrow",
          "redeemTokens": "The number of tokens to hypothetically redeem",
          "vTokenModify": "The market to hypothetically redeem/borrow in"
        },
        "returns": {
          "_0": "(possible error code (semi-opaque), hypothetical account liquidity in excess of collateral requirements,          hypothetical account shortfall below collateral requirements)"
        }
      },
      "getPoolMarketIndex(uint96,address)": {
        "details": "Computes a unique key for a (poolId, market) pair used in the `_poolMarkets` mapping. - For the core pool (`poolId == 0`), this results in the address being left-padded to 32 bytes,   maintaining backward compatibility with legacy mappings. - For other pools, packs the `poolId` and `market` address into a single `bytes32` key,   The first 96 bits are used for the `poolId`, and the remaining 160 bits for the `market` address.",
        "params": {
          "poolId": "The ID of the pool.",
          "vToken": "The address of the market (vToken)."
        },
        "returns": {
          "_0": "A `bytes32` key that uniquely represents the (poolId, market) pair."
        }
      },
      "getXVSAddress()": {
        "returns": {
          "_0": "The address of XVS token"
        }
      },
      "liquidateBorrowAllowed(address,address,address,address,uint256)": {
        "params": {
          "borrower": "The address of the borrower",
          "liquidator": "The address repaying the borrow and seizing the collateral",
          "repayAmount": "The amount of underlying being repaid",
          "vTokenBorrowed": "Asset which was borrowed by the borrower",
          "vTokenCollateral": "Asset which was used as collateral and will be seized"
        }
      },
      "liquidateBorrowVerify(address,address,address,address,uint256,uint256)": {
        "params": {
          "actualRepayAmount": "The amount of underlying being repaid",
          "borrower": "The address of the borrower",
          "liquidator": "The address repaying the borrow and seizing the collateral",
          "seizeTokens": "The amount of collateral token that will be seized",
          "vTokenBorrowed": "Asset which was borrowed by the borrower",
          "vTokenCollateral": "Asset which was used as collateral and will be seized"
        }
      },
      "mintAllowed(address,address,uint256)": {
        "params": {
          "mintAmount": "The amount of underlying being supplied to the market in exchange for tokens",
          "minter": "The account which would get the minted tokens",
          "vToken": "The market to verify the mint against"
        },
        "returns": {
          "_0": "0 if the mint is allowed, otherwise a semi-opaque error code (See ErrorReporter.sol)"
        }
      },
      "mintVerify(address,address,uint256,uint256)": {
        "params": {
          "actualMintAmount": "The amount of the underlying asset being minted",
          "mintTokens": "The number of tokens being minted",
          "minter": "The address minting the tokens",
          "vToken": "Asset being minted"
        }
      },
      "redeemAllowed(address,address,uint256)": {
        "params": {
          "redeemTokens": "The number of vTokens to exchange for the underlying asset in the market",
          "redeemer": "The account which would redeem the tokens",
          "vToken": "The market to verify the redeem against"
        },
        "returns": {
          "_0": "0 if the redeem is allowed, otherwise a semi-opaque error code (See ErrorReporter.sol)"
        }
      },
      "redeemVerify(address,address,uint256,uint256)": {
        "params": {
          "redeemAmount": "The amount of the underlying asset being redeemed",
          "redeemTokens": "The number of tokens being redeemed",
          "redeemer": "The address redeeming the tokens",
          "vToken": "Asset being redeemed"
        }
      },
      "repayBorrowAllowed(address,address,address,uint256)": {
        "params": {
          "borrower": "The account which borrowed the asset",
          "payer": "The account which would repay the asset",
          "repayAmount": "The amount of the underlying asset the account would repay",
          "vToken": "The market to verify the repay against"
        },
        "returns": {
          "_0": "0 if the repay is allowed, otherwise a semi-opaque error code (See ErrorReporter.sol)"
        }
      },
      "repayBorrowVerify(address,address,address,uint256,uint256)": {
        "params": {
          "actualRepayAmount": "The amount of underlying being repaid",
          "borrower": "The address of the borrower",
          "payer": "The address repaying the borrow",
          "vToken": "Asset being repaid"
        }
      },
      "seizeAllowed(address,address,address,address,uint256)": {
        "params": {
          "borrower": "The address of the borrower",
          "liquidator": "The address repaying the borrow and seizing the collateral",
          "seizeTokens": "The number of collateral tokens to seize",
          "vTokenBorrowed": "Asset which was borrowed by the borrower",
          "vTokenCollateral": "Asset which was used as collateral and will be seized"
        }
      },
      "seizeVerify(address,address,address,address,uint256)": {
        "params": {
          "borrower": "The address of the borrower",
          "liquidator": "The address repaying the borrow and seizing the collateral",
          "seizeTokens": "The number of collateral tokens to seize",
          "vTokenBorrowed": "Asset which was borrowed by the borrower",
          "vTokenCollateral": "Asset which was used as collateral and will be seized"
        }
      },
      "transferAllowed(address,address,address,uint256)": {
        "params": {
          "dst": "The account which receives the tokens",
          "src": "The account which sources the tokens",
          "transferTokens": "The number of vTokens to transfer",
          "vToken": "The market to verify the transfer against"
        },
        "returns": {
          "_0": "0 if the transfer is allowed, otherwise a semi-opaque error code (See ErrorReporter.sol)"
        }
      },
      "transferVerify(address,address,address,uint256)": {
        "params": {
          "dst": "The account which receives the tokens",
          "src": "The account which sources the tokens",
          "transferTokens": "The number of vTokens to transfer",
          "vToken": "Asset being transferred"
        }
      }
    },
    "title": "PolicyFacet",
    "version": 1
  },
  "userdoc": {
    "errors": {
      "AlreadyInSelectedPool()": [
        {
          "notice": "Thrown when You are already in the selected pool."
        }
      ],
      "ArrayLengthMismatch()": [
        {
          "notice": "Thrown when input array lengths do not match"
        }
      ],
      "BorrowNotAllowedInPool()": [
        {
          "notice": "Thrown when borrowing is not allowed in the selected pool for a given market."
        }
      ],
      "CorePoolModificationNotAllowed()": [
        {
          "notice": "Thrown when trying to modify the core pool (poolId == 0)"
        }
      ],
      "EmptyPoolLabel()": [
        {
          "notice": "Thrown when the pool label is empty"
        }
      ],
      "IncompatibleBorrowedAssets()": [
        {
          "notice": "Thrown when One or more of your assets are not compatible with the selected pool."
        }
      ],
      "InvalidWeightingStrategy(uint8)": [
        {
          "notice": "Thrown when an invalid weighting strategy is provided"
        }
      ],
      "LiquidityCheckFailed(uint256,uint256)": [
        {
          "notice": "Thrown when Switching to this pool would fail the liquidity check or lead to liquidation."
        }
      ],
      "MarketAlreadyListed(uint96,address)": [
        {
          "notice": "Thrown when a vToken is already listed in the specified pool"
        }
      ],
      "MarketConfigNotFound()": [
        {
          "notice": "Thrown when market is not set in the _poolMarkets mapping"
        }
      ],
      "MarketNotListedInCorePool()": [
        {
          "notice": "Thrown when market trying to add in a pool is not listed in the core pool"
        }
      ],
      "PoolDoesNotExist(uint96)": [
        {
          "notice": "Thrown when a given pool ID does not exist"
        }
      ],
      "PoolMarketNotFound(uint96,address)": [
        {
          "notice": "Thrown when trying to remove a market that is not listed in the given pool."
        }
      ]
    },
    "events": {
      "DistributedBorrowerVenus(address,address,uint256,uint256)": {
        "notice": "Emitted when XVS is distributed to a borrower"
      },
      "DistributedSupplierVenus(address,address,uint256,uint256)": {
        "notice": "Emitted when XVS is distributed to a supplier"
      },
      "DistributedVAIVaultVenus(uint256)": {
        "notice": "Emitted when XVS is distributed to VAI Vault"
      },
      "MarketEntered(address,address)": {
        "notice": "Emitted when an account enters a market"
      },
      "VenusBorrowSpeedUpdated(address,uint256)": {
        "notice": "Emitted when a new borrow-side XVS speed is calculated for a market"
      },
      "VenusSupplySpeedUpdated(address,uint256)": {
        "notice": "Emitted when a new supply-side XVS speed is calculated for a market"
      }
    },
    "kind": "user",
    "methods": {
      "_setVenusSpeeds(address[],uint256[],uint256[])": {
        "notice": "Set XVS speed for a single market"
      },
      "accountAssets(address,uint256)": {
        "notice": "Per-account mapping of \"assets you are in\", capped by maxAssets"
      },
      "actionPaused(address,uint8)": {
        "notice": "Checks if a certain action is paused on a market"
      },
      "admin()": {
        "notice": "Administrator for this contract"
      },
      "allMarkets(uint256)": {
        "notice": "A list of all markets"
      },
      "approvedDelegates(address,address)": {
        "notice": "Whether the delegate is allowed to borrow or redeem on behalf of the user"
      },
      "authorizedFlashLoan(address)": {
        "notice": "Mapping of accounts authorized to execute flash loans"
      },
      "borrowAllowed(address,address,uint256)": {
        "notice": "Checks if the account should be allowed to borrow the underlying asset of the given market"
      },
      "borrowCapGuardian()": {
        "notice": "The borrowCapGuardian can set borrowCaps to any number for any market. Lowering the borrow cap could disable borrowing on the given market."
      },
      "borrowCaps(address)": {
        "notice": "Borrow caps enforced by borrowAllowed for each vToken address."
      },
      "borrowVerify(address,address,uint256)": {
        "notice": "Validates borrow, accrues interest and updates score in prime. Reverts on rejection. May emit logs."
      },
      "closeFactorMantissa()": {
        "notice": "Multiplier used to calculate the maximum repayAmount when liquidating a borrow"
      },
      "comptrollerImplementation()": {
        "notice": "Active brains of Unitroller"
      },
      "delegateAuthorizationFlashloan(address,address,address)": {
        "notice": "Mapping to store delegate authorization for flash loans"
      },
      "executeFlashLoan(address,address,address[],uint256[],uint256[],address,bytes)": {
        "notice": "Executes a flashLoan operation with the specified assets, amounts, and modes."
      },
      "getAccountLiquidity(address)": {
        "notice": "Determine the current account liquidity wrt collateral requirements"
      },
      "getBorrowingPower(address)": {
        "notice": "Alias to getAccountLiquidity to support the Isolated Lending Comptroller Interface"
      },
      "getHypotheticalAccountLiquidity(address,address,uint256,uint256)": {
        "notice": "Determine what the account liquidity would be if the given amounts were redeemed/borrowed"
      },
      "getPoolMarketIndex(uint96,address)": {
        "notice": "Returns the market index for a given vToken"
      },
      "getXVSAddress()": {
        "notice": "Returns the XVS address"
      },
      "isForcedLiquidationEnabled(address)": {
        "notice": "Whether forced liquidation is enabled for all users borrowing in a certain market"
      },
      "isForcedLiquidationEnabledForUser(address,address)": {
        "notice": "Whether forced liquidation is enabled for the borrows of a user in a market"
      },
      "lastPoolId()": {
        "notice": "Counter used to generate unique pool IDs"
      },
      "liquidateBorrowAllowed(address,address,address,address,uint256)": {
        "notice": "Checks if the liquidation should be allowed to occur"
      },
      "liquidateBorrowVerify(address,address,address,address,uint256,uint256)": {
        "notice": "Validates liquidateBorrow, accrues interest and updates score in prime. Reverts on rejection. May emit logs."
      },
      "maxAssets()": {
        "notice": "Max number of assets a single account can participate in (borrow or use as collateral)"
      },
      "mintAllowed(address,address,uint256)": {
        "notice": "Checks if the account should be allowed to mint tokens in the given market"
      },
      "mintVAIGuardianPaused()": {
        "notice": "The Pause Guardian can pause certain actions as a safety mechanism."
      },
      "mintVerify(address,address,uint256,uint256)": {
        "notice": "Validates mint, accrues interest and updates score in prime. Reverts on rejection. May emit logs."
      },
      "mintedVAIs(address)": {
        "notice": "The minted VAI amount to each user"
      },
      "oldLiquidationIncentiveMantissa()": {
        "notice": "Multiplier representing the discount on collateral that a liquidator receives (deprecated)"
      },
      "oracle()": {
        "notice": "Oracle which gives the price of any given asset"
      },
      "pauseGuardian()": {
        "notice": "The Pause Guardian can pause certain actions as a safety mechanism."
      },
      "pendingAdmin()": {
        "notice": "Pending administrator for this contract"
      },
      "pendingComptrollerImplementation()": {
        "notice": "Pending brains of Unitroller"
      },
      "pools(uint96)": {
        "notice": "Mapping of pool ID to its corresponding metadata and configuration"
      },
      "prime()": {
        "notice": "Prime token address"
      },
      "protocolPaused()": {
        "notice": "Pause/Unpause whole protocol actions"
      },
      "redeemAllowed(address,address,uint256)": {
        "notice": "Checks if the account should be allowed to redeem tokens in the given market"
      },
      "redeemVerify(address,address,uint256,uint256)": {
        "notice": "Validates redeem, accrues interest and updates score in prime. Reverts on rejection. May emit logs."
      },
      "repayBorrowAllowed(address,address,address,uint256)": {
        "notice": "Checks if the account should be allowed to repay a borrow in the given market"
      },
      "repayBorrowVerify(address,address,address,uint256,uint256)": {
        "notice": "Validates repayBorrow, accrues interest and updates score in prime. Reverts on rejection. May emit logs."
      },
      "seizeAllowed(address,address,address,address,uint256)": {
        "notice": "Checks if the seizing of assets should be allowed to occur"
      },
      "seizeVerify(address,address,address,address,uint256)": {
        "notice": "Validates seize, accrues interest and updates score in prime. Reverts on rejection. May emit logs."
      },
      "supplyCaps(address)": {
        "notice": "Supply caps enforced by mintAllowed for each vToken address. Defaults to zero which corresponds to minting notAllowed"
      },
      "transferAllowed(address,address,address,uint256)": {
        "notice": "Checks if the account should be allowed to transfer tokens in the given market"
      },
      "transferVerify(address,address,address,uint256)": {
        "notice": "Validates transfer, accrues interest and updates score in prime. Reverts on rejection. May emit logs."
      },
      "treasuryAddress()": {
        "notice": "Treasury address"
      },
      "treasuryGuardian()": {
        "notice": "Treasury Guardian address"
      },
      "treasuryPercent()": {
        "notice": "Fee percent of accrued interest with decimal 18"
      },
      "userPoolId(address)": {
        "notice": "Tracks the selected pool for each user."
      },
      "vaiController()": {
        "notice": "The Address of VAIController"
      },
      "vaiMintRate()": {
        "notice": "VAI Mint Rate as a percentage"
      },
      "venusAccrued(address)": {
        "notice": "The XVS accrued but not yet transferred to each user"
      },
      "venusBorrowSpeeds(address)": {
        "notice": "The rate at which venus is distributed to the corresponding borrow market (per block)"
      },
      "venusBorrowState(address)": {
        "notice": "The Venus market borrow state for each market"
      },
      "venusBorrowerIndex(address,address)": {
        "notice": "The Venus borrow index for each market for each borrower as of the last time they accrued XVS"
      },
      "venusInitialIndex()": {
        "notice": "The initial Venus index for a market"
      },
      "venusSupplierIndex(address,address)": {
        "notice": "The Venus supply index for each market for each supplier as of the last time they accrued XVS"
      },
      "venusSupplySpeeds(address)": {
        "notice": "The rate at which venus is distributed to the corresponding supply market (per block)"
      },
      "venusSupplyState(address)": {
        "notice": "The Venus market supply state for each market"
      },
      "venusVAIVaultRate()": {
        "notice": "The rate at which the flywheel distributes XVS to VAI Vault, per block"
      }
    },
    "notice": "This facet contract contains all the external pre-hook functions related to vToken",
    "version": 1
  },
  "storageLayout": {
    "storage": [
      {
        "astId": 1640,
        "contract": "contracts/Comptroller/Diamond/facets/PolicyFacet.sol:PolicyFacet",
        "label": "admin",
        "offset": 0,
        "slot": "0",
        "type": "t_address"
      },
      {
        "astId": 1643,
        "contract": "contracts/Comptroller/Diamond/facets/PolicyFacet.sol:PolicyFacet",
        "label": "pendingAdmin",
        "offset": 0,
        "slot": "1",
        "type": "t_address"
      },
      {
        "astId": 1646,
        "contract": "contracts/Comptroller/Diamond/facets/PolicyFacet.sol:PolicyFacet",
        "label": "comptrollerImplementation",
        "offset": 0,
        "slot": "2",
        "type": "t_address"
      },
      {
        "astId": 1649,
        "contract": "contracts/Comptroller/Diamond/facets/PolicyFacet.sol:PolicyFacet",
        "label": "pendingComptrollerImplementation",
        "offset": 0,
        "slot": "3",
        "type": "t_address"
      },
      {
        "astId": 1656,
        "contract": "contracts/Comptroller/Diamond/facets/PolicyFacet.sol:PolicyFacet",
        "label": "oracle",
        "offset": 0,
        "slot": "4",
        "type": "t_contract(ResilientOracleInterface)967"
      },
      {
        "astId": 1659,
        "contract": "contracts/Comptroller/Diamond/facets/PolicyFacet.sol:PolicyFacet",
        "label": "closeFactorMantissa",
        "offset": 0,
        "slot": "5",
        "type": "t_uint256"
      },
      {
        "astId": 1662,
        "contract": "contracts/Comptroller/Diamond/facets/PolicyFacet.sol:PolicyFacet",
        "label": "oldLiquidationIncentiveMantissa",
        "offset": 0,
        "slot": "6",
        "type": "t_uint256"
      },
      {
        "astId": 1665,
        "contract": "contracts/Comptroller/Diamond/facets/PolicyFacet.sol:PolicyFacet",
        "label": "maxAssets",
        "offset": 0,
        "slot": "7",
        "type": "t_uint256"
      },
      {
        "astId": 1672,
        "contract": "contracts/Comptroller/Diamond/facets/PolicyFacet.sol:PolicyFacet",
        "label": "accountAssets",
        "offset": 0,
        "slot": "8",
        "type": "t_mapping(t_address,t_array(t_contract(VToken)17767)dyn_storage)"
      },
      {
        "astId": 1706,
        "contract": "contracts/Comptroller/Diamond/facets/PolicyFacet.sol:PolicyFacet",
        "label": "_poolMarkets",
        "offset": 0,
        "slot": "9",
        "type": "t_mapping(t_userDefinedValueType(PoolMarketId)11224,t_struct(Market)1699_storage)"
      },
      {
        "astId": 1709,
        "contract": "contracts/Comptroller/Diamond/facets/PolicyFacet.sol:PolicyFacet",
        "label": "pauseGuardian",
        "offset": 0,
        "slot": "10",
        "type": "t_address"
      },
      {
        "astId": 1712,
        "contract": "contracts/Comptroller/Diamond/facets/PolicyFacet.sol:PolicyFacet",
        "label": "_mintGuardianPaused",
        "offset": 20,
        "slot": "10",
        "type": "t_bool"
      },
      {
        "astId": 1715,
        "contract": "contracts/Comptroller/Diamond/facets/PolicyFacet.sol:PolicyFacet",
        "label": "_borrowGuardianPaused",
        "offset": 21,
        "slot": "10",
        "type": "t_bool"
      },
      {
        "astId": 1718,
        "contract": "contracts/Comptroller/Diamond/facets/PolicyFacet.sol:PolicyFacet",
        "label": "transferGuardianPaused",
        "offset": 22,
        "slot": "10",
        "type": "t_bool"
      },
      {
        "astId": 1721,
        "contract": "contracts/Comptroller/Diamond/facets/PolicyFacet.sol:PolicyFacet",
        "label": "seizeGuardianPaused",
        "offset": 23,
        "slot": "10",
        "type": "t_bool"
      },
      {
        "astId": 1726,
        "contract": "contracts/Comptroller/Diamond/facets/PolicyFacet.sol:PolicyFacet",
        "label": "mintGuardianPaused",
        "offset": 0,
        "slot": "11",
        "type": "t_mapping(t_address,t_bool)"
      },
      {
        "astId": 1731,
        "contract": "contracts/Comptroller/Diamond/facets/PolicyFacet.sol:PolicyFacet",
        "label": "borrowGuardianPaused",
        "offset": 0,
        "slot": "12",
        "type": "t_mapping(t_address,t_bool)"
      },
      {
        "astId": 1743,
        "contract": "contracts/Comptroller/Diamond/facets/PolicyFacet.sol:PolicyFacet",
        "label": "allMarkets",
        "offset": 0,
        "slot": "13",
        "type": "t_array(t_contract(VToken)17767)dyn_storage"
      },
      {
        "astId": 1746,
        "contract": "contracts/Comptroller/Diamond/facets/PolicyFacet.sol:PolicyFacet",
        "label": "venusRate",
        "offset": 0,
        "slot": "14",
        "type": "t_uint256"
      },
      {
        "astId": 1751,
        "contract": "contracts/Comptroller/Diamond/facets/PolicyFacet.sol:PolicyFacet",
        "label": "venusSpeeds",
        "offset": 0,
        "slot": "15",
        "type": "t_mapping(t_address,t_uint256)"
      },
      {
        "astId": 1757,
        "contract": "contracts/Comptroller/Diamond/facets/PolicyFacet.sol:PolicyFacet",
        "label": "venusSupplyState",
        "offset": 0,
        "slot": "16",
        "type": "t_mapping(t_address,t_struct(VenusMarketState)1738_storage)"
      },
      {
        "astId": 1763,
        "contract": "contracts/Comptroller/Diamond/facets/PolicyFacet.sol:PolicyFacet",
        "label": "venusBorrowState",
        "offset": 0,
        "slot": "17",
        "type": "t_mapping(t_address,t_struct(VenusMarketState)1738_storage)"
      },
      {
        "astId": 1770,
        "contract": "contracts/Comptroller/Diamond/facets/PolicyFacet.sol:PolicyFacet",
        "label": "venusSupplierIndex",
        "offset": 0,
        "slot": "18",
        "type": "t_mapping(t_address,t_mapping(t_address,t_uint256))"
      },
      {
        "astId": 1777,
        "contract": "contracts/Comptroller/Diamond/facets/PolicyFacet.sol:PolicyFacet",
        "label": "venusBorrowerIndex",
        "offset": 0,
        "slot": "19",
        "type": "t_mapping(t_address,t_mapping(t_address,t_uint256))"
      },
      {
        "astId": 1782,
        "contract": "contracts/Comptroller/Diamond/facets/PolicyFacet.sol:PolicyFacet",
        "label": "venusAccrued",
        "offset": 0,
        "slot": "20",
        "type": "t_mapping(t_address,t_uint256)"
      },
      {
        "astId": 1786,
        "contract": "contracts/Comptroller/Diamond/facets/PolicyFacet.sol:PolicyFacet",
        "label": "vaiController",
        "offset": 0,
        "slot": "21",
        "type": "t_contract(VAIControllerInterface)11664"
      },
      {
        "astId": 1791,
        "contract": "contracts/Comptroller/Diamond/facets/PolicyFacet.sol:PolicyFacet",
        "label": "mintedVAIs",
        "offset": 0,
        "slot": "22",
        "type": "t_mapping(t_address,t_uint256)"
      },
      {
        "astId": 1794,
        "contract": "contracts/Comptroller/Diamond/facets/PolicyFacet.sol:PolicyFacet",
        "label": "vaiMintRate",
        "offset": 0,
        "slot": "23",
        "type": "t_uint256"
      },
      {
        "astId": 1797,
        "contract": "contracts/Comptroller/Diamond/facets/PolicyFacet.sol:PolicyFacet",
        "label": "mintVAIGuardianPaused",
        "offset": 0,
        "slot": "24",
        "type": "t_bool"
      },
      {
        "astId": 1799,
        "contract": "contracts/Comptroller/Diamond/facets/PolicyFacet.sol:PolicyFacet",
        "label": "repayVAIGuardianPaused",
        "offset": 1,
        "slot": "24",
        "type": "t_bool"
      },
      {
        "astId": 1802,
        "contract": "contracts/Comptroller/Diamond/facets/PolicyFacet.sol:PolicyFacet",
        "label": "protocolPaused",
        "offset": 2,
        "slot": "24",
        "type": "t_bool"
      },
      {
        "astId": 1805,
        "contract": "contracts/Comptroller/Diamond/facets/PolicyFacet.sol:PolicyFacet",
        "label": "venusVAIRate",
        "offset": 0,
        "slot": "25",
        "type": "t_uint256"
      },
      {
        "astId": 1811,
        "contract": "contracts/Comptroller/Diamond/facets/PolicyFacet.sol:PolicyFacet",
        "label": "venusVAIVaultRate",
        "offset": 0,
        "slot": "26",
        "type": "t_uint256"
      },
      {
        "astId": 1813,
        "contract": "contracts/Comptroller/Diamond/facets/PolicyFacet.sol:PolicyFacet",
        "label": "vaiVaultAddress",
        "offset": 0,
        "slot": "27",
        "type": "t_address"
      },
      {
        "astId": 1815,
        "contract": "contracts/Comptroller/Diamond/facets/PolicyFacet.sol:PolicyFacet",
        "label": "releaseStartBlock",
        "offset": 0,
        "slot": "28",
        "type": "t_uint256"
      },
      {
        "astId": 1817,
        "contract": "contracts/Comptroller/Diamond/facets/PolicyFacet.sol:PolicyFacet",
        "label": "minReleaseAmount",
        "offset": 0,
        "slot": "29",
        "type": "t_uint256"
      },
      {
        "astId": 1823,
        "contract": "contracts/Comptroller/Diamond/facets/PolicyFacet.sol:PolicyFacet",
        "label": "borrowCapGuardian",
        "offset": 0,
        "slot": "30",
        "type": "t_address"
      },
      {
        "astId": 1828,
        "contract": "contracts/Comptroller/Diamond/facets/PolicyFacet.sol:PolicyFacet",
        "label": "borrowCaps",
        "offset": 0,
        "slot": "31",
        "type": "t_mapping(t_address,t_uint256)"
      },
      {
        "astId": 1834,
        "contract": "contracts/Comptroller/Diamond/facets/PolicyFacet.sol:PolicyFacet",
        "label": "treasuryGuardian",
        "offset": 0,
        "slot": "32",
        "type": "t_address"
      },
      {
        "astId": 1837,
        "contract": "contracts/Comptroller/Diamond/facets/PolicyFacet.sol:PolicyFacet",
        "label": "treasuryAddress",
        "offset": 0,
        "slot": "33",
        "type": "t_address"
      },
      {
        "astId": 1840,
        "contract": "contracts/Comptroller/Diamond/facets/PolicyFacet.sol:PolicyFacet",
        "label": "treasuryPercent",
        "offset": 0,
        "slot": "34",
        "type": "t_uint256"
      },
      {
        "astId": 1848,
        "contract": "contracts/Comptroller/Diamond/facets/PolicyFacet.sol:PolicyFacet",
        "label": "venusContributorSpeeds",
        "offset": 0,
        "slot": "35",
        "type": "t_mapping(t_address,t_uint256)"
      },
      {
        "astId": 1853,
        "contract": "contracts/Comptroller/Diamond/facets/PolicyFacet.sol:PolicyFacet",
        "label": "lastContributorBlock",
        "offset": 0,
        "slot": "36",
        "type": "t_mapping(t_address,t_uint256)"
      },
      {
        "astId": 1858,
        "contract": "contracts/Comptroller/Diamond/facets/PolicyFacet.sol:PolicyFacet",
        "label": "liquidatorContract",
        "offset": 0,
        "slot": "37",
        "type": "t_address"
      },
      {
        "astId": 1864,
        "contract": "contracts/Comptroller/Diamond/facets/PolicyFacet.sol:PolicyFacet",
        "label": "comptrollerLens",
        "offset": 0,
        "slot": "38",
        "type": "t_contract(ComptrollerLensInterface)1623"
      },
      {
        "astId": 1872,
        "contract": "contracts/Comptroller/Diamond/facets/PolicyFacet.sol:PolicyFacet",
        "label": "supplyCaps",
        "offset": 0,
        "slot": "39",
        "type": "t_mapping(t_address,t_uint256)"
      },
      {
        "astId": 1878,
        "contract": "contracts/Comptroller/Diamond/facets/PolicyFacet.sol:PolicyFacet",
        "label": "accessControl",
        "offset": 0,
        "slot": "40",
        "type": "t_address"
      },
      {
        "astId": 1885,
        "contract": "contracts/Comptroller/Diamond/facets/PolicyFacet.sol:PolicyFacet",
        "label": "_actionPaused",
        "offset": 0,
        "slot": "41",
        "type": "t_mapping(t_address,t_mapping(t_uint256,t_bool))"
      },
      {
        "astId": 1893,
        "contract": "contracts/Comptroller/Diamond/facets/PolicyFacet.sol:PolicyFacet",
        "label": "venusBorrowSpeeds",
        "offset": 0,
        "slot": "42",
        "type": "t_mapping(t_address,t_uint256)"
      },
      {
        "astId": 1898,
        "contract": "contracts/Comptroller/Diamond/facets/PolicyFacet.sol:PolicyFacet",
        "label": "venusSupplySpeeds",
        "offset": 0,
        "slot": "43",
        "type": "t_mapping(t_address,t_uint256)"
      },
      {
        "astId": 1908,
        "contract": "contracts/Comptroller/Diamond/facets/PolicyFacet.sol:PolicyFacet",
        "label": "approvedDelegates",
        "offset": 0,
        "slot": "44",
        "type": "t_mapping(t_address,t_mapping(t_address,t_bool))"
      },
      {
        "astId": 1916,
        "contract": "contracts/Comptroller/Diamond/facets/PolicyFacet.sol:PolicyFacet",
        "label": "isForcedLiquidationEnabled",
        "offset": 0,
        "slot": "45",
        "type": "t_mapping(t_address,t_bool)"
      },
      {
        "astId": 1935,
        "contract": "contracts/Comptroller/Diamond/facets/PolicyFacet.sol:PolicyFacet",
        "label": "_selectorToFacetAndPosition",
        "offset": 0,
        "slot": "46",
        "type": "t_mapping(t_bytes4,t_struct(FacetAddressAndPosition)1924_storage)"
      },
      {
        "astId": 1940,
        "contract": "contracts/Comptroller/Diamond/facets/PolicyFacet.sol:PolicyFacet",
        "label": "_facetFunctionSelectors",
        "offset": 0,
        "slot": "47",
        "type": "t_mapping(t_address,t_struct(FacetFunctionSelectors)1930_storage)"
      },
      {
        "astId": 1943,
        "contract": "contracts/Comptroller/Diamond/facets/PolicyFacet.sol:PolicyFacet",
        "label": "_facetAddresses",
        "offset": 0,
        "slot": "48",
        "type": "t_array(t_address)dyn_storage"
      },
      {
        "astId": 1950,
        "contract": "contracts/Comptroller/Diamond/facets/PolicyFacet.sol:PolicyFacet",
        "label": "prime",
        "offset": 0,
        "slot": "49",
        "type": "t_contract(IPrime)11597"
      },
      {
        "astId": 1960,
        "contract": "contracts/Comptroller/Diamond/facets/PolicyFacet.sol:PolicyFacet",
        "label": "isForcedLiquidationEnabledForUser",
        "offset": 0,
        "slot": "50",
        "type": "t_mapping(t_address,t_mapping(t_address,t_bool))"
      },
      {
        "astId": 1966,
        "contract": "contracts/Comptroller/Diamond/facets/PolicyFacet.sol:PolicyFacet",
        "label": "xvs",
        "offset": 0,
        "slot": "51",
        "type": "t_address"
      },
      {
        "astId": 1969,
        "contract": "contracts/Comptroller/Diamond/facets/PolicyFacet.sol:PolicyFacet",
        "label": "xvsVToken",
        "offset": 0,
        "slot": "52",
        "type": "t_address"
      },
      {
        "astId": 1985,
        "contract": "contracts/Comptroller/Diamond/facets/PolicyFacet.sol:PolicyFacet",
        "label": "userPoolId",
        "offset": 0,
        "slot": "53",
        "type": "t_mapping(t_address,t_uint96)"
      },
      {
        "astId": 1991,
        "contract": "contracts/Comptroller/Diamond/facets/PolicyFacet.sol:PolicyFacet",
        "label": "pools",
        "offset": 0,
        "slot": "54",
        "type": "t_mapping(t_uint96,t_struct(PoolData)1980_storage)"
      },
      {
        "astId": 1994,
        "contract": "contracts/Comptroller/Diamond/facets/PolicyFacet.sol:PolicyFacet",
        "label": "lastPoolId",
        "offset": 0,
        "slot": "55",
        "type": "t_uint96"
      },
      {
        "astId": 1999,
        "contract": "contracts/Comptroller/Diamond/facets/PolicyFacet.sol:PolicyFacet",
        "label": "authorizedFlashLoan",
        "offset": 0,
        "slot": "56",
        "type": "t_mapping(t_address,t_bool)"
      },
      {
        "astId": 2027,
        "contract": "contracts/Comptroller/Diamond/facets/PolicyFacet.sol:PolicyFacet",
        "label": "delegateAuthorizationFlashloan",
        "offset": 0,
        "slot": "57",
        "type": "t_mapping(t_address,t_mapping(t_address,t_mapping(t_address,t_bool)))"
      }
    ],
    "types": {
      "t_address": {
        "encoding": "inplace",
        "label": "address",
        "numberOfBytes": "20"
      },
      "t_array(t_address)dyn_storage": {
        "base": "t_address",
        "encoding": "dynamic_array",
        "label": "address[]",
        "numberOfBytes": "32"
      },
      "t_array(t_bytes4)dyn_storage": {
        "base": "t_bytes4",
        "encoding": "dynamic_array",
        "label": "bytes4[]",
        "numberOfBytes": "32"
      },
      "t_array(t_contract(VToken)17767)dyn_storage": {
        "base": "t_contract(VToken)17767",
        "encoding": "dynamic_array",
        "label": "contract VToken[]",
        "numberOfBytes": "32"
      },
      "t_bool": {
        "encoding": "inplace",
        "label": "bool",
        "numberOfBytes": "1"
      },
      "t_bytes4": {
        "encoding": "inplace",
        "label": "bytes4",
        "numberOfBytes": "4"
      },
      "t_contract(ComptrollerLensInterface)1623": {
        "encoding": "inplace",
        "label": "contract ComptrollerLensInterface",
        "numberOfBytes": "20"
      },
      "t_contract(IPrime)11597": {
        "encoding": "inplace",
        "label": "contract IPrime",
        "numberOfBytes": "20"
      },
      "t_contract(ResilientOracleInterface)967": {
        "encoding": "inplace",
        "label": "contract ResilientOracleInterface",
        "numberOfBytes": "20"
      },
      "t_contract(VAIControllerInterface)11664": {
        "encoding": "inplace",
        "label": "contract VAIControllerInterface",
        "numberOfBytes": "20"
      },
      "t_contract(VToken)17767": {
        "encoding": "inplace",
        "label": "contract VToken",
        "numberOfBytes": "20"
      },
      "t_mapping(t_address,t_array(t_contract(VToken)17767)dyn_storage)": {
        "encoding": "mapping",
        "key": "t_address",
        "label": "mapping(address => contract VToken[])",
        "numberOfBytes": "32",
        "value": "t_array(t_contract(VToken)17767)dyn_storage"
      },
      "t_mapping(t_address,t_bool)": {
        "encoding": "mapping",
        "key": "t_address",
        "label": "mapping(address => bool)",
        "numberOfBytes": "32",
        "value": "t_bool"
      },
      "t_mapping(t_address,t_mapping(t_address,t_bool))": {
        "encoding": "mapping",
        "key": "t_address",
        "label": "mapping(address => mapping(address => bool))",
        "numberOfBytes": "32",
        "value": "t_mapping(t_address,t_bool)"
      },
      "t_mapping(t_address,t_mapping(t_address,t_mapping(t_address,t_bool)))": {
        "encoding": "mapping",
        "key": "t_address",
        "label": "mapping(address => mapping(address => mapping(address => bool)))",
        "numberOfBytes": "32",
        "value": "t_mapping(t_address,t_mapping(t_address,t_bool))"
      },
      "t_mapping(t_address,t_mapping(t_address,t_uint256))": {
        "encoding": "mapping",
        "key": "t_address",
        "label": "mapping(address => mapping(address => uint256))",
        "numberOfBytes": "32",
        "value": "t_mapping(t_address,t_uint256)"
      },
      "t_mapping(t_address,t_mapping(t_uint256,t_bool))": {
        "encoding": "mapping",
        "key": "t_address",
        "label": "mapping(address => mapping(uint256 => bool))",
        "numberOfBytes": "32",
        "value": "t_mapping(t_uint256,t_bool)"
      },
      "t_mapping(t_address,t_struct(FacetFunctionSelectors)1930_storage)": {
        "encoding": "mapping",
        "key": "t_address",
        "label": "mapping(address => struct ComptrollerV13Storage.FacetFunctionSelectors)",
        "numberOfBytes": "32",
        "value": "t_struct(FacetFunctionSelectors)1930_storage"
      },
      "t_mapping(t_address,t_struct(VenusMarketState)1738_storage)": {
        "encoding": "mapping",
        "key": "t_address",
        "label": "mapping(address => struct ComptrollerV1Storage.VenusMarketState)",
        "numberOfBytes": "32",
        "value": "t_struct(VenusMarketState)1738_storage"
      },
      "t_mapping(t_address,t_uint256)": {
        "encoding": "mapping",
        "key": "t_address",
        "label": "mapping(address => uint256)",
        "numberOfBytes": "32",
        "value": "t_uint256"
      },
      "t_mapping(t_address,t_uint96)": {
        "encoding": "mapping",
        "key": "t_address",
        "label": "mapping(address => uint96)",
        "numberOfBytes": "32",
        "value": "t_uint96"
      },
      "t_mapping(t_bytes4,t_struct(FacetAddressAndPosition)1924_storage)": {
        "encoding": "mapping",
        "key": "t_bytes4",
        "label": "mapping(bytes4 => struct ComptrollerV13Storage.FacetAddressAndPosition)",
        "numberOfBytes": "32",
        "value": "t_struct(FacetAddressAndPosition)1924_storage"
      },
      "t_mapping(t_uint256,t_bool)": {
        "encoding": "mapping",
        "key": "t_uint256",
        "label": "mapping(uint256 => bool)",
        "numberOfBytes": "32",
        "value": "t_bool"
      },
      "t_mapping(t_uint96,t_struct(PoolData)1980_storage)": {
        "encoding": "mapping",
        "key": "t_uint96",
        "label": "mapping(uint96 => struct ComptrollerV17Storage.PoolData)",
        "numberOfBytes": "32",
        "value": "t_struct(PoolData)1980_storage"
      },
      "t_mapping(t_userDefinedValueType(PoolMarketId)11224,t_struct(Market)1699_storage)": {
        "encoding": "mapping",
        "key": "t_userDefinedValueType(PoolMarketId)11224",
        "label": "mapping(PoolMarketId => struct ComptrollerV1Storage.Market)",
        "numberOfBytes": "32",
        "value": "t_struct(Market)1699_storage"
      },
      "t_string_storage": {
        "encoding": "bytes",
        "label": "string",
        "numberOfBytes": "32"
      },
      "t_struct(FacetAddressAndPosition)1924_storage": {
        "encoding": "inplace",
        "label": "struct ComptrollerV13Storage.FacetAddressAndPosition",
        "members": [
          {
            "astId": 1921,
            "contract": "contracts/Comptroller/Diamond/facets/PolicyFacet.sol:PolicyFacet",
            "label": "facetAddress",
            "offset": 0,
            "slot": "0",
            "type": "t_address"
          },
          {
            "astId": 1923,
            "contract": "contracts/Comptroller/Diamond/facets/PolicyFacet.sol:PolicyFacet",
            "label": "functionSelectorPosition",
            "offset": 20,
            "slot": "0",
            "type": "t_uint96"
          }
        ],
        "numberOfBytes": "32"
      },
      "t_struct(FacetFunctionSelectors)1930_storage": {
        "encoding": "inplace",
        "label": "struct ComptrollerV13Storage.FacetFunctionSelectors",
        "members": [
          {
            "astId": 1927,
            "contract": "contracts/Comptroller/Diamond/facets/PolicyFacet.sol:PolicyFacet",
            "label": "functionSelectors",
            "offset": 0,
            "slot": "0",
            "type": "t_array(t_bytes4)dyn_storage"
          },
          {
            "astId": 1929,
            "contract": "contracts/Comptroller/Diamond/facets/PolicyFacet.sol:PolicyFacet",
            "label": "facetAddressPosition",
            "offset": 0,
            "slot": "1",
            "type": "t_uint256"
          }
        ],
        "numberOfBytes": "64"
      },
      "t_struct(Market)1699_storage": {
        "encoding": "inplace",
        "label": "struct ComptrollerV1Storage.Market",
        "members": [
          {
            "astId": 1675,
            "contract": "contracts/Comptroller/Diamond/facets/PolicyFacet.sol:PolicyFacet",
            "label": "isListed",
            "offset": 0,
            "slot": "0",
            "type": "t_bool"
          },
          {
            "astId": 1678,
            "contract": "contracts/Comptroller/Diamond/facets/PolicyFacet.sol:PolicyFacet",
            "label": "collateralFactorMantissa",
            "offset": 0,
            "slot": "1",
            "type": "t_uint256"
          },
          {
            "astId": 1683,
            "contract": "contracts/Comptroller/Diamond/facets/PolicyFacet.sol:PolicyFacet",
            "label": "accountMembership",
            "offset": 0,
            "slot": "2",
            "type": "t_mapping(t_address,t_bool)"
          },
          {
            "astId": 1686,
            "contract": "contracts/Comptroller/Diamond/facets/PolicyFacet.sol:PolicyFacet",
            "label": "isVenus",
            "offset": 0,
            "slot": "3",
            "type": "t_bool"
          },
          {
            "astId": 1689,
            "contract": "contracts/Comptroller/Diamond/facets/PolicyFacet.sol:PolicyFacet",
            "label": "liquidationThresholdMantissa",
            "offset": 0,
            "slot": "4",
            "type": "t_uint256"
          },
          {
            "astId": 1692,
            "contract": "contracts/Comptroller/Diamond/facets/PolicyFacet.sol:PolicyFacet",
            "label": "liquidationIncentiveMantissa",
            "offset": 0,
            "slot": "5",
            "type": "t_uint256"
          },
          {
            "astId": 1695,
            "contract": "contracts/Comptroller/Diamond/facets/PolicyFacet.sol:PolicyFacet",
            "label": "poolId",
            "offset": 0,
            "slot": "6",
            "type": "t_uint96"
          },
          {
            "astId": 1698,
            "contract": "contracts/Comptroller/Diamond/facets/PolicyFacet.sol:PolicyFacet",
            "label": "isBorrowAllowed",
            "offset": 12,
            "slot": "6",
            "type": "t_bool"
          }
        ],
        "numberOfBytes": "224"
      },
      "t_struct(PoolData)1980_storage": {
        "encoding": "inplace",
        "label": "struct ComptrollerV17Storage.PoolData",
        "members": [
          {
            "astId": 1975,
            "contract": "contracts/Comptroller/Diamond/facets/PolicyFacet.sol:PolicyFacet",
            "label": "label",
            "offset": 0,
            "slot": "0",
            "type": "t_string_storage"
          },
          {
            "astId": 1979,
            "contract": "contracts/Comptroller/Diamond/facets/PolicyFacet.sol:PolicyFacet",
            "label": "vTokens",
            "offset": 0,
            "slot": "1",
            "type": "t_array(t_address)dyn_storage"
          }
        ],
        "numberOfBytes": "64"
      },
      "t_struct(VenusMarketState)1738_storage": {
        "encoding": "inplace",
        "label": "struct ComptrollerV1Storage.VenusMarketState",
        "members": [
          {
            "astId": 1734,
            "contract": "contracts/Comptroller/Diamond/facets/PolicyFacet.sol:PolicyFacet",
            "label": "index",
            "offset": 0,
            "slot": "0",
            "type": "t_uint224"
          },
          {
            "astId": 1737,
            "contract": "contracts/Comptroller/Diamond/facets/PolicyFacet.sol:PolicyFacet",
            "label": "block",
            "offset": 28,
            "slot": "0",
            "type": "t_uint32"
          }
        ],
        "numberOfBytes": "32"
      },
      "t_uint224": {
        "encoding": "inplace",
        "label": "uint224",
        "numberOfBytes": "28"
      },
      "t_uint256": {
        "encoding": "inplace",
        "label": "uint256",
        "numberOfBytes": "32"
      },
      "t_uint32": {
        "encoding": "inplace",
        "label": "uint32",
        "numberOfBytes": "4"
      },
      "t_uint96": {
        "encoding": "inplace",
        "label": "uint96",
        "numberOfBytes": "12"
      },
      "t_userDefinedValueType(PoolMarketId)11224": {
        "encoding": "inplace",
        "label": "PoolMarketId",
        "numberOfBytes": "32"
      }
    }
  }
}