{
  "address": "0x440B18242a664194db9895a19c486a165a0662E2",
  "abi": [
    {
      "inputs": [],
      "name": "AlreadyInSelectedPool",
      "type": "error"
    },
    {
      "inputs": [],
      "name": "ArrayLengthMismatch",
      "type": "error"
    },
    {
      "inputs": [],
      "name": "BorrowNotAllowedInPool",
      "type": "error"
    },
    {
      "inputs": [],
      "name": "EmptyPoolLabel",
      "type": "error"
    },
    {
      "inputs": [],
      "name": "ExecuteFlashLoanFailed",
      "type": "error"
    },
    {
      "inputs": [],
      "name": "FailedToCreateDebtPosition",
      "type": "error"
    },
    {
      "inputs": [],
      "name": "FlashLoanNotEnabled",
      "type": "error"
    },
    {
      "inputs": [
        {
          "internalType": "uint96",
          "name": "poolId",
          "type": "uint96"
        }
      ],
      "name": "InactivePool",
      "type": "error"
    },
    {
      "inputs": [],
      "name": "IncompatibleBorrowedAssets",
      "type": "error"
    },
    {
      "inputs": [],
      "name": "InvalidAmount",
      "type": "error"
    },
    {
      "inputs": [],
      "name": "InvalidFlashLoanParams",
      "type": "error"
    },
    {
      "inputs": [],
      "name": "InvalidMode",
      "type": "error"
    },
    {
      "inputs": [],
      "name": "InvalidOperationForCorePool",
      "type": "error"
    },
    {
      "inputs": [
        {
          "internalType": "enum WeightFunction",
          "name": "strategy",
          "type": "uint8"
        }
      ],
      "name": "InvalidWeightingStrategy",
      "type": "error"
    },
    {
      "inputs": [
        {
          "internalType": "uint256",
          "name": "errorCode",
          "type": "uint256"
        },
        {
          "internalType": "uint256",
          "name": "shortfall",
          "type": "uint256"
        }
      ],
      "name": "LiquidityCheckFailed",
      "type": "error"
    },
    {
      "inputs": [
        {
          "internalType": "uint96",
          "name": "poolId",
          "type": "uint96"
        },
        {
          "internalType": "address",
          "name": "vToken",
          "type": "address"
        }
      ],
      "name": "MarketAlreadyListed",
      "type": "error"
    },
    {
      "inputs": [],
      "name": "MarketConfigNotFound",
      "type": "error"
    },
    {
      "inputs": [],
      "name": "MarketNotListedInCorePool",
      "type": "error"
    },
    {
      "inputs": [],
      "name": "NoAssetsRequested",
      "type": "error"
    },
    {
      "inputs": [
        {
          "internalType": "uint96",
          "name": "poolId",
          "type": "uint96"
        }
      ],
      "name": "PoolDoesNotExist",
      "type": "error"
    },
    {
      "inputs": [
        {
          "internalType": "uint96",
          "name": "poolId",
          "type": "uint96"
        },
        {
          "internalType": "address",
          "name": "vToken",
          "type": "address"
        }
      ],
      "name": "PoolMarketNotFound",
      "type": "error"
    },
    {
      "inputs": [
        {
          "internalType": "address",
          "name": "sender",
          "type": "address"
        }
      ],
      "name": "SenderNotAuthorizedForFlashLoan",
      "type": "error"
    },
    {
      "anonymous": false,
      "inputs": [
        {
          "indexed": true,
          "internalType": "contract VToken",
          "name": "vToken",
          "type": "address"
        },
        {
          "indexed": true,
          "internalType": "address",
          "name": "borrower",
          "type": "address"
        },
        {
          "indexed": false,
          "internalType": "uint256",
          "name": "venusDelta",
          "type": "uint256"
        },
        {
          "indexed": false,
          "internalType": "uint256",
          "name": "venusBorrowIndex",
          "type": "uint256"
        }
      ],
      "name": "DistributedBorrowerVenus",
      "type": "event"
    },
    {
      "anonymous": false,
      "inputs": [
        {
          "indexed": true,
          "internalType": "contract VToken",
          "name": "vToken",
          "type": "address"
        },
        {
          "indexed": true,
          "internalType": "address",
          "name": "supplier",
          "type": "address"
        },
        {
          "indexed": false,
          "internalType": "uint256",
          "name": "venusDelta",
          "type": "uint256"
        },
        {
          "indexed": false,
          "internalType": "uint256",
          "name": "venusSupplyIndex",
          "type": "uint256"
        }
      ],
      "name": "DistributedSupplierVenus",
      "type": "event"
    },
    {
      "anonymous": false,
      "inputs": [
        {
          "indexed": false,
          "internalType": "uint256",
          "name": "amount",
          "type": "uint256"
        }
      ],
      "name": "DistributedVAIVaultVenus",
      "type": "event"
    },
    {
      "anonymous": false,
      "inputs": [
        {
          "indexed": false,
          "internalType": "uint256",
          "name": "error",
          "type": "uint256"
        },
        {
          "indexed": false,
          "internalType": "uint256",
          "name": "info",
          "type": "uint256"
        },
        {
          "indexed": false,
          "internalType": "uint256",
          "name": "detail",
          "type": "uint256"
        }
      ],
      "name": "Failure",
      "type": "event"
    },
    {
      "anonymous": false,
      "inputs": [
        {
          "indexed": false,
          "internalType": "address",
          "name": "receiver",
          "type": "address"
        },
        {
          "indexed": false,
          "internalType": "contract VToken[]",
          "name": "assets",
          "type": "address[]"
        },
        {
          "indexed": false,
          "internalType": "uint256[]",
          "name": "amounts",
          "type": "uint256[]"
        }
      ],
      "name": "FlashLoanExecuted",
      "type": "event"
    },
    {
      "anonymous": false,
      "inputs": [
        {
          "indexed": true,
          "internalType": "contract VToken",
          "name": "vToken",
          "type": "address"
        },
        {
          "indexed": true,
          "internalType": "address",
          "name": "account",
          "type": "address"
        }
      ],
      "name": "MarketEntered",
      "type": "event"
    },
    {
      "anonymous": false,
      "inputs": [
        {
          "indexed": true,
          "internalType": "contract VToken",
          "name": "vToken",
          "type": "address"
        },
        {
          "indexed": false,
          "internalType": "uint256",
          "name": "newSpeed",
          "type": "uint256"
        }
      ],
      "name": "VenusBorrowSpeedUpdated",
      "type": "event"
    },
    {
      "anonymous": false,
      "inputs": [
        {
          "indexed": true,
          "internalType": "contract VToken",
          "name": "vToken",
          "type": "address"
        },
        {
          "indexed": false,
          "internalType": "uint256",
          "name": "newSpeed",
          "type": "uint256"
        }
      ],
      "name": "VenusSupplySpeedUpdated",
      "type": "event"
    },
    {
      "inputs": [
        {
          "internalType": "contract VToken[]",
          "name": "vTokens",
          "type": "address[]"
        },
        {
          "internalType": "uint256[]",
          "name": "supplySpeeds",
          "type": "uint256[]"
        },
        {
          "internalType": "uint256[]",
          "name": "borrowSpeeds",
          "type": "uint256[]"
        }
      ],
      "name": "_setVenusSpeeds",
      "outputs": [],
      "stateMutability": "nonpayable",
      "type": "function"
    },
    {
      "inputs": [
        {
          "internalType": "address",
          "name": "",
          "type": "address"
        },
        {
          "internalType": "uint256",
          "name": "",
          "type": "uint256"
        }
      ],
      "name": "accountAssets",
      "outputs": [
        {
          "internalType": "contract VToken",
          "name": "",
          "type": "address"
        }
      ],
      "stateMutability": "view",
      "type": "function"
    },
    {
      "inputs": [
        {
          "internalType": "address",
          "name": "market",
          "type": "address"
        },
        {
          "internalType": "enum Action",
          "name": "action",
          "type": "uint8"
        }
      ],
      "name": "actionPaused",
      "outputs": [
        {
          "internalType": "bool",
          "name": "",
          "type": "bool"
        }
      ],
      "stateMutability": "view",
      "type": "function"
    },
    {
      "inputs": [],
      "name": "admin",
      "outputs": [
        {
          "internalType": "address",
          "name": "",
          "type": "address"
        }
      ],
      "stateMutability": "view",
      "type": "function"
    },
    {
      "inputs": [
        {
          "internalType": "uint256",
          "name": "",
          "type": "uint256"
        }
      ],
      "name": "allMarkets",
      "outputs": [
        {
          "internalType": "contract VToken",
          "name": "",
          "type": "address"
        }
      ],
      "stateMutability": "view",
      "type": "function"
    },
    {
      "inputs": [
        {
          "internalType": "address",
          "name": "",
          "type": "address"
        },
        {
          "internalType": "address",
          "name": "",
          "type": "address"
        }
      ],
      "name": "approvedDelegates",
      "outputs": [
        {
          "internalType": "bool",
          "name": "",
          "type": "bool"
        }
      ],
      "stateMutability": "view",
      "type": "function"
    },
    {
      "inputs": [
        {
          "internalType": "address",
          "name": "",
          "type": "address"
        }
      ],
      "name": "authorizedFlashLoan",
      "outputs": [
        {
          "internalType": "bool",
          "name": "",
          "type": "bool"
        }
      ],
      "stateMutability": "view",
      "type": "function"
    },
    {
      "inputs": [
        {
          "internalType": "address",
          "name": "vToken",
          "type": "address"
        },
        {
          "internalType": "address",
          "name": "borrower",
          "type": "address"
        },
        {
          "internalType": "uint256",
          "name": "borrowAmount",
          "type": "uint256"
        }
      ],
      "name": "borrowAllowed",
      "outputs": [
        {
          "internalType": "uint256",
          "name": "",
          "type": "uint256"
        }
      ],
      "stateMutability": "nonpayable",
      "type": "function"
    },
    {
      "inputs": [],
      "name": "borrowCapGuardian",
      "outputs": [
        {
          "internalType": "address",
          "name": "",
          "type": "address"
        }
      ],
      "stateMutability": "view",
      "type": "function"
    },
    {
      "inputs": [
        {
          "internalType": "address",
          "name": "",
          "type": "address"
        }
      ],
      "name": "borrowCaps",
      "outputs": [
        {
          "internalType": "uint256",
          "name": "",
          "type": "uint256"
        }
      ],
      "stateMutability": "view",
      "type": "function"
    },
    {
      "inputs": [
        {
          "internalType": "address",
          "name": "vToken",
          "type": "address"
        },
        {
          "internalType": "address",
          "name": "borrower",
          "type": "address"
        },
        {
          "internalType": "uint256",
          "name": "borrowAmount",
          "type": "uint256"
        }
      ],
      "name": "borrowVerify",
      "outputs": [],
      "stateMutability": "nonpayable",
      "type": "function"
    },
    {
      "inputs": [],
      "name": "closeFactorMantissa",
      "outputs": [
        {
          "internalType": "uint256",
          "name": "",
          "type": "uint256"
        }
      ],
      "stateMutability": "view",
      "type": "function"
    },
    {
      "inputs": [],
      "name": "comptrollerImplementation",
      "outputs": [
        {
          "internalType": "address",
          "name": "",
          "type": "address"
        }
      ],
      "stateMutability": "view",
      "type": "function"
    },
    {
      "inputs": [],
      "name": "comptrollerLens",
      "outputs": [
        {
          "internalType": "contract ComptrollerLensInterface",
          "name": "",
          "type": "address"
        }
      ],
      "stateMutability": "view",
      "type": "function"
    },
    {
      "inputs": [],
      "name": "corePoolId",
      "outputs": [
        {
          "internalType": "uint96",
          "name": "",
          "type": "uint96"
        }
      ],
      "stateMutability": "view",
      "type": "function"
    },
    {
      "inputs": [
        {
          "internalType": "address payable",
          "name": "initiator",
          "type": "address"
        },
        {
          "internalType": "address payable",
          "name": "receiver",
          "type": "address"
        },
        {
          "internalType": "contract VToken[]",
          "name": "vTokens",
          "type": "address[]"
        },
        {
          "internalType": "uint256[]",
          "name": "underlyingAmounts",
          "type": "uint256[]"
        },
        {
          "internalType": "bytes",
          "name": "param",
          "type": "bytes"
        }
      ],
      "name": "executeFlashLoan",
      "outputs": [],
      "stateMutability": "nonpayable",
      "type": "function"
    },
    {
      "inputs": [
        {
          "internalType": "address",
          "name": "account",
          "type": "address"
        }
      ],
      "name": "getAccountLiquidity",
      "outputs": [
        {
          "internalType": "uint256",
          "name": "",
          "type": "uint256"
        },
        {
          "internalType": "uint256",
          "name": "",
          "type": "uint256"
        },
        {
          "internalType": "uint256",
          "name": "",
          "type": "uint256"
        }
      ],
      "stateMutability": "view",
      "type": "function"
    },
    {
      "inputs": [
        {
          "internalType": "address",
          "name": "account",
          "type": "address"
        }
      ],
      "name": "getBorrowingPower",
      "outputs": [
        {
          "internalType": "uint256",
          "name": "",
          "type": "uint256"
        },
        {
          "internalType": "uint256",
          "name": "",
          "type": "uint256"
        },
        {
          "internalType": "uint256",
          "name": "",
          "type": "uint256"
        }
      ],
      "stateMutability": "view",
      "type": "function"
    },
    {
      "inputs": [
        {
          "internalType": "address",
          "name": "account",
          "type": "address"
        },
        {
          "internalType": "address",
          "name": "vTokenModify",
          "type": "address"
        },
        {
          "internalType": "uint256",
          "name": "redeemTokens",
          "type": "uint256"
        },
        {
          "internalType": "uint256",
          "name": "borrowAmount",
          "type": "uint256"
        }
      ],
      "name": "getHypotheticalAccountLiquidity",
      "outputs": [
        {
          "internalType": "uint256",
          "name": "",
          "type": "uint256"
        },
        {
          "internalType": "uint256",
          "name": "",
          "type": "uint256"
        },
        {
          "internalType": "uint256",
          "name": "",
          "type": "uint256"
        }
      ],
      "stateMutability": "view",
      "type": "function"
    },
    {
      "inputs": [
        {
          "internalType": "uint96",
          "name": "poolId",
          "type": "uint96"
        },
        {
          "internalType": "address",
          "name": "vToken",
          "type": "address"
        }
      ],
      "name": "getPoolMarketIndex",
      "outputs": [
        {
          "internalType": "PoolMarketId",
          "name": "",
          "type": "bytes32"
        }
      ],
      "stateMutability": "pure",
      "type": "function"
    },
    {
      "inputs": [],
      "name": "getXVSAddress",
      "outputs": [
        {
          "internalType": "address",
          "name": "",
          "type": "address"
        }
      ],
      "stateMutability": "view",
      "type": "function"
    },
    {
      "inputs": [
        {
          "internalType": "address",
          "name": "",
          "type": "address"
        }
      ],
      "name": "isForcedLiquidationEnabled",
      "outputs": [
        {
          "internalType": "bool",
          "name": "",
          "type": "bool"
        }
      ],
      "stateMutability": "view",
      "type": "function"
    },
    {
      "inputs": [
        {
          "internalType": "address",
          "name": "user",
          "type": "address"
        },
        {
          "internalType": "address",
          "name": "market",
          "type": "address"
        }
      ],
      "name": "isForcedLiquidationEnabledForUser",
      "outputs": [
        {
          "internalType": "bool",
          "name": "",
          "type": "bool"
        }
      ],
      "stateMutability": "view",
      "type": "function"
    },
    {
      "inputs": [],
      "name": "lastPoolId",
      "outputs": [
        {
          "internalType": "uint96",
          "name": "",
          "type": "uint96"
        }
      ],
      "stateMutability": "view",
      "type": "function"
    },
    {
      "inputs": [
        {
          "internalType": "address",
          "name": "vTokenBorrowed",
          "type": "address"
        },
        {
          "internalType": "address",
          "name": "vTokenCollateral",
          "type": "address"
        },
        {
          "internalType": "address",
          "name": "liquidator",
          "type": "address"
        },
        {
          "internalType": "address",
          "name": "borrower",
          "type": "address"
        },
        {
          "internalType": "uint256",
          "name": "repayAmount",
          "type": "uint256"
        }
      ],
      "name": "liquidateBorrowAllowed",
      "outputs": [
        {
          "internalType": "uint256",
          "name": "",
          "type": "uint256"
        }
      ],
      "stateMutability": "view",
      "type": "function"
    },
    {
      "inputs": [
        {
          "internalType": "address",
          "name": "vTokenBorrowed",
          "type": "address"
        },
        {
          "internalType": "address",
          "name": "vTokenCollateral",
          "type": "address"
        },
        {
          "internalType": "address",
          "name": "liquidator",
          "type": "address"
        },
        {
          "internalType": "address",
          "name": "borrower",
          "type": "address"
        },
        {
          "internalType": "uint256",
          "name": "actualRepayAmount",
          "type": "uint256"
        },
        {
          "internalType": "uint256",
          "name": "seizeTokens",
          "type": "uint256"
        }
      ],
      "name": "liquidateBorrowVerify",
      "outputs": [],
      "stateMutability": "nonpayable",
      "type": "function"
    },
    {
      "inputs": [],
      "name": "liquidatorContract",
      "outputs": [
        {
          "internalType": "address",
          "name": "",
          "type": "address"
        }
      ],
      "stateMutability": "view",
      "type": "function"
    },
    {
      "inputs": [],
      "name": "maxAssets",
      "outputs": [
        {
          "internalType": "uint256",
          "name": "",
          "type": "uint256"
        }
      ],
      "stateMutability": "view",
      "type": "function"
    },
    {
      "inputs": [],
      "name": "minReleaseAmount",
      "outputs": [
        {
          "internalType": "uint256",
          "name": "",
          "type": "uint256"
        }
      ],
      "stateMutability": "view",
      "type": "function"
    },
    {
      "inputs": [
        {
          "internalType": "address",
          "name": "vToken",
          "type": "address"
        },
        {
          "internalType": "address",
          "name": "minter",
          "type": "address"
        },
        {
          "internalType": "uint256",
          "name": "mintAmount",
          "type": "uint256"
        }
      ],
      "name": "mintAllowed",
      "outputs": [
        {
          "internalType": "uint256",
          "name": "",
          "type": "uint256"
        }
      ],
      "stateMutability": "nonpayable",
      "type": "function"
    },
    {
      "inputs": [],
      "name": "mintVAIGuardianPaused",
      "outputs": [
        {
          "internalType": "bool",
          "name": "",
          "type": "bool"
        }
      ],
      "stateMutability": "view",
      "type": "function"
    },
    {
      "inputs": [
        {
          "internalType": "address",
          "name": "vToken",
          "type": "address"
        },
        {
          "internalType": "address",
          "name": "minter",
          "type": "address"
        },
        {
          "internalType": "uint256",
          "name": "actualMintAmount",
          "type": "uint256"
        },
        {
          "internalType": "uint256",
          "name": "mintTokens",
          "type": "uint256"
        }
      ],
      "name": "mintVerify",
      "outputs": [],
      "stateMutability": "nonpayable",
      "type": "function"
    },
    {
      "inputs": [
        {
          "internalType": "address",
          "name": "",
          "type": "address"
        }
      ],
      "name": "mintedVAIs",
      "outputs": [
        {
          "internalType": "uint256",
          "name": "",
          "type": "uint256"
        }
      ],
      "stateMutability": "view",
      "type": "function"
    },
    {
      "inputs": [],
      "name": "oracle",
      "outputs": [
        {
          "internalType": "contract ResilientOracleInterface",
          "name": "",
          "type": "address"
        }
      ],
      "stateMutability": "view",
      "type": "function"
    },
    {
      "inputs": [],
      "name": "pauseGuardian",
      "outputs": [
        {
          "internalType": "address",
          "name": "",
          "type": "address"
        }
      ],
      "stateMutability": "view",
      "type": "function"
    },
    {
      "inputs": [],
      "name": "pendingAdmin",
      "outputs": [
        {
          "internalType": "address",
          "name": "",
          "type": "address"
        }
      ],
      "stateMutability": "view",
      "type": "function"
    },
    {
      "inputs": [],
      "name": "pendingComptrollerImplementation",
      "outputs": [
        {
          "internalType": "address",
          "name": "",
          "type": "address"
        }
      ],
      "stateMutability": "view",
      "type": "function"
    },
    {
      "inputs": [
        {
          "internalType": "uint96",
          "name": "",
          "type": "uint96"
        }
      ],
      "name": "pools",
      "outputs": [
        {
          "internalType": "string",
          "name": "label",
          "type": "string"
        },
        {
          "internalType": "bool",
          "name": "isActive",
          "type": "bool"
        },
        {
          "internalType": "bool",
          "name": "allowCorePoolFallback",
          "type": "bool"
        }
      ],
      "stateMutability": "view",
      "type": "function"
    },
    {
      "inputs": [],
      "name": "prime",
      "outputs": [
        {
          "internalType": "contract IPrime",
          "name": "",
          "type": "address"
        }
      ],
      "stateMutability": "view",
      "type": "function"
    },
    {
      "inputs": [],
      "name": "protocolPaused",
      "outputs": [
        {
          "internalType": "bool",
          "name": "",
          "type": "bool"
        }
      ],
      "stateMutability": "view",
      "type": "function"
    },
    {
      "inputs": [
        {
          "internalType": "address",
          "name": "vToken",
          "type": "address"
        },
        {
          "internalType": "address",
          "name": "redeemer",
          "type": "address"
        },
        {
          "internalType": "uint256",
          "name": "redeemTokens",
          "type": "uint256"
        }
      ],
      "name": "redeemAllowed",
      "outputs": [
        {
          "internalType": "uint256",
          "name": "",
          "type": "uint256"
        }
      ],
      "stateMutability": "nonpayable",
      "type": "function"
    },
    {
      "inputs": [
        {
          "internalType": "address",
          "name": "vToken",
          "type": "address"
        },
        {
          "internalType": "address",
          "name": "redeemer",
          "type": "address"
        },
        {
          "internalType": "uint256",
          "name": "redeemAmount",
          "type": "uint256"
        },
        {
          "internalType": "uint256",
          "name": "redeemTokens",
          "type": "uint256"
        }
      ],
      "name": "redeemVerify",
      "outputs": [],
      "stateMutability": "nonpayable",
      "type": "function"
    },
    {
      "inputs": [],
      "name": "releaseStartBlock",
      "outputs": [
        {
          "internalType": "uint256",
          "name": "",
          "type": "uint256"
        }
      ],
      "stateMutability": "view",
      "type": "function"
    },
    {
      "inputs": [
        {
          "internalType": "address",
          "name": "vToken",
          "type": "address"
        },
        {
          "internalType": "address",
          "name": "payer",
          "type": "address"
        },
        {
          "internalType": "address",
          "name": "borrower",
          "type": "address"
        },
        {
          "internalType": "uint256",
          "name": "repayAmount",
          "type": "uint256"
        }
      ],
      "name": "repayBorrowAllowed",
      "outputs": [
        {
          "internalType": "uint256",
          "name": "",
          "type": "uint256"
        }
      ],
      "stateMutability": "nonpayable",
      "type": "function"
    },
    {
      "inputs": [
        {
          "internalType": "address",
          "name": "vToken",
          "type": "address"
        },
        {
          "internalType": "address",
          "name": "payer",
          "type": "address"
        },
        {
          "internalType": "address",
          "name": "borrower",
          "type": "address"
        },
        {
          "internalType": "uint256",
          "name": "actualRepayAmount",
          "type": "uint256"
        },
        {
          "internalType": "uint256",
          "name": "borrowerIndex",
          "type": "uint256"
        }
      ],
      "name": "repayBorrowVerify",
      "outputs": [],
      "stateMutability": "nonpayable",
      "type": "function"
    },
    {
      "inputs": [],
      "name": "repayVAIGuardianPaused",
      "outputs": [
        {
          "internalType": "bool",
          "name": "",
          "type": "bool"
        }
      ],
      "stateMutability": "view",
      "type": "function"
    },
    {
      "inputs": [
        {
          "internalType": "address",
          "name": "vTokenCollateral",
          "type": "address"
        },
        {
          "internalType": "address",
          "name": "vTokenBorrowed",
          "type": "address"
        },
        {
          "internalType": "address",
          "name": "liquidator",
          "type": "address"
        },
        {
          "internalType": "address",
          "name": "borrower",
          "type": "address"
        },
        {
          "internalType": "uint256",
          "name": "seizeTokens",
          "type": "uint256"
        }
      ],
      "name": "seizeAllowed",
      "outputs": [
        {
          "internalType": "uint256",
          "name": "",
          "type": "uint256"
        }
      ],
      "stateMutability": "nonpayable",
      "type": "function"
    },
    {
      "inputs": [
        {
          "internalType": "address",
          "name": "vTokenCollateral",
          "type": "address"
        },
        {
          "internalType": "address",
          "name": "vTokenBorrowed",
          "type": "address"
        },
        {
          "internalType": "address",
          "name": "liquidator",
          "type": "address"
        },
        {
          "internalType": "address",
          "name": "borrower",
          "type": "address"
        },
        {
          "internalType": "uint256",
          "name": "seizeTokens",
          "type": "uint256"
        }
      ],
      "name": "seizeVerify",
      "outputs": [],
      "stateMutability": "nonpayable",
      "type": "function"
    },
    {
      "inputs": [
        {
          "internalType": "address",
          "name": "",
          "type": "address"
        }
      ],
      "name": "supplyCaps",
      "outputs": [
        {
          "internalType": "uint256",
          "name": "",
          "type": "uint256"
        }
      ],
      "stateMutability": "view",
      "type": "function"
    },
    {
      "inputs": [
        {
          "internalType": "address",
          "name": "vToken",
          "type": "address"
        },
        {
          "internalType": "address",
          "name": "src",
          "type": "address"
        },
        {
          "internalType": "address",
          "name": "dst",
          "type": "address"
        },
        {
          "internalType": "uint256",
          "name": "transferTokens",
          "type": "uint256"
        }
      ],
      "name": "transferAllowed",
      "outputs": [
        {
          "internalType": "uint256",
          "name": "",
          "type": "uint256"
        }
      ],
      "stateMutability": "nonpayable",
      "type": "function"
    },
    {
      "inputs": [
        {
          "internalType": "address",
          "name": "vToken",
          "type": "address"
        },
        {
          "internalType": "address",
          "name": "src",
          "type": "address"
        },
        {
          "internalType": "address",
          "name": "dst",
          "type": "address"
        },
        {
          "internalType": "uint256",
          "name": "transferTokens",
          "type": "uint256"
        }
      ],
      "name": "transferVerify",
      "outputs": [],
      "stateMutability": "nonpayable",
      "type": "function"
    },
    {
      "inputs": [],
      "name": "treasuryAddress",
      "outputs": [
        {
          "internalType": "address",
          "name": "",
          "type": "address"
        }
      ],
      "stateMutability": "view",
      "type": "function"
    },
    {
      "inputs": [],
      "name": "treasuryGuardian",
      "outputs": [
        {
          "internalType": "address",
          "name": "",
          "type": "address"
        }
      ],
      "stateMutability": "view",
      "type": "function"
    },
    {
      "inputs": [],
      "name": "treasuryPercent",
      "outputs": [
        {
          "internalType": "uint256",
          "name": "",
          "type": "uint256"
        }
      ],
      "stateMutability": "view",
      "type": "function"
    },
    {
      "inputs": [
        {
          "internalType": "address",
          "name": "",
          "type": "address"
        }
      ],
      "name": "userPoolId",
      "outputs": [
        {
          "internalType": "uint96",
          "name": "",
          "type": "uint96"
        }
      ],
      "stateMutability": "view",
      "type": "function"
    },
    {
      "inputs": [],
      "name": "vaiController",
      "outputs": [
        {
          "internalType": "contract VAIControllerInterface",
          "name": "",
          "type": "address"
        }
      ],
      "stateMutability": "view",
      "type": "function"
    },
    {
      "inputs": [],
      "name": "vaiMintRate",
      "outputs": [
        {
          "internalType": "uint256",
          "name": "",
          "type": "uint256"
        }
      ],
      "stateMutability": "view",
      "type": "function"
    },
    {
      "inputs": [],
      "name": "vaiVaultAddress",
      "outputs": [
        {
          "internalType": "address",
          "name": "",
          "type": "address"
        }
      ],
      "stateMutability": "view",
      "type": "function"
    },
    {
      "inputs": [
        {
          "internalType": "address",
          "name": "",
          "type": "address"
        }
      ],
      "name": "venusAccrued",
      "outputs": [
        {
          "internalType": "uint256",
          "name": "",
          "type": "uint256"
        }
      ],
      "stateMutability": "view",
      "type": "function"
    },
    {
      "inputs": [
        {
          "internalType": "address",
          "name": "",
          "type": "address"
        }
      ],
      "name": "venusBorrowSpeeds",
      "outputs": [
        {
          "internalType": "uint256",
          "name": "",
          "type": "uint256"
        }
      ],
      "stateMutability": "view",
      "type": "function"
    },
    {
      "inputs": [
        {
          "internalType": "address",
          "name": "",
          "type": "address"
        }
      ],
      "name": "venusBorrowState",
      "outputs": [
        {
          "internalType": "uint224",
          "name": "index",
          "type": "uint224"
        },
        {
          "internalType": "uint32",
          "name": "block",
          "type": "uint32"
        }
      ],
      "stateMutability": "view",
      "type": "function"
    },
    {
      "inputs": [
        {
          "internalType": "address",
          "name": "",
          "type": "address"
        },
        {
          "internalType": "address",
          "name": "",
          "type": "address"
        }
      ],
      "name": "venusBorrowerIndex",
      "outputs": [
        {
          "internalType": "uint256",
          "name": "",
          "type": "uint256"
        }
      ],
      "stateMutability": "view",
      "type": "function"
    },
    {
      "inputs": [],
      "name": "venusInitialIndex",
      "outputs": [
        {
          "internalType": "uint224",
          "name": "",
          "type": "uint224"
        }
      ],
      "stateMutability": "view",
      "type": "function"
    },
    {
      "inputs": [
        {
          "internalType": "address",
          "name": "",
          "type": "address"
        },
        {
          "internalType": "address",
          "name": "",
          "type": "address"
        }
      ],
      "name": "venusSupplierIndex",
      "outputs": [
        {
          "internalType": "uint256",
          "name": "",
          "type": "uint256"
        }
      ],
      "stateMutability": "view",
      "type": "function"
    },
    {
      "inputs": [
        {
          "internalType": "address",
          "name": "",
          "type": "address"
        }
      ],
      "name": "venusSupplySpeeds",
      "outputs": [
        {
          "internalType": "uint256",
          "name": "",
          "type": "uint256"
        }
      ],
      "stateMutability": "view",
      "type": "function"
    },
    {
      "inputs": [
        {
          "internalType": "address",
          "name": "",
          "type": "address"
        }
      ],
      "name": "venusSupplyState",
      "outputs": [
        {
          "internalType": "uint224",
          "name": "index",
          "type": "uint224"
        },
        {
          "internalType": "uint32",
          "name": "block",
          "type": "uint32"
        }
      ],
      "stateMutability": "view",
      "type": "function"
    },
    {
      "inputs": [],
      "name": "venusVAIVaultRate",
      "outputs": [
        {
          "internalType": "uint256",
          "name": "",
          "type": "uint256"
        }
      ],
      "stateMutability": "view",
      "type": "function"
    }
  ],
  "transactionHash": "0xa4b7d74ccbb780db9b3af58823306fa9c627d75e4e74eb3b202b3f75b18aab41",
  "args": [],
  "numDeployments": 7,
  "solcInputHash": "c94efa68858e9e0522e68bfc6cf43cc0",
  "bytecode": "0x6080604052348015600e575f80fd5b506144338061001c5f395ff3fe608060405234801561000f575f80fd5b50600436106103e0575f3560e01c80637d172bd51161020b578063c5f956af1161011f578063e0f6123d116100b4578063eabe7d9111610084578063eabe7d91146109f4578063ead1a8a014610a07578063f445d70314610a1a578063f851a44014610a47578063fa6331d814610a59575f80fd5b8063e0f6123d1461097f578063e37d4b79146109a1578063e85a2960146109d8578063e8755446146109eb575f80fd5b8063d463654c116100ef578063d463654c1461093f578063da3d454c14610946578063dce1544914610959578063dcfbc0c71461096c575f80fd5b8063c5f956af146108f3578063c7ee005e14610906578063d02f735114610919578063d3270f991461092c575f80fd5b8063a657e579116101a0578063bbb8864a11610170578063bbb8864a1461087a578063bdcdc25814610899578063bec04f72146108ac578063bf32442d146108b5578063c5b4db55146108c6575f80fd5b8063a657e579146107e6578063b2eafc39146107f9578063b8324c7c1461080c578063bb82aa5e14610867575f80fd5b80639254f5e5116101db5780639254f5e51461079657806394b2294b146107a957806396c99064146107b25780639bb27d62146107d3575f80fd5b80637d172bd51461072f5780637dc0d1d0146107425780638a7dc165146107555780638c1ac18a14610774575f80fd5b80634a584432116103025780635c778605116102975780636a56947e116102675780636a56947e146106ae5780636d35bf91146106c1578063719f701b146106d457806373769099146106dd578063765513831461071d575f80fd5b80635c778605146106565780635dd3fc9d146106695780635ec88c79146106885780635fc7e71e1461069b575f80fd5b806351dff989116102d257806351dff9891461060a578063528a174c1461061d57806352d84d1e146106305780635544ed9c14610643575f80fd5b80634a584432146105975780634d99c776146105b65780634e79238f146105c95780634ef4c3e1146105f7575f80fd5b806324a3d6221161037857806341a18d2c1161034857806341a18d2c1461053457806341c728b91461055e578063425fad581461057157806347ef3b3b14610584575f80fd5b806324a3d622146104e257806326782247146104f55780632bc7e29e146105085780634088c73e14610527575f80fd5b806310b98338116103b357806310b98338146104525780631ededc911461048f57806321af4569146104a457806324008a62146104cf575f80fd5b806302c3bcbb146103e457806304ef9d581461041657806308e0225c1461041f5780630db4b4e514610449575b5f80fd5b6104036103f23660046139ad565b60276020525f908152604090205481565b6040519081526020015b60405180910390f35b61040360225481565b61040361042d3660046139c8565b601360209081525f928352604080842090915290825290205481565b610403601d5481565b61047f6104603660046139c8565b602c60209081525f928352604080842090915290825290205460ff1681565b604051901515815260200161040d565b6104a261049d3660046139ff565b610a62565b005b601e546104b7906001600160a01b031681565b6040516001600160a01b03909116815260200161040d565b6104036104dd366004613a56565b610ada565b600a546104b7906001600160a01b031681565b6001546104b7906001600160a01b031681565b6104036105163660046139ad565b60166020525f908152604090205481565b60185461047f9060ff1681565b6104036105423660046139c8565b601260209081525f928352604080842090915290825290205481565b6104a261056c366004613aa4565b610b92565b60185461047f9062010000900460ff1681565b6104a2610592366004613ae7565b610c09565b6104036105a53660046139ad565b601f6020525f908152604090205481565b6104036105c4366004613b6c565b610ce1565b6105dc6105d7366004613aa4565b610d02565b6040805193845260208401929092529082015260600161040d565b610403610605366004613b86565b610d3c565b6104a2610618366004613aa4565b610f14565b6105dc61062b3660046139ad565b610f60565b6104b761063e366004613bc4565b610f7a565b6104a2610651366004613d1b565b610fa2565b6104a2610664366004613b86565b611164565b6104036106773660046139ad565b602b6020525f908152604090205481565b6105dc6106963660046139ad565b6111da565b6104036106a9366004613e20565b6111e8565b6104a26106bc366004613a56565b611438565b6104a26106cf366004613e20565b6114da565b610403601c5481565b6107056106eb3660046139ad565b60356020525f90815260409020546001600160601b031681565b6040516001600160601b03909116815260200161040d565b60185461047f90610100900460ff1681565b601b546104b7906001600160a01b031681565b6004546104b7906001600160a01b031681565b6104036107633660046139ad565b60146020525f908152604090205481565b61047f6107823660046139ad565b602d6020525f908152604090205460ff1681565b6015546104b7906001600160a01b031681565b61040360075481565b6107c56107c0366004613e80565b61157c565b60405161040d929190613ec7565b6025546104b7906001600160a01b031681565b603754610705906001600160601b031681565b6020546104b7906001600160a01b031681565b61084361081a3660046139ad565b60106020525f90815260409020546001600160e01b03811690600160e01b900463ffffffff1682565b604080516001600160e01b03909316835263ffffffff90911660208301520161040d565b6002546104b7906001600160a01b031681565b6104036108883660046139ad565b602a6020525f908152604090205481565b6104036108a7366004613a56565b611620565b61040360175481565b6033546001600160a01b03166104b7565b6108db6a0c097ce7bc90715b34b9f160241b81565b6040516001600160e01b03909116815260200161040d565b6021546104b7906001600160a01b031681565b6031546104b7906001600160a01b031681565b610403610927366004613e20565b61166c565b6026546104b7906001600160a01b031681565b6107055f81565b610403610954366004613b86565b6117e5565b6104b7610967366004613eea565b611b54565b6003546104b7906001600160a01b031681565b61047f61098d3660046139ad565b60386020525f908152604090205460ff1681565b6108436109af3660046139ad565b60116020525f90815260409020546001600160e01b03811690600160e01b900463ffffffff1682565b61047f6109e6366004613f14565b611b88565b61040360055481565b610403610a02366004613b86565b611bcc565b6104a2610a15366004613f8b565b611c18565b61047f610a283660046139c8565b603260209081525f928352604080842090915290825290205460ff1681565b5f546104b7906001600160a01b031681565b610403601a5481565b6031546001600160a01b031615610ad3576031546040516367994e8b60e11b81526001600160a01b039091169063cf329d1690610aa5908690899060040161401e565b5f604051808303815f87803b158015610abc575f80fd5b505af1158015610ace573d5f803e3d5ffd5b505050505b5050505050565b5f610ae3611d0d565b610aee856003611d5d565b610aff610afa86611dab565b611dcd565b5f6040518060200160405280876001600160a01b031663aa5af0fd6040518163ffffffff1660e01b8152600401602060405180830381865afa158015610b47573d5f803e3d5ffd5b505050506040513d601f19601f82011682018060405250810190610b6b9190614038565b90529050610b798682611e15565b610b84868583611fac565b5f5b9150505b949350505050565b6031546001600160a01b031615610c03576031546040516367994e8b60e11b81526001600160a01b039091169063cf329d1690610bd5908690889060040161401e565b5f604051808303815f87803b158015610bec575f80fd5b505af1158015610bfe573d5f803e3d5ffd5b505050505b50505050565b6031546001600160a01b031615610cd9576031546040516367994e8b60e11b81526001600160a01b039091169063cf329d1690610c4c9086908a9060040161401e565b5f604051808303815f87803b158015610c63575f80fd5b505af1158015610c75573d5f803e3d5ffd5b50506031546040516367994e8b60e11b81526001600160a01b03909116925063cf329d169150610cab9087908a9060040161401e565b5f604051808303815f87803b158015610cc2575f80fd5b505af1158015610cd4573d5f803e3d5ffd5b505050505b505050505050565b6001600160a01b031960a083901b166001600160a01b038216175b92915050565b5f805f805f80610d158a8a8a8a5f612130565b925092509250826014811115610d2d57610d2d61404f565b9a919950975095505050505050565b5f610d45611d0d565b610d4f845f611d5d565b610d5b610afa85611dab565b6001600160a01b0384165f9081526027602052604081205490819003610dc15760405162461bcd60e51b815260206004820152601660248201527506d61726b657420737570706c792063617020697320360541b60448201526064015b60405180910390fd5b5f856001600160a01b03166318160ddd6040518163ffffffff1660e01b8152600401602060405180830381865afa158015610dfe573d5f803e3d5ffd5b505050506040513d601f19601f82011682018060405250810190610e229190614038565b90505f6040518060200160405280886001600160a01b031663182df0f56040518163ffffffff1660e01b8152600401602060405180830381865afa158015610e6c573d5f803e3d5ffd5b505050506040513d601f19601f82011682018060405250810190610e909190614038565b905290505f610ea08284886121dd565b905083811115610ef25760405162461bcd60e51b815260206004820152601960248201527f6d61726b657420737570706c79206361702072656163686564000000000000006044820152606401610db8565b610efb886121fd565b610f05888861236a565b5f9450505050505b9392505050565b80151580610f20575081155b610b925760405162461bcd60e51b815260206004820152601160248201527072656465656d546f6b656e73207a65726f60781b6044820152606401610db8565b5f805f610f6d845f612508565b9250925092509193909250565b600d8181548110610f89575f80fd5b5f918252602090912001546001600160a01b0316905081565b5f5b835181101561108457838181518110610fbf57610fbf614063565b60200260200101516001600160a01b031663ae3fcb1f6040518163ffffffff1660e01b8152600401602060405180830381865afa158015611002573d5f803e3d5ffd5b505050506040513d601f19601f820116820180604052508101906110269190614086565b61104357604051630a3fad8360e01b815260040160405180910390fd5b82818151811061105557611055614063565b60200260200101515f0361107c5760405163162908e360e11b815260040160405180910390fd5b600101610fa4565b5082515f036110a65760405163bd96af5b60e01b815260040160405180910390fd5b81518351146110c85760405163aa6eb14560e01b815260040160405180910390fd5b6110d184612540565b6001600160a01b0385165f9081526038602052604090205460ff16611114576040516319d14ecf60e01b81526001600160a01b0386166004820152602401610db8565b611121858585858561258e565b507f785e5057f6e5f2e298f8dce2755a6ef29f9dd8a0f82a8b5cad101ea5ef803f0484848460405161115593929190614111565b60405180910390a15050505050565b6031546001600160a01b0316156111d5576031546040516367994e8b60e11b81526001600160a01b039091169063cf329d16906111a7908590879060040161401e565b5f604051808303815f87803b1580156111be575f80fd5b505af11580156111d0573d5f803e3d5ffd5b505050505b505050565b5f805f610f6d846001612508565b5f6111f1611d0d565b6111fc866005611d5d565b6025546001600160a01b03161580159061122457506025546001600160a01b03858116911614155b156112315750600161142f565b61123d610afa86611dab565b6015545f906001600160a01b038881169116146112cf57611260610afa88611dab565b6040516395dd919360e01b81526001600160a01b0385811660048301528816906395dd919390602401602060405180830381865afa1580156112a4573d5f803e3d5ffd5b505050506040513d601f19601f820116820180604052508101906112c89190614038565b905061133e565b601554604051633c617c9160e11b81526001600160a01b038681166004830152909116906378c2f92290602401602060405180830381865afa158015611317573d5f803e3d5ffd5b505050506040513d601f19601f8201168201806040525081019061133b9190614038565b90505b6001600160a01b0387165f908152602d602052604090205460ff168061138857506001600160a01b038085165f908152603260209081526040808320938b168352929052205460ff165b156113a657808311156113a05760115b91505061142f565b5f611398565b5f806113b6865f805f6001612130565b9193509091505f90508260148111156113d1576113d161404f565b146113f2578160148111156113e8576113e861404f565b935050505061142f565b805f036114005760036113e8565b61141a604051806020016040528060055481525084612761565b8511156114285760116113e8565b5f93505050505b95945050505050565b6031546001600160a01b031615610c03576031546040516367994e8b60e11b81526001600160a01b039091169063cf329d169061147b908690889060040161401e565b5f604051808303815f87803b158015611492575f80fd5b505af11580156114a4573d5f803e3d5ffd5b50506031546040516367994e8b60e11b81526001600160a01b03909116925063cf329d169150610bd5908590889060040161401e565b6031546001600160a01b031615610ad3576031546040516367994e8b60e11b81526001600160a01b039091169063cf329d169061151d908590899060040161401e565b5f604051808303815f87803b158015611534575f80fd5b505af1158015611546573d5f803e3d5ffd5b50506031546040516367994e8b60e11b81526001600160a01b03909116925063cf329d169150610aa5908690899060040161401e565b60366020525f908152604090208054819061159690614146565b80601f01602080910402602001604051908101604052809291908181526020018280546115c290614146565b801561160d5780601f106115e45761010080835404028352916020019161160d565b820191905f5260205f20905b8154815290600101906020018083116115f057829003601f168201915b5050506002909301549192505060ff1682565b5f611629611d0d565b611634856006611d5d565b5f611640868685612778565b9050801561164f579050610b8a565b611658866121fd565b611662868661236a565b610b84868561236a565b5f611675611d0d565b611680866004611d5d565b5f61168a87611dab565b905061169581611dcd565b6001600160a01b0384165f90815260028201602052604090205460ff166116bd576013611398565b6015546001600160a01b038781169116146116de576116de610afa87611dab565b856001600160a01b0316635fe3b5676040518163ffffffff1660e01b8152600401602060405180830381865afa15801561171a573d5f803e3d5ffd5b505050506040513d601f19601f8201168201806040525081019061173e919061417e565b6001600160a01b0316876001600160a01b0316635fe3b5676040518163ffffffff1660e01b8152600401602060405180830381865afa158015611783573d5f803e3d5ffd5b505050506040513d601f19601f820116820180604052508101906117a7919061417e565b6001600160a01b0316146117bc576002611398565b6117c5876121fd565b6117cf878561236a565b6117d9878661236a565b5f979650505050505050565b5f6117ee611d0d565b6117f9846002611d5d565b611805610afa85611dab565b61180f8385612811565b6001600160a01b0384165f908152601f6020526040812054908190036118705760405162461bcd60e51b815260206004820152601660248201527506d61726b657420626f72726f772063617020697320360541b6044820152606401610db8565b61187985611dab565b6001600160a01b0385165f908152600291909101602052604090205460ff1661192e57336001600160a01b038616146118ec5760405162461bcd60e51b815260206004820152601560248201527439b2b73232b91036bab9ba103132903b2a37b5b2b760591b6044820152606401610db8565b5f6118f78686612877565b90505f81601481111561190c5761190c61404f565b1461192c578060148111156119235761192361404f565b92505050610f0d565b505b6004805460405163fc57d4df60e01b81526001600160a01b038881169382019390935291169063fc57d4df90602401602060405180830381865afa158015611978573d5f803e3d5ffd5b505050506040513d601f19601f8201168201806040525081019061199c9190614038565b5f036119ac57600d915050610f0d565b5f611a16866001600160a01b03166347bd37186040518163ffffffff1660e01b8152600401602060405180830381865afa1580156119ec573d5f803e3d5ffd5b505050506040513d601f19601f82011682018060405250810190611a109190614038565b8561294a565b905081811115611a685760405162461bcd60e51b815260206004820152601960248201527f6d61726b657420626f72726f77206361702072656163686564000000000000006044820152606401610db8565b5f80611a7787895f895f612130565b9193509091505f9050826014811115611a9257611a9261404f565b14611ab457816014811115611aa957611aa961404f565b945050505050610f0d565b8015611ac1576004611aa9565b5f60405180602001604052808a6001600160a01b031663aa5af0fd6040518163ffffffff1660e01b8152600401602060405180830381865afa158015611b09573d5f803e3d5ffd5b505050506040513d601f19601f82011682018060405250810190611b2d9190614038565b90529050611b3b8982611e15565b611b46898983611fac565b5f9998505050505050505050565b6008602052815f5260405f208181548110611b6d575f80fd5b5f918252602090912001546001600160a01b03169150829050565b6001600160a01b0382165f90815260296020526040812081836008811115611bb257611bb261404f565b815260208101919091526040015f205460ff169392505050565b5f611bd5611d0d565b611be0846001611d5d565b5f611bec858585612778565b90508015611bfb579050610f0d565b611c04856121fd565b611c0e858561236a565b5f95945050505050565b611c2061297f565b848381148015611c2f57508082145b611c6b5760405162461bcd60e51b815260206004820152600d60248201526c1a5b9d985b1a59081a5b9c1d5d609a1b6044820152606401610db8565b5f5b81811015610bfe57611ca4888883818110611c8a57611c8a614063565b9050602002016020810190611c9f91906139ad565b612540565b611d05888883818110611cb957611cb9614063565b9050602002016020810190611cce91906139ad565b878784818110611ce057611ce0614063565b90506020020135868685818110611cf957611cf9614063565b905060200201356129c9565b600101611c6d565b60185462010000900460ff1615611d5b5760405162461bcd60e51b81526020600482015260126024820152711c1c9bdd1bd8dbdb081a5cc81c185d5cd95960721b6044820152606401610db8565b565b611d678282611b88565b15611da75760405162461bcd60e51b815260206004820152601060248201526f1858dd1a5bdb881a5cc81c185d5cd95960821b6044820152606401610db8565b5050565b5f60095f611db95f85610ce1565b81526020019081526020015f209050919050565b805460ff16611e125760405162461bcd60e51b81526020600482015260116024820152701b585c9ad95d081b9bdd081b1a5cdd1959607a1b6044820152606401610db8565b50565b6001600160a01b0382165f908152601160209081526040808320602a9092528220549091611e41612b43565b83549091505f90611e629063ffffffff80851691600160e01b900416612b7c565b90508015801590611e7257508215155b15611f81575f611ee1876001600160a01b03166347bd37186040518163ffffffff1660e01b8152600401602060405180830381865afa158015611eb7573d5f803e3d5ffd5b505050506040513d601f19601f82011682018060405250810190611edb9190614038565b87612bb5565b90505f611eee8386612bd2565b90505f825f03611f0c5760405180602001604052805f815250611f16565b611f168284612c13565b604080516020810190915288546001600160e01b03168152909150611f5f90611f3f9083612c56565b516040805180820190915260038152620c8c8d60ea1b6020820152612c7f565b6001600160e01b0316600160e01b63ffffffff87160217875550610cd9915050565b8015610cd957835463ffffffff8316600160e01b026001600160e01b03909116178455505050505050565b601b546001600160a01b031615611fc557611fc5612cad565b6001600160a01b038381165f9081526011602090815260408083205460138352818420948716845293909152902080546001600160e01b0390921690819055908015801561202157506a0c097ce7bc90715b34b9f160241b8210155b1561203757506a0c097ce7bc90715b34b9f160241b5b5f604051806020016040528061204d8585612b7c565b90526040516395dd919360e01b81526001600160a01b0387811660048301529192505f916120a6916120a0918a16906395dd919390602401602060405180830381865afa158015611eb7573d5f803e3d5ffd5b83612e1f565b6001600160a01b0387165f908152601460205260409020549091506120cb908261294a565b6001600160a01b038781165f818152601460209081526040918290209490945580518581529384018890529092918a16917f837bdc11fca9f17ce44167944475225a205279b17e88c791c3b1f66f354668fb910160405180910390a350505050505050565b602654604051637bd48c1f60e11b81525f91829182918291829182916001600160a01b039091169063f7a9183e906121769030908f908f908f908f908f90600401614199565b606060405180830381865afa158015612191573d5f803e3d5ffd5b505050506040513d601f19601f820116820180604052508101906121b591906141e8565b9250925092508260148111156121cd576121cd61404f565b9b919a5098509650505050505050565b5f806121e98585612e46565b905061142f6121f782612e6c565b8461294a565b6001600160a01b0381165f908152601060209081526040808320602b9092528220549091612229612b43565b83549091505f9061224a9063ffffffff80851691600160e01b900416612b7c565b9050801580159061225a57508215155b15612340575f856001600160a01b03166318160ddd6040518163ffffffff1660e01b8152600401602060405180830381865afa15801561229c573d5f803e3d5ffd5b505050506040513d601f19601f820116820180604052508101906122c09190614038565b90505f6122cd8386612bd2565b90505f825f036122eb5760405180602001604052805f8152506122f5565b6122f58284612c13565b604080516020810190915288546001600160e01b0316815290915061231e90611f3f9083612c56565b6001600160e01b0316600160e01b63ffffffff87160217875550610ad3915050565b8015610ad357835463ffffffff8316600160e01b026001600160e01b039091161784555050505050565b601b546001600160a01b03161561238357612383612cad565b6001600160a01b038281165f9081526010602090815260408083205460128352818420948616845293909152902080546001600160e01b039092169081905590801580156123df57506a0c097ce7bc90715b34b9f160241b8210155b156123f557506a0c097ce7bc90715b34b9f160241b5b5f604051806020016040528061240b8585612b7c565b90526040516370a0823160e01b81526001600160a01b0386811660048301529192505f9161247f91908816906370a0823190602401602060405180830381865afa15801561245b573d5f803e3d5ffd5b505050506040513d601f19601f820116820180604052508101906120a09190614038565b6001600160a01b0386165f908152601460205260409020549091506124a4908261294a565b6001600160a01b038681165f818152601460209081526040918290209490945580518581529384018890529092918916917ffa9d964d891991c113b49e3db1932abd6c67263d387119707aafdd6c4010a3a9910160405180910390a3505050505050565b5f805f805f8061251b885f805f8b612130565b9250925092508260148111156125335761253361404f565b9891975095509350505050565b6001600160a01b038116611e125760405162461bcd60e51b815260206004820152601560248201527463616e2774206265207a65726f206164647265737360581b6044820152606401610db8565b6125c06040518060a0016040528060608152602001606081526020016060815260200160608152602001606081525090565b835167ffffffffffffffff8111156125da576125da613bdb565b604051908082528060200260200182016040528015612603578160200160208202803683370190505b508152835167ffffffffffffffff81111561262057612620613bdb565b604051908082528060200260200182016040528015612649578160200160208202803683370190505b506020820152835167ffffffffffffffff81111561266957612669613bdb565b604051908082528060200260200182016040528015612692578160200160208202803683370190505b506040820152835167ffffffffffffffff8111156126b2576126b2613bdb565b6040519080825280602002602001820160405280156126db578160200160208202803683370190505b506060820152835167ffffffffffffffff8111156126fb576126fb613bdb565b604051908082528060200260200182016040528015612724578160200160208202803683370190505b50608082015261273685858584612e83565b5f61274887878787865f01518861304b565b905061275787878784866130f3565b5095945050505050565b5f8061276d8484612e46565b9050610b8a81612e6c565b5f612785610afa85611dab565b61278e84611dab565b6001600160a01b0384165f908152600291909101602052604090205460ff166127b857505f610f0d565b5f806127c78587865f80612130565b9193509091505f90508260148111156127e2576127e261404f565b146127f9578160148111156119235761192361404f565b8015612806576004611923565b5f9695505050505050565b6001600160a01b0382165f9081526035602052604081205461283c906001600160601b031683610ce1565b5f81815260096020526040902060060154909150600160601b900460ff166111d5576040516305b80c7960e41b815260040160405180910390fd5b5f612883836007611d5d565b5f61288d84611dab565b905061289881611dcd565b6001600160a01b0383165f90815260028201602052604090205460ff16156128c3575f915050610cfc565b6001600160a01b038084165f8181526002840160209081526040808320805460ff191660019081179091556008835281842080549182018155845291832090910180549489166001600160a01b031990951685179055519192917f3ab23ab0d51cccc0c3085aec51f99228625aa1a922b3a8ca89a26b0f2027a1a59190a3505f9392505050565b5f610f0d8383604051806040016040528060118152602001706164646974696f6e206f766572666c6f7760781b81525061317f565b5f546001600160a01b03163314611d5b5760405162461bcd60e51b815260206004820152600e60248201526d37b7363c9030b236b4b71031b0b760911b6044820152606401610db8565b6129d5610afa84611dab565b6001600160a01b0383165f908152602b60205260409020548214612a51576129fc836121fd565b6001600160a01b0383165f818152602b602052604090819020849055517fa9ff26899e4982e7634afa9f70115dcfb61a17d6e8cdd91aa837671d0ff40ba690612a489085815260200190565b60405180910390a25b6001600160a01b0383165f908152602a602052604090205481146111d5575f6040518060200160405280856001600160a01b031663aa5af0fd6040518163ffffffff1660e01b8152600401602060405180830381865afa158015612ab7573d5f803e3d5ffd5b505050506040513d601f19601f82011682018060405250810190612adb9190614038565b90529050612ae98482611e15565b6001600160a01b0384165f818152602a602052604090819020849055517f0c62c1bc89ec4c40dccb4d21543e782c5ba43897c0075d108d8964181ea3c51b90612b359085815260200190565b60405180910390a250505050565b5f612b774360405180604001604052806011815260200170626c6f636b2023203e203332206269747360781b8152506131b8565b905090565b5f610f0d8383604051806040016040528060158152602001747375627472616374696f6e20756e646572666c6f7760581b8152506131df565b5f610f0d612bcb84670de0b6b3a7640000612bd2565b835161320d565b5f610f0d83836040518060400160405280601781526020017f6d756c7469706c69636174696f6e206f766572666c6f7700000000000000000081525061323f565b60408051602081019091525f81526040518060200160405280612c4d612c47866a0c097ce7bc90715b34b9f160241b612bd2565b8561320d565b90529392505050565b60408051602081019091525f81526040518060200160405280612c4d855f0151855f015161294a565b5f81600160e01b8410612ca55760405162461bcd60e51b8152600401610db89190614213565b509192915050565b601c541580612cbd5750601c5443105b15612cc457565b6033546040516370a0823160e01b81523060048201526001600160a01b03909116905f9082906370a0823190602401602060405180830381865afa158015612d0e573d5f803e3d5ffd5b505050506040513d601f19601f82011682018060405250810190612d329190614038565b9050805f03612d3f575050565b5f80612d4d43601c54612b7c565b90505f612d5c601a5483612bd2565b9050808410612d6d57809250612d71565b8392505b601d54831015612d82575050505050565b43601c55601b54612da0906001600160a01b0387811691168561328f565b6040518381527ff6d4b8f74d85a6e2d7a50225957b8a6cfec69ad92f5905627260541aa0a5565d9060200160405180910390a1601b5f9054906101000a90046001600160a01b03166001600160a01b031663faa1809e6040518163ffffffff1660e01b81526004015f604051808303815f87803b158015610abc575f80fd5b5f6a0c097ce7bc90715b34b9f160241b612e3c84845f0151612bd2565b610f0d9190614239565b60408051602081019091525f81526040518060200160405280612c4d855f015185612bd2565b80515f90610cfc90670de0b6b3a764000090614239565b5f5b8351811015610ad357838181518110612ea057612ea0614063565b60200260200101516001600160a01b03166371507cd5848381518110612ec857612ec8614063565b60200260200101516040518263ffffffff1660e01b8152600401612eee91815260200190565b6040805180830381865afa158015612f08573d5f803e3d5ffd5b505050506040513d601f19601f82011682018060405250810190612f2c9190614258565b8351805184908110612f4057612f40614063565b6020026020010184602001518481518110612f5d57612f5d614063565b6020026020010182815250828152505050838181518110612f8057612f80614063565b60200260200101516001600160a01b031663dd5f608586858481518110612fa957612fa9614063565b60200260200101516040518363ffffffff1660e01b8152600401612fe29291906001600160a01b03929092168252602082015260400190565b6020604051808303815f875af1158015612ffe573d5f803e3d5ffd5b505050506040513d601f19601f820116820180604052508101906130229190614038565b8260400151828151811061303857613038614063565b6020908102919091010152600101612e85565b60605f80876001600160a01b031663920f5c848888888d896040518663ffffffff1660e01b815260040161308395949392919061427a565b5f604051808303815f875af115801561309e573d5f803e3d5ffd5b505050506040513d5f823e601f3d908101601f191682016040526130c591908101906142d5565b91509150816130e757604051635a3b2cbb60e11b815260040160405180910390fd5b98975050505050505050565b5f5b8351811015610cd95761317784828151811061311357613113614063565b6020026020010151878786858151811061312f5761312f614063565b6020026020010151865f0151868151811061314c5761314c614063565b60200260200101518760200151878151811061316a5761316a614063565b60200260200101516132e1565b6001016130f5565b5f8061318b8486614374565b905082858210156131af5760405162461bcd60e51b8152600401610db89190614213565b50949350505050565b5f816401000000008410612ca55760405162461bcd60e51b8152600401610db89190614213565b5f81848411156132025760405162461bcd60e51b8152600401610db89190614213565b50610b8a8385614387565b5f610f0d83836040518060400160405280600e81526020016d646976696465206279207a65726f60901b81525061377e565b5f83158061324b575082155b1561325757505f610f0d565b5f613262848661439a565b90508361326f8683614239565b1483906131af5760405162461bcd60e51b8152600401610db89190614213565b604080516001600160a01b038416602482015260448082018490528251808303909101815260649091019091526020810180516001600160e01b031663a9059cbb60e01b1790526111d59084906137a9565b5f866001600160a01b031663738439626040518163ffffffff1660e01b8152600401602060405180830381865afa15801561331e573d5f803e3d5ffd5b505050506040513d601f19601f820116820180604052508101906133429190614038565b604051635635a68960e01b81526001600160a01b0387811660048301526024820187905291925090881690635635a689906044015f604051808303815f87803b15801561338d575f80fd5b505af115801561339f573d5f803e3d5ffd5b505050508383826133b09190614374565b111561351c575f846133c28584614374565b6133cc9190614387565b90505f886001600160a01b031663a6afed956040518163ffffffff1660e01b81526004016020604051808303815f875af115801561340c573d5f803e3d5ffd5b505050506040513d601f19601f820116820180604052508101906134309190614038565b905080156134805760405162461bcd60e51b815260206004820152601960248201527f4661696c656420746f2061636372756520696e746572657374000000000000006044820152606401610db8565b60405163d310dce560e01b81526001600160a01b038981166004830152602482018490525f91908b169063d310dce5906044016020604051808303815f875af11580156134cf573d5f803e3d5ffd5b505050506040513d601f19601f820116820180604052508101906134f39190614038565b905080156135145760405163ab52b56f60e01b815260040160405180910390fd5b5050506111d0565b866001600160a01b031663dd5f6085886001600160a01b031663e9a44fd96040518163ffffffff1660e01b8152600401602060405180830381865afa158015613567573d5f803e3d5ffd5b505050506040513d601f19601f8201168201806040525081019061358b919061417e565b6040516001600160e01b031960e084901b1681526001600160a01b039091166004820152602481018590526044016020604051808303815f875af11580156135d5573d5f803e3d5ffd5b505050506040513d601f19601f820116820180604052508101906135f99190614038565b50866001600160a01b031663e9a44fd96040518163ffffffff1660e01b8152600401602060405180830381865afa158015613636573d5f803e3d5ffd5b505050506040513d601f19601f8201168201806040525081019061365a919061417e565b6001600160a01b03166316faecec886001600160a01b0316635fe3b5676040518163ffffffff1660e01b8152600401602060405180830381865afa1580156136a4573d5f803e3d5ffd5b505050506040513d601f19601f820116820180604052508101906136c8919061417e565b896001600160a01b0316636f307dc36040518163ffffffff1660e01b8152600401602060405180830381865afa158015613704573d5f803e3d5ffd5b505050506040513d601f19601f82011682018060405250810190613728919061417e565b60026040518463ffffffff1660e01b8152600401613748939291906143b1565b5f604051808303815f87803b15801561375f575f80fd5b505af1158015613771573d5f803e3d5ffd5b5050505050505050505050565b5f818361379e5760405162461bcd60e51b8152600401610db89190614213565b50610b8a8385614239565b5f6137fd826040518060400160405280602081526020017f5361666545524332303a206c6f772d6c6576656c2063616c6c206661696c6564815250856001600160a01b031661387c9092919063ffffffff16565b905080515f148061381d57508080602001905181019061381d9190614086565b6111d55760405162461bcd60e51b815260206004820152602a60248201527f5361666545524332303a204552433230206f7065726174696f6e20646964206e6044820152691bdd081cdd58d8d9595960b21b6064820152608401610db8565b6060610b8a84845f85855f80866001600160a01b031685876040516138a191906143e7565b5f6040518083038185875af1925050503d805f81146138db576040519150601f19603f3d011682016040523d82523d5f602084013e6138e0565b606091505b50915091506138f1878383876138fc565b979650505050505050565b6060831561396a5782515f03613963576001600160a01b0385163b6139635760405162461bcd60e51b815260206004820152601d60248201527f416464726573733a2063616c6c20746f206e6f6e2d636f6e74726163740000006044820152606401610db8565b5081610b8a565b610b8a838381511561397f5781518083602001fd5b8060405162461bcd60e51b8152600401610db89190614213565b6001600160a01b0381168114611e12575f80fd5b5f602082840312156139bd575f80fd5b8135610f0d81613999565b5f80604083850312156139d9575f80fd5b82356139e481613999565b915060208301356139f481613999565b809150509250929050565b5f805f805f60a08688031215613a13575f80fd5b8535613a1e81613999565b94506020860135613a2e81613999565b93506040860135613a3e81613999565b94979396509394606081013594506080013592915050565b5f805f8060808587031215613a69575f80fd5b8435613a7481613999565b93506020850135613a8481613999565b92506040850135613a9481613999565b9396929550929360600135925050565b5f805f8060808587031215613ab7575f80fd5b8435613ac281613999565b93506020850135613ad281613999565b93969395505050506040820135916060013590565b5f805f805f8060c08789031215613afc575f80fd5b8635613b0781613999565b95506020870135613b1781613999565b94506040870135613b2781613999565b93506060870135613b3781613999565b9598949750929560808101359460a0909101359350915050565b80356001600160601b0381168114613b67575f80fd5b919050565b5f8060408385031215613b7d575f80fd5b6139e483613b51565b5f805f60608486031215613b98575f80fd5b8335613ba381613999565b92506020840135613bb381613999565b929592945050506040919091013590565b5f60208284031215613bd4575f80fd5b5035919050565b634e487b7160e01b5f52604160045260245ffd5b604051601f8201601f1916810167ffffffffffffffff81118282101715613c1857613c18613bdb565b604052919050565b5f67ffffffffffffffff821115613c3957613c39613bdb565b5060051b60200190565b5f82601f830112613c52575f80fd5b81356020613c67613c6283613c20565b613bef565b8083825260208201915060208460051b870101935086841115613c88575f80fd5b602086015b84811015613ca45780358352918301918301613c8d565b509695505050505050565b5f82601f830112613cbe575f80fd5b813567ffffffffffffffff811115613cd857613cd8613bdb565b613ceb601f8201601f1916602001613bef565b818152846020838601011115613cff575f80fd5b816020850160208301375f918101602001919091529392505050565b5f805f805f60a08688031215613d2f575f80fd5b8535613d3a81613999565b9450602086810135613d4b81613999565b9450604087013567ffffffffffffffff80821115613d67575f80fd5b818901915089601f830112613d7a575f80fd5b8135613d88613c6282613c20565b81815260059190911b8301840190848101908c831115613da6575f80fd5b938501935b82851015613dcd578435613dbe81613999565b82529385019390850190613dab565b975050506060890135925080831115613de4575f80fd5b613df08a848b01613c43565b94506080890135925080831115613e05575f80fd5b5050613e1388828901613caf565b9150509295509295909350565b5f805f805f60a08688031215613e34575f80fd5b8535613e3f81613999565b94506020860135613e4f81613999565b93506040860135613e5f81613999565b92506060860135613e6f81613999565b949793965091946080013592915050565b5f60208284031215613e90575f80fd5b610f0d82613b51565b5f81518084528060208401602086015e5f602082860101526020601f19601f83011685010191505092915050565b604081525f613ed96040830185613e99565b905082151560208301529392505050565b5f8060408385031215613efb575f80fd5b8235613f0681613999565b946020939093013593505050565b5f8060408385031215613f25575f80fd5b8235613f3081613999565b91506020830135600981106139f4575f80fd5b5f8083601f840112613f53575f80fd5b50813567ffffffffffffffff811115613f6a575f80fd5b6020830191508360208260051b8501011115613f84575f80fd5b9250929050565b5f805f805f8060608789031215613fa0575f80fd5b863567ffffffffffffffff80821115613fb7575f80fd5b613fc38a838b01613f43565b90985096506020890135915080821115613fdb575f80fd5b613fe78a838b01613f43565b90965094506040890135915080821115613fff575f80fd5b5061400c89828a01613f43565b979a9699509497509295939492505050565b6001600160a01b0392831681529116602082015260400190565b5f60208284031215614048575f80fd5b5051919050565b634e487b7160e01b5f52602160045260245ffd5b634e487b7160e01b5f52603260045260245ffd5b80518015158114613b67575f80fd5b5f60208284031215614096575f80fd5b610f0d82614077565b5f815180845260208085019450602084015f5b838110156140d75781516001600160a01b0316875295820195908201906001016140b2565b509495945050505050565b5f815180845260208085019450602084015f5b838110156140d7578151875295820195908201906001016140f5565b6001600160a01b03841681526060602082018190525f906141349083018561409f565b8281036040840152610b8681856140e2565b600181811c9082168061415a57607f821691505b60208210810361417857634e487b7160e01b5f52602260045260245ffd5b50919050565b5f6020828403121561418e575f80fd5b8151610f0d81613999565b6001600160a01b038781168252868116602083015285166040820152606081018490526080810183905260c08101600283106141d7576141d761404f565b8260a0830152979650505050505050565b5f805f606084860312156141fa575f80fd5b8351925060208401519150604084015190509250925092565b602081525f610f0d6020830184613e99565b634e487b7160e01b5f52601160045260245ffd5b5f8261425357634e487b7160e01b5f52601260045260245ffd5b500490565b5f8060408385031215614269575f80fd5b505080516020909101519092909150565b60a081525f61428c60a083018861409f565b828103602084015261429e81886140e2565b905082810360408401526142b281876140e2565b6001600160a01b0386166060850152838103608085015290506130e78185613e99565b5f80604083850312156142e6575f80fd5b6142ef83614077565b915060208084015167ffffffffffffffff81111561430b575f80fd5b8401601f8101861361431b575f80fd5b8051614329613c6282613c20565b81815260059190911b82018301908381019088831115614347575f80fd5b928401925b828410156143655783518252928401929084019061434c565b80955050505050509250929050565b80820180821115610cfc57610cfc614225565b81810381811115610cfc57610cfc614225565b8082028115828204841417610cfc57610cfc614225565b6001600160a01b0384811682528316602082015260608101600383106143d9576143d961404f565b826040830152949350505050565b5f82518060208501845e5f92019182525091905056fea2646970667358221220684ac01ef4b149b36913bf0119b9f9f9db8821ae1d954b48f338f0c1db52f66464736f6c63430008190033",
  "devdoc": {
    "author": "Venus",
    "details": "This facet contains all the hooks used while transferring the assets",
    "events": {
      "Failure(uint256,uint256,uint256)": {
        "details": "`error` corresponds to enum Error; `info` corresponds to enum FailureInfo, and `detail` is an arbitrary contract-specific code that enables us to report opaque error codes from upgradeable contracts.*"
      }
    },
    "kind": "dev",
    "methods": {
      "_setVenusSpeeds(address[],uint256[],uint256[])": {
        "details": "Allows the contract admin to set XVS speed for a market",
        "params": {
          "borrowSpeeds": "New XVS speed for borrow",
          "supplySpeeds": "New XVS speed for supply",
          "vTokens": "The market whose XVS speed to update"
        }
      },
      "actionPaused(address,uint8)": {
        "params": {
          "action": "Action id",
          "market": "vToken address"
        }
      },
      "borrowAllowed(address,address,uint256)": {
        "params": {
          "borrowAmount": "The amount of underlying the account would borrow",
          "borrower": "The account which would borrow the asset",
          "vToken": "The market to verify the borrow against"
        },
        "returns": {
          "_0": "0 if the borrow is allowed, otherwise a semi-opaque error code (See ErrorReporter.sol)"
        }
      },
      "borrowVerify(address,address,uint256)": {
        "params": {
          "borrowAmount": "The amount of the underlying asset requested to borrow",
          "borrower": "The address borrowing the underlying",
          "vToken": "Asset whose underlying is being borrowed"
        }
      },
      "executeFlashLoan(address,address,address[],uint256[],bytes)": {
        "custom:error": "FlashLoanNotEnabled is thrown if the flash loan is not enabled for the asset.InvalidAmount is thrown if the requested amount is zero.NoAssetsRequested is thrown if no assets are requested for the flash loan.InvalidFlashLoanParams is thrown if the flash loan params are invalid.SenderNotAuthorizedForFlashLoan is thrown if the sender is not authorized to use flashloan.",
        "custom:event": "Emits FlashLoanExecuted on success",
        "details": "Transfer the specified assets to the receiver contract and handles repayment.",
        "params": {
          "initiator": "The address of the EOA who initiated the flash loan.",
          "param": "The bytes passed in the executeOperation call.",
          "receiver": "The address of the contract that will receive the flashLoan amount and execute the operation.",
          "underlyingAmounts": "The amounts of each underlying assets to be loaned.",
          "vTokens": "The addresses of the vToken assets to be loaned."
        }
      },
      "getAccountLiquidity(address)": {
        "params": {
          "account": "The account get liquidity for"
        },
        "returns": {
          "_0": "(possible error code (semi-opaque), account liquidity in excess of liquidation threshold requirements,          account shortfall below liquidation threshold requirements)"
        }
      },
      "getBorrowingPower(address)": {
        "params": {
          "account": "The account get liquidity for"
        },
        "returns": {
          "_0": "(possible error code (semi-opaque), account liquidity in excess of collateral requirements,          account shortfall below collateral requirements)"
        }
      },
      "getHypotheticalAccountLiquidity(address,address,uint256,uint256)": {
        "params": {
          "account": "The account to determine liquidity for",
          "borrowAmount": "The amount of underlying to hypothetically borrow",
          "redeemTokens": "The number of tokens to hypothetically redeem",
          "vTokenModify": "The market to hypothetically redeem/borrow in"
        },
        "returns": {
          "_0": "(possible error code (semi-opaque), hypothetical account liquidity in excess of collateral requirements,          hypothetical account shortfall below collateral requirements)"
        }
      },
      "getPoolMarketIndex(uint96,address)": {
        "details": "Computes a unique key for a (poolId, market) pair used in the `_poolMarkets` mapping - For the core pool (`poolId == 0`), this results in the address being left-padded to 32 bytes,   maintaining backward compatibility with legacy mappings - For other pools, packs the `poolId` and `market` address into a single `bytes32` key,   The first 96 bits are used for the `poolId`, and the remaining 160 bits for the `market` address",
        "params": {
          "poolId": "The ID of the pool",
          "vToken": "The address of the market (vToken)"
        },
        "returns": {
          "_0": "PoolMarketId The `bytes32` key that uniquely represents the (poolId, vToken) pair"
        }
      },
      "getXVSAddress()": {
        "returns": {
          "_0": "The address of XVS token"
        }
      },
      "liquidateBorrowAllowed(address,address,address,address,uint256)": {
        "params": {
          "borrower": "The address of the borrower",
          "liquidator": "The address repaying the borrow and seizing the collateral",
          "repayAmount": "The amount of underlying being repaid",
          "vTokenBorrowed": "Asset which was borrowed by the borrower",
          "vTokenCollateral": "Asset which was used as collateral and will be seized"
        }
      },
      "liquidateBorrowVerify(address,address,address,address,uint256,uint256)": {
        "params": {
          "actualRepayAmount": "The amount of underlying being repaid",
          "borrower": "The address of the borrower",
          "liquidator": "The address repaying the borrow and seizing the collateral",
          "seizeTokens": "The amount of collateral token that will be seized",
          "vTokenBorrowed": "Asset which was borrowed by the borrower",
          "vTokenCollateral": "Asset which was used as collateral and will be seized"
        }
      },
      "mintAllowed(address,address,uint256)": {
        "params": {
          "mintAmount": "The amount of underlying being supplied to the market in exchange for tokens",
          "minter": "The account which would get the minted tokens",
          "vToken": "The market to verify the mint against"
        },
        "returns": {
          "_0": "0 if the mint is allowed, otherwise a semi-opaque error code (See ErrorReporter.sol)"
        }
      },
      "mintVerify(address,address,uint256,uint256)": {
        "params": {
          "actualMintAmount": "The amount of the underlying asset being minted",
          "mintTokens": "The number of tokens being minted",
          "minter": "The address minting the tokens",
          "vToken": "Asset being minted"
        }
      },
      "redeemAllowed(address,address,uint256)": {
        "params": {
          "redeemTokens": "The number of vTokens to exchange for the underlying asset in the market",
          "redeemer": "The account which would redeem the tokens",
          "vToken": "The market to verify the redeem against"
        },
        "returns": {
          "_0": "0 if the redeem is allowed, otherwise a semi-opaque error code (See ErrorReporter.sol)"
        }
      },
      "redeemVerify(address,address,uint256,uint256)": {
        "params": {
          "redeemAmount": "The amount of the underlying asset being redeemed",
          "redeemTokens": "The number of tokens being redeemed",
          "redeemer": "The address redeeming the tokens",
          "vToken": "Asset being redeemed"
        }
      },
      "repayBorrowAllowed(address,address,address,uint256)": {
        "params": {
          "borrower": "The account which borrowed the asset",
          "payer": "The account which would repay the asset",
          "repayAmount": "The amount of the underlying asset the account would repay",
          "vToken": "The market to verify the repay against"
        },
        "returns": {
          "_0": "0 if the repay is allowed, otherwise a semi-opaque error code (See ErrorReporter.sol)"
        }
      },
      "repayBorrowVerify(address,address,address,uint256,uint256)": {
        "params": {
          "actualRepayAmount": "The amount of underlying being repaid",
          "borrower": "The address of the borrower",
          "payer": "The address repaying the borrow",
          "vToken": "Asset being repaid"
        }
      },
      "seizeAllowed(address,address,address,address,uint256)": {
        "params": {
          "borrower": "The address of the borrower",
          "liquidator": "The address repaying the borrow and seizing the collateral",
          "seizeTokens": "The number of collateral tokens to seize",
          "vTokenBorrowed": "Asset which was borrowed by the borrower",
          "vTokenCollateral": "Asset which was used as collateral and will be seized"
        }
      },
      "seizeVerify(address,address,address,address,uint256)": {
        "params": {
          "borrower": "The address of the borrower",
          "liquidator": "The address repaying the borrow and seizing the collateral",
          "seizeTokens": "The number of collateral tokens to seize",
          "vTokenBorrowed": "Asset which was borrowed by the borrower",
          "vTokenCollateral": "Asset which was used as collateral and will be seized"
        }
      },
      "transferAllowed(address,address,address,uint256)": {
        "params": {
          "dst": "The account which receives the tokens",
          "src": "The account which sources the tokens",
          "transferTokens": "The number of vTokens to transfer",
          "vToken": "The market to verify the transfer against"
        },
        "returns": {
          "_0": "0 if the transfer is allowed, otherwise a semi-opaque error code (See ErrorReporter.sol)"
        }
      },
      "transferVerify(address,address,address,uint256)": {
        "params": {
          "dst": "The account which receives the tokens",
          "src": "The account which sources the tokens",
          "transferTokens": "The number of vTokens to transfer",
          "vToken": "Asset being transferred"
        }
      }
    },
    "title": "PolicyFacet",
    "version": 1
  },
  "userdoc": {
    "errors": {
      "AlreadyInSelectedPool()": [
        {
          "notice": "Thrown when You are already in the selected pool."
        }
      ],
      "ArrayLengthMismatch()": [
        {
          "notice": "Thrown when input array lengths do not match"
        }
      ],
      "BorrowNotAllowedInPool()": [
        {
          "notice": "Thrown when borrowing is not allowed in the selected pool for a given market."
        }
      ],
      "EmptyPoolLabel()": [
        {
          "notice": "Thrown when the pool label is empty"
        }
      ],
      "InactivePool(uint96)": [
        {
          "notice": "Thrown when attempting to interact with an inactive pool"
        }
      ],
      "IncompatibleBorrowedAssets()": [
        {
          "notice": "Thrown when One or more of your assets are not compatible with the selected pool."
        }
      ],
      "InvalidOperationForCorePool()": [
        {
          "notice": "Thrown when trying to call pool-specific methods on the Core Pool"
        }
      ],
      "InvalidWeightingStrategy(uint8)": [
        {
          "notice": "Thrown when an invalid weighting strategy is provided"
        }
      ],
      "LiquidityCheckFailed(uint256,uint256)": [
        {
          "notice": "Thrown when Switching to this pool would fail the liquidity check or lead to liquidation."
        }
      ],
      "MarketAlreadyListed(uint96,address)": [
        {
          "notice": "Thrown when a vToken is already listed in the specified pool"
        }
      ],
      "MarketConfigNotFound()": [
        {
          "notice": "Thrown when market is not set in the _poolMarkets mapping"
        }
      ],
      "MarketNotListedInCorePool()": [
        {
          "notice": "Thrown when market trying to add in a pool is not listed in the core pool"
        }
      ],
      "PoolDoesNotExist(uint96)": [
        {
          "notice": "Thrown when a given pool ID does not exist"
        }
      ],
      "PoolMarketNotFound(uint96,address)": [
        {
          "notice": "Thrown when trying to remove a market that is not listed in the given pool."
        }
      ]
    },
    "events": {
      "DistributedBorrowerVenus(address,address,uint256,uint256)": {
        "notice": "Emitted when XVS is distributed to a borrower"
      },
      "DistributedSupplierVenus(address,address,uint256,uint256)": {
        "notice": "Emitted when XVS is distributed to a supplier"
      },
      "DistributedVAIVaultVenus(uint256)": {
        "notice": "Emitted when XVS is distributed to VAI Vault"
      },
      "MarketEntered(address,address)": {
        "notice": "Emitted when an account enters a market"
      },
      "VenusBorrowSpeedUpdated(address,uint256)": {
        "notice": "Emitted when a new borrow-side XVS speed is calculated for a market"
      },
      "VenusSupplySpeedUpdated(address,uint256)": {
        "notice": "Emitted when a new supply-side XVS speed is calculated for a market"
      }
    },
    "kind": "user",
    "methods": {
      "_setVenusSpeeds(address[],uint256[],uint256[])": {
        "notice": "Set XVS speed for a single market"
      },
      "accountAssets(address,uint256)": {
        "notice": "Per-account mapping of \"assets you are in\", capped by maxAssets"
      },
      "actionPaused(address,uint8)": {
        "notice": "Checks if a certain action is paused on a market"
      },
      "admin()": {
        "notice": "Administrator for this contract"
      },
      "allMarkets(uint256)": {
        "notice": "A list of all markets"
      },
      "approvedDelegates(address,address)": {
        "notice": "Whether the delegate is allowed to borrow or redeem on behalf of the user"
      },
      "authorizedFlashLoan(address)": {
        "notice": "Mapping of accounts authorized to execute flash loans"
      },
      "borrowAllowed(address,address,uint256)": {
        "notice": "Checks if the account should be allowed to borrow the underlying asset of the given market"
      },
      "borrowCapGuardian()": {
        "notice": "The borrowCapGuardian can set borrowCaps to any number for any market. Lowering the borrow cap could disable borrowing on the given market."
      },
      "borrowCaps(address)": {
        "notice": "Borrow caps enforced by borrowAllowed for each vToken address."
      },
      "borrowVerify(address,address,uint256)": {
        "notice": "Validates borrow, accrues interest and updates score in prime. Reverts on rejection. May emit logs."
      },
      "closeFactorMantissa()": {
        "notice": "Multiplier used to calculate the maximum repayAmount when liquidating a borrow"
      },
      "comptrollerImplementation()": {
        "notice": "Active brains of Unitroller"
      },
      "executeFlashLoan(address,address,address[],uint256[],bytes)": {
        "notice": "Executes a flashLoan operation with the requested assets."
      },
      "getAccountLiquidity(address)": {
        "notice": "Determine the current account liquidity wrt liquidation threshold requirements"
      },
      "getBorrowingPower(address)": {
        "notice": "Alias to getAccountLiquidity to support the Isolated Lending Comptroller Interface"
      },
      "getHypotheticalAccountLiquidity(address,address,uint256,uint256)": {
        "notice": "Determine what the account liquidity would be if the given amounts were redeemed/borrowed"
      },
      "getPoolMarketIndex(uint96,address)": {
        "notice": "Returns the unique market index for the given poolId and vToken pair"
      },
      "getXVSAddress()": {
        "notice": "Returns the XVS address"
      },
      "isForcedLiquidationEnabled(address)": {
        "notice": "Whether forced liquidation is enabled for all users borrowing in a certain market"
      },
      "isForcedLiquidationEnabledForUser(address,address)": {
        "notice": "Whether forced liquidation is enabled for the borrows of a user in a market"
      },
      "lastPoolId()": {
        "notice": "Counter used to generate unique pool IDs"
      },
      "liquidateBorrowAllowed(address,address,address,address,uint256)": {
        "notice": "Checks if the liquidation should be allowed to occur"
      },
      "liquidateBorrowVerify(address,address,address,address,uint256,uint256)": {
        "notice": "Validates liquidateBorrow, accrues interest and updates score in prime. Reverts on rejection. May emit logs."
      },
      "maxAssets()": {
        "notice": "Max number of assets a single account can participate in (borrow or use as collateral)"
      },
      "mintAllowed(address,address,uint256)": {
        "notice": "Checks if the account should be allowed to mint tokens in the given market"
      },
      "mintVAIGuardianPaused()": {
        "notice": "The Pause Guardian can pause certain actions as a safety mechanism."
      },
      "mintVerify(address,address,uint256,uint256)": {
        "notice": "Validates mint, accrues interest and updates score in prime. Reverts on rejection. May emit logs."
      },
      "mintedVAIs(address)": {
        "notice": "The minted VAI amount to each user"
      },
      "oracle()": {
        "notice": "Oracle which gives the price of any given asset"
      },
      "pauseGuardian()": {
        "notice": "The Pause Guardian can pause certain actions as a safety mechanism."
      },
      "pendingAdmin()": {
        "notice": "Pending administrator for this contract"
      },
      "pendingComptrollerImplementation()": {
        "notice": "Pending brains of Unitroller"
      },
      "pools(uint96)": {
        "notice": "Mapping of pool ID to its corresponding metadata and configuration"
      },
      "prime()": {
        "notice": "Prime token address"
      },
      "protocolPaused()": {
        "notice": "Pause/Unpause whole protocol actions"
      },
      "redeemAllowed(address,address,uint256)": {
        "notice": "Checks if the account should be allowed to redeem tokens in the given market"
      },
      "redeemVerify(address,address,uint256,uint256)": {
        "notice": "Validates redeem, accrues interest and updates score in prime. Reverts on rejection. May emit logs."
      },
      "repayBorrowAllowed(address,address,address,uint256)": {
        "notice": "Checks if the account should be allowed to repay a borrow in the given market"
      },
      "repayBorrowVerify(address,address,address,uint256,uint256)": {
        "notice": "Validates repayBorrow, accrues interest and updates score in prime. Reverts on rejection. May emit logs."
      },
      "seizeAllowed(address,address,address,address,uint256)": {
        "notice": "Checks if the seizing of assets should be allowed to occur"
      },
      "seizeVerify(address,address,address,address,uint256)": {
        "notice": "Validates seize, accrues interest and updates score in prime. Reverts on rejection. May emit logs."
      },
      "supplyCaps(address)": {
        "notice": "Supply caps enforced by mintAllowed for each vToken address. Defaults to zero which corresponds to minting notAllowed"
      },
      "transferAllowed(address,address,address,uint256)": {
        "notice": "Checks if the account should be allowed to transfer tokens in the given market"
      },
      "transferVerify(address,address,address,uint256)": {
        "notice": "Validates transfer, accrues interest and updates score in prime. Reverts on rejection. May emit logs."
      },
      "treasuryAddress()": {
        "notice": "Treasury address"
      },
      "treasuryGuardian()": {
        "notice": "Treasury Guardian address"
      },
      "treasuryPercent()": {
        "notice": "Fee percent of accrued interest with decimal 18"
      },
      "userPoolId(address)": {
        "notice": "Tracks the selected pool for each user"
      },
      "vaiController()": {
        "notice": "The Address of VAIController"
      },
      "vaiMintRate()": {
        "notice": "VAI Mint Rate as a percentage"
      },
      "venusAccrued(address)": {
        "notice": "The XVS accrued but not yet transferred to each user"
      },
      "venusBorrowSpeeds(address)": {
        "notice": "The rate at which venus is distributed to the corresponding borrow market (per block)"
      },
      "venusBorrowState(address)": {
        "notice": "The Venus market borrow state for each market"
      },
      "venusBorrowerIndex(address,address)": {
        "notice": "The Venus borrow index for each market for each borrower as of the last time they accrued XVS"
      },
      "venusInitialIndex()": {
        "notice": "The initial Venus index for a market"
      },
      "venusSupplierIndex(address,address)": {
        "notice": "The Venus supply index for each market for each supplier as of the last time they accrued XVS"
      },
      "venusSupplySpeeds(address)": {
        "notice": "The rate at which venus is distributed to the corresponding supply market (per block)"
      },
      "venusSupplyState(address)": {
        "notice": "The Venus market supply state for each market"
      },
      "venusVAIVaultRate()": {
        "notice": "The rate at which the flywheel distributes XVS to VAI Vault, per block"
      }
    },
    "notice": "This facet contract contains all the external pre-hook functions related to vToken",
    "version": 1
  },
  "storageLayout": {
    "storage": [
      {
        "astId": 1644,
        "contract": "contracts/Comptroller/Diamond/facets/PolicyFacet.sol:PolicyFacet",
        "label": "admin",
        "offset": 0,
        "slot": "0",
        "type": "t_address"
      },
      {
        "astId": 1647,
        "contract": "contracts/Comptroller/Diamond/facets/PolicyFacet.sol:PolicyFacet",
        "label": "pendingAdmin",
        "offset": 0,
        "slot": "1",
        "type": "t_address"
      },
      {
        "astId": 1650,
        "contract": "contracts/Comptroller/Diamond/facets/PolicyFacet.sol:PolicyFacet",
        "label": "comptrollerImplementation",
        "offset": 0,
        "slot": "2",
        "type": "t_address"
      },
      {
        "astId": 1653,
        "contract": "contracts/Comptroller/Diamond/facets/PolicyFacet.sol:PolicyFacet",
        "label": "pendingComptrollerImplementation",
        "offset": 0,
        "slot": "3",
        "type": "t_address"
      },
      {
        "astId": 1660,
        "contract": "contracts/Comptroller/Diamond/facets/PolicyFacet.sol:PolicyFacet",
        "label": "oracle",
        "offset": 0,
        "slot": "4",
        "type": "t_contract(ResilientOracleInterface)992"
      },
      {
        "astId": 1663,
        "contract": "contracts/Comptroller/Diamond/facets/PolicyFacet.sol:PolicyFacet",
        "label": "closeFactorMantissa",
        "offset": 0,
        "slot": "5",
        "type": "t_uint256"
      },
      {
        "astId": 1666,
        "contract": "contracts/Comptroller/Diamond/facets/PolicyFacet.sol:PolicyFacet",
        "label": "_oldLiquidationIncentiveMantissa",
        "offset": 0,
        "slot": "6",
        "type": "t_uint256"
      },
      {
        "astId": 1669,
        "contract": "contracts/Comptroller/Diamond/facets/PolicyFacet.sol:PolicyFacet",
        "label": "maxAssets",
        "offset": 0,
        "slot": "7",
        "type": "t_uint256"
      },
      {
        "astId": 1676,
        "contract": "contracts/Comptroller/Diamond/facets/PolicyFacet.sol:PolicyFacet",
        "label": "accountAssets",
        "offset": 0,
        "slot": "8",
        "type": "t_mapping(t_address,t_array(t_contract(VToken)32054)dyn_storage)"
      },
      {
        "astId": 1710,
        "contract": "contracts/Comptroller/Diamond/facets/PolicyFacet.sol:PolicyFacet",
        "label": "_poolMarkets",
        "offset": 0,
        "slot": "9",
        "type": "t_mapping(t_userDefinedValueType(PoolMarketId)11152,t_struct(Market)1703_storage)"
      },
      {
        "astId": 1713,
        "contract": "contracts/Comptroller/Diamond/facets/PolicyFacet.sol:PolicyFacet",
        "label": "pauseGuardian",
        "offset": 0,
        "slot": "10",
        "type": "t_address"
      },
      {
        "astId": 1716,
        "contract": "contracts/Comptroller/Diamond/facets/PolicyFacet.sol:PolicyFacet",
        "label": "_mintGuardianPaused",
        "offset": 20,
        "slot": "10",
        "type": "t_bool"
      },
      {
        "astId": 1719,
        "contract": "contracts/Comptroller/Diamond/facets/PolicyFacet.sol:PolicyFacet",
        "label": "_borrowGuardianPaused",
        "offset": 21,
        "slot": "10",
        "type": "t_bool"
      },
      {
        "astId": 1722,
        "contract": "contracts/Comptroller/Diamond/facets/PolicyFacet.sol:PolicyFacet",
        "label": "transferGuardianPaused",
        "offset": 22,
        "slot": "10",
        "type": "t_bool"
      },
      {
        "astId": 1725,
        "contract": "contracts/Comptroller/Diamond/facets/PolicyFacet.sol:PolicyFacet",
        "label": "seizeGuardianPaused",
        "offset": 23,
        "slot": "10",
        "type": "t_bool"
      },
      {
        "astId": 1730,
        "contract": "contracts/Comptroller/Diamond/facets/PolicyFacet.sol:PolicyFacet",
        "label": "mintGuardianPaused",
        "offset": 0,
        "slot": "11",
        "type": "t_mapping(t_address,t_bool)"
      },
      {
        "astId": 1735,
        "contract": "contracts/Comptroller/Diamond/facets/PolicyFacet.sol:PolicyFacet",
        "label": "borrowGuardianPaused",
        "offset": 0,
        "slot": "12",
        "type": "t_mapping(t_address,t_bool)"
      },
      {
        "astId": 1747,
        "contract": "contracts/Comptroller/Diamond/facets/PolicyFacet.sol:PolicyFacet",
        "label": "allMarkets",
        "offset": 0,
        "slot": "13",
        "type": "t_array(t_contract(VToken)32054)dyn_storage"
      },
      {
        "astId": 1750,
        "contract": "contracts/Comptroller/Diamond/facets/PolicyFacet.sol:PolicyFacet",
        "label": "venusRate",
        "offset": 0,
        "slot": "14",
        "type": "t_uint256"
      },
      {
        "astId": 1755,
        "contract": "contracts/Comptroller/Diamond/facets/PolicyFacet.sol:PolicyFacet",
        "label": "venusSpeeds",
        "offset": 0,
        "slot": "15",
        "type": "t_mapping(t_address,t_uint256)"
      },
      {
        "astId": 1761,
        "contract": "contracts/Comptroller/Diamond/facets/PolicyFacet.sol:PolicyFacet",
        "label": "venusSupplyState",
        "offset": 0,
        "slot": "16",
        "type": "t_mapping(t_address,t_struct(VenusMarketState)1742_storage)"
      },
      {
        "astId": 1767,
        "contract": "contracts/Comptroller/Diamond/facets/PolicyFacet.sol:PolicyFacet",
        "label": "venusBorrowState",
        "offset": 0,
        "slot": "17",
        "type": "t_mapping(t_address,t_struct(VenusMarketState)1742_storage)"
      },
      {
        "astId": 1774,
        "contract": "contracts/Comptroller/Diamond/facets/PolicyFacet.sol:PolicyFacet",
        "label": "venusSupplierIndex",
        "offset": 0,
        "slot": "18",
        "type": "t_mapping(t_address,t_mapping(t_address,t_uint256))"
      },
      {
        "astId": 1781,
        "contract": "contracts/Comptroller/Diamond/facets/PolicyFacet.sol:PolicyFacet",
        "label": "venusBorrowerIndex",
        "offset": 0,
        "slot": "19",
        "type": "t_mapping(t_address,t_mapping(t_address,t_uint256))"
      },
      {
        "astId": 1786,
        "contract": "contracts/Comptroller/Diamond/facets/PolicyFacet.sol:PolicyFacet",
        "label": "venusAccrued",
        "offset": 0,
        "slot": "20",
        "type": "t_mapping(t_address,t_uint256)"
      },
      {
        "astId": 1790,
        "contract": "contracts/Comptroller/Diamond/facets/PolicyFacet.sol:PolicyFacet",
        "label": "vaiController",
        "offset": 0,
        "slot": "21",
        "type": "t_contract(VAIControllerInterface)25297"
      },
      {
        "astId": 1795,
        "contract": "contracts/Comptroller/Diamond/facets/PolicyFacet.sol:PolicyFacet",
        "label": "mintedVAIs",
        "offset": 0,
        "slot": "22",
        "type": "t_mapping(t_address,t_uint256)"
      },
      {
        "astId": 1798,
        "contract": "contracts/Comptroller/Diamond/facets/PolicyFacet.sol:PolicyFacet",
        "label": "vaiMintRate",
        "offset": 0,
        "slot": "23",
        "type": "t_uint256"
      },
      {
        "astId": 1801,
        "contract": "contracts/Comptroller/Diamond/facets/PolicyFacet.sol:PolicyFacet",
        "label": "mintVAIGuardianPaused",
        "offset": 0,
        "slot": "24",
        "type": "t_bool"
      },
      {
        "astId": 1803,
        "contract": "contracts/Comptroller/Diamond/facets/PolicyFacet.sol:PolicyFacet",
        "label": "repayVAIGuardianPaused",
        "offset": 1,
        "slot": "24",
        "type": "t_bool"
      },
      {
        "astId": 1806,
        "contract": "contracts/Comptroller/Diamond/facets/PolicyFacet.sol:PolicyFacet",
        "label": "protocolPaused",
        "offset": 2,
        "slot": "24",
        "type": "t_bool"
      },
      {
        "astId": 1809,
        "contract": "contracts/Comptroller/Diamond/facets/PolicyFacet.sol:PolicyFacet",
        "label": "venusVAIRate",
        "offset": 0,
        "slot": "25",
        "type": "t_uint256"
      },
      {
        "astId": 1815,
        "contract": "contracts/Comptroller/Diamond/facets/PolicyFacet.sol:PolicyFacet",
        "label": "venusVAIVaultRate",
        "offset": 0,
        "slot": "26",
        "type": "t_uint256"
      },
      {
        "astId": 1817,
        "contract": "contracts/Comptroller/Diamond/facets/PolicyFacet.sol:PolicyFacet",
        "label": "vaiVaultAddress",
        "offset": 0,
        "slot": "27",
        "type": "t_address"
      },
      {
        "astId": 1819,
        "contract": "contracts/Comptroller/Diamond/facets/PolicyFacet.sol:PolicyFacet",
        "label": "releaseStartBlock",
        "offset": 0,
        "slot": "28",
        "type": "t_uint256"
      },
      {
        "astId": 1821,
        "contract": "contracts/Comptroller/Diamond/facets/PolicyFacet.sol:PolicyFacet",
        "label": "minReleaseAmount",
        "offset": 0,
        "slot": "29",
        "type": "t_uint256"
      },
      {
        "astId": 1827,
        "contract": "contracts/Comptroller/Diamond/facets/PolicyFacet.sol:PolicyFacet",
        "label": "borrowCapGuardian",
        "offset": 0,
        "slot": "30",
        "type": "t_address"
      },
      {
        "astId": 1832,
        "contract": "contracts/Comptroller/Diamond/facets/PolicyFacet.sol:PolicyFacet",
        "label": "borrowCaps",
        "offset": 0,
        "slot": "31",
        "type": "t_mapping(t_address,t_uint256)"
      },
      {
        "astId": 1838,
        "contract": "contracts/Comptroller/Diamond/facets/PolicyFacet.sol:PolicyFacet",
        "label": "treasuryGuardian",
        "offset": 0,
        "slot": "32",
        "type": "t_address"
      },
      {
        "astId": 1841,
        "contract": "contracts/Comptroller/Diamond/facets/PolicyFacet.sol:PolicyFacet",
        "label": "treasuryAddress",
        "offset": 0,
        "slot": "33",
        "type": "t_address"
      },
      {
        "astId": 1844,
        "contract": "contracts/Comptroller/Diamond/facets/PolicyFacet.sol:PolicyFacet",
        "label": "treasuryPercent",
        "offset": 0,
        "slot": "34",
        "type": "t_uint256"
      },
      {
        "astId": 1852,
        "contract": "contracts/Comptroller/Diamond/facets/PolicyFacet.sol:PolicyFacet",
        "label": "venusContributorSpeeds",
        "offset": 0,
        "slot": "35",
        "type": "t_mapping(t_address,t_uint256)"
      },
      {
        "astId": 1857,
        "contract": "contracts/Comptroller/Diamond/facets/PolicyFacet.sol:PolicyFacet",
        "label": "lastContributorBlock",
        "offset": 0,
        "slot": "36",
        "type": "t_mapping(t_address,t_uint256)"
      },
      {
        "astId": 1862,
        "contract": "contracts/Comptroller/Diamond/facets/PolicyFacet.sol:PolicyFacet",
        "label": "liquidatorContract",
        "offset": 0,
        "slot": "37",
        "type": "t_address"
      },
      {
        "astId": 1868,
        "contract": "contracts/Comptroller/Diamond/facets/PolicyFacet.sol:PolicyFacet",
        "label": "comptrollerLens",
        "offset": 0,
        "slot": "38",
        "type": "t_contract(ComptrollerLensInterface)1627"
      },
      {
        "astId": 1876,
        "contract": "contracts/Comptroller/Diamond/facets/PolicyFacet.sol:PolicyFacet",
        "label": "supplyCaps",
        "offset": 0,
        "slot": "39",
        "type": "t_mapping(t_address,t_uint256)"
      },
      {
        "astId": 1882,
        "contract": "contracts/Comptroller/Diamond/facets/PolicyFacet.sol:PolicyFacet",
        "label": "accessControl",
        "offset": 0,
        "slot": "40",
        "type": "t_address"
      },
      {
        "astId": 1889,
        "contract": "contracts/Comptroller/Diamond/facets/PolicyFacet.sol:PolicyFacet",
        "label": "_actionPaused",
        "offset": 0,
        "slot": "41",
        "type": "t_mapping(t_address,t_mapping(t_uint256,t_bool))"
      },
      {
        "astId": 1897,
        "contract": "contracts/Comptroller/Diamond/facets/PolicyFacet.sol:PolicyFacet",
        "label": "venusBorrowSpeeds",
        "offset": 0,
        "slot": "42",
        "type": "t_mapping(t_address,t_uint256)"
      },
      {
        "astId": 1902,
        "contract": "contracts/Comptroller/Diamond/facets/PolicyFacet.sol:PolicyFacet",
        "label": "venusSupplySpeeds",
        "offset": 0,
        "slot": "43",
        "type": "t_mapping(t_address,t_uint256)"
      },
      {
        "astId": 1912,
        "contract": "contracts/Comptroller/Diamond/facets/PolicyFacet.sol:PolicyFacet",
        "label": "approvedDelegates",
        "offset": 0,
        "slot": "44",
        "type": "t_mapping(t_address,t_mapping(t_address,t_bool))"
      },
      {
        "astId": 1920,
        "contract": "contracts/Comptroller/Diamond/facets/PolicyFacet.sol:PolicyFacet",
        "label": "isForcedLiquidationEnabled",
        "offset": 0,
        "slot": "45",
        "type": "t_mapping(t_address,t_bool)"
      },
      {
        "astId": 1939,
        "contract": "contracts/Comptroller/Diamond/facets/PolicyFacet.sol:PolicyFacet",
        "label": "_selectorToFacetAndPosition",
        "offset": 0,
        "slot": "46",
        "type": "t_mapping(t_bytes4,t_struct(FacetAddressAndPosition)1928_storage)"
      },
      {
        "astId": 1944,
        "contract": "contracts/Comptroller/Diamond/facets/PolicyFacet.sol:PolicyFacet",
        "label": "_facetFunctionSelectors",
        "offset": 0,
        "slot": "47",
        "type": "t_mapping(t_address,t_struct(FacetFunctionSelectors)1934_storage)"
      },
      {
        "astId": 1947,
        "contract": "contracts/Comptroller/Diamond/facets/PolicyFacet.sol:PolicyFacet",
        "label": "_facetAddresses",
        "offset": 0,
        "slot": "48",
        "type": "t_array(t_address)dyn_storage"
      },
      {
        "astId": 1954,
        "contract": "contracts/Comptroller/Diamond/facets/PolicyFacet.sol:PolicyFacet",
        "label": "prime",
        "offset": 0,
        "slot": "49",
        "type": "t_contract(IPrime)22475"
      },
      {
        "astId": 1964,
        "contract": "contracts/Comptroller/Diamond/facets/PolicyFacet.sol:PolicyFacet",
        "label": "isForcedLiquidationEnabledForUser",
        "offset": 0,
        "slot": "50",
        "type": "t_mapping(t_address,t_mapping(t_address,t_bool))"
      },
      {
        "astId": 1970,
        "contract": "contracts/Comptroller/Diamond/facets/PolicyFacet.sol:PolicyFacet",
        "label": "xvs",
        "offset": 0,
        "slot": "51",
        "type": "t_address"
      },
      {
        "astId": 1973,
        "contract": "contracts/Comptroller/Diamond/facets/PolicyFacet.sol:PolicyFacet",
        "label": "xvsVToken",
        "offset": 0,
        "slot": "52",
        "type": "t_address"
      },
      {
        "astId": 1992,
        "contract": "contracts/Comptroller/Diamond/facets/PolicyFacet.sol:PolicyFacet",
        "label": "userPoolId",
        "offset": 0,
        "slot": "53",
        "type": "t_mapping(t_address,t_uint96)"
      },
      {
        "astId": 1998,
        "contract": "contracts/Comptroller/Diamond/facets/PolicyFacet.sol:PolicyFacet",
        "label": "pools",
        "offset": 0,
        "slot": "54",
        "type": "t_mapping(t_uint96,t_struct(PoolData)1987_storage)"
      },
      {
        "astId": 2001,
        "contract": "contracts/Comptroller/Diamond/facets/PolicyFacet.sol:PolicyFacet",
        "label": "lastPoolId",
        "offset": 0,
        "slot": "55",
        "type": "t_uint96"
      },
      {
        "astId": 2025,
        "contract": "contracts/Comptroller/Diamond/facets/PolicyFacet.sol:PolicyFacet",
        "label": "authorizedFlashLoan",
        "offset": 0,
        "slot": "56",
        "type": "t_mapping(t_address,t_bool)"
      }
    ],
    "types": {
      "t_address": {
        "encoding": "inplace",
        "label": "address",
        "numberOfBytes": "20"
      },
      "t_array(t_address)dyn_storage": {
        "base": "t_address",
        "encoding": "dynamic_array",
        "label": "address[]",
        "numberOfBytes": "32"
      },
      "t_array(t_bytes4)dyn_storage": {
        "base": "t_bytes4",
        "encoding": "dynamic_array",
        "label": "bytes4[]",
        "numberOfBytes": "32"
      },
      "t_array(t_contract(VToken)32054)dyn_storage": {
        "base": "t_contract(VToken)32054",
        "encoding": "dynamic_array",
        "label": "contract VToken[]",
        "numberOfBytes": "32"
      },
      "t_bool": {
        "encoding": "inplace",
        "label": "bool",
        "numberOfBytes": "1"
      },
      "t_bytes4": {
        "encoding": "inplace",
        "label": "bytes4",
        "numberOfBytes": "4"
      },
      "t_contract(ComptrollerLensInterface)1627": {
        "encoding": "inplace",
        "label": "contract ComptrollerLensInterface",
        "numberOfBytes": "20"
      },
      "t_contract(IPrime)22475": {
        "encoding": "inplace",
        "label": "contract IPrime",
        "numberOfBytes": "20"
      },
      "t_contract(ResilientOracleInterface)992": {
        "encoding": "inplace",
        "label": "contract ResilientOracleInterface",
        "numberOfBytes": "20"
      },
      "t_contract(VAIControllerInterface)25297": {
        "encoding": "inplace",
        "label": "contract VAIControllerInterface",
        "numberOfBytes": "20"
      },
      "t_contract(VToken)32054": {
        "encoding": "inplace",
        "label": "contract VToken",
        "numberOfBytes": "20"
      },
      "t_mapping(t_address,t_array(t_contract(VToken)32054)dyn_storage)": {
        "encoding": "mapping",
        "key": "t_address",
        "label": "mapping(address => contract VToken[])",
        "numberOfBytes": "32",
        "value": "t_array(t_contract(VToken)32054)dyn_storage"
      },
      "t_mapping(t_address,t_bool)": {
        "encoding": "mapping",
        "key": "t_address",
        "label": "mapping(address => bool)",
        "numberOfBytes": "32",
        "value": "t_bool"
      },
      "t_mapping(t_address,t_mapping(t_address,t_bool))": {
        "encoding": "mapping",
        "key": "t_address",
        "label": "mapping(address => mapping(address => bool))",
        "numberOfBytes": "32",
        "value": "t_mapping(t_address,t_bool)"
      },
      "t_mapping(t_address,t_mapping(t_address,t_uint256))": {
        "encoding": "mapping",
        "key": "t_address",
        "label": "mapping(address => mapping(address => uint256))",
        "numberOfBytes": "32",
        "value": "t_mapping(t_address,t_uint256)"
      },
      "t_mapping(t_address,t_mapping(t_uint256,t_bool))": {
        "encoding": "mapping",
        "key": "t_address",
        "label": "mapping(address => mapping(uint256 => bool))",
        "numberOfBytes": "32",
        "value": "t_mapping(t_uint256,t_bool)"
      },
      "t_mapping(t_address,t_struct(FacetFunctionSelectors)1934_storage)": {
        "encoding": "mapping",
        "key": "t_address",
        "label": "mapping(address => struct ComptrollerV13Storage.FacetFunctionSelectors)",
        "numberOfBytes": "32",
        "value": "t_struct(FacetFunctionSelectors)1934_storage"
      },
      "t_mapping(t_address,t_struct(VenusMarketState)1742_storage)": {
        "encoding": "mapping",
        "key": "t_address",
        "label": "mapping(address => struct ComptrollerV1Storage.VenusMarketState)",
        "numberOfBytes": "32",
        "value": "t_struct(VenusMarketState)1742_storage"
      },
      "t_mapping(t_address,t_uint256)": {
        "encoding": "mapping",
        "key": "t_address",
        "label": "mapping(address => uint256)",
        "numberOfBytes": "32",
        "value": "t_uint256"
      },
      "t_mapping(t_address,t_uint96)": {
        "encoding": "mapping",
        "key": "t_address",
        "label": "mapping(address => uint96)",
        "numberOfBytes": "32",
        "value": "t_uint96"
      },
      "t_mapping(t_bytes4,t_struct(FacetAddressAndPosition)1928_storage)": {
        "encoding": "mapping",
        "key": "t_bytes4",
        "label": "mapping(bytes4 => struct ComptrollerV13Storage.FacetAddressAndPosition)",
        "numberOfBytes": "32",
        "value": "t_struct(FacetAddressAndPosition)1928_storage"
      },
      "t_mapping(t_uint256,t_bool)": {
        "encoding": "mapping",
        "key": "t_uint256",
        "label": "mapping(uint256 => bool)",
        "numberOfBytes": "32",
        "value": "t_bool"
      },
      "t_mapping(t_uint96,t_struct(PoolData)1987_storage)": {
        "encoding": "mapping",
        "key": "t_uint96",
        "label": "mapping(uint96 => struct ComptrollerV17Storage.PoolData)",
        "numberOfBytes": "32",
        "value": "t_struct(PoolData)1987_storage"
      },
      "t_mapping(t_userDefinedValueType(PoolMarketId)11152,t_struct(Market)1703_storage)": {
        "encoding": "mapping",
        "key": "t_userDefinedValueType(PoolMarketId)11152",
        "label": "mapping(PoolMarketId => struct ComptrollerV1Storage.Market)",
        "numberOfBytes": "32",
        "value": "t_struct(Market)1703_storage"
      },
      "t_string_storage": {
        "encoding": "bytes",
        "label": "string",
        "numberOfBytes": "32"
      },
      "t_struct(FacetAddressAndPosition)1928_storage": {
        "encoding": "inplace",
        "label": "struct ComptrollerV13Storage.FacetAddressAndPosition",
        "members": [
          {
            "astId": 1925,
            "contract": "contracts/Comptroller/Diamond/facets/PolicyFacet.sol:PolicyFacet",
            "label": "facetAddress",
            "offset": 0,
            "slot": "0",
            "type": "t_address"
          },
          {
            "astId": 1927,
            "contract": "contracts/Comptroller/Diamond/facets/PolicyFacet.sol:PolicyFacet",
            "label": "functionSelectorPosition",
            "offset": 20,
            "slot": "0",
            "type": "t_uint96"
          }
        ],
        "numberOfBytes": "32"
      },
      "t_struct(FacetFunctionSelectors)1934_storage": {
        "encoding": "inplace",
        "label": "struct ComptrollerV13Storage.FacetFunctionSelectors",
        "members": [
          {
            "astId": 1931,
            "contract": "contracts/Comptroller/Diamond/facets/PolicyFacet.sol:PolicyFacet",
            "label": "functionSelectors",
            "offset": 0,
            "slot": "0",
            "type": "t_array(t_bytes4)dyn_storage"
          },
          {
            "astId": 1933,
            "contract": "contracts/Comptroller/Diamond/facets/PolicyFacet.sol:PolicyFacet",
            "label": "facetAddressPosition",
            "offset": 0,
            "slot": "1",
            "type": "t_uint256"
          }
        ],
        "numberOfBytes": "64"
      },
      "t_struct(Market)1703_storage": {
        "encoding": "inplace",
        "label": "struct ComptrollerV1Storage.Market",
        "members": [
          {
            "astId": 1679,
            "contract": "contracts/Comptroller/Diamond/facets/PolicyFacet.sol:PolicyFacet",
            "label": "isListed",
            "offset": 0,
            "slot": "0",
            "type": "t_bool"
          },
          {
            "astId": 1682,
            "contract": "contracts/Comptroller/Diamond/facets/PolicyFacet.sol:PolicyFacet",
            "label": "collateralFactorMantissa",
            "offset": 0,
            "slot": "1",
            "type": "t_uint256"
          },
          {
            "astId": 1687,
            "contract": "contracts/Comptroller/Diamond/facets/PolicyFacet.sol:PolicyFacet",
            "label": "accountMembership",
            "offset": 0,
            "slot": "2",
            "type": "t_mapping(t_address,t_bool)"
          },
          {
            "astId": 1690,
            "contract": "contracts/Comptroller/Diamond/facets/PolicyFacet.sol:PolicyFacet",
            "label": "isVenus",
            "offset": 0,
            "slot": "3",
            "type": "t_bool"
          },
          {
            "astId": 1693,
            "contract": "contracts/Comptroller/Diamond/facets/PolicyFacet.sol:PolicyFacet",
            "label": "liquidationThresholdMantissa",
            "offset": 0,
            "slot": "4",
            "type": "t_uint256"
          },
          {
            "astId": 1696,
            "contract": "contracts/Comptroller/Diamond/facets/PolicyFacet.sol:PolicyFacet",
            "label": "liquidationIncentiveMantissa",
            "offset": 0,
            "slot": "5",
            "type": "t_uint256"
          },
          {
            "astId": 1699,
            "contract": "contracts/Comptroller/Diamond/facets/PolicyFacet.sol:PolicyFacet",
            "label": "poolId",
            "offset": 0,
            "slot": "6",
            "type": "t_uint96"
          },
          {
            "astId": 1702,
            "contract": "contracts/Comptroller/Diamond/facets/PolicyFacet.sol:PolicyFacet",
            "label": "isBorrowAllowed",
            "offset": 12,
            "slot": "6",
            "type": "t_bool"
          }
        ],
        "numberOfBytes": "224"
      },
      "t_struct(PoolData)1987_storage": {
        "encoding": "inplace",
        "label": "struct ComptrollerV17Storage.PoolData",
        "members": [
          {
            "astId": 1979,
            "contract": "contracts/Comptroller/Diamond/facets/PolicyFacet.sol:PolicyFacet",
            "label": "label",
            "offset": 0,
            "slot": "0",
            "type": "t_string_storage"
          },
          {
            "astId": 1983,
            "contract": "contracts/Comptroller/Diamond/facets/PolicyFacet.sol:PolicyFacet",
            "label": "vTokens",
            "offset": 0,
            "slot": "1",
            "type": "t_array(t_address)dyn_storage"
          },
          {
            "astId": 1986,
            "contract": "contracts/Comptroller/Diamond/facets/PolicyFacet.sol:PolicyFacet",
            "label": "isActive",
            "offset": 0,
            "slot": "2",
            "type": "t_bool"
          },
          {
            "astId": 1955,
            "contract": "contracts/Comptroller/Diamond/facets/PolicyFacet.sol:PolicyFacet",
            "label": "allowCorePoolFallback",
            "offset": 1,
            "slot": "2",
            "type": "t_bool"
          }
        ],
        "numberOfBytes": "96"
      },
      "t_struct(VenusMarketState)1742_storage": {
        "encoding": "inplace",
        "label": "struct ComptrollerV1Storage.VenusMarketState",
        "members": [
          {
            "astId": 1738,
            "contract": "contracts/Comptroller/Diamond/facets/PolicyFacet.sol:PolicyFacet",
            "label": "index",
            "offset": 0,
            "slot": "0",
            "type": "t_uint224"
          },
          {
            "astId": 1741,
            "contract": "contracts/Comptroller/Diamond/facets/PolicyFacet.sol:PolicyFacet",
            "label": "block",
            "offset": 28,
            "slot": "0",
            "type": "t_uint32"
          }
        ],
        "numberOfBytes": "32"
      },
      "t_uint224": {
        "encoding": "inplace",
        "label": "uint224",
        "numberOfBytes": "28"
      },
      "t_uint256": {
        "encoding": "inplace",
        "label": "uint256",
        "numberOfBytes": "32"
      },
      "t_uint32": {
        "encoding": "inplace",
        "label": "uint32",
        "numberOfBytes": "4"
      },
      "t_uint96": {
        "encoding": "inplace",
        "label": "uint96",
        "numberOfBytes": "12"
      },
      "t_userDefinedValueType(PoolMarketId)11152": {
        "encoding": "inplace",
        "label": "PoolMarketId",
        "numberOfBytes": "32"
      }
    }
  }
}