{
  "address": "0x9Ac449Fe41e67E5161C01d9366f655a8A7406A76",
  "abi": [
    {
      "inputs": [],
      "stateMutability": "nonpayable",
      "type": "constructor"
    },
    {
      "inputs": [],
      "name": "AddressesMustDiffer",
      "type": "error"
    },
    {
      "inputs": [],
      "name": "FundsTransferIsPaused",
      "type": "error"
    },
    {
      "inputs": [
        {
          "internalType": "uint256",
          "name": "sweepAmount",
          "type": "uint256"
        },
        {
          "internalType": "uint256",
          "name": "balance",
          "type": "uint256"
        }
      ],
      "name": "InsufficientBalance",
      "type": "error"
    },
    {
      "inputs": [],
      "name": "InvalidArguments",
      "type": "error"
    },
    {
      "inputs": [],
      "name": "InvalidCaller",
      "type": "error"
    },
    {
      "inputs": [
        {
          "internalType": "uint256",
          "name": "speed",
          "type": "uint256"
        },
        {
          "internalType": "uint256",
          "name": "maxSpeed",
          "type": "uint256"
        }
      ],
      "name": "InvalidDistributionSpeed",
      "type": "error"
    },
    {
      "inputs": [
        {
          "internalType": "uint256",
          "name": "loopsLimit",
          "type": "uint256"
        },
        {
          "internalType": "uint256",
          "name": "requiredLoops",
          "type": "uint256"
        }
      ],
      "name": "MaxLoopsLimitExceeded",
      "type": "error"
    },
    {
      "inputs": [
        {
          "internalType": "address",
          "name": "token",
          "type": "address"
        }
      ],
      "name": "TokenAlreadyInitialized",
      "type": "error"
    },
    {
      "inputs": [
        {
          "internalType": "address",
          "name": "token_",
          "type": "address"
        }
      ],
      "name": "TokenNotInitialized",
      "type": "error"
    },
    {
      "inputs": [
        {
          "internalType": "address",
          "name": "sender",
          "type": "address"
        },
        {
          "internalType": "address",
          "name": "calledContract",
          "type": "address"
        },
        {
          "internalType": "string",
          "name": "methodSignature",
          "type": "string"
        }
      ],
      "name": "Unauthorized",
      "type": "error"
    },
    {
      "anonymous": false,
      "inputs": [
        {
          "indexed": false,
          "internalType": "uint8",
          "name": "version",
          "type": "uint8"
        }
      ],
      "name": "Initialized",
      "type": "event"
    },
    {
      "anonymous": false,
      "inputs": [
        {
          "indexed": false,
          "internalType": "uint256",
          "name": "oldMaxLoopsLimit",
          "type": "uint256"
        },
        {
          "indexed": false,
          "internalType": "uint256",
          "name": "newmaxLoopsLimit",
          "type": "uint256"
        }
      ],
      "name": "MaxLoopsLimitUpdated",
      "type": "event"
    },
    {
      "anonymous": false,
      "inputs": [
        {
          "indexed": true,
          "internalType": "address",
          "name": "token",
          "type": "address"
        },
        {
          "indexed": false,
          "internalType": "uint256",
          "name": "oldSpeed",
          "type": "uint256"
        },
        {
          "indexed": false,
          "internalType": "uint256",
          "name": "newSpeed",
          "type": "uint256"
        }
      ],
      "name": "MaxTokenDistributionSpeedUpdated",
      "type": "event"
    },
    {
      "anonymous": false,
      "inputs": [
        {
          "indexed": false,
          "internalType": "address",
          "name": "oldAccessControlManager",
          "type": "address"
        },
        {
          "indexed": false,
          "internalType": "address",
          "name": "newAccessControlManager",
          "type": "address"
        }
      ],
      "name": "NewAccessControlManager",
      "type": "event"
    },
    {
      "anonymous": false,
      "inputs": [
        {
          "indexed": true,
          "internalType": "address",
          "name": "previousOwner",
          "type": "address"
        },
        {
          "indexed": true,
          "internalType": "address",
          "name": "newOwner",
          "type": "address"
        }
      ],
      "name": "OwnershipTransferStarted",
      "type": "event"
    },
    {
      "anonymous": false,
      "inputs": [
        {
          "indexed": true,
          "internalType": "address",
          "name": "previousOwner",
          "type": "address"
        },
        {
          "indexed": true,
          "internalType": "address",
          "name": "newOwner",
          "type": "address"
        }
      ],
      "name": "OwnershipTransferred",
      "type": "event"
    },
    {
      "anonymous": false,
      "inputs": [
        {
          "indexed": false,
          "internalType": "address",
          "name": "account",
          "type": "address"
        }
      ],
      "name": "Paused",
      "type": "event"
    },
    {
      "anonymous": false,
      "inputs": [
        {
          "indexed": true,
          "internalType": "address",
          "name": "oldPrimeToken",
          "type": "address"
        },
        {
          "indexed": true,
          "internalType": "address",
          "name": "newPrimeToken",
          "type": "address"
        }
      ],
      "name": "PrimeTokenUpdated",
      "type": "event"
    },
    {
      "anonymous": false,
      "inputs": [
        {
          "indexed": true,
          "internalType": "address",
          "name": "token",
          "type": "address"
        },
        {
          "indexed": true,
          "internalType": "address",
          "name": "to",
          "type": "address"
        },
        {
          "indexed": false,
          "internalType": "uint256",
          "name": "sweepAmount",
          "type": "uint256"
        }
      ],
      "name": "SweepToken",
      "type": "event"
    },
    {
      "anonymous": false,
      "inputs": [
        {
          "indexed": true,
          "internalType": "address",
          "name": "token",
          "type": "address"
        }
      ],
      "name": "TokenDistributionInitialized",
      "type": "event"
    },
    {
      "anonymous": false,
      "inputs": [
        {
          "indexed": true,
          "internalType": "address",
          "name": "token",
          "type": "address"
        },
        {
          "indexed": false,
          "internalType": "uint256",
          "name": "oldSpeed",
          "type": "uint256"
        },
        {
          "indexed": false,
          "internalType": "uint256",
          "name": "newSpeed",
          "type": "uint256"
        }
      ],
      "name": "TokenDistributionSpeedUpdated",
      "type": "event"
    },
    {
      "anonymous": false,
      "inputs": [
        {
          "indexed": true,
          "internalType": "address",
          "name": "token",
          "type": "address"
        },
        {
          "indexed": false,
          "internalType": "uint256",
          "name": "amount",
          "type": "uint256"
        }
      ],
      "name": "TokenTransferredToPrime",
      "type": "event"
    },
    {
      "anonymous": false,
      "inputs": [
        {
          "indexed": true,
          "internalType": "address",
          "name": "token",
          "type": "address"
        },
        {
          "indexed": false,
          "internalType": "uint256",
          "name": "amount",
          "type": "uint256"
        }
      ],
      "name": "TokensAccrued",
      "type": "event"
    },
    {
      "anonymous": false,
      "inputs": [
        {
          "indexed": false,
          "internalType": "address",
          "name": "account",
          "type": "address"
        }
      ],
      "name": "Unpaused",
      "type": "event"
    },
    {
      "inputs": [],
      "name": "DEFAULT_MAX_DISTRIBUTION_SPEED",
      "outputs": [
        {
          "internalType": "uint256",
          "name": "",
          "type": "uint256"
        }
      ],
      "stateMutability": "view",
      "type": "function"
    },
    {
      "inputs": [],
      "name": "acceptOwnership",
      "outputs": [],
      "stateMutability": "nonpayable",
      "type": "function"
    },
    {
      "inputs": [],
      "name": "accessControlManager",
      "outputs": [
        {
          "internalType": "contract IAccessControlManagerV8",
          "name": "",
          "type": "address"
        }
      ],
      "stateMutability": "view",
      "type": "function"
    },
    {
      "inputs": [
        {
          "internalType": "address",
          "name": "token_",
          "type": "address"
        }
      ],
      "name": "accrueTokens",
      "outputs": [],
      "stateMutability": "nonpayable",
      "type": "function"
    },
    {
      "inputs": [],
      "name": "getBlockNumber",
      "outputs": [
        {
          "internalType": "uint256",
          "name": "",
          "type": "uint256"
        }
      ],
      "stateMutability": "view",
      "type": "function"
    },
    {
      "inputs": [
        {
          "internalType": "address",
          "name": "token_",
          "type": "address"
        }
      ],
      "name": "getEffectiveDistributionSpeed",
      "outputs": [
        {
          "internalType": "uint256",
          "name": "",
          "type": "uint256"
        }
      ],
      "stateMutability": "view",
      "type": "function"
    },
    {
      "inputs": [
        {
          "internalType": "address",
          "name": "accessControlManager_",
          "type": "address"
        },
        {
          "internalType": "address[]",
          "name": "tokens_",
          "type": "address[]"
        },
        {
          "internalType": "uint256[]",
          "name": "distributionSpeeds_",
          "type": "uint256[]"
        },
        {
          "internalType": "uint256[]",
          "name": "maxDistributionSpeeds_",
          "type": "uint256[]"
        },
        {
          "internalType": "uint256",
          "name": "loopsLimit_",
          "type": "uint256"
        }
      ],
      "name": "initialize",
      "outputs": [],
      "stateMutability": "nonpayable",
      "type": "function"
    },
    {
      "inputs": [
        {
          "internalType": "address[]",
          "name": "tokens_",
          "type": "address[]"
        }
      ],
      "name": "initializeTokens",
      "outputs": [],
      "stateMutability": "nonpayable",
      "type": "function"
    },
    {
      "inputs": [
        {
          "internalType": "address",
          "name": "",
          "type": "address"
        }
      ],
      "name": "lastAccruedBlock",
      "outputs": [
        {
          "internalType": "uint256",
          "name": "",
          "type": "uint256"
        }
      ],
      "stateMutability": "view",
      "type": "function"
    },
    {
      "inputs": [],
      "name": "maxLoopsLimit",
      "outputs": [
        {
          "internalType": "uint256",
          "name": "",
          "type": "uint256"
        }
      ],
      "stateMutability": "view",
      "type": "function"
    },
    {
      "inputs": [
        {
          "internalType": "address",
          "name": "",
          "type": "address"
        }
      ],
      "name": "maxTokenDistributionSpeeds",
      "outputs": [
        {
          "internalType": "uint256",
          "name": "",
          "type": "uint256"
        }
      ],
      "stateMutability": "view",
      "type": "function"
    },
    {
      "inputs": [],
      "name": "owner",
      "outputs": [
        {
          "internalType": "address",
          "name": "",
          "type": "address"
        }
      ],
      "stateMutability": "view",
      "type": "function"
    },
    {
      "inputs": [],
      "name": "pauseFundsTransfer",
      "outputs": [],
      "stateMutability": "nonpayable",
      "type": "function"
    },
    {
      "inputs": [],
      "name": "paused",
      "outputs": [
        {
          "internalType": "bool",
          "name": "",
          "type": "bool"
        }
      ],
      "stateMutability": "view",
      "type": "function"
    },
    {
      "inputs": [],
      "name": "pendingOwner",
      "outputs": [
        {
          "internalType": "address",
          "name": "",
          "type": "address"
        }
      ],
      "stateMutability": "view",
      "type": "function"
    },
    {
      "inputs": [],
      "name": "prime",
      "outputs": [
        {
          "internalType": "address",
          "name": "",
          "type": "address"
        }
      ],
      "stateMutability": "view",
      "type": "function"
    },
    {
      "inputs": [
        {
          "internalType": "address",
          "name": "token_",
          "type": "address"
        }
      ],
      "name": "releaseFunds",
      "outputs": [],
      "stateMutability": "nonpayable",
      "type": "function"
    },
    {
      "inputs": [],
      "name": "renounceOwnership",
      "outputs": [],
      "stateMutability": "nonpayable",
      "type": "function"
    },
    {
      "inputs": [],
      "name": "resumeFundsTransfer",
      "outputs": [],
      "stateMutability": "nonpayable",
      "type": "function"
    },
    {
      "inputs": [
        {
          "internalType": "address",
          "name": "accessControlManager_",
          "type": "address"
        }
      ],
      "name": "setAccessControlManager",
      "outputs": [],
      "stateMutability": "nonpayable",
      "type": "function"
    },
    {
      "inputs": [
        {
          "internalType": "uint256",
          "name": "loopsLimit",
          "type": "uint256"
        }
      ],
      "name": "setMaxLoopsLimit",
      "outputs": [],
      "stateMutability": "nonpayable",
      "type": "function"
    },
    {
      "inputs": [
        {
          "internalType": "address[]",
          "name": "tokens_",
          "type": "address[]"
        },
        {
          "internalType": "uint256[]",
          "name": "maxDistributionSpeeds_",
          "type": "uint256[]"
        }
      ],
      "name": "setMaxTokensDistributionSpeed",
      "outputs": [],
      "stateMutability": "nonpayable",
      "type": "function"
    },
    {
      "inputs": [
        {
          "internalType": "address",
          "name": "prime_",
          "type": "address"
        }
      ],
      "name": "setPrimeToken",
      "outputs": [],
      "stateMutability": "nonpayable",
      "type": "function"
    },
    {
      "inputs": [
        {
          "internalType": "address[]",
          "name": "tokens_",
          "type": "address[]"
        },
        {
          "internalType": "uint256[]",
          "name": "distributionSpeeds_",
          "type": "uint256[]"
        }
      ],
      "name": "setTokensDistributionSpeed",
      "outputs": [],
      "stateMutability": "nonpayable",
      "type": "function"
    },
    {
      "inputs": [
        {
          "internalType": "contract IERC20Upgradeable",
          "name": "token_",
          "type": "address"
        },
        {
          "internalType": "address",
          "name": "to_",
          "type": "address"
        },
        {
          "internalType": "uint256",
          "name": "amount_",
          "type": "uint256"
        }
      ],
      "name": "sweepToken",
      "outputs": [],
      "stateMutability": "nonpayable",
      "type": "function"
    },
    {
      "inputs": [
        {
          "internalType": "address",
          "name": "",
          "type": "address"
        }
      ],
      "name": "tokenAmountAccrued",
      "outputs": [
        {
          "internalType": "uint256",
          "name": "",
          "type": "uint256"
        }
      ],
      "stateMutability": "view",
      "type": "function"
    },
    {
      "inputs": [
        {
          "internalType": "address",
          "name": "",
          "type": "address"
        }
      ],
      "name": "tokenDistributionSpeeds",
      "outputs": [
        {
          "internalType": "uint256",
          "name": "",
          "type": "uint256"
        }
      ],
      "stateMutability": "view",
      "type": "function"
    },
    {
      "inputs": [
        {
          "internalType": "address",
          "name": "newOwner",
          "type": "address"
        }
      ],
      "name": "transferOwnership",
      "outputs": [],
      "stateMutability": "nonpayable",
      "type": "function"
    }
  ],
  "transactionHash": "0xd238d86fed8e1f40bbd778540477a721e9f921d51110a3a6f1ec1c071315784b",
  "args": [],
  "numDeployments": 1,
  "solcInputHash": "c120d326511a7cda22ee0f6c22652b17",
  "bytecode": "0x608060405234801561001057600080fd5b5061001961001e565b6100dd565b600054610100900460ff161561008a5760405162461bcd60e51b815260206004820152602760248201527f496e697469616c697a61626c653a20636f6e747261637420697320696e697469604482015266616c697a696e6760c81b606482015260840160405180910390fd5b60005460ff908116146100db576000805460ff191660ff9081179091556040519081527f7f26b83ff96e1f2b6a682f133852f6798a09c465da95921460cefb38474024989060200160405180910390a15b565b611d92806100ec6000396000f3fe608060405234801561001057600080fd5b50600436106101c45760003560e01c80638da5cb5b116100f9578063c32094c711610097578063e30c397811610071578063e30c39781461039d578063e458a65d146103ae578063f2fde38b146103c1578063fa7781ff146103d457600080fd5b8063c32094c714610363578063c7ee005e14610376578063ce82e8411461038a57600080fd5b8063a666642b116100d3578063a666642b1461032e578063b4a0bdf314610341578063bc2f7dc314610352578063be26317e1461035a57600080fd5b80638da5cb5b146102e757806393920bf81461030c5780639dd5428e1461031f57600080fd5b80635c975abb11610166578063715018a611610140578063715018a6146102b157806379ba5097146102b957806380d45a2d146102c15780638aadf799146102d457600080fd5b80635c975abb14610267578063637c9b4e1461027d57806364aff9ec1461029e57600080fd5b80633131b065116101a25780633131b0651461022557806342cbb15c1461023857806343bf72831461023e5780635a38f84d1461025f57600080fd5b80630e32cb86146101c9578063192e7a7b146101de578063231f82bb146101f1575b600080fd5b6101dc6101d73660046118ef565b6103f5565b005b6101dc6101ec3660046118ef565b610409565b6102126101ff3660046118ef565b61012e6020526000908152604090205481565b6040519081526020015b60405180910390f35b6101dc61023336600461195f565b6104cf565b43610212565b61021261024c3660046118ef565b6101306020526000908152604090205481565b6101dc610529565b60c95460ff16604051901515815260200161021c565b61021261028b3660046118ef565b61012f6020526000908152604090205481565b6101dc6102ac3660046119a1565b610568565b6101dc61066e565b6101dc610680565b6101dc6102cf3660046119e2565b6106f7565b6101dc6102e23660046118ef565b61073e565b6033546001600160a01b03165b6040516001600160a01b03909116815260200161021c565b6101dc61031a3660046119fb565b6108e3565b610212670de0b6b3a764000081565b61021261033c3660046118ef565b610991565b6097546001600160a01b03166102f4565b6101dc610a48565b61021260fb5481565b6101dc6103713660046118ef565b610a86565b61012d546102f4906001600160a01b031681565b6101dc6103983660046119fb565b610b2b565b6065546001600160a01b03166102f4565b6101dc6103bc366004611a67565b610c00565b6101dc6103cf3660046118ef565b610e0d565b6102126103e23660046118ef565b6101316020526000908152604090205481565b6103fd610e7e565b61040681610ed8565b50565b61012d546001600160a01b0316338114610436576040516348f5c3ed60e01b815260040160405180910390fd5b60c95460ff161561045a5760405163f4eaf50160e01b815260040160405180910390fd5b6104638261073e565b6001600160a01b0382166000818152610131602090815260408083208054939055518281529192917fa80c25cc8959419d41ee66f93961c567b272badc10e0e117261a0ee31b55c312910160405180910390a26104ca6001600160a01b0384168383610f9e565b505050565b6104d7610e7e565b806104e181610ff0565b60005b818110156105235761051b84848381811061050157610501611b1b565b905060200201602081019061051691906118ef565b611021565b6001016104e4565b50505050565b61055e60405180604001604052806014815260200173706175736546756e64735472616e73666572282960601b8152506110b7565b610566611155565b565b610570610e7e565b6040516370a0823160e01b81523060048201526000906001600160a01b038516906370a0823190602401602060405180830381865afa1580156105b7573d6000803e3d6000fd5b505050506040513d601f19601f820116820180604052508101906105db9190611b31565b90508082111561060d5760405163cf47918160e01b815260048101839052602481018290526044015b60405180910390fd5b826001600160a01b0316846001600160a01b03167f6d25be279134f4ecaa4770aff0c3d916d9e7c5ef37b65ed95dbdba411f5d54d58460405161065291815260200190565b60405180910390a36105236001600160a01b0385168484610f9e565b610676610e7e565b61056660006111af565b60655433906001600160a01b031681146106ee5760405162461bcd60e51b815260206004820152602960248201527f4f776e61626c6532537465703a2063616c6c6572206973206e6f7420746865206044820152683732bb9037bbb732b960b91b6064820152608401610604565b610406816111af565b6107356040518060400160405280601981526020017f7365744d61784c6f6f70734c696d69742875696e7432353629000000000000008152506110b7565b610406816111c8565b61074781611262565b61075081611289565b6001600160a01b0381166000908152610130602052604090205443908082039082146104ca576001600160a01b038316600081815261012e60205260408082205490516370a0823160e01b81523060048201529092906370a0823190602401602060405180830381865afa1580156107cc573d6000803e3d6000fd5b505050506040513d601f19601f820116820180604052508101906107f09190611b31565b6001600160a01b03861660009081526101316020526040812054919250906108189083611b60565b9050821580159061082857508015155b156108c15760006108398486611b77565b905060008183111561084b578161084d565b825b6001600160a01b0389166000908152610131602052604081208054929350839290919061087b908490611b96565b90915550506040518181526001600160a01b038916907ffe854c4c4e633d5bb31aec1f39f01d9f8f01ad2e0212a0e576825ac986af05899060200160405180910390a250505b505050506001600160a01b039190911660009081526101306020526040902055565b610904604051806060016040528060328152602001611cfc603291396110b7565b8261090e81610ff0565b80821461092e576040516317dbc4cb60e21b815260040160405180910390fd5b60005b818110156109895761098186868381811061094e5761094e611b1b565b905060200201602081019061096391906118ef565b85858481811061097557610975611b1b565b905060200201356112cf565b600101610931565b505050505050565b6001600160a01b038116600081815261012e60205260408082205490516370a0823160e01b8152306004820152919290918391906370a0823190602401602060405180830381865afa1580156109eb573d6000803e3d6000fd5b505050506040513d601f19601f82011682018060405250810190610a0f9190611b31565b6001600160a01b0385166000908152610131602052604090205490915080821115610a3d5750909392505050565b506000949350505050565b610a7e60405180604001604052806015815260200174726573756d6546756e64735472616e73666572282960581b8152506110b7565b610566611340565b610a8e610e7e565b61012d546001600160a01b039081169082908116829003610ac2576040516380ae98f560e01b815260040160405180910390fd5b610acb83611262565b61012d546040516001600160a01b038086169216907fcf4d0ac7a2f943727f0189dd1f26ba0cde29a1b14f222163ac866d4f5167db9490600090a3505061012d80546001600160a01b0319166001600160a01b0392909216919091179055565b610b4c6040518060600160405280602f8152602001611d2e602f91396110b7565b82610b5681610ff0565b808214610b76576040516317dbc4cb60e21b815260040160405180910390fd5b60005b8181101561098957610bb0868683818110610b9657610b96611b1b565b9050602002016020810190610bab91906118ef565b611289565b610bf8868683818110610bc557610bc5611b1b565b9050602002016020810190610bda91906118ef565b858584818110610bec57610bec611b1b565b90506020020135611379565b600101610b79565b600054610100900460ff1615808015610c205750600054600160ff909116105b80610c3a5750303b158015610c3a575060005460ff166001145b610c9d5760405162461bcd60e51b815260206004820152602e60248201527f496e697469616c697a61626c653a20636f6e747261637420697320616c72656160448201526d191e481a5b9a5d1a585b1a5e995960921b6064820152608401610604565b6000805460ff191660011790558015610cc0576000805461ff0019166101001790555b610cc989611262565b610cd289611474565b610cda6114ac565b610ce3826111c8565b86610ced81610ff0565b8086141580610cfc5750808414155b15610d1a576040516317dbc4cb60e21b815260040160405180910390fd5b60005b81811015610dba57610d3a8a8a8381811061050157610501611b1b565b610d768a8a83818110610d4f57610d4f611b1b565b9050602002016020810190610d6491906118ef565b87878481811061097557610975611b1b565b610db28a8a83818110610d8b57610d8b611b1b565b9050602002016020810190610da091906118ef565b898984818110610bec57610bec611b1b565b600101610d1d565b50508015610e02576000805461ff0019169055604051600181527f7f26b83ff96e1f2b6a682f133852f6798a09c465da95921460cefb38474024989060200160405180910390a15b505050505050505050565b610e15610e7e565b606580546001600160a01b0383166001600160a01b03199091168117909155610e466033546001600160a01b031690565b6001600160a01b03167f38d16b8cac22d99fc7c124b9cd0de2d3fa1faef420bfe791d8c362d765e2270060405160405180910390a350565b6033546001600160a01b031633146105665760405162461bcd60e51b815260206004820181905260248201527f4f776e61626c653a2063616c6c6572206973206e6f7420746865206f776e65726044820152606401610604565b6001600160a01b038116610f3c5760405162461bcd60e51b815260206004820152602560248201527f696e76616c696420616365737320636f6e74726f6c206d616e61676572206164604482015264647265737360d81b6064820152608401610604565b609780546001600160a01b038381166001600160a01b031983168117909355604080519190921680825260208201939093527f66fd58e82f7b31a2a5c30e0888f3093efe4e111b00cd2b0c31fe014601293aa091015b60405180910390a15050565b604080516001600160a01b038416602482015260448082018490528251808303909101815260649091019091526020810180516001600160e01b031663a9059cbb60e01b1790526104ca9084906114db565b60fb548111156104065760fb5460405163792bfb1b60e11b8152600481019190915260248101829052604401610604565b61102a81611262565b6001600160a01b0381166000908152610130602052604090205443908015611070576040516303b51ceb60e11b81526001600160a01b0384166004820152602401610604565b6001600160a01b03831660008181526101306020526040808220859055517fcf6e06116a82c1b468912f23d8bb1d126edbb21bc0864d6d5169e3be39b1a8189190a2505050565b6097546040516318c5e8ab60e01b81526000916001600160a01b0316906318c5e8ab906110ea9033908690600401611c06565b602060405180830381865afa158015611107573d6000803e3d6000fd5b505050506040513d601f19601f8201168201806040525081019061112b9190611c2a565b90508061115157333083604051634a3fa29360e01b815260040161060493929190611c4c565b5050565b61115d6115b0565b60c9805460ff191660011790557f62e78cea01bee320cd4e420270b5ea74000d11b0c9f74754ebdbfc544b05a2586111923390565b6040516001600160a01b03909116815260200160405180910390a1565b606580546001600160a01b0319169055610406816115f6565b60fb5481116112245760405162461bcd60e51b815260206004820152602260248201527f436f6d7074726f6c6c65723a20496e76616c6964206d61784c6f6f70734c696d6044820152611a5d60f21b6064820152608401610604565b60fb80549082905560408051828152602081018490527fc2d09fef144f7c8a86f71ea459f8fc17f675768eb1ae369cbd77fb31d467aafa9101610f92565b6001600160a01b038116610406576040516317dbc4cb60e21b815260040160405180910390fd5b6001600160a01b0381166000908152610130602052604081205490819003611151576040516341ea4b5960e01b81526001600160a01b0383166004820152602401610604565b6001600160a01b038216600081815261012e60209081526040918290205482519081529081018490527f2351eb1e51f0d96d3d2dc08e3c9bddbdb2153580843330b57433c3bf5031be01910160405180910390a26001600160a01b03909116600090815261012f6020526040902055565b611348611648565b60c9805460ff191690557f5db9ee0a495bf2e6ff9c91a7834c1ba4fdd244a5e8aa4e537bd38aeae4b073aa33611192565b6001600160a01b038216600090815261012f6020526040812054908190036113c357506001600160a01b038216600090815261012f60205260409020670de0b6b3a7640000908190555b808211156113ee57604051631cf8f4dd60e11b81526004810183905260248101829052604401610604565b6001600160a01b038316600090815261012e6020526040902054828114610523576114188461073e565b6001600160a01b038416600081815261012e602090815260409182902086905581518481529081018690527f2a139b40b9bf8c89ae5053746323912620b9d8ea3b076b098b1bc57702abf3a5910160405180910390a250505050565b600054610100900460ff1661149b5760405162461bcd60e51b815260040161060490611c81565b6114a3611691565b610406816116c0565b600054610100900460ff166114d35760405162461bcd60e51b815260040161060490611c81565b6105666116e7565b6000611530826040518060400160405280602081526020017f5361666545524332303a206c6f772d6c6576656c2063616c6c206661696c6564815250856001600160a01b031661171a9092919063ffffffff16565b90508051600014806115515750808060200190518101906115519190611c2a565b6104ca5760405162461bcd60e51b815260206004820152602a60248201527f5361666545524332303a204552433230206f7065726174696f6e20646964206e6044820152691bdd081cdd58d8d9595960b21b6064820152608401610604565b60c95460ff16156105665760405162461bcd60e51b815260206004820152601060248201526f14185d5cd8589b194e881c185d5cd95960821b6044820152606401610604565b603380546001600160a01b038381166001600160a01b0319831681179093556040519116919082907f8be0079c531659141344cd1fd0a4f28419497f9722a3daafe3b4186f6b6457e090600090a35050565b60c95460ff166105665760405162461bcd60e51b815260206004820152601460248201527314185d5cd8589b194e881b9bdd081c185d5cd95960621b6044820152606401610604565b600054610100900460ff166116b85760405162461bcd60e51b815260040161060490611c81565b610566611731565b600054610100900460ff166103fd5760405162461bcd60e51b815260040161060490611c81565b600054610100900460ff1661170e5760405162461bcd60e51b815260040161060490611c81565b60c9805460ff19169055565b60606117298484600085611761565b949350505050565b600054610100900460ff166117585760405162461bcd60e51b815260040161060490611c81565b610566336111af565b6060824710156117c25760405162461bcd60e51b815260206004820152602660248201527f416464726573733a20696e73756666696369656e742062616c616e636520666f6044820152651c8818d85b1b60d21b6064820152608401610604565b600080866001600160a01b031685876040516117de9190611ccc565b60006040518083038185875af1925050503d806000811461181b576040519150601f19603f3d011682016040523d82523d6000602084013e611820565b606091505b50915091506118318783838761183c565b979650505050505050565b606083156118ab5782516000036118a4576001600160a01b0385163b6118a45760405162461bcd60e51b815260206004820152601d60248201527f416464726573733a2063616c6c20746f206e6f6e2d636f6e74726163740000006044820152606401610604565b5081611729565b61172983838151156118c05781518083602001fd5b8060405162461bcd60e51b81526004016106049190611ce8565b6001600160a01b038116811461040657600080fd5b60006020828403121561190157600080fd5b813561190c816118da565b9392505050565b60008083601f84011261192557600080fd5b50813567ffffffffffffffff81111561193d57600080fd5b6020830191508360208260051b850101111561195857600080fd5b9250929050565b6000806020838503121561197257600080fd5b823567ffffffffffffffff81111561198957600080fd5b61199585828601611913565b90969095509350505050565b6000806000606084860312156119b657600080fd5b83356119c1816118da565b925060208401356119d1816118da565b929592945050506040919091013590565b6000602082840312156119f457600080fd5b5035919050565b60008060008060408587031215611a1157600080fd5b843567ffffffffffffffff80821115611a2957600080fd5b611a3588838901611913565b90965094506020870135915080821115611a4e57600080fd5b50611a5b87828801611913565b95989497509550505050565b60008060008060008060008060a0898b031215611a8357600080fd5b8835611a8e816118da565b9750602089013567ffffffffffffffff80821115611aab57600080fd5b611ab78c838d01611913565b909950975060408b0135915080821115611ad057600080fd5b611adc8c838d01611913565b909750955060608b0135915080821115611af557600080fd5b50611b028b828c01611913565b999c989b50969995989497949560800135949350505050565b634e487b7160e01b600052603260045260246000fd5b600060208284031215611b4357600080fd5b5051919050565b634e487b7160e01b600052601160045260246000fd5b600082821015611b7257611b72611b4a565b500390565b6000816000190483118215151615611b9157611b91611b4a565b500290565b60008219821115611ba957611ba9611b4a565b500190565b60005b83811015611bc9578181015183820152602001611bb1565b838111156105235750506000910152565b60008151808452611bf2816020860160208601611bae565b601f01601f19169290920160200192915050565b6001600160a01b038316815260406020820181905260009061172990830184611bda565b600060208284031215611c3c57600080fd5b8151801515811461190c57600080fd5b6001600160a01b03848116825283166020820152606060408201819052600090611c7890830184611bda565b95945050505050565b6020808252602b908201527f496e697469616c697a61626c653a20636f6e7472616374206973206e6f74206960408201526a6e697469616c697a696e6760a81b606082015260800190565b60008251611cde818460208701611bae565b9190910192915050565b60208152600061190c6020830184611bda56fe7365744d6178546f6b656e73446973747269627574696f6e537065656428616464726573735b5d2c75696e743235365b5d29736574546f6b656e73446973747269627574696f6e537065656428616464726573735b5d2c75696e743235365b5d29a26469706673582212201b6d8718534b307b2130709cc0e319f7a90f38867b2553db52a267980ddeffcf64736f6c634300080d0033",
  "devdoc": {
    "author": "Venus",
    "kind": "dev",
    "methods": {
      "acceptOwnership()": {
        "details": "The new owner accepts the ownership transfer."
      },
      "accrueTokens(address)": {
        "custom:event": "Emits TokensAccrued event",
        "params": {
          "token_": "Address of the token"
        }
      },
      "constructor": {
        "custom:oz-upgrades-unsafe-allow": "constructor"
      },
      "getBlockNumber()": {
        "returns": {
          "_0": "blockNumber returns the block number"
        }
      },
      "getEffectiveDistributionSpeed(address)": {
        "params": {
          "token_": "Address of the token"
        },
        "returns": {
          "_0": "speed returns the per block reward"
        }
      },
      "initialize(address,address[],uint256[],uint256[],uint256)": {
        "custom:error": "Throw InvalidArguments on different length of tokens and speeds array",
        "details": "Initializes the deployer to owner",
        "params": {
          "accessControlManager_": "AccessControlManager contract address",
          "distributionSpeeds_": "New distribution speeds for tokens",
          "loopsLimit_": "Maximum number of loops allowed in a single transaction",
          "tokens_": "Array of addresses of the tokens"
        }
      },
      "initializeTokens(address[])": {
        "custom:access": "Only Governance",
        "params": {
          "tokens_": "Array of addresses of the tokens to be intialized"
        }
      },
      "owner()": {
        "details": "Returns the address of the current owner."
      },
      "pauseFundsTransfer()": {
        "custom:access": "Controlled by ACM"
      },
      "paused()": {
        "details": "Returns true if the contract is paused, and false otherwise."
      },
      "pendingOwner()": {
        "details": "Returns the address of the pending owner."
      },
      "releaseFunds(address)": {
        "custom:error": "Throw InvalidArguments on Zero address(token)Throw FundsTransferIsPaused is pausedThrow InvalidCaller if the sender is not the Prime contract",
        "custom:event": "Emits TokenTransferredToPrime event",
        "params": {
          "token_": "The token to release to the Prime contract"
        }
      },
      "renounceOwnership()": {
        "details": "Leaves the contract without owner. It will not be possible to call `onlyOwner` functions. Can only be called by the current owner. NOTE: Renouncing ownership will leave the contract without an owner, thereby disabling any functionality that is only available to the owner."
      },
      "resumeFundsTransfer()": {
        "custom:access": "Controlled by ACM"
      },
      "setAccessControlManager(address)": {
        "custom:access": "Only Governance",
        "custom:event": "Emits NewAccessControlManager event",
        "details": "Admin function to set address of AccessControlManager",
        "params": {
          "accessControlManager_": "The new address of the AccessControlManager"
        }
      },
      "setMaxLoopsLimit(uint256)": {
        "custom:access": "Controlled by ACM",
        "custom:event": "Emits MaxLoopsLimitUpdated event on success",
        "params": {
          "loopsLimit": "Limit for the max loops can execute at a time"
        }
      },
      "setMaxTokensDistributionSpeed(address[],uint256[])": {
        "custom:access": "Controlled by ACM",
        "custom:error": "Throw InvalidArguments on different length of tokens and speeds array",
        "params": {
          "maxDistributionSpeeds_": "New distribution speeds for tokens",
          "tokens_": "Array of addresses of the tokens"
        }
      },
      "setPrimeToken(address)": {
        "custom:access": "Only owner",
        "custom:event": "Emits PrimeTokenUpdated event",
        "params": {
          "prime_": "The new address of the prime token contract"
        }
      },
      "setTokensDistributionSpeed(address[],uint256[])": {
        "custom:access": "Controlled by ACM",
        "custom:error": "Throw InvalidArguments on different length of tokens and speeds array",
        "params": {
          "distributionSpeeds_": "New distribution speeds for tokens",
          "tokens_": "Array of addresses of the tokens"
        }
      },
      "sweepToken(address,address,uint256)": {
        "custom:access": "Only Governance",
        "custom:error": "Throw InsufficientBalance if amount_ is greater than the available balance of the token in the contract",
        "custom:event": "Emits SweepToken event",
        "params": {
          "amount_": "The amount of tokens needs to transfer",
          "to_": "The address of the recipient",
          "token_": "The address of the ERC-20 token to sweep"
        }
      },
      "transferOwnership(address)": {
        "details": "Starts the ownership transfer of the contract to a new account. Replaces the pending transfer if there is one. Can only be called by the current owner."
      }
    },
    "stateVariables": {
      "__gap": {
        "details": "This empty reserved space is put in place to allow future versions to add new variables without shifting down storage in the inheritance chain."
      }
    },
    "title": "PrimeLiquidityProvider",
    "version": 1
  },
  "userdoc": {
    "errors": {
      "AddressesMustDiffer()": [
        {
          "notice": "Error thrown when argument value in setter is same as previous value"
        }
      ],
      "FundsTransferIsPaused()": [
        {
          "notice": "Error thrown when funds transfer is paused"
        }
      ],
      "InsufficientBalance(uint256,uint256)": [
        {
          "notice": "Error thrown when PrimeLiquidityProvider's balance is less than sweep amount"
        }
      ],
      "InvalidArguments()": [
        {
          "notice": "Thrown when arguments are passed are invalid"
        }
      ],
      "InvalidCaller()": [
        {
          "notice": "Thrown when caller is not the desired caller"
        }
      ],
      "InvalidDistributionSpeed(uint256,uint256)": [
        {
          "notice": "Thrown when distribution speed is greater than maxTokenDistributionSpeeds[tokenAddress]"
        }
      ],
      "MaxLoopsLimitExceeded(uint256,uint256)": [
        {
          "notice": "Thrown an error on maxLoopsLimit exceeds for any loop"
        }
      ],
      "TokenAlreadyInitialized(address)": [
        {
          "notice": "Thrown when token is initialized"
        }
      ],
      "TokenNotInitialized(address)": [
        {
          "notice": "Error thrown when interest accrue is called for not initialized token"
        }
      ],
      "Unauthorized(address,address,string)": [
        {
          "notice": "Thrown when the action is prohibited by AccessControlManager"
        }
      ]
    },
    "events": {
      "MaxLoopsLimitUpdated(uint256,uint256)": {
        "notice": "Emitted when max loops limit is set"
      },
      "MaxTokenDistributionSpeedUpdated(address,uint256,uint256)": {
        "notice": "Emitted when a new max distribution speed for token is set"
      },
      "NewAccessControlManager(address,address)": {
        "notice": "Emitted when access control manager contract address is changed"
      },
      "PrimeTokenUpdated(address,address)": {
        "notice": "Emitted when prime token contract address is changed"
      },
      "SweepToken(address,address,uint256)": {
        "notice": "Emitted on sweep token success"
      },
      "TokenDistributionInitialized(address)": {
        "notice": "Emitted when a token distribution is initialized"
      },
      "TokenDistributionSpeedUpdated(address,uint256,uint256)": {
        "notice": "Emitted when a new token distribution speed is set"
      },
      "TokenTransferredToPrime(address,uint256)": {
        "notice": "Emitted when token is transferred to the prime contract"
      },
      "TokensAccrued(address,uint256)": {
        "notice": "Emitted when distribution state(Index and block) is updated"
      }
    },
    "kind": "user",
    "methods": {
      "DEFAULT_MAX_DISTRIBUTION_SPEED()": {
        "notice": "The default max token distribution speed"
      },
      "accessControlManager()": {
        "notice": "Returns the address of the access control manager contract"
      },
      "accrueTokens(address)": {
        "notice": "Accrue token by updating the distribution state"
      },
      "getBlockNumber()": {
        "notice": "Get the latest block number"
      },
      "getEffectiveDistributionSpeed(address)": {
        "notice": "Get rewards per block for token"
      },
      "initialize(address,address[],uint256[],uint256[],uint256)": {
        "notice": "PrimeLiquidityProvider initializer"
      },
      "initializeTokens(address[])": {
        "notice": "Initialize the distribution of the token"
      },
      "lastAccruedBlock(address)": {
        "notice": "The rate at which token is distributed to the Prime contract"
      },
      "maxTokenDistributionSpeeds(address)": {
        "notice": "The max token distribution speed for token"
      },
      "pauseFundsTransfer()": {
        "notice": "Pause fund transfer of tokens to Prime contract"
      },
      "prime()": {
        "notice": "Address of the Prime contract"
      },
      "releaseFunds(address)": {
        "notice": "Claim all the token accrued till last block"
      },
      "resumeFundsTransfer()": {
        "notice": "Resume fund transfer of tokens to Prime contract"
      },
      "setAccessControlManager(address)": {
        "notice": "Sets the address of AccessControlManager"
      },
      "setMaxLoopsLimit(uint256)": {
        "notice": "Set the limit for the loops can iterate to avoid the DOS"
      },
      "setMaxTokensDistributionSpeed(address[],uint256[])": {
        "notice": "Set max distribution speed for token (amount of maximum token distribute per block)"
      },
      "setPrimeToken(address)": {
        "notice": "Set the prime token contract address"
      },
      "setTokensDistributionSpeed(address[],uint256[])": {
        "notice": "Set distribution speed (amount of token distribute per block)"
      },
      "sweepToken(address,address,uint256)": {
        "notice": "A public function to sweep accidental ERC-20 transfers to this contract. Tokens are sent to user"
      },
      "tokenAmountAccrued(address)": {
        "notice": "The token accrued but not yet transferred to prime contract"
      },
      "tokenDistributionSpeeds(address)": {
        "notice": "The rate at which token is distributed (per block)"
      }
    },
    "notice": "PrimeLiquidityProvider is used to fund Prime",
    "version": 1
  },
  "storageLayout": {
    "storage": [
      {
        "astId": 244,
        "contract": "contracts/Tokens/Prime/PrimeLiquidityProvider.sol:PrimeLiquidityProvider",
        "label": "_initialized",
        "offset": 0,
        "slot": "0",
        "type": "t_uint8"
      },
      {
        "astId": 247,
        "contract": "contracts/Tokens/Prime/PrimeLiquidityProvider.sol:PrimeLiquidityProvider",
        "label": "_initializing",
        "offset": 1,
        "slot": "0",
        "type": "t_bool"
      },
      {
        "astId": 1503,
        "contract": "contracts/Tokens/Prime/PrimeLiquidityProvider.sol:PrimeLiquidityProvider",
        "label": "__gap",
        "offset": 0,
        "slot": "1",
        "type": "t_array(t_uint256)50_storage"
      },
      {
        "astId": 116,
        "contract": "contracts/Tokens/Prime/PrimeLiquidityProvider.sol:PrimeLiquidityProvider",
        "label": "_owner",
        "offset": 0,
        "slot": "51",
        "type": "t_address"
      },
      {
        "astId": 236,
        "contract": "contracts/Tokens/Prime/PrimeLiquidityProvider.sol:PrimeLiquidityProvider",
        "label": "__gap",
        "offset": 0,
        "slot": "52",
        "type": "t_array(t_uint256)49_storage"
      },
      {
        "astId": 25,
        "contract": "contracts/Tokens/Prime/PrimeLiquidityProvider.sol:PrimeLiquidityProvider",
        "label": "_pendingOwner",
        "offset": 0,
        "slot": "101",
        "type": "t_address"
      },
      {
        "astId": 104,
        "contract": "contracts/Tokens/Prime/PrimeLiquidityProvider.sol:PrimeLiquidityProvider",
        "label": "__gap",
        "offset": 0,
        "slot": "102",
        "type": "t_array(t_uint256)49_storage"
      },
      {
        "astId": 3132,
        "contract": "contracts/Tokens/Prime/PrimeLiquidityProvider.sol:PrimeLiquidityProvider",
        "label": "_accessControlManager",
        "offset": 0,
        "slot": "151",
        "type": "t_contract(IAccessControlManagerV8)3316"
      },
      {
        "astId": 3137,
        "contract": "contracts/Tokens/Prime/PrimeLiquidityProvider.sol:PrimeLiquidityProvider",
        "label": "__gap",
        "offset": 0,
        "slot": "152",
        "type": "t_array(t_uint256)49_storage"
      },
      {
        "astId": 427,
        "contract": "contracts/Tokens/Prime/PrimeLiquidityProvider.sol:PrimeLiquidityProvider",
        "label": "_paused",
        "offset": 0,
        "slot": "201",
        "type": "t_bool"
      },
      {
        "astId": 532,
        "contract": "contracts/Tokens/Prime/PrimeLiquidityProvider.sol:PrimeLiquidityProvider",
        "label": "__gap",
        "offset": 0,
        "slot": "202",
        "type": "t_array(t_uint256)49_storage"
      },
      {
        "astId": 3321,
        "contract": "contracts/Tokens/Prime/PrimeLiquidityProvider.sol:PrimeLiquidityProvider",
        "label": "maxLoopsLimit",
        "offset": 0,
        "slot": "251",
        "type": "t_uint256"
      },
      {
        "astId": 3326,
        "contract": "contracts/Tokens/Prime/PrimeLiquidityProvider.sol:PrimeLiquidityProvider",
        "label": "__gap",
        "offset": 0,
        "slot": "252",
        "type": "t_array(t_uint256)49_storage"
      },
      {
        "astId": 8742,
        "contract": "contracts/Tokens/Prime/PrimeLiquidityProvider.sol:PrimeLiquidityProvider",
        "label": "prime",
        "offset": 0,
        "slot": "301",
        "type": "t_address"
      },
      {
        "astId": 8747,
        "contract": "contracts/Tokens/Prime/PrimeLiquidityProvider.sol:PrimeLiquidityProvider",
        "label": "tokenDistributionSpeeds",
        "offset": 0,
        "slot": "302",
        "type": "t_mapping(t_address,t_uint256)"
      },
      {
        "astId": 8752,
        "contract": "contracts/Tokens/Prime/PrimeLiquidityProvider.sol:PrimeLiquidityProvider",
        "label": "maxTokenDistributionSpeeds",
        "offset": 0,
        "slot": "303",
        "type": "t_mapping(t_address,t_uint256)"
      },
      {
        "astId": 8757,
        "contract": "contracts/Tokens/Prime/PrimeLiquidityProvider.sol:PrimeLiquidityProvider",
        "label": "lastAccruedBlock",
        "offset": 0,
        "slot": "304",
        "type": "t_mapping(t_address,t_uint256)"
      },
      {
        "astId": 8762,
        "contract": "contracts/Tokens/Prime/PrimeLiquidityProvider.sol:PrimeLiquidityProvider",
        "label": "tokenAmountAccrued",
        "offset": 0,
        "slot": "305",
        "type": "t_mapping(t_address,t_uint256)"
      },
      {
        "astId": 8767,
        "contract": "contracts/Tokens/Prime/PrimeLiquidityProvider.sol:PrimeLiquidityProvider",
        "label": "__gap",
        "offset": 0,
        "slot": "306",
        "type": "t_array(t_uint256)45_storage"
      }
    ],
    "types": {
      "t_address": {
        "encoding": "inplace",
        "label": "address",
        "numberOfBytes": "20"
      },
      "t_array(t_uint256)45_storage": {
        "base": "t_uint256",
        "encoding": "inplace",
        "label": "uint256[45]",
        "numberOfBytes": "1440"
      },
      "t_array(t_uint256)49_storage": {
        "base": "t_uint256",
        "encoding": "inplace",
        "label": "uint256[49]",
        "numberOfBytes": "1568"
      },
      "t_array(t_uint256)50_storage": {
        "base": "t_uint256",
        "encoding": "inplace",
        "label": "uint256[50]",
        "numberOfBytes": "1600"
      },
      "t_bool": {
        "encoding": "inplace",
        "label": "bool",
        "numberOfBytes": "1"
      },
      "t_contract(IAccessControlManagerV8)3316": {
        "encoding": "inplace",
        "label": "contract IAccessControlManagerV8",
        "numberOfBytes": "20"
      },
      "t_mapping(t_address,t_uint256)": {
        "encoding": "mapping",
        "key": "t_address",
        "label": "mapping(address => uint256)",
        "numberOfBytes": "32",
        "value": "t_uint256"
      },
      "t_uint256": {
        "encoding": "inplace",
        "label": "uint256",
        "numberOfBytes": "32"
      },
      "t_uint8": {
        "encoding": "inplace",
        "label": "uint8",
        "numberOfBytes": "1"
      }
    }
  }
}