{
  "address": "0xE577227E3A170C76E2cB8CC757af037b4a97b530",
  "abi": [
    {
      "inputs": [
        {
          "internalType": "address",
          "name": "_wbnb",
          "type": "address"
        },
        {
          "internalType": "address",
          "name": "_vbnb",
          "type": "address"
        },
        {
          "internalType": "uint256",
          "name": "_blocksPerYear",
          "type": "uint256"
        },
        {
          "internalType": "uint256",
          "name": "_stakingPeriod",
          "type": "uint256"
        },
        {
          "internalType": "uint256",
          "name": "_minimumStakedXVS",
          "type": "uint256"
        },
        {
          "internalType": "uint256",
          "name": "_maximumXVSCap",
          "type": "uint256"
        }
      ],
      "stateMutability": "nonpayable",
      "type": "constructor"
    },
    {
      "inputs": [],
      "name": "AssetAlreadyExists",
      "type": "error"
    },
    {
      "inputs": [
        {
          "internalType": "int256",
          "name": "x",
          "type": "int256"
        }
      ],
      "name": "ExpTooLarge",
      "type": "error"
    },
    {
      "inputs": [],
      "name": "IneligibleToClaim",
      "type": "error"
    },
    {
      "inputs": [],
      "name": "InvalidAddress",
      "type": "error"
    },
    {
      "inputs": [],
      "name": "InvalidAlphaArguments",
      "type": "error"
    },
    {
      "inputs": [],
      "name": "InvalidBlocksPerYear",
      "type": "error"
    },
    {
      "inputs": [],
      "name": "InvalidCaller",
      "type": "error"
    },
    {
      "inputs": [],
      "name": "InvalidComptroller",
      "type": "error"
    },
    {
      "inputs": [],
      "name": "InvalidFixedPoint",
      "type": "error"
    },
    {
      "inputs": [
        {
          "internalType": "uint256",
          "name": "n",
          "type": "uint256"
        },
        {
          "internalType": "uint256",
          "name": "d",
          "type": "uint256"
        }
      ],
      "name": "InvalidFraction",
      "type": "error"
    },
    {
      "inputs": [],
      "name": "InvalidLimit",
      "type": "error"
    },
    {
      "inputs": [],
      "name": "InvalidVToken",
      "type": "error"
    },
    {
      "inputs": [
        {
          "internalType": "int256",
          "name": "x",
          "type": "int256"
        }
      ],
      "name": "LnNonRealResult",
      "type": "error"
    },
    {
      "inputs": [
        {
          "internalType": "int256",
          "name": "x",
          "type": "int256"
        }
      ],
      "name": "LnTooLarge",
      "type": "error"
    },
    {
      "inputs": [],
      "name": "MarketAlreadyExists",
      "type": "error"
    },
    {
      "inputs": [],
      "name": "MarketNotSupported",
      "type": "error"
    },
    {
      "inputs": [
        {
          "internalType": "uint256",
          "name": "loopsLimit",
          "type": "uint256"
        },
        {
          "internalType": "uint256",
          "name": "requiredLoops",
          "type": "uint256"
        }
      ],
      "name": "MaxLoopsLimitExceeded",
      "type": "error"
    },
    {
      "inputs": [],
      "name": "NoScoreUpdatesRequired",
      "type": "error"
    },
    {
      "inputs": [
        {
          "internalType": "address",
          "name": "sender",
          "type": "address"
        },
        {
          "internalType": "address",
          "name": "calledContract",
          "type": "address"
        },
        {
          "internalType": "string",
          "name": "methodSignature",
          "type": "string"
        }
      ],
      "name": "Unauthorized",
      "type": "error"
    },
    {
      "inputs": [],
      "name": "UserHasNoPrimeToken",
      "type": "error"
    },
    {
      "inputs": [],
      "name": "WaitMoreTime",
      "type": "error"
    },
    {
      "anonymous": false,
      "inputs": [
        {
          "indexed": true,
          "internalType": "uint128",
          "name": "oldNumerator",
          "type": "uint128"
        },
        {
          "indexed": true,
          "internalType": "uint128",
          "name": "oldDenominator",
          "type": "uint128"
        },
        {
          "indexed": true,
          "internalType": "uint128",
          "name": "newNumerator",
          "type": "uint128"
        },
        {
          "indexed": false,
          "internalType": "uint128",
          "name": "newDenominator",
          "type": "uint128"
        }
      ],
      "name": "AlphaUpdated",
      "type": "event"
    },
    {
      "anonymous": false,
      "inputs": [
        {
          "indexed": true,
          "internalType": "address",
          "name": "user",
          "type": "address"
        }
      ],
      "name": "Burn",
      "type": "event"
    },
    {
      "anonymous": false,
      "inputs": [
        {
          "indexed": false,
          "internalType": "uint8",
          "name": "version",
          "type": "uint8"
        }
      ],
      "name": "Initialized",
      "type": "event"
    },
    {
      "anonymous": false,
      "inputs": [
        {
          "indexed": true,
          "internalType": "address",
          "name": "user",
          "type": "address"
        },
        {
          "indexed": true,
          "internalType": "address",
          "name": "market",
          "type": "address"
        },
        {
          "indexed": false,
          "internalType": "uint256",
          "name": "amount",
          "type": "uint256"
        }
      ],
      "name": "InterestClaimed",
      "type": "event"
    },
    {
      "anonymous": false,
      "inputs": [
        {
          "indexed": true,
          "internalType": "address",
          "name": "market",
          "type": "address"
        },
        {
          "indexed": true,
          "internalType": "uint256",
          "name": "supplyMultiplier",
          "type": "uint256"
        },
        {
          "indexed": true,
          "internalType": "uint256",
          "name": "borrowMultiplier",
          "type": "uint256"
        }
      ],
      "name": "MarketAdded",
      "type": "event"
    },
    {
      "anonymous": false,
      "inputs": [
        {
          "indexed": false,
          "internalType": "uint256",
          "name": "oldMaxLoopsLimit",
          "type": "uint256"
        },
        {
          "indexed": false,
          "internalType": "uint256",
          "name": "newmaxLoopsLimit",
          "type": "uint256"
        }
      ],
      "name": "MaxLoopsLimitUpdated",
      "type": "event"
    },
    {
      "anonymous": false,
      "inputs": [
        {
          "indexed": true,
          "internalType": "address",
          "name": "user",
          "type": "address"
        },
        {
          "indexed": false,
          "internalType": "bool",
          "name": "isIrrevocable",
          "type": "bool"
        }
      ],
      "name": "Mint",
      "type": "event"
    },
    {
      "anonymous": false,
      "inputs": [
        {
          "indexed": true,
          "internalType": "uint256",
          "name": "oldIrrevocableLimit",
          "type": "uint256"
        },
        {
          "indexed": true,
          "internalType": "uint256",
          "name": "oldRevocableLimit",
          "type": "uint256"
        },
        {
          "indexed": true,
          "internalType": "uint256",
          "name": "newIrrevocableLimit",
          "type": "uint256"
        },
        {
          "indexed": false,
          "internalType": "uint256",
          "name": "newRevocableLimit",
          "type": "uint256"
        }
      ],
      "name": "MintLimitsUpdated",
      "type": "event"
    },
    {
      "anonymous": false,
      "inputs": [
        {
          "indexed": true,
          "internalType": "address",
          "name": "market",
          "type": "address"
        },
        {
          "indexed": true,
          "internalType": "uint256",
          "name": "oldSupplyMultiplier",
          "type": "uint256"
        },
        {
          "indexed": true,
          "internalType": "uint256",
          "name": "oldBorrowMultiplier",
          "type": "uint256"
        },
        {
          "indexed": false,
          "internalType": "uint256",
          "name": "newSupplyMultiplier",
          "type": "uint256"
        },
        {
          "indexed": false,
          "internalType": "uint256",
          "name": "newBorrowMultiplier",
          "type": "uint256"
        }
      ],
      "name": "MultiplierUpdated",
      "type": "event"
    },
    {
      "anonymous": false,
      "inputs": [
        {
          "indexed": false,
          "internalType": "address",
          "name": "oldAccessControlManager",
          "type": "address"
        },
        {
          "indexed": false,
          "internalType": "address",
          "name": "newAccessControlManager",
          "type": "address"
        }
      ],
      "name": "NewAccessControlManager",
      "type": "event"
    },
    {
      "anonymous": false,
      "inputs": [
        {
          "indexed": true,
          "internalType": "address",
          "name": "previousOwner",
          "type": "address"
        },
        {
          "indexed": true,
          "internalType": "address",
          "name": "newOwner",
          "type": "address"
        }
      ],
      "name": "OwnershipTransferStarted",
      "type": "event"
    },
    {
      "anonymous": false,
      "inputs": [
        {
          "indexed": true,
          "internalType": "address",
          "name": "previousOwner",
          "type": "address"
        },
        {
          "indexed": true,
          "internalType": "address",
          "name": "newOwner",
          "type": "address"
        }
      ],
      "name": "OwnershipTransferred",
      "type": "event"
    },
    {
      "anonymous": false,
      "inputs": [
        {
          "indexed": false,
          "internalType": "address",
          "name": "account",
          "type": "address"
        }
      ],
      "name": "Paused",
      "type": "event"
    },
    {
      "anonymous": false,
      "inputs": [
        {
          "indexed": true,
          "internalType": "address",
          "name": "user",
          "type": "address"
        }
      ],
      "name": "TokenUpgraded",
      "type": "event"
    },
    {
      "anonymous": false,
      "inputs": [
        {
          "indexed": false,
          "internalType": "address",
          "name": "account",
          "type": "address"
        }
      ],
      "name": "Unpaused",
      "type": "event"
    },
    {
      "anonymous": false,
      "inputs": [
        {
          "indexed": true,
          "internalType": "address",
          "name": "comptroller",
          "type": "address"
        },
        {
          "indexed": true,
          "internalType": "address",
          "name": "asset",
          "type": "address"
        }
      ],
      "name": "UpdatedAssetsState",
      "type": "event"
    },
    {
      "anonymous": false,
      "inputs": [
        {
          "indexed": true,
          "internalType": "address",
          "name": "user",
          "type": "address"
        }
      ],
      "name": "UserScoreUpdated",
      "type": "event"
    },
    {
      "inputs": [],
      "name": "BLOCKS_PER_YEAR",
      "outputs": [
        {
          "internalType": "uint256",
          "name": "",
          "type": "uint256"
        }
      ],
      "stateMutability": "view",
      "type": "function"
    },
    {
      "inputs": [],
      "name": "MAXIMUM_XVS_CAP",
      "outputs": [
        {
          "internalType": "uint256",
          "name": "",
          "type": "uint256"
        }
      ],
      "stateMutability": "view",
      "type": "function"
    },
    {
      "inputs": [],
      "name": "MINIMUM_STAKED_XVS",
      "outputs": [
        {
          "internalType": "uint256",
          "name": "",
          "type": "uint256"
        }
      ],
      "stateMutability": "view",
      "type": "function"
    },
    {
      "inputs": [],
      "name": "STAKING_PERIOD",
      "outputs": [
        {
          "internalType": "uint256",
          "name": "",
          "type": "uint256"
        }
      ],
      "stateMutability": "view",
      "type": "function"
    },
    {
      "inputs": [],
      "name": "VBNB",
      "outputs": [
        {
          "internalType": "address",
          "name": "",
          "type": "address"
        }
      ],
      "stateMutability": "view",
      "type": "function"
    },
    {
      "inputs": [],
      "name": "WBNB",
      "outputs": [
        {
          "internalType": "address",
          "name": "",
          "type": "address"
        }
      ],
      "stateMutability": "view",
      "type": "function"
    },
    {
      "inputs": [],
      "name": "acceptOwnership",
      "outputs": [],
      "stateMutability": "nonpayable",
      "type": "function"
    },
    {
      "inputs": [],
      "name": "accessControlManager",
      "outputs": [
        {
          "internalType": "contract IAccessControlManagerV8",
          "name": "",
          "type": "address"
        }
      ],
      "stateMutability": "view",
      "type": "function"
    },
    {
      "inputs": [
        {
          "internalType": "address",
          "name": "vToken",
          "type": "address"
        }
      ],
      "name": "accrueInterest",
      "outputs": [],
      "stateMutability": "nonpayable",
      "type": "function"
    },
    {
      "inputs": [
        {
          "internalType": "address",
          "name": "user",
          "type": "address"
        },
        {
          "internalType": "address",
          "name": "market",
          "type": "address"
        }
      ],
      "name": "accrueInterestAndUpdateScore",
      "outputs": [],
      "stateMutability": "nonpayable",
      "type": "function"
    },
    {
      "inputs": [
        {
          "internalType": "address",
          "name": "market",
          "type": "address"
        },
        {
          "internalType": "uint256",
          "name": "supplyMultiplier",
          "type": "uint256"
        },
        {
          "internalType": "uint256",
          "name": "borrowMultiplier",
          "type": "uint256"
        }
      ],
      "name": "addMarket",
      "outputs": [],
      "stateMutability": "nonpayable",
      "type": "function"
    },
    {
      "inputs": [],
      "name": "alphaDenominator",
      "outputs": [
        {
          "internalType": "uint128",
          "name": "",
          "type": "uint128"
        }
      ],
      "stateMutability": "view",
      "type": "function"
    },
    {
      "inputs": [],
      "name": "alphaNumerator",
      "outputs": [
        {
          "internalType": "uint128",
          "name": "",
          "type": "uint128"
        }
      ],
      "stateMutability": "view",
      "type": "function"
    },
    {
      "inputs": [
        {
          "internalType": "address",
          "name": "user",
          "type": "address"
        }
      ],
      "name": "burn",
      "outputs": [],
      "stateMutability": "nonpayable",
      "type": "function"
    },
    {
      "inputs": [
        {
          "internalType": "address",
          "name": "market",
          "type": "address"
        },
        {
          "internalType": "address",
          "name": "user",
          "type": "address"
        }
      ],
      "name": "calculateAPR",
      "outputs": [
        {
          "internalType": "uint256",
          "name": "supplyAPR",
          "type": "uint256"
        },
        {
          "internalType": "uint256",
          "name": "borrowAPR",
          "type": "uint256"
        }
      ],
      "stateMutability": "view",
      "type": "function"
    },
    {
      "inputs": [],
      "name": "claim",
      "outputs": [],
      "stateMutability": "nonpayable",
      "type": "function"
    },
    {
      "inputs": [
        {
          "internalType": "address",
          "name": "vToken",
          "type": "address"
        }
      ],
      "name": "claimInterest",
      "outputs": [
        {
          "internalType": "uint256",
          "name": "",
          "type": "uint256"
        }
      ],
      "stateMutability": "nonpayable",
      "type": "function"
    },
    {
      "inputs": [
        {
          "internalType": "address",
          "name": "vToken",
          "type": "address"
        },
        {
          "internalType": "address",
          "name": "user",
          "type": "address"
        }
      ],
      "name": "claimInterest",
      "outputs": [
        {
          "internalType": "uint256",
          "name": "",
          "type": "uint256"
        }
      ],
      "stateMutability": "nonpayable",
      "type": "function"
    },
    {
      "inputs": [
        {
          "internalType": "address",
          "name": "user",
          "type": "address"
        }
      ],
      "name": "claimTimeRemaining",
      "outputs": [
        {
          "internalType": "uint256",
          "name": "",
          "type": "uint256"
        }
      ],
      "stateMutability": "view",
      "type": "function"
    },
    {
      "inputs": [],
      "name": "comptroller",
      "outputs": [
        {
          "internalType": "address",
          "name": "",
          "type": "address"
        }
      ],
      "stateMutability": "view",
      "type": "function"
    },
    {
      "inputs": [
        {
          "internalType": "address",
          "name": "market",
          "type": "address"
        },
        {
          "internalType": "address",
          "name": "user",
          "type": "address"
        },
        {
          "internalType": "uint256",
          "name": "borrow",
          "type": "uint256"
        },
        {
          "internalType": "uint256",
          "name": "supply",
          "type": "uint256"
        },
        {
          "internalType": "uint256",
          "name": "xvsStaked",
          "type": "uint256"
        }
      ],
      "name": "estimateAPR",
      "outputs": [
        {
          "internalType": "uint256",
          "name": "supplyAPR",
          "type": "uint256"
        },
        {
          "internalType": "uint256",
          "name": "borrowAPR",
          "type": "uint256"
        }
      ],
      "stateMutability": "view",
      "type": "function"
    },
    {
      "inputs": [],
      "name": "getAllMarkets",
      "outputs": [
        {
          "internalType": "address[]",
          "name": "",
          "type": "address[]"
        }
      ],
      "stateMutability": "view",
      "type": "function"
    },
    {
      "inputs": [
        {
          "internalType": "address",
          "name": "vToken",
          "type": "address"
        },
        {
          "internalType": "address",
          "name": "user",
          "type": "address"
        }
      ],
      "name": "getInterestAccrued",
      "outputs": [
        {
          "internalType": "uint256",
          "name": "",
          "type": "uint256"
        }
      ],
      "stateMutability": "nonpayable",
      "type": "function"
    },
    {
      "inputs": [
        {
          "internalType": "address",
          "name": "user",
          "type": "address"
        }
      ],
      "name": "getPendingInterests",
      "outputs": [
        {
          "components": [
            {
              "internalType": "address",
              "name": "market",
              "type": "address"
            },
            {
              "internalType": "uint256",
              "name": "amount",
              "type": "uint256"
            }
          ],
          "internalType": "struct PrimeStorageV1.PendingInterest[]",
          "name": "pendingInterests",
          "type": "tuple[]"
        }
      ],
      "stateMutability": "nonpayable",
      "type": "function"
    },
    {
      "inputs": [
        {
          "internalType": "address",
          "name": "_xvsVault",
          "type": "address"
        },
        {
          "internalType": "address",
          "name": "_xvsVaultRewardToken",
          "type": "address"
        },
        {
          "internalType": "uint256",
          "name": "_xvsVaultPoolId",
          "type": "uint256"
        },
        {
          "internalType": "uint128",
          "name": "_alphaNumerator",
          "type": "uint128"
        },
        {
          "internalType": "uint128",
          "name": "_alphaDenominator",
          "type": "uint128"
        },
        {
          "internalType": "address",
          "name": "_accessControlManager",
          "type": "address"
        },
        {
          "internalType": "address",
          "name": "_protocolShareReserve",
          "type": "address"
        },
        {
          "internalType": "address",
          "name": "_primeLiquidityProvider",
          "type": "address"
        },
        {
          "internalType": "address",
          "name": "_comptroller",
          "type": "address"
        },
        {
          "internalType": "address",
          "name": "_oracle",
          "type": "address"
        },
        {
          "internalType": "uint256",
          "name": "_loopsLimit",
          "type": "uint256"
        }
      ],
      "name": "initialize",
      "outputs": [],
      "stateMutability": "nonpayable",
      "type": "function"
    },
    {
      "inputs": [
        {
          "internalType": "address",
          "name": "",
          "type": "address"
        },
        {
          "internalType": "address",
          "name": "",
          "type": "address"
        }
      ],
      "name": "interests",
      "outputs": [
        {
          "internalType": "uint256",
          "name": "accrued",
          "type": "uint256"
        },
        {
          "internalType": "uint256",
          "name": "score",
          "type": "uint256"
        },
        {
          "internalType": "uint256",
          "name": "rewardIndex",
          "type": "uint256"
        }
      ],
      "stateMutability": "view",
      "type": "function"
    },
    {
      "inputs": [],
      "name": "irrevocableLimit",
      "outputs": [
        {
          "internalType": "uint256",
          "name": "",
          "type": "uint256"
        }
      ],
      "stateMutability": "view",
      "type": "function"
    },
    {
      "inputs": [
        {
          "internalType": "uint256",
          "name": "",
          "type": "uint256"
        },
        {
          "internalType": "address",
          "name": "",
          "type": "address"
        }
      ],
      "name": "isScoreUpdated",
      "outputs": [
        {
          "internalType": "bool",
          "name": "",
          "type": "bool"
        }
      ],
      "stateMutability": "view",
      "type": "function"
    },
    {
      "inputs": [
        {
          "internalType": "bool",
          "name": "isIrrevocable",
          "type": "bool"
        },
        {
          "internalType": "address[]",
          "name": "users",
          "type": "address[]"
        }
      ],
      "name": "issue",
      "outputs": [],
      "stateMutability": "nonpayable",
      "type": "function"
    },
    {
      "inputs": [
        {
          "internalType": "address",
          "name": "",
          "type": "address"
        }
      ],
      "name": "markets",
      "outputs": [
        {
          "internalType": "uint256",
          "name": "supplyMultiplier",
          "type": "uint256"
        },
        {
          "internalType": "uint256",
          "name": "borrowMultiplier",
          "type": "uint256"
        },
        {
          "internalType": "uint256",
          "name": "rewardIndex",
          "type": "uint256"
        },
        {
          "internalType": "uint256",
          "name": "sumOfMembersScore",
          "type": "uint256"
        },
        {
          "internalType": "bool",
          "name": "exists",
          "type": "bool"
        }
      ],
      "stateMutability": "view",
      "type": "function"
    },
    {
      "inputs": [],
      "name": "maxLoopsLimit",
      "outputs": [
        {
          "internalType": "uint256",
          "name": "",
          "type": "uint256"
        }
      ],
      "stateMutability": "view",
      "type": "function"
    },
    {
      "inputs": [],
      "name": "nextScoreUpdateRoundId",
      "outputs": [
        {
          "internalType": "uint256",
          "name": "",
          "type": "uint256"
        }
      ],
      "stateMutability": "view",
      "type": "function"
    },
    {
      "inputs": [],
      "name": "oracle",
      "outputs": [
        {
          "internalType": "contract ResilientOracleInterface",
          "name": "",
          "type": "address"
        }
      ],
      "stateMutability": "view",
      "type": "function"
    },
    {
      "inputs": [],
      "name": "owner",
      "outputs": [
        {
          "internalType": "address",
          "name": "",
          "type": "address"
        }
      ],
      "stateMutability": "view",
      "type": "function"
    },
    {
      "inputs": [],
      "name": "paused",
      "outputs": [
        {
          "internalType": "bool",
          "name": "",
          "type": "bool"
        }
      ],
      "stateMutability": "view",
      "type": "function"
    },
    {
      "inputs": [],
      "name": "pendingOwner",
      "outputs": [
        {
          "internalType": "address",
          "name": "",
          "type": "address"
        }
      ],
      "stateMutability": "view",
      "type": "function"
    },
    {
      "inputs": [],
      "name": "pendingScoreUpdates",
      "outputs": [
        {
          "internalType": "uint256",
          "name": "",
          "type": "uint256"
        }
      ],
      "stateMutability": "view",
      "type": "function"
    },
    {
      "inputs": [],
      "name": "primeLiquidityProvider",
      "outputs": [
        {
          "internalType": "address",
          "name": "",
          "type": "address"
        }
      ],
      "stateMutability": "view",
      "type": "function"
    },
    {
      "inputs": [],
      "name": "protocolShareReserve",
      "outputs": [
        {
          "internalType": "address",
          "name": "",
          "type": "address"
        }
      ],
      "stateMutability": "view",
      "type": "function"
    },
    {
      "inputs": [],
      "name": "renounceOwnership",
      "outputs": [],
      "stateMutability": "nonpayable",
      "type": "function"
    },
    {
      "inputs": [],
      "name": "revocableLimit",
      "outputs": [
        {
          "internalType": "uint256",
          "name": "",
          "type": "uint256"
        }
      ],
      "stateMutability": "view",
      "type": "function"
    },
    {
      "inputs": [
        {
          "internalType": "address",
          "name": "accessControlManager_",
          "type": "address"
        }
      ],
      "name": "setAccessControlManager",
      "outputs": [],
      "stateMutability": "nonpayable",
      "type": "function"
    },
    {
      "inputs": [
        {
          "internalType": "uint256",
          "name": "_irrevocableLimit",
          "type": "uint256"
        },
        {
          "internalType": "uint256",
          "name": "_revocableLimit",
          "type": "uint256"
        }
      ],
      "name": "setLimit",
      "outputs": [],
      "stateMutability": "nonpayable",
      "type": "function"
    },
    {
      "inputs": [
        {
          "internalType": "address",
          "name": "",
          "type": "address"
        }
      ],
      "name": "stakedAt",
      "outputs": [
        {
          "internalType": "uint256",
          "name": "",
          "type": "uint256"
        }
      ],
      "stateMutability": "view",
      "type": "function"
    },
    {
      "inputs": [],
      "name": "togglePause",
      "outputs": [],
      "stateMutability": "nonpayable",
      "type": "function"
    },
    {
      "inputs": [
        {
          "internalType": "address",
          "name": "",
          "type": "address"
        }
      ],
      "name": "tokens",
      "outputs": [
        {
          "internalType": "bool",
          "name": "exists",
          "type": "bool"
        },
        {
          "internalType": "bool",
          "name": "isIrrevocable",
          "type": "bool"
        }
      ],
      "stateMutability": "view",
      "type": "function"
    },
    {
      "inputs": [],
      "name": "totalIrrevocable",
      "outputs": [
        {
          "internalType": "uint256",
          "name": "",
          "type": "uint256"
        }
      ],
      "stateMutability": "view",
      "type": "function"
    },
    {
      "inputs": [],
      "name": "totalRevocable",
      "outputs": [
        {
          "internalType": "uint256",
          "name": "",
          "type": "uint256"
        }
      ],
      "stateMutability": "view",
      "type": "function"
    },
    {
      "inputs": [],
      "name": "totalScoreUpdatesRequired",
      "outputs": [
        {
          "internalType": "uint256",
          "name": "",
          "type": "uint256"
        }
      ],
      "stateMutability": "view",
      "type": "function"
    },
    {
      "inputs": [
        {
          "internalType": "address",
          "name": "newOwner",
          "type": "address"
        }
      ],
      "name": "transferOwnership",
      "outputs": [],
      "stateMutability": "nonpayable",
      "type": "function"
    },
    {
      "inputs": [
        {
          "internalType": "address",
          "name": "",
          "type": "address"
        }
      ],
      "name": "unreleasedPLPIncome",
      "outputs": [
        {
          "internalType": "uint256",
          "name": "",
          "type": "uint256"
        }
      ],
      "stateMutability": "view",
      "type": "function"
    },
    {
      "inputs": [
        {
          "internalType": "address",
          "name": "",
          "type": "address"
        }
      ],
      "name": "unreleasedPSRIncome",
      "outputs": [
        {
          "internalType": "uint256",
          "name": "",
          "type": "uint256"
        }
      ],
      "stateMutability": "view",
      "type": "function"
    },
    {
      "inputs": [
        {
          "internalType": "uint128",
          "name": "_alphaNumerator",
          "type": "uint128"
        },
        {
          "internalType": "uint128",
          "name": "_alphaDenominator",
          "type": "uint128"
        }
      ],
      "name": "updateAlpha",
      "outputs": [],
      "stateMutability": "nonpayable",
      "type": "function"
    },
    {
      "inputs": [
        {
          "internalType": "address",
          "name": "_comptroller",
          "type": "address"
        },
        {
          "internalType": "address",
          "name": "asset",
          "type": "address"
        }
      ],
      "name": "updateAssetsState",
      "outputs": [],
      "stateMutability": "nonpayable",
      "type": "function"
    },
    {
      "inputs": [
        {
          "internalType": "address",
          "name": "market",
          "type": "address"
        },
        {
          "internalType": "uint256",
          "name": "supplyMultiplier",
          "type": "uint256"
        },
        {
          "internalType": "uint256",
          "name": "borrowMultiplier",
          "type": "uint256"
        }
      ],
      "name": "updateMultipliers",
      "outputs": [],
      "stateMutability": "nonpayable",
      "type": "function"
    },
    {
      "inputs": [
        {
          "internalType": "address[]",
          "name": "users",
          "type": "address[]"
        }
      ],
      "name": "updateScores",
      "outputs": [],
      "stateMutability": "nonpayable",
      "type": "function"
    },
    {
      "inputs": [
        {
          "internalType": "address",
          "name": "",
          "type": "address"
        }
      ],
      "name": "vTokenForAsset",
      "outputs": [
        {
          "internalType": "address",
          "name": "",
          "type": "address"
        }
      ],
      "stateMutability": "view",
      "type": "function"
    },
    {
      "inputs": [
        {
          "internalType": "address",
          "name": "user",
          "type": "address"
        }
      ],
      "name": "xvsUpdated",
      "outputs": [],
      "stateMutability": "nonpayable",
      "type": "function"
    }
  ],
  "transactionHash": "0x4f94bcd5a68cb6f728f44f0eb2ade7f7598ac7fb5b49f8fb87a3d8246ce01bff",
  "args": [
    "0xae13d989daC2f0dEbFf460aC112a837C89BAa7cd",
    "0x2E7222e51c0f6e98610A1543Aa3836E092CDe62c",
    10512000,
    600,
    "10000000000000000000",
    "100000000000000000000"
  ],
  "numDeployments": 1,
  "solcInputHash": "01dd35624ea9dafbd275cf94b53743b5",
  "bytecode": "0x6101406040523480156200001257600080fd5b506040516200604a3803806200604a8339810160408190526200003591620001c4565b6001600160a01b0386166200005d5760405163e6c4247b60e01b815260040160405180910390fd5b6001600160a01b038516620000855760405163e6c4247b60e01b815260040160405180910390fd5b83600003620000a7576040516302723dfb60e21b815260040160405180910390fd5b6001600160a01b0380871660a052851660c052608084905261012083905260e0829052610100819052620000da620000e6565b50505050505062000221565b600054610100900460ff1615620001535760405162461bcd60e51b815260206004820152602760248201527f496e697469616c697a61626c653a20636f6e747261637420697320696e697469604482015266616c697a696e6760c81b606482015260840160405180910390fd5b60005460ff90811614620001a5576000805460ff191660ff9081179091556040519081527f7f26b83ff96e1f2b6a682f133852f6798a09c465da95921460cefb38474024989060200160405180910390a15b565b80516001600160a01b0381168114620001bf57600080fd5b919050565b60008060008060008060c08789031215620001de57600080fd5b620001e987620001a7565b9550620001f960208801620001a7565b945060408701519350606087015192506080870151915060a087015190509295509295509295565b60805160a05160c05160e0516101005161012051615d8c620002be60003960008181610398015281816110fe015281816120320152818161207e01526120aa01526000818161095f0152818161339901526133c20152600081816104fa015261291201526000818161044101526132d50152600081816105c5015261330f015260008181610811015281816140e8015261419d0152615d8c6000f3fe608060405234801561001057600080fd5b506004361061038e5760003560e01c8063a15753dc116101de578063cf329d161161010f578063e4676f37116100ad578063ef36bbde1161007c578063ef36bbde14610913578063f2fde38b14610934578063fa6d5f1814610947578063fe1006ad1461095a57600080fd5b8063e4676f371461087e578063e486033914610891578063e9a44fd9146108d5578063ee6b13fc146108e957600080fd5b8063d88b9d2e116100e9578063d88b9d2e14610846578063da6ab4f814610850578063e18f88221461085a578063e30c39781461086d57600080fd5b8063cf329d16146107f9578063d37db1d21461080c578063d65bd2411461083357600080fd5b8063bd212c0e1161017c578063c3db3c3611610156578063c3db3c36146107b8578063c4ae3168146107c2578063c86d1a78146107ca578063ce853613146107de57600080fd5b8063bd212c0e14610792578063be26317e1461079c578063c0ffb809146107a557600080fd5b8063b4a0bdf3116101b8578063b4a0bdf3146106f0578063b7f2d25814610701578063b9eb69f614610729578063ba437c681461077f57600080fd5b8063a15753dc146106be578063aac59a75146106c8578063b0772d0b146106db57600080fd5b8063715018a6116102c357806389afcb44116102615780639198e515116102305780639198e515146106525780639565d3d2146106655780639f6506ce14610694578063a016aad61461069e57600080fd5b806389afcb441461059c5780638da5cb5b146105af5780638dd95002146105c05780638e8f294b146105e757600080fd5b80637dc0d1d01161029d5780637dc0d1d01461053f5780637ef8207014610553578063856c3aa41461057f57806388d742c21461058957600080fd5b8063715018a61461051c57806379ba5097146105245780637dafcd891461052c57600080fd5b806337f23cd31161033057806355d36c981161030a57806355d36c98146104b75780635c975abb146104ca5780635fe3b567146104e15780636426b4a7146104f557600080fd5b806337f23cd31461047b57806344e7cedd1461048e5780634e71d92d146104af57600080fd5b8063207add911161036c578063207add911461040357806324e6baf21461041657806326805ef6146104295780633421fc521461043c57600080fd5b80630104db1b146103935780630e32cb86146103cd5780631bffac89146103e2575b600080fd5b6103ba7f000000000000000000000000000000000000000000000000000000000000000081565b6040519081526020015b60405180910390f35b6103e06103db366004615332565b610981565b005b6103ba6103f0366004615332565b6101426020526000908152604090205481565b6103e061041136600461534f565b610995565b6103e0610424366004615387565b610a50565b6103e0610437366004615457565b610c1c565b6104637f000000000000000000000000000000000000000000000000000000000000000081565b6040516001600160a01b0390911681526020016103c4565b6103e0610489366004615332565b610eda565b6103ba61049c366004615332565b6101416020526000908152604090205481565b6103e06110bc565b6103e06104c5366004615525565b61115d565b60c95460ff165b60405190151581526020016103c4565b61014054610463906001600160a01b031681565b6103ba7f000000000000000000000000000000000000000000000000000000000000000081565b6103e0611255565b6103e0611267565b6103e061053a366004615568565b6112de565b61014454610463906001600160a01b031681565b61013654610567906001600160801b031681565b6040516001600160801b0390911681526020016103c4565b6103ba6101315481565b6103ba610597366004615332565b61146e565b6103e06105aa366004615332565b61148a565b6033546001600160a01b0316610463565b6104637f000000000000000000000000000000000000000000000000000000000000000081565b6106286105f5366004615332565b61013360205260009081526040902080546001820154600283015460038401546004909401549293919290919060ff1685565b6040805195865260208601949094529284019190915260608301521515608082015260a0016103c4565b6103e0610660366004615332565b6114c1565b6104d16106733660046155f0565b61013a60209081526000928352604080842090915290825290205460ff1681565b6103ba61012f5481565b6106b16106ac366004615332565b61179f565b6040516103c49190615620565b6103ba61013b5481565b6103e06106d6366004615678565b611929565b6106e3611a2a565b6040516103c491906156ea565b6097546001600160a01b0316610463565b61071461070f3660046156fd565b611a8d565b604080519283526020830191909152016103c4565b610764610737366004615678565b61013460209081526000928352604080842090915290825290208054600182015460029092015490919083565b604080519384526020840192909252908201526060016103c4565b6103ba61078d366004615678565b611c49565b6103ba61013c5481565b6103ba60fb5481565b6103e06107b3366004615525565b611c66565b6103ba61013d5481565b6103e0611e9a565b61014354610463906001600160a01b031681565b6101365461056790600160801b90046001600160801b031681565b6103e0610807366004615678565b611ee3565b6103ba7f000000000000000000000000000000000000000000000000000000000000000081565b6103ba610841366004615678565b611ef7565b6103ba61012e5481565b6103ba6101305481565b6103e061086836600461574e565b611f0c565b6065546001600160a01b0316610463565b6103ba61088c366004615332565b61200f565b6108be61089f366004615332565b61012d6020526000908152604090205460ff8082169161010090041682565b6040805192151583529015156020830152016103c4565b61013f54610463906001600160a01b031681565b6104636108f7366004615332565b61013e602052600090815260409020546001600160a01b031681565b6103ba610921366004615332565b6101326020526000908152604090205481565b6103e0610942366004615332565b6120de565b610714610955366004615678565b61214f565b6103ba7f000000000000000000000000000000000000000000000000000000000000000081565b610989612344565b6109928161239e565b50565b6109d36040518060400160405280601981526020017f7365744c696d69742875696e743235362c75696e743235362900000000000000815250612464565b61012e548210806109e6575061012f5481105b15610a045760405163e55fb50960e01b815260040160405180910390fd5b8161013054610131547f6c52f3e195bdc534883e903e0612c49261a466aacd492501870b0a0ac0b1835584604051610a3e91815260200190565b60405180910390a46101305561013155565b61013d54600003610a745760405163071a45dd60e31b815260040160405180910390fd5b61013b54600003610a985760405163071a45dd60e31b815260040160405180910390fd5b60005b8151811015610c18576000828281518110610ab857610ab8615781565b6020908102919091018101516001600160a01b038116600090815261012d90925260409091205490915060ff16610b0257604051633aeb927b60e11b815260040160405180910390fd5b61013b54600090815261013a602090815260408083206001600160a01b038516845290915290205460ff1615610b4357610b3b826157ad565b915050610a9b565b61013560005b8154811015610b9a576000828281548110610b6657610b66615781565b6000918252602090912001546001600160a01b03169050610b8784826124fe565b610b9184826125da565b50600101610b49565b5061013d8054906000610bac836157c6565b909155505061013b54600090815261013a602090815260408083206001600160a01b0386168085529252808320805460ff19166001908117909155905195019490917fa699df4aa8f89fc1f5408fe78ae114651f18b25ed1601680e4c70c15177d8b1b91a25050610a9b565b5050565b600054610100900460ff1615808015610c3c5750600054600160ff909116105b80610c565750303b158015610c56575060005460ff166001145b610cbe5760405162461bcd60e51b815260206004820152602e60248201527f496e697469616c697a61626c653a20636f6e747261637420697320616c72656160448201526d191e481a5b9a5d1a585b1a5e995960921b60648201526084015b60405180910390fd5b6000805460ff191660011790558015610ce1576000805461ff0019166101001790555b6001600160a01b038c16610d085760405163e6c4247b60e01b815260040160405180910390fd5b6001600160a01b038b16610d2f5760405163e6c4247b60e01b815260040160405180910390fd5b6001600160a01b038616610d565760405163e6c4247b60e01b815260040160405180910390fd5b6001600160a01b038416610d7d5760405163e6c4247b60e01b815260040160405180910390fd5b6001600160a01b038316610da45760405163e6c4247b60e01b815260040160405180910390fd5b6001600160a01b038516610dcb5760405163e6c4247b60e01b815260040160405180910390fd5b610dd589896126c8565b6001600160801b03888116600160801b02908a16176101365561013880546001600160a01b03808e166001600160a01b0319928316179092556101398c905561013780548f8416908316179055600061013b5561013f805489841690831617905561014380548884169083161790556101408054878416908316179055610144805492861692909116919091179055610e6d8761270d565b610e75612745565b610e7e82612774565b610e8661280e565b8015610ecc576000805461ff0019169055604051600181527f7f26b83ff96e1f2b6a682f133852f6798a09c465da95921460cefb38474024989060200160405180910390a15b505050505050505050505050565b6000610ee582612868565b90506000610ef28261290e565b6001600160a01b038416600090815261012d602052604090205490915060ff168015610f1c575080155b15610f6d576001600160a01b03831660009081526101326020908152604080832083905561012d909152902054610100900460ff1615610f6457610f5f83612947565b505050565b610f5f836129be565b80158015610f9557506001600160a01b038316600090815261012d602052604090205460ff16155b8015610fb957506001600160a01b0383166000908152610132602052604090205415155b15610fdb5750506001600160a01b031660009081526101326020526040812055565b6001600160a01b03831660009081526101326020526040902054158015610fff5750805b801561102557506001600160a01b038316600090815261012d602052604090205460ff16155b156110495750506001600160a01b0316600090815261013260205260409020429055565b6001600160a01b038316600090815261012d602052604090205460ff16801561106f5750805b15610f5f5761107d83612947565b6001600160a01b038316600090815261013260205260408120549003610f5f5750506001600160a01b0316600090815261013260205260409020429055565b336000908152610132602052604081205490036110eb5760405162c4e3d160e01b815260040160405180910390fd5b33600090815261013260205260409020547f00000000000000000000000000000000000000000000000000000000000000009061112890426157dd565b10156111475760405163beb98cab60e01b815260040160405180910390fd5b611152600033612c66565b61115b33612d8a565b565b61117e6040518060600160405280602a8152602001615d0b602a9139612464565b6001600160a01b0383166000908152610133602052604090206004015460ff166111bb57604051630ff2e4a960e31b815260040160405180910390fd5b6111c4836114c1565b6001600160a01b03831660008181526101336020526040908190206001810154905491519092907f91e78a55b6df3a0eac1c12a64572a8c0faced385bafba688817f5ce6daa33537906112239087908790918252602082015260400190565b60405180910390a46001600160a01b038316600090815261013360205260409020828155600101819055610f5f612e86565b61125d612344565b61115b6000612eba565b60655433906001600160a01b031681146112d55760405162461bcd60e51b815260206004820152602960248201527f4f776e61626c6532537465703a2063616c6c6572206973206e6f7420746865206044820152683732bb9037bbb732b960b91b6064820152608401610cb5565b61099281612eba565b61131460405180604001604052806015815260200174697373756528626f6f6c2c616464726573735b5d2960581b815250612464565b821561142f5760005b8181101561142957600061012d600085858581811061133e5761133e615781565b90506020020160208101906113539190615332565b6001600160a01b031681526020810191909152604001600020805490915060ff16801561138757508054610100900460ff16155b156113c0576113bb8484848181106113a1576113a1615781565b90506020020160208101906113b69190615332565b612ed3565b611420565b6113f160018585858181106113d7576113d7615781565b90506020020160208101906113ec9190615332565b612c66565b61142084848481811061140657611406615781565b905060200201602081019061141b9190615332565b612d8a565b5060010161131d565b50505050565b60005b818110156114295761145160008484848181106113d7576113d7615781565b61146683838381811061140657611406615781565b600101611432565b6000611478612f83565b6114828233612fc9565b90505b919050565b6114b86040518060400160405280600d81526020016c6275726e28616464726573732960981b815250612464565b610992816129be565b6001600160a01b0381166000908152610133602052604090206004015460ff166114fe57604051630ff2e4a960e31b815260040160405180910390fd5b6000611509826132d1565b6101435461013f5461014054604051631127ffd360e31b81529394506001600160a01b03928316936000939283169263893ffe98926115549291169060019030908990600401615816565b602060405180830381865afa158015611571573d6000803e3d6000fd5b505050506040513d601f19601f82011682018060405250810190611595919061584f565b6001600160a01b03841660009081526101416020526040812054919250906115bd90836157dd565b604051638aadf79960e01b81526001600160a01b03868116600483015291925090841690638aadf79990602401600060405180830381600087803b15801561160457600080fd5b505af1158015611618573d6000803e3d6000fd5b505060405163fa7781ff60e01b81526001600160a01b038781166004830152600093508616915063fa7781ff90602401602060405180830381865afa158015611665573d6000803e3d6000fd5b505050506040513d601f19601f82011682018060405250810190611689919061584f565b6001600160a01b03861660009081526101426020526040812054919250906116b190836157dd565b90506116bd8184615868565b9250826000036116d05750505050505050565b6001600160a01b038087166000908152610141602090815260408083208890556101428252808320869055928a1682526101339052908120600301541561174d576001600160a01b03881660009081526101336020526040902060030154611740670de0b6b3a764000086615880565b61174a91906158b5565b90505b6001600160a01b03881660009081526101336020526040902060020154611775908290615868565b6001600160a01b039098166000908152610133602052604090206002019790975550505050505050565b61013580546060919060009067ffffffffffffffff8111156117c3576117c3615371565b60405190808252806020026020018201604052801561180857816020015b60408051808201909152600080825260208201528152602001906001900390816117e15790505b50905060005b825481101561192157600083828154811061182b5761182b615781565b60009182526020822001546001600160a01b0316915061184b8288611ef7565b6001600160a01b03808416600081815261013460209081526040808320948d16835293815290839020548351808501808652636f307dc360e01b9052935194955093839291636f307dc39160448086019291908187030181865afa1580156118b7573d6000803e3d6000fd5b505050506040513d601f19601f820116820180604052508101906118db91906158c9565b6001600160a01b031681526020016118f38385615868565b81525085858151811061190857611908615781565b602002602001018190525083600101935050505061180e565b509392505050565b61013f546001600160a01b03163314611955576040516348f5c3ed60e01b815260040160405180910390fd5b610140546001600160a01b03838116911614611984576040516383aebebd60e01b815260040160405180910390fd5b6001600160a01b03808216600090815261013e602052604090205416806119be57604051630ff2e4a960e31b815260040160405180910390fd5b806000610141816119ce846132d1565b6001600160a01b039081168252602082019290925260409081016000908120939093556101405490518683169391909216917fd517a0e300407de6318610ab4e1f68a9784482333742bec63ed7bf249cae8c199190a350505050565b6060610135805480602002602001604051908101604052809291908181526020018280548015611a8357602002820191906000526020600020905b81546001600160a01b03168152600190910190602001808311611a65575b5050505050905090565b6001600160a01b0380861660008181526101346020908152604080832094891683529381528382206001015492825261013390529182206003015482918291611ad691906157dd565b90506000611ae385613395565b90506000806000611af6848b8b8f6133ea565b92509250925060008c90506000816001600160a01b0316636f307dc36040518163ffffffff1660e01b8152600401602060405180830381865afa158015611b41573d6000803e3d6000fd5b505050506040513d601f19601f82011682018060405250810190611b6591906158c9565b6001600160a01b031663313ce5676040518163ffffffff1660e01b8152600401602060405180830381865afa158015611ba2573d6000803e3d6000fd5b505050506040513d601f19601f82011682018060405250810190611bc691906158e6565b60ff169050611bd68160126157dd565b611be190600a6159ed565b611beb9086615880565b61013654909550600090611c1690889088906001600160801b0380821691600160801b9004166136b4565b9050611c228189615868565b9750611c338f8d8f8888868e61376c565b9950995050505050505050509550959350505050565b6000611c53612f83565b611c5d8383612fc9565b90505b92915050565b611c87604051806060016040528060228152602001615d3560229139612464565b6001600160a01b0383166000908152610133602052604090206004015460ff1615611cc557604051630313b28560e01b815260040160405180910390fd5b61014054604051638e8f294b60e01b81526001600160a01b0385811660048301526000921690638e8f294b90602401602060405180830381865afa158015611d11573d6000803e3d6000fd5b505050506040513d601f19601f82011682018060405250810190611d3591906159f9565b905080611d5557604051633d21810360e21b815260040160405180910390fd5b6001600160a01b038416600090815261013360205260408120600281018290558481556001808201859055600382018390556004909101805460ff19169091179055611da0856132d1565b6001600160a01b03808216600090815261013e60205260409020549192501615611ddd5760405163dc0d0aab60e01b815260040160405180910390fd5b6001600160a01b03808216600090815261013e6020526040812080549288166001600160a01b03199384168117909155610135805460018101825592527fdf37d27e88e3bd0b85262482997e409a463f5be0ebb19232abf994dd8474090d9091018054909216179055611e4e612e86565b61013554611e5b90613859565b8284866001600160a01b03167faeb29651ee58d1f8216621256cf5fe5cdf5c1a7650175c620342e0eb03de0f8e60405160405180910390a45050505050565b611ec86040518060400160405280600d81526020016c746f67676c655061757365282960981b815250612464565b60c95460ff1615611edb5761115b61388a565b61115b61280e565b611eed82826124fe565b610c1882826125da565b6000611f02836114c1565b611c5d83836138c3565b611f4a6040518060400160405280601c81526020017f757064617465416c7068612875696e743132382c75696e743132382900000000815250612464565b611f5482826126c8565b610136546040516001600160801b03838116825284811692600160801b81048216929116907f9122c3fdea272423a0586803b53902139919baf05be731f04724ef8f363d378d9060200160405180910390a46001600160801b03818116600160801b02908316176101365560005b6101355481101561200657611ffe6101358281548110611fe457611fe4615781565b6000918252602090912001546001600160a01b03166114c1565b600101611fc2565b50610c18612e86565b6001600160a01b03811660009081526101326020526040812054810361205657507f0000000000000000000000000000000000000000000000000000000000000000919050565b6001600160a01b0382166000908152610132602052604081205461207a90426157dd565b90507f00000000000000000000000000000000000000000000000000000000000000008110156120d5576120ce817f00000000000000000000000000000000000000000000000000000000000000006157dd565b9392505050565b50600092915050565b6120e6612344565b606580546001600160a01b0383166001600160a01b031990911681179091556121176033546001600160a01b031690565b6001600160a01b03167f38d16b8cac22d99fc7c124b9cd0de2d3fa1faef420bfe791d8c362d765e2270060405160405180910390a350565b6040516395dd919360e01b81526001600160a01b0382811660048301526000918291859183918316906395dd919390602401602060405180830381865afa15801561219e573d6000803e3d6000fd5b505050506040513d601f19601f820116820180604052508101906121c2919061584f565b90506000826001600160a01b031663182df0f56040518163ffffffff1660e01b8152600401602060405180830381865afa158015612204573d6000803e3d6000fd5b505050506040513d601f19601f82011682018060405250810190612228919061584f565b6040516370a0823160e01b81526001600160a01b0388811660048301529192506000918516906370a0823190602401602060405180830381865afa158015612274573d6000803e3d6000fd5b505050506040513d601f19601f82011682018060405250810190612298919061584f565b90506000670de0b6b3a76400006122af8385615880565b6122b991906158b5565b6001600160a01b03808b16600081815261013460209081526040808320948e16835293815283822060010154928252610133905291822060030154929350919061230a6123058c612868565b613395565b905060008061231b838a888d6133ea565b925092505061232f8e878b85858a8a61376c565b9b509b50505050505050505050509250929050565b6033546001600160a01b0316331461115b5760405162461bcd60e51b815260206004820181905260248201527f4f776e61626c653a2063616c6c6572206973206e6f7420746865206f776e65726044820152606401610cb5565b6001600160a01b0381166124025760405162461bcd60e51b815260206004820152602560248201527f696e76616c696420616365737320636f6e74726f6c206d616e61676572206164604482015264647265737360d81b6064820152608401610cb5565b609780546001600160a01b038381166001600160a01b031983168117909355604080519190921680825260208201939093527f66fd58e82f7b31a2a5c30e0888f3093efe4e111b00cd2b0c31fe014601293aa091015b60405180910390a15050565b6097546040516318c5e8ab60e01b81526000916001600160a01b0316906318c5e8ab906124979033908690600401615a6e565b602060405180830381865afa1580156124b4573d6000803e3d6000fd5b505050506040513d601f19601f820116820180604052508101906124d891906159f9565b905080610c1857333083604051634a3fa29360e01b8152600401610cb593929190615a92565b6001600160a01b0381166000908152610133602052604090206004015460ff16158061254457506001600160a01b038216600090815261012d602052604090205460ff16155b1561254d575050565b612556816114c1565b61256081836138c3565b6001600160a01b0380831660009081526101346020908152604080832093871683529290529081208054909190612598908490615868565b90915550506001600160a01b03908116600090815261013360209081526040808320600290810154610134845282852096909516845294909152902090910155565b6001600160a01b0381166000908152610133602052604090206004015460ff16158061262057506001600160a01b038216600090815261012d602052604090205460ff16155b15612629575050565b6000612635828461395f565b6001600160a01b0380841660008181526101346020908152604080832094891683529381528382206001015492825261013390529190912060030154919250829161268091906157dd565b61268a9190615868565b6001600160a01b0392831660009081526101336020908152604080832060030193909355610134815282822095909416815293909252912060010155565b6001600160801b03811615806126ef5750806001600160801b0316826001600160801b0316115b15610c1857604051630381eb6d60e61b815260040160405180910390fd5b600054610100900460ff166127345760405162461bcd60e51b8152600401610cb590615abe565b61273c613d4a565b61099281613d79565b600054610100900460ff1661276c5760405162461bcd60e51b8152600401610cb590615abe565b61115b613da0565b60fb5481116127d05760405162461bcd60e51b815260206004820152602260248201527f436f6d7074726f6c6c65723a20496e76616c6964206d61784c6f6f70734c696d6044820152611a5d60f21b6064820152608401610cb5565b60fb80549082905560408051828152602081018490527fc2d09fef144f7c8a86f71ea459f8fc17f675768eb1ae369cbd77fb31d467aafa9101612458565b612816612f83565b60c9805460ff191660011790557f62e78cea01bee320cd4e420270b5ea74000d11b0c9f74754ebdbfc544b05a25861284b3390565b6040516001600160a01b03909116815260200160405180910390a1565b6101375461013854610139546040516398e1b31b60e01b81526001600160a01b03928316600482015260248101919091528382166044820152600092839283929116906398e1b31b90606401606060405180830381865afa1580156128d1573d6000803e3d6000fd5b505050506040513d601f19601f820116820180604052508101906128f59190615b09565b9250509150808261290691906157dd565b949350505050565b60007f0000000000000000000000000000000000000000000000000000000000000000821061293f57506001919050565b506000919050565b61013560005b8154811015610f5f576129868383838154811061296c5761296c615781565b6000918252602090912001546001600160a01b03166124fe565b6129b68383838154811061299c5761299c615781565b6000918252602090912001546001600160a01b03166125da565b60010161294d565b6001600160a01b038116600090815261012d602052604090205460ff166129f857604051633aeb927b60e11b815260040160405180910390fd5b61013560005b8154811015612ba957612a1d8383838154811061296c5761296c615781565b6101346000838381548110612a3457612a34615781565b60009182526020808320909101546001600160a01b03908116845283820194909452604092830182209387168252929092528120600101548354909161013391859085908110612a8657612a86615781565b60009182526020808320909101546001600160a01b03168352820192909252604001902060030154612ab891906157dd565b6101336000848481548110612acf57612acf615781565b60009182526020808320909101546001600160a01b031683528201929092526040018120600301919091558254610134908290859085908110612b1457612b14615781565b60009182526020808320909101546001600160a01b03908116845283820194909452604092830182209388168252929092528120600101919091558254610134908290859085908110612b6957612b69615781565b60009182526020808320909101546001600160a01b03908116845283820194909452604092830182209388168252929092529020600201556001016129fe565b506001600160a01b038216600090815261012d6020526040902054610100900460ff1615612bec5761012e8054906000612be2836157c6565b9190505550612c03565b61012f8054906000612bfd836157c6565b91905055505b6001600160a01b038216600090815261012d60205260409020805461ffff19169055612c2e82613dd3565b6040516001600160a01b038316907fe22de1457cb61fb61b60176bc4235a9abd19466126b46692bc14fc573f09924990600090a25050565b6001600160a01b038116600090815261012d602052604090205460ff1615612ca05760405162c4e3d160e01b815260040160405180910390fd5b6001600160a01b038116600090815261012d602052604090208054831580156101000261ffff1990921691909117600117909155612cf35761012e8054906000612ce9836157ad565b9190505550612d0a565b61012f8054906000612d04836157ad565b91905055505b6101315461012e541180612d2357506101305461012f54115b15612d415760405163e55fb50960e01b815260040160405180910390fd5b806001600160a01b03167fdd032f28700d4e4b1719b8fa26918a7d68608b4e36def571ce5fe7a3ecd69f4583604051612d7e911515815260200190565b60405180910390a25050565b61013560005b8154811015610f5f576000828281548110612dad57612dad615781565b6000918252602090912001546001600160a01b03169050612dcd816114c1565b6001600160a01b038082166000908152610133602090815260408083206002908101546101348452828520958a1685529490925282200191909155612e12828661395f565b6001600160a01b03808416600081815261013460209081526040808320948b1683529381528382206001018590559181526101339091522060030154909150612e5c908290615868565b6001600160a01b039092166000908152610133602052604090206003019190915550600101612d90565b61013b8054906000612e97836157ad565b919050555061012f5461012e54612eae9190615868565b61013c81905561013d55565b606580546001600160a01b031916905561099281613e4c565b6001600160a01b038116600090815261012d60205260408120805461ff00191661010017815561012e80549192612f09836157ad565b909155505061012f8054906000612f1f836157c6565b91905055506101315461012e541115612f4b5760405163e55fb50960e01b815260040160405180910390fd5b6040516001600160a01b038316907f5272e69bcef8da96614ac4a5d1e95ca02c35ea627bf7ecf389ec88d8d78b86bb90600090a25050565b60c95460ff161561115b5760405162461bcd60e51b815260206004820152601060248201526f14185d5cd8589b194e881c185d5cd95960821b6044820152606401610cb5565b600080612fd68484611ef7565b6001600160a01b038086166000908152610134602090815260408083209388168352929052205490915061300a9082615868565b6001600160a01b038581166000908152610133602090815260408083206002908101546101348452828520958a1685529490925282209081019290925590819055909150613057856132d1565b6040516370a0823160e01b815230600482015290915081906001600160a01b038216906370a0823190602401602060405180830381865afa1580156130a0573d6000803e3d6000fd5b505050506040513d601f19601f820116820180604052508101906130c4919061584f565b8311156132665760408051600180825281830190925260009160208083019080368337019050509050818160008151811061310157613101615781565b6001600160a01b03928316602091820292909201015261013f5461014054604051637e1888b560e11b81529183169263fc31116a9261314892909116908590600401615b37565b600060405180830381600087803b15801561316257600080fd5b505af1158015613176573d6000803e3d6000fd5b50506040516370a0823160e01b81523060048201526001600160a01b03851692506370a082319150602401602060405180830381865afa1580156131be573d6000803e3d6000fd5b505050506040513d601f19601f820116820180604052508101906131e2919061584f565b841115613264576101435460405163192e7a7b60e01b81526001600160a01b0384811660048301529091169063192e7a7b90602401600060405180830381600087803b15801561323157600080fd5b505af1158015613245573d6000803e3d6000fd5b5050506001600160a01b03841660009081526101426020526040812055505b505b61327a6001600160a01b0382168685613e9e565b856001600160a01b0316856001600160a01b03167fc7edf5cfe443c04a10a60ff6084c847114348c55b257a01d62700326219adbba856040516132bf91815260200190565b60405180910390a35090949350505050565b60007f00000000000000000000000000000000000000000000000000000000000000006001600160a01b0316826001600160a01b03160361333357507f0000000000000000000000000000000000000000000000000000000000000000919050565b816001600160a01b0316636f307dc36040518163ffffffff1660e01b8152600401602060405180830381865afa158015613371573d6000803e3d6000fd5b505050506040513d601f19601f8201168201806040525081019061148291906158c9565b60007f00000000000000000000000000000000000000000000000000000000000000008211156133e657507f0000000000000000000000000000000000000000000000000000000000000000919050565b5090565b60008060008061013760009054906101000a90046001600160a01b03166001600160a01b031663358ae0366040518163ffffffff1660e01b8152600401602060405180830381865afa158015613444573d6000803e3d6000fd5b505050506040513d601f19601f8201168201806040525081019061346891906158c9565b610144546040516341976e0960e01b81526001600160a01b038084166004830152929350600092909116906341976e0990602401602060405180830381865afa1580156134b9573d6000803e3d6000fd5b505050506040513d601f19601f820116820180604052508101906134dd919061584f565b6001600160a01b0387166000908152610133602052604081206001015491925090670de0b6b3a7640000908190613514908d615880565b61351e91906158b5565b6135289084615880565b61353291906158b5565b6001600160a01b0388166000908152610133602052604081205491925090670de0b6b3a7640000908190613566908e615880565b61357091906158b5565b61357a9085615880565b61358491906158b5565b6101445460405163fc57d4df60e01b81526001600160a01b038b811660048301529293506000929091169063fc57d4df90602401602060405180830381865afa1580156135d5573d6000803e3d6000fd5b505050506040513d601f19601f820116820180604052508101906135f9919061584f565b90506000670de0b6b3a76400006136108c84615880565b61361a91906158b5565b90506000670de0b6b3a76400006136318e85615880565b61363b91906158b5565b905083821061366b5760008211613653576000613668565b8161365e858e615880565b61366891906158b5565b9b505b8481106136995760008111613681576000613696565b8061368c868f615880565b61369691906158b5565b9c505b6136a38d8d615868565b9e9b9d505050505050505050505050565b60008415806136c1575083155b156136ce57506000612906565b8385036136dc575083612906565b8385106000816136f5576136f08688613ef0565b6136ff565b6136ff8787613ef0565b9050600061373a61370f86613f58565b61371888613f58565b61372185613fc2565b61372b9190615b5b565b6137359190615be0565b613fcd565b905082156137565761374c8782613fd8565b9350505050612906565b613760878261400a565b98975050505050505050565b600080826000036137825750600090508061384d565b60008361378e8b61403c565b6137989087615880565b6137a291906158b5565b905060006137b08789615868565b9050806000036137c85760008093509350505061384d565b6000816137d58a85615880565b6137df91906158b5565b90506000826137ee8a86615880565b6137f891906158b5565b90508b1561381c578b61380d61271084615880565b61381791906158b5565b61381f565b60005b95508a15613843578a61383461271083615880565b61383e91906158b5565b613846565b60005b9450505050505b97509795505050505050565b60fb548111156109925760fb5460405163792bfb1b60e11b8152600481019190915260248101829052604401610cb5565b6138926141cb565b60c9805460ff191690557f5db9ee0a495bf2e6ff9c91a7834c1ba4fdd244a5e8aa4e537bd38aeae4b073aa3361284b565b6001600160a01b03808316600081815261013460209081526040808320948616835293815283822060029081015493835261013390915292812090920154829161390c916157dd565b6001600160a01b0380861660009081526101346020908152604080832093881683529290522060010154909150670de0b6b3a764000061394c8284615880565b61395691906158b5565b95945050505050565b60008061396e61230584612868565b6040516395dd919360e01b81526001600160a01b0385811660048301529192508591600091908316906395dd919390602401602060405180830381865afa1580156139bd573d6000803e3d6000fd5b505050506040513d601f19601f820116820180604052508101906139e1919061584f565b90506000826001600160a01b031663182df0f56040518163ffffffff1660e01b8152600401602060405180830381865afa158015613a23573d6000803e3d6000fd5b505050506040513d601f19601f82011682018060405250810190613a47919061584f565b6040516370a0823160e01b81526001600160a01b0388811660048301529192506000918516906370a0823190602401602060405180830381865afa158015613a93573d6000803e3d6000fd5b505050506040513d601f19601f82011682018060405250810190613ab7919061584f565b90506000670de0b6b3a7640000613ace8385615880565b613ad891906158b5565b9050600061013760009054906101000a90046001600160a01b03166001600160a01b031663358ae0366040518163ffffffff1660e01b8152600401602060405180830381865afa158015613b30573d6000803e3d6000fd5b505050506040513d601f19601f82011682018060405250810190613b5491906158c9565b6101445460405163b62cad6960e01b81526001600160a01b03808416600483015292935091169063b62cad6990602401600060405180830381600087803b158015613b9e57600080fd5b505af1158015613bb2573d6000803e3d6000fd5b5050610144546040516396e85ced60e01b81526001600160a01b038e8116600483015290911692506396e85ced9150602401600060405180830381600087803b158015613bfe57600080fd5b505af1158015613c12573d6000803e3d6000fd5b505050506000613c248887858e6133ea565b505090506000876001600160a01b0316636f307dc36040518163ffffffff1660e01b8152600401602060405180830381865afa158015613c68573d6000803e3d6000fd5b505050506040513d601f19601f82011682018060405250810190613c8c91906158c9565b6001600160a01b031663313ce5676040518163ffffffff1660e01b8152600401602060405180830381865afa158015613cc9573d6000803e3d6000fd5b505050506040513d601f19601f82011682018060405250810190613ced91906158e6565b60ff169050613cfd8160126157dd565b613d0890600a6159ed565b613d129083615880565b61013654909250613d3a908a9084906001600160801b0380821691600160801b9004166136b4565b9c9b505050505050505050505050565b600054610100900460ff16613d715760405162461bcd60e51b8152600401610cb590615abe565b61115b614214565b600054610100900460ff166109895760405162461bcd60e51b8152600401610cb590615abe565b600054610100900460ff16613dc75760405162461bcd60e51b8152600401610cb590615abe565b60c9805460ff19169055565b61013c5415613df35761013c8054906000613ded836157c6565b91905055505b600061013d54118015613e2e575061013b54600090815261013a602090815260408083206001600160a01b038516845290915290205460ff16155b156109925761013d8054906000613e44836157c6565b919050555050565b603380546001600160a01b038381166001600160a01b0319831681179093556040519116919082907f8be0079c531659141344cd1fd0a4f28419497f9722a3daafe3b4186f6b6457e090600090a35050565b604080516001600160a01b038416602482015260448082018490528251808303909101815260649091019091526020810180516001600160e01b031663a9059cbb60e01b179052610f5f908490614244565b6000613efb83613f58565b613f0483613f58565b1215613f2d576040516360c1ae3960e01b81526004810184905260248101839052604401610cb5565b613f3682613f58565b6001607f1b613f4485613f58565b613f4e9190615b5b565b611c5d9190615be0565b60006001600160ff1b038211156133e65760405162461bcd60e51b815260206004820152602860248201527f53616665436173743a2076616c756520646f65736e27742066697420696e2061604482015267371034b73a191a9b60c11b6064820152608401610cb5565b600061148282614319565b6000611482826148fd565b600080821215613ffb57604051639603648160e01b815260040160405180910390fd5b6001607f1b82613f4485613f58565b60008082121561402d57604051639603648160e01b815260040160405180910390fd5b816001607f1b613f4485613f58565b6000806140488361500e565b9050600061013f60009054906101000a90046001600160a01b03166001600160a01b0316631036bbe26040518163ffffffff1660e01b8152600401602060405180830381865afa1580156140a0573d6000803e3d6000fd5b505050506040513d601f19601f820116820180604052508101906140c4919061584f565b6140cc615174565b6140d69084615880565b6140e091906158b5565b905061410c817f0000000000000000000000000000000000000000000000000000000000000000615880565b610143549093506000906001600160a01b031663a666642b61412d876132d1565b6040516001600160e01b031960e084901b1681526001600160a01b039091166004820152602401602060405180830381865afa158015614171573d6000803e3d6000fd5b505050506040513d601f19601f82011682018060405250810190614195919061584f565b90506141c1817f0000000000000000000000000000000000000000000000000000000000000000615880565b6139569085615868565b60c95460ff1661115b5760405162461bcd60e51b815260206004820152601460248201527314185d5cd8589b194e881b9bdd081c185d5cd95960621b6044820152606401610cb5565b600054610100900460ff1661423b5760405162461bcd60e51b8152600401610cb590615abe565b61115b33612eba565b6000614299826040518060400160405280602081526020017f5361666545524332303a206c6f772d6c6576656c2063616c6c206661696c6564815250856001600160a01b03166151ef9092919063ffffffff16565b90508051600014806142ba5750808060200190518101906142ba91906159f9565b610f5f5760405162461bcd60e51b815260206004820152602a60248201527f5361666545524332303a204552433230206f7065726174696f6e20646964206e6044820152691bdd081cdd58d8d9595960b21b6064820152608401610cb5565b60006001607f1b82131561434357604051633ce23a3d60e11b815260048101839052602401610cb5565b60008213614367576040516330ecaa3d60e21b815260048101839052602401610cb5565b6001607f1b820361437a57506000919050565b640733048c5a8213614394576114826101ff607c1b615c0e565b60008060006a01c8464f7616476000000085136143e2576143b9600160841b85615c2a565b93506a01c8464f761647600000006143d56001607f1b87615b5b565b6143df9190615be0565b94505b6cf1aaddd7742e90000000000000851361442f57614404600160831b85615c2a565b93506cf1aaddd7742e900000000000006144226001607f1b87615b5b565b61442c9190615be0565b94505b6615fc21041027af603f1b85136144765761444e600160821b85615c2a565b93506615fc21041027af603f1b6144696001607f1b87615b5b565b6144739190615be0565b94505b660960aadc109e7b60461b85136144bd57614495600160811b85615c2a565b9350660960aadc109e7b60461b6144b06001607f1b87615b5b565b6144ba9190615be0565b94505b660454aaa8efe073604a1b8513614504576144dc600160801b85615c2a565b9350660454aaa8efe073604a1b6144f76001607f1b87615b5b565b6145019190615be0565b94505b6602f16ac6c59de7604c1b851361454b576145236001607f1b85615c2a565b93506602f16ac6c59de7604c1b61453e6001607f1b87615b5b565b6145489190615be0565b94505b6609b4597e37cb05604b1b85136145925761456a6001607e1b85615c2a565b93506609b4597e37cb05604b1b6145856001607f1b87615b5b565b61458f9190615be0565b94505b6618ebef9eac820b604a1b85136145d9576145b16001607d1b85615c2a565b93506618ebef9eac820b604a1b6145cc6001607f1b87615b5b565b6145d69190615be0565b94505b6f70f5a893b608861e1f58934f97aea57d851361462c576145fe6001607c1b85615c2a565b93506f70f5a893b608861e1f58934f97aea57d61461f6001607f1b87615b5b565b6146299190615be0565b94505b61463a6001607f1b86615c2a565b92508291506001607f1b61464e8380615b5b565b6146589190615be0565b9050600160801b6146698482615c2a565b6146739084615b5b565b61467d9190615be0565b6146879085615c69565b93506001607f1b6146988284615b5b565b6146a29190615be0565b9150600160811b6146c3846faaaaaaaaaaaaaaaaaaaaaaaaaaaaaaaa615c2a565b6146cd9084615b5b565b6146d79190615be0565b6146e19085615c69565b93506001607f1b6146f28284615b5b565b6146fc9190615be0565b9150600360801b61471d846f99999999999999999999999999999999615c2a565b6147279084615b5b565b6147319190615be0565b61473b9085615c69565b93506001607f1b61474c8284615b5b565b6147569190615be0565b9150600160821b614777846f92492492492492492492492492492492615c2a565b6147819084615b5b565b61478b9190615be0565b6147959085615c69565b93506001607f1b6147a68284615b5b565b6147b09190615be0565b9150600560801b6147d1846f8e38e38e38e38e38e38e38e38e38e38e615c2a565b6147db9084615b5b565b6147e59190615be0565b6147ef9085615c69565b93506001607f1b6148008284615b5b565b61480a9190615be0565b9150600360811b61482b846f8ba2e8ba2e8ba2e8ba2e8ba2e8ba2e8b615c2a565b6148359084615b5b565b61483f9190615be0565b6148499085615c69565b93506001607f1b61485a8284615b5b565b6148649190615be0565b9150600760801b614885846f89d89d89d89d89d89d89d89d89d89d89615c2a565b61488f9084615b5b565b6148999190615be0565b6148a39085615c69565b93506001607f1b6148b48284615b5b565b6148be9190615be0565b9150600160831b6148df846f88888888888888888888888888888888615c2a565b6148e99084615b5b565b6148f39190615be0565b6139569085615c69565b600061490d6101ff607c1b615c0e565b82121561491c57506000919050565b8160000361492f57506001607f1b919050565b600082131561495457604051631086170d60e01b815260048101839052602401610cb5565b6000806149656001607c1b85615caa565b91508190506001607f1b6149798280615b5b565b6149839190615be0565b9050614997816710e1b3be415a0000615b5b565b6149a19084615c69565b92506001607f1b6149b28383615b5b565b6149bc9190615be0565b90506149d0816705a0913f6b1e0000615b5b565b6149da9084615c69565b92506001607f1b6149eb8383615b5b565b6149f59190615be0565b9050614a0981670168244fdac78000615b5b565b614a139084615c69565b92506001607f1b614a248383615b5b565b614a2e9190615be0565b9050614a4181664807432bc18000615b5b565b614a4b9084615c69565b92506001607f1b614a5c8383615b5b565b614a669190615be0565b9050614a7981660c0135dca04000615b5b565b614a839084615c69565b92506001607f1b614a948383615b5b565b614a9e9190615be0565b9050614ab1816601b707b1cdc000615b5b565b614abb9084615c69565b92506001607f1b614acc8383615b5b565b614ad69190615be0565b9050614ae8816536e0f639b800615b5b565b614af29084615c69565b92506001607f1b614b038383615b5b565b614b0d9190615be0565b9050614b1f81650618fee9f800615b5b565b614b299084615c69565b92506001607f1b614b3a8383615b5b565b614b449190615be0565b9050614b5581649c197dcc00615b5b565b614b5f9084615c69565b92506001607f1b614b708383615b5b565b614b7a9190615be0565b9050614b8b81640e30dce400615b5b565b614b959084615c69565b92506001607f1b614ba68383615b5b565b614bb09190615be0565b9050614bc18164012ebd1300615b5b565b614bcb9084615c69565b92506001607f1b614bdc8383615b5b565b614be69190615be0565b9050614bf6816317499f00615b5b565b614c009084615c69565b92506001607f1b614c118383615b5b565b614c1b9190615be0565b9050614c2b816301a9d480615b5b565b614c359084615c69565b92506001607f1b614c468383615b5b565b614c509190615be0565b9050614c5f81621c6380615b5b565b614c699084615c69565b92506001607f1b614c7a8383615b5b565b614c849190615be0565b9050614c93816201c638615b5b565b614c9d9084615c69565b92506001607f1b614cae8383615b5b565b614cb89190615be0565b9050614cc681611ab8615b5b565b614cd09084615c69565b92506001607f1b614ce18383615b5b565b614ceb9190615be0565b9050614cf98161017c615b5b565b614d039084615c69565b92506001607f1b614d148383615b5b565b614d1e9190615be0565b9050614d2b816014615b5b565b614d359084615c69565b92506001607f1b614d468383615b5b565b614d509190615be0565b9050614d5d816001615b5b565b614d679084615c69565b92506001607f1b82614d816721c3677c82b4000086615be0565b614d8b9190615c69565b614d959190615c69565b9250614da084615c0e565b9350600160841b841615614de6577243cbaf42a000812488fc5c220ad7b97bf6e99e614dd96cf1aaddd7742e56d32fb9f9974485615b5b565b614de39190615be0565b92505b600160831b841615614e2b577105d27a9f51c31b7c2f8038212a0574779991614e1e6e0afe10820813d65dfe6a33c07f738f85615b5b565b614e289190615be0565b92505b600160821b841615614e7057701b4c902e273a58678d6d3bfdb93db96d02614e636f02582ab704279e8efd15e0265855c47a85615b5b565b614e6d9190615be0565b92505b600160811b841615614eb5577003b1cc971a9bb5b9867477440d6d157750614ea86f1152aaa3bf81cb9fdb76eae12d02957185615b5b565b614eb29190615be0565b92505b600160801b841615614efa5770015bf0a8b1457695355fb8ac404e7a79e3614eed6f2f16ac6c59de6f8d5d6f63c1482a7c8685615b5b565b614ef79190615be0565b92505b6001607f1b841615614f3e576fd3094c70f034de4b96ff7d5b6f99fcd8614f316f4da2cbf1be5827f9eb3ad1aa9866ebb385615b5b565b614f3b9190615be0565b92505b6001607e1b841615614f82576fa45af1e1f40c333b3de1db4dd55f29a7614f756f63afbe7ab2082ba1a0ae5e4eb1b479dc85615b5b565b614f7f9190615be0565b92505b6001607d1b841615614fc6576f910b022db7ae67ce76b441c27035c6a1614fb96f70f5a893b608861e1f58934f97aea57d85615b5b565b614fc39190615be0565b92505b6001607c1b841615615007576f88415abbe9a76bead8d00cf112e4d4a8614ffd6f783eafef1c0a8f3978c7f81824d62ebf85615b5b565b6129069190615be0565b5050919050565b600080829050670de0b6b3a7640000816001600160a01b031663173b99046040518163ffffffff1660e01b8152600401602060405180830381865afa15801561505b573d6000803e3d6000fd5b505050506040513d601f19601f8201168201806040525081019061507f919061584f565b670de0b6b3a7640000836001600160a01b031663f8f9da286040518163ffffffff1660e01b8152600401602060405180830381865afa1580156150c6573d6000803e3d6000fd5b505050506040513d601f19601f820116820180604052508101906150ea919061584f565b846001600160a01b03166347bd37186040518163ffffffff1660e01b8152600401602060405180830381865afa158015615128573d6000803e3d6000fd5b505050506040513d601f19601f8201168201806040525081019061514c919061584f565b6151569190615880565b61516091906158b5565b61516a9190615880565b6120ce91906158b5565b61013f54604051630966961f60e41b81526000916001600160a01b03169063966961f0906151a9903090600190600401615cbe565b602060405180830381865afa1580156151c6573d6000803e3d6000fd5b505050506040513d601f19601f820116820180604052508101906151ea919061584f565b905090565b6060612906848460008585600080866001600160a01b031685876040516152169190615cdb565b60006040518083038185875af1925050503d8060008114615253576040519150601f19603f3d011682016040523d82523d6000602084013e615258565b606091505b509150915061526987838387615274565b979650505050505050565b606083156152e35782516000036152dc576001600160a01b0385163b6152dc5760405162461bcd60e51b815260206004820152601d60248201527f416464726573733a2063616c6c20746f206e6f6e2d636f6e74726163740000006044820152606401610cb5565b5081612906565b61290683838151156152f85781518083602001fd5b8060405162461bcd60e51b8152600401610cb59190615cf7565b6001600160a01b038116811461099257600080fd5b803561148581615312565b60006020828403121561534457600080fd5b81356120ce81615312565b6000806040838503121561536257600080fd5b50508035926020909101359150565b634e487b7160e01b600052604160045260246000fd5b6000602080838503121561539a57600080fd5b823567ffffffffffffffff808211156153b257600080fd5b818501915085601f8301126153c657600080fd5b8135818111156153d8576153d8615371565b8060051b604051601f19603f830116810181811085821117156153fd576153fd615371565b60405291825284820192508381018501918883111561541b57600080fd5b938501935b828510156137605761543185615327565b84529385019392850192615420565b80356001600160801b038116811461148557600080fd5b60008060008060008060008060008060006101608c8e03121561547957600080fd5b8b3561548481615312565b9a5060208c013561549481615312565b995060408c013598506154a960608d01615440565b97506154b760808d01615440565b965060a08c01356154c781615312565b955060c08c01356154d781615312565b945060e08c01356154e781615312565b93506101008c01356154f881615312565b92506101208c013561550981615312565b809250506101408c013590509295989b509295989b9093969950565b60008060006060848603121561553a57600080fd5b833561554581615312565b95602085013595506040909401359392505050565b801515811461099257600080fd5b60008060006040848603121561557d57600080fd5b83356155888161555a565b9250602084013567ffffffffffffffff808211156155a557600080fd5b818601915086601f8301126155b957600080fd5b8135818111156155c857600080fd5b8760208260051b85010111156155dd57600080fd5b6020830194508093505050509250925092565b6000806040838503121561560357600080fd5b82359150602083013561561581615312565b809150509250929050565b602080825282518282018190526000919060409081850190868401855b8281101561566b57815180516001600160a01b0316855286015186850152928401929085019060010161563d565b5091979650505050505050565b6000806040838503121561568b57600080fd5b823561569681615312565b9150602083013561561581615312565b600081518084526020808501945080840160005b838110156156df5781516001600160a01b0316875295820195908201906001016156ba565b509495945050505050565b602081526000611c5d60208301846156a6565b600080600080600060a0868803121561571557600080fd5b853561572081615312565b9450602086013561573081615312565b94979496505050506040830135926060810135926080909101359150565b6000806040838503121561576157600080fd5b61576a83615440565b915061577860208401615440565b90509250929050565b634e487b7160e01b600052603260045260246000fd5b634e487b7160e01b600052601160045260246000fd5b6000600182016157bf576157bf615797565b5060010190565b6000816157d5576157d5615797565b506000190190565b6000828210156157ef576157ef615797565b500390565b6002811061581257634e487b7160e01b600052602160045260246000fd5b9052565b6001600160a01b038581168252608082019061583560208401876157f4565b808516604084015280841660608401525095945050505050565b60006020828403121561586157600080fd5b5051919050565b6000821982111561587b5761587b615797565b500190565b600081600019048311821515161561589a5761589a615797565b500290565b634e487b7160e01b600052601260045260246000fd5b6000826158c4576158c461589f565b500490565b6000602082840312156158db57600080fd5b81516120ce81615312565b6000602082840312156158f857600080fd5b815160ff811681146120ce57600080fd5b600181815b8085111561594457816000190482111561592a5761592a615797565b8085161561593757918102915b93841c939080029061590e565b509250929050565b60008261595b57506001611c60565b8161596857506000611c60565b816001811461597e5760028114615988576159a4565b6001915050611c60565b60ff84111561599957615999615797565b50506001821b611c60565b5060208310610133831016604e8410600b84101617156159c7575081810a611c60565b6159d18383615909565b80600019048211156159e5576159e5615797565b029392505050565b6000611c5d838361594c565b600060208284031215615a0b57600080fd5b81516120ce8161555a565b60005b83811015615a31578181015183820152602001615a19565b838111156114295750506000910152565b60008151808452615a5a816020860160208601615a16565b601f01601f19169290920160200192915050565b6001600160a01b038316815260406020820181905260009061290690830184615a42565b6001600160a01b0384811682528316602082015260606040820181905260009061395690830184615a42565b6020808252602b908201527f496e697469616c697a61626c653a20636f6e7472616374206973206e6f74206960408201526a6e697469616c697a696e6760a81b606082015260800190565b600080600060608486031215615b1e57600080fd5b8351925060208401519150604084015190509250925092565b6001600160a01b0383168152604060208201819052600090612906908301846156a6565b60006001600160ff1b0381841382841380821686840486111615615b8157615b81615797565b600160ff1b6000871282811687830589121615615ba057615ba0615797565b60008712925087820587128484161615615bbc57615bbc615797565b87850587128184161615615bd257615bd2615797565b505050929093029392505050565b600082615bef57615bef61589f565b600160ff1b821460001984141615615c0957615c09615797565b500590565b6000600160ff1b8201615c2357615c23615797565b5060000390565b60008083128015600160ff1b850184121615615c4857615c48615797565b6001600160ff1b0384018313811615615c6357615c63615797565b50500390565b600080821280156001600160ff1b0384900385131615615c8b57615c8b615797565b600160ff1b8390038412811615615ca457615ca4615797565b50500190565b600082615cb957615cb961589f565b500790565b6001600160a01b0383168152604081016120ce60208301846157f4565b60008251615ced818460208701615a16565b9190910192915050565b602081526000611c5d6020830184615a4256fe7570646174654d756c7469706c6965727328616464726573732c75696e743235362c75696e74323536296164644d61726b657428616464726573732c75696e743235362c75696e7432353629a2646970667358221220813f6ba2a7fb338b044e71e33a7d4d056262ac2263240124f347d27fbc320b0564736f6c634300080d0033",
  "devdoc": {
    "custom:security-contact": "https://github.com/VenusProtocol/venus-protocol",
    "kind": "dev",
    "methods": {
      "acceptOwnership()": {
        "details": "The new owner accepts the ownership transfer."
      },
      "accrueInterest(address)": {
        "custom:error": "Throw MarketNotSupported if market is not supported",
        "params": {
          "vToken": "the market for which to distribute the income"
        }
      },
      "accrueInterestAndUpdateScore(address,address)": {
        "params": {
          "market": "the market for which to accrue interest and update score",
          "user": "the account address for which to accrue interest and update score"
        }
      },
      "addMarket(address,uint256,uint256)": {
        "custom:access": "Controlled by ACM",
        "custom:error": "Throw MarketAlreadyExists if market already existsThrow InvalidVToken if market is not valid",
        "custom:event": "Emits MarketAdded event",
        "params": {
          "borrowMultiplier": "the multiplier for borrow cap. It should be converted to 1e18",
          "market": "address of the market vToken",
          "supplyMultiplier": "the multiplier for supply cap. It should be converted to 1e18"
        }
      },
      "burn(address)": {
        "custom:access": "Controlled by ACM",
        "params": {
          "user": "the account address for which the prime token will be burned"
        }
      },
      "calculateAPR(address,address)": {
        "params": {
          "market": "the market for which to fetch the APR",
          "user": "the account for which to get the APR"
        },
        "returns": {
          "borrowAPR": "borrow APR of the user in BPS",
          "supplyAPR": "supply APR of the user in BPS"
        }
      },
      "claimInterest(address)": {
        "params": {
          "vToken": "the market for which claim the accrued interest"
        },
        "returns": {
          "_0": "amount the amount of tokens transferred to the user"
        }
      },
      "claimInterest(address,address)": {
        "params": {
          "user": "the user for which to claim the accrued interest",
          "vToken": "the market for which claim the accrued interest"
        },
        "returns": {
          "_0": "amount the amount of tokens transferred to the user"
        }
      },
      "claimTimeRemaining(address)": {
        "params": {
          "user": "the account address for which we are checking the remaining time"
        },
        "returns": {
          "_0": "timeRemaining the number of seconds the user needs to wait to claim prime token"
        }
      },
      "constructor": {
        "custom:oz-upgrades-unsafe-allow": "constructor"
      },
      "estimateAPR(address,address,uint256,uint256,uint256)": {
        "params": {
          "borrow": "hypothetical borrow amount",
          "market": "the market for which to fetch the APR",
          "supply": "hypothetical supply amount",
          "user": "the account for which to get the APR",
          "xvsStaked": "hypothetical staked XVS amount"
        },
        "returns": {
          "borrowAPR": "borrow APR of the user in BPS",
          "supplyAPR": "supply APR of the user in BPS"
        }
      },
      "getAllMarkets()": {
        "returns": {
          "_0": "an array of addresses representing all available markets"
        }
      },
      "getInterestAccrued(address,address)": {
        "params": {
          "user": "the account for which to get the accrued interest",
          "vToken": "the market for which to fetch the accrued interest"
        },
        "returns": {
          "_0": "interestAccrued the number of underlying tokens accrued by the user since the last accrual"
        }
      },
      "getPendingInterests(address)": {
        "params": {
          "user": "the account for which to get the accrued interests"
        },
        "returns": {
          "pendingInterests": "the number of underlying tokens accrued by the user for all markets"
        }
      },
      "initialize(address,address,uint256,uint128,uint128,address,address,address,address,address,uint256)": {
        "custom:error": "Throw InvalidAddress if any of the address is invalid",
        "params": {
          "_accessControlManager": "Address of AccessControlManager",
          "_alphaDenominator": "denominator of alpha. If alpha is 0.5 then denominator is 2. alpha is _alphaNumerator/_alphaDenominator. So, 0 < alpha <=1",
          "_alphaNumerator": "numerator of alpha. If alpha is 0.5 then numerator is 1. _alphaNumerator must be greater than _alphaDenominator and _alphaDenominator cannot be zero",
          "_comptroller": "Address of Comptroller",
          "_loopsLimit": "Maximum number of loops allowed in a single transaction",
          "_oracle": "Address of Oracle",
          "_primeLiquidityProvider": "Address of PrimeLiquidityProvider",
          "_protocolShareReserve": "Address of ProtocolShareReserve",
          "_xvsVault": "Address of XVSVault",
          "_xvsVaultPoolId": "Pool id of XVSVault",
          "_xvsVaultRewardToken": "Address of XVSVault reward token"
        }
      },
      "issue(bool,address[])": {
        "custom:access": "Controlled by ACM",
        "params": {
          "isIrrevocable": "are the tokens being issued",
          "users": "list of address to issue tokens to"
        }
      },
      "owner()": {
        "details": "Returns the address of the current owner."
      },
      "paused()": {
        "details": "Returns true if the contract is paused, and false otherwise."
      },
      "pendingOwner()": {
        "details": "Returns the address of the pending owner."
      },
      "renounceOwnership()": {
        "details": "Leaves the contract without owner. It will not be possible to call `onlyOwner` functions. Can only be called by the current owner. NOTE: Renouncing ownership will leave the contract without an owner, thereby disabling any functionality that is only available to the owner."
      },
      "setAccessControlManager(address)": {
        "custom:access": "Only Governance",
        "custom:event": "Emits NewAccessControlManager event",
        "details": "Admin function to set address of AccessControlManager",
        "params": {
          "accessControlManager_": "The new address of the AccessControlManager"
        }
      },
      "setLimit(uint256,uint256)": {
        "custom:access": "Controlled by ACM",
        "custom:error": "Throw InvalidLimit if any of the limit is less than total tokens minted",
        "custom:event": "Emits MintLimitsUpdated event",
        "params": {
          "_irrevocableLimit": "total number of irrevocable tokens that can be minted",
          "_revocableLimit": "total number of revocable tokens that can be minted"
        }
      },
      "togglePause()": {
        "custom:access": "Controlled by ACM"
      },
      "transferOwnership(address)": {
        "details": "Starts the ownership transfer of the contract to a new account. Replaces the pending transfer if there is one. Can only be called by the current owner."
      },
      "updateAlpha(uint128,uint128)": {
        "custom:access": "Controlled by ACM",
        "custom:event": "Emits AlphaUpdated event",
        "params": {
          "_alphaDenominator": "denominator of alpha. If alpha is 0.5 then denominator is 2",
          "_alphaNumerator": "numerator of alpha. If alpha is 0.5 then numerator is 1"
        }
      },
      "updateAssetsState(address,address)": {
        "custom:error": "Throw InvalidCaller if caller is not protocol share reserveThrow InvalidComptroller if comptroller is not validThrow MarketNotSupported if market is not supported",
        "custom:event": "Emits UpdatedAssetsState event",
        "params": {
          "_comptroller": "The address of the Comptroller whose income is distributed",
          "asset": "The address of the asset whose income is distributed"
        }
      },
      "updateMultipliers(address,uint256,uint256)": {
        "custom:access": "Controlled by ACM",
        "custom:error": "Throw MarketNotSupported if market is not supported",
        "custom:event": "Emits MultiplierUpdated event",
        "params": {
          "borrowMultiplier": "new borrow multiplier for the market, scaled by 1e18",
          "market": "address of the market vToken",
          "supplyMultiplier": "new supply multiplier for the market, scaled by 1e18"
        }
      },
      "updateScores(address[])": {
        "custom:error": "Throw NoScoreUpdatesRequired if no score updates are requiredThrow UserHasNoPrimeToken if user has no prime token",
        "custom:event": "Emits UserScoreUpdated event",
        "params": {
          "users": "accounts for which we need to update score"
        }
      },
      "xvsUpdated(address)": {
        "params": {
          "user": "the account address whose balance was updated"
        }
      }
    },
    "stateVariables": {
      "BLOCKS_PER_YEAR": {
        "custom:oz-upgrades-unsafe-allow": "state-variable-immutable"
      },
      "MAXIMUM_XVS_CAP": {
        "custom:oz-upgrades-unsafe-allow": "state-variable-immutable"
      },
      "MINIMUM_STAKED_XVS": {
        "custom:oz-upgrades-unsafe-allow": "state-variable-immutable"
      },
      "STAKING_PERIOD": {
        "custom:oz-upgrades-unsafe-allow": "state-variable-immutable"
      },
      "VBNB": {
        "custom:oz-upgrades-unsafe-allow": "state-variable-immutable"
      },
      "WBNB": {
        "custom:oz-upgrades-unsafe-allow": "state-variable-immutable"
      }
    },
    "version": 1
  },
  "userdoc": {
    "errors": {
      "AssetAlreadyExists()": [
        {
          "notice": "Error thrown when asset already exists"
        }
      ],
      "ExpTooLarge(int256)": [
        {
          "notice": "Thrown when exp is given too large of an argument"
        }
      ],
      "IneligibleToClaim()": [
        {
          "notice": "Error thrown when user is not eligible to claim prime token"
        }
      ],
      "InvalidAddress()": [
        {
          "notice": "Error thrown when invalid address is passed"
        }
      ],
      "InvalidAlphaArguments()": [
        {
          "notice": "Error thrown when invalid alpha arguments are passed"
        }
      ],
      "InvalidBlocksPerYear()": [
        {
          "notice": "Error thrown when blocks per year is passed as 0"
        }
      ],
      "InvalidCaller()": [
        {
          "notice": "Error thrown when msg.sender is not allowed to call the function"
        }
      ],
      "InvalidComptroller()": [
        {
          "notice": "Error thrown when comptroller is not valid"
        }
      ],
      "InvalidLimit()": [
        {
          "notice": "Error thrown when mint limit is reached"
        }
      ],
      "InvalidVToken()": [
        {
          "notice": "Error thrown when invalid vToken is passed"
        }
      ],
      "LnNonRealResult(int256)": [
        {
          "notice": "Thrown when the natural log would have returned a number outside of "
        }
      ],
      "LnTooLarge(int256)": [
        {
          "notice": "Thrown when the natural log function is given too large of an argument"
        }
      ],
      "MarketAlreadyExists()": [
        {
          "notice": "Error thrown when market already exists"
        }
      ],
      "MarketNotSupported()": [
        {
          "notice": "Error thrown when market is not supported"
        }
      ],
      "MaxLoopsLimitExceeded(uint256,uint256)": [
        {
          "notice": "Thrown an error on maxLoopsLimit exceeds for any loop"
        }
      ],
      "NoScoreUpdatesRequired()": [
        {
          "notice": "Error thrown when no score updates are required"
        }
      ],
      "Unauthorized(address,address,string)": [
        {
          "notice": "Thrown when the action is prohibited by AccessControlManager"
        }
      ],
      "UserHasNoPrimeToken()": [
        {
          "notice": "Error thrown when user has no prime token"
        }
      ],
      "WaitMoreTime()": [
        {
          "notice": "Error thrown when user needs to wait more time to claim prime token"
        }
      ]
    },
    "events": {
      "AlphaUpdated(uint128,uint128,uint128,uint128)": {
        "notice": "Emitted when alpha is updated"
      },
      "Burn(address)": {
        "notice": "Emitted when prime token is burned"
      },
      "InterestClaimed(address,address,uint256)": {
        "notice": "Emitted when interest is claimed"
      },
      "MarketAdded(address,uint256,uint256)": {
        "notice": "Emitted when a market is added to prime program"
      },
      "MaxLoopsLimitUpdated(uint256,uint256)": {
        "notice": "Emitted when max loops limit is set"
      },
      "Mint(address,bool)": {
        "notice": "Emitted when prime token is minted"
      },
      "MintLimitsUpdated(uint256,uint256,uint256,uint256)": {
        "notice": "Emitted when mint limits are updated"
      },
      "MultiplierUpdated(address,uint256,uint256,uint256,uint256)": {
        "notice": "Emitted when multiplier is updated"
      },
      "NewAccessControlManager(address,address)": {
        "notice": "Emitted when access control manager contract address is changed"
      },
      "TokenUpgraded(address)": {
        "notice": "Emitted when revocable token is upgraded to irrevocable token"
      },
      "UpdatedAssetsState(address,address)": {
        "notice": "Emitted asset state is update by protocol share reserve"
      },
      "UserScoreUpdated(address)": {
        "notice": "Emitted when user score is updated"
      }
    },
    "kind": "user",
    "methods": {
      "BLOCKS_PER_YEAR()": {
        "notice": "total blocks per year"
      },
      "MAXIMUM_XVS_CAP()": {
        "notice": "maximum XVS taken in account when calculating user score"
      },
      "MINIMUM_STAKED_XVS()": {
        "notice": "minimum amount of XVS user needs to stake to become a prime member"
      },
      "STAKING_PERIOD()": {
        "notice": "number of days user need to stake to claim prime token"
      },
      "VBNB()": {
        "notice": "address of VBNB contract"
      },
      "WBNB()": {
        "notice": "address of WBNB contract"
      },
      "accessControlManager()": {
        "notice": "Returns the address of the access control manager contract"
      },
      "accrueInterest(address)": {
        "notice": "Distributes income from market since last distribution"
      },
      "accrueInterestAndUpdateScore(address,address)": {
        "notice": "accrues interes and updates score for an user for a specific market"
      },
      "addMarket(address,uint256,uint256)": {
        "notice": "Add a market to prime program"
      },
      "alphaDenominator()": {
        "notice": "denominator of alpha. Ex: if alpha is 0.5 then this will be 2"
      },
      "alphaNumerator()": {
        "notice": "numberator of alpha. Ex: if alpha is 0.5 then this will be 1"
      },
      "burn(address)": {
        "notice": "For burning any prime token"
      },
      "calculateAPR(address,address)": {
        "notice": "Returns supply and borrow APR for user for a given market"
      },
      "claim()": {
        "notice": "For claiming prime token when staking period is completed"
      },
      "claimInterest(address)": {
        "notice": "For user to claim boosted yield"
      },
      "claimInterest(address,address)": {
        "notice": "For user to claim boosted yield"
      },
      "claimTimeRemaining(address)": {
        "notice": "fetch the numbers of seconds remaining for staking period to complete"
      },
      "comptroller()": {
        "notice": "address of core pool comptroller contract"
      },
      "estimateAPR(address,address,uint256,uint256,uint256)": {
        "notice": "Returns supply and borrow APR for estimated supply, borrow and XVS staked"
      },
      "getAllMarkets()": {
        "notice": "Retrieves an array of all available markets"
      },
      "getInterestAccrued(address,address)": {
        "notice": "Returns boosted interest accrued for a user"
      },
      "getPendingInterests(address)": {
        "notice": "Returns boosted pending interest accrued for a user for all markets"
      },
      "initialize(address,address,uint256,uint128,uint128,address,address,address,address,address,uint256)": {
        "notice": "Prime initializer"
      },
      "interests(address,address)": {
        "notice": "vToken to user to user index"
      },
      "irrevocableLimit()": {
        "notice": "Indicates maximum irrevocable tokens that can be minted"
      },
      "isScoreUpdated(uint256,address)": {
        "notice": "mapping to check if a account's score was updated in the round"
      },
      "issue(bool,address[])": {
        "notice": "Directly issue prime tokens to users"
      },
      "markets(address)": {
        "notice": "vToken to market configuration"
      },
      "nextScoreUpdateRoundId()": {
        "notice": "unique id for next round"
      },
      "oracle()": {
        "notice": "The address of ResilientOracle contract"
      },
      "pendingScoreUpdates()": {
        "notice": "total number of accounts whose score is yet to be updated"
      },
      "primeLiquidityProvider()": {
        "notice": "The address of PLP contract"
      },
      "protocolShareReserve()": {
        "notice": "address of protocol share reserve contract"
      },
      "revocableLimit()": {
        "notice": "Indicates maximum revocable tokens that can be minted"
      },
      "setAccessControlManager(address)": {
        "notice": "Sets the address of AccessControlManager"
      },
      "setLimit(uint256,uint256)": {
        "notice": "Set limits for total tokens that can be minted"
      },
      "stakedAt(address)": {
        "notice": "Tracks when prime token eligible users started staking for claiming prime token"
      },
      "togglePause()": {
        "notice": "To pause or unpause claiming of interest"
      },
      "tokens(address)": {
        "notice": "Mapping to get prime token's metadata"
      },
      "totalIrrevocable()": {
        "notice": "Tracks total irrevocable tokens minted"
      },
      "totalRevocable()": {
        "notice": "Tracks total revocable tokens minted"
      },
      "totalScoreUpdatesRequired()": {
        "notice": "total number of accounts whose score needs to be updated"
      },
      "unreleasedPLPIncome(address)": {
        "notice": "unreleased income from PLP that's already distributed to prime holders"
      },
      "unreleasedPSRIncome(address)": {
        "notice": "unreleased income from PSR that's already distributed to prime holders"
      },
      "updateAlpha(uint128,uint128)": {
        "notice": "Update value of alpha"
      },
      "updateAssetsState(address,address)": {
        "notice": "Callback by ProtocolShareReserve to update assets state when funds are released to this contract"
      },
      "updateMultipliers(address,uint256,uint256)": {
        "notice": "Update multipliers for a market"
      },
      "updateScores(address[])": {
        "notice": "Update total score of multiple users and market"
      },
      "vTokenForAsset(address)": {
        "notice": "mapping used to find if an asset is part of prime markets"
      },
      "xvsUpdated(address)": {
        "notice": "Executed by XVSVault whenever user's XVSVault balance changes"
      }
    },
    "version": 1
  },
  "storageLayout": {
    "storage": [
      {
        "astId": 244,
        "contract": "contracts/Tokens/Prime/Prime.sol:Prime",
        "label": "_initialized",
        "offset": 0,
        "slot": "0",
        "type": "t_uint8"
      },
      {
        "astId": 247,
        "contract": "contracts/Tokens/Prime/Prime.sol:Prime",
        "label": "_initializing",
        "offset": 1,
        "slot": "0",
        "type": "t_bool"
      },
      {
        "astId": 1503,
        "contract": "contracts/Tokens/Prime/Prime.sol:Prime",
        "label": "__gap",
        "offset": 0,
        "slot": "1",
        "type": "t_array(t_uint256)50_storage"
      },
      {
        "astId": 116,
        "contract": "contracts/Tokens/Prime/Prime.sol:Prime",
        "label": "_owner",
        "offset": 0,
        "slot": "51",
        "type": "t_address"
      },
      {
        "astId": 236,
        "contract": "contracts/Tokens/Prime/Prime.sol:Prime",
        "label": "__gap",
        "offset": 0,
        "slot": "52",
        "type": "t_array(t_uint256)49_storage"
      },
      {
        "astId": 25,
        "contract": "contracts/Tokens/Prime/Prime.sol:Prime",
        "label": "_pendingOwner",
        "offset": 0,
        "slot": "101",
        "type": "t_address"
      },
      {
        "astId": 104,
        "contract": "contracts/Tokens/Prime/Prime.sol:Prime",
        "label": "__gap",
        "offset": 0,
        "slot": "102",
        "type": "t_array(t_uint256)49_storage"
      },
      {
        "astId": 3132,
        "contract": "contracts/Tokens/Prime/Prime.sol:Prime",
        "label": "_accessControlManager",
        "offset": 0,
        "slot": "151",
        "type": "t_contract(IAccessControlManagerV8)3316"
      },
      {
        "astId": 3137,
        "contract": "contracts/Tokens/Prime/Prime.sol:Prime",
        "label": "__gap",
        "offset": 0,
        "slot": "152",
        "type": "t_array(t_uint256)49_storage"
      },
      {
        "astId": 427,
        "contract": "contracts/Tokens/Prime/Prime.sol:Prime",
        "label": "_paused",
        "offset": 0,
        "slot": "201",
        "type": "t_bool"
      },
      {
        "astId": 532,
        "contract": "contracts/Tokens/Prime/Prime.sol:Prime",
        "label": "__gap",
        "offset": 0,
        "slot": "202",
        "type": "t_array(t_uint256)49_storage"
      },
      {
        "astId": 3321,
        "contract": "contracts/Tokens/Prime/Prime.sol:Prime",
        "label": "maxLoopsLimit",
        "offset": 0,
        "slot": "251",
        "type": "t_uint256"
      },
      {
        "astId": 3326,
        "contract": "contracts/Tokens/Prime/Prime.sol:Prime",
        "label": "__gap",
        "offset": 0,
        "slot": "252",
        "type": "t_array(t_uint256)49_storage"
      },
      {
        "astId": 7292,
        "contract": "contracts/Tokens/Prime/Prime.sol:Prime",
        "label": "tokens",
        "offset": 0,
        "slot": "301",
        "type": "t_mapping(t_address,t_struct(Token)7256_storage)"
      },
      {
        "astId": 7295,
        "contract": "contracts/Tokens/Prime/Prime.sol:Prime",
        "label": "totalIrrevocable",
        "offset": 0,
        "slot": "302",
        "type": "t_uint256"
      },
      {
        "astId": 7298,
        "contract": "contracts/Tokens/Prime/Prime.sol:Prime",
        "label": "totalRevocable",
        "offset": 0,
        "slot": "303",
        "type": "t_uint256"
      },
      {
        "astId": 7301,
        "contract": "contracts/Tokens/Prime/Prime.sol:Prime",
        "label": "revocableLimit",
        "offset": 0,
        "slot": "304",
        "type": "t_uint256"
      },
      {
        "astId": 7304,
        "contract": "contracts/Tokens/Prime/Prime.sol:Prime",
        "label": "irrevocableLimit",
        "offset": 0,
        "slot": "305",
        "type": "t_uint256"
      },
      {
        "astId": 7309,
        "contract": "contracts/Tokens/Prime/Prime.sol:Prime",
        "label": "stakedAt",
        "offset": 0,
        "slot": "306",
        "type": "t_mapping(t_address,t_uint256)"
      },
      {
        "astId": 7315,
        "contract": "contracts/Tokens/Prime/Prime.sol:Prime",
        "label": "markets",
        "offset": 0,
        "slot": "307",
        "type": "t_mapping(t_address,t_struct(Market)7267_storage)"
      },
      {
        "astId": 7323,
        "contract": "contracts/Tokens/Prime/Prime.sol:Prime",
        "label": "interests",
        "offset": 0,
        "slot": "308",
        "type": "t_mapping(t_address,t_mapping(t_address,t_struct(Interest)7274_storage))"
      },
      {
        "astId": 7327,
        "contract": "contracts/Tokens/Prime/Prime.sol:Prime",
        "label": "allMarkets",
        "offset": 0,
        "slot": "309",
        "type": "t_array(t_address)dyn_storage"
      },
      {
        "astId": 7330,
        "contract": "contracts/Tokens/Prime/Prime.sol:Prime",
        "label": "alphaNumerator",
        "offset": 0,
        "slot": "310",
        "type": "t_uint128"
      },
      {
        "astId": 7333,
        "contract": "contracts/Tokens/Prime/Prime.sol:Prime",
        "label": "alphaDenominator",
        "offset": 16,
        "slot": "310",
        "type": "t_uint128"
      },
      {
        "astId": 7336,
        "contract": "contracts/Tokens/Prime/Prime.sol:Prime",
        "label": "xvsVault",
        "offset": 0,
        "slot": "311",
        "type": "t_address"
      },
      {
        "astId": 7339,
        "contract": "contracts/Tokens/Prime/Prime.sol:Prime",
        "label": "xvsVaultRewardToken",
        "offset": 0,
        "slot": "312",
        "type": "t_address"
      },
      {
        "astId": 7342,
        "contract": "contracts/Tokens/Prime/Prime.sol:Prime",
        "label": "xvsVaultPoolId",
        "offset": 0,
        "slot": "313",
        "type": "t_uint256"
      },
      {
        "astId": 7349,
        "contract": "contracts/Tokens/Prime/Prime.sol:Prime",
        "label": "isScoreUpdated",
        "offset": 0,
        "slot": "314",
        "type": "t_mapping(t_uint256,t_mapping(t_address,t_bool))"
      },
      {
        "astId": 7352,
        "contract": "contracts/Tokens/Prime/Prime.sol:Prime",
        "label": "nextScoreUpdateRoundId",
        "offset": 0,
        "slot": "315",
        "type": "t_uint256"
      },
      {
        "astId": 7355,
        "contract": "contracts/Tokens/Prime/Prime.sol:Prime",
        "label": "totalScoreUpdatesRequired",
        "offset": 0,
        "slot": "316",
        "type": "t_uint256"
      },
      {
        "astId": 7358,
        "contract": "contracts/Tokens/Prime/Prime.sol:Prime",
        "label": "pendingScoreUpdates",
        "offset": 0,
        "slot": "317",
        "type": "t_uint256"
      },
      {
        "astId": 7363,
        "contract": "contracts/Tokens/Prime/Prime.sol:Prime",
        "label": "vTokenForAsset",
        "offset": 0,
        "slot": "318",
        "type": "t_mapping(t_address,t_address)"
      },
      {
        "astId": 7366,
        "contract": "contracts/Tokens/Prime/Prime.sol:Prime",
        "label": "protocolShareReserve",
        "offset": 0,
        "slot": "319",
        "type": "t_address"
      },
      {
        "astId": 7369,
        "contract": "contracts/Tokens/Prime/Prime.sol:Prime",
        "label": "comptroller",
        "offset": 0,
        "slot": "320",
        "type": "t_address"
      },
      {
        "astId": 7374,
        "contract": "contracts/Tokens/Prime/Prime.sol:Prime",
        "label": "unreleasedPSRIncome",
        "offset": 0,
        "slot": "321",
        "type": "t_mapping(t_address,t_uint256)"
      },
      {
        "astId": 7379,
        "contract": "contracts/Tokens/Prime/Prime.sol:Prime",
        "label": "unreleasedPLPIncome",
        "offset": 0,
        "slot": "322",
        "type": "t_mapping(t_address,t_uint256)"
      },
      {
        "astId": 7382,
        "contract": "contracts/Tokens/Prime/Prime.sol:Prime",
        "label": "primeLiquidityProvider",
        "offset": 0,
        "slot": "323",
        "type": "t_address"
      },
      {
        "astId": 7386,
        "contract": "contracts/Tokens/Prime/Prime.sol:Prime",
        "label": "oracle",
        "offset": 0,
        "slot": "324",
        "type": "t_contract(ResilientOracleInterface)3415"
      },
      {
        "astId": 7391,
        "contract": "contracts/Tokens/Prime/Prime.sol:Prime",
        "label": "__gap",
        "offset": 0,
        "slot": "325",
        "type": "t_array(t_uint256)25_storage"
      }
    ],
    "types": {
      "t_address": {
        "encoding": "inplace",
        "label": "address",
        "numberOfBytes": "20"
      },
      "t_array(t_address)dyn_storage": {
        "base": "t_address",
        "encoding": "dynamic_array",
        "label": "address[]",
        "numberOfBytes": "32"
      },
      "t_array(t_uint256)25_storage": {
        "base": "t_uint256",
        "encoding": "inplace",
        "label": "uint256[25]",
        "numberOfBytes": "800"
      },
      "t_array(t_uint256)49_storage": {
        "base": "t_uint256",
        "encoding": "inplace",
        "label": "uint256[49]",
        "numberOfBytes": "1568"
      },
      "t_array(t_uint256)50_storage": {
        "base": "t_uint256",
        "encoding": "inplace",
        "label": "uint256[50]",
        "numberOfBytes": "1600"
      },
      "t_bool": {
        "encoding": "inplace",
        "label": "bool",
        "numberOfBytes": "1"
      },
      "t_contract(IAccessControlManagerV8)3316": {
        "encoding": "inplace",
        "label": "contract IAccessControlManagerV8",
        "numberOfBytes": "20"
      },
      "t_contract(ResilientOracleInterface)3415": {
        "encoding": "inplace",
        "label": "contract ResilientOracleInterface",
        "numberOfBytes": "20"
      },
      "t_mapping(t_address,t_address)": {
        "encoding": "mapping",
        "key": "t_address",
        "label": "mapping(address => address)",
        "numberOfBytes": "32",
        "value": "t_address"
      },
      "t_mapping(t_address,t_bool)": {
        "encoding": "mapping",
        "key": "t_address",
        "label": "mapping(address => bool)",
        "numberOfBytes": "32",
        "value": "t_bool"
      },
      "t_mapping(t_address,t_mapping(t_address,t_struct(Interest)7274_storage))": {
        "encoding": "mapping",
        "key": "t_address",
        "label": "mapping(address => mapping(address => struct PrimeStorageV1.Interest))",
        "numberOfBytes": "32",
        "value": "t_mapping(t_address,t_struct(Interest)7274_storage)"
      },
      "t_mapping(t_address,t_struct(Interest)7274_storage)": {
        "encoding": "mapping",
        "key": "t_address",
        "label": "mapping(address => struct PrimeStorageV1.Interest)",
        "numberOfBytes": "32",
        "value": "t_struct(Interest)7274_storage"
      },
      "t_mapping(t_address,t_struct(Market)7267_storage)": {
        "encoding": "mapping",
        "key": "t_address",
        "label": "mapping(address => struct PrimeStorageV1.Market)",
        "numberOfBytes": "32",
        "value": "t_struct(Market)7267_storage"
      },
      "t_mapping(t_address,t_struct(Token)7256_storage)": {
        "encoding": "mapping",
        "key": "t_address",
        "label": "mapping(address => struct PrimeStorageV1.Token)",
        "numberOfBytes": "32",
        "value": "t_struct(Token)7256_storage"
      },
      "t_mapping(t_address,t_uint256)": {
        "encoding": "mapping",
        "key": "t_address",
        "label": "mapping(address => uint256)",
        "numberOfBytes": "32",
        "value": "t_uint256"
      },
      "t_mapping(t_uint256,t_mapping(t_address,t_bool))": {
        "encoding": "mapping",
        "key": "t_uint256",
        "label": "mapping(uint256 => mapping(address => bool))",
        "numberOfBytes": "32",
        "value": "t_mapping(t_address,t_bool)"
      },
      "t_struct(Interest)7274_storage": {
        "encoding": "inplace",
        "label": "struct PrimeStorageV1.Interest",
        "members": [
          {
            "astId": 7269,
            "contract": "contracts/Tokens/Prime/Prime.sol:Prime",
            "label": "accrued",
            "offset": 0,
            "slot": "0",
            "type": "t_uint256"
          },
          {
            "astId": 7271,
            "contract": "contracts/Tokens/Prime/Prime.sol:Prime",
            "label": "score",
            "offset": 0,
            "slot": "1",
            "type": "t_uint256"
          },
          {
            "astId": 7273,
            "contract": "contracts/Tokens/Prime/Prime.sol:Prime",
            "label": "rewardIndex",
            "offset": 0,
            "slot": "2",
            "type": "t_uint256"
          }
        ],
        "numberOfBytes": "96"
      },
      "t_struct(Market)7267_storage": {
        "encoding": "inplace",
        "label": "struct PrimeStorageV1.Market",
        "members": [
          {
            "astId": 7258,
            "contract": "contracts/Tokens/Prime/Prime.sol:Prime",
            "label": "supplyMultiplier",
            "offset": 0,
            "slot": "0",
            "type": "t_uint256"
          },
          {
            "astId": 7260,
            "contract": "contracts/Tokens/Prime/Prime.sol:Prime",
            "label": "borrowMultiplier",
            "offset": 0,
            "slot": "1",
            "type": "t_uint256"
          },
          {
            "astId": 7262,
            "contract": "contracts/Tokens/Prime/Prime.sol:Prime",
            "label": "rewardIndex",
            "offset": 0,
            "slot": "2",
            "type": "t_uint256"
          },
          {
            "astId": 7264,
            "contract": "contracts/Tokens/Prime/Prime.sol:Prime",
            "label": "sumOfMembersScore",
            "offset": 0,
            "slot": "3",
            "type": "t_uint256"
          },
          {
            "astId": 7266,
            "contract": "contracts/Tokens/Prime/Prime.sol:Prime",
            "label": "exists",
            "offset": 0,
            "slot": "4",
            "type": "t_bool"
          }
        ],
        "numberOfBytes": "160"
      },
      "t_struct(Token)7256_storage": {
        "encoding": "inplace",
        "label": "struct PrimeStorageV1.Token",
        "members": [
          {
            "astId": 7253,
            "contract": "contracts/Tokens/Prime/Prime.sol:Prime",
            "label": "exists",
            "offset": 0,
            "slot": "0",
            "type": "t_bool"
          },
          {
            "astId": 7255,
            "contract": "contracts/Tokens/Prime/Prime.sol:Prime",
            "label": "isIrrevocable",
            "offset": 1,
            "slot": "0",
            "type": "t_bool"
          }
        ],
        "numberOfBytes": "32"
      },
      "t_uint128": {
        "encoding": "inplace",
        "label": "uint128",
        "numberOfBytes": "16"
      },
      "t_uint256": {
        "encoding": "inplace",
        "label": "uint256",
        "numberOfBytes": "32"
      },
      "t_uint8": {
        "encoding": "inplace",
        "label": "uint8",
        "numberOfBytes": "1"
      }
    }
  }
}