{
  "address": "0x821c01b57b988e0cc28eb96294ee036bd8a41e05",
  "abi": [
    {
      "inputs": [],
      "stateMutability": "nonpayable",
      "type": "constructor"
    },
    {
      "inputs": [],
      "name": "FundsTransferIsPaused",
      "type": "error"
    },
    {
      "inputs": [
        {
          "internalType": "uint256",
          "name": "sweepAmount",
          "type": "uint256"
        },
        {
          "internalType": "uint256",
          "name": "balance",
          "type": "uint256"
        }
      ],
      "name": "InsufficientBalance",
      "type": "error"
    },
    {
      "inputs": [],
      "name": "InvalidArguments",
      "type": "error"
    },
    {
      "inputs": [],
      "name": "InvalidCaller",
      "type": "error"
    },
    {
      "inputs": [
        {
          "internalType": "uint256",
          "name": "speed",
          "type": "uint256"
        },
        {
          "internalType": "uint256",
          "name": "maxSpeed",
          "type": "uint256"
        }
      ],
      "name": "InvalidDistributionSpeed",
      "type": "error"
    },
    {
      "inputs": [
        {
          "internalType": "address",
          "name": "token",
          "type": "address"
        }
      ],
      "name": "TokenAlreadyInitialized",
      "type": "error"
    },
    {
      "inputs": [
        {
          "internalType": "address",
          "name": "token_",
          "type": "address"
        }
      ],
      "name": "TokenNotInitialized",
      "type": "error"
    },
    {
      "inputs": [
        {
          "internalType": "address",
          "name": "sender",
          "type": "address"
        },
        {
          "internalType": "address",
          "name": "calledContract",
          "type": "address"
        },
        {
          "internalType": "string",
          "name": "methodSignature",
          "type": "string"
        }
      ],
      "name": "Unauthorized",
      "type": "error"
    },
    {
      "anonymous": false,
      "inputs": [],
      "name": "FundsTransferPaused",
      "type": "event"
    },
    {
      "anonymous": false,
      "inputs": [],
      "name": "FundsTransferResumed",
      "type": "event"
    },
    {
      "anonymous": false,
      "inputs": [
        {
          "indexed": false,
          "internalType": "uint8",
          "name": "version",
          "type": "uint8"
        }
      ],
      "name": "Initialized",
      "type": "event"
    },
    {
      "anonymous": false,
      "inputs": [
        {
          "indexed": false,
          "internalType": "address",
          "name": "oldAccessControlManager",
          "type": "address"
        },
        {
          "indexed": false,
          "internalType": "address",
          "name": "newAccessControlManager",
          "type": "address"
        }
      ],
      "name": "NewAccessControlManager",
      "type": "event"
    },
    {
      "anonymous": false,
      "inputs": [
        {
          "indexed": true,
          "internalType": "address",
          "name": "previousOwner",
          "type": "address"
        },
        {
          "indexed": true,
          "internalType": "address",
          "name": "newOwner",
          "type": "address"
        }
      ],
      "name": "OwnershipTransferStarted",
      "type": "event"
    },
    {
      "anonymous": false,
      "inputs": [
        {
          "indexed": true,
          "internalType": "address",
          "name": "previousOwner",
          "type": "address"
        },
        {
          "indexed": true,
          "internalType": "address",
          "name": "newOwner",
          "type": "address"
        }
      ],
      "name": "OwnershipTransferred",
      "type": "event"
    },
    {
      "anonymous": false,
      "inputs": [
        {
          "indexed": false,
          "internalType": "address",
          "name": "account",
          "type": "address"
        }
      ],
      "name": "Paused",
      "type": "event"
    },
    {
      "anonymous": false,
      "inputs": [
        {
          "indexed": false,
          "internalType": "address",
          "name": "oldPrimeToken",
          "type": "address"
        },
        {
          "indexed": false,
          "internalType": "address",
          "name": "newPrimeToken",
          "type": "address"
        }
      ],
      "name": "PrimeTokenUpdated",
      "type": "event"
    },
    {
      "anonymous": false,
      "inputs": [
        {
          "indexed": true,
          "internalType": "address",
          "name": "token",
          "type": "address"
        },
        {
          "indexed": true,
          "internalType": "address",
          "name": "to",
          "type": "address"
        },
        {
          "indexed": false,
          "internalType": "uint256",
          "name": "sweepAmount",
          "type": "uint256"
        }
      ],
      "name": "SweepToken",
      "type": "event"
    },
    {
      "anonymous": false,
      "inputs": [
        {
          "indexed": true,
          "internalType": "address",
          "name": "token",
          "type": "address"
        }
      ],
      "name": "TokenDistributionInitialized",
      "type": "event"
    },
    {
      "anonymous": false,
      "inputs": [
        {
          "indexed": true,
          "internalType": "address",
          "name": "token",
          "type": "address"
        },
        {
          "indexed": false,
          "internalType": "uint256",
          "name": "newSpeed",
          "type": "uint256"
        }
      ],
      "name": "TokenDistributionSpeedUpdated",
      "type": "event"
    },
    {
      "anonymous": false,
      "inputs": [
        {
          "indexed": true,
          "internalType": "address",
          "name": "token",
          "type": "address"
        },
        {
          "indexed": false,
          "internalType": "uint256",
          "name": "balance",
          "type": "uint256"
        }
      ],
      "name": "TokenInitialBalanceUpdated",
      "type": "event"
    },
    {
      "anonymous": false,
      "inputs": [
        {
          "indexed": true,
          "internalType": "address",
          "name": "token",
          "type": "address"
        },
        {
          "indexed": false,
          "internalType": "uint256",
          "name": "amount",
          "type": "uint256"
        }
      ],
      "name": "TokenTransferredToPrime",
      "type": "event"
    },
    {
      "anonymous": false,
      "inputs": [
        {
          "indexed": true,
          "internalType": "address",
          "name": "token",
          "type": "address"
        },
        {
          "indexed": false,
          "internalType": "uint256",
          "name": "amount",
          "type": "uint256"
        }
      ],
      "name": "TokensAccrued",
      "type": "event"
    },
    {
      "anonymous": false,
      "inputs": [
        {
          "indexed": false,
          "internalType": "address",
          "name": "account",
          "type": "address"
        }
      ],
      "name": "Unpaused",
      "type": "event"
    },
    {
      "inputs": [],
      "name": "MAX_DISTRIBUTION_SPEED",
      "outputs": [
        {
          "internalType": "uint256",
          "name": "",
          "type": "uint256"
        }
      ],
      "stateMutability": "view",
      "type": "function"
    },
    {
      "inputs": [],
      "name": "acceptOwnership",
      "outputs": [],
      "stateMutability": "nonpayable",
      "type": "function"
    },
    {
      "inputs": [],
      "name": "accessControlManager",
      "outputs": [
        {
          "internalType": "contract IAccessControlManagerV8",
          "name": "",
          "type": "address"
        }
      ],
      "stateMutability": "view",
      "type": "function"
    },
    {
      "inputs": [
        {
          "internalType": "address",
          "name": "token_",
          "type": "address"
        }
      ],
      "name": "accrueTokens",
      "outputs": [],
      "stateMutability": "nonpayable",
      "type": "function"
    },
    {
      "inputs": [],
      "name": "getBlockNumber",
      "outputs": [
        {
          "internalType": "uint256",
          "name": "",
          "type": "uint256"
        }
      ],
      "stateMutability": "view",
      "type": "function"
    },
    {
      "inputs": [
        {
          "internalType": "address",
          "name": "token_",
          "type": "address"
        }
      ],
      "name": "getEffectiveDistributionSpeed",
      "outputs": [
        {
          "internalType": "uint256",
          "name": "",
          "type": "uint256"
        }
      ],
      "stateMutability": "view",
      "type": "function"
    },
    {
      "inputs": [
        {
          "internalType": "address",
          "name": "accessControlManager_",
          "type": "address"
        },
        {
          "internalType": "address[]",
          "name": "tokens_",
          "type": "address[]"
        },
        {
          "internalType": "uint256[]",
          "name": "distributionSpeeds_",
          "type": "uint256[]"
        }
      ],
      "name": "initialize",
      "outputs": [],
      "stateMutability": "nonpayable",
      "type": "function"
    },
    {
      "inputs": [
        {
          "internalType": "address[]",
          "name": "tokens_",
          "type": "address[]"
        }
      ],
      "name": "initializeTokens",
      "outputs": [],
      "stateMutability": "nonpayable",
      "type": "function"
    },
    {
      "inputs": [
        {
          "internalType": "address",
          "name": "",
          "type": "address"
        }
      ],
      "name": "lastAccruedBlock",
      "outputs": [
        {
          "internalType": "uint256",
          "name": "",
          "type": "uint256"
        }
      ],
      "stateMutability": "view",
      "type": "function"
    },
    {
      "inputs": [],
      "name": "owner",
      "outputs": [
        {
          "internalType": "address",
          "name": "",
          "type": "address"
        }
      ],
      "stateMutability": "view",
      "type": "function"
    },
    {
      "inputs": [],
      "name": "pauseFundsTransfer",
      "outputs": [],
      "stateMutability": "nonpayable",
      "type": "function"
    },
    {
      "inputs": [],
      "name": "paused",
      "outputs": [
        {
          "internalType": "bool",
          "name": "",
          "type": "bool"
        }
      ],
      "stateMutability": "view",
      "type": "function"
    },
    {
      "inputs": [],
      "name": "pendingOwner",
      "outputs": [
        {
          "internalType": "address",
          "name": "",
          "type": "address"
        }
      ],
      "stateMutability": "view",
      "type": "function"
    },
    {
      "inputs": [],
      "name": "prime",
      "outputs": [
        {
          "internalType": "address",
          "name": "",
          "type": "address"
        }
      ],
      "stateMutability": "view",
      "type": "function"
    },
    {
      "inputs": [
        {
          "internalType": "address",
          "name": "token_",
          "type": "address"
        }
      ],
      "name": "releaseFunds",
      "outputs": [],
      "stateMutability": "nonpayable",
      "type": "function"
    },
    {
      "inputs": [],
      "name": "renounceOwnership",
      "outputs": [],
      "stateMutability": "nonpayable",
      "type": "function"
    },
    {
      "inputs": [],
      "name": "resumeFundsTransfer",
      "outputs": [],
      "stateMutability": "nonpayable",
      "type": "function"
    },
    {
      "inputs": [
        {
          "internalType": "address",
          "name": "accessControlManager_",
          "type": "address"
        }
      ],
      "name": "setAccessControlManager",
      "outputs": [],
      "stateMutability": "nonpayable",
      "type": "function"
    },
    {
      "inputs": [
        {
          "internalType": "address",
          "name": "prime_",
          "type": "address"
        }
      ],
      "name": "setPrimeToken",
      "outputs": [],
      "stateMutability": "nonpayable",
      "type": "function"
    },
    {
      "inputs": [
        {
          "internalType": "address[]",
          "name": "tokens_",
          "type": "address[]"
        },
        {
          "internalType": "uint256[]",
          "name": "distributionSpeeds_",
          "type": "uint256[]"
        }
      ],
      "name": "setTokensDistributionSpeed",
      "outputs": [],
      "stateMutability": "nonpayable",
      "type": "function"
    },
    {
      "inputs": [
        {
          "internalType": "contract IERC20Upgradeable",
          "name": "token_",
          "type": "address"
        },
        {
          "internalType": "address",
          "name": "to_",
          "type": "address"
        },
        {
          "internalType": "uint256",
          "name": "amount_",
          "type": "uint256"
        }
      ],
      "name": "sweepToken",
      "outputs": [],
      "stateMutability": "nonpayable",
      "type": "function"
    },
    {
      "inputs": [
        {
          "internalType": "address",
          "name": "",
          "type": "address"
        }
      ],
      "name": "tokenAmountAccrued",
      "outputs": [
        {
          "internalType": "uint256",
          "name": "",
          "type": "uint256"
        }
      ],
      "stateMutability": "view",
      "type": "function"
    },
    {
      "inputs": [
        {
          "internalType": "address",
          "name": "",
          "type": "address"
        }
      ],
      "name": "tokenDistributionSpeeds",
      "outputs": [
        {
          "internalType": "uint256",
          "name": "",
          "type": "uint256"
        }
      ],
      "stateMutability": "view",
      "type": "function"
    },
    {
      "inputs": [
        {
          "internalType": "address",
          "name": "newOwner",
          "type": "address"
        }
      ],
      "name": "transferOwnership",
      "outputs": [],
      "stateMutability": "nonpayable",
      "type": "function"
    }
  ],
  "transactionHash": "0x70d1b63c266e1268a897985e88306b7e4dd536fff3c972826f3f67b19fa94b8b",
  "args": [],
  "numDeployments": 1,
  "solcInputHash": "86d7c67a050fff64fcbda2a2b6ae488f",
  "bytecode": "0x608060405234801561001057600080fd5b5061001961001e565b6100dd565b600054610100900460ff161561008a5760405162461bcd60e51b815260206004820152602760248201527f496e697469616c697a61626c653a20636f6e747261637420697320696e697469604482015266616c697a696e6760c81b606482015260840160405180910390fd5b60005460ff908116146100db576000805460ff191660ff9081179091556040519081527f7f26b83ff96e1f2b6a682f133852f6798a09c465da95921460cefb38474024989060200160405180910390a15b565b611952806100ec6000396000f3fe608060405234801561001057600080fd5b50600436106101585760003560e01c80638aadf799116100c3578063c7ee005e1161007c578063c7ee005e146102b8578063ce82e841146102cb578063e30c3978146102de578063f2fde38b146102ef578063fa7781ff14610302578063ff1d57521461032257600080fd5b80638aadf799146102415780638da5cb5b14610254578063a666642b14610279578063b4a0bdf31461028c578063bc2f7dc31461029d578063c32094c7146102a557600080fd5b806343bf72831161011557806343bf7283146101e05780635a38f84d146102005780635c975abb1461020857806364aff9ec1461021e578063715018a61461023157806379ba50971461023957600080fd5b80630e32cb861461015d578063192e7a7b14610172578063231f82bb146101855780633131b065146101b857806341e96a87146101cb57806342cbb15c146101da575b600080fd5b61017061016b36600461152b565b610335565b005b61017061018036600461152b565b610349565b6101a561019336600461152b565b60fc6020526000908152604090205481565b6040519081526020015b60405180910390f35b6101706101c636600461159b565b610411565b6101a5670de0b6b3a764000081565b436101a5565b6101a56101ee36600461152b565b60fd6020526000908152604090205481565b610170610460565b60c95460ff1660405190151581526020016101af565b61017061022c3660046115dd565b61049f565b6101706105ab565b6101706105bd565b61017061024f36600461152b565b610634565b6033546001600160a01b03165b6040516001600160a01b0390911681526020016101af565b6101a561028736600461152b565b6107df565b6097546001600160a01b0316610261565b61017061089c565b6101706102b336600461152b565b6108da565b60fb54610261906001600160a01b031681565b6101706102d936600461161e565b610954565b6065546001600160a01b0316610261565b6101706102fd36600461152b565b610a28565b6101a561031036600461152b565b60fe6020526000908152604090205481565b61017061033036600461168a565b610a99565b61033d610c3e565b61034681610c98565b50565b60fb546001600160a01b03163314610374576040516348f5c3ed60e01b815260040160405180910390fd5b60c95460ff16156103985760405163f4eaf50160e01b815260040160405180910390fd5b6103a181610634565b6001600160a01b038116600081815260fe602090815260408083208054939055518281529192917fa80c25cc8959419d41ee66f93961c567b272badc10e0e117261a0ee31b55c312910160405180910390a260fb5461040d906001600160a01b03848116911683610d5d565b5050565b610419610c3e565b60005b8181101561045b576104538383838181106104395761043961170d565b905060200201602081019061044e919061152b565b610daf565b60010161041c565b505050565b61049560405180604001604052806014815260200173706175736546756e64735472616e73666572282960601b815250610e43565b61049d610edd565b565b6104a7610c3e565b6040516370a0823160e01b81523060048201526000906001600160a01b038516906370a0823190602401602060405180830381865afa1580156104ee573d6000803e3d6000fd5b505050506040513d601f19601f820116820180604052508101906105129190611723565b9050808211156105445760405163cf47918160e01b815260048101839052602481018290526044015b60405180910390fd5b826001600160a01b0316846001600160a01b03167f6d25be279134f4ecaa4770aff0c3d916d9e7c5ef37b65ed95dbdba411f5d54d58460405161058991815260200190565b60405180910390a36105a56001600160a01b0385168484610d5d565b50505050565b6105b3610c3e565b61049d6000610f37565b60655433906001600160a01b0316811461062b5760405162461bcd60e51b815260206004820152602960248201527f4f776e61626c6532537465703a2063616c6c6572206973206e6f7420746865206044820152683732bb9037bbb732b960b91b606482015260840161053b565b61034681610f37565b61063d81610f50565b61064681610f77565b6001600160a01b038116600090815260fd602052604081205443919061066c9083611752565b9050801561045b576001600160a01b038316600081815260fc60205260408082205490516370a0823160e01b81523060048201529092906370a0823190602401602060405180830381865afa1580156106c9573d6000803e3d6000fd5b505050506040513d601f19601f820116820180604052508101906106ed9190611723565b6001600160a01b038616600090815260fe6020526040812054919250906107149083611752565b90506000831180156107265750600081115b156107be5760006107378486611769565b9050600081831115610749578161074b565b825b6001600160a01b038916600090815260fe6020526040812080549293508392909190610778908490611788565b90915550506040518181526001600160a01b038916907ffe854c4c4e633d5bb31aec1f39f01d9f8f01ad2e0212a0e576825ac986af05899060200160405180910390a250505b505050506001600160a01b0391909116600090815260fd6020526040902055565b6001600160a01b038116600081815260fc60205260408082205490516370a0823160e01b8152306004820152919290918391906370a0823190602401602060405180830381865afa158015610838573d6000803e3d6000fd5b505050506040513d601f19601f8201168201806040525081019061085c9190611723565b6001600160a01b038516600090815260fe60205260408120549192506108828284611752565b11156108915750909392505050565b506000949350505050565b6108d260405180604001604052806015815260200174726573756d6546756e64735472616e73666572282960581b815250610e43565b61049d610fbc565b6108e2610c3e565b6108eb81610f50565b60fb54604080516001600160a01b03928316815291831660208301527fcf4d0ac7a2f943727f0189dd1f26ba0cde29a1b14f222163ac866d4f5167db94910160405180910390a160fb80546001600160a01b0319166001600160a01b0392909216919091179055565b6109756040518060600160405280602f81526020016118ee602f9139610e43565b82818114610996576040516317dbc4cb60e21b815260040160405180910390fd5b60005b81811015610a20576109d08686838181106109b6576109b661170d565b90506020020160208101906109cb919061152b565b610f77565b610a188686838181106109e5576109e561170d565b90506020020160208101906109fa919061152b565b858584818110610a0c57610a0c61170d565b90506020020135610ff5565b600101610999565b505050505050565b610a30610c3e565b606580546001600160a01b0383166001600160a01b03199091168117909155610a616033546001600160a01b031690565b6001600160a01b03167f38d16b8cac22d99fc7c124b9cd0de2d3fa1faef420bfe791d8c362d765e2270060405160405180910390a350565b600054610100900460ff1615808015610ab95750600054600160ff909116105b80610ad35750303b158015610ad3575060005460ff166001145b610b365760405162461bcd60e51b815260206004820152602e60248201527f496e697469616c697a61626c653a20636f6e747261637420697320616c72656160448201526d191e481a5b9a5d1a585b1a5e995960921b606482015260840161053b565b6000805460ff191660011790558015610b59576000805461ff0019166101001790555b610b62866110b0565b610b6a6110e8565b83828114610b8b576040516317dbc4cb60e21b815260040160405180910390fd5b60005b81811015610bef57610bab8787838181106104395761043961170d565b610be7878783818110610bc057610bc061170d565b9050602002016020810190610bd5919061152b565b868684818110610a0c57610a0c61170d565b600101610b8e565b50508015610a20576000805461ff0019169055604051600181527f7f26b83ff96e1f2b6a682f133852f6798a09c465da95921460cefb38474024989060200160405180910390a1505050505050565b6033546001600160a01b0316331461049d5760405162461bcd60e51b815260206004820181905260248201527f4f776e61626c653a2063616c6c6572206973206e6f7420746865206f776e6572604482015260640161053b565b6001600160a01b038116610cfc5760405162461bcd60e51b815260206004820152602560248201527f696e76616c696420616365737320636f6e74726f6c206d616e61676572206164604482015264647265737360d81b606482015260840161053b565b609780546001600160a01b038381166001600160a01b031983168117909355604080519190921680825260208201939093527f66fd58e82f7b31a2a5c30e0888f3093efe4e111b00cd2b0c31fe014601293aa0910160405180910390a15050565b604080516001600160a01b038416602482015260448082018490528251808303909101815260649091019091526020810180516001600160e01b031663a9059cbb60e01b17905261045b908490611117565b610db881610f50565b6001600160a01b038116600090815260fd602052604090205443908015610dfd576040516303b51ceb60e11b81526001600160a01b038416600482015260240161053b565b6001600160a01b038316600081815260fd6020526040808220859055517fcf6e06116a82c1b468912f23d8bb1d126edbb21bc0864d6d5169e3be39b1a8189190a2505050565b6097546040516318c5e8ab60e01b81526000916001600160a01b0316906318c5e8ab90610e7690339086906004016117f8565b602060405180830381865afa158015610e93573d6000803e3d6000fd5b505050506040513d601f19601f82011682018060405250810190610eb7919061181c565b90508061040d57333083604051634a3fa29360e01b815260040161053b9392919061183e565b610ee56111ec565b60c9805460ff191660011790557f62e78cea01bee320cd4e420270b5ea74000d11b0c9f74754ebdbfc544b05a258610f1a3390565b6040516001600160a01b03909116815260200160405180910390a1565b606580546001600160a01b031916905561034681611232565b6001600160a01b038116610346576040516317dbc4cb60e21b815260040160405180910390fd5b6001600160a01b038116600090815260fd60205260408120549081900361040d576040516341ea4b5960e01b81526001600160a01b038316600482015260240161053b565b610fc4611284565b60c9805460ff191690557f5db9ee0a495bf2e6ff9c91a7834c1ba4fdd244a5e8aa4e537bd38aeae4b073aa33610f1a565b670de0b6b3a764000081111561102f57604051631cf8f4dd60e11b815260048101829052670de0b6b3a7640000602482015260440161053b565b6001600160a01b038216600090815260fc6020526040902054811461040d5761105782610634565b6001600160a01b038216600081815260fc602052604090819020839055517f7aed2945e99658489d266c472a46e696f5ca63279ef5b9f14fef7634af78c230906110a49084815260200190565b60405180910390a25050565b600054610100900460ff166110d75760405162461bcd60e51b815260040161053b90611873565b6110df6112cd565b610346816112fc565b600054610100900460ff1661110f5760405162461bcd60e51b815260040161053b90611873565b61049d611323565b600061116c826040518060400160405280602081526020017f5361666545524332303a206c6f772d6c6576656c2063616c6c206661696c6564815250856001600160a01b03166113569092919063ffffffff16565b905080516000148061118d57508080602001905181019061118d919061181c565b61045b5760405162461bcd60e51b815260206004820152602a60248201527f5361666545524332303a204552433230206f7065726174696f6e20646964206e6044820152691bdd081cdd58d8d9595960b21b606482015260840161053b565b60c95460ff161561049d5760405162461bcd60e51b815260206004820152601060248201526f14185d5cd8589b194e881c185d5cd95960821b604482015260640161053b565b603380546001600160a01b038381166001600160a01b0319831681179093556040519116919082907f8be0079c531659141344cd1fd0a4f28419497f9722a3daafe3b4186f6b6457e090600090a35050565b60c95460ff1661049d5760405162461bcd60e51b815260206004820152601460248201527314185d5cd8589b194e881b9bdd081c185d5cd95960621b604482015260640161053b565b600054610100900460ff166112f45760405162461bcd60e51b815260040161053b90611873565b61049d61136d565b600054610100900460ff1661033d5760405162461bcd60e51b815260040161053b90611873565b600054610100900460ff1661134a5760405162461bcd60e51b815260040161053b90611873565b60c9805460ff19169055565b6060611365848460008561139d565b949350505050565b600054610100900460ff166113945760405162461bcd60e51b815260040161053b90611873565b61049d33610f37565b6060824710156113fe5760405162461bcd60e51b815260206004820152602660248201527f416464726573733a20696e73756666696369656e742062616c616e636520666f6044820152651c8818d85b1b60d21b606482015260840161053b565b600080866001600160a01b0316858760405161141a91906118be565b60006040518083038185875af1925050503d8060008114611457576040519150601f19603f3d011682016040523d82523d6000602084013e61145c565b606091505b509150915061146d87838387611478565b979650505050505050565b606083156114e75782516000036114e0576001600160a01b0385163b6114e05760405162461bcd60e51b815260206004820152601d60248201527f416464726573733a2063616c6c20746f206e6f6e2d636f6e7472616374000000604482015260640161053b565b5081611365565b61136583838151156114fc5781518083602001fd5b8060405162461bcd60e51b815260040161053b91906118da565b6001600160a01b038116811461034657600080fd5b60006020828403121561153d57600080fd5b813561154881611516565b9392505050565b60008083601f84011261156157600080fd5b50813567ffffffffffffffff81111561157957600080fd5b6020830191508360208260051b850101111561159457600080fd5b9250929050565b600080602083850312156115ae57600080fd5b823567ffffffffffffffff8111156115c557600080fd5b6115d18582860161154f565b90969095509350505050565b6000806000606084860312156115f257600080fd5b83356115fd81611516565b9250602084013561160d81611516565b929592945050506040919091013590565b6000806000806040858703121561163457600080fd5b843567ffffffffffffffff8082111561164c57600080fd5b6116588883890161154f565b9096509450602087013591508082111561167157600080fd5b5061167e8782880161154f565b95989497509550505050565b6000806000806000606086880312156116a257600080fd5b85356116ad81611516565b9450602086013567ffffffffffffffff808211156116ca57600080fd5b6116d689838a0161154f565b909650945060408801359150808211156116ef57600080fd5b506116fc8882890161154f565b969995985093965092949392505050565b634e487b7160e01b600052603260045260246000fd5b60006020828403121561173557600080fd5b5051919050565b634e487b7160e01b600052601160045260246000fd5b6000828210156117645761176461173c565b500390565b60008160001904831182151516156117835761178361173c565b500290565b6000821982111561179b5761179b61173c565b500190565b60005b838110156117bb5781810151838201526020016117a3565b838111156105a55750506000910152565b600081518084526117e48160208601602086016117a0565b601f01601f19169290920160200192915050565b6001600160a01b0383168152604060208201819052600090611365908301846117cc565b60006020828403121561182e57600080fd5b8151801515811461154857600080fd5b6001600160a01b0384811682528316602082015260606040820181905260009061186a908301846117cc565b95945050505050565b6020808252602b908201527f496e697469616c697a61626c653a20636f6e7472616374206973206e6f74206960408201526a6e697469616c697a696e6760a81b606082015260800190565b600082516118d08184602087016117a0565b9190910192915050565b60208152600061154860208301846117cc56fe736574546f6b656e73446973747269627574696f6e537065656428616464726573735b5d2c75696e743235365b5d29a26469706673582212208da0700194873d643d509bac1a943e53c580caf573265c155f7c7d8f5a821c3064736f6c634300080d0033",
  "devdoc": {
    "kind": "dev",
    "methods": {
      "acceptOwnership()": {
        "details": "The new owner accepts the ownership transfer."
      },
      "accrueTokens(address)": {
        "custom:event": "Emits TokensAccrued event",
        "params": {
          "token_": "Address of the token"
        }
      },
      "constructor": {
        "custom:oz-upgrades-unsafe-allow": "constructor"
      },
      "getBlockNumber()": {
        "returns": {
          "_0": "blockNumber returns the block number"
        }
      },
      "getEffectiveDistributionSpeed(address)": {
        "params": {
          "token_": "Address of the token"
        },
        "returns": {
          "_0": "speed returns the per block reward"
        }
      },
      "initialize(address,address[],uint256[])": {
        "custom:error": "Throw InvalidArguments on different length of tokens and speeds array",
        "details": "Initializes the deployer to owner",
        "params": {
          "accessControlManager_": "AccessControlManager contract address",
          "distributionSpeeds_": "New distribution speeds for tokens",
          "tokens_": "Array of addresses of the tokens"
        }
      },
      "initializeTokens(address[])": {
        "custom:access": "Only Governance",
        "params": {
          "tokens_": "Array of addresses of the tokens to be intialized"
        }
      },
      "owner()": {
        "details": "Returns the address of the current owner."
      },
      "pauseFundsTransfer()": {
        "custom:access": "Controlled by ACM"
      },
      "paused()": {
        "details": "Returns true if the contract is paused, and false otherwise."
      },
      "pendingOwner()": {
        "details": "Returns the address of the pending owner."
      },
      "releaseFunds(address)": {
        "custom:error": "Throw InvalidArguments on Zero address(token)Throw FundsTransferIsPaused is pausedThrow InvalidCaller if the sender is not the Prime contract",
        "custom:event": "Emits TokenTransferredToPrime event",
        "params": {
          "token_": "The token to release to the Prime contract"
        }
      },
      "renounceOwnership()": {
        "details": "Leaves the contract without owner. It will not be possible to call `onlyOwner` functions. Can only be called by the current owner. NOTE: Renouncing ownership will leave the contract without an owner, thereby disabling any functionality that is only available to the owner."
      },
      "resumeFundsTransfer()": {
        "custom:access": "Controlled by ACM"
      },
      "setAccessControlManager(address)": {
        "custom:access": "Only Governance",
        "custom:event": "Emits NewAccessControlManager event",
        "details": "Admin function to set address of AccessControlManager",
        "params": {
          "accessControlManager_": "The new address of the AccessControlManager"
        }
      },
      "setPrimeToken(address)": {
        "custom:access": "Only owner",
        "custom:event": "Emits PrimeTokenUpdated event",
        "params": {
          "prime_": "The new address of the prime token contract"
        }
      },
      "setTokensDistributionSpeed(address[],uint256[])": {
        "custom:access": "Controlled by ACM",
        "custom:error": "Throw InvalidArguments on different length of tokens and speeds array",
        "params": {
          "distributionSpeeds_": "New distribution speeds for tokens",
          "tokens_": "Array of addresses of the tokens"
        }
      },
      "sweepToken(address,address,uint256)": {
        "custom:access": "Only Governance",
        "custom:error": "Throw InsufficientBalance if amount_ is greater than the available balance of the token in the contract",
        "custom:event": "Emits SweepToken event",
        "params": {
          "amount_": "The amount of tokens needs to transfer",
          "to_": "The address of the recipient",
          "token_": "The address of the ERC-20 token to sweep"
        }
      },
      "transferOwnership(address)": {
        "details": "Starts the ownership transfer of the contract to a new account. Replaces the pending transfer if there is one. Can only be called by the current owner."
      }
    },
    "version": 1
  },
  "userdoc": {
    "errors": {
      "FundsTransferIsPaused()": [
        {
          "notice": "Error thrown when funds transfer is paused"
        }
      ],
      "InsufficientBalance(uint256,uint256)": [
        {
          "notice": "Error thrown when PrimeLiquidityProvider's balance is less than sweep amount"
        }
      ],
      "InvalidArguments()": [
        {
          "notice": "Thrown when arguments are passed are invalid"
        }
      ],
      "InvalidCaller()": [
        {
          "notice": "Thrown when caller is not the desired caller"
        }
      ],
      "InvalidDistributionSpeed(uint256,uint256)": [
        {
          "notice": "Thrown when distribution speed is greater than MAX_DISTRIBUTION_SPEED"
        }
      ],
      "TokenAlreadyInitialized(address)": [
        {
          "notice": "Thrown when token is initialized"
        }
      ],
      "TokenNotInitialized(address)": [
        {
          "notice": "Error thrown when intrest accrue is called for not initialized token"
        }
      ],
      "Unauthorized(address,address,string)": [
        {
          "notice": "Thrown when the action is prohibited by AccessControlManager"
        }
      ]
    },
    "events": {
      "FundsTransferPaused()": {
        "notice": "Emitted when funds transfer is paused"
      },
      "FundsTransferResumed()": {
        "notice": "Emitted when funds transfer is resumed"
      },
      "NewAccessControlManager(address,address)": {
        "notice": "Emitted when access control manager contract address is changed"
      },
      "PrimeTokenUpdated(address,address)": {
        "notice": "Emitted when prime token contract address is changed"
      },
      "SweepToken(address,address,uint256)": {
        "notice": "Emitted on sweep token success"
      },
      "TokenDistributionInitialized(address)": {
        "notice": "Emitted when a token distribution is initialized"
      },
      "TokenDistributionSpeedUpdated(address,uint256)": {
        "notice": "Emitted when a new token distribution speed is set"
      },
      "TokenInitialBalanceUpdated(address,uint256)": {
        "notice": "Emitted on updation of initial balance for token"
      },
      "TokenTransferredToPrime(address,uint256)": {
        "notice": "Emitted when token is transferred to the prime contract"
      },
      "TokensAccrued(address,uint256)": {
        "notice": "Emitted when distribution state(Index and block) is updated"
      }
    },
    "kind": "user",
    "methods": {
      "MAX_DISTRIBUTION_SPEED()": {
        "notice": "The max token distribution speed"
      },
      "accessControlManager()": {
        "notice": "Returns the address of the access control manager contract"
      },
      "accrueTokens(address)": {
        "notice": "Accrue token by updating the distribution state"
      },
      "getBlockNumber()": {
        "notice": "Get the latest block number"
      },
      "getEffectiveDistributionSpeed(address)": {
        "notice": "Get rewards per block for token"
      },
      "initialize(address,address[],uint256[])": {
        "notice": "PrimeLiquidityProvider initializer"
      },
      "initializeTokens(address[])": {
        "notice": "Initialize the distribution of the token"
      },
      "lastAccruedBlock(address)": {
        "notice": "The rate at which token is distributed to the Prime contract"
      },
      "pauseFundsTransfer()": {
        "notice": "Pause fund transfer of tokens to Prime contract"
      },
      "prime()": {
        "notice": "Address of the Prime contract"
      },
      "releaseFunds(address)": {
        "notice": "Claim all the token accrued till last block"
      },
      "resumeFundsTransfer()": {
        "notice": "Resume fund transfer of tokens to Prime contract"
      },
      "setAccessControlManager(address)": {
        "notice": "Sets the address of AccessControlManager"
      },
      "setPrimeToken(address)": {
        "notice": "Set the prime token contract address"
      },
      "setTokensDistributionSpeed(address[],uint256[])": {
        "notice": "Set distribution speed (amount of token distribute per block)"
      },
      "sweepToken(address,address,uint256)": {
        "notice": "A public function to sweep accidental ERC-20 transfers to this contract. Tokens are sent to user"
      },
      "tokenAmountAccrued(address)": {
        "notice": "The token accrued but not yet transferred to prime contract"
      },
      "tokenDistributionSpeeds(address)": {
        "notice": "The rate at which token is distributed (per block)"
      }
    },
    "version": 1
  },
  "storageLayout": {
    "storage": [
      {
        "astId": 244,
        "contract": "contracts/Tokens/Prime/PrimeLiquidityProvider.sol:PrimeLiquidityProvider",
        "label": "_initialized",
        "offset": 0,
        "slot": "0",
        "type": "t_uint8"
      },
      {
        "astId": 247,
        "contract": "contracts/Tokens/Prime/PrimeLiquidityProvider.sol:PrimeLiquidityProvider",
        "label": "_initializing",
        "offset": 1,
        "slot": "0",
        "type": "t_bool"
      },
      {
        "astId": 1503,
        "contract": "contracts/Tokens/Prime/PrimeLiquidityProvider.sol:PrimeLiquidityProvider",
        "label": "__gap",
        "offset": 0,
        "slot": "1",
        "type": "t_array(t_uint256)50_storage"
      },
      {
        "astId": 116,
        "contract": "contracts/Tokens/Prime/PrimeLiquidityProvider.sol:PrimeLiquidityProvider",
        "label": "_owner",
        "offset": 0,
        "slot": "51",
        "type": "t_address"
      },
      {
        "astId": 236,
        "contract": "contracts/Tokens/Prime/PrimeLiquidityProvider.sol:PrimeLiquidityProvider",
        "label": "__gap",
        "offset": 0,
        "slot": "52",
        "type": "t_array(t_uint256)49_storage"
      },
      {
        "astId": 25,
        "contract": "contracts/Tokens/Prime/PrimeLiquidityProvider.sol:PrimeLiquidityProvider",
        "label": "_pendingOwner",
        "offset": 0,
        "slot": "101",
        "type": "t_address"
      },
      {
        "astId": 104,
        "contract": "contracts/Tokens/Prime/PrimeLiquidityProvider.sol:PrimeLiquidityProvider",
        "label": "__gap",
        "offset": 0,
        "slot": "102",
        "type": "t_array(t_uint256)49_storage"
      },
      {
        "astId": 3132,
        "contract": "contracts/Tokens/Prime/PrimeLiquidityProvider.sol:PrimeLiquidityProvider",
        "label": "_accessControlManager",
        "offset": 0,
        "slot": "151",
        "type": "t_contract(IAccessControlManagerV8)3316"
      },
      {
        "astId": 3137,
        "contract": "contracts/Tokens/Prime/PrimeLiquidityProvider.sol:PrimeLiquidityProvider",
        "label": "__gap",
        "offset": 0,
        "slot": "152",
        "type": "t_array(t_uint256)49_storage"
      },
      {
        "astId": 427,
        "contract": "contracts/Tokens/Prime/PrimeLiquidityProvider.sol:PrimeLiquidityProvider",
        "label": "_paused",
        "offset": 0,
        "slot": "201",
        "type": "t_bool"
      },
      {
        "astId": 532,
        "contract": "contracts/Tokens/Prime/PrimeLiquidityProvider.sol:PrimeLiquidityProvider",
        "label": "__gap",
        "offset": 0,
        "slot": "202",
        "type": "t_array(t_uint256)49_storage"
      },
      {
        "astId": 6536,
        "contract": "contracts/Tokens/Prime/PrimeLiquidityProvider.sol:PrimeLiquidityProvider",
        "label": "prime",
        "offset": 0,
        "slot": "251",
        "type": "t_address"
      },
      {
        "astId": 6541,
        "contract": "contracts/Tokens/Prime/PrimeLiquidityProvider.sol:PrimeLiquidityProvider",
        "label": "tokenDistributionSpeeds",
        "offset": 0,
        "slot": "252",
        "type": "t_mapping(t_address,t_uint256)"
      },
      {
        "astId": 6546,
        "contract": "contracts/Tokens/Prime/PrimeLiquidityProvider.sol:PrimeLiquidityProvider",
        "label": "lastAccruedBlock",
        "offset": 0,
        "slot": "253",
        "type": "t_mapping(t_address,t_uint256)"
      },
      {
        "astId": 6551,
        "contract": "contracts/Tokens/Prime/PrimeLiquidityProvider.sol:PrimeLiquidityProvider",
        "label": "tokenAmountAccrued",
        "offset": 0,
        "slot": "254",
        "type": "t_mapping(t_address,t_uint256)"
      }
    ],
    "types": {
      "t_address": {
        "encoding": "inplace",
        "label": "address",
        "numberOfBytes": "20"
      },
      "t_array(t_uint256)49_storage": {
        "base": "t_uint256",
        "encoding": "inplace",
        "label": "uint256[49]",
        "numberOfBytes": "1568"
      },
      "t_array(t_uint256)50_storage": {
        "base": "t_uint256",
        "encoding": "inplace",
        "label": "uint256[50]",
        "numberOfBytes": "1600"
      },
      "t_bool": {
        "encoding": "inplace",
        "label": "bool",
        "numberOfBytes": "1"
      },
      "t_contract(IAccessControlManagerV8)3316": {
        "encoding": "inplace",
        "label": "contract IAccessControlManagerV8",
        "numberOfBytes": "20"
      },
      "t_mapping(t_address,t_uint256)": {
        "encoding": "mapping",
        "key": "t_address",
        "label": "mapping(address => uint256)",
        "numberOfBytes": "32",
        "value": "t_uint256"
      },
      "t_uint256": {
        "encoding": "inplace",
        "label": "uint256",
        "numberOfBytes": "32"
      },
      "t_uint8": {
        "encoding": "inplace",
        "label": "uint8",
        "numberOfBytes": "1"
      }
    }
  }
}