{
  "address": "0xAd0a4C641E5c7Ba7718B4fd6c0c571df5F5D24c8",
  "abi": [
    {
      "inputs": [
        {
          "internalType": "address",
          "name": "_wbnb",
          "type": "address"
        },
        {
          "internalType": "address",
          "name": "_vbnb",
          "type": "address"
        },
        {
          "internalType": "uint256",
          "name": "_blocksPerYear",
          "type": "uint256"
        }
      ],
      "stateMutability": "nonpayable",
      "type": "constructor"
    },
    {
      "inputs": [],
      "name": "AssetAlreadyExists",
      "type": "error"
    },
    {
      "inputs": [
        {
          "internalType": "int256",
          "name": "x",
          "type": "int256"
        }
      ],
      "name": "ExpTooLarge",
      "type": "error"
    },
    {
      "inputs": [],
      "name": "IneligibleToClaim",
      "type": "error"
    },
    {
      "inputs": [],
      "name": "InvalidAddress",
      "type": "error"
    },
    {
      "inputs": [],
      "name": "InvalidAlphaArguments",
      "type": "error"
    },
    {
      "inputs": [],
      "name": "InvalidBlocksPerYear",
      "type": "error"
    },
    {
      "inputs": [],
      "name": "InvalidCaller",
      "type": "error"
    },
    {
      "inputs": [],
      "name": "InvalidComptroller",
      "type": "error"
    },
    {
      "inputs": [],
      "name": "InvalidFixedPoint",
      "type": "error"
    },
    {
      "inputs": [
        {
          "internalType": "uint256",
          "name": "n",
          "type": "uint256"
        },
        {
          "internalType": "uint256",
          "name": "d",
          "type": "uint256"
        }
      ],
      "name": "InvalidFraction",
      "type": "error"
    },
    {
      "inputs": [],
      "name": "InvalidLimit",
      "type": "error"
    },
    {
      "inputs": [],
      "name": "InvalidVToken",
      "type": "error"
    },
    {
      "inputs": [
        {
          "internalType": "int256",
          "name": "x",
          "type": "int256"
        }
      ],
      "name": "LnNonRealResult",
      "type": "error"
    },
    {
      "inputs": [
        {
          "internalType": "int256",
          "name": "x",
          "type": "int256"
        }
      ],
      "name": "LnTooLarge",
      "type": "error"
    },
    {
      "inputs": [],
      "name": "MarketAlreadyExists",
      "type": "error"
    },
    {
      "inputs": [],
      "name": "MarketNotSupported",
      "type": "error"
    },
    {
      "inputs": [
        {
          "internalType": "uint256",
          "name": "loopsLimit",
          "type": "uint256"
        },
        {
          "internalType": "uint256",
          "name": "requiredLoops",
          "type": "uint256"
        }
      ],
      "name": "MaxLoopsLimitExceeded",
      "type": "error"
    },
    {
      "inputs": [],
      "name": "NoScoreUpdatesRequired",
      "type": "error"
    },
    {
      "inputs": [
        {
          "internalType": "address",
          "name": "sender",
          "type": "address"
        },
        {
          "internalType": "address",
          "name": "calledContract",
          "type": "address"
        },
        {
          "internalType": "string",
          "name": "methodSignature",
          "type": "string"
        }
      ],
      "name": "Unauthorized",
      "type": "error"
    },
    {
      "inputs": [],
      "name": "UserHasNoPrimeToken",
      "type": "error"
    },
    {
      "inputs": [],
      "name": "WaitMoreTime",
      "type": "error"
    },
    {
      "anonymous": false,
      "inputs": [
        {
          "indexed": true,
          "internalType": "uint128",
          "name": "oldNumerator",
          "type": "uint128"
        },
        {
          "indexed": true,
          "internalType": "uint128",
          "name": "oldDenominator",
          "type": "uint128"
        },
        {
          "indexed": true,
          "internalType": "uint128",
          "name": "newNumerator",
          "type": "uint128"
        },
        {
          "indexed": false,
          "internalType": "uint128",
          "name": "newDenominator",
          "type": "uint128"
        }
      ],
      "name": "AlphaUpdated",
      "type": "event"
    },
    {
      "anonymous": false,
      "inputs": [
        {
          "indexed": true,
          "internalType": "address",
          "name": "user",
          "type": "address"
        }
      ],
      "name": "Burn",
      "type": "event"
    },
    {
      "anonymous": false,
      "inputs": [
        {
          "indexed": false,
          "internalType": "uint8",
          "name": "version",
          "type": "uint8"
        }
      ],
      "name": "Initialized",
      "type": "event"
    },
    {
      "anonymous": false,
      "inputs": [
        {
          "indexed": true,
          "internalType": "address",
          "name": "user",
          "type": "address"
        },
        {
          "indexed": true,
          "internalType": "address",
          "name": "market",
          "type": "address"
        },
        {
          "indexed": false,
          "internalType": "uint256",
          "name": "amount",
          "type": "uint256"
        }
      ],
      "name": "InterestClaimed",
      "type": "event"
    },
    {
      "anonymous": false,
      "inputs": [
        {
          "indexed": true,
          "internalType": "address",
          "name": "market",
          "type": "address"
        },
        {
          "indexed": true,
          "internalType": "uint256",
          "name": "supplyMultiplier",
          "type": "uint256"
        },
        {
          "indexed": true,
          "internalType": "uint256",
          "name": "borrowMultiplier",
          "type": "uint256"
        }
      ],
      "name": "MarketAdded",
      "type": "event"
    },
    {
      "anonymous": false,
      "inputs": [
        {
          "indexed": false,
          "internalType": "uint256",
          "name": "oldMaxLoopsLimit",
          "type": "uint256"
        },
        {
          "indexed": false,
          "internalType": "uint256",
          "name": "newmaxLoopsLimit",
          "type": "uint256"
        }
      ],
      "name": "MaxLoopsLimitUpdated",
      "type": "event"
    },
    {
      "anonymous": false,
      "inputs": [
        {
          "indexed": true,
          "internalType": "address",
          "name": "user",
          "type": "address"
        },
        {
          "indexed": false,
          "internalType": "bool",
          "name": "isIrrevocable",
          "type": "bool"
        }
      ],
      "name": "Mint",
      "type": "event"
    },
    {
      "anonymous": false,
      "inputs": [
        {
          "indexed": true,
          "internalType": "uint256",
          "name": "oldIrrevocableLimit",
          "type": "uint256"
        },
        {
          "indexed": true,
          "internalType": "uint256",
          "name": "oldRevocableLimit",
          "type": "uint256"
        },
        {
          "indexed": true,
          "internalType": "uint256",
          "name": "newIrrevocableLimit",
          "type": "uint256"
        },
        {
          "indexed": false,
          "internalType": "uint256",
          "name": "newRevocableLimit",
          "type": "uint256"
        }
      ],
      "name": "MintLimitsUpdated",
      "type": "event"
    },
    {
      "anonymous": false,
      "inputs": [
        {
          "indexed": true,
          "internalType": "address",
          "name": "market",
          "type": "address"
        },
        {
          "indexed": true,
          "internalType": "uint256",
          "name": "oldSupplyMultiplier",
          "type": "uint256"
        },
        {
          "indexed": true,
          "internalType": "uint256",
          "name": "oldBorrowMultiplier",
          "type": "uint256"
        },
        {
          "indexed": false,
          "internalType": "uint256",
          "name": "newSupplyMultiplier",
          "type": "uint256"
        },
        {
          "indexed": false,
          "internalType": "uint256",
          "name": "newBorrowMultiplier",
          "type": "uint256"
        }
      ],
      "name": "MultiplierUpdated",
      "type": "event"
    },
    {
      "anonymous": false,
      "inputs": [
        {
          "indexed": false,
          "internalType": "address",
          "name": "oldAccessControlManager",
          "type": "address"
        },
        {
          "indexed": false,
          "internalType": "address",
          "name": "newAccessControlManager",
          "type": "address"
        }
      ],
      "name": "NewAccessControlManager",
      "type": "event"
    },
    {
      "anonymous": false,
      "inputs": [
        {
          "indexed": true,
          "internalType": "address",
          "name": "previousOwner",
          "type": "address"
        },
        {
          "indexed": true,
          "internalType": "address",
          "name": "newOwner",
          "type": "address"
        }
      ],
      "name": "OwnershipTransferStarted",
      "type": "event"
    },
    {
      "anonymous": false,
      "inputs": [
        {
          "indexed": true,
          "internalType": "address",
          "name": "previousOwner",
          "type": "address"
        },
        {
          "indexed": true,
          "internalType": "address",
          "name": "newOwner",
          "type": "address"
        }
      ],
      "name": "OwnershipTransferred",
      "type": "event"
    },
    {
      "anonymous": false,
      "inputs": [
        {
          "indexed": false,
          "internalType": "address",
          "name": "account",
          "type": "address"
        }
      ],
      "name": "Paused",
      "type": "event"
    },
    {
      "anonymous": false,
      "inputs": [
        {
          "indexed": true,
          "internalType": "address",
          "name": "user",
          "type": "address"
        }
      ],
      "name": "TokenUpgraded",
      "type": "event"
    },
    {
      "anonymous": false,
      "inputs": [
        {
          "indexed": false,
          "internalType": "address",
          "name": "account",
          "type": "address"
        }
      ],
      "name": "Unpaused",
      "type": "event"
    },
    {
      "anonymous": false,
      "inputs": [
        {
          "indexed": true,
          "internalType": "address",
          "name": "comptroller",
          "type": "address"
        },
        {
          "indexed": true,
          "internalType": "address",
          "name": "asset",
          "type": "address"
        }
      ],
      "name": "UpdatedAssetsState",
      "type": "event"
    },
    {
      "anonymous": false,
      "inputs": [
        {
          "indexed": true,
          "internalType": "address",
          "name": "user",
          "type": "address"
        }
      ],
      "name": "UserScoreUpdated",
      "type": "event"
    },
    {
      "inputs": [],
      "name": "BLOCKS_PER_YEAR",
      "outputs": [
        {
          "internalType": "uint256",
          "name": "",
          "type": "uint256"
        }
      ],
      "stateMutability": "view",
      "type": "function"
    },
    {
      "inputs": [],
      "name": "MAXIMUM_XVS_CAP",
      "outputs": [
        {
          "internalType": "uint256",
          "name": "",
          "type": "uint256"
        }
      ],
      "stateMutability": "view",
      "type": "function"
    },
    {
      "inputs": [],
      "name": "MINIMUM_STAKED_XVS",
      "outputs": [
        {
          "internalType": "uint256",
          "name": "",
          "type": "uint256"
        }
      ],
      "stateMutability": "view",
      "type": "function"
    },
    {
      "inputs": [],
      "name": "STAKING_PERIOD",
      "outputs": [
        {
          "internalType": "uint256",
          "name": "",
          "type": "uint256"
        }
      ],
      "stateMutability": "view",
      "type": "function"
    },
    {
      "inputs": [],
      "name": "VBNB",
      "outputs": [
        {
          "internalType": "address",
          "name": "",
          "type": "address"
        }
      ],
      "stateMutability": "view",
      "type": "function"
    },
    {
      "inputs": [],
      "name": "WBNB",
      "outputs": [
        {
          "internalType": "address",
          "name": "",
          "type": "address"
        }
      ],
      "stateMutability": "view",
      "type": "function"
    },
    {
      "inputs": [],
      "name": "acceptOwnership",
      "outputs": [],
      "stateMutability": "nonpayable",
      "type": "function"
    },
    {
      "inputs": [],
      "name": "accessControlManager",
      "outputs": [
        {
          "internalType": "contract IAccessControlManagerV8",
          "name": "",
          "type": "address"
        }
      ],
      "stateMutability": "view",
      "type": "function"
    },
    {
      "inputs": [
        {
          "internalType": "address",
          "name": "vToken",
          "type": "address"
        }
      ],
      "name": "accrueInterest",
      "outputs": [],
      "stateMutability": "nonpayable",
      "type": "function"
    },
    {
      "inputs": [
        {
          "internalType": "address",
          "name": "user",
          "type": "address"
        },
        {
          "internalType": "address",
          "name": "market",
          "type": "address"
        }
      ],
      "name": "accrueInterestAndUpdateScore",
      "outputs": [],
      "stateMutability": "nonpayable",
      "type": "function"
    },
    {
      "inputs": [
        {
          "internalType": "address",
          "name": "market",
          "type": "address"
        },
        {
          "internalType": "uint256",
          "name": "supplyMultiplier",
          "type": "uint256"
        },
        {
          "internalType": "uint256",
          "name": "borrowMultiplier",
          "type": "uint256"
        }
      ],
      "name": "addMarket",
      "outputs": [],
      "stateMutability": "nonpayable",
      "type": "function"
    },
    {
      "inputs": [],
      "name": "alphaDenominator",
      "outputs": [
        {
          "internalType": "uint128",
          "name": "",
          "type": "uint128"
        }
      ],
      "stateMutability": "view",
      "type": "function"
    },
    {
      "inputs": [],
      "name": "alphaNumerator",
      "outputs": [
        {
          "internalType": "uint128",
          "name": "",
          "type": "uint128"
        }
      ],
      "stateMutability": "view",
      "type": "function"
    },
    {
      "inputs": [
        {
          "internalType": "address",
          "name": "user",
          "type": "address"
        }
      ],
      "name": "burn",
      "outputs": [],
      "stateMutability": "nonpayable",
      "type": "function"
    },
    {
      "inputs": [
        {
          "internalType": "address",
          "name": "market",
          "type": "address"
        },
        {
          "internalType": "address",
          "name": "user",
          "type": "address"
        }
      ],
      "name": "calculateAPR",
      "outputs": [
        {
          "internalType": "uint256",
          "name": "supplyAPR",
          "type": "uint256"
        },
        {
          "internalType": "uint256",
          "name": "borrowAPR",
          "type": "uint256"
        }
      ],
      "stateMutability": "view",
      "type": "function"
    },
    {
      "inputs": [],
      "name": "claim",
      "outputs": [],
      "stateMutability": "nonpayable",
      "type": "function"
    },
    {
      "inputs": [
        {
          "internalType": "address",
          "name": "vToken",
          "type": "address"
        }
      ],
      "name": "claimInterest",
      "outputs": [
        {
          "internalType": "uint256",
          "name": "",
          "type": "uint256"
        }
      ],
      "stateMutability": "nonpayable",
      "type": "function"
    },
    {
      "inputs": [
        {
          "internalType": "address",
          "name": "vToken",
          "type": "address"
        },
        {
          "internalType": "address",
          "name": "user",
          "type": "address"
        }
      ],
      "name": "claimInterest",
      "outputs": [
        {
          "internalType": "uint256",
          "name": "",
          "type": "uint256"
        }
      ],
      "stateMutability": "nonpayable",
      "type": "function"
    },
    {
      "inputs": [
        {
          "internalType": "address",
          "name": "user",
          "type": "address"
        }
      ],
      "name": "claimTimeRemaining",
      "outputs": [
        {
          "internalType": "uint256",
          "name": "",
          "type": "uint256"
        }
      ],
      "stateMutability": "view",
      "type": "function"
    },
    {
      "inputs": [],
      "name": "comptroller",
      "outputs": [
        {
          "internalType": "address",
          "name": "",
          "type": "address"
        }
      ],
      "stateMutability": "view",
      "type": "function"
    },
    {
      "inputs": [
        {
          "internalType": "address",
          "name": "market",
          "type": "address"
        },
        {
          "internalType": "address",
          "name": "user",
          "type": "address"
        },
        {
          "internalType": "uint256",
          "name": "borrow",
          "type": "uint256"
        },
        {
          "internalType": "uint256",
          "name": "supply",
          "type": "uint256"
        },
        {
          "internalType": "uint256",
          "name": "xvsStaked",
          "type": "uint256"
        }
      ],
      "name": "estimateAPR",
      "outputs": [
        {
          "internalType": "uint256",
          "name": "supplyAPR",
          "type": "uint256"
        },
        {
          "internalType": "uint256",
          "name": "borrowAPR",
          "type": "uint256"
        }
      ],
      "stateMutability": "view",
      "type": "function"
    },
    {
      "inputs": [],
      "name": "getAllMarkets",
      "outputs": [
        {
          "internalType": "address[]",
          "name": "",
          "type": "address[]"
        }
      ],
      "stateMutability": "view",
      "type": "function"
    },
    {
      "inputs": [
        {
          "internalType": "address",
          "name": "vToken",
          "type": "address"
        },
        {
          "internalType": "address",
          "name": "user",
          "type": "address"
        }
      ],
      "name": "getInterestAccrued",
      "outputs": [
        {
          "internalType": "uint256",
          "name": "",
          "type": "uint256"
        }
      ],
      "stateMutability": "nonpayable",
      "type": "function"
    },
    {
      "inputs": [
        {
          "internalType": "address",
          "name": "user",
          "type": "address"
        }
      ],
      "name": "getPendingInterests",
      "outputs": [
        {
          "components": [
            {
              "internalType": "address",
              "name": "market",
              "type": "address"
            },
            {
              "internalType": "uint256",
              "name": "amount",
              "type": "uint256"
            }
          ],
          "internalType": "struct PrimeStorageV1.PendingInterest[]",
          "name": "pendingInterests",
          "type": "tuple[]"
        }
      ],
      "stateMutability": "nonpayable",
      "type": "function"
    },
    {
      "inputs": [
        {
          "internalType": "address",
          "name": "_xvsVault",
          "type": "address"
        },
        {
          "internalType": "address",
          "name": "_xvsVaultRewardToken",
          "type": "address"
        },
        {
          "internalType": "uint256",
          "name": "_xvsVaultPoolId",
          "type": "uint256"
        },
        {
          "internalType": "uint128",
          "name": "_alphaNumerator",
          "type": "uint128"
        },
        {
          "internalType": "uint128",
          "name": "_alphaDenominator",
          "type": "uint128"
        },
        {
          "internalType": "address",
          "name": "_accessControlManager",
          "type": "address"
        },
        {
          "internalType": "address",
          "name": "_protocolShareReserve",
          "type": "address"
        },
        {
          "internalType": "address",
          "name": "_primeLiquidityProvider",
          "type": "address"
        },
        {
          "internalType": "address",
          "name": "_comptroller",
          "type": "address"
        },
        {
          "internalType": "address",
          "name": "_oracle",
          "type": "address"
        },
        {
          "internalType": "uint256",
          "name": "_loopsLimit",
          "type": "uint256"
        }
      ],
      "name": "initialize",
      "outputs": [],
      "stateMutability": "nonpayable",
      "type": "function"
    },
    {
      "inputs": [
        {
          "internalType": "address",
          "name": "",
          "type": "address"
        },
        {
          "internalType": "address",
          "name": "",
          "type": "address"
        }
      ],
      "name": "interests",
      "outputs": [
        {
          "internalType": "uint256",
          "name": "accrued",
          "type": "uint256"
        },
        {
          "internalType": "uint256",
          "name": "score",
          "type": "uint256"
        },
        {
          "internalType": "uint256",
          "name": "rewardIndex",
          "type": "uint256"
        }
      ],
      "stateMutability": "view",
      "type": "function"
    },
    {
      "inputs": [],
      "name": "irrevocableLimit",
      "outputs": [
        {
          "internalType": "uint256",
          "name": "",
          "type": "uint256"
        }
      ],
      "stateMutability": "view",
      "type": "function"
    },
    {
      "inputs": [
        {
          "internalType": "uint256",
          "name": "",
          "type": "uint256"
        },
        {
          "internalType": "address",
          "name": "",
          "type": "address"
        }
      ],
      "name": "isScoreUpdated",
      "outputs": [
        {
          "internalType": "bool",
          "name": "",
          "type": "bool"
        }
      ],
      "stateMutability": "view",
      "type": "function"
    },
    {
      "inputs": [
        {
          "internalType": "bool",
          "name": "isIrrevocable",
          "type": "bool"
        },
        {
          "internalType": "address[]",
          "name": "users",
          "type": "address[]"
        }
      ],
      "name": "issue",
      "outputs": [],
      "stateMutability": "nonpayable",
      "type": "function"
    },
    {
      "inputs": [
        {
          "internalType": "address",
          "name": "",
          "type": "address"
        }
      ],
      "name": "markets",
      "outputs": [
        {
          "internalType": "uint256",
          "name": "supplyMultiplier",
          "type": "uint256"
        },
        {
          "internalType": "uint256",
          "name": "borrowMultiplier",
          "type": "uint256"
        },
        {
          "internalType": "uint256",
          "name": "rewardIndex",
          "type": "uint256"
        },
        {
          "internalType": "uint256",
          "name": "sumOfMembersScore",
          "type": "uint256"
        },
        {
          "internalType": "bool",
          "name": "exists",
          "type": "bool"
        }
      ],
      "stateMutability": "view",
      "type": "function"
    },
    {
      "inputs": [],
      "name": "maxLoopsLimit",
      "outputs": [
        {
          "internalType": "uint256",
          "name": "",
          "type": "uint256"
        }
      ],
      "stateMutability": "view",
      "type": "function"
    },
    {
      "inputs": [],
      "name": "nextScoreUpdateRoundId",
      "outputs": [
        {
          "internalType": "uint256",
          "name": "",
          "type": "uint256"
        }
      ],
      "stateMutability": "view",
      "type": "function"
    },
    {
      "inputs": [],
      "name": "oracle",
      "outputs": [
        {
          "internalType": "contract ResilientOracleInterface",
          "name": "",
          "type": "address"
        }
      ],
      "stateMutability": "view",
      "type": "function"
    },
    {
      "inputs": [],
      "name": "owner",
      "outputs": [
        {
          "internalType": "address",
          "name": "",
          "type": "address"
        }
      ],
      "stateMutability": "view",
      "type": "function"
    },
    {
      "inputs": [],
      "name": "paused",
      "outputs": [
        {
          "internalType": "bool",
          "name": "",
          "type": "bool"
        }
      ],
      "stateMutability": "view",
      "type": "function"
    },
    {
      "inputs": [],
      "name": "pendingOwner",
      "outputs": [
        {
          "internalType": "address",
          "name": "",
          "type": "address"
        }
      ],
      "stateMutability": "view",
      "type": "function"
    },
    {
      "inputs": [],
      "name": "pendingScoreUpdates",
      "outputs": [
        {
          "internalType": "uint256",
          "name": "",
          "type": "uint256"
        }
      ],
      "stateMutability": "view",
      "type": "function"
    },
    {
      "inputs": [],
      "name": "primeLiquidityProvider",
      "outputs": [
        {
          "internalType": "address",
          "name": "",
          "type": "address"
        }
      ],
      "stateMutability": "view",
      "type": "function"
    },
    {
      "inputs": [],
      "name": "protocolShareReserve",
      "outputs": [
        {
          "internalType": "address",
          "name": "",
          "type": "address"
        }
      ],
      "stateMutability": "view",
      "type": "function"
    },
    {
      "inputs": [],
      "name": "renounceOwnership",
      "outputs": [],
      "stateMutability": "nonpayable",
      "type": "function"
    },
    {
      "inputs": [],
      "name": "revocableLimit",
      "outputs": [
        {
          "internalType": "uint256",
          "name": "",
          "type": "uint256"
        }
      ],
      "stateMutability": "view",
      "type": "function"
    },
    {
      "inputs": [
        {
          "internalType": "address",
          "name": "accessControlManager_",
          "type": "address"
        }
      ],
      "name": "setAccessControlManager",
      "outputs": [],
      "stateMutability": "nonpayable",
      "type": "function"
    },
    {
      "inputs": [
        {
          "internalType": "uint256",
          "name": "_irrevocableLimit",
          "type": "uint256"
        },
        {
          "internalType": "uint256",
          "name": "_revocableLimit",
          "type": "uint256"
        }
      ],
      "name": "setLimit",
      "outputs": [],
      "stateMutability": "nonpayable",
      "type": "function"
    },
    {
      "inputs": [
        {
          "internalType": "address",
          "name": "",
          "type": "address"
        }
      ],
      "name": "stakedAt",
      "outputs": [
        {
          "internalType": "uint256",
          "name": "",
          "type": "uint256"
        }
      ],
      "stateMutability": "view",
      "type": "function"
    },
    {
      "inputs": [],
      "name": "togglePause",
      "outputs": [],
      "stateMutability": "nonpayable",
      "type": "function"
    },
    {
      "inputs": [
        {
          "internalType": "address",
          "name": "",
          "type": "address"
        }
      ],
      "name": "tokens",
      "outputs": [
        {
          "internalType": "bool",
          "name": "exists",
          "type": "bool"
        },
        {
          "internalType": "bool",
          "name": "isIrrevocable",
          "type": "bool"
        }
      ],
      "stateMutability": "view",
      "type": "function"
    },
    {
      "inputs": [],
      "name": "totalIrrevocable",
      "outputs": [
        {
          "internalType": "uint256",
          "name": "",
          "type": "uint256"
        }
      ],
      "stateMutability": "view",
      "type": "function"
    },
    {
      "inputs": [],
      "name": "totalRevocable",
      "outputs": [
        {
          "internalType": "uint256",
          "name": "",
          "type": "uint256"
        }
      ],
      "stateMutability": "view",
      "type": "function"
    },
    {
      "inputs": [],
      "name": "totalScoreUpdatesRequired",
      "outputs": [
        {
          "internalType": "uint256",
          "name": "",
          "type": "uint256"
        }
      ],
      "stateMutability": "view",
      "type": "function"
    },
    {
      "inputs": [
        {
          "internalType": "address",
          "name": "newOwner",
          "type": "address"
        }
      ],
      "name": "transferOwnership",
      "outputs": [],
      "stateMutability": "nonpayable",
      "type": "function"
    },
    {
      "inputs": [
        {
          "internalType": "address",
          "name": "",
          "type": "address"
        }
      ],
      "name": "unreleasedPLPIncome",
      "outputs": [
        {
          "internalType": "uint256",
          "name": "",
          "type": "uint256"
        }
      ],
      "stateMutability": "view",
      "type": "function"
    },
    {
      "inputs": [
        {
          "internalType": "address",
          "name": "",
          "type": "address"
        }
      ],
      "name": "unreleasedPSRIncome",
      "outputs": [
        {
          "internalType": "uint256",
          "name": "",
          "type": "uint256"
        }
      ],
      "stateMutability": "view",
      "type": "function"
    },
    {
      "inputs": [
        {
          "internalType": "uint128",
          "name": "_alphaNumerator",
          "type": "uint128"
        },
        {
          "internalType": "uint128",
          "name": "_alphaDenominator",
          "type": "uint128"
        }
      ],
      "name": "updateAlpha",
      "outputs": [],
      "stateMutability": "nonpayable",
      "type": "function"
    },
    {
      "inputs": [
        {
          "internalType": "address",
          "name": "_comptroller",
          "type": "address"
        },
        {
          "internalType": "address",
          "name": "asset",
          "type": "address"
        }
      ],
      "name": "updateAssetsState",
      "outputs": [],
      "stateMutability": "nonpayable",
      "type": "function"
    },
    {
      "inputs": [
        {
          "internalType": "address",
          "name": "market",
          "type": "address"
        },
        {
          "internalType": "uint256",
          "name": "supplyMultiplier",
          "type": "uint256"
        },
        {
          "internalType": "uint256",
          "name": "borrowMultiplier",
          "type": "uint256"
        }
      ],
      "name": "updateMultipliers",
      "outputs": [],
      "stateMutability": "nonpayable",
      "type": "function"
    },
    {
      "inputs": [
        {
          "internalType": "address[]",
          "name": "users",
          "type": "address[]"
        }
      ],
      "name": "updateScores",
      "outputs": [],
      "stateMutability": "nonpayable",
      "type": "function"
    },
    {
      "inputs": [
        {
          "internalType": "address",
          "name": "",
          "type": "address"
        }
      ],
      "name": "vTokenForAsset",
      "outputs": [
        {
          "internalType": "address",
          "name": "",
          "type": "address"
        }
      ],
      "stateMutability": "view",
      "type": "function"
    },
    {
      "inputs": [
        {
          "internalType": "address",
          "name": "user",
          "type": "address"
        }
      ],
      "name": "xvsUpdated",
      "outputs": [],
      "stateMutability": "nonpayable",
      "type": "function"
    }
  ],
  "transactionHash": "0x9efddeff55db07cd6b8d8f55466d1b6fd08ed3a2915e5344a83658fbe5e6b662",
  "args": [
    "0xae13d989daC2f0dEbFf460aC112a837C89BAa7cd",
    "0x2E7222e51c0f6e98610A1543Aa3836E092CDe62c",
    10512000
  ],
  "numDeployments": 1,
  "solcInputHash": "86d7c67a050fff64fcbda2a2b6ae488f",
  "bytecode": "0x60e06040523480156200001157600080fd5b5060405162005efa38038062005efa8339810160408190526200003491620001af565b6001600160a01b0383166200005c5760405163e6c4247b60e01b815260040160405180910390fd5b6001600160a01b038216620000845760405163e6c4247b60e01b815260040160405180910390fd5b80600003620000a6576040516302723dfb60e21b815260040160405180910390fd5b6001600160a01b0380841660a052821660c0526080819052620000c8620000d1565b505050620001f0565b600054610100900460ff16156200013e5760405162461bcd60e51b815260206004820152602760248201527f496e697469616c697a61626c653a20636f6e747261637420697320696e697469604482015266616c697a696e6760c81b606482015260840160405180910390fd5b60005460ff9081161462000190576000805460ff191660ff9081179091556040519081527f7f26b83ff96e1f2b6a682f133852f6798a09c465da95921460cefb38474024989060200160405180910390a15b565b80516001600160a01b0381168114620001aa57600080fd5b919050565b600080600060608486031215620001c557600080fd5b620001d08462000192565b9250620001e06020850162000192565b9150604084015190509250925092565b60805160a05160c051615cbe6200023c600039600081816104240152613225015260008181610589015261325f0152600081816107d50152818161401a01526140cf0152615cbe6000f3fe608060405234801561001057600080fd5b506004361061038e5760003560e01c8063a15753dc116101de578063cf329d161161010f578063e4676f37116100ad578063ef36bbde1161007c578063ef36bbde146108d7578063f2fde38b146108f8578063fa6d5f181461090b578063fe1006ad1461091e57600080fd5b8063e4676f3714610842578063e486033914610855578063e9a44fd914610899578063ee6b13fc146108ad57600080fd5b8063d88b9d2e116100e9578063d88b9d2e1461080a578063da6ab4f814610814578063e18f88221461081e578063e30c39781461083157600080fd5b8063cf329d16146107bd578063d37db1d2146107d0578063d65bd241146107f757600080fd5b8063bd212c0e1161017c578063c3db3c3611610156578063c3db3c361461077c578063c4ae316814610786578063c86d1a781461078e578063ce853613146107a257600080fd5b8063bd212c0e14610756578063be26317e14610760578063c0ffb8091461076957600080fd5b8063b4a0bdf3116101b8578063b4a0bdf3146106b4578063b7f2d258146106c5578063b9eb69f6146106ed578063ba437c681461074357600080fd5b8063a15753dc14610682578063aac59a751461068c578063b0772d0b1461069f57600080fd5b8063715018a6116102c357806389afcb44116102615780639198e515116102305780639198e515146106165780639565d3d2146106295780639f6506ce14610658578063a016aad61461066257600080fd5b806389afcb44146105605780638da5cb5b146105735780638dd95002146105845780638e8f294b146105ab57600080fd5b80637dc0d1d01161029d5780637dc0d1d0146105035780637ef8207014610517578063856c3aa41461054357806388d742c21461054d57600080fd5b8063715018a6146104e057806379ba5097146104e85780637dafcd89146104f057600080fd5b806337f23cd31161033057806355d36c981161030a57806355d36c981461049a5780635c975abb146104ad5780635fe3b567146104c45780636426b4a7146104d857600080fd5b806337f23cd31461045e57806344e7cedd146104715780634e71d92d1461049257600080fd5b8063207add911161036c578063207add91146103e657806324e6baf2146103f957806326805ef61461040c5780633421fc521461041f57600080fd5b80630104db1b146103935780630e32cb86146103b05780631bffac89146103c5575b600080fd5b61039d6276a70081565b6040519081526020015b60405180910390f35b6103c36103be366004615264565b610926565b005b61039d6103d3366004615264565b6101426020526000908152604090205481565b6103c36103f4366004615281565b61093a565b6103c36104073660046152b9565b6109f5565b6103c361041a366004615389565b610bc1565b6104467f000000000000000000000000000000000000000000000000000000000000000081565b6040516001600160a01b0390911681526020016103a7565b6103c361046c366004615264565b610e7f565b61039d61047f366004615264565b6101416020526000908152604090205481565b6103c3611061565b6103c36104a8366004615457565b6110e5565b60c95460ff165b60405190151581526020016103a7565b61014054610446906001600160a01b031681565b61039d6111dd565b6103c36111f4565b6103c3611206565b6103c36104fe36600461549a565b61127d565b61014454610446906001600160a01b031681565b6101365461052b906001600160801b031681565b6040516001600160801b0390911681526020016103a7565b61039d6101315481565b61039d61055b366004615264565b61140d565b6103c361056e366004615264565b611429565b6033546001600160a01b0316610446565b6104467f000000000000000000000000000000000000000000000000000000000000000081565b6105ec6105b9366004615264565b61013360205260009081526040902080546001820154600283015460038401546004909401549293919290919060ff1685565b6040805195865260208601949094529284019190915260608301521515608082015260a0016103a7565b6103c3610624366004615264565b611460565b6104b4610637366004615522565b61013a60209081526000928352604080842090915290825290205460ff1681565b61039d61012f5481565b610675610670366004615264565b61173e565b6040516103a79190615552565b61039d61013b5481565b6103c361069a3660046155aa565b6118c8565b6106a76119c9565b6040516103a7919061561c565b6097546001600160a01b0316610446565b6106d86106d336600461562f565b611a2c565b604080519283526020830191909152016103a7565b6107286106fb3660046155aa565b61013460209081526000928352604080842090915290825290208054600182015460029092015490919083565b604080519384526020840192909252908201526060016103a7565b61039d6107513660046155aa565b611be8565b61039d61013c5481565b61039d60fb5481565b6103c3610777366004615457565b611c05565b61039d61013d5481565b6103c3611e39565b61014354610446906001600160a01b031681565b6101365461052b90600160801b90046001600160801b031681565b6103c36107cb3660046155aa565b611e82565b61039d7f000000000000000000000000000000000000000000000000000000000000000081565b61039d6108053660046155aa565b611e96565b61039d61012e5481565b61039d6101305481565b6103c361082c366004615680565b611eab565b6065546001600160a01b0316610446565b61039d610850366004615264565b611fae565b610882610863366004615264565b61012d6020526000908152604090205460ff8082169161010090041682565b6040805192151583529015156020830152016103a7565b61013f54610446906001600160a01b031681565b6104466108bb366004615264565b61013e602052600090815260409020546001600160a01b031681565b61039d6108e5366004615264565b6101326020526000908152604090205481565b6103c3610906366004615264565b612026565b6106d86109193660046155aa565b612097565b61039d61228c565b61092e6122a1565b610937816122fb565b50565b6109786040518060400160405280601981526020017f7365744c696d69742875696e743235362c75696e7432353629000000000000008152506123c1565b61012e5482108061098b575061012f5481105b156109a95760405163e55fb50960e01b815260040160405180910390fd5b8161013054610131547f6c52f3e195bdc534883e903e0612c49261a466aacd492501870b0a0ac0b18355846040516109e391815260200190565b60405180910390a46101305561013155565b61013d54600003610a195760405163071a45dd60e31b815260040160405180910390fd5b61013b54600003610a3d5760405163071a45dd60e31b815260040160405180910390fd5b60005b8151811015610bbd576000828281518110610a5d57610a5d6156b3565b6020908102919091018101516001600160a01b038116600090815261012d90925260409091205490915060ff16610aa757604051633aeb927b60e11b815260040160405180910390fd5b61013b54600090815261013a602090815260408083206001600160a01b038516845290915290205460ff1615610ae857610ae0826156df565b915050610a40565b61013560005b8154811015610b3f576000828281548110610b0b57610b0b6156b3565b6000918252602090912001546001600160a01b03169050610b2c848261245b565b610b368482612537565b50600101610aee565b5061013d8054906000610b51836156f8565b909155505061013b54600090815261013a602090815260408083206001600160a01b0386168085529252808320805460ff19166001908117909155905195019490917fa699df4aa8f89fc1f5408fe78ae114651f18b25ed1601680e4c70c15177d8b1b91a25050610a40565b5050565b600054610100900460ff1615808015610be15750600054600160ff909116105b80610bfb5750303b158015610bfb575060005460ff166001145b610c635760405162461bcd60e51b815260206004820152602e60248201527f496e697469616c697a61626c653a20636f6e747261637420697320616c72656160448201526d191e481a5b9a5d1a585b1a5e995960921b60648201526084015b60405180910390fd5b6000805460ff191660011790558015610c86576000805461ff0019166101001790555b6001600160a01b038c16610cad5760405163e6c4247b60e01b815260040160405180910390fd5b6001600160a01b038b16610cd45760405163e6c4247b60e01b815260040160405180910390fd5b6001600160a01b038616610cfb5760405163e6c4247b60e01b815260040160405180910390fd5b6001600160a01b038416610d225760405163e6c4247b60e01b815260040160405180910390fd5b6001600160a01b038316610d495760405163e6c4247b60e01b815260040160405180910390fd5b6001600160a01b038516610d705760405163e6c4247b60e01b815260040160405180910390fd5b610d7a8989612625565b6001600160801b03888116600160801b02908a16176101365561013880546001600160a01b03808e166001600160a01b0319928316179092556101398c905561013780548f8416908316179055600061013b5561013f805489841690831617905561014380548884169083161790556101408054878416908316179055610144805492861692909116919091179055610e128761266a565b610e1a6126a2565b610e23826126d1565b610e2b61276b565b8015610e71576000805461ff0019169055604051600181527f7f26b83ff96e1f2b6a682f133852f6798a09c465da95921460cefb38474024989060200160405180910390a15b505050505050505050505050565b6000610e8a826127c5565b90506000610e978261286b565b6001600160a01b038416600090815261012d602052604090205490915060ff168015610ec1575080155b15610f12576001600160a01b03831660009081526101326020908152604080832083905561012d909152902054610100900460ff1615610f0957610f0483612897565b505050565b610f048361290e565b80158015610f3a57506001600160a01b038316600090815261012d602052604090205460ff16155b8015610f5e57506001600160a01b0383166000908152610132602052604090205415155b15610f805750506001600160a01b031660009081526101326020526040812055565b6001600160a01b03831660009081526101326020526040902054158015610fa45750805b8015610fca57506001600160a01b038316600090815261012d602052604090205460ff16155b15610fee5750506001600160a01b0316600090815261013260205260409020429055565b6001600160a01b038316600090815261012d602052604090205460ff1680156110145750805b15610f045761102283612897565b6001600160a01b038316600090815261013260205260408120549003610f045750506001600160a01b0316600090815261013260205260409020429055565b336000908152610132602052604081205490036110905760405162c4e3d160e01b815260040160405180910390fd5b33600090815261013260205260409020546276a700906110b0904261570f565b10156110cf5760405163beb98cab60e01b815260040160405180910390fd5b6110da600033612bb6565b6110e333612cda565b565b6111066040518060600160405280602a8152602001615c3d602a91396123c1565b6001600160a01b0383166000908152610133602052604090206004015460ff1661114357604051630ff2e4a960e31b815260040160405180910390fd5b61114c83611460565b6001600160a01b03831660008181526101336020526040908190206001810154905491519092907f91e78a55b6df3a0eac1c12a64572a8c0faced385bafba688817f5ce6daa33537906111ab9087908790918252602082015260400190565b60405180910390a46001600160a01b038316600090815261013360205260409020828155600101819055610f04612dd6565b6111f1670de0b6b3a76400006103e8615726565b81565b6111fc6122a1565b6110e36000612e0a565b60655433906001600160a01b031681146112745760405162461bcd60e51b815260206004820152602960248201527f4f776e61626c6532537465703a2063616c6c6572206973206e6f7420746865206044820152683732bb9037bbb732b960b91b6064820152608401610c5a565b61093781612e0a565b6112b360405180604001604052806015815260200174697373756528626f6f6c2c616464726573735b5d2960581b8152506123c1565b82156113ce5760005b818110156113c857600061012d60008585858181106112dd576112dd6156b3565b90506020020160208101906112f29190615264565b6001600160a01b031681526020810191909152604001600020805490915060ff16801561132657508054610100900460ff16155b1561135f5761135a848484818110611340576113406156b3565b90506020020160208101906113559190615264565b612e23565b6113bf565b6113906001858585818110611376576113766156b3565b905060200201602081019061138b9190615264565b612bb6565b6113bf8484848181106113a5576113a56156b3565b90506020020160208101906113ba9190615264565b612cda565b506001016112bc565b50505050565b60005b818110156113c8576113f06000848484818110611376576113766156b3565b6114058383838181106113a5576113a56156b3565b6001016113d1565b6000611417612ed3565b6114218233612f19565b90505b919050565b6114576040518060400160405280600d81526020016c6275726e28616464726573732960981b8152506123c1565b6109378161290e565b6001600160a01b0381166000908152610133602052604090206004015460ff1661149d57604051630ff2e4a960e31b815260040160405180910390fd5b60006114a882613221565b6101435461013f5461014054604051631127ffd360e31b81529394506001600160a01b03928316936000939283169263893ffe98926114f39291169060019030908990600401615767565b602060405180830381865afa158015611510573d6000803e3d6000fd5b505050506040513d601f19601f8201168201806040525081019061153491906157a0565b6001600160a01b038416600090815261014160205260408120549192509061155c908361570f565b604051638aadf79960e01b81526001600160a01b03868116600483015291925090841690638aadf79990602401600060405180830381600087803b1580156115a357600080fd5b505af11580156115b7573d6000803e3d6000fd5b505060405163fa7781ff60e01b81526001600160a01b038781166004830152600093508616915063fa7781ff90602401602060405180830381865afa158015611604573d6000803e3d6000fd5b505050506040513d601f19601f8201168201806040525081019061162891906157a0565b6001600160a01b0386166000908152610142602052604081205491925090611650908361570f565b905061165c81846157b9565b92508260000361166f5750505050505050565b6001600160a01b038087166000908152610141602090815260408083208890556101428252808320869055928a168252610133905290812060030154156116ec576001600160a01b038816600090815261013360205260409020600301546116df670de0b6b3a764000086615726565b6116e991906157e7565b90505b6001600160a01b038816600090815261013360205260409020600201546117149082906157b9565b6001600160a01b039098166000908152610133602052604090206002019790975550505050505050565b61013580546060919060009067ffffffffffffffff811115611762576117626152a3565b6040519080825280602002602001820160405280156117a757816020015b60408051808201909152600080825260208201528152602001906001900390816117805790505b50905060005b82548110156118c05760008382815481106117ca576117ca6156b3565b60009182526020822001546001600160a01b031691506117ea8288611e96565b6001600160a01b03808416600081815261013460209081526040808320948d16835293815290839020548351808501808652636f307dc360e01b9052935194955093839291636f307dc39160448086019291908187030181865afa158015611856573d6000803e3d6000fd5b505050506040513d601f19601f8201168201806040525081019061187a91906157fb565b6001600160a01b0316815260200161189283856157b9565b8152508585815181106118a7576118a76156b3565b60200260200101819052508360010193505050506117ad565b509392505050565b61013f546001600160a01b031633146118f4576040516348f5c3ed60e01b815260040160405180910390fd5b610140546001600160a01b03838116911614611923576040516383aebebd60e01b815260040160405180910390fd5b6001600160a01b03808216600090815261013e6020526040902054168061195d57604051630ff2e4a960e31b815260040160405180910390fd5b8060006101418161196d84613221565b6001600160a01b039081168252602082019290925260409081016000908120939093556101405490518683169391909216917fd517a0e300407de6318610ab4e1f68a9784482333742bec63ed7bf249cae8c199190a350505050565b6060610135805480602002602001604051908101604052809291908181526020018280548015611a2257602002820191906000526020600020905b81546001600160a01b03168152600190910190602001808311611a04575b5050505050905090565b6001600160a01b0380861660008181526101346020908152604080832094891683529381528382206001015492825261013390529182206003015482918291611a75919061570f565b90506000611a82856132e5565b90506000806000611a95848b8b8f61331c565b92509250925060008c90506000816001600160a01b0316636f307dc36040518163ffffffff1660e01b8152600401602060405180830381865afa158015611ae0573d6000803e3d6000fd5b505050506040513d601f19601f82011682018060405250810190611b0491906157fb565b6001600160a01b031663313ce5676040518163ffffffff1660e01b8152600401602060405180830381865afa158015611b41573d6000803e3d6000fd5b505050506040513d601f19601f82011682018060405250810190611b659190615818565b60ff169050611b7581601261570f565b611b8090600a61591f565b611b8a9086615726565b61013654909550600090611bb590889088906001600160801b0380821691600160801b9004166135e6565b9050611bc181896157b9565b9750611bd28f8d8f8888868e61369e565b9950995050505050505050509550959350505050565b6000611bf2612ed3565b611bfc8383612f19565b90505b92915050565b611c26604051806060016040528060228152602001615c67602291396123c1565b6001600160a01b0383166000908152610133602052604090206004015460ff1615611c6457604051630313b28560e01b815260040160405180910390fd5b61014054604051638e8f294b60e01b81526001600160a01b0385811660048301526000921690638e8f294b90602401602060405180830381865afa158015611cb0573d6000803e3d6000fd5b505050506040513d601f19601f82011682018060405250810190611cd4919061592b565b905080611cf457604051633d21810360e21b815260040160405180910390fd5b6001600160a01b038416600090815261013360205260408120600281018290558481556001808201859055600382018390556004909101805460ff19169091179055611d3f85613221565b6001600160a01b03808216600090815261013e60205260409020549192501615611d7c5760405163dc0d0aab60e01b815260040160405180910390fd5b6001600160a01b03808216600090815261013e6020526040812080549288166001600160a01b03199384168117909155610135805460018101825592527fdf37d27e88e3bd0b85262482997e409a463f5be0ebb19232abf994dd8474090d9091018054909216179055611ded612dd6565b61013554611dfa9061378b565b8284866001600160a01b03167faeb29651ee58d1f8216621256cf5fe5cdf5c1a7650175c620342e0eb03de0f8e60405160405180910390a45050505050565b611e676040518060400160405280600d81526020016c746f67676c655061757365282960981b8152506123c1565b60c95460ff1615611e7a576110e36137bc565b6110e361276b565b611e8c828261245b565b610bbd8282612537565b6000611ea183611460565b611bfc83836137f5565b611ee96040518060400160405280601c81526020017f757064617465416c7068612875696e743132382c75696e7431323829000000008152506123c1565b611ef38282612625565b610136546040516001600160801b03838116825284811692600160801b81048216929116907f9122c3fdea272423a0586803b53902139919baf05be731f04724ef8f363d378d9060200160405180910390a46001600160801b03818116600160801b02908316176101365560005b61013554811015611fa557611f9d6101358281548110611f8357611f836156b3565b6000918252602090912001546001600160a01b0316611460565b600101611f61565b50610bbd612dd6565b6001600160a01b038116600090815261013260205260408120548103611fd857506276a700919050565b6001600160a01b03821660009081526101326020526040812054611ffc904261570f565b90506276a70081101561201d57612016816276a70061570f565b9392505050565b50600092915050565b61202e6122a1565b606580546001600160a01b0383166001600160a01b0319909116811790915561205f6033546001600160a01b031690565b6001600160a01b03167f38d16b8cac22d99fc7c124b9cd0de2d3fa1faef420bfe791d8c362d765e2270060405160405180910390a350565b6040516395dd919360e01b81526001600160a01b0382811660048301526000918291859183918316906395dd919390602401602060405180830381865afa1580156120e6573d6000803e3d6000fd5b505050506040513d601f19601f8201168201806040525081019061210a91906157a0565b90506000826001600160a01b031663182df0f56040518163ffffffff1660e01b8152600401602060405180830381865afa15801561214c573d6000803e3d6000fd5b505050506040513d601f19601f8201168201806040525081019061217091906157a0565b6040516370a0823160e01b81526001600160a01b0388811660048301529192506000918516906370a0823190602401602060405180830381865afa1580156121bc573d6000803e3d6000fd5b505050506040513d601f19601f820116820180604052508101906121e091906157a0565b90506000670de0b6b3a76400006121f78385615726565b61220191906157e7565b6001600160a01b03808b16600081815261013460209081526040808320948e16835293815283822060010154928252610133905291822060030154929350919061225261224d8c6127c5565b6132e5565b9050600080612263838a888d61331c565b92509250506122778e878b85858a8a61369e565b9b509b50505050505050505050509250929050565b6111f1670de0b6b3a7640000620186a0615726565b6033546001600160a01b031633146110e35760405162461bcd60e51b815260206004820181905260248201527f4f776e61626c653a2063616c6c6572206973206e6f7420746865206f776e65726044820152606401610c5a565b6001600160a01b03811661235f5760405162461bcd60e51b815260206004820152602560248201527f696e76616c696420616365737320636f6e74726f6c206d616e61676572206164604482015264647265737360d81b6064820152608401610c5a565b609780546001600160a01b038381166001600160a01b031983168117909355604080519190921680825260208201939093527f66fd58e82f7b31a2a5c30e0888f3093efe4e111b00cd2b0c31fe014601293aa091015b60405180910390a15050565b6097546040516318c5e8ab60e01b81526000916001600160a01b0316906318c5e8ab906123f490339086906004016159a0565b602060405180830381865afa158015612411573d6000803e3d6000fd5b505050506040513d601f19601f82011682018060405250810190612435919061592b565b905080610bbd57333083604051634a3fa29360e01b8152600401610c5a939291906159c4565b6001600160a01b0381166000908152610133602052604090206004015460ff1615806124a157506001600160a01b038216600090815261012d602052604090205460ff16155b156124aa575050565b6124b381611460565b6124bd81836137f5565b6001600160a01b03808316600090815261013460209081526040808320938716835292905290812080549091906124f59084906157b9565b90915550506001600160a01b03908116600090815261013360209081526040808320600290810154610134845282852096909516845294909152902090910155565b6001600160a01b0381166000908152610133602052604090206004015460ff16158061257d57506001600160a01b038216600090815261012d602052604090205460ff16155b15612586575050565b60006125928284613891565b6001600160a01b038084166000818152610134602090815260408083209489168352938152838220600101549282526101339052919091206003015491925082916125dd919061570f565b6125e791906157b9565b6001600160a01b0392831660009081526101336020908152604080832060030193909355610134815282822095909416815293909252912060010155565b6001600160801b038116158061264c5750806001600160801b0316826001600160801b0316115b15610bbd57604051630381eb6d60e61b815260040160405180910390fd5b600054610100900460ff166126915760405162461bcd60e51b8152600401610c5a906159f0565b612699613c7c565b61093781613cab565b600054610100900460ff166126c95760405162461bcd60e51b8152600401610c5a906159f0565b6110e3613cd2565b60fb54811161272d5760405162461bcd60e51b815260206004820152602260248201527f436f6d7074726f6c6c65723a20496e76616c6964206d61784c6f6f70734c696d6044820152611a5d60f21b6064820152608401610c5a565b60fb80549082905560408051828152602081018490527fc2d09fef144f7c8a86f71ea459f8fc17f675768eb1ae369cbd77fb31d467aafa91016123b5565b612773612ed3565b60c9805460ff191660011790557f62e78cea01bee320cd4e420270b5ea74000d11b0c9f74754ebdbfc544b05a2586127a83390565b6040516001600160a01b03909116815260200160405180910390a1565b6101375461013854610139546040516398e1b31b60e01b81526001600160a01b03928316600482015260248101919091528382166044820152600092839283929116906398e1b31b90606401606060405180830381865afa15801561282e573d6000803e3d6000fd5b505050506040513d601f19601f820116820180604052508101906128529190615a3b565b92505091508082612863919061570f565b949350505050565b6000612881670de0b6b3a76400006103e8615726565b821061288f57506001919050565b506000919050565b61013560005b8154811015610f04576128d6838383815481106128bc576128bc6156b3565b6000918252602090912001546001600160a01b031661245b565b612906838383815481106128ec576128ec6156b3565b6000918252602090912001546001600160a01b0316612537565b60010161289d565b6001600160a01b038116600090815261012d602052604090205460ff1661294857604051633aeb927b60e11b815260040160405180910390fd5b61013560005b8154811015612af95761296d838383815481106128bc576128bc6156b3565b6101346000838381548110612984576129846156b3565b60009182526020808320909101546001600160a01b039081168452838201949094526040928301822093871682529290925281206001015483549091610133918590859081106129d6576129d66156b3565b60009182526020808320909101546001600160a01b03168352820192909252604001902060030154612a08919061570f565b6101336000848481548110612a1f57612a1f6156b3565b60009182526020808320909101546001600160a01b031683528201929092526040018120600301919091558254610134908290859085908110612a6457612a646156b3565b60009182526020808320909101546001600160a01b03908116845283820194909452604092830182209388168252929092528120600101919091558254610134908290859085908110612ab957612ab96156b3565b60009182526020808320909101546001600160a01b039081168452838201949094526040928301822093881682529290925290206002015560010161294e565b506001600160a01b038216600090815261012d6020526040902054610100900460ff1615612b3c5761012e8054906000612b32836156f8565b9190505550612b53565b61012f8054906000612b4d836156f8565b91905055505b6001600160a01b038216600090815261012d60205260409020805461ffff19169055612b7e82613d05565b6040516001600160a01b038316907fe22de1457cb61fb61b60176bc4235a9abd19466126b46692bc14fc573f09924990600090a25050565b6001600160a01b038116600090815261012d602052604090205460ff1615612bf05760405162c4e3d160e01b815260040160405180910390fd5b6001600160a01b038116600090815261012d602052604090208054831580156101000261ffff1990921691909117600117909155612c435761012e8054906000612c39836156df565b9190505550612c5a565b61012f8054906000612c54836156df565b91905055505b6101315461012e541180612c7357506101305461012f54115b15612c915760405163e55fb50960e01b815260040160405180910390fd5b806001600160a01b03167fdd032f28700d4e4b1719b8fa26918a7d68608b4e36def571ce5fe7a3ecd69f4583604051612cce911515815260200190565b60405180910390a25050565b61013560005b8154811015610f04576000828281548110612cfd57612cfd6156b3565b6000918252602090912001546001600160a01b03169050612d1d81611460565b6001600160a01b038082166000908152610133602090815260408083206002908101546101348452828520958a1685529490925282200191909155612d628286613891565b6001600160a01b03808416600081815261013460209081526040808320948b1683529381528382206001018590559181526101339091522060030154909150612dac9082906157b9565b6001600160a01b039092166000908152610133602052604090206003019190915550600101612ce0565b61013b8054906000612de7836156df565b919050555061012f5461012e54612dfe91906157b9565b61013c81905561013d55565b606580546001600160a01b031916905561093781613d7e565b6001600160a01b038116600090815261012d60205260408120805461ff00191661010017815561012e80549192612e59836156df565b909155505061012f8054906000612e6f836156f8565b91905055506101315461012e541115612e9b5760405163e55fb50960e01b815260040160405180910390fd5b6040516001600160a01b038316907f5272e69bcef8da96614ac4a5d1e95ca02c35ea627bf7ecf389ec88d8d78b86bb90600090a25050565b60c95460ff16156110e35760405162461bcd60e51b815260206004820152601060248201526f14185d5cd8589b194e881c185d5cd95960821b6044820152606401610c5a565b600080612f268484611e96565b6001600160a01b0380861660009081526101346020908152604080832093881683529290522054909150612f5a90826157b9565b6001600160a01b038581166000908152610133602090815260408083206002908101546101348452828520958a1685529490925282209081019290925590819055909150612fa785613221565b6040516370a0823160e01b815230600482015290915081906001600160a01b038216906370a0823190602401602060405180830381865afa158015612ff0573d6000803e3d6000fd5b505050506040513d601f19601f8201168201806040525081019061301491906157a0565b8311156131b657604080516001808252818301909252600091602080830190803683370190505090508181600081518110613051576130516156b3565b6001600160a01b03928316602091820292909201015261013f5461014054604051637e1888b560e11b81529183169263fc31116a9261309892909116908590600401615a69565b600060405180830381600087803b1580156130b257600080fd5b505af11580156130c6573d6000803e3d6000fd5b50506040516370a0823160e01b81523060048201526001600160a01b03851692506370a082319150602401602060405180830381865afa15801561310e573d6000803e3d6000fd5b505050506040513d601f19601f8201168201806040525081019061313291906157a0565b8411156131b4576101435460405163192e7a7b60e01b81526001600160a01b0384811660048301529091169063192e7a7b90602401600060405180830381600087803b15801561318157600080fd5b505af1158015613195573d6000803e3d6000fd5b5050506001600160a01b03841660009081526101426020526040812055505b505b6131ca6001600160a01b0382168685613dd0565b856001600160a01b0316856001600160a01b03167fc7edf5cfe443c04a10a60ff6084c847114348c55b257a01d62700326219adbba8560405161320f91815260200190565b60405180910390a35090949350505050565b60007f00000000000000000000000000000000000000000000000000000000000000006001600160a01b0316826001600160a01b03160361328357507f0000000000000000000000000000000000000000000000000000000000000000919050565b816001600160a01b0316636f307dc36040518163ffffffff1660e01b8152600401602060405180830381865afa1580156132c1573d6000803e3d6000fd5b505050506040513d601f19601f8201168201806040525081019061142191906157fb565b60006132fc670de0b6b3a7640000620186a0615726565b82111561331857611421670de0b6b3a7640000620186a0615726565b5090565b60008060008061013760009054906101000a90046001600160a01b03166001600160a01b031663358ae0366040518163ffffffff1660e01b8152600401602060405180830381865afa158015613376573d6000803e3d6000fd5b505050506040513d601f19601f8201168201806040525081019061339a91906157fb565b610144546040516341976e0960e01b81526001600160a01b038084166004830152929350600092909116906341976e0990602401602060405180830381865afa1580156133eb573d6000803e3d6000fd5b505050506040513d601f19601f8201168201806040525081019061340f91906157a0565b6001600160a01b0387166000908152610133602052604081206001015491925090670de0b6b3a7640000908190613446908d615726565b61345091906157e7565b61345a9084615726565b61346491906157e7565b6001600160a01b0388166000908152610133602052604081205491925090670de0b6b3a7640000908190613498908e615726565b6134a291906157e7565b6134ac9085615726565b6134b691906157e7565b6101445460405163fc57d4df60e01b81526001600160a01b038b811660048301529293506000929091169063fc57d4df90602401602060405180830381865afa158015613507573d6000803e3d6000fd5b505050506040513d601f19601f8201168201806040525081019061352b91906157a0565b90506000670de0b6b3a76400006135428c84615726565b61354c91906157e7565b90506000670de0b6b3a76400006135638e85615726565b61356d91906157e7565b905083821061359d576000821161358557600061359a565b81613590858e615726565b61359a91906157e7565b9b505b8481106135cb57600081116135b35760006135c8565b806135be868f615726565b6135c891906157e7565b9c505b6135d58d8d6157b9565b9e9b9d505050505050505050505050565b60008415806135f3575083155b1561360057506000612863565b83850361360e575083612863565b838510600081613627576136228688613e22565b613631565b6136318787613e22565b9050600061366c61364186613e8a565b61364a88613e8a565b61365385613ef4565b61365d9190615a8d565b6136679190615b12565b613eff565b905082156136885761367e8782613f0a565b9350505050612863565b6136928782613f3c565b98975050505050505050565b600080826000036136b45750600090508061377f565b6000836136c08b613f6e565b6136ca9087615726565b6136d491906157e7565b905060006136e287896157b9565b9050806000036136fa5760008093509350505061377f565b6000816137078a85615726565b61371191906157e7565b90506000826137208a86615726565b61372a91906157e7565b90508b1561374e578b61373f61271084615726565b61374991906157e7565b613751565b60005b95508a15613775578a61376661271083615726565b61377091906157e7565b613778565b60005b9450505050505b97509795505050505050565b60fb548111156109375760fb5460405163792bfb1b60e11b8152600481019190915260248101829052604401610c5a565b6137c46140fd565b60c9805460ff191690557f5db9ee0a495bf2e6ff9c91a7834c1ba4fdd244a5e8aa4e537bd38aeae4b073aa336127a8565b6001600160a01b03808316600081815261013460209081526040808320948616835293815283822060029081015493835261013390915292812090920154829161383e9161570f565b6001600160a01b0380861660009081526101346020908152604080832093881683529290522060010154909150670de0b6b3a764000061387e8284615726565b61388891906157e7565b95945050505050565b6000806138a061224d846127c5565b6040516395dd919360e01b81526001600160a01b0385811660048301529192508591600091908316906395dd919390602401602060405180830381865afa1580156138ef573d6000803e3d6000fd5b505050506040513d601f19601f8201168201806040525081019061391391906157a0565b90506000826001600160a01b031663182df0f56040518163ffffffff1660e01b8152600401602060405180830381865afa158015613955573d6000803e3d6000fd5b505050506040513d601f19601f8201168201806040525081019061397991906157a0565b6040516370a0823160e01b81526001600160a01b0388811660048301529192506000918516906370a0823190602401602060405180830381865afa1580156139c5573d6000803e3d6000fd5b505050506040513d601f19601f820116820180604052508101906139e991906157a0565b90506000670de0b6b3a7640000613a008385615726565b613a0a91906157e7565b9050600061013760009054906101000a90046001600160a01b03166001600160a01b031663358ae0366040518163ffffffff1660e01b8152600401602060405180830381865afa158015613a62573d6000803e3d6000fd5b505050506040513d601f19601f82011682018060405250810190613a8691906157fb565b6101445460405163b62cad6960e01b81526001600160a01b03808416600483015292935091169063b62cad6990602401600060405180830381600087803b158015613ad057600080fd5b505af1158015613ae4573d6000803e3d6000fd5b5050610144546040516396e85ced60e01b81526001600160a01b038e8116600483015290911692506396e85ced9150602401600060405180830381600087803b158015613b3057600080fd5b505af1158015613b44573d6000803e3d6000fd5b505050506000613b568887858e61331c565b505090506000876001600160a01b0316636f307dc36040518163ffffffff1660e01b8152600401602060405180830381865afa158015613b9a573d6000803e3d6000fd5b505050506040513d601f19601f82011682018060405250810190613bbe91906157fb565b6001600160a01b031663313ce5676040518163ffffffff1660e01b8152600401602060405180830381865afa158015613bfb573d6000803e3d6000fd5b505050506040513d601f19601f82011682018060405250810190613c1f9190615818565b60ff169050613c2f81601261570f565b613c3a90600a61591f565b613c449083615726565b61013654909250613c6c908a9084906001600160801b0380821691600160801b9004166135e6565b9c9b505050505050505050505050565b600054610100900460ff16613ca35760405162461bcd60e51b8152600401610c5a906159f0565b6110e3614146565b600054610100900460ff1661092e5760405162461bcd60e51b8152600401610c5a906159f0565b600054610100900460ff16613cf95760405162461bcd60e51b8152600401610c5a906159f0565b60c9805460ff19169055565b61013c5415613d255761013c8054906000613d1f836156f8565b91905055505b600061013d54118015613d60575061013b54600090815261013a602090815260408083206001600160a01b038516845290915290205460ff16155b156109375761013d8054906000613d76836156f8565b919050555050565b603380546001600160a01b038381166001600160a01b0319831681179093556040519116919082907f8be0079c531659141344cd1fd0a4f28419497f9722a3daafe3b4186f6b6457e090600090a35050565b604080516001600160a01b038416602482015260448082018490528251808303909101815260649091019091526020810180516001600160e01b031663a9059cbb60e01b179052610f04908490614176565b6000613e2d83613e8a565b613e3683613e8a565b1215613e5f576040516360c1ae3960e01b81526004810184905260248101839052604401610c5a565b613e6882613e8a565b6001607f1b613e7685613e8a565b613e809190615a8d565b611bfc9190615b12565b60006001600160ff1b038211156133185760405162461bcd60e51b815260206004820152602860248201527f53616665436173743a2076616c756520646f65736e27742066697420696e2061604482015267371034b73a191a9b60c11b6064820152608401610c5a565b60006114218261424b565b60006114218261482f565b600080821215613f2d57604051639603648160e01b815260040160405180910390fd5b6001607f1b82613e7685613e8a565b600080821215613f5f57604051639603648160e01b815260040160405180910390fd5b816001607f1b613e7685613e8a565b600080613f7a83614f40565b9050600061013f60009054906101000a90046001600160a01b03166001600160a01b0316631036bbe26040518163ffffffff1660e01b8152600401602060405180830381865afa158015613fd2573d6000803e3d6000fd5b505050506040513d601f19601f82011682018060405250810190613ff691906157a0565b613ffe6150a6565b6140089084615726565b61401291906157e7565b905061403e817f0000000000000000000000000000000000000000000000000000000000000000615726565b610143549093506000906001600160a01b031663a666642b61405f87613221565b6040516001600160e01b031960e084901b1681526001600160a01b039091166004820152602401602060405180830381865afa1580156140a3573d6000803e3d6000fd5b505050506040513d601f19601f820116820180604052508101906140c791906157a0565b90506140f3817f0000000000000000000000000000000000000000000000000000000000000000615726565b61388890856157b9565b60c95460ff166110e35760405162461bcd60e51b815260206004820152601460248201527314185d5cd8589b194e881b9bdd081c185d5cd95960621b6044820152606401610c5a565b600054610100900460ff1661416d5760405162461bcd60e51b8152600401610c5a906159f0565b6110e333612e0a565b60006141cb826040518060400160405280602081526020017f5361666545524332303a206c6f772d6c6576656c2063616c6c206661696c6564815250856001600160a01b03166151219092919063ffffffff16565b90508051600014806141ec5750808060200190518101906141ec919061592b565b610f045760405162461bcd60e51b815260206004820152602a60248201527f5361666545524332303a204552433230206f7065726174696f6e20646964206e6044820152691bdd081cdd58d8d9595960b21b6064820152608401610c5a565b60006001607f1b82131561427557604051633ce23a3d60e11b815260048101839052602401610c5a565b60008213614299576040516330ecaa3d60e21b815260048101839052602401610c5a565b6001607f1b82036142ac57506000919050565b640733048c5a82136142c6576114216101ff607c1b615b40565b60008060006a01c8464f761647600000008513614314576142eb600160841b85615b5c565b93506a01c8464f761647600000006143076001607f1b87615a8d565b6143119190615b12565b94505b6cf1aaddd7742e90000000000000851361436157614336600160831b85615b5c565b93506cf1aaddd7742e900000000000006143546001607f1b87615a8d565b61435e9190615b12565b94505b6615fc21041027af603f1b85136143a857614380600160821b85615b5c565b93506615fc21041027af603f1b61439b6001607f1b87615a8d565b6143a59190615b12565b94505b660960aadc109e7b60461b85136143ef576143c7600160811b85615b5c565b9350660960aadc109e7b60461b6143e26001607f1b87615a8d565b6143ec9190615b12565b94505b660454aaa8efe073604a1b85136144365761440e600160801b85615b5c565b9350660454aaa8efe073604a1b6144296001607f1b87615a8d565b6144339190615b12565b94505b6602f16ac6c59de7604c1b851361447d576144556001607f1b85615b5c565b93506602f16ac6c59de7604c1b6144706001607f1b87615a8d565b61447a9190615b12565b94505b6609b4597e37cb05604b1b85136144c45761449c6001607e1b85615b5c565b93506609b4597e37cb05604b1b6144b76001607f1b87615a8d565b6144c19190615b12565b94505b6618ebef9eac820b604a1b851361450b576144e36001607d1b85615b5c565b93506618ebef9eac820b604a1b6144fe6001607f1b87615a8d565b6145089190615b12565b94505b6f70f5a893b608861e1f58934f97aea57d851361455e576145306001607c1b85615b5c565b93506f70f5a893b608861e1f58934f97aea57d6145516001607f1b87615a8d565b61455b9190615b12565b94505b61456c6001607f1b86615b5c565b92508291506001607f1b6145808380615a8d565b61458a9190615b12565b9050600160801b61459b8482615b5c565b6145a59084615a8d565b6145af9190615b12565b6145b99085615b9b565b93506001607f1b6145ca8284615a8d565b6145d49190615b12565b9150600160811b6145f5846faaaaaaaaaaaaaaaaaaaaaaaaaaaaaaaa615b5c565b6145ff9084615a8d565b6146099190615b12565b6146139085615b9b565b93506001607f1b6146248284615a8d565b61462e9190615b12565b9150600360801b61464f846f99999999999999999999999999999999615b5c565b6146599084615a8d565b6146639190615b12565b61466d9085615b9b565b93506001607f1b61467e8284615a8d565b6146889190615b12565b9150600160821b6146a9846f92492492492492492492492492492492615b5c565b6146b39084615a8d565b6146bd9190615b12565b6146c79085615b9b565b93506001607f1b6146d88284615a8d565b6146e29190615b12565b9150600560801b614703846f8e38e38e38e38e38e38e38e38e38e38e615b5c565b61470d9084615a8d565b6147179190615b12565b6147219085615b9b565b93506001607f1b6147328284615a8d565b61473c9190615b12565b9150600360811b61475d846f8ba2e8ba2e8ba2e8ba2e8ba2e8ba2e8b615b5c565b6147679084615a8d565b6147719190615b12565b61477b9085615b9b565b93506001607f1b61478c8284615a8d565b6147969190615b12565b9150600760801b6147b7846f89d89d89d89d89d89d89d89d89d89d89615b5c565b6147c19084615a8d565b6147cb9190615b12565b6147d59085615b9b565b93506001607f1b6147e68284615a8d565b6147f09190615b12565b9150600160831b614811846f88888888888888888888888888888888615b5c565b61481b9084615a8d565b6148259190615b12565b6138889085615b9b565b600061483f6101ff607c1b615b40565b82121561484e57506000919050565b8160000361486157506001607f1b919050565b600082131561488657604051631086170d60e01b815260048101839052602401610c5a565b6000806148976001607c1b85615bdc565b91508190506001607f1b6148ab8280615a8d565b6148b59190615b12565b90506148c9816710e1b3be415a0000615a8d565b6148d39084615b9b565b92506001607f1b6148e48383615a8d565b6148ee9190615b12565b9050614902816705a0913f6b1e0000615a8d565b61490c9084615b9b565b92506001607f1b61491d8383615a8d565b6149279190615b12565b905061493b81670168244fdac78000615a8d565b6149459084615b9b565b92506001607f1b6149568383615a8d565b6149609190615b12565b905061497381664807432bc18000615a8d565b61497d9084615b9b565b92506001607f1b61498e8383615a8d565b6149989190615b12565b90506149ab81660c0135dca04000615a8d565b6149b59084615b9b565b92506001607f1b6149c68383615a8d565b6149d09190615b12565b90506149e3816601b707b1cdc000615a8d565b6149ed9084615b9b565b92506001607f1b6149fe8383615a8d565b614a089190615b12565b9050614a1a816536e0f639b800615a8d565b614a249084615b9b565b92506001607f1b614a358383615a8d565b614a3f9190615b12565b9050614a5181650618fee9f800615a8d565b614a5b9084615b9b565b92506001607f1b614a6c8383615a8d565b614a769190615b12565b9050614a8781649c197dcc00615a8d565b614a919084615b9b565b92506001607f1b614aa28383615a8d565b614aac9190615b12565b9050614abd81640e30dce400615a8d565b614ac79084615b9b565b92506001607f1b614ad88383615a8d565b614ae29190615b12565b9050614af38164012ebd1300615a8d565b614afd9084615b9b565b92506001607f1b614b0e8383615a8d565b614b189190615b12565b9050614b28816317499f00615a8d565b614b329084615b9b565b92506001607f1b614b438383615a8d565b614b4d9190615b12565b9050614b5d816301a9d480615a8d565b614b679084615b9b565b92506001607f1b614b788383615a8d565b614b829190615b12565b9050614b9181621c6380615a8d565b614b9b9084615b9b565b92506001607f1b614bac8383615a8d565b614bb69190615b12565b9050614bc5816201c638615a8d565b614bcf9084615b9b565b92506001607f1b614be08383615a8d565b614bea9190615b12565b9050614bf881611ab8615a8d565b614c029084615b9b565b92506001607f1b614c138383615a8d565b614c1d9190615b12565b9050614c2b8161017c615a8d565b614c359084615b9b565b92506001607f1b614c468383615a8d565b614c509190615b12565b9050614c5d816014615a8d565b614c679084615b9b565b92506001607f1b614c788383615a8d565b614c829190615b12565b9050614c8f816001615a8d565b614c999084615b9b565b92506001607f1b82614cb36721c3677c82b4000086615b12565b614cbd9190615b9b565b614cc79190615b9b565b9250614cd284615b40565b9350600160841b841615614d18577243cbaf42a000812488fc5c220ad7b97bf6e99e614d0b6cf1aaddd7742e56d32fb9f9974485615a8d565b614d159190615b12565b92505b600160831b841615614d5d577105d27a9f51c31b7c2f8038212a0574779991614d506e0afe10820813d65dfe6a33c07f738f85615a8d565b614d5a9190615b12565b92505b600160821b841615614da257701b4c902e273a58678d6d3bfdb93db96d02614d956f02582ab704279e8efd15e0265855c47a85615a8d565b614d9f9190615b12565b92505b600160811b841615614de7577003b1cc971a9bb5b9867477440d6d157750614dda6f1152aaa3bf81cb9fdb76eae12d02957185615a8d565b614de49190615b12565b92505b600160801b841615614e2c5770015bf0a8b1457695355fb8ac404e7a79e3614e1f6f2f16ac6c59de6f8d5d6f63c1482a7c8685615a8d565b614e299190615b12565b92505b6001607f1b841615614e70576fd3094c70f034de4b96ff7d5b6f99fcd8614e636f4da2cbf1be5827f9eb3ad1aa9866ebb385615a8d565b614e6d9190615b12565b92505b6001607e1b841615614eb4576fa45af1e1f40c333b3de1db4dd55f29a7614ea76f63afbe7ab2082ba1a0ae5e4eb1b479dc85615a8d565b614eb19190615b12565b92505b6001607d1b841615614ef8576f910b022db7ae67ce76b441c27035c6a1614eeb6f70f5a893b608861e1f58934f97aea57d85615a8d565b614ef59190615b12565b92505b6001607c1b841615614f39576f88415abbe9a76bead8d00cf112e4d4a8614f2f6f783eafef1c0a8f3978c7f81824d62ebf85615a8d565b6128639190615b12565b5050919050565b600080829050670de0b6b3a7640000816001600160a01b031663173b99046040518163ffffffff1660e01b8152600401602060405180830381865afa158015614f8d573d6000803e3d6000fd5b505050506040513d601f19601f82011682018060405250810190614fb191906157a0565b670de0b6b3a7640000836001600160a01b031663f8f9da286040518163ffffffff1660e01b8152600401602060405180830381865afa158015614ff8573d6000803e3d6000fd5b505050506040513d601f19601f8201168201806040525081019061501c91906157a0565b846001600160a01b03166347bd37186040518163ffffffff1660e01b8152600401602060405180830381865afa15801561505a573d6000803e3d6000fd5b505050506040513d601f19601f8201168201806040525081019061507e91906157a0565b6150889190615726565b61509291906157e7565b61509c9190615726565b61201691906157e7565b61013f54604051630966961f60e41b81526000916001600160a01b03169063966961f0906150db903090600190600401615bf0565b602060405180830381865afa1580156150f8573d6000803e3d6000fd5b505050506040513d601f19601f8201168201806040525081019061511c91906157a0565b905090565b6060612863848460008585600080866001600160a01b031685876040516151489190615c0d565b60006040518083038185875af1925050503d8060008114615185576040519150601f19603f3d011682016040523d82523d6000602084013e61518a565b606091505b509150915061519b878383876151a6565b979650505050505050565b6060831561521557825160000361520e576001600160a01b0385163b61520e5760405162461bcd60e51b815260206004820152601d60248201527f416464726573733a2063616c6c20746f206e6f6e2d636f6e74726163740000006044820152606401610c5a565b5081612863565b612863838381511561522a5781518083602001fd5b8060405162461bcd60e51b8152600401610c5a9190615c29565b6001600160a01b038116811461093757600080fd5b803561142481615244565b60006020828403121561527657600080fd5b813561201681615244565b6000806040838503121561529457600080fd5b50508035926020909101359150565b634e487b7160e01b600052604160045260246000fd5b600060208083850312156152cc57600080fd5b823567ffffffffffffffff808211156152e457600080fd5b818501915085601f8301126152f857600080fd5b81358181111561530a5761530a6152a3565b8060051b604051601f19603f8301168101818110858211171561532f5761532f6152a3565b60405291825284820192508381018501918883111561534d57600080fd5b938501935b828510156136925761536385615259565b84529385019392850192615352565b80356001600160801b038116811461142457600080fd5b60008060008060008060008060008060006101608c8e0312156153ab57600080fd5b8b356153b681615244565b9a5060208c01356153c681615244565b995060408c013598506153db60608d01615372565b97506153e960808d01615372565b965060a08c01356153f981615244565b955060c08c013561540981615244565b945060e08c013561541981615244565b93506101008c013561542a81615244565b92506101208c013561543b81615244565b809250506101408c013590509295989b509295989b9093969950565b60008060006060848603121561546c57600080fd5b833561547781615244565b95602085013595506040909401359392505050565b801515811461093757600080fd5b6000806000604084860312156154af57600080fd5b83356154ba8161548c565b9250602084013567ffffffffffffffff808211156154d757600080fd5b818601915086601f8301126154eb57600080fd5b8135818111156154fa57600080fd5b8760208260051b850101111561550f57600080fd5b6020830194508093505050509250925092565b6000806040838503121561553557600080fd5b82359150602083013561554781615244565b809150509250929050565b602080825282518282018190526000919060409081850190868401855b8281101561559d57815180516001600160a01b0316855286015186850152928401929085019060010161556f565b5091979650505050505050565b600080604083850312156155bd57600080fd5b82356155c881615244565b9150602083013561554781615244565b600081518084526020808501945080840160005b838110156156115781516001600160a01b0316875295820195908201906001016155ec565b509495945050505050565b602081526000611bfc60208301846155d8565b600080600080600060a0868803121561564757600080fd5b853561565281615244565b9450602086013561566281615244565b94979496505050506040830135926060810135926080909101359150565b6000806040838503121561569357600080fd5b61569c83615372565b91506156aa60208401615372565b90509250929050565b634e487b7160e01b600052603260045260246000fd5b634e487b7160e01b600052601160045260246000fd5b6000600182016156f1576156f16156c9565b5060010190565b600081615707576157076156c9565b506000190190565b600082821015615721576157216156c9565b500390565b6000816000190483118215151615615740576157406156c9565b500290565b6002811061576357634e487b7160e01b600052602160045260246000fd5b9052565b6001600160a01b03858116825260808201906157866020840187615745565b808516604084015280841660608401525095945050505050565b6000602082840312156157b257600080fd5b5051919050565b600082198211156157cc576157cc6156c9565b500190565b634e487b7160e01b600052601260045260246000fd5b6000826157f6576157f66157d1565b500490565b60006020828403121561580d57600080fd5b815161201681615244565b60006020828403121561582a57600080fd5b815160ff8116811461201657600080fd5b600181815b8085111561587657816000190482111561585c5761585c6156c9565b8085161561586957918102915b93841c9390800290615840565b509250929050565b60008261588d57506001611bff565b8161589a57506000611bff565b81600181146158b057600281146158ba576158d6565b6001915050611bff565b60ff8411156158cb576158cb6156c9565b50506001821b611bff565b5060208310610133831016604e8410600b84101617156158f9575081810a611bff565b615903838361583b565b8060001904821115615917576159176156c9565b029392505050565b6000611bfc838361587e565b60006020828403121561593d57600080fd5b81516120168161548c565b60005b8381101561596357818101518382015260200161594b565b838111156113c85750506000910152565b6000815180845261598c816020860160208601615948565b601f01601f19169290920160200192915050565b6001600160a01b038316815260406020820181905260009061286390830184615974565b6001600160a01b0384811682528316602082015260606040820181905260009061388890830184615974565b6020808252602b908201527f496e697469616c697a61626c653a20636f6e7472616374206973206e6f74206960408201526a6e697469616c697a696e6760a81b606082015260800190565b600080600060608486031215615a5057600080fd5b8351925060208401519150604084015190509250925092565b6001600160a01b0383168152604060208201819052600090612863908301846155d8565b60006001600160ff1b0381841382841380821686840486111615615ab357615ab36156c9565b600160ff1b6000871282811687830589121615615ad257615ad26156c9565b60008712925087820587128484161615615aee57615aee6156c9565b87850587128184161615615b0457615b046156c9565b505050929093029392505050565b600082615b2157615b216157d1565b600160ff1b821460001984141615615b3b57615b3b6156c9565b500590565b6000600160ff1b8201615b5557615b556156c9565b5060000390565b60008083128015600160ff1b850184121615615b7a57615b7a6156c9565b6001600160ff1b0384018313811615615b9557615b956156c9565b50500390565b600080821280156001600160ff1b0384900385131615615bbd57615bbd6156c9565b600160ff1b8390038412811615615bd657615bd66156c9565b50500190565b600082615beb57615beb6157d1565b500790565b6001600160a01b0383168152604081016120166020830184615745565b60008251615c1f818460208701615948565b9190910192915050565b602081526000611bfc602083018461597456fe7570646174654d756c7469706c6965727328616464726573732c75696e743235362c75696e74323536296164644d61726b657428616464726573732c75696e743235362c75696e7432353629a264697066735822122019859fecf959413cb4ba7c7bc6b4bcfa19e49dfbb07b5ed37233a211711f325964736f6c634300080d0033",
  "devdoc": {
    "custom:security-contact": "https://github.com/VenusProtocol/venus-protocol",
    "kind": "dev",
    "methods": {
      "acceptOwnership()": {
        "details": "The new owner accepts the ownership transfer."
      },
      "accrueInterest(address)": {
        "custom:error": "Throw MarketNotSupported if market is not supported",
        "params": {
          "vToken": "the market for which to distribute the income"
        }
      },
      "accrueInterestAndUpdateScore(address,address)": {
        "params": {
          "market": "the market for which to accrue interest and update score",
          "user": "the account address for which to accrue interest and update score"
        }
      },
      "addMarket(address,uint256,uint256)": {
        "custom:access": "Controlled by ACM",
        "custom:error": "Throw MarketAlreadyExists if market already existsThrow InvalidVToken if market is not valid",
        "custom:event": "Emits MarketAdded event",
        "params": {
          "borrowMultiplier": "the multiplier for borrow cap. It should be converted to 1e18",
          "market": "address of the market vToken",
          "supplyMultiplier": "the multiplier for supply cap. It should be converted to 1e18"
        }
      },
      "burn(address)": {
        "custom:access": "Controlled by ACM",
        "params": {
          "user": "the account address for which the prime token will be burned"
        }
      },
      "calculateAPR(address,address)": {
        "params": {
          "market": "the market for which to fetch the APR",
          "user": "the account for which to get the APR"
        },
        "returns": {
          "borrowAPR": "borrow APR of the user in BPS",
          "supplyAPR": "supply APR of the user in BPS"
        }
      },
      "claimInterest(address)": {
        "params": {
          "vToken": "the market for which claim the accrued interest"
        },
        "returns": {
          "_0": "amount the amount of tokens transferred to the user"
        }
      },
      "claimInterest(address,address)": {
        "params": {
          "user": "the user for which to claim the accrued interest",
          "vToken": "the market for which claim the accrued interest"
        },
        "returns": {
          "_0": "amount the amount of tokens transferred to the user"
        }
      },
      "claimTimeRemaining(address)": {
        "params": {
          "user": "the account address for which we are checking the remaining time"
        },
        "returns": {
          "_0": "timeRemaining the number of seconds the user needs to wait to claim prime token"
        }
      },
      "constructor": {
        "custom:oz-upgrades-unsafe-allow": "constructor"
      },
      "estimateAPR(address,address,uint256,uint256,uint256)": {
        "params": {
          "borrow": "hypothetical borrow amount",
          "market": "the market for which to fetch the APR",
          "supply": "hypothetical supply amount",
          "user": "the account for which to get the APR",
          "xvsStaked": "hypothetical staked XVS amount"
        },
        "returns": {
          "borrowAPR": "borrow APR of the user in BPS",
          "supplyAPR": "supply APR of the user in BPS"
        }
      },
      "getAllMarkets()": {
        "returns": {
          "_0": "an array of addresses representing all available markets"
        }
      },
      "getInterestAccrued(address,address)": {
        "params": {
          "user": "the account for which to get the accrued interest",
          "vToken": "the market for which to fetch the accrued interest"
        },
        "returns": {
          "_0": "interestAccrued the number of underlying tokens accrued by the user since the last accrual"
        }
      },
      "getPendingInterests(address)": {
        "params": {
          "user": "the account for which to get the accrued interests"
        },
        "returns": {
          "pendingInterests": "the number of underlying tokens accrued by the user for all markets"
        }
      },
      "initialize(address,address,uint256,uint128,uint128,address,address,address,address,address,uint256)": {
        "custom:error": "Throw InvalidAddress if any of the address is invalid",
        "params": {
          "_accessControlManager": "Address of AccessControlManager",
          "_alphaDenominator": "denominator of alpha. If alpha is 0.5 then denominator is 2. alpha is _alphaNumerator/_alphaDenominator. So, 0 < alpha <=1",
          "_alphaNumerator": "numerator of alpha. If alpha is 0.5 then numerator is 1. _alphaNumerator must be greater than _alphaDenominator and _alphaDenominator cannot be zero",
          "_comptroller": "Address of Comptroller",
          "_loopsLimit": "Maximum number of loops allowed in a single transaction",
          "_oracle": "Address of Oracle",
          "_primeLiquidityProvider": "Address of PrimeLiquidityProvider",
          "_protocolShareReserve": "Address of ProtocolShareReserve",
          "_xvsVault": "Address of XVSVault",
          "_xvsVaultPoolId": "Pool id of XVSVault",
          "_xvsVaultRewardToken": "Address of XVSVault reward token"
        }
      },
      "issue(bool,address[])": {
        "custom:access": "Controlled by ACM",
        "params": {
          "isIrrevocable": "are the tokens being issued",
          "users": "list of address to issue tokens to"
        }
      },
      "owner()": {
        "details": "Returns the address of the current owner."
      },
      "paused()": {
        "details": "Returns true if the contract is paused, and false otherwise."
      },
      "pendingOwner()": {
        "details": "Returns the address of the pending owner."
      },
      "renounceOwnership()": {
        "details": "Leaves the contract without owner. It will not be possible to call `onlyOwner` functions. Can only be called by the current owner. NOTE: Renouncing ownership will leave the contract without an owner, thereby disabling any functionality that is only available to the owner."
      },
      "setAccessControlManager(address)": {
        "custom:access": "Only Governance",
        "custom:event": "Emits NewAccessControlManager event",
        "details": "Admin function to set address of AccessControlManager",
        "params": {
          "accessControlManager_": "The new address of the AccessControlManager"
        }
      },
      "setLimit(uint256,uint256)": {
        "custom:access": "Controlled by ACM",
        "custom:error": "Throw InvalidLimit if any of the limit is less than total tokens minted",
        "custom:event": "Emits MintLimitsUpdated event",
        "params": {
          "_irrevocableLimit": "total number of irrevocable tokens that can be minted",
          "_revocableLimit": "total number of revocable tokens that can be minted"
        }
      },
      "togglePause()": {
        "custom:access": "Controlled by ACM"
      },
      "transferOwnership(address)": {
        "details": "Starts the ownership transfer of the contract to a new account. Replaces the pending transfer if there is one. Can only be called by the current owner."
      },
      "updateAlpha(uint128,uint128)": {
        "custom:access": "Controlled by ACM",
        "custom:event": "Emits AlphaUpdated event",
        "params": {
          "_alphaDenominator": "denominator of alpha. If alpha is 0.5 then denominator is 2",
          "_alphaNumerator": "numerator of alpha. If alpha is 0.5 then numerator is 1"
        }
      },
      "updateAssetsState(address,address)": {
        "custom:error": "Throw InvalidCaller if caller is not protocol share reserveThrow InvalidComptroller if comptroller is not validThrow MarketNotSupported if market is not supported",
        "custom:event": "Emits UpdatedAssetsState event",
        "params": {
          "_comptroller": "The address of the Comptroller whose income is distributed",
          "asset": "The address of the asset whose income is distributed"
        }
      },
      "updateMultipliers(address,uint256,uint256)": {
        "custom:access": "Controlled by ACM",
        "custom:error": "Throw MarketNotSupported if market is not supported",
        "custom:event": "Emits MultiplierUpdated event",
        "params": {
          "borrowMultiplier": "new borrow multiplier for the market, scaled by 1e18",
          "market": "address of the market vToken",
          "supplyMultiplier": "new supply multiplier for the market, scaled by 1e18"
        }
      },
      "updateScores(address[])": {
        "custom:error": "Throw NoScoreUpdatesRequired if no score updates are requiredThrow UserHasNoPrimeToken if user has no prime token",
        "custom:event": "Emits UserScoreUpdated event",
        "params": {
          "users": "accounts for which we need to update score"
        }
      },
      "xvsUpdated(address)": {
        "params": {
          "user": "the account address whose balance was updated"
        }
      }
    },
    "stateVariables": {
      "BLOCKS_PER_YEAR": {
        "custom:oz-upgrades-unsafe-allow": "state-variable-immutable"
      },
      "VBNB": {
        "custom:oz-upgrades-unsafe-allow": "state-variable-immutable"
      },
      "WBNB": {
        "custom:oz-upgrades-unsafe-allow": "state-variable-immutable"
      }
    },
    "version": 1
  },
  "userdoc": {
    "errors": {
      "AssetAlreadyExists()": [
        {
          "notice": "Error thrown when asset already exists"
        }
      ],
      "ExpTooLarge(int256)": [
        {
          "notice": "Thrown when exp is given too large of an argument"
        }
      ],
      "IneligibleToClaim()": [
        {
          "notice": "Error thrown when user is not eligible to claim prime token"
        }
      ],
      "InvalidAddress()": [
        {
          "notice": "Error thrown when invalid address is passed"
        }
      ],
      "InvalidAlphaArguments()": [
        {
          "notice": "Error thrown when invalid alpha arguments are passed"
        }
      ],
      "InvalidBlocksPerYear()": [
        {
          "notice": "Error thrown when blocks per year is passed as 0"
        }
      ],
      "InvalidCaller()": [
        {
          "notice": "Error thrown when msg.sender is not allowed to call the function"
        }
      ],
      "InvalidComptroller()": [
        {
          "notice": "Error thrown when comptroller is not valid"
        }
      ],
      "InvalidLimit()": [
        {
          "notice": "Error thrown when mint limit is reached"
        }
      ],
      "InvalidVToken()": [
        {
          "notice": "Error thrown when invalid vToken is passed"
        }
      ],
      "LnNonRealResult(int256)": [
        {
          "notice": "Thrown when the natural log would have returned a number outside of "
        }
      ],
      "LnTooLarge(int256)": [
        {
          "notice": "Thrown when the natural log function is given too large of an argument"
        }
      ],
      "MarketAlreadyExists()": [
        {
          "notice": "Error thrown when market already exists"
        }
      ],
      "MarketNotSupported()": [
        {
          "notice": "Error thrown when market is not supported"
        }
      ],
      "MaxLoopsLimitExceeded(uint256,uint256)": [
        {
          "notice": "Thrown an error on maxLoopsLimit exceeds for any loop"
        }
      ],
      "NoScoreUpdatesRequired()": [
        {
          "notice": "Error thrown when no score updates are required"
        }
      ],
      "Unauthorized(address,address,string)": [
        {
          "notice": "Thrown when the action is prohibited by AccessControlManager"
        }
      ],
      "UserHasNoPrimeToken()": [
        {
          "notice": "Error thrown when user has no prime token"
        }
      ],
      "WaitMoreTime()": [
        {
          "notice": "Error thrown when user needs to wait more time to claim prime token"
        }
      ]
    },
    "events": {
      "AlphaUpdated(uint128,uint128,uint128,uint128)": {
        "notice": "Emitted when alpha is updated"
      },
      "Burn(address)": {
        "notice": "Emitted when prime token is burned"
      },
      "InterestClaimed(address,address,uint256)": {
        "notice": "Emitted when interest is claimed"
      },
      "MarketAdded(address,uint256,uint256)": {
        "notice": "Emitted when a market is added to prime program"
      },
      "MaxLoopsLimitUpdated(uint256,uint256)": {
        "notice": "Emitted when max loops limit is set"
      },
      "Mint(address,bool)": {
        "notice": "Emitted when prime token is minted"
      },
      "MintLimitsUpdated(uint256,uint256,uint256,uint256)": {
        "notice": "Emitted when mint limits are updated"
      },
      "MultiplierUpdated(address,uint256,uint256,uint256,uint256)": {
        "notice": "Emitted when multiplier is updated"
      },
      "NewAccessControlManager(address,address)": {
        "notice": "Emitted when access control manager contract address is changed"
      },
      "TokenUpgraded(address)": {
        "notice": "Emitted when revocable token is upgraded to irrevocable token"
      },
      "UpdatedAssetsState(address,address)": {
        "notice": "Emitted asset state is update by protocol share reserve"
      },
      "UserScoreUpdated(address)": {
        "notice": "Emitted when user score is updated"
      }
    },
    "kind": "user",
    "methods": {
      "BLOCKS_PER_YEAR()": {
        "notice": "total blocks per year"
      },
      "MAXIMUM_XVS_CAP()": {
        "notice": "maximum XVS taken in account when calculating user score"
      },
      "MINIMUM_STAKED_XVS()": {
        "notice": "minimum amount of XVS user needs to stake to become a prime member"
      },
      "STAKING_PERIOD()": {
        "notice": "number of days user need to stake to claim prime token"
      },
      "VBNB()": {
        "notice": "address of VBNB contract"
      },
      "WBNB()": {
        "notice": "address of WBNB contract"
      },
      "accessControlManager()": {
        "notice": "Returns the address of the access control manager contract"
      },
      "accrueInterest(address)": {
        "notice": "Distributes income from market since last distribution"
      },
      "accrueInterestAndUpdateScore(address,address)": {
        "notice": "accrues interes and updates score for an user for a specific market"
      },
      "addMarket(address,uint256,uint256)": {
        "notice": "Add a market to prime program"
      },
      "alphaDenominator()": {
        "notice": "denominator of alpha. Ex: if alpha is 0.5 then this will be 2"
      },
      "alphaNumerator()": {
        "notice": "numberator of alpha. Ex: if alpha is 0.5 then this will be 1"
      },
      "burn(address)": {
        "notice": "For burning any prime token"
      },
      "calculateAPR(address,address)": {
        "notice": "Returns supply and borrow APR for user for a given market"
      },
      "claim()": {
        "notice": "For claiming prime token when staking period is completed"
      },
      "claimInterest(address)": {
        "notice": "For user to claim boosted yield"
      },
      "claimInterest(address,address)": {
        "notice": "For user to claim boosted yield"
      },
      "claimTimeRemaining(address)": {
        "notice": "fetch the numbers of seconds remaining for staking period to complete"
      },
      "comptroller()": {
        "notice": "address of core pool comptroller contract"
      },
      "estimateAPR(address,address,uint256,uint256,uint256)": {
        "notice": "Returns supply and borrow APR for estimated supply, borrow and XVS staked"
      },
      "getAllMarkets()": {
        "notice": "Retrieves an array of all available markets"
      },
      "getInterestAccrued(address,address)": {
        "notice": "Returns boosted interest accrued for a user"
      },
      "getPendingInterests(address)": {
        "notice": "Returns boosted pending interest accrued for a user for all markets"
      },
      "initialize(address,address,uint256,uint128,uint128,address,address,address,address,address,uint256)": {
        "notice": "Prime initializer"
      },
      "interests(address,address)": {
        "notice": "vToken to user to user index"
      },
      "irrevocableLimit()": {
        "notice": "Indicates maximum irrevocable tokens that can be minted"
      },
      "isScoreUpdated(uint256,address)": {
        "notice": "mapping to check if a account's score was updated in the round"
      },
      "issue(bool,address[])": {
        "notice": "Directly issue prime tokens to users"
      },
      "markets(address)": {
        "notice": "vToken to market configuration"
      },
      "nextScoreUpdateRoundId()": {
        "notice": "unique id for next round"
      },
      "oracle()": {
        "notice": "The address of ResilientOracle contract"
      },
      "pendingScoreUpdates()": {
        "notice": "total number of accounts whose score is yet to be updated"
      },
      "primeLiquidityProvider()": {
        "notice": "The address of PLP contract"
      },
      "protocolShareReserve()": {
        "notice": "address of protocol share reserve contract"
      },
      "revocableLimit()": {
        "notice": "Indicates maximum revocable tokens that can be minted"
      },
      "setAccessControlManager(address)": {
        "notice": "Sets the address of AccessControlManager"
      },
      "setLimit(uint256,uint256)": {
        "notice": "Set limits for total tokens that can be minted"
      },
      "stakedAt(address)": {
        "notice": "Tracks when prime token eligible users started staking for claiming prime token"
      },
      "togglePause()": {
        "notice": "To pause or unpause claiming of interest"
      },
      "tokens(address)": {
        "notice": "Mapping to get prime token's metadata"
      },
      "totalIrrevocable()": {
        "notice": "Tracks total irrevocable tokens minted"
      },
      "totalRevocable()": {
        "notice": "Tracks total revocable tokens minted"
      },
      "totalScoreUpdatesRequired()": {
        "notice": "total number of accounts whose score needs to be updated"
      },
      "unreleasedPLPIncome(address)": {
        "notice": "unreleased income from PLP that's already distributed to prime holders"
      },
      "unreleasedPSRIncome(address)": {
        "notice": "unreleased income from PSR that's already distributed to prime holders"
      },
      "updateAlpha(uint128,uint128)": {
        "notice": "Update value of alpha"
      },
      "updateAssetsState(address,address)": {
        "notice": "Callback by ProtocolShareReserve to update assets state when funds are released to this contract"
      },
      "updateMultipliers(address,uint256,uint256)": {
        "notice": "Update multipliers for a market"
      },
      "updateScores(address[])": {
        "notice": "Update total score of multiple users and market"
      },
      "vTokenForAsset(address)": {
        "notice": "mapping used to find if an asset is part of prime markets"
      },
      "xvsUpdated(address)": {
        "notice": "Executed by XVSVault whenever user's XVSVault balance changes"
      }
    },
    "version": 1
  },
  "storageLayout": {
    "storage": [
      {
        "astId": 244,
        "contract": "contracts/Tokens/Prime/Prime.sol:Prime",
        "label": "_initialized",
        "offset": 0,
        "slot": "0",
        "type": "t_uint8"
      },
      {
        "astId": 247,
        "contract": "contracts/Tokens/Prime/Prime.sol:Prime",
        "label": "_initializing",
        "offset": 1,
        "slot": "0",
        "type": "t_bool"
      },
      {
        "astId": 1503,
        "contract": "contracts/Tokens/Prime/Prime.sol:Prime",
        "label": "__gap",
        "offset": 0,
        "slot": "1",
        "type": "t_array(t_uint256)50_storage"
      },
      {
        "astId": 116,
        "contract": "contracts/Tokens/Prime/Prime.sol:Prime",
        "label": "_owner",
        "offset": 0,
        "slot": "51",
        "type": "t_address"
      },
      {
        "astId": 236,
        "contract": "contracts/Tokens/Prime/Prime.sol:Prime",
        "label": "__gap",
        "offset": 0,
        "slot": "52",
        "type": "t_array(t_uint256)49_storage"
      },
      {
        "astId": 25,
        "contract": "contracts/Tokens/Prime/Prime.sol:Prime",
        "label": "_pendingOwner",
        "offset": 0,
        "slot": "101",
        "type": "t_address"
      },
      {
        "astId": 104,
        "contract": "contracts/Tokens/Prime/Prime.sol:Prime",
        "label": "__gap",
        "offset": 0,
        "slot": "102",
        "type": "t_array(t_uint256)49_storage"
      },
      {
        "astId": 3132,
        "contract": "contracts/Tokens/Prime/Prime.sol:Prime",
        "label": "_accessControlManager",
        "offset": 0,
        "slot": "151",
        "type": "t_contract(IAccessControlManagerV8)3316"
      },
      {
        "astId": 3137,
        "contract": "contracts/Tokens/Prime/Prime.sol:Prime",
        "label": "__gap",
        "offset": 0,
        "slot": "152",
        "type": "t_array(t_uint256)49_storage"
      },
      {
        "astId": 427,
        "contract": "contracts/Tokens/Prime/Prime.sol:Prime",
        "label": "_paused",
        "offset": 0,
        "slot": "201",
        "type": "t_bool"
      },
      {
        "astId": 532,
        "contract": "contracts/Tokens/Prime/Prime.sol:Prime",
        "label": "__gap",
        "offset": 0,
        "slot": "202",
        "type": "t_array(t_uint256)49_storage"
      },
      {
        "astId": 3321,
        "contract": "contracts/Tokens/Prime/Prime.sol:Prime",
        "label": "maxLoopsLimit",
        "offset": 0,
        "slot": "251",
        "type": "t_uint256"
      },
      {
        "astId": 3326,
        "contract": "contracts/Tokens/Prime/Prime.sol:Prime",
        "label": "__gap",
        "offset": 0,
        "slot": "252",
        "type": "t_array(t_uint256)49_storage"
      },
      {
        "astId": 7287,
        "contract": "contracts/Tokens/Prime/Prime.sol:Prime",
        "label": "tokens",
        "offset": 0,
        "slot": "301",
        "type": "t_mapping(t_address,t_struct(Token)7229_storage)"
      },
      {
        "astId": 7290,
        "contract": "contracts/Tokens/Prime/Prime.sol:Prime",
        "label": "totalIrrevocable",
        "offset": 0,
        "slot": "302",
        "type": "t_uint256"
      },
      {
        "astId": 7293,
        "contract": "contracts/Tokens/Prime/Prime.sol:Prime",
        "label": "totalRevocable",
        "offset": 0,
        "slot": "303",
        "type": "t_uint256"
      },
      {
        "astId": 7296,
        "contract": "contracts/Tokens/Prime/Prime.sol:Prime",
        "label": "revocableLimit",
        "offset": 0,
        "slot": "304",
        "type": "t_uint256"
      },
      {
        "astId": 7299,
        "contract": "contracts/Tokens/Prime/Prime.sol:Prime",
        "label": "irrevocableLimit",
        "offset": 0,
        "slot": "305",
        "type": "t_uint256"
      },
      {
        "astId": 7304,
        "contract": "contracts/Tokens/Prime/Prime.sol:Prime",
        "label": "stakedAt",
        "offset": 0,
        "slot": "306",
        "type": "t_mapping(t_address,t_uint256)"
      },
      {
        "astId": 7310,
        "contract": "contracts/Tokens/Prime/Prime.sol:Prime",
        "label": "markets",
        "offset": 0,
        "slot": "307",
        "type": "t_mapping(t_address,t_struct(Market)7240_storage)"
      },
      {
        "astId": 7318,
        "contract": "contracts/Tokens/Prime/Prime.sol:Prime",
        "label": "interests",
        "offset": 0,
        "slot": "308",
        "type": "t_mapping(t_address,t_mapping(t_address,t_struct(Interest)7247_storage))"
      },
      {
        "astId": 7322,
        "contract": "contracts/Tokens/Prime/Prime.sol:Prime",
        "label": "allMarkets",
        "offset": 0,
        "slot": "309",
        "type": "t_array(t_address)dyn_storage"
      },
      {
        "astId": 7325,
        "contract": "contracts/Tokens/Prime/Prime.sol:Prime",
        "label": "alphaNumerator",
        "offset": 0,
        "slot": "310",
        "type": "t_uint128"
      },
      {
        "astId": 7328,
        "contract": "contracts/Tokens/Prime/Prime.sol:Prime",
        "label": "alphaDenominator",
        "offset": 16,
        "slot": "310",
        "type": "t_uint128"
      },
      {
        "astId": 7331,
        "contract": "contracts/Tokens/Prime/Prime.sol:Prime",
        "label": "xvsVault",
        "offset": 0,
        "slot": "311",
        "type": "t_address"
      },
      {
        "astId": 7334,
        "contract": "contracts/Tokens/Prime/Prime.sol:Prime",
        "label": "xvsVaultRewardToken",
        "offset": 0,
        "slot": "312",
        "type": "t_address"
      },
      {
        "astId": 7337,
        "contract": "contracts/Tokens/Prime/Prime.sol:Prime",
        "label": "xvsVaultPoolId",
        "offset": 0,
        "slot": "313",
        "type": "t_uint256"
      },
      {
        "astId": 7344,
        "contract": "contracts/Tokens/Prime/Prime.sol:Prime",
        "label": "isScoreUpdated",
        "offset": 0,
        "slot": "314",
        "type": "t_mapping(t_uint256,t_mapping(t_address,t_bool))"
      },
      {
        "astId": 7347,
        "contract": "contracts/Tokens/Prime/Prime.sol:Prime",
        "label": "nextScoreUpdateRoundId",
        "offset": 0,
        "slot": "315",
        "type": "t_uint256"
      },
      {
        "astId": 7350,
        "contract": "contracts/Tokens/Prime/Prime.sol:Prime",
        "label": "totalScoreUpdatesRequired",
        "offset": 0,
        "slot": "316",
        "type": "t_uint256"
      },
      {
        "astId": 7353,
        "contract": "contracts/Tokens/Prime/Prime.sol:Prime",
        "label": "pendingScoreUpdates",
        "offset": 0,
        "slot": "317",
        "type": "t_uint256"
      },
      {
        "astId": 7358,
        "contract": "contracts/Tokens/Prime/Prime.sol:Prime",
        "label": "vTokenForAsset",
        "offset": 0,
        "slot": "318",
        "type": "t_mapping(t_address,t_address)"
      },
      {
        "astId": 7361,
        "contract": "contracts/Tokens/Prime/Prime.sol:Prime",
        "label": "protocolShareReserve",
        "offset": 0,
        "slot": "319",
        "type": "t_address"
      },
      {
        "astId": 7364,
        "contract": "contracts/Tokens/Prime/Prime.sol:Prime",
        "label": "comptroller",
        "offset": 0,
        "slot": "320",
        "type": "t_address"
      },
      {
        "astId": 7369,
        "contract": "contracts/Tokens/Prime/Prime.sol:Prime",
        "label": "unreleasedPSRIncome",
        "offset": 0,
        "slot": "321",
        "type": "t_mapping(t_address,t_uint256)"
      },
      {
        "astId": 7374,
        "contract": "contracts/Tokens/Prime/Prime.sol:Prime",
        "label": "unreleasedPLPIncome",
        "offset": 0,
        "slot": "322",
        "type": "t_mapping(t_address,t_uint256)"
      },
      {
        "astId": 7377,
        "contract": "contracts/Tokens/Prime/Prime.sol:Prime",
        "label": "primeLiquidityProvider",
        "offset": 0,
        "slot": "323",
        "type": "t_address"
      },
      {
        "astId": 7381,
        "contract": "contracts/Tokens/Prime/Prime.sol:Prime",
        "label": "oracle",
        "offset": 0,
        "slot": "324",
        "type": "t_contract(ResilientOracleInterface)3415"
      },
      {
        "astId": 7386,
        "contract": "contracts/Tokens/Prime/Prime.sol:Prime",
        "label": "__gap",
        "offset": 0,
        "slot": "325",
        "type": "t_array(t_uint256)25_storage"
      }
    ],
    "types": {
      "t_address": {
        "encoding": "inplace",
        "label": "address",
        "numberOfBytes": "20"
      },
      "t_array(t_address)dyn_storage": {
        "base": "t_address",
        "encoding": "dynamic_array",
        "label": "address[]",
        "numberOfBytes": "32"
      },
      "t_array(t_uint256)25_storage": {
        "base": "t_uint256",
        "encoding": "inplace",
        "label": "uint256[25]",
        "numberOfBytes": "800"
      },
      "t_array(t_uint256)49_storage": {
        "base": "t_uint256",
        "encoding": "inplace",
        "label": "uint256[49]",
        "numberOfBytes": "1568"
      },
      "t_array(t_uint256)50_storage": {
        "base": "t_uint256",
        "encoding": "inplace",
        "label": "uint256[50]",
        "numberOfBytes": "1600"
      },
      "t_bool": {
        "encoding": "inplace",
        "label": "bool",
        "numberOfBytes": "1"
      },
      "t_contract(IAccessControlManagerV8)3316": {
        "encoding": "inplace",
        "label": "contract IAccessControlManagerV8",
        "numberOfBytes": "20"
      },
      "t_contract(ResilientOracleInterface)3415": {
        "encoding": "inplace",
        "label": "contract ResilientOracleInterface",
        "numberOfBytes": "20"
      },
      "t_mapping(t_address,t_address)": {
        "encoding": "mapping",
        "key": "t_address",
        "label": "mapping(address => address)",
        "numberOfBytes": "32",
        "value": "t_address"
      },
      "t_mapping(t_address,t_bool)": {
        "encoding": "mapping",
        "key": "t_address",
        "label": "mapping(address => bool)",
        "numberOfBytes": "32",
        "value": "t_bool"
      },
      "t_mapping(t_address,t_mapping(t_address,t_struct(Interest)7247_storage))": {
        "encoding": "mapping",
        "key": "t_address",
        "label": "mapping(address => mapping(address => struct PrimeStorageV1.Interest))",
        "numberOfBytes": "32",
        "value": "t_mapping(t_address,t_struct(Interest)7247_storage)"
      },
      "t_mapping(t_address,t_struct(Interest)7247_storage)": {
        "encoding": "mapping",
        "key": "t_address",
        "label": "mapping(address => struct PrimeStorageV1.Interest)",
        "numberOfBytes": "32",
        "value": "t_struct(Interest)7247_storage"
      },
      "t_mapping(t_address,t_struct(Market)7240_storage)": {
        "encoding": "mapping",
        "key": "t_address",
        "label": "mapping(address => struct PrimeStorageV1.Market)",
        "numberOfBytes": "32",
        "value": "t_struct(Market)7240_storage"
      },
      "t_mapping(t_address,t_struct(Token)7229_storage)": {
        "encoding": "mapping",
        "key": "t_address",
        "label": "mapping(address => struct PrimeStorageV1.Token)",
        "numberOfBytes": "32",
        "value": "t_struct(Token)7229_storage"
      },
      "t_mapping(t_address,t_uint256)": {
        "encoding": "mapping",
        "key": "t_address",
        "label": "mapping(address => uint256)",
        "numberOfBytes": "32",
        "value": "t_uint256"
      },
      "t_mapping(t_uint256,t_mapping(t_address,t_bool))": {
        "encoding": "mapping",
        "key": "t_uint256",
        "label": "mapping(uint256 => mapping(address => bool))",
        "numberOfBytes": "32",
        "value": "t_mapping(t_address,t_bool)"
      },
      "t_struct(Interest)7247_storage": {
        "encoding": "inplace",
        "label": "struct PrimeStorageV1.Interest",
        "members": [
          {
            "astId": 7242,
            "contract": "contracts/Tokens/Prime/Prime.sol:Prime",
            "label": "accrued",
            "offset": 0,
            "slot": "0",
            "type": "t_uint256"
          },
          {
            "astId": 7244,
            "contract": "contracts/Tokens/Prime/Prime.sol:Prime",
            "label": "score",
            "offset": 0,
            "slot": "1",
            "type": "t_uint256"
          },
          {
            "astId": 7246,
            "contract": "contracts/Tokens/Prime/Prime.sol:Prime",
            "label": "rewardIndex",
            "offset": 0,
            "slot": "2",
            "type": "t_uint256"
          }
        ],
        "numberOfBytes": "96"
      },
      "t_struct(Market)7240_storage": {
        "encoding": "inplace",
        "label": "struct PrimeStorageV1.Market",
        "members": [
          {
            "astId": 7231,
            "contract": "contracts/Tokens/Prime/Prime.sol:Prime",
            "label": "supplyMultiplier",
            "offset": 0,
            "slot": "0",
            "type": "t_uint256"
          },
          {
            "astId": 7233,
            "contract": "contracts/Tokens/Prime/Prime.sol:Prime",
            "label": "borrowMultiplier",
            "offset": 0,
            "slot": "1",
            "type": "t_uint256"
          },
          {
            "astId": 7235,
            "contract": "contracts/Tokens/Prime/Prime.sol:Prime",
            "label": "rewardIndex",
            "offset": 0,
            "slot": "2",
            "type": "t_uint256"
          },
          {
            "astId": 7237,
            "contract": "contracts/Tokens/Prime/Prime.sol:Prime",
            "label": "sumOfMembersScore",
            "offset": 0,
            "slot": "3",
            "type": "t_uint256"
          },
          {
            "astId": 7239,
            "contract": "contracts/Tokens/Prime/Prime.sol:Prime",
            "label": "exists",
            "offset": 0,
            "slot": "4",
            "type": "t_bool"
          }
        ],
        "numberOfBytes": "160"
      },
      "t_struct(Token)7229_storage": {
        "encoding": "inplace",
        "label": "struct PrimeStorageV1.Token",
        "members": [
          {
            "astId": 7226,
            "contract": "contracts/Tokens/Prime/Prime.sol:Prime",
            "label": "exists",
            "offset": 0,
            "slot": "0",
            "type": "t_bool"
          },
          {
            "astId": 7228,
            "contract": "contracts/Tokens/Prime/Prime.sol:Prime",
            "label": "isIrrevocable",
            "offset": 1,
            "slot": "0",
            "type": "t_bool"
          }
        ],
        "numberOfBytes": "32"
      },
      "t_uint128": {
        "encoding": "inplace",
        "label": "uint128",
        "numberOfBytes": "16"
      },
      "t_uint256": {
        "encoding": "inplace",
        "label": "uint256",
        "numberOfBytes": "32"
      },
      "t_uint8": {
        "encoding": "inplace",
        "label": "uint8",
        "numberOfBytes": "1"
      }
    }
  }
}