{
  "address": "0xB52Ba229A9E3e3b223AF06c20dcBBA2BF67fC216",
  "abi": [
    {
      "inputs": [],
      "name": "AlreadyInSelectedPool",
      "type": "error"
    },
    {
      "inputs": [],
      "name": "ArrayLengthMismatch",
      "type": "error"
    },
    {
      "inputs": [],
      "name": "BorrowNotAllowedInPool",
      "type": "error"
    },
    {
      "inputs": [],
      "name": "EmptyPoolLabel",
      "type": "error"
    },
    {
      "inputs": [],
      "name": "ExecuteFlashLoanFailed",
      "type": "error"
    },
    {
      "inputs": [],
      "name": "FailedToCreateDebtPosition",
      "type": "error"
    },
    {
      "inputs": [],
      "name": "FlashLoanNotEnabled",
      "type": "error"
    },
    {
      "inputs": [
        {
          "internalType": "uint96",
          "name": "poolId",
          "type": "uint96"
        }
      ],
      "name": "InactivePool",
      "type": "error"
    },
    {
      "inputs": [],
      "name": "IncompatibleBorrowedAssets",
      "type": "error"
    },
    {
      "inputs": [],
      "name": "InvalidAmount",
      "type": "error"
    },
    {
      "inputs": [],
      "name": "InvalidFlashLoanParams",
      "type": "error"
    },
    {
      "inputs": [],
      "name": "InvalidMode",
      "type": "error"
    },
    {
      "inputs": [],
      "name": "InvalidOperationForCorePool",
      "type": "error"
    },
    {
      "inputs": [
        {
          "internalType": "enum WeightFunction",
          "name": "strategy",
          "type": "uint8"
        }
      ],
      "name": "InvalidWeightingStrategy",
      "type": "error"
    },
    {
      "inputs": [
        {
          "internalType": "uint256",
          "name": "errorCode",
          "type": "uint256"
        },
        {
          "internalType": "uint256",
          "name": "shortfall",
          "type": "uint256"
        }
      ],
      "name": "LiquidityCheckFailed",
      "type": "error"
    },
    {
      "inputs": [
        {
          "internalType": "uint96",
          "name": "poolId",
          "type": "uint96"
        },
        {
          "internalType": "address",
          "name": "vToken",
          "type": "address"
        }
      ],
      "name": "MarketAlreadyListed",
      "type": "error"
    },
    {
      "inputs": [],
      "name": "MarketConfigNotFound",
      "type": "error"
    },
    {
      "inputs": [],
      "name": "MarketNotListedInCorePool",
      "type": "error"
    },
    {
      "inputs": [],
      "name": "NoAssetsRequested",
      "type": "error"
    },
    {
      "inputs": [
        {
          "internalType": "uint96",
          "name": "poolId",
          "type": "uint96"
        }
      ],
      "name": "PoolDoesNotExist",
      "type": "error"
    },
    {
      "inputs": [
        {
          "internalType": "uint96",
          "name": "poolId",
          "type": "uint96"
        },
        {
          "internalType": "address",
          "name": "vToken",
          "type": "address"
        }
      ],
      "name": "PoolMarketNotFound",
      "type": "error"
    },
    {
      "inputs": [
        {
          "internalType": "address",
          "name": "sender",
          "type": "address"
        }
      ],
      "name": "SenderNotAuthorizedForFlashLoan",
      "type": "error"
    },
    {
      "anonymous": false,
      "inputs": [
        {
          "indexed": true,
          "internalType": "contract VToken",
          "name": "vToken",
          "type": "address"
        },
        {
          "indexed": true,
          "internalType": "address",
          "name": "borrower",
          "type": "address"
        },
        {
          "indexed": false,
          "internalType": "uint256",
          "name": "venusDelta",
          "type": "uint256"
        },
        {
          "indexed": false,
          "internalType": "uint256",
          "name": "venusBorrowIndex",
          "type": "uint256"
        }
      ],
      "name": "DistributedBorrowerVenus",
      "type": "event"
    },
    {
      "anonymous": false,
      "inputs": [
        {
          "indexed": true,
          "internalType": "contract VToken",
          "name": "vToken",
          "type": "address"
        },
        {
          "indexed": true,
          "internalType": "address",
          "name": "supplier",
          "type": "address"
        },
        {
          "indexed": false,
          "internalType": "uint256",
          "name": "venusDelta",
          "type": "uint256"
        },
        {
          "indexed": false,
          "internalType": "uint256",
          "name": "venusSupplyIndex",
          "type": "uint256"
        }
      ],
      "name": "DistributedSupplierVenus",
      "type": "event"
    },
    {
      "anonymous": false,
      "inputs": [
        {
          "indexed": false,
          "internalType": "uint256",
          "name": "amount",
          "type": "uint256"
        }
      ],
      "name": "DistributedVAIVaultVenus",
      "type": "event"
    },
    {
      "anonymous": false,
      "inputs": [
        {
          "indexed": false,
          "internalType": "uint256",
          "name": "error",
          "type": "uint256"
        },
        {
          "indexed": false,
          "internalType": "uint256",
          "name": "info",
          "type": "uint256"
        },
        {
          "indexed": false,
          "internalType": "uint256",
          "name": "detail",
          "type": "uint256"
        }
      ],
      "name": "Failure",
      "type": "event"
    },
    {
      "anonymous": false,
      "inputs": [
        {
          "indexed": true,
          "internalType": "contract VToken",
          "name": "vToken",
          "type": "address"
        },
        {
          "indexed": true,
          "internalType": "address",
          "name": "account",
          "type": "address"
        }
      ],
      "name": "MarketEntered",
      "type": "event"
    },
    {
      "anonymous": false,
      "inputs": [
        {
          "indexed": true,
          "internalType": "address",
          "name": "recipient",
          "type": "address"
        },
        {
          "indexed": false,
          "internalType": "uint256",
          "name": "amount",
          "type": "uint256"
        }
      ],
      "name": "VenusGranted",
      "type": "event"
    },
    {
      "anonymous": false,
      "inputs": [
        {
          "indexed": true,
          "internalType": "address",
          "name": "holder",
          "type": "address"
        },
        {
          "indexed": false,
          "internalType": "uint256",
          "name": "amount",
          "type": "uint256"
        }
      ],
      "name": "VenusSeized",
      "type": "event"
    },
    {
      "inputs": [
        {
          "internalType": "address",
          "name": "recipient",
          "type": "address"
        },
        {
          "internalType": "uint256",
          "name": "amount",
          "type": "uint256"
        }
      ],
      "name": "_grantXVS",
      "outputs": [],
      "stateMutability": "nonpayable",
      "type": "function"
    },
    {
      "inputs": [
        {
          "internalType": "address",
          "name": "",
          "type": "address"
        },
        {
          "internalType": "uint256",
          "name": "",
          "type": "uint256"
        }
      ],
      "name": "accountAssets",
      "outputs": [
        {
          "internalType": "contract VToken",
          "name": "",
          "type": "address"
        }
      ],
      "stateMutability": "view",
      "type": "function"
    },
    {
      "inputs": [
        {
          "internalType": "address",
          "name": "market",
          "type": "address"
        },
        {
          "internalType": "enum Action",
          "name": "action",
          "type": "uint8"
        }
      ],
      "name": "actionPaused",
      "outputs": [
        {
          "internalType": "bool",
          "name": "",
          "type": "bool"
        }
      ],
      "stateMutability": "view",
      "type": "function"
    },
    {
      "inputs": [],
      "name": "admin",
      "outputs": [
        {
          "internalType": "address",
          "name": "",
          "type": "address"
        }
      ],
      "stateMutability": "view",
      "type": "function"
    },
    {
      "inputs": [
        {
          "internalType": "uint256",
          "name": "",
          "type": "uint256"
        }
      ],
      "name": "allMarkets",
      "outputs": [
        {
          "internalType": "contract VToken",
          "name": "",
          "type": "address"
        }
      ],
      "stateMutability": "view",
      "type": "function"
    },
    {
      "inputs": [
        {
          "internalType": "address",
          "name": "",
          "type": "address"
        },
        {
          "internalType": "address",
          "name": "",
          "type": "address"
        }
      ],
      "name": "approvedDelegates",
      "outputs": [
        {
          "internalType": "bool",
          "name": "",
          "type": "bool"
        }
      ],
      "stateMutability": "view",
      "type": "function"
    },
    {
      "inputs": [
        {
          "internalType": "address",
          "name": "",
          "type": "address"
        }
      ],
      "name": "authorizedFlashLoan",
      "outputs": [
        {
          "internalType": "bool",
          "name": "",
          "type": "bool"
        }
      ],
      "stateMutability": "view",
      "type": "function"
    },
    {
      "inputs": [],
      "name": "borrowCapGuardian",
      "outputs": [
        {
          "internalType": "address",
          "name": "",
          "type": "address"
        }
      ],
      "stateMutability": "view",
      "type": "function"
    },
    {
      "inputs": [
        {
          "internalType": "address",
          "name": "",
          "type": "address"
        }
      ],
      "name": "borrowCaps",
      "outputs": [
        {
          "internalType": "uint256",
          "name": "",
          "type": "uint256"
        }
      ],
      "stateMutability": "view",
      "type": "function"
    },
    {
      "inputs": [
        {
          "internalType": "address[]",
          "name": "holders",
          "type": "address[]"
        },
        {
          "internalType": "contract VToken[]",
          "name": "vTokens",
          "type": "address[]"
        },
        {
          "internalType": "bool",
          "name": "borrowers",
          "type": "bool"
        },
        {
          "internalType": "bool",
          "name": "suppliers",
          "type": "bool"
        },
        {
          "internalType": "bool",
          "name": "collateral",
          "type": "bool"
        }
      ],
      "name": "claimVenus",
      "outputs": [],
      "stateMutability": "nonpayable",
      "type": "function"
    },
    {
      "inputs": [
        {
          "internalType": "address",
          "name": "holder",
          "type": "address"
        },
        {
          "internalType": "contract VToken[]",
          "name": "vTokens",
          "type": "address[]"
        }
      ],
      "name": "claimVenus",
      "outputs": [],
      "stateMutability": "nonpayable",
      "type": "function"
    },
    {
      "inputs": [
        {
          "internalType": "address",
          "name": "holder",
          "type": "address"
        }
      ],
      "name": "claimVenus",
      "outputs": [],
      "stateMutability": "nonpayable",
      "type": "function"
    },
    {
      "inputs": [
        {
          "internalType": "address[]",
          "name": "holders",
          "type": "address[]"
        },
        {
          "internalType": "contract VToken[]",
          "name": "vTokens",
          "type": "address[]"
        },
        {
          "internalType": "bool",
          "name": "borrowers",
          "type": "bool"
        },
        {
          "internalType": "bool",
          "name": "suppliers",
          "type": "bool"
        }
      ],
      "name": "claimVenus",
      "outputs": [],
      "stateMutability": "nonpayable",
      "type": "function"
    },
    {
      "inputs": [
        {
          "internalType": "address",
          "name": "holder",
          "type": "address"
        }
      ],
      "name": "claimVenusAsCollateral",
      "outputs": [],
      "stateMutability": "nonpayable",
      "type": "function"
    },
    {
      "inputs": [],
      "name": "closeFactorMantissa",
      "outputs": [
        {
          "internalType": "uint256",
          "name": "",
          "type": "uint256"
        }
      ],
      "stateMutability": "view",
      "type": "function"
    },
    {
      "inputs": [],
      "name": "comptrollerImplementation",
      "outputs": [
        {
          "internalType": "address",
          "name": "",
          "type": "address"
        }
      ],
      "stateMutability": "view",
      "type": "function"
    },
    {
      "inputs": [],
      "name": "comptrollerLens",
      "outputs": [
        {
          "internalType": "contract ComptrollerLensInterface",
          "name": "",
          "type": "address"
        }
      ],
      "stateMutability": "view",
      "type": "function"
    },
    {
      "inputs": [],
      "name": "corePoolId",
      "outputs": [
        {
          "internalType": "uint96",
          "name": "",
          "type": "uint96"
        }
      ],
      "stateMutability": "view",
      "type": "function"
    },
    {
      "inputs": [
        {
          "internalType": "uint96",
          "name": "poolId",
          "type": "uint96"
        },
        {
          "internalType": "address",
          "name": "vToken",
          "type": "address"
        }
      ],
      "name": "getPoolMarketIndex",
      "outputs": [
        {
          "internalType": "PoolMarketId",
          "name": "",
          "type": "bytes32"
        }
      ],
      "stateMutability": "pure",
      "type": "function"
    },
    {
      "inputs": [],
      "name": "getXVSAddress",
      "outputs": [
        {
          "internalType": "address",
          "name": "",
          "type": "address"
        }
      ],
      "stateMutability": "view",
      "type": "function"
    },
    {
      "inputs": [],
      "name": "getXVSVTokenAddress",
      "outputs": [
        {
          "internalType": "address",
          "name": "",
          "type": "address"
        }
      ],
      "stateMutability": "view",
      "type": "function"
    },
    {
      "inputs": [
        {
          "internalType": "address",
          "name": "",
          "type": "address"
        }
      ],
      "name": "isForcedLiquidationEnabled",
      "outputs": [
        {
          "internalType": "bool",
          "name": "",
          "type": "bool"
        }
      ],
      "stateMutability": "view",
      "type": "function"
    },
    {
      "inputs": [
        {
          "internalType": "address",
          "name": "user",
          "type": "address"
        },
        {
          "internalType": "address",
          "name": "market",
          "type": "address"
        }
      ],
      "name": "isForcedLiquidationEnabledForUser",
      "outputs": [
        {
          "internalType": "bool",
          "name": "",
          "type": "bool"
        }
      ],
      "stateMutability": "view",
      "type": "function"
    },
    {
      "inputs": [],
      "name": "lastPoolId",
      "outputs": [
        {
          "internalType": "uint96",
          "name": "",
          "type": "uint96"
        }
      ],
      "stateMutability": "view",
      "type": "function"
    },
    {
      "inputs": [],
      "name": "liquidatorContract",
      "outputs": [
        {
          "internalType": "address",
          "name": "",
          "type": "address"
        }
      ],
      "stateMutability": "view",
      "type": "function"
    },
    {
      "inputs": [],
      "name": "maxAssets",
      "outputs": [
        {
          "internalType": "uint256",
          "name": "",
          "type": "uint256"
        }
      ],
      "stateMutability": "view",
      "type": "function"
    },
    {
      "inputs": [],
      "name": "minReleaseAmount",
      "outputs": [
        {
          "internalType": "uint256",
          "name": "",
          "type": "uint256"
        }
      ],
      "stateMutability": "view",
      "type": "function"
    },
    {
      "inputs": [],
      "name": "mintVAIGuardianPaused",
      "outputs": [
        {
          "internalType": "bool",
          "name": "",
          "type": "bool"
        }
      ],
      "stateMutability": "view",
      "type": "function"
    },
    {
      "inputs": [
        {
          "internalType": "address",
          "name": "",
          "type": "address"
        }
      ],
      "name": "mintedVAIs",
      "outputs": [
        {
          "internalType": "uint256",
          "name": "",
          "type": "uint256"
        }
      ],
      "stateMutability": "view",
      "type": "function"
    },
    {
      "inputs": [],
      "name": "oracle",
      "outputs": [
        {
          "internalType": "contract ResilientOracleInterface",
          "name": "",
          "type": "address"
        }
      ],
      "stateMutability": "view",
      "type": "function"
    },
    {
      "inputs": [],
      "name": "pauseGuardian",
      "outputs": [
        {
          "internalType": "address",
          "name": "",
          "type": "address"
        }
      ],
      "stateMutability": "view",
      "type": "function"
    },
    {
      "inputs": [],
      "name": "pendingAdmin",
      "outputs": [
        {
          "internalType": "address",
          "name": "",
          "type": "address"
        }
      ],
      "stateMutability": "view",
      "type": "function"
    },
    {
      "inputs": [],
      "name": "pendingComptrollerImplementation",
      "outputs": [
        {
          "internalType": "address",
          "name": "",
          "type": "address"
        }
      ],
      "stateMutability": "view",
      "type": "function"
    },
    {
      "inputs": [
        {
          "internalType": "uint96",
          "name": "",
          "type": "uint96"
        }
      ],
      "name": "pools",
      "outputs": [
        {
          "internalType": "string",
          "name": "label",
          "type": "string"
        },
        {
          "internalType": "bool",
          "name": "isActive",
          "type": "bool"
        }
      ],
      "stateMutability": "view",
      "type": "function"
    },
    {
      "inputs": [],
      "name": "prime",
      "outputs": [
        {
          "internalType": "contract IPrime",
          "name": "",
          "type": "address"
        }
      ],
      "stateMutability": "view",
      "type": "function"
    },
    {
      "inputs": [],
      "name": "protocolPaused",
      "outputs": [
        {
          "internalType": "bool",
          "name": "",
          "type": "bool"
        }
      ],
      "stateMutability": "view",
      "type": "function"
    },
    {
      "inputs": [],
      "name": "releaseStartBlock",
      "outputs": [
        {
          "internalType": "uint256",
          "name": "",
          "type": "uint256"
        }
      ],
      "stateMutability": "view",
      "type": "function"
    },
    {
      "inputs": [],
      "name": "repayVAIGuardianPaused",
      "outputs": [
        {
          "internalType": "bool",
          "name": "",
          "type": "bool"
        }
      ],
      "stateMutability": "view",
      "type": "function"
    },
    {
      "inputs": [
        {
          "internalType": "address[]",
          "name": "holders",
          "type": "address[]"
        },
        {
          "internalType": "address",
          "name": "recipient",
          "type": "address"
        }
      ],
      "name": "seizeVenus",
      "outputs": [
        {
          "internalType": "uint256",
          "name": "",
          "type": "uint256"
        }
      ],
      "stateMutability": "nonpayable",
      "type": "function"
    },
    {
      "inputs": [
        {
          "internalType": "address",
          "name": "",
          "type": "address"
        }
      ],
      "name": "supplyCaps",
      "outputs": [
        {
          "internalType": "uint256",
          "name": "",
          "type": "uint256"
        }
      ],
      "stateMutability": "view",
      "type": "function"
    },
    {
      "inputs": [],
      "name": "treasuryAddress",
      "outputs": [
        {
          "internalType": "address",
          "name": "",
          "type": "address"
        }
      ],
      "stateMutability": "view",
      "type": "function"
    },
    {
      "inputs": [],
      "name": "treasuryGuardian",
      "outputs": [
        {
          "internalType": "address",
          "name": "",
          "type": "address"
        }
      ],
      "stateMutability": "view",
      "type": "function"
    },
    {
      "inputs": [],
      "name": "treasuryPercent",
      "outputs": [
        {
          "internalType": "uint256",
          "name": "",
          "type": "uint256"
        }
      ],
      "stateMutability": "view",
      "type": "function"
    },
    {
      "inputs": [
        {
          "internalType": "address",
          "name": "",
          "type": "address"
        }
      ],
      "name": "userPoolId",
      "outputs": [
        {
          "internalType": "uint96",
          "name": "",
          "type": "uint96"
        }
      ],
      "stateMutability": "view",
      "type": "function"
    },
    {
      "inputs": [],
      "name": "vaiController",
      "outputs": [
        {
          "internalType": "contract VAIControllerInterface",
          "name": "",
          "type": "address"
        }
      ],
      "stateMutability": "view",
      "type": "function"
    },
    {
      "inputs": [],
      "name": "vaiMintRate",
      "outputs": [
        {
          "internalType": "uint256",
          "name": "",
          "type": "uint256"
        }
      ],
      "stateMutability": "view",
      "type": "function"
    },
    {
      "inputs": [],
      "name": "vaiVaultAddress",
      "outputs": [
        {
          "internalType": "address",
          "name": "",
          "type": "address"
        }
      ],
      "stateMutability": "view",
      "type": "function"
    },
    {
      "inputs": [
        {
          "internalType": "address",
          "name": "",
          "type": "address"
        }
      ],
      "name": "venusAccrued",
      "outputs": [
        {
          "internalType": "uint256",
          "name": "",
          "type": "uint256"
        }
      ],
      "stateMutability": "view",
      "type": "function"
    },
    {
      "inputs": [
        {
          "internalType": "address",
          "name": "",
          "type": "address"
        }
      ],
      "name": "venusBorrowSpeeds",
      "outputs": [
        {
          "internalType": "uint256",
          "name": "",
          "type": "uint256"
        }
      ],
      "stateMutability": "view",
      "type": "function"
    },
    {
      "inputs": [
        {
          "internalType": "address",
          "name": "",
          "type": "address"
        }
      ],
      "name": "venusBorrowState",
      "outputs": [
        {
          "internalType": "uint224",
          "name": "index",
          "type": "uint224"
        },
        {
          "internalType": "uint32",
          "name": "block",
          "type": "uint32"
        }
      ],
      "stateMutability": "view",
      "type": "function"
    },
    {
      "inputs": [
        {
          "internalType": "address",
          "name": "",
          "type": "address"
        },
        {
          "internalType": "address",
          "name": "",
          "type": "address"
        }
      ],
      "name": "venusBorrowerIndex",
      "outputs": [
        {
          "internalType": "uint256",
          "name": "",
          "type": "uint256"
        }
      ],
      "stateMutability": "view",
      "type": "function"
    },
    {
      "inputs": [],
      "name": "venusInitialIndex",
      "outputs": [
        {
          "internalType": "uint224",
          "name": "",
          "type": "uint224"
        }
      ],
      "stateMutability": "view",
      "type": "function"
    },
    {
      "inputs": [
        {
          "internalType": "address",
          "name": "",
          "type": "address"
        },
        {
          "internalType": "address",
          "name": "",
          "type": "address"
        }
      ],
      "name": "venusSupplierIndex",
      "outputs": [
        {
          "internalType": "uint256",
          "name": "",
          "type": "uint256"
        }
      ],
      "stateMutability": "view",
      "type": "function"
    },
    {
      "inputs": [
        {
          "internalType": "address",
          "name": "",
          "type": "address"
        }
      ],
      "name": "venusSupplySpeeds",
      "outputs": [
        {
          "internalType": "uint256",
          "name": "",
          "type": "uint256"
        }
      ],
      "stateMutability": "view",
      "type": "function"
    },
    {
      "inputs": [
        {
          "internalType": "address",
          "name": "",
          "type": "address"
        }
      ],
      "name": "venusSupplyState",
      "outputs": [
        {
          "internalType": "uint224",
          "name": "index",
          "type": "uint224"
        },
        {
          "internalType": "uint32",
          "name": "block",
          "type": "uint32"
        }
      ],
      "stateMutability": "view",
      "type": "function"
    },
    {
      "inputs": [],
      "name": "venusVAIVaultRate",
      "outputs": [
        {
          "internalType": "uint256",
          "name": "",
          "type": "uint256"
        }
      ],
      "stateMutability": "view",
      "type": "function"
    }
  ],
  "transactionHash": "0xc12d08b8905d0fc323bc1f9d996bb8d64af7a6f570db1cb38e8d8743326d9232",
  "args": [],
  "numDeployments": 3,
  "solcInputHash": "58e06aab0c6518e2e9631b1ca558fe1f",
  "bytecode": "0x6080604052348015600e575f80fd5b50612a968061001c5f395ff3fe608060405234801561000f575f80fd5b5060043610610367575f3560e01c806394b2294b116101c9578063c7ee005e116100fe578063e37d4b791161009e578063ededbae611610079578063ededbae6146108a2578063f445d703146108b3578063f851a440146108e0578063fa6331d8146108f2575f80fd5b8063e37d4b791461084f578063e85a296014610886578063e875544614610899575f80fd5b8063d463654c116100d9578063d463654c14610800578063dce1544914610807578063dcfbc0c71461081a578063e0f6123d1461082d575f80fd5b8063c7ee005e146107c7578063d09c54ba146107da578063d3270f99146107ed575f80fd5b8063b8324c7c11610169578063bec04f7211610144578063bec04f721461076d578063bf32442d14610776578063c5b4db5514610787578063c5f956af146107b4575f80fd5b8063b8324c7c146106e0578063bb82aa5e1461073b578063bbb8864a1461074e575f80fd5b8063a657e579116101a4578063a657e57914610694578063a7604b41146106a7578063adcd5fb9146106ba578063b2eafc39146106cd575f80fd5b806394b2294b1461065757806396c99064146106605780639bb27d6214610681575f80fd5b806352d84d1e1161029f5780637858524d1161023f57806386df31ee1161021a57806386df31ee146105f05780638a7dc165146106035780638c1ac18a146106225780639254f5e514610644575f80fd5b80637858524d146105b75780637d172bd5146105ca5780637dc0d1d0146105dd575f80fd5b806370bf66f01161027a57806370bf66f014610547578063719f701b1461055c578063737690991461056557806376551383146105a5575f80fd5b806352d84d1e146105025780635dd3fc9d14610515578063655f072514610534575f80fd5b8063267822471161030a57806341a18d2c116102e557806341a18d2c14610493578063425fad58146104bd5780634a584432146104d05780634d99c776146104ef575f80fd5b806326782247146104545780632bc7e29e146104675780634088c73e14610486575f80fd5b80630db4b4e5116103455780630db4b4e5146103d057806310b98338146103d957806321af45691461041657806324a3d62214610441575f80fd5b806302c3bcbb1461036b57806304ef9d581461039d57806308e0225c146103a6575b5f80fd5b61038a6103793660046123f5565b60276020525f908152604090205481565b6040519081526020015b60405180910390f35b61038a60225481565b61038a6103b4366004612410565b601360209081525f928352604080842090915290825290205481565b61038a601d5481565b6104066103e7366004612410565b602c60209081525f928352604080842090915290825290205460ff1681565b6040519015158152602001610394565b601e54610429906001600160a01b031681565b6040516001600160a01b039091168152602001610394565b600a54610429906001600160a01b031681565b600154610429906001600160a01b031681565b61038a6104753660046123f5565b60166020525f908152604090205481565b6018546104069060ff1681565b61038a6104a1366004612410565b601260209081525f928352604080842090915290825290205481565b6018546104069062010000900460ff1681565b61038a6104de3660046123f5565b601f6020525f908152604090205481565b61038a6104fd366004612462565b6108fb565b61042961051036600461247c565b61091c565b61038a6105233660046123f5565b602b6020525f908152604090205481565b61038a610542366004612493565b610944565b61055a610555366004612661565b610b4c565b005b61038a601c5481565b61058d6105733660046123f5565b60356020525f90815260409020546001600160601b031681565b6040516001600160601b039091168152602001610394565b60185461040690610100900460ff1681565b61055a6105c53660046123f5565b610bfb565b601b54610429906001600160a01b031681565b600454610429906001600160a01b031681565b61055a6105fe3660046126f9565b610cba565b61038a6106113660046123f5565b60146020525f908152604090205481565b6104066106303660046123f5565b602d6020525f908152604090205460ff1681565b601554610429906001600160a01b031681565b61038a60075481565b61067361066e366004612746565b610d20565b60405161039492919061278d565b602554610429906001600160a01b031681565b60375461058d906001600160601b031681565b61055a6106b53660046127b0565b610dc4565b61055a6106c83660046123f5565b610e5f565b602054610429906001600160a01b031681565b6107176106ee3660046123f5565b60106020525f90815260409020546001600160e01b03811690600160e01b900463ffffffff1682565b604080516001600160e01b03909316835263ffffffff909116602083015201610394565b600254610429906001600160a01b031681565b61038a61075c3660046123f5565b602a6020525f908152604090205481565b61038a60175481565b6033546001600160a01b0316610429565b61079c6a0c097ce7bc90715b34b9f160241b81565b6040516001600160e01b039091168152602001610394565b602154610429906001600160a01b031681565b603154610429906001600160a01b031681565b61055a6107e83660046127da565b610ec4565b602654610429906001600160a01b031681565b61058d5f81565b6104296108153660046127b0565b610ed7565b600354610429906001600160a01b031681565b61040661083b3660046123f5565b60386020525f908152604090205460ff1681565b61071761085d3660046123f5565b60116020525f90815260409020546001600160e01b03811690600160e01b900463ffffffff1682565b61040661089436600461285e565b610f0b565b61038a60055481565b6034546001600160a01b0316610429565b6104066108c1366004612410565b603260209081525f928352604080842090915290825290205460ff1681565b5f54610429906001600160a01b031681565b61038a601a5481565b6001600160a01b031960a083901b166001600160a01b038216175b92915050565b600d818154811061092b575f80fd5b5f918252602090912001546001600160a01b0316905081565b5f6109836040518060400160405280601d81526020017f7365697a6556656e757328616464726573735b5d2c6164647265737329000000815250610f4f565b604080516020808602828101820190935285825285925f92610a1a9290918991869182918501908490808284375f9201919091525050600d805460408051602080840282018101909252828152945091925090830182828015610a0d57602002820191905f5260205f20905b81546001600160a01b031681526001909101906020018083116109ef575b5050505050600180610ffc565b5f5b82811015610adf575f878783818110610a3757610a3761288d565b9050602002016020810190610a4c91906123f5565b6001600160a01b0381165f908152601460205260409020549091508015610a9257610a7781856128b5565b6001600160a01b0383165f9081526014602052604081205593505b816001600160a01b03167fa82ad8dba07d5fde98bd3f0ef9b20c6426de9d477bb7647d46e0c7e50c7dc1b282604051610acd91815260200190565b60405180910390a25050600101610a1c565b508015610b4157603354610afd906001600160a01b03168583611154565b836001600160a01b03167fd7fe674cac9eee3998fe3cbd7a6f93c3bc70509d97ec1550a59364be6438147e82604051610b3891815260200190565b60405180910390a25b9150505b9392505050565b8451610b5a86868686610ffc565b5f5b81811015610bf2575f878281518110610b7757610b7761288d565b602002602001015190505f610b8f825f805f806111b7565b6001600160a01b0385165f9081526014602052604081208054908290559194509092509050610bc08483858a611264565b90508015610be3576001600160a01b0384165f9081526014602052604090208190555b50505050806001019050610b5c565b50505050505050565b6040805160018082528183019092525f916020808301908036833701905050905081815f81518110610c2f57610c2f61288d565b60200260200101906001600160a01b031690816001600160a01b031681525050610cb681600d805480602002602001604051908101604052809291908181526020018280548015610ca757602002820191905f5260205f20905b81546001600160a01b03168152600190910190602001808311610c89575b50505050506001806001610b4c565b5050565b6040805160018082528183019092525f916020808301908036833701905050905082815f81518110610cee57610cee61288d565b60200260200101906001600160a01b031690816001600160a01b031681525050610d1b8183600180610ec4565b505050565b60366020525f9081526040902080548190610d3a906128c8565b80601f0160208091040260200160405190810160405280929190818152602001828054610d66906128c8565b8015610db15780601f10610d8857610100808354040283529160200191610db1565b820191905f5260205f20905b815481529060010190602001808311610d9457829003601f168201915b5050506002909301549192505060ff1682565b610dcc611512565b5f610dd983835f80611264565b90508015610e175760405162461bcd60e51b81526020600482015260066024820152656e6f2078767360d01b60448201526064015b60405180910390fd5b826001600160a01b03167fd7fe674cac9eee3998fe3cbd7a6f93c3bc70509d97ec1550a59364be6438147e83604051610e5291815260200190565b60405180910390a2505050565b610ec181600d805480602002602001604051908101604052809291908181526020018280548015610eb757602002820191905f5260205f20905b81546001600160a01b03168152600190910190602001808311610e99575b5050505050610cba565b50565b610ed1848484845f610b4c565b50505050565b6008602052815f5260405f208181548110610ef0575f80fd5b5f918252602090912001546001600160a01b03169150829050565b6001600160a01b0382165f90815260296020526040812081836008811115610f3557610f35612900565b815260208101919091526040015f205460ff169392505050565b6028546040516318c5e8ab60e01b81526001600160a01b03909116906318c5e8ab90610f819033908590600401612914565b602060405180830381865afa158015610f9c573d5f803e3d5ffd5b505050506040513d601f19601f82011682018060405250810190610fc09190612937565b610ec15760405162461bcd60e51b815260206004820152600d60248201526c1858d8d95cdcc819195b9a5959609a1b6044820152606401610e0e565b835183515f9190825b8181101561114a575f8782815181106110205761102061288d565b6020026020010151905061103b6110368261155e565b611580565b86156110f8575f6040518060200160405280836001600160a01b031663aa5af0fd6040518163ffffffff1660e01b8152600401602060405180830381865afa158015611089573d5f803e3d5ffd5b505050506040513d601f19601f820116820180604052508101906110ad9190612952565b905290506110bb82826115c5565b5f95505b848610156110f6576110eb828b88815181106110dd576110dd61288d565b60200260200101518361175b565b8560010195506110bf565b505b851561114157611107816118df565b5f94505b8385101561114157611136818a87815181106111295761112961288d565b6020026020010151611a4b565b84600101945061110b565b50600101611005565b5050505050505050565b6040516001600160a01b038316602482015260448101829052610d1b90849063a9059cbb60e01b906064015b60408051601f198184030181529190526020810180516001600160e01b03166001600160e01b031990931692909217909152611be9565b602654604051637bd48c1f60e11b81525f91829182918291829182916001600160a01b039091169063f7a9183e906111fd9030908f908f908f908f908f90600401612969565b606060405180830381865afa158015611218573d5f803e3d5ffd5b505050506040513d601f19601f8201168201806040525081019061123c91906129c4565b92509250925082601481111561125457611254612900565b9b919a5098509650505050505050565b5f73ef044206db68e40520bfa82d45419d498b4bc7bf6001600160a01b038616148015906112af5750737589dd3355dae848fdbf75044a3495351655cb1a6001600160a01b03861614155b80156112d857507333df7a7f6d44307e1e5f3b15975b47515e5524c06001600160a01b03861614155b801561130157507324e77e5b74b30b026e9996e4bc3329c881e249686001600160a01b03861614155b61133b5760405162461bcd60e51b815260206004820152600b60248201526a109b1858dadb1a5cdd195960aa1b6044820152606401610e0e565b6033546001600160a01b03168415806113b857506040516370a0823160e01b81523060048201526001600160a01b038216906370a0823190602401602060405180830381865afa158015611391573d5f803e3d5ffd5b505050506040513d601f19601f820116820180604052508101906113b59190612952565b85115b156113c6578491505061150a565b835f036113ea576113e16001600160a01b0382168787611154565b5f91505061150a565b826114225760405162461bcd60e51b815260206004820152600860248201526718985b9adc9d5c1d60c21b6044820152606401610e0e565b6034546001600160a01b039081169061143e908316825f611cbc565b6114526001600160a01b0383168288611cbc565b5f6040516323323e0360e01b81526001600160a01b038981166004830152602482018990528316906323323e03906044016020604051808303815f875af115801561149f573d5f803e3d5ffd5b505050506040513d601f19601f820116820180604052508101906114c39190612952565b146115045760405162461bcd60e51b815260206004820152601160248201527036b4b73a103132b430b6331032b93937b960791b6044820152606401610e0e565b5f925050505b949350505050565b5f546001600160a01b0316331461155c5760405162461bcd60e51b815260206004820152600e60248201526d37b7363c9030b236b4b71031b0b760911b6044820152606401610e0e565b565b5f60095f61156c5f856108fb565b81526020019081526020015f209050919050565b805460ff16610ec15760405162461bcd60e51b81526020600482015260116024820152701b585c9ad95d081b9bdd081b1a5cdd1959607a1b6044820152606401610e0e565b6001600160a01b0382165f908152601160209081526040808320602a90925282205490916115f1611dcf565b83549091505f906116129063ffffffff80851691600160e01b900416611e08565b9050801580159061162257508215155b15611731575f611691876001600160a01b03166347bd37186040518163ffffffff1660e01b8152600401602060405180830381865afa158015611667573d5f803e3d5ffd5b505050506040513d601f19601f8201168201806040525081019061168b9190612952565b87611e41565b90505f61169e8386611e5e565b90505f825f036116bc5760405180602001604052805f8152506116c6565b6116c68284611e9f565b604080516020810190915288546001600160e01b0316815290915061170f906116ef9083611ee2565b516040805180820190915260038152620c8c8d60ea1b6020820152611f0b565b6001600160e01b0316600160e01b63ffffffff87160217875550611753915050565b80156117535783546001600160e01b0316600160e01b63ffffffff8416021784555b505050505050565b601b546001600160a01b03161561177457611774611f39565b6001600160a01b038381165f9081526011602090815260408083205460138352818420948716845293909152902080546001600160e01b039092169081905590801580156117d057506a0c097ce7bc90715b34b9f160241b8210155b156117e657506a0c097ce7bc90715b34b9f160241b5b5f60405180602001604052806117fc8585611e08565b90526040516395dd919360e01b81526001600160a01b0387811660048301529192505f916118559161184f918a16906395dd919390602401602060405180830381865afa158015611667573d5f803e3d5ffd5b836120c8565b6001600160a01b0387165f9081526014602052604090205490915061187a90826120ef565b6001600160a01b038781165f818152601460209081526040918290209490945580518581529384018890529092918a16917f837bdc11fca9f17ce44167944475225a205279b17e88c791c3b1f66f354668fb910160405180910390a350505050505050565b6001600160a01b0381165f908152601060209081526040808320602b909252822054909161190b611dcf565b83549091505f9061192c9063ffffffff80851691600160e01b900416611e08565b9050801580159061193c57508215155b15611a22575f856001600160a01b03166318160ddd6040518163ffffffff1660e01b8152600401602060405180830381865afa15801561197e573d5f803e3d5ffd5b505050506040513d601f19601f820116820180604052508101906119a29190612952565b90505f6119af8386611e5e565b90505f825f036119cd5760405180602001604052805f8152506119d7565b6119d78284611e9f565b604080516020810190915288546001600160e01b03168152909150611a00906116ef9083611ee2565b6001600160e01b0316600160e01b63ffffffff87160217875550611a44915050565b8015611a445783546001600160e01b0316600160e01b63ffffffff8416021784555b5050505050565b601b546001600160a01b031615611a6457611a64611f39565b6001600160a01b038281165f9081526010602090815260408083205460128352818420948616845293909152902080546001600160e01b03909216908190559080158015611ac057506a0c097ce7bc90715b34b9f160241b8210155b15611ad657506a0c097ce7bc90715b34b9f160241b5b5f6040518060200160405280611aec8585611e08565b90526040516370a0823160e01b81526001600160a01b0386811660048301529192505f91611b6091908816906370a0823190602401602060405180830381865afa158015611b3c573d5f803e3d5ffd5b505050506040513d601f19601f8201168201806040525081019061184f9190612952565b6001600160a01b0386165f90815260146020526040902054909150611b8590826120ef565b6001600160a01b038681165f818152601460209081526040918290209490945580518581529384018890529092918916917ffa9d964d891991c113b49e3db1932abd6c67263d387119707aafdd6c4010a3a9910160405180910390a3505050505050565b5f611c3d826040518060400160405280602081526020017f5361666545524332303a206c6f772d6c6576656c2063616c6c206661696c6564815250856001600160a01b03166121249092919063ffffffff16565b905080515f1480611c5d575080806020019051810190611c5d9190612937565b610d1b5760405162461bcd60e51b815260206004820152602a60248201527f5361666545524332303a204552433230206f7065726174696f6e20646964206e6044820152691bdd081cdd58d8d9595960b21b6064820152608401610e0e565b801580611d345750604051636eb1769f60e11b81523060048201526001600160a01b03838116602483015284169063dd62ed3e90604401602060405180830381865afa158015611d0e573d5f803e3d5ffd5b505050506040513d601f19601f82011682018060405250810190611d329190612952565b155b611d9f5760405162461bcd60e51b815260206004820152603660248201527f5361666545524332303a20617070726f76652066726f6d206e6f6e2d7a65726f60448201527520746f206e6f6e2d7a65726f20616c6c6f77616e636560501b6064820152608401610e0e565b6040516001600160a01b038316602482015260448101829052610d1b90849063095ea7b360e01b90606401611180565b5f611e034360405180604001604052806011815260200170626c6f636b2023203e203332206269747360781b815250612132565b905090565b5f610b458383604051806040016040528060158152602001747375627472616374696f6e20756e646572666c6f7760581b815250612159565b5f610b45611e5784670de0b6b3a7640000611e5e565b8351612187565b5f610b4583836040518060400160405280601781526020017f6d756c7469706c69636174696f6e206f766572666c6f770000000000000000008152506121b9565b60408051602081019091525f81526040518060200160405280611ed9611ed3866a0c097ce7bc90715b34b9f160241b611e5e565b85612187565b90529392505050565b60408051602081019091525f81526040518060200160405280611ed9855f0151855f01516120ef565b5f81600160e01b8410611f315760405162461bcd60e51b8152600401610e0e91906129ef565b509192915050565b601c541580611f495750601c5443105b15611f5057565b6033546040516370a0823160e01b81523060048201526001600160a01b03909116905f9082906370a0823190602401602060405180830381865afa158015611f9a573d5f803e3d5ffd5b505050506040513d601f19601f82011682018060405250810190611fbe9190612952565b9050805f03611fcb575050565b5f80611fd943601c54611e08565b90505f611fe8601a5483611e5e565b9050808410611ff957809250611ffd565b8392505b601d5483101561200e575050505050565b43601c55601b5461202c906001600160a01b03878116911685611154565b6040518381527ff6d4b8f74d85a6e2d7a50225957b8a6cfec69ad92f5905627260541aa0a5565d9060200160405180910390a1601b5f9054906101000a90046001600160a01b03166001600160a01b031663faa1809e6040518163ffffffff1660e01b81526004015f604051808303815f87803b1580156120ab575f80fd5b505af11580156120bd573d5f803e3d5ffd5b505050505050505050565b5f6a0c097ce7bc90715b34b9f160241b6120e584845f0151611e5e565b610b459190612a01565b5f610b458383604051806040016040528060118152602001706164646974696f6e206f766572666c6f7760781b815250612212565b606061150a84845f85612242565b5f816401000000008410611f315760405162461bcd60e51b8152600401610e0e91906129ef565b5f818484111561217c5760405162461bcd60e51b8152600401610e0e91906129ef565b5061150a8385612a20565b5f610b4583836040518060400160405280600e81526020016d646976696465206279207a65726f60901b815250612319565b5f8315806121c5575082155b156121d157505f610b45565b5f6121dc8486612a33565b9050836121e98683612a01565b1483906122095760405162461bcd60e51b8152600401610e0e91906129ef565b50949350505050565b5f8061221e84866128b5565b905082858210156122095760405162461bcd60e51b8152600401610e0e91906129ef565b6060824710156122a35760405162461bcd60e51b815260206004820152602660248201527f416464726573733a20696e73756666696369656e742062616c616e636520666f6044820152651c8818d85b1b60d21b6064820152608401610e0e565b5f80866001600160a01b031685876040516122be9190612a4a565b5f6040518083038185875af1925050503d805f81146122f8576040519150601f19603f3d011682016040523d82523d5f602084013e6122fd565b606091505b509150915061230e87838387612344565b979650505050505050565b5f81836123395760405162461bcd60e51b8152600401610e0e91906129ef565b5061150a8385612a01565b606083156123b25782515f036123ab576001600160a01b0385163b6123ab5760405162461bcd60e51b815260206004820152601d60248201527f416464726573733a2063616c6c20746f206e6f6e2d636f6e74726163740000006044820152606401610e0e565b508161150a565b61150a83838151156123c75781518083602001fd5b8060405162461bcd60e51b8152600401610e0e91906129ef565b6001600160a01b0381168114610ec1575f80fd5b5f60208284031215612405575f80fd5b8135610b45816123e1565b5f8060408385031215612421575f80fd5b823561242c816123e1565b9150602083013561243c816123e1565b809150509250929050565b80356001600160601b038116811461245d575f80fd5b919050565b5f8060408385031215612473575f80fd5b61242c83612447565b5f6020828403121561248c575f80fd5b5035919050565b5f805f604084860312156124a5575f80fd5b833567ffffffffffffffff808211156124bc575f80fd5b818601915086601f8301126124cf575f80fd5b8135818111156124dd575f80fd5b8760208260051b85010111156124f1575f80fd5b60209283019550935050840135612507816123e1565b809150509250925092565b634e487b7160e01b5f52604160045260245ffd5b604051601f8201601f1916810167ffffffffffffffff8111828210171561254f5761254f612512565b604052919050565b5f67ffffffffffffffff82111561257057612570612512565b5060051b60200190565b5f82601f830112612589575f80fd5b8135602061259e61259983612557565b612526565b8083825260208201915060208460051b8701019350868411156125bf575f80fd5b602086015b848110156125e45780356125d7816123e1565b83529183019183016125c4565b509695505050505050565b5f82601f8301126125fe575f80fd5b8135602061260e61259983612557565b8083825260208201915060208460051b87010193508684111561262f575f80fd5b602086015b848110156125e4578035612647816123e1565b8352918301918301612634565b8015158114610ec1575f80fd5b5f805f805f60a08688031215612675575f80fd5b853567ffffffffffffffff8082111561268c575f80fd5b61269889838a0161257a565b965060208801359150808211156126ad575f80fd5b506126ba888289016125ef565b94505060408601356126cb81612654565b925060608601356126db81612654565b915060808601356126eb81612654565b809150509295509295909350565b5f806040838503121561270a575f80fd5b8235612715816123e1565b9150602083013567ffffffffffffffff811115612730575f80fd5b61273c858286016125ef565b9150509250929050565b5f60208284031215612756575f80fd5b610b4582612447565b5f81518084528060208401602086015e5f602082860101526020601f19601f83011685010191505092915050565b604081525f61279f604083018561275f565b905082151560208301529392505050565b5f80604083850312156127c1575f80fd5b82356127cc816123e1565b946020939093013593505050565b5f805f80608085870312156127ed575f80fd5b843567ffffffffffffffff80821115612804575f80fd5b6128108883890161257a565b95506020870135915080821115612825575f80fd5b50612832878288016125ef565b935050604085013561284381612654565b9150606085013561285381612654565b939692955090935050565b5f806040838503121561286f575f80fd5b823561287a816123e1565b915060208301356009811061243c575f80fd5b634e487b7160e01b5f52603260045260245ffd5b634e487b7160e01b5f52601160045260245ffd5b80820180821115610916576109166128a1565b600181811c908216806128dc57607f821691505b6020821081036128fa57634e487b7160e01b5f52602260045260245ffd5b50919050565b634e487b7160e01b5f52602160045260245ffd5b6001600160a01b03831681526040602082018190525f9061150a9083018461275f565b5f60208284031215612947575f80fd5b8151610b4581612654565b5f60208284031215612962575f80fd5b5051919050565b6001600160a01b038781168252868116602083015285166040820152606081018490526080810183905260c08101600283106129b357634e487b7160e01b5f52602160045260245ffd5b8260a0830152979650505050505050565b5f805f606084860312156129d6575f80fd5b8351925060208401519150604084015190509250925092565b602081525f610b45602083018461275f565b5f82612a1b57634e487b7160e01b5f52601260045260245ffd5b500490565b81810381811115610916576109166128a1565b8082028115828204841417610916576109166128a1565b5f82518060208501845e5f92019182525091905056fea2646970667358221220b8cdc86a62b7e9fe821dbc4159b8ce2c7bb537c593cce1ab92b9b67e8bba3cb364736f6c63430008190033",
  "devdoc": {
    "author": "Venus",
    "details": "This facet contains all the methods related to the reward functionality",
    "events": {
      "Failure(uint256,uint256,uint256)": {
        "details": "`error` corresponds to enum Error; `info` corresponds to enum FailureInfo, and `detail` is an arbitrary contract-specific code that enables us to report opaque error codes from upgradeable contracts.*"
      }
    },
    "kind": "dev",
    "methods": {
      "_grantXVS(address,uint256)": {
        "details": "Allows the contract admin to transfer XVS to any recipient based on the recipient's shortfall      Note: If there is not enough XVS, we do not perform the transfer all",
        "params": {
          "amount": "The amount of XVS to (possibly) transfer",
          "recipient": "The address of the recipient to transfer XVS to"
        }
      },
      "actionPaused(address,uint8)": {
        "params": {
          "action": "Action id",
          "market": "vToken address"
        }
      },
      "claimVenus(address)": {
        "params": {
          "holder": "The address to claim XVS for"
        }
      },
      "claimVenus(address,address[])": {
        "params": {
          "holder": "The address to claim XVS for",
          "vTokens": "The list of markets to claim XVS in"
        }
      },
      "claimVenus(address[],address[],bool,bool)": {
        "params": {
          "borrowers": "Whether or not to claim XVS earned by borrowing",
          "holders": "The addresses to claim XVS for",
          "suppliers": "Whether or not to claim XVS earned by supplying",
          "vTokens": "The list of markets to claim XVS in"
        }
      },
      "claimVenus(address[],address[],bool,bool,bool)": {
        "params": {
          "borrowers": "Whether or not to claim XVS earned by borrowing",
          "collateral": "Whether or not to use XVS earned as collateral, only takes effect when the holder has a shortfall",
          "holders": "The addresses to claim XVS for",
          "suppliers": "Whether or not to claim XVS earned by supplying",
          "vTokens": "The list of markets to claim XVS in"
        }
      },
      "claimVenusAsCollateral(address)": {
        "params": {
          "holder": "The address to claim XVS for"
        }
      },
      "getPoolMarketIndex(uint96,address)": {
        "details": "Computes a unique key for a (poolId, market) pair used in the `_poolMarkets` mapping - For the core pool (`poolId == 0`), this results in the address being left-padded to 32 bytes,   maintaining backward compatibility with legacy mappings - For other pools, packs the `poolId` and `market` address into a single `bytes32` key,   The first 96 bits are used for the `poolId`, and the remaining 160 bits for the `market` address",
        "params": {
          "poolId": "The ID of the pool",
          "vToken": "The address of the market (vToken)"
        },
        "returns": {
          "_0": "PoolMarketId The `bytes32` key that uniquely represents the (poolId, vToken) pair"
        }
      },
      "getXVSAddress()": {
        "returns": {
          "_0": "The address of XVS token"
        }
      },
      "getXVSVTokenAddress()": {
        "returns": {
          "_0": "The address of XVS vToken"
        }
      },
      "seizeVenus(address[],address)": {
        "details": "Seize XVS tokens from the specified holders and transfer to recipient",
        "params": {
          "holders": "Addresses of the XVS holders",
          "recipient": "Address of the XVS token recipient"
        },
        "returns": {
          "_0": "The total amount of XVS tokens seized and transferred to recipient"
        }
      }
    },
    "title": "RewardFacet",
    "version": 1
  },
  "userdoc": {
    "errors": {
      "AlreadyInSelectedPool()": [
        {
          "notice": "Thrown when You are already in the selected pool."
        }
      ],
      "ArrayLengthMismatch()": [
        {
          "notice": "Thrown when input array lengths do not match"
        }
      ],
      "BorrowNotAllowedInPool()": [
        {
          "notice": "Thrown when borrowing is not allowed in the selected pool for a given market."
        }
      ],
      "EmptyPoolLabel()": [
        {
          "notice": "Thrown when the pool label is empty"
        }
      ],
      "InactivePool(uint96)": [
        {
          "notice": "Thrown when attempting to interact with an inactive pool"
        }
      ],
      "IncompatibleBorrowedAssets()": [
        {
          "notice": "Thrown when One or more of your assets are not compatible with the selected pool."
        }
      ],
      "InvalidOperationForCorePool()": [
        {
          "notice": "Thrown when trying to call pool-specific methods on the Core Pool"
        }
      ],
      "InvalidWeightingStrategy(uint8)": [
        {
          "notice": "Thrown when an invalid weighting strategy is provided"
        }
      ],
      "LiquidityCheckFailed(uint256,uint256)": [
        {
          "notice": "Thrown when Switching to this pool would fail the liquidity check or lead to liquidation."
        }
      ],
      "MarketAlreadyListed(uint96,address)": [
        {
          "notice": "Thrown when a vToken is already listed in the specified pool"
        }
      ],
      "MarketConfigNotFound()": [
        {
          "notice": "Thrown when market is not set in the _poolMarkets mapping"
        }
      ],
      "MarketNotListedInCorePool()": [
        {
          "notice": "Thrown when market trying to add in a pool is not listed in the core pool"
        }
      ],
      "PoolDoesNotExist(uint96)": [
        {
          "notice": "Thrown when a given pool ID does not exist"
        }
      ],
      "PoolMarketNotFound(uint96,address)": [
        {
          "notice": "Thrown when trying to remove a market that is not listed in the given pool."
        }
      ]
    },
    "events": {
      "DistributedBorrowerVenus(address,address,uint256,uint256)": {
        "notice": "Emitted when XVS is distributed to a borrower"
      },
      "DistributedSupplierVenus(address,address,uint256,uint256)": {
        "notice": "Emitted when XVS is distributed to a supplier"
      },
      "DistributedVAIVaultVenus(uint256)": {
        "notice": "Emitted when XVS is distributed to VAI Vault"
      },
      "MarketEntered(address,address)": {
        "notice": "Emitted when an account enters a market"
      },
      "VenusGranted(address,uint256)": {
        "notice": "Emitted when Venus is granted by admin"
      },
      "VenusSeized(address,uint256)": {
        "notice": "Emitted when XVS are seized for the holder"
      }
    },
    "kind": "user",
    "methods": {
      "_grantXVS(address,uint256)": {
        "notice": "Transfer XVS to the recipient"
      },
      "accountAssets(address,uint256)": {
        "notice": "Per-account mapping of \"assets you are in\", capped by maxAssets"
      },
      "actionPaused(address,uint8)": {
        "notice": "Checks if a certain action is paused on a market"
      },
      "admin()": {
        "notice": "Administrator for this contract"
      },
      "allMarkets(uint256)": {
        "notice": "A list of all markets"
      },
      "approvedDelegates(address,address)": {
        "notice": "Whether the delegate is allowed to borrow or redeem on behalf of the user"
      },
      "authorizedFlashLoan(address)": {
        "notice": "Mapping of accounts authorized to execute flash loans"
      },
      "borrowCapGuardian()": {
        "notice": "The borrowCapGuardian can set borrowCaps to any number for any market. Lowering the borrow cap could disable borrowing on the given market."
      },
      "borrowCaps(address)": {
        "notice": "Borrow caps enforced by borrowAllowed for each vToken address."
      },
      "claimVenus(address)": {
        "notice": "Claim all the xvs accrued by holder in all markets and VAI"
      },
      "claimVenus(address,address[])": {
        "notice": "Claim all the xvs accrued by holder in the specified markets"
      },
      "claimVenus(address[],address[],bool,bool)": {
        "notice": "Claim all xvs accrued by the holders"
      },
      "claimVenus(address[],address[],bool,bool,bool)": {
        "notice": "Claim all xvs accrued by the holders"
      },
      "claimVenusAsCollateral(address)": {
        "notice": "Claim all the xvs accrued by holder in all markets, a shorthand for `claimVenus` with collateral set to `true`"
      },
      "closeFactorMantissa()": {
        "notice": "Multiplier used to calculate the maximum repayAmount when liquidating a borrow"
      },
      "comptrollerImplementation()": {
        "notice": "Active brains of Unitroller"
      },
      "getPoolMarketIndex(uint96,address)": {
        "notice": "Returns the unique market index for the given poolId and vToken pair"
      },
      "getXVSAddress()": {
        "notice": "Returns the XVS address"
      },
      "getXVSVTokenAddress()": {
        "notice": "Returns the XVS vToken address"
      },
      "isForcedLiquidationEnabled(address)": {
        "notice": "Whether forced liquidation is enabled for all users borrowing in a certain market"
      },
      "isForcedLiquidationEnabledForUser(address,address)": {
        "notice": "Whether forced liquidation is enabled for the borrows of a user in a market"
      },
      "lastPoolId()": {
        "notice": "Counter used to generate unique pool IDs"
      },
      "maxAssets()": {
        "notice": "Max number of assets a single account can participate in (borrow or use as collateral)"
      },
      "mintVAIGuardianPaused()": {
        "notice": "The Pause Guardian can pause certain actions as a safety mechanism."
      },
      "mintedVAIs(address)": {
        "notice": "The minted VAI amount to each user"
      },
      "oracle()": {
        "notice": "Oracle which gives the price of any given asset"
      },
      "pauseGuardian()": {
        "notice": "The Pause Guardian can pause certain actions as a safety mechanism."
      },
      "pendingAdmin()": {
        "notice": "Pending administrator for this contract"
      },
      "pendingComptrollerImplementation()": {
        "notice": "Pending brains of Unitroller"
      },
      "pools(uint96)": {
        "notice": "Mapping of pool ID to its corresponding metadata and configuration"
      },
      "prime()": {
        "notice": "Prime token address"
      },
      "protocolPaused()": {
        "notice": "Pause/Unpause whole protocol actions"
      },
      "seizeVenus(address[],address)": {
        "notice": "Seize XVS rewards allocated to holders"
      },
      "supplyCaps(address)": {
        "notice": "Supply caps enforced by mintAllowed for each vToken address. Defaults to zero which corresponds to minting notAllowed"
      },
      "treasuryAddress()": {
        "notice": "Treasury address"
      },
      "treasuryGuardian()": {
        "notice": "Treasury Guardian address"
      },
      "treasuryPercent()": {
        "notice": "Fee percent of accrued interest with decimal 18"
      },
      "userPoolId(address)": {
        "notice": "Tracks the selected pool for each user"
      },
      "vaiController()": {
        "notice": "The Address of VAIController"
      },
      "vaiMintRate()": {
        "notice": "VAI Mint Rate as a percentage"
      },
      "venusAccrued(address)": {
        "notice": "The XVS accrued but not yet transferred to each user"
      },
      "venusBorrowSpeeds(address)": {
        "notice": "The rate at which venus is distributed to the corresponding borrow market (per block)"
      },
      "venusBorrowState(address)": {
        "notice": "The Venus market borrow state for each market"
      },
      "venusBorrowerIndex(address,address)": {
        "notice": "The Venus borrow index for each market for each borrower as of the last time they accrued XVS"
      },
      "venusInitialIndex()": {
        "notice": "The initial Venus index for a market"
      },
      "venusSupplierIndex(address,address)": {
        "notice": "The Venus supply index for each market for each supplier as of the last time they accrued XVS"
      },
      "venusSupplySpeeds(address)": {
        "notice": "The rate at which venus is distributed to the corresponding supply market (per block)"
      },
      "venusSupplyState(address)": {
        "notice": "The Venus market supply state for each market"
      },
      "venusVAIVaultRate()": {
        "notice": "The rate at which the flywheel distributes XVS to VAI Vault, per block"
      }
    },
    "notice": "This facet contract provides the external functions related to all claims and rewards of the protocol",
    "version": 1
  },
  "storageLayout": {
    "storage": [
      {
        "astId": 1655,
        "contract": "contracts/Comptroller/Diamond/facets/RewardFacet.sol:RewardFacet",
        "label": "admin",
        "offset": 0,
        "slot": "0",
        "type": "t_address"
      },
      {
        "astId": 1658,
        "contract": "contracts/Comptroller/Diamond/facets/RewardFacet.sol:RewardFacet",
        "label": "pendingAdmin",
        "offset": 0,
        "slot": "1",
        "type": "t_address"
      },
      {
        "astId": 1661,
        "contract": "contracts/Comptroller/Diamond/facets/RewardFacet.sol:RewardFacet",
        "label": "comptrollerImplementation",
        "offset": 0,
        "slot": "2",
        "type": "t_address"
      },
      {
        "astId": 1664,
        "contract": "contracts/Comptroller/Diamond/facets/RewardFacet.sol:RewardFacet",
        "label": "pendingComptrollerImplementation",
        "offset": 0,
        "slot": "3",
        "type": "t_address"
      },
      {
        "astId": 1671,
        "contract": "contracts/Comptroller/Diamond/facets/RewardFacet.sol:RewardFacet",
        "label": "oracle",
        "offset": 0,
        "slot": "4",
        "type": "t_contract(ResilientOracleInterface)992"
      },
      {
        "astId": 1674,
        "contract": "contracts/Comptroller/Diamond/facets/RewardFacet.sol:RewardFacet",
        "label": "closeFactorMantissa",
        "offset": 0,
        "slot": "5",
        "type": "t_uint256"
      },
      {
        "astId": 1677,
        "contract": "contracts/Comptroller/Diamond/facets/RewardFacet.sol:RewardFacet",
        "label": "_oldLiquidationIncentiveMantissa",
        "offset": 0,
        "slot": "6",
        "type": "t_uint256"
      },
      {
        "astId": 1680,
        "contract": "contracts/Comptroller/Diamond/facets/RewardFacet.sol:RewardFacet",
        "label": "maxAssets",
        "offset": 0,
        "slot": "7",
        "type": "t_uint256"
      },
      {
        "astId": 1687,
        "contract": "contracts/Comptroller/Diamond/facets/RewardFacet.sol:RewardFacet",
        "label": "accountAssets",
        "offset": 0,
        "slot": "8",
        "type": "t_mapping(t_address,t_array(t_contract(VToken)32078)dyn_storage)"
      },
      {
        "astId": 1721,
        "contract": "contracts/Comptroller/Diamond/facets/RewardFacet.sol:RewardFacet",
        "label": "_poolMarkets",
        "offset": 0,
        "slot": "9",
        "type": "t_mapping(t_userDefinedValueType(PoolMarketId)11175,t_struct(Market)1714_storage)"
      },
      {
        "astId": 1724,
        "contract": "contracts/Comptroller/Diamond/facets/RewardFacet.sol:RewardFacet",
        "label": "pauseGuardian",
        "offset": 0,
        "slot": "10",
        "type": "t_address"
      },
      {
        "astId": 1727,
        "contract": "contracts/Comptroller/Diamond/facets/RewardFacet.sol:RewardFacet",
        "label": "_mintGuardianPaused",
        "offset": 20,
        "slot": "10",
        "type": "t_bool"
      },
      {
        "astId": 1730,
        "contract": "contracts/Comptroller/Diamond/facets/RewardFacet.sol:RewardFacet",
        "label": "_borrowGuardianPaused",
        "offset": 21,
        "slot": "10",
        "type": "t_bool"
      },
      {
        "astId": 1733,
        "contract": "contracts/Comptroller/Diamond/facets/RewardFacet.sol:RewardFacet",
        "label": "transferGuardianPaused",
        "offset": 22,
        "slot": "10",
        "type": "t_bool"
      },
      {
        "astId": 1736,
        "contract": "contracts/Comptroller/Diamond/facets/RewardFacet.sol:RewardFacet",
        "label": "seizeGuardianPaused",
        "offset": 23,
        "slot": "10",
        "type": "t_bool"
      },
      {
        "astId": 1741,
        "contract": "contracts/Comptroller/Diamond/facets/RewardFacet.sol:RewardFacet",
        "label": "mintGuardianPaused",
        "offset": 0,
        "slot": "11",
        "type": "t_mapping(t_address,t_bool)"
      },
      {
        "astId": 1746,
        "contract": "contracts/Comptroller/Diamond/facets/RewardFacet.sol:RewardFacet",
        "label": "borrowGuardianPaused",
        "offset": 0,
        "slot": "12",
        "type": "t_mapping(t_address,t_bool)"
      },
      {
        "astId": 1758,
        "contract": "contracts/Comptroller/Diamond/facets/RewardFacet.sol:RewardFacet",
        "label": "allMarkets",
        "offset": 0,
        "slot": "13",
        "type": "t_array(t_contract(VToken)32078)dyn_storage"
      },
      {
        "astId": 1761,
        "contract": "contracts/Comptroller/Diamond/facets/RewardFacet.sol:RewardFacet",
        "label": "venusRate",
        "offset": 0,
        "slot": "14",
        "type": "t_uint256"
      },
      {
        "astId": 1766,
        "contract": "contracts/Comptroller/Diamond/facets/RewardFacet.sol:RewardFacet",
        "label": "venusSpeeds",
        "offset": 0,
        "slot": "15",
        "type": "t_mapping(t_address,t_uint256)"
      },
      {
        "astId": 1772,
        "contract": "contracts/Comptroller/Diamond/facets/RewardFacet.sol:RewardFacet",
        "label": "venusSupplyState",
        "offset": 0,
        "slot": "16",
        "type": "t_mapping(t_address,t_struct(VenusMarketState)1753_storage)"
      },
      {
        "astId": 1778,
        "contract": "contracts/Comptroller/Diamond/facets/RewardFacet.sol:RewardFacet",
        "label": "venusBorrowState",
        "offset": 0,
        "slot": "17",
        "type": "t_mapping(t_address,t_struct(VenusMarketState)1753_storage)"
      },
      {
        "astId": 1785,
        "contract": "contracts/Comptroller/Diamond/facets/RewardFacet.sol:RewardFacet",
        "label": "venusSupplierIndex",
        "offset": 0,
        "slot": "18",
        "type": "t_mapping(t_address,t_mapping(t_address,t_uint256))"
      },
      {
        "astId": 1792,
        "contract": "contracts/Comptroller/Diamond/facets/RewardFacet.sol:RewardFacet",
        "label": "venusBorrowerIndex",
        "offset": 0,
        "slot": "19",
        "type": "t_mapping(t_address,t_mapping(t_address,t_uint256))"
      },
      {
        "astId": 1797,
        "contract": "contracts/Comptroller/Diamond/facets/RewardFacet.sol:RewardFacet",
        "label": "venusAccrued",
        "offset": 0,
        "slot": "20",
        "type": "t_mapping(t_address,t_uint256)"
      },
      {
        "astId": 1801,
        "contract": "contracts/Comptroller/Diamond/facets/RewardFacet.sol:RewardFacet",
        "label": "vaiController",
        "offset": 0,
        "slot": "21",
        "type": "t_contract(VAIControllerInterface)25319"
      },
      {
        "astId": 1806,
        "contract": "contracts/Comptroller/Diamond/facets/RewardFacet.sol:RewardFacet",
        "label": "mintedVAIs",
        "offset": 0,
        "slot": "22",
        "type": "t_mapping(t_address,t_uint256)"
      },
      {
        "astId": 1809,
        "contract": "contracts/Comptroller/Diamond/facets/RewardFacet.sol:RewardFacet",
        "label": "vaiMintRate",
        "offset": 0,
        "slot": "23",
        "type": "t_uint256"
      },
      {
        "astId": 1812,
        "contract": "contracts/Comptroller/Diamond/facets/RewardFacet.sol:RewardFacet",
        "label": "mintVAIGuardianPaused",
        "offset": 0,
        "slot": "24",
        "type": "t_bool"
      },
      {
        "astId": 1814,
        "contract": "contracts/Comptroller/Diamond/facets/RewardFacet.sol:RewardFacet",
        "label": "repayVAIGuardianPaused",
        "offset": 1,
        "slot": "24",
        "type": "t_bool"
      },
      {
        "astId": 1817,
        "contract": "contracts/Comptroller/Diamond/facets/RewardFacet.sol:RewardFacet",
        "label": "protocolPaused",
        "offset": 2,
        "slot": "24",
        "type": "t_bool"
      },
      {
        "astId": 1820,
        "contract": "contracts/Comptroller/Diamond/facets/RewardFacet.sol:RewardFacet",
        "label": "venusVAIRate",
        "offset": 0,
        "slot": "25",
        "type": "t_uint256"
      },
      {
        "astId": 1826,
        "contract": "contracts/Comptroller/Diamond/facets/RewardFacet.sol:RewardFacet",
        "label": "venusVAIVaultRate",
        "offset": 0,
        "slot": "26",
        "type": "t_uint256"
      },
      {
        "astId": 1828,
        "contract": "contracts/Comptroller/Diamond/facets/RewardFacet.sol:RewardFacet",
        "label": "vaiVaultAddress",
        "offset": 0,
        "slot": "27",
        "type": "t_address"
      },
      {
        "astId": 1830,
        "contract": "contracts/Comptroller/Diamond/facets/RewardFacet.sol:RewardFacet",
        "label": "releaseStartBlock",
        "offset": 0,
        "slot": "28",
        "type": "t_uint256"
      },
      {
        "astId": 1832,
        "contract": "contracts/Comptroller/Diamond/facets/RewardFacet.sol:RewardFacet",
        "label": "minReleaseAmount",
        "offset": 0,
        "slot": "29",
        "type": "t_uint256"
      },
      {
        "astId": 1838,
        "contract": "contracts/Comptroller/Diamond/facets/RewardFacet.sol:RewardFacet",
        "label": "borrowCapGuardian",
        "offset": 0,
        "slot": "30",
        "type": "t_address"
      },
      {
        "astId": 1843,
        "contract": "contracts/Comptroller/Diamond/facets/RewardFacet.sol:RewardFacet",
        "label": "borrowCaps",
        "offset": 0,
        "slot": "31",
        "type": "t_mapping(t_address,t_uint256)"
      },
      {
        "astId": 1849,
        "contract": "contracts/Comptroller/Diamond/facets/RewardFacet.sol:RewardFacet",
        "label": "treasuryGuardian",
        "offset": 0,
        "slot": "32",
        "type": "t_address"
      },
      {
        "astId": 1852,
        "contract": "contracts/Comptroller/Diamond/facets/RewardFacet.sol:RewardFacet",
        "label": "treasuryAddress",
        "offset": 0,
        "slot": "33",
        "type": "t_address"
      },
      {
        "astId": 1855,
        "contract": "contracts/Comptroller/Diamond/facets/RewardFacet.sol:RewardFacet",
        "label": "treasuryPercent",
        "offset": 0,
        "slot": "34",
        "type": "t_uint256"
      },
      {
        "astId": 1863,
        "contract": "contracts/Comptroller/Diamond/facets/RewardFacet.sol:RewardFacet",
        "label": "venusContributorSpeeds",
        "offset": 0,
        "slot": "35",
        "type": "t_mapping(t_address,t_uint256)"
      },
      {
        "astId": 1868,
        "contract": "contracts/Comptroller/Diamond/facets/RewardFacet.sol:RewardFacet",
        "label": "lastContributorBlock",
        "offset": 0,
        "slot": "36",
        "type": "t_mapping(t_address,t_uint256)"
      },
      {
        "astId": 1873,
        "contract": "contracts/Comptroller/Diamond/facets/RewardFacet.sol:RewardFacet",
        "label": "liquidatorContract",
        "offset": 0,
        "slot": "37",
        "type": "t_address"
      },
      {
        "astId": 1879,
        "contract": "contracts/Comptroller/Diamond/facets/RewardFacet.sol:RewardFacet",
        "label": "comptrollerLens",
        "offset": 0,
        "slot": "38",
        "type": "t_contract(ComptrollerLensInterface)1638"
      },
      {
        "astId": 1887,
        "contract": "contracts/Comptroller/Diamond/facets/RewardFacet.sol:RewardFacet",
        "label": "supplyCaps",
        "offset": 0,
        "slot": "39",
        "type": "t_mapping(t_address,t_uint256)"
      },
      {
        "astId": 1893,
        "contract": "contracts/Comptroller/Diamond/facets/RewardFacet.sol:RewardFacet",
        "label": "accessControl",
        "offset": 0,
        "slot": "40",
        "type": "t_address"
      },
      {
        "astId": 1900,
        "contract": "contracts/Comptroller/Diamond/facets/RewardFacet.sol:RewardFacet",
        "label": "_actionPaused",
        "offset": 0,
        "slot": "41",
        "type": "t_mapping(t_address,t_mapping(t_uint256,t_bool))"
      },
      {
        "astId": 1908,
        "contract": "contracts/Comptroller/Diamond/facets/RewardFacet.sol:RewardFacet",
        "label": "venusBorrowSpeeds",
        "offset": 0,
        "slot": "42",
        "type": "t_mapping(t_address,t_uint256)"
      },
      {
        "astId": 1913,
        "contract": "contracts/Comptroller/Diamond/facets/RewardFacet.sol:RewardFacet",
        "label": "venusSupplySpeeds",
        "offset": 0,
        "slot": "43",
        "type": "t_mapping(t_address,t_uint256)"
      },
      {
        "astId": 1923,
        "contract": "contracts/Comptroller/Diamond/facets/RewardFacet.sol:RewardFacet",
        "label": "approvedDelegates",
        "offset": 0,
        "slot": "44",
        "type": "t_mapping(t_address,t_mapping(t_address,t_bool))"
      },
      {
        "astId": 1931,
        "contract": "contracts/Comptroller/Diamond/facets/RewardFacet.sol:RewardFacet",
        "label": "isForcedLiquidationEnabled",
        "offset": 0,
        "slot": "45",
        "type": "t_mapping(t_address,t_bool)"
      },
      {
        "astId": 1950,
        "contract": "contracts/Comptroller/Diamond/facets/RewardFacet.sol:RewardFacet",
        "label": "_selectorToFacetAndPosition",
        "offset": 0,
        "slot": "46",
        "type": "t_mapping(t_bytes4,t_struct(FacetAddressAndPosition)1939_storage)"
      },
      {
        "astId": 1955,
        "contract": "contracts/Comptroller/Diamond/facets/RewardFacet.sol:RewardFacet",
        "label": "_facetFunctionSelectors",
        "offset": 0,
        "slot": "47",
        "type": "t_mapping(t_address,t_struct(FacetFunctionSelectors)1945_storage)"
      },
      {
        "astId": 1958,
        "contract": "contracts/Comptroller/Diamond/facets/RewardFacet.sol:RewardFacet",
        "label": "_facetAddresses",
        "offset": 0,
        "slot": "48",
        "type": "t_array(t_address)dyn_storage"
      },
      {
        "astId": 1965,
        "contract": "contracts/Comptroller/Diamond/facets/RewardFacet.sol:RewardFacet",
        "label": "prime",
        "offset": 0,
        "slot": "49",
        "type": "t_contract(IPrime)22497"
      },
      {
        "astId": 1975,
        "contract": "contracts/Comptroller/Diamond/facets/RewardFacet.sol:RewardFacet",
        "label": "isForcedLiquidationEnabledForUser",
        "offset": 0,
        "slot": "50",
        "type": "t_mapping(t_address,t_mapping(t_address,t_bool))"
      },
      {
        "astId": 1981,
        "contract": "contracts/Comptroller/Diamond/facets/RewardFacet.sol:RewardFacet",
        "label": "xvs",
        "offset": 0,
        "slot": "51",
        "type": "t_address"
      },
      {
        "astId": 1984,
        "contract": "contracts/Comptroller/Diamond/facets/RewardFacet.sol:RewardFacet",
        "label": "xvsVToken",
        "offset": 0,
        "slot": "52",
        "type": "t_address"
      },
      {
        "astId": 2003,
        "contract": "contracts/Comptroller/Diamond/facets/RewardFacet.sol:RewardFacet",
        "label": "userPoolId",
        "offset": 0,
        "slot": "53",
        "type": "t_mapping(t_address,t_uint96)"
      },
      {
        "astId": 2009,
        "contract": "contracts/Comptroller/Diamond/facets/RewardFacet.sol:RewardFacet",
        "label": "pools",
        "offset": 0,
        "slot": "54",
        "type": "t_mapping(t_uint96,t_struct(PoolData)1998_storage)"
      },
      {
        "astId": 2012,
        "contract": "contracts/Comptroller/Diamond/facets/RewardFacet.sol:RewardFacet",
        "label": "lastPoolId",
        "offset": 0,
        "slot": "55",
        "type": "t_uint96"
      },
      {
        "astId": 2017,
        "contract": "contracts/Comptroller/Diamond/facets/RewardFacet.sol:RewardFacet",
        "label": "authorizedFlashLoan",
        "offset": 0,
        "slot": "56",
        "type": "t_mapping(t_address,t_bool)"
      }
    ],
    "types": {
      "t_address": {
        "encoding": "inplace",
        "label": "address",
        "numberOfBytes": "20"
      },
      "t_array(t_address)dyn_storage": {
        "base": "t_address",
        "encoding": "dynamic_array",
        "label": "address[]",
        "numberOfBytes": "32"
      },
      "t_array(t_bytes4)dyn_storage": {
        "base": "t_bytes4",
        "encoding": "dynamic_array",
        "label": "bytes4[]",
        "numberOfBytes": "32"
      },
      "t_array(t_contract(VToken)32078)dyn_storage": {
        "base": "t_contract(VToken)32078",
        "encoding": "dynamic_array",
        "label": "contract VToken[]",
        "numberOfBytes": "32"
      },
      "t_bool": {
        "encoding": "inplace",
        "label": "bool",
        "numberOfBytes": "1"
      },
      "t_bytes4": {
        "encoding": "inplace",
        "label": "bytes4",
        "numberOfBytes": "4"
      },
      "t_contract(ComptrollerLensInterface)1638": {
        "encoding": "inplace",
        "label": "contract ComptrollerLensInterface",
        "numberOfBytes": "20"
      },
      "t_contract(IPrime)22497": {
        "encoding": "inplace",
        "label": "contract IPrime",
        "numberOfBytes": "20"
      },
      "t_contract(ResilientOracleInterface)992": {
        "encoding": "inplace",
        "label": "contract ResilientOracleInterface",
        "numberOfBytes": "20"
      },
      "t_contract(VAIControllerInterface)25319": {
        "encoding": "inplace",
        "label": "contract VAIControllerInterface",
        "numberOfBytes": "20"
      },
      "t_contract(VToken)32078": {
        "encoding": "inplace",
        "label": "contract VToken",
        "numberOfBytes": "20"
      },
      "t_mapping(t_address,t_array(t_contract(VToken)32078)dyn_storage)": {
        "encoding": "mapping",
        "key": "t_address",
        "label": "mapping(address => contract VToken[])",
        "numberOfBytes": "32",
        "value": "t_array(t_contract(VToken)32078)dyn_storage"
      },
      "t_mapping(t_address,t_bool)": {
        "encoding": "mapping",
        "key": "t_address",
        "label": "mapping(address => bool)",
        "numberOfBytes": "32",
        "value": "t_bool"
      },
      "t_mapping(t_address,t_mapping(t_address,t_bool))": {
        "encoding": "mapping",
        "key": "t_address",
        "label": "mapping(address => mapping(address => bool))",
        "numberOfBytes": "32",
        "value": "t_mapping(t_address,t_bool)"
      },
      "t_mapping(t_address,t_mapping(t_address,t_uint256))": {
        "encoding": "mapping",
        "key": "t_address",
        "label": "mapping(address => mapping(address => uint256))",
        "numberOfBytes": "32",
        "value": "t_mapping(t_address,t_uint256)"
      },
      "t_mapping(t_address,t_mapping(t_uint256,t_bool))": {
        "encoding": "mapping",
        "key": "t_address",
        "label": "mapping(address => mapping(uint256 => bool))",
        "numberOfBytes": "32",
        "value": "t_mapping(t_uint256,t_bool)"
      },
      "t_mapping(t_address,t_struct(FacetFunctionSelectors)1945_storage)": {
        "encoding": "mapping",
        "key": "t_address",
        "label": "mapping(address => struct ComptrollerV13Storage.FacetFunctionSelectors)",
        "numberOfBytes": "32",
        "value": "t_struct(FacetFunctionSelectors)1945_storage"
      },
      "t_mapping(t_address,t_struct(VenusMarketState)1753_storage)": {
        "encoding": "mapping",
        "key": "t_address",
        "label": "mapping(address => struct ComptrollerV1Storage.VenusMarketState)",
        "numberOfBytes": "32",
        "value": "t_struct(VenusMarketState)1753_storage"
      },
      "t_mapping(t_address,t_uint256)": {
        "encoding": "mapping",
        "key": "t_address",
        "label": "mapping(address => uint256)",
        "numberOfBytes": "32",
        "value": "t_uint256"
      },
      "t_mapping(t_address,t_uint96)": {
        "encoding": "mapping",
        "key": "t_address",
        "label": "mapping(address => uint96)",
        "numberOfBytes": "32",
        "value": "t_uint96"
      },
      "t_mapping(t_bytes4,t_struct(FacetAddressAndPosition)1939_storage)": {
        "encoding": "mapping",
        "key": "t_bytes4",
        "label": "mapping(bytes4 => struct ComptrollerV13Storage.FacetAddressAndPosition)",
        "numberOfBytes": "32",
        "value": "t_struct(FacetAddressAndPosition)1939_storage"
      },
      "t_mapping(t_uint256,t_bool)": {
        "encoding": "mapping",
        "key": "t_uint256",
        "label": "mapping(uint256 => bool)",
        "numberOfBytes": "32",
        "value": "t_bool"
      },
      "t_mapping(t_uint96,t_struct(PoolData)1998_storage)": {
        "encoding": "mapping",
        "key": "t_uint96",
        "label": "mapping(uint96 => struct ComptrollerV17Storage.PoolData)",
        "numberOfBytes": "32",
        "value": "t_struct(PoolData)1998_storage"
      },
      "t_mapping(t_userDefinedValueType(PoolMarketId)11175,t_struct(Market)1714_storage)": {
        "encoding": "mapping",
        "key": "t_userDefinedValueType(PoolMarketId)11175",
        "label": "mapping(PoolMarketId => struct ComptrollerV1Storage.Market)",
        "numberOfBytes": "32",
        "value": "t_struct(Market)1714_storage"
      },
      "t_string_storage": {
        "encoding": "bytes",
        "label": "string",
        "numberOfBytes": "32"
      },
      "t_struct(FacetAddressAndPosition)1939_storage": {
        "encoding": "inplace",
        "label": "struct ComptrollerV13Storage.FacetAddressAndPosition",
        "members": [
          {
            "astId": 1936,
            "contract": "contracts/Comptroller/Diamond/facets/RewardFacet.sol:RewardFacet",
            "label": "facetAddress",
            "offset": 0,
            "slot": "0",
            "type": "t_address"
          },
          {
            "astId": 1938,
            "contract": "contracts/Comptroller/Diamond/facets/RewardFacet.sol:RewardFacet",
            "label": "functionSelectorPosition",
            "offset": 20,
            "slot": "0",
            "type": "t_uint96"
          }
        ],
        "numberOfBytes": "32"
      },
      "t_struct(FacetFunctionSelectors)1945_storage": {
        "encoding": "inplace",
        "label": "struct ComptrollerV13Storage.FacetFunctionSelectors",
        "members": [
          {
            "astId": 1942,
            "contract": "contracts/Comptroller/Diamond/facets/RewardFacet.sol:RewardFacet",
            "label": "functionSelectors",
            "offset": 0,
            "slot": "0",
            "type": "t_array(t_bytes4)dyn_storage"
          },
          {
            "astId": 1944,
            "contract": "contracts/Comptroller/Diamond/facets/RewardFacet.sol:RewardFacet",
            "label": "facetAddressPosition",
            "offset": 0,
            "slot": "1",
            "type": "t_uint256"
          }
        ],
        "numberOfBytes": "64"
      },
      "t_struct(Market)1714_storage": {
        "encoding": "inplace",
        "label": "struct ComptrollerV1Storage.Market",
        "members": [
          {
            "astId": 1690,
            "contract": "contracts/Comptroller/Diamond/facets/RewardFacet.sol:RewardFacet",
            "label": "isListed",
            "offset": 0,
            "slot": "0",
            "type": "t_bool"
          },
          {
            "astId": 1693,
            "contract": "contracts/Comptroller/Diamond/facets/RewardFacet.sol:RewardFacet",
            "label": "collateralFactorMantissa",
            "offset": 0,
            "slot": "1",
            "type": "t_uint256"
          },
          {
            "astId": 1698,
            "contract": "contracts/Comptroller/Diamond/facets/RewardFacet.sol:RewardFacet",
            "label": "accountMembership",
            "offset": 0,
            "slot": "2",
            "type": "t_mapping(t_address,t_bool)"
          },
          {
            "astId": 1701,
            "contract": "contracts/Comptroller/Diamond/facets/RewardFacet.sol:RewardFacet",
            "label": "isVenus",
            "offset": 0,
            "slot": "3",
            "type": "t_bool"
          },
          {
            "astId": 1704,
            "contract": "contracts/Comptroller/Diamond/facets/RewardFacet.sol:RewardFacet",
            "label": "liquidationThresholdMantissa",
            "offset": 0,
            "slot": "4",
            "type": "t_uint256"
          },
          {
            "astId": 1707,
            "contract": "contracts/Comptroller/Diamond/facets/RewardFacet.sol:RewardFacet",
            "label": "liquidationIncentiveMantissa",
            "offset": 0,
            "slot": "5",
            "type": "t_uint256"
          },
          {
            "astId": 1710,
            "contract": "contracts/Comptroller/Diamond/facets/RewardFacet.sol:RewardFacet",
            "label": "poolId",
            "offset": 0,
            "slot": "6",
            "type": "t_uint96"
          },
          {
            "astId": 1713,
            "contract": "contracts/Comptroller/Diamond/facets/RewardFacet.sol:RewardFacet",
            "label": "isBorrowAllowed",
            "offset": 12,
            "slot": "6",
            "type": "t_bool"
          }
        ],
        "numberOfBytes": "224"
      },
      "t_struct(PoolData)1998_storage": {
        "encoding": "inplace",
        "label": "struct ComptrollerV17Storage.PoolData",
        "members": [
          {
            "astId": 1990,
            "contract": "contracts/Comptroller/Diamond/facets/RewardFacet.sol:RewardFacet",
            "label": "label",
            "offset": 0,
            "slot": "0",
            "type": "t_string_storage"
          },
          {
            "astId": 1994,
            "contract": "contracts/Comptroller/Diamond/facets/RewardFacet.sol:RewardFacet",
            "label": "vTokens",
            "offset": 0,
            "slot": "1",
            "type": "t_array(t_address)dyn_storage"
          },
          {
            "astId": 1997,
            "contract": "contracts/Comptroller/Diamond/facets/RewardFacet.sol:RewardFacet",
            "label": "isActive",
            "offset": 0,
            "slot": "2",
            "type": "t_bool"
          }
        ],
        "numberOfBytes": "96"
      },
      "t_struct(VenusMarketState)1753_storage": {
        "encoding": "inplace",
        "label": "struct ComptrollerV1Storage.VenusMarketState",
        "members": [
          {
            "astId": 1749,
            "contract": "contracts/Comptroller/Diamond/facets/RewardFacet.sol:RewardFacet",
            "label": "index",
            "offset": 0,
            "slot": "0",
            "type": "t_uint224"
          },
          {
            "astId": 1752,
            "contract": "contracts/Comptroller/Diamond/facets/RewardFacet.sol:RewardFacet",
            "label": "block",
            "offset": 28,
            "slot": "0",
            "type": "t_uint32"
          }
        ],
        "numberOfBytes": "32"
      },
      "t_uint224": {
        "encoding": "inplace",
        "label": "uint224",
        "numberOfBytes": "28"
      },
      "t_uint256": {
        "encoding": "inplace",
        "label": "uint256",
        "numberOfBytes": "32"
      },
      "t_uint32": {
        "encoding": "inplace",
        "label": "uint32",
        "numberOfBytes": "4"
      },
      "t_uint96": {
        "encoding": "inplace",
        "label": "uint96",
        "numberOfBytes": "12"
      },
      "t_userDefinedValueType(PoolMarketId)11175": {
        "encoding": "inplace",
        "label": "PoolMarketId",
        "numberOfBytes": "32"
      }
    }
  }
}