{
  "address": "0x905006DCD5DbAa9B67359bcB341a0C49AfC8d0A6",
  "abi": [
    {
      "anonymous": false,
      "inputs": [
        {
          "indexed": true,
          "internalType": "contract VToken",
          "name": "vToken",
          "type": "address"
        },
        {
          "indexed": true,
          "internalType": "address",
          "name": "borrower",
          "type": "address"
        },
        {
          "indexed": false,
          "internalType": "uint256",
          "name": "venusDelta",
          "type": "uint256"
        },
        {
          "indexed": false,
          "internalType": "uint256",
          "name": "venusBorrowIndex",
          "type": "uint256"
        }
      ],
      "name": "DistributedBorrowerVenus",
      "type": "event"
    },
    {
      "anonymous": false,
      "inputs": [
        {
          "indexed": true,
          "internalType": "contract VToken",
          "name": "vToken",
          "type": "address"
        },
        {
          "indexed": true,
          "internalType": "address",
          "name": "supplier",
          "type": "address"
        },
        {
          "indexed": false,
          "internalType": "uint256",
          "name": "venusDelta",
          "type": "uint256"
        },
        {
          "indexed": false,
          "internalType": "uint256",
          "name": "venusSupplyIndex",
          "type": "uint256"
        }
      ],
      "name": "DistributedSupplierVenus",
      "type": "event"
    },
    {
      "anonymous": false,
      "inputs": [
        {
          "indexed": false,
          "internalType": "uint256",
          "name": "amount",
          "type": "uint256"
        }
      ],
      "name": "DistributedVAIVaultVenus",
      "type": "event"
    },
    {
      "anonymous": false,
      "inputs": [
        {
          "indexed": false,
          "internalType": "uint256",
          "name": "error",
          "type": "uint256"
        },
        {
          "indexed": false,
          "internalType": "uint256",
          "name": "info",
          "type": "uint256"
        },
        {
          "indexed": false,
          "internalType": "uint256",
          "name": "detail",
          "type": "uint256"
        }
      ],
      "name": "Failure",
      "type": "event"
    },
    {
      "anonymous": false,
      "inputs": [
        {
          "indexed": true,
          "internalType": "contract VToken",
          "name": "vToken",
          "type": "address"
        },
        {
          "indexed": true,
          "internalType": "address",
          "name": "account",
          "type": "address"
        }
      ],
      "name": "MarketEntered",
      "type": "event"
    },
    {
      "anonymous": false,
      "inputs": [
        {
          "indexed": true,
          "internalType": "address",
          "name": "recipient",
          "type": "address"
        },
        {
          "indexed": false,
          "internalType": "uint256",
          "name": "amount",
          "type": "uint256"
        }
      ],
      "name": "VenusGranted",
      "type": "event"
    },
    {
      "anonymous": false,
      "inputs": [
        {
          "indexed": true,
          "internalType": "address",
          "name": "holder",
          "type": "address"
        },
        {
          "indexed": false,
          "internalType": "uint256",
          "name": "amount",
          "type": "uint256"
        }
      ],
      "name": "VenusSeized",
      "type": "event"
    },
    {
      "constant": false,
      "inputs": [
        {
          "internalType": "address",
          "name": "recipient",
          "type": "address"
        },
        {
          "internalType": "uint256",
          "name": "amount",
          "type": "uint256"
        }
      ],
      "name": "_grantXVS",
      "outputs": [],
      "payable": false,
      "stateMutability": "nonpayable",
      "type": "function"
    },
    {
      "constant": true,
      "inputs": [
        {
          "internalType": "address",
          "name": "",
          "type": "address"
        },
        {
          "internalType": "uint256",
          "name": "",
          "type": "uint256"
        }
      ],
      "name": "accountAssets",
      "outputs": [
        {
          "internalType": "contract VToken",
          "name": "",
          "type": "address"
        }
      ],
      "payable": false,
      "stateMutability": "view",
      "type": "function"
    },
    {
      "constant": true,
      "inputs": [
        {
          "internalType": "address",
          "name": "market",
          "type": "address"
        },
        {
          "internalType": "enum ComptrollerTypes.Action",
          "name": "action",
          "type": "uint8"
        }
      ],
      "name": "actionPaused",
      "outputs": [
        {
          "internalType": "bool",
          "name": "",
          "type": "bool"
        }
      ],
      "payable": false,
      "stateMutability": "view",
      "type": "function"
    },
    {
      "constant": true,
      "inputs": [],
      "name": "admin",
      "outputs": [
        {
          "internalType": "address",
          "name": "",
          "type": "address"
        }
      ],
      "payable": false,
      "stateMutability": "view",
      "type": "function"
    },
    {
      "constant": true,
      "inputs": [
        {
          "internalType": "uint256",
          "name": "",
          "type": "uint256"
        }
      ],
      "name": "allMarkets",
      "outputs": [
        {
          "internalType": "contract VToken",
          "name": "",
          "type": "address"
        }
      ],
      "payable": false,
      "stateMutability": "view",
      "type": "function"
    },
    {
      "constant": true,
      "inputs": [
        {
          "internalType": "address",
          "name": "",
          "type": "address"
        },
        {
          "internalType": "address",
          "name": "",
          "type": "address"
        }
      ],
      "name": "approvedDelegates",
      "outputs": [
        {
          "internalType": "bool",
          "name": "",
          "type": "bool"
        }
      ],
      "payable": false,
      "stateMutability": "view",
      "type": "function"
    },
    {
      "constant": true,
      "inputs": [],
      "name": "borrowCapGuardian",
      "outputs": [
        {
          "internalType": "address",
          "name": "",
          "type": "address"
        }
      ],
      "payable": false,
      "stateMutability": "view",
      "type": "function"
    },
    {
      "constant": true,
      "inputs": [
        {
          "internalType": "address",
          "name": "",
          "type": "address"
        }
      ],
      "name": "borrowCaps",
      "outputs": [
        {
          "internalType": "uint256",
          "name": "",
          "type": "uint256"
        }
      ],
      "payable": false,
      "stateMutability": "view",
      "type": "function"
    },
    {
      "constant": false,
      "inputs": [
        {
          "internalType": "address[]",
          "name": "holders",
          "type": "address[]"
        },
        {
          "internalType": "contract VToken[]",
          "name": "vTokens",
          "type": "address[]"
        },
        {
          "internalType": "bool",
          "name": "borrowers",
          "type": "bool"
        },
        {
          "internalType": "bool",
          "name": "suppliers",
          "type": "bool"
        },
        {
          "internalType": "bool",
          "name": "collateral",
          "type": "bool"
        }
      ],
      "name": "claimVenus",
      "outputs": [],
      "payable": false,
      "stateMutability": "nonpayable",
      "type": "function"
    },
    {
      "constant": false,
      "inputs": [
        {
          "internalType": "address",
          "name": "holder",
          "type": "address"
        },
        {
          "internalType": "contract VToken[]",
          "name": "vTokens",
          "type": "address[]"
        }
      ],
      "name": "claimVenus",
      "outputs": [],
      "payable": false,
      "stateMutability": "nonpayable",
      "type": "function"
    },
    {
      "constant": false,
      "inputs": [
        {
          "internalType": "address",
          "name": "holder",
          "type": "address"
        }
      ],
      "name": "claimVenus",
      "outputs": [],
      "payable": false,
      "stateMutability": "nonpayable",
      "type": "function"
    },
    {
      "constant": false,
      "inputs": [
        {
          "internalType": "address[]",
          "name": "holders",
          "type": "address[]"
        },
        {
          "internalType": "contract VToken[]",
          "name": "vTokens",
          "type": "address[]"
        },
        {
          "internalType": "bool",
          "name": "borrowers",
          "type": "bool"
        },
        {
          "internalType": "bool",
          "name": "suppliers",
          "type": "bool"
        }
      ],
      "name": "claimVenus",
      "outputs": [],
      "payable": false,
      "stateMutability": "nonpayable",
      "type": "function"
    },
    {
      "constant": false,
      "inputs": [
        {
          "internalType": "address",
          "name": "holder",
          "type": "address"
        }
      ],
      "name": "claimVenusAsCollateral",
      "outputs": [],
      "payable": false,
      "stateMutability": "nonpayable",
      "type": "function"
    },
    {
      "constant": true,
      "inputs": [],
      "name": "closeFactorMantissa",
      "outputs": [
        {
          "internalType": "uint256",
          "name": "",
          "type": "uint256"
        }
      ],
      "payable": false,
      "stateMutability": "view",
      "type": "function"
    },
    {
      "constant": true,
      "inputs": [],
      "name": "comptrollerImplementation",
      "outputs": [
        {
          "internalType": "address",
          "name": "",
          "type": "address"
        }
      ],
      "payable": false,
      "stateMutability": "view",
      "type": "function"
    },
    {
      "constant": true,
      "inputs": [],
      "name": "comptrollerLens",
      "outputs": [
        {
          "internalType": "contract ComptrollerLensInterface",
          "name": "",
          "type": "address"
        }
      ],
      "payable": false,
      "stateMutability": "view",
      "type": "function"
    },
    {
      "constant": true,
      "inputs": [],
      "name": "getXVSAddress",
      "outputs": [
        {
          "internalType": "address",
          "name": "",
          "type": "address"
        }
      ],
      "payable": false,
      "stateMutability": "view",
      "type": "function"
    },
    {
      "constant": true,
      "inputs": [],
      "name": "getXVSVTokenAddress",
      "outputs": [
        {
          "internalType": "address",
          "name": "",
          "type": "address"
        }
      ],
      "payable": false,
      "stateMutability": "view",
      "type": "function"
    },
    {
      "constant": true,
      "inputs": [
        {
          "internalType": "address",
          "name": "",
          "type": "address"
        }
      ],
      "name": "isForcedLiquidationEnabled",
      "outputs": [
        {
          "internalType": "bool",
          "name": "",
          "type": "bool"
        }
      ],
      "payable": false,
      "stateMutability": "view",
      "type": "function"
    },
    {
      "constant": true,
      "inputs": [
        {
          "internalType": "address",
          "name": "",
          "type": "address"
        },
        {
          "internalType": "address",
          "name": "",
          "type": "address"
        }
      ],
      "name": "isForcedLiquidationEnabledForUser",
      "outputs": [
        {
          "internalType": "bool",
          "name": "",
          "type": "bool"
        }
      ],
      "payable": false,
      "stateMutability": "view",
      "type": "function"
    },
    {
      "constant": true,
      "inputs": [],
      "name": "liquidationIncentiveMantissa",
      "outputs": [
        {
          "internalType": "uint256",
          "name": "",
          "type": "uint256"
        }
      ],
      "payable": false,
      "stateMutability": "view",
      "type": "function"
    },
    {
      "constant": true,
      "inputs": [],
      "name": "liquidatorContract",
      "outputs": [
        {
          "internalType": "address",
          "name": "",
          "type": "address"
        }
      ],
      "payable": false,
      "stateMutability": "view",
      "type": "function"
    },
    {
      "constant": true,
      "inputs": [
        {
          "internalType": "address",
          "name": "",
          "type": "address"
        }
      ],
      "name": "markets",
      "outputs": [
        {
          "internalType": "bool",
          "name": "isListed",
          "type": "bool"
        },
        {
          "internalType": "uint256",
          "name": "collateralFactorMantissa",
          "type": "uint256"
        },
        {
          "internalType": "bool",
          "name": "isVenus",
          "type": "bool"
        }
      ],
      "payable": false,
      "stateMutability": "view",
      "type": "function"
    },
    {
      "constant": true,
      "inputs": [],
      "name": "maxAssets",
      "outputs": [
        {
          "internalType": "uint256",
          "name": "",
          "type": "uint256"
        }
      ],
      "payable": false,
      "stateMutability": "view",
      "type": "function"
    },
    {
      "constant": true,
      "inputs": [],
      "name": "minReleaseAmount",
      "outputs": [
        {
          "internalType": "uint256",
          "name": "",
          "type": "uint256"
        }
      ],
      "payable": false,
      "stateMutability": "view",
      "type": "function"
    },
    {
      "constant": true,
      "inputs": [],
      "name": "mintVAIGuardianPaused",
      "outputs": [
        {
          "internalType": "bool",
          "name": "",
          "type": "bool"
        }
      ],
      "payable": false,
      "stateMutability": "view",
      "type": "function"
    },
    {
      "constant": true,
      "inputs": [
        {
          "internalType": "address",
          "name": "",
          "type": "address"
        }
      ],
      "name": "mintedVAIs",
      "outputs": [
        {
          "internalType": "uint256",
          "name": "",
          "type": "uint256"
        }
      ],
      "payable": false,
      "stateMutability": "view",
      "type": "function"
    },
    {
      "constant": true,
      "inputs": [],
      "name": "oracle",
      "outputs": [
        {
          "internalType": "contract PriceOracle",
          "name": "",
          "type": "address"
        }
      ],
      "payable": false,
      "stateMutability": "view",
      "type": "function"
    },
    {
      "constant": true,
      "inputs": [],
      "name": "pauseGuardian",
      "outputs": [
        {
          "internalType": "address",
          "name": "",
          "type": "address"
        }
      ],
      "payable": false,
      "stateMutability": "view",
      "type": "function"
    },
    {
      "constant": true,
      "inputs": [],
      "name": "pendingAdmin",
      "outputs": [
        {
          "internalType": "address",
          "name": "",
          "type": "address"
        }
      ],
      "payable": false,
      "stateMutability": "view",
      "type": "function"
    },
    {
      "constant": true,
      "inputs": [],
      "name": "pendingComptrollerImplementation",
      "outputs": [
        {
          "internalType": "address",
          "name": "",
          "type": "address"
        }
      ],
      "payable": false,
      "stateMutability": "view",
      "type": "function"
    },
    {
      "constant": true,
      "inputs": [],
      "name": "prime",
      "outputs": [
        {
          "internalType": "contract IPrime",
          "name": "",
          "type": "address"
        }
      ],
      "payable": false,
      "stateMutability": "view",
      "type": "function"
    },
    {
      "constant": true,
      "inputs": [],
      "name": "protocolPaused",
      "outputs": [
        {
          "internalType": "bool",
          "name": "",
          "type": "bool"
        }
      ],
      "payable": false,
      "stateMutability": "view",
      "type": "function"
    },
    {
      "constant": true,
      "inputs": [],
      "name": "releaseStartBlock",
      "outputs": [
        {
          "internalType": "uint256",
          "name": "",
          "type": "uint256"
        }
      ],
      "payable": false,
      "stateMutability": "view",
      "type": "function"
    },
    {
      "constant": true,
      "inputs": [],
      "name": "repayVAIGuardianPaused",
      "outputs": [
        {
          "internalType": "bool",
          "name": "",
          "type": "bool"
        }
      ],
      "payable": false,
      "stateMutability": "view",
      "type": "function"
    },
    {
      "constant": false,
      "inputs": [
        {
          "internalType": "address[]",
          "name": "holders",
          "type": "address[]"
        },
        {
          "internalType": "address",
          "name": "recipient",
          "type": "address"
        }
      ],
      "name": "seizeVenus",
      "outputs": [
        {
          "internalType": "uint256",
          "name": "",
          "type": "uint256"
        }
      ],
      "payable": false,
      "stateMutability": "nonpayable",
      "type": "function"
    },
    {
      "constant": true,
      "inputs": [
        {
          "internalType": "address",
          "name": "",
          "type": "address"
        }
      ],
      "name": "supplyCaps",
      "outputs": [
        {
          "internalType": "uint256",
          "name": "",
          "type": "uint256"
        }
      ],
      "payable": false,
      "stateMutability": "view",
      "type": "function"
    },
    {
      "constant": true,
      "inputs": [],
      "name": "treasuryAddress",
      "outputs": [
        {
          "internalType": "address",
          "name": "",
          "type": "address"
        }
      ],
      "payable": false,
      "stateMutability": "view",
      "type": "function"
    },
    {
      "constant": true,
      "inputs": [],
      "name": "treasuryGuardian",
      "outputs": [
        {
          "internalType": "address",
          "name": "",
          "type": "address"
        }
      ],
      "payable": false,
      "stateMutability": "view",
      "type": "function"
    },
    {
      "constant": true,
      "inputs": [],
      "name": "treasuryPercent",
      "outputs": [
        {
          "internalType": "uint256",
          "name": "",
          "type": "uint256"
        }
      ],
      "payable": false,
      "stateMutability": "view",
      "type": "function"
    },
    {
      "constant": true,
      "inputs": [],
      "name": "vaiController",
      "outputs": [
        {
          "internalType": "contract VAIControllerInterface",
          "name": "",
          "type": "address"
        }
      ],
      "payable": false,
      "stateMutability": "view",
      "type": "function"
    },
    {
      "constant": true,
      "inputs": [],
      "name": "vaiMintRate",
      "outputs": [
        {
          "internalType": "uint256",
          "name": "",
          "type": "uint256"
        }
      ],
      "payable": false,
      "stateMutability": "view",
      "type": "function"
    },
    {
      "constant": true,
      "inputs": [],
      "name": "vaiVaultAddress",
      "outputs": [
        {
          "internalType": "address",
          "name": "",
          "type": "address"
        }
      ],
      "payable": false,
      "stateMutability": "view",
      "type": "function"
    },
    {
      "constant": true,
      "inputs": [
        {
          "internalType": "address",
          "name": "",
          "type": "address"
        }
      ],
      "name": "venusAccrued",
      "outputs": [
        {
          "internalType": "uint256",
          "name": "",
          "type": "uint256"
        }
      ],
      "payable": false,
      "stateMutability": "view",
      "type": "function"
    },
    {
      "constant": true,
      "inputs": [
        {
          "internalType": "address",
          "name": "",
          "type": "address"
        }
      ],
      "name": "venusBorrowSpeeds",
      "outputs": [
        {
          "internalType": "uint256",
          "name": "",
          "type": "uint256"
        }
      ],
      "payable": false,
      "stateMutability": "view",
      "type": "function"
    },
    {
      "constant": true,
      "inputs": [
        {
          "internalType": "address",
          "name": "",
          "type": "address"
        }
      ],
      "name": "venusBorrowState",
      "outputs": [
        {
          "internalType": "uint224",
          "name": "index",
          "type": "uint224"
        },
        {
          "internalType": "uint32",
          "name": "block",
          "type": "uint32"
        }
      ],
      "payable": false,
      "stateMutability": "view",
      "type": "function"
    },
    {
      "constant": true,
      "inputs": [
        {
          "internalType": "address",
          "name": "",
          "type": "address"
        },
        {
          "internalType": "address",
          "name": "",
          "type": "address"
        }
      ],
      "name": "venusBorrowerIndex",
      "outputs": [
        {
          "internalType": "uint256",
          "name": "",
          "type": "uint256"
        }
      ],
      "payable": false,
      "stateMutability": "view",
      "type": "function"
    },
    {
      "constant": true,
      "inputs": [],
      "name": "venusInitialIndex",
      "outputs": [
        {
          "internalType": "uint224",
          "name": "",
          "type": "uint224"
        }
      ],
      "payable": false,
      "stateMutability": "view",
      "type": "function"
    },
    {
      "constant": true,
      "inputs": [
        {
          "internalType": "address",
          "name": "",
          "type": "address"
        },
        {
          "internalType": "address",
          "name": "",
          "type": "address"
        }
      ],
      "name": "venusSupplierIndex",
      "outputs": [
        {
          "internalType": "uint256",
          "name": "",
          "type": "uint256"
        }
      ],
      "payable": false,
      "stateMutability": "view",
      "type": "function"
    },
    {
      "constant": true,
      "inputs": [
        {
          "internalType": "address",
          "name": "",
          "type": "address"
        }
      ],
      "name": "venusSupplySpeeds",
      "outputs": [
        {
          "internalType": "uint256",
          "name": "",
          "type": "uint256"
        }
      ],
      "payable": false,
      "stateMutability": "view",
      "type": "function"
    },
    {
      "constant": true,
      "inputs": [
        {
          "internalType": "address",
          "name": "",
          "type": "address"
        }
      ],
      "name": "venusSupplyState",
      "outputs": [
        {
          "internalType": "uint224",
          "name": "index",
          "type": "uint224"
        },
        {
          "internalType": "uint32",
          "name": "block",
          "type": "uint32"
        }
      ],
      "payable": false,
      "stateMutability": "view",
      "type": "function"
    },
    {
      "constant": true,
      "inputs": [],
      "name": "venusVAIVaultRate",
      "outputs": [
        {
          "internalType": "uint256",
          "name": "",
          "type": "uint256"
        }
      ],
      "payable": false,
      "stateMutability": "view",
      "type": "function"
    }
  ],
  "transactionHash": "0xfa1c2e3eb04a625c4c4bf5e6cf4b1347770f6e041724126db860a969f8a67753",
  "args": [],
  "numDeployments": 1,
  "solcInputHash": "506bbeed5e5814c0309e06940945462d",
  "bytecode": "0x608060405234801561001057600080fd5b50612b35806100206000396000f3fe608060405234801561001057600080fd5b506004361061030c5760003560e01c80638e8f294b1161019d578063c5f956af116100e9578063e37d4b79116100a2578063ededbae61161007c578063ededbae614610b01578063f445d70314610b09578063f851a44014610b37578063fa6331d814610b3f5761030c565b8063e37d4b7914610aa4578063e85a296014610aca578063e875544614610af95761030c565b8063c5f956af1461092c578063c7ee005e14610934578063d09c54ba1461093c578063d3270f9914610a68578063dce1544914610a70578063dcfbc0c714610a9c5761030c565b8063b2eafc3911610156578063bbb8864a11610130578063bbb8864a146108d2578063bec04f72146108f8578063bf32442d14610900578063c5b4db55146109085761030c565b8063b2eafc3914610874578063b8324c7c1461087c578063bb82aa5e146108ca5761030c565b80638e8f294b146107c25780639254f5e51461080a57806394b2294b146108125780639bb27d621461081a578063a7604b4114610822578063adcd5fb91461084e5761030c565b80634ada90af1161025c57806376551383116102155780637dc0d1d0116101ef5780637dc0d1d0146106bd57806386df31ee146106c55780638a7dc165146107765780638c1ac18a1461079c5761030c565b806376551383146106875780637858524d1461068f5780637d172bd5146106b55761030c565b80634ada90af1461048757806352d84d1e1461048f5780635dd3fc9d146104ac578063655f0725146104d257806370bf66f014610549578063719f701b1461067f5761030c565b806324a3d622116102c95780634088c73e116102a35780634088c73e1461042357806341a18d2c1461042b578063425fad58146104595780634a584432146104615761030c565b806324a3d622146103ed57806326782247146103f55780632bc7e29e146103fd5761030c565b806302c3bcbb1461031157806304ef9d581461034957806308e0225c146103515780630db4b4e51461037f57806310b983381461038757806321af4569146103c9575b600080fd5b6103376004803603602081101561032757600080fd5b50356001600160a01b0316610b47565b60408051918252519081900360200190f35b610337610b59565b6103376004803603604081101561036757600080fd5b506001600160a01b0381358116916020013516610b5f565b610337610b7c565b6103b56004803603604081101561039d57600080fd5b506001600160a01b0381358116916020013516610b82565b604080519115158252519081900360200190f35b6103d1610ba2565b604080516001600160a01b039092168252519081900360200190f35b6103d1610bb1565b6103d1610bc0565b6103376004803603602081101561041357600080fd5b50356001600160a01b0316610bcf565b6103b5610be1565b6103376004803603604081101561044157600080fd5b506001600160a01b0381358116916020013516610bea565b6103b5610c07565b6103376004803603602081101561047757600080fd5b50356001600160a01b0316610c16565b610337610c28565b6103d1600480360360208110156104a557600080fd5b5035610c2e565b610337600480360360208110156104c257600080fd5b50356001600160a01b0316610c55565b610337600480360360408110156104e857600080fd5b810190602081018135600160201b81111561050257600080fd5b82018360208201111561051457600080fd5b803590602001918460208302840111600160201b8311171561053557600080fd5b9193509150356001600160a01b0316610c67565b61067d600480360360a081101561055f57600080fd5b810190602081018135600160201b81111561057957600080fd5b82018360208201111561058b57600080fd5b803590602001918460208302840111600160201b831117156105ac57600080fd5b9190808060200260200160405190810160405280939291908181526020018383602002808284376000920191909152509295949360208101935035915050600160201b8111156105fb57600080fd5b82018360208201111561060d57600080fd5b803590602001918460208302840111600160201b8311171561062e57600080fd5b9190808060200260200160405190810160405280939291908181526020018383602002808284376000920191909152509295505050508035151591506020810135151590604001351515610e5e565b005b610337610f0d565b6103b5610f13565b61067d600480360360208110156106a557600080fd5b50356001600160a01b0316610f21565b6103d1610fde565b6103d1610fed565b61067d600480360360408110156106db57600080fd5b6001600160a01b038235169190810190604081016020820135600160201b81111561070557600080fd5b82018360208201111561071757600080fd5b803590602001918460208302840111600160201b8311171561073857600080fd5b919080806020026020016040519081016040528093929190818152602001838360200280828437600092019190915250929550610ffc945050505050565b6103376004803603602081101561078c57600080fd5b50356001600160a01b031661105e565b6103b5600480360360208110156107b257600080fd5b50356001600160a01b0316611070565b6107e8600480360360208110156107d857600080fd5b50356001600160a01b0316611085565b6040805193151584526020840192909252151582820152519081900360600190f35b6103d16110ab565b6103376110ba565b6103d16110c0565b61067d6004803603604081101561083857600080fd5b506001600160a01b0381351690602001356110cf565b61067d6004803603602081101561086457600080fd5b50356001600160a01b0316611168565b6103d16111cf565b6108a26004803603602081101561089257600080fd5b50356001600160a01b03166111de565b604080516001600160e01b03909316835263ffffffff90911660208301528051918290030190f35b6103d1611208565b610337600480360360208110156108e857600080fd5b50356001600160a01b0316611217565b610337611229565b6103d161122f565b61091061123e565b604080516001600160e01b039092168252519081900360200190f35b6103d1611250565b6103d161125f565b61067d6004803603608081101561095257600080fd5b810190602081018135600160201b81111561096c57600080fd5b82018360208201111561097e57600080fd5b803590602001918460208302840111600160201b8311171561099f57600080fd5b9190808060200260200160405190810160405280939291908181526020018383602002808284376000920191909152509295949360208101935035915050600160201b8111156109ee57600080fd5b820183602082011115610a0057600080fd5b803590602001918460208302840111600160201b83111715610a2157600080fd5b91908080602002602001604051908101604052809392919081815260200183836020028082843760009201919091525092955050505080351515915060200135151561126e565b6103d1611282565b6103d160048036036040811015610a8657600080fd5b506001600160a01b038135169060200135611291565b6103d16112c6565b6108a260048036036020811015610aba57600080fd5b50356001600160a01b03166112d5565b6103b560048036036040811015610ae057600080fd5b5080356001600160a01b0316906020013560ff166112ff565b61033761133f565b6103d1611345565b6103b560048036036040811015610b1f57600080fd5b506001600160a01b0381358116916020013516611354565b6103d1611374565b610337611383565b60276020526000908152604090205481565b60225481565b601360209081526000928352604080842090915290825290205481565b601d5481565b602c60209081526000928352604080842090915290825290205460ff1681565b601e546001600160a01b031681565b600a546001600160a01b031681565b6001546001600160a01b031681565b60166020526000908152604090205481565b60185460ff1681565b601260209081526000928352604080842090915290825290205481565b60185462010000900460ff1681565b601f6020526000908152604090205481565b60065481565b600d8181548110610c3b57fe5b6000918252602090912001546001600160a01b0316905081565b602b6020526000908152604090205481565b6000610ca76040518060400160405280601d81526020017f7365697a6556656e757328616464726573735b5d2c6164647265737329000000815250611389565b60408051602080860282810182019093528582528592600092610d4292909189918691829185019084908082843760009201919091525050600d805460408051602080840282018101909252828152945091925090830182828015610d3557602002820191906000526020600020905b81546001600160a01b03168152600190910190602001808311610d17575b50505050506001806114aa565b60005b82811015610def576000878783818110610d5b57fe5b602090810292909201356001600160a01b031660008181526014909352604090922054919250508015610da6576001600160a01b038216600090815260146020526040812055928301925b6040805182815290516001600160a01b038416917fa82ad8dba07d5fde98bd3f0ef9b20c6426de9d477bb7647d46e0c7e50c7dc1b2919081900360200190a25050600101610d45565b508015610e5357603354610e13906001600160a01b0316858363ffffffff61161c16565b6040805182815290516001600160a01b038616917fd7fe674cac9eee3998fe3cbd7a6f93c3bc70509d97ec1550a59364be6438147e919081900360200190a25b9150505b9392505050565b8451610e6c868686866114aa565b60005b81811015610f04576000878281518110610e8557fe5b602002602001015190506000610e9f82600080600061166e565b6001600160a01b03851660009081526014602052604081208054908290559194509092509050610ed18483858a61173c565b90508015610ef5576001600160a01b03841660009081526014602052604090208190555b50505050806001019050610e6f565b50505050505050565b601c5481565b601854610100900460ff1681565b604080516001808252818301909252606091602080830190803883390190505090508181600081518110610f5157fe5b60200260200101906001600160a01b031690816001600160a01b031681525050610fda81600d805480602002602001604051908101604052809291908181526020018280548015610fcb57602002820191906000526020600020905b81546001600160a01b03168152600190910190602001808311610fad575b50505050506001806001610e5e565b5050565b601b546001600160a01b031681565b6004546001600160a01b031681565b60408051600180825281830190925260609160208083019080388339019050509050828160008151811061102c57fe5b60200260200101906001600160a01b031690816001600160a01b031681525050611059818360018061126e565b505050565b60146020526000908152604090205481565b602d6020526000908152604090205460ff1681565b60096020526000908152604090208054600182015460039092015460ff91821692911683565b6015546001600160a01b031681565b60075481565b6025546001600160a01b031681565b6110d7611a27565b60006110e6838360008061173c565b90508015611124576040805162461bcd60e51b81526020600482015260066024820152656e6f2078767360d01b604482015290519081900360640190fd5b6040805183815290516001600160a01b038516917fd7fe674cac9eee3998fe3cbd7a6f93c3bc70509d97ec1550a59364be6438147e919081900360200190a2505050565b6111cc81600d8054806020026020016040519081016040528092919081815260200182805480156111c257602002820191906000526020600020905b81546001600160a01b031681526001909101906020018083116111a4575b5050505050610ffc565b50565b6020546001600160a01b031681565b6010602052600090815260409020546001600160e01b03811690600160e01b900463ffffffff1682565b6002546001600160a01b031681565b602a6020526000908152604090205481565b60175481565b6033546001600160a01b031690565b6a0c097ce7bc90715b34b9f160241b81565b6021546001600160a01b031681565b6031546001600160a01b031681565b61127c848484846000610e5e565b50505050565b6026546001600160a01b031681565b600860205281600052604060002081815481106112aa57fe5b6000918252602090912001546001600160a01b03169150829050565b6003546001600160a01b031681565b6011602052600090815260409020546001600160e01b03811690600160e01b900463ffffffff1682565b6001600160a01b03821660009081526029602052604081208183600881111561132457fe5b815260208101919091526040016000205460ff169392505050565b60055481565b6034546001600160a01b031690565b603260209081526000928352604080842090915290825290205460ff1681565b6000546001600160a01b031681565b601a5481565b602854604080516318c5e8ab60e01b81523360048201818152602483019384528551604484015285516001600160a01b03909516946318c5e8ab949293879391606490910190602085019080838360005b838110156113f25781810151838201526020016113da565b50505050905090810190601f16801561141f5780820380516001836020036101000a031916815260200191505b50935050505060206040518083038186803b15801561143d57600080fd5b505afa158015611451573d6000803e3d6000fd5b505050506040513d602081101561146757600080fd5b50516111cc576040805162461bcd60e51b815260206004820152600d60248201526c1858d8d95cdcc819195b9a5959609a1b604482015290519081900360640190fd5b8351835160009190825b818110156116125760008782815181106114ca57fe5b6020026020010151905061150160096000836001600160a01b03166001600160a01b03168152602001908152602001600020611a79565b86156115c55761150f612a8d565b6040518060200160405280836001600160a01b031663aa5af0fd6040518163ffffffff1660e01b815260040160206040518083038186803b15801561155357600080fd5b505afa158015611567573d6000803e3d6000fd5b505050506040513d602081101561157d57600080fd5b50519052905061158d8282611ac3565b600095505b848610156115c3576115b8828b88815181106115aa57fe5b602002602001015183611c78565b856001019550611592565b505b8515611609576115d481611e18565b600094505b83851015611609576115fe818a87815181106115f157fe5b6020026020010151611fa3565b8460010194506115d9565b506001016114b4565b5050505050505050565b604080516001600160a01b038416602482015260448082018490528251808303909101815260649091019091526020810180516001600160e01b031663a9059cbb60e01b17905261105990849061216b565b6026546040805163a7032efb60e01b81523060048201526001600160a01b03878116602483015286811660448301526064820186905260848201859052915160009384938493849384938493169163a7032efb9160a4808301926060929190829003018186803b1580156116e157600080fd5b505afa1580156116f5573d6000803e3d6000fd5b505050506040513d606081101561170b57600080fd5b5080516020820151604090920151909450909250905082601381111561172d57fe5b9a919950975095505050505050565b600073ef044206db68e40520bfa82d45419d498b4bc7bf6001600160a01b038616148015906117885750737589dd3355dae848fdbf75044a3495351655cb1a6001600160a01b03861614155b80156117b157507333df7a7f6d44307e1e5f3b15975b47515e5524c06001600160a01b03861614155b80156117da57507324e77e5b74b30b026e9996e4bc3329c881e249686001600160a01b03861614155b611819576040805162461bcd60e51b815260206004820152600b60248201526a109b1858dadb1a5cdd195960aa1b604482015290519081900360640190fd5b6033546001600160a01b03168415806118a25750604080516370a0823160e01b815230600482015290516001600160a01b038316916370a08231916024808301926020929190829003018186803b15801561187357600080fd5b505afa158015611887573d6000803e3d6000fd5b505050506040513d602081101561189d57600080fd5b505185115b156118b05784915050611a1f565b836118d9576118cf6001600160a01b038216878763ffffffff61161c16565b6000915050611a1f565b82611916576040805162461bcd60e51b815260206004820152600860248201526718985b9adc9d5c1d60c21b604482015290519081900360640190fd5b6034546001600160a01b039081169061193990831682600063ffffffff61232316565b6119536001600160a01b038316828863ffffffff61232316565b604080516323323e0360e01b81526001600160a01b0389811660048301526024820189905291516000928416916323323e0391604480830192602092919082900301818787803b1580156119a657600080fd5b505af11580156119ba573d6000803e3d6000fd5b505050506040513d60208110156119d057600080fd5b505114611a18576040805162461bcd60e51b815260206004820152601160248201527036b4b73a103132b430b6331032b93937b960791b604482015290519081900360640190fd5b6000925050505b949350505050565b6000546001600160a01b03163314611a77576040805162461bcd60e51b815260206004820152600e60248201526d37b7363c9030b236b4b71031b0b760911b604482015290519081900360640190fd5b565b805460ff166111cc576040805162461bcd60e51b81526020600482015260116024820152701b585c9ad95d081b9bdd081b1a5cdd1959607a1b604482015290519081900360640190fd5b6001600160a01b0382166000908152601160209081526040808320602a9092528220549091611af0612436565b8354909150600090611b129063ffffffff80851691600160e01b900416612477565b90508015801590611b2257508215155b15611c4e576000611b97876001600160a01b03166347bd37186040518163ffffffff1660e01b815260040160206040518083038186803b158015611b6557600080fd5b505afa158015611b79573d6000803e3d6000fd5b505050506040513d6020811015611b8f57600080fd5b5051876124b1565b90506000611ba583866124cf565b9050611baf612a8d565b82611bc95760405180602001604052806000815250611bd3565b611bd38284612511565b604080516020810190915288546001600160e01b03168152909150611c1c90611bfc908361254e565b516040805180820190915260038152620c8c8d60ea1b6020820152612573565b87546001600160e01b0319166001600160e01b039182161716600160e01b63ffffffff87160217875550611c70915050565b8015611c705783546001600160e01b0316600160e01b63ffffffff8416021784555b505050505050565b601b546001600160a01b031615611c9157611c9161260d565b6001600160a01b0383811660009081526011602090815260408083205460138352818420948716845293909152902080546001600160e01b03909216908190559080158015611cee57506a0c097ce7bc90715b34b9f160241b8210155b15611d0457506a0c097ce7bc90715b34b9f160241b5b611d0c612a8d565b6040518060200160405280611d218585612477565b81525090506000611d8a611d84886001600160a01b03166395dd9193896040518263ffffffff1660e01b815260040180826001600160a01b03166001600160a01b0316815260200191505060206040518083038186803b158015611b6557600080fd5b836127d4565b6001600160a01b038716600090815260146020526040902054909150611db09082612802565b6001600160a01b0380881660008181526014602090815260409182902094909455805185815293840188905280519193928b16927f837bdc11fca9f17ce44167944475225a205279b17e88c791c3b1f66f354668fb929081900390910190a350505050505050565b6001600160a01b0381166000908152601060209081526040808320602b9092528220549091611e45612436565b8354909150600090611e679063ffffffff80851691600160e01b900416612477565b90508015801590611e7757508215155b15611f7a576000856001600160a01b03166318160ddd6040518163ffffffff1660e01b815260040160206040518083038186803b158015611eb757600080fd5b505afa158015611ecb573d6000803e3d6000fd5b505050506040513d6020811015611ee157600080fd5b505190506000611ef183866124cf565b9050611efb612a8d565b82611f155760405180602001604052806000815250611f1f565b611f1f8284612511565b604080516020810190915288546001600160e01b03168152909150611f4890611bfc908361254e565b87546001600160e01b0319166001600160e01b039182161716600160e01b63ffffffff87160217875550611f9c915050565b8015611f9c5783546001600160e01b0316600160e01b63ffffffff8416021784555b5050505050565b601b546001600160a01b031615611fbc57611fbc61260d565b6001600160a01b0382811660009081526010602090815260408083205460128352818420948616845293909152902080546001600160e01b0390921690819055908015801561201957506a0c097ce7bc90715b34b9f160241b8210155b1561202f57506a0c097ce7bc90715b34b9f160241b5b612037612a8d565b604051806020016040528061204c8585612477565b815250905060006120de866001600160a01b03166370a08231876040518263ffffffff1660e01b815260040180826001600160a01b03166001600160a01b0316815260200191505060206040518083038186803b1580156120ac57600080fd5b505afa1580156120c0573d6000803e3d6000fd5b505050506040513d60208110156120d657600080fd5b5051836127d4565b6001600160a01b0386166000908152601460205260409020549091506121049082612802565b6001600160a01b0380871660008181526014602090815260409182902094909455805185815293840188905280519193928a16927ffa9d964d891991c113b49e3db1932abd6c67263d387119707aafdd6c4010a3a9929081900390910190a3505050505050565b61217d826001600160a01b0316612838565b6121ce576040805162461bcd60e51b815260206004820152601f60248201527f5361666542455032303a2063616c6c20746f206e6f6e2d636f6e747261637400604482015290519081900360640190fd5b60006060836001600160a01b0316836040518082805190602001908083835b6020831061220c5780518252601f1990920191602091820191016121ed565b6001836020036101000a0380198251168184511680821785525050505050509050019150506000604051808303816000865af19150503d806000811461226e576040519150601f19603f3d011682016040523d82523d6000602084013e612273565b606091505b5091509150816122ca576040805162461bcd60e51b815260206004820181905260248201527f5361666542455032303a206c6f772d6c6576656c2063616c6c206661696c6564604482015290519081900360640190fd5b80511561127c578080602001905160208110156122e657600080fd5b505161127c5760405162461bcd60e51b815260040180806020018281038252602a815260200180612aa1602a913960400191505060405180910390fd5b8015806123a9575060408051636eb1769f60e11b81523060048201526001600160a01b03848116602483015291519185169163dd62ed3e91604480820192602092909190829003018186803b15801561237b57600080fd5b505afa15801561238f573d6000803e3d6000fd5b505050506040513d60208110156123a557600080fd5b5051155b6123e45760405162461bcd60e51b8152600401808060200182810382526036815260200180612acb6036913960400191505060405180910390fd5b604080516001600160a01b038416602482015260448082018490528251808303909101815260649091019091526020810180516001600160e01b031663095ea7b360e01b17905261105990849061216b565b6000612472612443612871565b60405180604001604052806011815260200170626c6f636b2023203e203332206269747360781b815250612875565b905090565b6000610e578383604051806040016040528060158152602001747375627472616374696f6e20756e646572666c6f7760581b8152506128ca565b6000610e576124c884670de0b6b3a76400006124cf565b8351612924565b6000610e5783836040518060400160405280601781526020017f6d756c7469706c69636174696f6e206f766572666c6f77000000000000000000815250612957565b612519612a8d565b604051806020016040528061254561253f866a0c097ce7bc90715b34b9f160241b6124cf565b85612924565b90529392505050565b612556612a8d565b604051806020016040528061254585600001518560000151612802565b600081600160e01b84106126055760405162461bcd60e51b81526004018080602001828103825283818151815260200191508051906020019080838360005b838110156125ca5781810151838201526020016125b2565b50505050905090810190601f1680156125f75780820380516001836020036101000a031916815260200191505b509250505060405180910390fd5b509192915050565b601c5415806126245750601c54612622612871565b105b1561262e57611a77565b603354604080516370a0823160e01b815230600482015290516001600160a01b039092169160009183916370a0823191602480820192602092909190829003018186803b15801561267e57600080fd5b505afa158015612692573d6000803e3d6000fd5b505050506040513d60208110156126a857600080fd5b50519050806126b8575050611a77565b6000806126ce6126c6612871565b601c54612477565b905060006126de601a54836124cf565b90508084106126ef578092506126f3565b8392505b601d54831015612707575050505050611a77565b61270f612871565b601c55601b54612732906001600160a01b0387811691168563ffffffff61161c16565b6040805184815290517ff6d4b8f74d85a6e2d7a50225957b8a6cfec69ad92f5905627260541aa0a5565d9181900360200190a1601b60009054906101000a90046001600160a01b03166001600160a01b031663faa1809e6040518163ffffffff1660e01b8152600401600060405180830381600087803b1580156127b557600080fd5b505af11580156127c9573d6000803e3d6000fd5b505050505050505050565b60006a0c097ce7bc90715b34b9f160241b6127f38484600001516124cf565b816127fa57fe5b049392505050565b6000610e578383604051806040016040528060118152602001706164646974696f6e206f766572666c6f7760781b8152506129d6565b6000813f7fc5d2460186f7233c927e7db2dcc703c0e500b653ca82273b7bfad8045d85a470818114801590611a1f575050151592915050565b4390565b600081600160201b84106126055760405162461bcd60e51b81526020600482018181528351602484015283519092839260449091019190850190808383600083156125ca5781810151838201526020016125b2565b6000818484111561291c5760405162461bcd60e51b81526020600482018181528351602484015283519092839260449091019190850190808383600083156125ca5781810151838201526020016125b2565b505050900390565b6000610e5783836040518060400160405280600e81526020016d646976696465206279207a65726f60901b815250612a2b565b6000831580612964575082155b1561297157506000610e57565b8383028385828161297e57fe5b041483906129cd5760405162461bcd60e51b81526020600482018181528351602484015283519092839260449091019190850190808383600083156125ca5781810151838201526020016125b2565b50949350505050565b600083830182858210156129cd5760405162461bcd60e51b81526020600482018181528351602484015283519092839260449091019190850190808383600083156125ca5781810151838201526020016125b2565b60008183612a7a5760405162461bcd60e51b81526020600482018181528351602484015283519092839260449091019190850190808383600083156125ca5781810151838201526020016125b2565b50828481612a8457fe5b04949350505050565b604051806020016040528060008152509056fe5361666542455032303a204245503230206f7065726174696f6e20646964206e6f7420737563636565645361666542455032303a20617070726f76652066726f6d206e6f6e2d7a65726f20746f206e6f6e2d7a65726f20616c6c6f77616e6365a265627a7a723158208ec5ffada85035f211ab1df42fd4524d4c28a59a6dd589daa9968c37ab6903dc64736f6c63430005100032",
  "devdoc": {
    "author": "Venus",
    "details": "This facet contains all the methods related to the reward functionality",
    "methods": {
      "_grantXVS(address,uint256)": {
        "details": "Allows the contract admin to transfer XVS to any recipient based on the recipient's shortfall     Note: If there is not enough XVS, we do not perform the transfer all",
        "params": {
          "amount": "The amount of XVS to (possibly) transfer",
          "recipient": "The address of the recipient to transfer XVS to"
        }
      },
      "actionPaused(address,uint8)": {
        "params": {
          "action": "Action id",
          "market": "vToken address"
        }
      },
      "claimVenus(address)": {
        "params": {
          "holder": "The address to claim XVS for"
        }
      },
      "claimVenus(address,address[])": {
        "params": {
          "holder": "The address to claim XVS for",
          "vTokens": "The list of markets to claim XVS in"
        }
      },
      "claimVenus(address[],address[],bool,bool)": {
        "params": {
          "borrowers": "Whether or not to claim XVS earned by borrowing",
          "holders": "The addresses to claim XVS for",
          "suppliers": "Whether or not to claim XVS earned by supplying",
          "vTokens": "The list of markets to claim XVS in"
        }
      },
      "claimVenus(address[],address[],bool,bool,bool)": {
        "params": {
          "borrowers": "Whether or not to claim XVS earned by borrowing",
          "collateral": "Whether or not to use XVS earned as collateral, only takes effect when the holder has a shortfall",
          "holders": "The addresses to claim XVS for",
          "suppliers": "Whether or not to claim XVS earned by supplying",
          "vTokens": "The list of markets to claim XVS in"
        }
      },
      "claimVenusAsCollateral(address)": {
        "params": {
          "holder": "The address to claim XVS for"
        }
      },
      "getXVSAddress()": {
        "return": "The address of XVS token"
      },
      "getXVSVTokenAddress()": {
        "return": "The address of XVS vToken"
      },
      "seizeVenus(address[],address)": {
        "details": "Seize XVS tokens from the specified holders and transfer to recipient",
        "params": {
          "holders": "Addresses of the XVS holders",
          "recipient": "Address of the XVS token recipient"
        },
        "return": "The total amount of XVS tokens seized and transferred to recipient"
      }
    },
    "title": "RewardFacet"
  },
  "userdoc": {
    "methods": {
      "_grantXVS(address,uint256)": {
        "notice": "Transfer XVS to the recipient"
      },
      "actionPaused(address,uint8)": {
        "notice": "Checks if a certain action is paused on a market"
      },
      "claimVenus(address)": {
        "notice": "Claim all the xvs accrued by holder in all markets and VAI"
      },
      "claimVenus(address,address[])": {
        "notice": "Claim all the xvs accrued by holder in the specified markets"
      },
      "claimVenus(address[],address[],bool,bool)": {
        "notice": "Claim all xvs accrued by the holders"
      },
      "claimVenus(address[],address[],bool,bool,bool)": {
        "notice": "Claim all xvs accrued by the holders"
      },
      "claimVenusAsCollateral(address)": {
        "notice": "Claim all the xvs accrued by holder in all markets, a shorthand for `claimVenus` with collateral set to `true`"
      },
      "getXVSAddress()": {
        "notice": "Returns the XVS address"
      },
      "getXVSVTokenAddress()": {
        "notice": "Returns the XVS vToken address"
      },
      "seizeVenus(address[],address)": {
        "notice": "Seize XVS rewards allocated to holders"
      }
    },
    "notice": "This facet contract provides the external functions related to all claims and rewards of the protocol"
  },
  "storageLayout": {
    "storage": [
      {
        "astId": 2391,
        "contract": "contracts/Comptroller/Diamond/facets/RewardFacet.sol:RewardFacet",
        "label": "admin",
        "offset": 0,
        "slot": "0",
        "type": "t_address"
      },
      {
        "astId": 2393,
        "contract": "contracts/Comptroller/Diamond/facets/RewardFacet.sol:RewardFacet",
        "label": "pendingAdmin",
        "offset": 0,
        "slot": "1",
        "type": "t_address"
      },
      {
        "astId": 2395,
        "contract": "contracts/Comptroller/Diamond/facets/RewardFacet.sol:RewardFacet",
        "label": "comptrollerImplementation",
        "offset": 0,
        "slot": "2",
        "type": "t_address"
      },
      {
        "astId": 2397,
        "contract": "contracts/Comptroller/Diamond/facets/RewardFacet.sol:RewardFacet",
        "label": "pendingComptrollerImplementation",
        "offset": 0,
        "slot": "3",
        "type": "t_address"
      },
      {
        "astId": 2404,
        "contract": "contracts/Comptroller/Diamond/facets/RewardFacet.sol:RewardFacet",
        "label": "oracle",
        "offset": 0,
        "slot": "4",
        "type": "t_contract(PriceOracle)12051"
      },
      {
        "astId": 2406,
        "contract": "contracts/Comptroller/Diamond/facets/RewardFacet.sol:RewardFacet",
        "label": "closeFactorMantissa",
        "offset": 0,
        "slot": "5",
        "type": "t_uint256"
      },
      {
        "astId": 2408,
        "contract": "contracts/Comptroller/Diamond/facets/RewardFacet.sol:RewardFacet",
        "label": "liquidationIncentiveMantissa",
        "offset": 0,
        "slot": "6",
        "type": "t_uint256"
      },
      {
        "astId": 2410,
        "contract": "contracts/Comptroller/Diamond/facets/RewardFacet.sol:RewardFacet",
        "label": "maxAssets",
        "offset": 0,
        "slot": "7",
        "type": "t_uint256"
      },
      {
        "astId": 2415,
        "contract": "contracts/Comptroller/Diamond/facets/RewardFacet.sol:RewardFacet",
        "label": "accountAssets",
        "offset": 0,
        "slot": "8",
        "type": "t_mapping(t_address,t_array(t_contract(VToken)22978)dyn_storage)"
      },
      {
        "astId": 2430,
        "contract": "contracts/Comptroller/Diamond/facets/RewardFacet.sol:RewardFacet",
        "label": "markets",
        "offset": 0,
        "slot": "9",
        "type": "t_mapping(t_address,t_struct(Market)2426_storage)"
      },
      {
        "astId": 2432,
        "contract": "contracts/Comptroller/Diamond/facets/RewardFacet.sol:RewardFacet",
        "label": "pauseGuardian",
        "offset": 0,
        "slot": "10",
        "type": "t_address"
      },
      {
        "astId": 2434,
        "contract": "contracts/Comptroller/Diamond/facets/RewardFacet.sol:RewardFacet",
        "label": "_mintGuardianPaused",
        "offset": 20,
        "slot": "10",
        "type": "t_bool"
      },
      {
        "astId": 2436,
        "contract": "contracts/Comptroller/Diamond/facets/RewardFacet.sol:RewardFacet",
        "label": "_borrowGuardianPaused",
        "offset": 21,
        "slot": "10",
        "type": "t_bool"
      },
      {
        "astId": 2438,
        "contract": "contracts/Comptroller/Diamond/facets/RewardFacet.sol:RewardFacet",
        "label": "transferGuardianPaused",
        "offset": 22,
        "slot": "10",
        "type": "t_bool"
      },
      {
        "astId": 2440,
        "contract": "contracts/Comptroller/Diamond/facets/RewardFacet.sol:RewardFacet",
        "label": "seizeGuardianPaused",
        "offset": 23,
        "slot": "10",
        "type": "t_bool"
      },
      {
        "astId": 2444,
        "contract": "contracts/Comptroller/Diamond/facets/RewardFacet.sol:RewardFacet",
        "label": "mintGuardianPaused",
        "offset": 0,
        "slot": "11",
        "type": "t_mapping(t_address,t_bool)"
      },
      {
        "astId": 2448,
        "contract": "contracts/Comptroller/Diamond/facets/RewardFacet.sol:RewardFacet",
        "label": "borrowGuardianPaused",
        "offset": 0,
        "slot": "12",
        "type": "t_mapping(t_address,t_bool)"
      },
      {
        "astId": 2456,
        "contract": "contracts/Comptroller/Diamond/facets/RewardFacet.sol:RewardFacet",
        "label": "allMarkets",
        "offset": 0,
        "slot": "13",
        "type": "t_array(t_contract(VToken)22978)dyn_storage"
      },
      {
        "astId": 2458,
        "contract": "contracts/Comptroller/Diamond/facets/RewardFacet.sol:RewardFacet",
        "label": "venusRate",
        "offset": 0,
        "slot": "14",
        "type": "t_uint256"
      },
      {
        "astId": 2462,
        "contract": "contracts/Comptroller/Diamond/facets/RewardFacet.sol:RewardFacet",
        "label": "venusSpeeds",
        "offset": 0,
        "slot": "15",
        "type": "t_mapping(t_address,t_uint256)"
      },
      {
        "astId": 2466,
        "contract": "contracts/Comptroller/Diamond/facets/RewardFacet.sol:RewardFacet",
        "label": "venusSupplyState",
        "offset": 0,
        "slot": "16",
        "type": "t_mapping(t_address,t_struct(VenusMarketState)2453_storage)"
      },
      {
        "astId": 2470,
        "contract": "contracts/Comptroller/Diamond/facets/RewardFacet.sol:RewardFacet",
        "label": "venusBorrowState",
        "offset": 0,
        "slot": "17",
        "type": "t_mapping(t_address,t_struct(VenusMarketState)2453_storage)"
      },
      {
        "astId": 2476,
        "contract": "contracts/Comptroller/Diamond/facets/RewardFacet.sol:RewardFacet",
        "label": "venusSupplierIndex",
        "offset": 0,
        "slot": "18",
        "type": "t_mapping(t_address,t_mapping(t_address,t_uint256))"
      },
      {
        "astId": 2482,
        "contract": "contracts/Comptroller/Diamond/facets/RewardFacet.sol:RewardFacet",
        "label": "venusBorrowerIndex",
        "offset": 0,
        "slot": "19",
        "type": "t_mapping(t_address,t_mapping(t_address,t_uint256))"
      },
      {
        "astId": 2486,
        "contract": "contracts/Comptroller/Diamond/facets/RewardFacet.sol:RewardFacet",
        "label": "venusAccrued",
        "offset": 0,
        "slot": "20",
        "type": "t_mapping(t_address,t_uint256)"
      },
      {
        "astId": 2488,
        "contract": "contracts/Comptroller/Diamond/facets/RewardFacet.sol:RewardFacet",
        "label": "vaiController",
        "offset": 0,
        "slot": "21",
        "type": "t_contract(VAIControllerInterface)15527"
      },
      {
        "astId": 2492,
        "contract": "contracts/Comptroller/Diamond/facets/RewardFacet.sol:RewardFacet",
        "label": "mintedVAIs",
        "offset": 0,
        "slot": "22",
        "type": "t_mapping(t_address,t_uint256)"
      },
      {
        "astId": 2494,
        "contract": "contracts/Comptroller/Diamond/facets/RewardFacet.sol:RewardFacet",
        "label": "vaiMintRate",
        "offset": 0,
        "slot": "23",
        "type": "t_uint256"
      },
      {
        "astId": 2496,
        "contract": "contracts/Comptroller/Diamond/facets/RewardFacet.sol:RewardFacet",
        "label": "mintVAIGuardianPaused",
        "offset": 0,
        "slot": "24",
        "type": "t_bool"
      },
      {
        "astId": 2498,
        "contract": "contracts/Comptroller/Diamond/facets/RewardFacet.sol:RewardFacet",
        "label": "repayVAIGuardianPaused",
        "offset": 1,
        "slot": "24",
        "type": "t_bool"
      },
      {
        "astId": 2500,
        "contract": "contracts/Comptroller/Diamond/facets/RewardFacet.sol:RewardFacet",
        "label": "protocolPaused",
        "offset": 2,
        "slot": "24",
        "type": "t_bool"
      },
      {
        "astId": 2502,
        "contract": "contracts/Comptroller/Diamond/facets/RewardFacet.sol:RewardFacet",
        "label": "venusVAIRate",
        "offset": 0,
        "slot": "25",
        "type": "t_uint256"
      },
      {
        "astId": 2507,
        "contract": "contracts/Comptroller/Diamond/facets/RewardFacet.sol:RewardFacet",
        "label": "venusVAIVaultRate",
        "offset": 0,
        "slot": "26",
        "type": "t_uint256"
      },
      {
        "astId": 2509,
        "contract": "contracts/Comptroller/Diamond/facets/RewardFacet.sol:RewardFacet",
        "label": "vaiVaultAddress",
        "offset": 0,
        "slot": "27",
        "type": "t_address"
      },
      {
        "astId": 2511,
        "contract": "contracts/Comptroller/Diamond/facets/RewardFacet.sol:RewardFacet",
        "label": "releaseStartBlock",
        "offset": 0,
        "slot": "28",
        "type": "t_uint256"
      },
      {
        "astId": 2513,
        "contract": "contracts/Comptroller/Diamond/facets/RewardFacet.sol:RewardFacet",
        "label": "minReleaseAmount",
        "offset": 0,
        "slot": "29",
        "type": "t_uint256"
      },
      {
        "astId": 2518,
        "contract": "contracts/Comptroller/Diamond/facets/RewardFacet.sol:RewardFacet",
        "label": "borrowCapGuardian",
        "offset": 0,
        "slot": "30",
        "type": "t_address"
      },
      {
        "astId": 2522,
        "contract": "contracts/Comptroller/Diamond/facets/RewardFacet.sol:RewardFacet",
        "label": "borrowCaps",
        "offset": 0,
        "slot": "31",
        "type": "t_mapping(t_address,t_uint256)"
      },
      {
        "astId": 2527,
        "contract": "contracts/Comptroller/Diamond/facets/RewardFacet.sol:RewardFacet",
        "label": "treasuryGuardian",
        "offset": 0,
        "slot": "32",
        "type": "t_address"
      },
      {
        "astId": 2529,
        "contract": "contracts/Comptroller/Diamond/facets/RewardFacet.sol:RewardFacet",
        "label": "treasuryAddress",
        "offset": 0,
        "slot": "33",
        "type": "t_address"
      },
      {
        "astId": 2531,
        "contract": "contracts/Comptroller/Diamond/facets/RewardFacet.sol:RewardFacet",
        "label": "treasuryPercent",
        "offset": 0,
        "slot": "34",
        "type": "t_uint256"
      },
      {
        "astId": 2538,
        "contract": "contracts/Comptroller/Diamond/facets/RewardFacet.sol:RewardFacet",
        "label": "venusContributorSpeeds",
        "offset": 0,
        "slot": "35",
        "type": "t_mapping(t_address,t_uint256)"
      },
      {
        "astId": 2542,
        "contract": "contracts/Comptroller/Diamond/facets/RewardFacet.sol:RewardFacet",
        "label": "lastContributorBlock",
        "offset": 0,
        "slot": "36",
        "type": "t_mapping(t_address,t_uint256)"
      },
      {
        "astId": 2547,
        "contract": "contracts/Comptroller/Diamond/facets/RewardFacet.sol:RewardFacet",
        "label": "liquidatorContract",
        "offset": 0,
        "slot": "37",
        "type": "t_address"
      },
      {
        "astId": 2552,
        "contract": "contracts/Comptroller/Diamond/facets/RewardFacet.sol:RewardFacet",
        "label": "comptrollerLens",
        "offset": 0,
        "slot": "38",
        "type": "t_contract(ComptrollerLensInterface)2366"
      },
      {
        "astId": 2559,
        "contract": "contracts/Comptroller/Diamond/facets/RewardFacet.sol:RewardFacet",
        "label": "supplyCaps",
        "offset": 0,
        "slot": "39",
        "type": "t_mapping(t_address,t_uint256)"
      },
      {
        "astId": 2564,
        "contract": "contracts/Comptroller/Diamond/facets/RewardFacet.sol:RewardFacet",
        "label": "accessControl",
        "offset": 0,
        "slot": "40",
        "type": "t_address"
      },
      {
        "astId": 2570,
        "contract": "contracts/Comptroller/Diamond/facets/RewardFacet.sol:RewardFacet",
        "label": "_actionPaused",
        "offset": 0,
        "slot": "41",
        "type": "t_mapping(t_address,t_mapping(t_uint256,t_bool))"
      },
      {
        "astId": 2577,
        "contract": "contracts/Comptroller/Diamond/facets/RewardFacet.sol:RewardFacet",
        "label": "venusBorrowSpeeds",
        "offset": 0,
        "slot": "42",
        "type": "t_mapping(t_address,t_uint256)"
      },
      {
        "astId": 2581,
        "contract": "contracts/Comptroller/Diamond/facets/RewardFacet.sol:RewardFacet",
        "label": "venusSupplySpeeds",
        "offset": 0,
        "slot": "43",
        "type": "t_mapping(t_address,t_uint256)"
      },
      {
        "astId": 2590,
        "contract": "contracts/Comptroller/Diamond/facets/RewardFacet.sol:RewardFacet",
        "label": "approvedDelegates",
        "offset": 0,
        "slot": "44",
        "type": "t_mapping(t_address,t_mapping(t_address,t_bool))"
      },
      {
        "astId": 2597,
        "contract": "contracts/Comptroller/Diamond/facets/RewardFacet.sol:RewardFacet",
        "label": "isForcedLiquidationEnabled",
        "offset": 0,
        "slot": "45",
        "type": "t_mapping(t_address,t_bool)"
      },
      {
        "astId": 2615,
        "contract": "contracts/Comptroller/Diamond/facets/RewardFacet.sol:RewardFacet",
        "label": "_selectorToFacetAndPosition",
        "offset": 0,
        "slot": "46",
        "type": "t_mapping(t_bytes4,t_struct(FacetAddressAndPosition)2605_storage)"
      },
      {
        "astId": 2619,
        "contract": "contracts/Comptroller/Diamond/facets/RewardFacet.sol:RewardFacet",
        "label": "_facetFunctionSelectors",
        "offset": 0,
        "slot": "47",
        "type": "t_mapping(t_address,t_struct(FacetFunctionSelectors)2611_storage)"
      },
      {
        "astId": 2622,
        "contract": "contracts/Comptroller/Diamond/facets/RewardFacet.sol:RewardFacet",
        "label": "_facetAddresses",
        "offset": 0,
        "slot": "48",
        "type": "t_array(t_address)dyn_storage"
      },
      {
        "astId": 2627,
        "contract": "contracts/Comptroller/Diamond/facets/RewardFacet.sol:RewardFacet",
        "label": "prime",
        "offset": 0,
        "slot": "49",
        "type": "t_contract(IPrime)12228"
      },
      {
        "astId": 2636,
        "contract": "contracts/Comptroller/Diamond/facets/RewardFacet.sol:RewardFacet",
        "label": "isForcedLiquidationEnabledForUser",
        "offset": 0,
        "slot": "50",
        "type": "t_mapping(t_address,t_mapping(t_address,t_bool))"
      },
      {
        "astId": 2641,
        "contract": "contracts/Comptroller/Diamond/facets/RewardFacet.sol:RewardFacet",
        "label": "xvs",
        "offset": 0,
        "slot": "51",
        "type": "t_address"
      },
      {
        "astId": 2643,
        "contract": "contracts/Comptroller/Diamond/facets/RewardFacet.sol:RewardFacet",
        "label": "xvsVToken",
        "offset": 0,
        "slot": "52",
        "type": "t_address"
      }
    ],
    "types": {
      "t_address": {
        "encoding": "inplace",
        "label": "address",
        "numberOfBytes": "20"
      },
      "t_array(t_address)dyn_storage": {
        "base": "t_address",
        "encoding": "dynamic_array",
        "label": "address[]",
        "numberOfBytes": "32"
      },
      "t_array(t_bytes4)dyn_storage": {
        "base": "t_bytes4",
        "encoding": "dynamic_array",
        "label": "bytes4[]",
        "numberOfBytes": "32"
      },
      "t_array(t_contract(VToken)22978)dyn_storage": {
        "base": "t_contract(VToken)22978",
        "encoding": "dynamic_array",
        "label": "contract VToken[]",
        "numberOfBytes": "32"
      },
      "t_bool": {
        "encoding": "inplace",
        "label": "bool",
        "numberOfBytes": "1"
      },
      "t_bytes4": {
        "encoding": "inplace",
        "label": "bytes4",
        "numberOfBytes": "4"
      },
      "t_contract(ComptrollerLensInterface)2366": {
        "encoding": "inplace",
        "label": "contract ComptrollerLensInterface",
        "numberOfBytes": "20"
      },
      "t_contract(IPrime)12228": {
        "encoding": "inplace",
        "label": "contract IPrime",
        "numberOfBytes": "20"
      },
      "t_contract(PriceOracle)12051": {
        "encoding": "inplace",
        "label": "contract PriceOracle",
        "numberOfBytes": "20"
      },
      "t_contract(VAIControllerInterface)15527": {
        "encoding": "inplace",
        "label": "contract VAIControllerInterface",
        "numberOfBytes": "20"
      },
      "t_contract(VToken)22978": {
        "encoding": "inplace",
        "label": "contract VToken",
        "numberOfBytes": "20"
      },
      "t_mapping(t_address,t_array(t_contract(VToken)22978)dyn_storage)": {
        "encoding": "mapping",
        "key": "t_address",
        "label": "mapping(address => contract VToken[])",
        "numberOfBytes": "32",
        "value": "t_array(t_contract(VToken)22978)dyn_storage"
      },
      "t_mapping(t_address,t_bool)": {
        "encoding": "mapping",
        "key": "t_address",
        "label": "mapping(address => bool)",
        "numberOfBytes": "32",
        "value": "t_bool"
      },
      "t_mapping(t_address,t_mapping(t_address,t_bool))": {
        "encoding": "mapping",
        "key": "t_address",
        "label": "mapping(address => mapping(address => bool))",
        "numberOfBytes": "32",
        "value": "t_mapping(t_address,t_bool)"
      },
      "t_mapping(t_address,t_mapping(t_address,t_uint256))": {
        "encoding": "mapping",
        "key": "t_address",
        "label": "mapping(address => mapping(address => uint256))",
        "numberOfBytes": "32",
        "value": "t_mapping(t_address,t_uint256)"
      },
      "t_mapping(t_address,t_mapping(t_uint256,t_bool))": {
        "encoding": "mapping",
        "key": "t_address",
        "label": "mapping(address => mapping(uint256 => bool))",
        "numberOfBytes": "32",
        "value": "t_mapping(t_uint256,t_bool)"
      },
      "t_mapping(t_address,t_struct(FacetFunctionSelectors)2611_storage)": {
        "encoding": "mapping",
        "key": "t_address",
        "label": "mapping(address => struct ComptrollerV13Storage.FacetFunctionSelectors)",
        "numberOfBytes": "32",
        "value": "t_struct(FacetFunctionSelectors)2611_storage"
      },
      "t_mapping(t_address,t_struct(Market)2426_storage)": {
        "encoding": "mapping",
        "key": "t_address",
        "label": "mapping(address => struct ComptrollerV1Storage.Market)",
        "numberOfBytes": "32",
        "value": "t_struct(Market)2426_storage"
      },
      "t_mapping(t_address,t_struct(VenusMarketState)2453_storage)": {
        "encoding": "mapping",
        "key": "t_address",
        "label": "mapping(address => struct ComptrollerV1Storage.VenusMarketState)",
        "numberOfBytes": "32",
        "value": "t_struct(VenusMarketState)2453_storage"
      },
      "t_mapping(t_address,t_uint256)": {
        "encoding": "mapping",
        "key": "t_address",
        "label": "mapping(address => uint256)",
        "numberOfBytes": "32",
        "value": "t_uint256"
      },
      "t_mapping(t_bytes4,t_struct(FacetAddressAndPosition)2605_storage)": {
        "encoding": "mapping",
        "key": "t_bytes4",
        "label": "mapping(bytes4 => struct ComptrollerV13Storage.FacetAddressAndPosition)",
        "numberOfBytes": "32",
        "value": "t_struct(FacetAddressAndPosition)2605_storage"
      },
      "t_mapping(t_uint256,t_bool)": {
        "encoding": "mapping",
        "key": "t_uint256",
        "label": "mapping(uint256 => bool)",
        "numberOfBytes": "32",
        "value": "t_bool"
      },
      "t_struct(FacetAddressAndPosition)2605_storage": {
        "encoding": "inplace",
        "label": "struct ComptrollerV13Storage.FacetAddressAndPosition",
        "members": [
          {
            "astId": 2602,
            "contract": "contracts/Comptroller/Diamond/facets/RewardFacet.sol:RewardFacet",
            "label": "facetAddress",
            "offset": 0,
            "slot": "0",
            "type": "t_address"
          },
          {
            "astId": 2604,
            "contract": "contracts/Comptroller/Diamond/facets/RewardFacet.sol:RewardFacet",
            "label": "functionSelectorPosition",
            "offset": 20,
            "slot": "0",
            "type": "t_uint96"
          }
        ],
        "numberOfBytes": "32"
      },
      "t_struct(FacetFunctionSelectors)2611_storage": {
        "encoding": "inplace",
        "label": "struct ComptrollerV13Storage.FacetFunctionSelectors",
        "members": [
          {
            "astId": 2608,
            "contract": "contracts/Comptroller/Diamond/facets/RewardFacet.sol:RewardFacet",
            "label": "functionSelectors",
            "offset": 0,
            "slot": "0",
            "type": "t_array(t_bytes4)dyn_storage"
          },
          {
            "astId": 2610,
            "contract": "contracts/Comptroller/Diamond/facets/RewardFacet.sol:RewardFacet",
            "label": "facetAddressPosition",
            "offset": 0,
            "slot": "1",
            "type": "t_uint256"
          }
        ],
        "numberOfBytes": "64"
      },
      "t_struct(Market)2426_storage": {
        "encoding": "inplace",
        "label": "struct ComptrollerV1Storage.Market",
        "members": [
          {
            "astId": 2417,
            "contract": "contracts/Comptroller/Diamond/facets/RewardFacet.sol:RewardFacet",
            "label": "isListed",
            "offset": 0,
            "slot": "0",
            "type": "t_bool"
          },
          {
            "astId": 2419,
            "contract": "contracts/Comptroller/Diamond/facets/RewardFacet.sol:RewardFacet",
            "label": "collateralFactorMantissa",
            "offset": 0,
            "slot": "1",
            "type": "t_uint256"
          },
          {
            "astId": 2423,
            "contract": "contracts/Comptroller/Diamond/facets/RewardFacet.sol:RewardFacet",
            "label": "accountMembership",
            "offset": 0,
            "slot": "2",
            "type": "t_mapping(t_address,t_bool)"
          },
          {
            "astId": 2425,
            "contract": "contracts/Comptroller/Diamond/facets/RewardFacet.sol:RewardFacet",
            "label": "isVenus",
            "offset": 0,
            "slot": "3",
            "type": "t_bool"
          }
        ],
        "numberOfBytes": "128"
      },
      "t_struct(VenusMarketState)2453_storage": {
        "encoding": "inplace",
        "label": "struct ComptrollerV1Storage.VenusMarketState",
        "members": [
          {
            "astId": 2450,
            "contract": "contracts/Comptroller/Diamond/facets/RewardFacet.sol:RewardFacet",
            "label": "index",
            "offset": 0,
            "slot": "0",
            "type": "t_uint224"
          },
          {
            "astId": 2452,
            "contract": "contracts/Comptroller/Diamond/facets/RewardFacet.sol:RewardFacet",
            "label": "block",
            "offset": 28,
            "slot": "0",
            "type": "t_uint32"
          }
        ],
        "numberOfBytes": "32"
      },
      "t_uint224": {
        "encoding": "inplace",
        "label": "uint224",
        "numberOfBytes": "28"
      },
      "t_uint256": {
        "encoding": "inplace",
        "label": "uint256",
        "numberOfBytes": "32"
      },
      "t_uint32": {
        "encoding": "inplace",
        "label": "uint32",
        "numberOfBytes": "4"
      },
      "t_uint96": {
        "encoding": "inplace",
        "label": "uint96",
        "numberOfBytes": "12"
      }
    }
  }
}