{
  "address": "0x39B532d141f3243DF455a3Fb30307A9d556bBaDe",
  "abi": [
    {
      "inputs": [],
      "name": "Unauthorized",
      "type": "error"
    },
    {
      "inputs": [],
      "name": "run",
      "outputs": [],
      "stateMutability": "nonpayable",
      "type": "function"
    }
  ],
  "transactionHash": "0x97282bb3ce2931963b2dfb1ff2dc51f74969fdeabe5f3bd4e96c6c452ad85b7b",
  "args": [],
  "numDeployments": 1,
  "solcInputHash": "8251c7f4c76847afe95bbea4bdd1127f",
  "bytecode": "0x6080604052348015600f57600080fd5b506110958061001f6000396000f3fe608060405234801561001057600080fd5b506004361061002b5760003560e01c8063c040622614610030575b600080fd5b61003861003a565b005b73ce10739590001705f7ff231611ba4a48b2820327331461006d576040516282b42960e81b815260040160405180910390fd5b60405163f2b3abbd60e01b8152736b31cbd9636496b8fcffac2edbdac28162b35890600482015273d5c4c2e2facbeb59d0216d0595d63fcdc6f9a1a79063f2b3abbd90602401600060405180830381600087803b1580156100cd57600080fd5b505af11580156100e1573d6000803e3d6000fd5b505060405163f2b3abbd60e01b8152736b31cbd9636496b8fcffac2edbdac28162b35890600482015273b7526572ffe56ab9d7489838bf2e18e3323b441a925063f2b3abbd9150602401600060405180830381600087803b15801561014557600080fd5b505af1158015610159573d6000803e3d6000fd5b505060405163f2b3abbd60e01b8152730f8f7633adbea7025107421a5fbe354219b33faf60048201527308e0a5575de71037ae36abfafb516595fe68e5e4925063f2b3abbd9150602401600060405180830381600087803b1580156101bd57600080fd5b505af11580156101d1573d6000803e3d6000fd5b505060405163f2b3abbd60e01b8152730f8f7633adbea7025107421a5fbe354219b33faf60048201527374469281310195a04840daf6edf576f559a3de80925063f2b3abbd9150602401600060405180830381600087803b15801561023557600080fd5b505af1158015610249573d6000803e3d6000fd5b50506040516345e6a00b60e11b8152734d387015542262057b2ddb3d117ac4efa24ea56360048201527304109575c1dbb4ac2e59e60c783800ea10441bbe9250638bcd40169150602401600060405180830381600087803b1580156102ad57600080fd5b505af11580156102c1573d6000803e3d6000fd5b505060405163f2b3abbd60e01b815273a6ee5513d4bc1f4541e5a98a09ef808f4f9e74776004820152736d6f697e34145bb95c54e77482d97cc261dc237e925063f2b3abbd9150602401600060405180830381600087803b15801561032557600080fd5b505af1158015610339573d6000803e3d6000fd5b505060405163f2b3abbd60e01b8152730f8f7633adbea7025107421a5fbe354219b33faf600482015273162d005f0fff510e54958cfc5cf32a3180a84aab925063f2b3abbd9150602401600060405180830381600087803b15801561039d57600080fd5b505af11580156103b1573d6000803e3d6000fd5b505060405163f2b3abbd60e01b8152730f8f7633adbea7025107421a5fbe354219b33faf600482015273afc13bc065abee838540823431055d2ea52eba52925063f2b3abbd9150602401600060405180830381600087803b15801561041557600080fd5b505af1158015610429573d6000803e3d6000fd5b505060405163f2b3abbd60e01b8152730f8f7633adbea7025107421a5fbe354219b33faf600482015273488ab2826a154da01cc4cc16a8c83d4720d3ca2c925063f2b3abbd9150602401600060405180830381600087803b15801561048d57600080fd5b505af11580156104a1573d6000803e3d6000fd5b505060405163f2b3abbd60e01b8152730f8f7633adbea7025107421a5fbe354219b33faf600482015273b6e9322c49fd75a367fcb17b0fcd62c5070ebcbe925063f2b3abbd9150602401600060405180830381600087803b15801561050557600080fd5b505af1158015610519573d6000803e3d6000fd5b505060405163f2b3abbd60e01b8152730f8f7633adbea7025107421a5fbe354219b33faf60048201527337c28de42ba3d22217995d146fc684b2326ede64925063f2b3abbd9150602401600060405180830381600087803b15801561057d57600080fd5b505af1158015610591573d6000803e3d6000fd5b505060405163f2b3abbd60e01b8152730f8f7633adbea7025107421a5fbe354219b33faf600482015273f912d3001caf6dc4add366a62cc9115b4303c9a9925063f2b3abbd9150602401600060405180830381600087803b1580156105f557600080fd5b505af1158015610609573d6000803e3d6000fd5b505060405163f2b3abbd60e01b815273429d0a66da5e785155b66842447d0bb4ee6930e8600482015273edac03d29ff74b5fdc0cc936f6288312e1459bc6925063f2b3abbd9150602401600060405180830381600087803b15801561066d57600080fd5b505af1158015610681573d6000803e3d6000fd5b505060405163f2b3abbd60e01b815273429d0a66da5e785155b66842447d0bb4ee6930e86004820152733619bddc61189f33365cc572df3a68fb3b316516925063f2b3abbd9150602401600060405180830381600087803b1580156106e557600080fd5b505af11580156106f9573d6000803e3d6000fd5b505060405163f2b3abbd60e01b815273db49a057ab4a3d402abe31b58a04ee04000025f7600482015273714db6c38a17883964b68a07d56ce331501d9eb6925063f2b3abbd9150602401600060405180830381600087803b15801561075d57600080fd5b505af1158015610771573d6000803e3d6000fd5b505060405163f2b3abbd60e01b8152733d1c435930b52b197a5861e8f9f62509445434fc6004820152733a00d9b02781f47d033bad62edc55fbf8d083fb0925063f2b3abbd9150602401600060405180830381600087803b1580156107d557600080fd5b505af11580156107e9573d6000803e3d6000fd5b505060405163f2b3abbd60e01b815273429d0a66da5e785155b66842447d0bb4ee6930e8600482015273369fea97f6fb7510755dca389088d9e2e2819278925063f2b3abbd9150602401600060405180830381600087803b15801561084d57600080fd5b505af1158015610861573d6000803e3d6000fd5b505060405163f2b3abbd60e01b815273429d0a66da5e785155b66842447d0bb4ee6930e86004820152736af3fdb3282c5bb6926269db10837fa8aec67c04925063f2b3abbd9150602401600060405180830381600087803b1580156108c557600080fd5b505af11580156108d9573d6000803e3d6000fd5b505060405163f2b3abbd60e01b815273447512e07c6aad8d356174adf88645e54480697d60048201527335566ed3af9e537be487c98b1811cdf95ad0c32b925063f2b3abbd9150602401600060405180830381600087803b15801561093d57600080fd5b505af1158015610951573d6000803e3d6000fd5b505060405163f2b3abbd60e01b815273137352dc1d46746bdea02b29911bfe4144a7391f600482015273efaacf73ce2d38ed40991f29e72b12c74bd4cf23925063f2b3abbd9150602401600060405180830381600087803b1580156109b557600080fd5b505af11580156109c9573d6000803e3d6000fd5b505060405163f2b3abbd60e01b815273db49a057ab4a3d402abe31b58a04ee04000025f7600482015273171b468b52d7027f12cef90cd065d6776a25e24e925063f2b3abbd9150602401600060405180830381600087803b158015610a2d57600080fd5b505af1158015610a41573d6000803e3d6000fd5b505060405163f2b3abbd60e01b815273798ac25e651734781d9ff2816a1e1a8dd1ec5a4e600482015273f06e662a00796c122aaae935ec4f0be3f74f5636925063f2b3abbd9150602401600060405180830381600087803b158015610aa557600080fd5b505af1158015610ab9573d6000803e3d6000fd5b505060405163f2b3abbd60e01b815273cf744ef5472951cda24283348e62ce86b2c53235600482015273a38110ae4451a86ab754695057d5b5a9bead0387925063f2b3abbd9150602401600060405180830381600087803b158015610b1d57600080fd5b505af1158015610b31573d6000803e3d6000fd5b505060405163f2b3abbd60e01b815273a3244e4719b96e8930aaf24d7d98b77a7913145460048201527395daed37fdd3f557b3a5cceb7d50be65b36721df925063f2b3abbd9150602401600060405180830381600087803b158015610b9557600080fd5b505af1158015610ba9573d6000803e3d6000fd5b505060405163f2b3abbd60e01b8152732612ea702d1d87ca31ef189492c4924ee8174cb960048201527339a239f5117bfac7a1b0b3a517c454113323451d925063f2b3abbd9150602401600060405180830381600087803b158015610c0d57600080fd5b505af1158015610c21573d6000803e3d6000fd5b505060405163f2b3abbd60e01b815273a3244e4719b96e8930aaf24d7d98b77a79131454600482015273bd9eb061444665df7282ec0888b72d60ac41eb8c925063f2b3abbd9150602401600060405180830381600087803b158015610c8557600080fd5b505af1158015610c99573d6000803e3d6000fd5b505060405163f2b3abbd60e01b815273798ac25e651734781d9ff2816a1e1a8dd1ec5a4e6004820152739447b1d4bd192f25416b6acc3b7f06be2f7d6309925063f2b3abbd9150602401600060405180830381600087803b158015610cfd57600080fd5b505af1158015610d11573d6000803e3d6000fd5b505060405163f2b3abbd60e01b815273798ac25e651734781d9ff2816a1e1a8dd1ec5a4e60048201527390535b06ddb00453a5e5f2bc094d498f1cc86032925063f2b3abbd9150602401600060405180830381600087803b158015610d7557600080fd5b505af1158015610d89573d6000803e3d6000fd5b505060405163f2b3abbd60e01b815273798ac25e651734781d9ff2816a1e1a8dd1ec5a4e6004820152738c8a1a0b6e1cb8058037f7bf24de6b79aca5b7b0925063f2b3abbd9150602401600060405180830381600087803b158015610ded57600080fd5b505af1158015610e01573d6000803e3d6000fd5b505060405163f2b3abbd60e01b815273b83ec5a6994ed5779815c7ac3f9668160a210cae60048201527386f8dfb7ca84455174ee9c3edd94867b51da46bd925063f2b3abbd9150602401600060405180830381600087803b158015610e6557600080fd5b505af1158015610e79573d6000803e3d6000fd5b505060405163f2b3abbd60e01b815273798ac25e651734781d9ff2816a1e1a8dd1ec5a4e600482015273519e61d2cda04184fb086bbd2322c1bfea0917cf925063f2b3abbd9150602401600060405180830381600087803b158015610edd57600080fd5b505af1158015610ef1573d6000803e3d6000fd5b505060405163f2b3abbd60e01b815273cf744ef5472951cda24283348e62ce86b2c5323560048201527397cb97b05697c377c0bd09fedce67dbd86b7ab1e925063f2b3abbd9150602401600060405180830381600087803b158015610f5557600080fd5b505af1158015610f69573d6000803e3d6000fd5b505060405163f2b3abbd60e01b815273cf744ef5472951cda24283348e62ce86b2c5323560048201527373f506aefd5e169d48ea21a373b9b0a200e37585925063f2b3abbd9150602401600060405180830381600087803b158015610fcd57600080fd5b505af1158015610fe1573d6000803e3d6000fd5b505060405163f2b3abbd60e01b815273cf744ef5472951cda24283348e62ce86b2c53235600482015273140d5da2ce9fb9a8725cabddb2fe8ea831342c78925063f2b3abbd9150602401600060405180830381600087803b15801561104557600080fd5b505af1158015611059573d6000803e3d6000fd5b5050505056fea2646970667358221220be9bc4be55e8fb83b72a771d3bb0e20ef671ac4f7318ec72261b4093674ccd6364736f6c63430008190033",
  "devdoc": {
    "kind": "dev",
    "methods": {},
    "version": 1
  },
  "userdoc": {
    "kind": "user",
    "methods": {},
    "version": 1
  },
  "storageLayout": {
    "storage": [],
    "types": null
  }
}