{
  "address": "0x1466627df311223bC865EbD9CDBe70c2275F8014",
  "abi": [
    {
      "inputs": [],
      "name": "Unauthorized",
      "type": "error"
    },
    {
      "inputs": [],
      "name": "run",
      "outputs": [],
      "stateMutability": "nonpayable",
      "type": "function"
    }
  ],
  "transactionHash": "0x85c01af01d770b77d538aff49bb2b908e6ed4f25ffc7cd0a3b6e063692711362",
  "args": [],
  "numDeployments": 1,
  "solcInputHash": "431836192a34afbbc2d47ed2f35f38e0",
  "bytecode": "0x6080604052348015600f57600080fd5b50610eb58061001f6000396000f3fe608060405234801561001057600080fd5b506004361061002b5760003560e01c8063c040622614610030575b600080fd5b61003861003a565b005b73ce10739590001705f7ff231611ba4a48b2820327331461006d576040516282b42960e81b815260040160405180910390fd5b60405163f2b3abbd60e01b815273c8dc4a0a29e2423664556a31349da3ff26850e8d600482015273d5c4c2e2facbeb59d0216d0595d63fcdc6f9a1a79063f2b3abbd90602401600060405180830381600087803b1580156100cd57600080fd5b505af11580156100e1573d6000803e3d6000fd5b505060405163f2b3abbd60e01b815273c8dc4a0a29e2423664556a31349da3ff26850e8d600482015273b7526572ffe56ab9d7489838bf2e18e3323b441a925063f2b3abbd9150602401600060405180830381600087803b15801561014557600080fd5b505af1158015610159573d6000803e3d6000fd5b505060405163f2b3abbd60e01b815273c8dc4a0a29e2423664556a31349da3ff26850e8d60048201527308e0a5575de71037ae36abfafb516595fe68e5e4925063f2b3abbd9150602401600060405180830381600087803b1580156101bd57600080fd5b505af11580156101d1573d6000803e3d6000fd5b505060405163f2b3abbd60e01b815273c8dc4a0a29e2423664556a31349da3ff26850e8d60048201527374469281310195a04840daf6edf576f559a3de80925063f2b3abbd9150602401600060405180830381600087803b15801561023557600080fd5b505af1158015610249573d6000803e3d6000fd5b50506040516345e6a00b60e11b8152734fae14f71c3ee15635d7161292ec5f1f09f70ad760048201527304109575c1dbb4ac2e59e60c783800ea10441bbe9250638bcd40169150602401600060405180830381600087803b1580156102ad57600080fd5b505af11580156102c1573d6000803e3d6000fd5b505060405163f2b3abbd60e01b8152739c2666e33aee517975d61e573dbf5b829c342c036004820152736d6f697e34145bb95c54e77482d97cc261dc237e925063f2b3abbd9150602401600060405180830381600087803b15801561032557600080fd5b505af1158015610339573d6000803e3d6000fd5b505060405163f2b3abbd60e01b815273c8dc4a0a29e2423664556a31349da3ff26850e8d600482015273162d005f0fff510e54958cfc5cf32a3180a84aab925063f2b3abbd9150602401600060405180830381600087803b15801561039d57600080fd5b505af11580156103b1573d6000803e3d6000fd5b505060405163f2b3abbd60e01b815273c8dc4a0a29e2423664556a31349da3ff26850e8d600482015273afc13bc065abee838540823431055d2ea52eba52925063f2b3abbd9150602401600060405180830381600087803b15801561041557600080fd5b505af1158015610429573d6000803e3d6000fd5b505060405163f2b3abbd60e01b815273c8dc4a0a29e2423664556a31349da3ff26850e8d600482015273488ab2826a154da01cc4cc16a8c83d4720d3ca2c925063f2b3abbd9150602401600060405180830381600087803b15801561048d57600080fd5b505af11580156104a1573d6000803e3d6000fd5b505060405163f2b3abbd60e01b815273c8dc4a0a29e2423664556a31349da3ff26850e8d600482015273b6e9322c49fd75a367fcb17b0fcd62c5070ebcbe925063f2b3abbd9150602401600060405180830381600087803b15801561050557600080fd5b505af1158015610519573d6000803e3d6000fd5b505060405163f2b3abbd60e01b815273c8dc4a0a29e2423664556a31349da3ff26850e8d60048201527337c28de42ba3d22217995d146fc684b2326ede64925063f2b3abbd9150602401600060405180830381600087803b15801561057d57600080fd5b505af1158015610591573d6000803e3d6000fd5b505060405163f2b3abbd60e01b815273c8dc4a0a29e2423664556a31349da3ff26850e8d600482015273f912d3001caf6dc4add366a62cc9115b4303c9a9925063f2b3abbd9150602401600060405180830381600087803b1580156105f557600080fd5b505af1158015610609573d6000803e3d6000fd5b505060405163f2b3abbd60e01b815273253b09357d5d1cde57db6356cde77cd0bd963a09600482015273edac03d29ff74b5fdc0cc936f6288312e1459bc6925063f2b3abbd9150602401600060405180830381600087803b15801561066d57600080fd5b505af1158015610681573d6000803e3d6000fd5b505060405163f2b3abbd60e01b815273253b09357d5d1cde57db6356cde77cd0bd963a096004820152733619bddc61189f33365cc572df3a68fb3b316516925063f2b3abbd9150602401600060405180830381600087803b1580156106e557600080fd5b505af11580156106f9573d6000803e3d6000fd5b505060405163f2b3abbd60e01b8152739657300eea812f2920f416ce4008713690253716600482015273714db6c38a17883964b68a07d56ce331501d9eb6925063f2b3abbd9150602401600060405180830381600087803b15801561075d57600080fd5b505af1158015610771573d6000803e3d6000fd5b505060405163f2b3abbd60e01b8152733985fd3fa7975bb08c962797640a84297fdbe2626004820152733a00d9b02781f47d033bad62edc55fbf8d083fb0925063f2b3abbd9150602401600060405180830381600087803b1580156107d557600080fd5b505af11580156107e9573d6000803e3d6000fd5b505060405163f2b3abbd60e01b815273253b09357d5d1cde57db6356cde77cd0bd963a09600482015273369fea97f6fb7510755dca389088d9e2e2819278925063f2b3abbd9150602401600060405180830381600087803b15801561084d57600080fd5b505af1158015610861573d6000803e3d6000fd5b505060405163f2b3abbd60e01b815273253b09357d5d1cde57db6356cde77cd0bd963a096004820152736af3fdb3282c5bb6926269db10837fa8aec67c04925063f2b3abbd9150602401600060405180830381600087803b1580156108c557600080fd5b505af11580156108d9573d6000803e3d6000fd5b505060405163f2b3abbd60e01b815273962edf115d24240930f7b1cf95eaec9e49f06f9260048201527335566ed3af9e537be487c98b1811cdf95ad0c32b925063f2b3abbd9150602401600060405180830381600087803b15801561093d57600080fd5b505af1158015610951573d6000803e3d6000fd5b505060405163f2b3abbd60e01b815273de06a850d42dcff216e1efca5358cb167da247ca600482015273efaacf73ce2d38ed40991f29e72b12c74bd4cf23925063f2b3abbd9150602401600060405180830381600087803b1580156109b557600080fd5b505af11580156109c9573d6000803e3d6000fd5b505060405163f2b3abbd60e01b8152739657300eea812f2920f416ce4008713690253716600482015273171b468b52d7027f12cef90cd065d6776a25e24e925063f2b3abbd9150602401600060405180830381600087803b158015610a2d57600080fd5b505af1158015610a41573d6000803e3d6000fd5b505060405163f2b3abbd60e01b8152732182450ec9780f17511feace6fc3ed8f774157b3600482015273f06e662a00796c122aaae935ec4f0be3f74f5636925063f2b3abbd9150602401600060405180830381600087803b158015610aa557600080fd5b505af1158015610ab9573d6000803e3d6000fd5b505060405163f2b3abbd60e01b8152738f63ca20a6f0805f44d56afb4b32520488218540600482015273a38110ae4451a86ab754695057d5b5a9bead0387925063f2b3abbd9150602401600060405180830381600087803b158015610b1d57600080fd5b505af1158015610b31573d6000803e3d6000fd5b505060405163f2b3abbd60e01b81527393ad9750ca2f89984ee6790a7cecc4aa9c07cfec60048201527395daed37fdd3f557b3a5cceb7d50be65b36721df925063f2b3abbd9150602401600060405180830381600087803b158015610b9557600080fd5b505af1158015610ba9573d6000803e3d6000fd5b505060405163f2b3abbd60e01b8152736d95fcd7f086a6ea2e0f1b057c1fbddc1c18c14660048201527339a239f5117bfac7a1b0b3a517c454113323451d925063f2b3abbd9150602401600060405180830381600087803b158015610c0d57600080fd5b505af1158015610c21573d6000803e3d6000fd5b505060405163f2b3abbd60e01b81527393ad9750ca2f89984ee6790a7cecc4aa9c07cfec600482015273bd9eb061444665df7282ec0888b72d60ac41eb8c925063f2b3abbd9150602401600060405180830381600087803b158015610c8557600080fd5b505af1158015610c99573d6000803e3d6000fd5b505060405163f2b3abbd60e01b815273a5f1d44f7d2ea604aaeba6eed438e07c31ee1dd26004820152739447b1d4bd192f25416b6acc3b7f06be2f7d6309925063f2b3abbd9150602401600060405180830381600087803b158015610cfd57600080fd5b505af1158015610d11573d6000803e3d6000fd5b505060405163f2b3abbd60e01b815273a5f1d44f7d2ea604aaeba6eed438e07c31ee1dd260048201527390535b06ddb00453a5e5f2bc094d498f1cc86032925063f2b3abbd9150602401600060405180830381600087803b158015610d7557600080fd5b505af1158015610d89573d6000803e3d6000fd5b505060405163f2b3abbd60e01b815273a5f1d44f7d2ea604aaeba6eed438e07c31ee1dd26004820152738c8a1a0b6e1cb8058037f7bf24de6b79aca5b7b0925063f2b3abbd9150602401600060405180830381600087803b158015610ded57600080fd5b505af1158015610e01573d6000803e3d6000fd5b505060405163f2b3abbd60e01b81527324b5bde69d8e4280a30e1dabb2f8b0152c30228c60048201527386f8dfb7ca84455174ee9c3edd94867b51da46bd925063f2b3abbd9150602401600060405180830381600087803b158015610e6557600080fd5b505af1158015610e79573d6000803e3d6000fd5b5050505056fea264697066735822122034f943e8e74c95429de4e4540a7da928578d4bb5081b21e47cca77ebb9a66a4064736f6c63430008190033",
  "devdoc": {
    "kind": "dev",
    "methods": {},
    "version": 1
  },
  "userdoc": {
    "kind": "user",
    "methods": {},
    "version": 1
  },
  "storageLayout": {
    "storage": [],
    "types": null
  }
}