{
  "address": "0xa6624EcbcA3328Dc7b5741db0Cd0c2f2653f2608",
  "abi": [
    {
      "inputs": [],
      "name": "AlreadyInSelectedPool",
      "type": "error"
    },
    {
      "inputs": [],
      "name": "ArrayLengthMismatch",
      "type": "error"
    },
    {
      "inputs": [],
      "name": "BorrowNotAllowedInPool",
      "type": "error"
    },
    {
      "inputs": [],
      "name": "EmptyPoolLabel",
      "type": "error"
    },
    {
      "inputs": [],
      "name": "ExecuteFlashLoanFailed",
      "type": "error"
    },
    {
      "inputs": [],
      "name": "FailedToCreateDebtPosition",
      "type": "error"
    },
    {
      "inputs": [],
      "name": "FlashLoanNotEnabled",
      "type": "error"
    },
    {
      "inputs": [
        {
          "internalType": "uint96",
          "name": "poolId",
          "type": "uint96"
        }
      ],
      "name": "InactivePool",
      "type": "error"
    },
    {
      "inputs": [],
      "name": "IncompatibleBorrowedAssets",
      "type": "error"
    },
    {
      "inputs": [],
      "name": "InvalidAmount",
      "type": "error"
    },
    {
      "inputs": [],
      "name": "InvalidFlashLoanParams",
      "type": "error"
    },
    {
      "inputs": [],
      "name": "InvalidMode",
      "type": "error"
    },
    {
      "inputs": [],
      "name": "InvalidOperationForCorePool",
      "type": "error"
    },
    {
      "inputs": [
        {
          "internalType": "enum WeightFunction",
          "name": "strategy",
          "type": "uint8"
        }
      ],
      "name": "InvalidWeightingStrategy",
      "type": "error"
    },
    {
      "inputs": [
        {
          "internalType": "uint256",
          "name": "errorCode",
          "type": "uint256"
        },
        {
          "internalType": "uint256",
          "name": "shortfall",
          "type": "uint256"
        }
      ],
      "name": "LiquidityCheckFailed",
      "type": "error"
    },
    {
      "inputs": [
        {
          "internalType": "uint96",
          "name": "poolId",
          "type": "uint96"
        },
        {
          "internalType": "address",
          "name": "vToken",
          "type": "address"
        }
      ],
      "name": "MarketAlreadyListed",
      "type": "error"
    },
    {
      "inputs": [],
      "name": "MarketConfigNotFound",
      "type": "error"
    },
    {
      "inputs": [],
      "name": "MarketNotListedInCorePool",
      "type": "error"
    },
    {
      "inputs": [],
      "name": "NoAssetsRequested",
      "type": "error"
    },
    {
      "inputs": [],
      "name": "NotAnApprovedDelegate",
      "type": "error"
    },
    {
      "inputs": [
        {
          "internalType": "uint256",
          "name": "repaid",
          "type": "uint256"
        },
        {
          "internalType": "uint256",
          "name": "required",
          "type": "uint256"
        }
      ],
      "name": "NotEnoughRepayment",
      "type": "error"
    },
    {
      "inputs": [
        {
          "internalType": "uint96",
          "name": "poolId",
          "type": "uint96"
        }
      ],
      "name": "PoolDoesNotExist",
      "type": "error"
    },
    {
      "inputs": [
        {
          "internalType": "uint96",
          "name": "poolId",
          "type": "uint96"
        },
        {
          "internalType": "address",
          "name": "vToken",
          "type": "address"
        }
      ],
      "name": "PoolMarketNotFound",
      "type": "error"
    },
    {
      "inputs": [
        {
          "internalType": "address",
          "name": "sender",
          "type": "address"
        }
      ],
      "name": "SenderNotAuthorizedForFlashLoan",
      "type": "error"
    },
    {
      "anonymous": false,
      "inputs": [
        {
          "indexed": true,
          "internalType": "contract VToken",
          "name": "vToken",
          "type": "address"
        },
        {
          "indexed": true,
          "internalType": "enum Action",
          "name": "action",
          "type": "uint8"
        },
        {
          "indexed": false,
          "internalType": "bool",
          "name": "pauseState",
          "type": "bool"
        }
      ],
      "name": "ActionPausedMarket",
      "type": "event"
    },
    {
      "anonymous": false,
      "inputs": [
        {
          "indexed": false,
          "internalType": "bool",
          "name": "state",
          "type": "bool"
        }
      ],
      "name": "ActionProtocolPaused",
      "type": "event"
    },
    {
      "anonymous": false,
      "inputs": [
        {
          "indexed": true,
          "internalType": "uint96",
          "name": "poolId",
          "type": "uint96"
        },
        {
          "indexed": true,
          "internalType": "address",
          "name": "market",
          "type": "address"
        },
        {
          "indexed": false,
          "internalType": "bool",
          "name": "oldStatus",
          "type": "bool"
        },
        {
          "indexed": false,
          "internalType": "bool",
          "name": "newStatus",
          "type": "bool"
        }
      ],
      "name": "BorrowAllowedUpdated",
      "type": "event"
    },
    {
      "anonymous": false,
      "inputs": [
        {
          "indexed": false,
          "internalType": "uint256",
          "name": "amount",
          "type": "uint256"
        }
      ],
      "name": "DistributedVAIVaultVenus",
      "type": "event"
    },
    {
      "anonymous": false,
      "inputs": [
        {
          "indexed": false,
          "internalType": "uint256",
          "name": "error",
          "type": "uint256"
        },
        {
          "indexed": false,
          "internalType": "uint256",
          "name": "info",
          "type": "uint256"
        },
        {
          "indexed": false,
          "internalType": "uint256",
          "name": "detail",
          "type": "uint256"
        }
      ],
      "name": "Failure",
      "type": "event"
    },
    {
      "anonymous": false,
      "inputs": [
        {
          "indexed": true,
          "internalType": "address",
          "name": "account",
          "type": "address"
        },
        {
          "indexed": true,
          "internalType": "bool",
          "name": "isWhitelisted",
          "type": "bool"
        }
      ],
      "name": "IsAccountFlashLoanWhitelisted",
      "type": "event"
    },
    {
      "anonymous": false,
      "inputs": [
        {
          "indexed": true,
          "internalType": "address",
          "name": "borrower",
          "type": "address"
        },
        {
          "indexed": true,
          "internalType": "address",
          "name": "vToken",
          "type": "address"
        },
        {
          "indexed": false,
          "internalType": "bool",
          "name": "enable",
          "type": "bool"
        }
      ],
      "name": "IsForcedLiquidationEnabledForUserUpdated",
      "type": "event"
    },
    {
      "anonymous": false,
      "inputs": [
        {
          "indexed": true,
          "internalType": "address",
          "name": "vToken",
          "type": "address"
        },
        {
          "indexed": false,
          "internalType": "bool",
          "name": "enable",
          "type": "bool"
        }
      ],
      "name": "IsForcedLiquidationEnabledUpdated",
      "type": "event"
    },
    {
      "anonymous": false,
      "inputs": [
        {
          "indexed": true,
          "internalType": "contract VToken",
          "name": "vToken",
          "type": "address"
        },
        {
          "indexed": true,
          "internalType": "address",
          "name": "account",
          "type": "address"
        }
      ],
      "name": "MarketEntered",
      "type": "event"
    },
    {
      "anonymous": false,
      "inputs": [
        {
          "indexed": false,
          "internalType": "address",
          "name": "oldAccessControlAddress",
          "type": "address"
        },
        {
          "indexed": false,
          "internalType": "address",
          "name": "newAccessControlAddress",
          "type": "address"
        }
      ],
      "name": "NewAccessControl",
      "type": "event"
    },
    {
      "anonymous": false,
      "inputs": [
        {
          "indexed": true,
          "internalType": "contract VToken",
          "name": "vToken",
          "type": "address"
        },
        {
          "indexed": false,
          "internalType": "uint256",
          "name": "newBorrowCap",
          "type": "uint256"
        }
      ],
      "name": "NewBorrowCap",
      "type": "event"
    },
    {
      "anonymous": false,
      "inputs": [
        {
          "indexed": false,
          "internalType": "uint256",
          "name": "oldCloseFactorMantissa",
          "type": "uint256"
        },
        {
          "indexed": false,
          "internalType": "uint256",
          "name": "newCloseFactorMantissa",
          "type": "uint256"
        }
      ],
      "name": "NewCloseFactor",
      "type": "event"
    },
    {
      "anonymous": false,
      "inputs": [
        {
          "indexed": true,
          "internalType": "uint96",
          "name": "poolId",
          "type": "uint96"
        },
        {
          "indexed": true,
          "internalType": "contract VToken",
          "name": "vToken",
          "type": "address"
        },
        {
          "indexed": false,
          "internalType": "uint256",
          "name": "oldCollateralFactorMantissa",
          "type": "uint256"
        },
        {
          "indexed": false,
          "internalType": "uint256",
          "name": "newCollateralFactorMantissa",
          "type": "uint256"
        }
      ],
      "name": "NewCollateralFactor",
      "type": "event"
    },
    {
      "anonymous": false,
      "inputs": [
        {
          "indexed": false,
          "internalType": "address",
          "name": "oldComptrollerLens",
          "type": "address"
        },
        {
          "indexed": false,
          "internalType": "address",
          "name": "newComptrollerLens",
          "type": "address"
        }
      ],
      "name": "NewComptrollerLens",
      "type": "event"
    },
    {
      "anonymous": false,
      "inputs": [
        {
          "indexed": true,
          "internalType": "uint96",
          "name": "poolId",
          "type": "uint96"
        },
        {
          "indexed": true,
          "internalType": "address",
          "name": "vToken",
          "type": "address"
        },
        {
          "indexed": false,
          "internalType": "uint256",
          "name": "oldLiquidationIncentiveMantissa",
          "type": "uint256"
        },
        {
          "indexed": false,
          "internalType": "uint256",
          "name": "newLiquidationIncentiveMantissa",
          "type": "uint256"
        }
      ],
      "name": "NewLiquidationIncentive",
      "type": "event"
    },
    {
      "anonymous": false,
      "inputs": [
        {
          "indexed": true,
          "internalType": "uint96",
          "name": "poolId",
          "type": "uint96"
        },
        {
          "indexed": true,
          "internalType": "contract VToken",
          "name": "vToken",
          "type": "address"
        },
        {
          "indexed": false,
          "internalType": "uint256",
          "name": "oldLiquidationThresholdMantissa",
          "type": "uint256"
        },
        {
          "indexed": false,
          "internalType": "uint256",
          "name": "newLiquidationThresholdMantissa",
          "type": "uint256"
        }
      ],
      "name": "NewLiquidationThreshold",
      "type": "event"
    },
    {
      "anonymous": false,
      "inputs": [
        {
          "indexed": false,
          "internalType": "address",
          "name": "oldLiquidatorContract",
          "type": "address"
        },
        {
          "indexed": false,
          "internalType": "address",
          "name": "newLiquidatorContract",
          "type": "address"
        }
      ],
      "name": "NewLiquidatorContract",
      "type": "event"
    },
    {
      "anonymous": false,
      "inputs": [
        {
          "indexed": false,
          "internalType": "address",
          "name": "oldPauseGuardian",
          "type": "address"
        },
        {
          "indexed": false,
          "internalType": "address",
          "name": "newPauseGuardian",
          "type": "address"
        }
      ],
      "name": "NewPauseGuardian",
      "type": "event"
    },
    {
      "anonymous": false,
      "inputs": [
        {
          "indexed": false,
          "internalType": "contract ResilientOracleInterface",
          "name": "oldPriceOracle",
          "type": "address"
        },
        {
          "indexed": false,
          "internalType": "contract ResilientOracleInterface",
          "name": "newPriceOracle",
          "type": "address"
        }
      ],
      "name": "NewPriceOracle",
      "type": "event"
    },
    {
      "anonymous": false,
      "inputs": [
        {
          "indexed": false,
          "internalType": "contract IPrime",
          "name": "oldPrimeToken",
          "type": "address"
        },
        {
          "indexed": false,
          "internalType": "contract IPrime",
          "name": "newPrimeToken",
          "type": "address"
        }
      ],
      "name": "NewPrimeToken",
      "type": "event"
    },
    {
      "anonymous": false,
      "inputs": [
        {
          "indexed": true,
          "internalType": "contract VToken",
          "name": "vToken",
          "type": "address"
        },
        {
          "indexed": false,
          "internalType": "uint256",
          "name": "newSupplyCap",
          "type": "uint256"
        }
      ],
      "name": "NewSupplyCap",
      "type": "event"
    },
    {
      "anonymous": false,
      "inputs": [
        {
          "indexed": false,
          "internalType": "address",
          "name": "oldTreasuryAddress",
          "type": "address"
        },
        {
          "indexed": false,
          "internalType": "address",
          "name": "newTreasuryAddress",
          "type": "address"
        }
      ],
      "name": "NewTreasuryAddress",
      "type": "event"
    },
    {
      "anonymous": false,
      "inputs": [
        {
          "indexed": false,
          "internalType": "address",
          "name": "oldTreasuryGuardian",
          "type": "address"
        },
        {
          "indexed": false,
          "internalType": "address",
          "name": "newTreasuryGuardian",
          "type": "address"
        }
      ],
      "name": "NewTreasuryGuardian",
      "type": "event"
    },
    {
      "anonymous": false,
      "inputs": [
        {
          "indexed": false,
          "internalType": "uint256",
          "name": "oldTreasuryPercent",
          "type": "uint256"
        },
        {
          "indexed": false,
          "internalType": "uint256",
          "name": "newTreasuryPercent",
          "type": "uint256"
        }
      ],
      "name": "NewTreasuryPercent",
      "type": "event"
    },
    {
      "anonymous": false,
      "inputs": [
        {
          "indexed": false,
          "internalType": "contract VAIControllerInterface",
          "name": "oldVAIController",
          "type": "address"
        },
        {
          "indexed": false,
          "internalType": "contract VAIControllerInterface",
          "name": "newVAIController",
          "type": "address"
        }
      ],
      "name": "NewVAIController",
      "type": "event"
    },
    {
      "anonymous": false,
      "inputs": [
        {
          "indexed": false,
          "internalType": "uint256",
          "name": "oldVAIMintRate",
          "type": "uint256"
        },
        {
          "indexed": false,
          "internalType": "uint256",
          "name": "newVAIMintRate",
          "type": "uint256"
        }
      ],
      "name": "NewVAIMintRate",
      "type": "event"
    },
    {
      "anonymous": false,
      "inputs": [
        {
          "indexed": true,
          "internalType": "address",
          "name": "vault_",
          "type": "address"
        },
        {
          "indexed": false,
          "internalType": "uint256",
          "name": "releaseStartBlock_",
          "type": "uint256"
        },
        {
          "indexed": false,
          "internalType": "uint256",
          "name": "releaseInterval_",
          "type": "uint256"
        }
      ],
      "name": "NewVAIVaultInfo",
      "type": "event"
    },
    {
      "anonymous": false,
      "inputs": [
        {
          "indexed": false,
          "internalType": "uint256",
          "name": "oldVenusVAIVaultRate",
          "type": "uint256"
        },
        {
          "indexed": false,
          "internalType": "uint256",
          "name": "newVenusVAIVaultRate",
          "type": "uint256"
        }
      ],
      "name": "NewVenusVAIVaultRate",
      "type": "event"
    },
    {
      "anonymous": false,
      "inputs": [
        {
          "indexed": true,
          "internalType": "address",
          "name": "oldXVS",
          "type": "address"
        },
        {
          "indexed": true,
          "internalType": "address",
          "name": "newXVS",
          "type": "address"
        }
      ],
      "name": "NewXVSToken",
      "type": "event"
    },
    {
      "anonymous": false,
      "inputs": [
        {
          "indexed": true,
          "internalType": "address",
          "name": "oldXVSVToken",
          "type": "address"
        },
        {
          "indexed": true,
          "internalType": "address",
          "name": "newXVSVToken",
          "type": "address"
        }
      ],
      "name": "NewXVSVToken",
      "type": "event"
    },
    {
      "anonymous": false,
      "inputs": [
        {
          "indexed": true,
          "internalType": "uint96",
          "name": "poolId",
          "type": "uint96"
        },
        {
          "indexed": false,
          "internalType": "bool",
          "name": "oldStatus",
          "type": "bool"
        },
        {
          "indexed": false,
          "internalType": "bool",
          "name": "newStatus",
          "type": "bool"
        }
      ],
      "name": "PoolActiveStatusUpdated",
      "type": "event"
    },
    {
      "anonymous": false,
      "inputs": [
        {
          "indexed": true,
          "internalType": "uint96",
          "name": "poolId",
          "type": "uint96"
        },
        {
          "indexed": false,
          "internalType": "bool",
          "name": "oldStatus",
          "type": "bool"
        },
        {
          "indexed": false,
          "internalType": "bool",
          "name": "newStatus",
          "type": "bool"
        }
      ],
      "name": "PoolFallbackStatusUpdated",
      "type": "event"
    },
    {
      "anonymous": false,
      "inputs": [
        {
          "indexed": true,
          "internalType": "uint96",
          "name": "poolId",
          "type": "uint96"
        },
        {
          "indexed": false,
          "internalType": "string",
          "name": "oldLabel",
          "type": "string"
        },
        {
          "indexed": false,
          "internalType": "string",
          "name": "newLabel",
          "type": "string"
        }
      ],
      "name": "PoolLabelUpdated",
      "type": "event"
    },
    {
      "inputs": [
        {
          "internalType": "address",
          "name": "newAccessControlAddress",
          "type": "address"
        }
      ],
      "name": "_setAccessControl",
      "outputs": [
        {
          "internalType": "uint256",
          "name": "",
          "type": "uint256"
        }
      ],
      "stateMutability": "nonpayable",
      "type": "function"
    },
    {
      "inputs": [
        {
          "internalType": "address[]",
          "name": "markets_",
          "type": "address[]"
        },
        {
          "internalType": "enum Action[]",
          "name": "actions_",
          "type": "uint8[]"
        },
        {
          "internalType": "bool",
          "name": "paused_",
          "type": "bool"
        }
      ],
      "name": "_setActionsPaused",
      "outputs": [],
      "stateMutability": "nonpayable",
      "type": "function"
    },
    {
      "inputs": [
        {
          "internalType": "uint256",
          "name": "newCloseFactorMantissa",
          "type": "uint256"
        }
      ],
      "name": "_setCloseFactor",
      "outputs": [
        {
          "internalType": "uint256",
          "name": "",
          "type": "uint256"
        }
      ],
      "stateMutability": "nonpayable",
      "type": "function"
    },
    {
      "inputs": [
        {
          "internalType": "contract ComptrollerLensInterface",
          "name": "comptrollerLens_",
          "type": "address"
        }
      ],
      "name": "_setComptrollerLens",
      "outputs": [
        {
          "internalType": "uint256",
          "name": "",
          "type": "uint256"
        }
      ],
      "stateMutability": "nonpayable",
      "type": "function"
    },
    {
      "inputs": [
        {
          "internalType": "address",
          "name": "vTokenBorrowed",
          "type": "address"
        },
        {
          "internalType": "bool",
          "name": "enable",
          "type": "bool"
        }
      ],
      "name": "_setForcedLiquidation",
      "outputs": [],
      "stateMutability": "nonpayable",
      "type": "function"
    },
    {
      "inputs": [
        {
          "internalType": "address",
          "name": "borrower",
          "type": "address"
        },
        {
          "internalType": "address",
          "name": "vTokenBorrowed",
          "type": "address"
        },
        {
          "internalType": "bool",
          "name": "enable",
          "type": "bool"
        }
      ],
      "name": "_setForcedLiquidationForUser",
      "outputs": [],
      "stateMutability": "nonpayable",
      "type": "function"
    },
    {
      "inputs": [
        {
          "internalType": "address",
          "name": "newLiquidatorContract_",
          "type": "address"
        }
      ],
      "name": "_setLiquidatorContract",
      "outputs": [],
      "stateMutability": "nonpayable",
      "type": "function"
    },
    {
      "inputs": [
        {
          "internalType": "contract VToken[]",
          "name": "vTokens",
          "type": "address[]"
        },
        {
          "internalType": "uint256[]",
          "name": "newBorrowCaps",
          "type": "uint256[]"
        }
      ],
      "name": "_setMarketBorrowCaps",
      "outputs": [],
      "stateMutability": "nonpayable",
      "type": "function"
    },
    {
      "inputs": [
        {
          "internalType": "contract VToken[]",
          "name": "vTokens",
          "type": "address[]"
        },
        {
          "internalType": "uint256[]",
          "name": "newSupplyCaps",
          "type": "uint256[]"
        }
      ],
      "name": "_setMarketSupplyCaps",
      "outputs": [],
      "stateMutability": "nonpayable",
      "type": "function"
    },
    {
      "inputs": [
        {
          "internalType": "address",
          "name": "newPauseGuardian",
          "type": "address"
        }
      ],
      "name": "_setPauseGuardian",
      "outputs": [
        {
          "internalType": "uint256",
          "name": "",
          "type": "uint256"
        }
      ],
      "stateMutability": "nonpayable",
      "type": "function"
    },
    {
      "inputs": [
        {
          "internalType": "contract ResilientOracleInterface",
          "name": "newOracle",
          "type": "address"
        }
      ],
      "name": "_setPriceOracle",
      "outputs": [
        {
          "internalType": "uint256",
          "name": "",
          "type": "uint256"
        }
      ],
      "stateMutability": "nonpayable",
      "type": "function"
    },
    {
      "inputs": [
        {
          "internalType": "contract IPrime",
          "name": "_prime",
          "type": "address"
        }
      ],
      "name": "_setPrimeToken",
      "outputs": [
        {
          "internalType": "uint256",
          "name": "",
          "type": "uint256"
        }
      ],
      "stateMutability": "nonpayable",
      "type": "function"
    },
    {
      "inputs": [
        {
          "internalType": "bool",
          "name": "state",
          "type": "bool"
        }
      ],
      "name": "_setProtocolPaused",
      "outputs": [
        {
          "internalType": "bool",
          "name": "",
          "type": "bool"
        }
      ],
      "stateMutability": "nonpayable",
      "type": "function"
    },
    {
      "inputs": [
        {
          "internalType": "address",
          "name": "newTreasuryGuardian",
          "type": "address"
        },
        {
          "internalType": "address",
          "name": "newTreasuryAddress",
          "type": "address"
        },
        {
          "internalType": "uint256",
          "name": "newTreasuryPercent",
          "type": "uint256"
        }
      ],
      "name": "_setTreasuryData",
      "outputs": [
        {
          "internalType": "uint256",
          "name": "",
          "type": "uint256"
        }
      ],
      "stateMutability": "nonpayable",
      "type": "function"
    },
    {
      "inputs": [
        {
          "internalType": "contract VAIControllerInterface",
          "name": "vaiController_",
          "type": "address"
        }
      ],
      "name": "_setVAIController",
      "outputs": [
        {
          "internalType": "uint256",
          "name": "",
          "type": "uint256"
        }
      ],
      "stateMutability": "nonpayable",
      "type": "function"
    },
    {
      "inputs": [
        {
          "internalType": "uint256",
          "name": "newVAIMintRate",
          "type": "uint256"
        }
      ],
      "name": "_setVAIMintRate",
      "outputs": [
        {
          "internalType": "uint256",
          "name": "",
          "type": "uint256"
        }
      ],
      "stateMutability": "nonpayable",
      "type": "function"
    },
    {
      "inputs": [
        {
          "internalType": "address",
          "name": "vault_",
          "type": "address"
        },
        {
          "internalType": "uint256",
          "name": "releaseStartBlock_",
          "type": "uint256"
        },
        {
          "internalType": "uint256",
          "name": "minReleaseAmount_",
          "type": "uint256"
        }
      ],
      "name": "_setVAIVaultInfo",
      "outputs": [],
      "stateMutability": "nonpayable",
      "type": "function"
    },
    {
      "inputs": [
        {
          "internalType": "uint256",
          "name": "venusVAIVaultRate_",
          "type": "uint256"
        }
      ],
      "name": "_setVenusVAIVaultRate",
      "outputs": [],
      "stateMutability": "nonpayable",
      "type": "function"
    },
    {
      "inputs": [
        {
          "internalType": "address",
          "name": "xvs_",
          "type": "address"
        }
      ],
      "name": "_setXVSToken",
      "outputs": [],
      "stateMutability": "nonpayable",
      "type": "function"
    },
    {
      "inputs": [
        {
          "internalType": "address",
          "name": "xvsVToken_",
          "type": "address"
        }
      ],
      "name": "_setXVSVToken",
      "outputs": [],
      "stateMutability": "nonpayable",
      "type": "function"
    },
    {
      "inputs": [
        {
          "internalType": "address",
          "name": "",
          "type": "address"
        },
        {
          "internalType": "uint256",
          "name": "",
          "type": "uint256"
        }
      ],
      "name": "accountAssets",
      "outputs": [
        {
          "internalType": "contract VToken",
          "name": "",
          "type": "address"
        }
      ],
      "stateMutability": "view",
      "type": "function"
    },
    {
      "inputs": [
        {
          "internalType": "address",
          "name": "market",
          "type": "address"
        },
        {
          "internalType": "enum Action",
          "name": "action",
          "type": "uint8"
        }
      ],
      "name": "actionPaused",
      "outputs": [
        {
          "internalType": "bool",
          "name": "",
          "type": "bool"
        }
      ],
      "stateMutability": "view",
      "type": "function"
    },
    {
      "inputs": [],
      "name": "admin",
      "outputs": [
        {
          "internalType": "address",
          "name": "",
          "type": "address"
        }
      ],
      "stateMutability": "view",
      "type": "function"
    },
    {
      "inputs": [
        {
          "internalType": "uint256",
          "name": "",
          "type": "uint256"
        }
      ],
      "name": "allMarkets",
      "outputs": [
        {
          "internalType": "contract VToken",
          "name": "",
          "type": "address"
        }
      ],
      "stateMutability": "view",
      "type": "function"
    },
    {
      "inputs": [
        {
          "internalType": "address",
          "name": "",
          "type": "address"
        },
        {
          "internalType": "address",
          "name": "",
          "type": "address"
        }
      ],
      "name": "approvedDelegates",
      "outputs": [
        {
          "internalType": "bool",
          "name": "",
          "type": "bool"
        }
      ],
      "stateMutability": "view",
      "type": "function"
    },
    {
      "inputs": [
        {
          "internalType": "address",
          "name": "",
          "type": "address"
        }
      ],
      "name": "authorizedFlashLoan",
      "outputs": [
        {
          "internalType": "bool",
          "name": "",
          "type": "bool"
        }
      ],
      "stateMutability": "view",
      "type": "function"
    },
    {
      "inputs": [],
      "name": "borrowCapGuardian",
      "outputs": [
        {
          "internalType": "address",
          "name": "",
          "type": "address"
        }
      ],
      "stateMutability": "view",
      "type": "function"
    },
    {
      "inputs": [
        {
          "internalType": "address",
          "name": "",
          "type": "address"
        }
      ],
      "name": "borrowCaps",
      "outputs": [
        {
          "internalType": "uint256",
          "name": "",
          "type": "uint256"
        }
      ],
      "stateMutability": "view",
      "type": "function"
    },
    {
      "inputs": [],
      "name": "closeFactorMantissa",
      "outputs": [
        {
          "internalType": "uint256",
          "name": "",
          "type": "uint256"
        }
      ],
      "stateMutability": "view",
      "type": "function"
    },
    {
      "inputs": [],
      "name": "comptrollerImplementation",
      "outputs": [
        {
          "internalType": "address",
          "name": "",
          "type": "address"
        }
      ],
      "stateMutability": "view",
      "type": "function"
    },
    {
      "inputs": [],
      "name": "comptrollerLens",
      "outputs": [
        {
          "internalType": "contract ComptrollerLensInterface",
          "name": "",
          "type": "address"
        }
      ],
      "stateMutability": "view",
      "type": "function"
    },
    {
      "inputs": [],
      "name": "corePoolId",
      "outputs": [
        {
          "internalType": "uint96",
          "name": "",
          "type": "uint96"
        }
      ],
      "stateMutability": "view",
      "type": "function"
    },
    {
      "inputs": [
        {
          "internalType": "uint96",
          "name": "poolId",
          "type": "uint96"
        },
        {
          "internalType": "address",
          "name": "vToken",
          "type": "address"
        }
      ],
      "name": "getPoolMarketIndex",
      "outputs": [
        {
          "internalType": "PoolMarketId",
          "name": "",
          "type": "bytes32"
        }
      ],
      "stateMutability": "pure",
      "type": "function"
    },
    {
      "inputs": [],
      "name": "getXVSAddress",
      "outputs": [
        {
          "internalType": "address",
          "name": "",
          "type": "address"
        }
      ],
      "stateMutability": "view",
      "type": "function"
    },
    {
      "inputs": [
        {
          "internalType": "address",
          "name": "",
          "type": "address"
        }
      ],
      "name": "isForcedLiquidationEnabled",
      "outputs": [
        {
          "internalType": "bool",
          "name": "",
          "type": "bool"
        }
      ],
      "stateMutability": "view",
      "type": "function"
    },
    {
      "inputs": [
        {
          "internalType": "address",
          "name": "user",
          "type": "address"
        },
        {
          "internalType": "address",
          "name": "market",
          "type": "address"
        }
      ],
      "name": "isForcedLiquidationEnabledForUser",
      "outputs": [
        {
          "internalType": "bool",
          "name": "",
          "type": "bool"
        }
      ],
      "stateMutability": "view",
      "type": "function"
    },
    {
      "inputs": [],
      "name": "lastPoolId",
      "outputs": [
        {
          "internalType": "uint96",
          "name": "",
          "type": "uint96"
        }
      ],
      "stateMutability": "view",
      "type": "function"
    },
    {
      "inputs": [],
      "name": "liquidatorContract",
      "outputs": [
        {
          "internalType": "address",
          "name": "",
          "type": "address"
        }
      ],
      "stateMutability": "view",
      "type": "function"
    },
    {
      "inputs": [],
      "name": "maxAssets",
      "outputs": [
        {
          "internalType": "uint256",
          "name": "",
          "type": "uint256"
        }
      ],
      "stateMutability": "view",
      "type": "function"
    },
    {
      "inputs": [],
      "name": "minReleaseAmount",
      "outputs": [
        {
          "internalType": "uint256",
          "name": "",
          "type": "uint256"
        }
      ],
      "stateMutability": "view",
      "type": "function"
    },
    {
      "inputs": [],
      "name": "mintVAIGuardianPaused",
      "outputs": [
        {
          "internalType": "bool",
          "name": "",
          "type": "bool"
        }
      ],
      "stateMutability": "view",
      "type": "function"
    },
    {
      "inputs": [
        {
          "internalType": "address",
          "name": "",
          "type": "address"
        }
      ],
      "name": "mintedVAIs",
      "outputs": [
        {
          "internalType": "uint256",
          "name": "",
          "type": "uint256"
        }
      ],
      "stateMutability": "view",
      "type": "function"
    },
    {
      "inputs": [],
      "name": "oracle",
      "outputs": [
        {
          "internalType": "contract ResilientOracleInterface",
          "name": "",
          "type": "address"
        }
      ],
      "stateMutability": "view",
      "type": "function"
    },
    {
      "inputs": [],
      "name": "pauseGuardian",
      "outputs": [
        {
          "internalType": "address",
          "name": "",
          "type": "address"
        }
      ],
      "stateMutability": "view",
      "type": "function"
    },
    {
      "inputs": [],
      "name": "pendingAdmin",
      "outputs": [
        {
          "internalType": "address",
          "name": "",
          "type": "address"
        }
      ],
      "stateMutability": "view",
      "type": "function"
    },
    {
      "inputs": [],
      "name": "pendingComptrollerImplementation",
      "outputs": [
        {
          "internalType": "address",
          "name": "",
          "type": "address"
        }
      ],
      "stateMutability": "view",
      "type": "function"
    },
    {
      "inputs": [
        {
          "internalType": "uint96",
          "name": "",
          "type": "uint96"
        }
      ],
      "name": "pools",
      "outputs": [
        {
          "internalType": "string",
          "name": "label",
          "type": "string"
        },
        {
          "internalType": "bool",
          "name": "isActive",
          "type": "bool"
        },
        {
          "internalType": "bool",
          "name": "allowCorePoolFallback",
          "type": "bool"
        }
      ],
      "stateMutability": "view",
      "type": "function"
    },
    {
      "inputs": [],
      "name": "prime",
      "outputs": [
        {
          "internalType": "contract IPrime",
          "name": "",
          "type": "address"
        }
      ],
      "stateMutability": "view",
      "type": "function"
    },
    {
      "inputs": [],
      "name": "protocolPaused",
      "outputs": [
        {
          "internalType": "bool",
          "name": "",
          "type": "bool"
        }
      ],
      "stateMutability": "view",
      "type": "function"
    },
    {
      "inputs": [],
      "name": "releaseStartBlock",
      "outputs": [
        {
          "internalType": "uint256",
          "name": "",
          "type": "uint256"
        }
      ],
      "stateMutability": "view",
      "type": "function"
    },
    {
      "inputs": [],
      "name": "repayVAIGuardianPaused",
      "outputs": [
        {
          "internalType": "bool",
          "name": "",
          "type": "bool"
        }
      ],
      "stateMutability": "view",
      "type": "function"
    },
    {
      "inputs": [
        {
          "internalType": "address[]",
          "name": "markets_",
          "type": "address[]"
        },
        {
          "internalType": "enum Action[]",
          "name": "actions_",
          "type": "uint8[]"
        },
        {
          "internalType": "bool",
          "name": "paused_",
          "type": "bool"
        }
      ],
      "name": "setActionsPaused",
      "outputs": [],
      "stateMutability": "nonpayable",
      "type": "function"
    },
    {
      "inputs": [
        {
          "internalType": "uint96",
          "name": "poolId",
          "type": "uint96"
        },
        {
          "internalType": "bool",
          "name": "allowFallback",
          "type": "bool"
        }
      ],
      "name": "setAllowCorePoolFallback",
      "outputs": [],
      "stateMutability": "nonpayable",
      "type": "function"
    },
    {
      "inputs": [
        {
          "internalType": "uint256",
          "name": "newCloseFactorMantissa",
          "type": "uint256"
        }
      ],
      "name": "setCloseFactor",
      "outputs": [
        {
          "internalType": "uint256",
          "name": "",
          "type": "uint256"
        }
      ],
      "stateMutability": "nonpayable",
      "type": "function"
    },
    {
      "inputs": [
        {
          "internalType": "contract VToken",
          "name": "vToken",
          "type": "address"
        },
        {
          "internalType": "uint256",
          "name": "newCollateralFactorMantissa",
          "type": "uint256"
        },
        {
          "internalType": "uint256",
          "name": "newLiquidationThresholdMantissa",
          "type": "uint256"
        }
      ],
      "name": "setCollateralFactor",
      "outputs": [
        {
          "internalType": "uint256",
          "name": "",
          "type": "uint256"
        }
      ],
      "stateMutability": "nonpayable",
      "type": "function"
    },
    {
      "inputs": [
        {
          "internalType": "uint96",
          "name": "poolId",
          "type": "uint96"
        },
        {
          "internalType": "contract VToken",
          "name": "vToken",
          "type": "address"
        },
        {
          "internalType": "uint256",
          "name": "newCollateralFactorMantissa",
          "type": "uint256"
        },
        {
          "internalType": "uint256",
          "name": "newLiquidationThresholdMantissa",
          "type": "uint256"
        }
      ],
      "name": "setCollateralFactor",
      "outputs": [
        {
          "internalType": "uint256",
          "name": "",
          "type": "uint256"
        }
      ],
      "stateMutability": "nonpayable",
      "type": "function"
    },
    {
      "inputs": [
        {
          "internalType": "address",
          "name": "vTokenBorrowed",
          "type": "address"
        },
        {
          "internalType": "bool",
          "name": "enable",
          "type": "bool"
        }
      ],
      "name": "setForcedLiquidation",
      "outputs": [],
      "stateMutability": "nonpayable",
      "type": "function"
    },
    {
      "inputs": [
        {
          "internalType": "uint96",
          "name": "poolId",
          "type": "uint96"
        },
        {
          "internalType": "address",
          "name": "vToken",
          "type": "address"
        },
        {
          "internalType": "bool",
          "name": "borrowAllowed",
          "type": "bool"
        }
      ],
      "name": "setIsBorrowAllowed",
      "outputs": [],
      "stateMutability": "nonpayable",
      "type": "function"
    },
    {
      "inputs": [
        {
          "internalType": "uint96",
          "name": "poolId",
          "type": "uint96"
        },
        {
          "internalType": "address",
          "name": "vToken",
          "type": "address"
        },
        {
          "internalType": "uint256",
          "name": "newLiquidationIncentiveMantissa",
          "type": "uint256"
        }
      ],
      "name": "setLiquidationIncentive",
      "outputs": [
        {
          "internalType": "uint256",
          "name": "",
          "type": "uint256"
        }
      ],
      "stateMutability": "nonpayable",
      "type": "function"
    },
    {
      "inputs": [
        {
          "internalType": "address",
          "name": "vToken",
          "type": "address"
        },
        {
          "internalType": "uint256",
          "name": "newLiquidationIncentiveMantissa",
          "type": "uint256"
        }
      ],
      "name": "setLiquidationIncentive",
      "outputs": [
        {
          "internalType": "uint256",
          "name": "",
          "type": "uint256"
        }
      ],
      "stateMutability": "nonpayable",
      "type": "function"
    },
    {
      "inputs": [
        {
          "internalType": "contract VToken[]",
          "name": "vTokens",
          "type": "address[]"
        },
        {
          "internalType": "uint256[]",
          "name": "newBorrowCaps",
          "type": "uint256[]"
        }
      ],
      "name": "setMarketBorrowCaps",
      "outputs": [],
      "stateMutability": "nonpayable",
      "type": "function"
    },
    {
      "inputs": [
        {
          "internalType": "contract VToken[]",
          "name": "vTokens",
          "type": "address[]"
        },
        {
          "internalType": "uint256[]",
          "name": "newSupplyCaps",
          "type": "uint256[]"
        }
      ],
      "name": "setMarketSupplyCaps",
      "outputs": [],
      "stateMutability": "nonpayable",
      "type": "function"
    },
    {
      "inputs": [
        {
          "internalType": "address",
          "name": "owner",
          "type": "address"
        },
        {
          "internalType": "uint256",
          "name": "amount",
          "type": "uint256"
        }
      ],
      "name": "setMintedVAIOf",
      "outputs": [
        {
          "internalType": "uint256",
          "name": "",
          "type": "uint256"
        }
      ],
      "stateMutability": "nonpayable",
      "type": "function"
    },
    {
      "inputs": [
        {
          "internalType": "uint96",
          "name": "poolId",
          "type": "uint96"
        },
        {
          "internalType": "bool",
          "name": "active",
          "type": "bool"
        }
      ],
      "name": "setPoolActive",
      "outputs": [],
      "stateMutability": "nonpayable",
      "type": "function"
    },
    {
      "inputs": [
        {
          "internalType": "uint96",
          "name": "poolId",
          "type": "uint96"
        },
        {
          "internalType": "string",
          "name": "newLabel",
          "type": "string"
        }
      ],
      "name": "setPoolLabel",
      "outputs": [],
      "stateMutability": "nonpayable",
      "type": "function"
    },
    {
      "inputs": [
        {
          "internalType": "contract ResilientOracleInterface",
          "name": "newOracle",
          "type": "address"
        }
      ],
      "name": "setPriceOracle",
      "outputs": [
        {
          "internalType": "uint256",
          "name": "",
          "type": "uint256"
        }
      ],
      "stateMutability": "nonpayable",
      "type": "function"
    },
    {
      "inputs": [
        {
          "internalType": "contract IPrime",
          "name": "_prime",
          "type": "address"
        }
      ],
      "name": "setPrimeToken",
      "outputs": [
        {
          "internalType": "uint256",
          "name": "",
          "type": "uint256"
        }
      ],
      "stateMutability": "nonpayable",
      "type": "function"
    },
    {
      "inputs": [
        {
          "internalType": "address",
          "name": "account",
          "type": "address"
        },
        {
          "internalType": "bool",
          "name": "_isWhiteListed",
          "type": "bool"
        }
      ],
      "name": "setWhiteListFlashLoanAccount",
      "outputs": [],
      "stateMutability": "nonpayable",
      "type": "function"
    },
    {
      "inputs": [
        {
          "internalType": "address",
          "name": "",
          "type": "address"
        }
      ],
      "name": "supplyCaps",
      "outputs": [
        {
          "internalType": "uint256",
          "name": "",
          "type": "uint256"
        }
      ],
      "stateMutability": "view",
      "type": "function"
    },
    {
      "inputs": [],
      "name": "treasuryAddress",
      "outputs": [
        {
          "internalType": "address",
          "name": "",
          "type": "address"
        }
      ],
      "stateMutability": "view",
      "type": "function"
    },
    {
      "inputs": [],
      "name": "treasuryGuardian",
      "outputs": [
        {
          "internalType": "address",
          "name": "",
          "type": "address"
        }
      ],
      "stateMutability": "view",
      "type": "function"
    },
    {
      "inputs": [],
      "name": "treasuryPercent",
      "outputs": [
        {
          "internalType": "uint256",
          "name": "",
          "type": "uint256"
        }
      ],
      "stateMutability": "view",
      "type": "function"
    },
    {
      "inputs": [
        {
          "internalType": "address",
          "name": "",
          "type": "address"
        }
      ],
      "name": "userPoolId",
      "outputs": [
        {
          "internalType": "uint96",
          "name": "",
          "type": "uint96"
        }
      ],
      "stateMutability": "view",
      "type": "function"
    },
    {
      "inputs": [],
      "name": "vaiController",
      "outputs": [
        {
          "internalType": "contract VAIControllerInterface",
          "name": "",
          "type": "address"
        }
      ],
      "stateMutability": "view",
      "type": "function"
    },
    {
      "inputs": [],
      "name": "vaiMintRate",
      "outputs": [
        {
          "internalType": "uint256",
          "name": "",
          "type": "uint256"
        }
      ],
      "stateMutability": "view",
      "type": "function"
    },
    {
      "inputs": [],
      "name": "vaiVaultAddress",
      "outputs": [
        {
          "internalType": "address",
          "name": "",
          "type": "address"
        }
      ],
      "stateMutability": "view",
      "type": "function"
    },
    {
      "inputs": [
        {
          "internalType": "address",
          "name": "",
          "type": "address"
        }
      ],
      "name": "venusAccrued",
      "outputs": [
        {
          "internalType": "uint256",
          "name": "",
          "type": "uint256"
        }
      ],
      "stateMutability": "view",
      "type": "function"
    },
    {
      "inputs": [
        {
          "internalType": "address",
          "name": "",
          "type": "address"
        }
      ],
      "name": "venusBorrowSpeeds",
      "outputs": [
        {
          "internalType": "uint256",
          "name": "",
          "type": "uint256"
        }
      ],
      "stateMutability": "view",
      "type": "function"
    },
    {
      "inputs": [
        {
          "internalType": "address",
          "name": "",
          "type": "address"
        }
      ],
      "name": "venusBorrowState",
      "outputs": [
        {
          "internalType": "uint224",
          "name": "index",
          "type": "uint224"
        },
        {
          "internalType": "uint32",
          "name": "block",
          "type": "uint32"
        }
      ],
      "stateMutability": "view",
      "type": "function"
    },
    {
      "inputs": [
        {
          "internalType": "address",
          "name": "",
          "type": "address"
        },
        {
          "internalType": "address",
          "name": "",
          "type": "address"
        }
      ],
      "name": "venusBorrowerIndex",
      "outputs": [
        {
          "internalType": "uint256",
          "name": "",
          "type": "uint256"
        }
      ],
      "stateMutability": "view",
      "type": "function"
    },
    {
      "inputs": [],
      "name": "venusInitialIndex",
      "outputs": [
        {
          "internalType": "uint224",
          "name": "",
          "type": "uint224"
        }
      ],
      "stateMutability": "view",
      "type": "function"
    },
    {
      "inputs": [
        {
          "internalType": "address",
          "name": "",
          "type": "address"
        },
        {
          "internalType": "address",
          "name": "",
          "type": "address"
        }
      ],
      "name": "venusSupplierIndex",
      "outputs": [
        {
          "internalType": "uint256",
          "name": "",
          "type": "uint256"
        }
      ],
      "stateMutability": "view",
      "type": "function"
    },
    {
      "inputs": [
        {
          "internalType": "address",
          "name": "",
          "type": "address"
        }
      ],
      "name": "venusSupplySpeeds",
      "outputs": [
        {
          "internalType": "uint256",
          "name": "",
          "type": "uint256"
        }
      ],
      "stateMutability": "view",
      "type": "function"
    },
    {
      "inputs": [
        {
          "internalType": "address",
          "name": "",
          "type": "address"
        }
      ],
      "name": "venusSupplyState",
      "outputs": [
        {
          "internalType": "uint224",
          "name": "index",
          "type": "uint224"
        },
        {
          "internalType": "uint32",
          "name": "block",
          "type": "uint32"
        }
      ],
      "stateMutability": "view",
      "type": "function"
    },
    {
      "inputs": [],
      "name": "venusVAIVaultRate",
      "outputs": [
        {
          "internalType": "uint256",
          "name": "",
          "type": "uint256"
        }
      ],
      "stateMutability": "view",
      "type": "function"
    }
  ],
  "transactionHash": "0xe3dd95706c523725b11576c89ceaf8e4209711c131ba3cf8ec41347580c2ddc9",
  "args": [],
  "numDeployments": 8,
  "solcInputHash": "e3b23a295799a47b8935e365d2c4321d",
  "bytecode": "0x6080604052348015600e575f80fd5b50613b5b8061001c5f395ff3fe608060405234801561000f575f80fd5b50600436106104a6575f3560e01c80637dc0d1d01161026e578063bbb8864a11610156578063dce15449116100ca578063e87554461161008f578063e875544614610b69578063f445d70314610b72578063f519fc3014610b9f578063f851a44014610bb2578063fa6331d814610bc4578063fd51a3ad14610bcd575f80fd5b8063dce1544914610ad7578063dcfbc0c714610aea578063e0f6123d14610afd578063e37d4b7914610b1f578063e85a296014610b56575f80fd5b8063c5f956af1161011b578063c5f956af14610a84578063c7ee005e14610a97578063d136af4414610714578063d24febad14610aaa578063d3270f9914610abd578063d463654c14610ad0575f80fd5b8063bbb8864a14610a1d578063bec04f7214610a3c578063bf32442d14610a45578063c32094c7146108c6578063c5b4db5514610a56575f80fd5b80639bb27d62116101ed578063a89766dd116101b2578063a89766dd14610963578063b2eafc3914610976578063b8324c7c14610989578063b88d846b146109e4578063bb82aa5e146109f7578063bb85745014610a0a575f80fd5b80639bb27d62146109045780639bd8f6e8146109175780639bf34cbb1461092a5780639cfdd9e61461093d578063a657e57914610950575f80fd5b8063919a373611610233578063919a3736146108a05780639254f5e5146108b35780639460c8b5146108c657806394b2294b146108d957806396c99064146108e2575f80fd5b80637dc0d1d0146108395780638a7dc1651461084c5780638b3113f6146107275780638c1ac18a1461086b5780639159b1771461088d575f80fd5b806342adb2111161039157806355ee1fe1116103105780636662c7c9116102d55780636662c7c9146107a5578063719f701b146107b857806373769099146107c157806376551383146108015780637938146f146108135780637d172bd514610826575f80fd5b806355ee1fe11461074d5780635cc4fdeb146107605780635dd3fc9d146107735780635f5af1aa14610792578063607ef6c11461057d575f80fd5b80634ef233fc116103565780634ef233fc1461070157806351a485e414610714578063522c656b1461072757806352d84d1e1461073a578063530e784f1461074d575f80fd5b806342adb211146106965780634964f48c146106a95780634a584432146106bc5780634d99c776146106db5780634e0853db146106ee575f80fd5b806324aaa220116104285780632ec04124116103ed5780632ec0412414610626578063317b0b771461055557806335439240146106395780634088c73e1461064c57806341a18d2c14610659578063425fad5814610683575f80fd5b806324aaa220146105ce57806326782247146105e15780632a6a6065146105f45780632b5d790c146105ce5780632bc7e29e14610607575f80fd5b806312348e961161046e57806312348e961461055557806317db216314610568578063186db48f1461057d57806321af45691461059057806324a3d622146105bb575f80fd5b806302c3bcbb146104aa57806304ef9d58146104dc57806308e0225c146104e55780630db4b4e51461050f57806310b9833814610518575b5f80fd5b6104c96104b836600461303a565b60276020525f908152604090205481565b6040519081526020015b60405180910390f35b6104c960225481565b6104c96104f3366004613055565b601360209081525f928352604080842090915290825290205481565b6104c9601d5481565b610545610526366004613055565b602c60209081525f928352604080842090915290825290205460ff1681565b60405190151581526020016104d3565b6104c961056336600461308c565b610be0565b61057b6105763660046130b0565b610bf0565b005b61057b61058b366004613140565b610ca4565b601e546105a3906001600160a01b031681565b6040516001600160a01b0390911681526020016104d3565b600a546105a3906001600160a01b031681565b61057b6105dc3660046131a7565b610d15565b6001546105a3906001600160a01b031681565b610545610602366004613225565b610d89565b6104c961061536600461303a565b60166020525f908152604090205481565b6104c961063436600461308c565b610e1f565b6104c961064736600461325b565b610ea2565b6018546105459060ff1681565b6104c9610667366004613055565b601260209081525f928352604080842090915290825290205481565b6018546105459062010000900460ff1681565b61057b6106a4366004613297565b610ed9565b61057b6106b73660046132c3565b610f56565b6104c96106ca36600461303a565b601f6020525f908152604090205481565b6104c96106e93660046132dd565b61108b565b61057b6106fc3660046132f7565b6110a8565b61057b61070f36600461303a565b61116b565b61057b610722366004613140565b611299565b61057b610735366004613297565b611304565b6105a361074836600461308c565b611312565b6104c961075b36600461303a565b61133a565b6104c961076e3660046132f7565b611344565b6104c961078136600461303a565b602b6020525f908152604090205481565b6104c96107a036600461303a565b611372565b61057b6107b336600461308c565b611409565b6104c9601c5481565b6107e96107cf36600461303a565b60356020525f90815260409020546001600160601b031681565b6040516001600160601b0390911681526020016104d3565b60185461054590610100900460ff1681565b61057b6108213660046132c3565b611495565b601b546105a3906001600160a01b031681565b6004546105a3906001600160a01b031681565b6104c961085a36600461303a565b60146020525f908152604090205481565b61054561087936600461303a565b602d6020525f908152604090205460ff1681565b6104c961089b366004613329565b6115bc565b61057b6108ae36600461303a565b6115f5565b6015546105a3906001600160a01b031681565b6104c96108d436600461303a565b611661565b6104c960075481565b6108f56108f036600461336a565b61166b565b6040516104d3939291906133b1565b6025546105a3906001600160a01b031681565b6104c96109253660046133da565b611718565b6104c961093836600461303a565b611745565b6104c961094b36600461303a565b6117db565b6037546107e9906001600160601b031681565b61057b610971366004613404565b611872565b6020546105a3906001600160a01b031681565b6109c061099736600461303a565b60106020525f90815260409020546001600160e01b03811690600160e01b900463ffffffff1682565b604080516001600160e01b03909316835263ffffffff9091166020830152016104d3565b61057b6109f236600461341f565b6119b3565b6002546105a3906001600160a01b031681565b61057b610a1836600461303a565b611b17565b6104c9610a2b36600461303a565b602a6020525f908152604090205481565b6104c960175481565b6033546001600160a01b03166105a3565b610a6c6ec097ce7bc90715b34b9f100000000081565b6040516001600160e01b0390911681526020016104d3565b6021546105a3906001600160a01b031681565b6031546105a3906001600160a01b031681565b6104c9610ab836600461349b565b611bac565b6026546105a3906001600160a01b031681565b6107e95f81565b6105a3610ae53660046133da565b611d13565b6003546105a3906001600160a01b031681565b610545610b0b36600461303a565b60386020525f908152604090205460ff1681565b6109c0610b2d36600461303a565b60116020525f90815260409020546001600160e01b03811690600160e01b900463ffffffff1682565b610545610b643660046134b8565b611d47565b6104c960055481565b610545610b80366004613055565b603260209081525f928352604080842090915290825290205460ff1681565b6104c9610bad36600461303a565b611d8b565b5f546105a3906001600160a01b031681565b6104c9601a5481565b6104c9610bdb3660046133da565b611e22565b5f610bea82611ec6565b92915050565b610c1160405180606001604052806032815260200161392a60329139611fa0565b6015546001600160a01b03838116911614610c3757610c37610c3283612050565b612072565b6001600160a01b038381165f81815260326020908152604080832094871680845294825291829020805460ff191686151590811790915591519182527fc080966e9e93529edc1b244180c245bc60f3d86f1e690a17651a5e428746a8cd91015b60405180910390a3505050565b610d0f8484808060200260200160405190810160405280939291908181526020018383602002808284375f92019190915250506040805160208088028281018201909352878252909350879250869182918501908490808284375f920191909152506120b792505050565b50505050565b610d828585808060200260200160405190810160405280939291908181526020018383602002808284375f92019190915250506040805160208089028281018201909352888252909350889250879182918501908490808284375f92019190915250869250612207915050565b5050505050565b5f610dc86040518060400160405280601881526020017f5f73657450726f746f636f6c50617573656428626f6f6c290000000000000000815250611fa0565b60188054831515620100000262ff0000199091161790556040517fd7500633dd3ddd74daa7af62f8c8404c7fe4a81da179998db851696bed004b3890610e1390841515815260200190565b60405180910390a15090565b5f60175482808203610e4c5760405162461bcd60e51b8152600401610e43906134e7565b60405180910390fd5b610e54612296565b601780549085905560408051828152602081018790527f73747d68b346dce1e932bcd238282e7ac84c01569e1f8d0469c222fdc6e9d5a491015b60405180910390a15f9350505b5050919050565b5f610ec46040518060600160405280602f8152602001613985602f9139611fa0565b610ecf8484846122e2565b90505b9392505050565b610efa6040518060600160405280602a81526020016139b4602a9139611fa0565b610f0382612434565b6001600160a01b0382165f81815260386020526040808220805460ff191685151590811790915590519092917f1f4df5032f431b9890646a781be28b0d693e581666d1a80be27ae3959069172291a35050565b610f946040518060400160405280601a81526020017f736574506f6f6c4163746976652875696e7439362c626f6f6c29000000000000815250611fa0565b6037546001600160601b039081169083161115610fcf57604051632db8671b60e11b81526001600160601b0383166004820152602401610e43565b6001600160601b038216610ff657604051630203217b60e61b815260040160405180910390fd5b6001600160601b0382165f908152603660205260409020600281015482151560ff90911615150361102657505050565b60028101546040805160ff9092161515825283151560208301526001600160601b038516917f75e42fceb039532886a9d75717e843bfef67fd7f6f91f0fc5b1d48e9ce8a1ba9910160405180910390a2600201805460ff191691151591909117905550565b6001600160a01b031660a09190911b6001600160a01b0319161790565b601b546001600160a01b03908116908490811682036110d95760405162461bcd60e51b8152600401610e4390613532565b6110e1612296565b6110ea85612434565b601b546001600160a01b03161561110357611103612482565b601b80546001600160a01b0319166001600160a01b038716908117909155601c859055601d84905560408051868152602081018690527f7059037d74ee16b0fb06a4a30f3348dd2635f301f92e373c92899a25a522ef6e910160405180910390a25050505050565b611173612296565b61117c81612434565b5f816001600160a01b0316636f307dc36040518163ffffffff1660e01b8152600401602060405180830381865afa1580156111b9573d5f803e3d5ffd5b505050506040513d601f19601f820116820180604052508101906111dd9190613574565b6033549091506001600160a01b0380831691161461123d5760405162461bcd60e51b815260206004820152601a60248201527f696e76616c6964207876732076746f6b656e20616464726573730000000000006044820152606401610e43565b6034546040516001600160a01b038085169216907f2565e1579c0926afb7113edbfd85373e85cadaa3e0346f04de19686a2bb86ed1905f90a350603480546001600160a01b0319166001600160a01b0392909216919091179055565b610d0f8484808060200260200160405190810160405280939291908181526020018383602002808284375f92019190915250506040805160208088028281018201909352878252909350879250869182918501908490808284375f9201919091525061261192505050565b61130e8282612761565b5050565b600d8181548110611321575f80fd5b5f918252602090912001546001600160a01b0316905081565b5f610bea82612801565b5f6113666040518060600160405280602c8152602001613a2a602c9139611fa0565b610ecf5f858585612898565b600a545f906001600160a01b03908116908390811682036113a55760405162461bcd60e51b8152600401610e4390613532565b6113ad612296565b6113b684612434565b600a80546001600160a01b038681166001600160a01b03198316179092556040519116907f0613b6ee6a04f0d09f390e4d9318894b9f6ac7fd83897cd8d18896ba579c401e90610e8e908390889061358f565b601a548180820361142c5760405162461bcd60e51b8152600401610e43906134e7565b611434612296565b601b546001600160a01b03161561144d5761144d612482565b601a80549084905560408051828152602081018690527fe81d4ac15e5afa1e708e66664eddc697177423d950d133bda8262d8885e6da3b91015b60405180910390a150505050565b6114b6604051806060016040528060258152602001613a7f60259139611fa0565b6037546001600160601b0390811690831611156114f157604051632db8671b60e11b81526001600160601b0383166004820152602401610e43565b6001600160601b03821661151857604051630203217b60e61b815260040160405180910390fd5b6001600160601b0382165f908152603660205260409020600281015482151561010090910460ff1615150361154c57505050565b60028101546040805161010090920460ff161515825283151560208301526001600160601b038516917f9d2a9183b06e3492f91d3d88ae222e700c8873dd0068f9c3fc783eccb96a1ec4910160405180910390a260020180549115156101000261ff001990921691909117905550565b5f6115de604051806060016040528060338152602001613aa460339139611fa0565b6115ea85858585612898565b90505b949350505050565b6115fd612296565b61160681612434565b6033546040516001600160a01b038084169216907ffe7fd0d872def0f65050e9f38fc6691d0c192c694a56f09b04bec5fb2ea61f2b905f90a3603380546001600160a01b0319166001600160a01b0392909216919091179055565b5f610bea82612ab5565b60366020525f9081526040902080548190611685906135a9565b80601f01602080910402602001604051908101604052809291908181526020018280546116b1906135a9565b80156116fc5780601f106116d3576101008083540402835291602001916116fc565b820191905f5260205f20905b8154815290600101906020018083116116df57829003601f168201915b5050506002909301549192505060ff8082169161010090041683565b5f61173a604051806060016040528060288152602001613ad760289139611fa0565b610ed25f84846122e2565b6026545f906001600160a01b03908116908390811682036117785760405162461bcd60e51b8152600401610e4390613532565b611780612296565b61178984612434565b602680546001600160a01b038681166001600160a01b0319831681179093556040519116917f0f7eb572d1b3053a0a3a33c04151364cf88d163182a5e4e1088cb8e52321e08a91610e8e91849161358f565b6015545f906001600160a01b039081169083908116820361180e5760405162461bcd60e51b8152600401610e4390613532565b611816612296565b61181f84612434565b601580546001600160a01b038681166001600160a01b03198316179092556040519116907fe1ddcb2dab8e5b03cfc8c67a0d5861d91d16f7bd2612fd381faf4541d212c9b290610e8e908390889061358f565b611893604051806060016040528060278152602001613aff60279139611fa0565b6037546001600160601b0390811690841611156118ce57604051632db8671b60e11b81526001600160601b0384166004820152602401610e43565b5f6118d9848461108b565b5f81815260096020526040902080549192509060ff1661190c57604051630665210960e21b815260040160405180910390fd5b82151581600601600c9054906101000a900460ff1615150361192f575050505050565b600681015460408051600160601b90920460ff161515825284151560208301526001600160a01b038616916001600160601b038816917fe40f9c4af130bdb5bd1650ab4bc918dba9d900fa94685f0113e72a6cfe6c5fcc910160405180910390a36006018054921515600160601b0260ff60601b1990931692909217909155505050565b6119f16040518060400160405280601b81526020017f736574506f6f6c4c6162656c2875696e7439362c737472696e67290000000000815250611fa0565b6037546001600160601b039081169084161115611a2c57604051632db8671b60e11b81526001600160601b0384166004820152602401610e43565b6001600160601b038316611a5357604051630203217b60e61b815260040160405180910390fd5b5f819003611a745760405163522e397360e11b815260040160405180910390fd5b6001600160601b0383165f90815260366020526040908190209051611a9c90849084906135e1565b60405190819003812090611ab19083906135f0565b604051809103902003611ac45750505050565b836001600160601b03167f1ebc260ee8077871ff0b70b184ff9dac4ecee8b0f7dcc4f3a3f5068549f5078e825f018585604051611b039392919061368a565b60405180910390a280610d82838583613781565b6025546001600160a01b0390811690829081168203611b485760405162461bcd60e51b8152600401610e4390613532565b611b50612296565b611b5983612434565b602580546001600160a01b038581166001600160a01b03198316179092556040519116907fa5ea5616d5f6dbbaa62fdfcf3856723216eed485c394d9e51ec8e6d40e1d1ac190611487908390879061358f565b6020545f90611bc3906001600160a01b0316612b2a565b670de0b6b3a76400008210611c0c5760405162461bcd60e51b815260206004820152600f60248201526e70657263656e74203e3d203130302560881b6044820152606401610e43565b611c1584612434565b611c1e83612434565b6020805460218054602280546001600160a01b03198086166001600160a01b038c8116919091179097558316898716179093558690556040519284169316917f29f06ea15931797ebaed313d81d100963dc22cb213cb4ce2737b5a62b1a8b1e890611c8c9085908a9061358f565b60405180910390a17f8de763046d7b8f08b6c3d03543de1d615309417842bb5d2d62f110f65809ddac8287604051611cc592919061358f565b60405180910390a160408051828152602081018790527f0893f8f4101baaabbeb513f96761e7a36eb837403c82cc651c292a4abdc94ed7910160405180910390a15f5b979650505050505050565b6008602052815f5260405f208181548110611d2c575f80fd5b5f918252602090912001546001600160a01b03169150829050565b6001600160a01b0382165f90815260296020526040812081836008811115611d7157611d7161351e565b815260208101919091526040015f205460ff169392505050565b6028545f906001600160a01b0390811690839081168203611dbe5760405162461bcd60e51b8152600401610e4390613532565b611dc6612296565b611dcf84612434565b602880546001600160a01b038681166001600160a01b03198316179092556040519116907f0f1eca7612e020f6e4582bcead0573eba4b5f7b56668754c6aed82ef12057dd490610e8e908390889061358f565b5f611e2b612b85565b60185460ff16158015611e465750601854610100900460ff16155b611e825760405162461bcd60e51b815260206004820152600d60248201526c159052481a5cc81c185d5cd959609a1b6044820152606401610e43565b6015546001600160a01b03163314611ea757611ea0600e6016612bd3565b9050610bea565b6001600160a01b0383165f908152601660205260408120839055610ed2565b5f60055482808203611eea5760405162461bcd60e51b8152600401610e43906134e7565b611ef2612296565b604080516020808201835286825282518082018452670c7d713b49da00008152835191820190935266b1a2bc2ec500008152815183519293921080611f38575082518151115b15611f5257611f48600580612bd3565b9550505050610e9b565b600580549088905560408051828152602081018a90527f3b9670cf975d26958e754b57098eaa2ac914d8d2a31b83257997b9f346110fd9910160405180910390a15f98975050505050505050565b6028546040516318c5e8ab60e01b81526001600160a01b03909116906318c5e8ab90611fd2903390859060040161383b565b602060405180830381865afa158015611fed573d5f803e3d5ffd5b505050506040513d601f19601f82011682018060405250810190612011919061385e565b61204d5760405162461bcd60e51b815260206004820152600d60248201526c1858d8d95cdcc819195b9a5959609a1b6044820152606401610e43565b50565b5f60095f61205e5f8561108b565b81526020019081526020015f209050919050565b805460ff1661204d5760405162461bcd60e51b81526020600482015260116024820152701b585c9ad95d081b9bdd081b1a5cdd1959607a1b6044820152606401610e43565b6120d8604051806060016040528060298152602001613a5660299139611fa0565b8151815181158015906120ea57508082145b6121265760405162461bcd60e51b815260206004820152600d60248201526c1a5b9d985b1a59081a5b9c1d5d609a1b6044820152606401610e43565b5f5b82811015610d825783818151811061214257612142613879565b6020026020010151601f5f87848151811061215f5761215f613879565b60200260200101516001600160a01b03166001600160a01b031681526020019081526020015f208190555084818151811061219c5761219c613879565b60200260200101516001600160a01b03167f6f1951b2aad10f3fc81b86d91105b413a5b3f847a34bbc5ce1904201b14438f68583815181106121e0576121e0613879565b60200260200101516040516121f791815260200190565b60405180910390a2600101612128565b61222860405180606001604052806029815260200161395c60299139611fa0565b825182515f5b8281101561228e575f5b828110156122855761227d87838151811061225557612255613879565b602002602001015187838151811061226f5761226f613879565b602002602001015187612c4a565b600101612238565b5060010161222e565b505050505050565b5f546001600160a01b031633146122e05760405162461bcd60e51b815260206004820152600e60248201526d37b7363c9030b236b4b71031b0b760911b6044820152606401610e43565b565b5f60095f6122f0868661108b565b81526020019081526020015f2060050154828082036123215760405162461bcd60e51b8152600401610e43906134e7565b6037546001600160601b03908116908716111561235c57604051632db8671b60e11b81526001600160601b0387166004820152602401610e43565b5f60095f61236a898961108b565b81526020019081526020015f20905061238281612072565b670de0b6b3a76400008510156123cd5760405162461bcd60e51b815260206004820152601060248201526f0d2dcc6cadce8d2ecca40784062ca62760831b6044820152606401610e43565b856001600160a01b0316876001600160601b03167fc1d7bc090f3a87255c2f4e56f66d1b7a49683d279f77921b1701aa5d733ef74583600501548860405161241f929190918252602082015260400190565b60405180910390a3600581018590555f611d08565b6001600160a01b03811661204d5760405162461bcd60e51b815260206004820152601560248201527463616e2774206265207a65726f206164647265737360581b6044820152606401610e43565b601c5415806124925750601c5443105b1561249957565b6033546040516370a0823160e01b81523060048201526001600160a01b03909116905f9082906370a0823190602401602060405180830381865afa1580156124e3573d5f803e3d5ffd5b505050506040513d601f19601f82011682018060405250810190612507919061388d565b9050805f03612514575050565b5f8061252243601c54612cee565b90505f612531601a5483612d27565b905080841061254257809250612546565b8392505b601d54831015612557575050505050565b43601c55601b54612575906001600160a01b03878116911685612d68565b6040518381527ff6d4b8f74d85a6e2d7a50225957b8a6cfec69ad92f5905627260541aa0a5565d9060200160405180910390a1601b5f9054906101000a90046001600160a01b03166001600160a01b031663faa1809e6040518163ffffffff1660e01b81526004015f604051808303815f87803b1580156125f4575f80fd5b505af1158015612606573d5f803e3d5ffd5b505050505050505050565b6126326040518060600160405280602981526020016139de60299139611fa0565b81518151811580159061264457508082145b6126805760405162461bcd60e51b815260206004820152600d60248201526c1a5b9d985b1a59081a5b9c1d5d609a1b6044820152606401610e43565b5f5b82811015610d825783818151811061269c5761269c613879565b602002602001015160275f8784815181106126b9576126b9613879565b60200260200101516001600160a01b03166001600160a01b031681526020019081526020015f20819055508481815181106126f6576126f6613879565b60200260200101516001600160a01b03167f9e0ad9cee10bdf36b7fbd38910c0bdff0f275ace679b45b922381c2723d676f885838151811061273a5761273a613879565b602002602001015160405161275191815260200190565b60405180910390a2600101612682565b612782604051806060016040528060238152602001613a0760239139611fa0565b6015546001600160a01b038381169116146127a3576127a3610c3283612050565b6001600160a01b0382165f818152602d6020908152604091829020805460ff191685151590811790915591519182527f03561d5280ebb02280893b1d60978e4a27e7654a149c5d0e7c2cf65389ce1694910160405180910390a25050565b6004545f906001600160a01b03908116908390811682036128345760405162461bcd60e51b8152600401610e4390613532565b61283c612296565b61284584612434565b600480546001600160a01b038681166001600160a01b03198316179092556040519116907fd52b2b9b7e9ee655fcb95d2e5b9e0c9f69e7ef2b8e9d2d0ea78402d576d22e2290610e8e908390889061358f565b5f6128a284612434565b6037546001600160601b0390811690861611156128dd57604051632db8671b60e11b81526001600160601b0386166004820152602401610e43565b5f60095f6128eb888861108b565b81526020019081526020015f20905061290381612072565b670de0b6b3a76400008411156129275761291f60066008612bd3565b9150506115ed565b83158015906129a157506004805460405163fc57d4df60e01b81526001600160a01b038881169382019390935291169063fc57d4df90602401602060405180830381865afa15801561297b573d5f803e3d5ffd5b505050506040513d601f19601f8201168201806040525081019061299f919061388d565b155b156129b25761291f600d6009612bd3565b670de0b6b3a76400008311156129ce5761291f60146019612bd3565b838310156129e25761291f6014601a612bd3565b6001810154848114612a45576001820185905560408051828152602081018790526001600160a01b038816916001600160601b038a16917f0d1a615379dc62cec7bc63b7e313a07ed659918f4ad3720b3af8041b305146f2910160405180910390a35b6004820154848114612aa8576004830185905560408051828152602081018790526001600160a01b038916916001600160601b038b16917fc90f7b48c299a8d58b0b9e2756e27773c6fb1daab159af052d6c5b791bc7eef7910160405180910390a35b5f98975050505050505050565b5f612abe612296565b612ac782612434565b603180546001600160a01b038481166001600160a01b03198316179092556040519116907fcb20dab7409e4fb972d9adccb39530520b226ce6940d85c9523a499b950b6ea390612b1a908390869061358f565b60405180910390a15f9392505050565b5f546001600160a01b03163314806120115750336001600160a01b0382161461204d5760405162461bcd60e51b815260206004820152600d60248201526c1858d8d95cdcc819195b9a5959609a1b6044820152606401610e43565b60185462010000900460ff16156122e05760405162461bcd60e51b81526020600482015260126024820152711c1c9bdd1bd8dbdb081a5cc81c185d5cd95960721b6044820152606401610e43565b5f7f45b96fe442630264581b197e84bbada861235052c5a1aadfff9ea4e40a969aa0836014811115612c0757612c0761351e565b83601a811115612c1957612c1961351e565b6040805192835260208301919091525f9082015260600160405180910390a1826014811115610ed257610ed261351e565b612c56610c3284612050565b6001600160a01b0383165f9081526029602052604081208291846008811115612c8157612c8161351e565b815260208101919091526040015f20805460ff1916911515919091179055816008811115612cb157612cb161351e565b836001600160a01b03167f35007a986bcd36d2f73fc7f1b73762e12eadb4406dd163194950fd3b5a6a827d83604051610c97911515815260200190565b5f610ed28383604051806040016040528060158152602001747375627472616374696f6e20756e646572666c6f7760581b815250612dbf565b5f610ed283836040518060400160405280601781526020017f6d756c7469706c69636174696f6e206f766572666c6f77000000000000000000815250612ded565b604080516001600160a01b038416602482015260448082018490528251808303909101815260649091019091526020810180516001600160e01b031663a9059cbb60e01b179052612dba908490612e46565b505050565b5f8184841115612de25760405162461bcd60e51b8152600401610e4391906138a4565b50610ecf83856138ca565b5f831580612df9575082155b15612e0557505f610ed2565b5f612e1084866138dd565b905083612e1d86836138f4565b148390612e3d5760405162461bcd60e51b8152600401610e4391906138a4565b50949350505050565b5f612e9a826040518060400160405280602081526020017f5361666545524332303a206c6f772d6c6576656c2063616c6c206661696c6564815250856001600160a01b0316612f199092919063ffffffff16565b905080515f1480612eba575080806020019051810190612eba919061385e565b612dba5760405162461bcd60e51b815260206004820152602a60248201527f5361666545524332303a204552433230206f7065726174696f6e20646964206e6044820152691bdd081cdd58d8d9595960b21b6064820152608401610e43565b6060610ecf84845f85855f80866001600160a01b03168587604051612f3e9190613913565b5f6040518083038185875af1925050503d805f8114612f78576040519150601f19603f3d011682016040523d82523d5f602084013e612f7d565b606091505b5091509150611d088783838760608315612ff75782515f03612ff0576001600160a01b0385163b612ff05760405162461bcd60e51b815260206004820152601d60248201527f416464726573733a2063616c6c20746f206e6f6e2d636f6e74726163740000006044820152606401610e43565b50816115ed565b6115ed838381511561300c5781518083602001fd5b8060405162461bcd60e51b8152600401610e4391906138a4565b6001600160a01b038116811461204d575f80fd5b5f6020828403121561304a575f80fd5b8135610ed281613026565b5f8060408385031215613066575f80fd5b823561307181613026565b9150602083013561308181613026565b809150509250929050565b5f6020828403121561309c575f80fd5b5035919050565b801515811461204d575f80fd5b5f805f606084860312156130c2575f80fd5b83356130cd81613026565b925060208401356130dd81613026565b915060408401356130ed816130a3565b809150509250925092565b5f8083601f840112613108575f80fd5b50813567ffffffffffffffff81111561311f575f80fd5b6020830191508360208260051b8501011115613139575f80fd5b9250929050565b5f805f8060408587031215613153575f80fd5b843567ffffffffffffffff8082111561316a575f80fd5b613176888389016130f8565b9096509450602087013591508082111561318e575f80fd5b5061319b878288016130f8565b95989497509550505050565b5f805f805f606086880312156131bb575f80fd5b853567ffffffffffffffff808211156131d2575f80fd5b6131de89838a016130f8565b909750955060208801359150808211156131f6575f80fd5b50613203888289016130f8565b9094509250506040860135613217816130a3565b809150509295509295909350565b5f60208284031215613235575f80fd5b8135610ed2816130a3565b80356001600160601b0381168114613256575f80fd5b919050565b5f805f6060848603121561326d575f80fd5b61327684613240565b9250602084013561328681613026565b929592945050506040919091013590565b5f80604083850312156132a8575f80fd5b82356132b381613026565b91506020830135613081816130a3565b5f80604083850312156132d4575f80fd5b6132b383613240565b5f80604083850312156132ee575f80fd5b61307183613240565b5f805f60608486031215613309575f80fd5b833561331481613026565b95602085013595506040909401359392505050565b5f805f806080858703121561333c575f80fd5b61334585613240565b9350602085013561335581613026565b93969395505050506040820135916060013590565b5f6020828403121561337a575f80fd5b610ed282613240565b5f81518084528060208401602086015e5f602082860101526020601f19601f83011685010191505092915050565b606081525f6133c36060830186613383565b931515602083015250901515604090910152919050565b5f80604083850312156133eb575f80fd5b82356133f681613026565b946020939093013593505050565b5f805f60608486031215613416575f80fd5b6130cd84613240565b5f805f60408486031215613431575f80fd5b61343a84613240565b9250602084013567ffffffffffffffff80821115613456575f80fd5b818601915086601f830112613469575f80fd5b813581811115613477575f80fd5b876020828501011115613488575f80fd5b6020830194508093505050509250925092565b5f805f606084860312156134ad575f80fd5b833561327681613026565b5f80604083850312156134c9575f80fd5b82356134d481613026565b9150602083013560098110613081575f80fd5b6020808252601e908201527f6f6c642076616c75652069732073616d65206173206e65772076616c75650000604082015260600190565b634e487b7160e01b5f52602160045260245ffd5b60208082526022908201527f6f6c6420616464726573732069732073616d65206173206e6577206164647265604082015261737360f01b606082015260800190565b5f60208284031215613584575f80fd5b8151610ed281613026565b6001600160a01b0392831681529116602082015260400190565b600181811c908216806135bd57607f821691505b6020821081036135db57634e487b7160e01b5f52602260045260245ffd5b50919050565b818382375f9101908152919050565b5f8083546135fd816135a9565b60018281168015613615576001811461362a57613656565b60ff1984168752821515830287019450613656565b875f526020805f205f5b8581101561364d5781548a820152908401908201613634565b50505082870194505b50929695505050505050565b81835281816020850137505f828201602090810191909152601f909101601f19169091010190565b604081525f80855461369b816135a9565b806040860152606060018084165f81146136bc57600181146136d857613707565b60ff1985166060890152606084151560051b8901019550613707565b8a5f526020805f205f5b868110156136fd5781548b82018701529084019082016136e2565b8a01606001975050505b5050505050828103602084015261371f818587613662565b9695505050505050565b634e487b7160e01b5f52604160045260245ffd5b601f821115612dba57805f5260205f20601f840160051c810160208510156137625750805b601f840160051c820191505b81811015610d82575f815560010161376e565b67ffffffffffffffff83111561379957613799613729565b6137ad836137a783546135a9565b8361373d565b5f601f8411600181146137de575f85156137c75750838201355b5f19600387901b1c1916600186901b178355610d82565b5f83815260208120601f198716915b8281101561380d57868501358255602094850194600190920191016137ed565b5086821015613829575f1960f88860031b161c19848701351681555b505060018560011b0183555050505050565b6001600160a01b03831681526040602082018190525f90610ecf90830184613383565b5f6020828403121561386e575f80fd5b8151610ed2816130a3565b634e487b7160e01b5f52603260045260245ffd5b5f6020828403121561389d575f80fd5b5051919050565b602081525f610ed26020830184613383565b634e487b7160e01b5f52601160045260245ffd5b81810381811115610bea57610bea6138b6565b8082028115828204841417610bea57610bea6138b6565b5f8261390e57634e487b7160e01b5f52601260045260245ffd5b500490565b5f82518060208501845e5f92019182525091905056fe5f736574466f726365644c69717569646174696f6e466f725573657228616464726573732c616464726573732c626f6f6c295f736574416374696f6e7350617573656428616464726573735b5d2c75696e74385b5d2c626f6f6c297365744c69717569646174696f6e496e63656e746976652875696e7439362c616464726573732c75696e743235362973657457686974654c697374466c6173684c6f616e4163636f756e7428616464726573732c626f6f6c295f7365744d61726b6574537570706c794361707328616464726573735b5d2c75696e743235365b5d295f736574466f726365644c69717569646174696f6e28616464726573732c626f6f6c29736574436f6c6c61746572616c466163746f7228616464726573732c75696e743235362c75696e74323536295f7365744d61726b6574426f72726f774361707328616464726573735b5d2c75696e743235365b5d29736574416c6c6f77436f7265506f6f6c46616c6c6261636b2875696e7439362c626f6f6c29736574436f6c6c61746572616c466163746f722875696e7439362c616464726573732c75696e743235362c75696e74323536297365744c69717569646174696f6e496e63656e7469766528616464726573732c75696e74323536297365744973426f72726f77416c6c6f7765642875696e7439362c616464726573732c626f6f6c29a26469706673582212202b7dfaef11aece86d2bda6968f07a64091baf1c1621de138b7f0904f5ae86fc364736f6c63430008190033",
  "devdoc": {
    "author": "Venus",
    "details": "This facet contains all the setters for the states",
    "events": {
      "Failure(uint256,uint256,uint256)": {
        "details": "`error` corresponds to enum Error; `info` corresponds to enum FailureInfo, and `detail` is an arbitrary contract-specific code that enables us to report opaque error codes from upgradeable contracts.*"
      }
    },
    "kind": "dev",
    "methods": {
      "_setAccessControl(address)": {
        "details": "Allows the contract admin to set the address of access control of this contract",
        "params": {
          "newAccessControlAddress": "New address for the access control"
        },
        "returns": {
          "_0": "uint256 0=success, otherwise will revert"
        }
      },
      "_setActionsPaused(address[],uint8[],bool)": {
        "details": "Allows a privileged role to pause/unpause the protocol action state",
        "params": {
          "actions_": "List of action ids to pause/unpause",
          "markets_": "Markets to pause/unpause the actions on",
          "paused_": "The new paused state (true=paused, false=unpaused)"
        }
      },
      "_setCloseFactor(uint256)": {
        "details": "Allows the contract admin to set the closeFactor used to liquidate borrows",
        "params": {
          "newCloseFactorMantissa": "New close factor, scaled by 1e18"
        },
        "returns": {
          "_0": "uint256 0=success, otherwise will revert"
        }
      },
      "_setComptrollerLens(address)": {
        "details": "Set ComptrollerLens contract address",
        "params": {
          "comptrollerLens_": "The new ComptrollerLens contract address to be set"
        },
        "returns": {
          "_0": "uint256 0=success, otherwise a failure (see ErrorReporter.sol for details)"
        }
      },
      "_setForcedLiquidation(address,bool)": {
        "details": "Allows a privileged role to set enable/disable forced liquidations",
        "params": {
          "enable": "Whether to enable forced liquidations",
          "vTokenBorrowed": "Borrowed vToken"
        }
      },
      "_setForcedLiquidationForUser(address,address,bool)": {
        "params": {
          "borrower": "The address of the borrower",
          "enable": "Whether to enable forced liquidations",
          "vTokenBorrowed": "Borrowed vToken"
        }
      },
      "_setLiquidatorContract(address)": {
        "details": "Allows the contract admin to update the address of liquidator contract",
        "params": {
          "newLiquidatorContract_": "The new address of the liquidator contract"
        }
      },
      "_setMarketBorrowCaps(address[],uint256[])": {
        "details": "Allows a privileged role to set the borrowing cap for a vToken market. A borrow cap of 0 corresponds to Borrow not allowed",
        "params": {
          "newBorrowCaps": "The new borrow cap values in underlying to be set. A value of 0 corresponds to Borrow not allowed",
          "vTokens": "The addresses of the markets (tokens) to change the borrow caps for"
        }
      },
      "_setMarketSupplyCaps(address[],uint256[])": {
        "details": "Allows a privileged role to set the supply cap for a vToken. A supply cap of 0 corresponds to Minting NotAllowed",
        "params": {
          "newSupplyCaps": "The new supply cap values in underlying to be set. A value of 0 corresponds to Minting NotAllowed",
          "vTokens": "The addresses of the markets (tokens) to change the supply caps for"
        }
      },
      "_setPauseGuardian(address)": {
        "details": "Allows the contract admin to change the Pause Guardian",
        "params": {
          "newPauseGuardian": "The address of the new Pause Guardian"
        },
        "returns": {
          "_0": "uint256 0=success, otherwise a failure. (See enum Error for details)"
        }
      },
      "_setPriceOracle(address)": {
        "details": "Allows the contract admin to set a new price oracle used by the Comptroller",
        "params": {
          "newOracle": "The new price oracle to set"
        },
        "returns": {
          "_0": "uint256 0=success, otherwise a failure (see ErrorReporter.sol for details)"
        }
      },
      "_setPrimeToken(address)": {
        "params": {
          "_prime": "The new prime token contract to be set"
        },
        "returns": {
          "_0": "uint 0=success, otherwise a failure (see ErrorReporter.sol for details)"
        }
      },
      "_setProtocolPaused(bool)": {
        "details": "Allows a privileged role to pause/unpause protocol",
        "params": {
          "state": "The new state (true=paused, false=unpaused)"
        },
        "returns": {
          "_0": "bool The updated state of the protocol"
        }
      },
      "_setTreasuryData(address,address,uint256)": {
        "params": {
          "newTreasuryAddress": "The new address of the treasury to be set",
          "newTreasuryGuardian": "The new address of the treasury guardian to be set",
          "newTreasuryPercent": "The new treasury percent to be set"
        },
        "returns": {
          "_0": "uint256 0=success, otherwise a failure (see ErrorReporter.sol for details)"
        }
      },
      "_setVAIController(address)": {
        "details": "Admin function to set a new VAI controller",
        "returns": {
          "_0": "uint256 0=success, otherwise a failure (see ErrorReporter.sol for details)"
        }
      },
      "_setVAIMintRate(uint256)": {
        "params": {
          "newVAIMintRate": "The new VAI mint rate to be set"
        },
        "returns": {
          "_0": "uint256 0=success, otherwise a failure (see ErrorReporter.sol for details)"
        }
      },
      "_setVAIVaultInfo(address,uint256,uint256)": {
        "params": {
          "minReleaseAmount_": "The minimum release amount to VAI Vault",
          "releaseStartBlock_": "The start block of release to VAI Vault",
          "vault_": "The address of the VAI Vault"
        }
      },
      "_setVenusVAIVaultRate(uint256)": {
        "params": {
          "venusVAIVaultRate_": "The amount of XVS wei per block to distribute to VAI Vault"
        }
      },
      "_setXVSToken(address)": {
        "params": {
          "xvs_": "The address of the XVS token"
        }
      },
      "_setXVSVToken(address)": {
        "params": {
          "xvsVToken_": "The address of the XVS vToken"
        }
      },
      "actionPaused(address,uint8)": {
        "params": {
          "action": "Action id",
          "market": "vToken address"
        }
      },
      "getPoolMarketIndex(uint96,address)": {
        "details": "Computes a unique key for a (poolId, market) pair used in the `_poolMarkets` mapping - For the core pool (`poolId == 0`), this results in the address being left-padded to 32 bytes,   maintaining backward compatibility with legacy mappings - For other pools, packs the `poolId` and `market` address into a single `bytes32` key,   The first 96 bits are used for the `poolId`, and the remaining 160 bits for the `market` address",
        "params": {
          "poolId": "The ID of the pool",
          "vToken": "The address of the market (vToken)"
        },
        "returns": {
          "_0": "PoolMarketId The `bytes32` key that uniquely represents the (poolId, vToken) pair"
        }
      },
      "getXVSAddress()": {
        "returns": {
          "_0": "The address of XVS token"
        }
      },
      "setActionsPaused(address[],uint8[],bool)": {
        "params": {
          "actions_": "List of action ids to pause/unpause",
          "markets_": "Markets to pause/unpause the actions on",
          "paused_": "The new paused state (true=paused, false=unpaused)"
        }
      },
      "setAllowCorePoolFallback(uint96,bool)": {
        "custom:error": "InvalidOperationForCorePool Reverts when attempting to call pool-specific methods on the Core Pool.PoolDoesNotExist Reverts if the target pool ID does not exist.",
        "custom:event": "PoolFallbackStatusUpdated Emitted after the pool fallback flag is updated.",
        "params": {
          "allowFallback": "True to allow fallback to Core Pool, false to disable.",
          "poolId": "ID of the pool to update."
        }
      },
      "setCloseFactor(uint256)": {
        "params": {
          "newCloseFactorMantissa": "New close factor, scaled by 1e18"
        },
        "returns": {
          "_0": "uint256 0=success, otherwise will revert"
        }
      },
      "setCollateralFactor(address,uint256,uint256)": {
        "params": {
          "newCollateralFactorMantissa": "The new collateral factor, scaled by 1e18",
          "newLiquidationThresholdMantissa": "The new liquidation threshold, scaled by 1e18",
          "vToken": "The market to set the factor on"
        },
        "returns": {
          "_0": "uint256 0=success, otherwise a failure. (See ErrorReporter for details)"
        }
      },
      "setCollateralFactor(uint96,address,uint256,uint256)": {
        "params": {
          "newCollateralFactorMantissa": "The new collateral factor, scaled by 1e18",
          "newLiquidationThresholdMantissa": "The new liquidation threshold, scaled by 1e18",
          "poolId": "The ID of the pool.",
          "vToken": "The market to set the factor on"
        },
        "returns": {
          "_0": "uint256 0=success, otherwise a failure. (See ErrorReporter for details)"
        }
      },
      "setForcedLiquidation(address,bool)": {
        "params": {
          "enable": "Whether to enable forced liquidations",
          "vTokenBorrowed": "Borrowed vToken"
        }
      },
      "setIsBorrowAllowed(uint96,address,bool)": {
        "custom:error": "PoolDoesNotExist Reverts if the pool ID is invalid.MarketConfigNotFound Reverts if the market is not listed in the pool.",
        "custom:event": "BorrowAllowedUpdated Emitted after the borrow permission for a market is updated.",
        "params": {
          "borrowAllowed": "The new borrow allowed status.",
          "poolId": "The ID of the pool.",
          "vToken": "The address of the market (vToken)."
        }
      },
      "setLiquidationIncentive(address,uint256)": {
        "params": {
          "newLiquidationIncentiveMantissa": "New liquidationIncentive scaled by 1e18",
          "vToken": "The market to set the liquidationIncentive for"
        },
        "returns": {
          "_0": "uint256 0=success, otherwise a failure. (See ErrorReporter for details)"
        }
      },
      "setLiquidationIncentive(uint96,address,uint256)": {
        "params": {
          "newLiquidationIncentiveMantissa": "New liquidationIncentive scaled by 1e18",
          "poolId": "The ID of the pool.",
          "vToken": "The market to set the liquidationIncentive for"
        },
        "returns": {
          "_0": "uint256 0=success, otherwise a failure. (See ErrorReporter for details)"
        }
      },
      "setMarketBorrowCaps(address[],uint256[])": {
        "params": {
          "newBorrowCaps": "The new borrow cap values in underlying to be set. A value of 0 corresponds to Borrow not allowed",
          "vTokens": "The addresses of the markets (tokens) to change the borrow caps for"
        }
      },
      "setMarketSupplyCaps(address[],uint256[])": {
        "params": {
          "newSupplyCaps": "The new supply cap values in underlying to be set. A value of 0 corresponds to Minting NotAllowed",
          "vTokens": "The addresses of the markets (tokens) to change the supply caps for"
        }
      },
      "setMintedVAIOf(address,uint256)": {
        "params": {
          "amount": "The amount of VAI to set to the account",
          "owner": "The address of the account to set"
        },
        "returns": {
          "_0": "The number of minted VAI by `owner`"
        }
      },
      "setPoolActive(uint96,bool)": {
        "custom:error": "InvalidOperationForCorePool Reverts when attempting to call pool-specific methods on the Core Pool.PoolDoesNotExist Reverts if the target pool ID does not exist.",
        "custom:event": "PoolActiveStatusUpdated Emitted after the pool active status is updated.",
        "params": {
          "active": "true to enable, false to disable",
          "poolId": "id of the pool to update"
        }
      },
      "setPoolLabel(uint96,string)": {
        "custom:error": "InvalidOperationForCorePool Reverts when attempting to call pool-specific methods on the Core PoolPoolDoesNotExist Reverts if the target pool ID does not existEmptyPoolLabel Reverts if the provided label is an empty string",
        "custom:event": "PoolLabelUpdated Emitted after the pool label is updated",
        "params": {
          "newLabel": "The new label for the pool",
          "poolId": "ID of the pool to update"
        }
      },
      "setPriceOracle(address)": {
        "params": {
          "newOracle": "The new price oracle to set"
        },
        "returns": {
          "_0": "uint256 0=success, otherwise a failure (see ErrorReporter.sol for details)"
        }
      },
      "setPrimeToken(address)": {
        "params": {
          "_prime": "The new prime token contract to be set"
        },
        "returns": {
          "_0": "uint 0=success, otherwise a failure (see ErrorReporter.sol for details)"
        }
      },
      "setWhiteListFlashLoanAccount(address,bool)": {
        "params": {
          "_isWhiteListed": "True to whitelist the account for flash loans, false to remove from whitelist",
          "account": "The account to authorize for flash loans"
        }
      }
    },
    "title": "SetterFacet",
    "version": 1
  },
  "userdoc": {
    "errors": {
      "AlreadyInSelectedPool()": [
        {
          "notice": "Thrown when You are already in the selected pool."
        }
      ],
      "ArrayLengthMismatch()": [
        {
          "notice": "Thrown when input array lengths do not match"
        }
      ],
      "BorrowNotAllowedInPool()": [
        {
          "notice": "Thrown when borrowing is not allowed in the selected pool for a given market."
        }
      ],
      "EmptyPoolLabel()": [
        {
          "notice": "Thrown when the pool label is empty"
        }
      ],
      "InactivePool(uint96)": [
        {
          "notice": "Thrown when attempting to interact with an inactive pool"
        }
      ],
      "IncompatibleBorrowedAssets()": [
        {
          "notice": "Thrown when One or more of your assets are not compatible with the selected pool."
        }
      ],
      "InvalidOperationForCorePool()": [
        {
          "notice": "Thrown when trying to call pool-specific methods on the Core Pool"
        }
      ],
      "InvalidWeightingStrategy(uint8)": [
        {
          "notice": "Thrown when an invalid weighting strategy is provided"
        }
      ],
      "LiquidityCheckFailed(uint256,uint256)": [
        {
          "notice": "Thrown when Switching to this pool would fail the liquidity check or lead to liquidation."
        }
      ],
      "MarketAlreadyListed(uint96,address)": [
        {
          "notice": "Thrown when a vToken is already listed in the specified pool"
        }
      ],
      "MarketConfigNotFound()": [
        {
          "notice": "Thrown when market is not set in the _poolMarkets mapping"
        }
      ],
      "MarketNotListedInCorePool()": [
        {
          "notice": "Thrown when market trying to add in a pool is not listed in the core pool"
        }
      ],
      "NotEnoughRepayment(uint256,uint256)": [
        {
          "notice": "Thrown when repayment amount is insufficient to cover the fee"
        }
      ],
      "PoolDoesNotExist(uint96)": [
        {
          "notice": "Thrown when a given pool ID does not exist"
        }
      ],
      "PoolMarketNotFound(uint96,address)": [
        {
          "notice": "Thrown when trying to remove a market that is not listed in the given pool."
        }
      ]
    },
    "events": {
      "ActionPausedMarket(address,uint8,bool)": {
        "notice": "Emitted when an action is paused on a market"
      },
      "ActionProtocolPaused(bool)": {
        "notice": "Emitted when protocol state is changed by admin"
      },
      "BorrowAllowedUpdated(uint96,address,bool,bool)": {
        "notice": "Emitted when the borrowAllowed flag is updated for a market"
      },
      "DistributedVAIVaultVenus(uint256)": {
        "notice": "Emitted when XVS is distributed to VAI Vault"
      },
      "IsAccountFlashLoanWhitelisted(address,bool)": {
        "notice": "Emitted when an account's flash loan whitelist status is updated"
      },
      "IsForcedLiquidationEnabledForUserUpdated(address,address,bool)": {
        "notice": "Emitted when forced liquidation is enabled or disabled for a user borrowing in a market"
      },
      "IsForcedLiquidationEnabledUpdated(address,bool)": {
        "notice": "Emitted when forced liquidation is enabled or disabled for all users in a market"
      },
      "MarketEntered(address,address)": {
        "notice": "Emitted when an account enters a market"
      },
      "NewAccessControl(address,address)": {
        "notice": "Emitted when access control address is changed by admin"
      },
      "NewBorrowCap(address,uint256)": {
        "notice": "Emitted when borrow cap for a vToken is changed"
      },
      "NewCloseFactor(uint256,uint256)": {
        "notice": "Emitted when close factor is changed by admin"
      },
      "NewCollateralFactor(uint96,address,uint256,uint256)": {
        "notice": "Emitted when a collateral factor for a market in a pool is changed by admin"
      },
      "NewComptrollerLens(address,address)": {
        "notice": "Emitted when ComptrollerLens address is changed"
      },
      "NewLiquidationIncentive(uint96,address,uint256,uint256)": {
        "notice": "Emitted when liquidation incentive for a market in a pool is changed by admin"
      },
      "NewLiquidationThreshold(uint96,address,uint256,uint256)": {
        "notice": "Emitted when liquidation threshold for a market in a pool is changed by admin"
      },
      "NewLiquidatorContract(address,address)": {
        "notice": "Emitted when liquidator adress is changed"
      },
      "NewPauseGuardian(address,address)": {
        "notice": "Emitted when pause guardian is changed"
      },
      "NewPriceOracle(address,address)": {
        "notice": "Emitted when price oracle is changed"
      },
      "NewPrimeToken(address,address)": {
        "notice": "Emitted when prime token contract address is changed"
      },
      "NewSupplyCap(address,uint256)": {
        "notice": "Emitted when supply cap for a vToken is changed"
      },
      "NewTreasuryAddress(address,address)": {
        "notice": "Emitted when treasury address is changed"
      },
      "NewTreasuryGuardian(address,address)": {
        "notice": "Emitted when treasury guardian is changed"
      },
      "NewTreasuryPercent(uint256,uint256)": {
        "notice": "Emitted when treasury percent is changed"
      },
      "NewVAIController(address,address)": {
        "notice": "Emitted when VAIController is changed"
      },
      "NewVAIMintRate(uint256,uint256)": {
        "notice": "Emitted when VAI mint rate is changed by admin"
      },
      "NewVAIVaultInfo(address,uint256,uint256)": {
        "notice": "Emitted when VAI Vault info is changed"
      },
      "NewVenusVAIVaultRate(uint256,uint256)": {
        "notice": "Emitted when Venus VAI Vault rate is changed"
      },
      "NewXVSToken(address,address)": {
        "notice": "Emitted when XVS token address is changed"
      },
      "NewXVSVToken(address,address)": {
        "notice": "Emitted when XVS vToken address is changed"
      },
      "PoolActiveStatusUpdated(uint96,bool,bool)": {
        "notice": "Emitted when pool active status updated"
      },
      "PoolFallbackStatusUpdated(uint96,bool,bool)": {
        "notice": "Emitted when pool Fallback status is updated"
      },
      "PoolLabelUpdated(uint96,string,string)": {
        "notice": "Emitted when pool label is updated"
      }
    },
    "kind": "user",
    "methods": {
      "_setAccessControl(address)": {
        "notice": "Sets the address of the access control of this contract"
      },
      "_setActionsPaused(address[],uint8[],bool)": {
        "notice": "Pause/unpause certain actions"
      },
      "_setCloseFactor(uint256)": {
        "notice": "Sets the closeFactor used when liquidating borrows"
      },
      "_setForcedLiquidation(address,bool)": {
        "notice": "Enables forced liquidations for a market. If forced liquidation is enabled, borrows in the market may be liquidated regardless of the account liquidity"
      },
      "_setForcedLiquidationForUser(address,address,bool)": {
        "notice": "Enables forced liquidations for user's borrows in a certain market. If forced liquidation is enabled, user's borrows in the market may be liquidated regardless of the account liquidity. Forced liquidation may be enabled for a user even if it is not enabled for the entire market."
      },
      "_setLiquidatorContract(address)": {
        "notice": "Update the address of the liquidator contract"
      },
      "_setMarketBorrowCaps(address[],uint256[])": {
        "notice": "Set the given borrow caps for the given vToken market Borrowing that brings total borrows to or above borrow cap will revert"
      },
      "_setMarketSupplyCaps(address[],uint256[])": {
        "notice": "Set the given supply caps for the given vToken market Supply that brings total Supply to or above supply cap will revert"
      },
      "_setPauseGuardian(address)": {
        "notice": "Admin function to change the Pause Guardian"
      },
      "_setPriceOracle(address)": {
        "notice": "Sets a new price oracle for the comptroller"
      },
      "_setPrimeToken(address)": {
        "notice": "Sets the prime token contract for the comptroller"
      },
      "_setProtocolPaused(bool)": {
        "notice": "Set whole protocol pause/unpause state"
      },
      "_setTreasuryData(address,address,uint256)": {
        "notice": "Set the treasury data."
      },
      "_setVAIController(address)": {
        "notice": "Sets a new VAI controller"
      },
      "_setVAIMintRate(uint256)": {
        "notice": "Set the VAI mint rate"
      },
      "_setVAIVaultInfo(address,uint256,uint256)": {
        "notice": "Set the VAI Vault infos"
      },
      "_setVenusVAIVaultRate(uint256)": {
        "notice": "Set the amount of XVS distributed per block to VAI Vault"
      },
      "_setXVSToken(address)": {
        "notice": "Set the address of the XVS token"
      },
      "_setXVSVToken(address)": {
        "notice": "Set the address of the XVS vToken"
      },
      "accountAssets(address,uint256)": {
        "notice": "Per-account mapping of \"assets you are in\", capped by maxAssets"
      },
      "actionPaused(address,uint8)": {
        "notice": "Checks if a certain action is paused on a market"
      },
      "admin()": {
        "notice": "Administrator for this contract"
      },
      "allMarkets(uint256)": {
        "notice": "A list of all markets"
      },
      "approvedDelegates(address,address)": {
        "notice": "Whether the delegate is allowed to borrow or redeem on behalf of the user"
      },
      "authorizedFlashLoan(address)": {
        "notice": "Mapping of accounts authorized to execute flash loans"
      },
      "borrowCapGuardian()": {
        "notice": "The borrowCapGuardian can set borrowCaps to any number for any market. Lowering the borrow cap could disable borrowing on the given market."
      },
      "borrowCaps(address)": {
        "notice": "Borrow caps enforced by borrowAllowed for each vToken address."
      },
      "closeFactorMantissa()": {
        "notice": "Multiplier used to calculate the maximum repayAmount when liquidating a borrow"
      },
      "comptrollerImplementation()": {
        "notice": "Active brains of Unitroller"
      },
      "getPoolMarketIndex(uint96,address)": {
        "notice": "Returns the unique market index for the given poolId and vToken pair"
      },
      "getXVSAddress()": {
        "notice": "Returns the XVS address"
      },
      "isForcedLiquidationEnabled(address)": {
        "notice": "Whether forced liquidation is enabled for all users borrowing in a certain market"
      },
      "isForcedLiquidationEnabledForUser(address,address)": {
        "notice": "Whether forced liquidation is enabled for the borrows of a user in a market"
      },
      "lastPoolId()": {
        "notice": "Counter used to generate unique pool IDs"
      },
      "maxAssets()": {
        "notice": "Max number of assets a single account can participate in (borrow or use as collateral)"
      },
      "mintVAIGuardianPaused()": {
        "notice": "The Pause Guardian can pause certain actions as a safety mechanism."
      },
      "mintedVAIs(address)": {
        "notice": "The minted VAI amount to each user"
      },
      "oracle()": {
        "notice": "Oracle which gives the price of any given asset"
      },
      "pauseGuardian()": {
        "notice": "The Pause Guardian can pause certain actions as a safety mechanism."
      },
      "pendingAdmin()": {
        "notice": "Pending administrator for this contract"
      },
      "pendingComptrollerImplementation()": {
        "notice": "Pending brains of Unitroller"
      },
      "pools(uint96)": {
        "notice": "Mapping of pool ID to its corresponding metadata and configuration"
      },
      "prime()": {
        "notice": "Prime token address"
      },
      "protocolPaused()": {
        "notice": "Pause/Unpause whole protocol actions"
      },
      "setActionsPaused(address[],uint8[],bool)": {
        "notice": "Alias to _setActionsPaused to support the Isolated Lending Comptroller Interface"
      },
      "setAllowCorePoolFallback(uint96,bool)": {
        "notice": "Updates the `allowCorePoolFallback` flag for a specific pool (excluding the Core Pool)."
      },
      "setCloseFactor(uint256)": {
        "notice": "Alias to _setCloseFactor to support the Isolated Lending Comptroller Interface"
      },
      "setCollateralFactor(address,uint256,uint256)": {
        "notice": "Sets the collateral factor and liquidation threshold for a market in the Core Pool only."
      },
      "setCollateralFactor(uint96,address,uint256,uint256)": {
        "notice": "Sets the collateral factor and liquidation threshold for a market in the specified pool."
      },
      "setForcedLiquidation(address,bool)": {
        "notice": "Alias to _setForcedLiquidation to support the Isolated Lending Comptroller Interface"
      },
      "setIsBorrowAllowed(uint96,address,bool)": {
        "notice": "Updates the `isBorrowAllowed` flag for a market in a pool."
      },
      "setLiquidationIncentive(address,uint256)": {
        "notice": "Sets the liquidation incentive for a market in the Core Pool only."
      },
      "setLiquidationIncentive(uint96,address,uint256)": {
        "notice": "Sets the liquidation incentive for a market in the specified pool."
      },
      "setMarketBorrowCaps(address[],uint256[])": {
        "notice": "Alias to _setMarketBorrowCaps to support the Isolated Lending Comptroller Interface"
      },
      "setMarketSupplyCaps(address[],uint256[])": {
        "notice": "Alias to _setMarketSupplyCaps to support the Isolated Lending Comptroller Interface"
      },
      "setMintedVAIOf(address,uint256)": {
        "notice": "Set the minted VAI amount of the `owner`"
      },
      "setPoolActive(uint96,bool)": {
        "notice": "updates active status for a specific pool (excluding the Core Pool)"
      },
      "setPoolLabel(uint96,string)": {
        "notice": "Updates the label for a specific pool (excluding the Core Pool)"
      },
      "setPriceOracle(address)": {
        "notice": "Alias to _setPriceOracle to support the Isolated Lending Comptroller Interface"
      },
      "setPrimeToken(address)": {
        "notice": "Alias to _setPrimeToken to support the Isolated Lending Comptroller Interface"
      },
      "setWhiteListFlashLoanAccount(address,bool)": {
        "notice": "Adds/Removes an account to the flash loan whitelist"
      },
      "supplyCaps(address)": {
        "notice": "Supply caps enforced by mintAllowed for each vToken address. Defaults to zero which corresponds to minting notAllowed"
      },
      "treasuryAddress()": {
        "notice": "Treasury address"
      },
      "treasuryGuardian()": {
        "notice": "Treasury Guardian address"
      },
      "treasuryPercent()": {
        "notice": "Fee percent of accrued interest with decimal 18"
      },
      "userPoolId(address)": {
        "notice": "Tracks the selected pool for each user"
      },
      "vaiController()": {
        "notice": "The Address of VAIController"
      },
      "vaiMintRate()": {
        "notice": "VAI Mint Rate as a percentage"
      },
      "venusAccrued(address)": {
        "notice": "The XVS accrued but not yet transferred to each user"
      },
      "venusBorrowSpeeds(address)": {
        "notice": "The rate at which venus is distributed to the corresponding borrow market (per block)"
      },
      "venusBorrowState(address)": {
        "notice": "The Venus market borrow state for each market"
      },
      "venusBorrowerIndex(address,address)": {
        "notice": "The Venus borrow index for each market for each borrower as of the last time they accrued XVS"
      },
      "venusInitialIndex()": {
        "notice": "The initial Venus index for a market"
      },
      "venusSupplierIndex(address,address)": {
        "notice": "The Venus supply index for each market for each supplier as of the last time they accrued XVS"
      },
      "venusSupplySpeeds(address)": {
        "notice": "The rate at which venus is distributed to the corresponding supply market (per block)"
      },
      "venusSupplyState(address)": {
        "notice": "The Venus market supply state for each market"
      },
      "venusVAIVaultRate()": {
        "notice": "The rate at which the flywheel distributes XVS to VAI Vault, per block"
      }
    },
    "notice": "This facet contract contains all the configurational setter functions",
    "version": 1
  },
  "storageLayout": {
    "storage": [
      {
        "astId": 1658,
        "contract": "contracts/Comptroller/Diamond/facets/SetterFacet.sol:SetterFacet",
        "label": "admin",
        "offset": 0,
        "slot": "0",
        "type": "t_address"
      },
      {
        "astId": 1661,
        "contract": "contracts/Comptroller/Diamond/facets/SetterFacet.sol:SetterFacet",
        "label": "pendingAdmin",
        "offset": 0,
        "slot": "1",
        "type": "t_address"
      },
      {
        "astId": 1664,
        "contract": "contracts/Comptroller/Diamond/facets/SetterFacet.sol:SetterFacet",
        "label": "comptrollerImplementation",
        "offset": 0,
        "slot": "2",
        "type": "t_address"
      },
      {
        "astId": 1667,
        "contract": "contracts/Comptroller/Diamond/facets/SetterFacet.sol:SetterFacet",
        "label": "pendingComptrollerImplementation",
        "offset": 0,
        "slot": "3",
        "type": "t_address"
      },
      {
        "astId": 1674,
        "contract": "contracts/Comptroller/Diamond/facets/SetterFacet.sol:SetterFacet",
        "label": "oracle",
        "offset": 0,
        "slot": "4",
        "type": "t_contract(ResilientOracleInterface)992"
      },
      {
        "astId": 1677,
        "contract": "contracts/Comptroller/Diamond/facets/SetterFacet.sol:SetterFacet",
        "label": "closeFactorMantissa",
        "offset": 0,
        "slot": "5",
        "type": "t_uint256"
      },
      {
        "astId": 1680,
        "contract": "contracts/Comptroller/Diamond/facets/SetterFacet.sol:SetterFacet",
        "label": "_oldLiquidationIncentiveMantissa",
        "offset": 0,
        "slot": "6",
        "type": "t_uint256"
      },
      {
        "astId": 1683,
        "contract": "contracts/Comptroller/Diamond/facets/SetterFacet.sol:SetterFacet",
        "label": "maxAssets",
        "offset": 0,
        "slot": "7",
        "type": "t_uint256"
      },
      {
        "astId": 1690,
        "contract": "contracts/Comptroller/Diamond/facets/SetterFacet.sol:SetterFacet",
        "label": "accountAssets",
        "offset": 0,
        "slot": "8",
        "type": "t_mapping(t_address,t_array(t_contract(VToken)32564)dyn_storage)"
      },
      {
        "astId": 1724,
        "contract": "contracts/Comptroller/Diamond/facets/SetterFacet.sol:SetterFacet",
        "label": "_poolMarkets",
        "offset": 0,
        "slot": "9",
        "type": "t_mapping(t_userDefinedValueType(PoolMarketId)11255,t_struct(Market)1717_storage)"
      },
      {
        "astId": 1727,
        "contract": "contracts/Comptroller/Diamond/facets/SetterFacet.sol:SetterFacet",
        "label": "pauseGuardian",
        "offset": 0,
        "slot": "10",
        "type": "t_address"
      },
      {
        "astId": 1730,
        "contract": "contracts/Comptroller/Diamond/facets/SetterFacet.sol:SetterFacet",
        "label": "_mintGuardianPaused",
        "offset": 20,
        "slot": "10",
        "type": "t_bool"
      },
      {
        "astId": 1733,
        "contract": "contracts/Comptroller/Diamond/facets/SetterFacet.sol:SetterFacet",
        "label": "_borrowGuardianPaused",
        "offset": 21,
        "slot": "10",
        "type": "t_bool"
      },
      {
        "astId": 1736,
        "contract": "contracts/Comptroller/Diamond/facets/SetterFacet.sol:SetterFacet",
        "label": "transferGuardianPaused",
        "offset": 22,
        "slot": "10",
        "type": "t_bool"
      },
      {
        "astId": 1739,
        "contract": "contracts/Comptroller/Diamond/facets/SetterFacet.sol:SetterFacet",
        "label": "seizeGuardianPaused",
        "offset": 23,
        "slot": "10",
        "type": "t_bool"
      },
      {
        "astId": 1744,
        "contract": "contracts/Comptroller/Diamond/facets/SetterFacet.sol:SetterFacet",
        "label": "mintGuardianPaused",
        "offset": 0,
        "slot": "11",
        "type": "t_mapping(t_address,t_bool)"
      },
      {
        "astId": 1749,
        "contract": "contracts/Comptroller/Diamond/facets/SetterFacet.sol:SetterFacet",
        "label": "borrowGuardianPaused",
        "offset": 0,
        "slot": "12",
        "type": "t_mapping(t_address,t_bool)"
      },
      {
        "astId": 1761,
        "contract": "contracts/Comptroller/Diamond/facets/SetterFacet.sol:SetterFacet",
        "label": "allMarkets",
        "offset": 0,
        "slot": "13",
        "type": "t_array(t_contract(VToken)32564)dyn_storage"
      },
      {
        "astId": 1764,
        "contract": "contracts/Comptroller/Diamond/facets/SetterFacet.sol:SetterFacet",
        "label": "venusRate",
        "offset": 0,
        "slot": "14",
        "type": "t_uint256"
      },
      {
        "astId": 1769,
        "contract": "contracts/Comptroller/Diamond/facets/SetterFacet.sol:SetterFacet",
        "label": "venusSpeeds",
        "offset": 0,
        "slot": "15",
        "type": "t_mapping(t_address,t_uint256)"
      },
      {
        "astId": 1775,
        "contract": "contracts/Comptroller/Diamond/facets/SetterFacet.sol:SetterFacet",
        "label": "venusSupplyState",
        "offset": 0,
        "slot": "16",
        "type": "t_mapping(t_address,t_struct(VenusMarketState)1756_storage)"
      },
      {
        "astId": 1781,
        "contract": "contracts/Comptroller/Diamond/facets/SetterFacet.sol:SetterFacet",
        "label": "venusBorrowState",
        "offset": 0,
        "slot": "17",
        "type": "t_mapping(t_address,t_struct(VenusMarketState)1756_storage)"
      },
      {
        "astId": 1788,
        "contract": "contracts/Comptroller/Diamond/facets/SetterFacet.sol:SetterFacet",
        "label": "venusSupplierIndex",
        "offset": 0,
        "slot": "18",
        "type": "t_mapping(t_address,t_mapping(t_address,t_uint256))"
      },
      {
        "astId": 1795,
        "contract": "contracts/Comptroller/Diamond/facets/SetterFacet.sol:SetterFacet",
        "label": "venusBorrowerIndex",
        "offset": 0,
        "slot": "19",
        "type": "t_mapping(t_address,t_mapping(t_address,t_uint256))"
      },
      {
        "astId": 1800,
        "contract": "contracts/Comptroller/Diamond/facets/SetterFacet.sol:SetterFacet",
        "label": "venusAccrued",
        "offset": 0,
        "slot": "20",
        "type": "t_mapping(t_address,t_uint256)"
      },
      {
        "astId": 1804,
        "contract": "contracts/Comptroller/Diamond/facets/SetterFacet.sol:SetterFacet",
        "label": "vaiController",
        "offset": 0,
        "slot": "21",
        "type": "t_contract(VAIControllerInterface)25579"
      },
      {
        "astId": 1809,
        "contract": "contracts/Comptroller/Diamond/facets/SetterFacet.sol:SetterFacet",
        "label": "mintedVAIs",
        "offset": 0,
        "slot": "22",
        "type": "t_mapping(t_address,t_uint256)"
      },
      {
        "astId": 1812,
        "contract": "contracts/Comptroller/Diamond/facets/SetterFacet.sol:SetterFacet",
        "label": "vaiMintRate",
        "offset": 0,
        "slot": "23",
        "type": "t_uint256"
      },
      {
        "astId": 1815,
        "contract": "contracts/Comptroller/Diamond/facets/SetterFacet.sol:SetterFacet",
        "label": "mintVAIGuardianPaused",
        "offset": 0,
        "slot": "24",
        "type": "t_bool"
      },
      {
        "astId": 1817,
        "contract": "contracts/Comptroller/Diamond/facets/SetterFacet.sol:SetterFacet",
        "label": "repayVAIGuardianPaused",
        "offset": 1,
        "slot": "24",
        "type": "t_bool"
      },
      {
        "astId": 1820,
        "contract": "contracts/Comptroller/Diamond/facets/SetterFacet.sol:SetterFacet",
        "label": "protocolPaused",
        "offset": 2,
        "slot": "24",
        "type": "t_bool"
      },
      {
        "astId": 1823,
        "contract": "contracts/Comptroller/Diamond/facets/SetterFacet.sol:SetterFacet",
        "label": "venusVAIRate",
        "offset": 0,
        "slot": "25",
        "type": "t_uint256"
      },
      {
        "astId": 1829,
        "contract": "contracts/Comptroller/Diamond/facets/SetterFacet.sol:SetterFacet",
        "label": "venusVAIVaultRate",
        "offset": 0,
        "slot": "26",
        "type": "t_uint256"
      },
      {
        "astId": 1831,
        "contract": "contracts/Comptroller/Diamond/facets/SetterFacet.sol:SetterFacet",
        "label": "vaiVaultAddress",
        "offset": 0,
        "slot": "27",
        "type": "t_address"
      },
      {
        "astId": 1833,
        "contract": "contracts/Comptroller/Diamond/facets/SetterFacet.sol:SetterFacet",
        "label": "releaseStartBlock",
        "offset": 0,
        "slot": "28",
        "type": "t_uint256"
      },
      {
        "astId": 1835,
        "contract": "contracts/Comptroller/Diamond/facets/SetterFacet.sol:SetterFacet",
        "label": "minReleaseAmount",
        "offset": 0,
        "slot": "29",
        "type": "t_uint256"
      },
      {
        "astId": 1841,
        "contract": "contracts/Comptroller/Diamond/facets/SetterFacet.sol:SetterFacet",
        "label": "borrowCapGuardian",
        "offset": 0,
        "slot": "30",
        "type": "t_address"
      },
      {
        "astId": 1846,
        "contract": "contracts/Comptroller/Diamond/facets/SetterFacet.sol:SetterFacet",
        "label": "borrowCaps",
        "offset": 0,
        "slot": "31",
        "type": "t_mapping(t_address,t_uint256)"
      },
      {
        "astId": 1852,
        "contract": "contracts/Comptroller/Diamond/facets/SetterFacet.sol:SetterFacet",
        "label": "treasuryGuardian",
        "offset": 0,
        "slot": "32",
        "type": "t_address"
      },
      {
        "astId": 1855,
        "contract": "contracts/Comptroller/Diamond/facets/SetterFacet.sol:SetterFacet",
        "label": "treasuryAddress",
        "offset": 0,
        "slot": "33",
        "type": "t_address"
      },
      {
        "astId": 1858,
        "contract": "contracts/Comptroller/Diamond/facets/SetterFacet.sol:SetterFacet",
        "label": "treasuryPercent",
        "offset": 0,
        "slot": "34",
        "type": "t_uint256"
      },
      {
        "astId": 1866,
        "contract": "contracts/Comptroller/Diamond/facets/SetterFacet.sol:SetterFacet",
        "label": "venusContributorSpeeds",
        "offset": 0,
        "slot": "35",
        "type": "t_mapping(t_address,t_uint256)"
      },
      {
        "astId": 1871,
        "contract": "contracts/Comptroller/Diamond/facets/SetterFacet.sol:SetterFacet",
        "label": "lastContributorBlock",
        "offset": 0,
        "slot": "36",
        "type": "t_mapping(t_address,t_uint256)"
      },
      {
        "astId": 1876,
        "contract": "contracts/Comptroller/Diamond/facets/SetterFacet.sol:SetterFacet",
        "label": "liquidatorContract",
        "offset": 0,
        "slot": "37",
        "type": "t_address"
      },
      {
        "astId": 1882,
        "contract": "contracts/Comptroller/Diamond/facets/SetterFacet.sol:SetterFacet",
        "label": "comptrollerLens",
        "offset": 0,
        "slot": "38",
        "type": "t_contract(ComptrollerLensInterface)1641"
      },
      {
        "astId": 1890,
        "contract": "contracts/Comptroller/Diamond/facets/SetterFacet.sol:SetterFacet",
        "label": "supplyCaps",
        "offset": 0,
        "slot": "39",
        "type": "t_mapping(t_address,t_uint256)"
      },
      {
        "astId": 1896,
        "contract": "contracts/Comptroller/Diamond/facets/SetterFacet.sol:SetterFacet",
        "label": "accessControl",
        "offset": 0,
        "slot": "40",
        "type": "t_address"
      },
      {
        "astId": 1903,
        "contract": "contracts/Comptroller/Diamond/facets/SetterFacet.sol:SetterFacet",
        "label": "_actionPaused",
        "offset": 0,
        "slot": "41",
        "type": "t_mapping(t_address,t_mapping(t_uint256,t_bool))"
      },
      {
        "astId": 1911,
        "contract": "contracts/Comptroller/Diamond/facets/SetterFacet.sol:SetterFacet",
        "label": "venusBorrowSpeeds",
        "offset": 0,
        "slot": "42",
        "type": "t_mapping(t_address,t_uint256)"
      },
      {
        "astId": 1916,
        "contract": "contracts/Comptroller/Diamond/facets/SetterFacet.sol:SetterFacet",
        "label": "venusSupplySpeeds",
        "offset": 0,
        "slot": "43",
        "type": "t_mapping(t_address,t_uint256)"
      },
      {
        "astId": 1926,
        "contract": "contracts/Comptroller/Diamond/facets/SetterFacet.sol:SetterFacet",
        "label": "approvedDelegates",
        "offset": 0,
        "slot": "44",
        "type": "t_mapping(t_address,t_mapping(t_address,t_bool))"
      },
      {
        "astId": 1934,
        "contract": "contracts/Comptroller/Diamond/facets/SetterFacet.sol:SetterFacet",
        "label": "isForcedLiquidationEnabled",
        "offset": 0,
        "slot": "45",
        "type": "t_mapping(t_address,t_bool)"
      },
      {
        "astId": 1953,
        "contract": "contracts/Comptroller/Diamond/facets/SetterFacet.sol:SetterFacet",
        "label": "_selectorToFacetAndPosition",
        "offset": 0,
        "slot": "46",
        "type": "t_mapping(t_bytes4,t_struct(FacetAddressAndPosition)1942_storage)"
      },
      {
        "astId": 1958,
        "contract": "contracts/Comptroller/Diamond/facets/SetterFacet.sol:SetterFacet",
        "label": "_facetFunctionSelectors",
        "offset": 0,
        "slot": "47",
        "type": "t_mapping(t_address,t_struct(FacetFunctionSelectors)1948_storage)"
      },
      {
        "astId": 1961,
        "contract": "contracts/Comptroller/Diamond/facets/SetterFacet.sol:SetterFacet",
        "label": "_facetAddresses",
        "offset": 0,
        "slot": "48",
        "type": "t_array(t_address)dyn_storage"
      },
      {
        "astId": 1968,
        "contract": "contracts/Comptroller/Diamond/facets/SetterFacet.sol:SetterFacet",
        "label": "prime",
        "offset": 0,
        "slot": "49",
        "type": "t_contract(IPrime)22757"
      },
      {
        "astId": 1978,
        "contract": "contracts/Comptroller/Diamond/facets/SetterFacet.sol:SetterFacet",
        "label": "isForcedLiquidationEnabledForUser",
        "offset": 0,
        "slot": "50",
        "type": "t_mapping(t_address,t_mapping(t_address,t_bool))"
      },
      {
        "astId": 1984,
        "contract": "contracts/Comptroller/Diamond/facets/SetterFacet.sol:SetterFacet",
        "label": "xvs",
        "offset": 0,
        "slot": "51",
        "type": "t_address"
      },
      {
        "astId": 1987,
        "contract": "contracts/Comptroller/Diamond/facets/SetterFacet.sol:SetterFacet",
        "label": "xvsVToken",
        "offset": 0,
        "slot": "52",
        "type": "t_address"
      },
      {
        "astId": 2009,
        "contract": "contracts/Comptroller/Diamond/facets/SetterFacet.sol:SetterFacet",
        "label": "userPoolId",
        "offset": 0,
        "slot": "53",
        "type": "t_mapping(t_address,t_uint96)"
      },
      {
        "astId": 2015,
        "contract": "contracts/Comptroller/Diamond/facets/SetterFacet.sol:SetterFacet",
        "label": "pools",
        "offset": 0,
        "slot": "54",
        "type": "t_mapping(t_uint96,t_struct(PoolData)2004_storage)"
      },
      {
        "astId": 2018,
        "contract": "contracts/Comptroller/Diamond/facets/SetterFacet.sol:SetterFacet",
        "label": "lastPoolId",
        "offset": 0,
        "slot": "55",
        "type": "t_uint96"
      },
      {
        "astId": 2039,
        "contract": "contracts/Comptroller/Diamond/facets/SetterFacet.sol:SetterFacet",
        "label": "authorizedFlashLoan",
        "offset": 0,
        "slot": "56",
        "type": "t_mapping(t_address,t_bool)"
      }
    ],
    "types": {
      "t_address": {
        "encoding": "inplace",
        "label": "address",
        "numberOfBytes": "20"
      },
      "t_array(t_address)dyn_storage": {
        "base": "t_address",
        "encoding": "dynamic_array",
        "label": "address[]",
        "numberOfBytes": "32"
      },
      "t_array(t_bytes4)dyn_storage": {
        "base": "t_bytes4",
        "encoding": "dynamic_array",
        "label": "bytes4[]",
        "numberOfBytes": "32"
      },
      "t_array(t_contract(VToken)32564)dyn_storage": {
        "base": "t_contract(VToken)32564",
        "encoding": "dynamic_array",
        "label": "contract VToken[]",
        "numberOfBytes": "32"
      },
      "t_bool": {
        "encoding": "inplace",
        "label": "bool",
        "numberOfBytes": "1"
      },
      "t_bytes4": {
        "encoding": "inplace",
        "label": "bytes4",
        "numberOfBytes": "4"
      },
      "t_contract(ComptrollerLensInterface)1641": {
        "encoding": "inplace",
        "label": "contract ComptrollerLensInterface",
        "numberOfBytes": "20"
      },
      "t_contract(IPrime)22757": {
        "encoding": "inplace",
        "label": "contract IPrime",
        "numberOfBytes": "20"
      },
      "t_contract(ResilientOracleInterface)992": {
        "encoding": "inplace",
        "label": "contract ResilientOracleInterface",
        "numberOfBytes": "20"
      },
      "t_contract(VAIControllerInterface)25579": {
        "encoding": "inplace",
        "label": "contract VAIControllerInterface",
        "numberOfBytes": "20"
      },
      "t_contract(VToken)32564": {
        "encoding": "inplace",
        "label": "contract VToken",
        "numberOfBytes": "20"
      },
      "t_mapping(t_address,t_array(t_contract(VToken)32564)dyn_storage)": {
        "encoding": "mapping",
        "key": "t_address",
        "label": "mapping(address => contract VToken[])",
        "numberOfBytes": "32",
        "value": "t_array(t_contract(VToken)32564)dyn_storage"
      },
      "t_mapping(t_address,t_bool)": {
        "encoding": "mapping",
        "key": "t_address",
        "label": "mapping(address => bool)",
        "numberOfBytes": "32",
        "value": "t_bool"
      },
      "t_mapping(t_address,t_mapping(t_address,t_bool))": {
        "encoding": "mapping",
        "key": "t_address",
        "label": "mapping(address => mapping(address => bool))",
        "numberOfBytes": "32",
        "value": "t_mapping(t_address,t_bool)"
      },
      "t_mapping(t_address,t_mapping(t_address,t_uint256))": {
        "encoding": "mapping",
        "key": "t_address",
        "label": "mapping(address => mapping(address => uint256))",
        "numberOfBytes": "32",
        "value": "t_mapping(t_address,t_uint256)"
      },
      "t_mapping(t_address,t_mapping(t_uint256,t_bool))": {
        "encoding": "mapping",
        "key": "t_address",
        "label": "mapping(address => mapping(uint256 => bool))",
        "numberOfBytes": "32",
        "value": "t_mapping(t_uint256,t_bool)"
      },
      "t_mapping(t_address,t_struct(FacetFunctionSelectors)1948_storage)": {
        "encoding": "mapping",
        "key": "t_address",
        "label": "mapping(address => struct ComptrollerV13Storage.FacetFunctionSelectors)",
        "numberOfBytes": "32",
        "value": "t_struct(FacetFunctionSelectors)1948_storage"
      },
      "t_mapping(t_address,t_struct(VenusMarketState)1756_storage)": {
        "encoding": "mapping",
        "key": "t_address",
        "label": "mapping(address => struct ComptrollerV1Storage.VenusMarketState)",
        "numberOfBytes": "32",
        "value": "t_struct(VenusMarketState)1756_storage"
      },
      "t_mapping(t_address,t_uint256)": {
        "encoding": "mapping",
        "key": "t_address",
        "label": "mapping(address => uint256)",
        "numberOfBytes": "32",
        "value": "t_uint256"
      },
      "t_mapping(t_address,t_uint96)": {
        "encoding": "mapping",
        "key": "t_address",
        "label": "mapping(address => uint96)",
        "numberOfBytes": "32",
        "value": "t_uint96"
      },
      "t_mapping(t_bytes4,t_struct(FacetAddressAndPosition)1942_storage)": {
        "encoding": "mapping",
        "key": "t_bytes4",
        "label": "mapping(bytes4 => struct ComptrollerV13Storage.FacetAddressAndPosition)",
        "numberOfBytes": "32",
        "value": "t_struct(FacetAddressAndPosition)1942_storage"
      },
      "t_mapping(t_uint256,t_bool)": {
        "encoding": "mapping",
        "key": "t_uint256",
        "label": "mapping(uint256 => bool)",
        "numberOfBytes": "32",
        "value": "t_bool"
      },
      "t_mapping(t_uint96,t_struct(PoolData)2004_storage)": {
        "encoding": "mapping",
        "key": "t_uint96",
        "label": "mapping(uint96 => struct ComptrollerV17Storage.PoolData)",
        "numberOfBytes": "32",
        "value": "t_struct(PoolData)2004_storage"
      },
      "t_mapping(t_userDefinedValueType(PoolMarketId)11255,t_struct(Market)1717_storage)": {
        "encoding": "mapping",
        "key": "t_userDefinedValueType(PoolMarketId)11255",
        "label": "mapping(PoolMarketId => struct ComptrollerV1Storage.Market)",
        "numberOfBytes": "32",
        "value": "t_struct(Market)1717_storage"
      },
      "t_string_storage": {
        "encoding": "bytes",
        "label": "string",
        "numberOfBytes": "32"
      },
      "t_struct(FacetAddressAndPosition)1942_storage": {
        "encoding": "inplace",
        "label": "struct ComptrollerV13Storage.FacetAddressAndPosition",
        "members": [
          {
            "astId": 1939,
            "contract": "contracts/Comptroller/Diamond/facets/SetterFacet.sol:SetterFacet",
            "label": "facetAddress",
            "offset": 0,
            "slot": "0",
            "type": "t_address"
          },
          {
            "astId": 1941,
            "contract": "contracts/Comptroller/Diamond/facets/SetterFacet.sol:SetterFacet",
            "label": "functionSelectorPosition",
            "offset": 20,
            "slot": "0",
            "type": "t_uint96"
          }
        ],
        "numberOfBytes": "32"
      },
      "t_struct(FacetFunctionSelectors)1948_storage": {
        "encoding": "inplace",
        "label": "struct ComptrollerV13Storage.FacetFunctionSelectors",
        "members": [
          {
            "astId": 1945,
            "contract": "contracts/Comptroller/Diamond/facets/SetterFacet.sol:SetterFacet",
            "label": "functionSelectors",
            "offset": 0,
            "slot": "0",
            "type": "t_array(t_bytes4)dyn_storage"
          },
          {
            "astId": 1947,
            "contract": "contracts/Comptroller/Diamond/facets/SetterFacet.sol:SetterFacet",
            "label": "facetAddressPosition",
            "offset": 0,
            "slot": "1",
            "type": "t_uint256"
          }
        ],
        "numberOfBytes": "64"
      },
      "t_struct(Market)1717_storage": {
        "encoding": "inplace",
        "label": "struct ComptrollerV1Storage.Market",
        "members": [
          {
            "astId": 1693,
            "contract": "contracts/Comptroller/Diamond/facets/SetterFacet.sol:SetterFacet",
            "label": "isListed",
            "offset": 0,
            "slot": "0",
            "type": "t_bool"
          },
          {
            "astId": 1696,
            "contract": "contracts/Comptroller/Diamond/facets/SetterFacet.sol:SetterFacet",
            "label": "collateralFactorMantissa",
            "offset": 0,
            "slot": "1",
            "type": "t_uint256"
          },
          {
            "astId": 1701,
            "contract": "contracts/Comptroller/Diamond/facets/SetterFacet.sol:SetterFacet",
            "label": "accountMembership",
            "offset": 0,
            "slot": "2",
            "type": "t_mapping(t_address,t_bool)"
          },
          {
            "astId": 1704,
            "contract": "contracts/Comptroller/Diamond/facets/SetterFacet.sol:SetterFacet",
            "label": "isVenus",
            "offset": 0,
            "slot": "3",
            "type": "t_bool"
          },
          {
            "astId": 1707,
            "contract": "contracts/Comptroller/Diamond/facets/SetterFacet.sol:SetterFacet",
            "label": "liquidationThresholdMantissa",
            "offset": 0,
            "slot": "4",
            "type": "t_uint256"
          },
          {
            "astId": 1710,
            "contract": "contracts/Comptroller/Diamond/facets/SetterFacet.sol:SetterFacet",
            "label": "liquidationIncentiveMantissa",
            "offset": 0,
            "slot": "5",
            "type": "t_uint256"
          },
          {
            "astId": 1713,
            "contract": "contracts/Comptroller/Diamond/facets/SetterFacet.sol:SetterFacet",
            "label": "poolId",
            "offset": 0,
            "slot": "6",
            "type": "t_uint96"
          },
          {
            "astId": 1716,
            "contract": "contracts/Comptroller/Diamond/facets/SetterFacet.sol:SetterFacet",
            "label": "isBorrowAllowed",
            "offset": 12,
            "slot": "6",
            "type": "t_bool"
          }
        ],
        "numberOfBytes": "224"
      },
      "t_struct(PoolData)2004_storage": {
        "encoding": "inplace",
        "label": "struct ComptrollerV17Storage.PoolData",
        "members": [
          {
            "astId": 1993,
            "contract": "contracts/Comptroller/Diamond/facets/SetterFacet.sol:SetterFacet",
            "label": "label",
            "offset": 0,
            "slot": "0",
            "type": "t_string_storage"
          },
          {
            "astId": 1997,
            "contract": "contracts/Comptroller/Diamond/facets/SetterFacet.sol:SetterFacet",
            "label": "vTokens",
            "offset": 0,
            "slot": "1",
            "type": "t_array(t_address)dyn_storage"
          },
          {
            "astId": 2000,
            "contract": "contracts/Comptroller/Diamond/facets/SetterFacet.sol:SetterFacet",
            "label": "isActive",
            "offset": 0,
            "slot": "2",
            "type": "t_bool"
          },
          {
            "astId": 2003,
            "contract": "contracts/Comptroller/Diamond/facets/SetterFacet.sol:SetterFacet",
            "label": "allowCorePoolFallback",
            "offset": 1,
            "slot": "2",
            "type": "t_bool"
          }
        ],
        "numberOfBytes": "96"
      },
      "t_struct(VenusMarketState)1756_storage": {
        "encoding": "inplace",
        "label": "struct ComptrollerV1Storage.VenusMarketState",
        "members": [
          {
            "astId": 1752,
            "contract": "contracts/Comptroller/Diamond/facets/SetterFacet.sol:SetterFacet",
            "label": "index",
            "offset": 0,
            "slot": "0",
            "type": "t_uint224"
          },
          {
            "astId": 1755,
            "contract": "contracts/Comptroller/Diamond/facets/SetterFacet.sol:SetterFacet",
            "label": "block",
            "offset": 28,
            "slot": "0",
            "type": "t_uint32"
          }
        ],
        "numberOfBytes": "32"
      },
      "t_uint224": {
        "encoding": "inplace",
        "label": "uint224",
        "numberOfBytes": "28"
      },
      "t_uint256": {
        "encoding": "inplace",
        "label": "uint256",
        "numberOfBytes": "32"
      },
      "t_uint32": {
        "encoding": "inplace",
        "label": "uint32",
        "numberOfBytes": "4"
      },
      "t_uint96": {
        "encoding": "inplace",
        "label": "uint96",
        "numberOfBytes": "12"
      },
      "t_userDefinedValueType(PoolMarketId)11255": {
        "encoding": "inplace",
        "label": "PoolMarketId",
        "numberOfBytes": "32"
      }
    }
  }
}