{
  "address": "0xd6abFa4C6B0397638b4504cc573255B49d6F2C18",
  "abi": [
    {
      "inputs": [],
      "name": "AlreadyInSelectedPool",
      "type": "error"
    },
    {
      "inputs": [],
      "name": "ArrayLengthMismatch",
      "type": "error"
    },
    {
      "inputs": [],
      "name": "BorrowNotAllowedInPool",
      "type": "error"
    },
    {
      "inputs": [],
      "name": "EmptyPoolLabel",
      "type": "error"
    },
    {
      "inputs": [],
      "name": "ExecuteFlashLoanFailed",
      "type": "error"
    },
    {
      "inputs": [],
      "name": "FailedToCreateDebtPosition",
      "type": "error"
    },
    {
      "inputs": [],
      "name": "FlashLoanNotEnabled",
      "type": "error"
    },
    {
      "inputs": [
        {
          "internalType": "uint96",
          "name": "poolId",
          "type": "uint96"
        }
      ],
      "name": "InactivePool",
      "type": "error"
    },
    {
      "inputs": [],
      "name": "IncompatibleBorrowedAssets",
      "type": "error"
    },
    {
      "inputs": [],
      "name": "InvalidAmount",
      "type": "error"
    },
    {
      "inputs": [],
      "name": "InvalidFlashLoanParams",
      "type": "error"
    },
    {
      "inputs": [],
      "name": "InvalidMode",
      "type": "error"
    },
    {
      "inputs": [],
      "name": "InvalidOperationForCorePool",
      "type": "error"
    },
    {
      "inputs": [
        {
          "internalType": "enum WeightFunction",
          "name": "strategy",
          "type": "uint8"
        }
      ],
      "name": "InvalidWeightingStrategy",
      "type": "error"
    },
    {
      "inputs": [
        {
          "internalType": "uint256",
          "name": "errorCode",
          "type": "uint256"
        },
        {
          "internalType": "uint256",
          "name": "shortfall",
          "type": "uint256"
        }
      ],
      "name": "LiquidityCheckFailed",
      "type": "error"
    },
    {
      "inputs": [
        {
          "internalType": "uint96",
          "name": "poolId",
          "type": "uint96"
        },
        {
          "internalType": "address",
          "name": "vToken",
          "type": "address"
        }
      ],
      "name": "MarketAlreadyListed",
      "type": "error"
    },
    {
      "inputs": [],
      "name": "MarketConfigNotFound",
      "type": "error"
    },
    {
      "inputs": [],
      "name": "MarketNotListedInCorePool",
      "type": "error"
    },
    {
      "inputs": [],
      "name": "NoAssetsRequested",
      "type": "error"
    },
    {
      "inputs": [
        {
          "internalType": "uint96",
          "name": "poolId",
          "type": "uint96"
        }
      ],
      "name": "PoolDoesNotExist",
      "type": "error"
    },
    {
      "inputs": [
        {
          "internalType": "uint96",
          "name": "poolId",
          "type": "uint96"
        },
        {
          "internalType": "address",
          "name": "vToken",
          "type": "address"
        }
      ],
      "name": "PoolMarketNotFound",
      "type": "error"
    },
    {
      "inputs": [
        {
          "internalType": "address",
          "name": "sender",
          "type": "address"
        }
      ],
      "name": "SenderNotAuthorizedForFlashLoan",
      "type": "error"
    },
    {
      "anonymous": false,
      "inputs": [
        {
          "indexed": true,
          "internalType": "contract VToken",
          "name": "vToken",
          "type": "address"
        },
        {
          "indexed": true,
          "internalType": "enum Action",
          "name": "action",
          "type": "uint8"
        },
        {
          "indexed": false,
          "internalType": "bool",
          "name": "pauseState",
          "type": "bool"
        }
      ],
      "name": "ActionPausedMarket",
      "type": "event"
    },
    {
      "anonymous": false,
      "inputs": [
        {
          "indexed": false,
          "internalType": "bool",
          "name": "state",
          "type": "bool"
        }
      ],
      "name": "ActionProtocolPaused",
      "type": "event"
    },
    {
      "anonymous": false,
      "inputs": [
        {
          "indexed": true,
          "internalType": "uint96",
          "name": "poolId",
          "type": "uint96"
        },
        {
          "indexed": true,
          "internalType": "address",
          "name": "market",
          "type": "address"
        },
        {
          "indexed": false,
          "internalType": "bool",
          "name": "oldStatus",
          "type": "bool"
        },
        {
          "indexed": false,
          "internalType": "bool",
          "name": "newStatus",
          "type": "bool"
        }
      ],
      "name": "BorrowAllowedUpdated",
      "type": "event"
    },
    {
      "anonymous": false,
      "inputs": [
        {
          "indexed": true,
          "internalType": "address",
          "name": "user",
          "type": "address"
        },
        {
          "indexed": true,
          "internalType": "address",
          "name": "market",
          "type": "address"
        },
        {
          "indexed": true,
          "internalType": "address",
          "name": "delegate",
          "type": "address"
        },
        {
          "indexed": false,
          "internalType": "bool",
          "name": "approved",
          "type": "bool"
        }
      ],
      "name": "DelegateAuthorizationFlashloanChanged",
      "type": "event"
    },
    {
      "anonymous": false,
      "inputs": [
        {
          "indexed": false,
          "internalType": "uint256",
          "name": "amount",
          "type": "uint256"
        }
      ],
      "name": "DistributedVAIVaultVenus",
      "type": "event"
    },
    {
      "anonymous": false,
      "inputs": [
        {
          "indexed": false,
          "internalType": "uint256",
          "name": "error",
          "type": "uint256"
        },
        {
          "indexed": false,
          "internalType": "uint256",
          "name": "info",
          "type": "uint256"
        },
        {
          "indexed": false,
          "internalType": "uint256",
          "name": "detail",
          "type": "uint256"
        }
      ],
      "name": "Failure",
      "type": "event"
    },
    {
      "anonymous": false,
      "inputs": [
        {
          "indexed": true,
          "internalType": "address",
          "name": "account",
          "type": "address"
        },
        {
          "indexed": true,
          "internalType": "bool",
          "name": "isWhitelisted",
          "type": "bool"
        }
      ],
      "name": "IsAccountFlashLoanWhitelisted",
      "type": "event"
    },
    {
      "anonymous": false,
      "inputs": [
        {
          "indexed": true,
          "internalType": "address",
          "name": "borrower",
          "type": "address"
        },
        {
          "indexed": true,
          "internalType": "address",
          "name": "vToken",
          "type": "address"
        },
        {
          "indexed": false,
          "internalType": "bool",
          "name": "enable",
          "type": "bool"
        }
      ],
      "name": "IsForcedLiquidationEnabledForUserUpdated",
      "type": "event"
    },
    {
      "anonymous": false,
      "inputs": [
        {
          "indexed": true,
          "internalType": "address",
          "name": "vToken",
          "type": "address"
        },
        {
          "indexed": false,
          "internalType": "bool",
          "name": "enable",
          "type": "bool"
        }
      ],
      "name": "IsForcedLiquidationEnabledUpdated",
      "type": "event"
    },
    {
      "anonymous": false,
      "inputs": [
        {
          "indexed": true,
          "internalType": "contract VToken",
          "name": "vToken",
          "type": "address"
        },
        {
          "indexed": true,
          "internalType": "address",
          "name": "account",
          "type": "address"
        }
      ],
      "name": "MarketEntered",
      "type": "event"
    },
    {
      "anonymous": false,
      "inputs": [
        {
          "indexed": false,
          "internalType": "address",
          "name": "oldAccessControlAddress",
          "type": "address"
        },
        {
          "indexed": false,
          "internalType": "address",
          "name": "newAccessControlAddress",
          "type": "address"
        }
      ],
      "name": "NewAccessControl",
      "type": "event"
    },
    {
      "anonymous": false,
      "inputs": [
        {
          "indexed": true,
          "internalType": "contract VToken",
          "name": "vToken",
          "type": "address"
        },
        {
          "indexed": false,
          "internalType": "uint256",
          "name": "newBorrowCap",
          "type": "uint256"
        }
      ],
      "name": "NewBorrowCap",
      "type": "event"
    },
    {
      "anonymous": false,
      "inputs": [
        {
          "indexed": false,
          "internalType": "uint256",
          "name": "oldCloseFactorMantissa",
          "type": "uint256"
        },
        {
          "indexed": false,
          "internalType": "uint256",
          "name": "newCloseFactorMantissa",
          "type": "uint256"
        }
      ],
      "name": "NewCloseFactor",
      "type": "event"
    },
    {
      "anonymous": false,
      "inputs": [
        {
          "indexed": true,
          "internalType": "uint96",
          "name": "poolId",
          "type": "uint96"
        },
        {
          "indexed": true,
          "internalType": "contract VToken",
          "name": "vToken",
          "type": "address"
        },
        {
          "indexed": false,
          "internalType": "uint256",
          "name": "oldCollateralFactorMantissa",
          "type": "uint256"
        },
        {
          "indexed": false,
          "internalType": "uint256",
          "name": "newCollateralFactorMantissa",
          "type": "uint256"
        }
      ],
      "name": "NewCollateralFactor",
      "type": "event"
    },
    {
      "anonymous": false,
      "inputs": [
        {
          "indexed": false,
          "internalType": "address",
          "name": "oldComptrollerLens",
          "type": "address"
        },
        {
          "indexed": false,
          "internalType": "address",
          "name": "newComptrollerLens",
          "type": "address"
        }
      ],
      "name": "NewComptrollerLens",
      "type": "event"
    },
    {
      "anonymous": false,
      "inputs": [
        {
          "indexed": true,
          "internalType": "uint96",
          "name": "poolId",
          "type": "uint96"
        },
        {
          "indexed": true,
          "internalType": "address",
          "name": "vToken",
          "type": "address"
        },
        {
          "indexed": false,
          "internalType": "uint256",
          "name": "oldLiquidationIncentiveMantissa",
          "type": "uint256"
        },
        {
          "indexed": false,
          "internalType": "uint256",
          "name": "newLiquidationIncentiveMantissa",
          "type": "uint256"
        }
      ],
      "name": "NewLiquidationIncentive",
      "type": "event"
    },
    {
      "anonymous": false,
      "inputs": [
        {
          "indexed": true,
          "internalType": "uint96",
          "name": "poolId",
          "type": "uint96"
        },
        {
          "indexed": true,
          "internalType": "contract VToken",
          "name": "vToken",
          "type": "address"
        },
        {
          "indexed": false,
          "internalType": "uint256",
          "name": "oldLiquidationThresholdMantissa",
          "type": "uint256"
        },
        {
          "indexed": false,
          "internalType": "uint256",
          "name": "newLiquidationThresholdMantissa",
          "type": "uint256"
        }
      ],
      "name": "NewLiquidationThreshold",
      "type": "event"
    },
    {
      "anonymous": false,
      "inputs": [
        {
          "indexed": false,
          "internalType": "address",
          "name": "oldLiquidatorContract",
          "type": "address"
        },
        {
          "indexed": false,
          "internalType": "address",
          "name": "newLiquidatorContract",
          "type": "address"
        }
      ],
      "name": "NewLiquidatorContract",
      "type": "event"
    },
    {
      "anonymous": false,
      "inputs": [
        {
          "indexed": false,
          "internalType": "address",
          "name": "oldPauseGuardian",
          "type": "address"
        },
        {
          "indexed": false,
          "internalType": "address",
          "name": "newPauseGuardian",
          "type": "address"
        }
      ],
      "name": "NewPauseGuardian",
      "type": "event"
    },
    {
      "anonymous": false,
      "inputs": [
        {
          "indexed": false,
          "internalType": "contract ResilientOracleInterface",
          "name": "oldPriceOracle",
          "type": "address"
        },
        {
          "indexed": false,
          "internalType": "contract ResilientOracleInterface",
          "name": "newPriceOracle",
          "type": "address"
        }
      ],
      "name": "NewPriceOracle",
      "type": "event"
    },
    {
      "anonymous": false,
      "inputs": [
        {
          "indexed": false,
          "internalType": "contract IPrime",
          "name": "oldPrimeToken",
          "type": "address"
        },
        {
          "indexed": false,
          "internalType": "contract IPrime",
          "name": "newPrimeToken",
          "type": "address"
        }
      ],
      "name": "NewPrimeToken",
      "type": "event"
    },
    {
      "anonymous": false,
      "inputs": [
        {
          "indexed": true,
          "internalType": "contract VToken",
          "name": "vToken",
          "type": "address"
        },
        {
          "indexed": false,
          "internalType": "uint256",
          "name": "newSupplyCap",
          "type": "uint256"
        }
      ],
      "name": "NewSupplyCap",
      "type": "event"
    },
    {
      "anonymous": false,
      "inputs": [
        {
          "indexed": false,
          "internalType": "address",
          "name": "oldTreasuryAddress",
          "type": "address"
        },
        {
          "indexed": false,
          "internalType": "address",
          "name": "newTreasuryAddress",
          "type": "address"
        }
      ],
      "name": "NewTreasuryAddress",
      "type": "event"
    },
    {
      "anonymous": false,
      "inputs": [
        {
          "indexed": false,
          "internalType": "address",
          "name": "oldTreasuryGuardian",
          "type": "address"
        },
        {
          "indexed": false,
          "internalType": "address",
          "name": "newTreasuryGuardian",
          "type": "address"
        }
      ],
      "name": "NewTreasuryGuardian",
      "type": "event"
    },
    {
      "anonymous": false,
      "inputs": [
        {
          "indexed": false,
          "internalType": "uint256",
          "name": "oldTreasuryPercent",
          "type": "uint256"
        },
        {
          "indexed": false,
          "internalType": "uint256",
          "name": "newTreasuryPercent",
          "type": "uint256"
        }
      ],
      "name": "NewTreasuryPercent",
      "type": "event"
    },
    {
      "anonymous": false,
      "inputs": [
        {
          "indexed": false,
          "internalType": "contract VAIControllerInterface",
          "name": "oldVAIController",
          "type": "address"
        },
        {
          "indexed": false,
          "internalType": "contract VAIControllerInterface",
          "name": "newVAIController",
          "type": "address"
        }
      ],
      "name": "NewVAIController",
      "type": "event"
    },
    {
      "anonymous": false,
      "inputs": [
        {
          "indexed": false,
          "internalType": "uint256",
          "name": "oldVAIMintRate",
          "type": "uint256"
        },
        {
          "indexed": false,
          "internalType": "uint256",
          "name": "newVAIMintRate",
          "type": "uint256"
        }
      ],
      "name": "NewVAIMintRate",
      "type": "event"
    },
    {
      "anonymous": false,
      "inputs": [
        {
          "indexed": true,
          "internalType": "address",
          "name": "vault_",
          "type": "address"
        },
        {
          "indexed": false,
          "internalType": "uint256",
          "name": "releaseStartBlock_",
          "type": "uint256"
        },
        {
          "indexed": false,
          "internalType": "uint256",
          "name": "releaseInterval_",
          "type": "uint256"
        }
      ],
      "name": "NewVAIVaultInfo",
      "type": "event"
    },
    {
      "anonymous": false,
      "inputs": [
        {
          "indexed": false,
          "internalType": "uint256",
          "name": "oldVenusVAIVaultRate",
          "type": "uint256"
        },
        {
          "indexed": false,
          "internalType": "uint256",
          "name": "newVenusVAIVaultRate",
          "type": "uint256"
        }
      ],
      "name": "NewVenusVAIVaultRate",
      "type": "event"
    },
    {
      "anonymous": false,
      "inputs": [
        {
          "indexed": true,
          "internalType": "address",
          "name": "oldXVS",
          "type": "address"
        },
        {
          "indexed": true,
          "internalType": "address",
          "name": "newXVS",
          "type": "address"
        }
      ],
      "name": "NewXVSToken",
      "type": "event"
    },
    {
      "anonymous": false,
      "inputs": [
        {
          "indexed": true,
          "internalType": "address",
          "name": "oldXVSVToken",
          "type": "address"
        },
        {
          "indexed": true,
          "internalType": "address",
          "name": "newXVSVToken",
          "type": "address"
        }
      ],
      "name": "NewXVSVToken",
      "type": "event"
    },
    {
      "anonymous": false,
      "inputs": [
        {
          "indexed": true,
          "internalType": "uint96",
          "name": "poolId",
          "type": "uint96"
        },
        {
          "indexed": false,
          "internalType": "bool",
          "name": "oldStatus",
          "type": "bool"
        },
        {
          "indexed": false,
          "internalType": "bool",
          "name": "newStatus",
          "type": "bool"
        }
      ],
      "name": "PoolActiveStatusUpdated",
      "type": "event"
    },
    {
      "anonymous": false,
      "inputs": [
        {
          "indexed": true,
          "internalType": "uint96",
          "name": "poolId",
          "type": "uint96"
        },
        {
          "indexed": false,
          "internalType": "string",
          "name": "oldLabel",
          "type": "string"
        },
        {
          "indexed": false,
          "internalType": "string",
          "name": "newLabel",
          "type": "string"
        }
      ],
      "name": "PoolLabelUpdated",
      "type": "event"
    },
    {
      "inputs": [
        {
          "internalType": "address",
          "name": "newAccessControlAddress",
          "type": "address"
        }
      ],
      "name": "_setAccessControl",
      "outputs": [
        {
          "internalType": "uint256",
          "name": "",
          "type": "uint256"
        }
      ],
      "stateMutability": "nonpayable",
      "type": "function"
    },
    {
      "inputs": [
        {
          "internalType": "address[]",
          "name": "markets_",
          "type": "address[]"
        },
        {
          "internalType": "enum Action[]",
          "name": "actions_",
          "type": "uint8[]"
        },
        {
          "internalType": "bool",
          "name": "paused_",
          "type": "bool"
        }
      ],
      "name": "_setActionsPaused",
      "outputs": [],
      "stateMutability": "nonpayable",
      "type": "function"
    },
    {
      "inputs": [
        {
          "internalType": "uint256",
          "name": "newCloseFactorMantissa",
          "type": "uint256"
        }
      ],
      "name": "_setCloseFactor",
      "outputs": [
        {
          "internalType": "uint256",
          "name": "",
          "type": "uint256"
        }
      ],
      "stateMutability": "nonpayable",
      "type": "function"
    },
    {
      "inputs": [
        {
          "internalType": "contract ComptrollerLensInterface",
          "name": "comptrollerLens_",
          "type": "address"
        }
      ],
      "name": "_setComptrollerLens",
      "outputs": [
        {
          "internalType": "uint256",
          "name": "",
          "type": "uint256"
        }
      ],
      "stateMutability": "nonpayable",
      "type": "function"
    },
    {
      "inputs": [
        {
          "internalType": "address",
          "name": "vTokenBorrowed",
          "type": "address"
        },
        {
          "internalType": "bool",
          "name": "enable",
          "type": "bool"
        }
      ],
      "name": "_setForcedLiquidation",
      "outputs": [],
      "stateMutability": "nonpayable",
      "type": "function"
    },
    {
      "inputs": [
        {
          "internalType": "address",
          "name": "borrower",
          "type": "address"
        },
        {
          "internalType": "address",
          "name": "vTokenBorrowed",
          "type": "address"
        },
        {
          "internalType": "bool",
          "name": "enable",
          "type": "bool"
        }
      ],
      "name": "_setForcedLiquidationForUser",
      "outputs": [],
      "stateMutability": "nonpayable",
      "type": "function"
    },
    {
      "inputs": [
        {
          "internalType": "address",
          "name": "newLiquidatorContract_",
          "type": "address"
        }
      ],
      "name": "_setLiquidatorContract",
      "outputs": [],
      "stateMutability": "nonpayable",
      "type": "function"
    },
    {
      "inputs": [
        {
          "internalType": "contract VToken[]",
          "name": "vTokens",
          "type": "address[]"
        },
        {
          "internalType": "uint256[]",
          "name": "newBorrowCaps",
          "type": "uint256[]"
        }
      ],
      "name": "_setMarketBorrowCaps",
      "outputs": [],
      "stateMutability": "nonpayable",
      "type": "function"
    },
    {
      "inputs": [
        {
          "internalType": "contract VToken[]",
          "name": "vTokens",
          "type": "address[]"
        },
        {
          "internalType": "uint256[]",
          "name": "newSupplyCaps",
          "type": "uint256[]"
        }
      ],
      "name": "_setMarketSupplyCaps",
      "outputs": [],
      "stateMutability": "nonpayable",
      "type": "function"
    },
    {
      "inputs": [
        {
          "internalType": "address",
          "name": "newPauseGuardian",
          "type": "address"
        }
      ],
      "name": "_setPauseGuardian",
      "outputs": [
        {
          "internalType": "uint256",
          "name": "",
          "type": "uint256"
        }
      ],
      "stateMutability": "nonpayable",
      "type": "function"
    },
    {
      "inputs": [
        {
          "internalType": "contract ResilientOracleInterface",
          "name": "newOracle",
          "type": "address"
        }
      ],
      "name": "_setPriceOracle",
      "outputs": [
        {
          "internalType": "uint256",
          "name": "",
          "type": "uint256"
        }
      ],
      "stateMutability": "nonpayable",
      "type": "function"
    },
    {
      "inputs": [
        {
          "internalType": "contract IPrime",
          "name": "_prime",
          "type": "address"
        }
      ],
      "name": "_setPrimeToken",
      "outputs": [
        {
          "internalType": "uint256",
          "name": "",
          "type": "uint256"
        }
      ],
      "stateMutability": "nonpayable",
      "type": "function"
    },
    {
      "inputs": [
        {
          "internalType": "bool",
          "name": "state",
          "type": "bool"
        }
      ],
      "name": "_setProtocolPaused",
      "outputs": [
        {
          "internalType": "bool",
          "name": "",
          "type": "bool"
        }
      ],
      "stateMutability": "nonpayable",
      "type": "function"
    },
    {
      "inputs": [
        {
          "internalType": "address",
          "name": "newTreasuryGuardian",
          "type": "address"
        },
        {
          "internalType": "address",
          "name": "newTreasuryAddress",
          "type": "address"
        },
        {
          "internalType": "uint256",
          "name": "newTreasuryPercent",
          "type": "uint256"
        }
      ],
      "name": "_setTreasuryData",
      "outputs": [
        {
          "internalType": "uint256",
          "name": "",
          "type": "uint256"
        }
      ],
      "stateMutability": "nonpayable",
      "type": "function"
    },
    {
      "inputs": [
        {
          "internalType": "contract VAIControllerInterface",
          "name": "vaiController_",
          "type": "address"
        }
      ],
      "name": "_setVAIController",
      "outputs": [
        {
          "internalType": "uint256",
          "name": "",
          "type": "uint256"
        }
      ],
      "stateMutability": "nonpayable",
      "type": "function"
    },
    {
      "inputs": [
        {
          "internalType": "uint256",
          "name": "newVAIMintRate",
          "type": "uint256"
        }
      ],
      "name": "_setVAIMintRate",
      "outputs": [
        {
          "internalType": "uint256",
          "name": "",
          "type": "uint256"
        }
      ],
      "stateMutability": "nonpayable",
      "type": "function"
    },
    {
      "inputs": [
        {
          "internalType": "address",
          "name": "vault_",
          "type": "address"
        },
        {
          "internalType": "uint256",
          "name": "releaseStartBlock_",
          "type": "uint256"
        },
        {
          "internalType": "uint256",
          "name": "minReleaseAmount_",
          "type": "uint256"
        }
      ],
      "name": "_setVAIVaultInfo",
      "outputs": [],
      "stateMutability": "nonpayable",
      "type": "function"
    },
    {
      "inputs": [
        {
          "internalType": "uint256",
          "name": "venusVAIVaultRate_",
          "type": "uint256"
        }
      ],
      "name": "_setVenusVAIVaultRate",
      "outputs": [],
      "stateMutability": "nonpayable",
      "type": "function"
    },
    {
      "inputs": [
        {
          "internalType": "address",
          "name": "xvs_",
          "type": "address"
        }
      ],
      "name": "_setXVSToken",
      "outputs": [],
      "stateMutability": "nonpayable",
      "type": "function"
    },
    {
      "inputs": [
        {
          "internalType": "address",
          "name": "xvsVToken_",
          "type": "address"
        }
      ],
      "name": "_setXVSVToken",
      "outputs": [],
      "stateMutability": "nonpayable",
      "type": "function"
    },
    {
      "inputs": [
        {
          "internalType": "address",
          "name": "",
          "type": "address"
        },
        {
          "internalType": "uint256",
          "name": "",
          "type": "uint256"
        }
      ],
      "name": "accountAssets",
      "outputs": [
        {
          "internalType": "contract VToken",
          "name": "",
          "type": "address"
        }
      ],
      "stateMutability": "view",
      "type": "function"
    },
    {
      "inputs": [
        {
          "internalType": "address",
          "name": "market",
          "type": "address"
        },
        {
          "internalType": "enum Action",
          "name": "action",
          "type": "uint8"
        }
      ],
      "name": "actionPaused",
      "outputs": [
        {
          "internalType": "bool",
          "name": "",
          "type": "bool"
        }
      ],
      "stateMutability": "view",
      "type": "function"
    },
    {
      "inputs": [],
      "name": "admin",
      "outputs": [
        {
          "internalType": "address",
          "name": "",
          "type": "address"
        }
      ],
      "stateMutability": "view",
      "type": "function"
    },
    {
      "inputs": [
        {
          "internalType": "uint256",
          "name": "",
          "type": "uint256"
        }
      ],
      "name": "allMarkets",
      "outputs": [
        {
          "internalType": "contract VToken",
          "name": "",
          "type": "address"
        }
      ],
      "stateMutability": "view",
      "type": "function"
    },
    {
      "inputs": [
        {
          "internalType": "address",
          "name": "",
          "type": "address"
        },
        {
          "internalType": "address",
          "name": "",
          "type": "address"
        }
      ],
      "name": "approvedDelegates",
      "outputs": [
        {
          "internalType": "bool",
          "name": "",
          "type": "bool"
        }
      ],
      "stateMutability": "view",
      "type": "function"
    },
    {
      "inputs": [
        {
          "internalType": "address",
          "name": "",
          "type": "address"
        }
      ],
      "name": "authorizedFlashLoan",
      "outputs": [
        {
          "internalType": "bool",
          "name": "",
          "type": "bool"
        }
      ],
      "stateMutability": "view",
      "type": "function"
    },
    {
      "inputs": [],
      "name": "borrowCapGuardian",
      "outputs": [
        {
          "internalType": "address",
          "name": "",
          "type": "address"
        }
      ],
      "stateMutability": "view",
      "type": "function"
    },
    {
      "inputs": [
        {
          "internalType": "address",
          "name": "",
          "type": "address"
        }
      ],
      "name": "borrowCaps",
      "outputs": [
        {
          "internalType": "uint256",
          "name": "",
          "type": "uint256"
        }
      ],
      "stateMutability": "view",
      "type": "function"
    },
    {
      "inputs": [],
      "name": "closeFactorMantissa",
      "outputs": [
        {
          "internalType": "uint256",
          "name": "",
          "type": "uint256"
        }
      ],
      "stateMutability": "view",
      "type": "function"
    },
    {
      "inputs": [],
      "name": "comptrollerImplementation",
      "outputs": [
        {
          "internalType": "address",
          "name": "",
          "type": "address"
        }
      ],
      "stateMutability": "view",
      "type": "function"
    },
    {
      "inputs": [],
      "name": "comptrollerLens",
      "outputs": [
        {
          "internalType": "contract ComptrollerLensInterface",
          "name": "",
          "type": "address"
        }
      ],
      "stateMutability": "view",
      "type": "function"
    },
    {
      "inputs": [],
      "name": "corePoolId",
      "outputs": [
        {
          "internalType": "uint96",
          "name": "",
          "type": "uint96"
        }
      ],
      "stateMutability": "view",
      "type": "function"
    },
    {
      "inputs": [
        {
          "internalType": "uint96",
          "name": "poolId",
          "type": "uint96"
        },
        {
          "internalType": "address",
          "name": "vToken",
          "type": "address"
        }
      ],
      "name": "getPoolMarketIndex",
      "outputs": [
        {
          "internalType": "PoolMarketId",
          "name": "",
          "type": "bytes32"
        }
      ],
      "stateMutability": "pure",
      "type": "function"
    },
    {
      "inputs": [],
      "name": "getXVSAddress",
      "outputs": [
        {
          "internalType": "address",
          "name": "",
          "type": "address"
        }
      ],
      "stateMutability": "view",
      "type": "function"
    },
    {
      "inputs": [
        {
          "internalType": "address",
          "name": "",
          "type": "address"
        }
      ],
      "name": "isForcedLiquidationEnabled",
      "outputs": [
        {
          "internalType": "bool",
          "name": "",
          "type": "bool"
        }
      ],
      "stateMutability": "view",
      "type": "function"
    },
    {
      "inputs": [
        {
          "internalType": "address",
          "name": "user",
          "type": "address"
        },
        {
          "internalType": "address",
          "name": "market",
          "type": "address"
        }
      ],
      "name": "isForcedLiquidationEnabledForUser",
      "outputs": [
        {
          "internalType": "bool",
          "name": "",
          "type": "bool"
        }
      ],
      "stateMutability": "view",
      "type": "function"
    },
    {
      "inputs": [],
      "name": "lastPoolId",
      "outputs": [
        {
          "internalType": "uint96",
          "name": "",
          "type": "uint96"
        }
      ],
      "stateMutability": "view",
      "type": "function"
    },
    {
      "inputs": [],
      "name": "liquidatorContract",
      "outputs": [
        {
          "internalType": "address",
          "name": "",
          "type": "address"
        }
      ],
      "stateMutability": "view",
      "type": "function"
    },
    {
      "inputs": [],
      "name": "maxAssets",
      "outputs": [
        {
          "internalType": "uint256",
          "name": "",
          "type": "uint256"
        }
      ],
      "stateMutability": "view",
      "type": "function"
    },
    {
      "inputs": [],
      "name": "minReleaseAmount",
      "outputs": [
        {
          "internalType": "uint256",
          "name": "",
          "type": "uint256"
        }
      ],
      "stateMutability": "view",
      "type": "function"
    },
    {
      "inputs": [],
      "name": "mintVAIGuardianPaused",
      "outputs": [
        {
          "internalType": "bool",
          "name": "",
          "type": "bool"
        }
      ],
      "stateMutability": "view",
      "type": "function"
    },
    {
      "inputs": [
        {
          "internalType": "address",
          "name": "",
          "type": "address"
        }
      ],
      "name": "mintedVAIs",
      "outputs": [
        {
          "internalType": "uint256",
          "name": "",
          "type": "uint256"
        }
      ],
      "stateMutability": "view",
      "type": "function"
    },
    {
      "inputs": [],
      "name": "oracle",
      "outputs": [
        {
          "internalType": "contract ResilientOracleInterface",
          "name": "",
          "type": "address"
        }
      ],
      "stateMutability": "view",
      "type": "function"
    },
    {
      "inputs": [],
      "name": "pauseGuardian",
      "outputs": [
        {
          "internalType": "address",
          "name": "",
          "type": "address"
        }
      ],
      "stateMutability": "view",
      "type": "function"
    },
    {
      "inputs": [],
      "name": "pendingAdmin",
      "outputs": [
        {
          "internalType": "address",
          "name": "",
          "type": "address"
        }
      ],
      "stateMutability": "view",
      "type": "function"
    },
    {
      "inputs": [],
      "name": "pendingComptrollerImplementation",
      "outputs": [
        {
          "internalType": "address",
          "name": "",
          "type": "address"
        }
      ],
      "stateMutability": "view",
      "type": "function"
    },
    {
      "inputs": [
        {
          "internalType": "uint96",
          "name": "",
          "type": "uint96"
        }
      ],
      "name": "pools",
      "outputs": [
        {
          "internalType": "string",
          "name": "label",
          "type": "string"
        },
        {
          "internalType": "bool",
          "name": "isActive",
          "type": "bool"
        }
      ],
      "stateMutability": "view",
      "type": "function"
    },
    {
      "inputs": [],
      "name": "prime",
      "outputs": [
        {
          "internalType": "contract IPrime",
          "name": "",
          "type": "address"
        }
      ],
      "stateMutability": "view",
      "type": "function"
    },
    {
      "inputs": [],
      "name": "protocolPaused",
      "outputs": [
        {
          "internalType": "bool",
          "name": "",
          "type": "bool"
        }
      ],
      "stateMutability": "view",
      "type": "function"
    },
    {
      "inputs": [],
      "name": "releaseStartBlock",
      "outputs": [
        {
          "internalType": "uint256",
          "name": "",
          "type": "uint256"
        }
      ],
      "stateMutability": "view",
      "type": "function"
    },
    {
      "inputs": [],
      "name": "repayVAIGuardianPaused",
      "outputs": [
        {
          "internalType": "bool",
          "name": "",
          "type": "bool"
        }
      ],
      "stateMutability": "view",
      "type": "function"
    },
    {
      "inputs": [
        {
          "internalType": "address[]",
          "name": "markets_",
          "type": "address[]"
        },
        {
          "internalType": "enum Action[]",
          "name": "actions_",
          "type": "uint8[]"
        },
        {
          "internalType": "bool",
          "name": "paused_",
          "type": "bool"
        }
      ],
      "name": "setActionsPaused",
      "outputs": [],
      "stateMutability": "nonpayable",
      "type": "function"
    },
    {
      "inputs": [
        {
          "internalType": "uint256",
          "name": "newCloseFactorMantissa",
          "type": "uint256"
        }
      ],
      "name": "setCloseFactor",
      "outputs": [
        {
          "internalType": "uint256",
          "name": "",
          "type": "uint256"
        }
      ],
      "stateMutability": "nonpayable",
      "type": "function"
    },
    {
      "inputs": [
        {
          "internalType": "contract VToken",
          "name": "vToken",
          "type": "address"
        },
        {
          "internalType": "uint256",
          "name": "newCollateralFactorMantissa",
          "type": "uint256"
        },
        {
          "internalType": "uint256",
          "name": "newLiquidationThresholdMantissa",
          "type": "uint256"
        }
      ],
      "name": "setCollateralFactor",
      "outputs": [
        {
          "internalType": "uint256",
          "name": "",
          "type": "uint256"
        }
      ],
      "stateMutability": "nonpayable",
      "type": "function"
    },
    {
      "inputs": [
        {
          "internalType": "uint96",
          "name": "poolId",
          "type": "uint96"
        },
        {
          "internalType": "contract VToken",
          "name": "vToken",
          "type": "address"
        },
        {
          "internalType": "uint256",
          "name": "newCollateralFactorMantissa",
          "type": "uint256"
        },
        {
          "internalType": "uint256",
          "name": "newLiquidationThresholdMantissa",
          "type": "uint256"
        }
      ],
      "name": "setCollateralFactor",
      "outputs": [
        {
          "internalType": "uint256",
          "name": "",
          "type": "uint256"
        }
      ],
      "stateMutability": "nonpayable",
      "type": "function"
    },
    {
      "inputs": [
        {
          "internalType": "address",
          "name": "vTokenBorrowed",
          "type": "address"
        },
        {
          "internalType": "bool",
          "name": "enable",
          "type": "bool"
        }
      ],
      "name": "setForcedLiquidation",
      "outputs": [],
      "stateMutability": "nonpayable",
      "type": "function"
    },
    {
      "inputs": [
        {
          "internalType": "uint96",
          "name": "poolId",
          "type": "uint96"
        },
        {
          "internalType": "address",
          "name": "vToken",
          "type": "address"
        },
        {
          "internalType": "bool",
          "name": "borrowAllowed",
          "type": "bool"
        }
      ],
      "name": "setIsBorrowAllowed",
      "outputs": [],
      "stateMutability": "nonpayable",
      "type": "function"
    },
    {
      "inputs": [
        {
          "internalType": "uint96",
          "name": "poolId",
          "type": "uint96"
        },
        {
          "internalType": "address",
          "name": "vToken",
          "type": "address"
        },
        {
          "internalType": "uint256",
          "name": "newLiquidationIncentiveMantissa",
          "type": "uint256"
        }
      ],
      "name": "setLiquidationIncentive",
      "outputs": [
        {
          "internalType": "uint256",
          "name": "",
          "type": "uint256"
        }
      ],
      "stateMutability": "nonpayable",
      "type": "function"
    },
    {
      "inputs": [
        {
          "internalType": "address",
          "name": "vToken",
          "type": "address"
        },
        {
          "internalType": "uint256",
          "name": "newLiquidationIncentiveMantissa",
          "type": "uint256"
        }
      ],
      "name": "setLiquidationIncentive",
      "outputs": [
        {
          "internalType": "uint256",
          "name": "",
          "type": "uint256"
        }
      ],
      "stateMutability": "nonpayable",
      "type": "function"
    },
    {
      "inputs": [
        {
          "internalType": "contract VToken[]",
          "name": "vTokens",
          "type": "address[]"
        },
        {
          "internalType": "uint256[]",
          "name": "newBorrowCaps",
          "type": "uint256[]"
        }
      ],
      "name": "setMarketBorrowCaps",
      "outputs": [],
      "stateMutability": "nonpayable",
      "type": "function"
    },
    {
      "inputs": [
        {
          "internalType": "contract VToken[]",
          "name": "vTokens",
          "type": "address[]"
        },
        {
          "internalType": "uint256[]",
          "name": "newSupplyCaps",
          "type": "uint256[]"
        }
      ],
      "name": "setMarketSupplyCaps",
      "outputs": [],
      "stateMutability": "nonpayable",
      "type": "function"
    },
    {
      "inputs": [
        {
          "internalType": "address",
          "name": "owner",
          "type": "address"
        },
        {
          "internalType": "uint256",
          "name": "amount",
          "type": "uint256"
        }
      ],
      "name": "setMintedVAIOf",
      "outputs": [
        {
          "internalType": "uint256",
          "name": "",
          "type": "uint256"
        }
      ],
      "stateMutability": "nonpayable",
      "type": "function"
    },
    {
      "inputs": [
        {
          "internalType": "uint96",
          "name": "poolId",
          "type": "uint96"
        },
        {
          "internalType": "bool",
          "name": "active",
          "type": "bool"
        }
      ],
      "name": "setPoolActive",
      "outputs": [],
      "stateMutability": "nonpayable",
      "type": "function"
    },
    {
      "inputs": [
        {
          "internalType": "uint96",
          "name": "poolId",
          "type": "uint96"
        },
        {
          "internalType": "string",
          "name": "newLabel",
          "type": "string"
        }
      ],
      "name": "setPoolLabel",
      "outputs": [],
      "stateMutability": "nonpayable",
      "type": "function"
    },
    {
      "inputs": [
        {
          "internalType": "contract ResilientOracleInterface",
          "name": "newOracle",
          "type": "address"
        }
      ],
      "name": "setPriceOracle",
      "outputs": [
        {
          "internalType": "uint256",
          "name": "",
          "type": "uint256"
        }
      ],
      "stateMutability": "nonpayable",
      "type": "function"
    },
    {
      "inputs": [
        {
          "internalType": "contract IPrime",
          "name": "_prime",
          "type": "address"
        }
      ],
      "name": "setPrimeToken",
      "outputs": [
        {
          "internalType": "uint256",
          "name": "",
          "type": "uint256"
        }
      ],
      "stateMutability": "nonpayable",
      "type": "function"
    },
    {
      "inputs": [
        {
          "internalType": "address",
          "name": "account",
          "type": "address"
        },
        {
          "internalType": "bool",
          "name": "_isWhiteListed",
          "type": "bool"
        }
      ],
      "name": "setWhiteListFlashLoanAccount",
      "outputs": [],
      "stateMutability": "nonpayable",
      "type": "function"
    },
    {
      "inputs": [
        {
          "internalType": "address",
          "name": "",
          "type": "address"
        }
      ],
      "name": "supplyCaps",
      "outputs": [
        {
          "internalType": "uint256",
          "name": "",
          "type": "uint256"
        }
      ],
      "stateMutability": "view",
      "type": "function"
    },
    {
      "inputs": [],
      "name": "treasuryAddress",
      "outputs": [
        {
          "internalType": "address",
          "name": "",
          "type": "address"
        }
      ],
      "stateMutability": "view",
      "type": "function"
    },
    {
      "inputs": [],
      "name": "treasuryGuardian",
      "outputs": [
        {
          "internalType": "address",
          "name": "",
          "type": "address"
        }
      ],
      "stateMutability": "view",
      "type": "function"
    },
    {
      "inputs": [],
      "name": "treasuryPercent",
      "outputs": [
        {
          "internalType": "uint256",
          "name": "",
          "type": "uint256"
        }
      ],
      "stateMutability": "view",
      "type": "function"
    },
    {
      "inputs": [
        {
          "internalType": "address",
          "name": "",
          "type": "address"
        }
      ],
      "name": "userPoolId",
      "outputs": [
        {
          "internalType": "uint96",
          "name": "",
          "type": "uint96"
        }
      ],
      "stateMutability": "view",
      "type": "function"
    },
    {
      "inputs": [],
      "name": "vaiController",
      "outputs": [
        {
          "internalType": "contract VAIControllerInterface",
          "name": "",
          "type": "address"
        }
      ],
      "stateMutability": "view",
      "type": "function"
    },
    {
      "inputs": [],
      "name": "vaiMintRate",
      "outputs": [
        {
          "internalType": "uint256",
          "name": "",
          "type": "uint256"
        }
      ],
      "stateMutability": "view",
      "type": "function"
    },
    {
      "inputs": [],
      "name": "vaiVaultAddress",
      "outputs": [
        {
          "internalType": "address",
          "name": "",
          "type": "address"
        }
      ],
      "stateMutability": "view",
      "type": "function"
    },
    {
      "inputs": [
        {
          "internalType": "address",
          "name": "",
          "type": "address"
        }
      ],
      "name": "venusAccrued",
      "outputs": [
        {
          "internalType": "uint256",
          "name": "",
          "type": "uint256"
        }
      ],
      "stateMutability": "view",
      "type": "function"
    },
    {
      "inputs": [
        {
          "internalType": "address",
          "name": "",
          "type": "address"
        }
      ],
      "name": "venusBorrowSpeeds",
      "outputs": [
        {
          "internalType": "uint256",
          "name": "",
          "type": "uint256"
        }
      ],
      "stateMutability": "view",
      "type": "function"
    },
    {
      "inputs": [
        {
          "internalType": "address",
          "name": "",
          "type": "address"
        }
      ],
      "name": "venusBorrowState",
      "outputs": [
        {
          "internalType": "uint224",
          "name": "index",
          "type": "uint224"
        },
        {
          "internalType": "uint32",
          "name": "block",
          "type": "uint32"
        }
      ],
      "stateMutability": "view",
      "type": "function"
    },
    {
      "inputs": [
        {
          "internalType": "address",
          "name": "",
          "type": "address"
        },
        {
          "internalType": "address",
          "name": "",
          "type": "address"
        }
      ],
      "name": "venusBorrowerIndex",
      "outputs": [
        {
          "internalType": "uint256",
          "name": "",
          "type": "uint256"
        }
      ],
      "stateMutability": "view",
      "type": "function"
    },
    {
      "inputs": [],
      "name": "venusInitialIndex",
      "outputs": [
        {
          "internalType": "uint224",
          "name": "",
          "type": "uint224"
        }
      ],
      "stateMutability": "view",
      "type": "function"
    },
    {
      "inputs": [
        {
          "internalType": "address",
          "name": "",
          "type": "address"
        },
        {
          "internalType": "address",
          "name": "",
          "type": "address"
        }
      ],
      "name": "venusSupplierIndex",
      "outputs": [
        {
          "internalType": "uint256",
          "name": "",
          "type": "uint256"
        }
      ],
      "stateMutability": "view",
      "type": "function"
    },
    {
      "inputs": [
        {
          "internalType": "address",
          "name": "",
          "type": "address"
        }
      ],
      "name": "venusSupplySpeeds",
      "outputs": [
        {
          "internalType": "uint256",
          "name": "",
          "type": "uint256"
        }
      ],
      "stateMutability": "view",
      "type": "function"
    },
    {
      "inputs": [
        {
          "internalType": "address",
          "name": "",
          "type": "address"
        }
      ],
      "name": "venusSupplyState",
      "outputs": [
        {
          "internalType": "uint224",
          "name": "index",
          "type": "uint224"
        },
        {
          "internalType": "uint32",
          "name": "block",
          "type": "uint32"
        }
      ],
      "stateMutability": "view",
      "type": "function"
    },
    {
      "inputs": [],
      "name": "venusVAIVaultRate",
      "outputs": [
        {
          "internalType": "uint256",
          "name": "",
          "type": "uint256"
        }
      ],
      "stateMutability": "view",
      "type": "function"
    }
  ],
  "transactionHash": "0x5a98f33afb059696dc65f8c062186e1e489929925bb87eff596d08d3223e6cc2",
  "args": [],
  "numDeployments": 6,
  "solcInputHash": "58e06aab0c6518e2e9631b1ca558fe1f",
  "bytecode": "0x6080604052348015600e575f80fd5b506139e18061001c5f395ff3fe608060405234801561000f575f80fd5b506004361061049b575f3560e01c80638a7dc16511610263578063bec04f721161014b578063dce15449116100ca578063e87554461161008f578063e875544614610b4a578063f445d70314610b53578063f519fc3014610b80578063f851a44014610b93578063fa6331d814610ba5578063fd51a3ad14610bae575f80fd5b8063dce1544914610ab8578063dcfbc0c714610acb578063e0f6123d14610ade578063e37d4b7914610b00578063e85a296014610b37575f80fd5b8063c7ee005e11610110578063c7ee005e14610a78578063d136af4414610709578063d24febad14610a8b578063d3270f9914610a9e578063d463654c14610ab1575f80fd5b8063bec04f7214610a1d578063bf32442d14610a26578063c32094c7146108a8578063c5b4db5514610a37578063c5f956af14610a65575f80fd5b80639bd8f6e8116101e2578063b2eafc39116101a7578063b2eafc3914610957578063b8324c7c1461096a578063b88d846b146109c5578063bb82aa5e146109d8578063bb857450146109eb578063bbb8864a146109fe575f80fd5b80639bd8f6e8146108f85780639bf34cbb1461090b5780639cfdd9e61461091e578063a657e57914610931578063a89766dd14610944575f80fd5b80639254f5e5116102285780639254f5e5146108955780639460c8b5146108a857806394b2294b146108bb57806396c99064146108c45780639bb27d62146108e5575f80fd5b80638a7dc1651461082e5780638b3113f61461071c5780638c1ac18a1461084d5780639159b1771461086f578063919a373614610882575f80fd5b806342adb2111161038657806355ee1fe1116103055780636662c7c9116102ca5780636662c7c91461079a578063719f701b146107ad57806373769099146107b657806376551383146107f65780637d172bd5146108085780637dc0d1d01461081b575f80fd5b806355ee1fe1146107425780635cc4fdeb146107555780635dd3fc9d146107685780635f5af1aa14610787578063607ef6c114610572575f80fd5b80634ef233fc1161034b5780634ef233fc146106f657806351a485e414610709578063522c656b1461071c57806352d84d1e1461072f578063530e784f14610742575f80fd5b806342adb2111461068b5780634964f48c1461069e5780634a584432146106b15780634d99c776146106d05780634e0853db146106e3575f80fd5b806324aaa2201161041d5780632ec04124116103e25780632ec041241461061b578063317b0b771461054a578063354392401461062e5780634088c73e1461064157806341a18d2c1461064e578063425fad5814610678575f80fd5b806324aaa220146105c357806326782247146105d65780632a6a6065146105e95780632b5d790c146105c35780632bc7e29e146105fc575f80fd5b806312348e961161046357806312348e961461054a57806317db21631461055d578063186db48f1461057257806321af45691461058557806324a3d622146105b0575f80fd5b806302c3bcbb1461049f57806304ef9d58146104d157806308e0225c146104da5780630db4b4e51461050457806310b983381461050d575b5f80fd5b6104be6104ad366004612eeb565b60276020525f908152604090205481565b6040519081526020015b60405180910390f35b6104be60225481565b6104be6104e8366004612f06565b601360209081525f928352604080842090915290825290205481565b6104be601d5481565b61053a61051b366004612f06565b602c60209081525f928352604080842090915290825290205460ff1681565b60405190151581526020016104c8565b6104be610558366004612f3d565b610bc1565b61057061056b366004612f61565b610bd1565b005b610570610580366004612ff1565b610c85565b601e54610598906001600160a01b031681565b6040516001600160a01b0390911681526020016104c8565b600a54610598906001600160a01b031681565b6105706105d1366004613058565b610cf6565b600154610598906001600160a01b031681565b61053a6105f73660046130d6565b610d6a565b6104be61060a366004612eeb565b60166020525f908152604090205481565b6104be610629366004612f3d565b610e00565b6104be61063c36600461310c565b610e83565b60185461053a9060ff1681565b6104be61065c366004612f06565b601260209081525f928352604080842090915290825290205481565b60185461053a9062010000900460ff1681565b610570610699366004613148565b610eba565b6105706106ac366004613174565b610f37565b6104be6106bf366004612eeb565b601f6020525f908152604090205481565b6104be6106de36600461318e565b61106c565b6105706106f13660046131a8565b611089565b610570610704366004612eeb565b61114c565b610570610717366004612ff1565b61127a565b61057061072a366004613148565b6112e5565b61059861073d366004612f3d565b6112f3565b6104be610750366004612eeb565b61131b565b6104be6107633660046131a8565b611325565b6104be610776366004612eeb565b602b6020525f908152604090205481565b6104be610795366004612eeb565b611353565b6105706107a8366004612f3d565b6113ea565b6104be601c5481565b6107de6107c4366004612eeb565b60356020525f90815260409020546001600160601b031681565b6040516001600160601b0390911681526020016104c8565b60185461053a90610100900460ff1681565b601b54610598906001600160a01b031681565b600454610598906001600160a01b031681565b6104be61083c366004612eeb565b60146020525f908152604090205481565b61053a61085b366004612eeb565b602d6020525f908152604090205460ff1681565b6104be61087d3660046131da565b611476565b610570610890366004612eeb565b6114af565b601554610598906001600160a01b031681565b6104be6108b6366004612eeb565b61151b565b6104be60075481565b6108d76108d236600461321b565b611525565b6040516104c8929190613262565b602554610598906001600160a01b031681565b6104be610906366004613285565b6115c9565b6104be610919366004612eeb565b6115f6565b6104be61092c366004612eeb565b61168c565b6037546107de906001600160601b031681565b6105706109523660046132af565b611723565b602054610598906001600160a01b031681565b6109a1610978366004612eeb565b60106020525f90815260409020546001600160e01b03811690600160e01b900463ffffffff1682565b604080516001600160e01b03909316835263ffffffff9091166020830152016104c8565b6105706109d33660046132ca565b611864565b600254610598906001600160a01b031681565b6105706109f9366004612eeb565b6119c8565b6104be610a0c366004612eeb565b602a6020525f908152604090205481565b6104be60175481565b6033546001600160a01b0316610598565b610a4d6ec097ce7bc90715b34b9f100000000081565b6040516001600160e01b0390911681526020016104c8565b602154610598906001600160a01b031681565b603154610598906001600160a01b031681565b6104be610a99366004613346565b611a5d565b602654610598906001600160a01b031681565b6107de5f81565b610598610ac6366004613285565b611bc4565b600354610598906001600160a01b031681565b61053a610aec366004612eeb565b60386020525f908152604090205460ff1681565b6109a1610b0e366004612eeb565b60116020525f90815260409020546001600160e01b03811690600160e01b900463ffffffff1682565b61053a610b45366004613363565b611bf8565b6104be60055481565b61053a610b61366004612f06565b603260209081525f928352604080842090915290825290205460ff1681565b6104be610b8e366004612eeb565b611c3c565b5f54610598906001600160a01b031681565b6104be601a5481565b6104be610bbc366004613285565b611cd3565b5f610bcb82611d77565b92915050565b610bf26040518060600160405280603281526020016137d560329139611e51565b6015546001600160a01b03838116911614610c1857610c18610c1383611f01565b611f23565b6001600160a01b038381165f81815260326020908152604080832094871680845294825291829020805460ff191686151590811790915591519182527fc080966e9e93529edc1b244180c245bc60f3d86f1e690a17651a5e428746a8cd91015b60405180910390a3505050565b610cf08484808060200260200160405190810160405280939291908181526020018383602002808284375f92019190915250506040805160208088028281018201909352878252909350879250869182918501908490808284375f92019190915250611f6892505050565b50505050565b610d638585808060200260200160405190810160405280939291908181526020018383602002808284375f92019190915250506040805160208089028281018201909352888252909350889250879182918501908490808284375f920191909152508692506120b8915050565b5050505050565b5f610da96040518060400160405280601881526020017f5f73657450726f746f636f6c50617573656428626f6f6c290000000000000000815250611e51565b60188054831515620100000262ff0000199091161790556040517fd7500633dd3ddd74daa7af62f8c8404c7fe4a81da179998db851696bed004b3890610df490841515815260200190565b60405180910390a15090565b5f60175482808203610e2d5760405162461bcd60e51b8152600401610e2490613392565b60405180910390fd5b610e35612147565b601780549085905560408051828152602081018790527f73747d68b346dce1e932bcd238282e7ac84c01569e1f8d0469c222fdc6e9d5a491015b60405180910390a15f9350505b5050919050565b5f610ea56040518060600160405280602f8152602001613830602f9139611e51565b610eb0848484612193565b90505b9392505050565b610edb6040518060600160405280602a815260200161385f602a9139611e51565b610ee4826122e5565b6001600160a01b0382165f81815260386020526040808220805460ff191685151590811790915590519092917f1f4df5032f431b9890646a781be28b0d693e581666d1a80be27ae3959069172291a35050565b610f756040518060400160405280601a81526020017f736574506f6f6c4163746976652875696e7439362c626f6f6c29000000000000815250611e51565b6037546001600160601b039081169083161115610fb057604051632db8671b60e11b81526001600160601b0383166004820152602401610e24565b6001600160601b038216610fd757604051630203217b60e61b815260040160405180910390fd5b6001600160601b0382165f908152603660205260409020600281015482151560ff90911615150361100757505050565b60028101546040805160ff9092161515825283151560208301526001600160601b038516917f75e42fceb039532886a9d75717e843bfef67fd7f6f91f0fc5b1d48e9ce8a1ba9910160405180910390a2600201805460ff191691151591909117905550565b6001600160a01b031660a09190911b6001600160a01b0319161790565b601b546001600160a01b03908116908490811682036110ba5760405162461bcd60e51b8152600401610e24906133dd565b6110c2612147565b6110cb856122e5565b601b546001600160a01b0316156110e4576110e4612333565b601b80546001600160a01b0319166001600160a01b038716908117909155601c859055601d84905560408051868152602081018690527f7059037d74ee16b0fb06a4a30f3348dd2635f301f92e373c92899a25a522ef6e910160405180910390a25050505050565b611154612147565b61115d816122e5565b5f816001600160a01b0316636f307dc36040518163ffffffff1660e01b8152600401602060405180830381865afa15801561119a573d5f803e3d5ffd5b505050506040513d601f19601f820116820180604052508101906111be919061341f565b6033549091506001600160a01b0380831691161461121e5760405162461bcd60e51b815260206004820152601a60248201527f696e76616c6964207876732076746f6b656e20616464726573730000000000006044820152606401610e24565b6034546040516001600160a01b038085169216907f2565e1579c0926afb7113edbfd85373e85cadaa3e0346f04de19686a2bb86ed1905f90a350603480546001600160a01b0319166001600160a01b0392909216919091179055565b610cf08484808060200260200160405190810160405280939291908181526020018383602002808284375f92019190915250506040805160208088028281018201909352878252909350879250869182918501908490808284375f920191909152506124c292505050565b6112ef8282612612565b5050565b600d8181548110611302575f80fd5b5f918252602090912001546001600160a01b0316905081565b5f610bcb826126b2565b5f6113476040518060600160405280602c81526020016138d5602c9139611e51565b610eb05f858585612749565b600a545f906001600160a01b03908116908390811682036113865760405162461bcd60e51b8152600401610e24906133dd565b61138e612147565b611397846122e5565b600a80546001600160a01b038681166001600160a01b03198316179092556040519116907f0613b6ee6a04f0d09f390e4d9318894b9f6ac7fd83897cd8d18896ba579c401e90610e6f908390889061343a565b601a548180820361140d5760405162461bcd60e51b8152600401610e2490613392565b611415612147565b601b546001600160a01b03161561142e5761142e612333565b601a80549084905560408051828152602081018690527fe81d4ac15e5afa1e708e66664eddc697177423d950d133bda8262d8885e6da3b91015b60405180910390a150505050565b5f61149860405180606001604052806033815260200161392a60339139611e51565b6114a485858585612749565b90505b949350505050565b6114b7612147565b6114c0816122e5565b6033546040516001600160a01b038084169216907ffe7fd0d872def0f65050e9f38fc6691d0c192c694a56f09b04bec5fb2ea61f2b905f90a3603380546001600160a01b0319166001600160a01b0392909216919091179055565b5f610bcb82612966565b60366020525f908152604090208054819061153f90613454565b80601f016020809104026020016040519081016040528092919081815260200182805461156b90613454565b80156115b65780601f1061158d576101008083540402835291602001916115b6565b820191905f5260205f20905b81548152906001019060200180831161159957829003601f168201915b5050506002909301549192505060ff1682565b5f6115eb60405180606001604052806028815260200161395d60289139611e51565b610eb35f8484612193565b6026545f906001600160a01b03908116908390811682036116295760405162461bcd60e51b8152600401610e24906133dd565b611631612147565b61163a846122e5565b602680546001600160a01b038681166001600160a01b0319831681179093556040519116917f0f7eb572d1b3053a0a3a33c04151364cf88d163182a5e4e1088cb8e52321e08a91610e6f91849161343a565b6015545f906001600160a01b03908116908390811682036116bf5760405162461bcd60e51b8152600401610e24906133dd565b6116c7612147565b6116d0846122e5565b601580546001600160a01b038681166001600160a01b03198316179092556040519116907fe1ddcb2dab8e5b03cfc8c67a0d5861d91d16f7bd2612fd381faf4541d212c9b290610e6f908390889061343a565b61174460405180606001604052806027815260200161398560279139611e51565b6037546001600160601b03908116908416111561177f57604051632db8671b60e11b81526001600160601b0384166004820152602401610e24565b5f61178a848461106c565b5f81815260096020526040902080549192509060ff166117bd57604051630665210960e21b815260040160405180910390fd5b82151581600601600c9054906101000a900460ff161515036117e0575050505050565b600681015460408051600160601b90920460ff161515825284151560208301526001600160a01b038616916001600160601b038816917fe40f9c4af130bdb5bd1650ab4bc918dba9d900fa94685f0113e72a6cfe6c5fcc910160405180910390a36006018054921515600160601b0260ff60601b1990931692909217909155505050565b6118a26040518060400160405280601b81526020017f736574506f6f6c4c6162656c2875696e7439362c737472696e67290000000000815250611e51565b6037546001600160601b0390811690841611156118dd57604051632db8671b60e11b81526001600160601b0384166004820152602401610e24565b6001600160601b03831661190457604051630203217b60e61b815260040160405180910390fd5b5f8190036119255760405163522e397360e11b815260040160405180910390fd5b6001600160601b0383165f9081526036602052604090819020905161194d908490849061348c565b6040519081900381209061196290839061349b565b6040518091039020036119755750505050565b836001600160601b03167f1ebc260ee8077871ff0b70b184ff9dac4ecee8b0f7dcc4f3a3f5068549f5078e825f0185856040516119b493929190613535565b60405180910390a280610d6383858361362c565b6025546001600160a01b03908116908290811682036119f95760405162461bcd60e51b8152600401610e24906133dd565b611a01612147565b611a0a836122e5565b602580546001600160a01b038581166001600160a01b03198316179092556040519116907fa5ea5616d5f6dbbaa62fdfcf3856723216eed485c394d9e51ec8e6d40e1d1ac190611468908390879061343a565b6020545f90611a74906001600160a01b03166129db565b670de0b6b3a76400008210611abd5760405162461bcd60e51b815260206004820152600f60248201526e70657263656e74203e3d203130302560881b6044820152606401610e24565b611ac6846122e5565b611acf836122e5565b6020805460218054602280546001600160a01b03198086166001600160a01b038c8116919091179097558316898716179093558690556040519284169316917f29f06ea15931797ebaed313d81d100963dc22cb213cb4ce2737b5a62b1a8b1e890611b3d9085908a9061343a565b60405180910390a17f8de763046d7b8f08b6c3d03543de1d615309417842bb5d2d62f110f65809ddac8287604051611b7692919061343a565b60405180910390a160408051828152602081018790527f0893f8f4101baaabbeb513f96761e7a36eb837403c82cc651c292a4abdc94ed7910160405180910390a15f5b979650505050505050565b6008602052815f5260405f208181548110611bdd575f80fd5b5f918252602090912001546001600160a01b03169150829050565b6001600160a01b0382165f90815260296020526040812081836008811115611c2257611c226133c9565b815260208101919091526040015f205460ff169392505050565b6028545f906001600160a01b0390811690839081168203611c6f5760405162461bcd60e51b8152600401610e24906133dd565b611c77612147565b611c80846122e5565b602880546001600160a01b038681166001600160a01b03198316179092556040519116907f0f1eca7612e020f6e4582bcead0573eba4b5f7b56668754c6aed82ef12057dd490610e6f908390889061343a565b5f611cdc612a36565b60185460ff16158015611cf75750601854610100900460ff16155b611d335760405162461bcd60e51b815260206004820152600d60248201526c159052481a5cc81c185d5cd959609a1b6044820152606401610e24565b6015546001600160a01b03163314611d5857611d51600e6016612a84565b9050610bcb565b6001600160a01b0383165f908152601660205260408120839055610eb3565b5f60055482808203611d9b5760405162461bcd60e51b8152600401610e2490613392565b611da3612147565b604080516020808201835286825282518082018452670c7d713b49da00008152835191820190935266b1a2bc2ec500008152815183519293921080611de9575082518151115b15611e0357611df9600580612a84565b9550505050610e7c565b600580549088905560408051828152602081018a90527f3b9670cf975d26958e754b57098eaa2ac914d8d2a31b83257997b9f346110fd9910160405180910390a15f98975050505050505050565b6028546040516318c5e8ab60e01b81526001600160a01b03909116906318c5e8ab90611e8390339085906004016136e6565b602060405180830381865afa158015611e9e573d5f803e3d5ffd5b505050506040513d601f19601f82011682018060405250810190611ec29190613709565b611efe5760405162461bcd60e51b815260206004820152600d60248201526c1858d8d95cdcc819195b9a5959609a1b6044820152606401610e24565b50565b5f60095f611f0f5f8561106c565b81526020019081526020015f209050919050565b805460ff16611efe5760405162461bcd60e51b81526020600482015260116024820152701b585c9ad95d081b9bdd081b1a5cdd1959607a1b6044820152606401610e24565b611f8960405180606001604052806029815260200161390160299139611e51565b815181518115801590611f9b57508082145b611fd75760405162461bcd60e51b815260206004820152600d60248201526c1a5b9d985b1a59081a5b9c1d5d609a1b6044820152606401610e24565b5f5b82811015610d6357838181518110611ff357611ff3613724565b6020026020010151601f5f87848151811061201057612010613724565b60200260200101516001600160a01b03166001600160a01b031681526020019081526020015f208190555084818151811061204d5761204d613724565b60200260200101516001600160a01b03167f6f1951b2aad10f3fc81b86d91105b413a5b3f847a34bbc5ce1904201b14438f685838151811061209157612091613724565b60200260200101516040516120a891815260200190565b60405180910390a2600101611fd9565b6120d960405180606001604052806029815260200161380760299139611e51565b825182515f5b8281101561213f575f5b828110156121365761212e87838151811061210657612106613724565b602002602001015187838151811061212057612120613724565b602002602001015187612afb565b6001016120e9565b506001016120df565b505050505050565b5f546001600160a01b031633146121915760405162461bcd60e51b815260206004820152600e60248201526d37b7363c9030b236b4b71031b0b760911b6044820152606401610e24565b565b5f60095f6121a1868661106c565b81526020019081526020015f2060050154828082036121d25760405162461bcd60e51b8152600401610e2490613392565b6037546001600160601b03908116908716111561220d57604051632db8671b60e11b81526001600160601b0387166004820152602401610e24565b5f60095f61221b898961106c565b81526020019081526020015f20905061223381611f23565b670de0b6b3a764000085101561227e5760405162461bcd60e51b815260206004820152601060248201526f0d2dcc6cadce8d2ecca40784062ca62760831b6044820152606401610e24565b856001600160a01b0316876001600160601b03167fc1d7bc090f3a87255c2f4e56f66d1b7a49683d279f77921b1701aa5d733ef7458360050154886040516122d0929190918252602082015260400190565b60405180910390a3600581018590555f611bb9565b6001600160a01b038116611efe5760405162461bcd60e51b815260206004820152601560248201527463616e2774206265207a65726f206164647265737360581b6044820152606401610e24565b601c5415806123435750601c5443105b1561234a57565b6033546040516370a0823160e01b81523060048201526001600160a01b03909116905f9082906370a0823190602401602060405180830381865afa158015612394573d5f803e3d5ffd5b505050506040513d601f19601f820116820180604052508101906123b89190613738565b9050805f036123c5575050565b5f806123d343601c54612b9f565b90505f6123e2601a5483612bd8565b90508084106123f3578092506123f7565b8392505b601d54831015612408575050505050565b43601c55601b54612426906001600160a01b03878116911685612c19565b6040518381527ff6d4b8f74d85a6e2d7a50225957b8a6cfec69ad92f5905627260541aa0a5565d9060200160405180910390a1601b5f9054906101000a90046001600160a01b03166001600160a01b031663faa1809e6040518163ffffffff1660e01b81526004015f604051808303815f87803b1580156124a5575f80fd5b505af11580156124b7573d5f803e3d5ffd5b505050505050505050565b6124e360405180606001604052806029815260200161388960299139611e51565b8151815181158015906124f557508082145b6125315760405162461bcd60e51b815260206004820152600d60248201526c1a5b9d985b1a59081a5b9c1d5d609a1b6044820152606401610e24565b5f5b82811015610d635783818151811061254d5761254d613724565b602002602001015160275f87848151811061256a5761256a613724565b60200260200101516001600160a01b03166001600160a01b031681526020019081526020015f20819055508481815181106125a7576125a7613724565b60200260200101516001600160a01b03167f9e0ad9cee10bdf36b7fbd38910c0bdff0f275ace679b45b922381c2723d676f88583815181106125eb576125eb613724565b602002602001015160405161260291815260200190565b60405180910390a2600101612533565b6126336040518060600160405280602381526020016138b260239139611e51565b6015546001600160a01b0383811691161461265457612654610c1383611f01565b6001600160a01b0382165f818152602d6020908152604091829020805460ff191685151590811790915591519182527f03561d5280ebb02280893b1d60978e4a27e7654a149c5d0e7c2cf65389ce1694910160405180910390a25050565b6004545f906001600160a01b03908116908390811682036126e55760405162461bcd60e51b8152600401610e24906133dd565b6126ed612147565b6126f6846122e5565b600480546001600160a01b038681166001600160a01b03198316179092556040519116907fd52b2b9b7e9ee655fcb95d2e5b9e0c9f69e7ef2b8e9d2d0ea78402d576d22e2290610e6f908390889061343a565b5f612753846122e5565b6037546001600160601b03908116908616111561278e57604051632db8671b60e11b81526001600160601b0386166004820152602401610e24565b5f60095f61279c888861106c565b81526020019081526020015f2090506127b481611f23565b670de0b6b3a76400008411156127d8576127d060066008612a84565b9150506114a7565b831580159061285257506004805460405163fc57d4df60e01b81526001600160a01b038881169382019390935291169063fc57d4df90602401602060405180830381865afa15801561282c573d5f803e3d5ffd5b505050506040513d601f19601f820116820180604052508101906128509190613738565b155b15612863576127d0600d6009612a84565b670de0b6b3a764000083111561287f576127d060146019612a84565b83831015612893576127d06014601a612a84565b60018101548481146128f6576001820185905560408051828152602081018790526001600160a01b038816916001600160601b038a16917f0d1a615379dc62cec7bc63b7e313a07ed659918f4ad3720b3af8041b305146f2910160405180910390a35b6004820154848114612959576004830185905560408051828152602081018790526001600160a01b038916916001600160601b038b16917fc90f7b48c299a8d58b0b9e2756e27773c6fb1daab159af052d6c5b791bc7eef7910160405180910390a35b5f98975050505050505050565b5f61296f612147565b612978826122e5565b603180546001600160a01b038481166001600160a01b03198316179092556040519116907fcb20dab7409e4fb972d9adccb39530520b226ce6940d85c9523a499b950b6ea3906129cb908390869061343a565b60405180910390a15f9392505050565b5f546001600160a01b0316331480611ec25750336001600160a01b03821614611efe5760405162461bcd60e51b815260206004820152600d60248201526c1858d8d95cdcc819195b9a5959609a1b6044820152606401610e24565b60185462010000900460ff16156121915760405162461bcd60e51b81526020600482015260126024820152711c1c9bdd1bd8dbdb081a5cc81c185d5cd95960721b6044820152606401610e24565b5f7f45b96fe442630264581b197e84bbada861235052c5a1aadfff9ea4e40a969aa0836014811115612ab857612ab86133c9565b83601a811115612aca57612aca6133c9565b6040805192835260208301919091525f9082015260600160405180910390a1826014811115610eb357610eb36133c9565b612b07610c1384611f01565b6001600160a01b0383165f9081526029602052604081208291846008811115612b3257612b326133c9565b815260208101919091526040015f20805460ff1916911515919091179055816008811115612b6257612b626133c9565b836001600160a01b03167f35007a986bcd36d2f73fc7f1b73762e12eadb4406dd163194950fd3b5a6a827d83604051610c78911515815260200190565b5f610eb38383604051806040016040528060158152602001747375627472616374696f6e20756e646572666c6f7760581b815250612c70565b5f610eb383836040518060400160405280601781526020017f6d756c7469706c69636174696f6e206f766572666c6f77000000000000000000815250612c9e565b604080516001600160a01b038416602482015260448082018490528251808303909101815260649091019091526020810180516001600160e01b031663a9059cbb60e01b179052612c6b908490612cf7565b505050565b5f8184841115612c935760405162461bcd60e51b8152600401610e24919061374f565b50610eb08385613775565b5f831580612caa575082155b15612cb657505f610eb3565b5f612cc18486613788565b905083612cce868361379f565b148390612cee5760405162461bcd60e51b8152600401610e24919061374f565b50949350505050565b5f612d4b826040518060400160405280602081526020017f5361666545524332303a206c6f772d6c6576656c2063616c6c206661696c6564815250856001600160a01b0316612dca9092919063ffffffff16565b905080515f1480612d6b575080806020019051810190612d6b9190613709565b612c6b5760405162461bcd60e51b815260206004820152602a60248201527f5361666545524332303a204552433230206f7065726174696f6e20646964206e6044820152691bdd081cdd58d8d9595960b21b6064820152608401610e24565b6060610eb084845f85855f80866001600160a01b03168587604051612def91906137be565b5f6040518083038185875af1925050503d805f8114612e29576040519150601f19603f3d011682016040523d82523d5f602084013e612e2e565b606091505b5091509150611bb98783838760608315612ea85782515f03612ea1576001600160a01b0385163b612ea15760405162461bcd60e51b815260206004820152601d60248201527f416464726573733a2063616c6c20746f206e6f6e2d636f6e74726163740000006044820152606401610e24565b50816114a7565b6114a78383815115612ebd5781518083602001fd5b8060405162461bcd60e51b8152600401610e24919061374f565b6001600160a01b0381168114611efe575f80fd5b5f60208284031215612efb575f80fd5b8135610eb381612ed7565b5f8060408385031215612f17575f80fd5b8235612f2281612ed7565b91506020830135612f3281612ed7565b809150509250929050565b5f60208284031215612f4d575f80fd5b5035919050565b8015158114611efe575f80fd5b5f805f60608486031215612f73575f80fd5b8335612f7e81612ed7565b92506020840135612f8e81612ed7565b91506040840135612f9e81612f54565b809150509250925092565b5f8083601f840112612fb9575f80fd5b50813567ffffffffffffffff811115612fd0575f80fd5b6020830191508360208260051b8501011115612fea575f80fd5b9250929050565b5f805f8060408587031215613004575f80fd5b843567ffffffffffffffff8082111561301b575f80fd5b61302788838901612fa9565b9096509450602087013591508082111561303f575f80fd5b5061304c87828801612fa9565b95989497509550505050565b5f805f805f6060868803121561306c575f80fd5b853567ffffffffffffffff80821115613083575f80fd5b61308f89838a01612fa9565b909750955060208801359150808211156130a7575f80fd5b506130b488828901612fa9565b90945092505060408601356130c881612f54565b809150509295509295909350565b5f602082840312156130e6575f80fd5b8135610eb381612f54565b80356001600160601b0381168114613107575f80fd5b919050565b5f805f6060848603121561311e575f80fd5b613127846130f1565b9250602084013561313781612ed7565b929592945050506040919091013590565b5f8060408385031215613159575f80fd5b823561316481612ed7565b91506020830135612f3281612f54565b5f8060408385031215613185575f80fd5b613164836130f1565b5f806040838503121561319f575f80fd5b612f22836130f1565b5f805f606084860312156131ba575f80fd5b83356131c581612ed7565b95602085013595506040909401359392505050565b5f805f80608085870312156131ed575f80fd5b6131f6856130f1565b9350602085013561320681612ed7565b93969395505050506040820135916060013590565b5f6020828403121561322b575f80fd5b610eb3826130f1565b5f81518084528060208401602086015e5f602082860101526020601f19601f83011685010191505092915050565b604081525f6132746040830185613234565b905082151560208301529392505050565b5f8060408385031215613296575f80fd5b82356132a181612ed7565b946020939093013593505050565b5f805f606084860312156132c1575f80fd5b612f7e846130f1565b5f805f604084860312156132dc575f80fd5b6132e5846130f1565b9250602084013567ffffffffffffffff80821115613301575f80fd5b818601915086601f830112613314575f80fd5b813581811115613322575f80fd5b876020828501011115613333575f80fd5b6020830194508093505050509250925092565b5f805f60608486031215613358575f80fd5b833561312781612ed7565b5f8060408385031215613374575f80fd5b823561337f81612ed7565b9150602083013560098110612f32575f80fd5b6020808252601e908201527f6f6c642076616c75652069732073616d65206173206e65772076616c75650000604082015260600190565b634e487b7160e01b5f52602160045260245ffd5b60208082526022908201527f6f6c6420616464726573732069732073616d65206173206e6577206164647265604082015261737360f01b606082015260800190565b5f6020828403121561342f575f80fd5b8151610eb381612ed7565b6001600160a01b0392831681529116602082015260400190565b600181811c9082168061346857607f821691505b60208210810361348657634e487b7160e01b5f52602260045260245ffd5b50919050565b818382375f9101908152919050565b5f8083546134a881613454565b600182811680156134c057600181146134d557613501565b60ff1984168752821515830287019450613501565b875f526020805f205f5b858110156134f85781548a8201529084019082016134df565b50505082870194505b50929695505050505050565b81835281816020850137505f828201602090810191909152601f909101601f19169091010190565b604081525f80855461354681613454565b806040860152606060018084165f81146135675760018114613583576135b2565b60ff1985166060890152606084151560051b89010195506135b2565b8a5f526020805f205f5b868110156135a85781548b820187015290840190820161358d565b8a01606001975050505b505050505082810360208401526135ca81858761350d565b9695505050505050565b634e487b7160e01b5f52604160045260245ffd5b601f821115612c6b57805f5260205f20601f840160051c8101602085101561360d5750805b601f840160051c820191505b81811015610d63575f8155600101613619565b67ffffffffffffffff831115613644576136446135d4565b613658836136528354613454565b836135e8565b5f601f841160018114613689575f85156136725750838201355b5f19600387901b1c1916600186901b178355610d63565b5f83815260208120601f198716915b828110156136b85786850135825560209485019460019092019101613698565b50868210156136d4575f1960f88860031b161c19848701351681555b505060018560011b0183555050505050565b6001600160a01b03831681526040602082018190525f90610eb090830184613234565b5f60208284031215613719575f80fd5b8151610eb381612f54565b634e487b7160e01b5f52603260045260245ffd5b5f60208284031215613748575f80fd5b5051919050565b602081525f610eb36020830184613234565b634e487b7160e01b5f52601160045260245ffd5b81810381811115610bcb57610bcb613761565b8082028115828204841417610bcb57610bcb613761565b5f826137b957634e487b7160e01b5f52601260045260245ffd5b500490565b5f82518060208501845e5f92019182525091905056fe5f736574466f726365644c69717569646174696f6e466f725573657228616464726573732c616464726573732c626f6f6c295f736574416374696f6e7350617573656428616464726573735b5d2c75696e74385b5d2c626f6f6c297365744c69717569646174696f6e496e63656e746976652875696e7439362c616464726573732c75696e743235362973657457686974654c697374466c6173684c6f616e4163636f756e7428616464726573732c626f6f6c295f7365744d61726b6574537570706c794361707328616464726573735b5d2c75696e743235365b5d295f736574466f726365644c69717569646174696f6e28616464726573732c626f6f6c29736574436f6c6c61746572616c466163746f7228616464726573732c75696e743235362c75696e74323536295f7365744d61726b6574426f72726f774361707328616464726573735b5d2c75696e743235365b5d29736574436f6c6c61746572616c466163746f722875696e7439362c616464726573732c75696e743235362c75696e74323536297365744c69717569646174696f6e496e63656e7469766528616464726573732c75696e74323536297365744973426f72726f77416c6c6f7765642875696e7439362c616464726573732c626f6f6c29a2646970667358221220ee874f3d90428b22da7dbd4a6e57c41ab252f4f819500b7152e242b26e955aff64736f6c63430008190033",
  "devdoc": {
    "author": "Venus",
    "details": "This facet contains all the setters for the states",
    "events": {
      "Failure(uint256,uint256,uint256)": {
        "details": "`error` corresponds to enum Error; `info` corresponds to enum FailureInfo, and `detail` is an arbitrary contract-specific code that enables us to report opaque error codes from upgradeable contracts.*"
      }
    },
    "kind": "dev",
    "methods": {
      "_setAccessControl(address)": {
        "details": "Allows the contract admin to set the address of access control of this contract",
        "params": {
          "newAccessControlAddress": "New address for the access control"
        },
        "returns": {
          "_0": "uint256 0=success, otherwise will revert"
        }
      },
      "_setActionsPaused(address[],uint8[],bool)": {
        "details": "Allows a privileged role to pause/unpause the protocol action state",
        "params": {
          "actions_": "List of action ids to pause/unpause",
          "markets_": "Markets to pause/unpause the actions on",
          "paused_": "The new paused state (true=paused, false=unpaused)"
        }
      },
      "_setCloseFactor(uint256)": {
        "details": "Allows the contract admin to set the closeFactor used to liquidate borrows",
        "params": {
          "newCloseFactorMantissa": "New close factor, scaled by 1e18"
        },
        "returns": {
          "_0": "uint256 0=success, otherwise will revert"
        }
      },
      "_setComptrollerLens(address)": {
        "details": "Set ComptrollerLens contract address",
        "params": {
          "comptrollerLens_": "The new ComptrollerLens contract address to be set"
        },
        "returns": {
          "_0": "uint256 0=success, otherwise a failure (see ErrorReporter.sol for details)"
        }
      },
      "_setForcedLiquidation(address,bool)": {
        "details": "Allows a privileged role to set enable/disable forced liquidations",
        "params": {
          "enable": "Whether to enable forced liquidations",
          "vTokenBorrowed": "Borrowed vToken"
        }
      },
      "_setForcedLiquidationForUser(address,address,bool)": {
        "params": {
          "borrower": "The address of the borrower",
          "enable": "Whether to enable forced liquidations",
          "vTokenBorrowed": "Borrowed vToken"
        }
      },
      "_setLiquidatorContract(address)": {
        "details": "Allows the contract admin to update the address of liquidator contract",
        "params": {
          "newLiquidatorContract_": "The new address of the liquidator contract"
        }
      },
      "_setMarketBorrowCaps(address[],uint256[])": {
        "details": "Allows a privileged role to set the borrowing cap for a vToken market. A borrow cap of 0 corresponds to Borrow not allowed",
        "params": {
          "newBorrowCaps": "The new borrow cap values in underlying to be set. A value of 0 corresponds to Borrow not allowed",
          "vTokens": "The addresses of the markets (tokens) to change the borrow caps for"
        }
      },
      "_setMarketSupplyCaps(address[],uint256[])": {
        "details": "Allows a privileged role to set the supply cap for a vToken. A supply cap of 0 corresponds to Minting NotAllowed",
        "params": {
          "newSupplyCaps": "The new supply cap values in underlying to be set. A value of 0 corresponds to Minting NotAllowed",
          "vTokens": "The addresses of the markets (tokens) to change the supply caps for"
        }
      },
      "_setPauseGuardian(address)": {
        "details": "Allows the contract admin to change the Pause Guardian",
        "params": {
          "newPauseGuardian": "The address of the new Pause Guardian"
        },
        "returns": {
          "_0": "uint256 0=success, otherwise a failure. (See enum Error for details)"
        }
      },
      "_setPriceOracle(address)": {
        "details": "Allows the contract admin to set a new price oracle used by the Comptroller",
        "params": {
          "newOracle": "The new price oracle to set"
        },
        "returns": {
          "_0": "uint256 0=success, otherwise a failure (see ErrorReporter.sol for details)"
        }
      },
      "_setPrimeToken(address)": {
        "params": {
          "_prime": "The new prime token contract to be set"
        },
        "returns": {
          "_0": "uint 0=success, otherwise a failure (see ErrorReporter.sol for details)"
        }
      },
      "_setProtocolPaused(bool)": {
        "details": "Allows a privileged role to pause/unpause protocol",
        "params": {
          "state": "The new state (true=paused, false=unpaused)"
        },
        "returns": {
          "_0": "bool The updated state of the protocol"
        }
      },
      "_setTreasuryData(address,address,uint256)": {
        "params": {
          "newTreasuryAddress": "The new address of the treasury to be set",
          "newTreasuryGuardian": "The new address of the treasury guardian to be set",
          "newTreasuryPercent": "The new treasury percent to be set"
        },
        "returns": {
          "_0": "uint256 0=success, otherwise a failure (see ErrorReporter.sol for details)"
        }
      },
      "_setVAIController(address)": {
        "details": "Admin function to set a new VAI controller",
        "returns": {
          "_0": "uint256 0=success, otherwise a failure (see ErrorReporter.sol for details)"
        }
      },
      "_setVAIMintRate(uint256)": {
        "params": {
          "newVAIMintRate": "The new VAI mint rate to be set"
        },
        "returns": {
          "_0": "uint256 0=success, otherwise a failure (see ErrorReporter.sol for details)"
        }
      },
      "_setVAIVaultInfo(address,uint256,uint256)": {
        "params": {
          "minReleaseAmount_": "The minimum release amount to VAI Vault",
          "releaseStartBlock_": "The start block of release to VAI Vault",
          "vault_": "The address of the VAI Vault"
        }
      },
      "_setVenusVAIVaultRate(uint256)": {
        "params": {
          "venusVAIVaultRate_": "The amount of XVS wei per block to distribute to VAI Vault"
        }
      },
      "_setXVSToken(address)": {
        "params": {
          "xvs_": "The address of the XVS token"
        }
      },
      "_setXVSVToken(address)": {
        "params": {
          "xvsVToken_": "The address of the XVS vToken"
        }
      },
      "actionPaused(address,uint8)": {
        "params": {
          "action": "Action id",
          "market": "vToken address"
        }
      },
      "getPoolMarketIndex(uint96,address)": {
        "details": "Computes a unique key for a (poolId, market) pair used in the `_poolMarkets` mapping - For the core pool (`poolId == 0`), this results in the address being left-padded to 32 bytes,   maintaining backward compatibility with legacy mappings - For other pools, packs the `poolId` and `market` address into a single `bytes32` key,   The first 96 bits are used for the `poolId`, and the remaining 160 bits for the `market` address",
        "params": {
          "poolId": "The ID of the pool",
          "vToken": "The address of the market (vToken)"
        },
        "returns": {
          "_0": "PoolMarketId The `bytes32` key that uniquely represents the (poolId, vToken) pair"
        }
      },
      "getXVSAddress()": {
        "returns": {
          "_0": "The address of XVS token"
        }
      },
      "setActionsPaused(address[],uint8[],bool)": {
        "params": {
          "actions_": "List of action ids to pause/unpause",
          "markets_": "Markets to pause/unpause the actions on",
          "paused_": "The new paused state (true=paused, false=unpaused)"
        }
      },
      "setCloseFactor(uint256)": {
        "params": {
          "newCloseFactorMantissa": "New close factor, scaled by 1e18"
        },
        "returns": {
          "_0": "uint256 0=success, otherwise will revert"
        }
      },
      "setCollateralFactor(address,uint256,uint256)": {
        "params": {
          "newCollateralFactorMantissa": "The new collateral factor, scaled by 1e18",
          "newLiquidationThresholdMantissa": "The new liquidation threshold, scaled by 1e18",
          "vToken": "The market to set the factor on"
        },
        "returns": {
          "_0": "uint256 0=success, otherwise a failure. (See ErrorReporter for details)"
        }
      },
      "setCollateralFactor(uint96,address,uint256,uint256)": {
        "params": {
          "newCollateralFactorMantissa": "The new collateral factor, scaled by 1e18",
          "newLiquidationThresholdMantissa": "The new liquidation threshold, scaled by 1e18",
          "poolId": "The ID of the pool.",
          "vToken": "The market to set the factor on"
        },
        "returns": {
          "_0": "uint256 0=success, otherwise a failure. (See ErrorReporter for details)"
        }
      },
      "setForcedLiquidation(address,bool)": {
        "params": {
          "enable": "Whether to enable forced liquidations",
          "vTokenBorrowed": "Borrowed vToken"
        }
      },
      "setIsBorrowAllowed(uint96,address,bool)": {
        "custom:error": "PoolDoesNotExist Reverts if the pool ID is invalid.MarketConfigNotFound Reverts if the market is not listed in the pool.",
        "custom:event": "BorrowAllowedUpdated Emitted after the borrow permission for a market is updated.",
        "params": {
          "borrowAllowed": "The new borrow allowed status.",
          "poolId": "The ID of the pool.",
          "vToken": "The address of the market (vToken)."
        }
      },
      "setLiquidationIncentive(address,uint256)": {
        "params": {
          "newLiquidationIncentiveMantissa": "New liquidationIncentive scaled by 1e18",
          "vToken": "The market to set the liquidationIncentive for"
        },
        "returns": {
          "_0": "uint256 0=success, otherwise a failure. (See ErrorReporter for details)"
        }
      },
      "setLiquidationIncentive(uint96,address,uint256)": {
        "params": {
          "newLiquidationIncentiveMantissa": "New liquidationIncentive scaled by 1e18",
          "poolId": "The ID of the pool.",
          "vToken": "The market to set the liquidationIncentive for"
        },
        "returns": {
          "_0": "uint256 0=success, otherwise a failure. (See ErrorReporter for details)"
        }
      },
      "setMarketBorrowCaps(address[],uint256[])": {
        "params": {
          "newBorrowCaps": "The new borrow cap values in underlying to be set. A value of 0 corresponds to Borrow not allowed",
          "vTokens": "The addresses of the markets (tokens) to change the borrow caps for"
        }
      },
      "setMarketSupplyCaps(address[],uint256[])": {
        "params": {
          "newSupplyCaps": "The new supply cap values in underlying to be set. A value of 0 corresponds to Minting NotAllowed",
          "vTokens": "The addresses of the markets (tokens) to change the supply caps for"
        }
      },
      "setMintedVAIOf(address,uint256)": {
        "params": {
          "amount": "The amount of VAI to set to the account",
          "owner": "The address of the account to set"
        },
        "returns": {
          "_0": "The number of minted VAI by `owner`"
        }
      },
      "setPoolActive(uint96,bool)": {
        "custom:error": "InvalidOperationForCorePool Reverts when attempting to call pool-specific methods on the Core Pool.PoolDoesNotExist Reverts if the target pool ID does not exist.",
        "custom:event": "PoolActiveStatusUpdated Emitted after the pool active status is updated.",
        "params": {
          "active": "true to enable, false to disable",
          "poolId": "id of the pool to update"
        }
      },
      "setPoolLabel(uint96,string)": {
        "custom:error": "InvalidOperationForCorePool Reverts when attempting to call pool-specific methods on the Core PoolPoolDoesNotExist Reverts if the target pool ID does not existEmptyPoolLabel Reverts if the provided label is an empty string",
        "custom:event": "PoolLabelUpdated Emitted after the pool label is updated",
        "params": {
          "newLabel": "The new label for the pool",
          "poolId": "ID of the pool to update"
        }
      },
      "setPriceOracle(address)": {
        "params": {
          "newOracle": "The new price oracle to set"
        },
        "returns": {
          "_0": "uint256 0=success, otherwise a failure (see ErrorReporter.sol for details)"
        }
      },
      "setPrimeToken(address)": {
        "params": {
          "_prime": "The new prime token contract to be set"
        },
        "returns": {
          "_0": "uint 0=success, otherwise a failure (see ErrorReporter.sol for details)"
        }
      },
      "setWhiteListFlashLoanAccount(address,bool)": {
        "params": {
          "_isWhiteListed": "True to whitelist the account for flash loans, false to remove from whitelist",
          "account": "The account to authorize for flash loans"
        }
      }
    },
    "title": "SetterFacet",
    "version": 1
  },
  "userdoc": {
    "errors": {
      "AlreadyInSelectedPool()": [
        {
          "notice": "Thrown when You are already in the selected pool."
        }
      ],
      "ArrayLengthMismatch()": [
        {
          "notice": "Thrown when input array lengths do not match"
        }
      ],
      "BorrowNotAllowedInPool()": [
        {
          "notice": "Thrown when borrowing is not allowed in the selected pool for a given market."
        }
      ],
      "EmptyPoolLabel()": [
        {
          "notice": "Thrown when the pool label is empty"
        }
      ],
      "InactivePool(uint96)": [
        {
          "notice": "Thrown when attempting to interact with an inactive pool"
        }
      ],
      "IncompatibleBorrowedAssets()": [
        {
          "notice": "Thrown when One or more of your assets are not compatible with the selected pool."
        }
      ],
      "InvalidOperationForCorePool()": [
        {
          "notice": "Thrown when trying to call pool-specific methods on the Core Pool"
        }
      ],
      "InvalidWeightingStrategy(uint8)": [
        {
          "notice": "Thrown when an invalid weighting strategy is provided"
        }
      ],
      "LiquidityCheckFailed(uint256,uint256)": [
        {
          "notice": "Thrown when Switching to this pool would fail the liquidity check or lead to liquidation."
        }
      ],
      "MarketAlreadyListed(uint96,address)": [
        {
          "notice": "Thrown when a vToken is already listed in the specified pool"
        }
      ],
      "MarketConfigNotFound()": [
        {
          "notice": "Thrown when market is not set in the _poolMarkets mapping"
        }
      ],
      "MarketNotListedInCorePool()": [
        {
          "notice": "Thrown when market trying to add in a pool is not listed in the core pool"
        }
      ],
      "PoolDoesNotExist(uint96)": [
        {
          "notice": "Thrown when a given pool ID does not exist"
        }
      ],
      "PoolMarketNotFound(uint96,address)": [
        {
          "notice": "Thrown when trying to remove a market that is not listed in the given pool."
        }
      ]
    },
    "events": {
      "ActionPausedMarket(address,uint8,bool)": {
        "notice": "Emitted when an action is paused on a market"
      },
      "ActionProtocolPaused(bool)": {
        "notice": "Emitted when protocol state is changed by admin"
      },
      "BorrowAllowedUpdated(uint96,address,bool,bool)": {
        "notice": "Emitted when the borrowAllowed flag is updated for a market"
      },
      "DelegateAuthorizationFlashloanChanged(address,address,address,bool)": {
        "notice": "Emitted when delegate authorization for flash loans is changed"
      },
      "DistributedVAIVaultVenus(uint256)": {
        "notice": "Emitted when XVS is distributed to VAI Vault"
      },
      "IsAccountFlashLoanWhitelisted(address,bool)": {
        "notice": "Emitted when an account's flash loan whitelist status is updated"
      },
      "IsForcedLiquidationEnabledForUserUpdated(address,address,bool)": {
        "notice": "Emitted when forced liquidation is enabled or disabled for a user borrowing in a market"
      },
      "IsForcedLiquidationEnabledUpdated(address,bool)": {
        "notice": "Emitted when forced liquidation is enabled or disabled for all users in a market"
      },
      "MarketEntered(address,address)": {
        "notice": "Emitted when an account enters a market"
      },
      "NewAccessControl(address,address)": {
        "notice": "Emitted when access control address is changed by admin"
      },
      "NewBorrowCap(address,uint256)": {
        "notice": "Emitted when borrow cap for a vToken is changed"
      },
      "NewCloseFactor(uint256,uint256)": {
        "notice": "Emitted when close factor is changed by admin"
      },
      "NewCollateralFactor(uint96,address,uint256,uint256)": {
        "notice": "Emitted when a collateral factor for a market in a pool is changed by admin"
      },
      "NewComptrollerLens(address,address)": {
        "notice": "Emitted when ComptrollerLens address is changed"
      },
      "NewLiquidationIncentive(uint96,address,uint256,uint256)": {
        "notice": "Emitted when liquidation incentive for a market in a pool is changed by admin"
      },
      "NewLiquidationThreshold(uint96,address,uint256,uint256)": {
        "notice": "Emitted when liquidation threshold for a market in a pool is changed by admin"
      },
      "NewLiquidatorContract(address,address)": {
        "notice": "Emitted when liquidator adress is changed"
      },
      "NewPauseGuardian(address,address)": {
        "notice": "Emitted when pause guardian is changed"
      },
      "NewPriceOracle(address,address)": {
        "notice": "Emitted when price oracle is changed"
      },
      "NewPrimeToken(address,address)": {
        "notice": "Emitted when prime token contract address is changed"
      },
      "NewSupplyCap(address,uint256)": {
        "notice": "Emitted when supply cap for a vToken is changed"
      },
      "NewTreasuryAddress(address,address)": {
        "notice": "Emitted when treasury address is changed"
      },
      "NewTreasuryGuardian(address,address)": {
        "notice": "Emitted when treasury guardian is changed"
      },
      "NewTreasuryPercent(uint256,uint256)": {
        "notice": "Emitted when treasury percent is changed"
      },
      "NewVAIController(address,address)": {
        "notice": "Emitted when VAIController is changed"
      },
      "NewVAIMintRate(uint256,uint256)": {
        "notice": "Emitted when VAI mint rate is changed by admin"
      },
      "NewVAIVaultInfo(address,uint256,uint256)": {
        "notice": "Emitted when VAI Vault info is changed"
      },
      "NewVenusVAIVaultRate(uint256,uint256)": {
        "notice": "Emitted when Venus VAI Vault rate is changed"
      },
      "NewXVSToken(address,address)": {
        "notice": "Emitted when XVS token address is changed"
      },
      "NewXVSVToken(address,address)": {
        "notice": "Emitted when XVS vToken address is changed"
      },
      "PoolActiveStatusUpdated(uint96,bool,bool)": {
        "notice": "Emitted when pool active status changes"
      },
      "PoolLabelUpdated(uint96,string,string)": {
        "notice": "Emitted when pool label is updated"
      }
    },
    "kind": "user",
    "methods": {
      "_setAccessControl(address)": {
        "notice": "Sets the address of the access control of this contract"
      },
      "_setActionsPaused(address[],uint8[],bool)": {
        "notice": "Pause/unpause certain actions"
      },
      "_setCloseFactor(uint256)": {
        "notice": "Sets the closeFactor used when liquidating borrows"
      },
      "_setForcedLiquidation(address,bool)": {
        "notice": "Enables forced liquidations for a market. If forced liquidation is enabled, borrows in the market may be liquidated regardless of the account liquidity"
      },
      "_setForcedLiquidationForUser(address,address,bool)": {
        "notice": "Enables forced liquidations for user's borrows in a certain market. If forced liquidation is enabled, user's borrows in the market may be liquidated regardless of the account liquidity. Forced liquidation may be enabled for a user even if it is not enabled for the entire market."
      },
      "_setLiquidatorContract(address)": {
        "notice": "Update the address of the liquidator contract"
      },
      "_setMarketBorrowCaps(address[],uint256[])": {
        "notice": "Set the given borrow caps for the given vToken market Borrowing that brings total borrows to or above borrow cap will revert"
      },
      "_setMarketSupplyCaps(address[],uint256[])": {
        "notice": "Set the given supply caps for the given vToken market Supply that brings total Supply to or above supply cap will revert"
      },
      "_setPauseGuardian(address)": {
        "notice": "Admin function to change the Pause Guardian"
      },
      "_setPriceOracle(address)": {
        "notice": "Sets a new price oracle for the comptroller"
      },
      "_setPrimeToken(address)": {
        "notice": "Sets the prime token contract for the comptroller"
      },
      "_setProtocolPaused(bool)": {
        "notice": "Set whole protocol pause/unpause state"
      },
      "_setTreasuryData(address,address,uint256)": {
        "notice": "Set the treasury data."
      },
      "_setVAIController(address)": {
        "notice": "Sets a new VAI controller"
      },
      "_setVAIMintRate(uint256)": {
        "notice": "Set the VAI mint rate"
      },
      "_setVAIVaultInfo(address,uint256,uint256)": {
        "notice": "Set the VAI Vault infos"
      },
      "_setVenusVAIVaultRate(uint256)": {
        "notice": "Set the amount of XVS distributed per block to VAI Vault"
      },
      "_setXVSToken(address)": {
        "notice": "Set the address of the XVS token"
      },
      "_setXVSVToken(address)": {
        "notice": "Set the address of the XVS vToken"
      },
      "accountAssets(address,uint256)": {
        "notice": "Per-account mapping of \"assets you are in\", capped by maxAssets"
      },
      "actionPaused(address,uint8)": {
        "notice": "Checks if a certain action is paused on a market"
      },
      "admin()": {
        "notice": "Administrator for this contract"
      },
      "allMarkets(uint256)": {
        "notice": "A list of all markets"
      },
      "approvedDelegates(address,address)": {
        "notice": "Whether the delegate is allowed to borrow or redeem on behalf of the user"
      },
      "authorizedFlashLoan(address)": {
        "notice": "Mapping of accounts authorized to execute flash loans"
      },
      "borrowCapGuardian()": {
        "notice": "The borrowCapGuardian can set borrowCaps to any number for any market. Lowering the borrow cap could disable borrowing on the given market."
      },
      "borrowCaps(address)": {
        "notice": "Borrow caps enforced by borrowAllowed for each vToken address."
      },
      "closeFactorMantissa()": {
        "notice": "Multiplier used to calculate the maximum repayAmount when liquidating a borrow"
      },
      "comptrollerImplementation()": {
        "notice": "Active brains of Unitroller"
      },
      "getPoolMarketIndex(uint96,address)": {
        "notice": "Returns the unique market index for the given poolId and vToken pair"
      },
      "getXVSAddress()": {
        "notice": "Returns the XVS address"
      },
      "isForcedLiquidationEnabled(address)": {
        "notice": "Whether forced liquidation is enabled for all users borrowing in a certain market"
      },
      "isForcedLiquidationEnabledForUser(address,address)": {
        "notice": "Whether forced liquidation is enabled for the borrows of a user in a market"
      },
      "lastPoolId()": {
        "notice": "Counter used to generate unique pool IDs"
      },
      "maxAssets()": {
        "notice": "Max number of assets a single account can participate in (borrow or use as collateral)"
      },
      "mintVAIGuardianPaused()": {
        "notice": "The Pause Guardian can pause certain actions as a safety mechanism."
      },
      "mintedVAIs(address)": {
        "notice": "The minted VAI amount to each user"
      },
      "oracle()": {
        "notice": "Oracle which gives the price of any given asset"
      },
      "pauseGuardian()": {
        "notice": "The Pause Guardian can pause certain actions as a safety mechanism."
      },
      "pendingAdmin()": {
        "notice": "Pending administrator for this contract"
      },
      "pendingComptrollerImplementation()": {
        "notice": "Pending brains of Unitroller"
      },
      "pools(uint96)": {
        "notice": "Mapping of pool ID to its corresponding metadata and configuration"
      },
      "prime()": {
        "notice": "Prime token address"
      },
      "protocolPaused()": {
        "notice": "Pause/Unpause whole protocol actions"
      },
      "setActionsPaused(address[],uint8[],bool)": {
        "notice": "Alias to _setActionsPaused to support the Isolated Lending Comptroller Interface"
      },
      "setCloseFactor(uint256)": {
        "notice": "Alias to _setCloseFactor to support the Isolated Lending Comptroller Interface"
      },
      "setCollateralFactor(address,uint256,uint256)": {
        "notice": "Sets the collateral factor and liquidation threshold for a market in the Core Pool only."
      },
      "setCollateralFactor(uint96,address,uint256,uint256)": {
        "notice": "Sets the collateral factor and liquidation threshold for a market in the specified pool."
      },
      "setForcedLiquidation(address,bool)": {
        "notice": "Alias to _setForcedLiquidation to support the Isolated Lending Comptroller Interface"
      },
      "setIsBorrowAllowed(uint96,address,bool)": {
        "notice": "Updates the `isBorrowAllowed` flag for a market in a pool."
      },
      "setLiquidationIncentive(address,uint256)": {
        "notice": "Sets the liquidation incentive for a market in the Core Pool only."
      },
      "setLiquidationIncentive(uint96,address,uint256)": {
        "notice": "Sets the liquidation incentive for a market in the specified pool."
      },
      "setMarketBorrowCaps(address[],uint256[])": {
        "notice": "Alias to _setMarketBorrowCaps to support the Isolated Lending Comptroller Interface"
      },
      "setMarketSupplyCaps(address[],uint256[])": {
        "notice": "Alias to _setMarketSupplyCaps to support the Isolated Lending Comptroller Interface"
      },
      "setMintedVAIOf(address,uint256)": {
        "notice": "Set the minted VAI amount of the `owner`"
      },
      "setPoolActive(uint96,bool)": {
        "notice": "updates active status for a specific pool (excluding the Core Pool)"
      },
      "setPoolLabel(uint96,string)": {
        "notice": "Updates the label for a specific pool (excluding the Core Pool)"
      },
      "setPriceOracle(address)": {
        "notice": "Alias to _setPriceOracle to support the Isolated Lending Comptroller Interface"
      },
      "setPrimeToken(address)": {
        "notice": "Alias to _setPrimeToken to support the Isolated Lending Comptroller Interface"
      },
      "setWhiteListFlashLoanAccount(address,bool)": {
        "notice": "Adds/Removes an account to the flash loan whitelist"
      },
      "supplyCaps(address)": {
        "notice": "Supply caps enforced by mintAllowed for each vToken address. Defaults to zero which corresponds to minting notAllowed"
      },
      "treasuryAddress()": {
        "notice": "Treasury address"
      },
      "treasuryGuardian()": {
        "notice": "Treasury Guardian address"
      },
      "treasuryPercent()": {
        "notice": "Fee percent of accrued interest with decimal 18"
      },
      "userPoolId(address)": {
        "notice": "Tracks the selected pool for each user"
      },
      "vaiController()": {
        "notice": "The Address of VAIController"
      },
      "vaiMintRate()": {
        "notice": "VAI Mint Rate as a percentage"
      },
      "venusAccrued(address)": {
        "notice": "The XVS accrued but not yet transferred to each user"
      },
      "venusBorrowSpeeds(address)": {
        "notice": "The rate at which venus is distributed to the corresponding borrow market (per block)"
      },
      "venusBorrowState(address)": {
        "notice": "The Venus market borrow state for each market"
      },
      "venusBorrowerIndex(address,address)": {
        "notice": "The Venus borrow index for each market for each borrower as of the last time they accrued XVS"
      },
      "venusInitialIndex()": {
        "notice": "The initial Venus index for a market"
      },
      "venusSupplierIndex(address,address)": {
        "notice": "The Venus supply index for each market for each supplier as of the last time they accrued XVS"
      },
      "venusSupplySpeeds(address)": {
        "notice": "The rate at which venus is distributed to the corresponding supply market (per block)"
      },
      "venusSupplyState(address)": {
        "notice": "The Venus market supply state for each market"
      },
      "venusVAIVaultRate()": {
        "notice": "The rate at which the flywheel distributes XVS to VAI Vault, per block"
      }
    },
    "notice": "This facet contract contains all the configurational setter functions",
    "version": 1
  },
  "storageLayout": {
    "storage": [
      {
        "astId": 1655,
        "contract": "contracts/Comptroller/Diamond/facets/SetterFacet.sol:SetterFacet",
        "label": "admin",
        "offset": 0,
        "slot": "0",
        "type": "t_address"
      },
      {
        "astId": 1658,
        "contract": "contracts/Comptroller/Diamond/facets/SetterFacet.sol:SetterFacet",
        "label": "pendingAdmin",
        "offset": 0,
        "slot": "1",
        "type": "t_address"
      },
      {
        "astId": 1661,
        "contract": "contracts/Comptroller/Diamond/facets/SetterFacet.sol:SetterFacet",
        "label": "comptrollerImplementation",
        "offset": 0,
        "slot": "2",
        "type": "t_address"
      },
      {
        "astId": 1664,
        "contract": "contracts/Comptroller/Diamond/facets/SetterFacet.sol:SetterFacet",
        "label": "pendingComptrollerImplementation",
        "offset": 0,
        "slot": "3",
        "type": "t_address"
      },
      {
        "astId": 1671,
        "contract": "contracts/Comptroller/Diamond/facets/SetterFacet.sol:SetterFacet",
        "label": "oracle",
        "offset": 0,
        "slot": "4",
        "type": "t_contract(ResilientOracleInterface)992"
      },
      {
        "astId": 1674,
        "contract": "contracts/Comptroller/Diamond/facets/SetterFacet.sol:SetterFacet",
        "label": "closeFactorMantissa",
        "offset": 0,
        "slot": "5",
        "type": "t_uint256"
      },
      {
        "astId": 1677,
        "contract": "contracts/Comptroller/Diamond/facets/SetterFacet.sol:SetterFacet",
        "label": "_oldLiquidationIncentiveMantissa",
        "offset": 0,
        "slot": "6",
        "type": "t_uint256"
      },
      {
        "astId": 1680,
        "contract": "contracts/Comptroller/Diamond/facets/SetterFacet.sol:SetterFacet",
        "label": "maxAssets",
        "offset": 0,
        "slot": "7",
        "type": "t_uint256"
      },
      {
        "astId": 1687,
        "contract": "contracts/Comptroller/Diamond/facets/SetterFacet.sol:SetterFacet",
        "label": "accountAssets",
        "offset": 0,
        "slot": "8",
        "type": "t_mapping(t_address,t_array(t_contract(VToken)32078)dyn_storage)"
      },
      {
        "astId": 1721,
        "contract": "contracts/Comptroller/Diamond/facets/SetterFacet.sol:SetterFacet",
        "label": "_poolMarkets",
        "offset": 0,
        "slot": "9",
        "type": "t_mapping(t_userDefinedValueType(PoolMarketId)11175,t_struct(Market)1714_storage)"
      },
      {
        "astId": 1724,
        "contract": "contracts/Comptroller/Diamond/facets/SetterFacet.sol:SetterFacet",
        "label": "pauseGuardian",
        "offset": 0,
        "slot": "10",
        "type": "t_address"
      },
      {
        "astId": 1727,
        "contract": "contracts/Comptroller/Diamond/facets/SetterFacet.sol:SetterFacet",
        "label": "_mintGuardianPaused",
        "offset": 20,
        "slot": "10",
        "type": "t_bool"
      },
      {
        "astId": 1730,
        "contract": "contracts/Comptroller/Diamond/facets/SetterFacet.sol:SetterFacet",
        "label": "_borrowGuardianPaused",
        "offset": 21,
        "slot": "10",
        "type": "t_bool"
      },
      {
        "astId": 1733,
        "contract": "contracts/Comptroller/Diamond/facets/SetterFacet.sol:SetterFacet",
        "label": "transferGuardianPaused",
        "offset": 22,
        "slot": "10",
        "type": "t_bool"
      },
      {
        "astId": 1736,
        "contract": "contracts/Comptroller/Diamond/facets/SetterFacet.sol:SetterFacet",
        "label": "seizeGuardianPaused",
        "offset": 23,
        "slot": "10",
        "type": "t_bool"
      },
      {
        "astId": 1741,
        "contract": "contracts/Comptroller/Diamond/facets/SetterFacet.sol:SetterFacet",
        "label": "mintGuardianPaused",
        "offset": 0,
        "slot": "11",
        "type": "t_mapping(t_address,t_bool)"
      },
      {
        "astId": 1746,
        "contract": "contracts/Comptroller/Diamond/facets/SetterFacet.sol:SetterFacet",
        "label": "borrowGuardianPaused",
        "offset": 0,
        "slot": "12",
        "type": "t_mapping(t_address,t_bool)"
      },
      {
        "astId": 1758,
        "contract": "contracts/Comptroller/Diamond/facets/SetterFacet.sol:SetterFacet",
        "label": "allMarkets",
        "offset": 0,
        "slot": "13",
        "type": "t_array(t_contract(VToken)32078)dyn_storage"
      },
      {
        "astId": 1761,
        "contract": "contracts/Comptroller/Diamond/facets/SetterFacet.sol:SetterFacet",
        "label": "venusRate",
        "offset": 0,
        "slot": "14",
        "type": "t_uint256"
      },
      {
        "astId": 1766,
        "contract": "contracts/Comptroller/Diamond/facets/SetterFacet.sol:SetterFacet",
        "label": "venusSpeeds",
        "offset": 0,
        "slot": "15",
        "type": "t_mapping(t_address,t_uint256)"
      },
      {
        "astId": 1772,
        "contract": "contracts/Comptroller/Diamond/facets/SetterFacet.sol:SetterFacet",
        "label": "venusSupplyState",
        "offset": 0,
        "slot": "16",
        "type": "t_mapping(t_address,t_struct(VenusMarketState)1753_storage)"
      },
      {
        "astId": 1778,
        "contract": "contracts/Comptroller/Diamond/facets/SetterFacet.sol:SetterFacet",
        "label": "venusBorrowState",
        "offset": 0,
        "slot": "17",
        "type": "t_mapping(t_address,t_struct(VenusMarketState)1753_storage)"
      },
      {
        "astId": 1785,
        "contract": "contracts/Comptroller/Diamond/facets/SetterFacet.sol:SetterFacet",
        "label": "venusSupplierIndex",
        "offset": 0,
        "slot": "18",
        "type": "t_mapping(t_address,t_mapping(t_address,t_uint256))"
      },
      {
        "astId": 1792,
        "contract": "contracts/Comptroller/Diamond/facets/SetterFacet.sol:SetterFacet",
        "label": "venusBorrowerIndex",
        "offset": 0,
        "slot": "19",
        "type": "t_mapping(t_address,t_mapping(t_address,t_uint256))"
      },
      {
        "astId": 1797,
        "contract": "contracts/Comptroller/Diamond/facets/SetterFacet.sol:SetterFacet",
        "label": "venusAccrued",
        "offset": 0,
        "slot": "20",
        "type": "t_mapping(t_address,t_uint256)"
      },
      {
        "astId": 1801,
        "contract": "contracts/Comptroller/Diamond/facets/SetterFacet.sol:SetterFacet",
        "label": "vaiController",
        "offset": 0,
        "slot": "21",
        "type": "t_contract(VAIControllerInterface)25319"
      },
      {
        "astId": 1806,
        "contract": "contracts/Comptroller/Diamond/facets/SetterFacet.sol:SetterFacet",
        "label": "mintedVAIs",
        "offset": 0,
        "slot": "22",
        "type": "t_mapping(t_address,t_uint256)"
      },
      {
        "astId": 1809,
        "contract": "contracts/Comptroller/Diamond/facets/SetterFacet.sol:SetterFacet",
        "label": "vaiMintRate",
        "offset": 0,
        "slot": "23",
        "type": "t_uint256"
      },
      {
        "astId": 1812,
        "contract": "contracts/Comptroller/Diamond/facets/SetterFacet.sol:SetterFacet",
        "label": "mintVAIGuardianPaused",
        "offset": 0,
        "slot": "24",
        "type": "t_bool"
      },
      {
        "astId": 1814,
        "contract": "contracts/Comptroller/Diamond/facets/SetterFacet.sol:SetterFacet",
        "label": "repayVAIGuardianPaused",
        "offset": 1,
        "slot": "24",
        "type": "t_bool"
      },
      {
        "astId": 1817,
        "contract": "contracts/Comptroller/Diamond/facets/SetterFacet.sol:SetterFacet",
        "label": "protocolPaused",
        "offset": 2,
        "slot": "24",
        "type": "t_bool"
      },
      {
        "astId": 1820,
        "contract": "contracts/Comptroller/Diamond/facets/SetterFacet.sol:SetterFacet",
        "label": "venusVAIRate",
        "offset": 0,
        "slot": "25",
        "type": "t_uint256"
      },
      {
        "astId": 1826,
        "contract": "contracts/Comptroller/Diamond/facets/SetterFacet.sol:SetterFacet",
        "label": "venusVAIVaultRate",
        "offset": 0,
        "slot": "26",
        "type": "t_uint256"
      },
      {
        "astId": 1828,
        "contract": "contracts/Comptroller/Diamond/facets/SetterFacet.sol:SetterFacet",
        "label": "vaiVaultAddress",
        "offset": 0,
        "slot": "27",
        "type": "t_address"
      },
      {
        "astId": 1830,
        "contract": "contracts/Comptroller/Diamond/facets/SetterFacet.sol:SetterFacet",
        "label": "releaseStartBlock",
        "offset": 0,
        "slot": "28",
        "type": "t_uint256"
      },
      {
        "astId": 1832,
        "contract": "contracts/Comptroller/Diamond/facets/SetterFacet.sol:SetterFacet",
        "label": "minReleaseAmount",
        "offset": 0,
        "slot": "29",
        "type": "t_uint256"
      },
      {
        "astId": 1838,
        "contract": "contracts/Comptroller/Diamond/facets/SetterFacet.sol:SetterFacet",
        "label": "borrowCapGuardian",
        "offset": 0,
        "slot": "30",
        "type": "t_address"
      },
      {
        "astId": 1843,
        "contract": "contracts/Comptroller/Diamond/facets/SetterFacet.sol:SetterFacet",
        "label": "borrowCaps",
        "offset": 0,
        "slot": "31",
        "type": "t_mapping(t_address,t_uint256)"
      },
      {
        "astId": 1849,
        "contract": "contracts/Comptroller/Diamond/facets/SetterFacet.sol:SetterFacet",
        "label": "treasuryGuardian",
        "offset": 0,
        "slot": "32",
        "type": "t_address"
      },
      {
        "astId": 1852,
        "contract": "contracts/Comptroller/Diamond/facets/SetterFacet.sol:SetterFacet",
        "label": "treasuryAddress",
        "offset": 0,
        "slot": "33",
        "type": "t_address"
      },
      {
        "astId": 1855,
        "contract": "contracts/Comptroller/Diamond/facets/SetterFacet.sol:SetterFacet",
        "label": "treasuryPercent",
        "offset": 0,
        "slot": "34",
        "type": "t_uint256"
      },
      {
        "astId": 1863,
        "contract": "contracts/Comptroller/Diamond/facets/SetterFacet.sol:SetterFacet",
        "label": "venusContributorSpeeds",
        "offset": 0,
        "slot": "35",
        "type": "t_mapping(t_address,t_uint256)"
      },
      {
        "astId": 1868,
        "contract": "contracts/Comptroller/Diamond/facets/SetterFacet.sol:SetterFacet",
        "label": "lastContributorBlock",
        "offset": 0,
        "slot": "36",
        "type": "t_mapping(t_address,t_uint256)"
      },
      {
        "astId": 1873,
        "contract": "contracts/Comptroller/Diamond/facets/SetterFacet.sol:SetterFacet",
        "label": "liquidatorContract",
        "offset": 0,
        "slot": "37",
        "type": "t_address"
      },
      {
        "astId": 1879,
        "contract": "contracts/Comptroller/Diamond/facets/SetterFacet.sol:SetterFacet",
        "label": "comptrollerLens",
        "offset": 0,
        "slot": "38",
        "type": "t_contract(ComptrollerLensInterface)1638"
      },
      {
        "astId": 1887,
        "contract": "contracts/Comptroller/Diamond/facets/SetterFacet.sol:SetterFacet",
        "label": "supplyCaps",
        "offset": 0,
        "slot": "39",
        "type": "t_mapping(t_address,t_uint256)"
      },
      {
        "astId": 1893,
        "contract": "contracts/Comptroller/Diamond/facets/SetterFacet.sol:SetterFacet",
        "label": "accessControl",
        "offset": 0,
        "slot": "40",
        "type": "t_address"
      },
      {
        "astId": 1900,
        "contract": "contracts/Comptroller/Diamond/facets/SetterFacet.sol:SetterFacet",
        "label": "_actionPaused",
        "offset": 0,
        "slot": "41",
        "type": "t_mapping(t_address,t_mapping(t_uint256,t_bool))"
      },
      {
        "astId": 1908,
        "contract": "contracts/Comptroller/Diamond/facets/SetterFacet.sol:SetterFacet",
        "label": "venusBorrowSpeeds",
        "offset": 0,
        "slot": "42",
        "type": "t_mapping(t_address,t_uint256)"
      },
      {
        "astId": 1913,
        "contract": "contracts/Comptroller/Diamond/facets/SetterFacet.sol:SetterFacet",
        "label": "venusSupplySpeeds",
        "offset": 0,
        "slot": "43",
        "type": "t_mapping(t_address,t_uint256)"
      },
      {
        "astId": 1923,
        "contract": "contracts/Comptroller/Diamond/facets/SetterFacet.sol:SetterFacet",
        "label": "approvedDelegates",
        "offset": 0,
        "slot": "44",
        "type": "t_mapping(t_address,t_mapping(t_address,t_bool))"
      },
      {
        "astId": 1931,
        "contract": "contracts/Comptroller/Diamond/facets/SetterFacet.sol:SetterFacet",
        "label": "isForcedLiquidationEnabled",
        "offset": 0,
        "slot": "45",
        "type": "t_mapping(t_address,t_bool)"
      },
      {
        "astId": 1950,
        "contract": "contracts/Comptroller/Diamond/facets/SetterFacet.sol:SetterFacet",
        "label": "_selectorToFacetAndPosition",
        "offset": 0,
        "slot": "46",
        "type": "t_mapping(t_bytes4,t_struct(FacetAddressAndPosition)1939_storage)"
      },
      {
        "astId": 1955,
        "contract": "contracts/Comptroller/Diamond/facets/SetterFacet.sol:SetterFacet",
        "label": "_facetFunctionSelectors",
        "offset": 0,
        "slot": "47",
        "type": "t_mapping(t_address,t_struct(FacetFunctionSelectors)1945_storage)"
      },
      {
        "astId": 1958,
        "contract": "contracts/Comptroller/Diamond/facets/SetterFacet.sol:SetterFacet",
        "label": "_facetAddresses",
        "offset": 0,
        "slot": "48",
        "type": "t_array(t_address)dyn_storage"
      },
      {
        "astId": 1965,
        "contract": "contracts/Comptroller/Diamond/facets/SetterFacet.sol:SetterFacet",
        "label": "prime",
        "offset": 0,
        "slot": "49",
        "type": "t_contract(IPrime)22497"
      },
      {
        "astId": 1975,
        "contract": "contracts/Comptroller/Diamond/facets/SetterFacet.sol:SetterFacet",
        "label": "isForcedLiquidationEnabledForUser",
        "offset": 0,
        "slot": "50",
        "type": "t_mapping(t_address,t_mapping(t_address,t_bool))"
      },
      {
        "astId": 1981,
        "contract": "contracts/Comptroller/Diamond/facets/SetterFacet.sol:SetterFacet",
        "label": "xvs",
        "offset": 0,
        "slot": "51",
        "type": "t_address"
      },
      {
        "astId": 1984,
        "contract": "contracts/Comptroller/Diamond/facets/SetterFacet.sol:SetterFacet",
        "label": "xvsVToken",
        "offset": 0,
        "slot": "52",
        "type": "t_address"
      },
      {
        "astId": 2003,
        "contract": "contracts/Comptroller/Diamond/facets/SetterFacet.sol:SetterFacet",
        "label": "userPoolId",
        "offset": 0,
        "slot": "53",
        "type": "t_mapping(t_address,t_uint96)"
      },
      {
        "astId": 2009,
        "contract": "contracts/Comptroller/Diamond/facets/SetterFacet.sol:SetterFacet",
        "label": "pools",
        "offset": 0,
        "slot": "54",
        "type": "t_mapping(t_uint96,t_struct(PoolData)1998_storage)"
      },
      {
        "astId": 2012,
        "contract": "contracts/Comptroller/Diamond/facets/SetterFacet.sol:SetterFacet",
        "label": "lastPoolId",
        "offset": 0,
        "slot": "55",
        "type": "t_uint96"
      },
      {
        "astId": 2017,
        "contract": "contracts/Comptroller/Diamond/facets/SetterFacet.sol:SetterFacet",
        "label": "authorizedFlashLoan",
        "offset": 0,
        "slot": "56",
        "type": "t_mapping(t_address,t_bool)"
      }
    ],
    "types": {
      "t_address": {
        "encoding": "inplace",
        "label": "address",
        "numberOfBytes": "20"
      },
      "t_array(t_address)dyn_storage": {
        "base": "t_address",
        "encoding": "dynamic_array",
        "label": "address[]",
        "numberOfBytes": "32"
      },
      "t_array(t_bytes4)dyn_storage": {
        "base": "t_bytes4",
        "encoding": "dynamic_array",
        "label": "bytes4[]",
        "numberOfBytes": "32"
      },
      "t_array(t_contract(VToken)32078)dyn_storage": {
        "base": "t_contract(VToken)32078",
        "encoding": "dynamic_array",
        "label": "contract VToken[]",
        "numberOfBytes": "32"
      },
      "t_bool": {
        "encoding": "inplace",
        "label": "bool",
        "numberOfBytes": "1"
      },
      "t_bytes4": {
        "encoding": "inplace",
        "label": "bytes4",
        "numberOfBytes": "4"
      },
      "t_contract(ComptrollerLensInterface)1638": {
        "encoding": "inplace",
        "label": "contract ComptrollerLensInterface",
        "numberOfBytes": "20"
      },
      "t_contract(IPrime)22497": {
        "encoding": "inplace",
        "label": "contract IPrime",
        "numberOfBytes": "20"
      },
      "t_contract(ResilientOracleInterface)992": {
        "encoding": "inplace",
        "label": "contract ResilientOracleInterface",
        "numberOfBytes": "20"
      },
      "t_contract(VAIControllerInterface)25319": {
        "encoding": "inplace",
        "label": "contract VAIControllerInterface",
        "numberOfBytes": "20"
      },
      "t_contract(VToken)32078": {
        "encoding": "inplace",
        "label": "contract VToken",
        "numberOfBytes": "20"
      },
      "t_mapping(t_address,t_array(t_contract(VToken)32078)dyn_storage)": {
        "encoding": "mapping",
        "key": "t_address",
        "label": "mapping(address => contract VToken[])",
        "numberOfBytes": "32",
        "value": "t_array(t_contract(VToken)32078)dyn_storage"
      },
      "t_mapping(t_address,t_bool)": {
        "encoding": "mapping",
        "key": "t_address",
        "label": "mapping(address => bool)",
        "numberOfBytes": "32",
        "value": "t_bool"
      },
      "t_mapping(t_address,t_mapping(t_address,t_bool))": {
        "encoding": "mapping",
        "key": "t_address",
        "label": "mapping(address => mapping(address => bool))",
        "numberOfBytes": "32",
        "value": "t_mapping(t_address,t_bool)"
      },
      "t_mapping(t_address,t_mapping(t_address,t_uint256))": {
        "encoding": "mapping",
        "key": "t_address",
        "label": "mapping(address => mapping(address => uint256))",
        "numberOfBytes": "32",
        "value": "t_mapping(t_address,t_uint256)"
      },
      "t_mapping(t_address,t_mapping(t_uint256,t_bool))": {
        "encoding": "mapping",
        "key": "t_address",
        "label": "mapping(address => mapping(uint256 => bool))",
        "numberOfBytes": "32",
        "value": "t_mapping(t_uint256,t_bool)"
      },
      "t_mapping(t_address,t_struct(FacetFunctionSelectors)1945_storage)": {
        "encoding": "mapping",
        "key": "t_address",
        "label": "mapping(address => struct ComptrollerV13Storage.FacetFunctionSelectors)",
        "numberOfBytes": "32",
        "value": "t_struct(FacetFunctionSelectors)1945_storage"
      },
      "t_mapping(t_address,t_struct(VenusMarketState)1753_storage)": {
        "encoding": "mapping",
        "key": "t_address",
        "label": "mapping(address => struct ComptrollerV1Storage.VenusMarketState)",
        "numberOfBytes": "32",
        "value": "t_struct(VenusMarketState)1753_storage"
      },
      "t_mapping(t_address,t_uint256)": {
        "encoding": "mapping",
        "key": "t_address",
        "label": "mapping(address => uint256)",
        "numberOfBytes": "32",
        "value": "t_uint256"
      },
      "t_mapping(t_address,t_uint96)": {
        "encoding": "mapping",
        "key": "t_address",
        "label": "mapping(address => uint96)",
        "numberOfBytes": "32",
        "value": "t_uint96"
      },
      "t_mapping(t_bytes4,t_struct(FacetAddressAndPosition)1939_storage)": {
        "encoding": "mapping",
        "key": "t_bytes4",
        "label": "mapping(bytes4 => struct ComptrollerV13Storage.FacetAddressAndPosition)",
        "numberOfBytes": "32",
        "value": "t_struct(FacetAddressAndPosition)1939_storage"
      },
      "t_mapping(t_uint256,t_bool)": {
        "encoding": "mapping",
        "key": "t_uint256",
        "label": "mapping(uint256 => bool)",
        "numberOfBytes": "32",
        "value": "t_bool"
      },
      "t_mapping(t_uint96,t_struct(PoolData)1998_storage)": {
        "encoding": "mapping",
        "key": "t_uint96",
        "label": "mapping(uint96 => struct ComptrollerV17Storage.PoolData)",
        "numberOfBytes": "32",
        "value": "t_struct(PoolData)1998_storage"
      },
      "t_mapping(t_userDefinedValueType(PoolMarketId)11175,t_struct(Market)1714_storage)": {
        "encoding": "mapping",
        "key": "t_userDefinedValueType(PoolMarketId)11175",
        "label": "mapping(PoolMarketId => struct ComptrollerV1Storage.Market)",
        "numberOfBytes": "32",
        "value": "t_struct(Market)1714_storage"
      },
      "t_string_storage": {
        "encoding": "bytes",
        "label": "string",
        "numberOfBytes": "32"
      },
      "t_struct(FacetAddressAndPosition)1939_storage": {
        "encoding": "inplace",
        "label": "struct ComptrollerV13Storage.FacetAddressAndPosition",
        "members": [
          {
            "astId": 1936,
            "contract": "contracts/Comptroller/Diamond/facets/SetterFacet.sol:SetterFacet",
            "label": "facetAddress",
            "offset": 0,
            "slot": "0",
            "type": "t_address"
          },
          {
            "astId": 1938,
            "contract": "contracts/Comptroller/Diamond/facets/SetterFacet.sol:SetterFacet",
            "label": "functionSelectorPosition",
            "offset": 20,
            "slot": "0",
            "type": "t_uint96"
          }
        ],
        "numberOfBytes": "32"
      },
      "t_struct(FacetFunctionSelectors)1945_storage": {
        "encoding": "inplace",
        "label": "struct ComptrollerV13Storage.FacetFunctionSelectors",
        "members": [
          {
            "astId": 1942,
            "contract": "contracts/Comptroller/Diamond/facets/SetterFacet.sol:SetterFacet",
            "label": "functionSelectors",
            "offset": 0,
            "slot": "0",
            "type": "t_array(t_bytes4)dyn_storage"
          },
          {
            "astId": 1944,
            "contract": "contracts/Comptroller/Diamond/facets/SetterFacet.sol:SetterFacet",
            "label": "facetAddressPosition",
            "offset": 0,
            "slot": "1",
            "type": "t_uint256"
          }
        ],
        "numberOfBytes": "64"
      },
      "t_struct(Market)1714_storage": {
        "encoding": "inplace",
        "label": "struct ComptrollerV1Storage.Market",
        "members": [
          {
            "astId": 1690,
            "contract": "contracts/Comptroller/Diamond/facets/SetterFacet.sol:SetterFacet",
            "label": "isListed",
            "offset": 0,
            "slot": "0",
            "type": "t_bool"
          },
          {
            "astId": 1693,
            "contract": "contracts/Comptroller/Diamond/facets/SetterFacet.sol:SetterFacet",
            "label": "collateralFactorMantissa",
            "offset": 0,
            "slot": "1",
            "type": "t_uint256"
          },
          {
            "astId": 1698,
            "contract": "contracts/Comptroller/Diamond/facets/SetterFacet.sol:SetterFacet",
            "label": "accountMembership",
            "offset": 0,
            "slot": "2",
            "type": "t_mapping(t_address,t_bool)"
          },
          {
            "astId": 1701,
            "contract": "contracts/Comptroller/Diamond/facets/SetterFacet.sol:SetterFacet",
            "label": "isVenus",
            "offset": 0,
            "slot": "3",
            "type": "t_bool"
          },
          {
            "astId": 1704,
            "contract": "contracts/Comptroller/Diamond/facets/SetterFacet.sol:SetterFacet",
            "label": "liquidationThresholdMantissa",
            "offset": 0,
            "slot": "4",
            "type": "t_uint256"
          },
          {
            "astId": 1707,
            "contract": "contracts/Comptroller/Diamond/facets/SetterFacet.sol:SetterFacet",
            "label": "liquidationIncentiveMantissa",
            "offset": 0,
            "slot": "5",
            "type": "t_uint256"
          },
          {
            "astId": 1710,
            "contract": "contracts/Comptroller/Diamond/facets/SetterFacet.sol:SetterFacet",
            "label": "poolId",
            "offset": 0,
            "slot": "6",
            "type": "t_uint96"
          },
          {
            "astId": 1713,
            "contract": "contracts/Comptroller/Diamond/facets/SetterFacet.sol:SetterFacet",
            "label": "isBorrowAllowed",
            "offset": 12,
            "slot": "6",
            "type": "t_bool"
          }
        ],
        "numberOfBytes": "224"
      },
      "t_struct(PoolData)1998_storage": {
        "encoding": "inplace",
        "label": "struct ComptrollerV17Storage.PoolData",
        "members": [
          {
            "astId": 1990,
            "contract": "contracts/Comptroller/Diamond/facets/SetterFacet.sol:SetterFacet",
            "label": "label",
            "offset": 0,
            "slot": "0",
            "type": "t_string_storage"
          },
          {
            "astId": 1994,
            "contract": "contracts/Comptroller/Diamond/facets/SetterFacet.sol:SetterFacet",
            "label": "vTokens",
            "offset": 0,
            "slot": "1",
            "type": "t_array(t_address)dyn_storage"
          },
          {
            "astId": 1997,
            "contract": "contracts/Comptroller/Diamond/facets/SetterFacet.sol:SetterFacet",
            "label": "isActive",
            "offset": 0,
            "slot": "2",
            "type": "t_bool"
          }
        ],
        "numberOfBytes": "96"
      },
      "t_struct(VenusMarketState)1753_storage": {
        "encoding": "inplace",
        "label": "struct ComptrollerV1Storage.VenusMarketState",
        "members": [
          {
            "astId": 1749,
            "contract": "contracts/Comptroller/Diamond/facets/SetterFacet.sol:SetterFacet",
            "label": "index",
            "offset": 0,
            "slot": "0",
            "type": "t_uint224"
          },
          {
            "astId": 1752,
            "contract": "contracts/Comptroller/Diamond/facets/SetterFacet.sol:SetterFacet",
            "label": "block",
            "offset": 28,
            "slot": "0",
            "type": "t_uint32"
          }
        ],
        "numberOfBytes": "32"
      },
      "t_uint224": {
        "encoding": "inplace",
        "label": "uint224",
        "numberOfBytes": "28"
      },
      "t_uint256": {
        "encoding": "inplace",
        "label": "uint256",
        "numberOfBytes": "32"
      },
      "t_uint32": {
        "encoding": "inplace",
        "label": "uint32",
        "numberOfBytes": "4"
      },
      "t_uint96": {
        "encoding": "inplace",
        "label": "uint96",
        "numberOfBytes": "12"
      },
      "t_userDefinedValueType(PoolMarketId)11175": {
        "encoding": "inplace",
        "label": "PoolMarketId",
        "numberOfBytes": "32"
      }
    }
  }
}