{
  "address": "0xaBdE9599a4aEcE4fEC59fBF2b8445149bc8B2c70",
  "abi": [
    {
      "anonymous": false,
      "inputs": [
        {
          "indexed": true,
          "internalType": "contract VToken",
          "name": "vToken",
          "type": "address"
        },
        {
          "indexed": true,
          "internalType": "enum ComptrollerTypes.Action",
          "name": "action",
          "type": "uint8"
        },
        {
          "indexed": false,
          "internalType": "bool",
          "name": "pauseState",
          "type": "bool"
        }
      ],
      "name": "ActionPausedMarket",
      "type": "event"
    },
    {
      "anonymous": false,
      "inputs": [
        {
          "indexed": false,
          "internalType": "bool",
          "name": "state",
          "type": "bool"
        }
      ],
      "name": "ActionProtocolPaused",
      "type": "event"
    },
    {
      "anonymous": false,
      "inputs": [
        {
          "indexed": false,
          "internalType": "uint256",
          "name": "amount",
          "type": "uint256"
        }
      ],
      "name": "DistributedVAIVaultVenus",
      "type": "event"
    },
    {
      "anonymous": false,
      "inputs": [
        {
          "indexed": false,
          "internalType": "uint256",
          "name": "error",
          "type": "uint256"
        },
        {
          "indexed": false,
          "internalType": "uint256",
          "name": "info",
          "type": "uint256"
        },
        {
          "indexed": false,
          "internalType": "uint256",
          "name": "detail",
          "type": "uint256"
        }
      ],
      "name": "Failure",
      "type": "event"
    },
    {
      "anonymous": false,
      "inputs": [
        {
          "indexed": true,
          "internalType": "address",
          "name": "borrower",
          "type": "address"
        },
        {
          "indexed": true,
          "internalType": "address",
          "name": "vToken",
          "type": "address"
        },
        {
          "indexed": false,
          "internalType": "bool",
          "name": "enable",
          "type": "bool"
        }
      ],
      "name": "IsForcedLiquidationEnabledForUserUpdated",
      "type": "event"
    },
    {
      "anonymous": false,
      "inputs": [
        {
          "indexed": true,
          "internalType": "address",
          "name": "vToken",
          "type": "address"
        },
        {
          "indexed": false,
          "internalType": "bool",
          "name": "enable",
          "type": "bool"
        }
      ],
      "name": "IsForcedLiquidationEnabledUpdated",
      "type": "event"
    },
    {
      "anonymous": false,
      "inputs": [
        {
          "indexed": true,
          "internalType": "contract VToken",
          "name": "vToken",
          "type": "address"
        },
        {
          "indexed": true,
          "internalType": "address",
          "name": "account",
          "type": "address"
        }
      ],
      "name": "MarketEntered",
      "type": "event"
    },
    {
      "anonymous": false,
      "inputs": [
        {
          "indexed": false,
          "internalType": "address",
          "name": "oldAccessControlAddress",
          "type": "address"
        },
        {
          "indexed": false,
          "internalType": "address",
          "name": "newAccessControlAddress",
          "type": "address"
        }
      ],
      "name": "NewAccessControl",
      "type": "event"
    },
    {
      "anonymous": false,
      "inputs": [
        {
          "indexed": true,
          "internalType": "contract VToken",
          "name": "vToken",
          "type": "address"
        },
        {
          "indexed": false,
          "internalType": "uint256",
          "name": "newBorrowCap",
          "type": "uint256"
        }
      ],
      "name": "NewBorrowCap",
      "type": "event"
    },
    {
      "anonymous": false,
      "inputs": [
        {
          "indexed": false,
          "internalType": "uint256",
          "name": "oldCloseFactorMantissa",
          "type": "uint256"
        },
        {
          "indexed": false,
          "internalType": "uint256",
          "name": "newCloseFactorMantissa",
          "type": "uint256"
        }
      ],
      "name": "NewCloseFactor",
      "type": "event"
    },
    {
      "anonymous": false,
      "inputs": [
        {
          "indexed": true,
          "internalType": "contract VToken",
          "name": "vToken",
          "type": "address"
        },
        {
          "indexed": false,
          "internalType": "uint256",
          "name": "oldCollateralFactorMantissa",
          "type": "uint256"
        },
        {
          "indexed": false,
          "internalType": "uint256",
          "name": "newCollateralFactorMantissa",
          "type": "uint256"
        }
      ],
      "name": "NewCollateralFactor",
      "type": "event"
    },
    {
      "anonymous": false,
      "inputs": [
        {
          "indexed": false,
          "internalType": "address",
          "name": "oldComptrollerLens",
          "type": "address"
        },
        {
          "indexed": false,
          "internalType": "address",
          "name": "newComptrollerLens",
          "type": "address"
        }
      ],
      "name": "NewComptrollerLens",
      "type": "event"
    },
    {
      "anonymous": false,
      "inputs": [
        {
          "indexed": false,
          "internalType": "uint256",
          "name": "oldLiquidationIncentiveMantissa",
          "type": "uint256"
        },
        {
          "indexed": false,
          "internalType": "uint256",
          "name": "newLiquidationIncentiveMantissa",
          "type": "uint256"
        }
      ],
      "name": "NewLiquidationIncentive",
      "type": "event"
    },
    {
      "anonymous": false,
      "inputs": [
        {
          "indexed": false,
          "internalType": "address",
          "name": "oldLiquidatorContract",
          "type": "address"
        },
        {
          "indexed": false,
          "internalType": "address",
          "name": "newLiquidatorContract",
          "type": "address"
        }
      ],
      "name": "NewLiquidatorContract",
      "type": "event"
    },
    {
      "anonymous": false,
      "inputs": [
        {
          "indexed": false,
          "internalType": "address",
          "name": "oldPauseGuardian",
          "type": "address"
        },
        {
          "indexed": false,
          "internalType": "address",
          "name": "newPauseGuardian",
          "type": "address"
        }
      ],
      "name": "NewPauseGuardian",
      "type": "event"
    },
    {
      "anonymous": false,
      "inputs": [
        {
          "indexed": false,
          "internalType": "contract PriceOracle",
          "name": "oldPriceOracle",
          "type": "address"
        },
        {
          "indexed": false,
          "internalType": "contract PriceOracle",
          "name": "newPriceOracle",
          "type": "address"
        }
      ],
      "name": "NewPriceOracle",
      "type": "event"
    },
    {
      "anonymous": false,
      "inputs": [
        {
          "indexed": false,
          "internalType": "contract IPrime",
          "name": "oldPrimeToken",
          "type": "address"
        },
        {
          "indexed": false,
          "internalType": "contract IPrime",
          "name": "newPrimeToken",
          "type": "address"
        }
      ],
      "name": "NewPrimeToken",
      "type": "event"
    },
    {
      "anonymous": false,
      "inputs": [
        {
          "indexed": true,
          "internalType": "contract VToken",
          "name": "vToken",
          "type": "address"
        },
        {
          "indexed": false,
          "internalType": "uint256",
          "name": "newSupplyCap",
          "type": "uint256"
        }
      ],
      "name": "NewSupplyCap",
      "type": "event"
    },
    {
      "anonymous": false,
      "inputs": [
        {
          "indexed": false,
          "internalType": "address",
          "name": "oldTreasuryAddress",
          "type": "address"
        },
        {
          "indexed": false,
          "internalType": "address",
          "name": "newTreasuryAddress",
          "type": "address"
        }
      ],
      "name": "NewTreasuryAddress",
      "type": "event"
    },
    {
      "anonymous": false,
      "inputs": [
        {
          "indexed": false,
          "internalType": "address",
          "name": "oldTreasuryGuardian",
          "type": "address"
        },
        {
          "indexed": false,
          "internalType": "address",
          "name": "newTreasuryGuardian",
          "type": "address"
        }
      ],
      "name": "NewTreasuryGuardian",
      "type": "event"
    },
    {
      "anonymous": false,
      "inputs": [
        {
          "indexed": false,
          "internalType": "uint256",
          "name": "oldTreasuryPercent",
          "type": "uint256"
        },
        {
          "indexed": false,
          "internalType": "uint256",
          "name": "newTreasuryPercent",
          "type": "uint256"
        }
      ],
      "name": "NewTreasuryPercent",
      "type": "event"
    },
    {
      "anonymous": false,
      "inputs": [
        {
          "indexed": false,
          "internalType": "contract VAIControllerInterface",
          "name": "oldVAIController",
          "type": "address"
        },
        {
          "indexed": false,
          "internalType": "contract VAIControllerInterface",
          "name": "newVAIController",
          "type": "address"
        }
      ],
      "name": "NewVAIController",
      "type": "event"
    },
    {
      "anonymous": false,
      "inputs": [
        {
          "indexed": false,
          "internalType": "uint256",
          "name": "oldVAIMintRate",
          "type": "uint256"
        },
        {
          "indexed": false,
          "internalType": "uint256",
          "name": "newVAIMintRate",
          "type": "uint256"
        }
      ],
      "name": "NewVAIMintRate",
      "type": "event"
    },
    {
      "anonymous": false,
      "inputs": [
        {
          "indexed": true,
          "internalType": "address",
          "name": "vault_",
          "type": "address"
        },
        {
          "indexed": false,
          "internalType": "uint256",
          "name": "releaseStartBlock_",
          "type": "uint256"
        },
        {
          "indexed": false,
          "internalType": "uint256",
          "name": "releaseInterval_",
          "type": "uint256"
        }
      ],
      "name": "NewVAIVaultInfo",
      "type": "event"
    },
    {
      "anonymous": false,
      "inputs": [
        {
          "indexed": false,
          "internalType": "uint256",
          "name": "oldVenusVAIVaultRate",
          "type": "uint256"
        },
        {
          "indexed": false,
          "internalType": "uint256",
          "name": "newVenusVAIVaultRate",
          "type": "uint256"
        }
      ],
      "name": "NewVenusVAIVaultRate",
      "type": "event"
    },
    {
      "anonymous": false,
      "inputs": [
        {
          "indexed": true,
          "internalType": "address",
          "name": "oldXVS",
          "type": "address"
        },
        {
          "indexed": true,
          "internalType": "address",
          "name": "newXVS",
          "type": "address"
        }
      ],
      "name": "NewXVSToken",
      "type": "event"
    },
    {
      "anonymous": false,
      "inputs": [
        {
          "indexed": true,
          "internalType": "address",
          "name": "oldXVSVToken",
          "type": "address"
        },
        {
          "indexed": true,
          "internalType": "address",
          "name": "newXVSVToken",
          "type": "address"
        }
      ],
      "name": "NewXVSVToken",
      "type": "event"
    },
    {
      "constant": false,
      "inputs": [
        {
          "internalType": "address",
          "name": "newAccessControlAddress",
          "type": "address"
        }
      ],
      "name": "_setAccessControl",
      "outputs": [
        {
          "internalType": "uint256",
          "name": "",
          "type": "uint256"
        }
      ],
      "payable": false,
      "stateMutability": "nonpayable",
      "type": "function"
    },
    {
      "constant": false,
      "inputs": [
        {
          "internalType": "address[]",
          "name": "markets_",
          "type": "address[]"
        },
        {
          "internalType": "enum ComptrollerTypes.Action[]",
          "name": "actions_",
          "type": "uint8[]"
        },
        {
          "internalType": "bool",
          "name": "paused_",
          "type": "bool"
        }
      ],
      "name": "_setActionsPaused",
      "outputs": [],
      "payable": false,
      "stateMutability": "nonpayable",
      "type": "function"
    },
    {
      "constant": false,
      "inputs": [
        {
          "internalType": "uint256",
          "name": "newCloseFactorMantissa",
          "type": "uint256"
        }
      ],
      "name": "_setCloseFactor",
      "outputs": [
        {
          "internalType": "uint256",
          "name": "",
          "type": "uint256"
        }
      ],
      "payable": false,
      "stateMutability": "nonpayable",
      "type": "function"
    },
    {
      "constant": false,
      "inputs": [
        {
          "internalType": "contract VToken",
          "name": "vToken",
          "type": "address"
        },
        {
          "internalType": "uint256",
          "name": "newCollateralFactorMantissa",
          "type": "uint256"
        }
      ],
      "name": "_setCollateralFactor",
      "outputs": [
        {
          "internalType": "uint256",
          "name": "",
          "type": "uint256"
        }
      ],
      "payable": false,
      "stateMutability": "nonpayable",
      "type": "function"
    },
    {
      "constant": false,
      "inputs": [
        {
          "internalType": "contract ComptrollerLensInterface",
          "name": "comptrollerLens_",
          "type": "address"
        }
      ],
      "name": "_setComptrollerLens",
      "outputs": [
        {
          "internalType": "uint256",
          "name": "",
          "type": "uint256"
        }
      ],
      "payable": false,
      "stateMutability": "nonpayable",
      "type": "function"
    },
    {
      "constant": false,
      "inputs": [
        {
          "internalType": "address",
          "name": "vTokenBorrowed",
          "type": "address"
        },
        {
          "internalType": "bool",
          "name": "enable",
          "type": "bool"
        }
      ],
      "name": "_setForcedLiquidation",
      "outputs": [],
      "payable": false,
      "stateMutability": "nonpayable",
      "type": "function"
    },
    {
      "constant": false,
      "inputs": [
        {
          "internalType": "address",
          "name": "borrower",
          "type": "address"
        },
        {
          "internalType": "address",
          "name": "vTokenBorrowed",
          "type": "address"
        },
        {
          "internalType": "bool",
          "name": "enable",
          "type": "bool"
        }
      ],
      "name": "_setForcedLiquidationForUser",
      "outputs": [],
      "payable": false,
      "stateMutability": "nonpayable",
      "type": "function"
    },
    {
      "constant": false,
      "inputs": [
        {
          "internalType": "uint256",
          "name": "newLiquidationIncentiveMantissa",
          "type": "uint256"
        }
      ],
      "name": "_setLiquidationIncentive",
      "outputs": [
        {
          "internalType": "uint256",
          "name": "",
          "type": "uint256"
        }
      ],
      "payable": false,
      "stateMutability": "nonpayable",
      "type": "function"
    },
    {
      "constant": false,
      "inputs": [
        {
          "internalType": "address",
          "name": "newLiquidatorContract_",
          "type": "address"
        }
      ],
      "name": "_setLiquidatorContract",
      "outputs": [],
      "payable": false,
      "stateMutability": "nonpayable",
      "type": "function"
    },
    {
      "constant": false,
      "inputs": [
        {
          "internalType": "contract VToken[]",
          "name": "vTokens",
          "type": "address[]"
        },
        {
          "internalType": "uint256[]",
          "name": "newBorrowCaps",
          "type": "uint256[]"
        }
      ],
      "name": "_setMarketBorrowCaps",
      "outputs": [],
      "payable": false,
      "stateMutability": "nonpayable",
      "type": "function"
    },
    {
      "constant": false,
      "inputs": [
        {
          "internalType": "contract VToken[]",
          "name": "vTokens",
          "type": "address[]"
        },
        {
          "internalType": "uint256[]",
          "name": "newSupplyCaps",
          "type": "uint256[]"
        }
      ],
      "name": "_setMarketSupplyCaps",
      "outputs": [],
      "payable": false,
      "stateMutability": "nonpayable",
      "type": "function"
    },
    {
      "constant": false,
      "inputs": [
        {
          "internalType": "address",
          "name": "newPauseGuardian",
          "type": "address"
        }
      ],
      "name": "_setPauseGuardian",
      "outputs": [
        {
          "internalType": "uint256",
          "name": "",
          "type": "uint256"
        }
      ],
      "payable": false,
      "stateMutability": "nonpayable",
      "type": "function"
    },
    {
      "constant": false,
      "inputs": [
        {
          "internalType": "contract PriceOracle",
          "name": "newOracle",
          "type": "address"
        }
      ],
      "name": "_setPriceOracle",
      "outputs": [
        {
          "internalType": "uint256",
          "name": "",
          "type": "uint256"
        }
      ],
      "payable": false,
      "stateMutability": "nonpayable",
      "type": "function"
    },
    {
      "constant": false,
      "inputs": [
        {
          "internalType": "contract IPrime",
          "name": "_prime",
          "type": "address"
        }
      ],
      "name": "_setPrimeToken",
      "outputs": [
        {
          "internalType": "uint256",
          "name": "",
          "type": "uint256"
        }
      ],
      "payable": false,
      "stateMutability": "nonpayable",
      "type": "function"
    },
    {
      "constant": false,
      "inputs": [
        {
          "internalType": "bool",
          "name": "state",
          "type": "bool"
        }
      ],
      "name": "_setProtocolPaused",
      "outputs": [
        {
          "internalType": "bool",
          "name": "",
          "type": "bool"
        }
      ],
      "payable": false,
      "stateMutability": "nonpayable",
      "type": "function"
    },
    {
      "constant": false,
      "inputs": [
        {
          "internalType": "address",
          "name": "newTreasuryGuardian",
          "type": "address"
        },
        {
          "internalType": "address",
          "name": "newTreasuryAddress",
          "type": "address"
        },
        {
          "internalType": "uint256",
          "name": "newTreasuryPercent",
          "type": "uint256"
        }
      ],
      "name": "_setTreasuryData",
      "outputs": [
        {
          "internalType": "uint256",
          "name": "",
          "type": "uint256"
        }
      ],
      "payable": false,
      "stateMutability": "nonpayable",
      "type": "function"
    },
    {
      "constant": false,
      "inputs": [
        {
          "internalType": "contract VAIControllerInterface",
          "name": "vaiController_",
          "type": "address"
        }
      ],
      "name": "_setVAIController",
      "outputs": [
        {
          "internalType": "uint256",
          "name": "",
          "type": "uint256"
        }
      ],
      "payable": false,
      "stateMutability": "nonpayable",
      "type": "function"
    },
    {
      "constant": false,
      "inputs": [
        {
          "internalType": "uint256",
          "name": "newVAIMintRate",
          "type": "uint256"
        }
      ],
      "name": "_setVAIMintRate",
      "outputs": [
        {
          "internalType": "uint256",
          "name": "",
          "type": "uint256"
        }
      ],
      "payable": false,
      "stateMutability": "nonpayable",
      "type": "function"
    },
    {
      "constant": false,
      "inputs": [
        {
          "internalType": "address",
          "name": "vault_",
          "type": "address"
        },
        {
          "internalType": "uint256",
          "name": "releaseStartBlock_",
          "type": "uint256"
        },
        {
          "internalType": "uint256",
          "name": "minReleaseAmount_",
          "type": "uint256"
        }
      ],
      "name": "_setVAIVaultInfo",
      "outputs": [],
      "payable": false,
      "stateMutability": "nonpayable",
      "type": "function"
    },
    {
      "constant": false,
      "inputs": [
        {
          "internalType": "uint256",
          "name": "venusVAIVaultRate_",
          "type": "uint256"
        }
      ],
      "name": "_setVenusVAIVaultRate",
      "outputs": [],
      "payable": false,
      "stateMutability": "nonpayable",
      "type": "function"
    },
    {
      "constant": false,
      "inputs": [
        {
          "internalType": "address",
          "name": "xvs_",
          "type": "address"
        }
      ],
      "name": "_setXVSToken",
      "outputs": [],
      "payable": false,
      "stateMutability": "nonpayable",
      "type": "function"
    },
    {
      "constant": false,
      "inputs": [
        {
          "internalType": "address",
          "name": "xvsVToken_",
          "type": "address"
        }
      ],
      "name": "_setXVSVToken",
      "outputs": [],
      "payable": false,
      "stateMutability": "nonpayable",
      "type": "function"
    },
    {
      "constant": true,
      "inputs": [
        {
          "internalType": "address",
          "name": "",
          "type": "address"
        },
        {
          "internalType": "uint256",
          "name": "",
          "type": "uint256"
        }
      ],
      "name": "accountAssets",
      "outputs": [
        {
          "internalType": "contract VToken",
          "name": "",
          "type": "address"
        }
      ],
      "payable": false,
      "stateMutability": "view",
      "type": "function"
    },
    {
      "constant": true,
      "inputs": [
        {
          "internalType": "address",
          "name": "market",
          "type": "address"
        },
        {
          "internalType": "enum ComptrollerTypes.Action",
          "name": "action",
          "type": "uint8"
        }
      ],
      "name": "actionPaused",
      "outputs": [
        {
          "internalType": "bool",
          "name": "",
          "type": "bool"
        }
      ],
      "payable": false,
      "stateMutability": "view",
      "type": "function"
    },
    {
      "constant": true,
      "inputs": [],
      "name": "admin",
      "outputs": [
        {
          "internalType": "address",
          "name": "",
          "type": "address"
        }
      ],
      "payable": false,
      "stateMutability": "view",
      "type": "function"
    },
    {
      "constant": true,
      "inputs": [
        {
          "internalType": "uint256",
          "name": "",
          "type": "uint256"
        }
      ],
      "name": "allMarkets",
      "outputs": [
        {
          "internalType": "contract VToken",
          "name": "",
          "type": "address"
        }
      ],
      "payable": false,
      "stateMutability": "view",
      "type": "function"
    },
    {
      "constant": true,
      "inputs": [
        {
          "internalType": "address",
          "name": "",
          "type": "address"
        },
        {
          "internalType": "address",
          "name": "",
          "type": "address"
        }
      ],
      "name": "approvedDelegates",
      "outputs": [
        {
          "internalType": "bool",
          "name": "",
          "type": "bool"
        }
      ],
      "payable": false,
      "stateMutability": "view",
      "type": "function"
    },
    {
      "constant": true,
      "inputs": [],
      "name": "borrowCapGuardian",
      "outputs": [
        {
          "internalType": "address",
          "name": "",
          "type": "address"
        }
      ],
      "payable": false,
      "stateMutability": "view",
      "type": "function"
    },
    {
      "constant": true,
      "inputs": [
        {
          "internalType": "address",
          "name": "",
          "type": "address"
        }
      ],
      "name": "borrowCaps",
      "outputs": [
        {
          "internalType": "uint256",
          "name": "",
          "type": "uint256"
        }
      ],
      "payable": false,
      "stateMutability": "view",
      "type": "function"
    },
    {
      "constant": true,
      "inputs": [],
      "name": "closeFactorMantissa",
      "outputs": [
        {
          "internalType": "uint256",
          "name": "",
          "type": "uint256"
        }
      ],
      "payable": false,
      "stateMutability": "view",
      "type": "function"
    },
    {
      "constant": true,
      "inputs": [],
      "name": "comptrollerImplementation",
      "outputs": [
        {
          "internalType": "address",
          "name": "",
          "type": "address"
        }
      ],
      "payable": false,
      "stateMutability": "view",
      "type": "function"
    },
    {
      "constant": true,
      "inputs": [],
      "name": "comptrollerLens",
      "outputs": [
        {
          "internalType": "contract ComptrollerLensInterface",
          "name": "",
          "type": "address"
        }
      ],
      "payable": false,
      "stateMutability": "view",
      "type": "function"
    },
    {
      "constant": true,
      "inputs": [],
      "name": "getXVSAddress",
      "outputs": [
        {
          "internalType": "address",
          "name": "",
          "type": "address"
        }
      ],
      "payable": false,
      "stateMutability": "view",
      "type": "function"
    },
    {
      "constant": true,
      "inputs": [
        {
          "internalType": "address",
          "name": "",
          "type": "address"
        }
      ],
      "name": "isForcedLiquidationEnabled",
      "outputs": [
        {
          "internalType": "bool",
          "name": "",
          "type": "bool"
        }
      ],
      "payable": false,
      "stateMutability": "view",
      "type": "function"
    },
    {
      "constant": true,
      "inputs": [
        {
          "internalType": "address",
          "name": "",
          "type": "address"
        },
        {
          "internalType": "address",
          "name": "",
          "type": "address"
        }
      ],
      "name": "isForcedLiquidationEnabledForUser",
      "outputs": [
        {
          "internalType": "bool",
          "name": "",
          "type": "bool"
        }
      ],
      "payable": false,
      "stateMutability": "view",
      "type": "function"
    },
    {
      "constant": true,
      "inputs": [],
      "name": "liquidationIncentiveMantissa",
      "outputs": [
        {
          "internalType": "uint256",
          "name": "",
          "type": "uint256"
        }
      ],
      "payable": false,
      "stateMutability": "view",
      "type": "function"
    },
    {
      "constant": true,
      "inputs": [],
      "name": "liquidatorContract",
      "outputs": [
        {
          "internalType": "address",
          "name": "",
          "type": "address"
        }
      ],
      "payable": false,
      "stateMutability": "view",
      "type": "function"
    },
    {
      "constant": true,
      "inputs": [
        {
          "internalType": "address",
          "name": "",
          "type": "address"
        }
      ],
      "name": "markets",
      "outputs": [
        {
          "internalType": "bool",
          "name": "isListed",
          "type": "bool"
        },
        {
          "internalType": "uint256",
          "name": "collateralFactorMantissa",
          "type": "uint256"
        },
        {
          "internalType": "bool",
          "name": "isVenus",
          "type": "bool"
        }
      ],
      "payable": false,
      "stateMutability": "view",
      "type": "function"
    },
    {
      "constant": true,
      "inputs": [],
      "name": "maxAssets",
      "outputs": [
        {
          "internalType": "uint256",
          "name": "",
          "type": "uint256"
        }
      ],
      "payable": false,
      "stateMutability": "view",
      "type": "function"
    },
    {
      "constant": true,
      "inputs": [],
      "name": "minReleaseAmount",
      "outputs": [
        {
          "internalType": "uint256",
          "name": "",
          "type": "uint256"
        }
      ],
      "payable": false,
      "stateMutability": "view",
      "type": "function"
    },
    {
      "constant": true,
      "inputs": [],
      "name": "mintVAIGuardianPaused",
      "outputs": [
        {
          "internalType": "bool",
          "name": "",
          "type": "bool"
        }
      ],
      "payable": false,
      "stateMutability": "view",
      "type": "function"
    },
    {
      "constant": true,
      "inputs": [
        {
          "internalType": "address",
          "name": "",
          "type": "address"
        }
      ],
      "name": "mintedVAIs",
      "outputs": [
        {
          "internalType": "uint256",
          "name": "",
          "type": "uint256"
        }
      ],
      "payable": false,
      "stateMutability": "view",
      "type": "function"
    },
    {
      "constant": true,
      "inputs": [],
      "name": "oracle",
      "outputs": [
        {
          "internalType": "contract PriceOracle",
          "name": "",
          "type": "address"
        }
      ],
      "payable": false,
      "stateMutability": "view",
      "type": "function"
    },
    {
      "constant": true,
      "inputs": [],
      "name": "pauseGuardian",
      "outputs": [
        {
          "internalType": "address",
          "name": "",
          "type": "address"
        }
      ],
      "payable": false,
      "stateMutability": "view",
      "type": "function"
    },
    {
      "constant": true,
      "inputs": [],
      "name": "pendingAdmin",
      "outputs": [
        {
          "internalType": "address",
          "name": "",
          "type": "address"
        }
      ],
      "payable": false,
      "stateMutability": "view",
      "type": "function"
    },
    {
      "constant": true,
      "inputs": [],
      "name": "pendingComptrollerImplementation",
      "outputs": [
        {
          "internalType": "address",
          "name": "",
          "type": "address"
        }
      ],
      "payable": false,
      "stateMutability": "view",
      "type": "function"
    },
    {
      "constant": true,
      "inputs": [],
      "name": "prime",
      "outputs": [
        {
          "internalType": "contract IPrime",
          "name": "",
          "type": "address"
        }
      ],
      "payable": false,
      "stateMutability": "view",
      "type": "function"
    },
    {
      "constant": true,
      "inputs": [],
      "name": "protocolPaused",
      "outputs": [
        {
          "internalType": "bool",
          "name": "",
          "type": "bool"
        }
      ],
      "payable": false,
      "stateMutability": "view",
      "type": "function"
    },
    {
      "constant": true,
      "inputs": [],
      "name": "releaseStartBlock",
      "outputs": [
        {
          "internalType": "uint256",
          "name": "",
          "type": "uint256"
        }
      ],
      "payable": false,
      "stateMutability": "view",
      "type": "function"
    },
    {
      "constant": true,
      "inputs": [],
      "name": "repayVAIGuardianPaused",
      "outputs": [
        {
          "internalType": "bool",
          "name": "",
          "type": "bool"
        }
      ],
      "payable": false,
      "stateMutability": "view",
      "type": "function"
    },
    {
      "constant": false,
      "inputs": [
        {
          "internalType": "address",
          "name": "owner",
          "type": "address"
        },
        {
          "internalType": "uint256",
          "name": "amount",
          "type": "uint256"
        }
      ],
      "name": "setMintedVAIOf",
      "outputs": [
        {
          "internalType": "uint256",
          "name": "",
          "type": "uint256"
        }
      ],
      "payable": false,
      "stateMutability": "nonpayable",
      "type": "function"
    },
    {
      "constant": true,
      "inputs": [
        {
          "internalType": "address",
          "name": "",
          "type": "address"
        }
      ],
      "name": "supplyCaps",
      "outputs": [
        {
          "internalType": "uint256",
          "name": "",
          "type": "uint256"
        }
      ],
      "payable": false,
      "stateMutability": "view",
      "type": "function"
    },
    {
      "constant": true,
      "inputs": [],
      "name": "treasuryAddress",
      "outputs": [
        {
          "internalType": "address",
          "name": "",
          "type": "address"
        }
      ],
      "payable": false,
      "stateMutability": "view",
      "type": "function"
    },
    {
      "constant": true,
      "inputs": [],
      "name": "treasuryGuardian",
      "outputs": [
        {
          "internalType": "address",
          "name": "",
          "type": "address"
        }
      ],
      "payable": false,
      "stateMutability": "view",
      "type": "function"
    },
    {
      "constant": true,
      "inputs": [],
      "name": "treasuryPercent",
      "outputs": [
        {
          "internalType": "uint256",
          "name": "",
          "type": "uint256"
        }
      ],
      "payable": false,
      "stateMutability": "view",
      "type": "function"
    },
    {
      "constant": true,
      "inputs": [],
      "name": "vaiController",
      "outputs": [
        {
          "internalType": "contract VAIControllerInterface",
          "name": "",
          "type": "address"
        }
      ],
      "payable": false,
      "stateMutability": "view",
      "type": "function"
    },
    {
      "constant": true,
      "inputs": [],
      "name": "vaiMintRate",
      "outputs": [
        {
          "internalType": "uint256",
          "name": "",
          "type": "uint256"
        }
      ],
      "payable": false,
      "stateMutability": "view",
      "type": "function"
    },
    {
      "constant": true,
      "inputs": [],
      "name": "vaiVaultAddress",
      "outputs": [
        {
          "internalType": "address",
          "name": "",
          "type": "address"
        }
      ],
      "payable": false,
      "stateMutability": "view",
      "type": "function"
    },
    {
      "constant": true,
      "inputs": [
        {
          "internalType": "address",
          "name": "",
          "type": "address"
        }
      ],
      "name": "venusAccrued",
      "outputs": [
        {
          "internalType": "uint256",
          "name": "",
          "type": "uint256"
        }
      ],
      "payable": false,
      "stateMutability": "view",
      "type": "function"
    },
    {
      "constant": true,
      "inputs": [
        {
          "internalType": "address",
          "name": "",
          "type": "address"
        }
      ],
      "name": "venusBorrowSpeeds",
      "outputs": [
        {
          "internalType": "uint256",
          "name": "",
          "type": "uint256"
        }
      ],
      "payable": false,
      "stateMutability": "view",
      "type": "function"
    },
    {
      "constant": true,
      "inputs": [
        {
          "internalType": "address",
          "name": "",
          "type": "address"
        }
      ],
      "name": "venusBorrowState",
      "outputs": [
        {
          "internalType": "uint224",
          "name": "index",
          "type": "uint224"
        },
        {
          "internalType": "uint32",
          "name": "block",
          "type": "uint32"
        }
      ],
      "payable": false,
      "stateMutability": "view",
      "type": "function"
    },
    {
      "constant": true,
      "inputs": [
        {
          "internalType": "address",
          "name": "",
          "type": "address"
        },
        {
          "internalType": "address",
          "name": "",
          "type": "address"
        }
      ],
      "name": "venusBorrowerIndex",
      "outputs": [
        {
          "internalType": "uint256",
          "name": "",
          "type": "uint256"
        }
      ],
      "payable": false,
      "stateMutability": "view",
      "type": "function"
    },
    {
      "constant": true,
      "inputs": [],
      "name": "venusInitialIndex",
      "outputs": [
        {
          "internalType": "uint224",
          "name": "",
          "type": "uint224"
        }
      ],
      "payable": false,
      "stateMutability": "view",
      "type": "function"
    },
    {
      "constant": true,
      "inputs": [
        {
          "internalType": "address",
          "name": "",
          "type": "address"
        },
        {
          "internalType": "address",
          "name": "",
          "type": "address"
        }
      ],
      "name": "venusSupplierIndex",
      "outputs": [
        {
          "internalType": "uint256",
          "name": "",
          "type": "uint256"
        }
      ],
      "payable": false,
      "stateMutability": "view",
      "type": "function"
    },
    {
      "constant": true,
      "inputs": [
        {
          "internalType": "address",
          "name": "",
          "type": "address"
        }
      ],
      "name": "venusSupplySpeeds",
      "outputs": [
        {
          "internalType": "uint256",
          "name": "",
          "type": "uint256"
        }
      ],
      "payable": false,
      "stateMutability": "view",
      "type": "function"
    },
    {
      "constant": true,
      "inputs": [
        {
          "internalType": "address",
          "name": "",
          "type": "address"
        }
      ],
      "name": "venusSupplyState",
      "outputs": [
        {
          "internalType": "uint224",
          "name": "index",
          "type": "uint224"
        },
        {
          "internalType": "uint32",
          "name": "block",
          "type": "uint32"
        }
      ],
      "payable": false,
      "stateMutability": "view",
      "type": "function"
    },
    {
      "constant": true,
      "inputs": [],
      "name": "venusVAIVaultRate",
      "outputs": [
        {
          "internalType": "uint256",
          "name": "",
          "type": "uint256"
        }
      ],
      "payable": false,
      "stateMutability": "view",
      "type": "function"
    }
  ],
  "transactionHash": "0xdd8c338e796fbd446f774345cdc681b03f79ed1d8fa60c27c683f5d8299095b8",
  "args": [],
  "numDeployments": 2,
  "solcInputHash": "506bbeed5e5814c0309e06940945462d",
  "bytecode": "0x608060405234801561001057600080fd5b506130ee806100206000396000f3fe608060405234801561001057600080fd5b50600436106103f15760003560e01c80637dc0d1d011610215578063bf32442d11610125578063e37d4b79116100b8578063f445d70311610087578063f445d70314610cdf578063f519fc3014610d0d578063f851a44014610d33578063fa6331d814610d3b578063fd51a3ad14610d43576103f1565b8063e37d4b7914610c56578063e4028eee14610c7c578063e85a296014610ca8578063e875544614610cd7576103f1565b8063d24febad116100f4578063d24febad14610be4578063d3270f9914610c1a578063dce1544914610c22578063dcfbc0c714610c4e576103f1565b8063bf32442d14610ba8578063c5b4db5514610bb0578063c5f956af14610bd4578063c7ee005e14610bdc576103f1565b80639bb27d62116101a8578063b8324c7c11610177578063b8324c7c14610afe578063bb82aa5e14610b4c578063bb85745014610b54578063bbb8864a14610b7a578063bec04f7214610ba0576103f1565b80639bb27d6214610aa25780639bf34cbb14610aaa5780639cfdd9e614610ad0578063b2eafc3914610af6576103f1565b8063919a3736116101e4578063919a373614610a465780639254f5e514610a6c5780639460c8b514610a7457806394b2294b14610a9a576103f1565b80637dc0d1d0146109aa5780638a7dc165146109b25780638c1ac18a146109d85780638e8f294b146109fe576103f1565b8063425fad581161031057806352d84d1e116102a3578063607ef6c111610272578063607ef6c1146108b75780636662c7c914610975578063719f701b14610992578063765513831461099a5780637d172bd5146109a2576103f1565b806352d84d1e1461082857806355ee1fe1146108455780635dd3fc9d1461086b5780635f5af1aa14610891576103f1565b80634ef233fc116102df5780634ef233fc146106f95780634fd42e171461071f57806351a485e41461073c578063522c656b146107fa576103f1565b8063425fad58146106915780634a584432146106995780634ada90af146106bf5780634e0853db146106c7576103f1565b806326782247116103885780632ec04124116103575780632ec0412414610621578063317b0b771461063e5780634088c73e1461065b57806341a18d2c14610663576103f1565b806326782247146105145780632a6a60651461051c5780632b5d790c1461053b5780632bc7e29e146105fb576103f1565b806310b98338116103c457806310b983381461046c57806317db2163146104ae57806321af4569146104e857806324a3d6221461050c576103f1565b806302c3bcbb146103f657806304ef9d581461042e57806308e0225c146104365780630db4b4e514610464575b600080fd5b61041c6004803603602081101561040c57600080fd5b50356001600160a01b0316610d6f565b60408051918252519081900360200190f35b61041c610d81565b61041c6004803603604081101561044c57600080fd5b506001600160a01b0381358116916020013516610d87565b61041c610da4565b61049a6004803603604081101561048257600080fd5b506001600160a01b0381358116916020013516610daa565b604080519115158252519081900360200190f35b6104e6600480360360608110156104c457600080fd5b506001600160a01b038135811691602081013590911690604001351515610dca565b005b6104f0610e8f565b604080516001600160a01b039092168252519081900360200190f35b6104f0610e9e565b6104f0610ead565b61049a6004803603602081101561053257600080fd5b50351515610ebc565b6104e66004803603606081101561055157600080fd5b810190602081018135600160201b81111561056b57600080fd5b82018360208201111561057d57600080fd5b803590602001918460208302840111600160201b8311171561059e57600080fd5b919390929091602081019035600160201b8111156105bb57600080fd5b8201836020820111156105cd57600080fd5b803590602001918460208302840111600160201b831117156105ee57600080fd5b9193509150351515610f4e565b61041c6004803603602081101561061157600080fd5b50356001600160a01b0316610fea565b61041c6004803603602081101561063757600080fd5b5035610ffc565b61041c6004803603602081101561065457600080fd5b503561109e565b61049a6111c8565b61041c6004803603604081101561067957600080fd5b506001600160a01b03813581169160200135166111d1565b61049a6111ee565b61041c600480360360208110156106af57600080fd5b50356001600160a01b03166111fd565b61041c61120f565b6104e6600480360360608110156106dd57600080fd5b506001600160a01b038135169060208101359060400135611215565b6104e66004803603602081101561070f57600080fd5b50356001600160a01b03166112fa565b61041c6004803603602081101561073557600080fd5b5035611434565b6104e66004803603604081101561075257600080fd5b810190602081018135600160201b81111561076c57600080fd5b82018360208201111561077e57600080fd5b803590602001918460208302840111600160201b8311171561079f57600080fd5b919390929091602081019035600160201b8111156107bc57600080fd5b8201836020820111156107ce57600080fd5b803590602001918460208302840111600160201b831117156107ef57600080fd5b509092509050611538565b6104e66004803603604081101561081057600080fd5b506001600160a01b038135169060200135151561168b565b6104f06004803603602081101561083e57600080fd5b5035611742565b61041c6004803603602081101561085b57600080fd5b50356001600160a01b0316611769565b61041c6004803603602081101561088157600080fd5b50356001600160a01b0316611834565b61041c600480360360208110156108a757600080fd5b50356001600160a01b0316611846565b6104e6600480360360408110156108cd57600080fd5b810190602081018135600160201b8111156108e757600080fd5b8201836020820111156108f957600080fd5b803590602001918460208302840111600160201b8311171561091a57600080fd5b919390929091602081019035600160201b81111561093757600080fd5b82018360208201111561094957600080fd5b803590602001918460208302840111600160201b8311171561096a57600080fd5b509092509050611911565b6104e66004803603602081101561098b57600080fd5b5035611a5b565b61041c611b0c565b61049a611b12565b6104f0611b20565b6104f0611b2f565b61041c600480360360208110156109c857600080fd5b50356001600160a01b0316611b3e565b61049a600480360360208110156109ee57600080fd5b50356001600160a01b0316611b50565b610a2460048036036020811015610a1457600080fd5b50356001600160a01b0316611b65565b6040805193151584526020840192909252151582820152519081900360600190f35b6104e660048036036020811015610a5c57600080fd5b50356001600160a01b0316611b8b565b6104f0611bf8565b61041c60048036036020811015610a8a57600080fd5b50356001600160a01b0316611c07565b61041c611c82565b6104f0611c88565b61041c60048036036020811015610ac057600080fd5b50356001600160a01b0316611c97565b61041c60048036036020811015610ae657600080fd5b50356001600160a01b0316611d61565b6104f0611e2c565b610b2460048036036020811015610b1457600080fd5b50356001600160a01b0316611e3b565b604080516001600160e01b03909316835263ffffffff90911660208301528051918290030190f35b6104f0611e65565b6104e660048036036020811015610b6a57600080fd5b50356001600160a01b0316611e74565b61041c60048036036020811015610b9057600080fd5b50356001600160a01b0316611f3b565b61041c611f4d565b6104f0611f53565b610bb8611f62565b604080516001600160e01b039092168252519081900360200190f35b6104f0611f75565b6104f0611f84565b61041c60048036036060811015610bfa57600080fd5b506001600160a01b03813581169160208101359091169060400135611f93565b6104f0612112565b6104f060048036036040811015610c3857600080fd5b506001600160a01b038135169060200135612121565b6104f0612156565b610b2460048036036020811015610c6c57600080fd5b50356001600160a01b0316612165565b61041c60048036036040811015610c9257600080fd5b506001600160a01b03813516906020013561218f565b61049a60048036036040811015610cbe57600080fd5b5080356001600160a01b0316906020013560ff1661238d565b61041c6123cf565b61049a60048036036040811015610cf557600080fd5b506001600160a01b03813581169160200135166123d5565b61041c60048036036020811015610d2357600080fd5b50356001600160a01b03166123f5565b6104f06124c0565b61041c6124cf565b61041c60048036036040811015610d5957600080fd5b506001600160a01b0381351690602001356124d5565b60276020526000908152604090205481565b60225481565b601360209081526000928352604080842090915290825290205481565b601d5481565b602c60209081526000928352604080842090915290825290205460ff1681565b610deb604051806060016040528060328152602001612f3860329139612582565b6015546001600160a01b03838116911614610e21576001600160a01b0382166000908152600960205260409020610e21906126a6565b6001600160a01b03838116600081815260326020908152604080832094871680845294825291829020805460ff1916861515908117909155825190815291517fc080966e9e93529edc1b244180c245bc60f3d86f1e690a17651a5e428746a8cd9281900390910190a3505050565b601e546001600160a01b031681565b600a546001600160a01b031681565b6001546001600160a01b031681565b6000610efc6040518060400160405280601881526020017f5f73657450726f746f636f6c50617573656428626f6f6c290000000000000000815250612582565b6018805483151562010000810262ff0000199092169190911790915560408051918252517fd7500633dd3ddd74daa7af62f8c8404c7fe4a81da179998db851696bed004b389181900360200190a15090565b610f6f604051806060016040528060298152602001612f9460299139612582565b838260005b82811015610fe05760005b82811015610fd757610fcf898984818110610f9657fe5b905060200201356001600160a01b0316888884818110610fb257fe5b90506020020135600881118015610fc857600080fd5b50876126f0565b600101610f7f565b50600101610f74565b5050505050505050565b60166020526000908152604090205481565b60006017548280821415611045576040805162461bcd60e51b815260206004820152601e6024820152600080516020613053833981519152604482015290519081900360640190fd5b61104d6127a8565b6017805490859055604080518281526020810187905281517f73747d68b346dce1e932bcd238282e7ac84c01569e1f8d0469c222fdc6e9d5a4929181900390910190a160005b9350505b5050919050565b600060055482808214156110e7576040805162461bcd60e51b815260206004820152601e6024820152600080516020613053833981519152604482015290519081900360640190fd5b6110ef6127a8565b6110f7612f24565b50604080516020810190915284815261110e612f24565b506040805160208101909152670c7d713b49da0000815261112d612f24565b50604080516020810190915266b1a2bc2ec50000815261114d82846127fa565b8061115d575061115d8184612801565b156111775761116d600580612808565b9550505050611097565b600580549088905560408051828152602081018a905281517f3b9670cf975d26958e754b57098eaa2ac914d8d2a31b83257997b9f346110fd9929181900390910190a1600098975050505050505050565b60185460ff1681565b601260209081526000928352604080842090915290825290205481565b60185462010000900460ff1681565b601f6020526000908152604090205481565b60065481565b601b546001600160a01b0390811690849081168214156112665760405162461bcd60e51b81526004018080602001828103825260228152602001806130736022913960400191505060405180910390fd5b61126e6127a8565b6112778561286e565b601b546001600160a01b031615611290576112906128c1565b601b80546001600160a01b0319166001600160a01b038716908117909155601c859055601d849055604080518681526020810186905281517f7059037d74ee16b0fb06a4a30f3348dd2635f301f92e373c92899a25a522ef6e929181900390910190a25050505050565b6113026127a8565b61130b8161286e565b6000816001600160a01b0316636f307dc36040518163ffffffff1660e01b815260040160206040518083038186803b15801561134657600080fd5b505afa15801561135a573d6000803e3d6000fd5b505050506040513d602081101561137057600080fd5b50516033549091506001600160a01b038083169116146113d7576040805162461bcd60e51b815260206004820152601a60248201527f696e76616c6964207876732076746f6b656e2061646472657373000000000000604482015290519081900360640190fd5b6034546040516001600160a01b038085169216907f2565e1579c0926afb7113edbfd85373e85cadaa3e0346f04de19686a2bb86ed190600090a350603480546001600160a01b0319166001600160a01b0392909216919091179055565b6000600654828082141561147d576040805162461bcd60e51b815260206004820152601e6024820152600080516020613053833981519152604482015290519081900360640190fd5b61149e604051806060016040528060218152602001612fbd60219139612582565b670de0b6b3a76400008410156114ee576040805162461bcd60e51b815260206004820152601060248201526f0d2dcc6cadce8d2ecca40784062ca62760831b604482015290519081900360640190fd5b6006805490859055604080518281526020810187905281517faeba5a6c40a8ac138134bff1aaa65debf25971188a58804bad717f82f0ec1316929181900390910190a16000611093565b611559604051806060016040528060298152602001612fde60299139612582565b8281811580159061156957508082145b6115aa576040805162461bcd60e51b815260206004820152600d60248201526c1a5b9d985b1a59081a5b9c1d5d609a1b604482015290519081900360640190fd5b60005b82811015611682578484828181106115c157fe5b90506020020135602760008989858181106115d857fe5b905060200201356001600160a01b03166001600160a01b03166001600160a01b031681526020019081526020016000208190555086868281811061161857fe5b905060200201356001600160a01b03166001600160a01b03167f9e0ad9cee10bdf36b7fbd38910c0bdff0f275ace679b45b922381c2723d676f886868481811061165e57fe5b905060200201356040518082815260200191505060405180910390a26001016115ad565b50505050505050565b6116ac60405180606001604052806023815260200161300760239139612582565b6015546001600160a01b038381169116146116e2576001600160a01b03821660009081526009602052604090206116e2906126a6565b6001600160a01b0382166000818152602d6020908152604091829020805460ff1916851515908117909155825190815291517f03561d5280ebb02280893b1d60978e4a27e7654a149c5d0e7c2cf65389ce16949281900390910190a25050565b600d818154811061174f57fe5b6000918252602090912001546001600160a01b0316905081565b6004546000906001600160a01b0390811690839081168214156117bd5760405162461bcd60e51b81526004018080602001828103825260228152602001806130736022913960400191505060405180910390fd5b6117c56127a8565b6117ce8461286e565b600480546001600160a01b038681166001600160a01b0319831681179093556040805191909216808252602082019390935281517fd52b2b9b7e9ee655fcb95d2e5b9e0c9f69e7ef2b8e9d2d0ea78402d576d22e22929181900390910190a16000611093565b602b6020526000908152604090205481565b600a546000906001600160a01b03908116908390811682141561189a5760405162461bcd60e51b81526004018080602001828103825260228152602001806130736022913960400191505060405180910390fd5b6118a26127a8565b6118ab8461286e565b600a80546001600160a01b038681166001600160a01b0319831681179093556040805191909216808252602082019390935281517f0613b6ee6a04f0d09f390e4d9318894b9f6ac7fd83897cd8d18896ba579c401e929181900390910190a16000611093565b61193260405180606001604052806029815260200161302a60299139612582565b8281811580159061194257508082145b611983576040805162461bcd60e51b815260206004820152600d60248201526c1a5b9d985b1a59081a5b9c1d5d609a1b604482015290519081900360640190fd5b60005b828110156116825784848281811061199a57fe5b90506020020135601f60008989858181106119b157fe5b905060200201356001600160a01b03166001600160a01b03166001600160a01b03168152602001908152602001600020819055508686828181106119f157fe5b905060200201356001600160a01b03166001600160a01b03167f6f1951b2aad10f3fc81b86d91105b413a5b3f847a34bbc5ce1904201b14438f6868684818110611a3757fe5b905060200201356040518082815260200191505060405180910390a2600101611986565b601a548180821415611aa2576040805162461bcd60e51b815260206004820152601e6024820152600080516020613053833981519152604482015290519081900360640190fd5b611aaa6127a8565b601b546001600160a01b031615611ac357611ac36128c1565b601a805490849055604080518281526020810186905281517fe81d4ac15e5afa1e708e66664eddc697177423d950d133bda8262d8885e6da3b929181900390910190a150505050565b601c5481565b601854610100900460ff1681565b601b546001600160a01b031681565b6004546001600160a01b031681565b60146020526000908152604090205481565b602d6020526000908152604090205460ff1681565b60096020526000908152604090208054600182015460039092015460ff91821692911683565b611b936127a8565b611b9c8161286e565b6033546040516001600160a01b038084169216907ffe7fd0d872def0f65050e9f38fc6691d0c192c694a56f09b04bec5fb2ea61f2b90600090a3603380546001600160a01b0319166001600160a01b0392909216919091179055565b6015546001600160a01b031681565b6000611c116127a8565b611c1a8261286e565b603180546001600160a01b038481166001600160a01b0319831681179093556040805191909216808252602082019390935281517fcb20dab7409e4fb972d9adccb39530520b226ce6940d85c9523a499b950b6ea3929181900390910190a160009392505050565b60075481565b6025546001600160a01b031681565b6026546000906001600160a01b039081169083908116821415611ceb5760405162461bcd60e51b81526004018080602001828103825260228152602001806130736022913960400191505060405180910390fd5b611cf36127a8565b611cfc8461286e565b602680546001600160a01b038681166001600160a01b0319831617928390556040805192821680845293909116602083015280517f0f7eb572d1b3053a0a3a33c04151364cf88d163182a5e4e1088cb8e52321e08a9281900390910190a16000611093565b6015546000906001600160a01b039081169083908116821415611db55760405162461bcd60e51b81526004018080602001828103825260228152602001806130736022913960400191505060405180910390fd5b611dbd6127a8565b611dc68461286e565b601580546001600160a01b038681166001600160a01b0319831681179093556040805191909216808252602082019390935281517fe1ddcb2dab8e5b03cfc8c67a0d5861d91d16f7bd2612fd381faf4541d212c9b2929181900390910190a16000611093565b6020546001600160a01b031681565b6010602052600090815260409020546001600160e01b03811690600160e01b900463ffffffff1682565b6002546001600160a01b031681565b6025546001600160a01b039081169082908116821415611ec55760405162461bcd60e51b81526004018080602001828103825260228152602001806130736022913960400191505060405180910390fd5b611ecd6127a8565b611ed68361286e565b602580546001600160a01b038581166001600160a01b0319831681179093556040805191909216808252602082019390935281517fa5ea5616d5f6dbbaa62fdfcf3856723216eed485c394d9e51ec8e6d40e1d1ac1929181900390910190a150505050565b602a6020526000908152604090205481565b60175481565b6033546001600160a01b031690565b6ec097ce7bc90715b34b9f100000000081565b6021546001600160a01b031681565b6031546001600160a01b031681565b602054600090611fab906001600160a01b0316612a88565b670de0b6b3a76400008210611ff9576040805162461bcd60e51b815260206004820152600f60248201526e70657263656e74203e3d203130302560881b604482015290519081900360640190fd5b6120028461286e565b61200b8361286e565b6020805460218054602280546001600160a01b038a81166001600160a01b0319808816821789558b8316908616179095559188905560408051958316808752968601949094528351929091169390927f29f06ea15931797ebaed313d81d100963dc22cb213cb4ce2737b5a62b1a8b1e892918290030190a1604080516001600160a01b0380851682528816602082015281517f8de763046d7b8f08b6c3d03543de1d615309417842bb5d2d62f110f65809ddac929181900390910190a1604080518281526020810187905281517f0893f8f4101baaabbeb513f96761e7a36eb837403c82cc651c292a4abdc94ed7929181900390910190a1600093505050505b9392505050565b6026546001600160a01b031681565b6008602052816000526040600020818154811061213a57fe5b6000918252602090912001546001600160a01b03169150829050565b6003546001600160a01b031681565b6011602052600090815260409020546001600160e01b03811690600160e01b900463ffffffff1682565b6001600160a01b03821660009081526009602052604081206001015482808214156121ef576040805162461bcd60e51b815260206004820152601e6024820152600080516020613053833981519152604482015290519081900360640190fd5b61221060405180606001604052806025815260200161309560259139612582565b6122198561286e565b6001600160a01b038516600090815260096020526040902061223a816126a6565b612242612f24565b506040805160208101909152858152612259612f24565b506040805160208101909152670c7d713b49da0000815261227a81836127fa565b156122955761228b60066008612808565b9550505050612385565b861580159061231e5750600480546040805163fc57d4df60e01b81526001600160a01b038c8116948201949094529051929091169163fc57d4df91602480820192602092909190829003018186803b1580156122f057600080fd5b505afa158015612304573d6000803e3d6000fd5b505050506040513d602081101561231a57600080fd5b5051155b1561232f5761228b600d6009612808565b6001830180549088905560408051828152602081018a905281516001600160a01b038c16927f70483e6592cd5182d45ac970e05bc62cdcc90e9d8ef2c2dbe686cf383bcd7fc5928290030190a260009650505050505b505092915050565b6001600160a01b0382166000908152602960205260408120818360088111156123b257fe5b815260208101919091526040016000205460ff1690505b92915050565b60055481565b603260209081526000928352604080842090915290825290205460ff1681565b6028546000906001600160a01b0390811690839081168214156124495760405162461bcd60e51b81526004018080602001828103825260228152602001806130736022913960400191505060405180910390fd5b6124516127a8565b61245a8461286e565b602880546001600160a01b038681166001600160a01b0319831681179093556040805191909216808252602082019390935281517f0f1eca7612e020f6e4582bcead0573eba4b5f7b56668754c6aed82ef12057dd4929181900390910190a16000611093565b6000546001600160a01b031681565b601a5481565b60006124df612aea565b60185460ff161580156124fa5750601854610100900460ff16155b61253b576040805162461bcd60e51b815260206004820152600d60248201526c159052481a5cc81c185d5cd959609a1b604482015290519081900360640190fd5b6015546001600160a01b0316331461256057612559600e6016612808565b90506123c9565b6001600160a01b03831660009081526016602052604081208390559392505050565b602854604080516318c5e8ab60e01b81523360048201818152602483019384528551604484015285516001600160a01b03909516946318c5e8ab949293879391606490910190602085019080838360005b838110156125eb5781810151838201526020016125d3565b50505050905090810190601f1680156126185780820380516001836020036101000a031916815260200191505b50935050505060206040518083038186803b15801561263657600080fd5b505afa15801561264a573d6000803e3d6000fd5b505050506040513d602081101561266057600080fd5b50516126a3576040805162461bcd60e51b815260206004820152600d60248201526c1858d8d95cdcc819195b9a5959609a1b604482015290519081900360640190fd5b50565b805460ff166126a3576040805162461bcd60e51b81526020600482015260116024820152701b585c9ad95d081b9bdd081b1a5cdd1959607a1b604482015290519081900360640190fd5b6001600160a01b0383166000908152600960205260409020612711906126a6565b6001600160a01b0383166000908152602960205260408120829184600881111561273757fe5b81526020810191909152604001600020805460ff191691151591909117905581600881111561276257fe5b60408051831515815290516001600160a01b038616917f35007a986bcd36d2f73fc7f1b73762e12eadb4406dd163194950fd3b5a6a827d919081900360200190a3505050565b6000546001600160a01b031633146127f8576040805162461bcd60e51b815260206004820152600e60248201526d37b7363c9030b236b4b71031b0b760911b604482015290519081900360640190fd5b565b5190511090565b5190511190565b60007f45b96fe442630264581b197e84bbada861235052c5a1aadfff9ea4e40a969aa083601381111561283757fe5b83601781111561284357fe5b604080519283526020830191909152600082820152519081900360600190a182601381111561210b57fe5b6001600160a01b0381166126a3576040805162461bcd60e51b815260206004820152601560248201527463616e2774206265207a65726f206164647265737360581b604482015290519081900360640190fd5b601c5415806128d85750601c546128d6612b3d565b105b156128e2576127f8565b603354604080516370a0823160e01b815230600482015290516001600160a01b039092169160009183916370a0823191602480820192602092909190829003018186803b15801561293257600080fd5b505afa158015612946573d6000803e3d6000fd5b505050506040513d602081101561295c57600080fd5b505190508061296c5750506127f8565b60008061298261297a612b3d565b601c54612b41565b90506000612992601a5483612b7b565b90508084106129a3578092506129a7565b8392505b601d548310156129bb5750505050506127f8565b6129c3612b3d565b601c55601b546129e6906001600160a01b0387811691168563ffffffff612bbd16565b6040805184815290517ff6d4b8f74d85a6e2d7a50225957b8a6cfec69ad92f5905627260541aa0a5565d9181900360200190a1601b60009054906101000a90046001600160a01b03166001600160a01b031663faa1809e6040518163ffffffff1660e01b8152600401600060405180830381600087803b158015612a6957600080fd5b505af1158015612a7d573d6000803e3d6000fd5b505050505050505050565b6000546001600160a01b0316331480612aa95750336001600160a01b038216145b6126a3576040805162461bcd60e51b815260206004820152600d60248201526c1858d8d95cdcc819195b9a5959609a1b604482015290519081900360640190fd5b60185462010000900460ff16156127f8576040805162461bcd60e51b81526020600482015260126024820152711c1c9bdd1bd8dbdb081a5cc81c185d5cd95960721b604482015290519081900360640190fd5b4390565b600061210b8383604051806040016040528060158152602001747375627472616374696f6e20756e646572666c6f7760581b815250612c14565b600061210b83836040518060400160405280601781526020017f6d756c7469706c69636174696f6e206f766572666c6f77000000000000000000815250612cab565b604080516001600160a01b038416602482015260448082018490528251808303909101815260649091019091526020810180516001600160e01b031663a9059cbb60e01b179052612c0f908490612d2a565b505050565b60008184841115612ca35760405162461bcd60e51b81526004018080602001828103825283818151815260200191508051906020019080838360005b83811015612c68578181015183820152602001612c50565b50505050905090810190601f168015612c955780820380516001836020036101000a031916815260200191505b509250505060405180910390fd5b505050900390565b6000831580612cb8575082155b15612cc55750600061210b565b83830283858281612cd257fe5b04148390612d215760405162461bcd60e51b8152602060048201818152835160248401528351909283926044909101919085019080838360008315612c68578181015183820152602001612c50565b50949350505050565b612d3c826001600160a01b0316612ee8565b612d8d576040805162461bcd60e51b815260206004820152601f60248201527f5361666542455032303a2063616c6c20746f206e6f6e2d636f6e747261637400604482015290519081900360640190fd5b60006060836001600160a01b0316836040518082805190602001908083835b60208310612dcb5780518252601f199092019160209182019101612dac565b6001836020036101000a0380198251168184511680821785525050505050509050019150506000604051808303816000865af19150503d8060008114612e2d576040519150601f19603f3d011682016040523d82523d6000602084013e612e32565b606091505b509150915081612e89576040805162461bcd60e51b815260206004820181905260248201527f5361666542455032303a206c6f772d6c6576656c2063616c6c206661696c6564604482015290519081900360640190fd5b805115612ee257808060200190516020811015612ea557600080fd5b5051612ee25760405162461bcd60e51b815260040180806020018281038252602a815260200180612f6a602a913960400191505060405180910390fd5b50505050565b6000813f7fc5d2460186f7233c927e7db2dcc703c0e500b653ca82273b7bfad8045d85a470818114801590612f1c57508115155b949350505050565b604051806020016040528060008152509056fe5f736574466f726365644c69717569646174696f6e466f725573657228616464726573732c616464726573732c626f6f6c295361666542455032303a204245503230206f7065726174696f6e20646964206e6f7420737563636565645f736574416374696f6e7350617573656428616464726573735b5d2c75696e74385b5d2c626f6f6c295f7365744c69717569646174696f6e496e63656e746976652875696e74323536295f7365744d61726b6574537570706c794361707328616464726573735b5d2c75696e743235365b5d295f736574466f726365644c69717569646174696f6e28616464726573732c626f6f6c295f7365744d61726b6574426f72726f774361707328616464726573735b5d2c75696e743235365b5d296f6c642076616c75652069732073616d65206173206e65772076616c756500006f6c6420616464726573732069732073616d65206173206e657720616464726573735f736574436f6c6c61746572616c466163746f7228616464726573732c75696e7432353629a265627a7a7231582030a79673e4aafa1d3f9a8610481e64d889e0b57fc08bc0757ace53ae4b9ffeae64736f6c63430005100032",
  "devdoc": {
    "author": "Venus",
    "details": "This facet contains all the setters for the states",
    "methods": {
      "_setAccessControl(address)": {
        "details": "Allows the contract admin to set the address of access control of this contract",
        "params": {
          "newAccessControlAddress": "New address for the access control"
        },
        "return": "uint256 0=success, otherwise will revert"
      },
      "_setActionsPaused(address[],uint8[],bool)": {
        "details": "Allows a privileged role to pause/unpause the protocol action state",
        "params": {
          "actions_": "List of action ids to pause/unpause",
          "markets_": "Markets to pause/unpause the actions on",
          "paused_": "The new paused state (true=paused, false=unpaused)"
        }
      },
      "_setCloseFactor(uint256)": {
        "details": "Allows the contract admin to set the closeFactor used to liquidate borrows",
        "params": {
          "newCloseFactorMantissa": "New close factor, scaled by 1e18"
        },
        "return": "uint256 0=success, otherwise will revert"
      },
      "_setCollateralFactor(address,uint256)": {
        "details": "Allows a privileged role to set the collateralFactorMantissa",
        "params": {
          "newCollateralFactorMantissa": "The new collateral factor, scaled by 1e18",
          "vToken": "The market to set the factor on"
        },
        "return": "uint256 0=success, otherwise a failure. (See ErrorReporter for details)"
      },
      "_setComptrollerLens(address)": {
        "details": "Set ComptrollerLens contract address",
        "params": {
          "comptrollerLens_": "The new ComptrollerLens contract address to be set"
        },
        "return": "uint256 0=success, otherwise a failure (see ErrorReporter.sol for details)"
      },
      "_setForcedLiquidation(address,bool)": {
        "details": "Allows a privileged role to set enable/disable forced liquidations",
        "params": {
          "enable": "Whether to enable forced liquidations",
          "vTokenBorrowed": "Borrowed vToken"
        }
      },
      "_setForcedLiquidationForUser(address,address,bool)": {
        "params": {
          "borrower": "The address of the borrower",
          "enable": "Whether to enable forced liquidations",
          "vTokenBorrowed": "Borrowed vToken"
        }
      },
      "_setLiquidationIncentive(uint256)": {
        "details": "Allows a privileged role to set the liquidationIncentiveMantissa",
        "params": {
          "newLiquidationIncentiveMantissa": "New liquidationIncentive scaled by 1e18"
        },
        "return": "uint256 0=success, otherwise a failure. (See ErrorReporter for details)"
      },
      "_setLiquidatorContract(address)": {
        "details": "Allows the contract admin to update the address of liquidator contract",
        "params": {
          "newLiquidatorContract_": "The new address of the liquidator contract"
        }
      },
      "_setMarketBorrowCaps(address[],uint256[])": {
        "details": "Allows a privileged role to set the borrowing cap for a vToken market. A borrow cap of 0 corresponds to unlimited borrowing",
        "params": {
          "newBorrowCaps": "The new borrow cap values in underlying to be set. A value of 0 corresponds to unlimited borrowing",
          "vTokens": "The addresses of the markets (tokens) to change the borrow caps for"
        }
      },
      "_setMarketSupplyCaps(address[],uint256[])": {
        "details": "Allows a privileged role to set the supply cap for a vToken. A supply cap of 0 corresponds to Minting NotAllowed",
        "params": {
          "newSupplyCaps": "The new supply cap values in underlying to be set. A value of 0 corresponds to Minting NotAllowed",
          "vTokens": "The addresses of the markets (tokens) to change the supply caps for"
        }
      },
      "_setPauseGuardian(address)": {
        "details": "Allows the contract admin to change the Pause Guardian",
        "params": {
          "newPauseGuardian": "The address of the new Pause Guardian"
        },
        "return": "uint256 0=success, otherwise a failure. (See enum Error for details)"
      },
      "_setPriceOracle(address)": {
        "details": "Allows the contract admin to set a new price oracle used by the Comptroller",
        "return": "uint256 0=success, otherwise a failure (see ErrorReporter.sol for details)"
      },
      "_setPrimeToken(address)": {
        "return": "uint 0=success, otherwise a failure (see ErrorReporter.sol for details)"
      },
      "_setProtocolPaused(bool)": {
        "details": "Allows a privileged role to pause/unpause protocol",
        "params": {
          "state": "The new state (true=paused, false=unpaused)"
        },
        "return": "bool The updated state of the protocol"
      },
      "_setTreasuryData(address,address,uint256)": {
        "params": {
          "newTreasuryAddress": "The new address of the treasury to be set",
          "newTreasuryGuardian": "The new address of the treasury guardian to be set",
          "newTreasuryPercent": "The new treasury percent to be set"
        },
        "return": "uint256 0=success, otherwise a failure (see ErrorReporter.sol for details)"
      },
      "_setVAIController(address)": {
        "details": "Admin function to set a new VAI controller",
        "return": "uint256 0=success, otherwise a failure (see ErrorReporter.sol for details)"
      },
      "_setVAIMintRate(uint256)": {
        "params": {
          "newVAIMintRate": "The new VAI mint rate to be set"
        },
        "return": "uint256 0=success, otherwise a failure (see ErrorReporter.sol for details)"
      },
      "_setVAIVaultInfo(address,uint256,uint256)": {
        "params": {
          "minReleaseAmount_": "The minimum release amount to VAI Vault",
          "releaseStartBlock_": "The start block of release to VAI Vault",
          "vault_": "The address of the VAI Vault"
        }
      },
      "_setVenusVAIVaultRate(uint256)": {
        "params": {
          "venusVAIVaultRate_": "The amount of XVS wei per block to distribute to VAI Vault"
        }
      },
      "_setXVSToken(address)": {
        "params": {
          "xvs_": "The address of the XVS token"
        }
      },
      "_setXVSVToken(address)": {
        "params": {
          "xvsVToken_": "The address of the XVS vToken"
        }
      },
      "actionPaused(address,uint8)": {
        "params": {
          "action": "Action id",
          "market": "vToken address"
        }
      },
      "getXVSAddress()": {
        "return": "The address of XVS token"
      },
      "setMintedVAIOf(address,uint256)": {
        "params": {
          "amount": "The amount of VAI to set to the account",
          "owner": "The address of the account to set"
        },
        "return": "The number of minted VAI by `owner`"
      }
    },
    "title": "SetterFacet"
  },
  "userdoc": {
    "methods": {
      "_setAccessControl(address)": {
        "notice": "Sets the address of the access control of this contract"
      },
      "_setActionsPaused(address[],uint8[],bool)": {
        "notice": "Pause/unpause certain actions"
      },
      "_setCloseFactor(uint256)": {
        "notice": "Sets the closeFactor used when liquidating borrows"
      },
      "_setCollateralFactor(address,uint256)": {
        "notice": "Sets the collateralFactor for a market"
      },
      "_setForcedLiquidation(address,bool)": {
        "notice": "Enables forced liquidations for a market. If forced liquidation is enabled, borrows in the market may be liquidated regardless of the account liquidity"
      },
      "_setForcedLiquidationForUser(address,address,bool)": {
        "notice": "Enables forced liquidations for user's borrows in a certain market. If forced liquidation is enabled, user's borrows in the market may be liquidated regardless of the account liquidity. Forced liquidation may be enabled for a user even if it is not enabled for the entire market."
      },
      "_setLiquidationIncentive(uint256)": {
        "notice": "Sets liquidationIncentive"
      },
      "_setLiquidatorContract(address)": {
        "notice": "Update the address of the liquidator contract"
      },
      "_setMarketBorrowCaps(address[],uint256[])": {
        "notice": "Set the given borrow caps for the given vToken market Borrowing that brings total borrows to or above borrow cap will revert"
      },
      "_setMarketSupplyCaps(address[],uint256[])": {
        "notice": "Set the given supply caps for the given vToken market Supply that brings total Supply to or above supply cap will revert"
      },
      "_setPauseGuardian(address)": {
        "notice": "Admin function to change the Pause Guardian"
      },
      "_setPriceOracle(address)": {
        "notice": "Sets a new price oracle for the comptroller"
      },
      "_setPrimeToken(address)": {
        "notice": "Sets the prime token contract for the comptroller"
      },
      "_setProtocolPaused(bool)": {
        "notice": "Set whole protocol pause/unpause state"
      },
      "_setTreasuryData(address,address,uint256)": {
        "notice": "Set the treasury data."
      },
      "_setVAIController(address)": {
        "notice": "Sets a new VAI controller"
      },
      "_setVAIMintRate(uint256)": {
        "notice": "Set the VAI mint rate"
      },
      "_setVAIVaultInfo(address,uint256,uint256)": {
        "notice": "Set the VAI Vault infos"
      },
      "_setVenusVAIVaultRate(uint256)": {
        "notice": "Set the amount of XVS distributed per block to VAI Vault"
      },
      "_setXVSToken(address)": {
        "notice": "Set the address of the XVS token"
      },
      "_setXVSVToken(address)": {
        "notice": "Set the address of the XVS vToken"
      },
      "actionPaused(address,uint8)": {
        "notice": "Checks if a certain action is paused on a market"
      },
      "getXVSAddress()": {
        "notice": "Returns the XVS address"
      },
      "setMintedVAIOf(address,uint256)": {
        "notice": "Set the minted VAI amount of the `owner`"
      }
    },
    "notice": "This facet contract contains all the configurational setter functions"
  },
  "storageLayout": {
    "storage": [
      {
        "astId": 2391,
        "contract": "contracts/Comptroller/Diamond/facets/SetterFacet.sol:SetterFacet",
        "label": "admin",
        "offset": 0,
        "slot": "0",
        "type": "t_address"
      },
      {
        "astId": 2393,
        "contract": "contracts/Comptroller/Diamond/facets/SetterFacet.sol:SetterFacet",
        "label": "pendingAdmin",
        "offset": 0,
        "slot": "1",
        "type": "t_address"
      },
      {
        "astId": 2395,
        "contract": "contracts/Comptroller/Diamond/facets/SetterFacet.sol:SetterFacet",
        "label": "comptrollerImplementation",
        "offset": 0,
        "slot": "2",
        "type": "t_address"
      },
      {
        "astId": 2397,
        "contract": "contracts/Comptroller/Diamond/facets/SetterFacet.sol:SetterFacet",
        "label": "pendingComptrollerImplementation",
        "offset": 0,
        "slot": "3",
        "type": "t_address"
      },
      {
        "astId": 2404,
        "contract": "contracts/Comptroller/Diamond/facets/SetterFacet.sol:SetterFacet",
        "label": "oracle",
        "offset": 0,
        "slot": "4",
        "type": "t_contract(PriceOracle)12051"
      },
      {
        "astId": 2406,
        "contract": "contracts/Comptroller/Diamond/facets/SetterFacet.sol:SetterFacet",
        "label": "closeFactorMantissa",
        "offset": 0,
        "slot": "5",
        "type": "t_uint256"
      },
      {
        "astId": 2408,
        "contract": "contracts/Comptroller/Diamond/facets/SetterFacet.sol:SetterFacet",
        "label": "liquidationIncentiveMantissa",
        "offset": 0,
        "slot": "6",
        "type": "t_uint256"
      },
      {
        "astId": 2410,
        "contract": "contracts/Comptroller/Diamond/facets/SetterFacet.sol:SetterFacet",
        "label": "maxAssets",
        "offset": 0,
        "slot": "7",
        "type": "t_uint256"
      },
      {
        "astId": 2415,
        "contract": "contracts/Comptroller/Diamond/facets/SetterFacet.sol:SetterFacet",
        "label": "accountAssets",
        "offset": 0,
        "slot": "8",
        "type": "t_mapping(t_address,t_array(t_contract(VToken)22978)dyn_storage)"
      },
      {
        "astId": 2430,
        "contract": "contracts/Comptroller/Diamond/facets/SetterFacet.sol:SetterFacet",
        "label": "markets",
        "offset": 0,
        "slot": "9",
        "type": "t_mapping(t_address,t_struct(Market)2426_storage)"
      },
      {
        "astId": 2432,
        "contract": "contracts/Comptroller/Diamond/facets/SetterFacet.sol:SetterFacet",
        "label": "pauseGuardian",
        "offset": 0,
        "slot": "10",
        "type": "t_address"
      },
      {
        "astId": 2434,
        "contract": "contracts/Comptroller/Diamond/facets/SetterFacet.sol:SetterFacet",
        "label": "_mintGuardianPaused",
        "offset": 20,
        "slot": "10",
        "type": "t_bool"
      },
      {
        "astId": 2436,
        "contract": "contracts/Comptroller/Diamond/facets/SetterFacet.sol:SetterFacet",
        "label": "_borrowGuardianPaused",
        "offset": 21,
        "slot": "10",
        "type": "t_bool"
      },
      {
        "astId": 2438,
        "contract": "contracts/Comptroller/Diamond/facets/SetterFacet.sol:SetterFacet",
        "label": "transferGuardianPaused",
        "offset": 22,
        "slot": "10",
        "type": "t_bool"
      },
      {
        "astId": 2440,
        "contract": "contracts/Comptroller/Diamond/facets/SetterFacet.sol:SetterFacet",
        "label": "seizeGuardianPaused",
        "offset": 23,
        "slot": "10",
        "type": "t_bool"
      },
      {
        "astId": 2444,
        "contract": "contracts/Comptroller/Diamond/facets/SetterFacet.sol:SetterFacet",
        "label": "mintGuardianPaused",
        "offset": 0,
        "slot": "11",
        "type": "t_mapping(t_address,t_bool)"
      },
      {
        "astId": 2448,
        "contract": "contracts/Comptroller/Diamond/facets/SetterFacet.sol:SetterFacet",
        "label": "borrowGuardianPaused",
        "offset": 0,
        "slot": "12",
        "type": "t_mapping(t_address,t_bool)"
      },
      {
        "astId": 2456,
        "contract": "contracts/Comptroller/Diamond/facets/SetterFacet.sol:SetterFacet",
        "label": "allMarkets",
        "offset": 0,
        "slot": "13",
        "type": "t_array(t_contract(VToken)22978)dyn_storage"
      },
      {
        "astId": 2458,
        "contract": "contracts/Comptroller/Diamond/facets/SetterFacet.sol:SetterFacet",
        "label": "venusRate",
        "offset": 0,
        "slot": "14",
        "type": "t_uint256"
      },
      {
        "astId": 2462,
        "contract": "contracts/Comptroller/Diamond/facets/SetterFacet.sol:SetterFacet",
        "label": "venusSpeeds",
        "offset": 0,
        "slot": "15",
        "type": "t_mapping(t_address,t_uint256)"
      },
      {
        "astId": 2466,
        "contract": "contracts/Comptroller/Diamond/facets/SetterFacet.sol:SetterFacet",
        "label": "venusSupplyState",
        "offset": 0,
        "slot": "16",
        "type": "t_mapping(t_address,t_struct(VenusMarketState)2453_storage)"
      },
      {
        "astId": 2470,
        "contract": "contracts/Comptroller/Diamond/facets/SetterFacet.sol:SetterFacet",
        "label": "venusBorrowState",
        "offset": 0,
        "slot": "17",
        "type": "t_mapping(t_address,t_struct(VenusMarketState)2453_storage)"
      },
      {
        "astId": 2476,
        "contract": "contracts/Comptroller/Diamond/facets/SetterFacet.sol:SetterFacet",
        "label": "venusSupplierIndex",
        "offset": 0,
        "slot": "18",
        "type": "t_mapping(t_address,t_mapping(t_address,t_uint256))"
      },
      {
        "astId": 2482,
        "contract": "contracts/Comptroller/Diamond/facets/SetterFacet.sol:SetterFacet",
        "label": "venusBorrowerIndex",
        "offset": 0,
        "slot": "19",
        "type": "t_mapping(t_address,t_mapping(t_address,t_uint256))"
      },
      {
        "astId": 2486,
        "contract": "contracts/Comptroller/Diamond/facets/SetterFacet.sol:SetterFacet",
        "label": "venusAccrued",
        "offset": 0,
        "slot": "20",
        "type": "t_mapping(t_address,t_uint256)"
      },
      {
        "astId": 2488,
        "contract": "contracts/Comptroller/Diamond/facets/SetterFacet.sol:SetterFacet",
        "label": "vaiController",
        "offset": 0,
        "slot": "21",
        "type": "t_contract(VAIControllerInterface)15527"
      },
      {
        "astId": 2492,
        "contract": "contracts/Comptroller/Diamond/facets/SetterFacet.sol:SetterFacet",
        "label": "mintedVAIs",
        "offset": 0,
        "slot": "22",
        "type": "t_mapping(t_address,t_uint256)"
      },
      {
        "astId": 2494,
        "contract": "contracts/Comptroller/Diamond/facets/SetterFacet.sol:SetterFacet",
        "label": "vaiMintRate",
        "offset": 0,
        "slot": "23",
        "type": "t_uint256"
      },
      {
        "astId": 2496,
        "contract": "contracts/Comptroller/Diamond/facets/SetterFacet.sol:SetterFacet",
        "label": "mintVAIGuardianPaused",
        "offset": 0,
        "slot": "24",
        "type": "t_bool"
      },
      {
        "astId": 2498,
        "contract": "contracts/Comptroller/Diamond/facets/SetterFacet.sol:SetterFacet",
        "label": "repayVAIGuardianPaused",
        "offset": 1,
        "slot": "24",
        "type": "t_bool"
      },
      {
        "astId": 2500,
        "contract": "contracts/Comptroller/Diamond/facets/SetterFacet.sol:SetterFacet",
        "label": "protocolPaused",
        "offset": 2,
        "slot": "24",
        "type": "t_bool"
      },
      {
        "astId": 2502,
        "contract": "contracts/Comptroller/Diamond/facets/SetterFacet.sol:SetterFacet",
        "label": "venusVAIRate",
        "offset": 0,
        "slot": "25",
        "type": "t_uint256"
      },
      {
        "astId": 2507,
        "contract": "contracts/Comptroller/Diamond/facets/SetterFacet.sol:SetterFacet",
        "label": "venusVAIVaultRate",
        "offset": 0,
        "slot": "26",
        "type": "t_uint256"
      },
      {
        "astId": 2509,
        "contract": "contracts/Comptroller/Diamond/facets/SetterFacet.sol:SetterFacet",
        "label": "vaiVaultAddress",
        "offset": 0,
        "slot": "27",
        "type": "t_address"
      },
      {
        "astId": 2511,
        "contract": "contracts/Comptroller/Diamond/facets/SetterFacet.sol:SetterFacet",
        "label": "releaseStartBlock",
        "offset": 0,
        "slot": "28",
        "type": "t_uint256"
      },
      {
        "astId": 2513,
        "contract": "contracts/Comptroller/Diamond/facets/SetterFacet.sol:SetterFacet",
        "label": "minReleaseAmount",
        "offset": 0,
        "slot": "29",
        "type": "t_uint256"
      },
      {
        "astId": 2518,
        "contract": "contracts/Comptroller/Diamond/facets/SetterFacet.sol:SetterFacet",
        "label": "borrowCapGuardian",
        "offset": 0,
        "slot": "30",
        "type": "t_address"
      },
      {
        "astId": 2522,
        "contract": "contracts/Comptroller/Diamond/facets/SetterFacet.sol:SetterFacet",
        "label": "borrowCaps",
        "offset": 0,
        "slot": "31",
        "type": "t_mapping(t_address,t_uint256)"
      },
      {
        "astId": 2527,
        "contract": "contracts/Comptroller/Diamond/facets/SetterFacet.sol:SetterFacet",
        "label": "treasuryGuardian",
        "offset": 0,
        "slot": "32",
        "type": "t_address"
      },
      {
        "astId": 2529,
        "contract": "contracts/Comptroller/Diamond/facets/SetterFacet.sol:SetterFacet",
        "label": "treasuryAddress",
        "offset": 0,
        "slot": "33",
        "type": "t_address"
      },
      {
        "astId": 2531,
        "contract": "contracts/Comptroller/Diamond/facets/SetterFacet.sol:SetterFacet",
        "label": "treasuryPercent",
        "offset": 0,
        "slot": "34",
        "type": "t_uint256"
      },
      {
        "astId": 2538,
        "contract": "contracts/Comptroller/Diamond/facets/SetterFacet.sol:SetterFacet",
        "label": "venusContributorSpeeds",
        "offset": 0,
        "slot": "35",
        "type": "t_mapping(t_address,t_uint256)"
      },
      {
        "astId": 2542,
        "contract": "contracts/Comptroller/Diamond/facets/SetterFacet.sol:SetterFacet",
        "label": "lastContributorBlock",
        "offset": 0,
        "slot": "36",
        "type": "t_mapping(t_address,t_uint256)"
      },
      {
        "astId": 2547,
        "contract": "contracts/Comptroller/Diamond/facets/SetterFacet.sol:SetterFacet",
        "label": "liquidatorContract",
        "offset": 0,
        "slot": "37",
        "type": "t_address"
      },
      {
        "astId": 2552,
        "contract": "contracts/Comptroller/Diamond/facets/SetterFacet.sol:SetterFacet",
        "label": "comptrollerLens",
        "offset": 0,
        "slot": "38",
        "type": "t_contract(ComptrollerLensInterface)2366"
      },
      {
        "astId": 2559,
        "contract": "contracts/Comptroller/Diamond/facets/SetterFacet.sol:SetterFacet",
        "label": "supplyCaps",
        "offset": 0,
        "slot": "39",
        "type": "t_mapping(t_address,t_uint256)"
      },
      {
        "astId": 2564,
        "contract": "contracts/Comptroller/Diamond/facets/SetterFacet.sol:SetterFacet",
        "label": "accessControl",
        "offset": 0,
        "slot": "40",
        "type": "t_address"
      },
      {
        "astId": 2570,
        "contract": "contracts/Comptroller/Diamond/facets/SetterFacet.sol:SetterFacet",
        "label": "_actionPaused",
        "offset": 0,
        "slot": "41",
        "type": "t_mapping(t_address,t_mapping(t_uint256,t_bool))"
      },
      {
        "astId": 2577,
        "contract": "contracts/Comptroller/Diamond/facets/SetterFacet.sol:SetterFacet",
        "label": "venusBorrowSpeeds",
        "offset": 0,
        "slot": "42",
        "type": "t_mapping(t_address,t_uint256)"
      },
      {
        "astId": 2581,
        "contract": "contracts/Comptroller/Diamond/facets/SetterFacet.sol:SetterFacet",
        "label": "venusSupplySpeeds",
        "offset": 0,
        "slot": "43",
        "type": "t_mapping(t_address,t_uint256)"
      },
      {
        "astId": 2590,
        "contract": "contracts/Comptroller/Diamond/facets/SetterFacet.sol:SetterFacet",
        "label": "approvedDelegates",
        "offset": 0,
        "slot": "44",
        "type": "t_mapping(t_address,t_mapping(t_address,t_bool))"
      },
      {
        "astId": 2597,
        "contract": "contracts/Comptroller/Diamond/facets/SetterFacet.sol:SetterFacet",
        "label": "isForcedLiquidationEnabled",
        "offset": 0,
        "slot": "45",
        "type": "t_mapping(t_address,t_bool)"
      },
      {
        "astId": 2615,
        "contract": "contracts/Comptroller/Diamond/facets/SetterFacet.sol:SetterFacet",
        "label": "_selectorToFacetAndPosition",
        "offset": 0,
        "slot": "46",
        "type": "t_mapping(t_bytes4,t_struct(FacetAddressAndPosition)2605_storage)"
      },
      {
        "astId": 2619,
        "contract": "contracts/Comptroller/Diamond/facets/SetterFacet.sol:SetterFacet",
        "label": "_facetFunctionSelectors",
        "offset": 0,
        "slot": "47",
        "type": "t_mapping(t_address,t_struct(FacetFunctionSelectors)2611_storage)"
      },
      {
        "astId": 2622,
        "contract": "contracts/Comptroller/Diamond/facets/SetterFacet.sol:SetterFacet",
        "label": "_facetAddresses",
        "offset": 0,
        "slot": "48",
        "type": "t_array(t_address)dyn_storage"
      },
      {
        "astId": 2627,
        "contract": "contracts/Comptroller/Diamond/facets/SetterFacet.sol:SetterFacet",
        "label": "prime",
        "offset": 0,
        "slot": "49",
        "type": "t_contract(IPrime)12228"
      },
      {
        "astId": 2636,
        "contract": "contracts/Comptroller/Diamond/facets/SetterFacet.sol:SetterFacet",
        "label": "isForcedLiquidationEnabledForUser",
        "offset": 0,
        "slot": "50",
        "type": "t_mapping(t_address,t_mapping(t_address,t_bool))"
      },
      {
        "astId": 2641,
        "contract": "contracts/Comptroller/Diamond/facets/SetterFacet.sol:SetterFacet",
        "label": "xvs",
        "offset": 0,
        "slot": "51",
        "type": "t_address"
      },
      {
        "astId": 2643,
        "contract": "contracts/Comptroller/Diamond/facets/SetterFacet.sol:SetterFacet",
        "label": "xvsVToken",
        "offset": 0,
        "slot": "52",
        "type": "t_address"
      }
    ],
    "types": {
      "t_address": {
        "encoding": "inplace",
        "label": "address",
        "numberOfBytes": "20"
      },
      "t_array(t_address)dyn_storage": {
        "base": "t_address",
        "encoding": "dynamic_array",
        "label": "address[]",
        "numberOfBytes": "32"
      },
      "t_array(t_bytes4)dyn_storage": {
        "base": "t_bytes4",
        "encoding": "dynamic_array",
        "label": "bytes4[]",
        "numberOfBytes": "32"
      },
      "t_array(t_contract(VToken)22978)dyn_storage": {
        "base": "t_contract(VToken)22978",
        "encoding": "dynamic_array",
        "label": "contract VToken[]",
        "numberOfBytes": "32"
      },
      "t_bool": {
        "encoding": "inplace",
        "label": "bool",
        "numberOfBytes": "1"
      },
      "t_bytes4": {
        "encoding": "inplace",
        "label": "bytes4",
        "numberOfBytes": "4"
      },
      "t_contract(ComptrollerLensInterface)2366": {
        "encoding": "inplace",
        "label": "contract ComptrollerLensInterface",
        "numberOfBytes": "20"
      },
      "t_contract(IPrime)12228": {
        "encoding": "inplace",
        "label": "contract IPrime",
        "numberOfBytes": "20"
      },
      "t_contract(PriceOracle)12051": {
        "encoding": "inplace",
        "label": "contract PriceOracle",
        "numberOfBytes": "20"
      },
      "t_contract(VAIControllerInterface)15527": {
        "encoding": "inplace",
        "label": "contract VAIControllerInterface",
        "numberOfBytes": "20"
      },
      "t_contract(VToken)22978": {
        "encoding": "inplace",
        "label": "contract VToken",
        "numberOfBytes": "20"
      },
      "t_mapping(t_address,t_array(t_contract(VToken)22978)dyn_storage)": {
        "encoding": "mapping",
        "key": "t_address",
        "label": "mapping(address => contract VToken[])",
        "numberOfBytes": "32",
        "value": "t_array(t_contract(VToken)22978)dyn_storage"
      },
      "t_mapping(t_address,t_bool)": {
        "encoding": "mapping",
        "key": "t_address",
        "label": "mapping(address => bool)",
        "numberOfBytes": "32",
        "value": "t_bool"
      },
      "t_mapping(t_address,t_mapping(t_address,t_bool))": {
        "encoding": "mapping",
        "key": "t_address",
        "label": "mapping(address => mapping(address => bool))",
        "numberOfBytes": "32",
        "value": "t_mapping(t_address,t_bool)"
      },
      "t_mapping(t_address,t_mapping(t_address,t_uint256))": {
        "encoding": "mapping",
        "key": "t_address",
        "label": "mapping(address => mapping(address => uint256))",
        "numberOfBytes": "32",
        "value": "t_mapping(t_address,t_uint256)"
      },
      "t_mapping(t_address,t_mapping(t_uint256,t_bool))": {
        "encoding": "mapping",
        "key": "t_address",
        "label": "mapping(address => mapping(uint256 => bool))",
        "numberOfBytes": "32",
        "value": "t_mapping(t_uint256,t_bool)"
      },
      "t_mapping(t_address,t_struct(FacetFunctionSelectors)2611_storage)": {
        "encoding": "mapping",
        "key": "t_address",
        "label": "mapping(address => struct ComptrollerV13Storage.FacetFunctionSelectors)",
        "numberOfBytes": "32",
        "value": "t_struct(FacetFunctionSelectors)2611_storage"
      },
      "t_mapping(t_address,t_struct(Market)2426_storage)": {
        "encoding": "mapping",
        "key": "t_address",
        "label": "mapping(address => struct ComptrollerV1Storage.Market)",
        "numberOfBytes": "32",
        "value": "t_struct(Market)2426_storage"
      },
      "t_mapping(t_address,t_struct(VenusMarketState)2453_storage)": {
        "encoding": "mapping",
        "key": "t_address",
        "label": "mapping(address => struct ComptrollerV1Storage.VenusMarketState)",
        "numberOfBytes": "32",
        "value": "t_struct(VenusMarketState)2453_storage"
      },
      "t_mapping(t_address,t_uint256)": {
        "encoding": "mapping",
        "key": "t_address",
        "label": "mapping(address => uint256)",
        "numberOfBytes": "32",
        "value": "t_uint256"
      },
      "t_mapping(t_bytes4,t_struct(FacetAddressAndPosition)2605_storage)": {
        "encoding": "mapping",
        "key": "t_bytes4",
        "label": "mapping(bytes4 => struct ComptrollerV13Storage.FacetAddressAndPosition)",
        "numberOfBytes": "32",
        "value": "t_struct(FacetAddressAndPosition)2605_storage"
      },
      "t_mapping(t_uint256,t_bool)": {
        "encoding": "mapping",
        "key": "t_uint256",
        "label": "mapping(uint256 => bool)",
        "numberOfBytes": "32",
        "value": "t_bool"
      },
      "t_struct(FacetAddressAndPosition)2605_storage": {
        "encoding": "inplace",
        "label": "struct ComptrollerV13Storage.FacetAddressAndPosition",
        "members": [
          {
            "astId": 2602,
            "contract": "contracts/Comptroller/Diamond/facets/SetterFacet.sol:SetterFacet",
            "label": "facetAddress",
            "offset": 0,
            "slot": "0",
            "type": "t_address"
          },
          {
            "astId": 2604,
            "contract": "contracts/Comptroller/Diamond/facets/SetterFacet.sol:SetterFacet",
            "label": "functionSelectorPosition",
            "offset": 20,
            "slot": "0",
            "type": "t_uint96"
          }
        ],
        "numberOfBytes": "32"
      },
      "t_struct(FacetFunctionSelectors)2611_storage": {
        "encoding": "inplace",
        "label": "struct ComptrollerV13Storage.FacetFunctionSelectors",
        "members": [
          {
            "astId": 2608,
            "contract": "contracts/Comptroller/Diamond/facets/SetterFacet.sol:SetterFacet",
            "label": "functionSelectors",
            "offset": 0,
            "slot": "0",
            "type": "t_array(t_bytes4)dyn_storage"
          },
          {
            "astId": 2610,
            "contract": "contracts/Comptroller/Diamond/facets/SetterFacet.sol:SetterFacet",
            "label": "facetAddressPosition",
            "offset": 0,
            "slot": "1",
            "type": "t_uint256"
          }
        ],
        "numberOfBytes": "64"
      },
      "t_struct(Market)2426_storage": {
        "encoding": "inplace",
        "label": "struct ComptrollerV1Storage.Market",
        "members": [
          {
            "astId": 2417,
            "contract": "contracts/Comptroller/Diamond/facets/SetterFacet.sol:SetterFacet",
            "label": "isListed",
            "offset": 0,
            "slot": "0",
            "type": "t_bool"
          },
          {
            "astId": 2419,
            "contract": "contracts/Comptroller/Diamond/facets/SetterFacet.sol:SetterFacet",
            "label": "collateralFactorMantissa",
            "offset": 0,
            "slot": "1",
            "type": "t_uint256"
          },
          {
            "astId": 2423,
            "contract": "contracts/Comptroller/Diamond/facets/SetterFacet.sol:SetterFacet",
            "label": "accountMembership",
            "offset": 0,
            "slot": "2",
            "type": "t_mapping(t_address,t_bool)"
          },
          {
            "astId": 2425,
            "contract": "contracts/Comptroller/Diamond/facets/SetterFacet.sol:SetterFacet",
            "label": "isVenus",
            "offset": 0,
            "slot": "3",
            "type": "t_bool"
          }
        ],
        "numberOfBytes": "128"
      },
      "t_struct(VenusMarketState)2453_storage": {
        "encoding": "inplace",
        "label": "struct ComptrollerV1Storage.VenusMarketState",
        "members": [
          {
            "astId": 2450,
            "contract": "contracts/Comptroller/Diamond/facets/SetterFacet.sol:SetterFacet",
            "label": "index",
            "offset": 0,
            "slot": "0",
            "type": "t_uint224"
          },
          {
            "astId": 2452,
            "contract": "contracts/Comptroller/Diamond/facets/SetterFacet.sol:SetterFacet",
            "label": "block",
            "offset": 28,
            "slot": "0",
            "type": "t_uint32"
          }
        ],
        "numberOfBytes": "32"
      },
      "t_uint224": {
        "encoding": "inplace",
        "label": "uint224",
        "numberOfBytes": "28"
      },
      "t_uint256": {
        "encoding": "inplace",
        "label": "uint256",
        "numberOfBytes": "32"
      },
      "t_uint32": {
        "encoding": "inplace",
        "label": "uint32",
        "numberOfBytes": "4"
      },
      "t_uint96": {
        "encoding": "inplace",
        "label": "uint96",
        "numberOfBytes": "12"
      }
    }
  }
}