{
  "address": "0xda9a3e640770E6a86FdfD54170017cFbc6dDe00A",
  "abi": [
    {
      "anonymous": false,
      "inputs": [
        {
          "components": [
            {
              "internalType": "address",
              "name": "facetAddress",
              "type": "address"
            },
            {
              "internalType": "enum IDiamondCut.FacetCutAction",
              "name": "action",
              "type": "uint8"
            },
            {
              "internalType": "bytes4[]",
              "name": "functionSelectors",
              "type": "bytes4[]"
            }
          ],
          "indexed": false,
          "internalType": "struct IDiamondCut.FacetCut[]",
          "name": "_diamondCut",
          "type": "tuple[]"
        }
      ],
      "name": "DiamondCut",
      "type": "event"
    },
    {
      "stateMutability": "nonpayable",
      "type": "fallback"
    },
    {
      "inputs": [
        {
          "internalType": "contract Unitroller",
          "name": "unitroller",
          "type": "address"
        }
      ],
      "name": "_become",
      "outputs": [],
      "stateMutability": "nonpayable",
      "type": "function"
    },
    {
      "inputs": [
        {
          "internalType": "address",
          "name": "",
          "type": "address"
        },
        {
          "internalType": "uint256",
          "name": "",
          "type": "uint256"
        }
      ],
      "name": "accountAssets",
      "outputs": [
        {
          "internalType": "contract VToken",
          "name": "",
          "type": "address"
        }
      ],
      "stateMutability": "view",
      "type": "function"
    },
    {
      "inputs": [],
      "name": "admin",
      "outputs": [
        {
          "internalType": "address",
          "name": "",
          "type": "address"
        }
      ],
      "stateMutability": "view",
      "type": "function"
    },
    {
      "inputs": [
        {
          "internalType": "uint256",
          "name": "",
          "type": "uint256"
        }
      ],
      "name": "allMarkets",
      "outputs": [
        {
          "internalType": "contract VToken",
          "name": "",
          "type": "address"
        }
      ],
      "stateMutability": "view",
      "type": "function"
    },
    {
      "inputs": [
        {
          "internalType": "address",
          "name": "",
          "type": "address"
        },
        {
          "internalType": "address",
          "name": "",
          "type": "address"
        }
      ],
      "name": "approvedDelegates",
      "outputs": [
        {
          "internalType": "bool",
          "name": "",
          "type": "bool"
        }
      ],
      "stateMutability": "view",
      "type": "function"
    },
    {
      "inputs": [
        {
          "internalType": "address",
          "name": "",
          "type": "address"
        }
      ],
      "name": "authorizedFlashLoan",
      "outputs": [
        {
          "internalType": "bool",
          "name": "",
          "type": "bool"
        }
      ],
      "stateMutability": "view",
      "type": "function"
    },
    {
      "inputs": [],
      "name": "borrowCapGuardian",
      "outputs": [
        {
          "internalType": "address",
          "name": "",
          "type": "address"
        }
      ],
      "stateMutability": "view",
      "type": "function"
    },
    {
      "inputs": [
        {
          "internalType": "address",
          "name": "",
          "type": "address"
        }
      ],
      "name": "borrowCaps",
      "outputs": [
        {
          "internalType": "uint256",
          "name": "",
          "type": "uint256"
        }
      ],
      "stateMutability": "view",
      "type": "function"
    },
    {
      "inputs": [],
      "name": "closeFactorMantissa",
      "outputs": [
        {
          "internalType": "uint256",
          "name": "",
          "type": "uint256"
        }
      ],
      "stateMutability": "view",
      "type": "function"
    },
    {
      "inputs": [],
      "name": "comptrollerImplementation",
      "outputs": [
        {
          "internalType": "address",
          "name": "",
          "type": "address"
        }
      ],
      "stateMutability": "view",
      "type": "function"
    },
    {
      "inputs": [],
      "name": "comptrollerLens",
      "outputs": [
        {
          "internalType": "contract ComptrollerLensInterface",
          "name": "",
          "type": "address"
        }
      ],
      "stateMutability": "view",
      "type": "function"
    },
    {
      "inputs": [
        {
          "components": [
            {
              "internalType": "address",
              "name": "facetAddress",
              "type": "address"
            },
            {
              "internalType": "enum IDiamondCut.FacetCutAction",
              "name": "action",
              "type": "uint8"
            },
            {
              "internalType": "bytes4[]",
              "name": "functionSelectors",
              "type": "bytes4[]"
            }
          ],
          "internalType": "struct IDiamondCut.FacetCut[]",
          "name": "diamondCut_",
          "type": "tuple[]"
        }
      ],
      "name": "diamondCut",
      "outputs": [],
      "stateMutability": "nonpayable",
      "type": "function"
    },
    {
      "inputs": [
        {
          "internalType": "bytes4",
          "name": "functionSelector",
          "type": "bytes4"
        }
      ],
      "name": "facetAddress",
      "outputs": [
        {
          "components": [
            {
              "internalType": "address",
              "name": "facetAddress",
              "type": "address"
            },
            {
              "internalType": "uint96",
              "name": "functionSelectorPosition",
              "type": "uint96"
            }
          ],
          "internalType": "struct ComptrollerV13Storage.FacetAddressAndPosition",
          "name": "",
          "type": "tuple"
        }
      ],
      "stateMutability": "view",
      "type": "function"
    },
    {
      "inputs": [],
      "name": "facetAddresses",
      "outputs": [
        {
          "internalType": "address[]",
          "name": "",
          "type": "address[]"
        }
      ],
      "stateMutability": "view",
      "type": "function"
    },
    {
      "inputs": [
        {
          "internalType": "address",
          "name": "facet",
          "type": "address"
        }
      ],
      "name": "facetFunctionSelectors",
      "outputs": [
        {
          "internalType": "bytes4[]",
          "name": "",
          "type": "bytes4[]"
        }
      ],
      "stateMutability": "view",
      "type": "function"
    },
    {
      "inputs": [
        {
          "internalType": "address",
          "name": "facet",
          "type": "address"
        }
      ],
      "name": "facetPosition",
      "outputs": [
        {
          "internalType": "uint256",
          "name": "",
          "type": "uint256"
        }
      ],
      "stateMutability": "view",
      "type": "function"
    },
    {
      "inputs": [],
      "name": "facets",
      "outputs": [
        {
          "components": [
            {
              "internalType": "address",
              "name": "facetAddress",
              "type": "address"
            },
            {
              "internalType": "bytes4[]",
              "name": "functionSelectors",
              "type": "bytes4[]"
            }
          ],
          "internalType": "struct Diamond.Facet[]",
          "name": "",
          "type": "tuple[]"
        }
      ],
      "stateMutability": "view",
      "type": "function"
    },
    {
      "inputs": [
        {
          "internalType": "address",
          "name": "",
          "type": "address"
        }
      ],
      "name": "isForcedLiquidationEnabled",
      "outputs": [
        {
          "internalType": "bool",
          "name": "",
          "type": "bool"
        }
      ],
      "stateMutability": "view",
      "type": "function"
    },
    {
      "inputs": [
        {
          "internalType": "address",
          "name": "user",
          "type": "address"
        },
        {
          "internalType": "address",
          "name": "market",
          "type": "address"
        }
      ],
      "name": "isForcedLiquidationEnabledForUser",
      "outputs": [
        {
          "internalType": "bool",
          "name": "",
          "type": "bool"
        }
      ],
      "stateMutability": "view",
      "type": "function"
    },
    {
      "inputs": [],
      "name": "lastPoolId",
      "outputs": [
        {
          "internalType": "uint96",
          "name": "",
          "type": "uint96"
        }
      ],
      "stateMutability": "view",
      "type": "function"
    },
    {
      "inputs": [],
      "name": "liquidatorContract",
      "outputs": [
        {
          "internalType": "address",
          "name": "",
          "type": "address"
        }
      ],
      "stateMutability": "view",
      "type": "function"
    },
    {
      "inputs": [],
      "name": "maxAssets",
      "outputs": [
        {
          "internalType": "uint256",
          "name": "",
          "type": "uint256"
        }
      ],
      "stateMutability": "view",
      "type": "function"
    },
    {
      "inputs": [],
      "name": "minReleaseAmount",
      "outputs": [
        {
          "internalType": "uint256",
          "name": "",
          "type": "uint256"
        }
      ],
      "stateMutability": "view",
      "type": "function"
    },
    {
      "inputs": [],
      "name": "mintVAIGuardianPaused",
      "outputs": [
        {
          "internalType": "bool",
          "name": "",
          "type": "bool"
        }
      ],
      "stateMutability": "view",
      "type": "function"
    },
    {
      "inputs": [
        {
          "internalType": "address",
          "name": "",
          "type": "address"
        }
      ],
      "name": "mintedVAIs",
      "outputs": [
        {
          "internalType": "uint256",
          "name": "",
          "type": "uint256"
        }
      ],
      "stateMutability": "view",
      "type": "function"
    },
    {
      "inputs": [],
      "name": "oracle",
      "outputs": [
        {
          "internalType": "contract ResilientOracleInterface",
          "name": "",
          "type": "address"
        }
      ],
      "stateMutability": "view",
      "type": "function"
    },
    {
      "inputs": [],
      "name": "pauseGuardian",
      "outputs": [
        {
          "internalType": "address",
          "name": "",
          "type": "address"
        }
      ],
      "stateMutability": "view",
      "type": "function"
    },
    {
      "inputs": [],
      "name": "pendingAdmin",
      "outputs": [
        {
          "internalType": "address",
          "name": "",
          "type": "address"
        }
      ],
      "stateMutability": "view",
      "type": "function"
    },
    {
      "inputs": [],
      "name": "pendingComptrollerImplementation",
      "outputs": [
        {
          "internalType": "address",
          "name": "",
          "type": "address"
        }
      ],
      "stateMutability": "view",
      "type": "function"
    },
    {
      "inputs": [
        {
          "internalType": "uint96",
          "name": "",
          "type": "uint96"
        }
      ],
      "name": "pools",
      "outputs": [
        {
          "internalType": "string",
          "name": "label",
          "type": "string"
        },
        {
          "internalType": "bool",
          "name": "isActive",
          "type": "bool"
        },
        {
          "internalType": "bool",
          "name": "allowCorePoolFallback",
          "type": "bool"
        }
      ],
      "stateMutability": "view",
      "type": "function"
    },
    {
      "inputs": [],
      "name": "prime",
      "outputs": [
        {
          "internalType": "contract IPrime",
          "name": "",
          "type": "address"
        }
      ],
      "stateMutability": "view",
      "type": "function"
    },
    {
      "inputs": [],
      "name": "protocolPaused",
      "outputs": [
        {
          "internalType": "bool",
          "name": "",
          "type": "bool"
        }
      ],
      "stateMutability": "view",
      "type": "function"
    },
    {
      "inputs": [],
      "name": "releaseStartBlock",
      "outputs": [
        {
          "internalType": "uint256",
          "name": "",
          "type": "uint256"
        }
      ],
      "stateMutability": "view",
      "type": "function"
    },
    {
      "inputs": [],
      "name": "repayVAIGuardianPaused",
      "outputs": [
        {
          "internalType": "bool",
          "name": "",
          "type": "bool"
        }
      ],
      "stateMutability": "view",
      "type": "function"
    },
    {
      "inputs": [
        {
          "internalType": "address",
          "name": "",
          "type": "address"
        }
      ],
      "name": "supplyCaps",
      "outputs": [
        {
          "internalType": "uint256",
          "name": "",
          "type": "uint256"
        }
      ],
      "stateMutability": "view",
      "type": "function"
    },
    {
      "inputs": [],
      "name": "treasuryAddress",
      "outputs": [
        {
          "internalType": "address",
          "name": "",
          "type": "address"
        }
      ],
      "stateMutability": "view",
      "type": "function"
    },
    {
      "inputs": [],
      "name": "treasuryGuardian",
      "outputs": [
        {
          "internalType": "address",
          "name": "",
          "type": "address"
        }
      ],
      "stateMutability": "view",
      "type": "function"
    },
    {
      "inputs": [],
      "name": "treasuryPercent",
      "outputs": [
        {
          "internalType": "uint256",
          "name": "",
          "type": "uint256"
        }
      ],
      "stateMutability": "view",
      "type": "function"
    },
    {
      "inputs": [
        {
          "internalType": "address",
          "name": "",
          "type": "address"
        }
      ],
      "name": "userPoolId",
      "outputs": [
        {
          "internalType": "uint96",
          "name": "",
          "type": "uint96"
        }
      ],
      "stateMutability": "view",
      "type": "function"
    },
    {
      "inputs": [],
      "name": "vaiController",
      "outputs": [
        {
          "internalType": "contract VAIControllerInterface",
          "name": "",
          "type": "address"
        }
      ],
      "stateMutability": "view",
      "type": "function"
    },
    {
      "inputs": [],
      "name": "vaiMintRate",
      "outputs": [
        {
          "internalType": "uint256",
          "name": "",
          "type": "uint256"
        }
      ],
      "stateMutability": "view",
      "type": "function"
    },
    {
      "inputs": [],
      "name": "vaiVaultAddress",
      "outputs": [
        {
          "internalType": "address",
          "name": "",
          "type": "address"
        }
      ],
      "stateMutability": "view",
      "type": "function"
    },
    {
      "inputs": [
        {
          "internalType": "address",
          "name": "",
          "type": "address"
        }
      ],
      "name": "venusAccrued",
      "outputs": [
        {
          "internalType": "uint256",
          "name": "",
          "type": "uint256"
        }
      ],
      "stateMutability": "view",
      "type": "function"
    },
    {
      "inputs": [
        {
          "internalType": "address",
          "name": "",
          "type": "address"
        }
      ],
      "name": "venusBorrowSpeeds",
      "outputs": [
        {
          "internalType": "uint256",
          "name": "",
          "type": "uint256"
        }
      ],
      "stateMutability": "view",
      "type": "function"
    },
    {
      "inputs": [
        {
          "internalType": "address",
          "name": "",
          "type": "address"
        }
      ],
      "name": "venusBorrowState",
      "outputs": [
        {
          "internalType": "uint224",
          "name": "index",
          "type": "uint224"
        },
        {
          "internalType": "uint32",
          "name": "block",
          "type": "uint32"
        }
      ],
      "stateMutability": "view",
      "type": "function"
    },
    {
      "inputs": [
        {
          "internalType": "address",
          "name": "",
          "type": "address"
        },
        {
          "internalType": "address",
          "name": "",
          "type": "address"
        }
      ],
      "name": "venusBorrowerIndex",
      "outputs": [
        {
          "internalType": "uint256",
          "name": "",
          "type": "uint256"
        }
      ],
      "stateMutability": "view",
      "type": "function"
    },
    {
      "inputs": [
        {
          "internalType": "address",
          "name": "",
          "type": "address"
        },
        {
          "internalType": "address",
          "name": "",
          "type": "address"
        }
      ],
      "name": "venusSupplierIndex",
      "outputs": [
        {
          "internalType": "uint256",
          "name": "",
          "type": "uint256"
        }
      ],
      "stateMutability": "view",
      "type": "function"
    },
    {
      "inputs": [
        {
          "internalType": "address",
          "name": "",
          "type": "address"
        }
      ],
      "name": "venusSupplySpeeds",
      "outputs": [
        {
          "internalType": "uint256",
          "name": "",
          "type": "uint256"
        }
      ],
      "stateMutability": "view",
      "type": "function"
    },
    {
      "inputs": [
        {
          "internalType": "address",
          "name": "",
          "type": "address"
        }
      ],
      "name": "venusSupplyState",
      "outputs": [
        {
          "internalType": "uint224",
          "name": "index",
          "type": "uint224"
        },
        {
          "internalType": "uint32",
          "name": "block",
          "type": "uint32"
        }
      ],
      "stateMutability": "view",
      "type": "function"
    },
    {
      "inputs": [],
      "name": "venusVAIVaultRate",
      "outputs": [
        {
          "internalType": "uint256",
          "name": "",
          "type": "uint256"
        }
      ],
      "stateMutability": "view",
      "type": "function"
    }
  ],
  "transactionHash": "0xc58eadb5632f10e400fe0d567b916cd0aa105c71b265e94d66b57a98f291ef5a",
  "args": [],
  "numDeployments": 4,
  "solcInputHash": "c94efa68858e9e0522e68bfc6cf43cc0",
  "bytecode": "0x6080604052348015600e575f80fd5b50611fd38061001c5f395ff3fe608060405234801561000f575f80fd5b50600436106102d4575f3560e01c80638f738f3611610180578063c5f956af116100e7578063e0f6123d116100a0578063e87554461161007a578063e8755446146108d5578063f445d703146108de578063f851a4401461090b578063fa6331d81461091d576102d4565b8063e0f6123d14610869578063e37d4b791461088b578063e57e69c6146108c2576102d4565b8063c5f956af14610774578063c7ee005e14610787578063cdffacc61461079a578063d3270f9914610830578063dce1544914610843578063dcfbc0c714610856576102d4565b8063adfca15e11610139578063adfca15e146106ab578063b2eafc39146106cb578063b8324c7c146106de578063bb82aa5e14610739578063bbb8864a1461074c578063bec04f721461076b576102d4565b80638f738f361461061d5780639254f5e51461064857806394b2294b1461065b57806396c99064146106645780639bb27d6214610685578063a657e57914610698576102d4565b8063425fad581161023f57806373769099116101f85780637d172bd5116101d25780637d172bd5146105b65780637dc0d1d0146105c95780638a7dc165146105dc5780638c1ac18a146105fb576102d4565b8063737690991461054f578063765513831461058f5780637a0ed627146105a1576102d4565b8063425fad58146104cd5780634a584432146104e057806352d84d1e146104ff57806352ef6b2c146105125780635dd3fc9d14610527578063719f701b14610546576102d4565b806321af45691161029157806321af45691461042657806324a3d6221461045157806326782247146104645780632bc7e29e146104775780634088c73e1461049657806341a18d2c146104a3576102d4565b806302c3bcbb1461036857806304ef9d581461039a57806308e0225c146103a35780630db4b4e5146103cd57806310b98338146103d65780631d504dc614610413575b5f80356001600160e01b0319168152602e60205260409020546001600160a01b0316806103485760405162461bcd60e51b815260206004820181905260248201527f4469616d6f6e643a2046756e6374696f6e20646f6573206e6f7420657869737460448201526064015b60405180910390fd5b365f80375f80365f845af43d5f803e808015610362573d5ff35b3d5ffd5b005b610387610376366004611907565b60276020525f908152604090205481565b6040519081526020015b60405180910390f35b61038760225481565b6103876103b1366004611929565b601360209081525f928352604080842090915290825290205481565b610387601d5481565b6104036103e4366004611929565b602c60209081525f928352604080842090915290825290205460ff1681565b6040519015158152602001610391565b610366610421366004611907565b610926565b601e54610439906001600160a01b031681565b6040516001600160a01b039091168152602001610391565b600a54610439906001600160a01b031681565b600154610439906001600160a01b031681565b610387610485366004611907565b60166020525f908152604090205481565b6018546104039060ff1681565b6103876104b1366004611929565b601260209081525f928352604080842090915290825290205481565b6018546104039062010000900460ff1681565b6103876104ee366004611907565b601f6020525f908152604090205481565b61043961050d366004611960565b610a84565b61051a610aac565b6040516103919190611977565b610387610535366004611907565b602b6020525f908152604090205481565b610387601c5481565b61057761055d366004611907565b60356020525f90815260409020546001600160601b031681565b6040516001600160601b039091168152602001610391565b60185461040390610100900460ff1681565b6105a9610b0c565b6040516103919190611a07565b601b54610439906001600160a01b031681565b600454610439906001600160a01b031681565b6103876105ea366004611907565b60146020525f908152604090205481565b610403610609366004611907565b602d6020525f908152604090205460ff1681565b61038761062b366004611907565b6001600160a01b03165f908152602f602052604090206001015490565b601554610439906001600160a01b031681565b61038760075481565b610677610672366004611a84565b610c90565b604051610391929190611ad8565b602554610439906001600160a01b031681565b603754610577906001600160601b031681565b6106be6106b9366004611907565b610d34565b6040516103919190611afb565b602054610439906001600160a01b031681565b6107156106ec366004611907565b60106020525f90815260409020546001600160e01b03811690600160e01b900463ffffffff1682565b604080516001600160e01b03909316835263ffffffff909116602083015201610391565b600254610439906001600160a01b031681565b61038761075a366004611907565b602a6020525f908152604090205481565b61038760175481565b602154610439906001600160a01b031681565b603154610439906001600160a01b031681565b6108036107a8366004611b29565b604080518082019091525f8082526020820152506001600160e01b0319165f908152602e60209081526040918290208251808401909352546001600160a01b0381168352600160a01b90046001600160601b03169082015290565b6040805182516001600160a01b031681526020928301516001600160601b03169281019290925201610391565b602654610439906001600160a01b031681565b610439610851366004611b42565b610dc9565b600354610439906001600160a01b031681565b610403610877366004611907565b60386020525f908152604090205460ff1681565b610715610899366004611907565b60116020525f90815260409020546001600160e01b03811690600160e01b900463ffffffff1682565b6103666108d0366004611bfd565b610dfd565b61038760055481565b6104036108ec366004611929565b603260209081525f928352604080842090915290825290205460ff1681565b5f54610439906001600160a01b031681565b610387601a5481565b806001600160a01b031663f851a4406040518163ffffffff1660e01b8152600401602060405180830381865afa158015610962573d5f803e3d5ffd5b505050506040513d601f19601f820116820180604052508101906109869190611d63565b6001600160a01b0316336001600160a01b0316146109e25760405162461bcd60e51b815260206004820152601960248201527837b7363c903ab734ba3937b63632b91030b236b4b71031b0b760391b604482015260640161033f565b806001600160a01b031663c1e803346040518163ffffffff1660e01b81526004016020604051808303815f875af1158015610a1f573d5f803e3d5ffd5b505050506040513d601f19601f82011682018060405250810190610a439190611d7e565b15610a815760405162461bcd60e51b815260206004820152600e60248201526d1b9bdd08185d5d1a1bdc9a5e995960921b604482015260640161033f565b50565b600d8181548110610a93575f80fd5b5f918252602090912001546001600160a01b0316905081565b60606030805480602002602001604051908101604052809291908181526020018280548015610b0257602002820191905f5260205f20905b81546001600160a01b03168152600190910190602001808311610ae4575b5050505050905090565b6030546060905f8167ffffffffffffffff811115610b2c57610b2c611b6c565b604051908082528060200260200182016040528015610b7157816020015b604080518082019091525f815260606020820152815260200190600190039081610b4a5790505b5090505f5b82811015610c89575f60308281548110610b9257610b92611d95565b905f5260205f20015f9054906101000a90046001600160a01b0316905080838381518110610bc257610bc2611d95565b6020908102919091018101516001600160a01b0392831690529082165f908152602f825260409081902080548251818502810185019093528083529192909190830182828015610c5b57602002820191905f5260205f20905f905b82829054906101000a900460e01b6001600160e01b03191681526020019060040190602082600301049283019260010382029150808411610c1d5790505b5050505050838381518110610c7257610c72611d95565b602090810291909101810151015250600101610b76565b5092915050565b60366020525f9081526040902080548190610caa90611da9565b80601f0160208091040260200160405190810160405280929190818152602001828054610cd690611da9565b8015610d215780601f10610cf857610100808354040283529160200191610d21565b820191905f5260205f20905b815481529060010190602001808311610d0457829003601f168201915b5050506002909301549192505060ff1682565b6001600160a01b0381165f908152602f6020908152604091829020805483518184028101840190945280845260609392830182828015610dbd57602002820191905f5260205f20905f905b82829054906101000a900460e01b6001600160e01b03191681526020019060040190602082600301049283019260010382029150808411610d7f5790505b50505050509050919050565b6008602052815f5260405f208181548110610de2575f80fd5b5f918252602090912001546001600160a01b03169150829050565b5f546001600160a01b03163314610e525760405162461bcd60e51b815260206004820152601960248201527837b7363c903ab734ba3937b63632b91030b236b4b71031b0b760391b604482015260640161033f565b610a818180515f5b8181101561100d575f838281518110610e7557610e75611d95565b60200260200101516020015190505f6002811115610e9557610e95611de1565b816002811115610ea757610ea7611de1565b03610ef457610eef848381518110610ec157610ec1611d95565b60200260200101515f0151858481518110610ede57610ede611d95565b602002602001015160400151611049565b611004565b6001816002811115610f0857610f08611de1565b03610f5057610eef848381518110610f2257610f22611d95565b60200260200101515f0151858481518110610f3f57610f3f611d95565b6020026020010151604001516111a8565b6002816002811115610f6457610f64611de1565b03610fac57610eef848381518110610f7e57610f7e611d95565b60200260200101515f0151858481518110610f9b57610f9b611d95565b602002602001015160400151611317565b60405162461bcd60e51b815260206004820152602760248201527f4c69624469616d6f6e644375743a20496e636f727265637420466163657443756044820152663a20b1ba34b7b760c91b606482015260840161033f565b50600101610e5a565b507f2e97860c6f47eab0292d51fa3ceec7e373c62af1e7eb2a28ae82998b80de6cfd8260405161103d9190611df5565b60405180910390a15050565b80515f036110695760405162461bcd60e51b815260040161033f90611e8e565b6001600160a01b03821661108f5760405162461bcd60e51b815260040161033f90611ed9565b6001600160a01b0382165f908152602f6020526040812054906001600160601b03821690036110c1576110c183611418565b81515f5b818110156111a1575f8482815181106110e0576110e0611d95565b6020908102919091018101516001600160e01b031981165f908152602e9092526040909120549091506001600160a01b0316801561117e5760405162461bcd60e51b815260206004820152603560248201527f4c69624469616d6f6e644375743a2043616e2774206164642066756e6374696f6044820152746e207468617420616c72656164792065786973747360581b606482015260840161033f565b6111898286896114ba565b61119285611f39565b945050508060010190506110c5565b5050505050565b80515f036111c85760405162461bcd60e51b815260040161033f90611e8e565b6001600160a01b0382166111ee5760405162461bcd60e51b815260040161033f90611ed9565b6001600160a01b0382165f908152602f6020526040812054906001600160601b03821690036112205761122083611418565b81515f5b818110156111a1575f84828151811061123f5761123f611d95565b6020908102919091018101516001600160e01b031981165f908152602e9092526040909120549091506001600160a01b0390811690871681036112ea5760405162461bcd60e51b815260206004820152603860248201527f4c69624469616d6f6e644375743a2043616e2774207265706c6163652066756e60448201527f6374696f6e20776974682073616d652066756e6374696f6e0000000000000000606482015260840161033f565b6112f48183611558565b6112ff8286896114ba565b61130885611f39565b94505050806001019050611224565b80515f8190036113395760405162461bcd60e51b815260040161033f90611e8e565b6001600160a01b038316156113af5760405162461bcd60e51b815260206004820152603660248201527f4c69624469616d6f6e644375743a2052656d6f76652066616365742061646472604482015275657373206d757374206265206164647265737328302960501b606482015260840161033f565b5f5b81811015611412575f8382815181106113cc576113cc611d95565b6020908102919091018101516001600160e01b031981165f908152602e9092526040909120549091506001600160a01b03166114088183611558565b50506001016113b1565b50505050565b611457816040518060400160405280601e81526020017f4469616d6f6e643a204e657720666163657420686173206e6f20636f6465000081525061189d565b603080546001600160a01b039092165f818152602f60205260408120600190810185905584018355919091527f6ff97a59c90d62cc7236ba3a37cd85351bf564556780cf8c1157a220f31f0cbb90910180546001600160a01b0319169091179055565b6001600160e01b031983165f818152602e6020818152604080842080546001600160601b03909816600160a01b026001600160a01b0398891617815595909616808452602f825295832080546001810182559084528184206008820401805460e09990991c60046007909316929092026101000a91820263ffffffff909202199098161790965591905290925281546001600160a01b031916179055565b6001600160a01b0382166115d45760405162461bcd60e51b815260206004820152603760248201527f4c69624469616d6f6e644375743a2043616e27742072656d6f76652066756e6360448201527f74696f6e207468617420646f65736e2774206578697374000000000000000000606482015260840161033f565b6001600160e01b031981165f908152602e60209081526040808320546001600160a01b0386168452602f909252822054600160a01b9091046001600160601b0316919061162390600190611f5e565b905080821461170f576001600160a01b0384165f908152602f6020526040812080548390811061165557611655611d95565b5f91825260208083206008830401546001600160a01b0389168452602f9091526040909220805460079092166004026101000a90920460e01b9250829190859081106116a3576116a3611d95565b5f91825260208083206008830401805463ffffffff60079094166004026101000a938402191660e09590951c929092029390931790556001600160e01b0319929092168252602e90526040902080546001600160a01b0316600160a01b6001600160601b038516021790555b6001600160a01b0384165f908152602f6020526040902080548061173557611735611f77565b5f828152602080822060085f1990940193840401805463ffffffff600460078716026101000a0219169055919092556001600160e01b031985168252602e905260408120819055819003611412576030545f9061179490600190611f5e565b6001600160a01b0386165f908152602f6020526040902060010154909150808214611838575f603083815481106117cd576117cd611d95565b5f91825260209091200154603080546001600160a01b0390921692508291849081106117fb576117fb611d95565b5f91825260208083209190910180546001600160a01b0319166001600160a01b03948516179055929091168152602f909152604090206001018190555b603080548061184957611849611f77565b5f828152602080822083015f1990810180546001600160a01b03191690559092019092556001600160a01b0388168252602f9052604081209061188c82826118be565b600182015f90555050505050505050565b813b81816114125760405162461bcd60e51b815260040161033f9190611f8b565b5080545f825560070160089004905f5260205f2090810190610a8191905b808211156118ef575f81556001016118dc565b5090565b6001600160a01b0381168114610a81575f80fd5b5f60208284031215611917575f80fd5b8135611922816118f3565b9392505050565b5f806040838503121561193a575f80fd5b8235611945816118f3565b91506020830135611955816118f3565b809150509250929050565b5f60208284031215611970575f80fd5b5035919050565b602080825282518282018190525f9190848201906040850190845b818110156119b75783516001600160a01b031683529284019291840191600101611992565b50909695505050505050565b5f815180845260208085019450602084015f5b838110156119fc5781516001600160e01b031916875295820195908201906001016119d6565b509495945050505050565b5f60208083018184528085518083526040925060408601915060408160051b8701018488015f5b83811015611a7657888303603f19018552815180516001600160a01b03168452870151878401879052611a63878501826119c3565b9588019593505090860190600101611a2e565b509098975050505050505050565b5f60208284031215611a94575f80fd5b81356001600160601b0381168114611922575f80fd5b5f81518084528060208401602086015e5f602082860101526020601f19601f83011685010191505092915050565b604081525f611aea6040830185611aaa565b905082151560208301529392505050565b602081525f61192260208301846119c3565b80356001600160e01b031981168114611b24575f80fd5b919050565b5f60208284031215611b39575f80fd5b61192282611b0d565b5f8060408385031215611b53575f80fd5b8235611b5e816118f3565b946020939093013593505050565b634e487b7160e01b5f52604160045260245ffd5b6040516060810167ffffffffffffffff81118282101715611ba357611ba3611b6c565b60405290565b604051601f8201601f1916810167ffffffffffffffff81118282101715611bd257611bd2611b6c565b604052919050565b5f67ffffffffffffffff821115611bf357611bf3611b6c565b5060051b60200190565b5f6020808385031215611c0e575f80fd5b823567ffffffffffffffff80821115611c25575f80fd5b818501915085601f830112611c38575f80fd5b8135611c4b611c4682611bda565b611ba9565b81815260059190911b83018401908481019088831115611c69575f80fd5b8585015b83811015611d5657803585811115611c83575f80fd5b86016060818c03601f1901811315611c99575f80fd5b611ca1611b80565b89830135611cae816118f3565b815260408381013560038110611cc2575f80fd5b828c0152918301359188831115611cd7575f80fd5b82840193508d603f850112611cea575f80fd5b8a8401359250611cfc611c4684611bda565b83815260059390931b84018101928b8101908f851115611d1a575f80fd5b948201945b84861015611d3f57611d3086611b0d565b8252948c0194908c0190611d1f565b918301919091525085525050918601918601611c6d565b5098975050505050505050565b5f60208284031215611d73575f80fd5b8151611922816118f3565b5f60208284031215611d8e575f80fd5b5051919050565b634e487b7160e01b5f52603260045260245ffd5b600181811c90821680611dbd57607f821691505b602082108103611ddb57634e487b7160e01b5f52602260045260245ffd5b50919050565b634e487b7160e01b5f52602160045260245ffd5b5f60208083018184528085518083526040925060408601915060408160051b8701018488015f5b83811015611a7657888303603f19018552815180516001600160a01b031684528781015160609060038110611e5f57634e487b7160e01b5f52602160045260245ffd5b858a01529087015187850182905290611e7a818601836119c3565b968901969450505090860190600101611e1c565b6020808252602b908201527f4c69624469616d6f6e644375743a204e6f2073656c6563746f727320696e206660408201526a1858d95d081d1bc818dd5d60aa1b606082015260800190565b6020808252602c908201527f4c69624469616d6f6e644375743a204164642066616365742063616e2774206260408201526b65206164647265737328302960a01b606082015260800190565b634e487b7160e01b5f52601160045260245ffd5b5f6001600160601b03808316818103611f5457611f54611f25565b6001019392505050565b81810381811115611f7157611f71611f25565b92915050565b634e487b7160e01b5f52603160045260245ffd5b602081525f6119226020830184611aaa56fea26469706673582212205a07f55ac8f1f66d3d900ec0d36c23693c0a23fd0a0d30a42eea3f5a9d374f0464736f6c63430008190033",
  "devdoc": {
    "author": "Venus",
    "kind": "dev",
    "methods": {
      "_become(address)": {
        "params": {
          "unitroller": "Address of the unitroller"
        }
      },
      "diamondCut((address,uint8,bytes4[])[])": {
        "details": "Allows the contract admin to add function selectors",
        "params": {
          "diamondCut_": "IDiamondCut contains facets address, action and function selectors"
        }
      },
      "facetAddress(bytes4)": {
        "params": {
          "functionSelector": "function selector"
        },
        "returns": {
          "_0": "FacetAddressAndPosition facet address and position"
        }
      },
      "facetAddresses()": {
        "returns": {
          "_0": "facetAddresses Array of facet addresses"
        }
      },
      "facetFunctionSelectors(address)": {
        "params": {
          "facet": "Address of the facet"
        },
        "returns": {
          "_0": "selectors Array of function selectors"
        }
      },
      "facetPosition(address)": {
        "params": {
          "facet": "Address of the facet"
        },
        "returns": {
          "_0": "Position of the facet"
        }
      },
      "facets()": {
        "returns": {
          "_0": "facets_ Array of Facet"
        }
      }
    },
    "title": "Diamond",
    "version": 1
  },
  "userdoc": {
    "events": {
      "DiamondCut((address,uint8,bytes4[])[])": {
        "notice": "Emitted when functions are added, replaced or removed to facets"
      }
    },
    "kind": "user",
    "methods": {
      "_become(address)": {
        "notice": "Call _acceptImplementation to accept the diamond proxy as new implementaion"
      },
      "accountAssets(address,uint256)": {
        "notice": "Per-account mapping of \"assets you are in\", capped by maxAssets"
      },
      "admin()": {
        "notice": "Administrator for this contract"
      },
      "allMarkets(uint256)": {
        "notice": "A list of all markets"
      },
      "approvedDelegates(address,address)": {
        "notice": "Whether the delegate is allowed to borrow or redeem on behalf of the user"
      },
      "authorizedFlashLoan(address)": {
        "notice": "Mapping of accounts authorized to execute flash loans"
      },
      "borrowCapGuardian()": {
        "notice": "The borrowCapGuardian can set borrowCaps to any number for any market. Lowering the borrow cap could disable borrowing on the given market."
      },
      "borrowCaps(address)": {
        "notice": "Borrow caps enforced by borrowAllowed for each vToken address."
      },
      "closeFactorMantissa()": {
        "notice": "Multiplier used to calculate the maximum repayAmount when liquidating a borrow"
      },
      "comptrollerImplementation()": {
        "notice": "Active brains of Unitroller"
      },
      "diamondCut((address,uint8,bytes4[])[])": {
        "notice": "To add function selectors to the facet's mapping"
      },
      "facetAddress(bytes4)": {
        "notice": "Get facet address and position through function selector"
      },
      "facetAddresses()": {
        "notice": "Get all facet addresses"
      },
      "facetFunctionSelectors(address)": {
        "notice": "Get all function selectors mapped to the facet address"
      },
      "facetPosition(address)": {
        "notice": "Get facet position in the _facetFunctionSelectors through facet address"
      },
      "facets()": {
        "notice": "Get all facets address and their function selector"
      },
      "isForcedLiquidationEnabled(address)": {
        "notice": "Whether forced liquidation is enabled for all users borrowing in a certain market"
      },
      "isForcedLiquidationEnabledForUser(address,address)": {
        "notice": "Whether forced liquidation is enabled for the borrows of a user in a market"
      },
      "lastPoolId()": {
        "notice": "Counter used to generate unique pool IDs"
      },
      "maxAssets()": {
        "notice": "Max number of assets a single account can participate in (borrow or use as collateral)"
      },
      "mintVAIGuardianPaused()": {
        "notice": "The Pause Guardian can pause certain actions as a safety mechanism."
      },
      "mintedVAIs(address)": {
        "notice": "The minted VAI amount to each user"
      },
      "oracle()": {
        "notice": "Oracle which gives the price of any given asset"
      },
      "pauseGuardian()": {
        "notice": "The Pause Guardian can pause certain actions as a safety mechanism."
      },
      "pendingAdmin()": {
        "notice": "Pending administrator for this contract"
      },
      "pendingComptrollerImplementation()": {
        "notice": "Pending brains of Unitroller"
      },
      "pools(uint96)": {
        "notice": "Mapping of pool ID to its corresponding metadata and configuration"
      },
      "prime()": {
        "notice": "Prime token address"
      },
      "protocolPaused()": {
        "notice": "Pause/Unpause whole protocol actions"
      },
      "supplyCaps(address)": {
        "notice": "Supply caps enforced by mintAllowed for each vToken address. Defaults to zero which corresponds to minting notAllowed"
      },
      "treasuryAddress()": {
        "notice": "Treasury address"
      },
      "treasuryGuardian()": {
        "notice": "Treasury Guardian address"
      },
      "treasuryPercent()": {
        "notice": "Fee percent of accrued interest with decimal 18"
      },
      "userPoolId(address)": {
        "notice": "Tracks the selected pool for each user"
      },
      "vaiController()": {
        "notice": "The Address of VAIController"
      },
      "vaiMintRate()": {
        "notice": "VAI Mint Rate as a percentage"
      },
      "venusAccrued(address)": {
        "notice": "The XVS accrued but not yet transferred to each user"
      },
      "venusBorrowSpeeds(address)": {
        "notice": "The rate at which venus is distributed to the corresponding borrow market (per block)"
      },
      "venusBorrowState(address)": {
        "notice": "The Venus market borrow state for each market"
      },
      "venusBorrowerIndex(address,address)": {
        "notice": "The Venus borrow index for each market for each borrower as of the last time they accrued XVS"
      },
      "venusSupplierIndex(address,address)": {
        "notice": "The Venus supply index for each market for each supplier as of the last time they accrued XVS"
      },
      "venusSupplySpeeds(address)": {
        "notice": "The rate at which venus is distributed to the corresponding supply market (per block)"
      },
      "venusSupplyState(address)": {
        "notice": "The Venus market supply state for each market"
      },
      "venusVAIVaultRate()": {
        "notice": "The rate at which the flywheel distributes XVS to VAI Vault, per block"
      }
    },
    "notice": "This contract contains functions related to facets",
    "version": 1
  },
  "storageLayout": {
    "storage": [
      {
        "astId": 1644,
        "contract": "contracts/Comptroller/Diamond/Diamond.sol:Diamond",
        "label": "admin",
        "offset": 0,
        "slot": "0",
        "type": "t_address"
      },
      {
        "astId": 1647,
        "contract": "contracts/Comptroller/Diamond/Diamond.sol:Diamond",
        "label": "pendingAdmin",
        "offset": 0,
        "slot": "1",
        "type": "t_address"
      },
      {
        "astId": 1650,
        "contract": "contracts/Comptroller/Diamond/Diamond.sol:Diamond",
        "label": "comptrollerImplementation",
        "offset": 0,
        "slot": "2",
        "type": "t_address"
      },
      {
        "astId": 1653,
        "contract": "contracts/Comptroller/Diamond/Diamond.sol:Diamond",
        "label": "pendingComptrollerImplementation",
        "offset": 0,
        "slot": "3",
        "type": "t_address"
      },
      {
        "astId": 1660,
        "contract": "contracts/Comptroller/Diamond/Diamond.sol:Diamond",
        "label": "oracle",
        "offset": 0,
        "slot": "4",
        "type": "t_contract(ResilientOracleInterface)992"
      },
      {
        "astId": 1663,
        "contract": "contracts/Comptroller/Diamond/Diamond.sol:Diamond",
        "label": "closeFactorMantissa",
        "offset": 0,
        "slot": "5",
        "type": "t_uint256"
      },
      {
        "astId": 1666,
        "contract": "contracts/Comptroller/Diamond/Diamond.sol:Diamond",
        "label": "_oldLiquidationIncentiveMantissa",
        "offset": 0,
        "slot": "6",
        "type": "t_uint256"
      },
      {
        "astId": 1669,
        "contract": "contracts/Comptroller/Diamond/Diamond.sol:Diamond",
        "label": "maxAssets",
        "offset": 0,
        "slot": "7",
        "type": "t_uint256"
      },
      {
        "astId": 1676,
        "contract": "contracts/Comptroller/Diamond/Diamond.sol:Diamond",
        "label": "accountAssets",
        "offset": 0,
        "slot": "8",
        "type": "t_mapping(t_address,t_array(t_contract(VToken)32054)dyn_storage)"
      },
      {
        "astId": 1710,
        "contract": "contracts/Comptroller/Diamond/Diamond.sol:Diamond",
        "label": "_poolMarkets",
        "offset": 0,
        "slot": "9",
        "type": "t_mapping(t_userDefinedValueType(PoolMarketId)11152,t_struct(Market)1703_storage)"
      },
      {
        "astId": 1713,
        "contract": "contracts/Comptroller/Diamond/Diamond.sol:Diamond",
        "label": "pauseGuardian",
        "offset": 0,
        "slot": "10",
        "type": "t_address"
      },
      {
        "astId": 1716,
        "contract": "contracts/Comptroller/Diamond/Diamond.sol:Diamond",
        "label": "_mintGuardianPaused",
        "offset": 20,
        "slot": "10",
        "type": "t_bool"
      },
      {
        "astId": 1719,
        "contract": "contracts/Comptroller/Diamond/Diamond.sol:Diamond",
        "label": "_borrowGuardianPaused",
        "offset": 21,
        "slot": "10",
        "type": "t_bool"
      },
      {
        "astId": 1722,
        "contract": "contracts/Comptroller/Diamond/Diamond.sol:Diamond",
        "label": "transferGuardianPaused",
        "offset": 22,
        "slot": "10",
        "type": "t_bool"
      },
      {
        "astId": 1725,
        "contract": "contracts/Comptroller/Diamond/Diamond.sol:Diamond",
        "label": "seizeGuardianPaused",
        "offset": 23,
        "slot": "10",
        "type": "t_bool"
      },
      {
        "astId": 1730,
        "contract": "contracts/Comptroller/Diamond/Diamond.sol:Diamond",
        "label": "mintGuardianPaused",
        "offset": 0,
        "slot": "11",
        "type": "t_mapping(t_address,t_bool)"
      },
      {
        "astId": 1735,
        "contract": "contracts/Comptroller/Diamond/Diamond.sol:Diamond",
        "label": "borrowGuardianPaused",
        "offset": 0,
        "slot": "12",
        "type": "t_mapping(t_address,t_bool)"
      },
      {
        "astId": 1747,
        "contract": "contracts/Comptroller/Diamond/Diamond.sol:Diamond",
        "label": "allMarkets",
        "offset": 0,
        "slot": "13",
        "type": "t_array(t_contract(VToken)32054)dyn_storage"
      },
      {
        "astId": 1750,
        "contract": "contracts/Comptroller/Diamond/Diamond.sol:Diamond",
        "label": "venusRate",
        "offset": 0,
        "slot": "14",
        "type": "t_uint256"
      },
      {
        "astId": 1755,
        "contract": "contracts/Comptroller/Diamond/Diamond.sol:Diamond",
        "label": "venusSpeeds",
        "offset": 0,
        "slot": "15",
        "type": "t_mapping(t_address,t_uint256)"
      },
      {
        "astId": 1761,
        "contract": "contracts/Comptroller/Diamond/Diamond.sol:Diamond",
        "label": "venusSupplyState",
        "offset": 0,
        "slot": "16",
        "type": "t_mapping(t_address,t_struct(VenusMarketState)1742_storage)"
      },
      {
        "astId": 1767,
        "contract": "contracts/Comptroller/Diamond/Diamond.sol:Diamond",
        "label": "venusBorrowState",
        "offset": 0,
        "slot": "17",
        "type": "t_mapping(t_address,t_struct(VenusMarketState)1742_storage)"
      },
      {
        "astId": 1774,
        "contract": "contracts/Comptroller/Diamond/Diamond.sol:Diamond",
        "label": "venusSupplierIndex",
        "offset": 0,
        "slot": "18",
        "type": "t_mapping(t_address,t_mapping(t_address,t_uint256))"
      },
      {
        "astId": 1781,
        "contract": "contracts/Comptroller/Diamond/Diamond.sol:Diamond",
        "label": "venusBorrowerIndex",
        "offset": 0,
        "slot": "19",
        "type": "t_mapping(t_address,t_mapping(t_address,t_uint256))"
      },
      {
        "astId": 1786,
        "contract": "contracts/Comptroller/Diamond/Diamond.sol:Diamond",
        "label": "venusAccrued",
        "offset": 0,
        "slot": "20",
        "type": "t_mapping(t_address,t_uint256)"
      },
      {
        "astId": 1790,
        "contract": "contracts/Comptroller/Diamond/Diamond.sol:Diamond",
        "label": "vaiController",
        "offset": 0,
        "slot": "21",
        "type": "t_contract(VAIControllerInterface)25297"
      },
      {
        "astId": 1795,
        "contract": "contracts/Comptroller/Diamond/Diamond.sol:Diamond",
        "label": "mintedVAIs",
        "offset": 0,
        "slot": "22",
        "type": "t_mapping(t_address,t_uint256)"
      },
      {
        "astId": 1798,
        "contract": "contracts/Comptroller/Diamond/Diamond.sol:Diamond",
        "label": "vaiMintRate",
        "offset": 0,
        "slot": "23",
        "type": "t_uint256"
      },
      {
        "astId": 1801,
        "contract": "contracts/Comptroller/Diamond/Diamond.sol:Diamond",
        "label": "mintVAIGuardianPaused",
        "offset": 0,
        "slot": "24",
        "type": "t_bool"
      },
      {
        "astId": 1803,
        "contract": "contracts/Comptroller/Diamond/Diamond.sol:Diamond",
        "label": "repayVAIGuardianPaused",
        "offset": 1,
        "slot": "24",
        "type": "t_bool"
      },
      {
        "astId": 1806,
        "contract": "contracts/Comptroller/Diamond/Diamond.sol:Diamond",
        "label": "protocolPaused",
        "offset": 2,
        "slot": "24",
        "type": "t_bool"
      },
      {
        "astId": 1809,
        "contract": "contracts/Comptroller/Diamond/Diamond.sol:Diamond",
        "label": "venusVAIRate",
        "offset": 0,
        "slot": "25",
        "type": "t_uint256"
      },
      {
        "astId": 1815,
        "contract": "contracts/Comptroller/Diamond/Diamond.sol:Diamond",
        "label": "venusVAIVaultRate",
        "offset": 0,
        "slot": "26",
        "type": "t_uint256"
      },
      {
        "astId": 1817,
        "contract": "contracts/Comptroller/Diamond/Diamond.sol:Diamond",
        "label": "vaiVaultAddress",
        "offset": 0,
        "slot": "27",
        "type": "t_address"
      },
      {
        "astId": 1819,
        "contract": "contracts/Comptroller/Diamond/Diamond.sol:Diamond",
        "label": "releaseStartBlock",
        "offset": 0,
        "slot": "28",
        "type": "t_uint256"
      },
      {
        "astId": 1821,
        "contract": "contracts/Comptroller/Diamond/Diamond.sol:Diamond",
        "label": "minReleaseAmount",
        "offset": 0,
        "slot": "29",
        "type": "t_uint256"
      },
      {
        "astId": 1827,
        "contract": "contracts/Comptroller/Diamond/Diamond.sol:Diamond",
        "label": "borrowCapGuardian",
        "offset": 0,
        "slot": "30",
        "type": "t_address"
      },
      {
        "astId": 1832,
        "contract": "contracts/Comptroller/Diamond/Diamond.sol:Diamond",
        "label": "borrowCaps",
        "offset": 0,
        "slot": "31",
        "type": "t_mapping(t_address,t_uint256)"
      },
      {
        "astId": 1838,
        "contract": "contracts/Comptroller/Diamond/Diamond.sol:Diamond",
        "label": "treasuryGuardian",
        "offset": 0,
        "slot": "32",
        "type": "t_address"
      },
      {
        "astId": 1841,
        "contract": "contracts/Comptroller/Diamond/Diamond.sol:Diamond",
        "label": "treasuryAddress",
        "offset": 0,
        "slot": "33",
        "type": "t_address"
      },
      {
        "astId": 1844,
        "contract": "contracts/Comptroller/Diamond/Diamond.sol:Diamond",
        "label": "treasuryPercent",
        "offset": 0,
        "slot": "34",
        "type": "t_uint256"
      },
      {
        "astId": 1852,
        "contract": "contracts/Comptroller/Diamond/Diamond.sol:Diamond",
        "label": "venusContributorSpeeds",
        "offset": 0,
        "slot": "35",
        "type": "t_mapping(t_address,t_uint256)"
      },
      {
        "astId": 1857,
        "contract": "contracts/Comptroller/Diamond/Diamond.sol:Diamond",
        "label": "lastContributorBlock",
        "offset": 0,
        "slot": "36",
        "type": "t_mapping(t_address,t_uint256)"
      },
      {
        "astId": 1862,
        "contract": "contracts/Comptroller/Diamond/Diamond.sol:Diamond",
        "label": "liquidatorContract",
        "offset": 0,
        "slot": "37",
        "type": "t_address"
      },
      {
        "astId": 1868,
        "contract": "contracts/Comptroller/Diamond/Diamond.sol:Diamond",
        "label": "comptrollerLens",
        "offset": 0,
        "slot": "38",
        "type": "t_contract(ComptrollerLensInterface)1627"
      },
      {
        "astId": 1876,
        "contract": "contracts/Comptroller/Diamond/Diamond.sol:Diamond",
        "label": "supplyCaps",
        "offset": 0,
        "slot": "39",
        "type": "t_mapping(t_address,t_uint256)"
      },
      {
        "astId": 1882,
        "contract": "contracts/Comptroller/Diamond/Diamond.sol:Diamond",
        "label": "accessControl",
        "offset": 0,
        "slot": "40",
        "type": "t_address"
      },
      {
        "astId": 1889,
        "contract": "contracts/Comptroller/Diamond/Diamond.sol:Diamond",
        "label": "_actionPaused",
        "offset": 0,
        "slot": "41",
        "type": "t_mapping(t_address,t_mapping(t_uint256,t_bool))"
      },
      {
        "astId": 1897,
        "contract": "contracts/Comptroller/Diamond/Diamond.sol:Diamond",
        "label": "venusBorrowSpeeds",
        "offset": 0,
        "slot": "42",
        "type": "t_mapping(t_address,t_uint256)"
      },
      {
        "astId": 1902,
        "contract": "contracts/Comptroller/Diamond/Diamond.sol:Diamond",
        "label": "venusSupplySpeeds",
        "offset": 0,
        "slot": "43",
        "type": "t_mapping(t_address,t_uint256)"
      },
      {
        "astId": 1912,
        "contract": "contracts/Comptroller/Diamond/Diamond.sol:Diamond",
        "label": "approvedDelegates",
        "offset": 0,
        "slot": "44",
        "type": "t_mapping(t_address,t_mapping(t_address,t_bool))"
      },
      {
        "astId": 1920,
        "contract": "contracts/Comptroller/Diamond/Diamond.sol:Diamond",
        "label": "isForcedLiquidationEnabled",
        "offset": 0,
        "slot": "45",
        "type": "t_mapping(t_address,t_bool)"
      },
      {
        "astId": 1939,
        "contract": "contracts/Comptroller/Diamond/Diamond.sol:Diamond",
        "label": "_selectorToFacetAndPosition",
        "offset": 0,
        "slot": "46",
        "type": "t_mapping(t_bytes4,t_struct(FacetAddressAndPosition)1928_storage)"
      },
      {
        "astId": 1944,
        "contract": "contracts/Comptroller/Diamond/Diamond.sol:Diamond",
        "label": "_facetFunctionSelectors",
        "offset": 0,
        "slot": "47",
        "type": "t_mapping(t_address,t_struct(FacetFunctionSelectors)1934_storage)"
      },
      {
        "astId": 1947,
        "contract": "contracts/Comptroller/Diamond/Diamond.sol:Diamond",
        "label": "_facetAddresses",
        "offset": 0,
        "slot": "48",
        "type": "t_array(t_address)dyn_storage"
      },
      {
        "astId": 1954,
        "contract": "contracts/Comptroller/Diamond/Diamond.sol:Diamond",
        "label": "prime",
        "offset": 0,
        "slot": "49",
        "type": "t_contract(IPrime)22475"
      },
      {
        "astId": 1964,
        "contract": "contracts/Comptroller/Diamond/Diamond.sol:Diamond",
        "label": "isForcedLiquidationEnabledForUser",
        "offset": 0,
        "slot": "50",
        "type": "t_mapping(t_address,t_mapping(t_address,t_bool))"
      },
      {
        "astId": 1970,
        "contract": "contracts/Comptroller/Diamond/Diamond.sol:Diamond",
        "label": "xvs",
        "offset": 0,
        "slot": "51",
        "type": "t_address"
      },
      {
        "astId": 1973,
        "contract": "contracts/Comptroller/Diamond/Diamond.sol:Diamond",
        "label": "xvsVToken",
        "offset": 0,
        "slot": "52",
        "type": "t_address"
      },
      {
        "astId": 1992,
        "contract": "contracts/Comptroller/Diamond/Diamond.sol:Diamond",
        "label": "userPoolId",
        "offset": 0,
        "slot": "53",
        "type": "t_mapping(t_address,t_uint96)"
      },
      {
        "astId": 1998,
        "contract": "contracts/Comptroller/Diamond/Diamond.sol:Diamond",
        "label": "pools",
        "offset": 0,
        "slot": "54",
        "type": "t_mapping(t_uint96,t_struct(PoolData)1987_storage)"
      },
      {
        "astId": 2001,
        "contract": "contracts/Comptroller/Diamond/Diamond.sol:Diamond",
        "label": "lastPoolId",
        "offset": 0,
        "slot": "55",
        "type": "t_uint96"
      },
      {
        "astId": 2025,
        "contract": "contracts/Comptroller/Diamond/Diamond.sol:Diamond",
        "label": "authorizedFlashLoan",
        "offset": 0,
        "slot": "56",
        "type": "t_mapping(t_address,t_bool)"
      }
    ],
    "types": {
      "t_address": {
        "encoding": "inplace",
        "label": "address",
        "numberOfBytes": "20"
      },
      "t_array(t_address)dyn_storage": {
        "base": "t_address",
        "encoding": "dynamic_array",
        "label": "address[]",
        "numberOfBytes": "32"
      },
      "t_array(t_bytes4)dyn_storage": {
        "base": "t_bytes4",
        "encoding": "dynamic_array",
        "label": "bytes4[]",
        "numberOfBytes": "32"
      },
      "t_array(t_contract(VToken)32054)dyn_storage": {
        "base": "t_contract(VToken)32054",
        "encoding": "dynamic_array",
        "label": "contract VToken[]",
        "numberOfBytes": "32"
      },
      "t_bool": {
        "encoding": "inplace",
        "label": "bool",
        "numberOfBytes": "1"
      },
      "t_bytes4": {
        "encoding": "inplace",
        "label": "bytes4",
        "numberOfBytes": "4"
      },
      "t_contract(ComptrollerLensInterface)1627": {
        "encoding": "inplace",
        "label": "contract ComptrollerLensInterface",
        "numberOfBytes": "20"
      },
      "t_contract(IPrime)22475": {
        "encoding": "inplace",
        "label": "contract IPrime",
        "numberOfBytes": "20"
      },
      "t_contract(ResilientOracleInterface)992": {
        "encoding": "inplace",
        "label": "contract ResilientOracleInterface",
        "numberOfBytes": "20"
      },
      "t_contract(VAIControllerInterface)25297": {
        "encoding": "inplace",
        "label": "contract VAIControllerInterface",
        "numberOfBytes": "20"
      },
      "t_contract(VToken)32054": {
        "encoding": "inplace",
        "label": "contract VToken",
        "numberOfBytes": "20"
      },
      "t_mapping(t_address,t_array(t_contract(VToken)32054)dyn_storage)": {
        "encoding": "mapping",
        "key": "t_address",
        "label": "mapping(address => contract VToken[])",
        "numberOfBytes": "32",
        "value": "t_array(t_contract(VToken)32054)dyn_storage"
      },
      "t_mapping(t_address,t_bool)": {
        "encoding": "mapping",
        "key": "t_address",
        "label": "mapping(address => bool)",
        "numberOfBytes": "32",
        "value": "t_bool"
      },
      "t_mapping(t_address,t_mapping(t_address,t_bool))": {
        "encoding": "mapping",
        "key": "t_address",
        "label": "mapping(address => mapping(address => bool))",
        "numberOfBytes": "32",
        "value": "t_mapping(t_address,t_bool)"
      },
      "t_mapping(t_address,t_mapping(t_address,t_uint256))": {
        "encoding": "mapping",
        "key": "t_address",
        "label": "mapping(address => mapping(address => uint256))",
        "numberOfBytes": "32",
        "value": "t_mapping(t_address,t_uint256)"
      },
      "t_mapping(t_address,t_mapping(t_uint256,t_bool))": {
        "encoding": "mapping",
        "key": "t_address",
        "label": "mapping(address => mapping(uint256 => bool))",
        "numberOfBytes": "32",
        "value": "t_mapping(t_uint256,t_bool)"
      },
      "t_mapping(t_address,t_struct(FacetFunctionSelectors)1934_storage)": {
        "encoding": "mapping",
        "key": "t_address",
        "label": "mapping(address => struct ComptrollerV13Storage.FacetFunctionSelectors)",
        "numberOfBytes": "32",
        "value": "t_struct(FacetFunctionSelectors)1934_storage"
      },
      "t_mapping(t_address,t_struct(VenusMarketState)1742_storage)": {
        "encoding": "mapping",
        "key": "t_address",
        "label": "mapping(address => struct ComptrollerV1Storage.VenusMarketState)",
        "numberOfBytes": "32",
        "value": "t_struct(VenusMarketState)1742_storage"
      },
      "t_mapping(t_address,t_uint256)": {
        "encoding": "mapping",
        "key": "t_address",
        "label": "mapping(address => uint256)",
        "numberOfBytes": "32",
        "value": "t_uint256"
      },
      "t_mapping(t_address,t_uint96)": {
        "encoding": "mapping",
        "key": "t_address",
        "label": "mapping(address => uint96)",
        "numberOfBytes": "32",
        "value": "t_uint96"
      },
      "t_mapping(t_bytes4,t_struct(FacetAddressAndPosition)1928_storage)": {
        "encoding": "mapping",
        "key": "t_bytes4",
        "label": "mapping(bytes4 => struct ComptrollerV13Storage.FacetAddressAndPosition)",
        "numberOfBytes": "32",
        "value": "t_struct(FacetAddressAndPosition)1928_storage"
      },
      "t_mapping(t_uint256,t_bool)": {
        "encoding": "mapping",
        "key": "t_uint256",
        "label": "mapping(uint256 => bool)",
        "numberOfBytes": "32",
        "value": "t_bool"
      },
      "t_mapping(t_uint96,t_struct(PoolData)1987_storage)": {
        "encoding": "mapping",
        "key": "t_uint96",
        "label": "mapping(uint96 => struct ComptrollerV17Storage.PoolData)",
        "numberOfBytes": "32",
        "value": "t_struct(PoolData)1987_storage"
      },
      "t_mapping(t_userDefinedValueType(PoolMarketId)11152,t_struct(Market)1703_storage)": {
        "encoding": "mapping",
        "key": "t_userDefinedValueType(PoolMarketId)11152",
        "label": "mapping(PoolMarketId => struct ComptrollerV1Storage.Market)",
        "numberOfBytes": "32",
        "value": "t_struct(Market)1703_storage"
      },
      "t_string_storage": {
        "encoding": "bytes",
        "label": "string",
        "numberOfBytes": "32"
      },
      "t_struct(FacetAddressAndPosition)1928_storage": {
        "encoding": "inplace",
        "label": "struct ComptrollerV13Storage.FacetAddressAndPosition",
        "members": [
          {
            "astId": 1925,
            "contract": "contracts/Comptroller/Diamond/Diamond.sol:Diamond",
            "label": "facetAddress",
            "offset": 0,
            "slot": "0",
            "type": "t_address"
          },
          {
            "astId": 1927,
            "contract": "contracts/Comptroller/Diamond/Diamond.sol:Diamond",
            "label": "functionSelectorPosition",
            "offset": 20,
            "slot": "0",
            "type": "t_uint96"
          }
        ],
        "numberOfBytes": "32"
      },
      "t_struct(FacetFunctionSelectors)1934_storage": {
        "encoding": "inplace",
        "label": "struct ComptrollerV13Storage.FacetFunctionSelectors",
        "members": [
          {
            "astId": 1931,
            "contract": "contracts/Comptroller/Diamond/Diamond.sol:Diamond",
            "label": "functionSelectors",
            "offset": 0,
            "slot": "0",
            "type": "t_array(t_bytes4)dyn_storage"
          },
          {
            "astId": 1933,
            "contract": "contracts/Comptroller/Diamond/Diamond.sol:Diamond",
            "label": "facetAddressPosition",
            "offset": 0,
            "slot": "1",
            "type": "t_uint256"
          }
        ],
        "numberOfBytes": "64"
      },
      "t_struct(Market)1703_storage": {
        "encoding": "inplace",
        "label": "struct ComptrollerV1Storage.Market",
        "members": [
          {
            "astId": 1679,
            "contract": "contracts/Comptroller/Diamond/Diamond.sol:Diamond",
            "label": "isListed",
            "offset": 0,
            "slot": "0",
            "type": "t_bool"
          },
          {
            "astId": 1682,
            "contract": "contracts/Comptroller/Diamond/Diamond.sol:Diamond",
            "label": "collateralFactorMantissa",
            "offset": 0,
            "slot": "1",
            "type": "t_uint256"
          },
          {
            "astId": 1687,
            "contract": "contracts/Comptroller/Diamond/Diamond.sol:Diamond",
            "label": "accountMembership",
            "offset": 0,
            "slot": "2",
            "type": "t_mapping(t_address,t_bool)"
          },
          {
            "astId": 1690,
            "contract": "contracts/Comptroller/Diamond/Diamond.sol:Diamond",
            "label": "isVenus",
            "offset": 0,
            "slot": "3",
            "type": "t_bool"
          },
          {
            "astId": 1693,
            "contract": "contracts/Comptroller/Diamond/Diamond.sol:Diamond",
            "label": "liquidationThresholdMantissa",
            "offset": 0,
            "slot": "4",
            "type": "t_uint256"
          },
          {
            "astId": 1696,
            "contract": "contracts/Comptroller/Diamond/Diamond.sol:Diamond",
            "label": "liquidationIncentiveMantissa",
            "offset": 0,
            "slot": "5",
            "type": "t_uint256"
          },
          {
            "astId": 1699,
            "contract": "contracts/Comptroller/Diamond/Diamond.sol:Diamond",
            "label": "poolId",
            "offset": 0,
            "slot": "6",
            "type": "t_uint96"
          },
          {
            "astId": 1702,
            "contract": "contracts/Comptroller/Diamond/Diamond.sol:Diamond",
            "label": "isBorrowAllowed",
            "offset": 12,
            "slot": "6",
            "type": "t_bool"
          }
        ],
        "numberOfBytes": "224"
      },
      "t_struct(PoolData)1987_storage": {
        "encoding": "inplace",
        "label": "struct ComptrollerV17Storage.PoolData",
        "members": [
          {
            "astId": 1979,
            "contract": "contracts/Comptroller/Diamond/Diamond.sol:Diamond",
            "label": "label",
            "offset": 0,
            "slot": "0",
            "type": "t_string_storage"
          },
          {
            "astId": 1983,
            "contract": "contracts/Comptroller/Diamond/Diamond.sol:Diamond",
            "label": "vTokens",
            "offset": 0,
            "slot": "1",
            "type": "t_array(t_address)dyn_storage"
          },
          {
            "astId": 1986,
            "contract": "contracts/Comptroller/Diamond/Diamond.sol:Diamond",
            "label": "isActive",
            "offset": 0,
            "slot": "2",
            "type": "t_bool"
          },
          {
            "astId": 7649,
            "contract": "contracts/Comptroller/Diamond/Diamond.sol:Diamond",
            "label": "allowCorePoolFallback",
            "offset": 1,
            "slot": "2",
            "type": "t_bool"
          }
        ],
        "numberOfBytes": "96"
      },
      "t_struct(VenusMarketState)1742_storage": {
        "encoding": "inplace",
        "label": "struct ComptrollerV1Storage.VenusMarketState",
        "members": [
          {
            "astId": 1738,
            "contract": "contracts/Comptroller/Diamond/Diamond.sol:Diamond",
            "label": "index",
            "offset": 0,
            "slot": "0",
            "type": "t_uint224"
          },
          {
            "astId": 1741,
            "contract": "contracts/Comptroller/Diamond/Diamond.sol:Diamond",
            "label": "block",
            "offset": 28,
            "slot": "0",
            "type": "t_uint32"
          }
        ],
        "numberOfBytes": "32"
      },
      "t_uint224": {
        "encoding": "inplace",
        "label": "uint224",
        "numberOfBytes": "28"
      },
      "t_uint256": {
        "encoding": "inplace",
        "label": "uint256",
        "numberOfBytes": "32"
      },
      "t_uint32": {
        "encoding": "inplace",
        "label": "uint32",
        "numberOfBytes": "4"
      },
      "t_uint96": {
        "encoding": "inplace",
        "label": "uint96",
        "numberOfBytes": "12"
      },
      "t_userDefinedValueType(PoolMarketId)11152": {
        "encoding": "inplace",
        "label": "PoolMarketId",
        "numberOfBytes": "32"
      }
    }
  }
}