{
  "address": "0x11Aa7fF5990E0A341eCeEeE9ddFdF8cE570DD5FD",
  "abi": [
    {
      "anonymous": false,
      "inputs": [
        {
          "components": [
            {
              "internalType": "address",
              "name": "facetAddress",
              "type": "address"
            },
            {
              "internalType": "enum IDiamondCut.FacetCutAction",
              "name": "action",
              "type": "uint8"
            },
            {
              "internalType": "bytes4[]",
              "name": "functionSelectors",
              "type": "bytes4[]"
            }
          ],
          "indexed": false,
          "internalType": "struct IDiamondCut.FacetCut[]",
          "name": "_diamondCut",
          "type": "tuple[]"
        }
      ],
      "name": "DiamondCut",
      "type": "event"
    },
    {
      "stateMutability": "nonpayable",
      "type": "fallback"
    },
    {
      "inputs": [
        {
          "internalType": "contract Unitroller",
          "name": "unitroller",
          "type": "address"
        }
      ],
      "name": "_become",
      "outputs": [],
      "stateMutability": "nonpayable",
      "type": "function"
    },
    {
      "inputs": [
        {
          "internalType": "address",
          "name": "",
          "type": "address"
        },
        {
          "internalType": "uint256",
          "name": "",
          "type": "uint256"
        }
      ],
      "name": "accountAssets",
      "outputs": [
        {
          "internalType": "contract VToken",
          "name": "",
          "type": "address"
        }
      ],
      "stateMutability": "view",
      "type": "function"
    },
    {
      "inputs": [],
      "name": "admin",
      "outputs": [
        {
          "internalType": "address",
          "name": "",
          "type": "address"
        }
      ],
      "stateMutability": "view",
      "type": "function"
    },
    {
      "inputs": [
        {
          "internalType": "uint256",
          "name": "",
          "type": "uint256"
        }
      ],
      "name": "allMarkets",
      "outputs": [
        {
          "internalType": "contract VToken",
          "name": "",
          "type": "address"
        }
      ],
      "stateMutability": "view",
      "type": "function"
    },
    {
      "inputs": [
        {
          "internalType": "address",
          "name": "",
          "type": "address"
        },
        {
          "internalType": "address",
          "name": "",
          "type": "address"
        }
      ],
      "name": "approvedDelegates",
      "outputs": [
        {
          "internalType": "bool",
          "name": "",
          "type": "bool"
        }
      ],
      "stateMutability": "view",
      "type": "function"
    },
    {
      "inputs": [],
      "name": "borrowCapGuardian",
      "outputs": [
        {
          "internalType": "address",
          "name": "",
          "type": "address"
        }
      ],
      "stateMutability": "view",
      "type": "function"
    },
    {
      "inputs": [
        {
          "internalType": "address",
          "name": "",
          "type": "address"
        }
      ],
      "name": "borrowCaps",
      "outputs": [
        {
          "internalType": "uint256",
          "name": "",
          "type": "uint256"
        }
      ],
      "stateMutability": "view",
      "type": "function"
    },
    {
      "inputs": [],
      "name": "closeFactorMantissa",
      "outputs": [
        {
          "internalType": "uint256",
          "name": "",
          "type": "uint256"
        }
      ],
      "stateMutability": "view",
      "type": "function"
    },
    {
      "inputs": [],
      "name": "comptrollerImplementation",
      "outputs": [
        {
          "internalType": "address",
          "name": "",
          "type": "address"
        }
      ],
      "stateMutability": "view",
      "type": "function"
    },
    {
      "inputs": [],
      "name": "comptrollerLens",
      "outputs": [
        {
          "internalType": "contract ComptrollerLensInterface",
          "name": "",
          "type": "address"
        }
      ],
      "stateMutability": "view",
      "type": "function"
    },
    {
      "inputs": [
        {
          "components": [
            {
              "internalType": "address",
              "name": "facetAddress",
              "type": "address"
            },
            {
              "internalType": "enum IDiamondCut.FacetCutAction",
              "name": "action",
              "type": "uint8"
            },
            {
              "internalType": "bytes4[]",
              "name": "functionSelectors",
              "type": "bytes4[]"
            }
          ],
          "internalType": "struct IDiamondCut.FacetCut[]",
          "name": "diamondCut_",
          "type": "tuple[]"
        }
      ],
      "name": "diamondCut",
      "outputs": [],
      "stateMutability": "nonpayable",
      "type": "function"
    },
    {
      "inputs": [
        {
          "internalType": "bytes4",
          "name": "functionSelector",
          "type": "bytes4"
        }
      ],
      "name": "facetAddress",
      "outputs": [
        {
          "components": [
            {
              "internalType": "address",
              "name": "facetAddress",
              "type": "address"
            },
            {
              "internalType": "uint96",
              "name": "functionSelectorPosition",
              "type": "uint96"
            }
          ],
          "internalType": "struct ComptrollerV13Storage.FacetAddressAndPosition",
          "name": "",
          "type": "tuple"
        }
      ],
      "stateMutability": "view",
      "type": "function"
    },
    {
      "inputs": [],
      "name": "facetAddresses",
      "outputs": [
        {
          "internalType": "address[]",
          "name": "",
          "type": "address[]"
        }
      ],
      "stateMutability": "view",
      "type": "function"
    },
    {
      "inputs": [
        {
          "internalType": "address",
          "name": "facet",
          "type": "address"
        }
      ],
      "name": "facetFunctionSelectors",
      "outputs": [
        {
          "internalType": "bytes4[]",
          "name": "",
          "type": "bytes4[]"
        }
      ],
      "stateMutability": "view",
      "type": "function"
    },
    {
      "inputs": [
        {
          "internalType": "address",
          "name": "facet",
          "type": "address"
        }
      ],
      "name": "facetPosition",
      "outputs": [
        {
          "internalType": "uint256",
          "name": "",
          "type": "uint256"
        }
      ],
      "stateMutability": "view",
      "type": "function"
    },
    {
      "inputs": [],
      "name": "facets",
      "outputs": [
        {
          "components": [
            {
              "internalType": "address",
              "name": "facetAddress",
              "type": "address"
            },
            {
              "internalType": "bytes4[]",
              "name": "functionSelectors",
              "type": "bytes4[]"
            }
          ],
          "internalType": "struct Diamond.Facet[]",
          "name": "",
          "type": "tuple[]"
        }
      ],
      "stateMutability": "view",
      "type": "function"
    },
    {
      "inputs": [
        {
          "internalType": "address",
          "name": "",
          "type": "address"
        }
      ],
      "name": "isForcedLiquidationEnabled",
      "outputs": [
        {
          "internalType": "bool",
          "name": "",
          "type": "bool"
        }
      ],
      "stateMutability": "view",
      "type": "function"
    },
    {
      "inputs": [
        {
          "internalType": "address",
          "name": "user",
          "type": "address"
        },
        {
          "internalType": "address",
          "name": "market",
          "type": "address"
        }
      ],
      "name": "isForcedLiquidationEnabledForUser",
      "outputs": [
        {
          "internalType": "bool",
          "name": "",
          "type": "bool"
        }
      ],
      "stateMutability": "view",
      "type": "function"
    },
    {
      "inputs": [],
      "name": "lastPoolId",
      "outputs": [
        {
          "internalType": "uint96",
          "name": "",
          "type": "uint96"
        }
      ],
      "stateMutability": "view",
      "type": "function"
    },
    {
      "inputs": [],
      "name": "liquidatorContract",
      "outputs": [
        {
          "internalType": "address",
          "name": "",
          "type": "address"
        }
      ],
      "stateMutability": "view",
      "type": "function"
    },
    {
      "inputs": [],
      "name": "maxAssets",
      "outputs": [
        {
          "internalType": "uint256",
          "name": "",
          "type": "uint256"
        }
      ],
      "stateMutability": "view",
      "type": "function"
    },
    {
      "inputs": [],
      "name": "minReleaseAmount",
      "outputs": [
        {
          "internalType": "uint256",
          "name": "",
          "type": "uint256"
        }
      ],
      "stateMutability": "view",
      "type": "function"
    },
    {
      "inputs": [],
      "name": "mintVAIGuardianPaused",
      "outputs": [
        {
          "internalType": "bool",
          "name": "",
          "type": "bool"
        }
      ],
      "stateMutability": "view",
      "type": "function"
    },
    {
      "inputs": [
        {
          "internalType": "address",
          "name": "",
          "type": "address"
        }
      ],
      "name": "mintedVAIs",
      "outputs": [
        {
          "internalType": "uint256",
          "name": "",
          "type": "uint256"
        }
      ],
      "stateMutability": "view",
      "type": "function"
    },
    {
      "inputs": [],
      "name": "oracle",
      "outputs": [
        {
          "internalType": "contract ResilientOracleInterface",
          "name": "",
          "type": "address"
        }
      ],
      "stateMutability": "view",
      "type": "function"
    },
    {
      "inputs": [],
      "name": "pauseGuardian",
      "outputs": [
        {
          "internalType": "address",
          "name": "",
          "type": "address"
        }
      ],
      "stateMutability": "view",
      "type": "function"
    },
    {
      "inputs": [],
      "name": "pendingAdmin",
      "outputs": [
        {
          "internalType": "address",
          "name": "",
          "type": "address"
        }
      ],
      "stateMutability": "view",
      "type": "function"
    },
    {
      "inputs": [],
      "name": "pendingComptrollerImplementation",
      "outputs": [
        {
          "internalType": "address",
          "name": "",
          "type": "address"
        }
      ],
      "stateMutability": "view",
      "type": "function"
    },
    {
      "inputs": [
        {
          "internalType": "uint96",
          "name": "",
          "type": "uint96"
        }
      ],
      "name": "pools",
      "outputs": [
        {
          "internalType": "string",
          "name": "label",
          "type": "string"
        },
        {
          "internalType": "bool",
          "name": "isActive",
          "type": "bool"
        }
      ],
      "stateMutability": "view",
      "type": "function"
    },
    {
      "inputs": [],
      "name": "prime",
      "outputs": [
        {
          "internalType": "contract IPrime",
          "name": "",
          "type": "address"
        }
      ],
      "stateMutability": "view",
      "type": "function"
    },
    {
      "inputs": [],
      "name": "protocolPaused",
      "outputs": [
        {
          "internalType": "bool",
          "name": "",
          "type": "bool"
        }
      ],
      "stateMutability": "view",
      "type": "function"
    },
    {
      "inputs": [],
      "name": "releaseStartBlock",
      "outputs": [
        {
          "internalType": "uint256",
          "name": "",
          "type": "uint256"
        }
      ],
      "stateMutability": "view",
      "type": "function"
    },
    {
      "inputs": [],
      "name": "repayVAIGuardianPaused",
      "outputs": [
        {
          "internalType": "bool",
          "name": "",
          "type": "bool"
        }
      ],
      "stateMutability": "view",
      "type": "function"
    },
    {
      "inputs": [
        {
          "internalType": "address",
          "name": "",
          "type": "address"
        }
      ],
      "name": "supplyCaps",
      "outputs": [
        {
          "internalType": "uint256",
          "name": "",
          "type": "uint256"
        }
      ],
      "stateMutability": "view",
      "type": "function"
    },
    {
      "inputs": [],
      "name": "treasuryAddress",
      "outputs": [
        {
          "internalType": "address",
          "name": "",
          "type": "address"
        }
      ],
      "stateMutability": "view",
      "type": "function"
    },
    {
      "inputs": [],
      "name": "treasuryGuardian",
      "outputs": [
        {
          "internalType": "address",
          "name": "",
          "type": "address"
        }
      ],
      "stateMutability": "view",
      "type": "function"
    },
    {
      "inputs": [],
      "name": "treasuryPercent",
      "outputs": [
        {
          "internalType": "uint256",
          "name": "",
          "type": "uint256"
        }
      ],
      "stateMutability": "view",
      "type": "function"
    },
    {
      "inputs": [
        {
          "internalType": "address",
          "name": "",
          "type": "address"
        }
      ],
      "name": "userPoolId",
      "outputs": [
        {
          "internalType": "uint96",
          "name": "",
          "type": "uint96"
        }
      ],
      "stateMutability": "view",
      "type": "function"
    },
    {
      "inputs": [],
      "name": "vaiController",
      "outputs": [
        {
          "internalType": "contract VAIControllerInterface",
          "name": "",
          "type": "address"
        }
      ],
      "stateMutability": "view",
      "type": "function"
    },
    {
      "inputs": [],
      "name": "vaiMintRate",
      "outputs": [
        {
          "internalType": "uint256",
          "name": "",
          "type": "uint256"
        }
      ],
      "stateMutability": "view",
      "type": "function"
    },
    {
      "inputs": [],
      "name": "vaiVaultAddress",
      "outputs": [
        {
          "internalType": "address",
          "name": "",
          "type": "address"
        }
      ],
      "stateMutability": "view",
      "type": "function"
    },
    {
      "inputs": [
        {
          "internalType": "address",
          "name": "",
          "type": "address"
        }
      ],
      "name": "venusAccrued",
      "outputs": [
        {
          "internalType": "uint256",
          "name": "",
          "type": "uint256"
        }
      ],
      "stateMutability": "view",
      "type": "function"
    },
    {
      "inputs": [
        {
          "internalType": "address",
          "name": "",
          "type": "address"
        }
      ],
      "name": "venusBorrowSpeeds",
      "outputs": [
        {
          "internalType": "uint256",
          "name": "",
          "type": "uint256"
        }
      ],
      "stateMutability": "view",
      "type": "function"
    },
    {
      "inputs": [
        {
          "internalType": "address",
          "name": "",
          "type": "address"
        }
      ],
      "name": "venusBorrowState",
      "outputs": [
        {
          "internalType": "uint224",
          "name": "index",
          "type": "uint224"
        },
        {
          "internalType": "uint32",
          "name": "block",
          "type": "uint32"
        }
      ],
      "stateMutability": "view",
      "type": "function"
    },
    {
      "inputs": [
        {
          "internalType": "address",
          "name": "",
          "type": "address"
        },
        {
          "internalType": "address",
          "name": "",
          "type": "address"
        }
      ],
      "name": "venusBorrowerIndex",
      "outputs": [
        {
          "internalType": "uint256",
          "name": "",
          "type": "uint256"
        }
      ],
      "stateMutability": "view",
      "type": "function"
    },
    {
      "inputs": [
        {
          "internalType": "address",
          "name": "",
          "type": "address"
        },
        {
          "internalType": "address",
          "name": "",
          "type": "address"
        }
      ],
      "name": "venusSupplierIndex",
      "outputs": [
        {
          "internalType": "uint256",
          "name": "",
          "type": "uint256"
        }
      ],
      "stateMutability": "view",
      "type": "function"
    },
    {
      "inputs": [
        {
          "internalType": "address",
          "name": "",
          "type": "address"
        }
      ],
      "name": "venusSupplySpeeds",
      "outputs": [
        {
          "internalType": "uint256",
          "name": "",
          "type": "uint256"
        }
      ],
      "stateMutability": "view",
      "type": "function"
    },
    {
      "inputs": [
        {
          "internalType": "address",
          "name": "",
          "type": "address"
        }
      ],
      "name": "venusSupplyState",
      "outputs": [
        {
          "internalType": "uint224",
          "name": "index",
          "type": "uint224"
        },
        {
          "internalType": "uint32",
          "name": "block",
          "type": "uint32"
        }
      ],
      "stateMutability": "view",
      "type": "function"
    },
    {
      "inputs": [],
      "name": "venusVAIVaultRate",
      "outputs": [
        {
          "internalType": "uint256",
          "name": "",
          "type": "uint256"
        }
      ],
      "stateMutability": "view",
      "type": "function"
    }
  ],
  "transactionHash": "0xd7d83ea646aa3911731652c0b27bdc43f2a44f9100adbddd6d1c13d2fe8f1250",
  "args": [],
  "numDeployments": 4,
  "solcInputHash": "044dc7a340dfc156c37565adf2cf641a",
  "bytecode": "0x6080604052348015600e575f80fd5b50611f968061001c5f395ff3fe608060405234801561000f575f80fd5b50600436106102b9575f3560e01c80638c1ac18a11610180578063bec04f72116100e7578063dcfbc0c7116100a0578063e87554461161007a578063e875544614610898578063f445d703146108a1578063f851a440146108ce578063fa6331d8146108e0576102b9565b8063dcfbc0c71461083b578063e37d4b791461084e578063e57e69c614610885576102b9565b8063bec04f7214610750578063c5f956af14610759578063c7ee005e1461076c578063cdffacc61461077f578063d3270f9914610815578063dce1544914610828576102b9565b8063a657e57911610139578063a657e5791461067d578063adfca15e14610690578063b2eafc39146106b0578063b8324c7c146106c3578063bb82aa5e1461071e578063bbb8864a14610731576102b9565b80638c1ac18a146105e05780638f738f36146106025780639254f5e51461062d57806394b2294b1461064057806396c99064146106495780639bb27d621461066a576102b9565b8063425fad581161022457806373769099116101dd578063737690991461053457806376551383146105745780637a0ed627146105865780637d172bd51461059b5780637dc0d1d0146105ae5780638a7dc165146105c1576102b9565b8063425fad58146104b25780634a584432146104c557806352d84d1e146104e457806352ef6b2c146104f75780635dd3fc9d1461050c578063719f701b1461052b576102b9565b806321af45691161027657806321af45691461040b57806324a3d6221461043657806326782247146104495780632bc7e29e1461045c5780634088c73e1461047b57806341a18d2c14610488576102b9565b806302c3bcbb1461034d57806304ef9d581461037f57806308e0225c146103885780630db4b4e5146103b257806310b98338146103bb5780631d504dc6146103f8575b5f80356001600160e01b0319168152602e60205260409020546001600160a01b03168061032d5760405162461bcd60e51b815260206004820181905260248201527f4469616d6f6e643a2046756e6374696f6e20646f6573206e6f7420657869737460448201526064015b60405180910390fd5b365f80375f80365f845af43d5f803e808015610347573d5ff35b3d5ffd5b005b61036c61035b3660046118ca565b60276020525f908152604090205481565b6040519081526020015b60405180910390f35b61036c60225481565b61036c6103963660046118ec565b601360209081525f928352604080842090915290825290205481565b61036c601d5481565b6103e86103c93660046118ec565b602c60209081525f928352604080842090915290825290205460ff1681565b6040519015158152602001610376565b61034b6104063660046118ca565b6108e9565b601e5461041e906001600160a01b031681565b6040516001600160a01b039091168152602001610376565b600a5461041e906001600160a01b031681565b60015461041e906001600160a01b031681565b61036c61046a3660046118ca565b60166020525f908152604090205481565b6018546103e89060ff1681565b61036c6104963660046118ec565b601260209081525f928352604080842090915290825290205481565b6018546103e89062010000900460ff1681565b61036c6104d33660046118ca565b601f6020525f908152604090205481565b61041e6104f2366004611923565b610a47565b6104ff610a6f565b604051610376919061193a565b61036c61051a3660046118ca565b602b6020525f908152604090205481565b61036c601c5481565b61055c6105423660046118ca565b60356020525f90815260409020546001600160601b031681565b6040516001600160601b039091168152602001610376565b6018546103e890610100900460ff1681565b61058e610acf565b60405161037691906119ca565b601b5461041e906001600160a01b031681565b60045461041e906001600160a01b031681565b61036c6105cf3660046118ca565b60146020525f908152604090205481565b6103e86105ee3660046118ca565b602d6020525f908152604090205460ff1681565b61036c6106103660046118ca565b6001600160a01b03165f908152602f602052604090206001015490565b60155461041e906001600160a01b031681565b61036c60075481565b61065c610657366004611a47565b610c53565b604051610376929190611a9b565b60255461041e906001600160a01b031681565b60375461055c906001600160601b031681565b6106a361069e3660046118ca565b610cf7565b6040516103769190611abe565b60205461041e906001600160a01b031681565b6106fa6106d13660046118ca565b60106020525f90815260409020546001600160e01b03811690600160e01b900463ffffffff1682565b604080516001600160e01b03909316835263ffffffff909116602083015201610376565b60025461041e906001600160a01b031681565b61036c61073f3660046118ca565b602a6020525f908152604090205481565b61036c60175481565b60215461041e906001600160a01b031681565b60315461041e906001600160a01b031681565b6107e861078d366004611aec565b604080518082019091525f8082526020820152506001600160e01b0319165f908152602e60209081526040918290208251808401909352546001600160a01b0381168352600160a01b90046001600160601b03169082015290565b6040805182516001600160a01b031681526020928301516001600160601b03169281019290925201610376565b60265461041e906001600160a01b031681565b61041e610836366004611b05565b610d8c565b60035461041e906001600160a01b031681565b6106fa61085c3660046118ca565b60116020525f90815260409020546001600160e01b03811690600160e01b900463ffffffff1682565b61034b610893366004611bc0565b610dc0565b61036c60055481565b6103e86108af3660046118ec565b603260209081525f928352604080842090915290825290205460ff1681565b5f5461041e906001600160a01b031681565b61036c601a5481565b806001600160a01b031663f851a4406040518163ffffffff1660e01b8152600401602060405180830381865afa158015610925573d5f803e3d5ffd5b505050506040513d601f19601f820116820180604052508101906109499190611d26565b6001600160a01b0316336001600160a01b0316146109a55760405162461bcd60e51b815260206004820152601960248201527837b7363c903ab734ba3937b63632b91030b236b4b71031b0b760391b6044820152606401610324565b806001600160a01b031663c1e803346040518163ffffffff1660e01b81526004016020604051808303815f875af11580156109e2573d5f803e3d5ffd5b505050506040513d601f19601f82011682018060405250810190610a069190611d41565b15610a445760405162461bcd60e51b815260206004820152600e60248201526d1b9bdd08185d5d1a1bdc9a5e995960921b6044820152606401610324565b50565b600d8181548110610a56575f80fd5b5f918252602090912001546001600160a01b0316905081565b60606030805480602002602001604051908101604052809291908181526020018280548015610ac557602002820191905f5260205f20905b81546001600160a01b03168152600190910190602001808311610aa7575b5050505050905090565b6030546060905f8167ffffffffffffffff811115610aef57610aef611b2f565b604051908082528060200260200182016040528015610b3457816020015b604080518082019091525f815260606020820152815260200190600190039081610b0d5790505b5090505f5b82811015610c4c575f60308281548110610b5557610b55611d58565b905f5260205f20015f9054906101000a90046001600160a01b0316905080838381518110610b8557610b85611d58565b6020908102919091018101516001600160a01b0392831690529082165f908152602f825260409081902080548251818502810185019093528083529192909190830182828015610c1e57602002820191905f5260205f20905f905b82829054906101000a900460e01b6001600160e01b03191681526020019060040190602082600301049283019260010382029150808411610be05790505b5050505050838381518110610c3557610c35611d58565b602090810291909101810151015250600101610b39565b5092915050565b60366020525f9081526040902080548190610c6d90611d6c565b80601f0160208091040260200160405190810160405280929190818152602001828054610c9990611d6c565b8015610ce45780601f10610cbb57610100808354040283529160200191610ce4565b820191905f5260205f20905b815481529060010190602001808311610cc757829003601f168201915b5050506002909301549192505060ff1682565b6001600160a01b0381165f908152602f6020908152604091829020805483518184028101840190945280845260609392830182828015610d8057602002820191905f5260205f20905f905b82829054906101000a900460e01b6001600160e01b03191681526020019060040190602082600301049283019260010382029150808411610d425790505b50505050509050919050565b6008602052815f5260405f208181548110610da5575f80fd5b5f918252602090912001546001600160a01b03169150829050565b5f546001600160a01b03163314610e155760405162461bcd60e51b815260206004820152601960248201527837b7363c903ab734ba3937b63632b91030b236b4b71031b0b760391b6044820152606401610324565b610a448180515f5b81811015610fd0575f838281518110610e3857610e38611d58565b60200260200101516020015190505f6002811115610e5857610e58611da4565b816002811115610e6a57610e6a611da4565b03610eb757610eb2848381518110610e8457610e84611d58565b60200260200101515f0151858481518110610ea157610ea1611d58565b60200260200101516040015161100c565b610fc7565b6001816002811115610ecb57610ecb611da4565b03610f1357610eb2848381518110610ee557610ee5611d58565b60200260200101515f0151858481518110610f0257610f02611d58565b60200260200101516040015161116b565b6002816002811115610f2757610f27611da4565b03610f6f57610eb2848381518110610f4157610f41611d58565b60200260200101515f0151858481518110610f5e57610f5e611d58565b6020026020010151604001516112da565b60405162461bcd60e51b815260206004820152602760248201527f4c69624469616d6f6e644375743a20496e636f727265637420466163657443756044820152663a20b1ba34b7b760c91b6064820152608401610324565b50600101610e1d565b507f2e97860c6f47eab0292d51fa3ceec7e373c62af1e7eb2a28ae82998b80de6cfd826040516110009190611db8565b60405180910390a15050565b80515f0361102c5760405162461bcd60e51b815260040161032490611e51565b6001600160a01b0382166110525760405162461bcd60e51b815260040161032490611e9c565b6001600160a01b0382165f908152602f6020526040812054906001600160601b038216900361108457611084836113db565b81515f5b81811015611164575f8482815181106110a3576110a3611d58565b6020908102919091018101516001600160e01b031981165f908152602e9092526040909120549091506001600160a01b031680156111415760405162461bcd60e51b815260206004820152603560248201527f4c69624469616d6f6e644375743a2043616e2774206164642066756e6374696f6044820152746e207468617420616c72656164792065786973747360581b6064820152608401610324565b61114c82868961147d565b61115585611efc565b94505050806001019050611088565b5050505050565b80515f0361118b5760405162461bcd60e51b815260040161032490611e51565b6001600160a01b0382166111b15760405162461bcd60e51b815260040161032490611e9c565b6001600160a01b0382165f908152602f6020526040812054906001600160601b03821690036111e3576111e3836113db565b81515f5b81811015611164575f84828151811061120257611202611d58565b6020908102919091018101516001600160e01b031981165f908152602e9092526040909120549091506001600160a01b0390811690871681036112ad5760405162461bcd60e51b815260206004820152603860248201527f4c69624469616d6f6e644375743a2043616e2774207265706c6163652066756e60448201527f6374696f6e20776974682073616d652066756e6374696f6e00000000000000006064820152608401610324565b6112b7818361151b565b6112c282868961147d565b6112cb85611efc565b945050508060010190506111e7565b80515f8190036112fc5760405162461bcd60e51b815260040161032490611e51565b6001600160a01b038316156113725760405162461bcd60e51b815260206004820152603660248201527f4c69624469616d6f6e644375743a2052656d6f76652066616365742061646472604482015275657373206d757374206265206164647265737328302960501b6064820152608401610324565b5f5b818110156113d5575f83828151811061138f5761138f611d58565b6020908102919091018101516001600160e01b031981165f908152602e9092526040909120549091506001600160a01b03166113cb818361151b565b5050600101611374565b50505050565b61141a816040518060400160405280601e81526020017f4469616d6f6e643a204e657720666163657420686173206e6f20636f64650000815250611860565b603080546001600160a01b039092165f818152602f60205260408120600190810185905584018355919091527f6ff97a59c90d62cc7236ba3a37cd85351bf564556780cf8c1157a220f31f0cbb90910180546001600160a01b0319169091179055565b6001600160e01b031983165f818152602e6020818152604080842080546001600160601b03909816600160a01b026001600160a01b0398891617815595909616808452602f825295832080546001810182559084528184206008820401805460e09990991c60046007909316929092026101000a91820263ffffffff909202199098161790965591905290925281546001600160a01b031916179055565b6001600160a01b0382166115975760405162461bcd60e51b815260206004820152603760248201527f4c69624469616d6f6e644375743a2043616e27742072656d6f76652066756e6360448201527f74696f6e207468617420646f65736e27742065786973740000000000000000006064820152608401610324565b6001600160e01b031981165f908152602e60209081526040808320546001600160a01b0386168452602f909252822054600160a01b9091046001600160601b031691906115e690600190611f21565b90508082146116d2576001600160a01b0384165f908152602f6020526040812080548390811061161857611618611d58565b5f91825260208083206008830401546001600160a01b0389168452602f9091526040909220805460079092166004026101000a90920460e01b92508291908590811061166657611666611d58565b5f91825260208083206008830401805463ffffffff60079094166004026101000a938402191660e09590951c929092029390931790556001600160e01b0319929092168252602e90526040902080546001600160a01b0316600160a01b6001600160601b038516021790555b6001600160a01b0384165f908152602f602052604090208054806116f8576116f8611f3a565b5f828152602080822060085f1990940193840401805463ffffffff600460078716026101000a0219169055919092556001600160e01b031985168252602e9052604081208190558190036113d5576030545f9061175790600190611f21565b6001600160a01b0386165f908152602f60205260409020600101549091508082146117fb575f6030838154811061179057611790611d58565b5f91825260209091200154603080546001600160a01b0390921692508291849081106117be576117be611d58565b5f91825260208083209190910180546001600160a01b0319166001600160a01b03948516179055929091168152602f909152604090206001018190555b603080548061180c5761180c611f3a565b5f828152602080822083015f1990810180546001600160a01b03191690559092019092556001600160a01b0388168252602f9052604081209061184f8282611881565b600182015f90555050505050505050565b813b81816113d55760405162461bcd60e51b81526004016103249190611f4e565b5080545f825560070160089004905f5260205f2090810190610a4491905b808211156118b2575f815560010161189f565b5090565b6001600160a01b0381168114610a44575f80fd5b5f602082840312156118da575f80fd5b81356118e5816118b6565b9392505050565b5f80604083850312156118fd575f80fd5b8235611908816118b6565b91506020830135611918816118b6565b809150509250929050565b5f60208284031215611933575f80fd5b5035919050565b602080825282518282018190525f9190848201906040850190845b8181101561197a5783516001600160a01b031683529284019291840191600101611955565b50909695505050505050565b5f815180845260208085019450602084015f5b838110156119bf5781516001600160e01b03191687529582019590820190600101611999565b509495945050505050565b5f60208083018184528085518083526040925060408601915060408160051b8701018488015f5b83811015611a3957888303603f19018552815180516001600160a01b03168452870151878401879052611a2687850182611986565b95880195935050908601906001016119f1565b509098975050505050505050565b5f60208284031215611a57575f80fd5b81356001600160601b03811681146118e5575f80fd5b5f81518084528060208401602086015e5f602082860101526020601f19601f83011685010191505092915050565b604081525f611aad6040830185611a6d565b905082151560208301529392505050565b602081525f6118e56020830184611986565b80356001600160e01b031981168114611ae7575f80fd5b919050565b5f60208284031215611afc575f80fd5b6118e582611ad0565b5f8060408385031215611b16575f80fd5b8235611b21816118b6565b946020939093013593505050565b634e487b7160e01b5f52604160045260245ffd5b6040516060810167ffffffffffffffff81118282101715611b6657611b66611b2f565b60405290565b604051601f8201601f1916810167ffffffffffffffff81118282101715611b9557611b95611b2f565b604052919050565b5f67ffffffffffffffff821115611bb657611bb6611b2f565b5060051b60200190565b5f6020808385031215611bd1575f80fd5b823567ffffffffffffffff80821115611be8575f80fd5b818501915085601f830112611bfb575f80fd5b8135611c0e611c0982611b9d565b611b6c565b81815260059190911b83018401908481019088831115611c2c575f80fd5b8585015b83811015611d1957803585811115611c46575f80fd5b86016060818c03601f1901811315611c5c575f80fd5b611c64611b43565b89830135611c71816118b6565b815260408381013560038110611c85575f80fd5b828c0152918301359188831115611c9a575f80fd5b82840193508d603f850112611cad575f80fd5b8a8401359250611cbf611c0984611b9d565b83815260059390931b84018101928b8101908f851115611cdd575f80fd5b948201945b84861015611d0257611cf386611ad0565b8252948c0194908c0190611ce2565b918301919091525085525050918601918601611c30565b5098975050505050505050565b5f60208284031215611d36575f80fd5b81516118e5816118b6565b5f60208284031215611d51575f80fd5b5051919050565b634e487b7160e01b5f52603260045260245ffd5b600181811c90821680611d8057607f821691505b602082108103611d9e57634e487b7160e01b5f52602260045260245ffd5b50919050565b634e487b7160e01b5f52602160045260245ffd5b5f60208083018184528085518083526040925060408601915060408160051b8701018488015f5b83811015611a3957888303603f19018552815180516001600160a01b031684528781015160609060038110611e2257634e487b7160e01b5f52602160045260245ffd5b858a01529087015187850182905290611e3d81860183611986565b968901969450505090860190600101611ddf565b6020808252602b908201527f4c69624469616d6f6e644375743a204e6f2073656c6563746f727320696e206660408201526a1858d95d081d1bc818dd5d60aa1b606082015260800190565b6020808252602c908201527f4c69624469616d6f6e644375743a204164642066616365742063616e2774206260408201526b65206164647265737328302960a01b606082015260800190565b634e487b7160e01b5f52601160045260245ffd5b5f6001600160601b03808316818103611f1757611f17611ee8565b6001019392505050565b81810381811115611f3457611f34611ee8565b92915050565b634e487b7160e01b5f52603160045260245ffd5b602081525f6118e56020830184611a6d56fea264697066735822122043dfda9ee5896043a27639bef094450448b412d2348a56b222322fcba6be35bf64736f6c63430008190033",
  "devdoc": {
    "author": "Venus",
    "kind": "dev",
    "methods": {
      "_become(address)": {
        "params": {
          "unitroller": "Address of the unitroller"
        }
      },
      "diamondCut((address,uint8,bytes4[])[])": {
        "details": "Allows the contract admin to add function selectors",
        "params": {
          "diamondCut_": "IDiamondCut contains facets address, action and function selectors"
        }
      },
      "facetAddress(bytes4)": {
        "params": {
          "functionSelector": "function selector"
        },
        "returns": {
          "_0": "FacetAddressAndPosition facet address and position"
        }
      },
      "facetAddresses()": {
        "returns": {
          "_0": "facetAddresses Array of facet addresses"
        }
      },
      "facetFunctionSelectors(address)": {
        "params": {
          "facet": "Address of the facet"
        },
        "returns": {
          "_0": "selectors Array of function selectors"
        }
      },
      "facetPosition(address)": {
        "params": {
          "facet": "Address of the facet"
        },
        "returns": {
          "_0": "Position of the facet"
        }
      },
      "facets()": {
        "returns": {
          "_0": "facets_ Array of Facet"
        }
      }
    },
    "title": "Diamond",
    "version": 1
  },
  "userdoc": {
    "events": {
      "DiamondCut((address,uint8,bytes4[])[])": {
        "notice": "Emitted when functions are added, replaced or removed to facets"
      }
    },
    "kind": "user",
    "methods": {
      "_become(address)": {
        "notice": "Call _acceptImplementation to accept the diamond proxy as new implementaion"
      },
      "accountAssets(address,uint256)": {
        "notice": "Per-account mapping of \"assets you are in\", capped by maxAssets"
      },
      "admin()": {
        "notice": "Administrator for this contract"
      },
      "allMarkets(uint256)": {
        "notice": "A list of all markets"
      },
      "approvedDelegates(address,address)": {
        "notice": "Whether the delegate is allowed to borrow or redeem on behalf of the user"
      },
      "borrowCapGuardian()": {
        "notice": "The borrowCapGuardian can set borrowCaps to any number for any market. Lowering the borrow cap could disable borrowing on the given market."
      },
      "borrowCaps(address)": {
        "notice": "Borrow caps enforced by borrowAllowed for each vToken address."
      },
      "closeFactorMantissa()": {
        "notice": "Multiplier used to calculate the maximum repayAmount when liquidating a borrow"
      },
      "comptrollerImplementation()": {
        "notice": "Active brains of Unitroller"
      },
      "diamondCut((address,uint8,bytes4[])[])": {
        "notice": "To add function selectors to the facet's mapping"
      },
      "facetAddress(bytes4)": {
        "notice": "Get facet address and position through function selector"
      },
      "facetAddresses()": {
        "notice": "Get all facet addresses"
      },
      "facetFunctionSelectors(address)": {
        "notice": "Get all function selectors mapped to the facet address"
      },
      "facetPosition(address)": {
        "notice": "Get facet position in the _facetFunctionSelectors through facet address"
      },
      "facets()": {
        "notice": "Get all facets address and their function selector"
      },
      "isForcedLiquidationEnabled(address)": {
        "notice": "Whether forced liquidation is enabled for all users borrowing in a certain market"
      },
      "isForcedLiquidationEnabledForUser(address,address)": {
        "notice": "Whether forced liquidation is enabled for the borrows of a user in a market"
      },
      "lastPoolId()": {
        "notice": "Counter used to generate unique pool IDs"
      },
      "maxAssets()": {
        "notice": "Max number of assets a single account can participate in (borrow or use as collateral)"
      },
      "mintVAIGuardianPaused()": {
        "notice": "The Pause Guardian can pause certain actions as a safety mechanism."
      },
      "mintedVAIs(address)": {
        "notice": "The minted VAI amount to each user"
      },
      "oracle()": {
        "notice": "Oracle which gives the price of any given asset"
      },
      "pauseGuardian()": {
        "notice": "The Pause Guardian can pause certain actions as a safety mechanism."
      },
      "pendingAdmin()": {
        "notice": "Pending administrator for this contract"
      },
      "pendingComptrollerImplementation()": {
        "notice": "Pending brains of Unitroller"
      },
      "pools(uint96)": {
        "notice": "Mapping of pool ID to its corresponding metadata and configuration"
      },
      "prime()": {
        "notice": "Prime token address"
      },
      "protocolPaused()": {
        "notice": "Pause/Unpause whole protocol actions"
      },
      "supplyCaps(address)": {
        "notice": "Supply caps enforced by mintAllowed for each vToken address. Defaults to zero which corresponds to minting notAllowed"
      },
      "treasuryAddress()": {
        "notice": "Treasury address"
      },
      "treasuryGuardian()": {
        "notice": "Treasury Guardian address"
      },
      "treasuryPercent()": {
        "notice": "Fee percent of accrued interest with decimal 18"
      },
      "userPoolId(address)": {
        "notice": "Tracks the selected pool for each user"
      },
      "vaiController()": {
        "notice": "The Address of VAIController"
      },
      "vaiMintRate()": {
        "notice": "VAI Mint Rate as a percentage"
      },
      "venusAccrued(address)": {
        "notice": "The XVS accrued but not yet transferred to each user"
      },
      "venusBorrowSpeeds(address)": {
        "notice": "The rate at which venus is distributed to the corresponding borrow market (per block)"
      },
      "venusBorrowState(address)": {
        "notice": "The Venus market borrow state for each market"
      },
      "venusBorrowerIndex(address,address)": {
        "notice": "The Venus borrow index for each market for each borrower as of the last time they accrued XVS"
      },
      "venusSupplierIndex(address,address)": {
        "notice": "The Venus supply index for each market for each supplier as of the last time they accrued XVS"
      },
      "venusSupplySpeeds(address)": {
        "notice": "The rate at which venus is distributed to the corresponding supply market (per block)"
      },
      "venusSupplyState(address)": {
        "notice": "The Venus market supply state for each market"
      },
      "venusVAIVaultRate()": {
        "notice": "The rate at which the flywheel distributes XVS to VAI Vault, per block"
      }
    },
    "notice": "This contract contains functions related to facets",
    "version": 1
  },
  "storageLayout": {
    "storage": [
      {
        "astId": 4481,
        "contract": "contracts/Comptroller/Diamond/Diamond.sol:Diamond",
        "label": "admin",
        "offset": 0,
        "slot": "0",
        "type": "t_address"
      },
      {
        "astId": 4484,
        "contract": "contracts/Comptroller/Diamond/Diamond.sol:Diamond",
        "label": "pendingAdmin",
        "offset": 0,
        "slot": "1",
        "type": "t_address"
      },
      {
        "astId": 4487,
        "contract": "contracts/Comptroller/Diamond/Diamond.sol:Diamond",
        "label": "comptrollerImplementation",
        "offset": 0,
        "slot": "2",
        "type": "t_address"
      },
      {
        "astId": 4490,
        "contract": "contracts/Comptroller/Diamond/Diamond.sol:Diamond",
        "label": "pendingComptrollerImplementation",
        "offset": 0,
        "slot": "3",
        "type": "t_address"
      },
      {
        "astId": 4497,
        "contract": "contracts/Comptroller/Diamond/Diamond.sol:Diamond",
        "label": "oracle",
        "offset": 0,
        "slot": "4",
        "type": "t_contract(ResilientOracleInterface)3797"
      },
      {
        "astId": 4500,
        "contract": "contracts/Comptroller/Diamond/Diamond.sol:Diamond",
        "label": "closeFactorMantissa",
        "offset": 0,
        "slot": "5",
        "type": "t_uint256"
      },
      {
        "astId": 4503,
        "contract": "contracts/Comptroller/Diamond/Diamond.sol:Diamond",
        "label": "_oldLiquidationIncentiveMantissa",
        "offset": 0,
        "slot": "6",
        "type": "t_uint256"
      },
      {
        "astId": 4506,
        "contract": "contracts/Comptroller/Diamond/Diamond.sol:Diamond",
        "label": "maxAssets",
        "offset": 0,
        "slot": "7",
        "type": "t_uint256"
      },
      {
        "astId": 4513,
        "contract": "contracts/Comptroller/Diamond/Diamond.sol:Diamond",
        "label": "accountAssets",
        "offset": 0,
        "slot": "8",
        "type": "t_mapping(t_address,t_array(t_contract(VToken)33831)dyn_storage)"
      },
      {
        "astId": 4547,
        "contract": "contracts/Comptroller/Diamond/Diamond.sol:Diamond",
        "label": "_poolMarkets",
        "offset": 0,
        "slot": "9",
        "type": "t_mapping(t_userDefinedValueType(PoolMarketId)13320,t_struct(Market)4540_storage)"
      },
      {
        "astId": 4550,
        "contract": "contracts/Comptroller/Diamond/Diamond.sol:Diamond",
        "label": "pauseGuardian",
        "offset": 0,
        "slot": "10",
        "type": "t_address"
      },
      {
        "astId": 4553,
        "contract": "contracts/Comptroller/Diamond/Diamond.sol:Diamond",
        "label": "_mintGuardianPaused",
        "offset": 20,
        "slot": "10",
        "type": "t_bool"
      },
      {
        "astId": 4556,
        "contract": "contracts/Comptroller/Diamond/Diamond.sol:Diamond",
        "label": "_borrowGuardianPaused",
        "offset": 21,
        "slot": "10",
        "type": "t_bool"
      },
      {
        "astId": 4559,
        "contract": "contracts/Comptroller/Diamond/Diamond.sol:Diamond",
        "label": "transferGuardianPaused",
        "offset": 22,
        "slot": "10",
        "type": "t_bool"
      },
      {
        "astId": 4562,
        "contract": "contracts/Comptroller/Diamond/Diamond.sol:Diamond",
        "label": "seizeGuardianPaused",
        "offset": 23,
        "slot": "10",
        "type": "t_bool"
      },
      {
        "astId": 4567,
        "contract": "contracts/Comptroller/Diamond/Diamond.sol:Diamond",
        "label": "mintGuardianPaused",
        "offset": 0,
        "slot": "11",
        "type": "t_mapping(t_address,t_bool)"
      },
      {
        "astId": 4572,
        "contract": "contracts/Comptroller/Diamond/Diamond.sol:Diamond",
        "label": "borrowGuardianPaused",
        "offset": 0,
        "slot": "12",
        "type": "t_mapping(t_address,t_bool)"
      },
      {
        "astId": 4584,
        "contract": "contracts/Comptroller/Diamond/Diamond.sol:Diamond",
        "label": "allMarkets",
        "offset": 0,
        "slot": "13",
        "type": "t_array(t_contract(VToken)33831)dyn_storage"
      },
      {
        "astId": 4587,
        "contract": "contracts/Comptroller/Diamond/Diamond.sol:Diamond",
        "label": "venusRate",
        "offset": 0,
        "slot": "14",
        "type": "t_uint256"
      },
      {
        "astId": 4592,
        "contract": "contracts/Comptroller/Diamond/Diamond.sol:Diamond",
        "label": "venusSpeeds",
        "offset": 0,
        "slot": "15",
        "type": "t_mapping(t_address,t_uint256)"
      },
      {
        "astId": 4598,
        "contract": "contracts/Comptroller/Diamond/Diamond.sol:Diamond",
        "label": "venusSupplyState",
        "offset": 0,
        "slot": "16",
        "type": "t_mapping(t_address,t_struct(VenusMarketState)4579_storage)"
      },
      {
        "astId": 4604,
        "contract": "contracts/Comptroller/Diamond/Diamond.sol:Diamond",
        "label": "venusBorrowState",
        "offset": 0,
        "slot": "17",
        "type": "t_mapping(t_address,t_struct(VenusMarketState)4579_storage)"
      },
      {
        "astId": 4611,
        "contract": "contracts/Comptroller/Diamond/Diamond.sol:Diamond",
        "label": "venusSupplierIndex",
        "offset": 0,
        "slot": "18",
        "type": "t_mapping(t_address,t_mapping(t_address,t_uint256))"
      },
      {
        "astId": 4618,
        "contract": "contracts/Comptroller/Diamond/Diamond.sol:Diamond",
        "label": "venusBorrowerIndex",
        "offset": 0,
        "slot": "19",
        "type": "t_mapping(t_address,t_mapping(t_address,t_uint256))"
      },
      {
        "astId": 4623,
        "contract": "contracts/Comptroller/Diamond/Diamond.sol:Diamond",
        "label": "venusAccrued",
        "offset": 0,
        "slot": "20",
        "type": "t_mapping(t_address,t_uint256)"
      },
      {
        "astId": 4627,
        "contract": "contracts/Comptroller/Diamond/Diamond.sol:Diamond",
        "label": "vaiController",
        "offset": 0,
        "slot": "21",
        "type": "t_contract(VAIControllerInterface)27283"
      },
      {
        "astId": 4632,
        "contract": "contracts/Comptroller/Diamond/Diamond.sol:Diamond",
        "label": "mintedVAIs",
        "offset": 0,
        "slot": "22",
        "type": "t_mapping(t_address,t_uint256)"
      },
      {
        "astId": 4635,
        "contract": "contracts/Comptroller/Diamond/Diamond.sol:Diamond",
        "label": "vaiMintRate",
        "offset": 0,
        "slot": "23",
        "type": "t_uint256"
      },
      {
        "astId": 4638,
        "contract": "contracts/Comptroller/Diamond/Diamond.sol:Diamond",
        "label": "mintVAIGuardianPaused",
        "offset": 0,
        "slot": "24",
        "type": "t_bool"
      },
      {
        "astId": 4640,
        "contract": "contracts/Comptroller/Diamond/Diamond.sol:Diamond",
        "label": "repayVAIGuardianPaused",
        "offset": 1,
        "slot": "24",
        "type": "t_bool"
      },
      {
        "astId": 4643,
        "contract": "contracts/Comptroller/Diamond/Diamond.sol:Diamond",
        "label": "protocolPaused",
        "offset": 2,
        "slot": "24",
        "type": "t_bool"
      },
      {
        "astId": 4646,
        "contract": "contracts/Comptroller/Diamond/Diamond.sol:Diamond",
        "label": "venusVAIRate",
        "offset": 0,
        "slot": "25",
        "type": "t_uint256"
      },
      {
        "astId": 4652,
        "contract": "contracts/Comptroller/Diamond/Diamond.sol:Diamond",
        "label": "venusVAIVaultRate",
        "offset": 0,
        "slot": "26",
        "type": "t_uint256"
      },
      {
        "astId": 4654,
        "contract": "contracts/Comptroller/Diamond/Diamond.sol:Diamond",
        "label": "vaiVaultAddress",
        "offset": 0,
        "slot": "27",
        "type": "t_address"
      },
      {
        "astId": 4656,
        "contract": "contracts/Comptroller/Diamond/Diamond.sol:Diamond",
        "label": "releaseStartBlock",
        "offset": 0,
        "slot": "28",
        "type": "t_uint256"
      },
      {
        "astId": 4658,
        "contract": "contracts/Comptroller/Diamond/Diamond.sol:Diamond",
        "label": "minReleaseAmount",
        "offset": 0,
        "slot": "29",
        "type": "t_uint256"
      },
      {
        "astId": 4664,
        "contract": "contracts/Comptroller/Diamond/Diamond.sol:Diamond",
        "label": "borrowCapGuardian",
        "offset": 0,
        "slot": "30",
        "type": "t_address"
      },
      {
        "astId": 4669,
        "contract": "contracts/Comptroller/Diamond/Diamond.sol:Diamond",
        "label": "borrowCaps",
        "offset": 0,
        "slot": "31",
        "type": "t_mapping(t_address,t_uint256)"
      },
      {
        "astId": 4675,
        "contract": "contracts/Comptroller/Diamond/Diamond.sol:Diamond",
        "label": "treasuryGuardian",
        "offset": 0,
        "slot": "32",
        "type": "t_address"
      },
      {
        "astId": 4678,
        "contract": "contracts/Comptroller/Diamond/Diamond.sol:Diamond",
        "label": "treasuryAddress",
        "offset": 0,
        "slot": "33",
        "type": "t_address"
      },
      {
        "astId": 4681,
        "contract": "contracts/Comptroller/Diamond/Diamond.sol:Diamond",
        "label": "treasuryPercent",
        "offset": 0,
        "slot": "34",
        "type": "t_uint256"
      },
      {
        "astId": 4689,
        "contract": "contracts/Comptroller/Diamond/Diamond.sol:Diamond",
        "label": "venusContributorSpeeds",
        "offset": 0,
        "slot": "35",
        "type": "t_mapping(t_address,t_uint256)"
      },
      {
        "astId": 4694,
        "contract": "contracts/Comptroller/Diamond/Diamond.sol:Diamond",
        "label": "lastContributorBlock",
        "offset": 0,
        "slot": "36",
        "type": "t_mapping(t_address,t_uint256)"
      },
      {
        "astId": 4699,
        "contract": "contracts/Comptroller/Diamond/Diamond.sol:Diamond",
        "label": "liquidatorContract",
        "offset": 0,
        "slot": "37",
        "type": "t_address"
      },
      {
        "astId": 4705,
        "contract": "contracts/Comptroller/Diamond/Diamond.sol:Diamond",
        "label": "comptrollerLens",
        "offset": 0,
        "slot": "38",
        "type": "t_contract(ComptrollerLensInterface)4464"
      },
      {
        "astId": 4713,
        "contract": "contracts/Comptroller/Diamond/Diamond.sol:Diamond",
        "label": "supplyCaps",
        "offset": 0,
        "slot": "39",
        "type": "t_mapping(t_address,t_uint256)"
      },
      {
        "astId": 4719,
        "contract": "contracts/Comptroller/Diamond/Diamond.sol:Diamond",
        "label": "accessControl",
        "offset": 0,
        "slot": "40",
        "type": "t_address"
      },
      {
        "astId": 4726,
        "contract": "contracts/Comptroller/Diamond/Diamond.sol:Diamond",
        "label": "_actionPaused",
        "offset": 0,
        "slot": "41",
        "type": "t_mapping(t_address,t_mapping(t_uint256,t_bool))"
      },
      {
        "astId": 4734,
        "contract": "contracts/Comptroller/Diamond/Diamond.sol:Diamond",
        "label": "venusBorrowSpeeds",
        "offset": 0,
        "slot": "42",
        "type": "t_mapping(t_address,t_uint256)"
      },
      {
        "astId": 4739,
        "contract": "contracts/Comptroller/Diamond/Diamond.sol:Diamond",
        "label": "venusSupplySpeeds",
        "offset": 0,
        "slot": "43",
        "type": "t_mapping(t_address,t_uint256)"
      },
      {
        "astId": 4749,
        "contract": "contracts/Comptroller/Diamond/Diamond.sol:Diamond",
        "label": "approvedDelegates",
        "offset": 0,
        "slot": "44",
        "type": "t_mapping(t_address,t_mapping(t_address,t_bool))"
      },
      {
        "astId": 4757,
        "contract": "contracts/Comptroller/Diamond/Diamond.sol:Diamond",
        "label": "isForcedLiquidationEnabled",
        "offset": 0,
        "slot": "45",
        "type": "t_mapping(t_address,t_bool)"
      },
      {
        "astId": 4776,
        "contract": "contracts/Comptroller/Diamond/Diamond.sol:Diamond",
        "label": "_selectorToFacetAndPosition",
        "offset": 0,
        "slot": "46",
        "type": "t_mapping(t_bytes4,t_struct(FacetAddressAndPosition)4765_storage)"
      },
      {
        "astId": 4781,
        "contract": "contracts/Comptroller/Diamond/Diamond.sol:Diamond",
        "label": "_facetFunctionSelectors",
        "offset": 0,
        "slot": "47",
        "type": "t_mapping(t_address,t_struct(FacetFunctionSelectors)4771_storage)"
      },
      {
        "astId": 4784,
        "contract": "contracts/Comptroller/Diamond/Diamond.sol:Diamond",
        "label": "_facetAddresses",
        "offset": 0,
        "slot": "48",
        "type": "t_array(t_address)dyn_storage"
      },
      {
        "astId": 4791,
        "contract": "contracts/Comptroller/Diamond/Diamond.sol:Diamond",
        "label": "prime",
        "offset": 0,
        "slot": "49",
        "type": "t_contract(IPrime)24461"
      },
      {
        "astId": 4801,
        "contract": "contracts/Comptroller/Diamond/Diamond.sol:Diamond",
        "label": "isForcedLiquidationEnabledForUser",
        "offset": 0,
        "slot": "50",
        "type": "t_mapping(t_address,t_mapping(t_address,t_bool))"
      },
      {
        "astId": 4807,
        "contract": "contracts/Comptroller/Diamond/Diamond.sol:Diamond",
        "label": "xvs",
        "offset": 0,
        "slot": "51",
        "type": "t_address"
      },
      {
        "astId": 4810,
        "contract": "contracts/Comptroller/Diamond/Diamond.sol:Diamond",
        "label": "xvsVToken",
        "offset": 0,
        "slot": "52",
        "type": "t_address"
      },
      {
        "astId": 4829,
        "contract": "contracts/Comptroller/Diamond/Diamond.sol:Diamond",
        "label": "userPoolId",
        "offset": 0,
        "slot": "53",
        "type": "t_mapping(t_address,t_uint96)"
      },
      {
        "astId": 4835,
        "contract": "contracts/Comptroller/Diamond/Diamond.sol:Diamond",
        "label": "pools",
        "offset": 0,
        "slot": "54",
        "type": "t_mapping(t_uint96,t_struct(PoolData)4824_storage)"
      },
      {
        "astId": 4838,
        "contract": "contracts/Comptroller/Diamond/Diamond.sol:Diamond",
        "label": "lastPoolId",
        "offset": 0,
        "slot": "55",
        "type": "t_uint96"
      }
    ],
    "types": {
      "t_address": {
        "encoding": "inplace",
        "label": "address",
        "numberOfBytes": "20"
      },
      "t_array(t_address)dyn_storage": {
        "base": "t_address",
        "encoding": "dynamic_array",
        "label": "address[]",
        "numberOfBytes": "32"
      },
      "t_array(t_bytes4)dyn_storage": {
        "base": "t_bytes4",
        "encoding": "dynamic_array",
        "label": "bytes4[]",
        "numberOfBytes": "32"
      },
      "t_array(t_contract(VToken)33831)dyn_storage": {
        "base": "t_contract(VToken)33831",
        "encoding": "dynamic_array",
        "label": "contract VToken[]",
        "numberOfBytes": "32"
      },
      "t_bool": {
        "encoding": "inplace",
        "label": "bool",
        "numberOfBytes": "1"
      },
      "t_bytes4": {
        "encoding": "inplace",
        "label": "bytes4",
        "numberOfBytes": "4"
      },
      "t_contract(ComptrollerLensInterface)4464": {
        "encoding": "inplace",
        "label": "contract ComptrollerLensInterface",
        "numberOfBytes": "20"
      },
      "t_contract(IPrime)24461": {
        "encoding": "inplace",
        "label": "contract IPrime",
        "numberOfBytes": "20"
      },
      "t_contract(ResilientOracleInterface)3797": {
        "encoding": "inplace",
        "label": "contract ResilientOracleInterface",
        "numberOfBytes": "20"
      },
      "t_contract(VAIControllerInterface)27283": {
        "encoding": "inplace",
        "label": "contract VAIControllerInterface",
        "numberOfBytes": "20"
      },
      "t_contract(VToken)33831": {
        "encoding": "inplace",
        "label": "contract VToken",
        "numberOfBytes": "20"
      },
      "t_mapping(t_address,t_array(t_contract(VToken)33831)dyn_storage)": {
        "encoding": "mapping",
        "key": "t_address",
        "label": "mapping(address => contract VToken[])",
        "numberOfBytes": "32",
        "value": "t_array(t_contract(VToken)33831)dyn_storage"
      },
      "t_mapping(t_address,t_bool)": {
        "encoding": "mapping",
        "key": "t_address",
        "label": "mapping(address => bool)",
        "numberOfBytes": "32",
        "value": "t_bool"
      },
      "t_mapping(t_address,t_mapping(t_address,t_bool))": {
        "encoding": "mapping",
        "key": "t_address",
        "label": "mapping(address => mapping(address => bool))",
        "numberOfBytes": "32",
        "value": "t_mapping(t_address,t_bool)"
      },
      "t_mapping(t_address,t_mapping(t_address,t_uint256))": {
        "encoding": "mapping",
        "key": "t_address",
        "label": "mapping(address => mapping(address => uint256))",
        "numberOfBytes": "32",
        "value": "t_mapping(t_address,t_uint256)"
      },
      "t_mapping(t_address,t_mapping(t_uint256,t_bool))": {
        "encoding": "mapping",
        "key": "t_address",
        "label": "mapping(address => mapping(uint256 => bool))",
        "numberOfBytes": "32",
        "value": "t_mapping(t_uint256,t_bool)"
      },
      "t_mapping(t_address,t_struct(FacetFunctionSelectors)4771_storage)": {
        "encoding": "mapping",
        "key": "t_address",
        "label": "mapping(address => struct ComptrollerV13Storage.FacetFunctionSelectors)",
        "numberOfBytes": "32",
        "value": "t_struct(FacetFunctionSelectors)4771_storage"
      },
      "t_mapping(t_address,t_struct(VenusMarketState)4579_storage)": {
        "encoding": "mapping",
        "key": "t_address",
        "label": "mapping(address => struct ComptrollerV1Storage.VenusMarketState)",
        "numberOfBytes": "32",
        "value": "t_struct(VenusMarketState)4579_storage"
      },
      "t_mapping(t_address,t_uint256)": {
        "encoding": "mapping",
        "key": "t_address",
        "label": "mapping(address => uint256)",
        "numberOfBytes": "32",
        "value": "t_uint256"
      },
      "t_mapping(t_address,t_uint96)": {
        "encoding": "mapping",
        "key": "t_address",
        "label": "mapping(address => uint96)",
        "numberOfBytes": "32",
        "value": "t_uint96"
      },
      "t_mapping(t_bytes4,t_struct(FacetAddressAndPosition)4765_storage)": {
        "encoding": "mapping",
        "key": "t_bytes4",
        "label": "mapping(bytes4 => struct ComptrollerV13Storage.FacetAddressAndPosition)",
        "numberOfBytes": "32",
        "value": "t_struct(FacetAddressAndPosition)4765_storage"
      },
      "t_mapping(t_uint256,t_bool)": {
        "encoding": "mapping",
        "key": "t_uint256",
        "label": "mapping(uint256 => bool)",
        "numberOfBytes": "32",
        "value": "t_bool"
      },
      "t_mapping(t_uint96,t_struct(PoolData)4824_storage)": {
        "encoding": "mapping",
        "key": "t_uint96",
        "label": "mapping(uint96 => struct ComptrollerV17Storage.PoolData)",
        "numberOfBytes": "32",
        "value": "t_struct(PoolData)4824_storage"
      },
      "t_mapping(t_userDefinedValueType(PoolMarketId)13320,t_struct(Market)4540_storage)": {
        "encoding": "mapping",
        "key": "t_userDefinedValueType(PoolMarketId)13320",
        "label": "mapping(PoolMarketId => struct ComptrollerV1Storage.Market)",
        "numberOfBytes": "32",
        "value": "t_struct(Market)4540_storage"
      },
      "t_string_storage": {
        "encoding": "bytes",
        "label": "string",
        "numberOfBytes": "32"
      },
      "t_struct(FacetAddressAndPosition)4765_storage": {
        "encoding": "inplace",
        "label": "struct ComptrollerV13Storage.FacetAddressAndPosition",
        "members": [
          {
            "astId": 4762,
            "contract": "contracts/Comptroller/Diamond/Diamond.sol:Diamond",
            "label": "facetAddress",
            "offset": 0,
            "slot": "0",
            "type": "t_address"
          },
          {
            "astId": 4764,
            "contract": "contracts/Comptroller/Diamond/Diamond.sol:Diamond",
            "label": "functionSelectorPosition",
            "offset": 20,
            "slot": "0",
            "type": "t_uint96"
          }
        ],
        "numberOfBytes": "32"
      },
      "t_struct(FacetFunctionSelectors)4771_storage": {
        "encoding": "inplace",
        "label": "struct ComptrollerV13Storage.FacetFunctionSelectors",
        "members": [
          {
            "astId": 4768,
            "contract": "contracts/Comptroller/Diamond/Diamond.sol:Diamond",
            "label": "functionSelectors",
            "offset": 0,
            "slot": "0",
            "type": "t_array(t_bytes4)dyn_storage"
          },
          {
            "astId": 4770,
            "contract": "contracts/Comptroller/Diamond/Diamond.sol:Diamond",
            "label": "facetAddressPosition",
            "offset": 0,
            "slot": "1",
            "type": "t_uint256"
          }
        ],
        "numberOfBytes": "64"
      },
      "t_struct(Market)4540_storage": {
        "encoding": "inplace",
        "label": "struct ComptrollerV1Storage.Market",
        "members": [
          {
            "astId": 4516,
            "contract": "contracts/Comptroller/Diamond/Diamond.sol:Diamond",
            "label": "isListed",
            "offset": 0,
            "slot": "0",
            "type": "t_bool"
          },
          {
            "astId": 4519,
            "contract": "contracts/Comptroller/Diamond/Diamond.sol:Diamond",
            "label": "collateralFactorMantissa",
            "offset": 0,
            "slot": "1",
            "type": "t_uint256"
          },
          {
            "astId": 4524,
            "contract": "contracts/Comptroller/Diamond/Diamond.sol:Diamond",
            "label": "accountMembership",
            "offset": 0,
            "slot": "2",
            "type": "t_mapping(t_address,t_bool)"
          },
          {
            "astId": 4527,
            "contract": "contracts/Comptroller/Diamond/Diamond.sol:Diamond",
            "label": "isVenus",
            "offset": 0,
            "slot": "3",
            "type": "t_bool"
          },
          {
            "astId": 4530,
            "contract": "contracts/Comptroller/Diamond/Diamond.sol:Diamond",
            "label": "liquidationThresholdMantissa",
            "offset": 0,
            "slot": "4",
            "type": "t_uint256"
          },
          {
            "astId": 4533,
            "contract": "contracts/Comptroller/Diamond/Diamond.sol:Diamond",
            "label": "liquidationIncentiveMantissa",
            "offset": 0,
            "slot": "5",
            "type": "t_uint256"
          },
          {
            "astId": 4536,
            "contract": "contracts/Comptroller/Diamond/Diamond.sol:Diamond",
            "label": "poolId",
            "offset": 0,
            "slot": "6",
            "type": "t_uint96"
          },
          {
            "astId": 4539,
            "contract": "contracts/Comptroller/Diamond/Diamond.sol:Diamond",
            "label": "isBorrowAllowed",
            "offset": 12,
            "slot": "6",
            "type": "t_bool"
          }
        ],
        "numberOfBytes": "224"
      },
      "t_struct(PoolData)4824_storage": {
        "encoding": "inplace",
        "label": "struct ComptrollerV17Storage.PoolData",
        "members": [
          {
            "astId": 4816,
            "contract": "contracts/Comptroller/Diamond/Diamond.sol:Diamond",
            "label": "label",
            "offset": 0,
            "slot": "0",
            "type": "t_string_storage"
          },
          {
            "astId": 4820,
            "contract": "contracts/Comptroller/Diamond/Diamond.sol:Diamond",
            "label": "vTokens",
            "offset": 0,
            "slot": "1",
            "type": "t_array(t_address)dyn_storage"
          },
          {
            "astId": 4823,
            "contract": "contracts/Comptroller/Diamond/Diamond.sol:Diamond",
            "label": "isActive",
            "offset": 0,
            "slot": "2",
            "type": "t_bool"
          }
        ],
        "numberOfBytes": "96"
      },
      "t_struct(VenusMarketState)4579_storage": {
        "encoding": "inplace",
        "label": "struct ComptrollerV1Storage.VenusMarketState",
        "members": [
          {
            "astId": 4575,
            "contract": "contracts/Comptroller/Diamond/Diamond.sol:Diamond",
            "label": "index",
            "offset": 0,
            "slot": "0",
            "type": "t_uint224"
          },
          {
            "astId": 4578,
            "contract": "contracts/Comptroller/Diamond/Diamond.sol:Diamond",
            "label": "block",
            "offset": 28,
            "slot": "0",
            "type": "t_uint32"
          }
        ],
        "numberOfBytes": "32"
      },
      "t_uint224": {
        "encoding": "inplace",
        "label": "uint224",
        "numberOfBytes": "28"
      },
      "t_uint256": {
        "encoding": "inplace",
        "label": "uint256",
        "numberOfBytes": "32"
      },
      "t_uint32": {
        "encoding": "inplace",
        "label": "uint32",
        "numberOfBytes": "4"
      },
      "t_uint96": {
        "encoding": "inplace",
        "label": "uint96",
        "numberOfBytes": "12"
      },
      "t_userDefinedValueType(PoolMarketId)13320": {
        "encoding": "inplace",
        "label": "PoolMarketId",
        "numberOfBytes": "32"
      }
    }
  }
}