{
  "address": "0xc4D4bCE49572be1f3Bc494457bB62ea94d084e07",
  "abi": [
    {
      "anonymous": false,
      "inputs": [
        {
          "components": [
            {
              "internalType": "address",
              "name": "facetAddress",
              "type": "address"
            },
            {
              "internalType": "enum IDiamondCut.FacetCutAction",
              "name": "action",
              "type": "uint8"
            },
            {
              "internalType": "bytes4[]",
              "name": "functionSelectors",
              "type": "bytes4[]"
            }
          ],
          "indexed": false,
          "internalType": "struct IDiamondCut.FacetCut[]",
          "name": "_diamondCut",
          "type": "tuple[]"
        }
      ],
      "name": "DiamondCut",
      "type": "event"
    },
    {
      "stateMutability": "nonpayable",
      "type": "fallback"
    },
    {
      "inputs": [],
      "name": "__oldCloseFactorMantissaSlot",
      "outputs": [
        {
          "internalType": "uint256",
          "name": "",
          "type": "uint256"
        }
      ],
      "stateMutability": "view",
      "type": "function"
    },
    {
      "inputs": [
        {
          "internalType": "contract Unitroller",
          "name": "unitroller",
          "type": "address"
        }
      ],
      "name": "_become",
      "outputs": [],
      "stateMutability": "nonpayable",
      "type": "function"
    },
    {
      "inputs": [
        {
          "internalType": "address",
          "name": "",
          "type": "address"
        },
        {
          "internalType": "uint256",
          "name": "",
          "type": "uint256"
        }
      ],
      "name": "accountAssets",
      "outputs": [
        {
          "internalType": "contract VToken",
          "name": "",
          "type": "address"
        }
      ],
      "stateMutability": "view",
      "type": "function"
    },
    {
      "inputs": [],
      "name": "admin",
      "outputs": [
        {
          "internalType": "address",
          "name": "",
          "type": "address"
        }
      ],
      "stateMutability": "view",
      "type": "function"
    },
    {
      "inputs": [
        {
          "internalType": "uint256",
          "name": "",
          "type": "uint256"
        }
      ],
      "name": "allMarkets",
      "outputs": [
        {
          "internalType": "contract VToken",
          "name": "",
          "type": "address"
        }
      ],
      "stateMutability": "view",
      "type": "function"
    },
    {
      "inputs": [
        {
          "internalType": "address",
          "name": "",
          "type": "address"
        },
        {
          "internalType": "address",
          "name": "",
          "type": "address"
        }
      ],
      "name": "approvedDelegates",
      "outputs": [
        {
          "internalType": "bool",
          "name": "",
          "type": "bool"
        }
      ],
      "stateMutability": "view",
      "type": "function"
    },
    {
      "inputs": [
        {
          "internalType": "address",
          "name": "",
          "type": "address"
        }
      ],
      "name": "authorizedFlashLoan",
      "outputs": [
        {
          "internalType": "bool",
          "name": "",
          "type": "bool"
        }
      ],
      "stateMutability": "view",
      "type": "function"
    },
    {
      "inputs": [],
      "name": "borrowCapGuardian",
      "outputs": [
        {
          "internalType": "address",
          "name": "",
          "type": "address"
        }
      ],
      "stateMutability": "view",
      "type": "function"
    },
    {
      "inputs": [
        {
          "internalType": "address",
          "name": "",
          "type": "address"
        }
      ],
      "name": "borrowCaps",
      "outputs": [
        {
          "internalType": "uint256",
          "name": "",
          "type": "uint256"
        }
      ],
      "stateMutability": "view",
      "type": "function"
    },
    {
      "inputs": [],
      "name": "comptrollerImplementation",
      "outputs": [
        {
          "internalType": "address",
          "name": "",
          "type": "address"
        }
      ],
      "stateMutability": "view",
      "type": "function"
    },
    {
      "inputs": [],
      "name": "comptrollerLens",
      "outputs": [
        {
          "internalType": "contract ComptrollerLensInterface",
          "name": "",
          "type": "address"
        }
      ],
      "stateMutability": "view",
      "type": "function"
    },
    {
      "inputs": [
        {
          "internalType": "address",
          "name": "",
          "type": "address"
        },
        {
          "internalType": "address",
          "name": "",
          "type": "address"
        },
        {
          "internalType": "address",
          "name": "",
          "type": "address"
        }
      ],
      "name": "delegateAuthorizationFlashloan",
      "outputs": [
        {
          "internalType": "bool",
          "name": "",
          "type": "bool"
        }
      ],
      "stateMutability": "view",
      "type": "function"
    },
    {
      "inputs": [
        {
          "components": [
            {
              "internalType": "address",
              "name": "facetAddress",
              "type": "address"
            },
            {
              "internalType": "enum IDiamondCut.FacetCutAction",
              "name": "action",
              "type": "uint8"
            },
            {
              "internalType": "bytes4[]",
              "name": "functionSelectors",
              "type": "bytes4[]"
            }
          ],
          "internalType": "struct IDiamondCut.FacetCut[]",
          "name": "diamondCut_",
          "type": "tuple[]"
        }
      ],
      "name": "diamondCut",
      "outputs": [],
      "stateMutability": "nonpayable",
      "type": "function"
    },
    {
      "inputs": [
        {
          "internalType": "bytes4",
          "name": "functionSelector",
          "type": "bytes4"
        }
      ],
      "name": "facetAddress",
      "outputs": [
        {
          "components": [
            {
              "internalType": "address",
              "name": "facetAddress",
              "type": "address"
            },
            {
              "internalType": "uint96",
              "name": "functionSelectorPosition",
              "type": "uint96"
            }
          ],
          "internalType": "struct ComptrollerV13Storage.FacetAddressAndPosition",
          "name": "",
          "type": "tuple"
        }
      ],
      "stateMutability": "view",
      "type": "function"
    },
    {
      "inputs": [],
      "name": "facetAddresses",
      "outputs": [
        {
          "internalType": "address[]",
          "name": "",
          "type": "address[]"
        }
      ],
      "stateMutability": "view",
      "type": "function"
    },
    {
      "inputs": [
        {
          "internalType": "address",
          "name": "facet",
          "type": "address"
        }
      ],
      "name": "facetFunctionSelectors",
      "outputs": [
        {
          "internalType": "bytes4[]",
          "name": "",
          "type": "bytes4[]"
        }
      ],
      "stateMutability": "view",
      "type": "function"
    },
    {
      "inputs": [
        {
          "internalType": "address",
          "name": "facet",
          "type": "address"
        }
      ],
      "name": "facetPosition",
      "outputs": [
        {
          "internalType": "uint256",
          "name": "",
          "type": "uint256"
        }
      ],
      "stateMutability": "view",
      "type": "function"
    },
    {
      "inputs": [],
      "name": "facets",
      "outputs": [
        {
          "components": [
            {
              "internalType": "address",
              "name": "facetAddress",
              "type": "address"
            },
            {
              "internalType": "bytes4[]",
              "name": "functionSelectors",
              "type": "bytes4[]"
            }
          ],
          "internalType": "struct Diamond.Facet[]",
          "name": "",
          "type": "tuple[]"
        }
      ],
      "stateMutability": "view",
      "type": "function"
    },
    {
      "inputs": [
        {
          "internalType": "address",
          "name": "",
          "type": "address"
        }
      ],
      "name": "isForcedLiquidationEnabled",
      "outputs": [
        {
          "internalType": "bool",
          "name": "",
          "type": "bool"
        }
      ],
      "stateMutability": "view",
      "type": "function"
    },
    {
      "inputs": [
        {
          "internalType": "address",
          "name": "user",
          "type": "address"
        },
        {
          "internalType": "address",
          "name": "market",
          "type": "address"
        }
      ],
      "name": "isForcedLiquidationEnabledForUser",
      "outputs": [
        {
          "internalType": "bool",
          "name": "",
          "type": "bool"
        }
      ],
      "stateMutability": "view",
      "type": "function"
    },
    {
      "inputs": [],
      "name": "lastPoolId",
      "outputs": [
        {
          "internalType": "uint96",
          "name": "",
          "type": "uint96"
        }
      ],
      "stateMutability": "view",
      "type": "function"
    },
    {
      "inputs": [],
      "name": "liquidationManager",
      "outputs": [
        {
          "internalType": "contract LiquidationManager",
          "name": "",
          "type": "address"
        }
      ],
      "stateMutability": "view",
      "type": "function"
    },
    {
      "inputs": [],
      "name": "liquidatorContract",
      "outputs": [
        {
          "internalType": "address",
          "name": "",
          "type": "address"
        }
      ],
      "stateMutability": "view",
      "type": "function"
    },
    {
      "inputs": [],
      "name": "maxAssets",
      "outputs": [
        {
          "internalType": "uint256",
          "name": "",
          "type": "uint256"
        }
      ],
      "stateMutability": "view",
      "type": "function"
    },
    {
      "inputs": [],
      "name": "minReleaseAmount",
      "outputs": [
        {
          "internalType": "uint256",
          "name": "",
          "type": "uint256"
        }
      ],
      "stateMutability": "view",
      "type": "function"
    },
    {
      "inputs": [],
      "name": "mintVAIGuardianPaused",
      "outputs": [
        {
          "internalType": "bool",
          "name": "",
          "type": "bool"
        }
      ],
      "stateMutability": "view",
      "type": "function"
    },
    {
      "inputs": [
        {
          "internalType": "address",
          "name": "",
          "type": "address"
        }
      ],
      "name": "mintedVAIs",
      "outputs": [
        {
          "internalType": "uint256",
          "name": "",
          "type": "uint256"
        }
      ],
      "stateMutability": "view",
      "type": "function"
    },
    {
      "inputs": [],
      "name": "oldLiquidationIncentiveMantissa",
      "outputs": [
        {
          "internalType": "uint256",
          "name": "",
          "type": "uint256"
        }
      ],
      "stateMutability": "view",
      "type": "function"
    },
    {
      "inputs": [],
      "name": "oracle",
      "outputs": [
        {
          "internalType": "contract ResilientOracleInterface",
          "name": "",
          "type": "address"
        }
      ],
      "stateMutability": "view",
      "type": "function"
    },
    {
      "inputs": [],
      "name": "pauseGuardian",
      "outputs": [
        {
          "internalType": "address",
          "name": "",
          "type": "address"
        }
      ],
      "stateMutability": "view",
      "type": "function"
    },
    {
      "inputs": [],
      "name": "pendingAdmin",
      "outputs": [
        {
          "internalType": "address",
          "name": "",
          "type": "address"
        }
      ],
      "stateMutability": "view",
      "type": "function"
    },
    {
      "inputs": [],
      "name": "pendingComptrollerImplementation",
      "outputs": [
        {
          "internalType": "address",
          "name": "",
          "type": "address"
        }
      ],
      "stateMutability": "view",
      "type": "function"
    },
    {
      "inputs": [
        {
          "internalType": "uint96",
          "name": "",
          "type": "uint96"
        }
      ],
      "name": "pools",
      "outputs": [
        {
          "internalType": "string",
          "name": "label",
          "type": "string"
        }
      ],
      "stateMutability": "view",
      "type": "function"
    },
    {
      "inputs": [],
      "name": "prime",
      "outputs": [
        {
          "internalType": "contract IPrime",
          "name": "",
          "type": "address"
        }
      ],
      "stateMutability": "view",
      "type": "function"
    },
    {
      "inputs": [],
      "name": "protocolPaused",
      "outputs": [
        {
          "internalType": "bool",
          "name": "",
          "type": "bool"
        }
      ],
      "stateMutability": "view",
      "type": "function"
    },
    {
      "inputs": [],
      "name": "releaseStartBlock",
      "outputs": [
        {
          "internalType": "uint256",
          "name": "",
          "type": "uint256"
        }
      ],
      "stateMutability": "view",
      "type": "function"
    },
    {
      "inputs": [],
      "name": "repayVAIGuardianPaused",
      "outputs": [
        {
          "internalType": "bool",
          "name": "",
          "type": "bool"
        }
      ],
      "stateMutability": "view",
      "type": "function"
    },
    {
      "inputs": [
        {
          "internalType": "address",
          "name": "",
          "type": "address"
        }
      ],
      "name": "supplyCaps",
      "outputs": [
        {
          "internalType": "uint256",
          "name": "",
          "type": "uint256"
        }
      ],
      "stateMutability": "view",
      "type": "function"
    },
    {
      "inputs": [],
      "name": "treasuryAddress",
      "outputs": [
        {
          "internalType": "address",
          "name": "",
          "type": "address"
        }
      ],
      "stateMutability": "view",
      "type": "function"
    },
    {
      "inputs": [],
      "name": "treasuryGuardian",
      "outputs": [
        {
          "internalType": "address",
          "name": "",
          "type": "address"
        }
      ],
      "stateMutability": "view",
      "type": "function"
    },
    {
      "inputs": [],
      "name": "treasuryPercent",
      "outputs": [
        {
          "internalType": "uint256",
          "name": "",
          "type": "uint256"
        }
      ],
      "stateMutability": "view",
      "type": "function"
    },
    {
      "inputs": [
        {
          "internalType": "address",
          "name": "",
          "type": "address"
        }
      ],
      "name": "userPoolId",
      "outputs": [
        {
          "internalType": "uint96",
          "name": "",
          "type": "uint96"
        }
      ],
      "stateMutability": "view",
      "type": "function"
    },
    {
      "inputs": [],
      "name": "vaiController",
      "outputs": [
        {
          "internalType": "contract VAIControllerInterface",
          "name": "",
          "type": "address"
        }
      ],
      "stateMutability": "view",
      "type": "function"
    },
    {
      "inputs": [],
      "name": "vaiMintRate",
      "outputs": [
        {
          "internalType": "uint256",
          "name": "",
          "type": "uint256"
        }
      ],
      "stateMutability": "view",
      "type": "function"
    },
    {
      "inputs": [],
      "name": "vaiVaultAddress",
      "outputs": [
        {
          "internalType": "address",
          "name": "",
          "type": "address"
        }
      ],
      "stateMutability": "view",
      "type": "function"
    },
    {
      "inputs": [
        {
          "internalType": "address",
          "name": "",
          "type": "address"
        }
      ],
      "name": "venusAccrued",
      "outputs": [
        {
          "internalType": "uint256",
          "name": "",
          "type": "uint256"
        }
      ],
      "stateMutability": "view",
      "type": "function"
    },
    {
      "inputs": [
        {
          "internalType": "address",
          "name": "",
          "type": "address"
        }
      ],
      "name": "venusBorrowSpeeds",
      "outputs": [
        {
          "internalType": "uint256",
          "name": "",
          "type": "uint256"
        }
      ],
      "stateMutability": "view",
      "type": "function"
    },
    {
      "inputs": [
        {
          "internalType": "address",
          "name": "",
          "type": "address"
        }
      ],
      "name": "venusBorrowState",
      "outputs": [
        {
          "internalType": "uint224",
          "name": "index",
          "type": "uint224"
        },
        {
          "internalType": "uint32",
          "name": "block",
          "type": "uint32"
        }
      ],
      "stateMutability": "view",
      "type": "function"
    },
    {
      "inputs": [
        {
          "internalType": "address",
          "name": "",
          "type": "address"
        },
        {
          "internalType": "address",
          "name": "",
          "type": "address"
        }
      ],
      "name": "venusBorrowerIndex",
      "outputs": [
        {
          "internalType": "uint256",
          "name": "",
          "type": "uint256"
        }
      ],
      "stateMutability": "view",
      "type": "function"
    },
    {
      "inputs": [
        {
          "internalType": "address",
          "name": "",
          "type": "address"
        },
        {
          "internalType": "address",
          "name": "",
          "type": "address"
        }
      ],
      "name": "venusSupplierIndex",
      "outputs": [
        {
          "internalType": "uint256",
          "name": "",
          "type": "uint256"
        }
      ],
      "stateMutability": "view",
      "type": "function"
    },
    {
      "inputs": [
        {
          "internalType": "address",
          "name": "",
          "type": "address"
        }
      ],
      "name": "venusSupplySpeeds",
      "outputs": [
        {
          "internalType": "uint256",
          "name": "",
          "type": "uint256"
        }
      ],
      "stateMutability": "view",
      "type": "function"
    },
    {
      "inputs": [
        {
          "internalType": "address",
          "name": "",
          "type": "address"
        }
      ],
      "name": "venusSupplyState",
      "outputs": [
        {
          "internalType": "uint224",
          "name": "index",
          "type": "uint224"
        },
        {
          "internalType": "uint32",
          "name": "block",
          "type": "uint32"
        }
      ],
      "stateMutability": "view",
      "type": "function"
    },
    {
      "inputs": [],
      "name": "venusVAIVaultRate",
      "outputs": [
        {
          "internalType": "uint256",
          "name": "",
          "type": "uint256"
        }
      ],
      "stateMutability": "view",
      "type": "function"
    }
  ],
  "transactionHash": "0xaffa505f6e9d4e98a4e4b12c40aa7bb04e00dbadb1a77f2856f7ce9fec69e32c",
  "args": [],
  "numDeployments": 3,
  "solcInputHash": "7824ee1851b9c614e1ae088d234a37e7",
  "bytecode": "0x6080604052348015600e575f80fd5b506120838061001c5f395ff3fe608060405234801561000f575f80fd5b5060043610610325575f3560e01c80638a7dc165116101b6578063bec04f7211610102578063e0f6123d116100a0578063e57e69c61161007a578063e57e69c61461096a578063f445d7031461097d578063f851a440146109aa578063fa6331d8146109bc57610325565b8063e0f6123d14610908578063e336b3db1461092a578063e37d4b791461093357610325565b8063cdffacc6116100dc578063cdffacc614610839578063d3270f99146108cf578063dce15449146108e2578063dcfbc0c7146108f557610325565b8063bec04f721461080a578063c5f956af14610813578063c7ee005e1461082657610325565b80639bb27d621161016f578063b2eafc3911610149578063b2eafc391461076a578063b8324c7c1461077d578063bb82aa5e146107d8578063bbb8864a146107eb57610325565b80639bb27d6214610724578063a657e57914610737578063adfca15e1461074a57610325565b80638a7dc1651461067c5780638c1ac18a1461069b5780638f738f36146106bd5780639254f5e5146106e857806394b2294b146106fb57806396c990641461070457610325565b80634088c73e116102755780635dd3fc9d1161022e5780637655138311610208578063765513831461062f5780637a0ed627146106415780637d172bd5146106565780637dc0d1d01461066957610325565b80635dd3fc9d146105c7578063719f701b146105e657806373769099146105ef57610325565b80634088c73e1461053657806341a18d2c14610543578063425fad581461056d5780634a5844321461058057806352d84d1e1461059f57806352ef6b2c146105b257610325565b80631d504dc6116102e257806324a3d622116102bc57806324a3d622146104be578063258c19c2146104d157806326782247146105045780632bc7e29e1461051757610325565b80631d504dc61461046d5780631ef3a04c1461048057806321af4569146104ab57610325565b806302c3bcbb146103b957806304ef9d58146103eb57806308e0225c146103f45780630d18f3b61461041e5780630db4b4e51461042757806310b9833814610430575b5f80356001600160e01b0319168152602e60205260409020546001600160a01b0316806103995760405162461bcd60e51b815260206004820181905260248201527f4469616d6f6e643a2046756e6374696f6e20646f6573206e6f7420657869737460448201526064015b60405180910390fd5b365f80375f80365f845af43d5f803e8080156103b3573d5ff35b3d5ffd5b005b6103d86103c736600461199d565b60276020525f908152604090205481565b6040519081526020015b60405180910390f35b6103d860225481565b6103d86104023660046119bf565b601360209081525f928352604080842090915290825290205481565b6103d860055481565b6103d8601d5481565b61045d61043e3660046119bf565b602c60209081525f928352604080842090915290825290205460ff1681565b60405190151581526020016103e2565b6103b761047b36600461199d565b6109c5565b603a54610493906001600160a01b031681565b6040516001600160a01b0390911681526020016103e2565b601e54610493906001600160a01b031681565b600a54610493906001600160a01b031681565b61045d6104df3660046119f6565b603960209081525f938452604080852082529284528284209052825290205460ff1681565b600154610493906001600160a01b031681565b6103d861052536600461199d565b60166020525f908152604090205481565b60185461045d9060ff1681565b6103d86105513660046119bf565b601260209081525f928352604080842090915290825290205481565b60185461045d9062010000900460ff1681565b6103d861058e36600461199d565b601f6020525f908152604090205481565b6104936105ad366004611a3e565b610b23565b6105ba610b4b565b6040516103e29190611a55565b6103d86105d536600461199d565b602b6020525f908152604090205481565b6103d8601c5481565b6106176105fd36600461199d565b60356020525f90815260409020546001600160601b031681565b6040516001600160601b0390911681526020016103e2565b60185461045d90610100900460ff1681565b610649610bab565b6040516103e29190611ae5565b601b54610493906001600160a01b031681565b600454610493906001600160a01b031681565b6103d861068a36600461199d565b60146020525f908152604090205481565b61045d6106a936600461199d565b602d6020525f908152604090205460ff1681565b6103d86106cb36600461199d565b6001600160a01b03165f908152602f602052604090206001015490565b601554610493906001600160a01b031681565b6103d860075481565b610717610712366004611b62565b610d2f565b6040516103e29190611b88565b602554610493906001600160a01b031681565b603754610617906001600160601b031681565b61075d61075836600461199d565b610dca565b6040516103e29190611bbd565b602054610493906001600160a01b031681565b6107b461078b36600461199d565b60106020525f90815260409020546001600160e01b03811690600160e01b900463ffffffff1682565b604080516001600160e01b03909316835263ffffffff9091166020830152016103e2565b600254610493906001600160a01b031681565b6103d86107f936600461199d565b602a6020525f908152604090205481565b6103d860175481565b602154610493906001600160a01b031681565b603154610493906001600160a01b031681565b6108a2610847366004611beb565b604080518082019091525f8082526020820152506001600160e01b0319165f908152602e60209081526040918290208251808401909352546001600160a01b0381168352600160a01b90046001600160601b03169082015290565b6040805182516001600160a01b031681526020928301516001600160601b031692810192909252016103e2565b602654610493906001600160a01b031681565b6104936108f0366004611c04565b610e5f565b600354610493906001600160a01b031681565b61045d61091636600461199d565b60386020525f908152604090205460ff1681565b6103d860065481565b6107b461094136600461199d565b60116020525f90815260409020546001600160e01b03811690600160e01b900463ffffffff1682565b6103b7610978366004611cbf565b610e93565b61045d61098b3660046119bf565b603260209081525f928352604080842090915290825290205460ff1681565b5f54610493906001600160a01b031681565b6103d8601a5481565b806001600160a01b031663f851a4406040518163ffffffff1660e01b8152600401602060405180830381865afa158015610a01573d5f803e3d5ffd5b505050506040513d601f19601f82011682018060405250810190610a259190611e25565b6001600160a01b0316336001600160a01b031614610a815760405162461bcd60e51b815260206004820152601960248201527837b7363c903ab734ba3937b63632b91030b236b4b71031b0b760391b6044820152606401610390565b806001600160a01b031663c1e803346040518163ffffffff1660e01b81526004016020604051808303815f875af1158015610abe573d5f803e3d5ffd5b505050506040513d601f19601f82011682018060405250810190610ae29190611e40565b15610b205760405162461bcd60e51b815260206004820152600e60248201526d1b9bdd08185d5d1a1bdc9a5e995960921b6044820152606401610390565b50565b600d8181548110610b32575f80fd5b5f918252602090912001546001600160a01b0316905081565b60606030805480602002602001604051908101604052809291908181526020018280548015610ba157602002820191905f5260205f20905b81546001600160a01b03168152600190910190602001808311610b83575b5050505050905090565b6030546060905f8167ffffffffffffffff811115610bcb57610bcb611c2e565b604051908082528060200260200182016040528015610c1057816020015b604080518082019091525f815260606020820152815260200190600190039081610be95790505b5090505f5b82811015610d28575f60308281548110610c3157610c31611e57565b905f5260205f20015f9054906101000a90046001600160a01b0316905080838381518110610c6157610c61611e57565b6020908102919091018101516001600160a01b0392831690529082165f908152602f825260409081902080548251818502810185019093528083529192909190830182828015610cfa57602002820191905f5260205f20905f905b82829054906101000a900460e01b6001600160e01b03191681526020019060040190602082600301049283019260010382029150808411610cbc5790505b5050505050838381518110610d1157610d11611e57565b602090810291909101810151015250600101610c15565b5092915050565b60366020525f9081526040902080548190610d4990611e6b565b80601f0160208091040260200160405190810160405280929190818152602001828054610d7590611e6b565b8015610dc05780601f10610d9757610100808354040283529160200191610dc0565b820191905f5260205f20905b815481529060010190602001808311610da357829003601f168201915b5050505050905081565b6001600160a01b0381165f908152602f6020908152604091829020805483518184028101840190945280845260609392830182828015610e5357602002820191905f5260205f20905f905b82829054906101000a900460e01b6001600160e01b03191681526020019060040190602082600301049283019260010382029150808411610e155790505b50505050509050919050565b6008602052815f5260405f208181548110610e78575f80fd5b5f918252602090912001546001600160a01b03169150829050565b5f546001600160a01b03163314610ee85760405162461bcd60e51b815260206004820152601960248201527837b7363c903ab734ba3937b63632b91030b236b4b71031b0b760391b6044820152606401610390565b610b208180515f5b818110156110a3575f838281518110610f0b57610f0b611e57565b60200260200101516020015190505f6002811115610f2b57610f2b611ea3565b816002811115610f3d57610f3d611ea3565b03610f8a57610f85848381518110610f5757610f57611e57565b60200260200101515f0151858481518110610f7457610f74611e57565b6020026020010151604001516110df565b61109a565b6001816002811115610f9e57610f9e611ea3565b03610fe657610f85848381518110610fb857610fb8611e57565b60200260200101515f0151858481518110610fd557610fd5611e57565b60200260200101516040015161123e565b6002816002811115610ffa57610ffa611ea3565b0361104257610f8584838151811061101457611014611e57565b60200260200101515f015185848151811061103157611031611e57565b6020026020010151604001516113ad565b60405162461bcd60e51b815260206004820152602760248201527f4c69624469616d6f6e644375743a20496e636f727265637420466163657443756044820152663a20b1ba34b7b760c91b6064820152608401610390565b50600101610ef0565b507f2e97860c6f47eab0292d51fa3ceec7e373c62af1e7eb2a28ae82998b80de6cfd826040516110d39190611eb7565b60405180910390a15050565b80515f036110ff5760405162461bcd60e51b815260040161039090611f50565b6001600160a01b0382166111255760405162461bcd60e51b815260040161039090611f9b565b6001600160a01b0382165f908152602f6020526040812054906001600160601b038216900361115757611157836114ae565b81515f5b81811015611237575f84828151811061117657611176611e57565b6020908102919091018101516001600160e01b031981165f908152602e9092526040909120549091506001600160a01b031680156112145760405162461bcd60e51b815260206004820152603560248201527f4c69624469616d6f6e644375743a2043616e2774206164642066756e6374696f6044820152746e207468617420616c72656164792065786973747360581b6064820152608401610390565b61121f828689611550565b61122885611ffb565b9450505080600101905061115b565b5050505050565b80515f0361125e5760405162461bcd60e51b815260040161039090611f50565b6001600160a01b0382166112845760405162461bcd60e51b815260040161039090611f9b565b6001600160a01b0382165f908152602f6020526040812054906001600160601b03821690036112b6576112b6836114ae565b81515f5b81811015611237575f8482815181106112d5576112d5611e57565b6020908102919091018101516001600160e01b031981165f908152602e9092526040909120549091506001600160a01b0390811690871681036113805760405162461bcd60e51b815260206004820152603860248201527f4c69624469616d6f6e644375743a2043616e2774207265706c6163652066756e60448201527f6374696f6e20776974682073616d652066756e6374696f6e00000000000000006064820152608401610390565b61138a81836115ee565b611395828689611550565b61139e85611ffb565b945050508060010190506112ba565b80515f8190036113cf5760405162461bcd60e51b815260040161039090611f50565b6001600160a01b038316156114455760405162461bcd60e51b815260206004820152603660248201527f4c69624469616d6f6e644375743a2052656d6f76652066616365742061646472604482015275657373206d757374206265206164647265737328302960501b6064820152608401610390565b5f5b818110156114a8575f83828151811061146257611462611e57565b6020908102919091018101516001600160e01b031981165f908152602e9092526040909120549091506001600160a01b031661149e81836115ee565b5050600101611447565b50505050565b6114ed816040518060400160405280601e81526020017f4469616d6f6e643a204e657720666163657420686173206e6f20636f64650000815250611933565b603080546001600160a01b039092165f818152602f60205260408120600190810185905584018355919091527f6ff97a59c90d62cc7236ba3a37cd85351bf564556780cf8c1157a220f31f0cbb90910180546001600160a01b0319169091179055565b6001600160e01b031983165f818152602e6020818152604080842080546001600160601b03909816600160a01b026001600160a01b0398891617815595909616808452602f825295832080546001810182559084528184206008820401805460e09990991c60046007909316929092026101000a91820263ffffffff909202199098161790965591905290925281546001600160a01b031916179055565b6001600160a01b03821661166a5760405162461bcd60e51b815260206004820152603760248201527f4c69624469616d6f6e644375743a2043616e27742072656d6f76652066756e6360448201527f74696f6e207468617420646f65736e27742065786973740000000000000000006064820152608401610390565b6001600160e01b031981165f908152602e60209081526040808320546001600160a01b0386168452602f909252822054600160a01b9091046001600160601b031691906116b990600190612020565b90508082146117a5576001600160a01b0384165f908152602f602052604081208054839081106116eb576116eb611e57565b5f91825260208083206008830401546001600160a01b0389168452602f9091526040909220805460079092166004026101000a90920460e01b92508291908590811061173957611739611e57565b5f91825260208083206008830401805463ffffffff60079094166004026101000a938402191660e09590951c929092029390931790556001600160e01b0319929092168252602e90526040902080546001600160a01b0316600160a01b6001600160601b038516021790555b6001600160a01b0384165f908152602f602052604090208054806117cb576117cb612039565b5f828152602080822060085f1990940193840401805463ffffffff600460078716026101000a0219169055919092556001600160e01b031985168252602e9052604081208190558190036114a8576030545f9061182a90600190612020565b6001600160a01b0386165f908152602f60205260409020600101549091508082146118ce575f6030838154811061186357611863611e57565b5f91825260209091200154603080546001600160a01b03909216925082918490811061189157611891611e57565b5f91825260208083209190910180546001600160a01b0319166001600160a01b03948516179055929091168152602f909152604090206001018190555b60308054806118df576118df612039565b5f828152602080822083015f1990810180546001600160a01b03191690559092019092556001600160a01b0388168252602f905260408120906119228282611954565b600182015f90555050505050505050565b813b81816114a85760405162461bcd60e51b81526004016103909190611b88565b5080545f825560070160089004905f5260205f2090810190610b2091905b80821115611985575f8155600101611972565b5090565b6001600160a01b0381168114610b20575f80fd5b5f602082840312156119ad575f80fd5b81356119b881611989565b9392505050565b5f80604083850312156119d0575f80fd5b82356119db81611989565b915060208301356119eb81611989565b809150509250929050565b5f805f60608486031215611a08575f80fd5b8335611a1381611989565b92506020840135611a2381611989565b91506040840135611a3381611989565b809150509250925092565b5f60208284031215611a4e575f80fd5b5035919050565b602080825282518282018190525f9190848201906040850190845b81811015611a955783516001600160a01b031683529284019291840191600101611a70565b50909695505050505050565b5f815180845260208085019450602084015f5b83811015611ada5781516001600160e01b03191687529582019590820190600101611ab4565b509495945050505050565b5f60208083018184528085518083526040925060408601915060408160051b8701018488015f5b83811015611b5457888303603f19018552815180516001600160a01b03168452870151878401879052611b4187850182611aa1565b9588019593505090860190600101611b0c565b509098975050505050505050565b5f60208284031215611b72575f80fd5b81356001600160601b03811681146119b8575f80fd5b602081525f82518060208401528060208501604085015e5f604082850101526040601f19601f83011684010191505092915050565b602081525f6119b86020830184611aa1565b80356001600160e01b031981168114611be6575f80fd5b919050565b5f60208284031215611bfb575f80fd5b6119b882611bcf565b5f8060408385031215611c15575f80fd5b8235611c2081611989565b946020939093013593505050565b634e487b7160e01b5f52604160045260245ffd5b6040516060810167ffffffffffffffff81118282101715611c6557611c65611c2e565b60405290565b604051601f8201601f1916810167ffffffffffffffff81118282101715611c9457611c94611c2e565b604052919050565b5f67ffffffffffffffff821115611cb557611cb5611c2e565b5060051b60200190565b5f6020808385031215611cd0575f80fd5b823567ffffffffffffffff80821115611ce7575f80fd5b818501915085601f830112611cfa575f80fd5b8135611d0d611d0882611c9c565b611c6b565b81815260059190911b83018401908481019088831115611d2b575f80fd5b8585015b83811015611e1857803585811115611d45575f80fd5b86016060818c03601f1901811315611d5b575f80fd5b611d63611c42565b89830135611d7081611989565b815260408381013560038110611d84575f80fd5b828c0152918301359188831115611d99575f80fd5b82840193508d603f850112611dac575f80fd5b8a8401359250611dbe611d0884611c9c565b83815260059390931b84018101928b8101908f851115611ddc575f80fd5b948201945b84861015611e0157611df286611bcf565b8252948c0194908c0190611de1565b918301919091525085525050918601918601611d2f565b5098975050505050505050565b5f60208284031215611e35575f80fd5b81516119b881611989565b5f60208284031215611e50575f80fd5b5051919050565b634e487b7160e01b5f52603260045260245ffd5b600181811c90821680611e7f57607f821691505b602082108103611e9d57634e487b7160e01b5f52602260045260245ffd5b50919050565b634e487b7160e01b5f52602160045260245ffd5b5f60208083018184528085518083526040925060408601915060408160051b8701018488015f5b83811015611b5457888303603f19018552815180516001600160a01b031684528781015160609060038110611f2157634e487b7160e01b5f52602160045260245ffd5b858a01529087015187850182905290611f3c81860183611aa1565b968901969450505090860190600101611ede565b6020808252602b908201527f4c69624469616d6f6e644375743a204e6f2073656c6563746f727320696e206660408201526a1858d95d081d1bc818dd5d60aa1b606082015260800190565b6020808252602c908201527f4c69624469616d6f6e644375743a204164642066616365742063616e2774206260408201526b65206164647265737328302960a01b606082015260800190565b634e487b7160e01b5f52601160045260245ffd5b5f6001600160601b0380831681810361201657612016611fe7565b6001019392505050565b8181038181111561203357612033611fe7565b92915050565b634e487b7160e01b5f52603160045260245ffdfea264697066735822122056223badd49c1a923eec2e7add08a020f3736cc3314b395366e39eb31736669e64736f6c63430008190033",
  "devdoc": {
    "author": "Venus",
    "kind": "dev",
    "methods": {
      "_become(address)": {
        "params": {
          "unitroller": "Address of the unitroller"
        }
      },
      "diamondCut((address,uint8,bytes4[])[])": {
        "details": "Allows the contract admin to add function selectors",
        "params": {
          "diamondCut_": "IDiamondCut contains facets address, action and function selectors"
        }
      },
      "facetAddress(bytes4)": {
        "params": {
          "functionSelector": "function selector"
        },
        "returns": {
          "_0": "FacetAddressAndPosition facet address and position"
        }
      },
      "facetAddresses()": {
        "returns": {
          "_0": "facetAddresses Array of facet addresses"
        }
      },
      "facetFunctionSelectors(address)": {
        "params": {
          "facet": "Address of the facet"
        },
        "returns": {
          "_0": "selectors Array of function selectors"
        }
      },
      "facetPosition(address)": {
        "params": {
          "facet": "Address of the facet"
        },
        "returns": {
          "_0": "Position of the facet"
        }
      },
      "facets()": {
        "returns": {
          "_0": "facets_ Array of Facet"
        }
      }
    },
    "title": "Diamond",
    "version": 1
  },
  "userdoc": {
    "events": {
      "DiamondCut((address,uint8,bytes4[])[])": {
        "notice": "Emitted when functions are added, replaced or removed to facets"
      }
    },
    "kind": "user",
    "methods": {
      "__oldCloseFactorMantissaSlot()": {
        "notice": "Multiplier used to calculate the maximum repayAmount when liquidating a borrow (deprecated)"
      },
      "_become(address)": {
        "notice": "Call _acceptImplementation to accept the diamond proxy as new implementaion"
      },
      "accountAssets(address,uint256)": {
        "notice": "Per-account mapping of \"assets you are in\", capped by maxAssets"
      },
      "admin()": {
        "notice": "Administrator for this contract"
      },
      "allMarkets(uint256)": {
        "notice": "A list of all markets"
      },
      "approvedDelegates(address,address)": {
        "notice": "Whether the delegate is allowed to borrow or redeem on behalf of the user"
      },
      "authorizedFlashLoan(address)": {
        "notice": "Mapping of accounts authorized to execute flash loans"
      },
      "borrowCapGuardian()": {
        "notice": "The borrowCapGuardian can set borrowCaps to any number for any market. Lowering the borrow cap could disable borrowing on the given market."
      },
      "borrowCaps(address)": {
        "notice": "Borrow caps enforced by borrowAllowed for each vToken address."
      },
      "comptrollerImplementation()": {
        "notice": "Active brains of Unitroller"
      },
      "delegateAuthorizationFlashloan(address,address,address)": {
        "notice": "Mapping to store delegate authorization for flash loans"
      },
      "diamondCut((address,uint8,bytes4[])[])": {
        "notice": "To add function selectors to the facet's mapping"
      },
      "facetAddress(bytes4)": {
        "notice": "Get facet address and position through function selector"
      },
      "facetAddresses()": {
        "notice": "Get all facet addresses"
      },
      "facetFunctionSelectors(address)": {
        "notice": "Get all function selectors mapped to the facet address"
      },
      "facetPosition(address)": {
        "notice": "Get facet position in the _facetFunctionSelectors through facet address"
      },
      "facets()": {
        "notice": "Get all facets address and their function selector"
      },
      "isForcedLiquidationEnabled(address)": {
        "notice": "Whether forced liquidation is enabled for all users borrowing in a certain market"
      },
      "isForcedLiquidationEnabledForUser(address,address)": {
        "notice": "Whether forced liquidation is enabled for the borrows of a user in a market"
      },
      "lastPoolId()": {
        "notice": "Counter used to generate unique pool IDs"
      },
      "liquidationManager()": {
        "notice": "The LiquidationManager contract address"
      },
      "maxAssets()": {
        "notice": "Max number of assets a single account can participate in (borrow or use as collateral)"
      },
      "mintVAIGuardianPaused()": {
        "notice": "The Pause Guardian can pause certain actions as a safety mechanism."
      },
      "mintedVAIs(address)": {
        "notice": "The minted VAI amount to each user"
      },
      "oldLiquidationIncentiveMantissa()": {
        "notice": "Multiplier representing the discount on collateral that a liquidator receives (deprecated)"
      },
      "oracle()": {
        "notice": "Oracle which gives the price of any given asset"
      },
      "pauseGuardian()": {
        "notice": "The Pause Guardian can pause certain actions as a safety mechanism."
      },
      "pendingAdmin()": {
        "notice": "Pending administrator for this contract"
      },
      "pendingComptrollerImplementation()": {
        "notice": "Pending brains of Unitroller"
      },
      "pools(uint96)": {
        "notice": "Mapping of pool ID to its corresponding metadata and configuration"
      },
      "prime()": {
        "notice": "Prime token address"
      },
      "protocolPaused()": {
        "notice": "Pause/Unpause whole protocol actions"
      },
      "supplyCaps(address)": {
        "notice": "Supply caps enforced by mintAllowed for each vToken address. Defaults to zero which corresponds to minting notAllowed"
      },
      "treasuryAddress()": {
        "notice": "Treasury address"
      },
      "treasuryGuardian()": {
        "notice": "Treasury Guardian address"
      },
      "treasuryPercent()": {
        "notice": "Fee percent of accrued interest with decimal 18"
      },
      "userPoolId(address)": {
        "notice": "Tracks the selected pool for each user."
      },
      "vaiController()": {
        "notice": "The Address of VAIController"
      },
      "vaiMintRate()": {
        "notice": "VAI Mint Rate as a percentage"
      },
      "venusAccrued(address)": {
        "notice": "The XVS accrued but not yet transferred to each user"
      },
      "venusBorrowSpeeds(address)": {
        "notice": "The rate at which venus is distributed to the corresponding borrow market (per block)"
      },
      "venusBorrowState(address)": {
        "notice": "The Venus market borrow state for each market"
      },
      "venusBorrowerIndex(address,address)": {
        "notice": "The Venus borrow index for each market for each borrower as of the last time they accrued XVS"
      },
      "venusSupplierIndex(address,address)": {
        "notice": "The Venus supply index for each market for each supplier as of the last time they accrued XVS"
      },
      "venusSupplySpeeds(address)": {
        "notice": "The rate at which venus is distributed to the corresponding supply market (per block)"
      },
      "venusSupplyState(address)": {
        "notice": "The Venus market supply state for each market"
      },
      "venusVAIVaultRate()": {
        "notice": "The rate at which the flywheel distributes XVS to VAI Vault, per block"
      }
    },
    "notice": "This contract contains functions related to facets",
    "version": 1
  },
  "storageLayout": {
    "storage": [
      {
        "astId": 4687,
        "contract": "contracts/Comptroller/Diamond/Diamond.sol:Diamond",
        "label": "admin",
        "offset": 0,
        "slot": "0",
        "type": "t_address"
      },
      {
        "astId": 4690,
        "contract": "contracts/Comptroller/Diamond/Diamond.sol:Diamond",
        "label": "pendingAdmin",
        "offset": 0,
        "slot": "1",
        "type": "t_address"
      },
      {
        "astId": 4693,
        "contract": "contracts/Comptroller/Diamond/Diamond.sol:Diamond",
        "label": "comptrollerImplementation",
        "offset": 0,
        "slot": "2",
        "type": "t_address"
      },
      {
        "astId": 4696,
        "contract": "contracts/Comptroller/Diamond/Diamond.sol:Diamond",
        "label": "pendingComptrollerImplementation",
        "offset": 0,
        "slot": "3",
        "type": "t_address"
      },
      {
        "astId": 4703,
        "contract": "contracts/Comptroller/Diamond/Diamond.sol:Diamond",
        "label": "oracle",
        "offset": 0,
        "slot": "4",
        "type": "t_contract(ResilientOracleInterface)3797"
      },
      {
        "astId": 4706,
        "contract": "contracts/Comptroller/Diamond/Diamond.sol:Diamond",
        "label": "__oldCloseFactorMantissaSlot",
        "offset": 0,
        "slot": "5",
        "type": "t_uint256"
      },
      {
        "astId": 4709,
        "contract": "contracts/Comptroller/Diamond/Diamond.sol:Diamond",
        "label": "oldLiquidationIncentiveMantissa",
        "offset": 0,
        "slot": "6",
        "type": "t_uint256"
      },
      {
        "astId": 4712,
        "contract": "contracts/Comptroller/Diamond/Diamond.sol:Diamond",
        "label": "maxAssets",
        "offset": 0,
        "slot": "7",
        "type": "t_uint256"
      },
      {
        "astId": 4719,
        "contract": "contracts/Comptroller/Diamond/Diamond.sol:Diamond",
        "label": "accountAssets",
        "offset": 0,
        "slot": "8",
        "type": "t_mapping(t_address,t_array(t_contract(VToken)33392)dyn_storage)"
      },
      {
        "astId": 4753,
        "contract": "contracts/Comptroller/Diamond/Diamond.sol:Diamond",
        "label": "_poolMarkets",
        "offset": 0,
        "slot": "9",
        "type": "t_mapping(t_userDefinedValueType(PoolMarketId)14693,t_struct(Market)4746_storage)"
      },
      {
        "astId": 4756,
        "contract": "contracts/Comptroller/Diamond/Diamond.sol:Diamond",
        "label": "pauseGuardian",
        "offset": 0,
        "slot": "10",
        "type": "t_address"
      },
      {
        "astId": 4759,
        "contract": "contracts/Comptroller/Diamond/Diamond.sol:Diamond",
        "label": "_mintGuardianPaused",
        "offset": 20,
        "slot": "10",
        "type": "t_bool"
      },
      {
        "astId": 4762,
        "contract": "contracts/Comptroller/Diamond/Diamond.sol:Diamond",
        "label": "_borrowGuardianPaused",
        "offset": 21,
        "slot": "10",
        "type": "t_bool"
      },
      {
        "astId": 4765,
        "contract": "contracts/Comptroller/Diamond/Diamond.sol:Diamond",
        "label": "transferGuardianPaused",
        "offset": 22,
        "slot": "10",
        "type": "t_bool"
      },
      {
        "astId": 4768,
        "contract": "contracts/Comptroller/Diamond/Diamond.sol:Diamond",
        "label": "seizeGuardianPaused",
        "offset": 23,
        "slot": "10",
        "type": "t_bool"
      },
      {
        "astId": 4773,
        "contract": "contracts/Comptroller/Diamond/Diamond.sol:Diamond",
        "label": "mintGuardianPaused",
        "offset": 0,
        "slot": "11",
        "type": "t_mapping(t_address,t_bool)"
      },
      {
        "astId": 4778,
        "contract": "contracts/Comptroller/Diamond/Diamond.sol:Diamond",
        "label": "borrowGuardianPaused",
        "offset": 0,
        "slot": "12",
        "type": "t_mapping(t_address,t_bool)"
      },
      {
        "astId": 4790,
        "contract": "contracts/Comptroller/Diamond/Diamond.sol:Diamond",
        "label": "allMarkets",
        "offset": 0,
        "slot": "13",
        "type": "t_array(t_contract(VToken)33392)dyn_storage"
      },
      {
        "astId": 4793,
        "contract": "contracts/Comptroller/Diamond/Diamond.sol:Diamond",
        "label": "venusRate",
        "offset": 0,
        "slot": "14",
        "type": "t_uint256"
      },
      {
        "astId": 4798,
        "contract": "contracts/Comptroller/Diamond/Diamond.sol:Diamond",
        "label": "venusSpeeds",
        "offset": 0,
        "slot": "15",
        "type": "t_mapping(t_address,t_uint256)"
      },
      {
        "astId": 4804,
        "contract": "contracts/Comptroller/Diamond/Diamond.sol:Diamond",
        "label": "venusSupplyState",
        "offset": 0,
        "slot": "16",
        "type": "t_mapping(t_address,t_struct(VenusMarketState)4785_storage)"
      },
      {
        "astId": 4810,
        "contract": "contracts/Comptroller/Diamond/Diamond.sol:Diamond",
        "label": "venusBorrowState",
        "offset": 0,
        "slot": "17",
        "type": "t_mapping(t_address,t_struct(VenusMarketState)4785_storage)"
      },
      {
        "astId": 4817,
        "contract": "contracts/Comptroller/Diamond/Diamond.sol:Diamond",
        "label": "venusSupplierIndex",
        "offset": 0,
        "slot": "18",
        "type": "t_mapping(t_address,t_mapping(t_address,t_uint256))"
      },
      {
        "astId": 4824,
        "contract": "contracts/Comptroller/Diamond/Diamond.sol:Diamond",
        "label": "venusBorrowerIndex",
        "offset": 0,
        "slot": "19",
        "type": "t_mapping(t_address,t_mapping(t_address,t_uint256))"
      },
      {
        "astId": 4829,
        "contract": "contracts/Comptroller/Diamond/Diamond.sol:Diamond",
        "label": "venusAccrued",
        "offset": 0,
        "slot": "20",
        "type": "t_mapping(t_address,t_uint256)"
      },
      {
        "astId": 4833,
        "contract": "contracts/Comptroller/Diamond/Diamond.sol:Diamond",
        "label": "vaiController",
        "offset": 0,
        "slot": "21",
        "type": "t_contract(VAIControllerInterface)26107"
      },
      {
        "astId": 4838,
        "contract": "contracts/Comptroller/Diamond/Diamond.sol:Diamond",
        "label": "mintedVAIs",
        "offset": 0,
        "slot": "22",
        "type": "t_mapping(t_address,t_uint256)"
      },
      {
        "astId": 4841,
        "contract": "contracts/Comptroller/Diamond/Diamond.sol:Diamond",
        "label": "vaiMintRate",
        "offset": 0,
        "slot": "23",
        "type": "t_uint256"
      },
      {
        "astId": 4844,
        "contract": "contracts/Comptroller/Diamond/Diamond.sol:Diamond",
        "label": "mintVAIGuardianPaused",
        "offset": 0,
        "slot": "24",
        "type": "t_bool"
      },
      {
        "astId": 4846,
        "contract": "contracts/Comptroller/Diamond/Diamond.sol:Diamond",
        "label": "repayVAIGuardianPaused",
        "offset": 1,
        "slot": "24",
        "type": "t_bool"
      },
      {
        "astId": 4849,
        "contract": "contracts/Comptroller/Diamond/Diamond.sol:Diamond",
        "label": "protocolPaused",
        "offset": 2,
        "slot": "24",
        "type": "t_bool"
      },
      {
        "astId": 4852,
        "contract": "contracts/Comptroller/Diamond/Diamond.sol:Diamond",
        "label": "venusVAIRate",
        "offset": 0,
        "slot": "25",
        "type": "t_uint256"
      },
      {
        "astId": 4858,
        "contract": "contracts/Comptroller/Diamond/Diamond.sol:Diamond",
        "label": "venusVAIVaultRate",
        "offset": 0,
        "slot": "26",
        "type": "t_uint256"
      },
      {
        "astId": 4860,
        "contract": "contracts/Comptroller/Diamond/Diamond.sol:Diamond",
        "label": "vaiVaultAddress",
        "offset": 0,
        "slot": "27",
        "type": "t_address"
      },
      {
        "astId": 4862,
        "contract": "contracts/Comptroller/Diamond/Diamond.sol:Diamond",
        "label": "releaseStartBlock",
        "offset": 0,
        "slot": "28",
        "type": "t_uint256"
      },
      {
        "astId": 4864,
        "contract": "contracts/Comptroller/Diamond/Diamond.sol:Diamond",
        "label": "minReleaseAmount",
        "offset": 0,
        "slot": "29",
        "type": "t_uint256"
      },
      {
        "astId": 4870,
        "contract": "contracts/Comptroller/Diamond/Diamond.sol:Diamond",
        "label": "borrowCapGuardian",
        "offset": 0,
        "slot": "30",
        "type": "t_address"
      },
      {
        "astId": 4875,
        "contract": "contracts/Comptroller/Diamond/Diamond.sol:Diamond",
        "label": "borrowCaps",
        "offset": 0,
        "slot": "31",
        "type": "t_mapping(t_address,t_uint256)"
      },
      {
        "astId": 4881,
        "contract": "contracts/Comptroller/Diamond/Diamond.sol:Diamond",
        "label": "treasuryGuardian",
        "offset": 0,
        "slot": "32",
        "type": "t_address"
      },
      {
        "astId": 4884,
        "contract": "contracts/Comptroller/Diamond/Diamond.sol:Diamond",
        "label": "treasuryAddress",
        "offset": 0,
        "slot": "33",
        "type": "t_address"
      },
      {
        "astId": 4887,
        "contract": "contracts/Comptroller/Diamond/Diamond.sol:Diamond",
        "label": "treasuryPercent",
        "offset": 0,
        "slot": "34",
        "type": "t_uint256"
      },
      {
        "astId": 4895,
        "contract": "contracts/Comptroller/Diamond/Diamond.sol:Diamond",
        "label": "venusContributorSpeeds",
        "offset": 0,
        "slot": "35",
        "type": "t_mapping(t_address,t_uint256)"
      },
      {
        "astId": 4900,
        "contract": "contracts/Comptroller/Diamond/Diamond.sol:Diamond",
        "label": "lastContributorBlock",
        "offset": 0,
        "slot": "36",
        "type": "t_mapping(t_address,t_uint256)"
      },
      {
        "astId": 4905,
        "contract": "contracts/Comptroller/Diamond/Diamond.sol:Diamond",
        "label": "liquidatorContract",
        "offset": 0,
        "slot": "37",
        "type": "t_address"
      },
      {
        "astId": 4911,
        "contract": "contracts/Comptroller/Diamond/Diamond.sol:Diamond",
        "label": "comptrollerLens",
        "offset": 0,
        "slot": "38",
        "type": "t_contract(ComptrollerLensInterface)4668"
      },
      {
        "astId": 4919,
        "contract": "contracts/Comptroller/Diamond/Diamond.sol:Diamond",
        "label": "supplyCaps",
        "offset": 0,
        "slot": "39",
        "type": "t_mapping(t_address,t_uint256)"
      },
      {
        "astId": 4925,
        "contract": "contracts/Comptroller/Diamond/Diamond.sol:Diamond",
        "label": "accessControl",
        "offset": 0,
        "slot": "40",
        "type": "t_address"
      },
      {
        "astId": 4932,
        "contract": "contracts/Comptroller/Diamond/Diamond.sol:Diamond",
        "label": "_actionPaused",
        "offset": 0,
        "slot": "41",
        "type": "t_mapping(t_address,t_mapping(t_uint256,t_bool))"
      },
      {
        "astId": 4940,
        "contract": "contracts/Comptroller/Diamond/Diamond.sol:Diamond",
        "label": "venusBorrowSpeeds",
        "offset": 0,
        "slot": "42",
        "type": "t_mapping(t_address,t_uint256)"
      },
      {
        "astId": 4945,
        "contract": "contracts/Comptroller/Diamond/Diamond.sol:Diamond",
        "label": "venusSupplySpeeds",
        "offset": 0,
        "slot": "43",
        "type": "t_mapping(t_address,t_uint256)"
      },
      {
        "astId": 4955,
        "contract": "contracts/Comptroller/Diamond/Diamond.sol:Diamond",
        "label": "approvedDelegates",
        "offset": 0,
        "slot": "44",
        "type": "t_mapping(t_address,t_mapping(t_address,t_bool))"
      },
      {
        "astId": 4963,
        "contract": "contracts/Comptroller/Diamond/Diamond.sol:Diamond",
        "label": "isForcedLiquidationEnabled",
        "offset": 0,
        "slot": "45",
        "type": "t_mapping(t_address,t_bool)"
      },
      {
        "astId": 4982,
        "contract": "contracts/Comptroller/Diamond/Diamond.sol:Diamond",
        "label": "_selectorToFacetAndPosition",
        "offset": 0,
        "slot": "46",
        "type": "t_mapping(t_bytes4,t_struct(FacetAddressAndPosition)4971_storage)"
      },
      {
        "astId": 4987,
        "contract": "contracts/Comptroller/Diamond/Diamond.sol:Diamond",
        "label": "_facetFunctionSelectors",
        "offset": 0,
        "slot": "47",
        "type": "t_mapping(t_address,t_struct(FacetFunctionSelectors)4977_storage)"
      },
      {
        "astId": 4990,
        "contract": "contracts/Comptroller/Diamond/Diamond.sol:Diamond",
        "label": "_facetAddresses",
        "offset": 0,
        "slot": "48",
        "type": "t_array(t_address)dyn_storage"
      },
      {
        "astId": 4997,
        "contract": "contracts/Comptroller/Diamond/Diamond.sol:Diamond",
        "label": "prime",
        "offset": 0,
        "slot": "49",
        "type": "t_contract(IPrime)23262"
      },
      {
        "astId": 5007,
        "contract": "contracts/Comptroller/Diamond/Diamond.sol:Diamond",
        "label": "isForcedLiquidationEnabledForUser",
        "offset": 0,
        "slot": "50",
        "type": "t_mapping(t_address,t_mapping(t_address,t_bool))"
      },
      {
        "astId": 5013,
        "contract": "contracts/Comptroller/Diamond/Diamond.sol:Diamond",
        "label": "xvs",
        "offset": 0,
        "slot": "51",
        "type": "t_address"
      },
      {
        "astId": 5016,
        "contract": "contracts/Comptroller/Diamond/Diamond.sol:Diamond",
        "label": "xvsVToken",
        "offset": 0,
        "slot": "52",
        "type": "t_address"
      },
      {
        "astId": 5032,
        "contract": "contracts/Comptroller/Diamond/Diamond.sol:Diamond",
        "label": "userPoolId",
        "offset": 0,
        "slot": "53",
        "type": "t_mapping(t_address,t_uint96)"
      },
      {
        "astId": 5038,
        "contract": "contracts/Comptroller/Diamond/Diamond.sol:Diamond",
        "label": "pools",
        "offset": 0,
        "slot": "54",
        "type": "t_mapping(t_uint96,t_struct(PoolData)5027_storage)"
      },
      {
        "astId": 5041,
        "contract": "contracts/Comptroller/Diamond/Diamond.sol:Diamond",
        "label": "lastPoolId",
        "offset": 0,
        "slot": "55",
        "type": "t_uint96"
      },
      {
        "astId": 5046,
        "contract": "contracts/Comptroller/Diamond/Diamond.sol:Diamond",
        "label": "authorizedFlashLoan",
        "offset": 0,
        "slot": "56",
        "type": "t_mapping(t_address,t_bool)"
      },
      {
        "astId": 5074,
        "contract": "contracts/Comptroller/Diamond/Diamond.sol:Diamond",
        "label": "delegateAuthorizationFlashloan",
        "offset": 0,
        "slot": "57",
        "type": "t_mapping(t_address,t_mapping(t_address,t_mapping(t_address,t_bool)))"
      },
      {
        "astId": 5078,
        "contract": "contracts/Comptroller/Diamond/Diamond.sol:Diamond",
        "label": "liquidationManager",
        "offset": 0,
        "slot": "58",
        "type": "t_contract(LiquidationManager)20882"
      }
    ],
    "types": {
      "t_address": {
        "encoding": "inplace",
        "label": "address",
        "numberOfBytes": "20"
      },
      "t_array(t_address)dyn_storage": {
        "base": "t_address",
        "encoding": "dynamic_array",
        "label": "address[]",
        "numberOfBytes": "32"
      },
      "t_array(t_bytes4)dyn_storage": {
        "base": "t_bytes4",
        "encoding": "dynamic_array",
        "label": "bytes4[]",
        "numberOfBytes": "32"
      },
      "t_array(t_contract(VToken)33392)dyn_storage": {
        "base": "t_contract(VToken)33392",
        "encoding": "dynamic_array",
        "label": "contract VToken[]",
        "numberOfBytes": "32"
      },
      "t_bool": {
        "encoding": "inplace",
        "label": "bool",
        "numberOfBytes": "1"
      },
      "t_bytes4": {
        "encoding": "inplace",
        "label": "bytes4",
        "numberOfBytes": "4"
      },
      "t_contract(ComptrollerLensInterface)4668": {
        "encoding": "inplace",
        "label": "contract ComptrollerLensInterface",
        "numberOfBytes": "20"
      },
      "t_contract(IPrime)23262": {
        "encoding": "inplace",
        "label": "contract IPrime",
        "numberOfBytes": "20"
      },
      "t_contract(LiquidationManager)20882": {
        "encoding": "inplace",
        "label": "contract LiquidationManager",
        "numberOfBytes": "20"
      },
      "t_contract(ResilientOracleInterface)3797": {
        "encoding": "inplace",
        "label": "contract ResilientOracleInterface",
        "numberOfBytes": "20"
      },
      "t_contract(VAIControllerInterface)26107": {
        "encoding": "inplace",
        "label": "contract VAIControllerInterface",
        "numberOfBytes": "20"
      },
      "t_contract(VToken)33392": {
        "encoding": "inplace",
        "label": "contract VToken",
        "numberOfBytes": "20"
      },
      "t_mapping(t_address,t_array(t_contract(VToken)33392)dyn_storage)": {
        "encoding": "mapping",
        "key": "t_address",
        "label": "mapping(address => contract VToken[])",
        "numberOfBytes": "32",
        "value": "t_array(t_contract(VToken)33392)dyn_storage"
      },
      "t_mapping(t_address,t_bool)": {
        "encoding": "mapping",
        "key": "t_address",
        "label": "mapping(address => bool)",
        "numberOfBytes": "32",
        "value": "t_bool"
      },
      "t_mapping(t_address,t_mapping(t_address,t_bool))": {
        "encoding": "mapping",
        "key": "t_address",
        "label": "mapping(address => mapping(address => bool))",
        "numberOfBytes": "32",
        "value": "t_mapping(t_address,t_bool)"
      },
      "t_mapping(t_address,t_mapping(t_address,t_mapping(t_address,t_bool)))": {
        "encoding": "mapping",
        "key": "t_address",
        "label": "mapping(address => mapping(address => mapping(address => bool)))",
        "numberOfBytes": "32",
        "value": "t_mapping(t_address,t_mapping(t_address,t_bool))"
      },
      "t_mapping(t_address,t_mapping(t_address,t_uint256))": {
        "encoding": "mapping",
        "key": "t_address",
        "label": "mapping(address => mapping(address => uint256))",
        "numberOfBytes": "32",
        "value": "t_mapping(t_address,t_uint256)"
      },
      "t_mapping(t_address,t_mapping(t_uint256,t_bool))": {
        "encoding": "mapping",
        "key": "t_address",
        "label": "mapping(address => mapping(uint256 => bool))",
        "numberOfBytes": "32",
        "value": "t_mapping(t_uint256,t_bool)"
      },
      "t_mapping(t_address,t_struct(FacetFunctionSelectors)4977_storage)": {
        "encoding": "mapping",
        "key": "t_address",
        "label": "mapping(address => struct ComptrollerV13Storage.FacetFunctionSelectors)",
        "numberOfBytes": "32",
        "value": "t_struct(FacetFunctionSelectors)4977_storage"
      },
      "t_mapping(t_address,t_struct(VenusMarketState)4785_storage)": {
        "encoding": "mapping",
        "key": "t_address",
        "label": "mapping(address => struct ComptrollerV1Storage.VenusMarketState)",
        "numberOfBytes": "32",
        "value": "t_struct(VenusMarketState)4785_storage"
      },
      "t_mapping(t_address,t_uint256)": {
        "encoding": "mapping",
        "key": "t_address",
        "label": "mapping(address => uint256)",
        "numberOfBytes": "32",
        "value": "t_uint256"
      },
      "t_mapping(t_address,t_uint96)": {
        "encoding": "mapping",
        "key": "t_address",
        "label": "mapping(address => uint96)",
        "numberOfBytes": "32",
        "value": "t_uint96"
      },
      "t_mapping(t_bytes4,t_struct(FacetAddressAndPosition)4971_storage)": {
        "encoding": "mapping",
        "key": "t_bytes4",
        "label": "mapping(bytes4 => struct ComptrollerV13Storage.FacetAddressAndPosition)",
        "numberOfBytes": "32",
        "value": "t_struct(FacetAddressAndPosition)4971_storage"
      },
      "t_mapping(t_uint256,t_bool)": {
        "encoding": "mapping",
        "key": "t_uint256",
        "label": "mapping(uint256 => bool)",
        "numberOfBytes": "32",
        "value": "t_bool"
      },
      "t_mapping(t_uint96,t_struct(PoolData)5027_storage)": {
        "encoding": "mapping",
        "key": "t_uint96",
        "label": "mapping(uint96 => struct ComptrollerV17Storage.PoolData)",
        "numberOfBytes": "32",
        "value": "t_struct(PoolData)5027_storage"
      },
      "t_mapping(t_userDefinedValueType(PoolMarketId)14693,t_struct(Market)4746_storage)": {
        "encoding": "mapping",
        "key": "t_userDefinedValueType(PoolMarketId)14693",
        "label": "mapping(PoolMarketId => struct ComptrollerV1Storage.Market)",
        "numberOfBytes": "32",
        "value": "t_struct(Market)4746_storage"
      },
      "t_string_storage": {
        "encoding": "bytes",
        "label": "string",
        "numberOfBytes": "32"
      },
      "t_struct(FacetAddressAndPosition)4971_storage": {
        "encoding": "inplace",
        "label": "struct ComptrollerV13Storage.FacetAddressAndPosition",
        "members": [
          {
            "astId": 4968,
            "contract": "contracts/Comptroller/Diamond/Diamond.sol:Diamond",
            "label": "facetAddress",
            "offset": 0,
            "slot": "0",
            "type": "t_address"
          },
          {
            "astId": 4970,
            "contract": "contracts/Comptroller/Diamond/Diamond.sol:Diamond",
            "label": "functionSelectorPosition",
            "offset": 20,
            "slot": "0",
            "type": "t_uint96"
          }
        ],
        "numberOfBytes": "32"
      },
      "t_struct(FacetFunctionSelectors)4977_storage": {
        "encoding": "inplace",
        "label": "struct ComptrollerV13Storage.FacetFunctionSelectors",
        "members": [
          {
            "astId": 4974,
            "contract": "contracts/Comptroller/Diamond/Diamond.sol:Diamond",
            "label": "functionSelectors",
            "offset": 0,
            "slot": "0",
            "type": "t_array(t_bytes4)dyn_storage"
          },
          {
            "astId": 4976,
            "contract": "contracts/Comptroller/Diamond/Diamond.sol:Diamond",
            "label": "facetAddressPosition",
            "offset": 0,
            "slot": "1",
            "type": "t_uint256"
          }
        ],
        "numberOfBytes": "64"
      },
      "t_struct(Market)4746_storage": {
        "encoding": "inplace",
        "label": "struct ComptrollerV1Storage.Market",
        "members": [
          {
            "astId": 4722,
            "contract": "contracts/Comptroller/Diamond/Diamond.sol:Diamond",
            "label": "isListed",
            "offset": 0,
            "slot": "0",
            "type": "t_bool"
          },
          {
            "astId": 4725,
            "contract": "contracts/Comptroller/Diamond/Diamond.sol:Diamond",
            "label": "collateralFactorMantissa",
            "offset": 0,
            "slot": "1",
            "type": "t_uint256"
          },
          {
            "astId": 4730,
            "contract": "contracts/Comptroller/Diamond/Diamond.sol:Diamond",
            "label": "accountMembership",
            "offset": 0,
            "slot": "2",
            "type": "t_mapping(t_address,t_bool)"
          },
          {
            "astId": 4733,
            "contract": "contracts/Comptroller/Diamond/Diamond.sol:Diamond",
            "label": "isVenus",
            "offset": 0,
            "slot": "3",
            "type": "t_bool"
          },
          {
            "astId": 4736,
            "contract": "contracts/Comptroller/Diamond/Diamond.sol:Diamond",
            "label": "liquidationThresholdMantissa",
            "offset": 0,
            "slot": "4",
            "type": "t_uint256"
          },
          {
            "astId": 4739,
            "contract": "contracts/Comptroller/Diamond/Diamond.sol:Diamond",
            "label": "maxLiquidationIncentiveMantissa",
            "offset": 0,
            "slot": "5",
            "type": "t_uint256"
          },
          {
            "astId": 4742,
            "contract": "contracts/Comptroller/Diamond/Diamond.sol:Diamond",
            "label": "poolId",
            "offset": 0,
            "slot": "6",
            "type": "t_uint96"
          },
          {
            "astId": 4745,
            "contract": "contracts/Comptroller/Diamond/Diamond.sol:Diamond",
            "label": "isBorrowAllowed",
            "offset": 12,
            "slot": "6",
            "type": "t_bool"
          }
        ],
        "numberOfBytes": "224"
      },
      "t_struct(PoolData)5027_storage": {
        "encoding": "inplace",
        "label": "struct ComptrollerV17Storage.PoolData",
        "members": [
          {
            "astId": 5022,
            "contract": "contracts/Comptroller/Diamond/Diamond.sol:Diamond",
            "label": "label",
            "offset": 0,
            "slot": "0",
            "type": "t_string_storage"
          },
          {
            "astId": 5026,
            "contract": "contracts/Comptroller/Diamond/Diamond.sol:Diamond",
            "label": "vTokens",
            "offset": 0,
            "slot": "1",
            "type": "t_array(t_address)dyn_storage"
          }
        ],
        "numberOfBytes": "64"
      },
      "t_struct(VenusMarketState)4785_storage": {
        "encoding": "inplace",
        "label": "struct ComptrollerV1Storage.VenusMarketState",
        "members": [
          {
            "astId": 4781,
            "contract": "contracts/Comptroller/Diamond/Diamond.sol:Diamond",
            "label": "index",
            "offset": 0,
            "slot": "0",
            "type": "t_uint224"
          },
          {
            "astId": 4784,
            "contract": "contracts/Comptroller/Diamond/Diamond.sol:Diamond",
            "label": "block",
            "offset": 28,
            "slot": "0",
            "type": "t_uint32"
          }
        ],
        "numberOfBytes": "32"
      },
      "t_uint224": {
        "encoding": "inplace",
        "label": "uint224",
        "numberOfBytes": "28"
      },
      "t_uint256": {
        "encoding": "inplace",
        "label": "uint256",
        "numberOfBytes": "32"
      },
      "t_uint32": {
        "encoding": "inplace",
        "label": "uint32",
        "numberOfBytes": "4"
      },
      "t_uint96": {
        "encoding": "inplace",
        "label": "uint96",
        "numberOfBytes": "12"
      },
      "t_userDefinedValueType(PoolMarketId)14693": {
        "encoding": "inplace",
        "label": "PoolMarketId",
        "numberOfBytes": "32"
      }
    }
  }
}