{
  "address": "0xB1ed8548df908A77A1Cd7160955076ea9029Cfd4",
  "abi": [
    {
      "anonymous": false,
      "inputs": [
        {
          "indexed": false,
          "internalType": "uint256",
          "name": "error",
          "type": "uint256"
        },
        {
          "indexed": false,
          "internalType": "uint256",
          "name": "info",
          "type": "uint256"
        },
        {
          "indexed": false,
          "internalType": "uint256",
          "name": "detail",
          "type": "uint256"
        }
      ],
      "name": "Failure",
      "type": "event"
    },
    {
      "anonymous": false,
      "inputs": [
        {
          "indexed": false,
          "internalType": "address",
          "name": "liquidator",
          "type": "address"
        },
        {
          "indexed": false,
          "internalType": "address",
          "name": "borrower",
          "type": "address"
        },
        {
          "indexed": false,
          "internalType": "uint256",
          "name": "repayAmount",
          "type": "uint256"
        },
        {
          "indexed": false,
          "internalType": "address",
          "name": "vTokenCollateral",
          "type": "address"
        },
        {
          "indexed": false,
          "internalType": "uint256",
          "name": "seizeTokens",
          "type": "uint256"
        }
      ],
      "name": "LiquidateVAI",
      "type": "event"
    },
    {
      "anonymous": false,
      "inputs": [
        {
          "indexed": false,
          "internalType": "address",
          "name": "minter",
          "type": "address"
        },
        {
          "indexed": false,
          "internalType": "uint256",
          "name": "feeAmount",
          "type": "uint256"
        }
      ],
      "name": "MintFee",
      "type": "event"
    },
    {
      "anonymous": false,
      "inputs": [
        {
          "indexed": false,
          "internalType": "bool",
          "name": "previousMintEnabledOnlyForPrimeHolder",
          "type": "bool"
        },
        {
          "indexed": false,
          "internalType": "bool",
          "name": "newMintEnabledOnlyForPrimeHolder",
          "type": "bool"
        }
      ],
      "name": "MintOnlyForPrimeHolder",
      "type": "event"
    },
    {
      "anonymous": false,
      "inputs": [
        {
          "indexed": false,
          "internalType": "address",
          "name": "minter",
          "type": "address"
        },
        {
          "indexed": false,
          "internalType": "uint256",
          "name": "mintVAIAmount",
          "type": "uint256"
        }
      ],
      "name": "MintVAI",
      "type": "event"
    },
    {
      "anonymous": false,
      "inputs": [
        {
          "indexed": false,
          "internalType": "address",
          "name": "oldAccessControlAddress",
          "type": "address"
        },
        {
          "indexed": false,
          "internalType": "address",
          "name": "newAccessControlAddress",
          "type": "address"
        }
      ],
      "name": "NewAccessControl",
      "type": "event"
    },
    {
      "anonymous": false,
      "inputs": [
        {
          "indexed": false,
          "internalType": "contract ComptrollerInterface",
          "name": "oldComptroller",
          "type": "address"
        },
        {
          "indexed": false,
          "internalType": "contract ComptrollerInterface",
          "name": "newComptroller",
          "type": "address"
        }
      ],
      "name": "NewComptroller",
      "type": "event"
    },
    {
      "anonymous": false,
      "inputs": [
        {
          "indexed": false,
          "internalType": "address",
          "name": "oldPrime",
          "type": "address"
        },
        {
          "indexed": false,
          "internalType": "address",
          "name": "newPrime",
          "type": "address"
        }
      ],
      "name": "NewPrime",
      "type": "event"
    },
    {
      "anonymous": false,
      "inputs": [
        {
          "indexed": false,
          "internalType": "address",
          "name": "oldTreasuryAddress",
          "type": "address"
        },
        {
          "indexed": false,
          "internalType": "address",
          "name": "newTreasuryAddress",
          "type": "address"
        }
      ],
      "name": "NewTreasuryAddress",
      "type": "event"
    },
    {
      "anonymous": false,
      "inputs": [
        {
          "indexed": false,
          "internalType": "address",
          "name": "oldTreasuryGuardian",
          "type": "address"
        },
        {
          "indexed": false,
          "internalType": "address",
          "name": "newTreasuryGuardian",
          "type": "address"
        }
      ],
      "name": "NewTreasuryGuardian",
      "type": "event"
    },
    {
      "anonymous": false,
      "inputs": [
        {
          "indexed": false,
          "internalType": "uint256",
          "name": "oldTreasuryPercent",
          "type": "uint256"
        },
        {
          "indexed": false,
          "internalType": "uint256",
          "name": "newTreasuryPercent",
          "type": "uint256"
        }
      ],
      "name": "NewTreasuryPercent",
      "type": "event"
    },
    {
      "anonymous": false,
      "inputs": [
        {
          "indexed": false,
          "internalType": "uint256",
          "name": "oldBaseRateMantissa",
          "type": "uint256"
        },
        {
          "indexed": false,
          "internalType": "uint256",
          "name": "newBaseRateMantissa",
          "type": "uint256"
        }
      ],
      "name": "NewVAIBaseRate",
      "type": "event"
    },
    {
      "anonymous": false,
      "inputs": [
        {
          "indexed": false,
          "internalType": "uint256",
          "name": "oldFloatRateMantissa",
          "type": "uint256"
        },
        {
          "indexed": false,
          "internalType": "uint256",
          "name": "newFlatRateMantissa",
          "type": "uint256"
        }
      ],
      "name": "NewVAIFloatRate",
      "type": "event"
    },
    {
      "anonymous": false,
      "inputs": [
        {
          "indexed": false,
          "internalType": "uint256",
          "name": "oldMintCap",
          "type": "uint256"
        },
        {
          "indexed": false,
          "internalType": "uint256",
          "name": "newMintCap",
          "type": "uint256"
        }
      ],
      "name": "NewVAIMintCap",
      "type": "event"
    },
    {
      "anonymous": false,
      "inputs": [
        {
          "indexed": false,
          "internalType": "address",
          "name": "oldReceiver",
          "type": "address"
        },
        {
          "indexed": false,
          "internalType": "address",
          "name": "newReceiver",
          "type": "address"
        }
      ],
      "name": "NewVAIReceiver",
      "type": "event"
    },
    {
      "anonymous": false,
      "inputs": [
        {
          "indexed": false,
          "internalType": "address",
          "name": "oldVaiToken",
          "type": "address"
        },
        {
          "indexed": false,
          "internalType": "address",
          "name": "newVaiToken",
          "type": "address"
        }
      ],
      "name": "NewVaiToken",
      "type": "event"
    },
    {
      "anonymous": false,
      "inputs": [
        {
          "indexed": false,
          "internalType": "address",
          "name": "payer",
          "type": "address"
        },
        {
          "indexed": false,
          "internalType": "address",
          "name": "borrower",
          "type": "address"
        },
        {
          "indexed": false,
          "internalType": "uint256",
          "name": "repayVAIAmount",
          "type": "uint256"
        }
      ],
      "name": "RepayVAI",
      "type": "event"
    },
    {
      "inputs": [],
      "name": "CORE_POOL_ID",
      "outputs": [
        {
          "internalType": "uint96",
          "name": "",
          "type": "uint96"
        }
      ],
      "stateMutability": "view",
      "type": "function"
    },
    {
      "inputs": [],
      "name": "INITIAL_VAI_MINT_INDEX",
      "outputs": [
        {
          "internalType": "uint256",
          "name": "",
          "type": "uint256"
        }
      ],
      "stateMutability": "view",
      "type": "function"
    },
    {
      "inputs": [
        {
          "internalType": "contract VAIUnitroller",
          "name": "unitroller",
          "type": "address"
        }
      ],
      "name": "_become",
      "outputs": [],
      "stateMutability": "nonpayable",
      "type": "function"
    },
    {
      "inputs": [
        {
          "internalType": "contract ComptrollerInterface",
          "name": "comptroller_",
          "type": "address"
        }
      ],
      "name": "_setComptroller",
      "outputs": [
        {
          "internalType": "uint256",
          "name": "",
          "type": "uint256"
        }
      ],
      "stateMutability": "nonpayable",
      "type": "function"
    },
    {
      "inputs": [
        {
          "internalType": "address",
          "name": "newTreasuryGuardian",
          "type": "address"
        },
        {
          "internalType": "address",
          "name": "newTreasuryAddress",
          "type": "address"
        },
        {
          "internalType": "uint256",
          "name": "newTreasuryPercent",
          "type": "uint256"
        }
      ],
      "name": "_setTreasuryData",
      "outputs": [
        {
          "internalType": "uint256",
          "name": "",
          "type": "uint256"
        }
      ],
      "stateMutability": "nonpayable",
      "type": "function"
    },
    {
      "inputs": [],
      "name": "accessControl",
      "outputs": [
        {
          "internalType": "address",
          "name": "",
          "type": "address"
        }
      ],
      "stateMutability": "view",
      "type": "function"
    },
    {
      "inputs": [],
      "name": "accrueVAIInterest",
      "outputs": [],
      "stateMutability": "nonpayable",
      "type": "function"
    },
    {
      "inputs": [],
      "name": "admin",
      "outputs": [
        {
          "internalType": "address",
          "name": "",
          "type": "address"
        }
      ],
      "stateMutability": "view",
      "type": "function"
    },
    {
      "inputs": [],
      "name": "baseRateMantissa",
      "outputs": [
        {
          "internalType": "uint256",
          "name": "",
          "type": "uint256"
        }
      ],
      "stateMutability": "view",
      "type": "function"
    },
    {
      "inputs": [],
      "name": "comptroller",
      "outputs": [
        {
          "internalType": "contract ComptrollerInterface",
          "name": "",
          "type": "address"
        }
      ],
      "stateMutability": "view",
      "type": "function"
    },
    {
      "inputs": [],
      "name": "floatRateMantissa",
      "outputs": [
        {
          "internalType": "uint256",
          "name": "",
          "type": "uint256"
        }
      ],
      "stateMutability": "view",
      "type": "function"
    },
    {
      "inputs": [],
      "name": "getBlocksPerYear",
      "outputs": [
        {
          "internalType": "uint256",
          "name": "",
          "type": "uint256"
        }
      ],
      "stateMutability": "view",
      "type": "function"
    },
    {
      "inputs": [
        {
          "internalType": "address",
          "name": "minter",
          "type": "address"
        }
      ],
      "name": "getMintableVAI",
      "outputs": [
        {
          "internalType": "uint256",
          "name": "",
          "type": "uint256"
        },
        {
          "internalType": "uint256",
          "name": "",
          "type": "uint256"
        }
      ],
      "stateMutability": "view",
      "type": "function"
    },
    {
      "inputs": [],
      "name": "getVAIAddress",
      "outputs": [
        {
          "internalType": "address",
          "name": "",
          "type": "address"
        }
      ],
      "stateMutability": "view",
      "type": "function"
    },
    {
      "inputs": [
        {
          "internalType": "address",
          "name": "borrower",
          "type": "address"
        },
        {
          "internalType": "uint256",
          "name": "repayAmount",
          "type": "uint256"
        }
      ],
      "name": "getVAICalculateRepayAmount",
      "outputs": [
        {
          "internalType": "uint256",
          "name": "",
          "type": "uint256"
        },
        {
          "internalType": "uint256",
          "name": "",
          "type": "uint256"
        },
        {
          "internalType": "uint256",
          "name": "",
          "type": "uint256"
        }
      ],
      "stateMutability": "view",
      "type": "function"
    },
    {
      "inputs": [
        {
          "internalType": "address",
          "name": "minter",
          "type": "address"
        }
      ],
      "name": "getVAIMinterInterestIndex",
      "outputs": [
        {
          "internalType": "uint256",
          "name": "",
          "type": "uint256"
        }
      ],
      "stateMutability": "view",
      "type": "function"
    },
    {
      "inputs": [
        {
          "internalType": "address",
          "name": "account",
          "type": "address"
        }
      ],
      "name": "getVAIRepayAmount",
      "outputs": [
        {
          "internalType": "uint256",
          "name": "",
          "type": "uint256"
        }
      ],
      "stateMutability": "view",
      "type": "function"
    },
    {
      "inputs": [],
      "name": "getVAIRepayRate",
      "outputs": [
        {
          "internalType": "uint256",
          "name": "",
          "type": "uint256"
        }
      ],
      "stateMutability": "view",
      "type": "function"
    },
    {
      "inputs": [],
      "name": "getVAIRepayRatePerBlock",
      "outputs": [
        {
          "internalType": "uint256",
          "name": "",
          "type": "uint256"
        }
      ],
      "stateMutability": "view",
      "type": "function"
    },
    {
      "inputs": [],
      "name": "initialize",
      "outputs": [],
      "stateMutability": "nonpayable",
      "type": "function"
    },
    {
      "inputs": [],
      "name": "isVenusVAIInitialized",
      "outputs": [
        {
          "internalType": "bool",
          "name": "",
          "type": "bool"
        }
      ],
      "stateMutability": "view",
      "type": "function"
    },
    {
      "inputs": [
        {
          "internalType": "address",
          "name": "borrower",
          "type": "address"
        },
        {
          "internalType": "uint256",
          "name": "repayAmount",
          "type": "uint256"
        },
        {
          "internalType": "contract VTokenInterface",
          "name": "vTokenCollateral",
          "type": "address"
        },
        {
          "components": [
            {
              "internalType": "uint256",
              "name": "totalCollateral",
              "type": "uint256"
            },
            {
              "internalType": "uint256",
              "name": "weightedCollateral",
              "type": "uint256"
            },
            {
              "internalType": "uint256",
              "name": "borrows",
              "type": "uint256"
            },
            {
              "internalType": "uint256",
              "name": "liquidity",
              "type": "uint256"
            },
            {
              "internalType": "uint256",
              "name": "shortfall",
              "type": "uint256"
            },
            {
              "internalType": "uint256",
              "name": "liquidationThresholdAvg",
              "type": "uint256"
            },
            {
              "internalType": "uint256",
              "name": "healthFactor",
              "type": "uint256"
            },
            {
              "internalType": "uint256",
              "name": "dynamicLiquidationIncentiveMantissa",
              "type": "uint256"
            }
          ],
          "internalType": "struct ComptrollerLensInterface.AccountSnapshot",
          "name": "snapshot",
          "type": "tuple"
        }
      ],
      "name": "liquidateVAI",
      "outputs": [
        {
          "internalType": "uint256",
          "name": "",
          "type": "uint256"
        },
        {
          "internalType": "uint256",
          "name": "",
          "type": "uint256"
        }
      ],
      "stateMutability": "nonpayable",
      "type": "function"
    },
    {
      "inputs": [],
      "name": "mintCap",
      "outputs": [
        {
          "internalType": "uint256",
          "name": "",
          "type": "uint256"
        }
      ],
      "stateMutability": "view",
      "type": "function"
    },
    {
      "inputs": [],
      "name": "mintEnabledOnlyForPrimeHolder",
      "outputs": [
        {
          "internalType": "bool",
          "name": "",
          "type": "bool"
        }
      ],
      "stateMutability": "view",
      "type": "function"
    },
    {
      "inputs": [
        {
          "internalType": "uint256",
          "name": "mintVAIAmount",
          "type": "uint256"
        }
      ],
      "name": "mintVAI",
      "outputs": [
        {
          "internalType": "uint256",
          "name": "",
          "type": "uint256"
        }
      ],
      "stateMutability": "nonpayable",
      "type": "function"
    },
    {
      "inputs": [
        {
          "internalType": "address",
          "name": "",
          "type": "address"
        }
      ],
      "name": "pastVAIInterest",
      "outputs": [
        {
          "internalType": "uint256",
          "name": "",
          "type": "uint256"
        }
      ],
      "stateMutability": "view",
      "type": "function"
    },
    {
      "inputs": [],
      "name": "pendingAdmin",
      "outputs": [
        {
          "internalType": "address",
          "name": "",
          "type": "address"
        }
      ],
      "stateMutability": "view",
      "type": "function"
    },
    {
      "inputs": [],
      "name": "pendingVAIControllerImplementation",
      "outputs": [
        {
          "internalType": "address",
          "name": "",
          "type": "address"
        }
      ],
      "stateMutability": "view",
      "type": "function"
    },
    {
      "inputs": [],
      "name": "prime",
      "outputs": [
        {
          "internalType": "address",
          "name": "",
          "type": "address"
        }
      ],
      "stateMutability": "view",
      "type": "function"
    },
    {
      "inputs": [],
      "name": "receiver",
      "outputs": [
        {
          "internalType": "address",
          "name": "",
          "type": "address"
        }
      ],
      "stateMutability": "view",
      "type": "function"
    },
    {
      "inputs": [
        {
          "internalType": "uint256",
          "name": "amount",
          "type": "uint256"
        }
      ],
      "name": "repayVAI",
      "outputs": [
        {
          "internalType": "uint256",
          "name": "",
          "type": "uint256"
        },
        {
          "internalType": "uint256",
          "name": "",
          "type": "uint256"
        }
      ],
      "stateMutability": "nonpayable",
      "type": "function"
    },
    {
      "inputs": [
        {
          "internalType": "address",
          "name": "borrower",
          "type": "address"
        },
        {
          "internalType": "uint256",
          "name": "amount",
          "type": "uint256"
        }
      ],
      "name": "repayVAIBehalf",
      "outputs": [
        {
          "internalType": "uint256",
          "name": "",
          "type": "uint256"
        },
        {
          "internalType": "uint256",
          "name": "",
          "type": "uint256"
        }
      ],
      "stateMutability": "nonpayable",
      "type": "function"
    },
    {
      "inputs": [
        {
          "internalType": "address",
          "name": "newAccessControlAddress",
          "type": "address"
        }
      ],
      "name": "setAccessControl",
      "outputs": [],
      "stateMutability": "nonpayable",
      "type": "function"
    },
    {
      "inputs": [
        {
          "internalType": "uint256",
          "name": "newBaseRateMantissa",
          "type": "uint256"
        }
      ],
      "name": "setBaseRate",
      "outputs": [],
      "stateMutability": "nonpayable",
      "type": "function"
    },
    {
      "inputs": [
        {
          "internalType": "uint256",
          "name": "newFloatRateMantissa",
          "type": "uint256"
        }
      ],
      "name": "setFloatRate",
      "outputs": [],
      "stateMutability": "nonpayable",
      "type": "function"
    },
    {
      "inputs": [
        {
          "internalType": "uint256",
          "name": "_mintCap",
          "type": "uint256"
        }
      ],
      "name": "setMintCap",
      "outputs": [],
      "stateMutability": "nonpayable",
      "type": "function"
    },
    {
      "inputs": [
        {
          "internalType": "address",
          "name": "prime_",
          "type": "address"
        }
      ],
      "name": "setPrimeToken",
      "outputs": [],
      "stateMutability": "nonpayable",
      "type": "function"
    },
    {
      "inputs": [
        {
          "internalType": "address",
          "name": "newReceiver",
          "type": "address"
        }
      ],
      "name": "setReceiver",
      "outputs": [],
      "stateMutability": "nonpayable",
      "type": "function"
    },
    {
      "inputs": [
        {
          "internalType": "address",
          "name": "vai_",
          "type": "address"
        }
      ],
      "name": "setVAIToken",
      "outputs": [],
      "stateMutability": "nonpayable",
      "type": "function"
    },
    {
      "inputs": [],
      "name": "toggleOnlyPrimeHolderMint",
      "outputs": [
        {
          "internalType": "uint256",
          "name": "",
          "type": "uint256"
        }
      ],
      "stateMutability": "nonpayable",
      "type": "function"
    },
    {
      "inputs": [],
      "name": "treasuryAddress",
      "outputs": [
        {
          "internalType": "address",
          "name": "",
          "type": "address"
        }
      ],
      "stateMutability": "view",
      "type": "function"
    },
    {
      "inputs": [],
      "name": "treasuryGuardian",
      "outputs": [
        {
          "internalType": "address",
          "name": "",
          "type": "address"
        }
      ],
      "stateMutability": "view",
      "type": "function"
    },
    {
      "inputs": [],
      "name": "treasuryPercent",
      "outputs": [
        {
          "internalType": "uint256",
          "name": "",
          "type": "uint256"
        }
      ],
      "stateMutability": "view",
      "type": "function"
    },
    {
      "inputs": [],
      "name": "vaiControllerImplementation",
      "outputs": [
        {
          "internalType": "address",
          "name": "",
          "type": "address"
        }
      ],
      "stateMutability": "view",
      "type": "function"
    },
    {
      "inputs": [],
      "name": "vaiMintIndex",
      "outputs": [
        {
          "internalType": "uint256",
          "name": "",
          "type": "uint256"
        }
      ],
      "stateMutability": "view",
      "type": "function"
    },
    {
      "inputs": [
        {
          "internalType": "address",
          "name": "",
          "type": "address"
        }
      ],
      "name": "venusVAIMinterIndex",
      "outputs": [
        {
          "internalType": "uint256",
          "name": "",
          "type": "uint256"
        }
      ],
      "stateMutability": "view",
      "type": "function"
    },
    {
      "inputs": [],
      "name": "venusVAIState",
      "outputs": [
        {
          "internalType": "uint224",
          "name": "index",
          "type": "uint224"
        },
        {
          "internalType": "uint32",
          "name": "block",
          "type": "uint32"
        }
      ],
      "stateMutability": "view",
      "type": "function"
    }
  ],
  "transactionHash": "0x413abc239f1b70feda721c4a7a678564425f756da11c25a1742026e8b9940d8d",
  "args": [],
  "numDeployments": 6,
  "solcInputHash": "afad615deb23556b23fa1a0101f6bced",
  "bytecode": "0x6080604052348015600e575f80fd5b506142038061001c5f395ff3fe608060405234801561000f575f80fd5b506004361061028b575f3560e01c80636fe74a2111610161578063b49b1005116100ca578063d24febad11610084578063d24febad146105a1578063e44e6168146105b4578063ee1fa41e146105fa578063f20fd8f41461060e578063f7260d3e1461062d578063f851a44014610640575f80fd5b8063b49b100514610547578063b9ee87261461054f578063c32094c714610557578063c5f956af1461056a578063c7ee005e1461057d578063cbeb2b2814610590575f80fd5b80637a37c5d01161011b5780637a37c5d0146104de5780638129fc1c146104fd5780639680e96114610505578063b06bb42614610518578063b2b481bc1461052b578063b2eafc3914610534575f80fd5b80636fe74a211461048a578063718da7ee1461049d578063741de148146104b057806375c3de43146104ba57806376c71ca1146104c257806378c2f922146104cb575f80fd5b80633b5a0a64116102035780635fe3b567116101bd5780635fe3b5671461040257806360c954ef1461041557806361b3311c146104325780636509795414610445578063657bdf9414610454578063691e45ac1461045c575f80fd5b80633b5a0a64146103a45780633b72fbef146103b75780634070a0c9146103c05780634576b5db146103d35780634712ee7d146103e65780635ce73240146103f9575f80fd5b80631d504dc6116102545780631d504dc6146103115780631f040ff514610324578063234f89771461034c578063246506021461035f578063267822471461037e5780633785d1d614610391575f80fd5b80623b58841461028f57806304ef9d58146102bf57806313007d55146102d657806319129e5a146102e95780631d08837b146102fe575b5f80fd5b6002546102a2906001600160a01b031681565b6040516001600160a01b0390911681526020015b60405180910390f35b6102c8600a5481565b6040519081526020016102b6565b6014546102a2906001600160a01b031681565b6102fc6102f7366004613b45565b610652565b005b6102fc61030c366004613b60565b6106ef565b6102fc61031f366004613b45565b610762565b610337610332366004613b77565b6108db565b604080519283526020830191909152016102b6565b6102c861035a366004613b45565b610938565b6102c861036d366004613b45565b60076020525f908152604090205481565b6001546102a2906001600160a01b031681565b61033761039f366004613b45565b61096d565b6102fc6103b2366004613b60565b61127e565b6102c8600c5481565b6102fc6103ce366004613b60565b6112f2565b6102c86103e1366004613b45565b611364565b6102c86103f4366004613b60565b6113e8565b6102c8600d5481565b6004546102a2906001600160a01b031681565b6006546104229060ff1681565b60405190151581526020016102b6565b6102fc610440366004613b45565b6119ec565b6102c8670de0b6b3a764000081565b6102c8611a7e565b61046f61046a366004613b77565b611b57565b604080519384526020840192909252908201526060016102b6565b610337610498366004613b60565b611ff4565b6102fc6104ab366004613b45565b612046565b6302819a006102c8565b6102c86120d2565b6102c860135481565b6102c86104d9366004613b45565b612123565b6104e55f81565b6040516001600160601b0390911681526020016102b6565b6102fc61230a565b610337610513366004613c10565b61239d565b6003546102a2906001600160a01b031681565b6102c8600f5481565b6008546102a2906001600160a01b031681565b6102fc612491565b6102c861258b565b6102fc610565366004613b45565b6127dc565b6009546102a2906001600160a01b031681565b6015546102a2906001600160a01b031681565b6016546001600160a01b03166102a2565b6102c86105af366004613cc2565b61286e565b6005546105d6906001600160e01b03811690600160e01b900463ffffffff1682565b604080516001600160e01b03909316835263ffffffff9091166020830152016102b6565b60155461042290600160a01b900460ff1681565b6102c861061c366004613b45565b60126020525f908152604090205481565b600e546102a2906001600160a01b031681565b5f546102a2906001600160a01b031681565b5f546001600160a01b031633146106845760405162461bcd60e51b815260040161067b90613d00565b60405180910390fd5b61068d81612a03565b601480546001600160a01b038381166001600160a01b031983168117909355604080519190921680825260208201939093527f0f1eca7612e020f6e4582bcead0573eba4b5f7b56668754c6aed82ef12057dd491015b60405180910390a15050565b6107246040518060400160405280601481526020017373657442617365526174652875696e743235362960601b815250612a51565b600c80549082905560408051828152602081018490527fc84c32795e68685ec107b0e94ae126ef464095f342c7e2e0fec06a23d2e8677e91016106e3565b806001600160a01b031663f851a4406040518163ffffffff1660e01b8152600401602060405180830381865afa15801561079e573d5f803e3d5ffd5b505050506040513d601f19601f820116820180604052508101906107c29190613d28565b6001600160a01b0316336001600160a01b0316146108325760405162461bcd60e51b815260206004820152602760248201527f6f6e6c7920756e6974726f6c6c65722061646d696e2063616e206368616e676560448201526620627261696e7360c81b606482015260840161067b565b806001600160a01b031663c1e803346040518163ffffffff1660e01b81526004016020604051808303815f875af115801561086f573d5f803e3d5ffd5b505050506040513d601f19601f820116820180604052508101906108939190613d43565b156108d85760405162461bcd60e51b815260206004820152601560248201527418da185b99d9481b9bdd08185d5d1a1bdc9a5e9959605a1b604482015260640161067b565b50565b600b545f90819060ff166109015760405162461bcd60e51b815260040161067b90613d5a565b600b805460ff1916905561091484612a03565b61091e8484612afe565b91509150600b805460ff1916600117905590939092509050565b6001600160a01b0381165f908152601160205260408120548082036109675750670de0b6b3a764000092915050565b92915050565b6015545f908190600160a01b900460ff1680156109f35750601554604051630e3da90d60e21b81526001600160a01b038581166004830152909116906338f6a43490602401602060405180830381865afa1580156109cd573d5f803e3d5ffd5b505050506040513d601f19601f820116820180604052508101906109f19190613d92565b155b15610a03576002935f9350915050565b5f60045f9054906101000a90046001600160a01b03166001600160a01b0316637dc0d1d06040518163ffffffff1660e01b8152600401602060405180830381865afa158015610a54573d5f803e3d5ffd5b505050506040513d601f19601f82011682018060405250810190610a789190613d28565b60048054604051632aff3bff60e21b81526001600160a01b03888116938201939093529293505f9291169063abfceffc906024015f60405180830381865afa158015610ac6573d5f803e3d5ffd5b505050506040513d5f823e601f3d908101601f19168201604052610aed9190810190613dbf565b9050610af7613a9f565b81515f9081905b80821015610fc257848281518110610b1857610b18613e6c565b60209081029190910101516040516361bfb47160e11b81526001600160a01b038b811660048301529091169063c37f68e290602401608060405180830381865afa158015610b68573d5f803e3d5ffd5b505050506040513d601f19601f82011682018060405250810190610b8c9190613e80565b60e088015260c087015260a086015280855215610bb55760035b995f9950975050505050505050565b60405180602001604052808560e00151815250846101200181905250856001600160a01b031663fc57d4df868481518110610bf257610bf2613e6c565b60200260200101516040518263ffffffff1660e01b8152600401610c2591906001600160a01b0391909116815260200190565b602060405180830381865afa158015610c40573d5f803e3d5ffd5b505050506040513d601f19601f82011682018060405250810190610c649190613d43565b61010085018190525f03610c79576004610ba6565b604080516020810190915261010085015181526101408501819052610120850151610ca391612b4c565b856020018661016001829052826003811115610cc157610cc1613dab565b6003811115610cd257610cd2613dab565b9052505f905084602001516003811115610cee57610cee613dab565b14610cfa576005610ba6565b610d0d8461016001518560a00151612c59565b6060860181905260208601826003811115610d2a57610d2a613dab565b6003811115610d3b57610d3b613dab565b9052505f905084602001516003811115610d5757610d57613dab565b14610d63576005610ba6565b60045485515f916001600160a01b031690638e8f294b90889086908110610d8c57610d8c613e6c565b60200260200101516040518263ffffffff1660e01b8152600401610dbf91906001600160a01b0391909116815260200190565b60a060405180830381865afa158015610dda573d5f803e3d5ffd5b505050506040513d601f19601f82011682018060405250810190610dfe9190613eb3565b505050915050610e12856060015182612ca6565b6060870181905260208701826003811115610e2f57610e2f613dab565b6003811115610e4057610e40613dab565b9052505f905085602001516003811115610e5c57610e5c613dab565b14610e745760055b9a5f9a5098505050505050505050565b610e8a8560600151670de0b6b3a7640000612ce3565b6060870181905260208701826003811115610ea757610ea7613dab565b6003811115610eb857610eb8613dab565b9052505f905085602001516003811115610ed457610ed4613dab565b14610ee0576005610e64565b610ef285604001518660600151612d02565b6040870181905260208701826003811115610f0f57610f0f613dab565b6003811115610f2057610f20613dab565b9052505f905085602001516003811115610f3c57610f3c613dab565b14610f48576005610e64565b610f608561014001518660c001518760800151612d25565b6080870181905260208701826003811115610f7d57610f7d613dab565b6003811115610f8e57610f8e613dab565b9052505f905085602001516003811115610faa57610faa613dab565b14610fb6576005610e64565b50600190910190610afe565b600480546040516315e3f14f60e11b81526001600160a01b038c8116938201939093525f9290911690632bc7e29e90602401602060405180830381865afa15801561100f573d5f803e3d5ffd5b505050506040513d601f19601f820116820180604052508101906110339190613d43565b90505f8115611048576110458b612123565b90505b611056866080015182612d02565b608088018190526020880182600381111561107357611073613dab565b600381111561108457611084613dab565b9052505f9050866020015160038111156110a0576110a0613dab565b146110b95760055b9b5f9b509950505050505050505050565b61113a866040015160045f9054906101000a90046001600160a01b03166001600160a01b031663bec04f726040518163ffffffff1660e01b8152600401602060405180830381865afa158015611111573d5f803e3d5ffd5b505050506040513d601f19601f820116820180604052508101906111359190613d43565b612ca6565b8760200181975082600381111561115357611153613dab565b600381111561116457611164613dab565b9052505f90508660200151600381111561118057611180613dab565b1461119d5760405162461bcd60e51b815260040161067b90613efe565b6111a985612710612ce3565b876020018197508260038111156111c2576111c2613dab565b60038111156111d3576111d3613dab565b9052505f9050866020015160038111156111ef576111ef613dab565b1461120c5760405162461bcd60e51b815260040161067b90613efe565b61121a858760800151612d7c565b8760200181975082600381111561123357611233613dab565b600381111561124457611244613dab565b9052505f90508660200151600381111561126057611260613dab565b1461126c5760026110a8565b5f9b949a509398505050505050505050565b6112b460405180604001604052806015815260200174736574466c6f6174526174652875696e743235362960581b815250612a51565b600d80549082905560408051828152602081018490527f546fb35dbbd92233aecc22b5a11a6791e5db7ec14f62e49cbac2a10c0437f56191016106e3565b611326604051806040016040528060138152602001727365744d696e744361702875696e743235362960681b815250612a51565b601380549082905560408051828152602081018490527f43862b3eea2df8fce70329f3f84cbcad220f47a73be46c5e00df25165a6e169591016106e3565b5f80546001600160a01b031633146113825761096760016002612d9c565b600480546001600160a01b038481166001600160a01b031983168117909355604080519190921680825260208201939093527f7ac369dbd14fa5ea3f473ed67cc9d598964a77501540ba6751eb0b3decf5870d910160405180910390a15f5b9392505050565b600b545f9060ff1661140c5760405162461bcd60e51b815260040161067b90613d5a565b600b805460ff191690556004546001600160a01b031661142d57505f6119da565b60048054604051637376909960e01b815233928101929092525f916001600160a01b0390911690637376909990602401602060405180830381865afa158015611478573d5f803e3d5ffd5b505050506040513d601f19601f8201168201806040525081019061149c9190613f40565b6001600160601b0316146115015760405162461bcd60e51b815260206004820152602660248201527f564149206d696e74206f6e6c7920616c6c6f77656420696e2074686520636f726044820152651948141bdbdb60d21b606482015260840161067b565b61150a82612e13565b611512612e59565b61151a612491565b601654604080516318160ddd60e01b815290515f9233926001600160a01b0390911691849183916318160ddd916004808201926020929091908290030181865afa15801561156a573d5f803e3d5ffd5b505050506040513d601f19601f8201168201806040525081019061158e9190613d43565b90505f61159b8288612f06565b90506013548111156115e25760405162461bcd60e51b815260206004820152601060248201526f1b5a5b9d0818d85c081c995858da195960821b604482015260640161067b565b5f6115ec8561096d565b909650905085156116495760405162461bcd60e51b815260206004820152602160248201527f636f756c64206e6f7420636f6d70757465206d696e7461626c6520616d6f756e6044820152601d60fa1b606482015260840161067b565b808811156116995760405162461bcd60e51b815260206004820152601960248201527f6d696e74696e67206d6f7265207468616e20616c6c6f77656400000000000000604482015260640161067b565b600480546040516315e3f14f60e11b81526001600160a01b03888116938201939093525f9290911690632bc7e29e90602401602060405180830381865afa1580156116e6573d5f803e3d5ffd5b505050506040513d601f19601f8201168201806040525081019061170a9190613d43565b9050801561176a575f61171c87612123565b90505f6117298284612f3b565b6001600160a01b0389165f9081526012602052604090205490915061174e9082612f06565b6001600160a01b0389165f908152601260205260409020555090505b5f611775828b612f06565b6004805460405163fd51a3ad60e01b81526001600160a01b038b81169382019390935260248101849052929350169063fd51a3ad906044016020604051808303815f875af11580156117c9573d5f803e3d5ffd5b505050506040513d601f19601f820116820180604052508101906117ed9190613d43565b975087156118355760405162461bcd60e51b815260206004820152601560248201527431b7b6b83a3937b63632b9103932b532b1ba34b7b760591b604482015260640161067b565b5f600a545f14611915575f61185d61184f8d600a54612f74565b670de0b6b3a7640000612fb5565b90506118698c82612f3b565b6009546040516340c10f1960e01b81526001600160a01b039182166004820152602481018490529193508916906340c10f19906044015f604051808303815f87803b1580156118b6575f80fd5b505af11580156118c8573d5f803e3d5ffd5b5050604080516001600160a01b038d168152602081018590527fb0715a6d41a37c1b0672c22c09a31a0642c1fb3f9efa2d5fd5c6d2d891ee78c6935001905060405180910390a150611918565b50895b6040516340c10f1960e01b81526001600160a01b038981166004830152602482018390528816906340c10f19906044015f604051808303815f87803b15801561195f575f80fd5b505af1158015611971573d5f803e3d5ffd5b5050600f546001600160a01b038b165f818152601160209081526040918290209390935580519182529181018590527e2e68ab1600fc5e7290e2ceaa79e2f86b4dbaca84a48421e167e0b40409218a935001905060405180910390a15f99505050505050505050505b600b805460ff19166001179055919050565b5f546001600160a01b03163314611a155760405162461bcd60e51b815260040161067b90613d00565b601654604080516001600160a01b03928316815291831660208301527fe45150fb0a88e2274ecbca05ddde9925dd64b6e126ae0fa23ee2d42e668a49d3910160405180910390a1601680546001600160a01b0319166001600160a01b0392909216919091179055565b5f611abd6040518060400160405280601b81526020017f746f67676c654f6e6c795072696d65486f6c6465724d696e7428290000000000815250612a51565b601554600160a01b900460ff16158015611ae057506015546001600160a01b0316155b15611aeb5750600290565b60155460408051600160a01b90920460ff16158015835260208301527f8efa7b6021d602e0cdef814b7435609ee40deb2a0352ca676d10045750516a5f910160405180910390a16015805460ff60a01b198116600160a01b9182900460ff16159091021790555f905090565b5f805f805f611b6587612123565b600480546040516315e3f14f60e11b81526001600160a01b038b8116938201939093529293505f92611be29285921690632bc7e29e90602401602060405180830381865afa158015611bb9573d5f803e3d5ffd5b505050506040513d601f19601f82011682018060405250810190611bdd9190613d43565b612d7c565b90935090505f836003811115611bfa57611bfa613dab565b14611c175760405162461bcd60e51b815260040161067b90613f66565b6001600160a01b0388165f90815260126020526040902054611c399082612d02565b90935090505f836003811115611c5157611c51613dab565b14611c6e5760405162461bcd60e51b815260040161067b90613f66565b6001600160a01b0388165f908152601260205260408120548290848a10611cd357611c998585612d7c565b90965092505f866003811115611cb157611cb1613dab565b14611cce5760405162461bcd60e51b815260040161067b90613f66565b611fe3565b5f611ce68b670de0b6b3a7640000612ca6565b90975090505f876003811115611cfe57611cfe613dab565b14611d4b5760405162461bcd60e51b815260206004820152601b60248201527f5641495f504152545f43414c43554c4154494f4e5f4641494c45440000000000604482015260640161067b565b611d558187612ce3565b90975090505f876003811115611d6d57611d6d613dab565b14611dba5760405162461bcd60e51b815260206004820152601b60248201527f5641495f504152545f43414c43554c4154494f4e5f4641494c45440000000000604482015260640161067b565b5f611dc58787612d7c565b90985090505f886003811115611ddd57611ddd613dab565b14611e365760405162461bcd60e51b8152602060048201526024808201527f5641495f4d494e5445445f414d4f554e545f43414c43554c4154494f4e5f46416044820152631253115160e21b606482015260840161067b565b611e408183612ca6565b90985094505f886003811115611e5857611e58613dab565b14611e755760405162461bcd60e51b815260040161067b90613f66565b611e8785670de0b6b3a7640000612ce3565b90985094505f886003811115611e9f57611e9f613dab565b14611ebc5760405162461bcd60e51b815260040161067b90613f66565b611ec68683612ca6565b90985093505f886003811115611ede57611ede613dab565b14611efb5760405162461bcd60e51b815260040161067b90613fa8565b611f0d84670de0b6b3a7640000612ce3565b90985093505f886003811115611f2557611f25613dab565b14611f425760405162461bcd60e51b815260040161067b90613fa8565b6001600160a01b038d165f90815260126020526040902054611f649083612ca6565b90985092505f886003811115611f7c57611f7c613dab565b14611f995760405162461bcd60e51b815260040161067b90613ff6565b611fab83670de0b6b3a7640000612ce3565b90985092505f886003811115611fc357611fc3613dab565b14611fe05760405162461bcd60e51b815260040161067b90613ff6565b50505b919750955093505050509250925092565b600b545f90819060ff1661201a5760405162461bcd60e51b815260040161067b90613d5a565b600b805460ff1916905561202e3384612afe565b91509150600b805460ff191660011790559092909150565b5f546001600160a01b0316331461206f5760405162461bcd60e51b815260040161067b90613d00565b61207881612a03565b600e80546001600160a01b038381166001600160a01b031983168117909355604080519190921680825260208201939093527f4df62dd7d9cc4f480a167c19c616ae5d5bb40db6d0c2bc66dba57068225f00d891016106e3565b5f806120dc61258b565b90505f806120ee836302819a00612ce3565b90925090505f82600381111561210657612106613dab565b146113e15760405162461bcd60e51b815260040161067b9061403a565b600480546040516315e3f14f60e11b81526001600160a01b03848116938201939093525f9283928392839290911690632bc7e29e90602401602060405180830381865afa158015612176573d5f803e3d5ffd5b505050506040513d601f19601f8201168201806040525081019061219a9190613d43565b6001600160a01b0386165f90815260126020526040812054919250806121c08484612d7c565b90965091505f8660038111156121d8576121d8613dab565b146121f55760405162461bcd60e51b815260040161067b9061407b565b612204600f54611bdd8a610938565b90965094505f86600381111561221c5761221c613dab565b146122395760405162461bcd60e51b815260040161067b9061407b565b6122438583612ca6565b90965090505f86600381111561225b5761225b613dab565b146122785760405162461bcd60e51b815260040161067b9061407b565b61228a81670de0b6b3a7640000612ce3565b90965090505f8660038111156122a2576122a2613dab565b146122bf5760405162461bcd60e51b815260040161067b9061407b565b6122c98482612d02565b90965093505f8660038111156122e1576122e1613dab565b146122fe5760405162461bcd60e51b815260040161067b9061407b565b50919695505050505050565b5f546001600160a01b031633146123335760405162461bcd60e51b815260040161067b90613d00565b600f54156123795760405162461bcd60e51b8152602060048201526013602482015272185b1c9958591e481a5b9a5d1a585b1a5e9959606a1b604482015260640161067b565b670de0b6b3a7640000600f55436010555f19601355600b805460ff19166001179055565b600b545f90819060ff166123c35760405162461bcd60e51b815260040161067b90613d5a565b600b805460ff191690556123d5612e59565b5f846001600160a01b031663a6afed956040518163ffffffff1660e01b81526004016020604051808303815f875af1158015612413573d5f803e3d5ffd5b505050506040513d601f19601f820116820180604052508101906124379190613d43565b905080156124665761245b81600681111561245457612454613dab565b6008612d9c565b5f9250925050612479565b6124733388888888612fe7565b92509250505b600b805460ff19166001179055909590945092505050565b5f806124ab61249e6120d2565b60105461113590436140d8565b90925090505f8260038111156124c3576124c3613dab565b146125105760405162461bcd60e51b815260206004820152601a60248201527f5641495f494e5445524553545f4143435255455f4641494c4544000000000000604482015260640161067b565b61251c81600f54612d02565b90925090505f82600381111561253457612534613dab565b146125815760405162461bcd60e51b815260206004820152601a60248201527f5641495f494e5445524553545f4143435255455f4641494c4544000000000000604482015260640161067b565b600f555043601055565b60048054604080516307dc0d1d60e41b815290515f9384936001600160a01b031692637dc0d1d092818301926020928290030181865afa1580156125d1573d5f803e3d5ffd5b505050506040513d601f19601f820116820180604052508101906125f59190613d28565b90505f80600c5411156127d457600d54156127ca575f826001600160a01b031663fc57d4df61262c6016546001600160a01b031690565b6040516001600160e01b031960e084901b1681526001600160a01b039091166004820152602401602060405180830381865afa15801561266e573d5f803e3d5ffd5b505050506040513d601f19601f820116820180604052508101906126929190613d43565b905080670de0b6b3a764000011156127bf575f806126b8670de0b6b3a764000084612d7c565b90945091505f8460038111156126d0576126d0613dab565b146126ed5760405162461bcd60e51b815260040161067b9061403a565b6126f982600d54612ca6565b90945091505f84600381111561271157612711613dab565b1461272e5760405162461bcd60e51b815260040161067b9061403a565b61274082670de0b6b3a7640000612ce3565b90945091505f84600381111561275857612758613dab565b146127755760405162461bcd60e51b815260040161067b9061403a565b61278182600c54612d02565b90945090505f84600381111561279957612799613dab565b146127b65760405162461bcd60e51b815260040161067b9061403a565b95945050505050565b600c54935050505090565b600c549250505090565b5f9250505090565b5f546001600160a01b031633146128055760405162461bcd60e51b815260040161067b90613d00565b601554604080516001600160a01b03928316815291831660208301527ffb26401242c61b503dd09c29da64a5d4f451549f574b882a40bcdc64ee68b83c910160405180910390a1601580546001600160a01b0319166001600160a01b0392909216919091179055565b5f80546001600160a01b031633148061289157506008546001600160a01b031633145b6128a8576128a160016017612d9c565b90506113e1565b670de0b6b3a764000082106128ff5760405162461bcd60e51b815260206004820152601d60248201527f74726561737572792070657263656e7420636170206f766572666c6f77000000604482015260640161067b565b6008805460098054600a80546001600160a01b03198086166001600160a01b038c81169182179098559084168a8816179094559087905560408051948616808652602086019490945292949091169290917f29f06ea15931797ebaed313d81d100963dc22cb213cb4ce2737b5a62b1a8b1e8910160405180910390a1604080516001600160a01b038085168252881660208201527f8de763046d7b8f08b6c3d03543de1d615309417842bb5d2d62f110f65809ddac910160405180910390a160408051828152602081018790527f0893f8f4101baaabbeb513f96761e7a36eb837403c82cc651c292a4abdc94ed7910160405180910390a1505f9695505050505050565b6001600160a01b0381166108d85760405162461bcd60e51b815260206004820152601560248201527463616e2774206265207a65726f206164647265737360581b604482015260640161067b565b6014546040516318c5e8ab60e01b81526001600160a01b03909116906318c5e8ab90612a839033908590600401614119565b602060405180830381865afa158015612a9e573d5f803e3d5ffd5b505050506040513d601f19601f82011682018060405250810190612ac29190613d92565b6108d85760405162461bcd60e51b815260206004820152600d60248201526c1858d8d95cdcc819195b9a5959609a1b604482015260640161067b565b6004545f9081906001600160a01b0316612b1c57505f905080612b45565b612b2583612e13565b612b2d612e59565b612b35612491565b612b4033858561356c565b915091505b9250929050565b5f612b6260405180602001604052805f81525090565b5f80612b74865f0151865f0151612ca6565b90925090505f826003811115612b8c57612b8c613dab565b14612baa575060408051602081019091525f81529092509050612b45565b5f80612bc8612bc26002670de0b6b3a764000061413c565b84612d02565b90925090505f826003811115612be057612be0613dab565b14612c02578160405180602001604052805f8152509550955050505050612b45565b5f80612c1683670de0b6b3a7640000612ce3565b90925090505f826003811115612c2e57612c2e613dab565b14612c3b57612c3b61415b565b60408051602081019091529081525f9a909950975050505050505050565b5f805f80612c6786866138b2565b90925090505f826003811115612c7f57612c7f613dab565b14612c8f575091505f9050612b45565b5f612c9982613927565b9350935050509250929050565b5f80835f03612cb957505f905080612b45565b83830283612cc7868361413c565b14612cd95760025f9250925050612b45565b5f92509050612b45565b5f80825f03612cf75750600190505f612b45565b5f612b40848661413c565b5f80838301848110612d18575f92509050612b45565b60025f9250925050612b45565b5f805f80612d3387876138b2565b90925090505f826003811115612d4b57612d4b613dab565b14612d5b575091505f9050612d74565b612d6d612d6782613927565b86612d02565b9350935050505b935093915050565b5f80838311612d9157505f9050818303612b45565b50600390505f612b45565b5f7f45b96fe442630264581b197e84bbada861235052c5a1aadfff9ea4e40a969aa0836006811115612dd057612dd0613dab565b836017811115612de257612de2613dab565b6040805192835260208301919091525f9082015260600160405180910390a18260068111156113e1576113e1613dab565b5f81116108d85760405162461bcd60e51b8152602060048201526014602482015273616d6f756e742063616e2774206265207a65726f60601b604482015260640161067b565b600480546040805163084bf5ab60e31b815290516001600160a01b039092169263425fad589282820192602092908290030181865afa158015612e9e573d5f803e3d5ffd5b505050506040513d601f19601f82011682018060405250810190612ec29190613d92565b15612f045760405162461bcd60e51b81526020600482015260126024820152711c1c9bdd1bd8dbdb081a5cc81c185d5cd95960721b604482015260640161067b565b565b5f6113e18383604051806040016040528060118152602001706164646974696f6e206f766572666c6f7760781b81525061393e565b5f6113e18383604051806040016040528060158152602001747375627472616374696f6e20756e646572666c6f7760581b815250613977565b5f6113e183836040518060400160405280601781526020017f6d756c7469706c69636174696f6e206f766572666c6f770000000000000000008152506139ad565b5f6113e183836040518060400160405280600e81526020016d646976696465206279207a65726f60901b8152506139fd565b6004545f9081906001600160a01b03161561356257613004612491565b60048054604080516314ecd65360e01b815230938101939093526001600160a01b0387811660248501528a81166044850152898116606485015260848401899052865160a4850152602087015160c48501529086015160e48401526060860151610104840152608086015161012484015260a086015161014484015260c086015161016484015260e08601516101848401525f929116906314ecd653906101a4016020604051808303815f875af11580156130c1573d5f803e3d5ffd5b505050506040513d601f19601f820116820180604052508101906130e59190613d43565b90508015613105576130fa6002600a83613a28565b5f9250925050613562565b43856001600160a01b0316636c540baf6040518163ffffffff1660e01b8152600401602060405180830381865afa158015613142573d5f803e3d5ffd5b505050506040513d601f19601f820116820180604052508101906131669190613d43565b14613177576130fa60026009612d9c565b876001600160a01b0316876001600160a01b03160361319c576130fa6002600f612d9c565b855f036131af576130fa6002600d612d9c565b5f1986036131c3576130fa6002600c612d9c565b5f806131d08a8a8a61356c565b90925090508115613204576131f78260068111156131f0576131f0613dab565b6010612d9c565b5f94509450505050613562565b6004805460e08801516040516373f6888f60e11b81526001600160a01b038b8116948201949094526024810185905260448101919091525f929091169063e7ed111e906064016040805180830381865afa158015613264573d5f803e3d5ffd5b505050506040513d601f19601f82011682018060405250810190613288919061416f565b909350905082156133015760405162461bcd60e51b815260206004820152603760248201527f5641495f4c49515549444154455f434f4d5054524f4c4c45525f43414c43554c60448201527f4154455f414d4f554e545f5345495a455f4641494c4544000000000000000000606482015260840161067b565b6040516370a0823160e01b81526001600160a01b038b811660048301528291908a16906370a0823190602401602060405180830381865afa158015613348573d5f803e3d5ffd5b505050506040513d601f19601f8201168201806040525081019061336c9190613d43565b10156133ba5760405162461bcd60e51b815260206004820152601c60248201527f5641495f4c49515549444154455f5345495a455f544f4f5f4d55434800000000604482015260640161067b565b60405163b2a02ff160e01b81526001600160a01b038c811660048301528b811660248301526044820183905289169063b2a02ff1906064016020604051808303815f875af115801561340e573d5f803e3d5ffd5b505050506040513d601f19601f820116820180604052508101906134329190613d43565b925082156134795760405162461bcd60e51b81526020600482015260146024820152731d1bdad95b881cd95a5e9d5c994819985a5b195960621b604482015260640161067b565b604080516001600160a01b038d811682528c811660208301528183018590528a1660608201526080810183905290517f42d401f96718a0c42e5cea8108973f0022677b7e2e5f4ee19851b2de7a0394e79181900360a00190a1600480546040516347ef3b3b60e01b815230928101929092526001600160a01b038a811660248401528d811660448401528c811660648401526084830185905260a4830184905216906347ef3b3b9060c4015f604051808303815f87803b15801561353b575f80fd5b505af115801561354d573d5f803e3d5ffd5b505f9250613559915050565b95509093505050505b9550959350505050565b5f805f805f61357b8787611b57565b601654604051632770a7eb60e21b81526001600160a01b038d811660048301526024820186905294975092955090935091909116908190639dc29fac906044015f604051808303815f87803b1580156135d2575f80fd5b505af11580156135e4573d5f803e3d5ffd5b5050600e546040516323b872dd60e01b81526001600160a01b038d811660048301529182166024820152604481018790525f935090841691506323b872dd906064016020604051808303815f875af1158015613642573d5f803e3d5ffd5b505050506040513d601f19601f820116820180604052508101906136669190613d92565b90506001811515146136ba5760405162461bcd60e51b815260206004820152601a60248201527f6661696c656420746f207472616e736665722056414920666565000000000000604482015260640161067b565b600480546040516315e3f14f60e11b81526001600160a01b038c8116938201939093525f9290911690632bc7e29e90602401602060405180830381865afa158015613707573d5f803e3d5ffd5b505050506040513d601f19601f8201168201806040525081019061372b9190613d43565b90505f61374161373b8389612f3b565b86612f3b565b6001600160a01b038c165f908152601260205260409020549091506137669086612f3b565b6001600160a01b03808d165f818152601260205260408082209490945560048054945163fd51a3ad60e01b81529081019290925260248201859052929091169063fd51a3ad906044016020604051808303815f875af11580156137cb573d5f803e3d5ffd5b505050506040513d601f19601f820116820180604052508101906137ef9190613d43565b905080156138375760405162461bcd60e51b815260206004820152601560248201527431b7b6b83a3937b63632b9103932b532b1ba34b7b760591b604482015260640161067b565b5f6138428989612f06565b90507f1db858e6f7e1a0d5e92c10c6507d42b3dabfe0a4867fe90c5a14d9963662ef7e8e8e83604051613896939291906001600160a01b039384168152919092166020820152604081019190915260600190565b60405180910390a15f9e909d509b505050505050505050505050565b5f6138c860405180602001604052805f81525090565b5f806138d7865f015186612ca6565b90925090505f8260038111156138ef576138ef613dab565b1461390d575060408051602081019091525f81529092509050612b45565b60408051602081019091529081525f969095509350505050565b80515f9061096790670de0b6b3a76400009061413c565b5f8061394a8486614191565b9050828582101561396e5760405162461bcd60e51b815260040161067b91906141a4565b50949350505050565b5f818484111561399a5760405162461bcd60e51b815260040161067b91906141a4565b506139a583856140d8565b949350505050565b5f8315806139b9575082155b156139c557505f6113e1565b5f6139d084866141b6565b9050836139dd868361413c565b14839061396e5760405162461bcd60e51b815260040161067b91906141a4565b5f8183613a1d5760405162461bcd60e51b815260040161067b91906141a4565b506139a5838561413c565b5f7f45b96fe442630264581b197e84bbada861235052c5a1aadfff9ea4e40a969aa0846006811115613a5c57613a5c613dab565b846017811115613a6e57613a6e613dab565b604080519283526020830191909152810184905260600160405180910390a18360068111156139a5576139a5613dab565b6040805161018081019091525f808252602082019081526020015f81526020015f81526020015f81526020015f81526020015f81526020015f81526020015f8152602001613af860405180602001604052805f81525090565b8152602001613b1260405180602001604052805f81525090565b8152602001613b2c60405180602001604052805f81525090565b905290565b6001600160a01b03811681146108d8575f80fd5b5f60208284031215613b55575f80fd5b81356113e181613b31565b5f60208284031215613b70575f80fd5b5035919050565b5f8060408385031215613b88575f80fd5b8235613b9381613b31565b946020939093013593505050565b634e487b7160e01b5f52604160045260245ffd5b604051610100810167ffffffffffffffff81118282101715613bd957613bd9613ba1565b60405290565b604051601f8201601f1916810167ffffffffffffffff81118282101715613c0857613c08613ba1565b604052919050565b5f805f80848603610160811215613c25575f80fd5b8535613c3081613b31565b9450602086013593506040860135613c4781613b31565b9250610100605f198201811315613c5c575f80fd5b613c64613bb5565b9150606087013582526080870135602083015260a0870135604083015260c0870135606083015260e087013560808301528087013560a08301525061012086013560c082015261014086013560e08201528091505092959194509250565b5f805f60608486031215613cd4575f80fd5b8335613cdf81613b31565b92506020840135613cef81613b31565b929592945050506040919091013590565b6020808252600e908201526d37b7363c9030b236b4b71031b0b760911b604082015260600190565b5f60208284031215613d38575f80fd5b81516113e181613b31565b5f60208284031215613d53575f80fd5b5051919050565b6020808252600a90820152691c994b595b9d195c995960b21b604082015260600190565b80518015158114613d8d575f80fd5b919050565b5f60208284031215613da2575f80fd5b6113e182613d7e565b634e487b7160e01b5f52602160045260245ffd5b5f6020808385031215613dd0575f80fd5b825167ffffffffffffffff80821115613de7575f80fd5b818501915085601f830112613dfa575f80fd5b815181811115613e0c57613e0c613ba1565b8060051b9150613e1d848301613bdf565b8181529183018401918481019088841115613e36575f80fd5b938501935b83851015613e605784519250613e5083613b31565b8282529385019390850190613e3b565b98975050505050505050565b634e487b7160e01b5f52603260045260245ffd5b5f805f8060808587031215613e93575f80fd5b505082516020840151604085015160609095015191969095509092509050565b5f805f805f60a08688031215613ec7575f80fd5b613ed086613d7e565b945060208601519350613ee560408701613d7e565b6060870151608090970151959894975095949392505050565b60208082526022908201527f5641495f4d494e545f414d4f554e545f43414c43554c4154494f4e5f4641494c604082015261115160f21b606082015260800190565b5f60208284031215613f50575f80fd5b81516001600160601b03811681146113e1575f80fd5b60208082526022908201527f5641495f4255524e5f414d4f554e545f43414c43554c4154494f4e5f4641494c604082015261115160f21b606082015260800190565b6020808252602e908201527f5641495f43555252454e545f494e5445524553545f414d4f554e545f43414c4360408201526d155310551253d397d1905253115160921b606082015260800190565b60208082526024908201527f5641495f504153545f494e5445524553545f43414c43554c4154494f4e5f46416040820152631253115160e21b606082015260800190565b60208082526021908201527f5641495f52455041595f524154455f43414c43554c4154494f4e5f4641494c456040820152601160fa1b606082015260800190565b60208082526029908201527f5641495f544f54414c5f52455041595f414d4f554e545f43414c43554c41544960408201526813d397d1905253115160ba1b606082015260800190565b634e487b7160e01b5f52601160045260245ffd5b81810381811115610967576109676140c4565b5f81518084528060208401602086015e5f602082860101526020601f19601f83011685010191505092915050565b6001600160a01b03831681526040602082018190525f906139a5908301846140eb565b5f8261415657634e487b7160e01b5f52601260045260245ffd5b500490565b634e487b7160e01b5f52600160045260245ffd5b5f8060408385031215614180575f80fd5b505080516020909101519092909150565b80820180821115610967576109676140c4565b602081525f6113e160208301846140eb565b8082028115828204841417610967576109676140c456fea2646970667358221220e93da1cc744e125dc52bb88242ea4fcb7b11bd3d1e7a9ca912bf0e56af02a29464736f6c63430008190033",
  "devdoc": {
    "author": "Venus",
    "events": {
      "Failure(uint256,uint256,uint256)": {
        "details": "`error` corresponds to enum Error; `info` corresponds to enum FailureInfo, and `detail` is an arbitrary contract-specific code that enables us to report opaque error codes from upgradeable contracts.*"
      }
    },
    "kind": "dev",
    "methods": {
      "_setComptroller(address)": {
        "details": "Admin function to set a new comptroller",
        "returns": {
          "_0": "uint256 0=success, otherwise a failure (see ErrorReporter.sol for details)"
        }
      },
      "_setTreasuryData(address,address,uint256)": {
        "params": {
          "newTreasuryAddress": "New Treasury Address",
          "newTreasuryGuardian": "New Treasury Guardian address",
          "newTreasuryPercent": "New fee percentage for minting VAI that is sent to the treasury"
        }
      },
      "getMintableVAI(address)": {
        "params": {
          "minter": "The account to check mintable VAI"
        },
        "returns": {
          "_0": "Error code (0=success, otherwise a failure, see ErrorReporter.sol for details)",
          "_1": "Mintable amount (with 18 decimals)"
        }
      },
      "getVAIAddress()": {
        "returns": {
          "_0": "The address of VAI"
        }
      },
      "getVAICalculateRepayAmount(address,uint256)": {
        "params": {
          "borrower": "The address of the VAI borrower",
          "repayAmount": "The amount of VAI being returned"
        },
        "returns": {
          "_0": "Amount of VAI to be burned",
          "_1": "Amount of VAI the user needs to pay in current interest",
          "_2": "Amount of VAI the user needs to pay in past interest"
        }
      },
      "getVAIMinterInterestIndex(address)": {
        "params": {
          "minter": "Address of VAI minter"
        },
        "returns": {
          "_0": "uint256 Returns the interest rate index for a minter"
        }
      },
      "getVAIRepayAmount(address)": {
        "params": {
          "account": "The address of the VAI borrower"
        },
        "returns": {
          "_0": "(uint256) The total amount of VAI the user needs to repay"
        }
      },
      "getVAIRepayRate()": {
        "returns": {
          "_0": "uint256 Yearly VAI interest rate"
        }
      },
      "getVAIRepayRatePerBlock()": {
        "returns": {
          "_0": "uint256 Interest rate per bock"
        }
      },
      "liquidateVAI(address,uint256,address,(uint256,uint256,uint256,uint256,uint256,uint256,uint256,uint256))": {
        "params": {
          "borrower": "The borrower of vai to be liquidated",
          "repayAmount": "The amount of the underlying borrowed asset to repay",
          "snapshot": "The account snapshot of the borrower",
          "vTokenCollateral": "The market in which to seize collateral from the borrower"
        },
        "returns": {
          "_0": "Error code (0=success, otherwise a failure, see ErrorReporter.sol)",
          "_1": "Actual repayment amount"
        }
      },
      "mintVAI(uint256)": {
        "details": "If the Comptroller address is not set, minting is a no-op and the function returns the success code.",
        "params": {
          "mintVAIAmount": "The amount of the VAI to be minted."
        },
        "returns": {
          "_0": "0 on success, otherwise an error code"
        }
      },
      "repayVAI(uint256)": {
        "details": "If the Comptroller address is not set, repayment is a no-op and the function returns the success code.",
        "params": {
          "amount": "The amount of VAI to be repaid."
        },
        "returns": {
          "_0": "Error code (0=success, otherwise a failure, see ErrorReporter.sol)",
          "_1": "Actual repayment amount"
        }
      },
      "repayVAIBehalf(address,uint256)": {
        "details": "If the Comptroller address is not set, repayment is a no-op and the function returns the success code.",
        "params": {
          "amount": "The amount of VAI to be repaid.",
          "borrower": "The account to repay the debt for."
        },
        "returns": {
          "_0": "Error code (0=success, otherwise a failure, see ErrorReporter.sol)",
          "_1": "Actual repayment amount"
        }
      },
      "setAccessControl(address)": {
        "details": "Admin function to set the access control address",
        "params": {
          "newAccessControlAddress": "New address for the access control"
        }
      },
      "setBaseRate(uint256)": {
        "params": {
          "newBaseRateMantissa": "the base rate multiplied by 10**18"
        }
      },
      "setFloatRate(uint256)": {
        "params": {
          "newFloatRateMantissa": "the VAI float rate multiplied by 10**18"
        }
      },
      "setMintCap(uint256)": {
        "params": {
          "_mintCap": "the amount of VAI that can be minted"
        }
      },
      "setPrimeToken(address)": {
        "params": {
          "prime_": "The new address of the prime token contract"
        }
      },
      "setReceiver(address)": {
        "params": {
          "newReceiver": "the address of the VAI fee receiver"
        }
      },
      "setVAIToken(address)": {
        "params": {
          "vai_": "The new address of the VAI token contract"
        }
      },
      "toggleOnlyPrimeHolderMint()": {
        "returns": {
          "_0": "uint256 0=success, otherwise a failure (see ErrorReporter.sol for details)"
        }
      }
    },
    "title": "VAI Comptroller",
    "version": 1
  },
  "userdoc": {
    "events": {
      "LiquidateVAI(address,address,uint256,address,uint256)": {
        "notice": "Event emitted when a borrow is liquidated"
      },
      "MintFee(address,uint256)": {
        "notice": "Event emitted when VAIs are minted and fee are transferred"
      },
      "MintOnlyForPrimeHolder(bool,bool)": {
        "notice": "Emitted when mint for prime holder is changed"
      },
      "MintVAI(address,uint256)": {
        "notice": "Event emitted when VAI is minted"
      },
      "NewAccessControl(address,address)": {
        "notice": "Emitted when access control address is changed by admin"
      },
      "NewComptroller(address,address)": {
        "notice": "Emitted when Comptroller is changed"
      },
      "NewPrime(address,address)": {
        "notice": "Emitted when Prime is changed"
      },
      "NewTreasuryAddress(address,address)": {
        "notice": "Emitted when treasury address is changed"
      },
      "NewTreasuryGuardian(address,address)": {
        "notice": "Emitted when treasury guardian is changed"
      },
      "NewTreasuryPercent(uint256,uint256)": {
        "notice": "Emitted when treasury percent is changed"
      },
      "NewVAIBaseRate(uint256,uint256)": {
        "notice": "Emiitted when VAI base rate is changed"
      },
      "NewVAIFloatRate(uint256,uint256)": {
        "notice": "Emiitted when VAI float rate is changed"
      },
      "NewVAIMintCap(uint256,uint256)": {
        "notice": "Emiitted when VAI mint cap is changed"
      },
      "NewVAIReceiver(address,address)": {
        "notice": "Emiitted when VAI receiver address is changed"
      },
      "NewVaiToken(address,address)": {
        "notice": "Emitted when VAI token address is changed by admin"
      },
      "RepayVAI(address,address,uint256)": {
        "notice": "Event emitted when VAI is repaid"
      }
    },
    "kind": "user",
    "methods": {
      "CORE_POOL_ID()": {
        "notice": "poolId for core Pool"
      },
      "INITIAL_VAI_MINT_INDEX()": {
        "notice": "Initial index used in interest computations"
      },
      "_setComptroller(address)": {
        "notice": "Sets a new comptroller"
      },
      "_setTreasuryData(address,address,uint256)": {
        "notice": "Update treasury data"
      },
      "accessControl()": {
        "notice": "Access control manager address"
      },
      "accrueVAIInterest()": {
        "notice": "Accrue interest on outstanding minted VAI"
      },
      "admin()": {
        "notice": "Administrator for this contract"
      },
      "baseRateMantissa()": {
        "notice": "The base rate for stability fee"
      },
      "floatRateMantissa()": {
        "notice": "The float rate for stability fee"
      },
      "getMintableVAI(address)": {
        "notice": "Function that returns the amount of VAI a user can mint based on their account liquidy and the VAI mint rate If mintEnabledOnlyForPrimeHolder is true, only Prime holders are able to mint VAI"
      },
      "getVAIAddress()": {
        "notice": "Return the address of the VAI token"
      },
      "getVAICalculateRepayAmount(address,uint256)": {
        "notice": "Calculate how much VAI the user needs to repay"
      },
      "getVAIMinterInterestIndex(address)": {
        "notice": "Get the last updated interest index for a VAI Minter"
      },
      "getVAIRepayAmount(address)": {
        "notice": "Get the current total VAI a user needs to repay"
      },
      "getVAIRepayRate()": {
        "notice": "Gets yearly VAI interest rate based on the VAI price"
      },
      "getVAIRepayRatePerBlock()": {
        "notice": "Get interest rate per block"
      },
      "isVenusVAIInitialized()": {
        "notice": "The Venus VAI state initialized"
      },
      "liquidateVAI(address,uint256,address,(uint256,uint256,uint256,uint256,uint256,uint256,uint256,uint256))": {
        "notice": "The sender liquidates the vai minters collateral. The collateral seized is transferred to the liquidator."
      },
      "mintCap()": {
        "notice": "VAI mint cap"
      },
      "mintEnabledOnlyForPrimeHolder()": {
        "notice": "Tracks if minting is enabled only for prime token holders. Only used if prime is set"
      },
      "mintVAI(uint256)": {
        "notice": "The mintVAI function mints and transfers VAI from the protocol to the user, and adds a borrow balance. The amount minted must be less than the user's Account Liquidity and the mint vai limit."
      },
      "pastVAIInterest(address)": {
        "notice": "Tracks the amount of mintedVAI of a user that represents the accrued interest"
      },
      "pendingAdmin()": {
        "notice": "Pending administrator for this contract"
      },
      "pendingVAIControllerImplementation()": {
        "notice": "Pending brains of Unitroller"
      },
      "prime()": {
        "notice": "The address of the prime contract. It can be a ZERO address"
      },
      "receiver()": {
        "notice": "The address for VAI interest receiver"
      },
      "repayVAI(uint256)": {
        "notice": "The repay function transfers VAI interest into the protocol and burns the rest, reducing the borrower's borrow balance. Before repaying VAI, users must first approve VAIController to access their VAI balance."
      },
      "repayVAIBehalf(address,uint256)": {
        "notice": "The repay on behalf function transfers VAI interest into the protocol and burns the rest, reducing the borrower's borrow balance. Borrowed VAIs are repaid by another user (possibly the borrower). Before repaying VAI, the payer must first approve VAIController to access their VAI balance."
      },
      "setAccessControl(address)": {
        "notice": "Sets the address of the access control of this contract"
      },
      "setBaseRate(uint256)": {
        "notice": "Set VAI borrow base rate"
      },
      "setFloatRate(uint256)": {
        "notice": "Set VAI borrow float rate"
      },
      "setMintCap(uint256)": {
        "notice": "Set VAI mint cap"
      },
      "setPrimeToken(address)": {
        "notice": "Set the prime token contract address"
      },
      "setReceiver(address)": {
        "notice": "Set VAI stability fee receiver address"
      },
      "setVAIToken(address)": {
        "notice": "Set the VAI token contract address"
      },
      "toggleOnlyPrimeHolderMint()": {
        "notice": "Toggle mint only for prime holder"
      },
      "treasuryAddress()": {
        "notice": "Treasury address"
      },
      "treasuryGuardian()": {
        "notice": "Treasury Guardian address"
      },
      "treasuryPercent()": {
        "notice": "Fee percent of accrued interest with decimal 18"
      },
      "vaiControllerImplementation()": {
        "notice": "Active brains of Unitroller"
      },
      "vaiMintIndex()": {
        "notice": "Accumulator of the total earned interest rate since the opening of the market. For example: 0.6 (60%)"
      },
      "venusVAIMinterIndex(address)": {
        "notice": "The Venus VAI minter index as of the last time they accrued XVS"
      },
      "venusVAIState()": {
        "notice": "The Venus VAI state"
      }
    },
    "notice": "This is the implementation contract for the VAIUnitroller proxy",
    "version": 1
  },
  "storageLayout": {
    "storage": [
      {
        "astId": 26096,
        "contract": "contracts/Tokens/VAI/VAIController.sol:VAIController",
        "label": "admin",
        "offset": 0,
        "slot": "0",
        "type": "t_address"
      },
      {
        "astId": 26099,
        "contract": "contracts/Tokens/VAI/VAIController.sol:VAIController",
        "label": "pendingAdmin",
        "offset": 0,
        "slot": "1",
        "type": "t_address"
      },
      {
        "astId": 26102,
        "contract": "contracts/Tokens/VAI/VAIController.sol:VAIController",
        "label": "vaiControllerImplementation",
        "offset": 0,
        "slot": "2",
        "type": "t_address"
      },
      {
        "astId": 26105,
        "contract": "contracts/Tokens/VAI/VAIController.sol:VAIController",
        "label": "pendingVAIControllerImplementation",
        "offset": 0,
        "slot": "3",
        "type": "t_address"
      },
      {
        "astId": 26111,
        "contract": "contracts/Tokens/VAI/VAIController.sol:VAIController",
        "label": "comptroller",
        "offset": 0,
        "slot": "4",
        "type": "t_contract(ComptrollerInterface)4515"
      },
      {
        "astId": 26122,
        "contract": "contracts/Tokens/VAI/VAIController.sol:VAIController",
        "label": "venusVAIState",
        "offset": 0,
        "slot": "5",
        "type": "t_struct(VenusVAIState)26118_storage"
      },
      {
        "astId": 26125,
        "contract": "contracts/Tokens/VAI/VAIController.sol:VAIController",
        "label": "isVenusVAIInitialized",
        "offset": 0,
        "slot": "6",
        "type": "t_bool"
      },
      {
        "astId": 26130,
        "contract": "contracts/Tokens/VAI/VAIController.sol:VAIController",
        "label": "venusVAIMinterIndex",
        "offset": 0,
        "slot": "7",
        "type": "t_mapping(t_address,t_uint256)"
      },
      {
        "astId": 26136,
        "contract": "contracts/Tokens/VAI/VAIController.sol:VAIController",
        "label": "treasuryGuardian",
        "offset": 0,
        "slot": "8",
        "type": "t_address"
      },
      {
        "astId": 26139,
        "contract": "contracts/Tokens/VAI/VAIController.sol:VAIController",
        "label": "treasuryAddress",
        "offset": 0,
        "slot": "9",
        "type": "t_address"
      },
      {
        "astId": 26142,
        "contract": "contracts/Tokens/VAI/VAIController.sol:VAIController",
        "label": "treasuryPercent",
        "offset": 0,
        "slot": "10",
        "type": "t_uint256"
      },
      {
        "astId": 26145,
        "contract": "contracts/Tokens/VAI/VAIController.sol:VAIController",
        "label": "_notEntered",
        "offset": 0,
        "slot": "11",
        "type": "t_bool"
      },
      {
        "astId": 26148,
        "contract": "contracts/Tokens/VAI/VAIController.sol:VAIController",
        "label": "baseRateMantissa",
        "offset": 0,
        "slot": "12",
        "type": "t_uint256"
      },
      {
        "astId": 26151,
        "contract": "contracts/Tokens/VAI/VAIController.sol:VAIController",
        "label": "floatRateMantissa",
        "offset": 0,
        "slot": "13",
        "type": "t_uint256"
      },
      {
        "astId": 26154,
        "contract": "contracts/Tokens/VAI/VAIController.sol:VAIController",
        "label": "receiver",
        "offset": 0,
        "slot": "14",
        "type": "t_address"
      },
      {
        "astId": 26157,
        "contract": "contracts/Tokens/VAI/VAIController.sol:VAIController",
        "label": "vaiMintIndex",
        "offset": 0,
        "slot": "15",
        "type": "t_uint256"
      },
      {
        "astId": 26160,
        "contract": "contracts/Tokens/VAI/VAIController.sol:VAIController",
        "label": "accrualBlockNumber",
        "offset": 0,
        "slot": "16",
        "type": "t_uint256"
      },
      {
        "astId": 26165,
        "contract": "contracts/Tokens/VAI/VAIController.sol:VAIController",
        "label": "vaiMinterInterestIndex",
        "offset": 0,
        "slot": "17",
        "type": "t_mapping(t_address,t_uint256)"
      },
      {
        "astId": 26170,
        "contract": "contracts/Tokens/VAI/VAIController.sol:VAIController",
        "label": "pastVAIInterest",
        "offset": 0,
        "slot": "18",
        "type": "t_mapping(t_address,t_uint256)"
      },
      {
        "astId": 26173,
        "contract": "contracts/Tokens/VAI/VAIController.sol:VAIController",
        "label": "mintCap",
        "offset": 0,
        "slot": "19",
        "type": "t_uint256"
      },
      {
        "astId": 26176,
        "contract": "contracts/Tokens/VAI/VAIController.sol:VAIController",
        "label": "accessControl",
        "offset": 0,
        "slot": "20",
        "type": "t_address"
      },
      {
        "astId": 26182,
        "contract": "contracts/Tokens/VAI/VAIController.sol:VAIController",
        "label": "prime",
        "offset": 0,
        "slot": "21",
        "type": "t_address"
      },
      {
        "astId": 26185,
        "contract": "contracts/Tokens/VAI/VAIController.sol:VAIController",
        "label": "mintEnabledOnlyForPrimeHolder",
        "offset": 20,
        "slot": "21",
        "type": "t_bool"
      },
      {
        "astId": 26191,
        "contract": "contracts/Tokens/VAI/VAIController.sol:VAIController",
        "label": "vai",
        "offset": 0,
        "slot": "22",
        "type": "t_address"
      }
    ],
    "types": {
      "t_address": {
        "encoding": "inplace",
        "label": "address",
        "numberOfBytes": "20"
      },
      "t_bool": {
        "encoding": "inplace",
        "label": "bool",
        "numberOfBytes": "1"
      },
      "t_contract(ComptrollerInterface)4515": {
        "encoding": "inplace",
        "label": "contract ComptrollerInterface",
        "numberOfBytes": "20"
      },
      "t_mapping(t_address,t_uint256)": {
        "encoding": "mapping",
        "key": "t_address",
        "label": "mapping(address => uint256)",
        "numberOfBytes": "32",
        "value": "t_uint256"
      },
      "t_struct(VenusVAIState)26118_storage": {
        "encoding": "inplace",
        "label": "struct VAIControllerStorageG1.VenusVAIState",
        "members": [
          {
            "astId": 26114,
            "contract": "contracts/Tokens/VAI/VAIController.sol:VAIController",
            "label": "index",
            "offset": 0,
            "slot": "0",
            "type": "t_uint224"
          },
          {
            "astId": 26117,
            "contract": "contracts/Tokens/VAI/VAIController.sol:VAIController",
            "label": "block",
            "offset": 28,
            "slot": "0",
            "type": "t_uint32"
          }
        ],
        "numberOfBytes": "32"
      },
      "t_uint224": {
        "encoding": "inplace",
        "label": "uint224",
        "numberOfBytes": "28"
      },
      "t_uint256": {
        "encoding": "inplace",
        "label": "uint256",
        "numberOfBytes": "32"
      },
      "t_uint32": {
        "encoding": "inplace",
        "label": "uint32",
        "numberOfBytes": "4"
      }
    }
  }
}