{
  "address": "0xA8122Fe0F9db39E266DE7A5BF953Cd72a87fe345",
  "abi": [
    {
      "anonymous": false,
      "inputs": [
        {
          "indexed": false,
          "internalType": "uint256",
          "name": "error",
          "type": "uint256"
        },
        {
          "indexed": false,
          "internalType": "uint256",
          "name": "info",
          "type": "uint256"
        },
        {
          "indexed": false,
          "internalType": "uint256",
          "name": "detail",
          "type": "uint256"
        }
      ],
      "name": "Failure",
      "type": "event"
    },
    {
      "anonymous": false,
      "inputs": [
        {
          "indexed": false,
          "internalType": "address",
          "name": "liquidator",
          "type": "address"
        },
        {
          "indexed": false,
          "internalType": "address",
          "name": "borrower",
          "type": "address"
        },
        {
          "indexed": false,
          "internalType": "uint256",
          "name": "repayAmount",
          "type": "uint256"
        },
        {
          "indexed": false,
          "internalType": "address",
          "name": "vTokenCollateral",
          "type": "address"
        },
        {
          "indexed": false,
          "internalType": "uint256",
          "name": "seizeTokens",
          "type": "uint256"
        }
      ],
      "name": "LiquidateVAI",
      "type": "event"
    },
    {
      "anonymous": false,
      "inputs": [
        {
          "indexed": false,
          "internalType": "address",
          "name": "minter",
          "type": "address"
        },
        {
          "indexed": false,
          "internalType": "uint256",
          "name": "feeAmount",
          "type": "uint256"
        }
      ],
      "name": "MintFee",
      "type": "event"
    },
    {
      "anonymous": false,
      "inputs": [
        {
          "indexed": false,
          "internalType": "bool",
          "name": "previousMintEnabledOnlyForPrimeHolder",
          "type": "bool"
        },
        {
          "indexed": false,
          "internalType": "bool",
          "name": "newMintEnabledOnlyForPrimeHolder",
          "type": "bool"
        }
      ],
      "name": "MintOnlyForPrimeHolder",
      "type": "event"
    },
    {
      "anonymous": false,
      "inputs": [
        {
          "indexed": false,
          "internalType": "address",
          "name": "minter",
          "type": "address"
        },
        {
          "indexed": false,
          "internalType": "uint256",
          "name": "mintVAIAmount",
          "type": "uint256"
        }
      ],
      "name": "MintVAI",
      "type": "event"
    },
    {
      "anonymous": false,
      "inputs": [
        {
          "indexed": false,
          "internalType": "address",
          "name": "oldAccessControlAddress",
          "type": "address"
        },
        {
          "indexed": false,
          "internalType": "address",
          "name": "newAccessControlAddress",
          "type": "address"
        }
      ],
      "name": "NewAccessControl",
      "type": "event"
    },
    {
      "anonymous": false,
      "inputs": [
        {
          "indexed": false,
          "internalType": "contract ComptrollerInterface",
          "name": "oldComptroller",
          "type": "address"
        },
        {
          "indexed": false,
          "internalType": "contract ComptrollerInterface",
          "name": "newComptroller",
          "type": "address"
        }
      ],
      "name": "NewComptroller",
      "type": "event"
    },
    {
      "anonymous": false,
      "inputs": [
        {
          "indexed": false,
          "internalType": "address",
          "name": "oldPrime",
          "type": "address"
        },
        {
          "indexed": false,
          "internalType": "address",
          "name": "newPrime",
          "type": "address"
        }
      ],
      "name": "NewPrime",
      "type": "event"
    },
    {
      "anonymous": false,
      "inputs": [
        {
          "indexed": false,
          "internalType": "address",
          "name": "oldTreasuryAddress",
          "type": "address"
        },
        {
          "indexed": false,
          "internalType": "address",
          "name": "newTreasuryAddress",
          "type": "address"
        }
      ],
      "name": "NewTreasuryAddress",
      "type": "event"
    },
    {
      "anonymous": false,
      "inputs": [
        {
          "indexed": false,
          "internalType": "address",
          "name": "oldTreasuryGuardian",
          "type": "address"
        },
        {
          "indexed": false,
          "internalType": "address",
          "name": "newTreasuryGuardian",
          "type": "address"
        }
      ],
      "name": "NewTreasuryGuardian",
      "type": "event"
    },
    {
      "anonymous": false,
      "inputs": [
        {
          "indexed": false,
          "internalType": "uint256",
          "name": "oldTreasuryPercent",
          "type": "uint256"
        },
        {
          "indexed": false,
          "internalType": "uint256",
          "name": "newTreasuryPercent",
          "type": "uint256"
        }
      ],
      "name": "NewTreasuryPercent",
      "type": "event"
    },
    {
      "anonymous": false,
      "inputs": [
        {
          "indexed": false,
          "internalType": "uint256",
          "name": "oldBaseRateMantissa",
          "type": "uint256"
        },
        {
          "indexed": false,
          "internalType": "uint256",
          "name": "newBaseRateMantissa",
          "type": "uint256"
        }
      ],
      "name": "NewVAIBaseRate",
      "type": "event"
    },
    {
      "anonymous": false,
      "inputs": [
        {
          "indexed": false,
          "internalType": "uint256",
          "name": "oldFloatRateMantissa",
          "type": "uint256"
        },
        {
          "indexed": false,
          "internalType": "uint256",
          "name": "newFlatRateMantissa",
          "type": "uint256"
        }
      ],
      "name": "NewVAIFloatRate",
      "type": "event"
    },
    {
      "anonymous": false,
      "inputs": [
        {
          "indexed": false,
          "internalType": "uint256",
          "name": "oldMintCap",
          "type": "uint256"
        },
        {
          "indexed": false,
          "internalType": "uint256",
          "name": "newMintCap",
          "type": "uint256"
        }
      ],
      "name": "NewVAIMintCap",
      "type": "event"
    },
    {
      "anonymous": false,
      "inputs": [
        {
          "indexed": false,
          "internalType": "address",
          "name": "oldReceiver",
          "type": "address"
        },
        {
          "indexed": false,
          "internalType": "address",
          "name": "newReceiver",
          "type": "address"
        }
      ],
      "name": "NewVAIReceiver",
      "type": "event"
    },
    {
      "anonymous": false,
      "inputs": [
        {
          "indexed": false,
          "internalType": "address",
          "name": "oldVaiToken",
          "type": "address"
        },
        {
          "indexed": false,
          "internalType": "address",
          "name": "newVaiToken",
          "type": "address"
        }
      ],
      "name": "NewVaiToken",
      "type": "event"
    },
    {
      "anonymous": false,
      "inputs": [
        {
          "indexed": false,
          "internalType": "address",
          "name": "payer",
          "type": "address"
        },
        {
          "indexed": false,
          "internalType": "address",
          "name": "borrower",
          "type": "address"
        },
        {
          "indexed": false,
          "internalType": "uint256",
          "name": "repayVAIAmount",
          "type": "uint256"
        }
      ],
      "name": "RepayVAI",
      "type": "event"
    },
    {
      "inputs": [],
      "name": "CORE_POOL_ID",
      "outputs": [
        {
          "internalType": "uint96",
          "name": "",
          "type": "uint96"
        }
      ],
      "stateMutability": "view",
      "type": "function"
    },
    {
      "inputs": [],
      "name": "INITIAL_VAI_MINT_INDEX",
      "outputs": [
        {
          "internalType": "uint256",
          "name": "",
          "type": "uint256"
        }
      ],
      "stateMutability": "view",
      "type": "function"
    },
    {
      "inputs": [
        {
          "internalType": "contract VAIUnitroller",
          "name": "unitroller",
          "type": "address"
        }
      ],
      "name": "_become",
      "outputs": [],
      "stateMutability": "nonpayable",
      "type": "function"
    },
    {
      "inputs": [
        {
          "internalType": "contract ComptrollerInterface",
          "name": "comptroller_",
          "type": "address"
        }
      ],
      "name": "_setComptroller",
      "outputs": [
        {
          "internalType": "uint256",
          "name": "",
          "type": "uint256"
        }
      ],
      "stateMutability": "nonpayable",
      "type": "function"
    },
    {
      "inputs": [
        {
          "internalType": "address",
          "name": "newTreasuryGuardian",
          "type": "address"
        },
        {
          "internalType": "address",
          "name": "newTreasuryAddress",
          "type": "address"
        },
        {
          "internalType": "uint256",
          "name": "newTreasuryPercent",
          "type": "uint256"
        }
      ],
      "name": "_setTreasuryData",
      "outputs": [
        {
          "internalType": "uint256",
          "name": "",
          "type": "uint256"
        }
      ],
      "stateMutability": "nonpayable",
      "type": "function"
    },
    {
      "inputs": [],
      "name": "accessControl",
      "outputs": [
        {
          "internalType": "address",
          "name": "",
          "type": "address"
        }
      ],
      "stateMutability": "view",
      "type": "function"
    },
    {
      "inputs": [],
      "name": "accrueVAIInterest",
      "outputs": [],
      "stateMutability": "nonpayable",
      "type": "function"
    },
    {
      "inputs": [],
      "name": "admin",
      "outputs": [
        {
          "internalType": "address",
          "name": "",
          "type": "address"
        }
      ],
      "stateMutability": "view",
      "type": "function"
    },
    {
      "inputs": [],
      "name": "baseRateMantissa",
      "outputs": [
        {
          "internalType": "uint256",
          "name": "",
          "type": "uint256"
        }
      ],
      "stateMutability": "view",
      "type": "function"
    },
    {
      "inputs": [],
      "name": "comptroller",
      "outputs": [
        {
          "internalType": "contract ComptrollerInterface",
          "name": "",
          "type": "address"
        }
      ],
      "stateMutability": "view",
      "type": "function"
    },
    {
      "inputs": [],
      "name": "floatRateMantissa",
      "outputs": [
        {
          "internalType": "uint256",
          "name": "",
          "type": "uint256"
        }
      ],
      "stateMutability": "view",
      "type": "function"
    },
    {
      "inputs": [],
      "name": "getBlocksPerYear",
      "outputs": [
        {
          "internalType": "uint256",
          "name": "",
          "type": "uint256"
        }
      ],
      "stateMutability": "view",
      "type": "function"
    },
    {
      "inputs": [
        {
          "internalType": "address",
          "name": "minter",
          "type": "address"
        }
      ],
      "name": "getMintableVAI",
      "outputs": [
        {
          "internalType": "uint256",
          "name": "",
          "type": "uint256"
        },
        {
          "internalType": "uint256",
          "name": "",
          "type": "uint256"
        }
      ],
      "stateMutability": "view",
      "type": "function"
    },
    {
      "inputs": [],
      "name": "getVAIAddress",
      "outputs": [
        {
          "internalType": "address",
          "name": "",
          "type": "address"
        }
      ],
      "stateMutability": "view",
      "type": "function"
    },
    {
      "inputs": [
        {
          "internalType": "address",
          "name": "borrower",
          "type": "address"
        },
        {
          "internalType": "uint256",
          "name": "repayAmount",
          "type": "uint256"
        }
      ],
      "name": "getVAICalculateRepayAmount",
      "outputs": [
        {
          "internalType": "uint256",
          "name": "",
          "type": "uint256"
        },
        {
          "internalType": "uint256",
          "name": "",
          "type": "uint256"
        },
        {
          "internalType": "uint256",
          "name": "",
          "type": "uint256"
        }
      ],
      "stateMutability": "view",
      "type": "function"
    },
    {
      "inputs": [
        {
          "internalType": "address",
          "name": "minter",
          "type": "address"
        }
      ],
      "name": "getVAIMinterInterestIndex",
      "outputs": [
        {
          "internalType": "uint256",
          "name": "",
          "type": "uint256"
        }
      ],
      "stateMutability": "view",
      "type": "function"
    },
    {
      "inputs": [
        {
          "internalType": "address",
          "name": "account",
          "type": "address"
        }
      ],
      "name": "getVAIRepayAmount",
      "outputs": [
        {
          "internalType": "uint256",
          "name": "",
          "type": "uint256"
        }
      ],
      "stateMutability": "view",
      "type": "function"
    },
    {
      "inputs": [],
      "name": "getVAIRepayRate",
      "outputs": [
        {
          "internalType": "uint256",
          "name": "",
          "type": "uint256"
        }
      ],
      "stateMutability": "view",
      "type": "function"
    },
    {
      "inputs": [],
      "name": "getVAIRepayRatePerBlock",
      "outputs": [
        {
          "internalType": "uint256",
          "name": "",
          "type": "uint256"
        }
      ],
      "stateMutability": "view",
      "type": "function"
    },
    {
      "inputs": [],
      "name": "initialize",
      "outputs": [],
      "stateMutability": "nonpayable",
      "type": "function"
    },
    {
      "inputs": [],
      "name": "isVenusVAIInitialized",
      "outputs": [
        {
          "internalType": "bool",
          "name": "",
          "type": "bool"
        }
      ],
      "stateMutability": "view",
      "type": "function"
    },
    {
      "inputs": [
        {
          "internalType": "address",
          "name": "borrower",
          "type": "address"
        },
        {
          "internalType": "uint256",
          "name": "repayAmount",
          "type": "uint256"
        },
        {
          "internalType": "contract VTokenInterface",
          "name": "vTokenCollateral",
          "type": "address"
        }
      ],
      "name": "liquidateVAI",
      "outputs": [
        {
          "internalType": "uint256",
          "name": "",
          "type": "uint256"
        },
        {
          "internalType": "uint256",
          "name": "",
          "type": "uint256"
        }
      ],
      "stateMutability": "nonpayable",
      "type": "function"
    },
    {
      "inputs": [],
      "name": "mintCap",
      "outputs": [
        {
          "internalType": "uint256",
          "name": "",
          "type": "uint256"
        }
      ],
      "stateMutability": "view",
      "type": "function"
    },
    {
      "inputs": [],
      "name": "mintEnabledOnlyForPrimeHolder",
      "outputs": [
        {
          "internalType": "bool",
          "name": "",
          "type": "bool"
        }
      ],
      "stateMutability": "view",
      "type": "function"
    },
    {
      "inputs": [
        {
          "internalType": "uint256",
          "name": "mintVAIAmount",
          "type": "uint256"
        }
      ],
      "name": "mintVAI",
      "outputs": [
        {
          "internalType": "uint256",
          "name": "",
          "type": "uint256"
        }
      ],
      "stateMutability": "nonpayable",
      "type": "function"
    },
    {
      "inputs": [
        {
          "internalType": "address",
          "name": "",
          "type": "address"
        }
      ],
      "name": "pastVAIInterest",
      "outputs": [
        {
          "internalType": "uint256",
          "name": "",
          "type": "uint256"
        }
      ],
      "stateMutability": "view",
      "type": "function"
    },
    {
      "inputs": [],
      "name": "pendingAdmin",
      "outputs": [
        {
          "internalType": "address",
          "name": "",
          "type": "address"
        }
      ],
      "stateMutability": "view",
      "type": "function"
    },
    {
      "inputs": [],
      "name": "pendingVAIControllerImplementation",
      "outputs": [
        {
          "internalType": "address",
          "name": "",
          "type": "address"
        }
      ],
      "stateMutability": "view",
      "type": "function"
    },
    {
      "inputs": [],
      "name": "prime",
      "outputs": [
        {
          "internalType": "address",
          "name": "",
          "type": "address"
        }
      ],
      "stateMutability": "view",
      "type": "function"
    },
    {
      "inputs": [],
      "name": "receiver",
      "outputs": [
        {
          "internalType": "address",
          "name": "",
          "type": "address"
        }
      ],
      "stateMutability": "view",
      "type": "function"
    },
    {
      "inputs": [
        {
          "internalType": "uint256",
          "name": "amount",
          "type": "uint256"
        }
      ],
      "name": "repayVAI",
      "outputs": [
        {
          "internalType": "uint256",
          "name": "",
          "type": "uint256"
        },
        {
          "internalType": "uint256",
          "name": "",
          "type": "uint256"
        }
      ],
      "stateMutability": "nonpayable",
      "type": "function"
    },
    {
      "inputs": [
        {
          "internalType": "address",
          "name": "borrower",
          "type": "address"
        },
        {
          "internalType": "uint256",
          "name": "amount",
          "type": "uint256"
        }
      ],
      "name": "repayVAIBehalf",
      "outputs": [
        {
          "internalType": "uint256",
          "name": "",
          "type": "uint256"
        },
        {
          "internalType": "uint256",
          "name": "",
          "type": "uint256"
        }
      ],
      "stateMutability": "nonpayable",
      "type": "function"
    },
    {
      "inputs": [
        {
          "internalType": "address",
          "name": "newAccessControlAddress",
          "type": "address"
        }
      ],
      "name": "setAccessControl",
      "outputs": [],
      "stateMutability": "nonpayable",
      "type": "function"
    },
    {
      "inputs": [
        {
          "internalType": "uint256",
          "name": "newBaseRateMantissa",
          "type": "uint256"
        }
      ],
      "name": "setBaseRate",
      "outputs": [],
      "stateMutability": "nonpayable",
      "type": "function"
    },
    {
      "inputs": [
        {
          "internalType": "uint256",
          "name": "newFloatRateMantissa",
          "type": "uint256"
        }
      ],
      "name": "setFloatRate",
      "outputs": [],
      "stateMutability": "nonpayable",
      "type": "function"
    },
    {
      "inputs": [
        {
          "internalType": "uint256",
          "name": "_mintCap",
          "type": "uint256"
        }
      ],
      "name": "setMintCap",
      "outputs": [],
      "stateMutability": "nonpayable",
      "type": "function"
    },
    {
      "inputs": [
        {
          "internalType": "address",
          "name": "prime_",
          "type": "address"
        }
      ],
      "name": "setPrimeToken",
      "outputs": [],
      "stateMutability": "nonpayable",
      "type": "function"
    },
    {
      "inputs": [
        {
          "internalType": "address",
          "name": "newReceiver",
          "type": "address"
        }
      ],
      "name": "setReceiver",
      "outputs": [],
      "stateMutability": "nonpayable",
      "type": "function"
    },
    {
      "inputs": [
        {
          "internalType": "address",
          "name": "vai_",
          "type": "address"
        }
      ],
      "name": "setVAIToken",
      "outputs": [],
      "stateMutability": "nonpayable",
      "type": "function"
    },
    {
      "inputs": [],
      "name": "toggleOnlyPrimeHolderMint",
      "outputs": [
        {
          "internalType": "uint256",
          "name": "",
          "type": "uint256"
        }
      ],
      "stateMutability": "nonpayable",
      "type": "function"
    },
    {
      "inputs": [],
      "name": "treasuryAddress",
      "outputs": [
        {
          "internalType": "address",
          "name": "",
          "type": "address"
        }
      ],
      "stateMutability": "view",
      "type": "function"
    },
    {
      "inputs": [],
      "name": "treasuryGuardian",
      "outputs": [
        {
          "internalType": "address",
          "name": "",
          "type": "address"
        }
      ],
      "stateMutability": "view",
      "type": "function"
    },
    {
      "inputs": [],
      "name": "treasuryPercent",
      "outputs": [
        {
          "internalType": "uint256",
          "name": "",
          "type": "uint256"
        }
      ],
      "stateMutability": "view",
      "type": "function"
    },
    {
      "inputs": [],
      "name": "vaiControllerImplementation",
      "outputs": [
        {
          "internalType": "address",
          "name": "",
          "type": "address"
        }
      ],
      "stateMutability": "view",
      "type": "function"
    },
    {
      "inputs": [],
      "name": "vaiMintIndex",
      "outputs": [
        {
          "internalType": "uint256",
          "name": "",
          "type": "uint256"
        }
      ],
      "stateMutability": "view",
      "type": "function"
    },
    {
      "inputs": [
        {
          "internalType": "address",
          "name": "",
          "type": "address"
        }
      ],
      "name": "venusVAIMinterIndex",
      "outputs": [
        {
          "internalType": "uint256",
          "name": "",
          "type": "uint256"
        }
      ],
      "stateMutability": "view",
      "type": "function"
    },
    {
      "inputs": [],
      "name": "venusVAIState",
      "outputs": [
        {
          "internalType": "uint224",
          "name": "index",
          "type": "uint224"
        },
        {
          "internalType": "uint32",
          "name": "block",
          "type": "uint32"
        }
      ],
      "stateMutability": "view",
      "type": "function"
    }
  ],
  "transactionHash": "0xe797bfa729c67f6698d385c3275854b9e434d44ca0f2ceccf058e0aa813973b6",
  "args": [],
  "numDeployments": 4,
  "solcInputHash": "9571a294b4664408ca93a7a08fd4459b",
  "bytecode": "0x6080604052348015600e575f80fd5b506141218061001c5f395ff3fe608060405234801561000f575f80fd5b506004361061028b575f3560e01c8063691e45ac11610161578063b49b1005116100ca578063d24febad11610084578063d24febad146105a1578063e44e6168146105b4578063ee1fa41e146105fa578063f20fd8f41461060e578063f7260d3e1461062d578063f851a44014610640575f80fd5b8063b49b100514610547578063b9ee87261461054f578063c32094c714610557578063c5f956af1461056a578063c7ee005e1461057d578063cbeb2b2814610590575f80fd5b806378c2f9221161011b57806378c2f922146104de5780637a37c5d0146104f15780638129fc1c14610510578063b06bb42614610518578063b2b481bc1461052b578063b2eafc3914610534575f80fd5b8063691e45ac1461046f5780636fe74a211461049d578063718da7ee146104b0578063741de148146104c357806375c3de43146104cd57806376c71ca1146104d5575f80fd5b80633785d1d6116102035780635ce73240116101bd5780635ce732401461040c5780635fe3b5671461041557806360c954ef1461042857806361b3311c146104455780636509795414610458578063657bdf9414610467575f80fd5b80633785d1d6146103a45780633b5a0a64146103b75780633b72fbef146103ca5780634070a0c9146103d35780634576b5db146103e65780634712ee7d146103f9575f80fd5b80631d08837b116102545780631d08837b146103265780631d504dc6146103395780631f040ff51461034c578063234f89771461035f57806324650602146103725780632678224714610391575f80fd5b80623b58841461028f57806304ef9d58146102bf57806311b3d5e7146102d657806313007d55146102fe57806319129e5a14610311575b5f80fd5b6002546102a2906001600160a01b031681565b6040516001600160a01b0390911681526020015b60405180910390f35b6102c8600a5481565b6040519081526020016102b6565b6102e96102e4366004613ae9565b610652565b604080519283526020830191909152016102b6565b6014546102a2906001600160a01b031681565b61032461031f366004613b28565b61074d565b005b610324610334366004613b43565b6107e1565b610324610347366004613b28565b610854565b6102e961035a366004613b5a565b6109cd565b6102c861036d366004613b28565b610a2a565b6102c8610380366004613b28565b60076020525f908152604090205481565b6001546102a2906001600160a01b031681565b6102e96103b2366004613b28565b610a5f565b6103246103c5366004613b43565b611372565b6102c8600c5481565b6103246103e1366004613b43565b6113e6565b6102c86103f4366004613b28565b611458565b6102c8610407366004613b43565b6114dc565b6102c8600d5481565b6004546102a2906001600160a01b031681565b6006546104359060ff1681565b60405190151581526020016102b6565b610324610453366004613b28565b611ae0565b6102c8670de0b6b3a764000081565b6102c8611b72565b61048261047d366004613b5a565b611c4b565b604080519384526020840192909252908201526060016102b6565b6102e96104ab366004613b43565b6120e8565b6103246104be366004613b28565b61213a565b6302819a006102c8565b6102c86121c6565b6102c860135481565b6102c86104ec366004613b28565b612217565b6104f85f81565b6040516001600160601b0390911681526020016102b6565b6103246123fe565b6003546102a2906001600160a01b031681565b6102c8600f5481565b6008546102a2906001600160a01b031681565b610324612491565b6102c861258b565b610324610565366004613b28565b6127dc565b6009546102a2906001600160a01b031681565b6015546102a2906001600160a01b031681565b6016546001600160a01b03166102a2565b6102c86105af366004613b84565b61286e565b6005546105d6906001600160e01b03811690600160e01b900463ffffffff1682565b604080516001600160e01b03909316835263ffffffff9091166020830152016102b6565b60155461043590600160a01b900460ff1681565b6102c861061c366004613b28565b60126020525f908152604090205481565b600e546102a2906001600160a01b031681565b5f546102a2906001600160a01b031681565b600b545f90819060ff166106815760405162461bcd60e51b815260040161067890613bc2565b60405180910390fd5b600b805460ff19169055610693612a03565b5f836001600160a01b031663a6afed956040518163ffffffff1660e01b81526004016020604051808303815f875af11580156106d1573d5f803e3d5ffd5b505050506040513d601f19601f820116820180604052508101906106f59190613be6565b905080156107245761071981600681111561071257610712613bfd565b6008612ab0565b5f9250925050610736565b61073033878787612b27565b92509250505b600b805460ff191660011790559094909350915050565b5f546001600160a01b031633146107765760405162461bcd60e51b815260040161067890613c11565b61077f81613050565b601480546001600160a01b038381166001600160a01b031983168117909355604080519190921680825260208201939093527f0f1eca7612e020f6e4582bcead0573eba4b5f7b56668754c6aed82ef12057dd491015b60405180910390a15050565b6108166040518060400160405280601481526020017373657442617365526174652875696e743235362960601b81525061309e565b600c80549082905560408051828152602081018490527fc84c32795e68685ec107b0e94ae126ef464095f342c7e2e0fec06a23d2e8677e91016107d5565b806001600160a01b031663f851a4406040518163ffffffff1660e01b8152600401602060405180830381865afa158015610890573d5f803e3d5ffd5b505050506040513d601f19601f820116820180604052508101906108b49190613c39565b6001600160a01b0316336001600160a01b0316146109245760405162461bcd60e51b815260206004820152602760248201527f6f6e6c7920756e6974726f6c6c65722061646d696e2063616e206368616e676560448201526620627261696e7360c81b6064820152608401610678565b806001600160a01b031663c1e803346040518163ffffffff1660e01b81526004016020604051808303815f875af1158015610961573d5f803e3d5ffd5b505050506040513d601f19601f820116820180604052508101906109859190613be6565b156109ca5760405162461bcd60e51b815260206004820152601560248201527418da185b99d9481b9bdd08185d5d1a1bdc9a5e9959605a1b6044820152606401610678565b50565b600b545f90819060ff166109f35760405162461bcd60e51b815260040161067890613bc2565b600b805460ff19169055610a0684613050565b610a10848461314b565b91509150600b805460ff1916600117905590939092509050565b6001600160a01b0381165f90815260116020526040812054808203610a595750670de0b6b3a764000092915050565b92915050565b6015545f908190600160a01b900460ff168015610ae55750601554604051630e3da90d60e21b81526001600160a01b038581166004830152909116906338f6a43490602401602060405180830381865afa158015610abf573d5f803e3d5ffd5b505050506040513d601f19601f82011682018060405250810190610ae39190613c68565b155b15610af5576002935f9350915050565b5f60045f9054906101000a90046001600160a01b03166001600160a01b0316637dc0d1d06040518163ffffffff1660e01b8152600401602060405180830381865afa158015610b46573d5f803e3d5ffd5b505050506040513d601f19601f82011682018060405250810190610b6a9190613c39565b60048054604051632aff3bff60e21b81526001600160a01b03888116938201939093529293505f9291169063abfceffc906024015f60405180830381865afa158015610bb8573d5f803e3d5ffd5b505050506040513d5f823e601f3d908101601f19168201604052610bdf9190810190613ca0565b9050610be9613a43565b81515f9081905b808210156110b657848281518110610c0a57610c0a613d60565b60209081029190910101516040516361bfb47160e11b81526001600160a01b038b811660048301529091169063c37f68e290602401608060405180830381865afa158015610c5a573d5f803e3d5ffd5b505050506040513d601f19601f82011682018060405250810190610c7e9190613d74565b60e088015260c087015260a086015280855215610ca75760035b995f9950975050505050505050565b60405180602001604052808560e00151815250846101200181905250856001600160a01b031663fc57d4df868481518110610ce457610ce4613d60565b60200260200101516040518263ffffffff1660e01b8152600401610d1791906001600160a01b0391909116815260200190565b602060405180830381865afa158015610d32573d5f803e3d5ffd5b505050506040513d601f19601f82011682018060405250810190610d569190613be6565b61010085018190525f03610d6b576004610c98565b604080516020810190915261010085015181526101408501819052610120850151610d9591613199565b856020018661016001829052826003811115610db357610db3613bfd565b6003811115610dc457610dc4613bfd565b9052505f905084602001516003811115610de057610de0613bfd565b14610dec576005610c98565b610dff8461016001518560a001516132a6565b6060860181905260208601826003811115610e1c57610e1c613bfd565b6003811115610e2d57610e2d613bfd565b9052505f905084602001516003811115610e4957610e49613bfd565b14610e55576005610c98565b60045485515f916001600160a01b031690638e8f294b90889086908110610e7e57610e7e613d60565b60200260200101516040518263ffffffff1660e01b8152600401610eb191906001600160a01b0391909116815260200190565b60e060405180830381865afa158015610ecc573d5f803e3d5ffd5b505050506040513d601f19601f82011682018060405250810190610ef09190613dbd565b5050505050915050610f068560600151826132f3565b6060870181905260208701826003811115610f2357610f23613bfd565b6003811115610f3457610f34613bfd565b9052505f905085602001516003811115610f5057610f50613bfd565b14610f685760055b9a5f9a5098505050505050505050565b610f7e8560600151670de0b6b3a7640000613330565b6060870181905260208701826003811115610f9b57610f9b613bfd565b6003811115610fac57610fac613bfd565b9052505f905085602001516003811115610fc857610fc8613bfd565b14610fd4576005610f58565b610fe68560400151866060015161334f565b604087018190526020870182600381111561100357611003613bfd565b600381111561101457611014613bfd565b9052505f90508560200151600381111561103057611030613bfd565b1461103c576005610f58565b6110548561014001518660c001518760800151613372565b608087018190526020870182600381111561107157611071613bfd565b600381111561108257611082613bfd565b9052505f90508560200151600381111561109e5761109e613bfd565b146110aa576005610f58565b50600190910190610bf0565b600480546040516315e3f14f60e11b81526001600160a01b038c8116938201939093525f9290911690632bc7e29e90602401602060405180830381865afa158015611103573d5f803e3d5ffd5b505050506040513d601f19601f820116820180604052508101906111279190613be6565b90505f811561113c576111398b612217565b90505b61114a86608001518261334f565b608088018190526020880182600381111561116757611167613bfd565b600381111561117857611178613bfd565b9052505f90508660200151600381111561119457611194613bfd565b146111ad5760055b9b5f9b509950505050505050505050565b61122e866040015160045f9054906101000a90046001600160a01b03166001600160a01b031663bec04f726040518163ffffffff1660e01b8152600401602060405180830381865afa158015611205573d5f803e3d5ffd5b505050506040513d601f19601f820116820180604052508101906112299190613be6565b6132f3565b8760200181975082600381111561124757611247613bfd565b600381111561125857611258613bfd565b9052505f90508660200151600381111561127457611274613bfd565b146112915760405162461bcd60e51b815260040161067890613e29565b61129d85612710613330565b876020018197508260038111156112b6576112b6613bfd565b60038111156112c7576112c7613bfd565b9052505f9050866020015160038111156112e3576112e3613bfd565b146113005760405162461bcd60e51b815260040161067890613e29565b61130e8587608001516133c9565b8760200181975082600381111561132757611327613bfd565b600381111561133857611338613bfd565b9052505f90508660200151600381111561135457611354613bfd565b1461136057600261119c565b5f9b949a509398505050505050505050565b6113a860405180604001604052806015815260200174736574466c6f6174526174652875696e743235362960581b81525061309e565b600d80549082905560408051828152602081018490527f546fb35dbbd92233aecc22b5a11a6791e5db7ec14f62e49cbac2a10c0437f56191016107d5565b61141a604051806040016040528060138152602001727365744d696e744361702875696e743235362960681b81525061309e565b601380549082905560408051828152602081018490527f43862b3eea2df8fce70329f3f84cbcad220f47a73be46c5e00df25165a6e169591016107d5565b5f80546001600160a01b0316331461147657610a5960016002612ab0565b600480546001600160a01b038481166001600160a01b031983168117909355604080519190921680825260208201939093527f7ac369dbd14fa5ea3f473ed67cc9d598964a77501540ba6751eb0b3decf5870d910160405180910390a15f5b9392505050565b600b545f9060ff166115005760405162461bcd60e51b815260040161067890613bc2565b600b805460ff191690556004546001600160a01b031661152157505f611ace565b60048054604051637376909960e01b815233928101929092525f916001600160a01b0390911690637376909990602401602060405180830381865afa15801561156c573d5f803e3d5ffd5b505050506040513d601f19601f820116820180604052508101906115909190613e6b565b6001600160601b0316146115f55760405162461bcd60e51b815260206004820152602660248201527f564149206d696e74206f6e6c7920616c6c6f77656420696e2074686520636f726044820152651948141bdbdb60d21b6064820152608401610678565b6115fe826133e9565b611606612a03565b61160e612491565b601654604080516318160ddd60e01b815290515f9233926001600160a01b0390911691849183916318160ddd916004808201926020929091908290030181865afa15801561165e573d5f803e3d5ffd5b505050506040513d601f19601f820116820180604052508101906116829190613be6565b90505f61168f828861342f565b90506013548111156116d65760405162461bcd60e51b815260206004820152601060248201526f1b5a5b9d0818d85c081c995858da195960821b6044820152606401610678565b5f6116e085610a5f565b9096509050851561173d5760405162461bcd60e51b815260206004820152602160248201527f636f756c64206e6f7420636f6d70757465206d696e7461626c6520616d6f756e6044820152601d60fa1b6064820152608401610678565b8088111561178d5760405162461bcd60e51b815260206004820152601960248201527f6d696e74696e67206d6f7265207468616e20616c6c6f776564000000000000006044820152606401610678565b600480546040516315e3f14f60e11b81526001600160a01b03888116938201939093525f9290911690632bc7e29e90602401602060405180830381865afa1580156117da573d5f803e3d5ffd5b505050506040513d601f19601f820116820180604052508101906117fe9190613be6565b9050801561185e575f61181087612217565b90505f61181d8284613464565b6001600160a01b0389165f90815260126020526040902054909150611842908261342f565b6001600160a01b0389165f908152601260205260409020555090505b5f611869828b61342f565b6004805460405163fd51a3ad60e01b81526001600160a01b038b81169382019390935260248101849052929350169063fd51a3ad906044016020604051808303815f875af11580156118bd573d5f803e3d5ffd5b505050506040513d601f19601f820116820180604052508101906118e19190613be6565b975087156119295760405162461bcd60e51b815260206004820152601560248201527431b7b6b83a3937b63632b9103932b532b1ba34b7b760591b6044820152606401610678565b5f600a545f14611a09575f6119516119438d600a5461349d565b670de0b6b3a76400006134de565b905061195d8c82613464565b6009546040516340c10f1960e01b81526001600160a01b039182166004820152602481018490529193508916906340c10f19906044015f604051808303815f87803b1580156119aa575f80fd5b505af11580156119bc573d5f803e3d5ffd5b5050604080516001600160a01b038d168152602081018590527fb0715a6d41a37c1b0672c22c09a31a0642c1fb3f9efa2d5fd5c6d2d891ee78c6935001905060405180910390a150611a0c565b50895b6040516340c10f1960e01b81526001600160a01b038981166004830152602482018390528816906340c10f19906044015f604051808303815f87803b158015611a53575f80fd5b505af1158015611a65573d5f803e3d5ffd5b5050600f546001600160a01b038b165f818152601160209081526040918290209390935580519182529181018590527e2e68ab1600fc5e7290e2ceaa79e2f86b4dbaca84a48421e167e0b40409218a935001905060405180910390a15f99505050505050505050505b600b805460ff19166001179055919050565b5f546001600160a01b03163314611b095760405162461bcd60e51b815260040161067890613c11565b601654604080516001600160a01b03928316815291831660208301527fe45150fb0a88e2274ecbca05ddde9925dd64b6e126ae0fa23ee2d42e668a49d3910160405180910390a1601680546001600160a01b0319166001600160a01b0392909216919091179055565b5f611bb16040518060400160405280601b81526020017f746f67676c654f6e6c795072696d65486f6c6465724d696e742829000000000081525061309e565b601554600160a01b900460ff16158015611bd457506015546001600160a01b0316155b15611bdf5750600290565b60155460408051600160a01b90920460ff16158015835260208301527f8efa7b6021d602e0cdef814b7435609ee40deb2a0352ca676d10045750516a5f910160405180910390a16015805460ff60a01b198116600160a01b9182900460ff16159091021790555f905090565b5f805f805f611c5987612217565b600480546040516315e3f14f60e11b81526001600160a01b038b8116938201939093529293505f92611cd69285921690632bc7e29e90602401602060405180830381865afa158015611cad573d5f803e3d5ffd5b505050506040513d601f19601f82011682018060405250810190611cd19190613be6565b6133c9565b90935090505f836003811115611cee57611cee613bfd565b14611d0b5760405162461bcd60e51b815260040161067890613e84565b6001600160a01b0388165f90815260126020526040902054611d2d908261334f565b90935090505f836003811115611d4557611d45613bfd565b14611d625760405162461bcd60e51b815260040161067890613e84565b6001600160a01b0388165f908152601260205260408120548290848a10611dc757611d8d85856133c9565b90965092505f866003811115611da557611da5613bfd565b14611dc25760405162461bcd60e51b815260040161067890613e84565b6120d7565b5f611dda8b670de0b6b3a76400006132f3565b90975090505f876003811115611df257611df2613bfd565b14611e3f5760405162461bcd60e51b815260206004820152601b60248201527f5641495f504152545f43414c43554c4154494f4e5f4641494c454400000000006044820152606401610678565b611e498187613330565b90975090505f876003811115611e6157611e61613bfd565b14611eae5760405162461bcd60e51b815260206004820152601b60248201527f5641495f504152545f43414c43554c4154494f4e5f4641494c454400000000006044820152606401610678565b5f611eb987876133c9565b90985090505f886003811115611ed157611ed1613bfd565b14611f2a5760405162461bcd60e51b8152602060048201526024808201527f5641495f4d494e5445445f414d4f554e545f43414c43554c4154494f4e5f46416044820152631253115160e21b6064820152608401610678565b611f3481836132f3565b90985094505f886003811115611f4c57611f4c613bfd565b14611f695760405162461bcd60e51b815260040161067890613e84565b611f7b85670de0b6b3a7640000613330565b90985094505f886003811115611f9357611f93613bfd565b14611fb05760405162461bcd60e51b815260040161067890613e84565b611fba86836132f3565b90985093505f886003811115611fd257611fd2613bfd565b14611fef5760405162461bcd60e51b815260040161067890613ec6565b61200184670de0b6b3a7640000613330565b90985093505f88600381111561201957612019613bfd565b146120365760405162461bcd60e51b815260040161067890613ec6565b6001600160a01b038d165f9081526012602052604090205461205890836132f3565b90985092505f88600381111561207057612070613bfd565b1461208d5760405162461bcd60e51b815260040161067890613f14565b61209f83670de0b6b3a7640000613330565b90985092505f8860038111156120b7576120b7613bfd565b146120d45760405162461bcd60e51b815260040161067890613f14565b50505b919750955093505050509250925092565b600b545f90819060ff1661210e5760405162461bcd60e51b815260040161067890613bc2565b600b805460ff19169055612122338461314b565b91509150600b805460ff191660011790559092909150565b5f546001600160a01b031633146121635760405162461bcd60e51b815260040161067890613c11565b61216c81613050565b600e80546001600160a01b038381166001600160a01b031983168117909355604080519190921680825260208201939093527f4df62dd7d9cc4f480a167c19c616ae5d5bb40db6d0c2bc66dba57068225f00d891016107d5565b5f806121d061258b565b90505f806121e2836302819a00613330565b90925090505f8260038111156121fa576121fa613bfd565b146114d55760405162461bcd60e51b815260040161067890613f58565b600480546040516315e3f14f60e11b81526001600160a01b03848116938201939093525f9283928392839290911690632bc7e29e90602401602060405180830381865afa15801561226a573d5f803e3d5ffd5b505050506040513d601f19601f8201168201806040525081019061228e9190613be6565b6001600160a01b0386165f90815260126020526040812054919250806122b484846133c9565b90965091505f8660038111156122cc576122cc613bfd565b146122e95760405162461bcd60e51b815260040161067890613f99565b6122f8600f54611cd18a610a2a565b90965094505f86600381111561231057612310613bfd565b1461232d5760405162461bcd60e51b815260040161067890613f99565b61233785836132f3565b90965090505f86600381111561234f5761234f613bfd565b1461236c5760405162461bcd60e51b815260040161067890613f99565b61237e81670de0b6b3a7640000613330565b90965090505f86600381111561239657612396613bfd565b146123b35760405162461bcd60e51b815260040161067890613f99565b6123bd848261334f565b90965093505f8660038111156123d5576123d5613bfd565b146123f25760405162461bcd60e51b815260040161067890613f99565b50919695505050505050565b5f546001600160a01b031633146124275760405162461bcd60e51b815260040161067890613c11565b600f541561246d5760405162461bcd60e51b8152602060048201526013602482015272185b1c9958591e481a5b9a5d1a585b1a5e9959606a1b6044820152606401610678565b670de0b6b3a7640000600f55436010555f19601355600b805460ff19166001179055565b5f806124ab61249e6121c6565b6010546112299043613ff6565b90925090505f8260038111156124c3576124c3613bfd565b146125105760405162461bcd60e51b815260206004820152601a60248201527f5641495f494e5445524553545f4143435255455f4641494c45440000000000006044820152606401610678565b61251c81600f5461334f565b90925090505f82600381111561253457612534613bfd565b146125815760405162461bcd60e51b815260206004820152601a60248201527f5641495f494e5445524553545f4143435255455f4641494c45440000000000006044820152606401610678565b600f555043601055565b60048054604080516307dc0d1d60e41b815290515f9384936001600160a01b031692637dc0d1d092818301926020928290030181865afa1580156125d1573d5f803e3d5ffd5b505050506040513d601f19601f820116820180604052508101906125f59190613c39565b90505f80600c5411156127d457600d54156127ca575f826001600160a01b031663fc57d4df61262c6016546001600160a01b031690565b6040516001600160e01b031960e084901b1681526001600160a01b039091166004820152602401602060405180830381865afa15801561266e573d5f803e3d5ffd5b505050506040513d601f19601f820116820180604052508101906126929190613be6565b905080670de0b6b3a764000011156127bf575f806126b8670de0b6b3a7640000846133c9565b90945091505f8460038111156126d0576126d0613bfd565b146126ed5760405162461bcd60e51b815260040161067890613f58565b6126f982600d546132f3565b90945091505f84600381111561271157612711613bfd565b1461272e5760405162461bcd60e51b815260040161067890613f58565b61274082670de0b6b3a7640000613330565b90945091505f84600381111561275857612758613bfd565b146127755760405162461bcd60e51b815260040161067890613f58565b61278182600c5461334f565b90945090505f84600381111561279957612799613bfd565b146127b65760405162461bcd60e51b815260040161067890613f58565b95945050505050565b600c54935050505090565b600c549250505090565b5f9250505090565b5f546001600160a01b031633146128055760405162461bcd60e51b815260040161067890613c11565b601554604080516001600160a01b03928316815291831660208301527ffb26401242c61b503dd09c29da64a5d4f451549f574b882a40bcdc64ee68b83c910160405180910390a1601580546001600160a01b0319166001600160a01b0392909216919091179055565b5f80546001600160a01b031633148061289157506008546001600160a01b031633145b6128a8576128a160016017612ab0565b90506114d5565b670de0b6b3a764000082106128ff5760405162461bcd60e51b815260206004820152601d60248201527f74726561737572792070657263656e7420636170206f766572666c6f770000006044820152606401610678565b6008805460098054600a80546001600160a01b03198086166001600160a01b038c81169182179098559084168a8816179094559087905560408051948616808652602086019490945292949091169290917f29f06ea15931797ebaed313d81d100963dc22cb213cb4ce2737b5a62b1a8b1e8910160405180910390a1604080516001600160a01b038085168252881660208201527f8de763046d7b8f08b6c3d03543de1d615309417842bb5d2d62f110f65809ddac910160405180910390a160408051828152602081018790527f0893f8f4101baaabbeb513f96761e7a36eb837403c82cc651c292a4abdc94ed7910160405180910390a1505f9695505050505050565b600480546040805163084bf5ab60e31b815290516001600160a01b039092169263425fad589282820192602092908290030181865afa158015612a48573d5f803e3d5ffd5b505050506040513d601f19601f82011682018060405250810190612a6c9190613c68565b15612aae5760405162461bcd60e51b81526020600482015260126024820152711c1c9bdd1bd8dbdb081a5cc81c185d5cd95960721b6044820152606401610678565b565b5f7f45b96fe442630264581b197e84bbada861235052c5a1aadfff9ea4e40a969aa0836006811115612ae457612ae4613bfd565b836017811115612af657612af6613bfd565b6040805192835260208301919091525f9082015260600160405180910390a18260068111156114d5576114d5613bfd565b6004545f9081906001600160a01b03161561304757612b44612491565b60048054604051632fe3f38f60e11b815230928101929092526001600160a01b03858116602484015288811660448401528781166064840152608483018790525f92911690635fc7e71e9060a4016020604051808303815f875af1158015612bae573d5f803e3d5ffd5b505050506040513d601f19601f82011682018060405250810190612bd29190613be6565b90508015612bf257612be76002600a83613510565b5f9250925050613047565b43846001600160a01b0316636c540baf6040518163ffffffff1660e01b8152600401602060405180830381865afa158015612c2f573d5f803e3d5ffd5b505050506040513d601f19601f82011682018060405250810190612c539190613be6565b14612c6457612be760026009612ab0565b866001600160a01b0316866001600160a01b031603612c8957612be76002600f612ab0565b845f03612c9c57612be76002600d612ab0565b5f198503612cb057612be76002600c612ab0565b5f80612cbd89898961358f565b90925090508115612cf157612ce4826006811115612cdd57612cdd613bfd565b6010612ab0565b5f94509450505050613047565b6004805460405163a78dc77560e01b81526001600160a01b0389811693820193909352602481018490525f928392169063a78dc775906044016040805180830381865afa158015612d44573d5f803e3d5ffd5b505050506040513d601f19601f82011682018060405250810190612d689190614009565b90925090508115612de15760405162461bcd60e51b815260206004820152603760248201527f5641495f4c49515549444154455f434f4d5054524f4c4c45525f43414c43554c60448201527f4154455f414d4f554e545f5345495a455f4641494c45440000000000000000006064820152608401610678565b6040516370a0823160e01b81526001600160a01b038b811660048301528291908a16906370a0823190602401602060405180830381865afa158015612e28573d5f803e3d5ffd5b505050506040513d601f19601f82011682018060405250810190612e4c9190613be6565b1015612e9a5760405162461bcd60e51b815260206004820152601c60248201527f5641495f4c49515549444154455f5345495a455f544f4f5f4d554348000000006044820152606401610678565b60405163b2a02ff160e01b81526001600160a01b038c811660048301528b81166024830152604482018390525f91908a169063b2a02ff1906064016020604051808303815f875af1158015612ef1573d5f803e3d5ffd5b505050506040513d601f19601f82011682018060405250810190612f159190613be6565b90508015612f5c5760405162461bcd60e51b81526020600482015260146024820152731d1bdad95b881cd95a5e9d5c994819985a5b195960621b6044820152606401610678565b604080516001600160a01b038e811682528d811660208301528183018790528b1660608201526080810184905290517f42d401f96718a0c42e5cea8108973f0022677b7e2e5f4ee19851b2de7a0394e79181900360a00190a1600480546040516347ef3b3b60e01b815230928101929092526001600160a01b038b811660248401528e811660448401528d811660648401526084830187905260a4830185905216906347ef3b3b9060c4015f604051808303815f87803b15801561301e575f80fd5b505af1158015613030573d5f803e3d5ffd5b505f925061303c915050565b975092955050505050505b94509492505050565b6001600160a01b0381166109ca5760405162461bcd60e51b815260206004820152601560248201527463616e2774206265207a65726f206164647265737360581b6044820152606401610678565b6014546040516318c5e8ab60e01b81526001600160a01b03909116906318c5e8ab906130d09033908590600401614059565b602060405180830381865afa1580156130eb573d5f803e3d5ffd5b505050506040513d601f19601f8201168201806040525081019061310f9190613c68565b6109ca5760405162461bcd60e51b815260206004820152600d60248201526c1858d8d95cdcc819195b9a5959609a1b6044820152606401610678565b6004545f9081906001600160a01b031661316957505f905080613192565b613172836133e9565b61317a612a03565b613182612491565b61318d33858561358f565b915091505b9250929050565b5f6131af60405180602001604052805f81525090565b5f806131c1865f0151865f01516132f3565b90925090505f8260038111156131d9576131d9613bfd565b146131f7575060408051602081019091525f81529092509050613192565b5f8061321561320f6002670de0b6b3a764000061407c565b8461334f565b90925090505f82600381111561322d5761322d613bfd565b1461324f578160405180602001604052805f8152509550955050505050613192565b5f8061326383670de0b6b3a7640000613330565b90925090505f82600381111561327b5761327b613bfd565b146132885761328861409b565b60408051602081019091529081525f9a909950975050505050505050565b5f805f806132b486866138d5565b90925090505f8260038111156132cc576132cc613bfd565b146132dc575091505f9050613192565b5f6132e68261394a565b9350935050509250929050565b5f80835f0361330657505f905080613192565b83830283613314868361407c565b146133265760025f9250925050613192565b5f92509050613192565b5f80825f036133445750600190505f613192565b5f61318d848661407c565b5f80838301848110613365575f92509050613192565b60025f9250925050613192565b5f805f8061338087876138d5565b90925090505f82600381111561339857613398613bfd565b146133a8575091505f90506133c1565b6133ba6133b48261394a565b8661334f565b9350935050505b935093915050565b5f808383116133de57505f9050818303613192565b50600390505f613192565b5f81116109ca5760405162461bcd60e51b8152602060048201526014602482015273616d6f756e742063616e2774206265207a65726f60601b6044820152606401610678565b5f6114d58383604051806040016040528060118152602001706164646974696f6e206f766572666c6f7760781b815250613961565b5f6114d58383604051806040016040528060158152602001747375627472616374696f6e20756e646572666c6f7760581b81525061399a565b5f6114d583836040518060400160405280601781526020017f6d756c7469706c69636174696f6e206f766572666c6f770000000000000000008152506139c8565b5f6114d583836040518060400160405280600e81526020016d646976696465206279207a65726f60901b815250613a18565b5f7f45b96fe442630264581b197e84bbada861235052c5a1aadfff9ea4e40a969aa084600681111561354457613544613bfd565b84601781111561355657613556613bfd565b604080519283526020830191909152810184905260600160405180910390a183600681111561358757613587613bfd565b949350505050565b5f805f805f61359e8787611c4b565b601654604051632770a7eb60e21b81526001600160a01b038d811660048301526024820186905294975092955090935091909116908190639dc29fac906044015f604051808303815f87803b1580156135f5575f80fd5b505af1158015613607573d5f803e3d5ffd5b5050600e546040516323b872dd60e01b81526001600160a01b038d811660048301529182166024820152604481018790525f935090841691506323b872dd906064016020604051808303815f875af1158015613665573d5f803e3d5ffd5b505050506040513d601f19601f820116820180604052508101906136899190613c68565b90506001811515146136dd5760405162461bcd60e51b815260206004820152601a60248201527f6661696c656420746f207472616e7366657220564149206665650000000000006044820152606401610678565b600480546040516315e3f14f60e11b81526001600160a01b038c8116938201939093525f9290911690632bc7e29e90602401602060405180830381865afa15801561372a573d5f803e3d5ffd5b505050506040513d601f19601f8201168201806040525081019061374e9190613be6565b90505f61376461375e8389613464565b86613464565b6001600160a01b038c165f908152601260205260409020549091506137899086613464565b6001600160a01b03808d165f818152601260205260408082209490945560048054945163fd51a3ad60e01b81529081019290925260248201859052929091169063fd51a3ad906044016020604051808303815f875af11580156137ee573d5f803e3d5ffd5b505050506040513d601f19601f820116820180604052508101906138129190613be6565b9050801561385a5760405162461bcd60e51b815260206004820152601560248201527431b7b6b83a3937b63632b9103932b532b1ba34b7b760591b6044820152606401610678565b5f613865898961342f565b90507f1db858e6f7e1a0d5e92c10c6507d42b3dabfe0a4867fe90c5a14d9963662ef7e8e8e836040516138b9939291906001600160a01b039384168152919092166020820152604081019190915260600190565b60405180910390a15f9e909d509b505050505050505050505050565b5f6138eb60405180602001604052805f81525090565b5f806138fa865f0151866132f3565b90925090505f82600381111561391257613912613bfd565b14613930575060408051602081019091525f81529092509050613192565b60408051602081019091529081525f969095509350505050565b80515f90610a5990670de0b6b3a76400009061407c565b5f8061396d84866140af565b905082858210156139915760405162461bcd60e51b815260040161067891906140c2565b50949350505050565b5f81848411156139bd5760405162461bcd60e51b815260040161067891906140c2565b506135878385613ff6565b5f8315806139d4575082155b156139e057505f6114d5565b5f6139eb84866140d4565b9050836139f8868361407c565b1483906139915760405162461bcd60e51b815260040161067891906140c2565b5f8183613a385760405162461bcd60e51b815260040161067891906140c2565b50613587838561407c565b6040805161018081019091525f808252602082019081526020015f81526020015f81526020015f81526020015f81526020015f81526020015f81526020015f8152602001613a9c60405180602001604052805f81525090565b8152602001613ab660405180602001604052805f81525090565b8152602001613ad060405180602001604052805f81525090565b905290565b6001600160a01b03811681146109ca575f80fd5b5f805f60608486031215613afb575f80fd5b8335613b0681613ad5565b9250602084013591506040840135613b1d81613ad5565b809150509250925092565b5f60208284031215613b38575f80fd5b81356114d581613ad5565b5f60208284031215613b53575f80fd5b5035919050565b5f8060408385031215613b6b575f80fd5b8235613b7681613ad5565b946020939093013593505050565b5f805f60608486031215613b96575f80fd5b8335613ba181613ad5565b92506020840135613bb181613ad5565b929592945050506040919091013590565b6020808252600a90820152691c994b595b9d195c995960b21b604082015260600190565b5f60208284031215613bf6575f80fd5b5051919050565b634e487b7160e01b5f52602160045260245ffd5b6020808252600e908201526d37b7363c9030b236b4b71031b0b760911b604082015260600190565b5f60208284031215613c49575f80fd5b81516114d581613ad5565b80518015158114613c63575f80fd5b919050565b5f60208284031215613c78575f80fd5b6114d582613c54565b634e487b7160e01b5f52604160045260245ffd5b8051613c6381613ad5565b5f6020808385031215613cb1575f80fd5b825167ffffffffffffffff80821115613cc8575f80fd5b818501915085601f830112613cdb575f80fd5b815181811115613ced57613ced613c81565b8060051b604051601f19603f83011681018181108582111715613d1257613d12613c81565b604052918252848201925083810185019188831115613d2f575f80fd5b938501935b82851015613d5457613d4585613c95565b84529385019392850192613d34565b98975050505050505050565b634e487b7160e01b5f52603260045260245ffd5b5f805f8060808587031215613d87575f80fd5b505082516020840151604085015160609095015191969095509092509050565b80516001600160601b0381168114613c63575f80fd5b5f805f805f805f60e0888a031215613dd3575f80fd5b613ddc88613c54565b965060208801519550613df160408901613c54565b94506060880151935060808801519250613e0d60a08901613da7565b9150613e1b60c08901613c54565b905092959891949750929550565b60208082526022908201527f5641495f4d494e545f414d4f554e545f43414c43554c4154494f4e5f4641494c604082015261115160f21b606082015260800190565b5f60208284031215613e7b575f80fd5b6114d582613da7565b60208082526022908201527f5641495f4255524e5f414d4f554e545f43414c43554c4154494f4e5f4641494c604082015261115160f21b606082015260800190565b6020808252602e908201527f5641495f43555252454e545f494e5445524553545f414d4f554e545f43414c4360408201526d155310551253d397d1905253115160921b606082015260800190565b60208082526024908201527f5641495f504153545f494e5445524553545f43414c43554c4154494f4e5f46416040820152631253115160e21b606082015260800190565b60208082526021908201527f5641495f52455041595f524154455f43414c43554c4154494f4e5f4641494c456040820152601160fa1b606082015260800190565b60208082526029908201527f5641495f544f54414c5f52455041595f414d4f554e545f43414c43554c41544960408201526813d397d1905253115160ba1b606082015260800190565b634e487b7160e01b5f52601160045260245ffd5b81810381811115610a5957610a59613fe2565b5f806040838503121561401a575f80fd5b505080516020909101519092909150565b5f81518084528060208401602086015e5f602082860101526020601f19601f83011685010191505092915050565b6001600160a01b03831681526040602082018190525f906135879083018461402b565b5f8261409657634e487b7160e01b5f52601260045260245ffd5b500490565b634e487b7160e01b5f52600160045260245ffd5b80820180821115610a5957610a59613fe2565b602081525f6114d5602083018461402b565b8082028115828204841417610a5957610a59613fe256fea2646970667358221220995b2ae3e250aa747e44843b982ef6949f6d41626db31b823e24912fd6e7505c64736f6c63430008190033",
  "devdoc": {
    "author": "Venus",
    "events": {
      "Failure(uint256,uint256,uint256)": {
        "details": "`error` corresponds to enum Error; `info` corresponds to enum FailureInfo, and `detail` is an arbitrary contract-specific code that enables us to report opaque error codes from upgradeable contracts.*"
      }
    },
    "kind": "dev",
    "methods": {
      "_setComptroller(address)": {
        "details": "Admin function to set a new comptroller",
        "returns": {
          "_0": "uint256 0=success, otherwise a failure (see ErrorReporter.sol for details)"
        }
      },
      "_setTreasuryData(address,address,uint256)": {
        "params": {
          "newTreasuryAddress": "New Treasury Address",
          "newTreasuryGuardian": "New Treasury Guardian address",
          "newTreasuryPercent": "New fee percentage for minting VAI that is sent to the treasury"
        }
      },
      "getMintableVAI(address)": {
        "params": {
          "minter": "The account to check mintable VAI"
        },
        "returns": {
          "_0": "Error code (0=success, otherwise a failure, see ErrorReporter.sol for details)",
          "_1": "Mintable amount (with 18 decimals)"
        }
      },
      "getVAIAddress()": {
        "returns": {
          "_0": "The address of VAI"
        }
      },
      "getVAICalculateRepayAmount(address,uint256)": {
        "params": {
          "borrower": "The address of the VAI borrower",
          "repayAmount": "The amount of VAI being returned"
        },
        "returns": {
          "_0": "Amount of VAI to be burned",
          "_1": "Amount of VAI the user needs to pay in current interest",
          "_2": "Amount of VAI the user needs to pay in past interest"
        }
      },
      "getVAIMinterInterestIndex(address)": {
        "params": {
          "minter": "Address of VAI minter"
        },
        "returns": {
          "_0": "uint256 Returns the interest rate index for a minter"
        }
      },
      "getVAIRepayAmount(address)": {
        "params": {
          "account": "The address of the VAI borrower"
        },
        "returns": {
          "_0": "(uint256) The total amount of VAI the user needs to repay"
        }
      },
      "getVAIRepayRate()": {
        "returns": {
          "_0": "uint256 Yearly VAI interest rate"
        }
      },
      "getVAIRepayRatePerBlock()": {
        "returns": {
          "_0": "uint256 Interest rate per bock"
        }
      },
      "liquidateVAI(address,uint256,address)": {
        "params": {
          "borrower": "The borrower of vai to be liquidated",
          "repayAmount": "The amount of the underlying borrowed asset to repay",
          "vTokenCollateral": "The market in which to seize collateral from the borrower"
        },
        "returns": {
          "_0": "Error code (0=success, otherwise a failure, see ErrorReporter.sol)",
          "_1": "Actual repayment amount"
        }
      },
      "mintVAI(uint256)": {
        "details": "If the Comptroller address is not set, minting is a no-op and the function returns the success code.",
        "params": {
          "mintVAIAmount": "The amount of the VAI to be minted."
        },
        "returns": {
          "_0": "0 on success, otherwise an error code"
        }
      },
      "repayVAI(uint256)": {
        "details": "If the Comptroller address is not set, repayment is a no-op and the function returns the success code.",
        "params": {
          "amount": "The amount of VAI to be repaid."
        },
        "returns": {
          "_0": "Error code (0=success, otherwise a failure, see ErrorReporter.sol)",
          "_1": "Actual repayment amount"
        }
      },
      "repayVAIBehalf(address,uint256)": {
        "details": "If the Comptroller address is not set, repayment is a no-op and the function returns the success code.",
        "params": {
          "amount": "The amount of VAI to be repaid.",
          "borrower": "The account to repay the debt for."
        },
        "returns": {
          "_0": "Error code (0=success, otherwise a failure, see ErrorReporter.sol)",
          "_1": "Actual repayment amount"
        }
      },
      "setAccessControl(address)": {
        "details": "Admin function to set the access control address",
        "params": {
          "newAccessControlAddress": "New address for the access control"
        }
      },
      "setBaseRate(uint256)": {
        "params": {
          "newBaseRateMantissa": "the base rate multiplied by 10**18"
        }
      },
      "setFloatRate(uint256)": {
        "params": {
          "newFloatRateMantissa": "the VAI float rate multiplied by 10**18"
        }
      },
      "setMintCap(uint256)": {
        "params": {
          "_mintCap": "the amount of VAI that can be minted"
        }
      },
      "setPrimeToken(address)": {
        "params": {
          "prime_": "The new address of the prime token contract"
        }
      },
      "setReceiver(address)": {
        "params": {
          "newReceiver": "the address of the VAI fee receiver"
        }
      },
      "setVAIToken(address)": {
        "params": {
          "vai_": "The new address of the VAI token contract"
        }
      },
      "toggleOnlyPrimeHolderMint()": {
        "returns": {
          "_0": "uint256 0=success, otherwise a failure (see ErrorReporter.sol for details)"
        }
      }
    },
    "title": "VAI Comptroller",
    "version": 1
  },
  "userdoc": {
    "events": {
      "LiquidateVAI(address,address,uint256,address,uint256)": {
        "notice": "Event emitted when a borrow is liquidated"
      },
      "MintFee(address,uint256)": {
        "notice": "Event emitted when VAIs are minted and fee are transferred"
      },
      "MintOnlyForPrimeHolder(bool,bool)": {
        "notice": "Emitted when mint for prime holder is changed"
      },
      "MintVAI(address,uint256)": {
        "notice": "Event emitted when VAI is minted"
      },
      "NewAccessControl(address,address)": {
        "notice": "Emitted when access control address is changed by admin"
      },
      "NewComptroller(address,address)": {
        "notice": "Emitted when Comptroller is changed"
      },
      "NewPrime(address,address)": {
        "notice": "Emitted when Prime is changed"
      },
      "NewTreasuryAddress(address,address)": {
        "notice": "Emitted when treasury address is changed"
      },
      "NewTreasuryGuardian(address,address)": {
        "notice": "Emitted when treasury guardian is changed"
      },
      "NewTreasuryPercent(uint256,uint256)": {
        "notice": "Emitted when treasury percent is changed"
      },
      "NewVAIBaseRate(uint256,uint256)": {
        "notice": "Emiitted when VAI base rate is changed"
      },
      "NewVAIFloatRate(uint256,uint256)": {
        "notice": "Emiitted when VAI float rate is changed"
      },
      "NewVAIMintCap(uint256,uint256)": {
        "notice": "Emiitted when VAI mint cap is changed"
      },
      "NewVAIReceiver(address,address)": {
        "notice": "Emiitted when VAI receiver address is changed"
      },
      "NewVaiToken(address,address)": {
        "notice": "Emitted when VAI token address is changed by admin"
      },
      "RepayVAI(address,address,uint256)": {
        "notice": "Event emitted when VAI is repaid"
      }
    },
    "kind": "user",
    "methods": {
      "CORE_POOL_ID()": {
        "notice": "poolId for core Pool"
      },
      "INITIAL_VAI_MINT_INDEX()": {
        "notice": "Initial index used in interest computations"
      },
      "_setComptroller(address)": {
        "notice": "Sets a new comptroller"
      },
      "_setTreasuryData(address,address,uint256)": {
        "notice": "Update treasury data"
      },
      "accessControl()": {
        "notice": "Access control manager address"
      },
      "accrueVAIInterest()": {
        "notice": "Accrue interest on outstanding minted VAI"
      },
      "admin()": {
        "notice": "Administrator for this contract"
      },
      "baseRateMantissa()": {
        "notice": "The base rate for stability fee"
      },
      "floatRateMantissa()": {
        "notice": "The float rate for stability fee"
      },
      "getMintableVAI(address)": {
        "notice": "Function that returns the amount of VAI a user can mint based on their account liquidy and the VAI mint rate If mintEnabledOnlyForPrimeHolder is true, only Prime holders are able to mint VAI"
      },
      "getVAIAddress()": {
        "notice": "Return the address of the VAI token"
      },
      "getVAICalculateRepayAmount(address,uint256)": {
        "notice": "Calculate how much VAI the user needs to repay"
      },
      "getVAIMinterInterestIndex(address)": {
        "notice": "Get the last updated interest index for a VAI Minter"
      },
      "getVAIRepayAmount(address)": {
        "notice": "Get the current total VAI a user needs to repay"
      },
      "getVAIRepayRate()": {
        "notice": "Gets yearly VAI interest rate based on the VAI price"
      },
      "getVAIRepayRatePerBlock()": {
        "notice": "Get interest rate per block"
      },
      "isVenusVAIInitialized()": {
        "notice": "The Venus VAI state initialized"
      },
      "liquidateVAI(address,uint256,address)": {
        "notice": "The sender liquidates the vai minters collateral. The collateral seized is transferred to the liquidator."
      },
      "mintCap()": {
        "notice": "VAI mint cap"
      },
      "mintEnabledOnlyForPrimeHolder()": {
        "notice": "Tracks if minting is enabled only for prime token holders. Only used if prime is set"
      },
      "mintVAI(uint256)": {
        "notice": "The mintVAI function mints and transfers VAI from the protocol to the user, and adds a borrow balance. The amount minted must be less than the user's Account Liquidity and the mint vai limit."
      },
      "pastVAIInterest(address)": {
        "notice": "Tracks the amount of mintedVAI of a user that represents the accrued interest"
      },
      "pendingAdmin()": {
        "notice": "Pending administrator for this contract"
      },
      "pendingVAIControllerImplementation()": {
        "notice": "Pending brains of Unitroller"
      },
      "prime()": {
        "notice": "The address of the prime contract. It can be a ZERO address"
      },
      "receiver()": {
        "notice": "The address for VAI interest receiver"
      },
      "repayVAI(uint256)": {
        "notice": "The repay function transfers VAI interest into the protocol and burns the rest, reducing the borrower's borrow balance. Before repaying VAI, users must first approve VAIController to access their VAI balance."
      },
      "repayVAIBehalf(address,uint256)": {
        "notice": "The repay on behalf function transfers VAI interest into the protocol and burns the rest, reducing the borrower's borrow balance. Borrowed VAIs are repaid by another user (possibly the borrower). Before repaying VAI, the payer must first approve VAIController to access their VAI balance."
      },
      "setAccessControl(address)": {
        "notice": "Sets the address of the access control of this contract"
      },
      "setBaseRate(uint256)": {
        "notice": "Set VAI borrow base rate"
      },
      "setFloatRate(uint256)": {
        "notice": "Set VAI borrow float rate"
      },
      "setMintCap(uint256)": {
        "notice": "Set VAI mint cap"
      },
      "setPrimeToken(address)": {
        "notice": "Set the prime token contract address"
      },
      "setReceiver(address)": {
        "notice": "Set VAI stability fee receiver address"
      },
      "setVAIToken(address)": {
        "notice": "Set the VAI token contract address"
      },
      "toggleOnlyPrimeHolderMint()": {
        "notice": "Toggle mint only for prime holder"
      },
      "treasuryAddress()": {
        "notice": "Treasury address"
      },
      "treasuryGuardian()": {
        "notice": "Treasury Guardian address"
      },
      "treasuryPercent()": {
        "notice": "Fee percent of accrued interest with decimal 18"
      },
      "vaiControllerImplementation()": {
        "notice": "Active brains of Unitroller"
      },
      "vaiMintIndex()": {
        "notice": "Accumulator of the total earned interest rate since the opening of the market. For example: 0.6 (60%)"
      },
      "venusVAIMinterIndex(address)": {
        "notice": "The Venus VAI minter index as of the last time they accrued XVS"
      },
      "venusVAIState()": {
        "notice": "The Venus VAI state"
      }
    },
    "notice": "This is the implementation contract for the VAIUnitroller proxy",
    "version": 1
  },
  "storageLayout": {
    "storage": [
      {
        "astId": 47980,
        "contract": "contracts/Tokens/VAI/VAIController.sol:VAIController",
        "label": "admin",
        "offset": 0,
        "slot": "0",
        "type": "t_address"
      },
      {
        "astId": 47983,
        "contract": "contracts/Tokens/VAI/VAIController.sol:VAIController",
        "label": "pendingAdmin",
        "offset": 0,
        "slot": "1",
        "type": "t_address"
      },
      {
        "astId": 47986,
        "contract": "contracts/Tokens/VAI/VAIController.sol:VAIController",
        "label": "vaiControllerImplementation",
        "offset": 0,
        "slot": "2",
        "type": "t_address"
      },
      {
        "astId": 47989,
        "contract": "contracts/Tokens/VAI/VAIController.sol:VAIController",
        "label": "pendingVAIControllerImplementation",
        "offset": 0,
        "slot": "3",
        "type": "t_address"
      },
      {
        "astId": 47995,
        "contract": "contracts/Tokens/VAI/VAIController.sol:VAIController",
        "label": "comptroller",
        "offset": 0,
        "slot": "4",
        "type": "t_contract(ComptrollerInterface)7197"
      },
      {
        "astId": 48006,
        "contract": "contracts/Tokens/VAI/VAIController.sol:VAIController",
        "label": "venusVAIState",
        "offset": 0,
        "slot": "5",
        "type": "t_struct(VenusVAIState)48002_storage"
      },
      {
        "astId": 48009,
        "contract": "contracts/Tokens/VAI/VAIController.sol:VAIController",
        "label": "isVenusVAIInitialized",
        "offset": 0,
        "slot": "6",
        "type": "t_bool"
      },
      {
        "astId": 48014,
        "contract": "contracts/Tokens/VAI/VAIController.sol:VAIController",
        "label": "venusVAIMinterIndex",
        "offset": 0,
        "slot": "7",
        "type": "t_mapping(t_address,t_uint256)"
      },
      {
        "astId": 48020,
        "contract": "contracts/Tokens/VAI/VAIController.sol:VAIController",
        "label": "treasuryGuardian",
        "offset": 0,
        "slot": "8",
        "type": "t_address"
      },
      {
        "astId": 48023,
        "contract": "contracts/Tokens/VAI/VAIController.sol:VAIController",
        "label": "treasuryAddress",
        "offset": 0,
        "slot": "9",
        "type": "t_address"
      },
      {
        "astId": 48026,
        "contract": "contracts/Tokens/VAI/VAIController.sol:VAIController",
        "label": "treasuryPercent",
        "offset": 0,
        "slot": "10",
        "type": "t_uint256"
      },
      {
        "astId": 48029,
        "contract": "contracts/Tokens/VAI/VAIController.sol:VAIController",
        "label": "_notEntered",
        "offset": 0,
        "slot": "11",
        "type": "t_bool"
      },
      {
        "astId": 48032,
        "contract": "contracts/Tokens/VAI/VAIController.sol:VAIController",
        "label": "baseRateMantissa",
        "offset": 0,
        "slot": "12",
        "type": "t_uint256"
      },
      {
        "astId": 48035,
        "contract": "contracts/Tokens/VAI/VAIController.sol:VAIController",
        "label": "floatRateMantissa",
        "offset": 0,
        "slot": "13",
        "type": "t_uint256"
      },
      {
        "astId": 48038,
        "contract": "contracts/Tokens/VAI/VAIController.sol:VAIController",
        "label": "receiver",
        "offset": 0,
        "slot": "14",
        "type": "t_address"
      },
      {
        "astId": 48041,
        "contract": "contracts/Tokens/VAI/VAIController.sol:VAIController",
        "label": "vaiMintIndex",
        "offset": 0,
        "slot": "15",
        "type": "t_uint256"
      },
      {
        "astId": 48044,
        "contract": "contracts/Tokens/VAI/VAIController.sol:VAIController",
        "label": "accrualBlockNumber",
        "offset": 0,
        "slot": "16",
        "type": "t_uint256"
      },
      {
        "astId": 48049,
        "contract": "contracts/Tokens/VAI/VAIController.sol:VAIController",
        "label": "vaiMinterInterestIndex",
        "offset": 0,
        "slot": "17",
        "type": "t_mapping(t_address,t_uint256)"
      },
      {
        "astId": 48054,
        "contract": "contracts/Tokens/VAI/VAIController.sol:VAIController",
        "label": "pastVAIInterest",
        "offset": 0,
        "slot": "18",
        "type": "t_mapping(t_address,t_uint256)"
      },
      {
        "astId": 48057,
        "contract": "contracts/Tokens/VAI/VAIController.sol:VAIController",
        "label": "mintCap",
        "offset": 0,
        "slot": "19",
        "type": "t_uint256"
      },
      {
        "astId": 48060,
        "contract": "contracts/Tokens/VAI/VAIController.sol:VAIController",
        "label": "accessControl",
        "offset": 0,
        "slot": "20",
        "type": "t_address"
      },
      {
        "astId": 48066,
        "contract": "contracts/Tokens/VAI/VAIController.sol:VAIController",
        "label": "prime",
        "offset": 0,
        "slot": "21",
        "type": "t_address"
      },
      {
        "astId": 48069,
        "contract": "contracts/Tokens/VAI/VAIController.sol:VAIController",
        "label": "mintEnabledOnlyForPrimeHolder",
        "offset": 20,
        "slot": "21",
        "type": "t_bool"
      },
      {
        "astId": 48075,
        "contract": "contracts/Tokens/VAI/VAIController.sol:VAIController",
        "label": "vai",
        "offset": 0,
        "slot": "22",
        "type": "t_address"
      }
    ],
    "types": {
      "t_address": {
        "encoding": "inplace",
        "label": "address",
        "numberOfBytes": "20"
      },
      "t_bool": {
        "encoding": "inplace",
        "label": "bool",
        "numberOfBytes": "1"
      },
      "t_contract(ComptrollerInterface)7197": {
        "encoding": "inplace",
        "label": "contract ComptrollerInterface",
        "numberOfBytes": "20"
      },
      "t_mapping(t_address,t_uint256)": {
        "encoding": "mapping",
        "key": "t_address",
        "label": "mapping(address => uint256)",
        "numberOfBytes": "32",
        "value": "t_uint256"
      },
      "t_struct(VenusVAIState)48002_storage": {
        "encoding": "inplace",
        "label": "struct VAIControllerStorageG1.VenusVAIState",
        "members": [
          {
            "astId": 47998,
            "contract": "contracts/Tokens/VAI/VAIController.sol:VAIController",
            "label": "index",
            "offset": 0,
            "slot": "0",
            "type": "t_uint224"
          },
          {
            "astId": 48001,
            "contract": "contracts/Tokens/VAI/VAIController.sol:VAIController",
            "label": "block",
            "offset": 28,
            "slot": "0",
            "type": "t_uint32"
          }
        ],
        "numberOfBytes": "32"
      },
      "t_uint224": {
        "encoding": "inplace",
        "label": "uint224",
        "numberOfBytes": "28"
      },
      "t_uint256": {
        "encoding": "inplace",
        "label": "uint256",
        "numberOfBytes": "32"
      },
      "t_uint32": {
        "encoding": "inplace",
        "label": "uint32",
        "numberOfBytes": "4"
      }
    }
  }
}