{
  "address": "0x9ac3C79de233952bEBdf88A932c52fC24dD6ebcf",
  "abi": [
    {
      "anonymous": false,
      "inputs": [
        {
          "indexed": false,
          "internalType": "uint256",
          "name": "cashPrior",
          "type": "uint256"
        },
        {
          "indexed": false,
          "internalType": "uint256",
          "name": "interestAccumulated",
          "type": "uint256"
        },
        {
          "indexed": false,
          "internalType": "uint256",
          "name": "borrowIndex",
          "type": "uint256"
        },
        {
          "indexed": false,
          "internalType": "uint256",
          "name": "totalBorrows",
          "type": "uint256"
        }
      ],
      "name": "AccrueInterest",
      "type": "event"
    },
    {
      "anonymous": false,
      "inputs": [
        {
          "indexed": true,
          "internalType": "address",
          "name": "owner",
          "type": "address"
        },
        {
          "indexed": true,
          "internalType": "address",
          "name": "spender",
          "type": "address"
        },
        {
          "indexed": false,
          "internalType": "uint256",
          "name": "amount",
          "type": "uint256"
        }
      ],
      "name": "Approval",
      "type": "event"
    },
    {
      "anonymous": false,
      "inputs": [
        {
          "indexed": false,
          "internalType": "address",
          "name": "borrower",
          "type": "address"
        },
        {
          "indexed": false,
          "internalType": "uint256",
          "name": "borrowAmount",
          "type": "uint256"
        },
        {
          "indexed": false,
          "internalType": "uint256",
          "name": "accountBorrows",
          "type": "uint256"
        },
        {
          "indexed": false,
          "internalType": "uint256",
          "name": "totalBorrows",
          "type": "uint256"
        }
      ],
      "name": "Borrow",
      "type": "event"
    },
    {
      "anonymous": false,
      "inputs": [
        {
          "indexed": false,
          "internalType": "uint256",
          "name": "error",
          "type": "uint256"
        },
        {
          "indexed": false,
          "internalType": "uint256",
          "name": "info",
          "type": "uint256"
        },
        {
          "indexed": false,
          "internalType": "uint256",
          "name": "detail",
          "type": "uint256"
        }
      ],
      "name": "Failure",
      "type": "event"
    },
    {
      "anonymous": false,
      "inputs": [
        {
          "indexed": false,
          "internalType": "address",
          "name": "liquidator",
          "type": "address"
        },
        {
          "indexed": false,
          "internalType": "address",
          "name": "borrower",
          "type": "address"
        },
        {
          "indexed": false,
          "internalType": "uint256",
          "name": "repayAmount",
          "type": "uint256"
        },
        {
          "indexed": false,
          "internalType": "address",
          "name": "vTokenCollateral",
          "type": "address"
        },
        {
          "indexed": false,
          "internalType": "uint256",
          "name": "seizeTokens",
          "type": "uint256"
        }
      ],
      "name": "LiquidateBorrow",
      "type": "event"
    },
    {
      "anonymous": false,
      "inputs": [
        {
          "indexed": false,
          "internalType": "address",
          "name": "minter",
          "type": "address"
        },
        {
          "indexed": false,
          "internalType": "uint256",
          "name": "mintAmount",
          "type": "uint256"
        },
        {
          "indexed": false,
          "internalType": "uint256",
          "name": "mintTokens",
          "type": "uint256"
        },
        {
          "indexed": false,
          "internalType": "uint256",
          "name": "totalSupply",
          "type": "uint256"
        }
      ],
      "name": "Mint",
      "type": "event"
    },
    {
      "anonymous": false,
      "inputs": [
        {
          "indexed": false,
          "internalType": "address",
          "name": "payer",
          "type": "address"
        },
        {
          "indexed": false,
          "internalType": "address",
          "name": "receiver",
          "type": "address"
        },
        {
          "indexed": false,
          "internalType": "uint256",
          "name": "mintAmount",
          "type": "uint256"
        },
        {
          "indexed": false,
          "internalType": "uint256",
          "name": "mintTokens",
          "type": "uint256"
        },
        {
          "indexed": false,
          "internalType": "uint256",
          "name": "totalSupply",
          "type": "uint256"
        }
      ],
      "name": "MintBehalf",
      "type": "event"
    },
    {
      "anonymous": false,
      "inputs": [
        {
          "indexed": false,
          "internalType": "address",
          "name": "oldAccessControlAddress",
          "type": "address"
        },
        {
          "indexed": false,
          "internalType": "address",
          "name": "newAccessControlAddress",
          "type": "address"
        }
      ],
      "name": "NewAccessControlManager",
      "type": "event"
    },
    {
      "anonymous": false,
      "inputs": [
        {
          "indexed": false,
          "internalType": "address",
          "name": "oldAdmin",
          "type": "address"
        },
        {
          "indexed": false,
          "internalType": "address",
          "name": "newAdmin",
          "type": "address"
        }
      ],
      "name": "NewAdmin",
      "type": "event"
    },
    {
      "anonymous": false,
      "inputs": [
        {
          "indexed": false,
          "internalType": "contract ComptrollerInterface",
          "name": "oldComptroller",
          "type": "address"
        },
        {
          "indexed": false,
          "internalType": "contract ComptrollerInterface",
          "name": "newComptroller",
          "type": "address"
        }
      ],
      "name": "NewComptroller",
      "type": "event"
    },
    {
      "anonymous": false,
      "inputs": [
        {
          "indexed": false,
          "internalType": "contract InterestRateModel",
          "name": "oldInterestRateModel",
          "type": "address"
        },
        {
          "indexed": false,
          "internalType": "contract InterestRateModel",
          "name": "newInterestRateModel",
          "type": "address"
        }
      ],
      "name": "NewMarketInterestRateModel",
      "type": "event"
    },
    {
      "anonymous": false,
      "inputs": [
        {
          "indexed": false,
          "internalType": "address",
          "name": "oldPendingAdmin",
          "type": "address"
        },
        {
          "indexed": false,
          "internalType": "address",
          "name": "newPendingAdmin",
          "type": "address"
        }
      ],
      "name": "NewPendingAdmin",
      "type": "event"
    },
    {
      "anonymous": false,
      "inputs": [
        {
          "indexed": true,
          "internalType": "address",
          "name": "oldProtocolShareReserve",
          "type": "address"
        },
        {
          "indexed": true,
          "internalType": "address",
          "name": "newProtocolShareReserve",
          "type": "address"
        }
      ],
      "name": "NewProtocolShareReserve",
      "type": "event"
    },
    {
      "anonymous": false,
      "inputs": [
        {
          "indexed": false,
          "internalType": "uint256",
          "name": "oldReduceReservesBlockDelta",
          "type": "uint256"
        },
        {
          "indexed": false,
          "internalType": "uint256",
          "name": "newReduceReservesBlockDelta",
          "type": "uint256"
        }
      ],
      "name": "NewReduceReservesBlockDelta",
      "type": "event"
    },
    {
      "anonymous": false,
      "inputs": [
        {
          "indexed": false,
          "internalType": "uint256",
          "name": "oldReserveFactorMantissa",
          "type": "uint256"
        },
        {
          "indexed": false,
          "internalType": "uint256",
          "name": "newReserveFactorMantissa",
          "type": "uint256"
        }
      ],
      "name": "NewReserveFactor",
      "type": "event"
    },
    {
      "anonymous": false,
      "inputs": [
        {
          "indexed": false,
          "internalType": "address",
          "name": "redeemer",
          "type": "address"
        },
        {
          "indexed": false,
          "internalType": "uint256",
          "name": "redeemAmount",
          "type": "uint256"
        },
        {
          "indexed": false,
          "internalType": "uint256",
          "name": "redeemTokens",
          "type": "uint256"
        },
        {
          "indexed": false,
          "internalType": "uint256",
          "name": "totalSupply",
          "type": "uint256"
        }
      ],
      "name": "Redeem",
      "type": "event"
    },
    {
      "anonymous": false,
      "inputs": [
        {
          "indexed": false,
          "internalType": "address",
          "name": "redeemer",
          "type": "address"
        },
        {
          "indexed": false,
          "internalType": "uint256",
          "name": "feeAmount",
          "type": "uint256"
        },
        {
          "indexed": false,
          "internalType": "uint256",
          "name": "redeemTokens",
          "type": "uint256"
        }
      ],
      "name": "RedeemFee",
      "type": "event"
    },
    {
      "anonymous": false,
      "inputs": [
        {
          "indexed": false,
          "internalType": "address",
          "name": "payer",
          "type": "address"
        },
        {
          "indexed": false,
          "internalType": "address",
          "name": "borrower",
          "type": "address"
        },
        {
          "indexed": false,
          "internalType": "uint256",
          "name": "repayAmount",
          "type": "uint256"
        },
        {
          "indexed": false,
          "internalType": "uint256",
          "name": "accountBorrows",
          "type": "uint256"
        },
        {
          "indexed": false,
          "internalType": "uint256",
          "name": "totalBorrows",
          "type": "uint256"
        }
      ],
      "name": "RepayBorrow",
      "type": "event"
    },
    {
      "anonymous": false,
      "inputs": [
        {
          "indexed": false,
          "internalType": "address",
          "name": "benefactor",
          "type": "address"
        },
        {
          "indexed": false,
          "internalType": "uint256",
          "name": "addAmount",
          "type": "uint256"
        },
        {
          "indexed": false,
          "internalType": "uint256",
          "name": "newTotalReserves",
          "type": "uint256"
        }
      ],
      "name": "ReservesAdded",
      "type": "event"
    },
    {
      "anonymous": false,
      "inputs": [
        {
          "indexed": false,
          "internalType": "address",
          "name": "protocolShareReserve",
          "type": "address"
        },
        {
          "indexed": false,
          "internalType": "uint256",
          "name": "reduceAmount",
          "type": "uint256"
        },
        {
          "indexed": false,
          "internalType": "uint256",
          "name": "newTotalReserves",
          "type": "uint256"
        }
      ],
      "name": "ReservesReduced",
      "type": "event"
    },
    {
      "anonymous": false,
      "inputs": [
        {
          "indexed": true,
          "internalType": "address",
          "name": "from",
          "type": "address"
        },
        {
          "indexed": true,
          "internalType": "address",
          "name": "to",
          "type": "address"
        },
        {
          "indexed": false,
          "internalType": "uint256",
          "name": "amount",
          "type": "uint256"
        }
      ],
      "name": "Transfer",
      "type": "event"
    },
    {
      "constant": false,
      "inputs": [],
      "name": "_acceptAdmin",
      "outputs": [
        {
          "internalType": "uint256",
          "name": "",
          "type": "uint256"
        }
      ],
      "payable": false,
      "stateMutability": "nonpayable",
      "type": "function"
    },
    {
      "constant": false,
      "inputs": [
        {
          "internalType": "uint256",
          "name": "addAmount",
          "type": "uint256"
        }
      ],
      "name": "_addReserves",
      "outputs": [
        {
          "internalType": "uint256",
          "name": "",
          "type": "uint256"
        }
      ],
      "payable": false,
      "stateMutability": "nonpayable",
      "type": "function"
    },
    {
      "constant": false,
      "inputs": [
        {
          "internalType": "uint256",
          "name": "reduceAmount_",
          "type": "uint256"
        }
      ],
      "name": "_reduceReserves",
      "outputs": [
        {
          "internalType": "uint256",
          "name": "",
          "type": "uint256"
        }
      ],
      "payable": false,
      "stateMutability": "nonpayable",
      "type": "function"
    },
    {
      "constant": false,
      "inputs": [
        {
          "internalType": "contract ComptrollerInterface",
          "name": "newComptroller",
          "type": "address"
        }
      ],
      "name": "_setComptroller",
      "outputs": [
        {
          "internalType": "uint256",
          "name": "",
          "type": "uint256"
        }
      ],
      "payable": false,
      "stateMutability": "nonpayable",
      "type": "function"
    },
    {
      "constant": false,
      "inputs": [
        {
          "internalType": "contract InterestRateModel",
          "name": "newInterestRateModel_",
          "type": "address"
        }
      ],
      "name": "_setInterestRateModel",
      "outputs": [
        {
          "internalType": "uint256",
          "name": "",
          "type": "uint256"
        }
      ],
      "payable": false,
      "stateMutability": "nonpayable",
      "type": "function"
    },
    {
      "constant": false,
      "inputs": [
        {
          "internalType": "address payable",
          "name": "newPendingAdmin",
          "type": "address"
        }
      ],
      "name": "_setPendingAdmin",
      "outputs": [
        {
          "internalType": "uint256",
          "name": "",
          "type": "uint256"
        }
      ],
      "payable": false,
      "stateMutability": "nonpayable",
      "type": "function"
    },
    {
      "constant": false,
      "inputs": [
        {
          "internalType": "uint256",
          "name": "newReserveFactorMantissa_",
          "type": "uint256"
        }
      ],
      "name": "_setReserveFactor",
      "outputs": [
        {
          "internalType": "uint256",
          "name": "",
          "type": "uint256"
        }
      ],
      "payable": false,
      "stateMutability": "nonpayable",
      "type": "function"
    },
    {
      "constant": true,
      "inputs": [],
      "name": "accessControlManager",
      "outputs": [
        {
          "internalType": "address",
          "name": "",
          "type": "address"
        }
      ],
      "payable": false,
      "stateMutability": "view",
      "type": "function"
    },
    {
      "constant": true,
      "inputs": [],
      "name": "accrualBlockNumber",
      "outputs": [
        {
          "internalType": "uint256",
          "name": "",
          "type": "uint256"
        }
      ],
      "payable": false,
      "stateMutability": "view",
      "type": "function"
    },
    {
      "constant": false,
      "inputs": [],
      "name": "accrueInterest",
      "outputs": [
        {
          "internalType": "uint256",
          "name": "",
          "type": "uint256"
        }
      ],
      "payable": false,
      "stateMutability": "nonpayable",
      "type": "function"
    },
    {
      "constant": true,
      "inputs": [],
      "name": "admin",
      "outputs": [
        {
          "internalType": "address payable",
          "name": "",
          "type": "address"
        }
      ],
      "payable": false,
      "stateMutability": "view",
      "type": "function"
    },
    {
      "constant": true,
      "inputs": [
        {
          "internalType": "address",
          "name": "owner",
          "type": "address"
        },
        {
          "internalType": "address",
          "name": "spender",
          "type": "address"
        }
      ],
      "name": "allowance",
      "outputs": [
        {
          "internalType": "uint256",
          "name": "",
          "type": "uint256"
        }
      ],
      "payable": false,
      "stateMutability": "view",
      "type": "function"
    },
    {
      "constant": false,
      "inputs": [
        {
          "internalType": "address",
          "name": "spender",
          "type": "address"
        },
        {
          "internalType": "uint256",
          "name": "amount",
          "type": "uint256"
        }
      ],
      "name": "approve",
      "outputs": [
        {
          "internalType": "bool",
          "name": "",
          "type": "bool"
        }
      ],
      "payable": false,
      "stateMutability": "nonpayable",
      "type": "function"
    },
    {
      "constant": true,
      "inputs": [
        {
          "internalType": "address",
          "name": "owner",
          "type": "address"
        }
      ],
      "name": "balanceOf",
      "outputs": [
        {
          "internalType": "uint256",
          "name": "",
          "type": "uint256"
        }
      ],
      "payable": false,
      "stateMutability": "view",
      "type": "function"
    },
    {
      "constant": false,
      "inputs": [
        {
          "internalType": "address",
          "name": "owner",
          "type": "address"
        }
      ],
      "name": "balanceOfUnderlying",
      "outputs": [
        {
          "internalType": "uint256",
          "name": "",
          "type": "uint256"
        }
      ],
      "payable": false,
      "stateMutability": "nonpayable",
      "type": "function"
    },
    {
      "constant": false,
      "inputs": [
        {
          "internalType": "uint256",
          "name": "borrowAmount",
          "type": "uint256"
        }
      ],
      "name": "borrow",
      "outputs": [
        {
          "internalType": "uint256",
          "name": "",
          "type": "uint256"
        }
      ],
      "payable": false,
      "stateMutability": "nonpayable",
      "type": "function"
    },
    {
      "constant": false,
      "inputs": [
        {
          "internalType": "address",
          "name": "account",
          "type": "address"
        }
      ],
      "name": "borrowBalanceCurrent",
      "outputs": [
        {
          "internalType": "uint256",
          "name": "",
          "type": "uint256"
        }
      ],
      "payable": false,
      "stateMutability": "nonpayable",
      "type": "function"
    },
    {
      "constant": true,
      "inputs": [
        {
          "internalType": "address",
          "name": "account",
          "type": "address"
        }
      ],
      "name": "borrowBalanceStored",
      "outputs": [
        {
          "internalType": "uint256",
          "name": "",
          "type": "uint256"
        }
      ],
      "payable": false,
      "stateMutability": "view",
      "type": "function"
    },
    {
      "constant": false,
      "inputs": [
        {
          "internalType": "address",
          "name": "borrower",
          "type": "address"
        },
        {
          "internalType": "uint256",
          "name": "borrowAmount",
          "type": "uint256"
        }
      ],
      "name": "borrowBehalf",
      "outputs": [
        {
          "internalType": "uint256",
          "name": "",
          "type": "uint256"
        }
      ],
      "payable": false,
      "stateMutability": "nonpayable",
      "type": "function"
    },
    {
      "constant": true,
      "inputs": [],
      "name": "borrowIndex",
      "outputs": [
        {
          "internalType": "uint256",
          "name": "",
          "type": "uint256"
        }
      ],
      "payable": false,
      "stateMutability": "view",
      "type": "function"
    },
    {
      "constant": true,
      "inputs": [],
      "name": "borrowRatePerBlock",
      "outputs": [
        {
          "internalType": "uint256",
          "name": "",
          "type": "uint256"
        }
      ],
      "payable": false,
      "stateMutability": "view",
      "type": "function"
    },
    {
      "constant": true,
      "inputs": [],
      "name": "comptroller",
      "outputs": [
        {
          "internalType": "contract ComptrollerInterface",
          "name": "",
          "type": "address"
        }
      ],
      "payable": false,
      "stateMutability": "view",
      "type": "function"
    },
    {
      "constant": true,
      "inputs": [],
      "name": "decimals",
      "outputs": [
        {
          "internalType": "uint8",
          "name": "",
          "type": "uint8"
        }
      ],
      "payable": false,
      "stateMutability": "view",
      "type": "function"
    },
    {
      "constant": false,
      "inputs": [],
      "name": "exchangeRateCurrent",
      "outputs": [
        {
          "internalType": "uint256",
          "name": "",
          "type": "uint256"
        }
      ],
      "payable": false,
      "stateMutability": "nonpayable",
      "type": "function"
    },
    {
      "constant": true,
      "inputs": [],
      "name": "exchangeRateStored",
      "outputs": [
        {
          "internalType": "uint256",
          "name": "",
          "type": "uint256"
        }
      ],
      "payable": false,
      "stateMutability": "view",
      "type": "function"
    },
    {
      "constant": true,
      "inputs": [
        {
          "internalType": "address",
          "name": "account",
          "type": "address"
        }
      ],
      "name": "getAccountSnapshot",
      "outputs": [
        {
          "internalType": "uint256",
          "name": "",
          "type": "uint256"
        },
        {
          "internalType": "uint256",
          "name": "",
          "type": "uint256"
        },
        {
          "internalType": "uint256",
          "name": "",
          "type": "uint256"
        },
        {
          "internalType": "uint256",
          "name": "",
          "type": "uint256"
        }
      ],
      "payable": false,
      "stateMutability": "view",
      "type": "function"
    },
    {
      "constant": true,
      "inputs": [],
      "name": "getCash",
      "outputs": [
        {
          "internalType": "uint256",
          "name": "",
          "type": "uint256"
        }
      ],
      "payable": false,
      "stateMutability": "view",
      "type": "function"
    },
    {
      "constant": true,
      "inputs": [],
      "name": "implementation",
      "outputs": [
        {
          "internalType": "address",
          "name": "",
          "type": "address"
        }
      ],
      "payable": false,
      "stateMutability": "view",
      "type": "function"
    },
    {
      "constant": false,
      "inputs": [
        {
          "internalType": "address",
          "name": "underlying_",
          "type": "address"
        },
        {
          "internalType": "contract ComptrollerInterface",
          "name": "comptroller_",
          "type": "address"
        },
        {
          "internalType": "contract InterestRateModel",
          "name": "interestRateModel_",
          "type": "address"
        },
        {
          "internalType": "uint256",
          "name": "initialExchangeRateMantissa_",
          "type": "uint256"
        },
        {
          "internalType": "string",
          "name": "name_",
          "type": "string"
        },
        {
          "internalType": "string",
          "name": "symbol_",
          "type": "string"
        },
        {
          "internalType": "uint8",
          "name": "decimals_",
          "type": "uint8"
        }
      ],
      "name": "initialize",
      "outputs": [],
      "payable": false,
      "stateMutability": "nonpayable",
      "type": "function"
    },
    {
      "constant": false,
      "inputs": [
        {
          "internalType": "contract ComptrollerInterface",
          "name": "comptroller_",
          "type": "address"
        },
        {
          "internalType": "contract InterestRateModel",
          "name": "interestRateModel_",
          "type": "address"
        },
        {
          "internalType": "uint256",
          "name": "initialExchangeRateMantissa_",
          "type": "uint256"
        },
        {
          "internalType": "string",
          "name": "name_",
          "type": "string"
        },
        {
          "internalType": "string",
          "name": "symbol_",
          "type": "string"
        },
        {
          "internalType": "uint8",
          "name": "decimals_",
          "type": "uint8"
        }
      ],
      "name": "initialize",
      "outputs": [],
      "payable": false,
      "stateMutability": "nonpayable",
      "type": "function"
    },
    {
      "constant": true,
      "inputs": [],
      "name": "interestRateModel",
      "outputs": [
        {
          "internalType": "contract InterestRateModel",
          "name": "",
          "type": "address"
        }
      ],
      "payable": false,
      "stateMutability": "view",
      "type": "function"
    },
    {
      "constant": true,
      "inputs": [],
      "name": "isVToken",
      "outputs": [
        {
          "internalType": "bool",
          "name": "",
          "type": "bool"
        }
      ],
      "payable": false,
      "stateMutability": "view",
      "type": "function"
    },
    {
      "constant": false,
      "inputs": [
        {
          "internalType": "address",
          "name": "borrower",
          "type": "address"
        },
        {
          "internalType": "uint256",
          "name": "repayAmount",
          "type": "uint256"
        },
        {
          "internalType": "contract VTokenInterface",
          "name": "vTokenCollateral",
          "type": "address"
        }
      ],
      "name": "liquidateBorrow",
      "outputs": [
        {
          "internalType": "uint256",
          "name": "",
          "type": "uint256"
        }
      ],
      "payable": false,
      "stateMutability": "nonpayable",
      "type": "function"
    },
    {
      "constant": false,
      "inputs": [
        {
          "internalType": "uint256",
          "name": "mintAmount",
          "type": "uint256"
        }
      ],
      "name": "mint",
      "outputs": [
        {
          "internalType": "uint256",
          "name": "",
          "type": "uint256"
        }
      ],
      "payable": false,
      "stateMutability": "nonpayable",
      "type": "function"
    },
    {
      "constant": false,
      "inputs": [
        {
          "internalType": "address",
          "name": "receiver",
          "type": "address"
        },
        {
          "internalType": "uint256",
          "name": "mintAmount",
          "type": "uint256"
        }
      ],
      "name": "mintBehalf",
      "outputs": [
        {
          "internalType": "uint256",
          "name": "",
          "type": "uint256"
        }
      ],
      "payable": false,
      "stateMutability": "nonpayable",
      "type": "function"
    },
    {
      "constant": true,
      "inputs": [],
      "name": "name",
      "outputs": [
        {
          "internalType": "string",
          "name": "",
          "type": "string"
        }
      ],
      "payable": false,
      "stateMutability": "view",
      "type": "function"
    },
    {
      "constant": true,
      "inputs": [],
      "name": "pendingAdmin",
      "outputs": [
        {
          "internalType": "address payable",
          "name": "",
          "type": "address"
        }
      ],
      "payable": false,
      "stateMutability": "view",
      "type": "function"
    },
    {
      "constant": true,
      "inputs": [],
      "name": "protocolShareReserve",
      "outputs": [
        {
          "internalType": "address payable",
          "name": "",
          "type": "address"
        }
      ],
      "payable": false,
      "stateMutability": "view",
      "type": "function"
    },
    {
      "constant": false,
      "inputs": [
        {
          "internalType": "uint256",
          "name": "redeemTokens",
          "type": "uint256"
        }
      ],
      "name": "redeem",
      "outputs": [
        {
          "internalType": "uint256",
          "name": "",
          "type": "uint256"
        }
      ],
      "payable": false,
      "stateMutability": "nonpayable",
      "type": "function"
    },
    {
      "constant": false,
      "inputs": [
        {
          "internalType": "address",
          "name": "redeemer",
          "type": "address"
        },
        {
          "internalType": "uint256",
          "name": "redeemTokens",
          "type": "uint256"
        }
      ],
      "name": "redeemBehalf",
      "outputs": [
        {
          "internalType": "uint256",
          "name": "",
          "type": "uint256"
        }
      ],
      "payable": false,
      "stateMutability": "nonpayable",
      "type": "function"
    },
    {
      "constant": false,
      "inputs": [
        {
          "internalType": "uint256",
          "name": "redeemAmount",
          "type": "uint256"
        }
      ],
      "name": "redeemUnderlying",
      "outputs": [
        {
          "internalType": "uint256",
          "name": "",
          "type": "uint256"
        }
      ],
      "payable": false,
      "stateMutability": "nonpayable",
      "type": "function"
    },
    {
      "constant": false,
      "inputs": [
        {
          "internalType": "address",
          "name": "redeemer",
          "type": "address"
        },
        {
          "internalType": "uint256",
          "name": "redeemAmount",
          "type": "uint256"
        }
      ],
      "name": "redeemUnderlyingBehalf",
      "outputs": [
        {
          "internalType": "uint256",
          "name": "",
          "type": "uint256"
        }
      ],
      "payable": false,
      "stateMutability": "nonpayable",
      "type": "function"
    },
    {
      "constant": true,
      "inputs": [],
      "name": "reduceReservesBlockDelta",
      "outputs": [
        {
          "internalType": "uint256",
          "name": "",
          "type": "uint256"
        }
      ],
      "payable": false,
      "stateMutability": "view",
      "type": "function"
    },
    {
      "constant": true,
      "inputs": [],
      "name": "reduceReservesBlockNumber",
      "outputs": [
        {
          "internalType": "uint256",
          "name": "",
          "type": "uint256"
        }
      ],
      "payable": false,
      "stateMutability": "view",
      "type": "function"
    },
    {
      "constant": false,
      "inputs": [
        {
          "internalType": "uint256",
          "name": "repayAmount",
          "type": "uint256"
        }
      ],
      "name": "repayBorrow",
      "outputs": [
        {
          "internalType": "uint256",
          "name": "",
          "type": "uint256"
        }
      ],
      "payable": false,
      "stateMutability": "nonpayable",
      "type": "function"
    },
    {
      "constant": false,
      "inputs": [
        {
          "internalType": "address",
          "name": "borrower",
          "type": "address"
        },
        {
          "internalType": "uint256",
          "name": "repayAmount",
          "type": "uint256"
        }
      ],
      "name": "repayBorrowBehalf",
      "outputs": [
        {
          "internalType": "uint256",
          "name": "",
          "type": "uint256"
        }
      ],
      "payable": false,
      "stateMutability": "nonpayable",
      "type": "function"
    },
    {
      "constant": true,
      "inputs": [],
      "name": "reserveFactorMantissa",
      "outputs": [
        {
          "internalType": "uint256",
          "name": "",
          "type": "uint256"
        }
      ],
      "payable": false,
      "stateMutability": "view",
      "type": "function"
    },
    {
      "constant": false,
      "inputs": [
        {
          "internalType": "address",
          "name": "liquidator",
          "type": "address"
        },
        {
          "internalType": "address",
          "name": "borrower",
          "type": "address"
        },
        {
          "internalType": "uint256",
          "name": "seizeTokens",
          "type": "uint256"
        }
      ],
      "name": "seize",
      "outputs": [
        {
          "internalType": "uint256",
          "name": "",
          "type": "uint256"
        }
      ],
      "payable": false,
      "stateMutability": "nonpayable",
      "type": "function"
    },
    {
      "constant": false,
      "inputs": [
        {
          "internalType": "address",
          "name": "newAccessControlManagerAddress",
          "type": "address"
        }
      ],
      "name": "setAccessControlManager",
      "outputs": [
        {
          "internalType": "uint256",
          "name": "",
          "type": "uint256"
        }
      ],
      "payable": false,
      "stateMutability": "nonpayable",
      "type": "function"
    },
    {
      "constant": false,
      "inputs": [
        {
          "internalType": "address payable",
          "name": "protcolShareReserve_",
          "type": "address"
        }
      ],
      "name": "setProtocolShareReserve",
      "outputs": [],
      "payable": false,
      "stateMutability": "nonpayable",
      "type": "function"
    },
    {
      "constant": false,
      "inputs": [
        {
          "internalType": "uint256",
          "name": "newReduceReservesBlockDelta_",
          "type": "uint256"
        }
      ],
      "name": "setReduceReservesBlockDelta",
      "outputs": [],
      "payable": false,
      "stateMutability": "nonpayable",
      "type": "function"
    },
    {
      "constant": true,
      "inputs": [],
      "name": "supplyRatePerBlock",
      "outputs": [
        {
          "internalType": "uint256",
          "name": "",
          "type": "uint256"
        }
      ],
      "payable": false,
      "stateMutability": "view",
      "type": "function"
    },
    {
      "constant": true,
      "inputs": [],
      "name": "symbol",
      "outputs": [
        {
          "internalType": "string",
          "name": "",
          "type": "string"
        }
      ],
      "payable": false,
      "stateMutability": "view",
      "type": "function"
    },
    {
      "constant": true,
      "inputs": [],
      "name": "totalBorrows",
      "outputs": [
        {
          "internalType": "uint256",
          "name": "",
          "type": "uint256"
        }
      ],
      "payable": false,
      "stateMutability": "view",
      "type": "function"
    },
    {
      "constant": false,
      "inputs": [],
      "name": "totalBorrowsCurrent",
      "outputs": [
        {
          "internalType": "uint256",
          "name": "",
          "type": "uint256"
        }
      ],
      "payable": false,
      "stateMutability": "nonpayable",
      "type": "function"
    },
    {
      "constant": true,
      "inputs": [],
      "name": "totalReserves",
      "outputs": [
        {
          "internalType": "uint256",
          "name": "",
          "type": "uint256"
        }
      ],
      "payable": false,
      "stateMutability": "view",
      "type": "function"
    },
    {
      "constant": true,
      "inputs": [],
      "name": "totalSupply",
      "outputs": [
        {
          "internalType": "uint256",
          "name": "",
          "type": "uint256"
        }
      ],
      "payable": false,
      "stateMutability": "view",
      "type": "function"
    },
    {
      "constant": false,
      "inputs": [
        {
          "internalType": "address",
          "name": "dst",
          "type": "address"
        },
        {
          "internalType": "uint256",
          "name": "amount",
          "type": "uint256"
        }
      ],
      "name": "transfer",
      "outputs": [
        {
          "internalType": "bool",
          "name": "",
          "type": "bool"
        }
      ],
      "payable": false,
      "stateMutability": "nonpayable",
      "type": "function"
    },
    {
      "constant": false,
      "inputs": [
        {
          "internalType": "address",
          "name": "src",
          "type": "address"
        },
        {
          "internalType": "address",
          "name": "dst",
          "type": "address"
        },
        {
          "internalType": "uint256",
          "name": "amount",
          "type": "uint256"
        }
      ],
      "name": "transferFrom",
      "outputs": [
        {
          "internalType": "bool",
          "name": "",
          "type": "bool"
        }
      ],
      "payable": false,
      "stateMutability": "nonpayable",
      "type": "function"
    },
    {
      "constant": true,
      "inputs": [],
      "name": "underlying",
      "outputs": [
        {
          "internalType": "address",
          "name": "",
          "type": "address"
        }
      ],
      "payable": false,
      "stateMutability": "view",
      "type": "function"
    },
    {
      "constant": false,
      "inputs": [
        {
          "internalType": "address",
          "name": "newUnderlying",
          "type": "address"
        }
      ],
      "name": "updateUnderlying",
      "outputs": [],
      "payable": false,
      "stateMutability": "nonpayable",
      "type": "function"
    }
  ],
  "transactionHash": "0xba9de4d582282b9914e8939aeca529b7a00e864187965b2c67fa1a7c26287fcb",
  "args": [],
  "numDeployments": 1,
  "solcInputHash": "42f81d8e85977bc834873ceceb7c8672",
  "bytecode": "0x608060405234801561001057600080fd5b50615a7280620000216000396000f3fe608060405234801561001057600080fd5b50600436106103af5760003560e01c806373acee98116101f4578063b71d1a0c1161011a578063e9a44fd9116100ad578063f5e3c4621161007c578063f5e3c46214610c75578063f851a44014610cab578063f8f9da2814610cb3578063fca7820b14610cbb576103af565b8063e9a44fd914610c37578063e9c714f214610c3f578063f2b3abbd14610c47578063f3fdb15a14610c6d576103af565b8063d1109c2f116100e9578063d1109c2f14610bb8578063db006a7514610bc0578063dd62ed3e14610bdd578063df3a516e14610c0b576103af565b8063b71d1a0c14610b21578063bd6d894d14610b47578063c37f68e214610b4f578063c5ebeaec14610b9b576103af565b8063a0712d6811610192578063ae96f14111610161578063ae96f14114610ad3578063ae9d70b014610adb578063b2a02ff114610ae3578063b4a0bdf314610b19576103af565b8063a0712d6814610a7a578063a6afed9514610a97578063a9059cbb14610a9f578063aa5af0fd14610acb576103af565b80638f840ddd116101ce5780638f840ddd146108f657806395d89b41146108fe57806395dd91931461090657806399d8c1b41461092c576103af565b806373acee98146108a5578063852a12e3146108ad578063856e5bb3146108ca576103af565b806326782247116102d95780634576b5db11610277578063601a0bf111610246578063601a0bf1146108525780636c540baf1461086f5780636f307dc31461087757806370a082311461087f576103af565b80634576b5db1461081457806347bd37181461083a5780635c60da1b146108425780635fe3b5671461084a576103af565b80633b1d21a2116102b35780633b1d21a2146107c15780633d9ea3a1146107c95780633e941010146107d157806342f82260146107ee576103af565b80632678224714610759578063313ce5671461077d5780633af9e6691461079b576103af565b806318160ddd1161035157806323323e031161032057806323323e03146106ae57806323b872dd146106da5780632464176b146107105780632608f8181461072d576103af565b806318160ddd1461051c578063182df0f5146105245780631a31d4651461052c578063210bc05214610682576103af565b80630e7527021161038d5780630e752702146104a9578063107568df146104c6578063173b9904146104ee57806317bfdfbc146104f6576103af565b806306fdde03146103b4578063095ea7b3146104315780630e32cb8614610471575b600080fd5b6103bc610cd8565b6040805160208082528351818301528351919283929083019185019080838360005b838110156103f65781810151838201526020016103de565b50505050905090810190601f1680156104235780820380516001836020036101000a031916815260200191505b509250505060405180910390f35b61045d6004803603604081101561044757600080fd5b506001600160a01b038135169060200135610d65565b604080519115158252519081900360200190f35b6104976004803603602081101561048757600080fd5b50356001600160a01b0316610dcb565b60408051918252519081900360200190f35b610497600480360360208110156104bf57600080fd5b5035610e4d565b6104ec600480360360208110156104dc57600080fd5b50356001600160a01b0316610e61565b005b610497610ecf565b6104976004803603602081101561050c57600080fd5b50356001600160a01b0316610ed5565b610497610f95565b610497610f9b565b6104ec600480360360e081101561054257600080fd5b6001600160a01b03823581169260208101358216926040820135909216916060820135919081019060a081016080820135600160201b81111561058457600080fd5b82018360208201111561059657600080fd5b803590602001918460018302840111600160201b831117156105b757600080fd5b91908080601f0160208091040260200160405190810160405280939291908181526020018383808284376000920191909152509295949360208101935035915050600160201b81111561060957600080fd5b82018360208201111561061b57600080fd5b803590602001918460018302840111600160201b8311171561063c57600080fd5b91908080601f0160208091040260200160405190810160405280939291908181526020018383808284376000920191909152509295505050903560ff169150610fbc9050565b6104976004803603604081101561069857600080fd5b506001600160a01b03813516906020013561105b565b610497600480360360408110156106c457600080fd5b506001600160a01b03813516906020013561113c565b61045d600480360360608110156106f057600080fd5b506001600160a01b03813581169160208101359091169060400135611152565b6104ec6004803603602081101561072657600080fd5b50356111c5565b6104976004803603604081101561074357600080fd5b506001600160a01b03813516906020013561126d565b61076161127a565b604080516001600160a01b039092168252519081900360200190f35b610785611289565b6040805160ff9092168252519081900360200190f35b610497600480360360208110156107b157600080fd5b50356001600160a01b0316611292565b6104976112f0565b61045d6112ff565b610497600480360360208110156107e757600080fd5b5035611304565b6104ec6004803603602081101561080457600080fd5b50356001600160a01b031661130f565b6104976004803603602081101561082a57600080fd5b50356001600160a01b0316611331565b610497611463565b610761611469565b610761611478565b6104976004803603602081101561086857600080fd5b5035611487565b610497611572565b610761611578565b6104976004803603602081101561089557600080fd5b50356001600160a01b0316611587565b6104976115a2565b610497600480360360208110156108c357600080fd5b5035611658565b610497600480360360408110156108e057600080fd5b506001600160a01b038135169060200135611665565b61049761173f565b6103bc611745565b6104976004803603602081101561091c57600080fd5b50356001600160a01b031661179d565b6104ec600480360360c081101561094257600080fd5b6001600160a01b03823581169260208101359091169160408201359190810190608081016060820135600160201b81111561097c57600080fd5b82018360208201111561098e57600080fd5b803590602001918460018302840111600160201b831117156109af57600080fd5b91908080601f0160208091040260200160405190810160405280939291908181526020018383808284376000920191909152509295949360208101935035915050600160201b811115610a0157600080fd5b820183602082011115610a1357600080fd5b803590602001918460018302840111600160201b83111715610a3457600080fd5b91908080601f0160208091040260200160405190810160405280939291908181526020018383808284376000920191909152509295505050903560ff1691506117b89050565b61049760048036036020811015610a9057600080fd5b5035611953565b61049761195f565b61045d60048036036040811015610ab557600080fd5b506001600160a01b038135169060200135611ca2565b610497611d13565b610497611d19565b610497611d1f565b61049760048036036060811015610af957600080fd5b506001600160a01b03813581169160208101359091169060400135611dbe565b610761611e2f565b61049760048036036020811015610b3757600080fd5b50356001600160a01b0316611e3e565b610497611eaf565b610b7560048036036020811015610b6557600080fd5b50356001600160a01b0316611f6b565b604080519485526020850193909352838301919091526060830152519081900360800190f35b61049760048036036020811015610bb157600080fd5b5035612000565b61049761200d565b61049760048036036020811015610bd657600080fd5b5035612013565b61049760048036036040811015610bf357600080fd5b506001600160a01b0381358116916020013516612020565b61049760048036036040811015610c2157600080fd5b506001600160a01b03813516906020013561204b565b610761612125565b610497612134565b61049760048036036020811015610c5d57600080fd5b50356001600160a01b031661222c565b6107616122a5565b61049760048036036060811015610c8b57600080fd5b506001600160a01b038135811691602081013591604090910135166122b4565b6107616122cc565b6104976122e0565b61049760048036036020811015610cd157600080fd5b5035612344565b60018054604080516020600284861615610100026000190190941693909304601f81018490048402820184019092528181529291830182828015610d5d5780601f10610d3257610100808354040283529160200191610d5d565b820191906000526020600020905b815481529060010190602001808311610d4057829003601f168201915b505050505081565b336000818152600f602090815260408083206001600160a01b038716808552908352818420869055815186815291519394909390927f8c5be1e5ebec7d5bd14f71427d1e84f3dd0314c0f7b2291e5b200ac8c7c3b925928290030190a350600192915050565b6000610dd633612401565b610ddf8261245a565b601654604080516001600160a01b039283168152918416602083015280517f66fd58e82f7b31a2a5c30e0888f3093efe4e111b00cd2b0c31fe014601293aa09281900390910190a1601680546001600160a01b0319166001600160a01b03841617905560005b90505b919050565b600080610e59836124a4565b509392505050565b610e6a33612401565b610e738161245a565b6015546040516001600160a01b038084169216907fafec95c8612496c3ecf5dddc71e393528fe29bd145fbaf9c6b496d78d7e2d79b90600090a3601580546001600160a01b0319166001600160a01b0392909216919091179055565b60085481565b6000805460ff16610f1a576040805162461bcd60e51b815260206004820152600a6024820152691c994b595b9d195c995960b21b604482015290519081900360640190fd5b6000805460ff19168155610f2c61195f565b14610f77576040805162461bcd60e51b81526020600482015260166024820152751858d8dc9d59481a5b9d195c995cdd0819985a5b195960521b604482015290519081900360640190fd5b610f808261179d565b90505b6000805460ff19166001179055919050565b600d5481565b6000806000610fa861254d565b91509150610fb5826125fc565b9150505b90565b610fca8686868686866117b8565b601180546001600160a01b0319166001600160a01b038981169190911791829055604080516318160ddd60e01b8152905192909116916318160ddd91600480820192602092909190829003018186803b15801561102657600080fd5b505afa15801561103a573d6000803e3d6000fd5b505050506040513d602081101561105057600080fd5b505050505050505050565b60055460408051630217306760e31b81526001600160a01b038581166004830152336024830152915160009392909216916310b9833891604480820192602092909190829003018186803b1580156110b257600080fd5b505afa1580156110c6573d6000803e3d6000fd5b505050506040513d60208110156110dc57600080fd5b505161112a576040805162461bcd60e51b81526020600482015260186024820152776e6f7420616e20617070726f7665642064656c656761746560401b604482015290519081900360640190fd5b611135833384612649565b9392505050565b60008061114984846126ea565b50949350505050565b6000805460ff16611197576040805162461bcd60e51b815260206004820152600a6024820152691c994b595b9d195c995960b21b604482015290519081900360640190fd5b6000805460ff191681556111ad33868686612795565b1490505b6000805460ff191660011790559392505050565b6000811161120a576040805162461bcd60e51b815260206004820152600d60248201526c125b9d985b1a5908125b9c1d5d609a1b604482015290519081900360640190fd5b61122b60405180606001604052806024815260200161594160249139612aa3565b601354604080519182526020820183905280517fc2ac513cdb57f91eb2bef4db918c285829524f549682b99717c6cb06cc0111839281900390910190a1601355565b6000806111498484612bc4565b6004546001600160a01b031681565b60035460ff1681565b600061129c6157cc565b60405180602001604052806112af611eaf565b90526001600160a01b0384166000908152600e60205260408120549192509081906112db908490612c46565b915091506112e8826125fc565b949350505050565b60006112fa612c9a565b905090565b600181565b6000610e4582612ce5565b601180546001600160a01b0319166001600160a01b0392909216919091179055565b600061133c33612401565b60055460408051623f1ee960e11b815290516001600160a01b0392831692851691627e3dd2916004808301926020929190829003018186803b15801561138157600080fd5b505afa158015611395573d6000803e3d6000fd5b505050506040513d60208110156113ab57600080fd5b50516113fe576040805162461bcd60e51b815260206004820152601c60248201527f6d61726b6572206d6574686f642072657475726e65642066616c736500000000604482015290519081900360640190fd5b600580546001600160a01b0319166001600160a01b03858116918217909255604080519284168352602083019190915280517f7ac369dbd14fa5ea3f473ed67cc9d598964a77501540ba6751eb0b3decf5870d9281900390910190a160009392505050565b600b5481565b6012546001600160a01b031681565b6005546001600160a01b031681565b6000805460ff166114cc576040805162461bcd60e51b815260206004820152600a6024820152691c994b595b9d195c995960b21b604482015290519081900360640190fd5b6000805460ff1916905560408051808201909152601881527f5f72656475636552657365727665732875696e74323536290000000000000000602082015261151390612aa3565b600061151d61195f565b905080156115435761153b81601181111561153457fe5b6030612d79565b915050610f83565b43601454141561155457600061153b565b61155d83612ddf565b9150506000805460ff19166001179055919050565b60095481565b6011546001600160a01b031681565b6001600160a01b03166000908152600e602052604090205490565b6000805460ff166115e7576040805162461bcd60e51b815260206004820152600a6024820152691c994b595b9d195c995960b21b604482015290519081900360640190fd5b6000805460ff191681556115f961195f565b14611644576040805162461bcd60e51b81526020600482015260166024820152751858d8dc9d59481a5b9d195c995cdd0819985a5b195960521b604482015290519081900360640190fd5b50600b546000805460ff1916600117905590565b6000610e45333384612f23565b60055460408051630217306760e31b81526001600160a01b038581166004830152336024830152915160009392909216916310b9833891604480820192602092909190829003018186803b1580156116bc57600080fd5b505afa1580156116d0573d6000803e3d6000fd5b505050506040513d60208110156116e657600080fd5b5051611734576040805162461bcd60e51b81526020600482015260186024820152776e6f7420616e20617070726f7665642064656c656761746560401b604482015290519081900360640190fd5b611135833384612f9e565b600c5481565b6002805460408051602060018416156101000260001901909316849004601f81018490048402820184019092528181529291830182828015610d5d5780601f10610d3257610100808354040283529160200191610d5d565b60008060006117ab8461301e565b91509150611135826125fc565b6117c133612401565b6009541580156117d15750600a54155b61180c5760405162461bcd60e51b815260040180806020018281038252602381526020018061591e6023913960400191505060405180910390fd5b60078490558361184d5760405162461bcd60e51b81526004018080602001828103825260308152602001806159656030913960400191505060405180910390fd5b600061185887611331565b905080156118ad576040805162461bcd60e51b815260206004820152601a60248201527f73657474696e6720636f6d7074726f6c6c6572206661696c6564000000000000604482015290519081900360640190fd5b43600955670de0b6b3a7640000600a556118c6866130d2565b905080156119055760405162461bcd60e51b81526004018080602001828103825260228152602001806159956022913960400191505060405180910390fd5b83516119189060019060208701906157df565b50825161192c9060029060208601906157df565b50506003805460ff90921660ff199283161790556000805490911660011790555050505050565b600080610e598361321b565b60095460009043908082141561197a57600092505050610fb9565b6000611984612c9a565b600b54600c54600a54600654604080516315f2405360e01b815260048101879052602481018690526044810185905290519596509394929391926000926001600160a01b03909216916315f24053916064808301926020929190829003018186803b1580156119f257600080fd5b505afa158015611a06573d6000803e3d6000fd5b505050506040513d6020811015611a1c57600080fd5b5051905065048c27395000811115611a7b576040805162461bcd60e51b815260206004820152601c60248201527f626f72726f772072617465206973206162737572646c79206869676800000000604482015290519081900360640190fd5b600080611a888989613295565b91509150611a95826125fc565b611a9d6157cc565b600080600080611abb60405180602001604052808a815250876132b8565b90975094506000876003811115611ace57fe5b14611b0057611aeb60096006896003811115611ae657fe5b613320565b9e505050505050505050505050505050610fb9565b611b0a858c612c46565b90975093506000876003811115611b1d57fe5b14611b3557611aeb60096001896003811115611ae657fe5b611b3f848c613386565b90975092506000876003811115611b5257fe5b14611b6a57611aeb60096004896003811115611ae657fe5b611b856040518060200160405280600854815250858c6133ac565b90975091506000876003811115611b9857fe5b14611bb057611aeb60096005896003811115611ae657fe5b611bbb858a8b6133ac565b90975090506000876003811115611bce57fe5b14611be657611aeb60096003896003811115611ae657fe5b60098e9055600a819055600b839055600c829055601454611c08908f90613295565b9097509550611c16876125fc565b6013548610611c465760148e9055818c1015611c3b57611c358c612ddf565b50611c46565b611c4482612ddf565b505b604080518d8152602081018690528082018390526060810185905290517f4dec04e750ca11537cabcd8a9eab06494de08da3735bc8871cd41250e190bc049181900360800190a160009e50505050505050505050505050505090565b6000805460ff16611ce7576040805162461bcd60e51b815260206004820152600a6024820152691c994b595b9d195c995960b21b604482015290519081900360640190fd5b6000805460ff19168155611cfd33338686612795565b1490506000805460ff1916600117905592915050565b600a5481565b60145481565b6006546000906001600160a01b031663b8168816611d3b612c9a565b600b54600c546008546040518563ffffffff1660e01b81526004018085815260200184815260200183815260200182815260200194505050505060206040518083038186803b158015611d8d57600080fd5b505afa158015611da1573d6000803e3d6000fd5b505050506040513d6020811015611db757600080fd5b5051905090565b6000805460ff16611e03576040805162461bcd60e51b815260206004820152600a6024820152691c994b595b9d195c995960b21b604482015290519081900360640190fd5b6000805460ff19169055611e1933858585613408565b90506000805460ff191660011790559392505050565b6016546001600160a01b031681565b6000611e4933612401565b600480546001600160a01b038481166001600160a01b0319831681179093556040805191909216808252602082019390935281517fca4f2f25d0898edd99413412fb94012f9e54ec8142f9b093e7720646a95b16a9929181900390910190a16000611135565b6000805460ff16611ef4576040805162461bcd60e51b815260206004820152600a6024820152691c994b595b9d195c995960b21b604482015290519081900360640190fd5b6000805460ff19168155611f0661195f565b14611f51576040805162461bcd60e51b81526020600482015260166024820152751858d8dc9d59481a5b9d195c995cdd0819985a5b195960521b604482015290519081900360640190fd5b611f59610f9b565b90506000805460ff1916600117905590565b6001600160a01b0381166000908152600e6020526040812054819081908190818080611f968961301e565b935090506000816003811115611fa857fe5b14611fc65760095b975060009650869550859450611ff99350505050565b611fce61254d565b925090506000816003811115611fe057fe5b14611fec576009611fb0565b5060009650919450925090505b9193509193565b6000610e45333384612f9e565b60135481565b6000610e45333384612649565b6001600160a01b039182166000908152600f6020908152604080832093909416825291909152205490565b60055460408051630217306760e31b81526001600160a01b038581166004830152336024830152915160009392909216916310b9833891604480820192602092909190829003018186803b1580156120a257600080fd5b505afa1580156120b6573d6000803e3d6000fd5b505050506040513d60208110156120cc57600080fd5b505161211a576040805162461bcd60e51b81526020600482015260186024820152776e6f7420616e20617070726f7665642064656c656761746560401b604482015290519081900360640190fd5b611135833384612f23565b6015546001600160a01b031681565b6004546000906001600160a01b0316331461215c5761215560016000612d79565b9050610fb9565b60038054600480546001600160a01b03818116610100818102610100600160a81b0319871617968790556001600160a01b031990931690935560408051948390048216808652929095041660208401528351909391927ff9ffabca9c8276e99321725bcb43fb076a6c66a54b7f21c4e8146d8519b417dc92908290030190a1600454604080516001600160a01b038085168252909216602083015280517fca4f2f25d0898edd99413412fb94012f9e54ec8142f9b093e7720646a95b16a99281900390910190a160009250505090565b600061226c6040518060400160405280601e81526020017f5f736574496e746572657374526174654d6f64656c2861646472657373290000815250612aa3565b600061227661195f565b9050801561229c5761229481601181111561228d57fe5b6040612d79565b915050610e48565b611135836130d2565b6006546001600160a01b031681565b6000806122c285858561366e565b5095945050505050565b60035461010090046001600160a01b031681565b6006546000906001600160a01b03166315f240536122fc612c9a565b600b54600c546040518463ffffffff1660e01b815260040180848152602001838152602001828152602001935050505060206040518083038186803b158015611d8d57600080fd5b6000805460ff16612389576040805162461bcd60e51b815260206004820152600a6024820152691c994b595b9d195c995960b21b604482015290519081900360640190fd5b6000805460ff1916905560408051808201909152601a81527f5f73657452657365727665466163746f722875696e743235362900000000000060208201526123d090612aa3565b60006123da61195f565b905080156123f85761153b8160118111156123f157fe5b6046612d79565b61155d836137a0565b6003546001600160a01b038281166101009092041614612457576040805162461bcd60e51b815260206004820152600c60248201526b155b985d5d1a1bdc9a5e995960a21b604482015290519081900360640190fd5b50565b6001600160a01b038116612457576040805162461bcd60e51b815260206004820152600c60248201526b7a65726f206164647265737360a01b604482015290519081900360640190fd5b60008054819060ff166124eb576040805162461bcd60e51b815260206004820152600a6024820152691c994b595b9d195c995960b21b604482015290519081900360640190fd5b6000805460ff191681556124fd61195f565b905080156125285761251b81601181111561251457fe5b6036612d79565b9250600091506125399050565b61253333338661381d565b92509250505b6000805460ff191660011790559092909150565b600d54600090819080612568575050600754600091506125f8565b6000612572612c9a565b9050600061257e6157cc565b600061258f84600b54600c54613b79565b9350905060008160038111156125a157fe5b146125b6579550600094506125f89350505050565b6125c08386613bb7565b9250905060008160038111156125d257fe5b146125e7579550600094506125f89350505050565b50516000955093506125f892505050565b9091565b600081600381111561260a57fe5b14612457576040805162461bcd60e51b815260206004820152600a60248201526936b0ba341032b93937b960b11b604482015290519081900360640190fd5b6000805460ff1661268e576040805162461bcd60e51b815260206004820152600a6024820152691c994b595b9d195c995960b21b604482015290519081900360640190fd5b6000805460ff191681556126a061195f565b905080156126c6576126be8160118111156126b757fe5b6027612d79565b9150506111b1565b6126d38585856000613c67565b9150506000805460ff191660011790559392505050565b60008054819060ff16612731576040805162461bcd60e51b815260206004820152600a6024820152691c994b595b9d195c995960b21b604482015290519081900360640190fd5b6000805460ff1916815561274361195f565b9050801561276e5761276181601181111561275a57fe5b601e612d79565b92506000915061277f9050565b612779338686614317565b92509250505b6000805460ff1916600117905590939092509050565b600554604080516317b9b84b60e31b81523060048201526001600160a01b03868116602483015285811660448301526064820185905291516000938493169163bdcdc25891608480830192602092919082900301818787803b1580156127fa57600080fd5b505af115801561280e573d6000803e3d6000fd5b505050506040513d602081101561282457600080fd5b5051905080156128435761283b6003604a83613320565b9150506112e8565b836001600160a01b0316856001600160a01b031614156128695761283b6002604b612d79565b60006001600160a01b03878116908716141561288857506000196128b0565b506001600160a01b038086166000908152600f60209081526040808320938a16835292905220545b6000806000806128c08589613295565b909450925060008460038111156128d357fe5b146128f1576128e46009604b612d79565b96505050505050506112e8565b6001600160a01b038a166000908152600e60205260409020546129149089613295565b9094509150600084600381111561292757fe5b14612938576128e46009604c612d79565b6001600160a01b0389166000908152600e602052604090205461295b9089613386565b9094509050600084600381111561296e57fe5b1461297f576128e46009604d612d79565b6001600160a01b03808b166000908152600e6020526040808220859055918b1681522081905560001985146129d7576001600160a01b03808b166000908152600f60209081526040808320938f168352929052208390555b886001600160a01b03168a6001600160a01b03166000805160206159b78339815191528a6040518082815260200191505060405180910390a36005546040805163352b4a3f60e11b81523060048201526001600160a01b038d811660248301528c81166044830152606482018c905291519190921691636a56947e91608480830192600092919082900301818387803b158015612a7357600080fd5b505af1158015612a87573d6000803e3d6000fd5b5060009250612a94915050565b9b9a5050505050505050505050565b601654604080516318c5e8ab60e01b81523360048201818152602483019384528551604484015285516001600160a01b03909516946318c5e8ab949293879391606490910190602085019080838360005b83811015612b0c578181015183820152602001612af4565b50505050905090810190601f168015612b395780820380516001836020036101000a031916815260200191505b50935050505060206040518083038186803b158015612b5757600080fd5b505afa158015612b6b573d6000803e3d6000fd5b505050506040513d6020811015612b8157600080fd5b5051612457576040805162461bcd60e51b815260206004820152600d60248201526c1858d8d95cdcc819195b9a5959609a1b604482015290519081900360640190fd5b60008054819060ff16612c0b576040805162461bcd60e51b815260206004820152600a6024820152691c994b595b9d195c995960b21b604482015290519081900360640190fd5b6000805460ff19168155612c1d61195f565b90508015612c3b57612761816011811115612c3457fe5b6035612d79565b61277933868661381d565b6000806000612c536157cc565b612c5d86866132b8565b90925090506000826003811115612c7057fe5b14612c815750915060009050612c93565b6000612c8c826146ba565b9350935050505b9250929050565b601154604080516370a0823160e01b815230600482015290516000926001600160a01b0316916370a08231916024808301926020929190829003018186803b158015611d8d57600080fd5b6000805460ff16612d2a576040805162461bcd60e51b815260206004820152600a6024820152691c994b595b9d195c995960b21b604482015290519081900360640190fd5b6000805460ff19168155612d3c61195f565b90508015612d5a5761153b816011811115612d5357fe5b604e612d79565b612d63836146c9565b509150506000805460ff19166001179055919050565b60007f45b96fe442630264581b197e84bbada861235052c5a1aadfff9ea4e40a969aa0836011811115612da857fe5b836055811115612db457fe5b604080519283526020830191909152600082820152519081900360600190a182601181111561113557fe5b600081612df05760005b9050610e48565b4360095414612e0557612de9600a6033612d79565b81612e0e612c9a565b1015612e2057612de9600e6032612d79565b600c54821115612e3657612de960026034612d79565b600c805483900390819055601554612e57906001600160a01b0316846147aa565b601554600554601154604080516305bebb3b60e21b81526001600160a01b0393841660048201529183166024830152600060448301819052905192909316926316faecec9260648084019382900301818387803b158015612eb757600080fd5b505af1158015612ecb573d6000803e3d6000fd5b5050601554604080516001600160a01b03909216825260208201879052818101859052517f3bad0c59cf2f06e7314077049f48a93578cd16f5ef92329f1dab1420a99c177e9350908190036060019150a16000611135565b6000805460ff16612f68576040805162461bcd60e51b815260206004820152600a6024820152691c994b595b9d195c995960b21b604482015290519081900360640190fd5b6000805460ff19168155612f7a61195f565b90508015612f91576126be8160118111156126b757fe5b6126d38585600086613c67565b6000805460ff16612fe3576040805162461bcd60e51b815260206004820152600a6024820152691c994b595b9d195c995960b21b604482015290519081900360640190fd5b6000805460ff19168155612ff561195f565b90508015613013576126be81601181111561300c57fe5b6008612d79565b6126d385858561489d565b6001600160a01b0381166000908152601060205260408120805482918291829182916130555750600094508493506130cd92505050565b6130658160000154600a54614bc3565b9094509250600084600381111561307857fe5b1461308d5750919350600092506130cd915050565b61309b838260010154614c02565b909450915060008460038111156130ae57fe5b146130c35750919350600092506130cd915050565b5060009450925050505b915091565b60008043600954146130ea57612294600a6041612d79565b600660009054906101000a90046001600160a01b03169050826001600160a01b0316632191f92a6040518163ffffffff1660e01b815260040160206040518083038186803b15801561313b57600080fd5b505afa15801561314f573d6000803e3d6000fd5b505050506040513d602081101561316557600080fd5b50516131b8576040805162461bcd60e51b815260206004820152601c60248201527f6d61726b6572206d6574686f642072657475726e65642066616c736500000000604482015290519081900360640190fd5b600680546001600160a01b0319166001600160a01b03858116918217909255604080519284168352602083019190915280517fedffc32e068c7c95dfd4bdfd5c4d939a084d6b11c4199eac8436ed234d72f9269281900390910190a16000611135565b60008054819060ff16613262576040805162461bcd60e51b815260206004820152600a6024820152691c994b595b9d195c995960b21b604482015290519081900360640190fd5b6000805460ff1916815561327461195f565b9050801561328b5761251b81601181111561275a57fe5b6125333385614c2d565b6000808383116132ac575060009050818303612c93565b50600390506000612c93565b60006132c26157cc565b6000806132d3866000015186614bc3565b909250905060008260038111156132e657fe5b1461330557506040805160208101909152600081529092509050612c93565b60408051602081019091529081526000969095509350505050565b60007f45b96fe442630264581b197e84bbada861235052c5a1aadfff9ea4e40a969aa084601181111561334f57fe5b84605581111561335b57fe5b604080519283526020830191909152818101859052519081900360600190a18360118111156112e857fe5b60008083830184811061339e57600092509050612c93565b506002915060009050612c93565b60008060006133b96157cc565b6133c387876132b8565b909250905060008260038111156133d657fe5b146133e75750915060009050613400565b6133f96133f3826146ba565b86613386565b9350935050505b935093915050565b6005546040805163d02f735160e01b81523060048201526001600160a01b038781166024830152868116604483015285811660648301526084820185905291516000938493169163d02f73519160a480830192602092919082900301818787803b15801561347557600080fd5b505af1158015613489573d6000803e3d6000fd5b505050506040513d602081101561349f57600080fd5b5051905080156134b65761283b6003601b83613320565b846001600160a01b0316846001600160a01b031614156134dc5761283b6006601c612d79565b6001600160a01b0384166000908152600e6020526040812054819081906135039087613295565b9093509150600083600381111561351657fe5b146135395761352e6009601a856003811115611ae657fe5b9450505050506112e8565b6001600160a01b0388166000908152600e602052604090205461355c9087613386565b9093509050600083600381111561356f57fe5b146135875761352e60096019856003811115611ae657fe5b6001600160a01b038088166000818152600e60209081526040808320879055938c168083529184902085905583518a8152935191936000805160206159b7833981519152929081900390910190a360055460408051636d35bf9160e01b81523060048201526001600160a01b038c811660248301528b811660448301528a81166064830152608482018a905291519190921691636d35bf919160a480830192600092919082900301818387803b15801561364057600080fd5b505af1158015613654573d6000803e3d6000fd5b5060009250613661915050565b9998505050505050505050565b60008054819060ff166136b5576040805162461bcd60e51b815260206004820152600a6024820152691c994b595b9d195c995960b21b604482015290519081900360640190fd5b6000805460ff191681556136c761195f565b905080156136f2576136e58160118111156136de57fe5b600f612d79565b9250600091506137899050565b836001600160a01b031663a6afed956040518163ffffffff1660e01b8152600401602060405180830381600087803b15801561372d57600080fd5b505af1158015613741573d6000803e3d6000fd5b505050506040513d602081101561375757600080fd5b505190508015613777576136e581601181111561377057fe5b6010612d79565b61378333878787614f9a565b92509250505b6000805460ff191660011790559094909350915050565b600043600954146137b757612de9600a6048612d79565b670de0b6b3a76400008211156137d357612de960026049612d79565b6008805490839055604080518281526020810185905281517faaa68312e2ea9d50e16af5068410ab56e1a1fd06037b1a35664812c30f821460929181900390910190a16000611135565b60055460408051631200453160e11b81523060048201526001600160a01b0386811660248301528581166044830152606482018590529151600093849384939116916324008a629160848082019260209290919082900301818787803b15801561388657600080fd5b505af115801561389a573d6000803e3d6000fd5b505050506040513d60208110156138b057600080fd5b5051905080156138d4576138c76003603883613320565b9250600091506134009050565b43600954146138e9576138c7600a6039612d79565b6138f161585d565b6001600160a01b038616600090815260106020526040902060010154606082015261391b8661301e565b608083018190526020830182600381111561393257fe5b600381111561393d57fe5b905250600090508160200151600381111561395457fe5b1461397e576139706009603783602001516003811115611ae657fe5b935060009250613400915050565b600019851415613997576080810151604082015261399f565b604081018590525b6139ad87826040015161550f565b60e0820181905260808201516139c291613295565b60a08301819052602083018260038111156139d957fe5b60038111156139e457fe5b81525050506139f681602001516125fc565b613a06600b548260e00151613295565b60c0830181905260208301826003811115613a1d57fe5b6003811115613a2857fe5b8152505050613a3a81602001516125fc565b60a080820180516001600160a01b03808a16600081815260106020908152604091829020948555600a5460019095019490945560c0870151600b81905560e088015195518251948f16855294840192909252828101949094526060820192909252608081019190915290517f1a2a22cb034d26d1854bdc6666a5b91fe25efbbb5dcad3b0355478d6f5c362a1929181900390910190a160055460e0820151606083015160408051631ededc9160e01b81523060048201526001600160a01b038c811660248301528b8116604483015260648201949094526084810192909252519190921691631ededc919160a480830192600092919082900301818387803b158015613b4557600080fd5b505af1158015613b59573d6000803e3d6000fd5b5060009250613b66915050565b8160e00151935093505050935093915050565b600080600080613b898787613386565b90925090506000826003811115613b9c57fe5b14613bad5750915060009050613400565b6133f98186613295565b6000613bc16157cc565b600080613bd686670de0b6b3a7640000614bc3565b90925090506000826003811115613be957fe5b14613c0857506040805160208101909152600081529092509050612c93565b600080613c158388614c02565b90925090506000826003811115613c2857fe5b14613c4a57506040805160208101909152600081529094509250612c93915050565b604080516020810190915290815260009890975095505050505050565b6000821580613c74575081155b613caf5760405162461bcd60e51b8152600401808060200182810382526034815260200180615a0a6034913960400191505060405180910390fd5b613cb76158a3565b613cbf61254d565b6020830181905282826003811115613cd357fe5b6003811115613cde57fe5b905250508051613ced906125fc565b8315613d4857604080820185905280516020808201909252908201518152613d159085612c46565b6060830181905282826003811115613d2957fe5b6003811115613d3457fe5b905250508051613d43906125fc565b613d9a565b613d64836040518060200160405280846020015181525061575b565b6040830181905282826003811115613d7857fe5b6003811115613d8357fe5b905250508051613d92906125fc565b606081018390525b600554604080830151815163eabe7d9160e01b81523060048201526001600160a01b038a8116602483015260448201929092529151600093919091169163eabe7d9191606480830192602092919082900301818787803b158015613dfd57600080fd5b505af1158015613e11573d6000803e3d6000fd5b505050506040513d6020811015613e2757600080fd5b505190508015613e6b576040805162461bcd60e51b815260206004820152600a60248201526936b0ba341032b93937b960b11b604482015290519081900360640190fd5b4360095414613eae576040805162461bcd60e51b815260206004820152600a60248201526936b0ba341032b93937b960b11b604482015290519081900360640190fd5b613ebe600d548360400151613295565b6080840181905283826003811115613ed257fe5b6003811115613edd57fe5b905250508151613eec906125fc565b6001600160a01b0387166000908152600e6020526040908190205490830151613f159190613295565b60a0840181905283826003811115613f2957fe5b6003811115613f3457fe5b905250508151613f43906125fc565b8160600151613f50612c9a565b1015613f90576040805162461bcd60e51b815260206004820152600a60248201526936b0ba341032b93937b960b11b604482015290519081900360640190fd5b6080820151600d5560a08201516001600160a01b038089166000908152600e60209081526040808320949094556005548451629df3ab60e31b815294519294859491909116926304ef9d5892600480840193919291829003018186803b158015613ff957600080fd5b505afa15801561400d573d6000803e3d6000fd5b505050506040513d602081101561402357600080fd5b50511561420f57606084015160055460408051629df3ab60e31b815290516140a693926001600160a01b0316916304ef9d58916004808301926020929190829003018186803b15801561407557600080fd5b505afa158015614089573d6000803e3d6000fd5b505050506040513d602081101561409f57600080fd5b5051614bc3565b925082858260038111156140b657fe5b60038111156140c157fe5b9052505083516140d0906125fc565b6140e282670de0b6b3a7640000614c02565b925082858260038111156140f257fe5b60038111156140fd57fe5b90525050835161410c906125fc565b61411a846060015183613295565b9150818582600381111561412a57fe5b600381111561413557fe5b905250508351614144906125fc565b6005546040805163c5f956af60e01b815290516141bc926001600160a01b03169163c5f956af916004808301926020929190829003018186803b15801561418a57600080fd5b505afa15801561419e573d6000803e3d6000fd5b505050506040513d60208110156141b457600080fd5b5051836147aa565b60408085015181516001600160a01b038c168152602081018590528083019190915290517fccf8e53b86a99b7e9ecf796342c165764d66154780f638c08e6241d711fba6d49181900360600190a1614216565b5060608301515b61422088826147aa565b6040808501518151908152905130916001600160a01b038c16916000805160206159b78339815191529181900360200190a360408085015160a086015182516001600160a01b038d1681526020810185905280840192909252606082015290517fbd5034ffbd47e4e72a94baa2cdb74c6fad73cb3bcdc13036b72ec8306f5a76469181900360800190a1600554606085015160408087015181516351dff98960e01b81523060048201526001600160a01b038e8116602483015260448201949094526064810191909152905191909216916351dff98991608480830192600092919082900301818387803b15801561364057600080fd5b6000806143238461245a565b60055460408051634ef4c3e160e01b81523060048201526001600160a01b0387811660248301526044820187905291516000939290921691634ef4c3e19160648082019260209290919082900301818787803b15801561438257600080fd5b505af1158015614396573d6000803e3d6000fd5b505050506040513d60208110156143ac57600080fd5b5051905080156143c3576138c76003601f83613320565b43600954146143d8576138c7600a6022612d79565b6143e06158a3565b6143e861254d565b60208301819052828260038111156143fc57fe5b600381111561440757fe5b905250600090508151600381111561441b57fe5b14614437576139706009602183600001516003811115611ae657fe5b614441878661550f565b60a08201819052604080516020808201909252908301518152614464919061575b565b604083018190528282600381111561447857fe5b600381111561448357fe5b905250508051614492906125fc565b6144a2600d548260400151613386565b60608301819052828260038111156144b657fe5b60038111156144c157fe5b9052505080516144d0906125fc565b6001600160a01b0386166000908152600e60205260409081902054908201516144f99190613386565b608083018190528282600381111561450d57fe5b600381111561451857fe5b905250508051614527906125fc565b8060600151600d819055508060800151600e6000886001600160a01b03166001600160a01b03168152602001908152602001600020819055507fa24ddbdf0865ba440d364725c062eac72a908faeedffc33fe64d4640c82e3ab887878360a001518460400151856080015160405180866001600160a01b03166001600160a01b03168152602001856001600160a01b03166001600160a01b031681526020018481526020018381526020018281526020019550505050505060405180910390a1604080820151815190815290516001600160a01b0388169130916000805160206159b78339815191529181900360200190a360055460a082015160408084015181516341c728b960e01b81523060048201526001600160a01b038b8116602483015260448201949094526064810191909152905191909216916341c728b991608480830192600092919082900301818387803b15801561468657600080fd5b505af115801561469a573d6000803e3d6000fd5b50600092506146a7915050565b8160a00151935093505050935093915050565b51670de0b6b3a7640000900490565b60008060008043600954146146ef576146e4600a604f612d79565b935091506130cd9050565b6146f9338661550f565b905080600c54019150600c54821015614759576040805162461bcd60e51b815260206004820181905260248201527f61646420726573657276657320756e6578706563746564206f766572666c6f77604482015290519081900360640190fd5b600c829055604080513381526020810183905280820184905290517fa91e67c5ea634cd43a12c5a482724b03de01e85ca68702a53d0c2f45cb7c1dc59181900360600190a160009350915050915091565b6011546040805163a9059cbb60e01b81526001600160a01b038581166004830152602482018590529151919092169163a9059cbb91604480830192600092919082900301818387803b1580156147ff57600080fd5b505af1158015614813573d6000803e3d6000fd5b5050505060003d6000811461482f576020811461483957600080fd5b6000199150614845565b60206000803e60005191505b5080614898576040805162461bcd60e51b815260206004820152601960248201527f544f4b454e5f5452414e534645525f4f55545f4641494c454400000000000000604482015290519081900360640190fd5b505050565b6005546040805163368f515360e21b81523060048201526001600160a01b0386811660248301526044820185905291516000938493169163da3d454c91606480830192602092919082900301818787803b1580156148fa57600080fd5b505af115801561490e573d6000803e3d6000fd5b505050506040513d602081101561492457600080fd5b505190508015614968576040805162461bcd60e51b815260206004820152600a60248201526936b0ba341032b93937b960b11b604482015290519081900360640190fd5b43600954146149ab576040805162461bcd60e51b815260206004820152600a60248201526936b0ba341032b93937b960b11b604482015290519081900360640190fd5b826149b4612c9a565b10156149f4576040805162461bcd60e51b815260206004820152600a60248201526936b0ba341032b93937b960b11b604482015290519081900360640190fd5b6149fc6158da565b614a058661301e565b6020830181905282826003811115614a1957fe5b6003811115614a2457fe5b905250508051614a33906125fc565b614a41816020015185613386565b6040830181905282826003811115614a5557fe5b6003811115614a6057fe5b905250508051614a6f906125fc565b614a7b600b5485613386565b6060830181905282826003811115614a8f57fe5b6003811115614a9a57fe5b905250508051614aa9906125fc565b6040808201516001600160a01b0388166000908152601060205291909120908155600a546001909101556060810151600b55614ae585856147aa565b60408082015160608084015183516001600160a01b038b16815260208101899052808501939093529082015290517f13ed6866d4e1ee6da46f845c46d7e54120883d75c5ea9a2dacc1c4ca8984ab809181900360800190a160055460408051635c77860560e01b81523060048201526001600160a01b0389811660248301526044820188905291519190921691635c77860591606480830192600092919082900301818387803b158015614b9857600080fd5b505af1158015614bac573d6000803e3d6000fd5b5060009250614bb9915050565b9695505050505050565b60008083614bd657506000905080612c93565b83830283858281614be357fe5b0414614bf757506002915060009050612c93565b600092509050612c93565b60008082614c165750600190506000612c93565b6000838581614c2157fe5b04915091509250929050565b60055460408051634ef4c3e160e01b81523060048201526001600160a01b03858116602483015260448201859052915160009384938493911691634ef4c3e19160648082019260209290919082900301818787803b158015614c8e57600080fd5b505af1158015614ca2573d6000803e3d6000fd5b505050506040513d6020811015614cb857600080fd5b505190508015614cdc57614ccf6003601f83613320565b925060009150612c939050565b4360095414614cf157614ccf600a6022612d79565b614cf96158a3565b614d0161254d565b6020830181905282826003811115614d1557fe5b6003811115614d2057fe5b9052506000905081516003811115614d3457fe5b14614d5e57614d506009602183600001516003811115611ae657fe5b935060009250612c93915050565b614d68868661550f565b60a08201819052604080516020808201909252908301518152614d8b919061575b565b6040830181905282826003811115614d9f57fe5b6003811115614daa57fe5b905250508051614db9906125fc565b614dc9600d548260400151613386565b6060830181905282826003811115614ddd57fe5b6003811115614de857fe5b905250508051614df7906125fc565b6001600160a01b0386166000908152600e6020526040908190205490820151614e209190613386565b6080830181905282826003811115614e3457fe5b6003811115614e3f57fe5b905250508051614e4e906125fc565b606080820151600d55608080830180516001600160a01b038a166000818152600e60209081526040918290209390935560a08701518188015194518251938452938301528181019390935293840152517fb4c03061fb5b7fed76389d5af8f2e0ddb09f8c70d1333abbb62582835e10accb9281900390910190a1604080820151815190815290516001600160a01b0388169130916000805160206159b78339815191529181900360200190a360055460a082015160408084015181516341c728b960e01b81523060048201526001600160a01b038b8116602483015260448201949094526064810191909152905191909216916341c728b991608480830192600092919082900301818387803b158015614f6757600080fd5b505af1158015614f7b573d6000803e3d6000fd5b5060009250614f88915050565b8160a001519350935050509250929050565b60055460408051632fe3f38f60e11b81523060048201526001600160a01b0384811660248301528781166044830152868116606483015260848201869052915160009384938493911691635fc7e71e9160a48082019260209290919082900301818787803b15801561500b57600080fd5b505af115801561501f573d6000803e3d6000fd5b505050506040513d602081101561503557600080fd5b5051905080156150595761504c6003601283613320565b9250600091506155069050565b436009541461506e5761504c600a6016612d79565b43846001600160a01b0316636c540baf6040518163ffffffff1660e01b815260040160206040518083038186803b1580156150a857600080fd5b505afa1580156150bc573d6000803e3d6000fd5b505050506040513d60208110156150d257600080fd5b5051146150e55761504c600a6011612d79565b866001600160a01b0316866001600160a01b0316141561510b5761504c60066017612d79565b8461511c5761504c60076015612d79565b6000198514156151325761504c60076014612d79565b60008061514089898961381d565b909250905081156151705761516182601181111561515a57fe5b6018612d79565b94506000935061550692505050565b6005546040805163c488847b60e01b81523060048201526001600160a01b038981166024830152604482018590528251600094859492169263c488847b926064808301939192829003018186803b1580156151ca57600080fd5b505afa1580156151de573d6000803e3d6000fd5b505050506040513d60408110156151f457600080fd5b5080516020909101519092509050811561523f5760405162461bcd60e51b81526004018080602001828103825260338152602001806159d76033913960400191505060405180910390fd5b80886001600160a01b03166370a082318c6040518263ffffffff1660e01b815260040180826001600160a01b03166001600160a01b0316815260200191505060206040518083038186803b15801561529657600080fd5b505afa1580156152aa573d6000803e3d6000fd5b505050506040513d60208110156152c057600080fd5b50511015615315576040805162461bcd60e51b815260206004820152601860248201527f4c49515549444154455f5345495a455f544f4f5f4d5543480000000000000000604482015290519081900360640190fd5b60006001600160a01b03891630141561533b57615334308d8d85613408565b90506153c5565b6040805163b2a02ff160e01b81526001600160a01b038e811660048301528d81166024830152604482018590529151918b169163b2a02ff1916064808201926020929091908290030181600087803b15801561539657600080fd5b505af11580156153aa573d6000803e3d6000fd5b505050506040513d60208110156153c057600080fd5b505190505b801561540f576040805162461bcd60e51b81526020600482015260146024820152731d1bdad95b881cd95a5e9d5c994819985a5b195960621b604482015290519081900360640190fd5b604080516001600160a01b03808f168252808e1660208301528183018790528b1660608201526080810184905290517f298637f684da70674f26509b10f07ec2fbc77a335ab1e7d6215a4b2484d8bb529181900360a00190a1600554604080516347ef3b3b60e01b81523060048201526001600160a01b038c811660248301528f811660448301528e811660648301526084820188905260a48201869052915191909216916347ef3b3b9160c480830192600092919082900301818387803b1580156154da57600080fd5b505af11580156154ee573d6000803e3d6000fd5b50600092506154fb915050565b975092955050505050505b94509492505050565b601154604080516370a0823160e01b8152306004820152905160009283926001600160a01b03909116916370a0823191602480820192602092909190829003018186803b15801561555f57600080fd5b505afa158015615573573d6000803e3d6000fd5b505050506040513d602081101561558957600080fd5b5051601154604080516323b872dd60e01b81526001600160a01b0388811660048301523060248301526044820188905291519394509116916323b872dd9160648082019260009290919082900301818387803b1580156155e857600080fd5b505af11580156155fc573d6000803e3d6000fd5b5050505060003d60008114615618576020811461562257600080fd5b600019915061562e565b60206000803e60005191505b5080615681576040805162461bcd60e51b815260206004820152601860248201527f544f4b454e5f5452414e534645525f494e5f4641494c45440000000000000000604482015290519081900360640190fd5b601154604080516370a0823160e01b815230600482015290516000926001600160a01b0316916370a08231916024808301926020929190829003018186803b1580156156cc57600080fd5b505afa1580156156e0573d6000803e3d6000fd5b505050506040513d60208110156156f657600080fd5b505190508281101561574f576040805162461bcd60e51b815260206004820152601a60248201527f544f4b454e5f5452414e534645525f494e5f4f564552464c4f57000000000000604482015290519081900360640190fd5b91909103949350505050565b60008060006157686157cc565b612c5d868660006157776157cc565b60008061578c670de0b6b3a764000087614bc3565b9092509050600082600381111561579f57fe5b146157be57506040805160208101909152600081529092509050612c93565b612c8c818660000151613bb7565b6040518060200160405280600081525090565b828054600181600116156101000203166002900490600052602060002090601f016020900481019282601f1061582057805160ff191683800117855561584d565b8280016001018555821561584d579182015b8281111561584d578251825591602001919060010190615832565b50615859929150615903565b5090565b6040805161010081019091528060008152602001600081526020016000815260200160008152602001600081526020016000815260200160008152602001600081525090565b6040805160c08101909152806000815260200160008152602001600081526020016000815260200160008152602001600081525090565b604080516080810190915280600081526020016000815260200160008152602001600081525090565b610fb991905b80821115615859576000815560010161590956fe6d61726b6574206d6179206f6e6c7920626520696e697469616c697a6564206f6e63657365745265647563655265736572766573426c6f636b44656c74612875696e7432353629696e697469616c2065786368616e67652072617465206d7573742062652067726561746572207468616e207a65726f2e73657474696e6720696e7465726573742072617465206d6f64656c206661696c6564ddf252ad1be2c89b69c2b068fc378daa952ba7f163c4a11628f55a4df523b3ef4c49515549444154455f434f4d5054524f4c4c45525f43414c43554c4154455f414d4f554e545f5345495a455f4641494c45446f6e65206f662072656465656d546f6b656e73496e206f722072656465656d416d6f756e74496e206d757374206265207a65726fa265627a7a723158200f60f1a84ef2353709d9bed488df4f6b8443ccb970ba1cf365e35acbbe6530ef64736f6c63430005100032",
  "devdoc": {
    "author": "Venus",
    "methods": {
      "_acceptAdmin()": {
        "details": "Admin function for pending admin to accept role and update admin",
        "return": "uint Returns 0 on success, otherwise returns a failure code (see ErrorReporter.sol for details)."
      },
      "_addReserves(uint256)": {
        "params": {
          "addAmount": "The amount of underlying tokens to add as reserves"
        },
        "return": "uint Returns 0 on success, otherwise returns a failure code (see ErrorReporter.sol for details)."
      },
      "_reduceReserves(uint256)": {
        "params": {
          "reduceAmount_": "Amount of reduction to reserves"
        },
        "return": "uint Returns 0 on success, otherwise returns a failure code (see ErrorReporter.sol for details)."
      },
      "_setComptroller(address)": {
        "details": "Admin function to set a new comptroller",
        "return": "uint Returns 0 on success, otherwise returns a failure code (see ErrorReporter.sol for details)."
      },
      "_setInterestRateModel(address)": {
        "details": "Governance function to accrue interest and update the interest rate model",
        "params": {
          "newInterestRateModel_": "The new interest rate model to use"
        },
        "return": "uint Returns 0 on success, otherwise returns a failure code (see ErrorReporter.sol for details)."
      },
      "_setPendingAdmin(address)": {
        "details": "Admin function to begin change of admin. The newPendingAdmin must call `_acceptAdmin` to finalize the transfer.",
        "params": {
          "newPendingAdmin": "New pending admin."
        },
        "return": "uint Returns 0 on success, otherwise returns a failure code (see ErrorReporter.sol for details)."
      },
      "_setReserveFactor(uint256)": {
        "details": "Governor function to accrue interest and set a new reserve factor",
        "return": "uint Returns 0 on success, otherwise returns a failure code (see ErrorReporter.sol for details)."
      },
      "accrueInterest()": {
        "details": "This calculates interest accrued from the last checkpointed block up to the current block and writes new checkpoint to storage and reduce spread reserves to protocol share reserve if currentBlock - reduceReservesBlockNumber >= blockDelta"
      },
      "allowance(address,address)": {
        "params": {
          "owner": "The address of the account which owns the tokens to be spent",
          "spender": "The address of the account which may transfer tokens"
        },
        "return": "The number of tokens allowed to be spent (-1 means infinite)"
      },
      "approve(address,uint256)": {
        "details": "This will overwrite the approval amount for `spender` and is subject to issues noted [here](https://eips.ethereum.org/EIPS/eip-20#approve)",
        "params": {
          "amount": "The number of tokens that are approved (-1 means infinite)",
          "spender": "The address of the account which may transfer tokens"
        },
        "return": "Whether or not the approval succeeded"
      },
      "balanceOf(address)": {
        "params": {
          "owner": "The address of the account to query"
        },
        "return": "The number of tokens owned by `owner`"
      },
      "balanceOfUnderlying(address)": {
        "details": "This also accrues interest in a transaction",
        "params": {
          "owner": "The address of the account to query"
        },
        "return": "The amount of underlying owned by `owner`"
      },
      "borrow(uint256)": {
        "params": {
          "borrowAmount": "The amount of the underlying asset to borrow"
        },
        "return": "uint Returns 0 on success, otherwise returns a failure code (see ErrorReporter.sol for details)."
      },
      "borrowBalanceCurrent(address)": {
        "params": {
          "account": "The address whose balance should be calculated after updating borrowIndex"
        },
        "return": "The calculated balance"
      },
      "borrowBalanceStored(address)": {
        "params": {
          "account": "The address whose balance should be calculated"
        },
        "return": "The calculated balance"
      },
      "borrowBehalf(address,uint256)": {
        "params": {
          "borrowAmount": "The amount of the underlying asset to borrow",
          "borrower": "The borrower, on behalf of whom to borrow."
        },
        "return": "uint Returns 0 on success, otherwise returns a failure code (see ErrorReporter.sol for details)."
      },
      "borrowRatePerBlock()": {
        "return": "The borrow interest rate per block, scaled by 1e18"
      },
      "exchangeRateCurrent()": {
        "return": "Calculated exchange rate scaled by 1e18"
      },
      "exchangeRateStored()": {
        "details": "This function does not accrue interest before calculating the exchange rate",
        "return": "Calculated exchange rate scaled by 1e18"
      },
      "getAccountSnapshot(address)": {
        "details": "This is used by comptroller to more efficiently perform liquidity checks.",
        "params": {
          "account": "Address of the account to snapshot"
        },
        "return": "(possible error, token balance, borrow balance, exchange rate mantissa)"
      },
      "getCash()": {
        "return": "The quantity of underlying asset owned by this contract"
      },
      "initialize(address,address,address,uint256,string,string,uint8)": {
        "params": {
          "comptroller_": "The address of the Comptroller",
          "decimals_": "BEP-20 decimal precision of this token",
          "initialExchangeRateMantissa_": "The initial exchange rate, scaled by 1e18",
          "interestRateModel_": "The address of the interest rate model",
          "name_": "BEP-20 name of this token",
          "symbol_": "BEP-20 symbol of this token",
          "underlying_": "The address of the underlying asset"
        }
      },
      "initialize(address,address,uint256,string,string,uint8)": {
        "params": {
          "comptroller_": "The address of the Comptroller",
          "decimals_": "EIP-20 decimal precision of this token",
          "initialExchangeRateMantissa_": "The initial exchange rate, scaled by 1e18",
          "interestRateModel_": "The address of the interest rate model",
          "name_": "EIP-20 name of this token",
          "symbol_": "EIP-20 symbol of this token"
        }
      },
      "liquidateBorrow(address,uint256,address)": {
        "params": {
          "borrower": "The borrower of this vToken to be liquidated",
          "repayAmount": "The amount of the underlying borrowed asset to repay",
          "vTokenCollateral": "The market in which to seize collateral from the borrower"
        },
        "return": "uint Returns 0 on success, otherwise returns a failure code (see ErrorReporter.sol for details)."
      },
      "mint(uint256)": {
        "details": "Accrues interest whether or not the operation succeeds, unless reverted",
        "params": {
          "mintAmount": "The amount of the underlying asset to supply"
        },
        "return": "uint Returns 0 on success, otherwise returns a failure code (see ErrorReporter.sol for details)."
      },
      "mintBehalf(address,uint256)": {
        "details": "Accrues interest whether or not the operation succeeds, unless reverted",
        "params": {
          "mintAmount": "The amount of the underlying asset to supply",
          "receiver": "The account which is receiving the vTokens"
        },
        "return": "uint Returns 0 on success, otherwise returns a failure code (see ErrorReporter.sol for details)."
      },
      "redeem(uint256)": {
        "details": "Accrues interest whether or not the operation succeeds, unless reverted",
        "params": {
          "redeemTokens": "The number of vTokens to redeem into underlying"
        },
        "return": "uint Returns 0 on success, otherwise returns a failure code (see ErrorReporter.sol for details)."
      },
      "redeemBehalf(address,uint256)": {
        "details": "Accrues interest whether or not the operation succeeds, unless reverted",
        "params": {
          "redeemTokens": "The number of vTokens to redeem into underlying",
          "redeemer": "The user on behalf of whom to redeem"
        },
        "return": "uint Returns 0 on success, otherwise returns a failure code (see ErrorReporter.sol for details)."
      },
      "redeemUnderlying(uint256)": {
        "details": "Accrues interest whether or not the operation succeeds, unless reverted",
        "params": {
          "redeemAmount": "The amount of underlying to redeem"
        },
        "return": "uint Returns 0 on success, otherwise returns a failure code (see ErrorReporter.sol for details)."
      },
      "redeemUnderlyingBehalf(address,uint256)": {
        "details": "Accrues interest whether or not the operation succeeds, unless reverted",
        "params": {
          "redeemAmount": "The amount of underlying to receive from redeeming vTokens",
          "redeemer": ", on behalf of whom to redeem"
        },
        "return": "uint Returns 0 on success, otherwise returns a failure code (see ErrorReporter.sol for details)."
      },
      "repayBorrow(uint256)": {
        "params": {
          "repayAmount": "The amount to repay"
        },
        "return": "uint Returns 0 on success, otherwise returns a failure code (see ErrorReporter.sol for details)."
      },
      "repayBorrowBehalf(address,uint256)": {
        "params": {
          "borrower": "The account with the debt being payed off",
          "repayAmount": "The amount to repay"
        },
        "return": "uint Returns 0 on success, otherwise returns a failure code (see ErrorReporter.sol for details)."
      },
      "seize(address,address,uint256)": {
        "details": "Will fail unless called by another vToken during the process of liquidation. Its absolutely critical to use msg.sender as the borrowed vToken and not a parameter.",
        "params": {
          "borrower": "The account having collateral seized",
          "liquidator": "The account receiving seized collateral",
          "seizeTokens": "The number of vTokens to seize"
        },
        "return": "uint Returns 0 on success, otherwise returns a failure code (see ErrorReporter.sol for details)."
      },
      "setAccessControlManager(address)": {
        "details": "Admin function to set the access control address",
        "params": {
          "newAccessControlManagerAddress": "New address for the access control"
        },
        "return": "uint 0=success, otherwise will revert"
      },
      "setProtocolShareReserve(address)": {
        "params": {
          "protcolShareReserve_": "The address of protocol share reserve contract"
        }
      },
      "setReduceReservesBlockDelta(uint256)": {
        "params": {
          "newReduceReservesBlockDelta_": "block difference value"
        }
      },
      "supplyRatePerBlock()": {
        "return": "The supply interest rate per block, scaled by 1e18"
      },
      "totalBorrowsCurrent()": {
        "return": "The total borrows with interest"
      },
      "transfer(address,uint256)": {
        "params": {
          "amount": "The number of tokens to transfer",
          "dst": "The address of the destination account"
        },
        "return": "Whether or not the transfer succeeded"
      },
      "transferFrom(address,address,uint256)": {
        "params": {
          "amount": "The number of tokens to transfer",
          "dst": "The address of the destination account",
          "src": "The address of the source account"
        },
        "return": "Whether or not the transfer succeeded"
      }
    },
    "title": "Venus's VBep20 Contract"
  },
  "userdoc": {
    "methods": {
      "_acceptAdmin()": {
        "notice": "Accepts transfer of admin rights. msg.sender must be pendingAdmin"
      },
      "_addReserves(uint256)": {
        "notice": "The sender adds to reserves."
      },
      "_reduceReserves(uint256)": {
        "notice": "Accrues interest and reduces reserves by transferring to protocol share reserve"
      },
      "_setComptroller(address)": {
        "notice": "Sets a new comptroller for the market"
      },
      "_setInterestRateModel(address)": {
        "notice": "Accrues interest and updates the interest rate model using _setInterestRateModelFresh"
      },
      "_setPendingAdmin(address)": {
        "notice": "Begins transfer of admin rights. The newPendingAdmin must call `_acceptAdmin` to finalize the transfer."
      },
      "_setReserveFactor(uint256)": {
        "notice": "accrues interest and sets a new reserve factor for the protocol using `_setReserveFactorFresh`"
      },
      "accrueInterest()": {
        "notice": "Applies accrued interest to total borrows and reserves"
      },
      "allowance(address,address)": {
        "notice": "Get the current allowance from `owner` for `spender`"
      },
      "approve(address,uint256)": {
        "notice": "Approve `spender` to transfer up to `amount` from `src`"
      },
      "balanceOf(address)": {
        "notice": "Get the token balance of the `owner`"
      },
      "balanceOfUnderlying(address)": {
        "notice": "Get the underlying balance of the `owner`"
      },
      "borrow(uint256)": {
        "notice": "Sender borrows assets from the protocol to their own address"
      },
      "borrowBalanceCurrent(address)": {
        "notice": "Accrue interest to updated borrowIndex and then calculate account's borrow balance using the updated borrowIndex"
      },
      "borrowBalanceStored(address)": {
        "notice": "Return the borrow balance of account based on stored data"
      },
      "borrowBehalf(address,uint256)": {
        "notice": "Sender borrows assets on behalf of some other address. This function is only available  for senders, explicitly marked as delegates of the borrower using `comptroller.updateDelegate`"
      },
      "borrowRatePerBlock()": {
        "notice": "Returns the current per-block borrow interest rate for this vToken"
      },
      "exchangeRateCurrent()": {
        "notice": "Accrue interest then return the up-to-date exchange rate"
      },
      "exchangeRateStored()": {
        "notice": "Calculates the exchange rate from the underlying to the VToken"
      },
      "getAccountSnapshot(address)": {
        "notice": "Get a snapshot of the account's balances, and the cached exchange rate"
      },
      "getCash()": {
        "notice": "Get cash balance of this vToken in the underlying asset"
      },
      "initialize(address,address,address,uint256,string,string,uint8)": {
        "notice": "Initialize the new money market"
      },
      "initialize(address,address,uint256,string,string,uint8)": {
        "notice": "Initialize the money market"
      },
      "liquidateBorrow(address,uint256,address)": {
        "notice": "The sender liquidates the borrowers collateral. The collateral seized is transferred to the liquidator."
      },
      "mint(uint256)": {
        "notice": "Sender supplies assets into the market and receives vTokens in exchange"
      },
      "mintBehalf(address,uint256)": {
        "notice": "Sender supplies assets into the market and receiver receives vTokens in exchange"
      },
      "redeem(uint256)": {
        "notice": "Sender redeems vTokens in exchange for the underlying asset"
      },
      "redeemBehalf(address,uint256)": {
        "notice": "Sender redeems assets on behalf of some other address. This function is only available  for senders, explicitly marked as delegates of the supplier using `comptroller.updateDelegate`"
      },
      "redeemUnderlying(uint256)": {
        "notice": "Sender redeems vTokens in exchange for a specified amount of underlying asset"
      },
      "redeemUnderlyingBehalf(address,uint256)": {
        "notice": "Sender redeems underlying assets on behalf of some other address. This function is only available  for senders, explicitly marked as delegates of the supplier using `comptroller.updateDelegate`"
      },
      "repayBorrow(uint256)": {
        "notice": "Sender repays their own borrow"
      },
      "repayBorrowBehalf(address,uint256)": {
        "notice": "Sender repays a borrow belonging to another borrowing account"
      },
      "seize(address,address,uint256)": {
        "notice": "Transfers collateral tokens (this market) to the liquidator."
      },
      "setAccessControlManager(address)": {
        "notice": "Sets the address of the access control manager of this contract"
      },
      "setProtocolShareReserve(address)": {
        "notice": "Sets protocol share reserve contract address"
      },
      "setReduceReservesBlockDelta(uint256)": {
        "notice": "Governance function to set new threshold of block difference after which funds will be sent to the protocol share reserve"
      },
      "supplyRatePerBlock()": {
        "notice": "Returns the current per-block supply interest rate for this vToken"
      },
      "totalBorrowsCurrent()": {
        "notice": "Returns the current total borrows plus accrued interest"
      },
      "transfer(address,uint256)": {
        "notice": "Transfer `amount` tokens from `msg.sender` to `dst`"
      },
      "transferFrom(address,address,uint256)": {
        "notice": "Transfer `amount` tokens from `src` to `dst`"
      }
    },
    "notice": "vTokens which wrap an EIP-20 underlying"
  },
  "storageLayout": {
    "storage": [
      {
        "astId": 23371,
        "contract": "contracts/Tokens/VTokens/VBep20.sol:VBep20",
        "label": "_notEntered",
        "offset": 0,
        "slot": "0",
        "type": "t_bool"
      },
      {
        "astId": 23373,
        "contract": "contracts/Tokens/VTokens/VBep20.sol:VBep20",
        "label": "name",
        "offset": 0,
        "slot": "1",
        "type": "t_string_storage"
      },
      {
        "astId": 23375,
        "contract": "contracts/Tokens/VTokens/VBep20.sol:VBep20",
        "label": "symbol",
        "offset": 0,
        "slot": "2",
        "type": "t_string_storage"
      },
      {
        "astId": 23377,
        "contract": "contracts/Tokens/VTokens/VBep20.sol:VBep20",
        "label": "decimals",
        "offset": 0,
        "slot": "3",
        "type": "t_uint8"
      },
      {
        "astId": 23385,
        "contract": "contracts/Tokens/VTokens/VBep20.sol:VBep20",
        "label": "admin",
        "offset": 1,
        "slot": "3",
        "type": "t_address_payable"
      },
      {
        "astId": 23387,
        "contract": "contracts/Tokens/VTokens/VBep20.sol:VBep20",
        "label": "pendingAdmin",
        "offset": 0,
        "slot": "4",
        "type": "t_address_payable"
      },
      {
        "astId": 23389,
        "contract": "contracts/Tokens/VTokens/VBep20.sol:VBep20",
        "label": "comptroller",
        "offset": 0,
        "slot": "5",
        "type": "t_contract(ComptrollerInterface)2305"
      },
      {
        "astId": 23391,
        "contract": "contracts/Tokens/VTokens/VBep20.sol:VBep20",
        "label": "interestRateModel",
        "offset": 0,
        "slot": "6",
        "type": "t_contract(InterestRateModel)8971"
      },
      {
        "astId": 23393,
        "contract": "contracts/Tokens/VTokens/VBep20.sol:VBep20",
        "label": "initialExchangeRateMantissa",
        "offset": 0,
        "slot": "7",
        "type": "t_uint256"
      },
      {
        "astId": 23395,
        "contract": "contracts/Tokens/VTokens/VBep20.sol:VBep20",
        "label": "reserveFactorMantissa",
        "offset": 0,
        "slot": "8",
        "type": "t_uint256"
      },
      {
        "astId": 23397,
        "contract": "contracts/Tokens/VTokens/VBep20.sol:VBep20",
        "label": "accrualBlockNumber",
        "offset": 0,
        "slot": "9",
        "type": "t_uint256"
      },
      {
        "astId": 23399,
        "contract": "contracts/Tokens/VTokens/VBep20.sol:VBep20",
        "label": "borrowIndex",
        "offset": 0,
        "slot": "10",
        "type": "t_uint256"
      },
      {
        "astId": 23401,
        "contract": "contracts/Tokens/VTokens/VBep20.sol:VBep20",
        "label": "totalBorrows",
        "offset": 0,
        "slot": "11",
        "type": "t_uint256"
      },
      {
        "astId": 23403,
        "contract": "contracts/Tokens/VTokens/VBep20.sol:VBep20",
        "label": "totalReserves",
        "offset": 0,
        "slot": "12",
        "type": "t_uint256"
      },
      {
        "astId": 23405,
        "contract": "contracts/Tokens/VTokens/VBep20.sol:VBep20",
        "label": "totalSupply",
        "offset": 0,
        "slot": "13",
        "type": "t_uint256"
      },
      {
        "astId": 23409,
        "contract": "contracts/Tokens/VTokens/VBep20.sol:VBep20",
        "label": "accountTokens",
        "offset": 0,
        "slot": "14",
        "type": "t_mapping(t_address,t_uint256)"
      },
      {
        "astId": 23415,
        "contract": "contracts/Tokens/VTokens/VBep20.sol:VBep20",
        "label": "transferAllowances",
        "offset": 0,
        "slot": "15",
        "type": "t_mapping(t_address,t_mapping(t_address,t_uint256))"
      },
      {
        "astId": 23419,
        "contract": "contracts/Tokens/VTokens/VBep20.sol:VBep20",
        "label": "accountBorrows",
        "offset": 0,
        "slot": "16",
        "type": "t_mapping(t_address,t_struct(BorrowSnapshot)23369_storage)"
      },
      {
        "astId": 23421,
        "contract": "contracts/Tokens/VTokens/VBep20.sol:VBep20",
        "label": "underlying",
        "offset": 0,
        "slot": "17",
        "type": "t_address"
      },
      {
        "astId": 23423,
        "contract": "contracts/Tokens/VTokens/VBep20.sol:VBep20",
        "label": "implementation",
        "offset": 0,
        "slot": "18",
        "type": "t_address"
      },
      {
        "astId": 23425,
        "contract": "contracts/Tokens/VTokens/VBep20.sol:VBep20",
        "label": "reduceReservesBlockDelta",
        "offset": 0,
        "slot": "19",
        "type": "t_uint256"
      },
      {
        "astId": 23427,
        "contract": "contracts/Tokens/VTokens/VBep20.sol:VBep20",
        "label": "reduceReservesBlockNumber",
        "offset": 0,
        "slot": "20",
        "type": "t_uint256"
      },
      {
        "astId": 23429,
        "contract": "contracts/Tokens/VTokens/VBep20.sol:VBep20",
        "label": "protocolShareReserve",
        "offset": 0,
        "slot": "21",
        "type": "t_address_payable"
      },
      {
        "astId": 23431,
        "contract": "contracts/Tokens/VTokens/VBep20.sol:VBep20",
        "label": "accessControlManager",
        "offset": 0,
        "slot": "22",
        "type": "t_address"
      },
      {
        "astId": 23438,
        "contract": "contracts/Tokens/VTokens/VBep20.sol:VBep20",
        "label": "__gap",
        "offset": 0,
        "slot": "23",
        "type": "t_array(t_uint256)50_storage"
      }
    ],
    "types": {
      "t_address": {
        "encoding": "inplace",
        "label": "address",
        "numberOfBytes": "20"
      },
      "t_address_payable": {
        "encoding": "inplace",
        "label": "address payable",
        "numberOfBytes": "20"
      },
      "t_array(t_uint256)50_storage": {
        "base": "t_uint256",
        "encoding": "inplace",
        "label": "uint256[50]",
        "numberOfBytes": "1600"
      },
      "t_bool": {
        "encoding": "inplace",
        "label": "bool",
        "numberOfBytes": "1"
      },
      "t_contract(ComptrollerInterface)2305": {
        "encoding": "inplace",
        "label": "contract ComptrollerInterface",
        "numberOfBytes": "20"
      },
      "t_contract(InterestRateModel)8971": {
        "encoding": "inplace",
        "label": "contract InterestRateModel",
        "numberOfBytes": "20"
      },
      "t_mapping(t_address,t_mapping(t_address,t_uint256))": {
        "encoding": "mapping",
        "key": "t_address",
        "label": "mapping(address => mapping(address => uint256))",
        "numberOfBytes": "32",
        "value": "t_mapping(t_address,t_uint256)"
      },
      "t_mapping(t_address,t_struct(BorrowSnapshot)23369_storage)": {
        "encoding": "mapping",
        "key": "t_address",
        "label": "mapping(address => struct VTokenStorageBase.BorrowSnapshot)",
        "numberOfBytes": "32",
        "value": "t_struct(BorrowSnapshot)23369_storage"
      },
      "t_mapping(t_address,t_uint256)": {
        "encoding": "mapping",
        "key": "t_address",
        "label": "mapping(address => uint256)",
        "numberOfBytes": "32",
        "value": "t_uint256"
      },
      "t_string_storage": {
        "encoding": "bytes",
        "label": "string",
        "numberOfBytes": "32"
      },
      "t_struct(BorrowSnapshot)23369_storage": {
        "encoding": "inplace",
        "label": "struct VTokenStorageBase.BorrowSnapshot",
        "members": [
          {
            "astId": 23366,
            "contract": "contracts/Tokens/VTokens/VBep20.sol:VBep20",
            "label": "principal",
            "offset": 0,
            "slot": "0",
            "type": "t_uint256"
          },
          {
            "astId": 23368,
            "contract": "contracts/Tokens/VTokens/VBep20.sol:VBep20",
            "label": "interestIndex",
            "offset": 0,
            "slot": "1",
            "type": "t_uint256"
          }
        ],
        "numberOfBytes": "64"
      },
      "t_uint256": {
        "encoding": "inplace",
        "label": "uint256",
        "numberOfBytes": "32"
      },
      "t_uint8": {
        "encoding": "inplace",
        "label": "uint8",
        "numberOfBytes": "1"
      }
    }
  }
}