{
  "address": "0x70223EBdC5585D931BE959cc86F7366B9d45FE29",
  "abi": [
    {
      "inputs": [],
      "stateMutability": "nonpayable",
      "type": "constructor"
    },
    {
      "inputs": [],
      "name": "ExecuteFlashLoanFailed",
      "type": "error"
    },
    {
      "inputs": [],
      "name": "FlashLoanAlreadyActive",
      "type": "error"
    },
    {
      "inputs": [],
      "name": "FlashLoanNotEnabled",
      "type": "error"
    },
    {
      "inputs": [],
      "name": "InsufficientRepayment",
      "type": "error"
    },
    {
      "inputs": [],
      "name": "InvalidComptroller",
      "type": "error"
    },
    {
      "inputs": [
        {
          "internalType": "address",
          "name": "sender",
          "type": "address"
        }
      ],
      "name": "SenderNotAuthorized",
      "type": "error"
    },
    {
      "anonymous": false,
      "inputs": [
        {
          "indexed": false,
          "internalType": "uint256",
          "name": "cashPrior",
          "type": "uint256"
        },
        {
          "indexed": false,
          "internalType": "uint256",
          "name": "interestAccumulated",
          "type": "uint256"
        },
        {
          "indexed": false,
          "internalType": "uint256",
          "name": "borrowIndex",
          "type": "uint256"
        },
        {
          "indexed": false,
          "internalType": "uint256",
          "name": "totalBorrows",
          "type": "uint256"
        }
      ],
      "name": "AccrueInterest",
      "type": "event"
    },
    {
      "anonymous": false,
      "inputs": [
        {
          "indexed": true,
          "internalType": "address",
          "name": "owner",
          "type": "address"
        },
        {
          "indexed": true,
          "internalType": "address",
          "name": "spender",
          "type": "address"
        },
        {
          "indexed": false,
          "internalType": "uint256",
          "name": "amount",
          "type": "uint256"
        }
      ],
      "name": "Approval",
      "type": "event"
    },
    {
      "anonymous": false,
      "inputs": [
        {
          "indexed": false,
          "internalType": "address",
          "name": "borrower",
          "type": "address"
        },
        {
          "indexed": false,
          "internalType": "uint256",
          "name": "borrowAmount",
          "type": "uint256"
        },
        {
          "indexed": false,
          "internalType": "uint256",
          "name": "accountBorrows",
          "type": "uint256"
        },
        {
          "indexed": false,
          "internalType": "uint256",
          "name": "totalBorrows",
          "type": "uint256"
        }
      ],
      "name": "Borrow",
      "type": "event"
    },
    {
      "anonymous": false,
      "inputs": [
        {
          "indexed": false,
          "internalType": "uint256",
          "name": "error",
          "type": "uint256"
        },
        {
          "indexed": false,
          "internalType": "uint256",
          "name": "info",
          "type": "uint256"
        },
        {
          "indexed": false,
          "internalType": "uint256",
          "name": "detail",
          "type": "uint256"
        }
      ],
      "name": "Failure",
      "type": "event"
    },
    {
      "anonymous": false,
      "inputs": [
        {
          "indexed": false,
          "internalType": "address",
          "name": "receiver",
          "type": "address"
        },
        {
          "indexed": false,
          "internalType": "address",
          "name": "underlying",
          "type": "address"
        },
        {
          "indexed": false,
          "internalType": "uint256",
          "name": "amount",
          "type": "uint256"
        }
      ],
      "name": "FlashLoanExecuted",
      "type": "event"
    },
    {
      "anonymous": false,
      "inputs": [
        {
          "indexed": false,
          "internalType": "uint256",
          "name": "oldFlashLoanFeeMantissa",
          "type": "uint256"
        },
        {
          "indexed": false,
          "internalType": "uint256",
          "name": "newFlashLoanFeeMantissa",
          "type": "uint256"
        },
        {
          "indexed": false,
          "internalType": "uint256",
          "name": "oldFlashLoanProtocolShare",
          "type": "uint256"
        },
        {
          "indexed": false,
          "internalType": "uint256",
          "name": "newFlashLoanProtocolShare",
          "type": "uint256"
        }
      ],
      "name": "FlashLoanFeeUpdated",
      "type": "event"
    },
    {
      "anonymous": false,
      "inputs": [
        {
          "indexed": false,
          "internalType": "bool",
          "name": "previousStatus",
          "type": "bool"
        },
        {
          "indexed": false,
          "internalType": "bool",
          "name": "newStatus",
          "type": "bool"
        }
      ],
      "name": "FlashLoanStatusChanged",
      "type": "event"
    },
    {
      "anonymous": false,
      "inputs": [
        {
          "indexed": false,
          "internalType": "address",
          "name": "liquidator",
          "type": "address"
        },
        {
          "indexed": false,
          "internalType": "address",
          "name": "borrower",
          "type": "address"
        },
        {
          "indexed": false,
          "internalType": "uint256",
          "name": "repayAmount",
          "type": "uint256"
        },
        {
          "indexed": false,
          "internalType": "address",
          "name": "vTokenCollateral",
          "type": "address"
        },
        {
          "indexed": false,
          "internalType": "uint256",
          "name": "seizeTokens",
          "type": "uint256"
        }
      ],
      "name": "LiquidateBorrow",
      "type": "event"
    },
    {
      "anonymous": false,
      "inputs": [
        {
          "indexed": false,
          "internalType": "address",
          "name": "minter",
          "type": "address"
        },
        {
          "indexed": false,
          "internalType": "uint256",
          "name": "mintAmount",
          "type": "uint256"
        },
        {
          "indexed": false,
          "internalType": "uint256",
          "name": "mintTokens",
          "type": "uint256"
        },
        {
          "indexed": false,
          "internalType": "uint256",
          "name": "totalSupply",
          "type": "uint256"
        }
      ],
      "name": "Mint",
      "type": "event"
    },
    {
      "anonymous": false,
      "inputs": [
        {
          "indexed": false,
          "internalType": "address",
          "name": "payer",
          "type": "address"
        },
        {
          "indexed": false,
          "internalType": "address",
          "name": "receiver",
          "type": "address"
        },
        {
          "indexed": false,
          "internalType": "uint256",
          "name": "mintAmount",
          "type": "uint256"
        },
        {
          "indexed": false,
          "internalType": "uint256",
          "name": "mintTokens",
          "type": "uint256"
        },
        {
          "indexed": false,
          "internalType": "uint256",
          "name": "totalSupply",
          "type": "uint256"
        }
      ],
      "name": "MintBehalf",
      "type": "event"
    },
    {
      "anonymous": false,
      "inputs": [
        {
          "indexed": false,
          "internalType": "address",
          "name": "oldAccessControlAddress",
          "type": "address"
        },
        {
          "indexed": false,
          "internalType": "address",
          "name": "newAccessControlAddress",
          "type": "address"
        }
      ],
      "name": "NewAccessControlManager",
      "type": "event"
    },
    {
      "anonymous": false,
      "inputs": [
        {
          "indexed": false,
          "internalType": "address",
          "name": "oldAdmin",
          "type": "address"
        },
        {
          "indexed": false,
          "internalType": "address",
          "name": "newAdmin",
          "type": "address"
        }
      ],
      "name": "NewAdmin",
      "type": "event"
    },
    {
      "anonymous": false,
      "inputs": [
        {
          "indexed": false,
          "internalType": "contract ComptrollerInterface",
          "name": "oldComptroller",
          "type": "address"
        },
        {
          "indexed": false,
          "internalType": "contract ComptrollerInterface",
          "name": "newComptroller",
          "type": "address"
        }
      ],
      "name": "NewComptroller",
      "type": "event"
    },
    {
      "anonymous": false,
      "inputs": [
        {
          "indexed": false,
          "internalType": "contract InterestRateModelV8",
          "name": "oldInterestRateModel",
          "type": "address"
        },
        {
          "indexed": false,
          "internalType": "contract InterestRateModelV8",
          "name": "newInterestRateModel",
          "type": "address"
        }
      ],
      "name": "NewMarketInterestRateModel",
      "type": "event"
    },
    {
      "anonymous": false,
      "inputs": [
        {
          "indexed": false,
          "internalType": "address",
          "name": "oldPendingAdmin",
          "type": "address"
        },
        {
          "indexed": false,
          "internalType": "address",
          "name": "newPendingAdmin",
          "type": "address"
        }
      ],
      "name": "NewPendingAdmin",
      "type": "event"
    },
    {
      "anonymous": false,
      "inputs": [
        {
          "indexed": true,
          "internalType": "address",
          "name": "oldProtocolShareReserve",
          "type": "address"
        },
        {
          "indexed": true,
          "internalType": "address",
          "name": "newProtocolShareReserve",
          "type": "address"
        }
      ],
      "name": "NewProtocolShareReserve",
      "type": "event"
    },
    {
      "anonymous": false,
      "inputs": [
        {
          "indexed": false,
          "internalType": "uint256",
          "name": "oldReduceReservesBlockDelta",
          "type": "uint256"
        },
        {
          "indexed": false,
          "internalType": "uint256",
          "name": "newReduceReservesBlockDelta",
          "type": "uint256"
        }
      ],
      "name": "NewReduceReservesBlockDelta",
      "type": "event"
    },
    {
      "anonymous": false,
      "inputs": [
        {
          "indexed": false,
          "internalType": "uint256",
          "name": "oldReserveFactorMantissa",
          "type": "uint256"
        },
        {
          "indexed": false,
          "internalType": "uint256",
          "name": "newReserveFactorMantissa",
          "type": "uint256"
        }
      ],
      "name": "NewReserveFactor",
      "type": "event"
    },
    {
      "anonymous": false,
      "inputs": [
        {
          "indexed": false,
          "internalType": "address",
          "name": "redeemer",
          "type": "address"
        },
        {
          "indexed": false,
          "internalType": "uint256",
          "name": "redeemAmount",
          "type": "uint256"
        },
        {
          "indexed": false,
          "internalType": "uint256",
          "name": "redeemTokens",
          "type": "uint256"
        },
        {
          "indexed": false,
          "internalType": "uint256",
          "name": "totalSupply",
          "type": "uint256"
        }
      ],
      "name": "Redeem",
      "type": "event"
    },
    {
      "anonymous": false,
      "inputs": [
        {
          "indexed": false,
          "internalType": "address",
          "name": "redeemer",
          "type": "address"
        },
        {
          "indexed": false,
          "internalType": "uint256",
          "name": "feeAmount",
          "type": "uint256"
        },
        {
          "indexed": false,
          "internalType": "uint256",
          "name": "redeemTokens",
          "type": "uint256"
        }
      ],
      "name": "RedeemFee",
      "type": "event"
    },
    {
      "anonymous": false,
      "inputs": [
        {
          "indexed": false,
          "internalType": "address",
          "name": "payer",
          "type": "address"
        },
        {
          "indexed": false,
          "internalType": "address",
          "name": "borrower",
          "type": "address"
        },
        {
          "indexed": false,
          "internalType": "uint256",
          "name": "repayAmount",
          "type": "uint256"
        },
        {
          "indexed": false,
          "internalType": "uint256",
          "name": "accountBorrows",
          "type": "uint256"
        },
        {
          "indexed": false,
          "internalType": "uint256",
          "name": "totalBorrows",
          "type": "uint256"
        }
      ],
      "name": "RepayBorrow",
      "type": "event"
    },
    {
      "anonymous": false,
      "inputs": [
        {
          "indexed": false,
          "internalType": "address",
          "name": "benefactor",
          "type": "address"
        },
        {
          "indexed": false,
          "internalType": "uint256",
          "name": "addAmount",
          "type": "uint256"
        },
        {
          "indexed": false,
          "internalType": "uint256",
          "name": "newTotalReserves",
          "type": "uint256"
        }
      ],
      "name": "ReservesAdded",
      "type": "event"
    },
    {
      "anonymous": false,
      "inputs": [
        {
          "indexed": false,
          "internalType": "address",
          "name": "protocolShareReserve",
          "type": "address"
        },
        {
          "indexed": false,
          "internalType": "uint256",
          "name": "reduceAmount",
          "type": "uint256"
        },
        {
          "indexed": false,
          "internalType": "uint256",
          "name": "newTotalReserves",
          "type": "uint256"
        }
      ],
      "name": "ReservesReduced",
      "type": "event"
    },
    {
      "anonymous": false,
      "inputs": [
        {
          "indexed": true,
          "internalType": "address",
          "name": "from",
          "type": "address"
        },
        {
          "indexed": true,
          "internalType": "address",
          "name": "to",
          "type": "address"
        },
        {
          "indexed": false,
          "internalType": "uint256",
          "name": "amount",
          "type": "uint256"
        }
      ],
      "name": "Transfer",
      "type": "event"
    },
    {
      "anonymous": false,
      "inputs": [
        {
          "indexed": false,
          "internalType": "address",
          "name": "asset",
          "type": "address"
        },
        {
          "indexed": false,
          "internalType": "address",
          "name": "sender",
          "type": "address"
        },
        {
          "indexed": false,
          "internalType": "uint256",
          "name": "amount",
          "type": "uint256"
        }
      ],
      "name": "TransferInUnderlyingFlashLoan",
      "type": "event"
    },
    {
      "anonymous": false,
      "inputs": [
        {
          "indexed": false,
          "internalType": "address",
          "name": "asset",
          "type": "address"
        },
        {
          "indexed": false,
          "internalType": "address",
          "name": "receiver",
          "type": "address"
        },
        {
          "indexed": false,
          "internalType": "uint256",
          "name": "amount",
          "type": "uint256"
        }
      ],
      "name": "TransferOutUnderlyingFlashLoan",
      "type": "event"
    },
    {
      "inputs": [],
      "name": "_acceptAdmin",
      "outputs": [
        {
          "internalType": "uint256",
          "name": "",
          "type": "uint256"
        }
      ],
      "stateMutability": "nonpayable",
      "type": "function"
    },
    {
      "inputs": [
        {
          "internalType": "uint256",
          "name": "addAmount",
          "type": "uint256"
        }
      ],
      "name": "_addReserves",
      "outputs": [
        {
          "internalType": "uint256",
          "name": "",
          "type": "uint256"
        }
      ],
      "stateMutability": "nonpayable",
      "type": "function"
    },
    {
      "inputs": [
        {
          "internalType": "bytes",
          "name": "data",
          "type": "bytes"
        }
      ],
      "name": "_becomeImplementation",
      "outputs": [],
      "stateMutability": "nonpayable",
      "type": "function"
    },
    {
      "inputs": [
        {
          "internalType": "uint256",
          "name": "reduceAmount_",
          "type": "uint256"
        }
      ],
      "name": "_reduceReserves",
      "outputs": [
        {
          "internalType": "uint256",
          "name": "",
          "type": "uint256"
        }
      ],
      "stateMutability": "nonpayable",
      "type": "function"
    },
    {
      "inputs": [],
      "name": "_resignImplementation",
      "outputs": [],
      "stateMutability": "nonpayable",
      "type": "function"
    },
    {
      "inputs": [
        {
          "internalType": "contract ComptrollerInterface",
          "name": "newComptroller",
          "type": "address"
        }
      ],
      "name": "_setComptroller",
      "outputs": [
        {
          "internalType": "uint256",
          "name": "",
          "type": "uint256"
        }
      ],
      "stateMutability": "nonpayable",
      "type": "function"
    },
    {
      "inputs": [
        {
          "internalType": "contract InterestRateModelV8",
          "name": "newInterestRateModel_",
          "type": "address"
        }
      ],
      "name": "_setInterestRateModel",
      "outputs": [
        {
          "internalType": "uint256",
          "name": "",
          "type": "uint256"
        }
      ],
      "stateMutability": "nonpayable",
      "type": "function"
    },
    {
      "inputs": [
        {
          "internalType": "address payable",
          "name": "newPendingAdmin",
          "type": "address"
        }
      ],
      "name": "_setPendingAdmin",
      "outputs": [
        {
          "internalType": "uint256",
          "name": "",
          "type": "uint256"
        }
      ],
      "stateMutability": "nonpayable",
      "type": "function"
    },
    {
      "inputs": [
        {
          "internalType": "uint256",
          "name": "newReserveFactorMantissa_",
          "type": "uint256"
        }
      ],
      "name": "_setReserveFactor",
      "outputs": [
        {
          "internalType": "uint256",
          "name": "",
          "type": "uint256"
        }
      ],
      "stateMutability": "nonpayable",
      "type": "function"
    },
    {
      "inputs": [],
      "name": "accessControlManager",
      "outputs": [
        {
          "internalType": "address",
          "name": "",
          "type": "address"
        }
      ],
      "stateMutability": "view",
      "type": "function"
    },
    {
      "inputs": [],
      "name": "accrualBlockNumber",
      "outputs": [
        {
          "internalType": "uint256",
          "name": "",
          "type": "uint256"
        }
      ],
      "stateMutability": "view",
      "type": "function"
    },
    {
      "inputs": [],
      "name": "accrueInterest",
      "outputs": [
        {
          "internalType": "uint256",
          "name": "",
          "type": "uint256"
        }
      ],
      "stateMutability": "nonpayable",
      "type": "function"
    },
    {
      "inputs": [],
      "name": "admin",
      "outputs": [
        {
          "internalType": "address payable",
          "name": "",
          "type": "address"
        }
      ],
      "stateMutability": "view",
      "type": "function"
    },
    {
      "inputs": [
        {
          "internalType": "address",
          "name": "owner",
          "type": "address"
        },
        {
          "internalType": "address",
          "name": "spender",
          "type": "address"
        }
      ],
      "name": "allowance",
      "outputs": [
        {
          "internalType": "uint256",
          "name": "",
          "type": "uint256"
        }
      ],
      "stateMutability": "view",
      "type": "function"
    },
    {
      "inputs": [
        {
          "internalType": "address",
          "name": "spender",
          "type": "address"
        },
        {
          "internalType": "uint256",
          "name": "amount",
          "type": "uint256"
        }
      ],
      "name": "approve",
      "outputs": [
        {
          "internalType": "bool",
          "name": "",
          "type": "bool"
        }
      ],
      "stateMutability": "nonpayable",
      "type": "function"
    },
    {
      "inputs": [
        {
          "internalType": "address",
          "name": "owner",
          "type": "address"
        }
      ],
      "name": "balanceOf",
      "outputs": [
        {
          "internalType": "uint256",
          "name": "",
          "type": "uint256"
        }
      ],
      "stateMutability": "view",
      "type": "function"
    },
    {
      "inputs": [
        {
          "internalType": "address",
          "name": "owner",
          "type": "address"
        }
      ],
      "name": "balanceOfUnderlying",
      "outputs": [
        {
          "internalType": "uint256",
          "name": "",
          "type": "uint256"
        }
      ],
      "stateMutability": "nonpayable",
      "type": "function"
    },
    {
      "inputs": [
        {
          "internalType": "uint256",
          "name": "borrowAmount",
          "type": "uint256"
        }
      ],
      "name": "borrow",
      "outputs": [
        {
          "internalType": "uint256",
          "name": "",
          "type": "uint256"
        }
      ],
      "stateMutability": "nonpayable",
      "type": "function"
    },
    {
      "inputs": [
        {
          "internalType": "address",
          "name": "account",
          "type": "address"
        }
      ],
      "name": "borrowBalanceCurrent",
      "outputs": [
        {
          "internalType": "uint256",
          "name": "",
          "type": "uint256"
        }
      ],
      "stateMutability": "nonpayable",
      "type": "function"
    },
    {
      "inputs": [
        {
          "internalType": "address",
          "name": "account",
          "type": "address"
        }
      ],
      "name": "borrowBalanceStored",
      "outputs": [
        {
          "internalType": "uint256",
          "name": "",
          "type": "uint256"
        }
      ],
      "stateMutability": "view",
      "type": "function"
    },
    {
      "inputs": [
        {
          "internalType": "address",
          "name": "borrower",
          "type": "address"
        },
        {
          "internalType": "uint256",
          "name": "borrowAmount",
          "type": "uint256"
        }
      ],
      "name": "borrowBehalf",
      "outputs": [
        {
          "internalType": "uint256",
          "name": "",
          "type": "uint256"
        }
      ],
      "stateMutability": "nonpayable",
      "type": "function"
    },
    {
      "inputs": [
        {
          "internalType": "address",
          "name": "borrower",
          "type": "address"
        },
        {
          "internalType": "uint256",
          "name": "borrowAmount",
          "type": "uint256"
        }
      ],
      "name": "borrowDebtPosition",
      "outputs": [
        {
          "internalType": "uint256",
          "name": "",
          "type": "uint256"
        }
      ],
      "stateMutability": "nonpayable",
      "type": "function"
    },
    {
      "inputs": [],
      "name": "borrowIndex",
      "outputs": [
        {
          "internalType": "uint256",
          "name": "",
          "type": "uint256"
        }
      ],
      "stateMutability": "view",
      "type": "function"
    },
    {
      "inputs": [],
      "name": "borrowRatePerBlock",
      "outputs": [
        {
          "internalType": "uint256",
          "name": "",
          "type": "uint256"
        }
      ],
      "stateMutability": "view",
      "type": "function"
    },
    {
      "inputs": [
        {
          "internalType": "uint256",
          "name": "amount",
          "type": "uint256"
        }
      ],
      "name": "calculateFlashLoanFee",
      "outputs": [
        {
          "internalType": "uint256",
          "name": "",
          "type": "uint256"
        },
        {
          "internalType": "uint256",
          "name": "",
          "type": "uint256"
        }
      ],
      "stateMutability": "view",
      "type": "function"
    },
    {
      "inputs": [],
      "name": "comptroller",
      "outputs": [
        {
          "internalType": "contract ComptrollerInterface",
          "name": "",
          "type": "address"
        }
      ],
      "stateMutability": "view",
      "type": "function"
    },
    {
      "inputs": [],
      "name": "decimals",
      "outputs": [
        {
          "internalType": "uint8",
          "name": "",
          "type": "uint8"
        }
      ],
      "stateMutability": "view",
      "type": "function"
    },
    {
      "inputs": [],
      "name": "exchangeRateCurrent",
      "outputs": [
        {
          "internalType": "uint256",
          "name": "",
          "type": "uint256"
        }
      ],
      "stateMutability": "nonpayable",
      "type": "function"
    },
    {
      "inputs": [],
      "name": "exchangeRateStored",
      "outputs": [
        {
          "internalType": "uint256",
          "name": "",
          "type": "uint256"
        }
      ],
      "stateMutability": "view",
      "type": "function"
    },
    {
      "inputs": [
        {
          "internalType": "address payable",
          "name": "receiver",
          "type": "address"
        },
        {
          "internalType": "uint256",
          "name": "amount",
          "type": "uint256"
        },
        {
          "internalType": "bytes",
          "name": "param",
          "type": "bytes"
        }
      ],
      "name": "executeFlashLoan",
      "outputs": [
        {
          "internalType": "uint256",
          "name": "",
          "type": "uint256"
        }
      ],
      "stateMutability": "nonpayable",
      "type": "function"
    },
    {
      "inputs": [],
      "name": "flashLoanAmount",
      "outputs": [
        {
          "internalType": "uint256",
          "name": "",
          "type": "uint256"
        }
      ],
      "stateMutability": "view",
      "type": "function"
    },
    {
      "inputs": [],
      "name": "flashLoanFeeMantissa",
      "outputs": [
        {
          "internalType": "uint256",
          "name": "",
          "type": "uint256"
        }
      ],
      "stateMutability": "view",
      "type": "function"
    },
    {
      "inputs": [],
      "name": "flashLoanProtocolShareMantissa",
      "outputs": [
        {
          "internalType": "uint256",
          "name": "",
          "type": "uint256"
        }
      ],
      "stateMutability": "view",
      "type": "function"
    },
    {
      "inputs": [
        {
          "internalType": "address",
          "name": "account",
          "type": "address"
        }
      ],
      "name": "getAccountSnapshot",
      "outputs": [
        {
          "internalType": "uint256",
          "name": "",
          "type": "uint256"
        },
        {
          "internalType": "uint256",
          "name": "",
          "type": "uint256"
        },
        {
          "internalType": "uint256",
          "name": "",
          "type": "uint256"
        },
        {
          "internalType": "uint256",
          "name": "",
          "type": "uint256"
        }
      ],
      "stateMutability": "view",
      "type": "function"
    },
    {
      "inputs": [],
      "name": "getCash",
      "outputs": [
        {
          "internalType": "uint256",
          "name": "",
          "type": "uint256"
        }
      ],
      "stateMutability": "view",
      "type": "function"
    },
    {
      "inputs": [],
      "name": "implementation",
      "outputs": [
        {
          "internalType": "address",
          "name": "",
          "type": "address"
        }
      ],
      "stateMutability": "view",
      "type": "function"
    },
    {
      "inputs": [
        {
          "internalType": "address",
          "name": "underlying_",
          "type": "address"
        },
        {
          "internalType": "contract ComptrollerInterface",
          "name": "comptroller_",
          "type": "address"
        },
        {
          "internalType": "contract InterestRateModelV8",
          "name": "interestRateModel_",
          "type": "address"
        },
        {
          "internalType": "uint256",
          "name": "initialExchangeRateMantissa_",
          "type": "uint256"
        },
        {
          "internalType": "string",
          "name": "name_",
          "type": "string"
        },
        {
          "internalType": "string",
          "name": "symbol_",
          "type": "string"
        },
        {
          "internalType": "uint8",
          "name": "decimals_",
          "type": "uint8"
        }
      ],
      "name": "initialize",
      "outputs": [],
      "stateMutability": "nonpayable",
      "type": "function"
    },
    {
      "inputs": [
        {
          "internalType": "contract ComptrollerInterface",
          "name": "comptroller_",
          "type": "address"
        },
        {
          "internalType": "contract InterestRateModelV8",
          "name": "interestRateModel_",
          "type": "address"
        },
        {
          "internalType": "uint256",
          "name": "initialExchangeRateMantissa_",
          "type": "uint256"
        },
        {
          "internalType": "string",
          "name": "name_",
          "type": "string"
        },
        {
          "internalType": "string",
          "name": "symbol_",
          "type": "string"
        },
        {
          "internalType": "uint8",
          "name": "decimals_",
          "type": "uint8"
        }
      ],
      "name": "initialize",
      "outputs": [],
      "stateMutability": "nonpayable",
      "type": "function"
    },
    {
      "inputs": [],
      "name": "interestRateModel",
      "outputs": [
        {
          "internalType": "contract InterestRateModelV8",
          "name": "",
          "type": "address"
        }
      ],
      "stateMutability": "view",
      "type": "function"
    },
    {
      "inputs": [],
      "name": "isFlashLoanEnabled",
      "outputs": [
        {
          "internalType": "bool",
          "name": "",
          "type": "bool"
        }
      ],
      "stateMutability": "view",
      "type": "function"
    },
    {
      "inputs": [],
      "name": "isVToken",
      "outputs": [
        {
          "internalType": "bool",
          "name": "",
          "type": "bool"
        }
      ],
      "stateMutability": "view",
      "type": "function"
    },
    {
      "inputs": [
        {
          "internalType": "address",
          "name": "borrower",
          "type": "address"
        },
        {
          "internalType": "uint256",
          "name": "repayAmount",
          "type": "uint256"
        },
        {
          "internalType": "contract VTokenInterface",
          "name": "vTokenCollateral",
          "type": "address"
        }
      ],
      "name": "liquidateBorrow",
      "outputs": [
        {
          "internalType": "uint256",
          "name": "",
          "type": "uint256"
        }
      ],
      "stateMutability": "nonpayable",
      "type": "function"
    },
    {
      "inputs": [
        {
          "internalType": "uint256",
          "name": "mintAmount",
          "type": "uint256"
        }
      ],
      "name": "mint",
      "outputs": [
        {
          "internalType": "uint256",
          "name": "",
          "type": "uint256"
        }
      ],
      "stateMutability": "nonpayable",
      "type": "function"
    },
    {
      "inputs": [
        {
          "internalType": "address",
          "name": "receiver",
          "type": "address"
        },
        {
          "internalType": "uint256",
          "name": "mintAmount",
          "type": "uint256"
        }
      ],
      "name": "mintBehalf",
      "outputs": [
        {
          "internalType": "uint256",
          "name": "",
          "type": "uint256"
        }
      ],
      "stateMutability": "nonpayable",
      "type": "function"
    },
    {
      "inputs": [],
      "name": "name",
      "outputs": [
        {
          "internalType": "string",
          "name": "",
          "type": "string"
        }
      ],
      "stateMutability": "view",
      "type": "function"
    },
    {
      "inputs": [],
      "name": "pendingAdmin",
      "outputs": [
        {
          "internalType": "address payable",
          "name": "",
          "type": "address"
        }
      ],
      "stateMutability": "view",
      "type": "function"
    },
    {
      "inputs": [],
      "name": "protocolShareReserve",
      "outputs": [
        {
          "internalType": "address payable",
          "name": "",
          "type": "address"
        }
      ],
      "stateMutability": "view",
      "type": "function"
    },
    {
      "inputs": [
        {
          "internalType": "uint256",
          "name": "redeemTokens",
          "type": "uint256"
        }
      ],
      "name": "redeem",
      "outputs": [
        {
          "internalType": "uint256",
          "name": "",
          "type": "uint256"
        }
      ],
      "stateMutability": "nonpayable",
      "type": "function"
    },
    {
      "inputs": [
        {
          "internalType": "address",
          "name": "redeemer",
          "type": "address"
        },
        {
          "internalType": "uint256",
          "name": "redeemTokens",
          "type": "uint256"
        }
      ],
      "name": "redeemBehalf",
      "outputs": [
        {
          "internalType": "uint256",
          "name": "",
          "type": "uint256"
        }
      ],
      "stateMutability": "nonpayable",
      "type": "function"
    },
    {
      "inputs": [
        {
          "internalType": "uint256",
          "name": "redeemAmount",
          "type": "uint256"
        }
      ],
      "name": "redeemUnderlying",
      "outputs": [
        {
          "internalType": "uint256",
          "name": "",
          "type": "uint256"
        }
      ],
      "stateMutability": "nonpayable",
      "type": "function"
    },
    {
      "inputs": [
        {
          "internalType": "address",
          "name": "redeemer",
          "type": "address"
        },
        {
          "internalType": "uint256",
          "name": "redeemAmount",
          "type": "uint256"
        }
      ],
      "name": "redeemUnderlyingBehalf",
      "outputs": [
        {
          "internalType": "uint256",
          "name": "",
          "type": "uint256"
        }
      ],
      "stateMutability": "nonpayable",
      "type": "function"
    },
    {
      "inputs": [],
      "name": "reduceReservesBlockDelta",
      "outputs": [
        {
          "internalType": "uint256",
          "name": "",
          "type": "uint256"
        }
      ],
      "stateMutability": "view",
      "type": "function"
    },
    {
      "inputs": [],
      "name": "reduceReservesBlockNumber",
      "outputs": [
        {
          "internalType": "uint256",
          "name": "",
          "type": "uint256"
        }
      ],
      "stateMutability": "view",
      "type": "function"
    },
    {
      "inputs": [
        {
          "internalType": "uint256",
          "name": "repayAmount",
          "type": "uint256"
        }
      ],
      "name": "repayBorrow",
      "outputs": [
        {
          "internalType": "uint256",
          "name": "",
          "type": "uint256"
        }
      ],
      "stateMutability": "nonpayable",
      "type": "function"
    },
    {
      "inputs": [
        {
          "internalType": "address",
          "name": "borrower",
          "type": "address"
        },
        {
          "internalType": "uint256",
          "name": "repayAmount",
          "type": "uint256"
        }
      ],
      "name": "repayBorrowBehalf",
      "outputs": [
        {
          "internalType": "uint256",
          "name": "",
          "type": "uint256"
        }
      ],
      "stateMutability": "nonpayable",
      "type": "function"
    },
    {
      "inputs": [],
      "name": "reserveFactorMantissa",
      "outputs": [
        {
          "internalType": "uint256",
          "name": "",
          "type": "uint256"
        }
      ],
      "stateMutability": "view",
      "type": "function"
    },
    {
      "inputs": [
        {
          "internalType": "address",
          "name": "liquidator",
          "type": "address"
        },
        {
          "internalType": "address",
          "name": "borrower",
          "type": "address"
        },
        {
          "internalType": "uint256",
          "name": "seizeTokens",
          "type": "uint256"
        }
      ],
      "name": "seize",
      "outputs": [
        {
          "internalType": "uint256",
          "name": "",
          "type": "uint256"
        }
      ],
      "stateMutability": "nonpayable",
      "type": "function"
    },
    {
      "inputs": [
        {
          "internalType": "address",
          "name": "newAccessControlManagerAddress",
          "type": "address"
        }
      ],
      "name": "setAccessControlManager",
      "outputs": [
        {
          "internalType": "uint256",
          "name": "",
          "type": "uint256"
        }
      ],
      "stateMutability": "nonpayable",
      "type": "function"
    },
    {
      "inputs": [
        {
          "internalType": "bool",
          "name": "enabled",
          "type": "bool"
        }
      ],
      "name": "setFlashLoanEnabled",
      "outputs": [
        {
          "internalType": "uint256",
          "name": "",
          "type": "uint256"
        }
      ],
      "stateMutability": "nonpayable",
      "type": "function"
    },
    {
      "inputs": [
        {
          "internalType": "uint256",
          "name": "flashLoanFeeMantissa_",
          "type": "uint256"
        },
        {
          "internalType": "uint256",
          "name": "flashLoanProtocolShare_",
          "type": "uint256"
        }
      ],
      "name": "setFlashLoanFeeMantissa",
      "outputs": [
        {
          "internalType": "uint256",
          "name": "",
          "type": "uint256"
        }
      ],
      "stateMutability": "nonpayable",
      "type": "function"
    },
    {
      "inputs": [
        {
          "internalType": "address payable",
          "name": "protcolShareReserve_",
          "type": "address"
        }
      ],
      "name": "setProtocolShareReserve",
      "outputs": [],
      "stateMutability": "nonpayable",
      "type": "function"
    },
    {
      "inputs": [
        {
          "internalType": "uint256",
          "name": "newReduceReservesBlockDelta_",
          "type": "uint256"
        }
      ],
      "name": "setReduceReservesBlockDelta",
      "outputs": [],
      "stateMutability": "nonpayable",
      "type": "function"
    },
    {
      "inputs": [],
      "name": "supplyRatePerBlock",
      "outputs": [
        {
          "internalType": "uint256",
          "name": "",
          "type": "uint256"
        }
      ],
      "stateMutability": "view",
      "type": "function"
    },
    {
      "inputs": [],
      "name": "symbol",
      "outputs": [
        {
          "internalType": "string",
          "name": "",
          "type": "string"
        }
      ],
      "stateMutability": "view",
      "type": "function"
    },
    {
      "inputs": [],
      "name": "totalBorrows",
      "outputs": [
        {
          "internalType": "uint256",
          "name": "",
          "type": "uint256"
        }
      ],
      "stateMutability": "view",
      "type": "function"
    },
    {
      "inputs": [],
      "name": "totalBorrowsCurrent",
      "outputs": [
        {
          "internalType": "uint256",
          "name": "",
          "type": "uint256"
        }
      ],
      "stateMutability": "nonpayable",
      "type": "function"
    },
    {
      "inputs": [],
      "name": "totalReserves",
      "outputs": [
        {
          "internalType": "uint256",
          "name": "",
          "type": "uint256"
        }
      ],
      "stateMutability": "view",
      "type": "function"
    },
    {
      "inputs": [],
      "name": "totalSupply",
      "outputs": [
        {
          "internalType": "uint256",
          "name": "",
          "type": "uint256"
        }
      ],
      "stateMutability": "view",
      "type": "function"
    },
    {
      "inputs": [
        {
          "internalType": "address",
          "name": "dst",
          "type": "address"
        },
        {
          "internalType": "uint256",
          "name": "amount",
          "type": "uint256"
        }
      ],
      "name": "transfer",
      "outputs": [
        {
          "internalType": "bool",
          "name": "",
          "type": "bool"
        }
      ],
      "stateMutability": "nonpayable",
      "type": "function"
    },
    {
      "inputs": [
        {
          "internalType": "address",
          "name": "src",
          "type": "address"
        },
        {
          "internalType": "address",
          "name": "dst",
          "type": "address"
        },
        {
          "internalType": "uint256",
          "name": "amount",
          "type": "uint256"
        }
      ],
      "name": "transferFrom",
      "outputs": [
        {
          "internalType": "bool",
          "name": "",
          "type": "bool"
        }
      ],
      "stateMutability": "nonpayable",
      "type": "function"
    },
    {
      "inputs": [
        {
          "internalType": "address payable",
          "name": "from",
          "type": "address"
        },
        {
          "internalType": "uint256",
          "name": "amountRepaid",
          "type": "uint256"
        },
        {
          "internalType": "uint256",
          "name": "protocolFee",
          "type": "uint256"
        }
      ],
      "name": "transferInUnderlyingFlashLoan",
      "outputs": [
        {
          "internalType": "uint256",
          "name": "",
          "type": "uint256"
        }
      ],
      "stateMutability": "nonpayable",
      "type": "function"
    },
    {
      "inputs": [
        {
          "internalType": "address payable",
          "name": "to",
          "type": "address"
        },
        {
          "internalType": "uint256",
          "name": "amount",
          "type": "uint256"
        }
      ],
      "name": "transferOutUnderlyingFlashLoan",
      "outputs": [],
      "stateMutability": "nonpayable",
      "type": "function"
    },
    {
      "inputs": [],
      "name": "underlying",
      "outputs": [
        {
          "internalType": "address",
          "name": "",
          "type": "address"
        }
      ],
      "stateMutability": "view",
      "type": "function"
    }
  ],
  "transactionHash": "0x22eb3fff7ee7bc4a818fe7c87625e23b55b910244a301149ff05fa1c3fa638e3",
  "args": [],
  "numDeployments": 9,
  "solcInputHash": "e3b23a295799a47b8935e365d2c4321d",
  "bytecode": "0x6080604052348015600e575f80fd5b50615f008061001c5f395ff3fe608060405234801561000f575f80fd5b5060043610610422575f3560e01c806373acee981161022c578063b4a0bdf311610135578063df3a516e116100bf578063f3fdb15a11610084578063f3fdb15a14610915578063f5e3c46214610928578063f851a4401461093b578063f8f9da2814610953578063fca7820b1461095b575f80fd5b8063df3a516e146108c1578063e9a44fd9146108d4578063e9c714f2146108e7578063f2b3abbd146108ef578063f3df125314610902575f80fd5b8063c5ebeaec11610105578063c5ebeaec14610847578063d1109c2f1461085a578063d310dce514610863578063db006a7514610876578063dd62ed3e14610889575f80fd5b8063b4a0bdf3146107e6578063b71d1a0c146107f9578063bd6d894d1461080c578063c37f68e214610814575f80fd5b8063a55102f7116101b6578063aabf9b6311610186578063aabf9b631461079b578063ae3fcb1f146107ae578063ae96f141146107c2578063ae9d70b0146107cb578063b2a02ff1146107d3575f80fd5b8063a55102f714610764578063a6afed9514610777578063a9059cbb1461077f578063aa5af0fd14610792575f80fd5b80638f840ddd116101fc5780638f840ddd1461071a57806395d89b411461072357806395dd91931461072b57806399d8c1b41461073e578063a0712d6814610751575f80fd5b806373acee98146106d9578063852a12e3146106e1578063856e5bb3146106f45780638d1f23d414610707575f80fd5b806328e2dc6c1161032e57806356e67728116102b85780636c540baf116102885780636c540baf146106645780636f307dc31461066d57806370a082311461068057806371507cd5146106a857806373843962146106d0575f80fd5b806356e67728146106185780635c60da1b1461062b5780635fe3b5671461063e578063601a0bf114610651575f80fd5b80633c86778e116102fe5780633c86778e146105ce5780633d9ea3a1146105e15780633e941010146105e95780634576b5db146105fc57806347bd37181461060f575f80fd5b806328e2dc6c1461058b578063313ce567146105945780633af9e669146105b35780633b1d21a2146105c6575f80fd5b8063182df0f5116103af57806323323e031161037f57806323323e031461051457806323b872dd146105275780632464176b1461053a5780632608f8181461054d5780632678224714610560575f80fd5b8063182df0f5146104dd5780631a31d465146104e5578063210bc052146104f8578063217e7de21461050b575f80fd5b8063107568df116103f5578063107568df1461049b578063153ab505146104b0578063173b9904146104b857806317bfdfbc146104c157806318160ddd146104d4575f80fd5b806306fdde0314610426578063095ea7b3146104445780630e32cb86146104675780630e75270214610488575b5f80fd5b61042e61096e565b60405161043b9190615579565b60405180910390f35b61045761045236600461559f565b6109fa565b604051901515815260200161043b565b61047a6104753660046155c9565b610a66565b60405190815260200161043b565b61047a6104963660046155e4565b610ae2565b6104ae6104a93660046155c9565b610af5565b005b6104ae610b62565b61047a60085481565b61047a6104cf3660046155c9565b610bde565b61047a600d5481565b61047a610c4b565b6104ae6104f33660046156b5565b610c63565b61047a61050636600461559f565b610cf6565b61047a60185481565b61047a61052236600461559f565b610d95565b610457610535366004615764565b610daa565b6104ae6105483660046155e4565b610df8565b61047a61055b36600461559f565b610e99565b600454610573906001600160a01b031681565b6040516001600160a01b03909116815260200161043b565b61047a60175481565b6003546105a19060ff1681565b60405160ff909116815260200161043b565b61047a6105c13660046155c9565b610ea5565b61047a610efa565b61047a6105dc3660046157a2565b610f08565b610457600181565b61047a6105f73660046155e4565b610f85565b61047a61060a3660046155c9565b610f8f565b61047a600b5481565b6104ae6106263660046157c2565b6110ac565b601254610573906001600160a01b031681565b600554610573906001600160a01b031681565b61047a61065f3660046155e4565b611124565b61047a60095481565b601154610573906001600160a01b031681565b61047a61068e3660046155c9565b6001600160a01b03165f908152600e602052604090205490565b6106bb6106b63660046155e4565b6111ed565b6040805192835260208301919091520161043b565b61047a60195481565b61047a61124d565b61047a6106ef3660046155e4565b6112b0565b61047a61070236600461559f565b6112bc565b6104ae61071536600461559f565b611354565b61047a600c5481565b61042e611432565b61047a6107393660046155c9565b61143f565b6104ae61074c366004615807565b611458565b61047a61075f3660046155e4565b6115b5565b61047a6107723660046158b0565b6115c0565b61047a61167e565b61045761078d36600461559f565b6119d2565b61047a600a5481565b61047a6107a93660046158cb565b611a1e565b60165461045790600160a01b900460ff1681565b61047a60145481565b61047a611b65565b61047a6107e1366004615764565b611bfa565b601654610573906001600160a01b031681565b61047a6108073660046155c9565b611c46565b61047a611cb3565b6108276108223660046155c9565b611d1c565b60408051948552602085019390935291830152606082015260800161043b565b61047a6108553660046155e4565b611db4565b61047a60135481565b61047a61087136600461559f565b611dc0565b61047a6108843660046155e4565b611e2e565b61047a6108973660046158fd565b6001600160a01b039182165f908152600f6020908152604080832093909416825291909152205490565b61047a6108cf36600461559f565b611e3a565b601554610573906001600160a01b031681565b61047a611ed2565b61047a6108fd3660046155c9565b611fba565b61047a610910366004615934565b61202f565b600654610573906001600160a01b031681565b61047a6109363660046159b6565b61232f565b6003546105739061010090046001600160a01b031681565b61047a612346565b61047a6109693660046155e4565b612398565b6001805461097b906159f5565b80601f01602080910402602001604051908101604052809291908181526020018280546109a7906159f5565b80156109f25780601f106109c9576101008083540402835291602001916109f2565b820191905f5260205f20905b8154815290600101906020018083116109d557829003601f168201915b505050505081565b335f818152600f602090815260408083206001600160a01b038716808552925280832085905551919290917f8c5be1e5ebec7d5bd14f71427d1e84f3dd0314c0f7b2291e5b200ac8c7c3b92590610a549086815260200190565b60405180910390a35060015b92915050565b5f610a7033612436565b610a7982612487565b6016546040517f66fd58e82f7b31a2a5c30e0888f3093efe4e111b00cd2b0c31fe014601293aa091610ab8916001600160a01b03909116908590615a2d565b60405180910390a1601680546001600160a01b0319166001600160a01b0384161790555f92915050565b5f80610aed836124cc565b509392505050565b610afe33612436565b610b0781612487565b6015546040516001600160a01b038084169216907fafec95c8612496c3ecf5dddc71e393528fe29bd145fbaf9c6b496d78d7e2d79b905f90a3601580546001600160a01b0319166001600160a01b0392909216919091179055565b60035461010090046001600160a01b03163314610bdc5760405162461bcd60e51b815260206004820152602d60248201527f6f6e6c79207468652061646d696e206d61792063616c6c205f72657369676e4960448201526c36b83632b6b2b73a30ba34b7b760991b60648201526084015b60405180910390fd5b565b5f805460ff16610c005760405162461bcd60e51b8152600401610bd390615a5b565b5f805460ff19168155610c1161167e565b14610c2e5760405162461bcd60e51b8152600401610bd390615a7f565b610c378261143f565b90505b5f805460ff19166001179055919050565b5f805f610c56612554565b91509150610a6082612614565b610c71868686868686611458565b601180546001600160a01b0319166001600160a01b038916908117909155604080516318160ddd60e01b815290516318160ddd916004808201926020929091908290030181865afa158015610cc8573d5f803e3d5ffd5b505050506040513d601f19601f82011682018060405250810190610cec9190615aaf565b5050505050505050565b600554604051630217306760e31b81525f916001600160a01b0316906310b9833890610d289086903390600401615a2d565b602060405180830381865afa158015610d43573d5f803e3d5ffd5b505050506040513d601f19601f82011682018060405250810190610d679190615ac6565b610d835760405162461bcd60e51b8152600401610bd390615ae1565b610d8e833384612661565b9392505050565b5f80610da184846126e2565b50949350505050565b5f805460ff16610dcc5760405162461bcd60e51b8152600401610bd390615a5b565b5f805460ff19168155610de13386868661276c565b1490505b5f805460ff191660011790559392505050565b5f8111610e375760405162461bcd60e51b815260206004820152600d60248201526c125b9d985b1a5908125b9c1d5d609a1b6044820152606401610bd3565b610e58604051806060016040528060248152602001615e5f60249139612a54565b60135460408051918252602082018390527fc2ac513cdb57f91eb2bef4db918c285829524f549682b99717c6cb06cc011183910160405180910390a1601355565b5f80610da18484612b01565b5f806040518060200160405280610eba611cb3565b90526001600160a01b0384165f908152600e6020526040812054919250908190610ee5908490612b65565b91509150610ef282612614565b949350505050565b5f610f03612bb3565b905090565b5f610f2a604051806060016040528060288152602001615e8360289139612a54565b6017546018546040805192835260208301869052820152606081018390527f2dad8739cf01e920af3ac912c516b0d9f2bb61b3ae0df6751ac15b4ce499b00c9060800160405180910390a1601783905560188290555f610d8e565b5f610a6082612be3565b5f610f9933612436565b816001600160a01b0316627e3dd26040518163ffffffff1660e01b8152600401602060405180830381865afa158015610fd4573d5f803e3d5ffd5b505050506040513d601f19601f82011682018060405250810190610ff89190615ac6565b6110445760405162461bcd60e51b815260206004820152601c60248201527f6d61726b6572206d6574686f642072657475726e65642066616c7365000000006044820152606401610bd3565b6005546040517f7ac369dbd14fa5ea3f473ed67cc9d598964a77501540ba6751eb0b3decf5870d91611083916001600160a01b03909116908590615a2d565b60405180910390a1600580546001600160a01b0319166001600160a01b0384161790555f610a60565b60035461010090046001600160a01b031633146111215760405162461bcd60e51b815260206004820152602d60248201527f6f6e6c79207468652061646d696e206d61792063616c6c205f6265636f6d654960448201526c36b83632b6b2b73a30ba34b7b760991b6064820152608401610bd3565b50565b5f805460ff166111465760405162461bcd60e51b8152600401610bd390615a5b565b5f805460ff1916905560408051808201909152601881527f5f72656475636552657365727665732875696e74323536290000000000000000602082015261118c90612a54565b5f61119561167e565b905080156111c1576111b98160118111156111b2576111b2615a47565b6031612c58565b915050610c3a565b43601454036111d0575f6111b9565b6111d983612ccf565b9150505f805460ff19166001179055919050565b5f805f805f61120c604051806020016040528088815250601754612b65565b909350915061121a83612614565b611234604051806020016040528084815250601854612b65565b909350905061124283612614565b909590945092505050565b5f805460ff1661126f5760405162461bcd60e51b8152600401610bd390615a5b565b5f805460ff1916815561128061167e565b1461129d5760405162461bcd60e51b8152600401610bd390615a7f565b50600b545f805460ff1916600117905590565b5f610a60333384612e09565b600554604051630217306760e31b81525f916001600160a01b0316906310b98338906112ee9086903390600401615a2d565b602060405180830381865afa158015611309573d5f803e3d5ffd5b505050506040513d601f19601f8201168201806040525081019061132d9190615ac6565b6113495760405162461bcd60e51b8152600401610bd390615ae1565b610d8e833384612e65565b5f5460ff166113755760405162461bcd60e51b8152600401610bd390615a5b565b5f805460ff191690556005546001600160a01b031633146113a9576040516383aebebd60e01b815260040160405180910390fd5b601954156113ca5760405163a27c5ef560e01b815260040160405180910390fd5b60198190556113d98282612ec2565b6011546040517fed390ff4cd5d5bdb5fded9f07c424d542477dd327852e10661da4f8c9e3ec0fb9161141a916001600160a01b039091169085908590615b18565b60405180910390a150505f805460ff19166001179055565b6002805461097b906159f5565b5f805f61144b84612ede565b91509150610d8e82612614565b61146133612436565b6009541580156114715750600a54155b801561147c57505f84115b6114d45760405162461bcd60e51b815260206004820152602360248201527f6d61726b6574206d6179206f6e6c7920626520696e697469616c697a6564206f6044820152626e636560e81b6064820152608401610bd3565b60078490555f6114e387610f8f565b43600955670de0b6b3a7640000600a5590505f6114ff87612f91565b90508115801561150d575080155b6115755760405162461bcd60e51b815260206004820152603360248201527f636f6d7074726f6c6c6572206f7220696e746572657374206d6f64656c20696e6044820152721a5d1a585b1a5e985d1a5bdb8819985a5b1959606a1b6064820152608401610bd3565b60016115818682615b87565b50600261158e8582615b87565b50506003805460ff90931660ff19938416179055505f805490911660011790555050505050565b5f80610aed836130bb565b5f6115ff6040518060400160405280601981526020017f736574466c6173684c6f616e456e61626c656428626f6f6c2900000000000000815250612a54565b60165460ff600160a01b909104161515821515146116785760165460408051600160a01b90920460ff161515825283151560208301527f6179d7cddb0b19126b3b757ad2848f4ed08a449c99d276ef74bbf4e54984209b910160405180910390a16016805460ff60a01b1916600160a01b841515021790555b5f610a60565b6009545f904390818103611695575f5b9250505090565b5f61169e612bb3565b600b54600c54600a546006546040516315f2405360e01b81526004810186905260248101859052604481018490529495509293919290915f916001600160a01b0316906315f2405390606401602060405180830381865afa158015611705573d5f803e3d5ffd5b505050506040513d601f19601f820116820180604052508101906117299190615aaf565b905065048c273950008111156117815760405162461bcd60e51b815260206004820152601c60248201527f626f72726f772072617465206973206162737572646c792068696768000000006044820152606401610bd3565b5f8061178d8989613117565b9150915061179a82612614565b60408051602081019091525f81525f805f806117c460405180602001604052808a81525087613137565b90975094505f8760038111156117dc576117dc615a47565b14611812576117ff600960068960038111156117fa576117fa615a47565b6131ac565b9e50505050505050505050505050505090565b61181c858c612b65565b90975093505f87600381111561183457611834615a47565b14611852576117ff600960018960038111156117fa576117fa615a47565b61185c848c613223565b90975092505f87600381111561187457611874615a47565b14611892576117ff600960048960038111156117fa576117fa615a47565b6118ad6040518060200160405280600854815250858c613246565b90975091505f8760038111156118c5576118c5615a47565b146118e3576117ff600960058960038111156117fa576117fa615a47565b6118ee858a8b613246565b90975090505f87600381111561190657611906615a47565b14611924576117ff600960038960038111156117fa576117fa615a47565b60098e9055600a819055600b839055600c829055601454611946908f90613117565b909750955061195487612614565b60135486106119845760148e9055818c1015611979576119738c612ccf565b50611984565b61198282612ccf565b505b604080518d815260208101869052908101829052606081018490527f4dec04e750ca11537cabcd8a9eab06494de08da3735bc8871cd41250e190bc049060800160405180910390a15f6117ff565b5f805460ff166119f45760405162461bcd60e51b8152600401610bd390615a5b565b5f805460ff19168155611a093333868661276c565b1490505f805460ff1916600117905592915050565b5f805460ff16611a405760405162461bcd60e51b8152600401610bd390615a5b565b5f805460ff191690556005546001600160a01b03163314611a74576040516383aebebd60e01b815260040160405180910390fd5b5f611a7f858561329d565b601554909150611a98906001600160a01b031684612ec2565b6015546005546011546040516305bebb3b60e21b81526001600160a01b03938416936316faecec93611ad69390821692911690600390600401615c47565b5f604051808303815f87803b158015611aed575f80fd5b505af1158015611aff573d5f803e3d5ffd5b50505f60195550506011546040517fefe6e7f6a747d923dcb18f62c5d690a34ab6e21979152c8c6739391307998d3091611b48916001600160a01b039091169088908590615b18565b60405180910390a190505f805460ff191660011790559392505050565b6006545f906001600160a01b031663b8168816611b80612bb3565b600b54600c546008546040516001600160e01b031960e087901b16815260048101949094526024840192909252604483015260648201526084015b602060405180830381865afa158015611bd6573d5f803e3d5ffd5b505050506040513d601f19601f82011682018060405250810190610f039190615aaf565b5f805460ff16611c1c5760405162461bcd60e51b8152600401610bd390615a5b565b5f805460ff19169055611c31338585856133a0565b90505f805460ff191660011790559392505050565b5f611c5033612436565b600480546001600160a01b038481166001600160a01b03198316179092556040519116907fca4f2f25d0898edd99413412fb94012f9e54ec8142f9b093e7720646a95b16a990611ca39083908690615a2d565b60405180910390a15f9392505050565b5f805460ff16611cd55760405162461bcd60e51b8152600401610bd390615a5b565b5f805460ff19168155611ce661167e565b14611d035760405162461bcd60e51b8152600401610bd390615a7f565b611d0b610c4b565b90505f805460ff1916600117905590565b5f805f805f805f611d2c88612ede565b935090505f816003811115611d4357611d43615a47565b14611d5e5760095b5f805f9650965096509650505050611dad565b611d66612554565b925090505f816003811115611d7d57611d7d615a47565b14611d89576009611d4b565b506001600160a01b0387165f908152600e6020526040812054909650945090925090505b9193509193565b5f610a60333384612e65565b6005545f906001600160a01b03163314611ded576040516383aebebd60e01b815260040160405180910390fd5b5f611df661167e565b90508015611e2257611e1a816011811115611e1357611e13615a47565b6008612c58565b915050610a60565b610ef2845f855f6135de565b5f610a60333384612661565b600554604051630217306760e31b81525f916001600160a01b0316906310b9833890611e6c9086903390600401615a2d565b602060405180830381865afa158015611e87573d5f803e3d5ffd5b505050506040513d601f19601f82011682018060405250810190611eab9190615ac6565b611ec75760405162461bcd60e51b8152600401610bd390615ae1565b610d8e833384612e09565b6004545f906001600160a01b03163314611ef157610f0360015f612c58565b60038054600480546001600160a01b03818116610100818102610100600160a81b0319871617968790556001600160a01b03199093169093556040519382900481169492937ff9ffabca9c8276e99321725bcb43fb076a6c66a54b7f21c4e8146d8519b417dc93611f6793879391041690615a2d565b60405180910390a16004546040517fca4f2f25d0898edd99413412fb94012f9e54ec8142f9b093e7720646a95b16a991611fac9184916001600160a01b031690615a2d565b60405180910390a15f61168e565b5f611ff96040518060400160405280601e81526020017f5f736574496e746572657374526174654d6f64656c2861646472657373290000815250612a54565b5f61200261167e565b9050801561202657610d8e81601181111561201f5761201f615a47565b6041612c58565b610d8e83612f91565b5f805460ff166120515760405162461bcd60e51b8152600401610bd390615a5b565b5f805460ff19169055601654600160a01b900460ff1661208457604051630a3fad8360e01b815260040160405180910390fd5b61208d85612487565b60055460405163e0f6123d60e01b81523360048201526001600160a01b039091169063e0f6123d90602401602060405180830381865afa1580156120d3573d5f803e3d5ffd5b505050506040513d601f19601f820116820180604052508101906120f79190615ac6565b61211657604051630b59dd5360e21b8152336004820152602401610bd3565b8360195f8282546121279190615c9d565b9091555061213790508585612ec2565b5f612140612bb3565b90505f8061214d876111ed565b90925090505f61215d8389615c9d565b601154604051631b11d0ff60e01b81529192506001600160a01b03808c1692631b11d0ff9261219a9216908c90889033908e908e90600401615cb0565b6020604051808303815f875af11580156121b6573d5f803e3d5ffd5b505050506040513d601f19601f820116820180604052508101906121da9190615ac6565b6121f757604051635a3b2cbb60e11b815260040160405180910390fd5b612201898261329d565b508760195f8282546122139190615d0a565b9091555081905084612223612bb3565b61222d9190615d0a565b101561224c57604051630443f54160e21b815260040160405180910390fd5b601554612262906001600160a01b031683612ec2565b6015546005546011546040516305bebb3b60e21b81526001600160a01b03938416936316faecec936122a09390821692911690600390600401615c47565b5f604051808303815f87803b1580156122b7575f80fd5b505af11580156122c9573d5f803e3d5ffd5b50506011546040517fd9695a91e344c843728f8b129d7a8f4b5d524af23f18b18dceb82c7381867957935061230c92508c916001600160a01b0316908c90615b18565b60405180910390a15f9450505050505f805460ff19166001179055949350505050565b5f8061233c858585613896565b5095945050505050565b6006545f906001600160a01b03166315f24053612361612bb3565b600b54600c546040516001600160e01b031960e086901b168152600481019390935260248301919091526044820152606401611bbb565b5f805460ff166123ba5760405162461bcd60e51b8152600401610bd390615a5b565b5f805460ff1916905560408051808201909152601a81527f5f73657452657365727665466163746f722875696e7432353629000000000000602082015261240090612a54565b5f61240961167e565b9050801561242d576111b981601181111561242657612426615a47565b6047612c58565b6111d9836139a7565b6003546001600160a01b0382811661010090920416146111215760405162461bcd60e51b815260206004820152600c60248201526b155b985d5d1a1bdc9a5e995960a21b6044820152606401610bd3565b6001600160a01b0381166111215760405162461bcd60e51b815260206004820152600c60248201526b7a65726f206164647265737360a01b6044820152606401610bd3565b5f8054819060ff166124f05760405162461bcd60e51b8152600401610bd390615a5b565b5f805460ff1916815561250161167e565b905080156125305761252581601181111561251e5761251e615a47565b6037612c58565b5f9250925050612541565b61253b333386613a17565b92509250505b5f805460ff191660011790559092909150565b600d545f90819080820361256e5750506007545f92909150565b5f612577612bb3565b90505f61258f60405180602001604052805f81525090565b5f6125ac601954856125a19190615c9d565b600b54600c54613d70565b935090505f8160038111156125c3576125c3615a47565b146125d457965f9650945050505050565b6125de8386613db0565b925090505f8160038111156125f5576125f5615a47565b1461260657965f9650945050505050565b50515f969095509350505050565b5f81600381111561262757612627615a47565b146111215760405162461bcd60e51b815260206004820152600a60248201526936b0ba341032b93937b960b11b6044820152606401610bd3565b5f805460ff166126835760405162461bcd60e51b8152600401610bd390615a5b565b5f805460ff1916815561269461167e565b905080156126c0576126b88160118111156126b1576126b1615a47565b6027612c58565b915050610de5565b6126cc8585855f613e72565b9150505f805460ff191660011790559392505050565b5f8054819060ff166127065760405162461bcd60e51b8152600401610bd390615a5b565b5f805460ff1916815561271761167e565b905080156127465761273b81601181111561273457612734615a47565b601e612c58565b5f9250925050612757565b6127513386866144d4565b92509250505b5f805460ff1916600117905590939092509050565b6005546040516317b9b84b60e31b81525f9182916001600160a01b039091169063bdcdc258906127a6903090899089908990600401615d1d565b6020604051808303815f875af11580156127c2573d5f803e3d5ffd5b505050506040513d601f19601f820116820180604052508101906127e69190615aaf565b90508015612803576127fb6003604b836131ac565b915050610ef2565b836001600160a01b0316856001600160a01b031603612828576127fb6002604c612c58565b5f856001600160a01b0316876001600160a01b03160361284a57505f19612871565b506001600160a01b038086165f908152600f60209081526040808320938a16835292905220545b5f805f8061287f8589613117565b90945092505f84600381111561289757612897615a47565b146128b5576128a86009604c612c58565b9650505050505050610ef2565b6001600160a01b038a165f908152600e60205260409020546128d79089613117565b90945091505f8460038111156128ef576128ef615a47565b14612900576128a86009604d612c58565b6001600160a01b0389165f908152600e60205260409020546129229089613223565b90945090505f84600381111561293a5761293a615a47565b1461294b576128a86009604e612c58565b6001600160a01b03808b165f908152600e6020526040808220859055918b168152208190555f1985146129a0576001600160a01b03808b165f908152600f60209081526040808320938f168352929052208390555b886001600160a01b03168a6001600160a01b03165f80516020615eab8339815191528a6040516129d291815260200190565b60405180910390a360055460405163352b4a3f60e11b81526001600160a01b0390911690636a56947e90612a109030908e908e908e90600401615d1d565b5f604051808303815f87803b158015612a27575f80fd5b505af1158015612a39573d5f803e3d5ffd5b505f9250612a45915050565b9b9a5050505050505050505050565b6016546040516318c5e8ab60e01b81526001600160a01b03909116906318c5e8ab90612a869033908590600401615d47565b602060405180830381865afa158015612aa1573d5f803e3d5ffd5b505050506040513d601f19601f82011682018060405250810190612ac59190615ac6565b6111215760405162461bcd60e51b815260206004820152600d60248201526c1858d8d95cdcc819195b9a5959609a1b6044820152606401610bd3565b5f8054819060ff16612b255760405162461bcd60e51b8152600401610bd390615a5b565b5f805460ff19168155612b3661167e565b90508015612b5a5761273b816011811115612b5357612b53615a47565b6036612c58565b612751338686613a17565b5f805f80612b738686613137565b90925090505f826003811115612b8b57612b8b615a47565b14612b9b575091505f9050612bac565b5f612ba582614874565b9350935050505b9250929050565b6011546040516370a0823160e01b81523060048201525f916001600160a01b0316906370a0823190602401611bbb565b5f805460ff16612c055760405162461bcd60e51b8152600401610bd390615a5b565b5f805460ff19168155612c1661167e565b90508015612c3a576111b9816011811115612c3357612c33615a47565b604f612c58565b612c438361488b565b509150505f805460ff19166001179055919050565b5f7f45b96fe442630264581b197e84bbada861235052c5a1aadfff9ea4e40a969aa0836011811115612c8c57612c8c615a47565b836056811115612c9e57612c9e615a47565b6040805192835260208301919091525f9082015260600160405180910390a1826011811115610d8e57610d8e615a47565b5f815f03612cdd575f610a60565b4360095414612cf257610a60600a6034612c58565b81612cfb612bb3565b1015612d0d57610a60600e6033612c58565b600c54821115612d2357610a6060026035612c58565b81600c54612d319190615d0a565b600c55601554612d4a906001600160a01b031683612ec2565b6015546005546011546040516305bebb3b60e21b81526001600160a01b03938416936316faecec93612d8793908216929116905f90600401615c47565b5f604051808303815f87803b158015612d9e575f80fd5b505af1158015612db0573d5f803e3d5ffd5b5050601554600c54604080516001600160a01b039093168352602083018790528201527f3bad0c59cf2f06e7314077049f48a93578cd16f5ef92329f1dab1420a99c177e9250606001905060405180910390a15f610a60565b5f805460ff16612e2b5760405162461bcd60e51b8152600401610bd390615a5b565b5f805460ff19168155612e3c61167e565b90508015612e59576126b88160118111156126b1576126b1615a47565b6126cc85855f86613e72565b5f805460ff16612e875760405162461bcd60e51b8152600401610bd390615a5b565b5f805460ff19168155612e9861167e565b90508015612eb5576126b8816011811115611e1357611e13615a47565b6126cc85858560016135de565b6011546001600160a01b0316612ed9818484614968565b505050565b6001600160a01b0381165f908152601060205260408120805482918291829182918203612f1357505f96879650945050505050565b612f22815f0154600a546149cb565b90945092505f846003811115612f3a57612f3a615a47565b14612f4c575091955f95509350505050565b612f5a838260010154614a08565b90945091505f846003811115612f7257612f72615a47565b14612f84575091955f95509350505050565b505f969095509350505050565b5f4360095414612fa757610a60600a6042612c58565b816001600160a01b0316632191f92a6040518163ffffffff1660e01b8152600401602060405180830381865afa158015612fe3573d5f803e3d5ffd5b505050506040513d601f19601f820116820180604052508101906130079190615ac6565b6130535760405162461bcd60e51b815260206004820152601c60248201527f6d61726b6572206d6574686f642072657475726e65642066616c7365000000006044820152606401610bd3565b6006546040517fedffc32e068c7c95dfd4bdfd5c4d939a084d6b11c4199eac8436ed234d72f92691613092916001600160a01b03909116908590615a2d565b60405180910390a1600680546001600160a01b0319166001600160a01b0384161790555f610a60565b5f8054819060ff166130df5760405162461bcd60e51b8152600401610bd390615a5b565b5f805460ff191681556130f061167e565b9050801561310d5761252581601181111561273457612734615a47565b61253b3385614a32565b5f8083831161312c57505f9050818303612bac565b50600390505f612bac565b5f61314d60405180602001604052805f81525090565b5f8061315c865f0151866149cb565b90925090505f82600381111561317457613174615a47565b14613192575060408051602081019091525f81529092509050612bac565b60408051602081019091529081525f969095509350505050565b5f7f45b96fe442630264581b197e84bbada861235052c5a1aadfff9ea4e40a969aa08460118111156131e0576131e0615a47565b8460568111156131f2576131f2615a47565b604080519283526020830191909152810184905260600160405180910390a1836011811115610ef257610ef2615a47565b5f80838301848110613239575f92509050612bac565b60025f9250925050612bac565b5f805f806132548787613137565b90925090505f82600381111561326c5761326c615a47565b1461327c575091505f9050613295565b61328e61328882614874565b86613223565b9350935050505b935093915050565b6011546040516370a0823160e01b81523060048201525f916001600160a01b031690829082906370a0823190602401602060405180830381865afa1580156132e7573d5f803e3d5ffd5b505050506040513d601f19601f8201168201806040525081019061330b9190615aaf565b90506133226001600160a01b038316863087614da4565b6040516370a0823160e01b81523060048201525f906001600160a01b038416906370a0823190602401602060405180830381865afa158015613366573d5f803e3d5ffd5b505050506040513d601f19601f8201168201806040525081019061338a9190615aaf565b90506133968282615d0a565b9695505050505050565b60055460405163d02f735160e01b81525f9182916001600160a01b039091169063d02f7351906133dc9030908a908a908a908a90600401615d6a565b6020604051808303815f875af11580156133f8573d5f803e3d5ffd5b505050506040513d601f19601f8201168201806040525081019061341c9190615aaf565b90508015613431576127fb6003601b836131ac565b846001600160a01b0316846001600160a01b031603613456576127fb6006601c612c58565b6001600160a01b0384165f908152600e60205260408120548190819061347c9087613117565b90935091505f83600381111561349457613494615a47565b146134bd576134b26009601a8560038111156117fa576117fa615a47565b945050505050610ef2565b6001600160a01b0388165f908152600e60205260409020546134df9087613223565b90935090505f8360038111156134f7576134f7615a47565b14613515576134b2600960198560038111156117fa576117fa615a47565b6001600160a01b038088165f818152600e6020526040808220869055928b168082529083902084905591515f80516020615eab8339815191529061355c908a815260200190565b60405180910390a3600554604051636d35bf9160e01b81526001600160a01b0390911690636d35bf919061359c9030908d908d908d908d90600401615d6a565b5f604051808303815f87803b1580156135b3575f80fd5b505af11580156135c5573d5f803e3d5ffd5b505f92506135d1915050565b9998505050505050505050565b60055460405163368f515360e21b81525f9182916001600160a01b039091169063da3d454c906136169030908a908990600401615b18565b6020604051808303815f875af1158015613632573d5f803e3d5ffd5b505050506040513d601f19601f820116820180604052508101906136569190615aaf565b9050801561366b576127fb6003600e836131ac565b436009541461367f576127fb600a80612c58565b828015613692575083613690612bb3565b105b156136a3576127fb600e6009612c58565b6136cb6040805160808101909152805f81526020015f81526020015f81526020015f81525090565b6136d487612ede565b60208301819052828260038111156136ee576136ee615a47565b60038111156136ff576136ff615a47565b90525050805161370e90612614565b61371c816020015186613223565b604083018190528282600381111561373657613736615a47565b600381111561374757613747615a47565b90525050805161375690612614565b613762600b5486613223565b606083018190528282600381111561377c5761377c615a47565b600381111561378d5761378d615a47565b90525050805161379c90612614565b6040808201516001600160a01b0389165f908152601060205291909120908155600a546001909101556060810151600b5583156137dd576137dd8686612ec2565b7f13ed6866d4e1ee6da46f845c46d7e54120883d75c5ea9a2dacc1c4ca8984ab8087868360400151846060015160405161381a9493929190615d9d565b60405180910390a1600554604051635c77860560e01b81526001600160a01b0390911690635c778605906138569030908b908a90600401615b18565b5f604051808303815f87803b15801561386d575f80fd5b505af115801561387f573d5f803e3d5ffd5b505f925061388b915050565b979650505050505050565b5f8054819060ff166138ba5760405162461bcd60e51b8152600401610bd390615a5b565b5f805460ff191681556138cb61167e565b905080156138fa576138ef8160118111156138e8576138e8615a47565b600f612c58565b5f9250925050613991565b836001600160a01b031663a6afed956040518163ffffffff1660e01b81526004016020604051808303815f875af1158015613937573d5f803e3d5ffd5b505050506040513d601f19601f8201168201806040525081019061395b9190615aaf565b9050801561397f576138ef81601181111561397857613978615a47565b6010612c58565b61398b33878787614dcb565b92509250505b5f805460ff191660011790559094909350915050565b5f43600954146139bd57610a60600a6049612c58565b670de0b6b3a76400008211156139d957610a606002604a612c58565b600880549083905560408051828152602081018590527faaa68312e2ea9d50e16af5068410ab56e1a1fd06037b1a35664812c30f8214609101611ca3565b600554604051631200453160e11b81525f91829182916001600160a01b0316906324008a6290613a519030908a908a908a90600401615d1d565b6020604051808303815f875af1158015613a6d573d5f803e3d5ffd5b505050506040513d601f19601f82011682018060405250810190613a919190615aaf565b90508015613ab157613aa660036039836131ac565b5f9250925050613295565b4360095414613ac657613aa6600a603a612c58565b613b07604080516101008101909152805f81526020015f81526020015f81526020015f81526020015f81526020015f81526020015f81526020015f81525090565b6001600160a01b0386165f908152601060205260409020600101546060820152613b3086612ede565b6080830181905260208301826003811115613b4d57613b4d615a47565b6003811115613b5e57613b5e615a47565b8152505050613b708160200151612614565b5f198503613b875760808101516040820152613b8f565b604081018590525b613b9d87826040015161329d565b60e082018190526080820151613bb291613117565b60a0830181905260208301826003811115613bcf57613bcf615a47565b6003811115613be057613be0615a47565b8152505050613bf28160200151612614565b613c02600b548260e00151613117565b60c0830181905260208301826003811115613c1f57613c1f615a47565b6003811115613c3057613c30615a47565b8152505050613c428160200151612614565b60a081810180516001600160a01b038981165f81815260106020908152604091829020948555600a5460019095019490945560c0870151600b81905560e088015195518251948f16855294840192909252820193909352606081019190915260808101919091527f1a2a22cb034d26d1854bdc6666a5b91fe25efbbb5dcad3b0355478d6f5c362a1910160405180910390a160055460e08201516060830151604051631ededc9160e01b81523060048201526001600160a01b038b811660248301528a8116604483015260648201939093526084810191909152911690631ededc919060a4015f604051808303815f87803b158015613d3f575f80fd5b505af1158015613d51573d5f803e3d5ffd5b505f9250613d5d915050565b8160e00151935093505050935093915050565b5f805f80613d7e8787613223565b90925090505f826003811115613d9657613d96615a47565b14613da6575091505f9050613295565b61328e8186613117565b5f613dc660405180602001604052805f81525090565b5f80613dda86670de0b6b3a76400006149cb565b90925090505f826003811115613df257613df2615a47565b14613e10575060408051602081019091525f81529092509050612bac565b5f80613e1c8388614a08565b90925090505f826003811115613e3457613e34615a47565b14613e56578160405180602001604052805f8152509550955050505050612bac565b60408051602081019091529081525f9890975095505050505050565b5f821580613e7e575081155b613ee75760405162461bcd60e51b815260206004820152603460248201527f6f6e65206f662072656465656d546f6b656e73496e206f722072656465656d416044820152736d6f756e74496e206d757374206265207a65726f60601b6064820152608401610bd3565b613eef61551a565b613ef7612554565b6020830181905282826003811115613f1157613f11615a47565b6003811115613f2257613f22615a47565b905250508051613f3190612614565b8315613f9857604080820185905280516020808201909252908201518152613f599085612b65565b6060830181905282826003811115613f7357613f73615a47565b6003811115613f8457613f84615a47565b905250508051613f9390612614565b613ff6565b613fb483604051806020016040528084602001518152506152bf565b6040830181905282826003811115613fce57613fce615a47565b6003811115613fdf57613fdf615a47565b905250508051613fee90612614565b606081018390525b600554604080830151905163eabe7d9160e01b81525f926001600160a01b03169163eabe7d919161402e9130918c9190600401615b18565b6020604051808303815f875af115801561404a573d5f803e3d5ffd5b505050506040513d601f19601f8201168201806040525081019061406e9190615aaf565b9050801561408c5761408360036028836131ac565b92505050610ef2565b43600954146140a157614083600a602d612c58565b6140b1600d548360400151613117565b60808401819052838260038111156140cb576140cb615a47565b60038111156140dc576140dc615a47565b9052505081516140eb90612614565b6001600160a01b0387165f908152600e60205260409081902054908301516141139190613117565b60a084018190528382600381111561412d5761412d615a47565b600381111561413e5761413e615a47565b90525050815161414d90612614565b816060015161415a612bb3565b101561416c57614083600e6029612c58565b6080820151600d5560a08201516001600160a01b038089165f908152600e60209081526040808320949094556005548451629df3ab60e31b815294519294859491909116926304ef9d58926004808401939192918290030181865afa1580156141d7573d5f803e3d5ffd5b505050506040513d601f19601f820116820180604052508101906141fb9190615aaf565b1561440257606084015160055460408051629df3ab60e31b8152905161427793926001600160a01b0316916304ef9d589160048083019260209291908290030181865afa15801561424e573d5f803e3d5ffd5b505050506040513d601f19601f820116820180604052508101906142729190615aaf565b6149cb565b9250828582600381111561428d5761428d615a47565b600381111561429e5761429e615a47565b9052505083516142ad90612614565b6142bf82670de0b6b3a7640000614a08565b925082858260038111156142d5576142d5615a47565b60038111156142e6576142e6615a47565b9052505083516142f590612614565b614303846060015183613117565b9150818582600381111561431957614319615a47565b600381111561432a5761432a615a47565b90525050835161433990612614565b6005546040805163c5f956af60e01b815290515f926001600160a01b03169163c5f956af9160048083019260209291908290030181865afa158015614380573d5f803e3d5ffd5b505050506040513d601f19601f820116820180604052508101906143a49190615dc3565b90506143b08184612ec2565b60408086015181516001600160a01b038d16815260208101869052918201527fccf8e53b86a99b7e9ecf796342c165764d66154780f638c08e6241d711fba6d49060600160405180910390a150614409565b5060608301515b6144138882612ec2565b306001600160a01b0316896001600160a01b03165f80516020615eab833981519152866040015160405161444991815260200190565b60405180910390a37fbd5034ffbd47e4e72a94baa2cdb74c6fad73cb3bcdc13036b72ec8306f5a7646898286604001518760a0015160405161448e9493929190615d9d565b60405180910390a1600554606085015160408087015190516351dff98960e01b81526001600160a01b03909316926351dff9899261359c9230928f929190600401615dde565b5f806144df84612487565b600554604051634ef4c3e160e01b81525f916001600160a01b031690634ef4c3e19061451390309089908990600401615b18565b6020604051808303815f875af115801561452f573d5f803e3d5ffd5b505050506040513d601f19601f820116820180604052508101906145539190615aaf565b9050801561456857613aa66003601f836131ac565b436009541461457d57613aa6600a6022612c58565b61458561551a565b61458d612554565b60208301819052828260038111156145a7576145a7615a47565b60038111156145b8576145b8615a47565b9052505f9050815160038111156145d1576145d1615a47565b146145fe576145f260096021835f015160038111156117fa576117fa615a47565b5f935093505050613295565b614608878661329d565b60a0820181905260408051602080820190925290830151815261462b91906152bf565b604083018190528282600381111561464557614645615a47565b600381111561465657614656615a47565b90525050805161466590612614565b614675600d548260400151613223565b606083018190528282600381111561468f5761468f615a47565b60038111156146a0576146a0615a47565b9052505080516146af90612614565b6001600160a01b0386165f908152600e60205260409081902054908201516146d79190613223565b60808301819052828260038111156146f1576146f1615a47565b600381111561470257614702615a47565b90525050805161471190612614565b6060810151600d556080810180516001600160a01b0388165f908152600e6020526040908190209190915560a083015181840151925191517fa24ddbdf0865ba440d364725c062eac72a908faeedffc33fe64d4640c82e3ab8936147a8938c938c93909291906001600160a01b03958616815293909416602084015260408301919091526060820152608081019190915260a00190565b60405180910390a1856001600160a01b0316306001600160a01b03165f80516020615eab83398151915283604001516040516147e691815260200190565b60405180910390a360055460a082015160408084015190516341c728b960e01b81526001600160a01b03909316926341c728b99261482c9230928c929190600401615dde565b5f604051808303815f87803b158015614843575f80fd5b505af1158015614855573d5f803e3d5ffd5b505f9250614861915050565b8160a00151935093505050935093915050565b80515f90610a6090670de0b6b3a764000090615e07565b5f805f8043600954146148ae576148a4600a6050612c58565b9590945092505050565b6148b8338661329d565b905080600c546148c89190615c9d565b9150600c5482101561491c5760405162461bcd60e51b815260206004820181905260248201527f61646420726573657276657320756e6578706563746564206f766572666c6f776044820152606401610bd3565b600c82905560408051338152602081018390529081018390527fa91e67c5ea634cd43a12c5a482724b03de01e85ca68702a53d0c2f45cb7c1dc59060600160405180910390a15f6148a4565b6040516001600160a01b038316602482015260448101829052612ed990849063a9059cbb60e01b906064015b60408051601f198184030181529190526020810180516001600160e01b03166001600160e01b0319909316929092179091526152cd565b5f80835f036149de57505f905080612bac565b838302836149ec8683615e07565b146149fe5760025f9250925050612bac565b5f92509050612bac565b5f80825f03614a1c5750600190505f612bac565b5f614a278486615e07565b915091509250929050565b600554604051634ef4c3e160e01b81525f91829182916001600160a01b031690634ef4c3e190614a6a90309089908990600401615b18565b6020604051808303815f875af1158015614a86573d5f803e3d5ffd5b505050506040513d601f19601f82011682018060405250810190614aaa9190615aaf565b90508015614aca57614abf6003601f836131ac565b5f9250925050612bac565b4360095414614adf57614abf600a6022612c58565b614ae761551a565b614aef612554565b6020830181905282826003811115614b0957614b09615a47565b6003811115614b1a57614b1a615a47565b9052505f905081516003811115614b3357614b33615a47565b14614b6057614b5460096021835f015160038111156117fa576117fa615a47565b5f935093505050612bac565b614b6a868661329d565b60a08201819052604080516020808201909252908301518152614b8d91906152bf565b6040830181905282826003811115614ba757614ba7615a47565b6003811115614bb857614bb8615a47565b905250508051614bc790612614565b614bd7600d548260400151613223565b6060830181905282826003811115614bf157614bf1615a47565b6003811115614c0257614c02615a47565b905250508051614c1190612614565b6001600160a01b0386165f908152600e6020526040908190205490820151614c399190613223565b6080830181905282826003811115614c5357614c53615a47565b6003811115614c6457614c64615a47565b905250508051614c7390612614565b6060810151600d556080810180516001600160a01b0388165f908152600e6020526040908190209190915560a083015181840151925191517fb4c03061fb5b7fed76389d5af8f2e0ddb09f8c70d1333abbb62582835e10accb93614cd9938b9392615d9d565b60405180910390a1856001600160a01b0316306001600160a01b03165f80516020615eab8339815191528360400151604051614d1791815260200190565b60405180910390a360055460a082015160408084015190516341c728b960e01b81526001600160a01b03909316926341c728b992614d5d9230928c929190600401615dde565b5f604051808303815f87803b158015614d74575f80fd5b505af1158015614d86573d5f803e3d5ffd5b505f9250614d92915050565b8160a001519350935050509250929050565b614dc5846323b872dd60e01b85858560405160240161499493929190615b18565b50505050565b600554604051632fe3f38f60e11b81525f91829182916001600160a01b031690635fc7e71e90614e0790309088908c908c908c90600401615d6a565b6020604051808303815f875af1158015614e23573d5f803e3d5ffd5b505050506040513d601f19601f82011682018060405250810190614e479190615aaf565b90508015614e6757614e5c60036012836131ac565b5f92509250506152b6565b4360095414614e7c57614e5c600a6016612c58565b43846001600160a01b0316636c540baf6040518163ffffffff1660e01b8152600401602060405180830381865afa158015614eb9573d5f803e3d5ffd5b505050506040513d601f19601f82011682018060405250810190614edd9190615aaf565b14614eee57614e5c600a6011612c58565b866001600160a01b0316866001600160a01b031603614f1357614e5c60066017612c58565b845f03614f2657614e5c60076015612c58565b5f198503614f3a57614e5c60076014612c58565b5f80614f47898989613a17565b90925090508115614f7b57614f6e826011811115614f6757614f67615a47565b6018612c58565b5f945094505050506152b6565b600554604051630779996560e11b81525f916001600160a01b031690630ef332ca90614fb1908c9030908c908890600401615d1d565b6040805180830381865afa158015614fcb573d5f803e3d5ffd5b505050506040513d601f19601f82011682018060405250810190614fef9190615e26565b9150508215801561506957506040516370a0823160e01b81526001600160a01b038a811660048301528291908916906370a0823190602401602060405180830381865afa158015615042573d5f803e3d5ffd5b505050506040513d601f19601f820116820180604052508101906150669190615aaf565b10155b6150f35760405162461bcd60e51b815260206004820152604f60248201527f4c49515549444154455f434f4d5054524f4c4c45525f43414c43554c4154455f60448201527f414d4f554e545f5345495a455f4641494c4544206f72204c495155494441544560648201526e0bea68a92b48abea89e9ebe9aaa869608b1b608482015260a401610bd3565b306001600160a01b038816036151165761510f308b8b846133a0565b9250615189565b60405163b2a02ff160e01b81526001600160a01b0388169063b2a02ff190615146908d908d908690600401615b18565b6020604051808303815f875af1158015615162573d5f803e3d5ffd5b505050506040513d601f19601f820116820180604052508101906151869190615aaf565b92505b82156151ce5760405162461bcd60e51b81526020600482015260146024820152731d1bdad95b881cd95a5e9d5c994819985a5b195960621b6044820152606401610bd3565b604080516001600160a01b038c811682528b81166020830152818301859052891660608201526080810183905290517f298637f684da70674f26509b10f07ec2fbc77a335ab1e7d6215a4b2484d8bb529181900360a00190a16005546040516347ef3b3b60e01b81523060048201526001600160a01b0389811660248301528c811660448301528b811660648301526084820185905260a48201849052909116906347ef3b3b9060c4015f604051808303815f87803b15801561528f575f80fd5b505af11580156152a1573d5f803e3d5ffd5b505f92506152ad915050565b95509093505050505b94509492505050565b5f805f80612b7386866153a0565b5f615321826040518060400160405280602081526020017f5361666545524332303a206c6f772d6c6576656c2063616c6c206661696c6564815250856001600160a01b031661540d9092919063ffffffff16565b905080515f14806153415750808060200190518101906153419190615ac6565b612ed95760405162461bcd60e51b815260206004820152602a60248201527f5361666545524332303a204552433230206f7065726174696f6e20646964206e6044820152691bdd081cdd58d8d9595960b21b6064820152608401610bd3565b5f6153b660405180602001604052805f81525090565b5f806153ca670de0b6b3a7640000876149cb565b90925090505f8260038111156153e2576153e2615a47565b14615400575060408051602081019091525f81529092509050612bac565b612ba581865f0151613db0565b6060610ef284845f85855f80866001600160a01b031685876040516154329190615e48565b5f6040518083038185875af1925050503d805f811461546c576040519150601f19603f3d011682016040523d82523d5f602084013e615471565b606091505b509150915061388b87838387606083156154eb5782515f036154e4576001600160a01b0385163b6154e45760405162461bcd60e51b815260206004820152601d60248201527f416464726573733a2063616c6c20746f206e6f6e2d636f6e74726163740000006044820152606401610bd3565b5081610ef2565b610ef283838151156155005781518083602001fd5b8060405162461bcd60e51b8152600401610bd39190615579565b6040805160c08101909152805f81526020015f81526020015f81526020015f81526020015f81526020015f81525090565b5f81518084528060208401602086015e5f602082860101526020601f19601f83011685010191505092915050565b602081525f610d8e602083018461554b565b6001600160a01b0381168114611121575f80fd5b5f80604083850312156155b0575f80fd5b82356155bb8161558b565b946020939093013593505050565b5f602082840312156155d9575f80fd5b8135610d8e8161558b565b5f602082840312156155f4575f80fd5b5035919050565b634e487b7160e01b5f52604160045260245ffd5b5f67ffffffffffffffff80841115615629576156296155fb565b604051601f8501601f19908116603f01168101908282118183101715615651576156516155fb565b81604052809350858152868686011115615669575f80fd5b858560208301375f602087830101525050509392505050565b5f82601f830112615691575f80fd5b610d8e8383356020850161560f565b803560ff811681146156b0575f80fd5b919050565b5f805f805f805f60e0888a0312156156cb575f80fd5b87356156d68161558b565b965060208801356156e68161558b565b955060408801356156f68161558b565b945060608801359350608088013567ffffffffffffffff80821115615719575f80fd5b6157258b838c01615682565b945060a08a013591508082111561573a575f80fd5b506157478a828b01615682565b92505061575660c089016156a0565b905092959891949750929550565b5f805f60608486031215615776575f80fd5b83356157818161558b565b925060208401356157918161558b565b929592945050506040919091013590565b5f80604083850312156157b3575f80fd5b50508035926020909101359150565b5f602082840312156157d2575f80fd5b813567ffffffffffffffff8111156157e8575f80fd5b8201601f810184136157f8575f80fd5b610ef28482356020840161560f565b5f805f805f8060c0878903121561581c575f80fd5b86356158278161558b565b955060208701356158378161558b565b945060408701359350606087013567ffffffffffffffff8082111561585a575f80fd5b6158668a838b01615682565b9450608089013591508082111561587b575f80fd5b5061588889828a01615682565b92505061589760a088016156a0565b90509295509295509295565b8015158114611121575f80fd5b5f602082840312156158c0575f80fd5b8135610d8e816158a3565b5f805f606084860312156158dd575f80fd5b83356158e88161558b565b95602085013595506040909401359392505050565b5f806040838503121561590e575f80fd5b82356159198161558b565b915060208301356159298161558b565b809150509250929050565b5f805f8060608587031215615947575f80fd5b84356159528161558b565b935060208501359250604085013567ffffffffffffffff80821115615975575f80fd5b818701915087601f830112615988575f80fd5b813581811115615996575f80fd5b8860208285010111156159a7575f80fd5b95989497505060200194505050565b5f805f606084860312156159c8575f80fd5b83356159d38161558b565b92506020840135915060408401356159ea8161558b565b809150509250925092565b600181811c90821680615a0957607f821691505b602082108103615a2757634e487b7160e01b5f52602260045260245ffd5b50919050565b6001600160a01b0392831681529116602082015260400190565b634e487b7160e01b5f52602160045260245ffd5b6020808252600a90820152691c994b595b9d195c995960b21b604082015260600190565b6020808252601690820152751858d8dc9d59481a5b9d195c995cdd0819985a5b195960521b604082015260600190565b5f60208284031215615abf575f80fd5b5051919050565b5f60208284031215615ad6575f80fd5b8151610d8e816158a3565b60208082526018908201527f6e6f7420616e20617070726f7665642064656c65676174650000000000000000604082015260600190565b6001600160a01b039384168152919092166020820152604081019190915260600190565b601f821115612ed957805f5260205f20601f840160051c81016020851015615b615750805b601f840160051c820191505b81811015615b80575f8155600101615b6d565b5050505050565b815167ffffffffffffffff811115615ba157615ba16155fb565b615bb581615baf84546159f5565b84615b3c565b602080601f831160018114615be8575f8415615bd15750858301515b5f19600386901b1c1916600185901b178555615c3f565b5f85815260208120601f198616915b82811015615c1657888601518255948401946001909101908401615bf7565b5085821015615c3357878501515f19600388901b60f8161c191681555b505060018460011b0185555b505050505050565b6001600160a01b038481168252831660208201526060810160048310615c7b57634e487b7160e01b5f52602160045260245ffd5b826040830152949350505050565b634e487b7160e01b5f52601160045260245ffd5b80820180821115610a6057610a60615c89565b6001600160a01b03878116825260208201879052604082018690528416606082015260a06080820181905281018290525f828460c08401375f60c0848401015260c0601f19601f8501168301019050979650505050505050565b81810381811115610a6057610a60615c89565b6001600160a01b039485168152928416602084015292166040820152606081019190915260800190565b6001600160a01b03831681526040602082018190525f90610ef29083018461554b565b6001600160a01b039586168152938516602085015291841660408401529092166060820152608081019190915260a00190565b6001600160a01b0394909416845260208401929092526040830152606082015260800190565b5f60208284031215615dd3575f80fd5b8151610d8e8161558b565b6001600160a01b0394851681529290931660208301526040820152606081019190915260800190565b5f82615e2157634e487b7160e01b5f52601260045260245ffd5b500490565b5f8060408385031215615e37575f80fd5b505080516020909101519092909150565b5f82518060208501845e5f92019182525091905056fe7365745265647563655265736572766573426c6f636b44656c74612875696e7432353629736574466c6173684c6f616e4665654d616e74697373612875696e743235362c75696e7432353629ddf252ad1be2c89b69c2b068fc378daa952ba7f163c4a11628f55a4df523b3efa2646970667358221220e6d2815e8f1d9b2112844359f1f7b01009f629b591091f15cfe591e85a1bdeae64736f6c63430008190033",
  "devdoc": {
    "author": "Venus",
    "events": {
      "Failure(uint256,uint256,uint256)": {
        "details": "`error` corresponds to enum Error; `info` corresponds to enum FailureInfo, and `detail` is an arbitrary contract-specific code that enables us to report opaque error codes from upgradeable contracts.*"
      }
    },
    "kind": "dev",
    "methods": {
      "_acceptAdmin()": {
        "details": "Admin function for pending admin to accept role and update admin",
        "returns": {
          "_0": "uint Returns 0 on success, otherwise returns a failure code (see ErrorReporter.sol for details)."
        }
      },
      "_addReserves(uint256)": {
        "params": {
          "addAmount": "The amount of underlying tokens to add as reserves"
        },
        "returns": {
          "_0": "uint Returns 0 on success, otherwise returns a failure code (see ErrorReporter.sol for details)."
        }
      },
      "_becomeImplementation(bytes)": {
        "params": {
          "data": "The encoded bytes data for any initialization"
        }
      },
      "_reduceReserves(uint256)": {
        "params": {
          "reduceAmount_": "Amount of reduction to reserves"
        },
        "returns": {
          "_0": "uint Returns 0 on success, otherwise returns a failure code (see ErrorReporter.sol for details)."
        }
      },
      "_setComptroller(address)": {
        "details": "Admin function to set a new comptroller",
        "returns": {
          "_0": "uint Returns 0 on success, otherwise returns a failure code (see ErrorReporter.sol for details)."
        }
      },
      "_setInterestRateModel(address)": {
        "details": "Governance function to accrue interest and update the interest rate model",
        "params": {
          "newInterestRateModel_": "The new interest rate model to use"
        },
        "returns": {
          "_0": "uint Returns 0 on success, otherwise returns a failure code (see ErrorReporter.sol for details)."
        }
      },
      "_setPendingAdmin(address)": {
        "details": "Admin function to begin change of admin. The newPendingAdmin must call `_acceptAdmin` to finalize the transfer.",
        "params": {
          "newPendingAdmin": "New pending admin."
        },
        "returns": {
          "_0": "uint Returns 0 on success, otherwise returns a failure code (see ErrorReporter.sol for details)."
        }
      },
      "_setReserveFactor(uint256)": {
        "details": "Governor function to accrue interest and set a new reserve factor",
        "returns": {
          "_0": "uint Returns 0 on success, otherwise returns a failure code (see ErrorReporter.sol for details)."
        }
      },
      "accrueInterest()": {
        "details": "This calculates interest accrued from the last checkpointed block up to the current block and writes new checkpoint to storage and reduce spread reserves to protocol share reserve if currentBlock - reduceReservesBlockNumber >= blockDelta"
      },
      "allowance(address,address)": {
        "params": {
          "owner": "The address of the account which owns the tokens to be spent",
          "spender": "The address of the account which may transfer tokens"
        },
        "returns": {
          "_0": "The number of tokens allowed to be spent (type(uint256).max means infinite)"
        }
      },
      "approve(address,uint256)": {
        "details": "This will overwrite the approval amount for `spender`  and is subject to issues noted [here](https://eips.ethereum.org/EIPS/eip-20#approve)",
        "params": {
          "amount": "The number of tokens that are approved (type(uint256).max means infinite)",
          "spender": "The address of the account which may transfer tokens"
        },
        "returns": {
          "_0": "Whether or not the approval succeeded"
        }
      },
      "balanceOf(address)": {
        "params": {
          "owner": "The address of the account to query"
        },
        "returns": {
          "_0": "The number of tokens owned by `owner`"
        }
      },
      "balanceOfUnderlying(address)": {
        "details": "This also accrues interest in a transaction",
        "params": {
          "owner": "The address of the account to query"
        },
        "returns": {
          "_0": "The amount of underlying owned by `owner`"
        }
      },
      "borrow(uint256)": {
        "params": {
          "borrowAmount": "The amount of the underlying asset to borrow"
        },
        "returns": {
          "_0": "uint Returns 0 on success, otherwise returns a failure code (see ErrorReporter.sol for details)."
        }
      },
      "borrowBalanceCurrent(address)": {
        "params": {
          "account": "The address whose balance should be calculated after updating borrowIndex"
        },
        "returns": {
          "_0": "The calculated balance"
        }
      },
      "borrowBalanceStored(address)": {
        "params": {
          "account": "The address whose balance should be calculated"
        },
        "returns": {
          "_0": "The calculated balance"
        }
      },
      "borrowBehalf(address,uint256)": {
        "params": {
          "borrowAmount": "The amount of the underlying asset to borrow",
          "borrower": "The borrower, on behalf of whom to borrow."
        },
        "returns": {
          "_0": "uint Returns 0 on success, otherwise returns a failure code (see ErrorReporter.sol for details)."
        }
      },
      "borrowDebtPosition(address,uint256)": {
        "custom:error": "InvalidComptroller is thrown if the caller is not the Comptroller.",
        "details": "This function checks if the borrow is allowed, accrues interest, and updates the borrower's balance.      It also emits a Borrow event and calls the comptroller's borrowVerify function.      It reverts if the borrow is not allowed, if the market's block number is not current, or if the protocol has insufficient cash.",
        "params": {
          "borrowAmount": "The amount of underlying asset to borrow",
          "borrower": "The address of the borrower"
        },
        "returns": {
          "_0": "uint Returns 0 on success, otherwise returns a failure code (see ErrorReporter.sol for details)."
        }
      },
      "borrowRatePerBlock()": {
        "returns": {
          "_0": "The borrow interest rate per block, scaled by 1e18"
        }
      },
      "calculateFlashLoanFee(uint256)": {
        "params": {
          "amount": "The amount of the flash loan."
        },
        "returns": {
          "_0": "totalFee The total fee for the flash loan.",
          "_1": "protocolFee The portion of the total fee allocated to the protocol."
        }
      },
      "exchangeRateCurrent()": {
        "returns": {
          "_0": "Calculated exchange rate scaled by 1e18"
        }
      },
      "exchangeRateStored()": {
        "details": "This function does not accrue interest before calculating the exchange rate",
        "returns": {
          "_0": "Calculated exchange rate scaled by 1e18"
        }
      },
      "executeFlashLoan(address,uint256,bytes)": {
        "custom:error": "FlashLoanNotEnabled is thrown if flash loans are disabled for the asset.SenderNotAuthorized is thrown if the 'msg.sender' is not authorized to execute flash loan.ExecuteFlashLoanFailed is thrown if the receiver contract fails to execute the operation.InsufficientRepayment is thrown if the repayment (amount + fee) is insufficient after the operation.",
        "custom:event": "Emits FlashLoanExecuted event on success",
        "details": "Transfers the amount to the receiver contract and ensures that the total repayment (amount + fee)      is returned by the receiver contract after the operation. The function performs checks to ensure the validity      of parameters, that flashLoan is enabled for the given asset, and that the total repayment is sufficient.      Reverts on invalid parameters, disabled flashLoans, or insufficient repayment.      requirements      - The `receiver` address must not be the zero address.      - FlashLoans must be enabled for the asset.      - The `receiver` contract must repay the loan with the appropriate fee.",
        "params": {
          "amount": "The amount of asset to be loaned.",
          "param": "Additional encoded parameters passed with the flash loan.",
          "receiver": "The address of the contract that will receive the flashLoan and execute the operation."
        }
      },
      "getAccountSnapshot(address)": {
        "details": "This is used by comptroller to more efficiently perform liquidity checks.",
        "params": {
          "account": "Address of the account to snapshot"
        },
        "returns": {
          "_0": "(possible error, token balance, borrow balance, exchange rate mantissa)"
        }
      },
      "getCash()": {
        "returns": {
          "_0": "The quantity of underlying asset owned by this contract"
        }
      },
      "initialize(address,address,address,uint256,string,string,uint8)": {
        "params": {
          "comptroller_": "The address of the Comptroller",
          "decimals_": "BEP-20 decimal precision of this token",
          "initialExchangeRateMantissa_": "The initial exchange rate, scaled by 1e18",
          "interestRateModel_": "The address of the interest rate model",
          "name_": "BEP-20 name of this token",
          "symbol_": "BEP-20 symbol of this token",
          "underlying_": "The address of the underlying asset"
        }
      },
      "initialize(address,address,uint256,string,string,uint8)": {
        "params": {
          "comptroller_": "The address of the Comptroller",
          "decimals_": "EIP-20 decimal precision of this token",
          "initialExchangeRateMantissa_": "The initial exchange rate, scaled by 1e18",
          "interestRateModel_": "The address of the interest rate model",
          "name_": "EIP-20 name of this token",
          "symbol_": "EIP-20 symbol of this token"
        }
      },
      "liquidateBorrow(address,uint256,address)": {
        "params": {
          "borrower": "The borrower of this vToken to be liquidated",
          "repayAmount": "The amount of the underlying borrowed asset to repay",
          "vTokenCollateral": "The market in which to seize collateral from the borrower"
        },
        "returns": {
          "_0": "uint Returns 0 on success, otherwise returns a failure code (see ErrorReporter.sol for details)."
        }
      },
      "mint(uint256)": {
        "details": "Accrues interest whether or not the operation succeeds, unless reverted",
        "params": {
          "mintAmount": "The amount of the underlying asset to supply"
        },
        "returns": {
          "_0": "uint Returns 0 on success, otherwise returns a failure code (see ErrorReporter.sol for details)."
        }
      },
      "mintBehalf(address,uint256)": {
        "details": "Accrues interest whether or not the operation succeeds, unless reverted",
        "params": {
          "mintAmount": "The amount of the underlying asset to supply",
          "receiver": "The account which is receiving the vTokens"
        },
        "returns": {
          "_0": "uint Returns 0 on success, otherwise returns a failure code (see ErrorReporter.sol for details)."
        }
      },
      "redeem(uint256)": {
        "details": "Accrues interest whether or not the operation succeeds, unless reverted",
        "params": {
          "redeemTokens": "The number of vTokens to redeem into underlying"
        },
        "returns": {
          "_0": "uint Returns 0 on success, otherwise returns a failure code (see ErrorReporter.sol for details)."
        }
      },
      "redeemBehalf(address,uint256)": {
        "details": "Accrues interest whether or not the operation succeeds, unless reverted",
        "params": {
          "redeemTokens": "The number of vTokens to redeem into underlying",
          "redeemer": "The user on behalf of whom to redeem"
        },
        "returns": {
          "_0": "uint Returns 0 on success, otherwise returns a failure code (see ErrorReporter.sol for details)."
        }
      },
      "redeemUnderlying(uint256)": {
        "details": "Accrues interest whether or not the operation succeeds, unless reverted",
        "params": {
          "redeemAmount": "The amount of underlying to redeem"
        },
        "returns": {
          "_0": "uint Returns 0 on success, otherwise returns a failure code (see ErrorReporter.sol for details)."
        }
      },
      "redeemUnderlyingBehalf(address,uint256)": {
        "details": "Accrues interest whether or not the operation succeeds, unless reverted",
        "params": {
          "redeemAmount": "The amount of underlying to receive from redeeming vTokens",
          "redeemer": ", on behalf of whom to redeem"
        },
        "returns": {
          "_0": "uint Returns 0 on success, otherwise returns a failure code (see ErrorReporter.sol for details)."
        }
      },
      "repayBorrow(uint256)": {
        "params": {
          "repayAmount": "The amount to repay"
        },
        "returns": {
          "_0": "uint Returns 0 on success, otherwise returns a failure code (see ErrorReporter.sol for details)."
        }
      },
      "repayBorrowBehalf(address,uint256)": {
        "params": {
          "borrower": "The account with the debt being payed off",
          "repayAmount": "The amount to repay"
        },
        "returns": {
          "_0": "uint Returns 0 on success, otherwise returns a failure code (see ErrorReporter.sol for details)."
        }
      },
      "seize(address,address,uint256)": {
        "details": "Will fail unless called by another vToken during the process of liquidation.  Its absolutely critical to use msg.sender as the borrowed vToken and not a parameter.",
        "params": {
          "borrower": "The account having collateral seized",
          "liquidator": "The account receiving seized collateral",
          "seizeTokens": "The number of vTokens to seize"
        },
        "returns": {
          "_0": "uint Returns 0 on success, otherwise returns a failure code (see ErrorReporter.sol for details)."
        }
      },
      "setAccessControlManager(address)": {
        "details": "Admin function to set the access control address",
        "params": {
          "newAccessControlManagerAddress": "New address for the access control"
        },
        "returns": {
          "_0": "uint 0=success, otherwise will revert"
        }
      },
      "setFlashLoanEnabled(bool)": {
        "custom:access": "Only Governance",
        "custom:event": "Emits FlashLoanStatusChanged event on success",
        "params": {
          "enabled": "True to enable flash loans, false to disable"
        }
      },
      "setFlashLoanFeeMantissa(uint256,uint256)": {
        "custom:access": "Only Governance",
        "custom:event": "Emits FlashLoanFeeUpdated event on success",
        "params": {
          "flashLoanFeeMantissa_": "FlashLoan fee, scaled by 1e18",
          "flashLoanProtocolShare_": "FlashLoan protocol fee share, transferred to protocol share reserve"
        },
        "returns": {
          "_0": "uint Returns 0 on success, otherwise returns a failure code (see ErrorReporter.sol for details)."
        }
      },
      "setProtocolShareReserve(address)": {
        "params": {
          "protcolShareReserve_": "The address of protocol share reserve contract"
        }
      },
      "setReduceReservesBlockDelta(uint256)": {
        "params": {
          "newReduceReservesBlockDelta_": "block difference value"
        }
      },
      "supplyRatePerBlock()": {
        "returns": {
          "_0": "The supply interest rate per block, scaled by 1e18"
        }
      },
      "totalBorrowsCurrent()": {
        "returns": {
          "_0": "The total borrows with interest"
        }
      },
      "transfer(address,uint256)": {
        "params": {
          "amount": "The number of tokens to transfer",
          "dst": "The address of the destination account"
        },
        "returns": {
          "_0": "Whether or not the transfer succeeded"
        }
      },
      "transferFrom(address,address,uint256)": {
        "params": {
          "amount": "The number of tokens to transfer",
          "dst": "The address of the destination account",
          "src": "The address of the source account"
        },
        "returns": {
          "_0": "Whether or not the transfer succeeded"
        }
      },
      "transferInUnderlyingFlashLoan(address,uint256,uint256)": {
        "custom:error": "InvalidComptroller is thrown if the caller is not the Comptroller.",
        "custom:event": "Emits TransferInUnderlyingFlashLoan event on successful transfer of amount from the receiver to the vToken",
        "details": "Can only be called by the Comptroller contract. This function performs the actual transfer of the underlying      asset by calling the `doTransferIn` internal function.      - The caller must be the Comptroller contract.",
        "params": {
          "amountRepaid": "The amount of the underlying asset to transfer.",
          "from": "The address from which the underlying asset is to be transferred.",
          "protocolFee": "The protocol fee amount to be transferred to the protocol share reserve."
        },
        "returns": {
          "_0": "actualAmountTransferred The actual amount transferred in."
        }
      },
      "transferOutUnderlyingFlashLoan(address,uint256)": {
        "custom:error": "InvalidComptroller is thrown if the caller is not the Comptroller.",
        "custom:event": "Emits TransferOutUnderlyingFlashLoan event on successful transfer of amount to receiver",
        "details": "Can only be called by the Comptroller contract. This function performs the actual transfer of the underlying      asset by calling the `doTransferOut` internal function.      - The caller must be the Comptroller contract.      - If the `to` address is not the protocol share reserve, the flashLoanAmount is incremented by the amount transferred out.",
        "params": {
          "amount": "The amount of the underlying asset to transfer.",
          "to": "The address to which the underlying asset is to be transferred."
        }
      }
    },
    "title": "Venus's VBep20Delegate Contract",
    "version": 1
  },
  "userdoc": {
    "events": {
      "AccrueInterest(uint256,uint256,uint256,uint256)": {
        "notice": "Event emitted when interest is accrued"
      },
      "Approval(address,address,uint256)": {
        "notice": "EIP20 Approval event"
      },
      "Borrow(address,uint256,uint256,uint256)": {
        "notice": "Event emitted when underlying is borrowed"
      },
      "FlashLoanExecuted(address,address,uint256)": {
        "notice": "Event emitted when flashLoan is executed"
      },
      "FlashLoanFeeUpdated(uint256,uint256,uint256,uint256)": {
        "notice": "Event emitted when flashLoan fee mantissa is updated"
      },
      "FlashLoanStatusChanged(bool,bool)": {
        "notice": "Event emitted when flashLoanEnabled status is changed"
      },
      "LiquidateBorrow(address,address,uint256,address,uint256)": {
        "notice": "Event emitted when a borrow is liquidated"
      },
      "Mint(address,uint256,uint256,uint256)": {
        "notice": "Event emitted when tokens are minted"
      },
      "MintBehalf(address,address,uint256,uint256,uint256)": {
        "notice": "Event emitted when tokens are minted behalf by payer to receiver"
      },
      "NewAccessControlManager(address,address)": {
        "notice": "Emitted when access control address is changed by admin"
      },
      "NewAdmin(address,address)": {
        "notice": "Event emitted when pendingAdmin is accepted, which means admin has been updated"
      },
      "NewComptroller(address,address)": {
        "notice": "Event emitted when comptroller is changed"
      },
      "NewMarketInterestRateModel(address,address)": {
        "notice": "Event emitted when interestRateModel is changed"
      },
      "NewPendingAdmin(address,address)": {
        "notice": "Event emitted when pendingAdmin is changed"
      },
      "NewProtocolShareReserve(address,address)": {
        "notice": "Event emitted when address of ProtocolShareReserve contract get updated"
      },
      "NewReduceReservesBlockDelta(uint256,uint256)": {
        "notice": "Event emitted when block delta for reduce reserves get updated"
      },
      "NewReserveFactor(uint256,uint256)": {
        "notice": "Event emitted when the reserve factor is changed"
      },
      "Redeem(address,uint256,uint256,uint256)": {
        "notice": "Event emitted when tokens are redeemed"
      },
      "RedeemFee(address,uint256,uint256)": {
        "notice": "Event emitted when tokens are redeemed and fee is transferred"
      },
      "RepayBorrow(address,address,uint256,uint256,uint256)": {
        "notice": "Event emitted when a borrow is repaid"
      },
      "ReservesAdded(address,uint256,uint256)": {
        "notice": "Event emitted when the reserves are added"
      },
      "ReservesReduced(address,uint256,uint256)": {
        "notice": "Event emitted when the reserves are reduced"
      },
      "Transfer(address,address,uint256)": {
        "notice": "EIP20 Transfer event"
      },
      "TransferInUnderlyingFlashLoan(address,address,uint256)": {
        "notice": "Event emitted when asset is transferred from sender and verified"
      },
      "TransferOutUnderlyingFlashLoan(address,address,uint256)": {
        "notice": "Event emitted when asset is transferred to receiver"
      }
    },
    "kind": "user",
    "methods": {
      "_acceptAdmin()": {
        "notice": "Accepts transfer of admin rights. msg.sender must be pendingAdmin"
      },
      "_addReserves(uint256)": {
        "notice": "The sender adds to reserves."
      },
      "_becomeImplementation(bytes)": {
        "notice": "Called by the delegator on a delegate to initialize it for duty"
      },
      "_reduceReserves(uint256)": {
        "notice": "Accrues interest and reduces reserves by transferring to protocol share reserve"
      },
      "_resignImplementation()": {
        "notice": "Called by the delegator on a delegate to forfeit its responsibility"
      },
      "_setComptroller(address)": {
        "notice": "Sets a new comptroller for the market"
      },
      "_setInterestRateModel(address)": {
        "notice": "Accrues interest and updates the interest rate model using _setInterestRateModelFresh"
      },
      "_setPendingAdmin(address)": {
        "notice": "Begins transfer of admin rights. The newPendingAdmin must call `_acceptAdmin` to finalize the transfer."
      },
      "_setReserveFactor(uint256)": {
        "notice": "accrues interest and sets a new reserve factor for the protocol using `_setReserveFactorFresh`"
      },
      "accessControlManager()": {
        "notice": "address of accessControlManager"
      },
      "accrualBlockNumber()": {
        "notice": "Block number that interest was last accrued at"
      },
      "accrueInterest()": {
        "notice": "Applies accrued interest to total borrows and reserves"
      },
      "admin()": {
        "notice": "Administrator for this contract"
      },
      "allowance(address,address)": {
        "notice": "Get the current allowance from `owner` for `spender`"
      },
      "approve(address,uint256)": {
        "notice": "Approve `spender` to transfer up to `amount` from `src`"
      },
      "balanceOf(address)": {
        "notice": "Get the token balance of the `owner`"
      },
      "balanceOfUnderlying(address)": {
        "notice": "Get the underlying balance of the `owner`"
      },
      "borrow(uint256)": {
        "notice": "Sender borrows assets from the protocol to their own address"
      },
      "borrowBalanceCurrent(address)": {
        "notice": "Accrue interest to updated borrowIndex and then calculate account's borrow balance using the updated borrowIndex"
      },
      "borrowBalanceStored(address)": {
        "notice": "Return the borrow balance of account based on stored data"
      },
      "borrowBehalf(address,uint256)": {
        "notice": "Sender borrows assets on behalf of some other address. This function is only available   for senders, explicitly marked as delegates of the borrower using `comptroller.updateDelegate`"
      },
      "borrowDebtPosition(address,uint256)": {
        "notice": "open a debt position for the borrower"
      },
      "borrowIndex()": {
        "notice": "Accumulator of the total earned interest rate since the opening of the market"
      },
      "borrowRatePerBlock()": {
        "notice": "Returns the current per-block borrow interest rate for this vToken"
      },
      "calculateFlashLoanFee(uint256)": {
        "notice": "Calculates the total fee and protocol fee for a flash loan.."
      },
      "comptroller()": {
        "notice": "Contract which oversees inter-vToken operations"
      },
      "constructor": {
        "notice": "Construct an empty delegate"
      },
      "decimals()": {
        "notice": "EIP-20 token decimals for this token"
      },
      "exchangeRateCurrent()": {
        "notice": "Accrue interest then return the up-to-date exchange rate"
      },
      "exchangeRateStored()": {
        "notice": "Calculates the exchange rate from the underlying to the VToken"
      },
      "executeFlashLoan(address,uint256,bytes)": {
        "notice": "Executes a flashLoan operation."
      },
      "flashLoanAmount()": {
        "notice": "Amount of flashLoan taken by the receiver"
      },
      "flashLoanFeeMantissa()": {
        "notice": "total fee percentage collected on flashLoan (scaled by 1e18)"
      },
      "flashLoanProtocolShareMantissa()": {
        "notice": "fee percentage of flashLoan that goes to protocol (scaled by 1e18)"
      },
      "getAccountSnapshot(address)": {
        "notice": "Get a snapshot of the account's balances, and the cached exchange rate"
      },
      "getCash()": {
        "notice": "Get cash balance of this vToken in the underlying asset"
      },
      "implementation()": {
        "notice": "Implementation address for this contract"
      },
      "initialize(address,address,address,uint256,string,string,uint8)": {
        "notice": "Initialize the new money market"
      },
      "initialize(address,address,uint256,string,string,uint8)": {
        "notice": "Initialize the money market"
      },
      "interestRateModel()": {
        "notice": "Model which tells what the current interest rate should be"
      },
      "isFlashLoanEnabled()": {
        "notice": "flashLoan is enabled for this market or not"
      },
      "isVToken()": {
        "notice": "Indicator that this is a vToken contract (for inspection)"
      },
      "liquidateBorrow(address,uint256,address)": {
        "notice": "The sender liquidates the borrowers collateral.  The collateral seized is transferred to the liquidator."
      },
      "mint(uint256)": {
        "notice": "Sender supplies assets into the market and receives vTokens in exchange"
      },
      "mintBehalf(address,uint256)": {
        "notice": "Sender supplies assets into the market and receiver receives vTokens in exchange"
      },
      "name()": {
        "notice": "EIP-20 token name for this token"
      },
      "pendingAdmin()": {
        "notice": "Pending administrator for this contract"
      },
      "protocolShareReserve()": {
        "notice": "address of protocol share reserve contract"
      },
      "redeem(uint256)": {
        "notice": "Sender redeems vTokens in exchange for the underlying asset"
      },
      "redeemBehalf(address,uint256)": {
        "notice": "Sender redeems assets on behalf of some other address. This function is only available   for senders, explicitly marked as delegates of the supplier using `comptroller.updateDelegate`"
      },
      "redeemUnderlying(uint256)": {
        "notice": "Sender redeems vTokens in exchange for a specified amount of underlying asset"
      },
      "redeemUnderlyingBehalf(address,uint256)": {
        "notice": "Sender redeems underlying assets on behalf of some other address. This function is only available   for senders, explicitly marked as delegates of the supplier using `comptroller.updateDelegate`"
      },
      "reduceReservesBlockDelta()": {
        "notice": "delta block after which reserves will be reduced"
      },
      "reduceReservesBlockNumber()": {
        "notice": "last block number at which reserves were reduced"
      },
      "repayBorrow(uint256)": {
        "notice": "Sender repays their own borrow"
      },
      "repayBorrowBehalf(address,uint256)": {
        "notice": "Sender repays a borrow belonging to another borrowing account"
      },
      "reserveFactorMantissa()": {
        "notice": "Fraction of interest currently set aside for reserves"
      },
      "seize(address,address,uint256)": {
        "notice": "Transfers collateral tokens (this market) to the liquidator."
      },
      "setAccessControlManager(address)": {
        "notice": "Sets the address of the access control manager of this contract"
      },
      "setFlashLoanEnabled(bool)": {
        "notice": "Sets flash loan status for the market"
      },
      "setFlashLoanFeeMantissa(uint256,uint256)": {
        "notice": "Update flashLoan fee mantissa"
      },
      "setProtocolShareReserve(address)": {
        "notice": "Sets protocol share reserve contract address"
      },
      "setReduceReservesBlockDelta(uint256)": {
        "notice": "Governance function to set new threshold of block difference after which funds will be sent to the protocol share reserve"
      },
      "supplyRatePerBlock()": {
        "notice": "Returns the current per-block supply interest rate for this vToken"
      },
      "symbol()": {
        "notice": "EIP-20 token symbol for this token"
      },
      "totalBorrows()": {
        "notice": "Total amount of outstanding borrows of the underlying in this market"
      },
      "totalBorrowsCurrent()": {
        "notice": "Returns the current total borrows plus accrued interest"
      },
      "totalReserves()": {
        "notice": "Total amount of reserves of the underlying held in this market"
      },
      "totalSupply()": {
        "notice": "Total number of tokens in circulation"
      },
      "transfer(address,uint256)": {
        "notice": "Transfer `amount` tokens from `msg.sender` to `dst`"
      },
      "transferFrom(address,address,uint256)": {
        "notice": "Transfer `amount` tokens from `src` to `dst`"
      },
      "transferInUnderlyingFlashLoan(address,uint256,uint256)": {
        "notice": "Transfers the underlying asset from the specified address."
      },
      "transferOutUnderlyingFlashLoan(address,uint256)": {
        "notice": "Transfers the underlying asset to the specified address."
      },
      "underlying()": {
        "notice": "Underlying asset for this VToken"
      }
    },
    "notice": "VTokens which wrap an EIP-20 underlying and are delegated to",
    "version": 1
  },
  "storageLayout": {
    "storage": [
      {
        "astId": 32579,
        "contract": "contracts/Tokens/VTokens/VBep20Delegate.sol:VBep20Delegate",
        "label": "_notEntered",
        "offset": 0,
        "slot": "0",
        "type": "t_bool"
      },
      {
        "astId": 32582,
        "contract": "contracts/Tokens/VTokens/VBep20Delegate.sol:VBep20Delegate",
        "label": "name",
        "offset": 0,
        "slot": "1",
        "type": "t_string_storage"
      },
      {
        "astId": 32585,
        "contract": "contracts/Tokens/VTokens/VBep20Delegate.sol:VBep20Delegate",
        "label": "symbol",
        "offset": 0,
        "slot": "2",
        "type": "t_string_storage"
      },
      {
        "astId": 32588,
        "contract": "contracts/Tokens/VTokens/VBep20Delegate.sol:VBep20Delegate",
        "label": "decimals",
        "offset": 0,
        "slot": "3",
        "type": "t_uint8"
      },
      {
        "astId": 32599,
        "contract": "contracts/Tokens/VTokens/VBep20Delegate.sol:VBep20Delegate",
        "label": "admin",
        "offset": 1,
        "slot": "3",
        "type": "t_address_payable"
      },
      {
        "astId": 32602,
        "contract": "contracts/Tokens/VTokens/VBep20Delegate.sol:VBep20Delegate",
        "label": "pendingAdmin",
        "offset": 0,
        "slot": "4",
        "type": "t_address_payable"
      },
      {
        "astId": 32606,
        "contract": "contracts/Tokens/VTokens/VBep20Delegate.sol:VBep20Delegate",
        "label": "comptroller",
        "offset": 0,
        "slot": "5",
        "type": "t_contract(ComptrollerInterface)1551"
      },
      {
        "astId": 32610,
        "contract": "contracts/Tokens/VTokens/VBep20Delegate.sol:VBep20Delegate",
        "label": "interestRateModel",
        "offset": 0,
        "slot": "6",
        "type": "t_contract(InterestRateModelV8)19424"
      },
      {
        "astId": 32613,
        "contract": "contracts/Tokens/VTokens/VBep20Delegate.sol:VBep20Delegate",
        "label": "initialExchangeRateMantissa",
        "offset": 0,
        "slot": "7",
        "type": "t_uint256"
      },
      {
        "astId": 32616,
        "contract": "contracts/Tokens/VTokens/VBep20Delegate.sol:VBep20Delegate",
        "label": "reserveFactorMantissa",
        "offset": 0,
        "slot": "8",
        "type": "t_uint256"
      },
      {
        "astId": 32619,
        "contract": "contracts/Tokens/VTokens/VBep20Delegate.sol:VBep20Delegate",
        "label": "accrualBlockNumber",
        "offset": 0,
        "slot": "9",
        "type": "t_uint256"
      },
      {
        "astId": 32622,
        "contract": "contracts/Tokens/VTokens/VBep20Delegate.sol:VBep20Delegate",
        "label": "borrowIndex",
        "offset": 0,
        "slot": "10",
        "type": "t_uint256"
      },
      {
        "astId": 32625,
        "contract": "contracts/Tokens/VTokens/VBep20Delegate.sol:VBep20Delegate",
        "label": "totalBorrows",
        "offset": 0,
        "slot": "11",
        "type": "t_uint256"
      },
      {
        "astId": 32628,
        "contract": "contracts/Tokens/VTokens/VBep20Delegate.sol:VBep20Delegate",
        "label": "totalReserves",
        "offset": 0,
        "slot": "12",
        "type": "t_uint256"
      },
      {
        "astId": 32631,
        "contract": "contracts/Tokens/VTokens/VBep20Delegate.sol:VBep20Delegate",
        "label": "totalSupply",
        "offset": 0,
        "slot": "13",
        "type": "t_uint256"
      },
      {
        "astId": 32636,
        "contract": "contracts/Tokens/VTokens/VBep20Delegate.sol:VBep20Delegate",
        "label": "accountTokens",
        "offset": 0,
        "slot": "14",
        "type": "t_mapping(t_address,t_uint256)"
      },
      {
        "astId": 32643,
        "contract": "contracts/Tokens/VTokens/VBep20Delegate.sol:VBep20Delegate",
        "label": "transferAllowances",
        "offset": 0,
        "slot": "15",
        "type": "t_mapping(t_address,t_mapping(t_address,t_uint256))"
      },
      {
        "astId": 32649,
        "contract": "contracts/Tokens/VTokens/VBep20Delegate.sol:VBep20Delegate",
        "label": "accountBorrows",
        "offset": 0,
        "slot": "16",
        "type": "t_mapping(t_address,t_struct(BorrowSnapshot)32576_storage)"
      },
      {
        "astId": 32652,
        "contract": "contracts/Tokens/VTokens/VBep20Delegate.sol:VBep20Delegate",
        "label": "underlying",
        "offset": 0,
        "slot": "17",
        "type": "t_address"
      },
      {
        "astId": 32655,
        "contract": "contracts/Tokens/VTokens/VBep20Delegate.sol:VBep20Delegate",
        "label": "implementation",
        "offset": 0,
        "slot": "18",
        "type": "t_address"
      },
      {
        "astId": 32658,
        "contract": "contracts/Tokens/VTokens/VBep20Delegate.sol:VBep20Delegate",
        "label": "reduceReservesBlockDelta",
        "offset": 0,
        "slot": "19",
        "type": "t_uint256"
      },
      {
        "astId": 32661,
        "contract": "contracts/Tokens/VTokens/VBep20Delegate.sol:VBep20Delegate",
        "label": "reduceReservesBlockNumber",
        "offset": 0,
        "slot": "20",
        "type": "t_uint256"
      },
      {
        "astId": 32664,
        "contract": "contracts/Tokens/VTokens/VBep20Delegate.sol:VBep20Delegate",
        "label": "protocolShareReserve",
        "offset": 0,
        "slot": "21",
        "type": "t_address_payable"
      },
      {
        "astId": 32667,
        "contract": "contracts/Tokens/VTokens/VBep20Delegate.sol:VBep20Delegate",
        "label": "accessControlManager",
        "offset": 0,
        "slot": "22",
        "type": "t_address"
      },
      {
        "astId": 32673,
        "contract": "contracts/Tokens/VTokens/VBep20Delegate.sol:VBep20Delegate",
        "label": "isFlashLoanEnabled",
        "offset": 20,
        "slot": "22",
        "type": "t_bool"
      },
      {
        "astId": 32676,
        "contract": "contracts/Tokens/VTokens/VBep20Delegate.sol:VBep20Delegate",
        "label": "flashLoanFeeMantissa",
        "offset": 0,
        "slot": "23",
        "type": "t_uint256"
      },
      {
        "astId": 32679,
        "contract": "contracts/Tokens/VTokens/VBep20Delegate.sol:VBep20Delegate",
        "label": "flashLoanProtocolShareMantissa",
        "offset": 0,
        "slot": "24",
        "type": "t_uint256"
      },
      {
        "astId": 32682,
        "contract": "contracts/Tokens/VTokens/VBep20Delegate.sol:VBep20Delegate",
        "label": "flashLoanAmount",
        "offset": 0,
        "slot": "25",
        "type": "t_uint256"
      },
      {
        "astId": 32687,
        "contract": "contracts/Tokens/VTokens/VBep20Delegate.sol:VBep20Delegate",
        "label": "__gap",
        "offset": 0,
        "slot": "26",
        "type": "t_array(t_uint256)46_storage"
      }
    ],
    "types": {
      "t_address": {
        "encoding": "inplace",
        "label": "address",
        "numberOfBytes": "20"
      },
      "t_address_payable": {
        "encoding": "inplace",
        "label": "address payable",
        "numberOfBytes": "20"
      },
      "t_array(t_uint256)46_storage": {
        "base": "t_uint256",
        "encoding": "inplace",
        "label": "uint256[46]",
        "numberOfBytes": "1472"
      },
      "t_bool": {
        "encoding": "inplace",
        "label": "bool",
        "numberOfBytes": "1"
      },
      "t_contract(ComptrollerInterface)1551": {
        "encoding": "inplace",
        "label": "contract ComptrollerInterface",
        "numberOfBytes": "20"
      },
      "t_contract(InterestRateModelV8)19424": {
        "encoding": "inplace",
        "label": "contract InterestRateModelV8",
        "numberOfBytes": "20"
      },
      "t_mapping(t_address,t_mapping(t_address,t_uint256))": {
        "encoding": "mapping",
        "key": "t_address",
        "label": "mapping(address => mapping(address => uint256))",
        "numberOfBytes": "32",
        "value": "t_mapping(t_address,t_uint256)"
      },
      "t_mapping(t_address,t_struct(BorrowSnapshot)32576_storage)": {
        "encoding": "mapping",
        "key": "t_address",
        "label": "mapping(address => struct VTokenStorageBase.BorrowSnapshot)",
        "numberOfBytes": "32",
        "value": "t_struct(BorrowSnapshot)32576_storage"
      },
      "t_mapping(t_address,t_uint256)": {
        "encoding": "mapping",
        "key": "t_address",
        "label": "mapping(address => uint256)",
        "numberOfBytes": "32",
        "value": "t_uint256"
      },
      "t_string_storage": {
        "encoding": "bytes",
        "label": "string",
        "numberOfBytes": "32"
      },
      "t_struct(BorrowSnapshot)32576_storage": {
        "encoding": "inplace",
        "label": "struct VTokenStorageBase.BorrowSnapshot",
        "members": [
          {
            "astId": 32573,
            "contract": "contracts/Tokens/VTokens/VBep20Delegate.sol:VBep20Delegate",
            "label": "principal",
            "offset": 0,
            "slot": "0",
            "type": "t_uint256"
          },
          {
            "astId": 32575,
            "contract": "contracts/Tokens/VTokens/VBep20Delegate.sol:VBep20Delegate",
            "label": "interestIndex",
            "offset": 0,
            "slot": "1",
            "type": "t_uint256"
          }
        ],
        "numberOfBytes": "64"
      },
      "t_uint256": {
        "encoding": "inplace",
        "label": "uint256",
        "numberOfBytes": "32"
      },
      "t_uint8": {
        "encoding": "inplace",
        "label": "uint8",
        "numberOfBytes": "1"
      }
    }
  }
}