{
  "address": "0xf292c8F321fF1BC49A3FeADf4D0971E519485e19",
  "abi": [
    {
      "inputs": [],
      "stateMutability": "nonpayable",
      "type": "constructor"
    },
    {
      "anonymous": false,
      "inputs": [
        {
          "indexed": false,
          "internalType": "uint256",
          "name": "cashPrior",
          "type": "uint256"
        },
        {
          "indexed": false,
          "internalType": "uint256",
          "name": "interestAccumulated",
          "type": "uint256"
        },
        {
          "indexed": false,
          "internalType": "uint256",
          "name": "borrowIndex",
          "type": "uint256"
        },
        {
          "indexed": false,
          "internalType": "uint256",
          "name": "totalBorrows",
          "type": "uint256"
        }
      ],
      "name": "AccrueInterest",
      "type": "event"
    },
    {
      "anonymous": false,
      "inputs": [
        {
          "indexed": true,
          "internalType": "address",
          "name": "owner",
          "type": "address"
        },
        {
          "indexed": true,
          "internalType": "address",
          "name": "spender",
          "type": "address"
        },
        {
          "indexed": false,
          "internalType": "uint256",
          "name": "amount",
          "type": "uint256"
        }
      ],
      "name": "Approval",
      "type": "event"
    },
    {
      "anonymous": false,
      "inputs": [
        {
          "indexed": false,
          "internalType": "address",
          "name": "borrower",
          "type": "address"
        },
        {
          "indexed": false,
          "internalType": "uint256",
          "name": "borrowAmount",
          "type": "uint256"
        },
        {
          "indexed": false,
          "internalType": "uint256",
          "name": "accountBorrows",
          "type": "uint256"
        },
        {
          "indexed": false,
          "internalType": "uint256",
          "name": "totalBorrows",
          "type": "uint256"
        }
      ],
      "name": "Borrow",
      "type": "event"
    },
    {
      "anonymous": false,
      "inputs": [
        {
          "indexed": false,
          "internalType": "uint256",
          "name": "error",
          "type": "uint256"
        },
        {
          "indexed": false,
          "internalType": "uint256",
          "name": "info",
          "type": "uint256"
        },
        {
          "indexed": false,
          "internalType": "uint256",
          "name": "detail",
          "type": "uint256"
        }
      ],
      "name": "Failure",
      "type": "event"
    },
    {
      "anonymous": false,
      "inputs": [
        {
          "indexed": false,
          "internalType": "address",
          "name": "liquidator",
          "type": "address"
        },
        {
          "indexed": false,
          "internalType": "address",
          "name": "borrower",
          "type": "address"
        },
        {
          "indexed": false,
          "internalType": "uint256",
          "name": "repayAmount",
          "type": "uint256"
        },
        {
          "indexed": false,
          "internalType": "address",
          "name": "vTokenCollateral",
          "type": "address"
        },
        {
          "indexed": false,
          "internalType": "uint256",
          "name": "seizeTokens",
          "type": "uint256"
        }
      ],
      "name": "LiquidateBorrow",
      "type": "event"
    },
    {
      "anonymous": false,
      "inputs": [
        {
          "indexed": false,
          "internalType": "address",
          "name": "minter",
          "type": "address"
        },
        {
          "indexed": false,
          "internalType": "uint256",
          "name": "mintAmount",
          "type": "uint256"
        },
        {
          "indexed": false,
          "internalType": "uint256",
          "name": "mintTokens",
          "type": "uint256"
        },
        {
          "indexed": false,
          "internalType": "uint256",
          "name": "totalSupply",
          "type": "uint256"
        }
      ],
      "name": "Mint",
      "type": "event"
    },
    {
      "anonymous": false,
      "inputs": [
        {
          "indexed": false,
          "internalType": "address",
          "name": "payer",
          "type": "address"
        },
        {
          "indexed": false,
          "internalType": "address",
          "name": "receiver",
          "type": "address"
        },
        {
          "indexed": false,
          "internalType": "uint256",
          "name": "mintAmount",
          "type": "uint256"
        },
        {
          "indexed": false,
          "internalType": "uint256",
          "name": "mintTokens",
          "type": "uint256"
        },
        {
          "indexed": false,
          "internalType": "uint256",
          "name": "totalSupply",
          "type": "uint256"
        }
      ],
      "name": "MintBehalf",
      "type": "event"
    },
    {
      "anonymous": false,
      "inputs": [
        {
          "indexed": false,
          "internalType": "address",
          "name": "oldAccessControlAddress",
          "type": "address"
        },
        {
          "indexed": false,
          "internalType": "address",
          "name": "newAccessControlAddress",
          "type": "address"
        }
      ],
      "name": "NewAccessControlManager",
      "type": "event"
    },
    {
      "anonymous": false,
      "inputs": [
        {
          "indexed": false,
          "internalType": "address",
          "name": "oldAdmin",
          "type": "address"
        },
        {
          "indexed": false,
          "internalType": "address",
          "name": "newAdmin",
          "type": "address"
        }
      ],
      "name": "NewAdmin",
      "type": "event"
    },
    {
      "anonymous": false,
      "inputs": [
        {
          "indexed": false,
          "internalType": "contract ComptrollerInterface",
          "name": "oldComptroller",
          "type": "address"
        },
        {
          "indexed": false,
          "internalType": "contract ComptrollerInterface",
          "name": "newComptroller",
          "type": "address"
        }
      ],
      "name": "NewComptroller",
      "type": "event"
    },
    {
      "anonymous": false,
      "inputs": [
        {
          "indexed": false,
          "internalType": "contract InterestRateModelV8",
          "name": "oldInterestRateModel",
          "type": "address"
        },
        {
          "indexed": false,
          "internalType": "contract InterestRateModelV8",
          "name": "newInterestRateModel",
          "type": "address"
        }
      ],
      "name": "NewMarketInterestRateModel",
      "type": "event"
    },
    {
      "anonymous": false,
      "inputs": [
        {
          "indexed": false,
          "internalType": "address",
          "name": "oldPendingAdmin",
          "type": "address"
        },
        {
          "indexed": false,
          "internalType": "address",
          "name": "newPendingAdmin",
          "type": "address"
        }
      ],
      "name": "NewPendingAdmin",
      "type": "event"
    },
    {
      "anonymous": false,
      "inputs": [
        {
          "indexed": true,
          "internalType": "address",
          "name": "oldProtocolShareReserve",
          "type": "address"
        },
        {
          "indexed": true,
          "internalType": "address",
          "name": "newProtocolShareReserve",
          "type": "address"
        }
      ],
      "name": "NewProtocolShareReserve",
      "type": "event"
    },
    {
      "anonymous": false,
      "inputs": [
        {
          "indexed": false,
          "internalType": "uint256",
          "name": "oldReduceReservesBlockDelta",
          "type": "uint256"
        },
        {
          "indexed": false,
          "internalType": "uint256",
          "name": "newReduceReservesBlockDelta",
          "type": "uint256"
        }
      ],
      "name": "NewReduceReservesBlockDelta",
      "type": "event"
    },
    {
      "anonymous": false,
      "inputs": [
        {
          "indexed": false,
          "internalType": "uint256",
          "name": "oldReserveFactorMantissa",
          "type": "uint256"
        },
        {
          "indexed": false,
          "internalType": "uint256",
          "name": "newReserveFactorMantissa",
          "type": "uint256"
        }
      ],
      "name": "NewReserveFactor",
      "type": "event"
    },
    {
      "anonymous": false,
      "inputs": [
        {
          "indexed": false,
          "internalType": "address",
          "name": "redeemer",
          "type": "address"
        },
        {
          "indexed": false,
          "internalType": "uint256",
          "name": "redeemAmount",
          "type": "uint256"
        },
        {
          "indexed": false,
          "internalType": "uint256",
          "name": "redeemTokens",
          "type": "uint256"
        },
        {
          "indexed": false,
          "internalType": "uint256",
          "name": "totalSupply",
          "type": "uint256"
        }
      ],
      "name": "Redeem",
      "type": "event"
    },
    {
      "anonymous": false,
      "inputs": [
        {
          "indexed": false,
          "internalType": "address",
          "name": "redeemer",
          "type": "address"
        },
        {
          "indexed": false,
          "internalType": "uint256",
          "name": "feeAmount",
          "type": "uint256"
        },
        {
          "indexed": false,
          "internalType": "uint256",
          "name": "redeemTokens",
          "type": "uint256"
        }
      ],
      "name": "RedeemFee",
      "type": "event"
    },
    {
      "anonymous": false,
      "inputs": [
        {
          "indexed": false,
          "internalType": "address",
          "name": "payer",
          "type": "address"
        },
        {
          "indexed": false,
          "internalType": "address",
          "name": "borrower",
          "type": "address"
        },
        {
          "indexed": false,
          "internalType": "uint256",
          "name": "repayAmount",
          "type": "uint256"
        },
        {
          "indexed": false,
          "internalType": "uint256",
          "name": "accountBorrows",
          "type": "uint256"
        },
        {
          "indexed": false,
          "internalType": "uint256",
          "name": "totalBorrows",
          "type": "uint256"
        }
      ],
      "name": "RepayBorrow",
      "type": "event"
    },
    {
      "anonymous": false,
      "inputs": [
        {
          "indexed": false,
          "internalType": "address",
          "name": "benefactor",
          "type": "address"
        },
        {
          "indexed": false,
          "internalType": "uint256",
          "name": "addAmount",
          "type": "uint256"
        },
        {
          "indexed": false,
          "internalType": "uint256",
          "name": "newTotalReserves",
          "type": "uint256"
        }
      ],
      "name": "ReservesAdded",
      "type": "event"
    },
    {
      "anonymous": false,
      "inputs": [
        {
          "indexed": false,
          "internalType": "address",
          "name": "protocolShareReserve",
          "type": "address"
        },
        {
          "indexed": false,
          "internalType": "uint256",
          "name": "reduceAmount",
          "type": "uint256"
        },
        {
          "indexed": false,
          "internalType": "uint256",
          "name": "newTotalReserves",
          "type": "uint256"
        }
      ],
      "name": "ReservesReduced",
      "type": "event"
    },
    {
      "anonymous": false,
      "inputs": [
        {
          "indexed": true,
          "internalType": "address",
          "name": "from",
          "type": "address"
        },
        {
          "indexed": true,
          "internalType": "address",
          "name": "to",
          "type": "address"
        },
        {
          "indexed": false,
          "internalType": "uint256",
          "name": "amount",
          "type": "uint256"
        }
      ],
      "name": "Transfer",
      "type": "event"
    },
    {
      "inputs": [],
      "name": "_acceptAdmin",
      "outputs": [
        {
          "internalType": "uint256",
          "name": "",
          "type": "uint256"
        }
      ],
      "stateMutability": "nonpayable",
      "type": "function"
    },
    {
      "inputs": [
        {
          "internalType": "uint256",
          "name": "addAmount",
          "type": "uint256"
        }
      ],
      "name": "_addReserves",
      "outputs": [
        {
          "internalType": "uint256",
          "name": "",
          "type": "uint256"
        }
      ],
      "stateMutability": "nonpayable",
      "type": "function"
    },
    {
      "inputs": [
        {
          "internalType": "bytes",
          "name": "data",
          "type": "bytes"
        }
      ],
      "name": "_becomeImplementation",
      "outputs": [],
      "stateMutability": "nonpayable",
      "type": "function"
    },
    {
      "inputs": [
        {
          "internalType": "uint256",
          "name": "reduceAmount_",
          "type": "uint256"
        }
      ],
      "name": "_reduceReserves",
      "outputs": [
        {
          "internalType": "uint256",
          "name": "",
          "type": "uint256"
        }
      ],
      "stateMutability": "nonpayable",
      "type": "function"
    },
    {
      "inputs": [],
      "name": "_resignImplementation",
      "outputs": [],
      "stateMutability": "nonpayable",
      "type": "function"
    },
    {
      "inputs": [
        {
          "internalType": "contract ComptrollerInterface",
          "name": "newComptroller",
          "type": "address"
        }
      ],
      "name": "_setComptroller",
      "outputs": [
        {
          "internalType": "uint256",
          "name": "",
          "type": "uint256"
        }
      ],
      "stateMutability": "nonpayable",
      "type": "function"
    },
    {
      "inputs": [
        {
          "internalType": "contract InterestRateModelV8",
          "name": "newInterestRateModel_",
          "type": "address"
        }
      ],
      "name": "_setInterestRateModel",
      "outputs": [
        {
          "internalType": "uint256",
          "name": "",
          "type": "uint256"
        }
      ],
      "stateMutability": "nonpayable",
      "type": "function"
    },
    {
      "inputs": [
        {
          "internalType": "address payable",
          "name": "newPendingAdmin",
          "type": "address"
        }
      ],
      "name": "_setPendingAdmin",
      "outputs": [
        {
          "internalType": "uint256",
          "name": "",
          "type": "uint256"
        }
      ],
      "stateMutability": "nonpayable",
      "type": "function"
    },
    {
      "inputs": [
        {
          "internalType": "uint256",
          "name": "newReserveFactorMantissa_",
          "type": "uint256"
        }
      ],
      "name": "_setReserveFactor",
      "outputs": [
        {
          "internalType": "uint256",
          "name": "",
          "type": "uint256"
        }
      ],
      "stateMutability": "nonpayable",
      "type": "function"
    },
    {
      "inputs": [],
      "name": "accessControlManager",
      "outputs": [
        {
          "internalType": "address",
          "name": "",
          "type": "address"
        }
      ],
      "stateMutability": "view",
      "type": "function"
    },
    {
      "inputs": [],
      "name": "accrualBlockNumber",
      "outputs": [
        {
          "internalType": "uint256",
          "name": "",
          "type": "uint256"
        }
      ],
      "stateMutability": "view",
      "type": "function"
    },
    {
      "inputs": [],
      "name": "accrueInterest",
      "outputs": [
        {
          "internalType": "uint256",
          "name": "",
          "type": "uint256"
        }
      ],
      "stateMutability": "nonpayable",
      "type": "function"
    },
    {
      "inputs": [],
      "name": "admin",
      "outputs": [
        {
          "internalType": "address payable",
          "name": "",
          "type": "address"
        }
      ],
      "stateMutability": "view",
      "type": "function"
    },
    {
      "inputs": [
        {
          "internalType": "address",
          "name": "owner",
          "type": "address"
        },
        {
          "internalType": "address",
          "name": "spender",
          "type": "address"
        }
      ],
      "name": "allowance",
      "outputs": [
        {
          "internalType": "uint256",
          "name": "",
          "type": "uint256"
        }
      ],
      "stateMutability": "view",
      "type": "function"
    },
    {
      "inputs": [
        {
          "internalType": "address",
          "name": "spender",
          "type": "address"
        },
        {
          "internalType": "uint256",
          "name": "amount",
          "type": "uint256"
        }
      ],
      "name": "approve",
      "outputs": [
        {
          "internalType": "bool",
          "name": "",
          "type": "bool"
        }
      ],
      "stateMutability": "nonpayable",
      "type": "function"
    },
    {
      "inputs": [
        {
          "internalType": "address",
          "name": "owner",
          "type": "address"
        }
      ],
      "name": "balanceOf",
      "outputs": [
        {
          "internalType": "uint256",
          "name": "",
          "type": "uint256"
        }
      ],
      "stateMutability": "view",
      "type": "function"
    },
    {
      "inputs": [
        {
          "internalType": "address",
          "name": "owner",
          "type": "address"
        }
      ],
      "name": "balanceOfUnderlying",
      "outputs": [
        {
          "internalType": "uint256",
          "name": "",
          "type": "uint256"
        }
      ],
      "stateMutability": "nonpayable",
      "type": "function"
    },
    {
      "inputs": [
        {
          "internalType": "uint256",
          "name": "borrowAmount",
          "type": "uint256"
        }
      ],
      "name": "borrow",
      "outputs": [
        {
          "internalType": "uint256",
          "name": "",
          "type": "uint256"
        }
      ],
      "stateMutability": "nonpayable",
      "type": "function"
    },
    {
      "inputs": [
        {
          "internalType": "address",
          "name": "account",
          "type": "address"
        }
      ],
      "name": "borrowBalanceCurrent",
      "outputs": [
        {
          "internalType": "uint256",
          "name": "",
          "type": "uint256"
        }
      ],
      "stateMutability": "nonpayable",
      "type": "function"
    },
    {
      "inputs": [
        {
          "internalType": "address",
          "name": "account",
          "type": "address"
        }
      ],
      "name": "borrowBalanceStored",
      "outputs": [
        {
          "internalType": "uint256",
          "name": "",
          "type": "uint256"
        }
      ],
      "stateMutability": "view",
      "type": "function"
    },
    {
      "inputs": [
        {
          "internalType": "address",
          "name": "borrower",
          "type": "address"
        },
        {
          "internalType": "uint256",
          "name": "borrowAmount",
          "type": "uint256"
        }
      ],
      "name": "borrowBehalf",
      "outputs": [
        {
          "internalType": "uint256",
          "name": "",
          "type": "uint256"
        }
      ],
      "stateMutability": "nonpayable",
      "type": "function"
    },
    {
      "inputs": [],
      "name": "borrowIndex",
      "outputs": [
        {
          "internalType": "uint256",
          "name": "",
          "type": "uint256"
        }
      ],
      "stateMutability": "view",
      "type": "function"
    },
    {
      "inputs": [],
      "name": "borrowRatePerBlock",
      "outputs": [
        {
          "internalType": "uint256",
          "name": "",
          "type": "uint256"
        }
      ],
      "stateMutability": "view",
      "type": "function"
    },
    {
      "inputs": [],
      "name": "comptroller",
      "outputs": [
        {
          "internalType": "contract ComptrollerInterface",
          "name": "",
          "type": "address"
        }
      ],
      "stateMutability": "view",
      "type": "function"
    },
    {
      "inputs": [],
      "name": "decimals",
      "outputs": [
        {
          "internalType": "uint8",
          "name": "",
          "type": "uint8"
        }
      ],
      "stateMutability": "view",
      "type": "function"
    },
    {
      "inputs": [],
      "name": "exchangeRateCurrent",
      "outputs": [
        {
          "internalType": "uint256",
          "name": "",
          "type": "uint256"
        }
      ],
      "stateMutability": "nonpayable",
      "type": "function"
    },
    {
      "inputs": [],
      "name": "exchangeRateStored",
      "outputs": [
        {
          "internalType": "uint256",
          "name": "",
          "type": "uint256"
        }
      ],
      "stateMutability": "view",
      "type": "function"
    },
    {
      "inputs": [
        {
          "internalType": "address",
          "name": "account",
          "type": "address"
        }
      ],
      "name": "getAccountSnapshot",
      "outputs": [
        {
          "internalType": "uint256",
          "name": "",
          "type": "uint256"
        },
        {
          "internalType": "uint256",
          "name": "",
          "type": "uint256"
        },
        {
          "internalType": "uint256",
          "name": "",
          "type": "uint256"
        },
        {
          "internalType": "uint256",
          "name": "",
          "type": "uint256"
        }
      ],
      "stateMutability": "view",
      "type": "function"
    },
    {
      "inputs": [],
      "name": "getCash",
      "outputs": [
        {
          "internalType": "uint256",
          "name": "",
          "type": "uint256"
        }
      ],
      "stateMutability": "view",
      "type": "function"
    },
    {
      "inputs": [],
      "name": "implementation",
      "outputs": [
        {
          "internalType": "address",
          "name": "",
          "type": "address"
        }
      ],
      "stateMutability": "view",
      "type": "function"
    },
    {
      "inputs": [
        {
          "internalType": "address",
          "name": "underlying_",
          "type": "address"
        },
        {
          "internalType": "contract ComptrollerInterface",
          "name": "comptroller_",
          "type": "address"
        },
        {
          "internalType": "contract InterestRateModelV8",
          "name": "interestRateModel_",
          "type": "address"
        },
        {
          "internalType": "uint256",
          "name": "initialExchangeRateMantissa_",
          "type": "uint256"
        },
        {
          "internalType": "string",
          "name": "name_",
          "type": "string"
        },
        {
          "internalType": "string",
          "name": "symbol_",
          "type": "string"
        },
        {
          "internalType": "uint8",
          "name": "decimals_",
          "type": "uint8"
        }
      ],
      "name": "initialize",
      "outputs": [],
      "stateMutability": "nonpayable",
      "type": "function"
    },
    {
      "inputs": [
        {
          "internalType": "contract ComptrollerInterface",
          "name": "comptroller_",
          "type": "address"
        },
        {
          "internalType": "contract InterestRateModelV8",
          "name": "interestRateModel_",
          "type": "address"
        },
        {
          "internalType": "uint256",
          "name": "initialExchangeRateMantissa_",
          "type": "uint256"
        },
        {
          "internalType": "string",
          "name": "name_",
          "type": "string"
        },
        {
          "internalType": "string",
          "name": "symbol_",
          "type": "string"
        },
        {
          "internalType": "uint8",
          "name": "decimals_",
          "type": "uint8"
        }
      ],
      "name": "initialize",
      "outputs": [],
      "stateMutability": "nonpayable",
      "type": "function"
    },
    {
      "inputs": [],
      "name": "interestRateModel",
      "outputs": [
        {
          "internalType": "contract InterestRateModelV8",
          "name": "",
          "type": "address"
        }
      ],
      "stateMutability": "view",
      "type": "function"
    },
    {
      "inputs": [],
      "name": "isVToken",
      "outputs": [
        {
          "internalType": "bool",
          "name": "",
          "type": "bool"
        }
      ],
      "stateMutability": "view",
      "type": "function"
    },
    {
      "inputs": [
        {
          "internalType": "address",
          "name": "borrower",
          "type": "address"
        },
        {
          "internalType": "uint256",
          "name": "repayAmount",
          "type": "uint256"
        },
        {
          "internalType": "contract VTokenInterface",
          "name": "vTokenCollateral",
          "type": "address"
        }
      ],
      "name": "liquidateBorrow",
      "outputs": [
        {
          "internalType": "uint256",
          "name": "",
          "type": "uint256"
        }
      ],
      "stateMutability": "nonpayable",
      "type": "function"
    },
    {
      "inputs": [
        {
          "internalType": "uint256",
          "name": "mintAmount",
          "type": "uint256"
        }
      ],
      "name": "mint",
      "outputs": [
        {
          "internalType": "uint256",
          "name": "",
          "type": "uint256"
        }
      ],
      "stateMutability": "nonpayable",
      "type": "function"
    },
    {
      "inputs": [
        {
          "internalType": "address",
          "name": "receiver",
          "type": "address"
        },
        {
          "internalType": "uint256",
          "name": "mintAmount",
          "type": "uint256"
        }
      ],
      "name": "mintBehalf",
      "outputs": [
        {
          "internalType": "uint256",
          "name": "",
          "type": "uint256"
        }
      ],
      "stateMutability": "nonpayable",
      "type": "function"
    },
    {
      "inputs": [],
      "name": "name",
      "outputs": [
        {
          "internalType": "string",
          "name": "",
          "type": "string"
        }
      ],
      "stateMutability": "view",
      "type": "function"
    },
    {
      "inputs": [],
      "name": "pendingAdmin",
      "outputs": [
        {
          "internalType": "address payable",
          "name": "",
          "type": "address"
        }
      ],
      "stateMutability": "view",
      "type": "function"
    },
    {
      "inputs": [],
      "name": "protocolShareReserve",
      "outputs": [
        {
          "internalType": "address payable",
          "name": "",
          "type": "address"
        }
      ],
      "stateMutability": "view",
      "type": "function"
    },
    {
      "inputs": [
        {
          "internalType": "uint256",
          "name": "redeemTokens",
          "type": "uint256"
        }
      ],
      "name": "redeem",
      "outputs": [
        {
          "internalType": "uint256",
          "name": "",
          "type": "uint256"
        }
      ],
      "stateMutability": "nonpayable",
      "type": "function"
    },
    {
      "inputs": [
        {
          "internalType": "address",
          "name": "redeemer",
          "type": "address"
        },
        {
          "internalType": "uint256",
          "name": "redeemTokens",
          "type": "uint256"
        }
      ],
      "name": "redeemBehalf",
      "outputs": [
        {
          "internalType": "uint256",
          "name": "",
          "type": "uint256"
        }
      ],
      "stateMutability": "nonpayable",
      "type": "function"
    },
    {
      "inputs": [
        {
          "internalType": "uint256",
          "name": "redeemAmount",
          "type": "uint256"
        }
      ],
      "name": "redeemUnderlying",
      "outputs": [
        {
          "internalType": "uint256",
          "name": "",
          "type": "uint256"
        }
      ],
      "stateMutability": "nonpayable",
      "type": "function"
    },
    {
      "inputs": [
        {
          "internalType": "address",
          "name": "redeemer",
          "type": "address"
        },
        {
          "internalType": "uint256",
          "name": "redeemAmount",
          "type": "uint256"
        }
      ],
      "name": "redeemUnderlyingBehalf",
      "outputs": [
        {
          "internalType": "uint256",
          "name": "",
          "type": "uint256"
        }
      ],
      "stateMutability": "nonpayable",
      "type": "function"
    },
    {
      "inputs": [],
      "name": "reduceReservesBlockDelta",
      "outputs": [
        {
          "internalType": "uint256",
          "name": "",
          "type": "uint256"
        }
      ],
      "stateMutability": "view",
      "type": "function"
    },
    {
      "inputs": [],
      "name": "reduceReservesBlockNumber",
      "outputs": [
        {
          "internalType": "uint256",
          "name": "",
          "type": "uint256"
        }
      ],
      "stateMutability": "view",
      "type": "function"
    },
    {
      "inputs": [
        {
          "internalType": "uint256",
          "name": "repayAmount",
          "type": "uint256"
        }
      ],
      "name": "repayBorrow",
      "outputs": [
        {
          "internalType": "uint256",
          "name": "",
          "type": "uint256"
        }
      ],
      "stateMutability": "nonpayable",
      "type": "function"
    },
    {
      "inputs": [
        {
          "internalType": "address",
          "name": "borrower",
          "type": "address"
        },
        {
          "internalType": "uint256",
          "name": "repayAmount",
          "type": "uint256"
        }
      ],
      "name": "repayBorrowBehalf",
      "outputs": [
        {
          "internalType": "uint256",
          "name": "",
          "type": "uint256"
        }
      ],
      "stateMutability": "nonpayable",
      "type": "function"
    },
    {
      "inputs": [],
      "name": "reserveFactorMantissa",
      "outputs": [
        {
          "internalType": "uint256",
          "name": "",
          "type": "uint256"
        }
      ],
      "stateMutability": "view",
      "type": "function"
    },
    {
      "inputs": [
        {
          "internalType": "address",
          "name": "liquidator",
          "type": "address"
        },
        {
          "internalType": "address",
          "name": "borrower",
          "type": "address"
        },
        {
          "internalType": "uint256",
          "name": "seizeTokens",
          "type": "uint256"
        }
      ],
      "name": "seize",
      "outputs": [
        {
          "internalType": "uint256",
          "name": "",
          "type": "uint256"
        }
      ],
      "stateMutability": "nonpayable",
      "type": "function"
    },
    {
      "inputs": [
        {
          "internalType": "address",
          "name": "newAccessControlManagerAddress",
          "type": "address"
        }
      ],
      "name": "setAccessControlManager",
      "outputs": [
        {
          "internalType": "uint256",
          "name": "",
          "type": "uint256"
        }
      ],
      "stateMutability": "nonpayable",
      "type": "function"
    },
    {
      "inputs": [
        {
          "internalType": "address payable",
          "name": "protcolShareReserve_",
          "type": "address"
        }
      ],
      "name": "setProtocolShareReserve",
      "outputs": [],
      "stateMutability": "nonpayable",
      "type": "function"
    },
    {
      "inputs": [
        {
          "internalType": "uint256",
          "name": "newReduceReservesBlockDelta_",
          "type": "uint256"
        }
      ],
      "name": "setReduceReservesBlockDelta",
      "outputs": [],
      "stateMutability": "nonpayable",
      "type": "function"
    },
    {
      "inputs": [],
      "name": "supplyRatePerBlock",
      "outputs": [
        {
          "internalType": "uint256",
          "name": "",
          "type": "uint256"
        }
      ],
      "stateMutability": "view",
      "type": "function"
    },
    {
      "inputs": [],
      "name": "symbol",
      "outputs": [
        {
          "internalType": "string",
          "name": "",
          "type": "string"
        }
      ],
      "stateMutability": "view",
      "type": "function"
    },
    {
      "inputs": [],
      "name": "totalBorrows",
      "outputs": [
        {
          "internalType": "uint256",
          "name": "",
          "type": "uint256"
        }
      ],
      "stateMutability": "view",
      "type": "function"
    },
    {
      "inputs": [],
      "name": "totalBorrowsCurrent",
      "outputs": [
        {
          "internalType": "uint256",
          "name": "",
          "type": "uint256"
        }
      ],
      "stateMutability": "nonpayable",
      "type": "function"
    },
    {
      "inputs": [],
      "name": "totalReserves",
      "outputs": [
        {
          "internalType": "uint256",
          "name": "",
          "type": "uint256"
        }
      ],
      "stateMutability": "view",
      "type": "function"
    },
    {
      "inputs": [],
      "name": "totalSupply",
      "outputs": [
        {
          "internalType": "uint256",
          "name": "",
          "type": "uint256"
        }
      ],
      "stateMutability": "view",
      "type": "function"
    },
    {
      "inputs": [
        {
          "internalType": "address",
          "name": "dst",
          "type": "address"
        },
        {
          "internalType": "uint256",
          "name": "amount",
          "type": "uint256"
        }
      ],
      "name": "transfer",
      "outputs": [
        {
          "internalType": "bool",
          "name": "",
          "type": "bool"
        }
      ],
      "stateMutability": "nonpayable",
      "type": "function"
    },
    {
      "inputs": [
        {
          "internalType": "address",
          "name": "src",
          "type": "address"
        },
        {
          "internalType": "address",
          "name": "dst",
          "type": "address"
        },
        {
          "internalType": "uint256",
          "name": "amount",
          "type": "uint256"
        }
      ],
      "name": "transferFrom",
      "outputs": [
        {
          "internalType": "bool",
          "name": "",
          "type": "bool"
        }
      ],
      "stateMutability": "nonpayable",
      "type": "function"
    },
    {
      "inputs": [],
      "name": "underlying",
      "outputs": [
        {
          "internalType": "address",
          "name": "",
          "type": "address"
        }
      ],
      "stateMutability": "view",
      "type": "function"
    }
  ],
  "transactionHash": "0x06d9feb5c1fdd3e27644bdad3e5ae38b3c17b9e2e560494d4300c11ea9b4200a",
  "args": [],
  "numDeployments": 1,
  "solcInputHash": "59e926dcbfe78398f4173b0d9c02473e",
  "bytecode": "0x6080604052348015600e575f80fd5b5061561a8061001c5f395ff3fe608060405234801561000f575f80fd5b50600436106103a9575f3560e01c806373acee98116101ea578063b71d1a0c11610114578063e9a44fd9116100a9578063f5e3c46211610079578063f5e3c462146107e6578063f851a440146107f9578063f8f9da2814610811578063fca7820b14610819575f80fd5b8063e9a44fd9146107a5578063e9c714f2146107b8578063f2b3abbd146107c0578063f3fdb15a146107d3575f80fd5b8063d1109c2f116100e4578063d1109c2f1461073e578063db006a7514610747578063dd62ed3e1461075a578063df3a516e14610792575f80fd5b8063b71d1a0c146106dd578063bd6d894d146106f0578063c37f68e2146106f8578063c5ebeaec1461072b575f80fd5b8063a0712d681161018a578063ae96f1411161015a578063ae96f141146106a6578063ae9d70b0146106af578063b2a02ff1146106b7578063b4a0bdf3146106ca575f80fd5b8063a0712d681461066f578063a6afed9514610682578063a9059cbb1461068a578063aa5af0fd1461069d575f80fd5b80638f840ddd116101c55780638f840ddd1461063857806395d89b411461064157806395dd91931461064957806399d8c1b41461065c575f80fd5b806373acee981461060a578063852a12e314610612578063856e5bb314610625575f80fd5b80632608f818116102d657806347bd37181161026b578063601a0bf11161023b578063601a0bf1146105b35780636c540baf146105c65780636f307dc3146105cf57806370a08231146105e2575f80fd5b806347bd37181461057157806356e677281461057a5780635c60da1b1461058d5780635fe3b567146105a0575f80fd5b80633b1d21a2116102a65780633b1d21a21461053b5780633d9ea3a1146105435780633e9410101461054b5780634576b5db1461055e575f80fd5b80632608f818146104cb57806326782247146104de578063313ce567146105095780633af9e66914610528575f80fd5b806317bfdfbc1161034c578063210bc0521161031c578063210bc0521461047f57806323323e031461049257806323b872dd146104a55780632464176b146104b8575f80fd5b806317bfdfbc1461044857806318160ddd1461045b578063182df0f5146104645780631a31d4651461046c575f80fd5b80630e752702116103875780630e7527021461040f578063107568df14610422578063153ab50514610437578063173b99041461043f575f80fd5b806306fdde03146103ad578063095ea7b3146103cb5780630e32cb86146103ee575b5f80fd5b6103b561082c565b6040516103c29190614de9565b60405180910390f35b6103de6103d9366004614e0f565b6108b8565b60405190151581526020016103c2565b6104016103fc366004614e39565b610924565b6040519081526020016103c2565b61040161041d366004614e54565b6109a0565b610435610430366004614e39565b6109b3565b005b610435610a20565b61040160085481565b610401610456366004614e39565b610a9c565b610401600d5481565b610401610b09565b61043561047a366004614f25565b610b21565b61040161048d366004614e0f565b610bb4565b6104016104a0366004614e0f565b610c53565b6103de6104b3366004614fd4565b610c68565b6104356104c6366004614e54565b610cb6565b6104016104d9366004614e0f565b610d57565b6004546104f1906001600160a01b031681565b6040516001600160a01b0390911681526020016103c2565b6003546105169060ff1681565b60405160ff90911681526020016103c2565b610401610536366004614e39565b610d63565b610401610db8565b6103de600181565b610401610559366004614e54565b610dc6565b61040161056c366004614e39565b610dd0565b610401600b5481565b610435610588366004615012565b610eef565b6012546104f1906001600160a01b031681565b6005546104f1906001600160a01b031681565b6104016105c1366004614e54565b610f67565b61040160095481565b6011546104f1906001600160a01b031681565b6104016105f0366004614e39565b6001600160a01b03165f908152600e602052604090205490565b610401611030565b610401610620366004614e54565b611093565b610401610633366004614e0f565b61109f565b610401600c5481565b6103b5611137565b610401610657366004614e39565b611144565b61043561066a366004615057565b61115d565b61040161067d366004614e54565b611346565b610401611351565b6103de610698366004614e0f565b6116a5565b610401600a5481565b61040160145481565b6104016116f1565b6104016106c5366004614fd4565b611786565b6016546104f1906001600160a01b031681565b6104016106eb366004614e39565b6117d2565b61040161182f565b61070b610706366004614e39565b611898565b6040805194855260208501939093529183015260608201526080016103c2565b610401610739366004614e54565b611933565b61040160135481565b610401610755366004614e54565b61193f565b6104016107683660046150f3565b6001600160a01b039182165f908152600f6020908152604080832093909416825291909152205490565b6104016107a0366004614e0f565b61194b565b6015546104f1906001600160a01b031681565b6104016119e3565b6104016107ce366004614e39565b611acb565b6006546104f1906001600160a01b031681565b6104016107f436600461512a565b611b40565b6003546104f19061010090046001600160a01b031681565b610401611b57565b610401610827366004614e54565b611ba9565b6001805461083990615169565b80601f016020809104026020016040519081016040528092919081815260200182805461086590615169565b80156108b05780601f10610887576101008083540402835291602001916108b0565b820191905f5260205f20905b81548152906001019060200180831161089357829003601f168201915b505050505081565b335f818152600f602090815260408083206001600160a01b038716808552925280832085905551919290917f8c5be1e5ebec7d5bd14f71427d1e84f3dd0314c0f7b2291e5b200ac8c7c3b925906109129086815260200190565b60405180910390a35060015b92915050565b5f61092e33611c47565b61093782611c98565b6016546040517f66fd58e82f7b31a2a5c30e0888f3093efe4e111b00cd2b0c31fe014601293aa091610976916001600160a01b039091169085906151a1565b60405180910390a1601680546001600160a01b0319166001600160a01b0384161790555f92915050565b5f806109ab83611cdd565b509392505050565b6109bc33611c47565b6109c581611c98565b6015546040516001600160a01b038084169216907fafec95c8612496c3ecf5dddc71e393528fe29bd145fbaf9c6b496d78d7e2d79b905f90a3601580546001600160a01b0319166001600160a01b0392909216919091179055565b60035461010090046001600160a01b03163314610a9a5760405162461bcd60e51b815260206004820152602d60248201527f6f6e6c79207468652061646d696e206d61792063616c6c205f72657369676e4960448201526c36b83632b6b2b73a30ba34b7b760991b60648201526084015b60405180910390fd5b565b5f805460ff16610abe5760405162461bcd60e51b8152600401610a91906151cf565b5f805460ff19168155610acf611351565b14610aec5760405162461bcd60e51b8152600401610a91906151f3565b610af582611144565b90505b5f805460ff19166001179055919050565b5f805f610b14611d65565b9150915061091e82611e18565b610b2f86868686868661115d565b601180546001600160a01b0319166001600160a01b038916908117909155604080516318160ddd60e01b815290516318160ddd916004808201926020929091908290030181865afa158015610b86573d5f803e3d5ffd5b505050506040513d601f19601f82011682018060405250810190610baa9190615223565b5050505050505050565b600554604051630217306760e31b81525f916001600160a01b0316906310b9833890610be690869033906004016151a1565b602060405180830381865afa158015610c01573d5f803e3d5ffd5b505050506040513d601f19601f82011682018060405250810190610c25919061523a565b610c415760405162461bcd60e51b8152600401610a9190615259565b610c4c833384611e48565b9392505050565b5f80610c5f8484611ec9565b50949350505050565b5f805460ff16610c8a5760405162461bcd60e51b8152600401610a91906151cf565b5f805460ff19168155610c9f33868686611f53565b1490505b5f805460ff191660011790559392505050565b5f8111610cf55760405162461bcd60e51b815260206004820152600d60248201526c125b9d985b1a5908125b9c1d5d609a1b6044820152606401610a91565b610d166040518060600160405280602481526020016155a16024913961223b565b60135460408051918252602082018390527fc2ac513cdb57f91eb2bef4db918c285829524f549682b99717c6cb06cc011183910160405180910390a1601355565b5f80610c5f84846122e8565b5f806040518060200160405280610d7861182f565b90526001600160a01b0384165f908152600e6020526040812054919250908190610da390849061234c565b91509150610db082611e18565b949350505050565b5f610dc161239a565b905090565b5f61091e826123ca565b5f610dda33611c47565b60055460408051623f1ee960e11b815290516001600160a01b0392831692851691627e3dd29160048083019260209291908290030181865afa158015610e22573d5f803e3d5ffd5b505050506040513d601f19601f82011682018060405250810190610e46919061523a565b610e925760405162461bcd60e51b815260206004820152601c60248201527f6d61726b6572206d6574686f642072657475726e65642066616c7365000000006044820152606401610a91565b600580546001600160a01b0319166001600160a01b0385161790556040517f7ac369dbd14fa5ea3f473ed67cc9d598964a77501540ba6751eb0b3decf5870d90610edf90839086906151a1565b60405180910390a15f9392505050565b60035461010090046001600160a01b03163314610f645760405162461bcd60e51b815260206004820152602d60248201527f6f6e6c79207468652061646d696e206d61792063616c6c205f6265636f6d654960448201526c36b83632b6b2b73a30ba34b7b760991b6064820152608401610a91565b50565b5f805460ff16610f895760405162461bcd60e51b8152600401610a91906151cf565b5f805460ff1916905560408051808201909152601881527f5f72656475636552657365727665732875696e743235362900000000000000006020820152610fcf9061223b565b5f610fd8611351565b9050801561100457610ffc816011811115610ff557610ff56151bb565b603061243f565b915050610af8565b4360145403611013575f610ffc565b61101c836124b6565b9150505f805460ff19166001179055919050565b5f805460ff166110525760405162461bcd60e51b8152600401610a91906151cf565b5f805460ff19168155611063611351565b146110805760405162461bcd60e51b8152600401610a91906151f3565b50600b545f805460ff1916600117905590565b5f61091e3333846125ec565b600554604051630217306760e31b81525f916001600160a01b0316906310b98338906110d190869033906004016151a1565b602060405180830381865afa1580156110ec573d5f803e3d5ffd5b505050506040513d601f19601f82011682018060405250810190611110919061523a565b61112c5760405162461bcd60e51b8152600401610a9190615259565b610c4c833384612648565b6002805461083990615169565b5f805f611150846126aa565b91509150610c4c82611e18565b61116633611c47565b6009541580156111765750600a54155b6111ce5760405162461bcd60e51b815260206004820152602360248201527f6d61726b6574206d6179206f6e6c7920626520696e697469616c697a6564206f6044820152626e636560e81b6064820152608401610a91565b6007849055836112395760405162461bcd60e51b815260206004820152603060248201527f696e697469616c2065786368616e67652072617465206d75737420626520677260448201526f32b0ba32b9103a3430b7103d32b9379760811b6064820152608401610a91565b5f61124387610dd0565b905080156112935760405162461bcd60e51b815260206004820152601a60248201527f73657474696e6720636f6d7074726f6c6c6572206661696c65640000000000006044820152606401610a91565b43600955670de0b6b3a7640000600a556112ac8661275d565b905080156113075760405162461bcd60e51b815260206004820152602260248201527f73657474696e6720696e7465726573742072617465206d6f64656c206661696c604482015261195960f21b6064820152608401610a91565b600161131385826152db565b50600261132084826152db565b50506003805460ff90921660ff199283161790555f805490911660011790555050505050565b5f806109ab83612884565b6009545f904390818103611368575f5b9250505090565b5f61137161239a565b600b54600c54600a546006546040516315f2405360e01b81526004810186905260248101859052604481018490529495509293919290915f916001600160a01b0316906315f2405390606401602060405180830381865afa1580156113d8573d5f803e3d5ffd5b505050506040513d601f19601f820116820180604052508101906113fc9190615223565b905065048c273950008111156114545760405162461bcd60e51b815260206004820152601c60248201527f626f72726f772072617465206973206162737572646c792068696768000000006044820152606401610a91565b5f8061146089896128e0565b9150915061146d82611e18565b60408051602081019091525f81525f805f8061149760405180602001604052808a81525087612900565b90975094505f8760038111156114af576114af6151bb565b146114e5576114d2600960068960038111156114cd576114cd6151bb565b612975565b9e50505050505050505050505050505090565b6114ef858c61234c565b90975093505f876003811115611507576115076151bb565b14611525576114d2600960018960038111156114cd576114cd6151bb565b61152f848c6129ec565b90975092505f876003811115611547576115476151bb565b14611565576114d2600960048960038111156114cd576114cd6151bb565b6115806040518060200160405280600854815250858c612a0f565b90975091505f876003811115611598576115986151bb565b146115b6576114d2600960058960038111156114cd576114cd6151bb565b6115c1858a8b612a0f565b90975090505f8760038111156115d9576115d96151bb565b146115f7576114d2600960038960038111156114cd576114cd6151bb565b60098e9055600a819055600b839055600c829055601454611619908f906128e0565b909750955061162787611e18565b60135486106116575760148e9055818c101561164c576116468c6124b6565b50611657565b611655826124b6565b505b604080518d815260208101869052908101829052606081018490527f4dec04e750ca11537cabcd8a9eab06494de08da3735bc8871cd41250e190bc049060800160405180910390a15f6114d2565b5f805460ff166116c75760405162461bcd60e51b8152600401610a91906151cf565b5f805460ff191681556116dc33338686611f53565b1490505f805460ff1916600117905592915050565b6006545f906001600160a01b031663b816881661170c61239a565b600b54600c546008546040516001600160e01b031960e087901b16815260048101949094526024840192909252604483015260648201526084015b602060405180830381865afa158015611762573d5f803e3d5ffd5b505050506040513d601f19601f82011682018060405250810190610dc19190615223565b5f805460ff166117a85760405162461bcd60e51b8152600401610a91906151cf565b5f805460ff191690556117bd33858585612a66565b90505f805460ff191660011790559392505050565b5f6117dc33611c47565b600480546001600160a01b038481166001600160a01b03198316179092556040519116907fca4f2f25d0898edd99413412fb94012f9e54ec8142f9b093e7720646a95b16a990610edf90839086906151a1565b5f805460ff166118515760405162461bcd60e51b8152600401610a91906151cf565b5f805460ff19168155611862611351565b1461187f5760405162461bcd60e51b8152600401610a91906151f3565b611887610b09565b90505f805460ff1916600117905590565b6001600160a01b0381165f908152600e60205260408120548190819081908180806118c2896126aa565b935090505f8160038111156118d9576118d96151bb565b146118f55760095b5f805f97509750975097505050505061192c565b6118fd611d65565b925090505f816003811115611914576119146151bb565b146119205760096118e1565b505f9650919450925090505b9193509193565b5f61091e333384612648565b5f61091e333384611e48565b600554604051630217306760e31b81525f916001600160a01b0316906310b983389061197d90869033906004016151a1565b602060405180830381865afa158015611998573d5f803e3d5ffd5b505050506040513d601f19601f820116820180604052508101906119bc919061523a565b6119d85760405162461bcd60e51b8152600401610a9190615259565b610c4c8333846125ec565b6004545f906001600160a01b03163314611a0257610dc160015f61243f565b60038054600480546001600160a01b03818116610100818102610100600160a81b0319871617968790556001600160a01b03199093169093556040519382900481169492937ff9ffabca9c8276e99321725bcb43fb076a6c66a54b7f21c4e8146d8519b417dc93611a78938793910416906151a1565b60405180910390a16004546040517fca4f2f25d0898edd99413412fb94012f9e54ec8142f9b093e7720646a95b16a991611abd9184916001600160a01b0316906151a1565b60405180910390a15f611361565b5f611b0a6040518060400160405280601e81526020017f5f736574496e746572657374526174654d6f64656c286164647265737329000081525061223b565b5f611b13611351565b90508015611b3757610c4c816011811115611b3057611b306151bb565b604061243f565b610c4c8361275d565b5f80611b4d858585612ca4565b5095945050505050565b6006545f906001600160a01b03166315f24053611b7261239a565b600b54600c546040516001600160e01b031960e086901b168152600481019390935260248301919091526044820152606401611747565b5f805460ff16611bcb5760405162461bcd60e51b8152600401610a91906151cf565b5f805460ff1916905560408051808201909152601a81527f5f73657452657365727665466163746f722875696e74323536290000000000006020820152611c119061223b565b5f611c1a611351565b90508015611c3e57610ffc816011811115611c3757611c376151bb565b604661243f565b61101c83612db5565b6003546001600160a01b038281166101009092041614610f645760405162461bcd60e51b815260206004820152600c60248201526b155b985d5d1a1bdc9a5e995960a21b6044820152606401610a91565b6001600160a01b038116610f645760405162461bcd60e51b815260206004820152600c60248201526b7a65726f206164647265737360a01b6044820152606401610a91565b5f8054819060ff16611d015760405162461bcd60e51b8152600401610a91906151cf565b5f805460ff19168155611d12611351565b90508015611d4157611d36816011811115611d2f57611d2f6151bb565b603661243f565b5f9250925050611d52565b611d4c333386612e25565b92509250505b5f805460ff191660011790559092909150565b600d545f908190808203611d7f5750506007545f92909150565b5f611d8861239a565b90505f611da060405180602001604052805f81525090565b5f611db084600b54600c546131b6565b935090505f816003811115611dc757611dc76151bb565b14611dd857965f9650945050505050565b611de283866131f6565b925090505f816003811115611df957611df96151bb565b14611e0a57965f9650945050505050565b50515f969095509350505050565b5f816003811115611e2b57611e2b6151bb565b14610f645760405162461bcd60e51b8152600401610a919061539b565b5f805460ff16611e6a5760405162461bcd60e51b8152600401610a91906151cf565b5f805460ff19168155611e7b611351565b90508015611ea757611e9f816011811115611e9857611e986151bb565b602761243f565b915050610ca3565b611eb38585855f6132b8565b9150505f805460ff191660011790559392505050565b5f8054819060ff16611eed5760405162461bcd60e51b8152600401610a91906151cf565b5f805460ff19168155611efe611351565b90508015611f2d57611f22816011811115611f1b57611f1b6151bb565b601e61243f565b5f9250925050611f3e565b611f38338686613934565b92509250505b5f805460ff1916600117905590939092509050565b6005546040516317b9b84b60e31b81525f9182916001600160a01b039091169063bdcdc25890611f8d9030908990899089906004016153bf565b6020604051808303815f875af1158015611fa9573d5f803e3d5ffd5b505050506040513d601f19601f82011682018060405250810190611fcd9190615223565b90508015611fea57611fe26003604a83612975565b915050610db0565b836001600160a01b0316856001600160a01b03160361200f57611fe26002604b61243f565b5f856001600160a01b0316876001600160a01b03160361203157505f19612058565b506001600160a01b038086165f908152600f60209081526040808320938a16835292905220545b5f805f8061206685896128e0565b90945092505f84600381111561207e5761207e6151bb565b1461209c5761208f6009604b61243f565b9650505050505050610db0565b6001600160a01b038a165f908152600e60205260409020546120be90896128e0565b90945091505f8460038111156120d6576120d66151bb565b146120e75761208f6009604c61243f565b6001600160a01b0389165f908152600e602052604090205461210990896129ec565b90945090505f846003811115612121576121216151bb565b146121325761208f6009604d61243f565b6001600160a01b03808b165f908152600e6020526040808220859055918b168152208190555f198514612187576001600160a01b03808b165f908152600f60209081526040808320938f168352929052208390555b886001600160a01b03168a6001600160a01b03165f805160206155c58339815191528a6040516121b991815260200190565b60405180910390a360055460405163352b4a3f60e11b81526001600160a01b0390911690636a56947e906121f79030908e908e908e906004016153bf565b5f604051808303815f87803b15801561220e575f80fd5b505af1158015612220573d5f803e3d5ffd5b505f925061222c915050565b9b9a5050505050505050505050565b6016546040516318c5e8ab60e01b81526001600160a01b03909116906318c5e8ab9061226d90339085906004016153e9565b602060405180830381865afa158015612288573d5f803e3d5ffd5b505050506040513d601f19601f820116820180604052508101906122ac919061523a565b610f645760405162461bcd60e51b815260206004820152600d60248201526c1858d8d95cdcc819195b9a5959609a1b6044820152606401610a91565b5f8054819060ff1661230c5760405162461bcd60e51b8152600401610a91906151cf565b5f805460ff1916815561231d611351565b9050801561234157611f2281601181111561233a5761233a6151bb565b603561243f565b611f38338686612e25565b5f805f8061235a8686612900565b90925090505f826003811115612372576123726151bb565b14612382575091505f9050612393565b5f61238c82613cc8565b9350935050505b9250929050565b6011546040516370a0823160e01b81523060048201525f916001600160a01b0316906370a0823190602401611747565b5f805460ff166123ec5760405162461bcd60e51b8152600401610a91906151cf565b5f805460ff191681556123fd611351565b9050801561242157610ffc81601181111561241a5761241a6151bb565b604e61243f565b61242a83613cdf565b509150505f805460ff19166001179055919050565b5f7f45b96fe442630264581b197e84bbada861235052c5a1aadfff9ea4e40a969aa0836011811115612473576124736151bb565b836055811115612485576124856151bb565b6040805192835260208301919091525f9082015260600160405180910390a1826011811115610c4c57610c4c6151bb565b5f815f036124c4575f61091e565b43600954146124d95761091e600a603361243f565b816124e261239a565b10156124f45761091e600e603261243f565b600c5482111561250a5761091e6002603461243f565b5f82600c546125199190615420565b600c819055601554909150612537906001600160a01b031684613dbc565b6015546005546011546040516305bebb3b60e21b81526001600160a01b03938416936316faecec9361257493908216929116905f90600401615433565b5f604051808303815f87803b15801561258b575f80fd5b505af115801561259d573d5f803e3d5ffd5b5050601554604080516001600160a01b0390921682526020820187905281018490527f3bad0c59cf2f06e7314077049f48a93578cd16f5ef92329f1dab1420a99c177e92506060019050610edf565b5f805460ff1661260e5760405162461bcd60e51b8152600401610a91906151cf565b5f805460ff1916815561261f611351565b9050801561263c57611e9f816011811115611e9857611e986151bb565b611eb385855f866132b8565b5f805460ff1661266a5760405162461bcd60e51b8152600401610a91906151cf565b5f805460ff1916815561267b611351565b9050801561269f57611e9f816011811115612698576126986151bb565b600861243f565b611eb3858585613dd8565b6001600160a01b0381165f9081526010602052604081208054829182918291829182036126df57505f96879650945050505050565b6126ee815f0154600a546140a4565b90945092505f846003811115612706576127066151bb565b14612718575091955f95509350505050565b6127268382600101546140e1565b90945091505f84600381111561273e5761273e6151bb565b14612750575091955f95509350505050565b505f969095509350505050565b5f80436009541461277457610c4c600a604161243f565b60065f9054906101000a90046001600160a01b03169050826001600160a01b0316632191f92a6040518163ffffffff1660e01b8152600401602060405180830381865afa1580156127c7573d5f803e3d5ffd5b505050506040513d601f19601f820116820180604052508101906127eb919061523a565b6128375760405162461bcd60e51b815260206004820152601c60248201527f6d61726b6572206d6574686f642072657475726e65642066616c7365000000006044820152606401610a91565b600680546001600160a01b0319166001600160a01b0385161790556040517fedffc32e068c7c95dfd4bdfd5c4d939a084d6b11c4199eac8436ed234d72f92690610edf90839086906151a1565b5f8054819060ff166128a85760405162461bcd60e51b8152600401610a91906151cf565b5f805460ff191681556128b9611351565b905080156128d657611d36816011811115611f1b57611f1b6151bb565b611d4c338561410b565b5f808383116128f557505f9050818303612393565b50600390505f612393565b5f61291660405180602001604052805f81525090565b5f80612925865f0151866140a4565b90925090505f82600381111561293d5761293d6151bb565b1461295b575060408051602081019091525f81529092509050612393565b60408051602081019091529081525f969095509350505050565b5f7f45b96fe442630264581b197e84bbada861235052c5a1aadfff9ea4e40a969aa08460118111156129a9576129a96151bb565b8460558111156129bb576129bb6151bb565b604080519283526020830191909152810184905260600160405180910390a1836011811115610db057610db06151bb565b5f80838301848110612a02575f92509050612393565b60025f9250925050612393565b5f805f80612a1d8787612900565b90925090505f826003811115612a3557612a356151bb565b14612a45575091505f9050612a5e565b612a57612a5182613cc8565b866129ec565b9350935050505b935093915050565b60055460405163d02f735160e01b81525f9182916001600160a01b039091169063d02f735190612aa29030908a908a908a908a90600401615475565b6020604051808303815f875af1158015612abe573d5f803e3d5ffd5b505050506040513d601f19601f82011682018060405250810190612ae29190615223565b90508015612af757611fe26003601b83612975565b846001600160a01b0316846001600160a01b031603612b1c57611fe26006601c61243f565b6001600160a01b0384165f908152600e602052604081205481908190612b4290876128e0565b90935091505f836003811115612b5a57612b5a6151bb565b14612b8357612b786009601a8560038111156114cd576114cd6151bb565b945050505050610db0565b6001600160a01b0388165f908152600e6020526040902054612ba590876129ec565b90935090505f836003811115612bbd57612bbd6151bb565b14612bdb57612b78600960198560038111156114cd576114cd6151bb565b6001600160a01b038088165f818152600e6020526040808220869055928b168082529083902084905591515f805160206155c583398151915290612c22908a815260200190565b60405180910390a3600554604051636d35bf9160e01b81526001600160a01b0390911690636d35bf9190612c629030908d908d908d908d90600401615475565b5f604051808303815f87803b158015612c79575f80fd5b505af1158015612c8b573d5f803e3d5ffd5b505f9250612c97915050565b9998505050505050505050565b5f8054819060ff16612cc85760405162461bcd60e51b8152600401610a91906151cf565b5f805460ff19168155612cd9611351565b90508015612d0857612cfd816011811115612cf657612cf66151bb565b600f61243f565b5f9250925050612d9f565b836001600160a01b031663a6afed956040518163ffffffff1660e01b81526004016020604051808303815f875af1158015612d45573d5f803e3d5ffd5b505050506040513d601f19601f82011682018060405250810190612d699190615223565b90508015612d8d57612cfd816011811115612d8657612d866151bb565b601061243f565b612d993387878761447d565b92509250505b5f805460ff191660011790559094909350915050565b5f4360095414612dcb5761091e600a604861243f565b670de0b6b3a7640000821115612de75761091e6002604961243f565b600880549083905560408051828152602081018590527faaa68312e2ea9d50e16af5068410ab56e1a1fd06037b1a35664812c30f8214609101610edf565b600554604051631200453160e11b81525f91829182916001600160a01b0316906324008a6290612e5f9030908a908a908a906004016153bf565b6020604051808303815f875af1158015612e7b573d5f803e3d5ffd5b505050506040513d601f19601f82011682018060405250810190612e9f9190615223565b90508015612ebf57612eb46003603883612975565b5f9250925050612a5e565b4360095414612ed457612eb4600a603961243f565b612f15604080516101008101909152805f81526020015f81526020015f81526020015f81526020015f81526020015f81526020015f81526020015f81525090565b6001600160a01b0386165f908152601060205260409020600101546060820152612f3e866126aa565b6080830181905260208301826003811115612f5b57612f5b6151bb565b6003811115612f6c57612f6c6151bb565b9052505f905081602001516003811115612f8857612f886151bb565b14612fb657612faa60096037836020015160038111156114cd576114cd6151bb565b5f935093505050612a5e565b5f198503612fcd5760808101516040820152612fd5565b604081018590525b612fe387826040015161499c565b60e082018190526080820151612ff8916128e0565b60a0830181905260208301826003811115613015576130156151bb565b6003811115613026576130266151bb565b81525050506130388160200151611e18565b613048600b548260e001516128e0565b60c0830181905260208301826003811115613065576130656151bb565b6003811115613076576130766151bb565b81525050506130888160200151611e18565b60a081810180516001600160a01b038981165f81815260106020908152604091829020948555600a5460019095019490945560c0870151600b81905560e088015195518251948f16855294840192909252820193909352606081019190915260808101919091527f1a2a22cb034d26d1854bdc6666a5b91fe25efbbb5dcad3b0355478d6f5c362a1910160405180910390a160055460e08201516060830151604051631ededc9160e01b81523060048201526001600160a01b038b811660248301528a8116604483015260648201939093526084810191909152911690631ededc919060a4015f604051808303815f87803b158015613185575f80fd5b505af1158015613197573d5f803e3d5ffd5b505f92506131a3915050565b8160e00151935093505050935093915050565b5f805f806131c487876129ec565b90925090505f8260038111156131dc576131dc6151bb565b146131ec575091505f9050612a5e565b612a5781866128e0565b5f61320c60405180602001604052805f81525090565b5f8061322086670de0b6b3a76400006140a4565b90925090505f826003811115613238576132386151bb565b14613256575060408051602081019091525f81529092509050612393565b5f8061326283886140e1565b90925090505f82600381111561327a5761327a6151bb565b1461329c578160405180602001604052805f8152509550955050505050612393565b60408051602081019091529081525f9890975095505050505050565b5f8215806132c4575081155b61332d5760405162461bcd60e51b815260206004820152603460248201527f6f6e65206f662072656465656d546f6b656e73496e206f722072656465656d416044820152736d6f756e74496e206d757374206265207a65726f60601b6064820152608401610a91565b613335614d8a565b61333d611d65565b6020830181905282826003811115613357576133576151bb565b6003811115613368576133686151bb565b90525050805161337790611e18565b83156133de5760408082018590528051602080820190925290820151815261339f908561234c565b60608301819052828260038111156133b9576133b96151bb565b60038111156133ca576133ca6151bb565b9052505080516133d990611e18565b61343c565b6133fa8360405180602001604052808460200151815250614a95565b6040830181905282826003811115613414576134146151bb565b6003811115613425576134256151bb565b90525050805161343490611e18565b606081018390525b600554604080830151905163eabe7d9160e01b81525f926001600160a01b03169163eabe7d91916134749130918c91906004016154a8565b6020604051808303815f875af1158015613490573d5f803e3d5ffd5b505050506040513d601f19601f820116820180604052508101906134b49190615223565b905080156134d45760405162461bcd60e51b8152600401610a919061539b565b43600954146134f55760405162461bcd60e51b8152600401610a919061539b565b613505600d5483604001516128e0565b608084018190528382600381111561351f5761351f6151bb565b6003811115613530576135306151bb565b90525050815161353f90611e18565b6001600160a01b0387165f908152600e602052604090819020549083015161356791906128e0565b60a0840181905283826003811115613581576135816151bb565b6003811115613592576135926151bb565b9052505081516135a190611e18565b81606001516135ae61239a565b10156135cc5760405162461bcd60e51b8152600401610a919061539b565b6080820151600d5560a08201516001600160a01b038089165f908152600e60209081526040808320949094556005548451629df3ab60e31b815294519294859491909116926304ef9d58926004808401939192918290030181865afa158015613637573d5f803e3d5ffd5b505050506040513d601f19601f8201168201806040525081019061365b9190615223565b1561386257606084015160055460408051629df3ab60e31b815290516136d793926001600160a01b0316916304ef9d589160048083019260209291908290030181865afa1580156136ae573d5f803e3d5ffd5b505050506040513d601f19601f820116820180604052508101906136d29190615223565b6140a4565b925082858260038111156136ed576136ed6151bb565b60038111156136fe576136fe6151bb565b90525050835161370d90611e18565b61371f82670de0b6b3a76400006140e1565b92508285826003811115613735576137356151bb565b6003811115613746576137466151bb565b90525050835161375590611e18565b6137638460600151836128e0565b91508185826003811115613779576137796151bb565b600381111561378a5761378a6151bb565b90525050835161379990611e18565b6005546040805163c5f956af60e01b815290515f926001600160a01b03169163c5f956af9160048083019260209291908290030181865afa1580156137e0573d5f803e3d5ffd5b505050506040513d601f19601f8201168201806040525081019061380491906154cc565b90506138108184613dbc565b60408086015181516001600160a01b038d16815260208101869052918201527fccf8e53b86a99b7e9ecf796342c165764d66154780f638c08e6241d711fba6d49060600160405180910390a150613869565b5060608301515b6138738882613dbc565b306001600160a01b0316896001600160a01b03165f805160206155c583398151915286604001516040516138a991815260200190565b60405180910390a37fbd5034ffbd47e4e72a94baa2cdb74c6fad73cb3bcdc13036b72ec8306f5a7646898286604001518760a001516040516138ee94939291906154e7565b60405180910390a1600554606085015160408087015190516351dff98960e01b81526001600160a01b03909316926351dff98992612c629230928f92919060040161550d565b5f8061393f84611c98565b600554604051634ef4c3e160e01b81525f916001600160a01b031690634ef4c3e190613973903090899089906004016154a8565b6020604051808303815f875af115801561398f573d5f803e3d5ffd5b505050506040513d601f19601f820116820180604052508101906139b39190615223565b905080156139c857612eb46003601f83612975565b43600954146139dd57612eb4600a602261243f565b6139e5614d8a565b6139ed611d65565b6020830181905282826003811115613a0757613a076151bb565b6003811115613a1857613a186151bb565b9052505f905081516003811115613a3157613a316151bb565b14613a5257612faa60096021835f015160038111156114cd576114cd6151bb565b613a5c878661499c565b60a08201819052604080516020808201909252908301518152613a7f9190614a95565b6040830181905282826003811115613a9957613a996151bb565b6003811115613aaa57613aaa6151bb565b905250508051613ab990611e18565b613ac9600d5482604001516129ec565b6060830181905282826003811115613ae357613ae36151bb565b6003811115613af457613af46151bb565b905250508051613b0390611e18565b6001600160a01b0386165f908152600e6020526040908190205490820151613b2b91906129ec565b6080830181905282826003811115613b4557613b456151bb565b6003811115613b5657613b566151bb565b905250508051613b6590611e18565b6060810151600d556080810180516001600160a01b0388165f908152600e6020526040908190209190915560a083015181840151925191517fa24ddbdf0865ba440d364725c062eac72a908faeedffc33fe64d4640c82e3ab893613bfc938c938c93909291906001600160a01b03958616815293909416602084015260408301919091526060820152608081019190915260a00190565b60405180910390a1856001600160a01b0316306001600160a01b03165f805160206155c58339815191528360400151604051613c3a91815260200190565b60405180910390a360055460a082015160408084015190516341c728b960e01b81526001600160a01b03909316926341c728b992613c809230928c92919060040161550d565b5f604051808303815f87803b158015613c97575f80fd5b505af1158015613ca9573d5f803e3d5ffd5b505f9250613cb5915050565b8160a00151935093505050935093915050565b80515f9061091e90670de0b6b3a764000090615536565b5f805f804360095414613d0257613cf8600a604f61243f565b9590945092505050565b613d0c338661499c565b905080600c54613d1c9190615555565b9150600c54821015613d705760405162461bcd60e51b815260206004820181905260248201527f61646420726573657276657320756e6578706563746564206f766572666c6f776044820152606401610a91565b600c82905560408051338152602081018390529081018390527fa91e67c5ea634cd43a12c5a482724b03de01e85ca68702a53d0c2f45cb7c1dc59060600160405180910390a15f613cf8565b6011546001600160a01b0316613dd3818484614aa3565b505050565b60055460405163368f515360e21b81525f9182916001600160a01b039091169063da3d454c90613e10903090899088906004016154a8565b6020604051808303815f875af1158015613e2c573d5f803e3d5ffd5b505050506040513d601f19601f82011682018060405250810190613e509190615223565b90508015613e705760405162461bcd60e51b8152600401610a919061539b565b4360095414613e915760405162461bcd60e51b8152600401610a919061539b565b82613e9a61239a565b1015613eb85760405162461bcd60e51b8152600401610a919061539b565b613ee06040805160808101909152805f81526020015f81526020015f81526020015f81525090565b613ee9866126aa565b6020830181905282826003811115613f0357613f036151bb565b6003811115613f1457613f146151bb565b905250508051613f2390611e18565b613f318160200151856129ec565b6040830181905282826003811115613f4b57613f4b6151bb565b6003811115613f5c57613f5c6151bb565b905250508051613f6b90611e18565b613f77600b54856129ec565b6060830181905282826003811115613f9157613f916151bb565b6003811115613fa257613fa26151bb565b905250508051613fb190611e18565b6040808201516001600160a01b0388165f908152601060205291909120908155600a546001909101556060810151600b55613fec8585613dbc565b7f13ed6866d4e1ee6da46f845c46d7e54120883d75c5ea9a2dacc1c4ca8984ab8086858360400151846060015160405161402994939291906154e7565b60405180910390a1600554604051635c77860560e01b81526001600160a01b0390911690635c778605906140659030908a9089906004016154a8565b5f604051808303815f87803b15801561407c575f80fd5b505af115801561408e573d5f803e3d5ffd5b505f925061409a915050565b9695505050505050565b5f80835f036140b757505f905080612393565b838302836140c58683615536565b146140d75760025f9250925050612393565b5f92509050612393565b5f80825f036140f55750600190505f612393565b5f6141008486615536565b915091509250929050565b600554604051634ef4c3e160e01b81525f91829182916001600160a01b031690634ef4c3e190614143903090899089906004016154a8565b6020604051808303815f875af115801561415f573d5f803e3d5ffd5b505050506040513d601f19601f820116820180604052508101906141839190615223565b905080156141a3576141986003601f83612975565b5f9250925050612393565b43600954146141b857614198600a602261243f565b6141c0614d8a565b6141c8611d65565b60208301819052828260038111156141e2576141e26151bb565b60038111156141f3576141f36151bb565b9052505f90508151600381111561420c5761420c6151bb565b146142395761422d60096021835f015160038111156114cd576114cd6151bb565b5f935093505050612393565b614243868661499c565b60a082018190526040805160208082019092529083015181526142669190614a95565b6040830181905282826003811115614280576142806151bb565b6003811115614291576142916151bb565b9052505080516142a090611e18565b6142b0600d5482604001516129ec565b60608301819052828260038111156142ca576142ca6151bb565b60038111156142db576142db6151bb565b9052505080516142ea90611e18565b6001600160a01b0386165f908152600e602052604090819020549082015161431291906129ec565b608083018190528282600381111561432c5761432c6151bb565b600381111561433d5761433d6151bb565b90525050805161434c90611e18565b6060810151600d556080810180516001600160a01b0388165f908152600e6020526040908190209190915560a083015181840151925191517fb4c03061fb5b7fed76389d5af8f2e0ddb09f8c70d1333abbb62582835e10accb936143b2938b93926154e7565b60405180910390a1856001600160a01b0316306001600160a01b03165f805160206155c583398151915283604001516040516143f091815260200190565b60405180910390a360055460a082015160408084015190516341c728b960e01b81526001600160a01b03909316926341c728b9926144369230928c92919060040161550d565b5f604051808303815f87803b15801561444d575f80fd5b505af115801561445f573d5f803e3d5ffd5b505f925061446b915050565b8160a001519350935050509250929050565b600554604051632fe3f38f60e11b81525f91829182916001600160a01b031690635fc7e71e906144b990309088908c908c908c90600401615475565b6020604051808303815f875af11580156144d5573d5f803e3d5ffd5b505050506040513d601f19601f820116820180604052508101906144f99190615223565b905080156145195761450e6003601283612975565b5f9250925050614993565b436009541461452e5761450e600a601661243f565b43846001600160a01b0316636c540baf6040518163ffffffff1660e01b8152600401602060405180830381865afa15801561456b573d5f803e3d5ffd5b505050506040513d601f19601f8201168201806040525081019061458f9190615223565b146145a05761450e600a601161243f565b866001600160a01b0316866001600160a01b0316036145c55761450e6006601761243f565b845f036145d85761450e6007601561243f565b5f1985036145ec5761450e6007601461243f565b5f806145f9898989612e25565b9092509050811561462d57614620826011811115614619576146196151bb565b601861243f565b5f94509450505050614993565b600554604051630779996560e11b81525f9182916001600160a01b0390911690630ef332ca90614667908d9030908d9089906004016153bf565b6040805180830381865afa158015614681573d5f803e3d5ffd5b505050506040513d601f19601f820116820180604052508101906146a59190615568565b909250905081156147145760405162461bcd60e51b815260206004820152603360248201527f4c49515549444154455f434f4d5054524f4c4c45525f43414c43554c4154455f604482015272105353d5539517d4d152569157d19052531151606a1b6064820152608401610a91565b6040516370a0823160e01b81526001600160a01b038b811660048301528291908a16906370a0823190602401602060405180830381865afa15801561475b573d5f803e3d5ffd5b505050506040513d601f19601f8201168201806040525081019061477f9190615223565b10156147cd5760405162461bcd60e51b815260206004820152601860248201527f4c49515549444154455f5345495a455f544f4f5f4d55434800000000000000006044820152606401610a91565b5f306001600160a01b038a16036147f1576147ea308d8d85612a66565b9050614864565b60405163b2a02ff160e01b81526001600160a01b038a169063b2a02ff190614821908f908f9087906004016154a8565b6020604051808303815f875af115801561483d573d5f803e3d5ffd5b505050506040513d601f19601f820116820180604052508101906148619190615223565b90505b80156148a95760405162461bcd60e51b81526020600482015260146024820152731d1bdad95b881cd95a5e9d5c994819985a5b195960621b6044820152606401610a91565b604080516001600160a01b038e811682528d811660208301528183018790528b1660608201526080810184905290517f298637f684da70674f26509b10f07ec2fbc77a335ab1e7d6215a4b2484d8bb529181900360a00190a16005546040516347ef3b3b60e01b81523060048201526001600160a01b038b811660248301528e811660448301528d811660648301526084820187905260a48201859052909116906347ef3b3b9060c4015f604051808303815f87803b15801561496a575f80fd5b505af115801561497c573d5f803e3d5ffd5b505f9250614988915050565b975092955050505050505b94509492505050565b6011546040516370a0823160e01b81523060048201525f916001600160a01b031690829082906370a0823190602401602060405180830381865afa1580156149e6573d5f803e3d5ffd5b505050506040513d601f19601f82011682018060405250810190614a0a9190615223565b9050614a216001600160a01b038316863087614b06565b6040516370a0823160e01b81523060048201525f906001600160a01b038416906370a0823190602401602060405180830381865afa158015614a65573d5f803e3d5ffd5b505050506040513d601f19601f82011682018060405250810190614a899190615223565b905061409a8282615420565b5f805f8061235a8686614b2d565b6040516001600160a01b038316602482015260448101829052613dd390849063a9059cbb60e01b906064015b60408051601f198184030181529190526020810180516001600160e01b03166001600160e01b031990931692909217909152614b9a565b614b27846323b872dd60e01b858585604051602401614acf939291906154a8565b50505050565b5f614b4360405180602001604052805f81525090565b5f80614b57670de0b6b3a7640000876140a4565b90925090505f826003811115614b6f57614b6f6151bb565b14614b8d575060408051602081019091525f81529092509050612393565b61238c81865f01516131f6565b5f614bee826040518060400160405280602081526020017f5361666545524332303a206c6f772d6c6576656c2063616c6c206661696c6564815250856001600160a01b0316614c6d9092919063ffffffff16565b905080515f1480614c0e575080806020019051810190614c0e919061523a565b613dd35760405162461bcd60e51b815260206004820152602a60248201527f5361666545524332303a204552433230206f7065726174696f6e20646964206e6044820152691bdd081cdd58d8d9595960b21b6064820152608401610a91565b6060610db084845f85855f80866001600160a01b03168587604051614c92919061558a565b5f6040518083038185875af1925050503d805f8114614ccc576040519150601f19603f3d011682016040523d82523d5f602084013e614cd1565b606091505b5091509150614ce287838387614ced565b979650505050505050565b60608315614d5b5782515f03614d54576001600160a01b0385163b614d545760405162461bcd60e51b815260206004820152601d60248201527f416464726573733a2063616c6c20746f206e6f6e2d636f6e74726163740000006044820152606401610a91565b5081610db0565b610db08383815115614d705781518083602001fd5b8060405162461bcd60e51b8152600401610a919190614de9565b6040805160c08101909152805f81526020015f81526020015f81526020015f81526020015f81526020015f81525090565b5f81518084528060208401602086015e5f602082860101526020601f19601f83011685010191505092915050565b602081525f610c4c6020830184614dbb565b6001600160a01b0381168114610f64575f80fd5b5f8060408385031215614e20575f80fd5b8235614e2b81614dfb565b946020939093013593505050565b5f60208284031215614e49575f80fd5b8135610c4c81614dfb565b5f60208284031215614e64575f80fd5b5035919050565b634e487b7160e01b5f52604160045260245ffd5b5f67ffffffffffffffff80841115614e9957614e99614e6b565b604051601f8501601f19908116603f01168101908282118183101715614ec157614ec1614e6b565b81604052809350858152868686011115614ed9575f80fd5b858560208301375f602087830101525050509392505050565b5f82601f830112614f01575f80fd5b610c4c83833560208501614e7f565b803560ff81168114614f20575f80fd5b919050565b5f805f805f805f60e0888a031215614f3b575f80fd5b8735614f4681614dfb565b96506020880135614f5681614dfb565b95506040880135614f6681614dfb565b945060608801359350608088013567ffffffffffffffff80821115614f89575f80fd5b614f958b838c01614ef2565b945060a08a0135915080821115614faa575f80fd5b50614fb78a828b01614ef2565b925050614fc660c08901614f10565b905092959891949750929550565b5f805f60608486031215614fe6575f80fd5b8335614ff181614dfb565b9250602084013561500181614dfb565b929592945050506040919091013590565b5f60208284031215615022575f80fd5b813567ffffffffffffffff811115615038575f80fd5b8201601f81018413615048575f80fd5b610db084823560208401614e7f565b5f805f805f8060c0878903121561506c575f80fd5b863561507781614dfb565b9550602087013561508781614dfb565b945060408701359350606087013567ffffffffffffffff808211156150aa575f80fd5b6150b68a838b01614ef2565b945060808901359150808211156150cb575f80fd5b506150d889828a01614ef2565b9250506150e760a08801614f10565b90509295509295509295565b5f8060408385031215615104575f80fd5b823561510f81614dfb565b9150602083013561511f81614dfb565b809150509250929050565b5f805f6060848603121561513c575f80fd5b833561514781614dfb565b925060208401359150604084013561515e81614dfb565b809150509250925092565b600181811c9082168061517d57607f821691505b60208210810361519b57634e487b7160e01b5f52602260045260245ffd5b50919050565b6001600160a01b0392831681529116602082015260400190565b634e487b7160e01b5f52602160045260245ffd5b6020808252600a90820152691c994b595b9d195c995960b21b604082015260600190565b6020808252601690820152751858d8dc9d59481a5b9d195c995cdd0819985a5b195960521b604082015260600190565b5f60208284031215615233575f80fd5b5051919050565b5f6020828403121561524a575f80fd5b81518015158114610c4c575f80fd5b60208082526018908201527f6e6f7420616e20617070726f7665642064656c65676174650000000000000000604082015260600190565b601f821115613dd357805f5260205f20601f840160051c810160208510156152b55750805b601f840160051c820191505b818110156152d4575f81556001016152c1565b5050505050565b815167ffffffffffffffff8111156152f5576152f5614e6b565b615309816153038454615169565b84615290565b602080601f83116001811461533c575f84156153255750858301515b5f19600386901b1c1916600185901b178555615393565b5f85815260208120601f198616915b8281101561536a5788860151825594840194600190910190840161534b565b508582101561538757878501515f19600388901b60f8161c191681555b505060018460011b0185555b505050505050565b6020808252600a908201526936b0ba341032b93937b960b11b604082015260600190565b6001600160a01b039485168152928416602084015292166040820152606081019190915260800190565b6001600160a01b03831681526040602082018190525f90610db090830184614dbb565b634e487b7160e01b5f52601160045260245ffd5b8181038181111561091e5761091e61540c565b6001600160a01b03848116825283166020820152606081016002831061546757634e487b7160e01b5f52602160045260245ffd5b826040830152949350505050565b6001600160a01b039586168152938516602085015291841660408401529092166060820152608081019190915260a00190565b6001600160a01b039384168152919092166020820152604081019190915260600190565b5f602082840312156154dc575f80fd5b8151610c4c81614dfb565b6001600160a01b0394909416845260208401929092526040830152606082015260800190565b6001600160a01b0394851681529290931660208301526040820152606081019190915260800190565b5f8261555057634e487b7160e01b5f52601260045260245ffd5b500490565b8082018082111561091e5761091e61540c565b5f8060408385031215615579575f80fd5b505080516020909101519092909150565b5f82518060208501845e5f92019182525091905056fe7365745265647563655265736572766573426c6f636b44656c74612875696e7432353629ddf252ad1be2c89b69c2b068fc378daa952ba7f163c4a11628f55a4df523b3efa2646970667358221220e894629f777c40184b6e845d801995796d9ef0cb2f01bb78204fbdc9c0b8b39b64736f6c63430008190033",
  "devdoc": {
    "author": "Venus",
    "events": {
      "Failure(uint256,uint256,uint256)": {
        "details": "`error` corresponds to enum Error; `info` corresponds to enum FailureInfo, and `detail` is an arbitrary contract-specific code that enables us to report opaque error codes from upgradeable contracts.*"
      }
    },
    "kind": "dev",
    "methods": {
      "_acceptAdmin()": {
        "details": "Admin function for pending admin to accept role and update admin",
        "returns": {
          "_0": "uint Returns 0 on success, otherwise returns a failure code (see ErrorReporter.sol for details)."
        }
      },
      "_addReserves(uint256)": {
        "params": {
          "addAmount": "The amount of underlying tokens to add as reserves"
        },
        "returns": {
          "_0": "uint Returns 0 on success, otherwise returns a failure code (see ErrorReporter.sol for details)."
        }
      },
      "_becomeImplementation(bytes)": {
        "params": {
          "data": "The encoded bytes data for any initialization"
        }
      },
      "_reduceReserves(uint256)": {
        "params": {
          "reduceAmount_": "Amount of reduction to reserves"
        },
        "returns": {
          "_0": "uint Returns 0 on success, otherwise returns a failure code (see ErrorReporter.sol for details)."
        }
      },
      "_setComptroller(address)": {
        "details": "Admin function to set a new comptroller",
        "returns": {
          "_0": "uint Returns 0 on success, otherwise returns a failure code (see ErrorReporter.sol for details)."
        }
      },
      "_setInterestRateModel(address)": {
        "details": "Governance function to accrue interest and update the interest rate model",
        "params": {
          "newInterestRateModel_": "The new interest rate model to use"
        },
        "returns": {
          "_0": "uint Returns 0 on success, otherwise returns a failure code (see ErrorReporter.sol for details)."
        }
      },
      "_setPendingAdmin(address)": {
        "details": "Admin function to begin change of admin. The newPendingAdmin must call `_acceptAdmin` to finalize the transfer.",
        "params": {
          "newPendingAdmin": "New pending admin."
        },
        "returns": {
          "_0": "uint Returns 0 on success, otherwise returns a failure code (see ErrorReporter.sol for details)."
        }
      },
      "_setReserveFactor(uint256)": {
        "details": "Governor function to accrue interest and set a new reserve factor",
        "returns": {
          "_0": "uint Returns 0 on success, otherwise returns a failure code (see ErrorReporter.sol for details)."
        }
      },
      "accrueInterest()": {
        "details": "This calculates interest accrued from the last checkpointed block up to the current block and writes new checkpoint to storage and reduce spread reserves to protocol share reserve if currentBlock - reduceReservesBlockNumber >= blockDelta"
      },
      "allowance(address,address)": {
        "params": {
          "owner": "The address of the account which owns the tokens to be spent",
          "spender": "The address of the account which may transfer tokens"
        },
        "returns": {
          "_0": "The number of tokens allowed to be spent (type(uint256).max means infinite)"
        }
      },
      "approve(address,uint256)": {
        "details": "This will overwrite the approval amount for `spender`  and is subject to issues noted [here](https://eips.ethereum.org/EIPS/eip-20#approve)",
        "params": {
          "amount": "The number of tokens that are approved (type(uint256).max means infinite)",
          "spender": "The address of the account which may transfer tokens"
        },
        "returns": {
          "_0": "Whether or not the approval succeeded"
        }
      },
      "balanceOf(address)": {
        "params": {
          "owner": "The address of the account to query"
        },
        "returns": {
          "_0": "The number of tokens owned by `owner`"
        }
      },
      "balanceOfUnderlying(address)": {
        "details": "This also accrues interest in a transaction",
        "params": {
          "owner": "The address of the account to query"
        },
        "returns": {
          "_0": "The amount of underlying owned by `owner`"
        }
      },
      "borrow(uint256)": {
        "params": {
          "borrowAmount": "The amount of the underlying asset to borrow"
        },
        "returns": {
          "_0": "uint Returns 0 on success, otherwise returns a failure code (see ErrorReporter.sol for details)."
        }
      },
      "borrowBalanceCurrent(address)": {
        "params": {
          "account": "The address whose balance should be calculated after updating borrowIndex"
        },
        "returns": {
          "_0": "The calculated balance"
        }
      },
      "borrowBalanceStored(address)": {
        "params": {
          "account": "The address whose balance should be calculated"
        },
        "returns": {
          "_0": "The calculated balance"
        }
      },
      "borrowBehalf(address,uint256)": {
        "params": {
          "borrowAmount": "The amount of the underlying asset to borrow",
          "borrower": "The borrower, on behalf of whom to borrow."
        },
        "returns": {
          "_0": "uint Returns 0 on success, otherwise returns a failure code (see ErrorReporter.sol for details)."
        }
      },
      "borrowRatePerBlock()": {
        "returns": {
          "_0": "The borrow interest rate per block, scaled by 1e18"
        }
      },
      "exchangeRateCurrent()": {
        "returns": {
          "_0": "Calculated exchange rate scaled by 1e18"
        }
      },
      "exchangeRateStored()": {
        "details": "This function does not accrue interest before calculating the exchange rate",
        "returns": {
          "_0": "Calculated exchange rate scaled by 1e18"
        }
      },
      "getAccountSnapshot(address)": {
        "details": "This is used by comptroller to more efficiently perform liquidity checks.",
        "params": {
          "account": "Address of the account to snapshot"
        },
        "returns": {
          "_0": "(possible error, token balance, borrow balance, exchange rate mantissa)"
        }
      },
      "getCash()": {
        "returns": {
          "_0": "The quantity of underlying asset owned by this contract"
        }
      },
      "initialize(address,address,address,uint256,string,string,uint8)": {
        "params": {
          "comptroller_": "The address of the Comptroller",
          "decimals_": "BEP-20 decimal precision of this token",
          "initialExchangeRateMantissa_": "The initial exchange rate, scaled by 1e18",
          "interestRateModel_": "The address of the interest rate model",
          "name_": "BEP-20 name of this token",
          "symbol_": "BEP-20 symbol of this token",
          "underlying_": "The address of the underlying asset"
        }
      },
      "initialize(address,address,uint256,string,string,uint8)": {
        "params": {
          "comptroller_": "The address of the Comptroller",
          "decimals_": "EIP-20 decimal precision of this token",
          "initialExchangeRateMantissa_": "The initial exchange rate, scaled by 1e18",
          "interestRateModel_": "The address of the interest rate model",
          "name_": "EIP-20 name of this token",
          "symbol_": "EIP-20 symbol of this token"
        }
      },
      "liquidateBorrow(address,uint256,address)": {
        "params": {
          "borrower": "The borrower of this vToken to be liquidated",
          "repayAmount": "The amount of the underlying borrowed asset to repay",
          "vTokenCollateral": "The market in which to seize collateral from the borrower"
        },
        "returns": {
          "_0": "uint Returns 0 on success, otherwise returns a failure code (see ErrorReporter.sol for details)."
        }
      },
      "mint(uint256)": {
        "details": "Accrues interest whether or not the operation succeeds, unless reverted",
        "params": {
          "mintAmount": "The amount of the underlying asset to supply"
        },
        "returns": {
          "_0": "uint Returns 0 on success, otherwise returns a failure code (see ErrorReporter.sol for details)."
        }
      },
      "mintBehalf(address,uint256)": {
        "details": "Accrues interest whether or not the operation succeeds, unless reverted",
        "params": {
          "mintAmount": "The amount of the underlying asset to supply",
          "receiver": "The account which is receiving the vTokens"
        },
        "returns": {
          "_0": "uint Returns 0 on success, otherwise returns a failure code (see ErrorReporter.sol for details)."
        }
      },
      "redeem(uint256)": {
        "details": "Accrues interest whether or not the operation succeeds, unless reverted",
        "params": {
          "redeemTokens": "The number of vTokens to redeem into underlying"
        },
        "returns": {
          "_0": "uint Returns 0 on success, otherwise returns a failure code (see ErrorReporter.sol for details)."
        }
      },
      "redeemBehalf(address,uint256)": {
        "details": "Accrues interest whether or not the operation succeeds, unless reverted",
        "params": {
          "redeemTokens": "The number of vTokens to redeem into underlying",
          "redeemer": "The user on behalf of whom to redeem"
        },
        "returns": {
          "_0": "uint Returns 0 on success, otherwise returns a failure code (see ErrorReporter.sol for details)."
        }
      },
      "redeemUnderlying(uint256)": {
        "details": "Accrues interest whether or not the operation succeeds, unless reverted",
        "params": {
          "redeemAmount": "The amount of underlying to redeem"
        },
        "returns": {
          "_0": "uint Returns 0 on success, otherwise returns a failure code (see ErrorReporter.sol for details)."
        }
      },
      "redeemUnderlyingBehalf(address,uint256)": {
        "details": "Accrues interest whether or not the operation succeeds, unless reverted",
        "params": {
          "redeemAmount": "The amount of underlying to receive from redeeming vTokens",
          "redeemer": ", on behalf of whom to redeem"
        },
        "returns": {
          "_0": "uint Returns 0 on success, otherwise returns a failure code (see ErrorReporter.sol for details)."
        }
      },
      "repayBorrow(uint256)": {
        "params": {
          "repayAmount": "The amount to repay"
        },
        "returns": {
          "_0": "uint Returns 0 on success, otherwise returns a failure code (see ErrorReporter.sol for details)."
        }
      },
      "repayBorrowBehalf(address,uint256)": {
        "params": {
          "borrower": "The account with the debt being payed off",
          "repayAmount": "The amount to repay"
        },
        "returns": {
          "_0": "uint Returns 0 on success, otherwise returns a failure code (see ErrorReporter.sol for details)."
        }
      },
      "seize(address,address,uint256)": {
        "details": "Will fail unless called by another vToken during the process of liquidation.  Its absolutely critical to use msg.sender as the borrowed vToken and not a parameter.",
        "params": {
          "borrower": "The account having collateral seized",
          "liquidator": "The account receiving seized collateral",
          "seizeTokens": "The number of vTokens to seize"
        },
        "returns": {
          "_0": "uint Returns 0 on success, otherwise returns a failure code (see ErrorReporter.sol for details)."
        }
      },
      "setAccessControlManager(address)": {
        "details": "Admin function to set the access control address",
        "params": {
          "newAccessControlManagerAddress": "New address for the access control"
        },
        "returns": {
          "_0": "uint 0=success, otherwise will revert"
        }
      },
      "setProtocolShareReserve(address)": {
        "params": {
          "protcolShareReserve_": "The address of protocol share reserve contract"
        }
      },
      "setReduceReservesBlockDelta(uint256)": {
        "params": {
          "newReduceReservesBlockDelta_": "block difference value"
        }
      },
      "supplyRatePerBlock()": {
        "returns": {
          "_0": "The supply interest rate per block, scaled by 1e18"
        }
      },
      "totalBorrowsCurrent()": {
        "returns": {
          "_0": "The total borrows with interest"
        }
      },
      "transfer(address,uint256)": {
        "params": {
          "amount": "The number of tokens to transfer",
          "dst": "The address of the destination account"
        },
        "returns": {
          "_0": "Whether or not the transfer succeeded"
        }
      },
      "transferFrom(address,address,uint256)": {
        "params": {
          "amount": "The number of tokens to transfer",
          "dst": "The address of the destination account",
          "src": "The address of the source account"
        },
        "returns": {
          "_0": "Whether or not the transfer succeeded"
        }
      }
    },
    "title": "Venus's VBep20Delegate Contract",
    "version": 1
  },
  "userdoc": {
    "events": {
      "AccrueInterest(uint256,uint256,uint256,uint256)": {
        "notice": "Event emitted when interest is accrued"
      },
      "Approval(address,address,uint256)": {
        "notice": "EIP20 Approval event"
      },
      "Borrow(address,uint256,uint256,uint256)": {
        "notice": "Event emitted when underlying is borrowed"
      },
      "LiquidateBorrow(address,address,uint256,address,uint256)": {
        "notice": "Event emitted when a borrow is liquidated"
      },
      "Mint(address,uint256,uint256,uint256)": {
        "notice": "Event emitted when tokens are minted"
      },
      "MintBehalf(address,address,uint256,uint256,uint256)": {
        "notice": "Event emitted when tokens are minted behalf by payer to receiver"
      },
      "NewAccessControlManager(address,address)": {
        "notice": "Emitted when access control address is changed by admin"
      },
      "NewAdmin(address,address)": {
        "notice": "Event emitted when pendingAdmin is accepted, which means admin has been updated"
      },
      "NewComptroller(address,address)": {
        "notice": "Event emitted when comptroller is changed"
      },
      "NewMarketInterestRateModel(address,address)": {
        "notice": "Event emitted when interestRateModel is changed"
      },
      "NewPendingAdmin(address,address)": {
        "notice": "Event emitted when pendingAdmin is changed"
      },
      "NewProtocolShareReserve(address,address)": {
        "notice": "Event emitted when address of ProtocolShareReserve contract get updated"
      },
      "NewReduceReservesBlockDelta(uint256,uint256)": {
        "notice": "Event emitted when block delta for reduce reserves get updated"
      },
      "NewReserveFactor(uint256,uint256)": {
        "notice": "Event emitted when the reserve factor is changed"
      },
      "Redeem(address,uint256,uint256,uint256)": {
        "notice": "Event emitted when tokens are redeemed"
      },
      "RedeemFee(address,uint256,uint256)": {
        "notice": "Event emitted when tokens are redeemed and fee is transferred"
      },
      "RepayBorrow(address,address,uint256,uint256,uint256)": {
        "notice": "Event emitted when a borrow is repaid"
      },
      "ReservesAdded(address,uint256,uint256)": {
        "notice": "Event emitted when the reserves are added"
      },
      "ReservesReduced(address,uint256,uint256)": {
        "notice": "Event emitted when the reserves are reduced"
      },
      "Transfer(address,address,uint256)": {
        "notice": "EIP20 Transfer event"
      }
    },
    "kind": "user",
    "methods": {
      "_acceptAdmin()": {
        "notice": "Accepts transfer of admin rights. msg.sender must be pendingAdmin"
      },
      "_addReserves(uint256)": {
        "notice": "The sender adds to reserves."
      },
      "_becomeImplementation(bytes)": {
        "notice": "Called by the delegator on a delegate to initialize it for duty"
      },
      "_reduceReserves(uint256)": {
        "notice": "Accrues interest and reduces reserves by transferring to protocol share reserve"
      },
      "_resignImplementation()": {
        "notice": "Called by the delegator on a delegate to forfeit its responsibility"
      },
      "_setComptroller(address)": {
        "notice": "Sets a new comptroller for the market"
      },
      "_setInterestRateModel(address)": {
        "notice": "Accrues interest and updates the interest rate model using _setInterestRateModelFresh"
      },
      "_setPendingAdmin(address)": {
        "notice": "Begins transfer of admin rights. The newPendingAdmin must call `_acceptAdmin` to finalize the transfer."
      },
      "_setReserveFactor(uint256)": {
        "notice": "accrues interest and sets a new reserve factor for the protocol using `_setReserveFactorFresh`"
      },
      "accessControlManager()": {
        "notice": "address of accessControlManager"
      },
      "accrualBlockNumber()": {
        "notice": "Block number that interest was last accrued at"
      },
      "accrueInterest()": {
        "notice": "Applies accrued interest to total borrows and reserves"
      },
      "admin()": {
        "notice": "Administrator for this contract"
      },
      "allowance(address,address)": {
        "notice": "Get the current allowance from `owner` for `spender`"
      },
      "approve(address,uint256)": {
        "notice": "Approve `spender` to transfer up to `amount` from `src`"
      },
      "balanceOf(address)": {
        "notice": "Get the token balance of the `owner`"
      },
      "balanceOfUnderlying(address)": {
        "notice": "Get the underlying balance of the `owner`"
      },
      "borrow(uint256)": {
        "notice": "Sender borrows assets from the protocol to their own address"
      },
      "borrowBalanceCurrent(address)": {
        "notice": "Accrue interest to updated borrowIndex and then calculate account's borrow balance using the updated borrowIndex"
      },
      "borrowBalanceStored(address)": {
        "notice": "Return the borrow balance of account based on stored data"
      },
      "borrowBehalf(address,uint256)": {
        "notice": "Sender borrows assets on behalf of some other address. This function is only available   for senders, explicitly marked as delegates of the borrower using `comptroller.updateDelegate`"
      },
      "borrowIndex()": {
        "notice": "Accumulator of the total earned interest rate since the opening of the market"
      },
      "borrowRatePerBlock()": {
        "notice": "Returns the current per-block borrow interest rate for this vToken"
      },
      "comptroller()": {
        "notice": "Contract which oversees inter-vToken operations"
      },
      "constructor": {
        "notice": "Construct an empty delegate"
      },
      "decimals()": {
        "notice": "EIP-20 token decimals for this token"
      },
      "exchangeRateCurrent()": {
        "notice": "Accrue interest then return the up-to-date exchange rate"
      },
      "exchangeRateStored()": {
        "notice": "Calculates the exchange rate from the underlying to the VToken"
      },
      "getAccountSnapshot(address)": {
        "notice": "Get a snapshot of the account's balances, and the cached exchange rate"
      },
      "getCash()": {
        "notice": "Get cash balance of this vToken in the underlying asset"
      },
      "implementation()": {
        "notice": "Implementation address for this contract"
      },
      "initialize(address,address,address,uint256,string,string,uint8)": {
        "notice": "Initialize the new money market"
      },
      "initialize(address,address,uint256,string,string,uint8)": {
        "notice": "Initialize the money market"
      },
      "interestRateModel()": {
        "notice": "Model which tells what the current interest rate should be"
      },
      "isVToken()": {
        "notice": "Indicator that this is a vToken contract (for inspection)"
      },
      "liquidateBorrow(address,uint256,address)": {
        "notice": "The sender liquidates the borrowers collateral.  The collateral seized is transferred to the liquidator."
      },
      "mint(uint256)": {
        "notice": "Sender supplies assets into the market and receives vTokens in exchange"
      },
      "mintBehalf(address,uint256)": {
        "notice": "Sender supplies assets into the market and receiver receives vTokens in exchange"
      },
      "name()": {
        "notice": "EIP-20 token name for this token"
      },
      "pendingAdmin()": {
        "notice": "Pending administrator for this contract"
      },
      "protocolShareReserve()": {
        "notice": "address of protocol share reserve contract"
      },
      "redeem(uint256)": {
        "notice": "Sender redeems vTokens in exchange for the underlying asset"
      },
      "redeemBehalf(address,uint256)": {
        "notice": "Sender redeems assets on behalf of some other address. This function is only available   for senders, explicitly marked as delegates of the supplier using `comptroller.updateDelegate`"
      },
      "redeemUnderlying(uint256)": {
        "notice": "Sender redeems vTokens in exchange for a specified amount of underlying asset"
      },
      "redeemUnderlyingBehalf(address,uint256)": {
        "notice": "Sender redeems underlying assets on behalf of some other address. This function is only available   for senders, explicitly marked as delegates of the supplier using `comptroller.updateDelegate`"
      },
      "reduceReservesBlockDelta()": {
        "notice": "delta block after which reserves will be reduced"
      },
      "reduceReservesBlockNumber()": {
        "notice": "last block number at which reserves were reduced"
      },
      "repayBorrow(uint256)": {
        "notice": "Sender repays their own borrow"
      },
      "repayBorrowBehalf(address,uint256)": {
        "notice": "Sender repays a borrow belonging to another borrowing account"
      },
      "reserveFactorMantissa()": {
        "notice": "Fraction of interest currently set aside for reserves"
      },
      "seize(address,address,uint256)": {
        "notice": "Transfers collateral tokens (this market) to the liquidator."
      },
      "setAccessControlManager(address)": {
        "notice": "Sets the address of the access control manager of this contract"
      },
      "setProtocolShareReserve(address)": {
        "notice": "Sets protocol share reserve contract address"
      },
      "setReduceReservesBlockDelta(uint256)": {
        "notice": "Governance function to set new threshold of block difference after which funds will be sent to the protocol share reserve"
      },
      "supplyRatePerBlock()": {
        "notice": "Returns the current per-block supply interest rate for this vToken"
      },
      "symbol()": {
        "notice": "EIP-20 token symbol for this token"
      },
      "totalBorrows()": {
        "notice": "Total amount of outstanding borrows of the underlying in this market"
      },
      "totalBorrowsCurrent()": {
        "notice": "Returns the current total borrows plus accrued interest"
      },
      "totalReserves()": {
        "notice": "Total amount of reserves of the underlying held in this market"
      },
      "totalSupply()": {
        "notice": "Total number of tokens in circulation"
      },
      "transfer(address,uint256)": {
        "notice": "Transfer `amount` tokens from `msg.sender` to `dst`"
      },
      "transferFrom(address,address,uint256)": {
        "notice": "Transfer `amount` tokens from `src` to `dst`"
      },
      "underlying()": {
        "notice": "Underlying asset for this VToken"
      }
    },
    "notice": "VTokens which wrap an EIP-20 underlying and are delegated to",
    "version": 1
  },
  "storageLayout": {
    "storage": [
      {
        "astId": 46252,
        "contract": "contracts/Tokens/VTokens/VBep20Delegate.sol:VBep20Delegate",
        "label": "_notEntered",
        "offset": 0,
        "slot": "0",
        "type": "t_bool"
      },
      {
        "astId": 46255,
        "contract": "contracts/Tokens/VTokens/VBep20Delegate.sol:VBep20Delegate",
        "label": "name",
        "offset": 0,
        "slot": "1",
        "type": "t_string_storage"
      },
      {
        "astId": 46258,
        "contract": "contracts/Tokens/VTokens/VBep20Delegate.sol:VBep20Delegate",
        "label": "symbol",
        "offset": 0,
        "slot": "2",
        "type": "t_string_storage"
      },
      {
        "astId": 46261,
        "contract": "contracts/Tokens/VTokens/VBep20Delegate.sol:VBep20Delegate",
        "label": "decimals",
        "offset": 0,
        "slot": "3",
        "type": "t_uint8"
      },
      {
        "astId": 46272,
        "contract": "contracts/Tokens/VTokens/VBep20Delegate.sol:VBep20Delegate",
        "label": "admin",
        "offset": 1,
        "slot": "3",
        "type": "t_address_payable"
      },
      {
        "astId": 46275,
        "contract": "contracts/Tokens/VTokens/VBep20Delegate.sol:VBep20Delegate",
        "label": "pendingAdmin",
        "offset": 0,
        "slot": "4",
        "type": "t_address_payable"
      },
      {
        "astId": 46279,
        "contract": "contracts/Tokens/VTokens/VBep20Delegate.sol:VBep20Delegate",
        "label": "comptroller",
        "offset": 0,
        "slot": "5",
        "type": "t_contract(ComptrollerInterface)7183"
      },
      {
        "astId": 46283,
        "contract": "contracts/Tokens/VTokens/VBep20Delegate.sol:VBep20Delegate",
        "label": "interestRateModel",
        "offset": 0,
        "slot": "6",
        "type": "t_contract(InterestRateModelV8)18432"
      },
      {
        "astId": 46286,
        "contract": "contracts/Tokens/VTokens/VBep20Delegate.sol:VBep20Delegate",
        "label": "initialExchangeRateMantissa",
        "offset": 0,
        "slot": "7",
        "type": "t_uint256"
      },
      {
        "astId": 46289,
        "contract": "contracts/Tokens/VTokens/VBep20Delegate.sol:VBep20Delegate",
        "label": "reserveFactorMantissa",
        "offset": 0,
        "slot": "8",
        "type": "t_uint256"
      },
      {
        "astId": 46292,
        "contract": "contracts/Tokens/VTokens/VBep20Delegate.sol:VBep20Delegate",
        "label": "accrualBlockNumber",
        "offset": 0,
        "slot": "9",
        "type": "t_uint256"
      },
      {
        "astId": 46295,
        "contract": "contracts/Tokens/VTokens/VBep20Delegate.sol:VBep20Delegate",
        "label": "borrowIndex",
        "offset": 0,
        "slot": "10",
        "type": "t_uint256"
      },
      {
        "astId": 46298,
        "contract": "contracts/Tokens/VTokens/VBep20Delegate.sol:VBep20Delegate",
        "label": "totalBorrows",
        "offset": 0,
        "slot": "11",
        "type": "t_uint256"
      },
      {
        "astId": 46301,
        "contract": "contracts/Tokens/VTokens/VBep20Delegate.sol:VBep20Delegate",
        "label": "totalReserves",
        "offset": 0,
        "slot": "12",
        "type": "t_uint256"
      },
      {
        "astId": 46304,
        "contract": "contracts/Tokens/VTokens/VBep20Delegate.sol:VBep20Delegate",
        "label": "totalSupply",
        "offset": 0,
        "slot": "13",
        "type": "t_uint256"
      },
      {
        "astId": 46309,
        "contract": "contracts/Tokens/VTokens/VBep20Delegate.sol:VBep20Delegate",
        "label": "accountTokens",
        "offset": 0,
        "slot": "14",
        "type": "t_mapping(t_address,t_uint256)"
      },
      {
        "astId": 46316,
        "contract": "contracts/Tokens/VTokens/VBep20Delegate.sol:VBep20Delegate",
        "label": "transferAllowances",
        "offset": 0,
        "slot": "15",
        "type": "t_mapping(t_address,t_mapping(t_address,t_uint256))"
      },
      {
        "astId": 46322,
        "contract": "contracts/Tokens/VTokens/VBep20Delegate.sol:VBep20Delegate",
        "label": "accountBorrows",
        "offset": 0,
        "slot": "16",
        "type": "t_mapping(t_address,t_struct(BorrowSnapshot)46249_storage)"
      },
      {
        "astId": 46325,
        "contract": "contracts/Tokens/VTokens/VBep20Delegate.sol:VBep20Delegate",
        "label": "underlying",
        "offset": 0,
        "slot": "17",
        "type": "t_address"
      },
      {
        "astId": 46328,
        "contract": "contracts/Tokens/VTokens/VBep20Delegate.sol:VBep20Delegate",
        "label": "implementation",
        "offset": 0,
        "slot": "18",
        "type": "t_address"
      },
      {
        "astId": 46331,
        "contract": "contracts/Tokens/VTokens/VBep20Delegate.sol:VBep20Delegate",
        "label": "reduceReservesBlockDelta",
        "offset": 0,
        "slot": "19",
        "type": "t_uint256"
      },
      {
        "astId": 46334,
        "contract": "contracts/Tokens/VTokens/VBep20Delegate.sol:VBep20Delegate",
        "label": "reduceReservesBlockNumber",
        "offset": 0,
        "slot": "20",
        "type": "t_uint256"
      },
      {
        "astId": 46337,
        "contract": "contracts/Tokens/VTokens/VBep20Delegate.sol:VBep20Delegate",
        "label": "protocolShareReserve",
        "offset": 0,
        "slot": "21",
        "type": "t_address_payable"
      },
      {
        "astId": 46340,
        "contract": "contracts/Tokens/VTokens/VBep20Delegate.sol:VBep20Delegate",
        "label": "accessControlManager",
        "offset": 0,
        "slot": "22",
        "type": "t_address"
      },
      {
        "astId": 46348,
        "contract": "contracts/Tokens/VTokens/VBep20Delegate.sol:VBep20Delegate",
        "label": "__gap",
        "offset": 0,
        "slot": "23",
        "type": "t_array(t_uint256)50_storage"
      }
    ],
    "types": {
      "t_address": {
        "encoding": "inplace",
        "label": "address",
        "numberOfBytes": "20"
      },
      "t_address_payable": {
        "encoding": "inplace",
        "label": "address payable",
        "numberOfBytes": "20"
      },
      "t_array(t_uint256)50_storage": {
        "base": "t_uint256",
        "encoding": "inplace",
        "label": "uint256[50]",
        "numberOfBytes": "1600"
      },
      "t_bool": {
        "encoding": "inplace",
        "label": "bool",
        "numberOfBytes": "1"
      },
      "t_contract(ComptrollerInterface)7183": {
        "encoding": "inplace",
        "label": "contract ComptrollerInterface",
        "numberOfBytes": "20"
      },
      "t_contract(InterestRateModelV8)18432": {
        "encoding": "inplace",
        "label": "contract InterestRateModelV8",
        "numberOfBytes": "20"
      },
      "t_mapping(t_address,t_mapping(t_address,t_uint256))": {
        "encoding": "mapping",
        "key": "t_address",
        "label": "mapping(address => mapping(address => uint256))",
        "numberOfBytes": "32",
        "value": "t_mapping(t_address,t_uint256)"
      },
      "t_mapping(t_address,t_struct(BorrowSnapshot)46249_storage)": {
        "encoding": "mapping",
        "key": "t_address",
        "label": "mapping(address => struct VTokenStorageBase.BorrowSnapshot)",
        "numberOfBytes": "32",
        "value": "t_struct(BorrowSnapshot)46249_storage"
      },
      "t_mapping(t_address,t_uint256)": {
        "encoding": "mapping",
        "key": "t_address",
        "label": "mapping(address => uint256)",
        "numberOfBytes": "32",
        "value": "t_uint256"
      },
      "t_string_storage": {
        "encoding": "bytes",
        "label": "string",
        "numberOfBytes": "32"
      },
      "t_struct(BorrowSnapshot)46249_storage": {
        "encoding": "inplace",
        "label": "struct VTokenStorageBase.BorrowSnapshot",
        "members": [
          {
            "astId": 46246,
            "contract": "contracts/Tokens/VTokens/VBep20Delegate.sol:VBep20Delegate",
            "label": "principal",
            "offset": 0,
            "slot": "0",
            "type": "t_uint256"
          },
          {
            "astId": 46248,
            "contract": "contracts/Tokens/VTokens/VBep20Delegate.sol:VBep20Delegate",
            "label": "interestIndex",
            "offset": 0,
            "slot": "1",
            "type": "t_uint256"
          }
        ],
        "numberOfBytes": "64"
      },
      "t_uint256": {
        "encoding": "inplace",
        "label": "uint256",
        "numberOfBytes": "32"
      },
      "t_uint8": {
        "encoding": "inplace",
        "label": "uint8",
        "numberOfBytes": "1"
      }
    }
  }
}