{
  "address": "0x698B2c7c82B980265ed4B4a7653a5735E93767b4",
  "abi": [
    {
      "inputs": [
        {
          "internalType": "contract VTokenInterface",
          "name": "_vBNB",
          "type": "address"
        },
        {
          "internalType": "contract IWBNB",
          "name": "_WBNB",
          "type": "address"
        }
      ],
      "stateMutability": "nonpayable",
      "type": "constructor"
    },
    {
      "inputs": [
        {
          "internalType": "address",
          "name": "sender",
          "type": "address"
        },
        {
          "internalType": "address",
          "name": "calledContract",
          "type": "address"
        },
        {
          "internalType": "string",
          "name": "methodSignature",
          "type": "string"
        }
      ],
      "name": "Unauthorized",
      "type": "error"
    },
    {
      "anonymous": false,
      "inputs": [
        {
          "indexed": false,
          "internalType": "uint8",
          "name": "version",
          "type": "uint8"
        }
      ],
      "name": "Initialized",
      "type": "event"
    },
    {
      "anonymous": false,
      "inputs": [
        {
          "indexed": false,
          "internalType": "address",
          "name": "oldAccessControlManager",
          "type": "address"
        },
        {
          "indexed": false,
          "internalType": "address",
          "name": "newAccessControlManager",
          "type": "address"
        }
      ],
      "name": "NewAccessControlManager",
      "type": "event"
    },
    {
      "anonymous": false,
      "inputs": [
        {
          "indexed": true,
          "internalType": "address",
          "name": "previousOwner",
          "type": "address"
        },
        {
          "indexed": true,
          "internalType": "address",
          "name": "newOwner",
          "type": "address"
        }
      ],
      "name": "OwnershipTransferStarted",
      "type": "event"
    },
    {
      "anonymous": false,
      "inputs": [
        {
          "indexed": true,
          "internalType": "address",
          "name": "previousOwner",
          "type": "address"
        },
        {
          "indexed": true,
          "internalType": "address",
          "name": "newOwner",
          "type": "address"
        }
      ],
      "name": "OwnershipTransferred",
      "type": "event"
    },
    {
      "anonymous": false,
      "inputs": [
        {
          "indexed": true,
          "internalType": "contract IProtocolShareReserve",
          "name": "oldProtocolShareReserve",
          "type": "address"
        },
        {
          "indexed": true,
          "internalType": "contract IProtocolShareReserve",
          "name": "newProtocolShareReserve",
          "type": "address"
        }
      ],
      "name": "ProtocolShareReserveUpdated",
      "type": "event"
    },
    {
      "anonymous": false,
      "inputs": [
        {
          "indexed": false,
          "internalType": "uint256",
          "name": "reduceAmount",
          "type": "uint256"
        }
      ],
      "name": "ReservesReduced",
      "type": "event"
    },
    {
      "stateMutability": "payable",
      "type": "fallback"
    },
    {
      "inputs": [],
      "name": "WBNB",
      "outputs": [
        {
          "internalType": "contract IWBNB",
          "name": "",
          "type": "address"
        }
      ],
      "stateMutability": "view",
      "type": "function"
    },
    {
      "inputs": [],
      "name": "acceptOwnership",
      "outputs": [],
      "stateMutability": "nonpayable",
      "type": "function"
    },
    {
      "inputs": [],
      "name": "accessControlManager",
      "outputs": [
        {
          "internalType": "contract IAccessControlManagerV8",
          "name": "",
          "type": "address"
        }
      ],
      "stateMutability": "view",
      "type": "function"
    },
    {
      "inputs": [
        {
          "internalType": "contract IProtocolShareReserve",
          "name": "_protocolShareReserve",
          "type": "address"
        },
        {
          "internalType": "address",
          "name": "accessControlManager",
          "type": "address"
        }
      ],
      "name": "initialize",
      "outputs": [],
      "stateMutability": "nonpayable",
      "type": "function"
    },
    {
      "inputs": [],
      "name": "owner",
      "outputs": [
        {
          "internalType": "address",
          "name": "",
          "type": "address"
        }
      ],
      "stateMutability": "view",
      "type": "function"
    },
    {
      "inputs": [],
      "name": "pendingOwner",
      "outputs": [
        {
          "internalType": "address",
          "name": "",
          "type": "address"
        }
      ],
      "stateMutability": "view",
      "type": "function"
    },
    {
      "inputs": [],
      "name": "protocolShareReserve",
      "outputs": [
        {
          "internalType": "contract IProtocolShareReserve",
          "name": "",
          "type": "address"
        }
      ],
      "stateMutability": "view",
      "type": "function"
    },
    {
      "inputs": [
        {
          "internalType": "uint256",
          "name": "reduceAmount",
          "type": "uint256"
        }
      ],
      "name": "reduceReserves",
      "outputs": [],
      "stateMutability": "nonpayable",
      "type": "function"
    },
    {
      "inputs": [],
      "name": "renounceOwnership",
      "outputs": [],
      "stateMutability": "nonpayable",
      "type": "function"
    },
    {
      "inputs": [
        {
          "internalType": "address",
          "name": "accessControlManager_",
          "type": "address"
        }
      ],
      "name": "setAccessControlManager",
      "outputs": [],
      "stateMutability": "nonpayable",
      "type": "function"
    },
    {
      "inputs": [
        {
          "internalType": "contract IProtocolShareReserve",
          "name": "protocolShareReserve_",
          "type": "address"
        }
      ],
      "name": "setProtocolShareReserve",
      "outputs": [],
      "stateMutability": "nonpayable",
      "type": "function"
    },
    {
      "inputs": [
        {
          "internalType": "address",
          "name": "newOwner",
          "type": "address"
        }
      ],
      "name": "transferOwnership",
      "outputs": [],
      "stateMutability": "nonpayable",
      "type": "function"
    },
    {
      "inputs": [],
      "name": "vBNB",
      "outputs": [
        {
          "internalType": "contract VTokenInterface",
          "name": "",
          "type": "address"
        }
      ],
      "stateMutability": "view",
      "type": "function"
    },
    {
      "stateMutability": "payable",
      "type": "receive"
    }
  ],
  "transactionHash": "0xa639c1fb64a21bbcfa0834f9200538948cf85bda9428e284234bd701d0d0aace",
  "args": [
    "0x2E7222e51c0f6e98610A1543Aa3836E092CDe62c",
    "0xae13d989daC2f0dEbFf460aC112a837C89BAa7cd"
  ],
  "numDeployments": 1,
  "solcInputHash": "9c6b851a5034b2ff812c942adcca86e5",
  "bytecode": "0x60c06040523480156200001157600080fd5b506040516200152c3803806200152c8339810160408190526200003491620001e4565b6001600160a01b038116620000905760405162461bcd60e51b815260206004820152601460248201527f57424e42206164647265737320696e76616c696400000000000000000000000060448201526064015b60405180910390fd5b6001600160a01b038216620000e85760405162461bcd60e51b815260206004820152601460248201527f76424e42206164647265737320696e76616c6964000000000000000000000000604482015260640162000087565b6001600160a01b03808316608052811660a052620001056200010d565b505062000223565b600054610100900460ff1615620001775760405162461bcd60e51b815260206004820152602760248201527f496e697469616c697a61626c653a20636f6e747261637420697320696e697469604482015266616c697a696e6760c81b606482015260840162000087565b60005460ff90811614620001c9576000805460ff191660ff9081179091556040519081527f7f26b83ff96e1f2b6a682f133852f6798a09c465da95921460cefb38474024989060200160405180910390a15b565b6001600160a01b0381168114620001e157600080fd5b50565b60008060408385031215620001f857600080fd5b82516200020581620001cb565b60208401519092506200021881620001cb565b809150509250929050565b60805160a0516112ac620002806000396000818161035e01528181610550015281816105d7015281816106aa0152610aff01526000818160d60152818161016c015281816102a601528181610476015261062601526112ac6000f3fe6080604052600436106100c65760003560e01c806379ba50971161007f578063b4a0bdf311610059578063b4a0bdf314610380578063e30c39781461039e578063e9a44fd9146103bc578063f2fde38b146103dc5761015a565b806379ba5097146103195780638da5cb5b1461032e5780638dd950021461034c5761015a565b806307e27959146102345780630e32cb8614610254578063107568df1461027457806333e1567f14610294578063485cc955146102e4578063715018a6146103045761015a565b3661015a57336001600160a01b037f000000000000000000000000000000000000000000000000000000000000000016146101585760405162461bcd60e51b815260206004820152602760248201527f6f6e6c792076424e422063616e2073656e6420424e4220746f207468697320636044820152661bdb9d1c9858dd60ca1b60648201526084015b60405180910390fd5b005b60003660606101676103fc565b6000807f00000000000000000000000000000000000000000000000000000000000000006001600160a01b03163486866040516101a5929190611075565b60006040518083038185875af1925050503d80600081146101e2576040519150601f19603f3d011682016040523d82523d6000602084013e6101e7565b606091505b5091509150816102275760405162461bcd60e51b815260206004820152600b60248201526a18d85b1b0819985a5b195960aa1b604482015260640161014f565b8051945060200192505050f35b34801561024057600080fd5b5061015861024f366004611085565b610458565b34801561026057600080fd5b5061015861026f3660046110b3565b610761565b34801561028057600080fd5b5061015861028f3660046110b3565b610772565b3480156102a057600080fd5b506102c87f000000000000000000000000000000000000000000000000000000000000000081565b6040516001600160a01b03909116815260200160405180910390f35b3480156102f057600080fd5b506101586102ff3660046110d7565b610822565b34801561031057600080fd5b506101586109a5565b34801561032557600080fd5b506101586109b7565b34801561033a57600080fd5b506065546001600160a01b03166102c8565b34801561035857600080fd5b506102c87f000000000000000000000000000000000000000000000000000000000000000081565b34801561038c57600080fd5b5060c9546001600160a01b03166102c8565b3480156103aa57600080fd5b506097546001600160a01b03166102c8565b3480156103c857600080fd5b5060fb546102c8906001600160a01b031681565b3480156103e857600080fd5b506101586103f73660046110b3565b610a2e565b6065546001600160a01b031633146104565760405162461bcd60e51b815260206004820181905260248201527f4f776e61626c653a2063616c6c6572206973206e6f7420746865206f776e6572604482015260640161014f565b565b610460610a9f565b60405163601a0bf160e01b8152600481018290527f00000000000000000000000000000000000000000000000000000000000000006001600160a01b03169063601a0bf1906024016020604051808303816000875af11580156104c7573d6000803e3d6000fd5b505050506040513d601f19601f820116820180604052508101906104eb9190611110565b156105305760405162461bcd60e51b81526020600482015260156024820152741c99591d58d954995cd95c9d995cc819985a5b1959605a1b604482015260640161014f565b610538610af8565b6040516370a0823160e01b81523060048201526000907f00000000000000000000000000000000000000000000000000000000000000006001600160a01b0316906370a0823190602401602060405180830381865afa15801561059f573d6000803e3d6000fd5b505050506040513d601f19601f820116820180604052508101906105c39190611110565b60fb54909150610600906001600160a01b037f00000000000000000000000000000000000000000000000000000000000000008116911683610b74565b60fb60009054906101000a90046001600160a01b03166001600160a01b03166316faecec7f00000000000000000000000000000000000000000000000000000000000000006001600160a01b0316635fe3b5676040518163ffffffff1660e01b81526004016020604051808303816000875af1158015610684573d6000803e3d6000fd5b505050506040513d601f19601f820116820180604052508101906106a89190611129565b7f000000000000000000000000000000000000000000000000000000000000000060006040518463ffffffff1660e01b81526004016106e993929190611146565b600060405180830381600087803b15801561070357600080fd5b505af1158015610717573d6000803e3d6000fd5b505050507f5613a0582c3342b7f79f0fb769c4fc616285893163837fa2891a118ee024b0d68260405161074c91815260200190565b60405180910390a15061075e60018055565b50565b6107696103fc565b61075e81610bcc565b61077a6103fc565b6001600160a01b0381166107c65760405162461bcd60e51b81526020600482015260136024820152721414d4881859191c995cdcc81a5b9d985b1a59606a1b604482015260640161014f565b60fb546040516001600160a01b038084169216907f67bd76c153f3af98b05bd613863bf4115f6c5fd2628d2bf2b498259cfc169e2790600090a360fb80546001600160a01b0319166001600160a01b0392909216919091179055565b600054610100900460ff16158080156108425750600054600160ff909116105b8061085c5750303b15801561085c575060005460ff166001145b6108bf5760405162461bcd60e51b815260206004820152602e60248201527f496e697469616c697a61626c653a20636f6e747261637420697320616c72656160448201526d191e481a5b9a5d1a585b1a5e995960921b606482015260840161014f565b6000805460ff1916600117905580156108e2576000805461ff0019166101001790555b6001600160a01b03831661092e5760405162461bcd60e51b81526020600482015260136024820152721414d4881859191c995cdcc81a5b9d985b1a59606a1b604482015260640161014f565b60fb80546001600160a01b0319166001600160a01b038516179055610951610c91565b61095a82610cc0565b80156109a0576000805461ff0019169055604051600181527f7f26b83ff96e1f2b6a682f133852f6798a09c465da95921460cefb38474024989060200160405180910390a15b505050565b6109ad6103fc565b6104566000610cf8565b60975433906001600160a01b03168114610a255760405162461bcd60e51b815260206004820152602960248201527f4f776e61626c6532537465703a2063616c6c6572206973206e6f7420746865206044820152683732bb9037bbb732b960b91b606482015260840161014f565b61075e81610cf8565b610a366103fc565b609780546001600160a01b0383166001600160a01b03199091168117909155610a676065546001600160a01b031690565b6001600160a01b03167f38d16b8cac22d99fc7c124b9cd0de2d3fa1faef420bfe791d8c362d765e2270060405160405180910390a350565b600260015403610af15760405162461bcd60e51b815260206004820152601f60248201527f5265656e7472616e637947756172643a207265656e7472616e742063616c6c00604482015260640161014f565b6002600155565b60004790507f00000000000000000000000000000000000000000000000000000000000000006001600160a01b031663d0e30db0826040518263ffffffff1660e01b81526004016000604051808303818588803b158015610b5857600080fd5b505af1158015610b6c573d6000803e3d6000fd5b505050505050565b604080516001600160a01b038416602482015260448082018490528251808303909101815260649091019091526020810180516001600160e01b031663a9059cbb60e01b1790526109a0908490610d11565b60018055565b6001600160a01b038116610c305760405162461bcd60e51b815260206004820152602560248201527f696e76616c696420616365737320636f6e74726f6c206d616e61676572206164604482015264647265737360d81b606482015260840161014f565b60c980546001600160a01b038381166001600160a01b031983168117909355604080519190921680825260208201939093527f66fd58e82f7b31a2a5c30e0888f3093efe4e111b00cd2b0c31fe014601293aa0910160405180910390a15050565b600054610100900460ff16610cb85760405162461bcd60e51b815260040161014f9061118a565b610456610de6565b600054610100900460ff16610ce75760405162461bcd60e51b815260040161014f9061118a565b610cef610e0d565b61075e81610e3c565b609780546001600160a01b031916905561075e81610e63565b6000610d66826040518060400160405280602081526020017f5361666545524332303a206c6f772d6c6576656c2063616c6c206661696c6564815250856001600160a01b0316610eb59092919063ffffffff16565b9050805160001480610d87575080806020019051810190610d8791906111d5565b6109a05760405162461bcd60e51b815260206004820152602a60248201527f5361666545524332303a204552433230206f7065726174696f6e20646964206e6044820152691bdd081cdd58d8d9595960b21b606482015260840161014f565b600054610100900460ff16610bc65760405162461bcd60e51b815260040161014f9061118a565b600054610100900460ff16610e345760405162461bcd60e51b815260040161014f9061118a565b610456610ecc565b600054610100900460ff166107695760405162461bcd60e51b815260040161014f9061118a565b606580546001600160a01b038381166001600160a01b0319831681179093556040519116919082907f8be0079c531659141344cd1fd0a4f28419497f9722a3daafe3b4186f6b6457e090600090a35050565b6060610ec48484600085610efc565b949350505050565b600054610100900460ff16610ef35760405162461bcd60e51b815260040161014f9061118a565b61045633610cf8565b606082471015610f5d5760405162461bcd60e51b815260206004820152602660248201527f416464726573733a20696e73756666696369656e742062616c616e636520666f6044820152651c8818d85b1b60d21b606482015260840161014f565b600080866001600160a01b03168587604051610f799190611227565b60006040518083038185875af1925050503d8060008114610fb6576040519150601f19603f3d011682016040523d82523d6000602084013e610fbb565b606091505b5091509150610fcc87838387610fd7565b979650505050505050565b6060831561104657825160000361103f576001600160a01b0385163b61103f5760405162461bcd60e51b815260206004820152601d60248201527f416464726573733a2063616c6c20746f206e6f6e2d636f6e7472616374000000604482015260640161014f565b5081610ec4565b610ec4838381511561105b5781518083602001fd5b8060405162461bcd60e51b815260040161014f9190611243565b8183823760009101908152919050565b60006020828403121561109757600080fd5b5035919050565b6001600160a01b038116811461075e57600080fd5b6000602082840312156110c557600080fd5b81356110d08161109e565b9392505050565b600080604083850312156110ea57600080fd5b82356110f58161109e565b915060208301356111058161109e565b809150509250929050565b60006020828403121561112257600080fd5b5051919050565b60006020828403121561113b57600080fd5b81516110d08161109e565b6001600160a01b03848116825283166020820152606081016002831061117c57634e487b7160e01b600052602160045260246000fd5b826040830152949350505050565b6020808252602b908201527f496e697469616c697a61626c653a20636f6e7472616374206973206e6f74206960408201526a6e697469616c697a696e6760a81b606082015260800190565b6000602082840312156111e757600080fd5b815180151581146110d057600080fd5b60005b838110156112125781810151838201526020016111fa565b83811115611221576000848401525b50505050565b600082516112398184602087016111f7565b9190910192915050565b60208152600082518060208401526112628160408501602087016111f7565b601f01601f1916919091016040019291505056fea2646970667358221220d221281eae8d1340bcba685e6151bc3cb01bba09ff6e580b682a236f2126eef864736f6c634300080d0033",
  "devdoc": {
    "kind": "dev",
    "methods": {
      "acceptOwnership()": {
        "details": "The new owner accepts the ownership transfer."
      },
      "constructor": {
        "custom:oz-upgrades-unsafe-allow": "constructor"
      },
      "owner()": {
        "details": "Returns the address of the current owner."
      },
      "pendingOwner()": {
        "details": "Returns the address of the pending owner."
      },
      "reduceReserves(uint256)": {
        "params": {
          "reduceAmount": "amount of reserves to reduce"
        }
      },
      "renounceOwnership()": {
        "details": "Leaves the contract without owner. It will not be possible to call `onlyOwner` functions. Can only be called by the current owner. NOTE: Renouncing ownership will leave the contract without an owner, thereby disabling any functionality that is only available to the owner."
      },
      "setAccessControlManager(address)": {
        "custom:access": "Only Governance",
        "custom:event": "Emits NewAccessControlManager event",
        "details": "Admin function to set address of AccessControlManager",
        "params": {
          "accessControlManager_": "The new address of the AccessControlManager"
        }
      },
      "setProtocolShareReserve(address)": {
        "details": "PSR setter.",
        "params": {
          "protocolShareReserve_": "Address of the PSR contract"
        }
      },
      "transferOwnership(address)": {
        "details": "Starts the ownership transfer of the contract to a new account. Replaces the pending transfer if there is one. Can only be called by the current owner."
      }
    },
    "stateVariables": {
      "WBNB": {
        "custom:oz-upgrades-unsafe-allow": "state-variable-immutable"
      },
      "vBNB": {
        "custom:oz-upgrades-unsafe-allow": "state-variable-immutable"
      }
    },
    "version": 1
  },
  "userdoc": {
    "errors": {
      "Unauthorized(address,address,string)": [
        {
          "notice": "Thrown when the action is prohibited by AccessControlManager"
        }
      ]
    },
    "events": {
      "NewAccessControlManager(address,address)": {
        "notice": "Emitted when access control manager contract address is changed"
      },
      "ProtocolShareReserveUpdated(address,address)": {
        "notice": "Emitted when PSR is updated"
      },
      "ReservesReduced(uint256)": {
        "notice": "Emitted reserves are reduced"
      }
    },
    "kind": "user",
    "methods": {
      "WBNB()": {
        "notice": "address of WBNB contract"
      },
      "accessControlManager()": {
        "notice": "Returns the address of the access control manager contract"
      },
      "protocolShareReserve()": {
        "notice": "address of protocol share reserve contract"
      },
      "reduceReserves(uint256)": {
        "notice": "Reduce reserves of vBNB"
      },
      "setAccessControlManager(address)": {
        "notice": "Sets the address of AccessControlManager"
      },
      "vBNB()": {
        "notice": "address of vBNB"
      }
    },
    "version": 1
  },
  "storageLayout": {
    "storage": [
      {
        "astId": 244,
        "contract": "contracts/Admin/VBNBAdmin.sol:VBNBAdmin",
        "label": "_initialized",
        "offset": 0,
        "slot": "0",
        "type": "t_uint8"
      },
      {
        "astId": 247,
        "contract": "contracts/Admin/VBNBAdmin.sol:VBNBAdmin",
        "label": "_initializing",
        "offset": 1,
        "slot": "0",
        "type": "t_bool"
      },
      {
        "astId": 420,
        "contract": "contracts/Admin/VBNBAdmin.sol:VBNBAdmin",
        "label": "_status",
        "offset": 0,
        "slot": "1",
        "type": "t_uint256"
      },
      {
        "astId": 489,
        "contract": "contracts/Admin/VBNBAdmin.sol:VBNBAdmin",
        "label": "__gap",
        "offset": 0,
        "slot": "2",
        "type": "t_array(t_uint256)49_storage"
      },
      {
        "astId": 1351,
        "contract": "contracts/Admin/VBNBAdmin.sol:VBNBAdmin",
        "label": "__gap",
        "offset": 0,
        "slot": "51",
        "type": "t_array(t_uint256)50_storage"
      },
      {
        "astId": 116,
        "contract": "contracts/Admin/VBNBAdmin.sol:VBNBAdmin",
        "label": "_owner",
        "offset": 0,
        "slot": "101",
        "type": "t_address"
      },
      {
        "astId": 236,
        "contract": "contracts/Admin/VBNBAdmin.sol:VBNBAdmin",
        "label": "__gap",
        "offset": 0,
        "slot": "102",
        "type": "t_array(t_uint256)49_storage"
      },
      {
        "astId": 25,
        "contract": "contracts/Admin/VBNBAdmin.sol:VBNBAdmin",
        "label": "_pendingOwner",
        "offset": 0,
        "slot": "151",
        "type": "t_address"
      },
      {
        "astId": 104,
        "contract": "contracts/Admin/VBNBAdmin.sol:VBNBAdmin",
        "label": "__gap",
        "offset": 0,
        "slot": "152",
        "type": "t_array(t_uint256)49_storage"
      },
      {
        "astId": 1439,
        "contract": "contracts/Admin/VBNBAdmin.sol:VBNBAdmin",
        "label": "_accessControlManager",
        "offset": 0,
        "slot": "201",
        "type": "t_contract(IAccessControlManagerV8)1623"
      },
      {
        "astId": 1444,
        "contract": "contracts/Admin/VBNBAdmin.sol:VBNBAdmin",
        "label": "__gap",
        "offset": 0,
        "slot": "202",
        "type": "t_array(t_uint256)49_storage"
      },
      {
        "astId": 1951,
        "contract": "contracts/Admin/VBNBAdmin.sol:VBNBAdmin",
        "label": "protocolShareReserve",
        "offset": 0,
        "slot": "251",
        "type": "t_contract(IProtocolShareReserve)1947"
      },
      {
        "astId": 1956,
        "contract": "contracts/Admin/VBNBAdmin.sol:VBNBAdmin",
        "label": "__gap",
        "offset": 0,
        "slot": "252",
        "type": "t_array(t_uint256)49_storage"
      }
    ],
    "types": {
      "t_address": {
        "encoding": "inplace",
        "label": "address",
        "numberOfBytes": "20"
      },
      "t_array(t_uint256)49_storage": {
        "base": "t_uint256",
        "encoding": "inplace",
        "label": "uint256[49]",
        "numberOfBytes": "1568"
      },
      "t_array(t_uint256)50_storage": {
        "base": "t_uint256",
        "encoding": "inplace",
        "label": "uint256[50]",
        "numberOfBytes": "1600"
      },
      "t_bool": {
        "encoding": "inplace",
        "label": "bool",
        "numberOfBytes": "1"
      },
      "t_contract(IAccessControlManagerV8)1623": {
        "encoding": "inplace",
        "label": "contract IAccessControlManagerV8",
        "numberOfBytes": "20"
      },
      "t_contract(IProtocolShareReserve)1947": {
        "encoding": "inplace",
        "label": "contract IProtocolShareReserve",
        "numberOfBytes": "20"
      },
      "t_uint256": {
        "encoding": "inplace",
        "label": "uint256",
        "numberOfBytes": "32"
      },
      "t_uint8": {
        "encoding": "inplace",
        "label": "uint8",
        "numberOfBytes": "1"
      }
    }
  }
}