{
  "address": "0x9f2c53e715e9F0d1625974fBd9Afc139D4795082",
  "abi": [
    {
      "constant": true,
      "inputs": [],
      "name": "BLOCKS_PER_DAY",
      "outputs": [
        {
          "internalType": "uint256",
          "name": "",
          "type": "uint256"
        }
      ],
      "payable": false,
      "stateMutability": "view",
      "type": "function"
    },
    {
      "constant": true,
      "inputs": [
        {
          "internalType": "contract ComptrollerInterface",
          "name": "comptroller",
          "type": "address"
        },
        {
          "internalType": "address",
          "name": "account",
          "type": "address"
        }
      ],
      "name": "getAccountLimits",
      "outputs": [
        {
          "components": [
            {
              "internalType": "contract VToken[]",
              "name": "markets",
              "type": "address[]"
            },
            {
              "internalType": "uint256",
              "name": "liquidity",
              "type": "uint256"
            },
            {
              "internalType": "uint256",
              "name": "shortfall",
              "type": "uint256"
            }
          ],
          "internalType": "struct VenusLens.AccountLimits",
          "name": "",
          "type": "tuple"
        }
      ],
      "payable": false,
      "stateMutability": "view",
      "type": "function"
    },
    {
      "constant": false,
      "inputs": [
        {
          "internalType": "address payable",
          "name": "account",
          "type": "address"
        },
        {
          "internalType": "address",
          "name": "comptrollerAddress",
          "type": "address"
        }
      ],
      "name": "getDailyXVS",
      "outputs": [
        {
          "internalType": "uint256",
          "name": "",
          "type": "uint256"
        }
      ],
      "payable": false,
      "stateMutability": "nonpayable",
      "type": "function"
    },
    {
      "constant": true,
      "inputs": [
        {
          "internalType": "contract XVS",
          "name": "xvs",
          "type": "address"
        },
        {
          "internalType": "address",
          "name": "account",
          "type": "address"
        },
        {
          "internalType": "uint32[]",
          "name": "blockNumbers",
          "type": "uint32[]"
        }
      ],
      "name": "getVenusVotes",
      "outputs": [
        {
          "components": [
            {
              "internalType": "uint256",
              "name": "blockNumber",
              "type": "uint256"
            },
            {
              "internalType": "uint256",
              "name": "votes",
              "type": "uint256"
            }
          ],
          "internalType": "struct VenusLens.VenusVotes[]",
          "name": "",
          "type": "tuple[]"
        }
      ],
      "payable": false,
      "stateMutability": "view",
      "type": "function"
    },
    {
      "constant": true,
      "inputs": [
        {
          "internalType": "contract XVS",
          "name": "xvs",
          "type": "address"
        },
        {
          "internalType": "address",
          "name": "account",
          "type": "address"
        }
      ],
      "name": "getXVSBalanceMetadata",
      "outputs": [
        {
          "components": [
            {
              "internalType": "uint256",
              "name": "balance",
              "type": "uint256"
            },
            {
              "internalType": "uint256",
              "name": "votes",
              "type": "uint256"
            },
            {
              "internalType": "address",
              "name": "delegate",
              "type": "address"
            }
          ],
          "internalType": "struct VenusLens.XVSBalanceMetadata",
          "name": "",
          "type": "tuple"
        }
      ],
      "payable": false,
      "stateMutability": "view",
      "type": "function"
    },
    {
      "constant": false,
      "inputs": [
        {
          "internalType": "contract XVS",
          "name": "xvs",
          "type": "address"
        },
        {
          "internalType": "contract ComptrollerInterface",
          "name": "comptroller",
          "type": "address"
        },
        {
          "internalType": "address",
          "name": "account",
          "type": "address"
        }
      ],
      "name": "getXVSBalanceMetadataExt",
      "outputs": [
        {
          "components": [
            {
              "internalType": "uint256",
              "name": "balance",
              "type": "uint256"
            },
            {
              "internalType": "uint256",
              "name": "votes",
              "type": "uint256"
            },
            {
              "internalType": "address",
              "name": "delegate",
              "type": "address"
            },
            {
              "internalType": "uint256",
              "name": "allocated",
              "type": "uint256"
            }
          ],
          "internalType": "struct VenusLens.XVSBalanceMetadataExt",
          "name": "",
          "type": "tuple"
        }
      ],
      "payable": false,
      "stateMutability": "nonpayable",
      "type": "function"
    },
    {
      "constant": true,
      "inputs": [
        {
          "internalType": "address",
          "name": "holder",
          "type": "address"
        },
        {
          "internalType": "contract ComptrollerInterface",
          "name": "comptroller",
          "type": "address"
        }
      ],
      "name": "pendingRewards",
      "outputs": [
        {
          "components": [
            {
              "internalType": "address",
              "name": "distributorAddress",
              "type": "address"
            },
            {
              "internalType": "address",
              "name": "rewardTokenAddress",
              "type": "address"
            },
            {
              "internalType": "uint256",
              "name": "totalRewards",
              "type": "uint256"
            },
            {
              "components": [
                {
                  "internalType": "address",
                  "name": "vTokenAddress",
                  "type": "address"
                },
                {
                  "internalType": "uint256",
                  "name": "amount",
                  "type": "uint256"
                }
              ],
              "internalType": "struct VenusLens.PendingReward[]",
              "name": "pendingRewards",
              "type": "tuple[]"
            }
          ],
          "internalType": "struct VenusLens.RewardSummary",
          "name": "",
          "type": "tuple"
        }
      ],
      "payable": false,
      "stateMutability": "view",
      "type": "function"
    },
    {
      "constant": false,
      "inputs": [
        {
          "internalType": "contract VToken",
          "name": "vToken",
          "type": "address"
        },
        {
          "internalType": "address payable",
          "name": "account",
          "type": "address"
        }
      ],
      "name": "vTokenBalances",
      "outputs": [
        {
          "components": [
            {
              "internalType": "address",
              "name": "vToken",
              "type": "address"
            },
            {
              "internalType": "uint256",
              "name": "balanceOf",
              "type": "uint256"
            },
            {
              "internalType": "uint256",
              "name": "borrowBalanceCurrent",
              "type": "uint256"
            },
            {
              "internalType": "uint256",
              "name": "balanceOfUnderlying",
              "type": "uint256"
            },
            {
              "internalType": "uint256",
              "name": "tokenBalance",
              "type": "uint256"
            },
            {
              "internalType": "uint256",
              "name": "tokenAllowance",
              "type": "uint256"
            }
          ],
          "internalType": "struct VenusLens.VTokenBalances",
          "name": "",
          "type": "tuple"
        }
      ],
      "payable": false,
      "stateMutability": "nonpayable",
      "type": "function"
    },
    {
      "constant": false,
      "inputs": [
        {
          "internalType": "contract VToken[]",
          "name": "vTokens",
          "type": "address[]"
        },
        {
          "internalType": "address payable",
          "name": "account",
          "type": "address"
        }
      ],
      "name": "vTokenBalancesAll",
      "outputs": [
        {
          "components": [
            {
              "internalType": "address",
              "name": "vToken",
              "type": "address"
            },
            {
              "internalType": "uint256",
              "name": "balanceOf",
              "type": "uint256"
            },
            {
              "internalType": "uint256",
              "name": "borrowBalanceCurrent",
              "type": "uint256"
            },
            {
              "internalType": "uint256",
              "name": "balanceOfUnderlying",
              "type": "uint256"
            },
            {
              "internalType": "uint256",
              "name": "tokenBalance",
              "type": "uint256"
            },
            {
              "internalType": "uint256",
              "name": "tokenAllowance",
              "type": "uint256"
            }
          ],
          "internalType": "struct VenusLens.VTokenBalances[]",
          "name": "",
          "type": "tuple[]"
        }
      ],
      "payable": false,
      "stateMutability": "nonpayable",
      "type": "function"
    },
    {
      "constant": false,
      "inputs": [
        {
          "internalType": "contract VToken",
          "name": "vToken",
          "type": "address"
        }
      ],
      "name": "vTokenMetadata",
      "outputs": [
        {
          "components": [
            {
              "internalType": "address",
              "name": "vToken",
              "type": "address"
            },
            {
              "internalType": "uint256",
              "name": "exchangeRateCurrent",
              "type": "uint256"
            },
            {
              "internalType": "uint256",
              "name": "supplyRatePerBlock",
              "type": "uint256"
            },
            {
              "internalType": "uint256",
              "name": "borrowRatePerBlock",
              "type": "uint256"
            },
            {
              "internalType": "uint256",
              "name": "reserveFactorMantissa",
              "type": "uint256"
            },
            {
              "internalType": "uint256",
              "name": "totalBorrows",
              "type": "uint256"
            },
            {
              "internalType": "uint256",
              "name": "totalReserves",
              "type": "uint256"
            },
            {
              "internalType": "uint256",
              "name": "totalSupply",
              "type": "uint256"
            },
            {
              "internalType": "uint256",
              "name": "totalCash",
              "type": "uint256"
            },
            {
              "internalType": "bool",
              "name": "isListed",
              "type": "bool"
            },
            {
              "internalType": "uint256",
              "name": "collateralFactorMantissa",
              "type": "uint256"
            },
            {
              "internalType": "address",
              "name": "underlyingAssetAddress",
              "type": "address"
            },
            {
              "internalType": "uint256",
              "name": "vTokenDecimals",
              "type": "uint256"
            },
            {
              "internalType": "uint256",
              "name": "underlyingDecimals",
              "type": "uint256"
            },
            {
              "internalType": "uint256",
              "name": "venusSupplySpeed",
              "type": "uint256"
            },
            {
              "internalType": "uint256",
              "name": "venusBorrowSpeed",
              "type": "uint256"
            },
            {
              "internalType": "uint256",
              "name": "dailySupplyXvs",
              "type": "uint256"
            },
            {
              "internalType": "uint256",
              "name": "dailyBorrowXvs",
              "type": "uint256"
            }
          ],
          "internalType": "struct VenusLens.VTokenMetadata",
          "name": "",
          "type": "tuple"
        }
      ],
      "payable": false,
      "stateMutability": "nonpayable",
      "type": "function"
    },
    {
      "constant": false,
      "inputs": [
        {
          "internalType": "contract VToken[]",
          "name": "vTokens",
          "type": "address[]"
        }
      ],
      "name": "vTokenMetadataAll",
      "outputs": [
        {
          "components": [
            {
              "internalType": "address",
              "name": "vToken",
              "type": "address"
            },
            {
              "internalType": "uint256",
              "name": "exchangeRateCurrent",
              "type": "uint256"
            },
            {
              "internalType": "uint256",
              "name": "supplyRatePerBlock",
              "type": "uint256"
            },
            {
              "internalType": "uint256",
              "name": "borrowRatePerBlock",
              "type": "uint256"
            },
            {
              "internalType": "uint256",
              "name": "reserveFactorMantissa",
              "type": "uint256"
            },
            {
              "internalType": "uint256",
              "name": "totalBorrows",
              "type": "uint256"
            },
            {
              "internalType": "uint256",
              "name": "totalReserves",
              "type": "uint256"
            },
            {
              "internalType": "uint256",
              "name": "totalSupply",
              "type": "uint256"
            },
            {
              "internalType": "uint256",
              "name": "totalCash",
              "type": "uint256"
            },
            {
              "internalType": "bool",
              "name": "isListed",
              "type": "bool"
            },
            {
              "internalType": "uint256",
              "name": "collateralFactorMantissa",
              "type": "uint256"
            },
            {
              "internalType": "address",
              "name": "underlyingAssetAddress",
              "type": "address"
            },
            {
              "internalType": "uint256",
              "name": "vTokenDecimals",
              "type": "uint256"
            },
            {
              "internalType": "uint256",
              "name": "underlyingDecimals",
              "type": "uint256"
            },
            {
              "internalType": "uint256",
              "name": "venusSupplySpeed",
              "type": "uint256"
            },
            {
              "internalType": "uint256",
              "name": "venusBorrowSpeed",
              "type": "uint256"
            },
            {
              "internalType": "uint256",
              "name": "dailySupplyXvs",
              "type": "uint256"
            },
            {
              "internalType": "uint256",
              "name": "dailyBorrowXvs",
              "type": "uint256"
            }
          ],
          "internalType": "struct VenusLens.VTokenMetadata[]",
          "name": "",
          "type": "tuple[]"
        }
      ],
      "payable": false,
      "stateMutability": "nonpayable",
      "type": "function"
    },
    {
      "constant": true,
      "inputs": [
        {
          "internalType": "contract VToken",
          "name": "vToken",
          "type": "address"
        }
      ],
      "name": "vTokenUnderlyingPrice",
      "outputs": [
        {
          "components": [
            {
              "internalType": "address",
              "name": "vToken",
              "type": "address"
            },
            {
              "internalType": "uint256",
              "name": "underlyingPrice",
              "type": "uint256"
            }
          ],
          "internalType": "struct VenusLens.VTokenUnderlyingPrice",
          "name": "",
          "type": "tuple"
        }
      ],
      "payable": false,
      "stateMutability": "view",
      "type": "function"
    },
    {
      "constant": true,
      "inputs": [
        {
          "internalType": "contract VToken[]",
          "name": "vTokens",
          "type": "address[]"
        }
      ],
      "name": "vTokenUnderlyingPriceAll",
      "outputs": [
        {
          "components": [
            {
              "internalType": "address",
              "name": "vToken",
              "type": "address"
            },
            {
              "internalType": "uint256",
              "name": "underlyingPrice",
              "type": "uint256"
            }
          ],
          "internalType": "struct VenusLens.VTokenUnderlyingPrice[]",
          "name": "",
          "type": "tuple[]"
        }
      ],
      "payable": false,
      "stateMutability": "view",
      "type": "function"
    }
  ],
  "transactionHash": "0x7c67d48ba3be6a6e77fc767083e90d675dcc1157c47202793954dc90dbb8a0ad",
  "args": [],
  "numDeployments": 3,
  "solcInputHash": "b91ea7d62a23adfe9526d139d1ae8352",
  "bytecode": "0x608060405234801561001057600080fd5b5061401d806100206000396000f3fe608060405234801561001057600080fd5b50600436106100cf5760003560e01c8063aa5dbd231161008c578063e09744c611610066578063e09744c6146101e5578063e0a67f1114610205578063f40c277714610225578063fbd88b4614610245576100cf565b8063aa5dbd2314610192578063b3124239146101b2578063b814a8a6146101d2576100cf565b80631f884fdf146100d45780636bb987fe146100fd5780637c51b642146101125780637c84e3b3146101325780637dd8f6d91461015257806380ac822814610172575b600080fd5b6100e76100e236600461332f565b610265565b6040516100f49190613d87565b60405180910390f35b610105610301565b6040516100f49190613e51565b610125610120366004613371565b610307565b6040516100f49190613d65565b610145610140366004613468565b6103aa565b6040516100f49190613e27565b610165610160366004613449565b61053c565b6040516100f49190613de8565b6101856101803660046132ff565b610694565b6040516100f49190613df9565b6101a56101a0366004613468565b610bc8565b6040516100f49190613e18565b6101c56101c0366004613449565b611492565b6040516100f49190613e0a565b6101056101e03660046132c5565b611832565b6101f86101f33660046134ee565b611b5f565b6040516100f49190613e35565b61021861021336600461332f565b611ee5565b6040516100f49190613d76565b610238610233366004613449565b611f76565b6040516100f49190613e43565b610258610253366004613486565b61211f565b6040516100f49190613d98565b604080518281526020808402820101909152606090829082908280156102a557816020015b610292612f25565b81526020019060019003908161028a5790505b50905060005b828110156102f6576102d78686838181106102c257fe5b90506020020160206101409190810190613468565b8282815181106102e357fe5b60209081029190910101526001016102ab565b509150505b92915050565b61708081565b6040805183815260208085028201019091526060908390829082801561034757816020015b610334612f3c565b81526020019060019003908161032c5790505b50905060005b8281101561039e5761037f87878381811061036457fe5b90506020020160206103799190810190613468565b86611492565b82828151811061038b57fe5b602090810291909101015260010161034d565b509150505b9392505050565b6103b2612f25565b6000826001600160a01b0316635fe3b5676040518163ffffffff1660e01b815260040160206040518083038186803b1580156103ed57600080fd5b505afa158015610401573d6000803e3d6000fd5b505050506040513d601f19601f82011682018060405250610425919081019061342b565b90506000816001600160a01b0316637dc0d1d06040518163ffffffff1660e01b815260040160206040518083038186803b15801561046257600080fd5b505afa158015610476573d6000803e3d6000fd5b505050506040513d601f19601f8201168201806040525061049a919081019061342b565b90506040518060400160405280856001600160a01b03168152602001826001600160a01b031663fc57d4df876040518263ffffffff1660e01b81526004016104e29190613da9565b60206040518083038186803b1580156104fa57600080fd5b505afa15801561050e573d6000803e3d6000fd5b505050506040513d601f19601f8201168201806040525061053291908101906135b4565b9052949350505050565b610544612f7b565b6000806000856001600160a01b0316635ec88c79866040518263ffffffff1660e01b81526004016105759190613d05565b60606040518083038186803b15801561058d57600080fd5b505afa1580156105a1573d6000803e3d6000fd5b505050506040513d601f19601f820116820180604052506105c591908101906135d2565b925092509250826000146105f45760405162461bcd60e51b81526004016105eb90613dc8565b60405180910390fd5b604080516060810191829052632aff3bff60e21b909152806001600160a01b03881663abfceffc6106288960648501613d05565b60006040518083038186803b15801561064057600080fd5b505afa158015610654573d6000803e3d6000fd5b505050506040513d6000823e601f3d908101601f1916820160405261067c91908101906133c6565b81526020810193909352604090920152949350505050565b61069c612f9c565b6060826001600160a01b031663b0772d0b6040518163ffffffff1660e01b815260040160006040518083038186803b1580156106d757600080fd5b505afa1580156106eb573d6000803e3d6000fd5b505050506040513d6000823e601f3d908101601f1916820160405261071391908101906133c6565b905061071d612fc2565b610725612f9c565b6001600160a01b0385168082526040805163bf32442d60e01b8152905163bf32442d91600480820192602092909190829003018186803b15801561076857600080fd5b505afa15801561077c573d6000803e3d6000fd5b505050506040513d601f19601f820116820180604052506107a091908101906132a7565b6001600160a01b039081166020830152604051638a7dc16560e01b815290861690638a7dc165906107d5908990600401613d05565b60206040518083038186803b1580156107ed57600080fd5b505afa158015610801573d6000803e3d6000fd5b505050506040513d601f19601f8201168201806040525061082591908101906135b4565b816040018181525050825160405190808252806020026020018201604052801561086957816020015b610856612f25565b81526020019060019003908161084e5790505b50606082015260005b8351811015610bbe57856001600160a01b031663e37d4b7985838151811061089657fe5b60200260200101516040518263ffffffff1660e01b81526004016108ba9190613d05565b604080518083038186803b1580156108d157600080fd5b505afa1580156108e5573d6000803e3d6000fd5b505050506040513d601f19601f820116820180604052506109099190810190613584565b63ffffffff1660408501526001600160e01b0316602084015261092a612f25565b604051806040016040528085602001516001600160e01b03168152602001856040015163ffffffff168152509050866001600160a01b031663b8324c7c86848151811061097357fe5b60200260200101516040518263ffffffff1660e01b81526004016109979190613d05565b604080518083038186803b1580156109ae57600080fd5b505afa1580156109c2573d6000803e3d6000fd5b505050506040513d601f19601f820116820180604052506109e69190810190613584565b63ffffffff1660808601526001600160e01b03166060850152610a07612f25565b506040805180820190915260608501516001600160e01b03168152608085015163ffffffff166020820152610a3a612ff0565b6040518060200160405280888681518110610a5157fe5b60200260200101516001600160a01b031663aa5af0fd6040518163ffffffff1660e01b815260040160206040518083038186803b158015610a9157600080fd5b505afa158015610aa5573d6000803e3d6000fd5b505050506040513d601f19601f82011682018060405250610ac991908101906135b4565b90529050610ad5612f25565b878581518110610ae157fe5b60209081029190910101516001600160a01b031681528751610b1a9085908a9088908110610b0b57fe5b6020026020010151848d61226d565b6000610b3c858a8881518110610b2c57fe5b60200260200101518e868f6124ed565b9050610b5c848a8881518110610b4e57fe5b60200260200101518d61266f565b6000610b7d858b8981518110610b6e57fe5b60200260200101518f8f6128e5565b9050610b898282612ad9565b60208401526060880151805184919089908110610ba257fe5b6020026020010181905250505050505050806001019050610872565b5095945050505050565b610bd0613003565b6000826001600160a01b031663bd6d894d6040518163ffffffff1660e01b8152600401602060405180830381600087803b158015610c0d57600080fd5b505af1158015610c21573d6000803e3d6000fd5b505050506040513d601f19601f82011682018060405250610c4591908101906135b4565b90506000836001600160a01b0316635fe3b5676040518163ffffffff1660e01b815260040160206040518083038186803b158015610c8257600080fd5b505afa158015610c96573d6000803e3d6000fd5b505050506040513d601f19601f82011682018060405250610cba919081019061342b565b604051638e8f294b60e01b8152909150819060009081906001600160a01b03841690638e8f294b90610cf0908a90600401613d05565b604080518083038186803b158015610d0757600080fd5b505afa158015610d1b573d6000803e3d6000fd5b505050506040513d601f19601f82011682018060405250610d3f91908101906133fb565b91509150600080610de0896001600160a01b03166395d89b416040518163ffffffff1660e01b815260040160006040518083038186803b158015610d8257600080fd5b505afa158015610d96573d6000803e3d6000fd5b505050506040513d6000823e601f3d908101601f19168201604052610dbe9190810190613531565b604051806040016040528060048152602001633b21272160e11b815250612b0f565b15610df15750600090506012610f51565b6000899050806001600160a01b0316636f307dc36040518163ffffffff1660e01b815260040160206040518083038186803b158015610e2f57600080fd5b505afa158015610e43573d6000803e3d6000fd5b505050506040513d601f19601f82011682018060405250610e6791908101906132a7565b9250806001600160a01b0316636f307dc36040518163ffffffff1660e01b815260040160206040518083038186803b158015610ea257600080fd5b505afa158015610eb6573d6000803e3d6000fd5b505050506040513d601f19601f82011682018060405250610eda91908101906132a7565b6001600160a01b031663313ce5676040518163ffffffff1660e01b815260040160206040518083038186803b158015610f1257600080fd5b505afa158015610f26573d6000803e3d6000fd5b505050506040513d601f19601f82011682018060405250610f4a9190810190613633565b60ff169150505b604051635dd3fc9d60e01b81526000906001600160a01b03871690635dd3fc9d90610f80908d90600401613d05565b60206040518083038186803b158015610f9857600080fd5b505afa158015610fac573d6000803e3d6000fd5b505050506040513d601f19601f82011682018060405250610fd091908101906135b4565b90506000866001600160a01b031663bbb8864a8c6040518263ffffffff1660e01b81526004016110009190613d05565b60206040518083038186803b15801561101857600080fd5b505afa15801561102c573d6000803e3d6000fd5b505050506040513d601f19601f8201168201806040525061105091908101906135b4565b90506040518061024001604052808c6001600160a01b031681526020018a81526020018c6001600160a01b031663ae9d70b06040518163ffffffff1660e01b815260040160206040518083038186803b1580156110ac57600080fd5b505afa1580156110c0573d6000803e3d6000fd5b505050506040513d601f19601f820116820180604052506110e491908101906135b4565b81526020018c6001600160a01b031663f8f9da286040518163ffffffff1660e01b815260040160206040518083038186803b15801561112257600080fd5b505afa158015611136573d6000803e3d6000fd5b505050506040513d601f19601f8201168201806040525061115a91908101906135b4565b81526020018c6001600160a01b031663173b99046040518163ffffffff1660e01b815260040160206040518083038186803b15801561119857600080fd5b505afa1580156111ac573d6000803e3d6000fd5b505050506040513d601f19601f820116820180604052506111d091908101906135b4565b81526020018c6001600160a01b03166347bd37186040518163ffffffff1660e01b815260040160206040518083038186803b15801561120e57600080fd5b505afa158015611222573d6000803e3d6000fd5b505050506040513d601f19601f8201168201806040525061124691908101906135b4565b81526020018c6001600160a01b0316638f840ddd6040518163ffffffff1660e01b815260040160206040518083038186803b15801561128457600080fd5b505afa158015611298573d6000803e3d6000fd5b505050506040513d601f19601f820116820180604052506112bc91908101906135b4565b81526020018c6001600160a01b03166318160ddd6040518163ffffffff1660e01b815260040160206040518083038186803b1580156112fa57600080fd5b505afa15801561130e573d6000803e3d6000fd5b505050506040513d601f19601f8201168201806040525061133291908101906135b4565b81526020018c6001600160a01b0316633b1d21a26040518163ffffffff1660e01b815260040160206040518083038186803b15801561137057600080fd5b505afa158015611384573d6000803e3d6000fd5b505050506040513d601f19601f820116820180604052506113a891908101906135b4565b81526020018715158152602001868152602001856001600160a01b031681526020018c6001600160a01b031663313ce5676040518163ffffffff1660e01b815260040160206040518083038186803b15801561140357600080fd5b505afa158015611417573d6000803e3d6000fd5b505050506040513d601f19601f8201168201806040525061143b9190810190613633565b60ff16815260200184815260200183815260200182815260200161146a61708085612b6890919063ffffffff16565b81526020016114818361708063ffffffff612b6816565b90529b9a5050505050505050505050565b61149a612f3c565b6040516370a0823160e01b81526000906001600160a01b038516906370a08231906114c9908690600401613d13565b60206040518083038186803b1580156114e157600080fd5b505afa1580156114f5573d6000803e3d6000fd5b505050506040513d601f19601f8201168201806040525061151991908101906135b4565b90506000846001600160a01b03166317bfdfbc856040518263ffffffff1660e01b81526004016115499190613d13565b602060405180830381600087803b15801561156357600080fd5b505af1158015611577573d6000803e3d6000fd5b505050506040513d601f19601f8201168201806040525061159b91908101906135b4565b90506000856001600160a01b0316633af9e669866040518263ffffffff1660e01b81526004016115cb9190613d13565b602060405180830381600087803b1580156115e557600080fd5b505af11580156115f9573d6000803e3d6000fd5b505050506040513d601f19601f8201168201806040525061161d91908101906135b4565b905060008061165e886001600160a01b03166395d89b416040518163ffffffff1660e01b815260040160006040518083038186803b158015610d8257600080fd5b156116785750506001600160a01b038516803190316117f5565b60008890506000816001600160a01b0316636f307dc36040518163ffffffff1660e01b815260040160206040518083038186803b1580156116b857600080fd5b505afa1580156116cc573d6000803e3d6000fd5b505050506040513d601f19601f820116820180604052506116f091908101906132a7565b6040516370a0823160e01b81529091506001600160a01b038216906370a082319061171f908c90600401613d13565b60206040518083038186803b15801561173757600080fd5b505afa15801561174b573d6000803e3d6000fd5b505050506040513d601f19601f8201168201806040525061176f91908101906135b4565b604051636eb1769f60e11b81529094506001600160a01b0382169063dd62ed3e906117a0908c908e90600401613d21565b60206040518083038186803b1580156117b857600080fd5b505afa1580156117cc573d6000803e3d6000fd5b505050506040513d601f19601f820116820180604052506117f091908101906135b4565b925050505b6040805160c0810182526001600160a01b039990991689526020890195909552938701929092526060860152608085015260a08401525090919050565b6000808290506060816001600160a01b031663b0772d0b6040518163ffffffff1660e01b815260040160006040518083038186803b15801561187357600080fd5b505afa158015611887573d6000803e3d6000fd5b505050506040513d6000823e601f3d908101601f191682016040526118af91908101906133c6565b90506000805b8251811015610bbe5760008382815181106118cc57fe5b60200260200101519050611970816001600160a01b03166395d89b416040518163ffffffff1660e01b815260040160006040518083038186803b15801561191257600080fd5b505afa158015611926573d6000803e3d6000fd5b505050506040513d6000823e601f3d908101601f1916820160405261194e9190810190613531565b604051806040016040528060048152602001631d9554d560e21b815250612b0f565b158015611a155750611a13816001600160a01b03166395d89b416040518163ffffffff1660e01b815260040160006040518083038186803b1580156119b457600080fd5b505afa1580156119c8573d6000803e3d6000fd5b505050506040513d6000823e601f3d908101601f191682016040526119f09190810190613531565b60405180604001604052806005815260200164764c554e4160d81b815250612b0f565b155b15611b5657611a22613003565b611a2b82610bc8565b9050611a35612f3c565b611a3f838b611492565b9050611a49612f25565b611a52846103aa565b6020810151909150611a62612ff0565b604051806020016040528083815250905060008090506000611a88838760600151612ba2565b90506000611abf670de0b6b3a7640000611ab38a602001518b60e00151612b6890919063ffffffff16565b9063ffffffff612bc916565b90506000611acd8583612ba2565b90508015611af457611af181611ab3858c6102000151612b6890919063ffffffff16565b93505b60008090506000611b09878b60400151612ba2565b90506000611b1b888d60a00151612ba2565b90508015611b4257611b3f81611ab3848f6102200151612b6890919063ffffffff16565b92505b8287018f019e505050505050505050505050505b506001016118b5565b611b676130a2565b6040516370a0823160e01b81526000906001600160a01b038616906370a0823190611b96908690600401613d05565b60206040518083038186803b158015611bae57600080fd5b505afa158015611bc2573d6000803e3d6000fd5b505050506040513d601f19601f82011682018060405250611be691908101906135b4565b60405163adcd5fb960e01b81529091506001600160a01b0385169063adcd5fb990611c15908690600401613d05565b600060405180830381600087803b158015611c2f57600080fd5b505af1158015611c43573d6000803e3d6000fd5b50506040516370a0823160e01b8152600092506001600160a01b03881691506370a0823190611c76908790600401613d05565b60206040518083038186803b158015611c8e57600080fd5b505afa158015611ca2573d6000803e3d6000fd5b505050506040513d601f19601f82011682018060405250611cc691908101906135b4565b90506000856001600160a01b0316638a7dc165866040518263ffffffff1660e01b8152600401611cf69190613d05565b60206040518083038186803b158015611d0e57600080fd5b505afa158015611d22573d6000803e3d6000fd5b505050506040513d601f19601f82011682018060405250611d4691908101906135b4565b90506000611d7a82846040518060400160405280600d81526020016c1cdd5b481e1d9cc81d1bdd185b609a1b815250612c0b565b90506000611dae82866040518060400160405280600d81526020016c1cdd5888185b1b1bd8d85d1959609a1b815250612c3b565b905060405180608001604052808681526020018a6001600160a01b031663b4b5ea578a6040518263ffffffff1660e01b8152600401611ded9190613d05565b60206040518083038186803b158015611e0557600080fd5b505afa158015611e19573d6000803e3d6000fd5b505050506040513d601f19601f82011682018060405250611e3d9190810190613651565b6001600160601b031681526020018a6001600160a01b031663587cde1e8a6040518263ffffffff1660e01b8152600401611e779190613d05565b60206040518083038186803b158015611e8f57600080fd5b505afa158015611ea3573d6000803e3d6000fd5b505050506040513d601f19601f82011682018060405250611ec791908101906132a7565b6001600160a01b031681526020019190915298975050505050505050565b60408051828152602080840282010190915260609082908290828015611f2557816020015b611f12613003565b815260200190600190039081611f0a5790505b50905060005b828110156102f657611f57868683818110611f4257fe5b90506020020160206101a09190810190613468565b828281518110611f6357fe5b6020908102919091010152600101611f2b565b611f7e6130d3565b6040805160608101918290526370a0823160e01b909152806001600160a01b0385166370a08231611fb28660648501613d05565b60206040518083038186803b158015611fca57600080fd5b505afa158015611fde573d6000803e3d6000fd5b505050506040513d601f19601f8201168201806040525061200291908101906135b4565b8152602001846001600160a01b031663b4b5ea57856040518263ffffffff1660e01b81526004016120339190613d05565b60206040518083038186803b15801561204b57600080fd5b505afa15801561205f573d6000803e3d6000fd5b505050506040513d601f19601f820116820180604052506120839190810190613651565b6001600160601b03168152602001846001600160a01b031663587cde1e856040518263ffffffff1660e01b81526004016120bd9190613d05565b60206040518083038186803b1580156120d557600080fd5b505afa1580156120e9573d6000803e3d6000fd5b505050506040513d601f19601f8201168201806040525061210d91908101906132a7565b6001600160a01b031690529392505050565b6060808383905060405190808252806020026020018201604052801561215f57816020015b61214c6130fd565b8152602001906001900390816121445790505b50905060005b83811015610bbe57604051806040016040528086868481811061218457fe5b90506020020160206121999190810190613615565b63ffffffff168152602001886001600160a01b031663782d6fe1898989878181106121c057fe5b90506020020160206121d59190810190613615565b6040518363ffffffff1660e01b81526004016121f2929190613d4a565b60206040518083038186803b15801561220a57600080fd5b505afa15801561221e573d6000803e3d6000fd5b505050506040513d601f19601f820116820180604052506122429190810190613651565b6001600160601b031681525082828151811061225a57fe5b6020908102919091010152600101612165565b604051635ddc432560e11b81526000906001600160a01b0383169063bbb8864a9061229c908790600401613d05565b60206040518083038186803b1580156122b457600080fd5b505afa1580156122c8573d6000803e3d6000fd5b505050506040513d601f19601f820116820180604052506122ec91908101906135b4565b90506000439050600061230982886020015163ffffffff16612c67565b905060008111801561231b5750600083115b1561249a57600061239c876001600160a01b03166347bd37186040518163ffffffff1660e01b815260040160206040518083038186803b15801561235e57600080fd5b505afa158015612372573d6000803e3d6000fd5b505050506040513d601f19601f8201168201806040525061239691908101906135b4565b87612ca1565b905060006123aa8386612cbf565b90506123b4612ff0565b600083116123d157604051806020016040528060008152506123db565b6123db8284612d01565b90506123e5612ff0565b60408051602081019091528b516001600160e01b031681526124079083612d3f565b90506124428160000151604051806040016040528060138152602001726e657720696e646578206f766572666c6f777360681b815250612d64565b6001600160e01b03168b52604080518082019091526016815275626c6f636b206e756d626572206f766572666c6f777360501b6020820152612485908790612d93565b63ffffffff1660208c0152506124e492505050565b80156124e4576124d88260405180604001604052806016815260200175626c6f636b206e756d626572206f766572666c6f777360501b815250612d93565b63ffffffff1660208801525b50505050505050565b60006124f7612ff0565b50604080516020810190915286516001600160e01b03168152612518612ff0565b604080516020810191829052630238089760e21b909152806001600160a01b0386166308e0225c61254d8b8b60248601613d3c565b60206040518083038186803b15801561256557600080fd5b505afa158015612579573d6000803e3d6000fd5b505050506040513d601f19601f8201168201806040525061259d91908101906135b4565b905280519091501561265f576125b1612ff0565b6125bb8383612dbb565b90506000612644896001600160a01b03166395dd91938a6040518263ffffffff1660e01b81526004016125ee9190613d05565b60206040518083038186803b15801561260657600080fd5b505afa15801561261a573d6000803e3d6000fd5b505050506040513d601f19601f8201168201806040525061263e91908101906135b4565b88612ca1565b905060006126528284612de0565b9550612666945050505050565b6000925050505b95945050505050565b604051635dd3fc9d60e01b81526000906001600160a01b03831690635dd3fc9d9061269e908690600401613d05565b60206040518083038186803b1580156126b657600080fd5b505afa1580156126ca573d6000803e3d6000fd5b505050506040513d601f19601f820116820180604052506126ee91908101906135b4565b90506000439050600061270b82876020015163ffffffff16612c67565b905060008111801561271d5750600083115b15612893576000856001600160a01b03166318160ddd6040518163ffffffff1660e01b815260040160206040518083038186803b15801561275d57600080fd5b505afa158015612771573d6000803e3d6000fd5b505050506040513d601f19601f8201168201806040525061279591908101906135b4565b905060006127a38386612cbf565b90506127ad612ff0565b600083116127ca57604051806020016040528060008152506127d4565b6127d48284612d01565b90506127de612ff0565b60408051602081019091528a516001600160e01b031681526128009083612d3f565b905061283b8160000151604051806040016040528060138152602001726e657720696e646578206f766572666c6f777360681b815250612d64565b6001600160e01b03168a52604080518082019091526016815275626c6f636b206e756d626572206f766572666c6f777360501b602082015261287e908790612d93565b63ffffffff1660208b0152506128dd92505050565b80156128dd576128d18260405180604001604052806016815260200175626c6f636b206e756d626572206f766572666c6f777360501b815250612d93565b63ffffffff1660208701525b505050505050565b60006128ef612ff0565b50604080516020810190915285516001600160e01b03168152612910612ff0565b604080516020810191829052631068634b60e21b909152806001600160a01b0386166341a18d2c6129458a8a60248601613d3c565b60206040518083038186803b15801561295d57600080fd5b505afa158015612971573d6000803e3d6000fd5b505050506040513d601f19601f8201168201806040525061299591908101906135b4565b905280519091501580156129a95750815115155b15612a2b57836001600160a01b031663c5b4db556040518163ffffffff1660e01b815260040160206040518083038186803b1580156129e757600080fd5b505afa1580156129fb573d6000803e3d6000fd5b505050506040513d601f19601f82011682018060405250612a1f9190810190613566565b6001600160e01b031681525b612a33612ff0565b612a3d8383612dbb565b90506000876001600160a01b03166370a08231886040518263ffffffff1660e01b8152600401612a6d9190613d05565b60206040518083038186803b158015612a8557600080fd5b505afa158015612a99573d6000803e3d6000fd5b505050506040513d601f19601f82011682018060405250612abd91908101906135b4565b90506000612acb8284612de0565b9a9950505050505050505050565b60006103a38383604051806040016040528060118152602001706164646974696f6e206f766572666c6f7760781b815250612c0b565b600081604051602001612b229190613cf9565b6040516020818303038152906040528051906020012083604051602001612b499190613cf9565b6040516020818303038152906040528051906020012014905092915050565b600082612b77575060006102fb565b82820282848281612b8457fe5b04146103a35760405162461bcd60e51b81526004016105eb90613dd8565b6000612bac612ff0565b612bb68484612e0f565b9050612bc181612e30565b949350505050565b60006103a383836040518060400160405280601a81526020017f536166654d6174683a206469766973696f6e206279207a65726f000000000000815250612e3f565b60008383018285821015612c325760405162461bcd60e51b81526004016105eb9190613db7565b50949350505050565b60008184841115612c5f5760405162461bcd60e51b81526004016105eb9190613db7565b505050900390565b60006103a38383604051806040016040528060158152602001747375627472616374696f6e20756e646572666c6f7760581b815250612c3b565b60006103a3612cb884670de0b6b3a7640000612cbf565b8351612e76565b60006103a383836040518060400160405280601781526020017f6d756c7469706c69636174696f6e206f766572666c6f77000000000000000000815250612ea9565b612d09612ff0565b6040518060200160405280612d36612d30866ec097ce7bc90715b34b9f1000000000612cbf565b85612e76565b90529392505050565b612d47612ff0565b6040518060200160405280612d3685600001518560000151612ad9565b600081600160e01b8410612d8b5760405162461bcd60e51b81526004016105eb9190613db7565b509192915050565b6000816401000000008410612d8b5760405162461bcd60e51b81526004016105eb9190613db7565b612dc3612ff0565b6040518060200160405280612d3685600001518560000151612c67565b60006ec097ce7bc90715b34b9f1000000000612e00848460000151612cbf565b81612e0757fe5b049392505050565b612e17612ff0565b6040518060200160405280612d36856000015185612cbf565b51670de0b6b3a7640000900490565b60008183612e605760405162461bcd60e51b81526004016105eb9190613db7565b506000838581612e6c57fe5b0495945050505050565b60006103a383836040518060400160405280600e81526020016d646976696465206279207a65726f60901b815250612ef1565b6000831580612eb6575082155b15612ec3575060006103a3565b83830283858281612ed057fe5b04148390612c325760405162461bcd60e51b81526004016105eb9190613db7565b60008183612f125760405162461bcd60e51b81526004016105eb9190613db7565b50828481612f1c57fe5b04949350505050565b604080518082019091526000808252602082015290565b6040518060c0016040528060006001600160a01b0316815260200160008152602001600081526020016000815260200160008152602001600081525090565b60405180606001604052806060815260200160008152602001600081525090565b604080516080810182526000808252602082018190529181019190915260608082015290565b6040805160a08101825260008082526020820181905291810182905260608101829052608081019190915290565b6040518060200160405280600081525090565b60405180610240016040528060006001600160a01b0316815260200160008152602001600081526020016000815260200160008152602001600081526020016000815260200160008152602001600081526020016000151581526020016000815260200160006001600160a01b031681526020016000815260200160008152602001600081526020016000815260200160008152602001600081525090565b6040518060800160405280600081526020016000815260200160006001600160a01b03168152602001600081525090565b6040518060600160405280600081526020016000815260200160006001600160a01b031681525090565b604051806040016040528060008152602001600081525090565b80356102fb81613f84565b80516102fb81613f84565b60008083601f84011261313f57600080fd5b50813567ffffffffffffffff81111561315757600080fd5b60208301915083602082028301111561316f57600080fd5b9250929050565b600082601f83011261318757600080fd5b815161319a61319582613e86565b613e5f565b915081818352602084019350602081019050838560208402820111156131bf57600080fd5b60005b838110156131eb57816131d5888261320b565b84525060209283019291909101906001016131c2565b5050505092915050565b80516102fb81613f9b565b80356102fb81613fa4565b80516102fb81613fa4565b600082601f83011261322757600080fd5b815161323561319582613ea7565b9150808252602083016020830185838301111561325157600080fd5b61325c838284613f4e565b50505092915050565b80516102fb81613fad565b80516102fb81613fb6565b80356102fb81613fbf565b80516102fb81613fbf565b80516102fb81613fc8565b80516102fb81613fd1565b6000602082840312156132b957600080fd5b6000612bc18484613122565b600080604083850312156132d857600080fd5b60006132e48585613117565b92505060206132f585828601613117565b9150509250929050565b6000806040838503121561331257600080fd5b600061331e8585613117565b92505060206132f585828601613200565b6000806020838503121561334257600080fd5b823567ffffffffffffffff81111561335957600080fd5b6133658582860161312d565b92509250509250929050565b60008060006040848603121561338657600080fd5b833567ffffffffffffffff81111561339d57600080fd5b6133a98682870161312d565b935093505060206133bc86828701613117565b9150509250925092565b6000602082840312156133d857600080fd5b815167ffffffffffffffff8111156133ef57600080fd5b612bc184828501613176565b6000806040838503121561340e57600080fd5b600061341a85856131f5565b92505060206132f585828601613270565b60006020828403121561343d57600080fd5b6000612bc1848461320b565b6000806040838503121561345c57600080fd5b60006132e48585613200565b60006020828403121561347a57600080fd5b6000612bc18484613200565b6000806000806060858703121561349c57600080fd5b60006134a88787613200565b94505060206134b987828801613117565b935050604085013567ffffffffffffffff8111156134d657600080fd5b6134e28782880161312d565b95989497509550505050565b60008060006060848603121561350357600080fd5b600061350f8686613200565b935050602061352086828701613200565b92505060406133bc86828701613117565b60006020828403121561354357600080fd5b815167ffffffffffffffff81111561355a57600080fd5b612bc184828501613216565b60006020828403121561357857600080fd5b6000612bc18484613265565b6000806040838503121561359757600080fd5b60006135a38585613265565b92505060206132f585828601613286565b6000602082840312156135c657600080fd5b6000612bc18484613270565b6000806000606084860312156135e757600080fd5b60006135f38686613270565b935050602061360486828701613270565b92505060406133bc86828701613270565b60006020828403121561362757600080fd5b6000612bc1848461327b565b60006020828403121561364557600080fd5b6000612bc18484613291565b60006020828403121561366357600080fd5b6000612bc1848461329c565b600061367b83836138cc565b505060200190565b600061368f8383613a00565b505060400190565b60006136a38383613a7c565b505060c00190565b60006136b78383613aec565b50506102400190565b600061368f8383613c55565b6136d581613f38565b82525050565b6136d581613ee7565b60006136ef82613ed5565b6136f98185613ed9565b935061370483613ecf565b8060005b8381101561373257815161371c888261366f565b975061372783613ecf565b925050600101613708565b509495945050505050565b600061374882613ed5565b6137528185613ed9565b935061375d83613ecf565b8060005b838110156137325781516137758882613683565b975061378083613ecf565b925050600101613761565b600061379682613ed5565b6137a08185613ed9565b93506137ab83613ecf565b8060005b838110156137325781516137c38882613697565b97506137ce83613ecf565b9250506001016137af565b60006137e482613ed5565b6137ee8185613ed9565b93506137f983613ecf565b8060005b8381101561373257815161381188826136ab565b975061381c83613ecf565b9250506001016137fd565b600061383282613ed5565b61383c8185613ed9565b935061384783613ecf565b8060005b8381101561373257815161385f8882613683565b975061386a83613ecf565b92505060010161384b565b600061388082613ed5565b61388a8185613ed9565b935061389583613ecf565b8060005b838110156137325781516138ad88826136c0565b97506138b883613ecf565b925050600101613899565b6136d581613ef2565b6136d581613ef7565b60006138e082613ed5565b6138ea8185613ed9565b93506138fa818560208601613f4e565b61390381613f7a565b9093019392505050565b600061391882613ed5565b6139228185613ee2565b9350613932818560208601613f4e565b9290920192915050565b6000613949601783613ed9565b7f6163636f756e74206c6971756964697479206572726f72000000000000000000815260200192915050565b6000613982602183613ed9565b7f536166654d6174683a206d756c7469706c69636174696f6e206f766572666c6f8152607760f81b602082015260400192915050565b80516060808452600091908401906139d082826136e4565b91505060208301516139e56020860182613ce7565b5060408301516139f86040860182613ce7565b509392505050565b80516040830190613a1184826136db565b506020820151613a246020850182613ce7565b50505050565b80516000906080840190613a3e85826136db565b506020830151613a5160208601826136db565b506040830151613a646040860182613ce7565b5060608301518482036060860152612666828261373d565b805160c0830190613a8d84826136db565b506020820151613aa06020850182613ce7565b506040820151613ab36040850182613ce7565b506060820151613ac66060850182613ce7565b506080820151613ad96080850182613ce7565b5060a0820151613a2460a0850182613ce7565b8051610240830190613afe84826136db565b506020820151613b116020850182613ce7565b506040820151613b246040850182613ce7565b506060820151613b376060850182613ce7565b506080820151613b4a6080850182613ce7565b5060a0820151613b5d60a0850182613ce7565b5060c0820151613b7060c0850182613ce7565b5060e0820151613b8360e0850182613ce7565b50610100820151613b98610100850182613ce7565b50610120820151613bad6101208501826138c3565b50610140820151613bc2610140850182613ce7565b50610160820151613bd76101608501826136db565b50610180820151613bec610180850182613ce7565b506101a0820151613c016101a0850182613ce7565b506101c0820151613c166101c0850182613ce7565b506101e0820151613c2b6101e0850182613ce7565b50610200820151613c40610200850182613ce7565b50610220820151613a24610220850182613ce7565b80516040830190613a118482613ce7565b80516080830190613c778482613ce7565b506020820151613c8a6020850182613ce7565b506040820151613c9d60408501826136db565b506060820151613a246060850182613ce7565b80516060830190613cc18482613ce7565b506020820151613cd46020850182613ce7565b506040820151613a2460408501826136db565b6136d581613f1a565b6136d581613f43565b60006103a3828461390d565b602081016102fb82846136db565b602081016102fb82846136cc565b60408101613d2f82856136cc565b6103a360208301846136db565b60408101613d2f82856136db565b60408101613d5882856136db565b6103a36020830184613cf0565b602080825281016103a3818461378b565b602080825281016103a381846137d9565b602080825281016103a38184613827565b602080825281016103a38184613875565b602081016102fb82846138cc565b602080825281016103a381846138d5565b602080825281016102fb8161393c565b602080825281016102fb81613975565b602080825281016103a381846139b8565b602080825281016103a38184613a2a565b60c081016102fb8284613a7c565b61024081016102fb8284613aec565b604081016102fb8284613a00565b608081016102fb8284613c66565b606081016102fb8284613cb0565b602081016102fb8284613ce7565b60405181810167ffffffffffffffff81118282101715613e7e57600080fd5b604052919050565b600067ffffffffffffffff821115613e9d57600080fd5b5060209081020190565b600067ffffffffffffffff821115613ebe57600080fd5b506020601f91909101601f19160190565b60200190565b5190565b90815260200190565b919050565b60006102fb82613f02565b151590565b60006102fb82613ee7565b6001600160a01b031690565b6001600160e01b031690565b90565b63ffffffff1690565b60ff1690565b6001600160601b031690565b60006102fb82613ef7565b60006102fb82613f1d565b60005b83811015613f69578181015183820152602001613f51565b83811115613a245750506000910152565b601f01601f191690565b613f8d81613ee7565b8114613f9857600080fd5b50565b613f8d81613ef2565b613f8d81613ef7565b613f8d81613f0e565b613f8d81613f1a565b613f8d81613f1d565b613f8d81613f26565b613f8d81613f2c56fea365627a7a723158205f78e429e36ba69eb66b146f8e1d3640d778522aa2dc4533cdccf89457434aa36c6578706572696d656e74616cf564736f6c63430005100040",
  "devdoc": {
    "methods": {
      "getAccountLimits(address,address)": {
        "params": {
          "account": "Address of the account to query",
          "comptroller": "Address of comptroller proxy"
        },
        "return": "Struct with markets user has entered, liquidity, and shortfall of the account"
      },
      "getDailyXVS(address,address)": {
        "params": {
          "account": "Address of account to fetch the daily XVS distribution",
          "comptrollerAddress": "Address of the comptroller proxy"
        },
        "return": "Amount of XVS distributed daily to an account"
      },
      "getVenusVotes(address,address,uint32[])": {
        "params": {
          "account": "Address of the account",
          "blockNumbers": "Array of blocks to query",
          "xvs": "XVS contract address"
        },
        "return": "Array of VenusVotes structs with block number and vote count"
      },
      "getXVSBalanceMetadata(address,address)": {
        "params": {
          "account": "Account address",
          "xvs": "XVS contract address"
        },
        "return": "Struct with XVS balance and voter details"
      },
      "getXVSBalanceMetadataExt(address,address,address)": {
        "params": {
          "account": "Account address",
          "comptroller": "Comptroller proxy contract address",
          "xvs": "XVS contract address"
        },
        "return": "Struct with XVS balance and voter details and XVS allocation"
      },
      "pendingRewards(address,address)": {
        "params": {
          "comptroller": "Address of the comptroller",
          "holder": "Account to query pending XVS"
        },
        "return": "Reward object contraining the totalRewards and pending rewards for each market"
      },
      "vTokenBalances(address,address)": {
        "params": {
          "account": "Account address to fetch the balance of",
          "vToken": "Address of the token to check the balance of"
        },
        "return": "VTokenBalances with token balance information"
      },
      "vTokenBalancesAll(address[],address)": {
        "params": {
          "account": "Account address to fetch the balance of",
          "vTokens": "Addresses of the tokens to check the balance of"
        },
        "return": "VTokenBalances Array with token balance information"
      },
      "vTokenMetadata(address)": {
        "params": {
          "vToken": "The address of the vToken to fetch VTokenMetadata"
        },
        "return": "VTokenMetadata struct with vToken supply and borrow information."
      },
      "vTokenMetadataAll(address[])": {
        "params": {
          "vTokens": "Array of vToken addresses to fetch VTokenMetadata"
        },
        "return": "Array of structs with vToken supply and borrow information."
      },
      "vTokenUnderlyingPrice(address)": {
        "params": {
          "vToken": "address of the vToken"
        },
        "return": "response struct with underlyingPrice info of vToken"
      },
      "vTokenUnderlyingPriceAll(address[])": {
        "params": {
          "vTokens": "Array of vToken addresses"
        },
        "return": "array of response structs with underlying price information of vTokens"
      }
    }
  },
  "userdoc": {
    "methods": {
      "getAccountLimits(address,address)": {
        "notice": "Query the account liquidity and shortfall of an account"
      },
      "getDailyXVS(address,address)": {
        "notice": "Get amount of XVS distributed daily to an account"
      },
      "getVenusVotes(address,address,uint32[])": {
        "notice": "Query the voting power for an account at a specific list of block numbers"
      },
      "getXVSBalanceMetadata(address,address)": {
        "notice": "Query the XVSBalance info of an account"
      },
      "getXVSBalanceMetadataExt(address,address,address)": {
        "notice": "Query the XVSBalance extended info of an account"
      },
      "pendingRewards(address,address)": {
        "notice": "Calculate the total XVS tokens pending and accrued by a user account"
      },
      "vTokenBalances(address,address)": {
        "notice": "Get the current vToken balance (outstanding borrows) for an account"
      },
      "vTokenBalancesAll(address[],address)": {
        "notice": "Get the current vToken balances (outstanding borrows) for all vTokens on an account"
      },
      "vTokenMetadata(address)": {
        "notice": "Query the metadata of a vToken by its address"
      },
      "vTokenMetadataAll(address[])": {
        "notice": "Get VTokenMetadata for an array of vToken addresses"
      },
      "vTokenUnderlyingPrice(address)": {
        "notice": "Get the price for the underlying asset of a vToken"
      },
      "vTokenUnderlyingPriceAll(address[])": {
        "notice": "Query the underlyingPrice of an array of vTokens"
      }
    }
  },
  "storageLayout": {
    "storage": [],
    "types": null
  }
}