{
  "address": "0xc10c9f020cb3091c28d16d5ad62C4A73C043785b",
  "abi": [
    {
      "inputs": [],
      "name": "InvalidOperationForCorePool",
      "type": "error"
    },
    {
      "inputs": [
        {
          "internalType": "uint96",
          "name": "poolId",
          "type": "uint96"
        }
      ],
      "name": "PoolDoesNotExist",
      "type": "error"
    },
    {
      "inputs": [],
      "name": "BLOCKS_PER_DAY",
      "outputs": [
        {
          "internalType": "uint256",
          "name": "",
          "type": "uint256"
        }
      ],
      "stateMutability": "view",
      "type": "function"
    },
    {
      "inputs": [],
      "name": "VTOKEN_ACTIONS",
      "outputs": [
        {
          "internalType": "uint256",
          "name": "",
          "type": "uint256"
        }
      ],
      "stateMutability": "view",
      "type": "function"
    },
    {
      "inputs": [
        {
          "internalType": "contract ComptrollerInterface",
          "name": "comptroller",
          "type": "address"
        },
        {
          "internalType": "address",
          "name": "account",
          "type": "address"
        }
      ],
      "name": "getAccountLimits",
      "outputs": [
        {
          "components": [
            {
              "internalType": "contract VToken[]",
              "name": "markets",
              "type": "address[]"
            },
            {
              "internalType": "uint256",
              "name": "liquidity",
              "type": "uint256"
            },
            {
              "internalType": "uint256",
              "name": "shortfall",
              "type": "uint256"
            }
          ],
          "internalType": "struct VenusLens.AccountLimits",
          "name": "",
          "type": "tuple"
        }
      ],
      "stateMutability": "view",
      "type": "function"
    },
    {
      "inputs": [
        {
          "internalType": "contract ComptrollerInterface",
          "name": "comptroller",
          "type": "address"
        }
      ],
      "name": "getAllPoolsData",
      "outputs": [
        {
          "components": [
            {
              "internalType": "uint96",
              "name": "poolId",
              "type": "uint96"
            },
            {
              "internalType": "string",
              "name": "label",
              "type": "string"
            },
            {
              "components": [
                {
                  "internalType": "uint96",
                  "name": "poolId",
                  "type": "uint96"
                },
                {
                  "internalType": "string",
                  "name": "poolLabel",
                  "type": "string"
                },
                {
                  "internalType": "address",
                  "name": "vToken",
                  "type": "address"
                },
                {
                  "internalType": "bool",
                  "name": "isListed",
                  "type": "bool"
                },
                {
                  "internalType": "uint256",
                  "name": "collateralFactor",
                  "type": "uint256"
                },
                {
                  "internalType": "bool",
                  "name": "isVenus",
                  "type": "bool"
                },
                {
                  "internalType": "uint256",
                  "name": "liquidationThreshold",
                  "type": "uint256"
                },
                {
                  "internalType": "uint256",
                  "name": "liquidationIncentive",
                  "type": "uint256"
                },
                {
                  "internalType": "bool",
                  "name": "isBorrowAllowed",
                  "type": "bool"
                }
              ],
              "internalType": "struct VenusLens.MarketData[]",
              "name": "markets",
              "type": "tuple[]"
            }
          ],
          "internalType": "struct VenusLens.PoolWithMarkets[]",
          "name": "poolsData",
          "type": "tuple[]"
        }
      ],
      "stateMutability": "view",
      "type": "function"
    },
    {
      "inputs": [
        {
          "internalType": "address payable",
          "name": "account",
          "type": "address"
        },
        {
          "internalType": "address",
          "name": "comptrollerAddress",
          "type": "address"
        }
      ],
      "name": "getDailyXVS",
      "outputs": [
        {
          "internalType": "uint256",
          "name": "",
          "type": "uint256"
        }
      ],
      "stateMutability": "nonpayable",
      "type": "function"
    },
    {
      "inputs": [
        {
          "internalType": "uint96",
          "name": "poolId",
          "type": "uint96"
        },
        {
          "internalType": "contract ComptrollerInterface",
          "name": "comptroller",
          "type": "address"
        }
      ],
      "name": "getMarketsDataByPool",
      "outputs": [
        {
          "components": [
            {
              "internalType": "uint96",
              "name": "poolId",
              "type": "uint96"
            },
            {
              "internalType": "string",
              "name": "poolLabel",
              "type": "string"
            },
            {
              "internalType": "address",
              "name": "vToken",
              "type": "address"
            },
            {
              "internalType": "bool",
              "name": "isListed",
              "type": "bool"
            },
            {
              "internalType": "uint256",
              "name": "collateralFactor",
              "type": "uint256"
            },
            {
              "internalType": "bool",
              "name": "isVenus",
              "type": "bool"
            },
            {
              "internalType": "uint256",
              "name": "liquidationThreshold",
              "type": "uint256"
            },
            {
              "internalType": "uint256",
              "name": "liquidationIncentive",
              "type": "uint256"
            },
            {
              "internalType": "bool",
              "name": "isBorrowAllowed",
              "type": "bool"
            }
          ],
          "internalType": "struct VenusLens.MarketData[]",
          "name": "result",
          "type": "tuple[]"
        }
      ],
      "stateMutability": "view",
      "type": "function"
    },
    {
      "inputs": [
        {
          "internalType": "contract IXVS",
          "name": "xvs",
          "type": "address"
        },
        {
          "internalType": "address",
          "name": "account",
          "type": "address"
        },
        {
          "internalType": "uint32[]",
          "name": "blockNumbers",
          "type": "uint32[]"
        }
      ],
      "name": "getVenusVotes",
      "outputs": [
        {
          "components": [
            {
              "internalType": "uint256",
              "name": "blockNumber",
              "type": "uint256"
            },
            {
              "internalType": "uint256",
              "name": "votes",
              "type": "uint256"
            }
          ],
          "internalType": "struct VenusLens.VenusVotes[]",
          "name": "",
          "type": "tuple[]"
        }
      ],
      "stateMutability": "view",
      "type": "function"
    },
    {
      "inputs": [
        {
          "internalType": "contract IXVS",
          "name": "xvs",
          "type": "address"
        },
        {
          "internalType": "address",
          "name": "account",
          "type": "address"
        }
      ],
      "name": "getXVSBalanceMetadata",
      "outputs": [
        {
          "components": [
            {
              "internalType": "uint256",
              "name": "balance",
              "type": "uint256"
            },
            {
              "internalType": "uint256",
              "name": "votes",
              "type": "uint256"
            },
            {
              "internalType": "address",
              "name": "delegate",
              "type": "address"
            }
          ],
          "internalType": "struct VenusLens.XVSBalanceMetadata",
          "name": "",
          "type": "tuple"
        }
      ],
      "stateMutability": "view",
      "type": "function"
    },
    {
      "inputs": [
        {
          "internalType": "contract IXVS",
          "name": "xvs",
          "type": "address"
        },
        {
          "internalType": "contract ComptrollerInterface",
          "name": "comptroller",
          "type": "address"
        },
        {
          "internalType": "address",
          "name": "account",
          "type": "address"
        }
      ],
      "name": "getXVSBalanceMetadataExt",
      "outputs": [
        {
          "components": [
            {
              "internalType": "uint256",
              "name": "balance",
              "type": "uint256"
            },
            {
              "internalType": "uint256",
              "name": "votes",
              "type": "uint256"
            },
            {
              "internalType": "address",
              "name": "delegate",
              "type": "address"
            },
            {
              "internalType": "uint256",
              "name": "allocated",
              "type": "uint256"
            }
          ],
          "internalType": "struct VenusLens.XVSBalanceMetadataExt",
          "name": "",
          "type": "tuple"
        }
      ],
      "stateMutability": "nonpayable",
      "type": "function"
    },
    {
      "inputs": [
        {
          "internalType": "address",
          "name": "holder",
          "type": "address"
        },
        {
          "internalType": "contract ComptrollerInterface",
          "name": "comptroller",
          "type": "address"
        }
      ],
      "name": "pendingRewards",
      "outputs": [
        {
          "components": [
            {
              "internalType": "address",
              "name": "distributorAddress",
              "type": "address"
            },
            {
              "internalType": "address",
              "name": "rewardTokenAddress",
              "type": "address"
            },
            {
              "internalType": "uint256",
              "name": "totalRewards",
              "type": "uint256"
            },
            {
              "components": [
                {
                  "internalType": "address",
                  "name": "vTokenAddress",
                  "type": "address"
                },
                {
                  "internalType": "uint256",
                  "name": "amount",
                  "type": "uint256"
                }
              ],
              "internalType": "struct VenusLens.PendingReward[]",
              "name": "pendingRewards",
              "type": "tuple[]"
            }
          ],
          "internalType": "struct VenusLens.RewardSummary",
          "name": "",
          "type": "tuple"
        }
      ],
      "stateMutability": "view",
      "type": "function"
    },
    {
      "inputs": [
        {
          "internalType": "contract VToken",
          "name": "vToken",
          "type": "address"
        },
        {
          "internalType": "address payable",
          "name": "account",
          "type": "address"
        }
      ],
      "name": "vTokenBalances",
      "outputs": [
        {
          "components": [
            {
              "internalType": "address",
              "name": "vToken",
              "type": "address"
            },
            {
              "internalType": "uint256",
              "name": "balanceOf",
              "type": "uint256"
            },
            {
              "internalType": "uint256",
              "name": "borrowBalanceCurrent",
              "type": "uint256"
            },
            {
              "internalType": "uint256",
              "name": "balanceOfUnderlying",
              "type": "uint256"
            },
            {
              "internalType": "uint256",
              "name": "tokenBalance",
              "type": "uint256"
            },
            {
              "internalType": "uint256",
              "name": "tokenAllowance",
              "type": "uint256"
            }
          ],
          "internalType": "struct VenusLens.VTokenBalances",
          "name": "",
          "type": "tuple"
        }
      ],
      "stateMutability": "nonpayable",
      "type": "function"
    },
    {
      "inputs": [
        {
          "internalType": "contract VToken[]",
          "name": "vTokens",
          "type": "address[]"
        },
        {
          "internalType": "address payable",
          "name": "account",
          "type": "address"
        }
      ],
      "name": "vTokenBalancesAll",
      "outputs": [
        {
          "components": [
            {
              "internalType": "address",
              "name": "vToken",
              "type": "address"
            },
            {
              "internalType": "uint256",
              "name": "balanceOf",
              "type": "uint256"
            },
            {
              "internalType": "uint256",
              "name": "borrowBalanceCurrent",
              "type": "uint256"
            },
            {
              "internalType": "uint256",
              "name": "balanceOfUnderlying",
              "type": "uint256"
            },
            {
              "internalType": "uint256",
              "name": "tokenBalance",
              "type": "uint256"
            },
            {
              "internalType": "uint256",
              "name": "tokenAllowance",
              "type": "uint256"
            }
          ],
          "internalType": "struct VenusLens.VTokenBalances[]",
          "name": "",
          "type": "tuple[]"
        }
      ],
      "stateMutability": "nonpayable",
      "type": "function"
    },
    {
      "inputs": [
        {
          "internalType": "contract VToken",
          "name": "vToken",
          "type": "address"
        }
      ],
      "name": "vTokenMetadata",
      "outputs": [
        {
          "components": [
            {
              "internalType": "address",
              "name": "vToken",
              "type": "address"
            },
            {
              "internalType": "uint256",
              "name": "exchangeRateCurrent",
              "type": "uint256"
            },
            {
              "internalType": "uint256",
              "name": "supplyRatePerBlock",
              "type": "uint256"
            },
            {
              "internalType": "uint256",
              "name": "borrowRatePerBlock",
              "type": "uint256"
            },
            {
              "internalType": "uint256",
              "name": "reserveFactorMantissa",
              "type": "uint256"
            },
            {
              "internalType": "uint256",
              "name": "totalBorrows",
              "type": "uint256"
            },
            {
              "internalType": "uint256",
              "name": "totalReserves",
              "type": "uint256"
            },
            {
              "internalType": "uint256",
              "name": "totalSupply",
              "type": "uint256"
            },
            {
              "internalType": "uint256",
              "name": "totalCash",
              "type": "uint256"
            },
            {
              "internalType": "bool",
              "name": "isListed",
              "type": "bool"
            },
            {
              "internalType": "uint256",
              "name": "collateralFactorMantissa",
              "type": "uint256"
            },
            {
              "internalType": "address",
              "name": "underlyingAssetAddress",
              "type": "address"
            },
            {
              "internalType": "uint256",
              "name": "vTokenDecimals",
              "type": "uint256"
            },
            {
              "internalType": "uint256",
              "name": "underlyingDecimals",
              "type": "uint256"
            },
            {
              "internalType": "uint256",
              "name": "venusSupplySpeed",
              "type": "uint256"
            },
            {
              "internalType": "uint256",
              "name": "venusBorrowSpeed",
              "type": "uint256"
            },
            {
              "internalType": "uint256",
              "name": "dailySupplyXvs",
              "type": "uint256"
            },
            {
              "internalType": "uint256",
              "name": "dailyBorrowXvs",
              "type": "uint256"
            },
            {
              "internalType": "uint256",
              "name": "pausedActions",
              "type": "uint256"
            }
          ],
          "internalType": "struct VenusLens.VTokenMetadata",
          "name": "",
          "type": "tuple"
        }
      ],
      "stateMutability": "nonpayable",
      "type": "function"
    },
    {
      "inputs": [
        {
          "internalType": "contract VToken[]",
          "name": "vTokens",
          "type": "address[]"
        }
      ],
      "name": "vTokenMetadataAll",
      "outputs": [
        {
          "components": [
            {
              "internalType": "address",
              "name": "vToken",
              "type": "address"
            },
            {
              "internalType": "uint256",
              "name": "exchangeRateCurrent",
              "type": "uint256"
            },
            {
              "internalType": "uint256",
              "name": "supplyRatePerBlock",
              "type": "uint256"
            },
            {
              "internalType": "uint256",
              "name": "borrowRatePerBlock",
              "type": "uint256"
            },
            {
              "internalType": "uint256",
              "name": "reserveFactorMantissa",
              "type": "uint256"
            },
            {
              "internalType": "uint256",
              "name": "totalBorrows",
              "type": "uint256"
            },
            {
              "internalType": "uint256",
              "name": "totalReserves",
              "type": "uint256"
            },
            {
              "internalType": "uint256",
              "name": "totalSupply",
              "type": "uint256"
            },
            {
              "internalType": "uint256",
              "name": "totalCash",
              "type": "uint256"
            },
            {
              "internalType": "bool",
              "name": "isListed",
              "type": "bool"
            },
            {
              "internalType": "uint256",
              "name": "collateralFactorMantissa",
              "type": "uint256"
            },
            {
              "internalType": "address",
              "name": "underlyingAssetAddress",
              "type": "address"
            },
            {
              "internalType": "uint256",
              "name": "vTokenDecimals",
              "type": "uint256"
            },
            {
              "internalType": "uint256",
              "name": "underlyingDecimals",
              "type": "uint256"
            },
            {
              "internalType": "uint256",
              "name": "venusSupplySpeed",
              "type": "uint256"
            },
            {
              "internalType": "uint256",
              "name": "venusBorrowSpeed",
              "type": "uint256"
            },
            {
              "internalType": "uint256",
              "name": "dailySupplyXvs",
              "type": "uint256"
            },
            {
              "internalType": "uint256",
              "name": "dailyBorrowXvs",
              "type": "uint256"
            },
            {
              "internalType": "uint256",
              "name": "pausedActions",
              "type": "uint256"
            }
          ],
          "internalType": "struct VenusLens.VTokenMetadata[]",
          "name": "",
          "type": "tuple[]"
        }
      ],
      "stateMutability": "nonpayable",
      "type": "function"
    },
    {
      "inputs": [
        {
          "internalType": "contract VToken",
          "name": "vToken",
          "type": "address"
        }
      ],
      "name": "vTokenUnderlyingPrice",
      "outputs": [
        {
          "components": [
            {
              "internalType": "address",
              "name": "vToken",
              "type": "address"
            },
            {
              "internalType": "uint256",
              "name": "underlyingPrice",
              "type": "uint256"
            }
          ],
          "internalType": "struct VenusLens.VTokenUnderlyingPrice",
          "name": "",
          "type": "tuple"
        }
      ],
      "stateMutability": "view",
      "type": "function"
    },
    {
      "inputs": [
        {
          "internalType": "contract VToken[]",
          "name": "vTokens",
          "type": "address[]"
        }
      ],
      "name": "vTokenUnderlyingPriceAll",
      "outputs": [
        {
          "components": [
            {
              "internalType": "address",
              "name": "vToken",
              "type": "address"
            },
            {
              "internalType": "uint256",
              "name": "underlyingPrice",
              "type": "uint256"
            }
          ],
          "internalType": "struct VenusLens.VTokenUnderlyingPrice[]",
          "name": "",
          "type": "tuple[]"
        }
      ],
      "stateMutability": "view",
      "type": "function"
    }
  ],
  "transactionHash": "0xa4a0a8b33a957c565ae306dae1dee363661eaa95852acfd701046a93bdb20147",
  "args": [],
  "numDeployments": 4,
  "solcInputHash": "044dc7a340dfc156c37565adf2cf641a",
  "bytecode": "0x6080604052348015600e575f80fd5b5061413b8061001c5f395ff3fe608060405234801561000f575f80fd5b50600436106100fb575f3560e01c8063aa5dbd2311610093578063e09744c611610063578063e09744c61461025a578063e0a67f11146102a9578063f40c2777146102c9578063fbd88b4614610307575f80fd5b8063aa5dbd23146101e7578063b312423914610207578063b814a8a614610227578063cbb1f5e91461023a575f80fd5b80637c84e3b3116100ce5780637c84e3b3146101675780637dd8f6d91461018757806380ac8228146101a7578063a9ac4179146101c7575f80fd5b80631f884fdf146100ff5780635a89b0e7146101285780636bb987fe1461013e5780637c51b64214610147575b5f80fd5b61011261010d3660046134ae565b610327565b60405161011f91906134ec565b60405180910390f35b610130600881565b60405190815260200161011f565b61013061708081565b61015a610155366004613562565b6103ee565b60405161011f91906135f4565b61017a610175366004613641565b6104b1565b60405161011f919061365c565b61019a61019536600461367c565b610612565b60405161011f91906136b3565b6101ba6101b536600461367c565b61078a565b60405161011f9190613721565b6101da6101d5366004613641565b610d18565b60405161011f91906138af565b6101fa6101f5366004613641565b610ef9565b60405161011f9190613a2b565b61021a61021536600461367c565b611748565b60405161011f9190613a3a565b61013061023536600461367c565b611a7a565b61024d610248366004613a5c565b611d4d565b60405161011f9190613a78565b61026d610268366004613a8a565b612167565b60405161011f919081518152602080830151908201526040808301516001600160a01b0316908201526060918201519181019190915260800190565b6102bc6102b73660046134ae565b6124af565b60405161011f9190613ac7565b6102dc6102d736600461367c565b612560565b604080518251815260208084015190820152918101516001600160a01b03169082015260600161011f565b61031a610315366004613b09565b6126f8565b60405161011f9190613b69565b6060815f816001600160401b0381111561034357610343613baa565b60405190808252806020026020018201604052801561038757816020015b604080518082019091525f80825260208201528152602001906001900390816103615790505b5090505f5b828110156103e3576103be8686838181106103a9576103a9613bbe565b90506020020160208101906101759190613641565b8282815181106103d0576103d0613bbe565b602090810291909101015260010161038c565b509150505b92915050565b6060825f816001600160401b0381111561040a5761040a613baa565b60405190808252806020026020018201604052801561044357816020015b61043061339b565b8152602001906001900390816104285790505b5090505f5b828110156104a55761048087878381811061046557610465613bbe565b905060200201602081019061047a9190613641565b86611748565b82828151811061049257610492613bbe565b6020908102919091010152600101610448565b509150505b9392505050565b604080518082019091525f80825260208201525f826001600160a01b0316635fe3b5676040518163ffffffff1660e01b8152600401602060405180830381865afa158015610501573d5f803e3d5ffd5b505050506040513d601f19601f820116820180604052508101906105259190613bd2565b90505f816001600160a01b0316637dc0d1d06040518163ffffffff1660e01b8152600401602060405180830381865afa158015610564573d5f803e3d5ffd5b505050506040513d601f19601f820116820180604052508101906105889190613bd2565b6040805180820182526001600160a01b03808816808352925163fc57d4df60e01b815260048101939093529293509160208301919084169063fc57d4df90602401602060405180830381865afa1580156105e4573d5f803e3d5ffd5b505050506040513d601f19601f820116820180604052508101906106089190613bed565b9052949350505050565b6106346040518060600160405280606081526020015f81526020015f81525090565b604051635ec88c7960e01b81526001600160a01b0383811660048301525f918291829190871690635ec88c7990602401606060405180830381865afa15801561067f573d5f803e3d5ffd5b505050506040513d601f19601f820116820180604052508101906106a39190613c04565b925092509250825f146106fd5760405162461bcd60e51b815260206004820152601760248201527f6163636f756e74206c6971756964697479206572726f7200000000000000000060448201526064015b60405180910390fd5b604080516060810191829052632aff3bff60e21b9091526001600160a01b0386811660648301528190881663abfceffc608483015f60405180830381865afa15801561074b573d5f803e3d5ffd5b505050506040513d5f823e601f3d908101601f191682016040526107729190810190613c81565b81526020810193909352604090920152949350505050565b604080516080810182525f80825260208201819052918101919091526060808201525f826001600160a01b031663b0772d0b6040518163ffffffff1660e01b81526004015f60405180830381865afa1580156107e8573d5f803e3d5ffd5b505050506040513d5f823e601f3d908101601f1916820160405261080f9190810190613c81565b6040805160a0810182525f8082526020808301829052828401829052606080840183905260808085018490528551908101865280830184905280860193909352828101526001600160a01b038816808352845163bf32442d60e01b815294519596509294919363bf32442d92600480830193928290030181865afa158015610899573d5f803e3d5ffd5b505050506040513d601f19601f820116820180604052508101906108bd9190613bd2565b6001600160a01b039081166020830152604051638a7dc16560e01b8152878216600482015290861690638a7dc16590602401602060405180830381865afa15801561090a573d5f803e3d5ffd5b505050506040513d601f19601f8201168201806040525081019061092e9190613bed565b604082015282516001600160401b0381111561094c5761094c613baa565b60405190808252806020026020018201604052801561099057816020015b604080518082019091525f808252602082015281526020019060019003908161096a5790505b5060608201525f5b8351811015610d0e57856001600160a01b031663e37d4b798583815181106109c2576109c2613bbe565b60200260200101516040518263ffffffff1660e01b81526004016109f591906001600160a01b0391909116815260200190565b6040805180830381865afa158015610a0f573d5f803e3d5ffd5b505050506040513d601f19601f82011682018060405250810190610a339190613d46565b63ffffffff90811660408087019182526001600160e01b03938416602080890191825282518084019093529051909416815290519091169181019190915284516001600160a01b0388169063b8324c7c90879085908110610a9657610a96613bbe565b60200260200101516040518263ffffffff1660e01b8152600401610ac991906001600160a01b0391909116815260200190565b6040805180830381865afa158015610ae3573d5f803e3d5ffd5b505050506040513d601f19601f82011682018060405250810190610b079190613d46565b85606001866080018263ffffffff1663ffffffff16815250826001600160e01b03166001600160e01b031681525050505f604051806040016040528086606001516001600160e01b03168152602001866080015163ffffffff1681525090505f6040518060200160405280888681518110610b8457610b84613bbe565b60200260200101516001600160a01b031663aa5af0fd6040518163ffffffff1660e01b8152600401602060405180830381865afa158015610bc7573d5f803e3d5ffd5b505050506040513d601f19601f82011682018060405250810190610beb9190613bed565b9052604080518082019091525f8082526020820152909150878581518110610c1557610c15613bbe565b60209081029190910101516001600160a01b031681528751610c549085908a9088908110610c4557610c45613bbe565b6020026020010151848d61287a565b5f610c7b858a8881518110610c6b57610c6b613bbe565b60200260200101518e868f612ac0565b9050610ca1848a8881518110610c9357610c93613bbe565b60200260200101518d612c0c565b5f610cc7858b8981518110610cb857610cb8613bbe565b60200260200101518f8f612e48565b9050610cd38282612ff4565b60208401526060880151805184919089908110610cf257610cf2613bbe565b6020026020010181905250505050505050806001019050610998565b5095945050505050565b60605f826001600160a01b031663a657e5796040518163ffffffff1660e01b8152600401602060405180830381865afa158015610d57573d5f803e3d5ffd5b505050506040513d601f19601f82011682018060405250810190610d7b9190613d70565b9050806001600160601b03166001600160401b03811115610d9e57610d9e613baa565b604051908082528060200260200182016040528015610dfb57816020015b610de860405180606001604052805f6001600160601b0316815260200160608152602001606081525090565b815260200190600190039081610dbc5790505b50915060015b816001600160601b0316816001600160601b031611610ef257604080516060810182526001600160601b03831680825291516325b2641960e21b815260048101929092529060208201906001600160a01b038716906396c99064906024015f60405180830381865afa158015610e79573d5f803e3d5ffd5b505050506040513d5f823e601f3d908101601f19168201604052610ea09190810190613d8b565b8152602001610eaf8387611d4d565b905283610ebd600184613e2d565b6001600160601b031681518110610ed657610ed6613bbe565b602002602001018190525080610eeb90613e54565b9050610e01565b5050919050565b610f016133d4565b5f826001600160a01b031663bd6d894d6040518163ffffffff1660e01b81526004016020604051808303815f875af1158015610f3f573d5f803e3d5ffd5b505050506040513d601f19601f82011682018060405250810190610f639190613bed565b90505f836001600160a01b0316635fe3b5676040518163ffffffff1660e01b8152600401602060405180830381865afa158015610fa2573d5f803e3d5ffd5b505050506040513d601f19601f82011682018060405250810190610fc69190613bd2565b604051638e8f294b60e01b81526001600160a01b03868116600483015291925082915f918291841690638e8f294b906024016040805180830381865afa158015611012573d5f803e3d5ffd5b505050506040513d601f19601f820116820180604052508101906110369190613e88565b915091505f806110c3896001600160a01b03166395d89b416040518163ffffffff1660e01b81526004015f60405180830381865afa15801561107a573d5f803e3d5ffd5b505050506040513d5f823e601f3d908101601f191682016040526110a19190810190613d8b565b604051806040016040528060048152602001633b21272160e11b815250613029565b156110d357505f905060126111ff565b5f899050806001600160a01b0316636f307dc36040518163ffffffff1660e01b8152600401602060405180830381865afa158015611113573d5f803e3d5ffd5b505050506040513d601f19601f820116820180604052508101906111379190613bd2565b9250806001600160a01b0316636f307dc36040518163ffffffff1660e01b8152600401602060405180830381865afa158015611175573d5f803e3d5ffd5b505050506040513d601f19601f820116820180604052508101906111999190613bd2565b6001600160a01b031663313ce5676040518163ffffffff1660e01b8152600401602060405180830381865afa1580156111d4573d5f803e3d5ffd5b505050506040513d601f19601f820116820180604052508101906111f89190613eb2565b60ff169150505b604051635dd3fc9d60e01b81526001600160a01b038a811660048301525f9190871690635dd3fc9d90602401602060405180830381865afa158015611246573d5f803e3d5ffd5b505050506040513d601f19601f8201168201806040525081019061126a9190613bed565b604051635ddc432560e11b81526001600160a01b038c811660048301529192505f9188169063bbb8864a90602401602060405180830381865afa1580156112b3573d5f803e3d5ffd5b505050506040513d601f19601f820116820180604052508101906112d79190613bed565b90505f805b60088160ff1611611395575f896001600160a01b031663e85a29608f8460ff16600881111561130d5761130d613ed2565b6040518363ffffffff1660e01b815260040161132a929190613ee6565b602060405180830381865afa158015611345573d5f803e3d5ffd5b505050506040513d601f19601f820116820180604052508101906113699190613f1f565b611373575f611376565b60015b60ff9081169083161b92909217915061138e81613f38565b90506112dc565b506040518061026001604052808d6001600160a01b031681526020018b81526020018d6001600160a01b031663ae9d70b06040518163ffffffff1660e01b8152600401602060405180830381865afa1580156113f3573d5f803e3d5ffd5b505050506040513d601f19601f820116820180604052508101906114179190613bed565b81526020018d6001600160a01b031663f8f9da286040518163ffffffff1660e01b8152600401602060405180830381865afa158015611458573d5f803e3d5ffd5b505050506040513d601f19601f8201168201806040525081019061147c9190613bed565b81526020018d6001600160a01b031663173b99046040518163ffffffff1660e01b8152600401602060405180830381865afa1580156114bd573d5f803e3d5ffd5b505050506040513d601f19601f820116820180604052508101906114e19190613bed565b81526020018d6001600160a01b03166347bd37186040518163ffffffff1660e01b8152600401602060405180830381865afa158015611522573d5f803e3d5ffd5b505050506040513d601f19601f820116820180604052508101906115469190613bed565b81526020018d6001600160a01b0316638f840ddd6040518163ffffffff1660e01b8152600401602060405180830381865afa158015611587573d5f803e3d5ffd5b505050506040513d601f19601f820116820180604052508101906115ab9190613bed565b81526020018d6001600160a01b03166318160ddd6040518163ffffffff1660e01b8152600401602060405180830381865afa1580156115ec573d5f803e3d5ffd5b505050506040513d601f19601f820116820180604052508101906116109190613bed565b81526020018d6001600160a01b0316633b1d21a26040518163ffffffff1660e01b8152600401602060405180830381865afa158015611651573d5f803e3d5ffd5b505050506040513d601f19601f820116820180604052508101906116759190613bed565b81526020018815158152602001878152602001866001600160a01b031681526020018d6001600160a01b031663313ce5676040518163ffffffff1660e01b8152600401602060405180830381865afa1580156116d3573d5f803e3d5ffd5b505050506040513d601f19601f820116820180604052508101906116f79190613eb2565b60ff1681526020018581526020018481526020018381526020016170808561171f9190613f56565b815260200161173061708085613f56565b8152602001919091529b9a5050505050505050505050565b61175061339b565b6040516370a0823160e01b81526001600160a01b0383811660048301525f91908516906370a0823190602401602060405180830381865afa158015611797573d5f803e3d5ffd5b505050506040513d601f19601f820116820180604052508101906117bb9190613bed565b6040516305eff7ef60e21b81526001600160a01b0385811660048301529192505f918616906317bfdfbc906024016020604051808303815f875af1158015611805573d5f803e3d5ffd5b505050506040513d601f19601f820116820180604052508101906118299190613bed565b604051633af9e66960e01b81526001600160a01b0386811660048301529192505f91871690633af9e669906024016020604051808303815f875af1158015611873573d5f803e3d5ffd5b505050506040513d601f19601f820116820180604052508101906118979190613bed565b90505f806118d9886001600160a01b03166395d89b416040518163ffffffff1660e01b81526004015f60405180830381865afa15801561107a573d5f803e3d5ffd5b156118f35750506001600160a01b03851680319031611a3d565b5f8890505f816001600160a01b0316636f307dc36040518163ffffffff1660e01b8152600401602060405180830381865afa158015611934573d5f803e3d5ffd5b505050506040513d601f19601f820116820180604052508101906119589190613bd2565b6040516370a0823160e01b81526001600160a01b038b81166004830152919250908216906370a0823190602401602060405180830381865afa1580156119a0573d5f803e3d5ffd5b505050506040513d601f19601f820116820180604052508101906119c49190613bed565b604051636eb1769f60e11b81526001600160a01b038b811660048301528c811660248301529195509082169063dd62ed3e90604401602060405180830381865afa158015611a14573d5f803e3d5ffd5b505050506040513d601f19601f82011682018060405250810190611a389190613bed565b925050505b6040805160c0810182526001600160a01b039990991689526020890195909552938701929092526060860152608085015260a08401525090919050565b5f808290505f816001600160a01b031663b0772d0b6040518163ffffffff1660e01b81526004015f60405180830381865afa158015611abb573d5f803e3d5ffd5b505050506040513d5f823e601f3d908101601f19168201604052611ae29190810190613c81565b90505f805b8251811015610d0e575f838281518110611b0357611b03613bbe565b60200260200101519050611b94816001600160a01b03166395d89b416040518163ffffffff1660e01b81526004015f60405180830381865afa158015611b4b573d5f803e3d5ffd5b505050506040513d5f823e601f3d908101601f19168201604052611b729190810190613d8b565b604051806040016040528060048152602001631d9554d560e21b815250613029565b158015611c265750611c24816001600160a01b03166395d89b416040518163ffffffff1660e01b81526004015f60405180830381865afa158015611bda573d5f803e3d5ffd5b505050506040513d5f823e601f3d908101601f19168201604052611c019190810190613d8b565b60405180604001604052806005815260200164764c554e4160d81b815250613029565b155b15611d44575f611c3582610ef9565b90505f611c42838b611748565b90505f611c4e846104b1565b90505f816020015190505f60405180602001604052808381525090505f80611c7a838760600151613081565b90505f670de0b6b3a764000088602001518960e00151611c9a9190613f56565b611ca49190613f6d565b90505f611cb18583613081565b90508015611cd85780838a6102000151611ccb9190613f56565b611cd59190613f6d565b93505b5f80611ce8878b60400151613081565b90505f611cf9888d60a00151613081565b90508015611d205780828d6102200151611d139190613f56565b611d1d9190613f6d565b92505b611d2a8388613f8c565b8f611d359190613f8c565b9e505050505050505050505050505b50600101611ae7565b6060816001600160a01b031663a657e5796040518163ffffffff1660e01b8152600401602060405180830381865afa158015611d8b573d5f803e3d5ffd5b505050506040513d601f19601f82011682018060405250810190611daf9190613d70565b6001600160601b0316836001600160601b03161115611dec57604051632db8671b60e11b81526001600160601b03841660048201526024016106f4565b816001600160a01b031663d463654c6040518163ffffffff1660e01b8152600401602060405180830381865afa158015611e28573d5f803e3d5ffd5b505050506040513d601f19601f82011682018060405250810190611e4c9190613d70565b6001600160601b0316836001600160601b031603611e7d57604051630203217b60e61b815260040160405180910390fd5b6040516318f8358d60e21b81526001600160601b03841660048201525f906001600160a01b038416906363e0d634906024015f60405180830381865afa158015611ec9573d5f803e3d5ffd5b505050506040513d5f823e601f3d908101601f19168201604052611ef09190810190613f9f565b8051909150806001600160401b03811115611f0d57611f0d613baa565b604051908082528060200260200182016040528015611f8257816020015b60408051610120810182525f8082526060602080840182905293830182905282018190526080820181905260a0820181905260c0820181905260e0820181905261010082015282525f19909201910181611f2b5790505b506040516325b2641960e21b81526001600160601b03871660048201529093505f906001600160a01b038616906396c99064906024015f60405180830381865afa158015611fd2573d5f803e3d5ffd5b505050506040513d5f823e601f3d908101601f19168201604052611ff99190810190613d8b565b90505f5b8281101561215d575f805f805f805f8c6001600160a01b0316633093c11e8f8d8b8151811061202e5761202e613bbe565b60200260200101516040518363ffffffff1660e01b81526004016120709291906001600160601b039290921682526001600160a01b0316602082015260400190565b60e060405180830381865afa15801561208b573d5f803e3d5ffd5b505050506040513d601f19601f820116820180604052508101906120af9190614028565b9650965096509650965096509650604051806101200160405280836001600160601b031681526020018a81526020018c8a815181106120f0576120f0613bbe565b60200260200101516001600160a01b03168152602001881515815260200187815260200186151581526020018581526020018481526020018215158152508c898151811061214057612140613bbe565b602002602001018190525050505050505050806001019050611ffd565b5050505092915050565b61219760405180608001604052805f81526020015f81526020015f6001600160a01b031681526020015f81525090565b6040516370a0823160e01b81526001600160a01b0383811660048301525f91908616906370a0823190602401602060405180830381865afa1580156121de573d5f803e3d5ffd5b505050506040513d601f19601f820116820180604052508101906122029190613bed565b60405163adcd5fb960e01b81526001600160a01b0385811660048301529192509085169063adcd5fb9906024015f604051808303815f87803b158015612246575f80fd5b505af1158015612258573d5f803e3d5ffd5b50506040516370a0823160e01b81526001600160a01b0386811660048301525f9350881691506370a0823190602401602060405180830381865afa1580156122a2573d5f803e3d5ffd5b505050506040513d601f19601f820116820180604052508101906122c69190613bed565b604051638a7dc16560e01b81526001600160a01b0386811660048301529192505f91871690638a7dc16590602401602060405180830381865afa15801561230f573d5f803e3d5ffd5b505050506040513d601f19601f820116820180604052508101906123339190613bed565b90505f61236682846040518060400160405280600d81526020016c1cdd5b481e1d9cc81d1bdd185b609a1b8152506130a0565b90505f61239982866040518060400160405280600d81526020016c1cdd5888185b1b1bd8d85d1959609a1b8152506130d9565b60408051608081018252878152905163b4b5ea5760e01b81526001600160a01b038a8116600483015292935090916020830191908c169063b4b5ea5790602401602060405180830381865afa1580156123f4573d5f803e3d5ffd5b505050506040513d601f19601f820116820180604052508101906124189190613d70565b6001600160601b03168152604051632c3e6f0f60e11b81526001600160a01b038a811660048301526020909201918c169063587cde1e90602401602060405180830381865afa15801561246d573d5f803e3d5ffd5b505050506040513d601f19601f820116820180604052508101906124919190613bd2565b6001600160a01b031681526020019190915298975050505050505050565b6060815f816001600160401b038111156124cb576124cb613baa565b60405190808252806020026020018201604052801561250457816020015b6124f16133d4565b8152602001906001900390816124e95790505b5090505f5b828110156103e35761253b86868381811061252657612526613bbe565b90506020020160208101906101f59190613641565b82828151811061254d5761254d613bbe565b6020908102919091010152600101612509565b61258a60405180606001604052805f81526020015f81526020015f6001600160a01b031681525090565b6040805160608101918290526370a0823160e01b9091526001600160a01b038381166064830152819085166370a0823160848301602060405180830381865afa1580156125d9573d5f803e3d5ffd5b505050506040513d601f19601f820116820180604052508101906125fd9190613bed565b815260405163b4b5ea5760e01b81526001600160a01b03858116600483015260209092019186169063b4b5ea5790602401602060405180830381865afa158015612649573d5f803e3d5ffd5b505050506040513d601f19601f8201168201806040525081019061266d9190613d70565b6001600160601b03168152604051632c3e6f0f60e11b81526001600160a01b03858116600483015260209092019186169063587cde1e90602401602060405180830381865afa1580156126c2573d5f803e3d5ffd5b505050506040513d601f19601f820116820180604052508101906126e69190613bd2565b6001600160a01b031690529392505050565b60605f826001600160401b0381111561271357612713613baa565b60405190808252806020026020018201604052801561275757816020015b604080518082019091525f80825260208201528152602001906001900390816127315790505b5090505f5b83811015610d0e57604051806040016040528086868481811061278157612781613bbe565b90506020020160208101906127969190614096565b63ffffffff168152602001886001600160a01b031663782d6fe1898989878181106127c3576127c3613bbe565b90506020020160208101906127d89190614096565b6040516001600160e01b031960e085901b1681526001600160a01b03909216600483015263ffffffff166024820152604401602060405180830381865afa158015612825573d5f803e3d5ffd5b505050506040513d601f19601f820116820180604052508101906128499190613d70565b6001600160601b031681525082828151811061286757612867613bbe565b602090810291909101015260010161275c565b604051635ddc432560e11b81526001600160a01b0384811660048301525f919083169063bbb8864a90602401602060405180830381865afa1580156128c1573d5f803e3d5ffd5b505050506040513d601f19601f820116820180604052508101906128e59190613bed565b90505f4390505f61290082886020015163ffffffff16613107565b90505f8111801561291057505f83115b15612a6d575f61297f876001600160a01b03166347bd37186040518163ffffffff1660e01b8152600401602060405180830381865afa158015612955573d5f803e3d5ffd5b505050506040513d601f19601f820116820180604052508101906129799190613bed565b87613140565b90505f61298c838661315d565b90505f8083116129aa5760405180602001604052805f8152506129b4565b6129b4828461319e565b90505f6129db60405180602001604052808d5f01516001600160e01b0316815250836131e2565b9050612a15815f0151604051806040016040528060138152602001726e657720696e646578206f766572666c6f777360681b81525061320b565b6001600160e01b03168b52604080518082019091526016815275626c6f636b206e756d626572206f766572666c6f777360501b6020820152612a58908790613239565b63ffffffff1660208c015250612ab792505050565b8015612ab757612aab8260405180604001604052806016815260200175626c6f636b206e756d626572206f766572666c6f777360501b815250613239565b63ffffffff1660208801525b50505050505050565b604080516020808201835287516001600160e01b03168252825190810192839052630238089760e21b9092526001600160a01b03868116602484015285811660448401525f928391819086166308e0225c60648301602060405180830381865afa158015612b30573d5f803e3d5ffd5b505050506040513d601f19601f82011682018060405250810190612b549190613bed565b9052805190915015612bfd575f612b6b8383613260565b6040516395dd919360e01b81526001600160a01b0389811660048301529192505f91612be391908b16906395dd919390602401602060405180830381865afa158015612bb9573d5f803e3d5ffd5b505050506040513d601f19601f82011682018060405250810190612bdd9190613bed565b88613140565b90505f612bf08284613289565b9550612c03945050505050565b5f925050505b95945050505050565b604051635dd3fc9d60e01b81526001600160a01b0383811660048301525f9190831690635dd3fc9d90602401602060405180830381865afa158015612c53573d5f803e3d5ffd5b505050506040513d601f19601f82011682018060405250810190612c779190613bed565b90505f4390505f612c9282876020015163ffffffff16613107565b90505f81118015612ca257505f83115b15612df6575f856001600160a01b03166318160ddd6040518163ffffffff1660e01b8152600401602060405180830381865afa158015612ce4573d5f803e3d5ffd5b505050506040513d601f19601f82011682018060405250810190612d089190613bed565b90505f612d15838661315d565b90505f808311612d335760405180602001604052805f815250612d3d565b612d3d828461319e565b90505f612d6460405180602001604052808c5f01516001600160e01b0316815250836131e2565b9050612d9e815f0151604051806040016040528060138152602001726e657720696e646578206f766572666c6f777360681b81525061320b565b6001600160e01b03168a52604080518082019091526016815275626c6f636b206e756d626572206f766572666c6f777360501b6020820152612de1908790613239565b63ffffffff1660208b015250612e4092505050565b8015612e4057612e348260405180604001604052806016815260200175626c6f636b206e756d626572206f766572666c6f777360501b815250613239565b63ffffffff1660208701525b505050505050565b604080516020808201835286516001600160e01b03168252825190810192839052631068634b60e21b9092526001600160a01b03858116602484015284811660448401525f928391819086166341a18d2c60648301602060405180830381865afa158015612eb8573d5f803e3d5ffd5b505050506040513d601f19601f82011682018060405250810190612edc9190613bed565b90528051909150158015612ef05750815115155b15612f6157836001600160a01b031663c5b4db556040518163ffffffff1660e01b8152600401602060405180830381865afa158015612f31573d5f803e3d5ffd5b505050506040513d601f19601f82011682018060405250810190612f5591906140b1565b6001600160e01b031681525b5f612f6c8383613260565b6040516370a0823160e01b81526001600160a01b0388811660048301529192505f918916906370a0823190602401602060405180830381865afa158015612fb5573d5f803e3d5ffd5b505050506040513d601f19601f82011682018060405250810190612fd99190613bed565b90505f612fe68284613289565b9a9950505050505050505050565b5f6104aa8383604051806040016040528060118152602001706164646974696f6e206f766572666c6f7760781b8152506130a0565b5f8160405160200161303b91906140ca565b604051602081830303815290604052805190602001208360405160200161306291906140ca565b6040516020818303038152906040528051906020012014905092915050565b5f8061308d84846132b1565b9050613098816132d7565b949350505050565b5f806130ac8486613f8c565b905082858210156130d05760405162461bcd60e51b81526004016106f491906140e0565b50949350505050565b5f81848411156130fc5760405162461bcd60e51b81526004016106f491906140e0565b5061309883856140f2565b5f6104aa8383604051806040016040528060158152602001747375627472616374696f6e20756e646572666c6f7760581b8152506130d9565b5f6104aa61315684670de0b6b3a764000061315d565b83516132ee565b5f6104aa83836040518060400160405280601781526020017f6d756c7469706c69636174696f6e206f766572666c6f77000000000000000000815250613320565b60408051602081019091525f815260405180602001604052806131d96131d3866ec097ce7bc90715b34b9f100000000061315d565b856132ee565b90529392505050565b60408051602081019091525f815260405180602001604052806131d9855f0151855f0151612ff4565b5f81600160e01b84106132315760405162461bcd60e51b81526004016106f491906140e0565b509192915050565b5f8164010000000084106132315760405162461bcd60e51b81526004016106f491906140e0565b60408051602081019091525f815260405180602001604052806131d9855f0151855f0151613107565b5f6ec097ce7bc90715b34b9f10000000006132a784845f015161315d565b6104aa9190613f6d565b60408051602081019091525f815260405180602001604052806131d9855f01518561315d565b80515f906103e890670de0b6b3a764000090613f6d565b5f6104aa83836040518060400160405280600e81526020016d646976696465206279207a65726f60901b815250613370565b5f83158061332c575082155b1561333857505f6104aa565b5f6133438486613f56565b9050836133508683613f6d565b1483906130d05760405162461bcd60e51b81526004016106f491906140e0565b5f81836133905760405162461bcd60e51b81526004016106f491906140e0565b506130988385613f6d565b6040518060c001604052805f6001600160a01b031681526020015f81526020015f81526020015f81526020015f81526020015f81525090565b6040518061026001604052805f6001600160a01b031681526020015f81526020015f81526020015f81526020015f81526020015f81526020015f81526020015f81526020015f81526020015f151581526020015f81526020015f6001600160a01b031681526020015f81526020015f81526020015f81526020015f81526020015f81526020015f81526020015f81525090565b5f8083601f840112613477575f80fd5b5081356001600160401b0381111561348d575f80fd5b6020830191508360208260051b85010111156134a7575f80fd5b9250929050565b5f80602083850312156134bf575f80fd5b82356001600160401b038111156134d4575f80fd5b6134e085828601613467565b90969095509350505050565b602080825282518282018190525f919060409081850190868401855b8281101561353e5761352e84835180516001600160a01b03168252602090810151910152565b9284019290850190600101613508565b5091979650505050505050565b6001600160a01b038116811461355f575f80fd5b50565b5f805f60408486031215613574575f80fd5b83356001600160401b03811115613589575f80fd5b61359586828701613467565b90945092505060208401356135a98161354b565b809150509250925092565b80516001600160a01b031682526020808201519083015260408082015190830152606080820151908301526080808201519083015260a090810151910152565b602080825282518282018190525f9190848201906040850190845b81811015613635576136228385516135b4565b9284019260c0929092019160010161360f565b50909695505050505050565b5f60208284031215613651575f80fd5b81356104aa8161354b565b81516001600160a01b0316815260208083015190820152604081016103e8565b5f806040838503121561368d575f80fd5b82356136988161354b565b915060208301356136a88161354b565b809150509250929050565b602080825282516060838301528051608084018190525f9291820190839060a08601905b808310156137005783516001600160a01b031682529284019260019290920191908401906136d7565b50838701516040870152604087015160608701528094505050505092915050565b602080825282516001600160a01b0390811683830152838201511660408084019190915280840151606080850191909152840151608080850152805160a085018190525f939291830191849160c0870191905b808410156137ae5761379a83865180516001600160a01b03168252602090810151910152565b938501936001939093019291810191613774565b5090979650505050505050565b5f81518084528060208401602086015e5f602082860101526020601f19601f83011685010191505092915050565b5f82825180855260208086019550808260051b8401018186015f5b848110156137ae57858303601f19018952815180516001600160601b0316845261012085820151818787015261383c828701826137bb565b915050604080830151613859828801826001600160a01b03169052565b50506060828101511515908601526080808301519086015260a08083015115159086015260c0808301519086015260e0808301519086015261010091820151151591909401529783019790830190600101613804565b5f60208083018184528085518083526040925060408601915060408160051b8701018488015f5b8381101561393b57603f19898403018552815160606001600160601b03825116855288820151818a87015261390d828701826137bb565b9150508782015191508481038886015261392781836137e9565b9689019694505050908601906001016138d6565b509098975050505050505050565b80516001600160a01b031682526020810151602083015260408101516040830152606081015160608301526080810151608083015260a081015160a083015260c081015160c083015260e081015160e0830152610100808201518184015250610120808201516139bc8285018215159052565b50506101408181015190830152610160808201516001600160a01b03169083015261018080820151908301526101a080820151908301526101c080820151908301526101e080820151908301526102008082015190830152610220808201519083015261024090810151910152565b61026081016103e88284613949565b60c081016103e882846135b4565b6001600160601b038116811461355f575f80fd5b5f8060408385031215613a6d575f80fd5b823561369881613a48565b602081525f6104aa60208301846137e9565b5f805f60608486031215613a9c575f80fd5b8335613aa78161354b565b92506020840135613ab78161354b565b915060408401356135a98161354b565b602080825282518282018190525f9190848201906040850190845b8181101561363557613af5838551613949565b928401926102609290920191600101613ae2565b5f805f8060608587031215613b1c575f80fd5b8435613b278161354b565b93506020850135613b378161354b565b925060408501356001600160401b03811115613b51575f80fd5b613b5d87828801613467565b95989497509550505050565b602080825282518282018190525f919060409081850190868401855b8281101561353e57815180518552860151868501529284019290850190600101613b85565b634e487b7160e01b5f52604160045260245ffd5b634e487b7160e01b5f52603260045260245ffd5b5f60208284031215613be2575f80fd5b81516104aa8161354b565b5f60208284031215613bfd575f80fd5b5051919050565b5f805f60608486031215613c16575f80fd5b8351925060208401519150604084015190509250925092565b604051601f8201601f191681016001600160401b0381118282101715613c5757613c57613baa565b604052919050565b5f6001600160401b03821115613c7757613c77613baa565b5060051b60200190565b5f6020808385031215613c92575f80fd5b82516001600160401b03811115613ca7575f80fd5b8301601f81018513613cb7575f80fd5b8051613cca613cc582613c5f565b613c2f565b81815260059190911b82018301908381019087831115613ce8575f80fd5b928401925b82841015613d0f578351613d008161354b565b82529284019290840190613ced565b979650505050505050565b80516001600160e01b0381168114613d30575f80fd5b919050565b63ffffffff8116811461355f575f80fd5b5f8060408385031215613d57575f80fd5b613d6083613d1a565b915060208301516136a881613d35565b5f60208284031215613d80575f80fd5b81516104aa81613a48565b5f6020808385031215613d9c575f80fd5b82516001600160401b0380821115613db2575f80fd5b818501915085601f830112613dc5575f80fd5b815181811115613dd757613dd7613baa565b613de9601f8201601f19168501613c2f565b91508082528684828501011115613dfe575f80fd5b808484018584015e5f90820190930192909252509392505050565b634e487b7160e01b5f52601160045260245ffd5b6001600160601b03828116828216039080821115613e4d57613e4d613e19565b5092915050565b5f6001600160601b03808316818103613e6f57613e6f613e19565b6001019392505050565b80518015158114613d30575f80fd5b5f8060408385031215613e99575f80fd5b613ea283613e79565b9150602083015190509250929050565b5f60208284031215613ec2575f80fd5b815160ff811681146104aa575f80fd5b634e487b7160e01b5f52602160045260245ffd5b6001600160a01b03831681526040810160098310613f1257634e487b7160e01b5f52602160045260245ffd5b8260208301529392505050565b5f60208284031215613f2f575f80fd5b6104aa82613e79565b5f60ff821660ff8103613f4d57613f4d613e19565b60010192915050565b80820281158282048414176103e8576103e8613e19565b5f82613f8757634e487b7160e01b5f52601260045260245ffd5b500490565b808201808211156103e8576103e8613e19565b5f6020808385031215613fb0575f80fd5b82516001600160401b03811115613fc5575f80fd5b8301601f81018513613fd5575f80fd5b8051613fe3613cc582613c5f565b81815260059190911b82018301908381019087831115614001575f80fd5b928401925b82841015613d0f5783516140198161354b565b82529284019290840190614006565b5f805f805f805f60e0888a03121561403e575f80fd5b61404788613e79565b96506020880151955061405c60408901613e79565b9450606088015193506080880151925060a088015161407a81613a48565b915061408860c08901613e79565b905092959891949750929550565b5f602082840312156140a6575f80fd5b81356104aa81613d35565b5f602082840312156140c1575f80fd5b6104aa82613d1a565b5f82518060208501845e5f920191825250919050565b602081525f6104aa60208301846137bb565b818103818111156103e8576103e8613e1956fea264697066735822122070de10234a2c30ccdad7bb76550bf2d81b2c8a62f50e2a5599a361a7ada44ecb64736f6c63430008190033",
  "devdoc": {
    "kind": "dev",
    "methods": {
      "getAccountLimits(address,address)": {
        "params": {
          "account": "Address of the account to query",
          "comptroller": "Address of comptroller proxy"
        },
        "returns": {
          "_0": "Struct with markets user has entered, liquidity, and shortfall of the account"
        }
      },
      "getAllPoolsData(address)": {
        "params": {
          "comptroller": "The Comptroller contract to query"
        },
        "returns": {
          "poolsData": "An array of PoolWithMarkets structs, each containing pool info and its markets"
        }
      },
      "getDailyXVS(address,address)": {
        "params": {
          "account": "Address of account to fetch the daily XVS distribution",
          "comptrollerAddress": "Address of the comptroller proxy"
        },
        "returns": {
          "_0": "Amount of XVS distributed daily to an account"
        }
      },
      "getMarketsDataByPool(uint96,address)": {
        "custom:error": "PoolDoesNotExist Reverts if the given pool ID does not existInvalidOperationForCorePool Reverts if called on the Core Pool (`poolId = 0`)",
        "params": {
          "comptroller": "The address of the Comptroller contract",
          "poolId": "The pool ID to fetch data for"
        },
        "returns": {
          "result": "An array of MarketData structs containing detailed market info for the given pool"
        }
      },
      "getVenusVotes(address,address,uint32[])": {
        "params": {
          "account": "Address of the account",
          "blockNumbers": "Array of blocks to query",
          "xvs": "XVS contract address"
        },
        "returns": {
          "_0": "Array of VenusVotes structs with block number and vote count"
        }
      },
      "getXVSBalanceMetadata(address,address)": {
        "params": {
          "account": "Account address",
          "xvs": "XVS contract address"
        },
        "returns": {
          "_0": "Struct with XVS balance and voter details"
        }
      },
      "getXVSBalanceMetadataExt(address,address,address)": {
        "params": {
          "account": "Account address",
          "comptroller": "Comptroller proxy contract address",
          "xvs": "XVS contract address"
        },
        "returns": {
          "_0": "Struct with XVS balance and voter details and XVS allocation"
        }
      },
      "pendingRewards(address,address)": {
        "params": {
          "comptroller": "Address of the comptroller",
          "holder": "Account to query pending XVS"
        },
        "returns": {
          "_0": "Reward object contraining the totalRewards and pending rewards for each market"
        }
      },
      "vTokenBalances(address,address)": {
        "params": {
          "account": "Account address to fetch the balance of",
          "vToken": "Address of the token to check the balance of"
        },
        "returns": {
          "_0": "VTokenBalances with token balance information"
        }
      },
      "vTokenBalancesAll(address[],address)": {
        "params": {
          "account": "Account address to fetch the balance of",
          "vTokens": "Addresses of the tokens to check the balance of"
        },
        "returns": {
          "_0": "VTokenBalances Array with token balance information"
        }
      },
      "vTokenMetadata(address)": {
        "params": {
          "vToken": "The address of the vToken to fetch VTokenMetadata"
        },
        "returns": {
          "_0": "VTokenMetadata struct with vToken supply and borrow information."
        }
      },
      "vTokenMetadataAll(address[])": {
        "params": {
          "vTokens": "Array of vToken addresses to fetch VTokenMetadata"
        },
        "returns": {
          "_0": "Array of structs with vToken supply and borrow information."
        }
      },
      "vTokenUnderlyingPrice(address)": {
        "params": {
          "vToken": "address of the vToken"
        },
        "returns": {
          "_0": "response struct with underlyingPrice info of vToken"
        }
      },
      "vTokenUnderlyingPriceAll(address[])": {
        "params": {
          "vTokens": "Array of vToken addresses"
        },
        "returns": {
          "_0": "array of response structs with underlying price information of vTokens"
        }
      }
    },
    "version": 1
  },
  "userdoc": {
    "errors": {
      "InvalidOperationForCorePool()": [
        {
          "notice": "Thrown when trying to call pool-specific methods on the Core Pool"
        }
      ],
      "PoolDoesNotExist(uint96)": [
        {
          "notice": "Thrown when a given pool ID does not exist"
        }
      ]
    },
    "kind": "user",
    "methods": {
      "BLOCKS_PER_DAY()": {
        "notice": "Blocks Per Day"
      },
      "VTOKEN_ACTIONS()": {
        "notice": "Total actions available on VToken"
      },
      "getAccountLimits(address,address)": {
        "notice": "Query the account liquidity and shortfall of an account"
      },
      "getAllPoolsData(address)": {
        "notice": "Returns all pools (excluding the Core Pool) along with their associated market data"
      },
      "getDailyXVS(address,address)": {
        "notice": "Get amount of XVS distributed daily to an account"
      },
      "getMarketsDataByPool(uint96,address)": {
        "notice": "Retrieves full market data for all vTokens in a specific pool (excluding the Core Pool)"
      },
      "getVenusVotes(address,address,uint32[])": {
        "notice": "Query the voting power for an account at a specific list of block numbers"
      },
      "getXVSBalanceMetadata(address,address)": {
        "notice": "Query the XVSBalance info of an account"
      },
      "getXVSBalanceMetadataExt(address,address,address)": {
        "notice": "Query the XVSBalance extended info of an account"
      },
      "pendingRewards(address,address)": {
        "notice": "Calculate the total XVS tokens pending and accrued by a user account"
      },
      "vTokenBalances(address,address)": {
        "notice": "Get the current vToken balance (outstanding borrows) for an account"
      },
      "vTokenBalancesAll(address[],address)": {
        "notice": "Get the current vToken balances (outstanding borrows) for all vTokens on an account"
      },
      "vTokenMetadata(address)": {
        "notice": "Query the metadata of a vToken by its address"
      },
      "vTokenMetadataAll(address[])": {
        "notice": "Get VTokenMetadata for an array of vToken addresses"
      },
      "vTokenUnderlyingPrice(address)": {
        "notice": "Get the price for the underlying asset of a vToken"
      },
      "vTokenUnderlyingPriceAll(address[])": {
        "notice": "Query the underlyingPrice of an array of vTokens"
      }
    },
    "version": 1
  },
  "storageLayout": {
    "storage": [],
    "types": null
  }
}