{
  "address": "0x11c8dC3DcA87E8205ec01e6d79Be9442d31701d3",
  "abi": [
    {
      "constant": true,
      "inputs": [],
      "name": "BLOCKS_PER_DAY",
      "outputs": [
        {
          "internalType": "uint256",
          "name": "",
          "type": "uint256"
        }
      ],
      "payable": false,
      "stateMutability": "view",
      "type": "function"
    },
    {
      "constant": true,
      "inputs": [
        {
          "internalType": "contract ComptrollerInterface",
          "name": "comptroller",
          "type": "address"
        },
        {
          "internalType": "address",
          "name": "account",
          "type": "address"
        }
      ],
      "name": "getAccountLimits",
      "outputs": [
        {
          "components": [
            {
              "internalType": "contract VToken[]",
              "name": "markets",
              "type": "address[]"
            },
            {
              "internalType": "uint256",
              "name": "liquidity",
              "type": "uint256"
            },
            {
              "internalType": "uint256",
              "name": "shortfall",
              "type": "uint256"
            }
          ],
          "internalType": "struct VenusLens.AccountLimits",
          "name": "",
          "type": "tuple"
        }
      ],
      "payable": false,
      "stateMutability": "view",
      "type": "function"
    },
    {
      "constant": false,
      "inputs": [
        {
          "internalType": "address payable",
          "name": "account",
          "type": "address"
        },
        {
          "internalType": "address",
          "name": "comptrollerAddress",
          "type": "address"
        }
      ],
      "name": "getDailyXVS",
      "outputs": [
        {
          "internalType": "uint256",
          "name": "",
          "type": "uint256"
        }
      ],
      "payable": false,
      "stateMutability": "nonpayable",
      "type": "function"
    },
    {
      "constant": true,
      "inputs": [
        {
          "internalType": "contract GovernorAlpha",
          "name": "governor",
          "type": "address"
        },
        {
          "internalType": "uint256[]",
          "name": "proposalIds",
          "type": "uint256[]"
        }
      ],
      "name": "getGovProposals",
      "outputs": [
        {
          "components": [
            {
              "internalType": "uint256",
              "name": "proposalId",
              "type": "uint256"
            },
            {
              "internalType": "address",
              "name": "proposer",
              "type": "address"
            },
            {
              "internalType": "uint256",
              "name": "eta",
              "type": "uint256"
            },
            {
              "internalType": "address[]",
              "name": "targets",
              "type": "address[]"
            },
            {
              "internalType": "uint256[]",
              "name": "values",
              "type": "uint256[]"
            },
            {
              "internalType": "string[]",
              "name": "signatures",
              "type": "string[]"
            },
            {
              "internalType": "bytes[]",
              "name": "calldatas",
              "type": "bytes[]"
            },
            {
              "internalType": "uint256",
              "name": "startBlock",
              "type": "uint256"
            },
            {
              "internalType": "uint256",
              "name": "endBlock",
              "type": "uint256"
            },
            {
              "internalType": "uint256",
              "name": "forVotes",
              "type": "uint256"
            },
            {
              "internalType": "uint256",
              "name": "againstVotes",
              "type": "uint256"
            },
            {
              "internalType": "bool",
              "name": "canceled",
              "type": "bool"
            },
            {
              "internalType": "bool",
              "name": "executed",
              "type": "bool"
            }
          ],
          "internalType": "struct VenusLens.GovProposal[]",
          "name": "",
          "type": "tuple[]"
        }
      ],
      "payable": false,
      "stateMutability": "view",
      "type": "function"
    },
    {
      "constant": true,
      "inputs": [
        {
          "internalType": "contract GovernorAlpha",
          "name": "governor",
          "type": "address"
        },
        {
          "internalType": "address",
          "name": "voter",
          "type": "address"
        },
        {
          "internalType": "uint256[]",
          "name": "proposalIds",
          "type": "uint256[]"
        }
      ],
      "name": "getGovReceipts",
      "outputs": [
        {
          "components": [
            {
              "internalType": "uint256",
              "name": "proposalId",
              "type": "uint256"
            },
            {
              "internalType": "bool",
              "name": "hasVoted",
              "type": "bool"
            },
            {
              "internalType": "bool",
              "name": "support",
              "type": "bool"
            },
            {
              "internalType": "uint96",
              "name": "votes",
              "type": "uint96"
            }
          ],
          "internalType": "struct VenusLens.GovReceipt[]",
          "name": "",
          "type": "tuple[]"
        }
      ],
      "payable": false,
      "stateMutability": "view",
      "type": "function"
    },
    {
      "constant": true,
      "inputs": [
        {
          "internalType": "contract XVS",
          "name": "xvs",
          "type": "address"
        },
        {
          "internalType": "address",
          "name": "account",
          "type": "address"
        },
        {
          "internalType": "uint32[]",
          "name": "blockNumbers",
          "type": "uint32[]"
        }
      ],
      "name": "getVenusVotes",
      "outputs": [
        {
          "components": [
            {
              "internalType": "uint256",
              "name": "blockNumber",
              "type": "uint256"
            },
            {
              "internalType": "uint256",
              "name": "votes",
              "type": "uint256"
            }
          ],
          "internalType": "struct VenusLens.VenusVotes[]",
          "name": "",
          "type": "tuple[]"
        }
      ],
      "payable": false,
      "stateMutability": "view",
      "type": "function"
    },
    {
      "constant": true,
      "inputs": [
        {
          "internalType": "contract XVS",
          "name": "xvs",
          "type": "address"
        },
        {
          "internalType": "address",
          "name": "account",
          "type": "address"
        }
      ],
      "name": "getXVSBalanceMetadata",
      "outputs": [
        {
          "components": [
            {
              "internalType": "uint256",
              "name": "balance",
              "type": "uint256"
            },
            {
              "internalType": "uint256",
              "name": "votes",
              "type": "uint256"
            },
            {
              "internalType": "address",
              "name": "delegate",
              "type": "address"
            }
          ],
          "internalType": "struct VenusLens.XVSBalanceMetadata",
          "name": "",
          "type": "tuple"
        }
      ],
      "payable": false,
      "stateMutability": "view",
      "type": "function"
    },
    {
      "constant": false,
      "inputs": [
        {
          "internalType": "contract XVS",
          "name": "xvs",
          "type": "address"
        },
        {
          "internalType": "contract ComptrollerInterface",
          "name": "comptroller",
          "type": "address"
        },
        {
          "internalType": "address",
          "name": "account",
          "type": "address"
        }
      ],
      "name": "getXVSBalanceMetadataExt",
      "outputs": [
        {
          "components": [
            {
              "internalType": "uint256",
              "name": "balance",
              "type": "uint256"
            },
            {
              "internalType": "uint256",
              "name": "votes",
              "type": "uint256"
            },
            {
              "internalType": "address",
              "name": "delegate",
              "type": "address"
            },
            {
              "internalType": "uint256",
              "name": "allocated",
              "type": "uint256"
            }
          ],
          "internalType": "struct VenusLens.XVSBalanceMetadataExt",
          "name": "",
          "type": "tuple"
        }
      ],
      "payable": false,
      "stateMutability": "nonpayable",
      "type": "function"
    },
    {
      "constant": true,
      "inputs": [
        {
          "internalType": "address",
          "name": "holder",
          "type": "address"
        },
        {
          "internalType": "contract ComptrollerInterface",
          "name": "comptroller",
          "type": "address"
        }
      ],
      "name": "pendingRewards",
      "outputs": [
        {
          "components": [
            {
              "internalType": "address",
              "name": "distributorAddress",
              "type": "address"
            },
            {
              "internalType": "address",
              "name": "rewardTokenAddress",
              "type": "address"
            },
            {
              "internalType": "uint256",
              "name": "totalRewards",
              "type": "uint256"
            },
            {
              "components": [
                {
                  "internalType": "address",
                  "name": "vTokenAddress",
                  "type": "address"
                },
                {
                  "internalType": "uint256",
                  "name": "amount",
                  "type": "uint256"
                }
              ],
              "internalType": "struct VenusLens.PendingReward[]",
              "name": "pendingRewards",
              "type": "tuple[]"
            }
          ],
          "internalType": "struct VenusLens.RewardSummary",
          "name": "",
          "type": "tuple"
        }
      ],
      "payable": false,
      "stateMutability": "view",
      "type": "function"
    },
    {
      "constant": false,
      "inputs": [
        {
          "internalType": "contract VToken",
          "name": "vToken",
          "type": "address"
        },
        {
          "internalType": "address payable",
          "name": "account",
          "type": "address"
        }
      ],
      "name": "vTokenBalances",
      "outputs": [
        {
          "components": [
            {
              "internalType": "address",
              "name": "vToken",
              "type": "address"
            },
            {
              "internalType": "uint256",
              "name": "balanceOf",
              "type": "uint256"
            },
            {
              "internalType": "uint256",
              "name": "borrowBalanceCurrent",
              "type": "uint256"
            },
            {
              "internalType": "uint256",
              "name": "balanceOfUnderlying",
              "type": "uint256"
            },
            {
              "internalType": "uint256",
              "name": "tokenBalance",
              "type": "uint256"
            },
            {
              "internalType": "uint256",
              "name": "tokenAllowance",
              "type": "uint256"
            }
          ],
          "internalType": "struct VenusLens.VTokenBalances",
          "name": "",
          "type": "tuple"
        }
      ],
      "payable": false,
      "stateMutability": "nonpayable",
      "type": "function"
    },
    {
      "constant": false,
      "inputs": [
        {
          "internalType": "contract VToken[]",
          "name": "vTokens",
          "type": "address[]"
        },
        {
          "internalType": "address payable",
          "name": "account",
          "type": "address"
        }
      ],
      "name": "vTokenBalancesAll",
      "outputs": [
        {
          "components": [
            {
              "internalType": "address",
              "name": "vToken",
              "type": "address"
            },
            {
              "internalType": "uint256",
              "name": "balanceOf",
              "type": "uint256"
            },
            {
              "internalType": "uint256",
              "name": "borrowBalanceCurrent",
              "type": "uint256"
            },
            {
              "internalType": "uint256",
              "name": "balanceOfUnderlying",
              "type": "uint256"
            },
            {
              "internalType": "uint256",
              "name": "tokenBalance",
              "type": "uint256"
            },
            {
              "internalType": "uint256",
              "name": "tokenAllowance",
              "type": "uint256"
            }
          ],
          "internalType": "struct VenusLens.VTokenBalances[]",
          "name": "",
          "type": "tuple[]"
        }
      ],
      "payable": false,
      "stateMutability": "nonpayable",
      "type": "function"
    },
    {
      "constant": false,
      "inputs": [
        {
          "internalType": "contract VToken",
          "name": "vToken",
          "type": "address"
        }
      ],
      "name": "vTokenMetadata",
      "outputs": [
        {
          "components": [
            {
              "internalType": "address",
              "name": "vToken",
              "type": "address"
            },
            {
              "internalType": "uint256",
              "name": "exchangeRateCurrent",
              "type": "uint256"
            },
            {
              "internalType": "uint256",
              "name": "supplyRatePerBlock",
              "type": "uint256"
            },
            {
              "internalType": "uint256",
              "name": "borrowRatePerBlock",
              "type": "uint256"
            },
            {
              "internalType": "uint256",
              "name": "reserveFactorMantissa",
              "type": "uint256"
            },
            {
              "internalType": "uint256",
              "name": "totalBorrows",
              "type": "uint256"
            },
            {
              "internalType": "uint256",
              "name": "totalReserves",
              "type": "uint256"
            },
            {
              "internalType": "uint256",
              "name": "totalSupply",
              "type": "uint256"
            },
            {
              "internalType": "uint256",
              "name": "totalCash",
              "type": "uint256"
            },
            {
              "internalType": "bool",
              "name": "isListed",
              "type": "bool"
            },
            {
              "internalType": "uint256",
              "name": "collateralFactorMantissa",
              "type": "uint256"
            },
            {
              "internalType": "address",
              "name": "underlyingAssetAddress",
              "type": "address"
            },
            {
              "internalType": "uint256",
              "name": "vTokenDecimals",
              "type": "uint256"
            },
            {
              "internalType": "uint256",
              "name": "underlyingDecimals",
              "type": "uint256"
            },
            {
              "internalType": "uint256",
              "name": "venusSupplySpeed",
              "type": "uint256"
            },
            {
              "internalType": "uint256",
              "name": "venusBorrowSpeed",
              "type": "uint256"
            },
            {
              "internalType": "uint256",
              "name": "dailySupplyXvs",
              "type": "uint256"
            },
            {
              "internalType": "uint256",
              "name": "dailyBorrowXvs",
              "type": "uint256"
            }
          ],
          "internalType": "struct VenusLens.VTokenMetadata",
          "name": "",
          "type": "tuple"
        }
      ],
      "payable": false,
      "stateMutability": "nonpayable",
      "type": "function"
    },
    {
      "constant": false,
      "inputs": [
        {
          "internalType": "contract VToken[]",
          "name": "vTokens",
          "type": "address[]"
        }
      ],
      "name": "vTokenMetadataAll",
      "outputs": [
        {
          "components": [
            {
              "internalType": "address",
              "name": "vToken",
              "type": "address"
            },
            {
              "internalType": "uint256",
              "name": "exchangeRateCurrent",
              "type": "uint256"
            },
            {
              "internalType": "uint256",
              "name": "supplyRatePerBlock",
              "type": "uint256"
            },
            {
              "internalType": "uint256",
              "name": "borrowRatePerBlock",
              "type": "uint256"
            },
            {
              "internalType": "uint256",
              "name": "reserveFactorMantissa",
              "type": "uint256"
            },
            {
              "internalType": "uint256",
              "name": "totalBorrows",
              "type": "uint256"
            },
            {
              "internalType": "uint256",
              "name": "totalReserves",
              "type": "uint256"
            },
            {
              "internalType": "uint256",
              "name": "totalSupply",
              "type": "uint256"
            },
            {
              "internalType": "uint256",
              "name": "totalCash",
              "type": "uint256"
            },
            {
              "internalType": "bool",
              "name": "isListed",
              "type": "bool"
            },
            {
              "internalType": "uint256",
              "name": "collateralFactorMantissa",
              "type": "uint256"
            },
            {
              "internalType": "address",
              "name": "underlyingAssetAddress",
              "type": "address"
            },
            {
              "internalType": "uint256",
              "name": "vTokenDecimals",
              "type": "uint256"
            },
            {
              "internalType": "uint256",
              "name": "underlyingDecimals",
              "type": "uint256"
            },
            {
              "internalType": "uint256",
              "name": "venusSupplySpeed",
              "type": "uint256"
            },
            {
              "internalType": "uint256",
              "name": "venusBorrowSpeed",
              "type": "uint256"
            },
            {
              "internalType": "uint256",
              "name": "dailySupplyXvs",
              "type": "uint256"
            },
            {
              "internalType": "uint256",
              "name": "dailyBorrowXvs",
              "type": "uint256"
            }
          ],
          "internalType": "struct VenusLens.VTokenMetadata[]",
          "name": "",
          "type": "tuple[]"
        }
      ],
      "payable": false,
      "stateMutability": "nonpayable",
      "type": "function"
    },
    {
      "constant": true,
      "inputs": [
        {
          "internalType": "contract VToken",
          "name": "vToken",
          "type": "address"
        }
      ],
      "name": "vTokenUnderlyingPrice",
      "outputs": [
        {
          "components": [
            {
              "internalType": "address",
              "name": "vToken",
              "type": "address"
            },
            {
              "internalType": "uint256",
              "name": "underlyingPrice",
              "type": "uint256"
            }
          ],
          "internalType": "struct VenusLens.VTokenUnderlyingPrice",
          "name": "",
          "type": "tuple"
        }
      ],
      "payable": false,
      "stateMutability": "view",
      "type": "function"
    },
    {
      "constant": true,
      "inputs": [
        {
          "internalType": "contract VToken[]",
          "name": "vTokens",
          "type": "address[]"
        }
      ],
      "name": "vTokenUnderlyingPriceAll",
      "outputs": [
        {
          "components": [
            {
              "internalType": "address",
              "name": "vToken",
              "type": "address"
            },
            {
              "internalType": "uint256",
              "name": "underlyingPrice",
              "type": "uint256"
            }
          ],
          "internalType": "struct VenusLens.VTokenUnderlyingPrice[]",
          "name": "",
          "type": "tuple[]"
        }
      ],
      "payable": false,
      "stateMutability": "view",
      "type": "function"
    }
  ],
  "transactionHash": "0xeb3851fab7fec7d29be309403d4921f9fc298d243b7a946f3e98eadc41ded4bd",
  "args": [],
  "numDeployments": 1,
  "solcInputHash": "22d3f87b80f71a5ad7eb4adf16d8988d",
  "bytecode": "0x608060405234801561001057600080fd5b50614e26806100206000396000f3fe608060405234801561001057600080fd5b50600436106100f55760003560e01c8063995ed99f11610097578063e09744c611610066578063e09744c61461024b578063e0a67f111461026b578063f40c27771461028b578063fbd88b46146102ab576100f5565b8063995ed99f146101d8578063aa5dbd23146101f8578063b312423914610218578063b814a8a614610238576100f5565b80637c84e3b3116100d35780637c84e3b3146101585780637dd8f6d91461017857806380ac82281461019857806396994869146101b8576100f5565b80631f884fdf146100fa5780636bb987fe146101235780637c51b64214610138575b600080fd5b61010d610108366004613baf565b6102cb565b60405161011a9190614b85565b60405180910390f35b61012b610367565b60405161011a9190614c4f565b61014b610146366004613bf0565b61036d565b60405161011a9190614b63565b61016b610166366004613d94565b610410565b60405161011a9190614c25565b61018b610186366004613cc6565b6105a2565b60405161011a9190614be6565b6101ab6101a6366004613ac3565b6106fa565b60405161011a9190614bf7565b6101cb6101c6366004613d3f565b610c2e565b60405161011a9190614b41565b6101eb6101e6366004613ce5565b610dea565b60405161011a9190614b52565b61020b610206366004613d94565b610f44565b60405161011a9190614c16565b61022b610226366004613cc6565b61180e565b60405161011a9190614c08565b61012b610246366004613a89565b611bae565b61025e610259366004613e19565b611edb565b60405161011a9190614c33565b61027e610279366004613baf565b612261565b60405161011a9190614b74565b61029e610299366004613cc6565b6122f2565b60405161011a9190614c41565b6102be6102b9366004613db2565b61249b565b60405161011a9190614b96565b6040805182815260208084028201019091526060908290829082801561030b57816020015b6102f86133be565b8152602001906001900390816102f05790505b50905060005b8281101561035c5761033d86868381811061032857fe5b90506020020160206101669190810190613d94565b82828151811061034957fe5b6020908102919091010152600101610311565b509150505b92915050565b61708081565b604080518381526020808502820101909152606090839082908280156103ad57816020015b61039a6133d5565b8152602001906001900390816103925790505b50905060005b82811015610404576103e58787838181106103ca57fe5b90506020020160206103df9190810190613d94565b8661180e565b8282815181106103f157fe5b60209081029190910101526001016103b3565b509150505b9392505050565b6104186133be565b6000826001600160a01b0316635fe3b5676040518163ffffffff1660e01b815260040160206040518083038186803b15801561045357600080fd5b505afa158015610467573d6000803e3d6000fd5b505050506040513d601f19601f8201168201806040525061048b9190810190613ca8565b90506000816001600160a01b0316637dc0d1d06040518163ffffffff1660e01b815260040160206040518083038186803b1580156104c857600080fd5b505afa1580156104dc573d6000803e3d6000fd5b505050506040513d601f19601f820116820180604052506105009190810190613ca8565b90506040518060400160405280856001600160a01b03168152602001826001600160a01b031663fc57d4df876040518263ffffffff1660e01b81526004016105489190614ba7565b60206040518083038186803b15801561056057600080fd5b505afa158015610574573d6000803e3d6000fd5b505050506040513d601f19601f820116820180604052506105989190810190613efc565b9052949350505050565b6105aa613414565b6000806000856001600160a01b0316635ec88c79866040518263ffffffff1660e01b81526004016105db9190614ae1565b60606040518083038186803b1580156105f357600080fd5b505afa158015610607573d6000803e3d6000fd5b505050506040513d601f19601f8201168201806040525061062b9190810190613fde565b9250925092508260001461065a5760405162461bcd60e51b815260040161065190614bc6565b60405180910390fd5b604080516060810191829052632aff3bff60e21b909152806001600160a01b03881663abfceffc61068e8960648501614ae1565b60006040518083038186803b1580156106a657600080fd5b505afa1580156106ba573d6000803e3d6000fd5b505050506040513d6000823e601f3d908101601f191682016040526106e29190810190613c44565b81526020810193909352604090920152949350505050565b610702613435565b6060826001600160a01b031663b0772d0b6040518163ffffffff1660e01b815260040160006040518083038186803b15801561073d57600080fd5b505afa158015610751573d6000803e3d6000fd5b505050506040513d6000823e601f3d908101601f191682016040526107799190810190613c44565b905061078361345b565b61078b613435565b6001600160a01b0385168082526040805163bf32442d60e01b8152905163bf32442d91600480820192602092909190829003018186803b1580156107ce57600080fd5b505afa1580156107e2573d6000803e3d6000fd5b505050506040513d601f19601f820116820180604052506108069190810190613a6b565b6001600160a01b039081166020830152604051638a7dc16560e01b815290861690638a7dc1659061083b908990600401614ae1565b60206040518083038186803b15801561085357600080fd5b505afa158015610867573d6000803e3d6000fd5b505050506040513d601f19601f8201168201806040525061088b9190810190613efc565b81604001818152505082516040519080825280602002602001820160405280156108cf57816020015b6108bc6133be565b8152602001906001900390816108b45790505b50606082015260005b8351811015610c2457856001600160a01b031663e37d4b798583815181106108fc57fe5b60200260200101516040518263ffffffff1660e01b81526004016109209190614ae1565b604080518083038186803b15801561093757600080fd5b505afa15801561094b573d6000803e3d6000fd5b505050506040513d601f19601f8201168201806040525061096f9190810190613ecc565b63ffffffff1660408501526001600160e01b031660208401526109906133be565b604051806040016040528085602001516001600160e01b03168152602001856040015163ffffffff168152509050866001600160a01b031663b8324c7c8684815181106109d957fe5b60200260200101516040518263ffffffff1660e01b81526004016109fd9190614ae1565b604080518083038186803b158015610a1457600080fd5b505afa158015610a28573d6000803e3d6000fd5b505050506040513d601f19601f82011682018060405250610a4c9190810190613ecc565b63ffffffff1660808601526001600160e01b03166060850152610a6d6133be565b506040805180820190915260608501516001600160e01b03168152608085015163ffffffff166020820152610aa0613489565b6040518060200160405280888681518110610ab757fe5b60200260200101516001600160a01b031663aa5af0fd6040518163ffffffff1660e01b815260040160206040518083038186803b158015610af757600080fd5b505afa158015610b0b573d6000803e3d6000fd5b505050506040513d601f19601f82011682018060405250610b2f9190810190613efc565b90529050610b3b6133be565b878581518110610b4757fe5b60209081029190910101516001600160a01b031681528751610b809085908a9088908110610b7157fe5b6020026020010151848d6125e9565b6000610ba2858a8881518110610b9257fe5b60200260200101518e868f612869565b9050610bc2848a8881518110610bb457fe5b60200260200101518d6129eb565b6000610be3858b8981518110610bd457fe5b60200260200101518f8f612c61565b9050610bef8282612e55565b60208401526060880151805184919089908110610c0857fe5b60200260200101819052505050505050508060010190506108d8565b5095945050505050565b60608083839050604051908082528060200260200182016040528015610c6e57816020015b610c5b61349c565b815260200190600190039081610c535790505b50905060005b83811015610de157606080606080896001600160a01b031663328dd9828a8a88818110610c9d57fe5b905060200201356040518263ffffffff1660e01b8152600401610cc09190614c4f565b60006040518083038186803b158015610cd857600080fd5b505afa158015610cec573d6000803e3d6000fd5b505050506040513d6000823e601f3d908101601f19168201604052610d149190810190613af3565b9350935093509350604051806101a001604052806000815260200160006001600160a01b03168152602001600081526020018581526020018481526020018381526020018281526020016000815260200160008152602001600081526020016000815260200160001515815260200160001515815250868681518110610d9657fe5b6020026020010181905250610dd1868681518110610db057fe5b60200260200101518b8b8b89818110610dc557fe5b90506020020135612e8b565b505060019092019150610c749050565b50949350505050565b6060600082519050606081604051908082528060200260200182016040528015610e2e57816020015b610e1b613511565b815260200190600190039081610e135790505b50905060005b8281101561040457610e44613538565b876001600160a01b031663e23a9a52878481518110610e5f57fe5b6020026020010151896040518363ffffffff1660e01b8152600401610e85929190614c5d565b60606040518083038186803b158015610e9d57600080fd5b505afa158015610eb1573d6000803e3d6000fd5b505050506040513d601f19601f82011682018060405250610ed59190810190613e90565b90506040518060800160405280878481518110610eee57fe5b6020026020010151815260200182600001511515815260200182602001511515815260200182604001516001600160601b0316815250838381518110610f3057fe5b602090810291909101015250600101610e34565b610f4c613558565b6000826001600160a01b031663bd6d894d6040518163ffffffff1660e01b8152600401602060405180830381600087803b158015610f8957600080fd5b505af1158015610f9d573d6000803e3d6000fd5b505050506040513d601f19601f82011682018060405250610fc19190810190613efc565b90506000836001600160a01b0316635fe3b5676040518163ffffffff1660e01b815260040160206040518083038186803b158015610ffe57600080fd5b505afa158015611012573d6000803e3d6000fd5b505050506040513d601f19601f820116820180604052506110369190810190613ca8565b604051638e8f294b60e01b8152909150819060009081906001600160a01b03841690638e8f294b9061106c908a90600401614ae1565b604080518083038186803b15801561108357600080fd5b505afa158015611097573d6000803e3d6000fd5b505050506040513d601f19601f820116820180604052506110bb9190810190613c78565b9150915060008061115c896001600160a01b03166395d89b416040518163ffffffff1660e01b815260040160006040518083038186803b1580156110fe57600080fd5b505afa158015611112573d6000803e3d6000fd5b505050506040513d6000823e601f3d908101601f1916820160405261113a9190810190613e5c565b604051806040016040528060048152602001633b21272160e11b815250612fb1565b1561116d57506000905060126112cd565b6000899050806001600160a01b0316636f307dc36040518163ffffffff1660e01b815260040160206040518083038186803b1580156111ab57600080fd5b505afa1580156111bf573d6000803e3d6000fd5b505050506040513d601f19601f820116820180604052506111e39190810190613a6b565b9250806001600160a01b0316636f307dc36040518163ffffffff1660e01b815260040160206040518083038186803b15801561121e57600080fd5b505afa158015611232573d6000803e3d6000fd5b505050506040513d601f19601f820116820180604052506112569190810190613a6b565b6001600160a01b031663313ce5676040518163ffffffff1660e01b815260040160206040518083038186803b15801561128e57600080fd5b505afa1580156112a2573d6000803e3d6000fd5b505050506040513d601f19601f820116820180604052506112c6919081019061403f565b60ff169150505b604051635dd3fc9d60e01b81526000906001600160a01b03871690635dd3fc9d906112fc908d90600401614ae1565b60206040518083038186803b15801561131457600080fd5b505afa158015611328573d6000803e3d6000fd5b505050506040513d601f19601f8201168201806040525061134c9190810190613efc565b90506000866001600160a01b031663bbb8864a8c6040518263ffffffff1660e01b815260040161137c9190614ae1565b60206040518083038186803b15801561139457600080fd5b505afa1580156113a8573d6000803e3d6000fd5b505050506040513d601f19601f820116820180604052506113cc9190810190613efc565b90506040518061024001604052808c6001600160a01b031681526020018a81526020018c6001600160a01b031663ae9d70b06040518163ffffffff1660e01b815260040160206040518083038186803b15801561142857600080fd5b505afa15801561143c573d6000803e3d6000fd5b505050506040513d601f19601f820116820180604052506114609190810190613efc565b81526020018c6001600160a01b031663f8f9da286040518163ffffffff1660e01b815260040160206040518083038186803b15801561149e57600080fd5b505afa1580156114b2573d6000803e3d6000fd5b505050506040513d601f19601f820116820180604052506114d69190810190613efc565b81526020018c6001600160a01b031663173b99046040518163ffffffff1660e01b815260040160206040518083038186803b15801561151457600080fd5b505afa158015611528573d6000803e3d6000fd5b505050506040513d601f19601f8201168201806040525061154c9190810190613efc565b81526020018c6001600160a01b03166347bd37186040518163ffffffff1660e01b815260040160206040518083038186803b15801561158a57600080fd5b505afa15801561159e573d6000803e3d6000fd5b505050506040513d601f19601f820116820180604052506115c29190810190613efc565b81526020018c6001600160a01b0316638f840ddd6040518163ffffffff1660e01b815260040160206040518083038186803b15801561160057600080fd5b505afa158015611614573d6000803e3d6000fd5b505050506040513d601f19601f820116820180604052506116389190810190613efc565b81526020018c6001600160a01b03166318160ddd6040518163ffffffff1660e01b815260040160206040518083038186803b15801561167657600080fd5b505afa15801561168a573d6000803e3d6000fd5b505050506040513d601f19601f820116820180604052506116ae9190810190613efc565b81526020018c6001600160a01b0316633b1d21a26040518163ffffffff1660e01b815260040160206040518083038186803b1580156116ec57600080fd5b505afa158015611700573d6000803e3d6000fd5b505050506040513d601f19601f820116820180604052506117249190810190613efc565b81526020018715158152602001868152602001856001600160a01b031681526020018c6001600160a01b031663313ce5676040518163ffffffff1660e01b815260040160206040518083038186803b15801561177f57600080fd5b505afa158015611793573d6000803e3d6000fd5b505050506040513d601f19601f820116820180604052506117b7919081019061403f565b60ff1681526020018481526020018381526020018281526020016117e66170808561300a90919063ffffffff16565b81526020016117fd8361708063ffffffff61300a16565b90529b9a5050505050505050505050565b6118166133d5565b6040516370a0823160e01b81526000906001600160a01b038516906370a0823190611845908690600401614aef565b60206040518083038186803b15801561185d57600080fd5b505afa158015611871573d6000803e3d6000fd5b505050506040513d601f19601f820116820180604052506118959190810190613efc565b90506000846001600160a01b03166317bfdfbc856040518263ffffffff1660e01b81526004016118c59190614aef565b602060405180830381600087803b1580156118df57600080fd5b505af11580156118f3573d6000803e3d6000fd5b505050506040513d601f19601f820116820180604052506119179190810190613efc565b90506000856001600160a01b0316633af9e669866040518263ffffffff1660e01b81526004016119479190614aef565b602060405180830381600087803b15801561196157600080fd5b505af1158015611975573d6000803e3d6000fd5b505050506040513d601f19601f820116820180604052506119999190810190613efc565b90506000806119da886001600160a01b03166395d89b416040518163ffffffff1660e01b815260040160006040518083038186803b1580156110fe57600080fd5b156119f45750506001600160a01b03851680319031611b71565b60008890506000816001600160a01b0316636f307dc36040518163ffffffff1660e01b815260040160206040518083038186803b158015611a3457600080fd5b505afa158015611a48573d6000803e3d6000fd5b505050506040513d601f19601f82011682018060405250611a6c9190810190613a6b565b6040516370a0823160e01b81529091506001600160a01b038216906370a0823190611a9b908c90600401614aef565b60206040518083038186803b158015611ab357600080fd5b505afa158015611ac7573d6000803e3d6000fd5b505050506040513d601f19601f82011682018060405250611aeb9190810190613efc565b604051636eb1769f60e11b81529094506001600160a01b0382169063dd62ed3e90611b1c908c908e90600401614afd565b60206040518083038186803b158015611b3457600080fd5b505afa158015611b48573d6000803e3d6000fd5b505050506040513d601f19601f82011682018060405250611b6c9190810190613efc565b925050505b6040805160c0810182526001600160a01b039990991689526020890195909552938701929092526060860152608085015260a08401525090919050565b6000808290506060816001600160a01b031663b0772d0b6040518163ffffffff1660e01b815260040160006040518083038186803b158015611bef57600080fd5b505afa158015611c03573d6000803e3d6000fd5b505050506040513d6000823e601f3d908101601f19168201604052611c2b9190810190613c44565b90506000805b8251811015610c24576000838281518110611c4857fe5b60200260200101519050611cec816001600160a01b03166395d89b416040518163ffffffff1660e01b815260040160006040518083038186803b158015611c8e57600080fd5b505afa158015611ca2573d6000803e3d6000fd5b505050506040513d6000823e601f3d908101601f19168201604052611cca9190810190613e5c565b604051806040016040528060048152602001631d9554d560e21b815250612fb1565b158015611d915750611d8f816001600160a01b03166395d89b416040518163ffffffff1660e01b815260040160006040518083038186803b158015611d3057600080fd5b505afa158015611d44573d6000803e3d6000fd5b505050506040513d6000823e601f3d908101601f19168201604052611d6c9190810190613e5c565b60405180604001604052806005815260200164764c554e4160d81b815250612fb1565b155b15611ed257611d9e613558565b611da782610f44565b9050611db16133d5565b611dbb838b61180e565b9050611dc56133be565b611dce84610410565b6020810151909150611dde613489565b604051806020016040528083815250905060008090506000611e04838760600151613044565b90506000611e3b670de0b6b3a7640000611e2f8a602001518b60e0015161300a90919063ffffffff16565b9063ffffffff61306b16565b90506000611e498583613044565b90508015611e7057611e6d81611e2f858c610200015161300a90919063ffffffff16565b93505b60008090506000611e85878b60400151613044565b90506000611e97888d60a00151613044565b90508015611ebe57611ebb81611e2f848f610220015161300a90919063ffffffff16565b92505b8287018f019e505050505050505050505050505b50600101611c31565b611ee36135f7565b6040516370a0823160e01b81526000906001600160a01b038616906370a0823190611f12908690600401614ae1565b60206040518083038186803b158015611f2a57600080fd5b505afa158015611f3e573d6000803e3d6000fd5b505050506040513d601f19601f82011682018060405250611f629190810190613efc565b60405163adcd5fb960e01b81529091506001600160a01b0385169063adcd5fb990611f91908690600401614ae1565b600060405180830381600087803b158015611fab57600080fd5b505af1158015611fbf573d6000803e3d6000fd5b50506040516370a0823160e01b8152600092506001600160a01b03881691506370a0823190611ff2908790600401614ae1565b60206040518083038186803b15801561200a57600080fd5b505afa15801561201e573d6000803e3d6000fd5b505050506040513d601f19601f820116820180604052506120429190810190613efc565b90506000856001600160a01b0316638a7dc165866040518263ffffffff1660e01b81526004016120729190614ae1565b60206040518083038186803b15801561208a57600080fd5b505afa15801561209e573d6000803e3d6000fd5b505050506040513d601f19601f820116820180604052506120c29190810190613efc565b905060006120f682846040518060400160405280600d81526020016c1cdd5b481e1d9cc81d1bdd185b609a1b8152506130ad565b9050600061212a82866040518060400160405280600d81526020016c1cdd5888185b1b1bd8d85d1959609a1b8152506130d4565b905060405180608001604052808681526020018a6001600160a01b031663b4b5ea578a6040518263ffffffff1660e01b81526004016121699190614ae1565b60206040518083038186803b15801561218157600080fd5b505afa158015612195573d6000803e3d6000fd5b505050506040513d601f19601f820116820180604052506121b9919081019061405d565b6001600160601b031681526020018a6001600160a01b031663587cde1e8a6040518263ffffffff1660e01b81526004016121f39190614ae1565b60206040518083038186803b15801561220b57600080fd5b505afa15801561221f573d6000803e3d6000fd5b505050506040513d601f19601f820116820180604052506122439190810190613a6b565b6001600160a01b031681526020019190915298975050505050505050565b604080518281526020808402820101909152606090829082908280156122a157816020015b61228e613558565b8152602001906001900390816122865790505b50905060005b8281101561035c576122d38686838181106122be57fe5b90506020020160206102069190810190613d94565b8282815181106122df57fe5b60209081029190910101526001016122a7565b6122fa613628565b6040805160608101918290526370a0823160e01b909152806001600160a01b0385166370a0823161232e8660648501614ae1565b60206040518083038186803b15801561234657600080fd5b505afa15801561235a573d6000803e3d6000fd5b505050506040513d601f19601f8201168201806040525061237e9190810190613efc565b8152602001846001600160a01b031663b4b5ea57856040518263ffffffff1660e01b81526004016123af9190614ae1565b60206040518083038186803b1580156123c757600080fd5b505afa1580156123db573d6000803e3d6000fd5b505050506040513d601f19601f820116820180604052506123ff919081019061405d565b6001600160601b03168152602001846001600160a01b031663587cde1e856040518263ffffffff1660e01b81526004016124399190614ae1565b60206040518083038186803b15801561245157600080fd5b505afa158015612465573d6000803e3d6000fd5b505050506040513d601f19601f820116820180604052506124899190810190613a6b565b6001600160a01b031690529392505050565b606080838390506040519080825280602002602001820160405280156124db57816020015b6124c8613652565b8152602001906001900390816124c05790505b50905060005b83811015610c2457604051806040016040528086868481811061250057fe5b90506020020160206125159190810190614021565b63ffffffff168152602001886001600160a01b031663782d6fe18989898781811061253c57fe5b90506020020160206125519190810190614021565b6040518363ffffffff1660e01b815260040161256e929190614b26565b60206040518083038186803b15801561258657600080fd5b505afa15801561259a573d6000803e3d6000fd5b505050506040513d601f19601f820116820180604052506125be919081019061405d565b6001600160601b03168152508282815181106125d657fe5b60209081029190910101526001016124e1565b604051635ddc432560e11b81526000906001600160a01b0383169063bbb8864a90612618908790600401614ae1565b60206040518083038186803b15801561263057600080fd5b505afa158015612644573d6000803e3d6000fd5b505050506040513d601f19601f820116820180604052506126689190810190613efc565b90506000439050600061268582886020015163ffffffff16613100565b90506000811180156126975750600083115b15612816576000612718876001600160a01b03166347bd37186040518163ffffffff1660e01b815260040160206040518083038186803b1580156126da57600080fd5b505afa1580156126ee573d6000803e3d6000fd5b505050506040513d601f19601f820116820180604052506127129190810190613efc565b8761313a565b905060006127268386613158565b9050612730613489565b6000831161274d5760405180602001604052806000815250612757565b612757828461319a565b9050612761613489565b60408051602081019091528b516001600160e01b0316815261278390836131d8565b90506127be8160000151604051806040016040528060138152602001726e657720696e646578206f766572666c6f777360681b8152506131fd565b6001600160e01b03168b52604080518082019091526016815275626c6f636b206e756d626572206f766572666c6f777360501b602082015261280190879061322c565b63ffffffff1660208c01525061286092505050565b8015612860576128548260405180604001604052806016815260200175626c6f636b206e756d626572206f766572666c6f777360501b81525061322c565b63ffffffff1660208801525b50505050505050565b6000612873613489565b50604080516020810190915286516001600160e01b03168152612894613489565b604080516020810191829052630238089760e21b909152806001600160a01b0386166308e0225c6128c98b8b60248601614b18565b60206040518083038186803b1580156128e157600080fd5b505afa1580156128f5573d6000803e3d6000fd5b505050506040513d601f19601f820116820180604052506129199190810190613efc565b90528051909150156129db5761292d613489565b6129378383613254565b905060006129c0896001600160a01b03166395dd91938a6040518263ffffffff1660e01b815260040161296a9190614ae1565b60206040518083038186803b15801561298257600080fd5b505afa158015612996573d6000803e3d6000fd5b505050506040513d601f19601f820116820180604052506129ba9190810190613efc565b8861313a565b905060006129ce8284613279565b95506129e2945050505050565b6000925050505b95945050505050565b604051635dd3fc9d60e01b81526000906001600160a01b03831690635dd3fc9d90612a1a908690600401614ae1565b60206040518083038186803b158015612a3257600080fd5b505afa158015612a46573d6000803e3d6000fd5b505050506040513d601f19601f82011682018060405250612a6a9190810190613efc565b905060004390506000612a8782876020015163ffffffff16613100565b9050600081118015612a995750600083115b15612c0f576000856001600160a01b03166318160ddd6040518163ffffffff1660e01b815260040160206040518083038186803b158015612ad957600080fd5b505afa158015612aed573d6000803e3d6000fd5b505050506040513d601f19601f82011682018060405250612b119190810190613efc565b90506000612b1f8386613158565b9050612b29613489565b60008311612b465760405180602001604052806000815250612b50565b612b50828461319a565b9050612b5a613489565b60408051602081019091528a516001600160e01b03168152612b7c90836131d8565b9050612bb78160000151604051806040016040528060138152602001726e657720696e646578206f766572666c6f777360681b8152506131fd565b6001600160e01b03168a52604080518082019091526016815275626c6f636b206e756d626572206f766572666c6f777360501b6020820152612bfa90879061322c565b63ffffffff1660208b015250612c5992505050565b8015612c5957612c4d8260405180604001604052806016815260200175626c6f636b206e756d626572206f766572666c6f777360501b81525061322c565b63ffffffff1660208701525b505050505050565b6000612c6b613489565b50604080516020810190915285516001600160e01b03168152612c8c613489565b604080516020810191829052631068634b60e21b909152806001600160a01b0386166341a18d2c612cc18a8a60248601614b18565b60206040518083038186803b158015612cd957600080fd5b505afa158015612ced573d6000803e3d6000fd5b505050506040513d601f19601f82011682018060405250612d119190810190613efc565b90528051909150158015612d255750815115155b15612da757836001600160a01b031663c5b4db556040518163ffffffff1660e01b815260040160206040518083038186803b158015612d6357600080fd5b505afa158015612d77573d6000803e3d6000fd5b505050506040513d601f19601f82011682018060405250612d9b9190810190613eae565b6001600160e01b031681525b612daf613489565b612db98383613254565b90506000876001600160a01b03166370a08231886040518263ffffffff1660e01b8152600401612de99190614ae1565b60206040518083038186803b158015612e0157600080fd5b505afa158015612e15573d6000803e3d6000fd5b505050506040513d601f19601f82011682018060405250612e399190810190613efc565b90506000612e478284613279565b9a9950505050505050505050565b60006104098383604051806040016040528060118152602001706164646974696f6e206f766572666c6f7760781b8152506130ad565b600080600080600080600080896001600160a01b031663013cf08b8a6040518263ffffffff1660e01b8152600401612ec39190614c4f565b6101206040518083038186803b158015612edc57600080fd5b505afa158015612ef0573d6000803e3d6000fd5b505050506040513d601f19601f82011682018060405250612f149190810190613f1a565b9850985098509850985098509850985050888b6000018181525050878b602001906001600160a01b031690816001600160a01b031681525050868b6040018181525050858b60e0018181525050848b610100018181525050838b610120018181525050828b610140018181525050818b610160019015159081151581525050808b6101800190151590811515815250505050505050505050505050565b600081604051602001612fc49190614ad5565b6040516020818303038152906040528051906020012083604051602001612feb9190614ad5565b6040516020818303038152906040528051906020012014905092915050565b60008261301957506000610361565b8282028284828161302657fe5b04146104095760405162461bcd60e51b815260040161065190614bd6565b600061304e613489565b61305884846132a8565b9050613063816132c9565b949350505050565b600061040983836040518060400160405280601a81526020017f536166654d6174683a206469766973696f6e206279207a65726f0000000000008152506132d8565b60008383018285821015610de15760405162461bcd60e51b81526004016106519190614bb5565b600081848411156130f85760405162461bcd60e51b81526004016106519190614bb5565b505050900390565b60006104098383604051806040016040528060158152602001747375627472616374696f6e20756e646572666c6f7760581b8152506130d4565b600061040961315184670de0b6b3a7640000613158565b835161330f565b600061040983836040518060400160405280601781526020017f6d756c7469706c69636174696f6e206f766572666c6f77000000000000000000815250613342565b6131a2613489565b60405180602001604052806131cf6131c9866ec097ce7bc90715b34b9f1000000000613158565b8561330f565b90529392505050565b6131e0613489565b60405180602001604052806131cf85600001518560000151612e55565b600081600160e01b84106132245760405162461bcd60e51b81526004016106519190614bb5565b509192915050565b60008164010000000084106132245760405162461bcd60e51b81526004016106519190614bb5565b61325c613489565b60405180602001604052806131cf85600001518560000151613100565b60006ec097ce7bc90715b34b9f1000000000613299848460000151613158565b816132a057fe5b049392505050565b6132b0613489565b60405180602001604052806131cf856000015185613158565b51670de0b6b3a7640000900490565b600081836132f95760405162461bcd60e51b81526004016106519190614bb5565b50600083858161330557fe5b0495945050505050565b600061040983836040518060400160405280600e81526020016d646976696465206279207a65726f60901b81525061338a565b600083158061334f575082155b1561335c57506000610409565b8383028385828161336957fe5b04148390610de15760405162461bcd60e51b81526004016106519190614bb5565b600081836133ab5760405162461bcd60e51b81526004016106519190614bb5565b508284816133b557fe5b04949350505050565b604080518082019091526000808252602082015290565b6040518060c0016040528060006001600160a01b0316815260200160008152602001600081526020016000815260200160008152602001600081525090565b60405180606001604052806060815260200160008152602001600081525090565b604080516080810182526000808252602082018190529181019190915260608082015290565b6040805160a08101825260008082526020820181905291810182905260608101829052608081019190915290565b6040518060200160405280600081525090565b604051806101a001604052806000815260200160006001600160a01b031681526020016000815260200160608152602001606081526020016060815260200160608152602001600081526020016000815260200160008152602001600081526020016000151581526020016000151581525090565b60408051608081018252600080825260208201819052918101829052606081019190915290565b604080516060810182526000808252602082018190529181019190915290565b60405180610240016040528060006001600160a01b0316815260200160008152602001600081526020016000815260200160008152602001600081526020016000815260200160008152602001600081526020016000151581526020016000815260200160006001600160a01b031681526020016000815260200160008152602001600081526020016000815260200160008152602001600081525090565b6040518060800160405280600081526020016000815260200160006001600160a01b03168152602001600081525090565b6040518060600160405280600081526020016000815260200160006001600160a01b031681525090565b604051806040016040528060008152602001600081525090565b803561036181614d8d565b805161036181614d8d565b600082601f83011261369357600080fd5b81516136a66136a182614c91565b614c6b565b915081818352602084019350602081019050838560208402820111156136cb57600080fd5b60005b838110156136f757816136e18882613677565b84525060209283019291909101906001016136ce565b5050505092915050565b600082601f83011261371257600080fd5b81516137206136a182614c91565b81815260209384019390925082018360005b838110156136f75781518601613748888261395e565b8452506020928301929190910190600101613732565b60008083601f84011261377057600080fd5b5081356001600160401b0381111561378757600080fd5b60208301915083602082028301111561379f57600080fd5b9250929050565b600082601f8301126137b757600080fd5b81516137c56136a182614c91565b915081818352602084019350602081019050838560208402820111156137ea57600080fd5b60005b838110156136f7578161380088826139b8565b84525060209283019291909101906001016137ed565b600082601f83011261382757600080fd5b81516138356136a182614c91565b81815260209384019390925082018360005b838110156136f7578151860161385d888261395e565b8452506020928301929190910190600101613847565b600082601f83011261388457600080fd5b81356138926136a182614c91565b915081818352602084019350602081019050838560208402820111156138b757600080fd5b60005b838110156136f757816138cd8882613a29565b84525060209283019291909101906001016138ba565b600082601f8301126138f457600080fd5b81516139026136a182614c91565b9150818183526020840193506020810190508385602084028201111561392757600080fd5b60005b838110156136f7578161393d8882613a34565b845250602092830192919091019060010161392a565b805161036181614da4565b600082601f83011261396f57600080fd5b815161397d6136a182614cb1565b9150808252602083016020830185838301111561399957600080fd5b6139a4838284614d57565b50505092915050565b803561036181614dad565b805161036181614dad565b6000606082840312156139d557600080fd5b6139df6060614c6b565b905060006139ed8484613953565b82525060206139fe84848301613953565b6020830152506040613a1284828501613a60565b60408301525092915050565b805161036181614db6565b803561036181614dbf565b805161036181614dbf565b803561036181614dc8565b805161036181614dc8565b805161036181614dd1565b805161036181614dda565b600060208284031215613a7d57600080fd5b60006130638484613677565b60008060408385031215613a9c57600080fd5b6000613aa8858561366c565b9250506020613ab98582860161366c565b9150509250929050565b60008060408385031215613ad657600080fd5b6000613ae2858561366c565b9250506020613ab9858286016139ad565b60008060008060808587031215613b0957600080fd5b84516001600160401b03811115613b1f57600080fd5b613b2b87828801613682565b94505060208501516001600160401b03811115613b4757600080fd5b613b53878288016138e3565b93505060408501516001600160401b03811115613b6f57600080fd5b613b7b87828801613816565b92505060608501516001600160401b03811115613b9757600080fd5b613ba387828801613701565b91505092959194509250565b60008060208385031215613bc257600080fd5b82356001600160401b03811115613bd857600080fd5b613be48582860161375e565b92509250509250929050565b600080600060408486031215613c0557600080fd5b83356001600160401b03811115613c1b57600080fd5b613c278682870161375e565b93509350506020613c3a8682870161366c565b9150509250925092565b600060208284031215613c5657600080fd5b81516001600160401b03811115613c6c57600080fd5b613063848285016137a6565b60008060408385031215613c8b57600080fd5b6000613c978585613953565b9250506020613ab985828601613a34565b600060208284031215613cba57600080fd5b600061306384846139b8565b60008060408385031215613cd957600080fd5b6000613aa885856139ad565b600080600060608486031215613cfa57600080fd5b6000613d0686866139ad565b9350506020613d178682870161366c565b92505060408401356001600160401b03811115613d3357600080fd5b613c3a86828701613873565b600080600060408486031215613d5457600080fd5b6000613d6086866139ad565b93505060208401356001600160401b03811115613d7c57600080fd5b613d888682870161375e565b92509250509250925092565b600060208284031215613da657600080fd5b600061306384846139ad565b60008060008060608587031215613dc857600080fd5b6000613dd487876139ad565b9450506020613de58782880161366c565b93505060408501356001600160401b03811115613e0157600080fd5b613e0d8782880161375e565b95989497509550505050565b600080600060608486031215613e2e57600080fd5b6000613e3a86866139ad565b9350506020613e4b868287016139ad565b9250506040613c3a8682870161366c565b600060208284031215613e6e57600080fd5b81516001600160401b03811115613e8457600080fd5b6130638482850161395e565b600060608284031215613ea257600080fd5b600061306384846139c3565b600060208284031215613ec057600080fd5b60006130638484613a1e565b60008060408385031215613edf57600080fd5b6000613eeb8585613a1e565b9250506020613ab985828601613a4a565b600060208284031215613f0e57600080fd5b60006130638484613a34565b60008060008060008060008060006101208a8c031215613f3957600080fd5b6000613f458c8c613a34565b9950506020613f568c828d01613677565b9850506040613f678c828d01613a34565b9750506060613f788c828d01613a34565b9650506080613f898c828d01613a34565b95505060a0613f9a8c828d01613a34565b94505060c0613fab8c828d01613a34565b93505060e0613fbc8c828d01613953565b925050610100613fce8c828d01613953565b9150509295985092959850929598565b600080600060608486031215613ff357600080fd5b6000613fff8686613a34565b935050602061401086828701613a34565b9250506040613c3a86828701613a34565b60006020828403121561403357600080fd5b60006130638484613a3f565b60006020828403121561405157600080fd5b60006130638484613a55565b60006020828403121561406f57600080fd5b60006130638484613a60565b6000614087838361412b565b505060200190565b60006104098383614536565b6000614087838361456e565b6000610409838361466a565b60006140bf8383614789565b505060800190565b60006140d383836147d9565b505060400190565b60006140e7838361484f565b505060c00190565b60006140fb83836148bf565b50506102400190565b60006140d38383614a28565b60006140878383614aba565b61412581614d41565b82525050565b61412581614cf0565b600061413f82614cde565b6141498185614ce2565b935061415483614cd8565b8060005b8381101561418257815161416c888261407b565b975061417783614cd8565b925050600101614158565b509495945050505050565b600061419882614cde565b6141a28185614ce2565b9350836020820285016141b485614cd8565b8060005b858110156141ee57848403895281516141d1858261408f565b94506141dc83614cd8565b60209a909a01999250506001016141b8565b5091979650505050505050565b600061420682614cde565b6142108185614ce2565b935061421b83614cd8565b8060005b83811015614182578151614233888261409b565b975061423e83614cd8565b92505060010161421f565b600061425482614cde565b61425e8185614ce2565b93508360208202850161427085614cd8565b8060005b858110156141ee578484038952815161428d858261408f565b945061429883614cd8565b60209a909a0199925050600101614274565b60006142b582614cde565b6142bf8185614ce2565b9350836020820285016142d185614cd8565b8060005b858110156141ee57848403895281516142ee85826140a7565b94506142f983614cd8565b60209a909a01999250506001016142d5565b600061431682614cde565b6143208185614ce2565b935061432b83614cd8565b8060005b8381101561418257815161434388826140b3565b975061434e83614cd8565b92505060010161432f565b600061436482614cde565b61436e8185614ce2565b935061437983614cd8565b8060005b8381101561418257815161439188826140c7565b975061439c83614cd8565b92505060010161437d565b60006143b282614cde565b6143bc8185614ce2565b93506143c783614cd8565b8060005b838110156141825781516143df88826140db565b97506143ea83614cd8565b9250506001016143cb565b600061440082614cde565b61440a8185614ce2565b935061441583614cd8565b8060005b8381101561418257815161442d88826140ef565b975061443883614cd8565b925050600101614419565b600061444e82614cde565b6144588185614ce2565b935061446383614cd8565b8060005b8381101561418257815161447b88826140c7565b975061448683614cd8565b925050600101614467565b600061449c82614cde565b6144a68185614ce2565b93506144b183614cd8565b8060005b838110156141825781516144c98882614104565b97506144d483614cd8565b9250506001016144b5565b60006144ea82614cde565b6144f48185614ce2565b93506144ff83614cd8565b8060005b838110156141825781516145178882614110565b975061452283614cd8565b925050600101614503565b61412581614cfb565b600061454182614cde565b61454b8185614ce2565b935061455b818560208601614d57565b61456481614d83565b9093019392505050565b61412581614d00565b600061458282614cde565b61458c8185614ceb565b935061459c818560208601614d57565b9290920192915050565b60006145b3601783614ce2565b7f6163636f756e74206c6971756964697479206572726f72000000000000000000815260200192915050565b60006145ec602183614ce2565b7f536166654d6174683a206d756c7469706c69636174696f6e206f766572666c6f8152607760f81b602082015260400192915050565b805160608084526000919084019061463a82826141fb565b915050602083015161464f6020860182614aba565b5060408301516146626040860182614aba565b509392505050565b80516000906101a084019061467f8582614aba565b506020830151614692602086018261412b565b5060408301516146a56040860182614aba565b50606083015184820360608601526146bd8282614134565b915050608083015184820360808601526146d782826144df565b91505060a083015184820360a08601526146f18282614249565b91505060c083015184820360c086015261470b828261418d565b91505060e083015161472060e0860182614aba565b50610100830151614735610100860182614aba565b5061012083015161474a610120860182614aba565b5061014083015161475f610140860182614aba565b5061016083015161477461016086018261452d565b5061018083015161466261018086018261452d565b8051608083019061479a8482614aba565b5060208201516147ad602085018261452d565b5060408201516147c0604085018261452d565b5060608201516147d36060850182614acc565b50505050565b805160408301906147ea848261412b565b5060208201516147d36020850182614aba565b80516000906080840190614811858261412b565b506020830151614824602086018261412b565b5060408301516148376040860182614aba565b50606083015184820360608601526129e28282614359565b805160c0830190614860848261412b565b5060208201516148736020850182614aba565b5060408201516148866040850182614aba565b5060608201516148996060850182614aba565b5060808201516148ac6080850182614aba565b5060a08201516147d360a0850182614aba565b80516102408301906148d1848261412b565b5060208201516148e46020850182614aba565b5060408201516148f76040850182614aba565b50606082015161490a6060850182614aba565b50608082015161491d6080850182614aba565b5060a082015161493060a0850182614aba565b5060c082015161494360c0850182614aba565b5060e082015161495660e0850182614aba565b5061010082015161496b610100850182614aba565b5061012082015161498061012085018261452d565b50610140820151614995610140850182614aba565b506101608201516149aa61016085018261412b565b506101808201516149bf610180850182614aba565b506101a08201516149d46101a0850182614aba565b506101c08201516149e96101c0850182614aba565b506101e08201516149fe6101e0850182614aba565b50610200820151614a13610200850182614aba565b506102208201516147d3610220850182614aba565b805160408301906147ea8482614aba565b80516080830190614a4a8482614aba565b506020820151614a5d6020850182614aba565b506040820151614a70604085018261412b565b5060608201516147d36060850182614aba565b80516060830190614a948482614aba565b506020820151614aa76020850182614aba565b5060408201516147d3604085018261412b565b61412581614d23565b61412581614d4c565b61412581614d35565b60006104098284614577565b60208101610361828461412b565b60208101610361828461411c565b60408101614b0b828561411c565b610409602083018461412b565b60408101614b0b828561412b565b60408101614b34828561412b565b6104096020830184614ac3565b6020808252810161040981846142aa565b60208082528101610409818461430b565b6020808252810161040981846143a7565b6020808252810161040981846143f5565b602080825281016104098184614443565b602080825281016104098184614491565b60208101610361828461456e565b602080825281016104098184614536565b60208082528101610361816145a6565b60208082528101610361816145df565b602080825281016104098184614622565b6020808252810161040981846147fd565b60c08101610361828461484f565b610240810161036182846148bf565b6040810161036182846147d9565b608081016103618284614a39565b606081016103618284614a83565b602081016103618284614aba565b60408101614b0b8285614aba565b6040518181016001600160401b0381118282101715614c8957600080fd5b604052919050565b60006001600160401b03821115614ca757600080fd5b5060209081020190565b60006001600160401b03821115614cc757600080fd5b506020601f91909101601f19160190565b60200190565b5190565b90815260200190565b919050565b600061036182614d0b565b151590565b600061036182614cf0565b6001600160a01b031690565b6001600160e01b031690565b90565b63ffffffff1690565b60ff1690565b6001600160601b031690565b600061036182614d00565b600061036182614d26565b60005b83811015614d72578181015183820152602001614d5a565b838111156147d35750506000910152565b601f01601f191690565b614d9681614cf0565b8114614da157600080fd5b50565b614d9681614cfb565b614d9681614d00565b614d9681614d17565b614d9681614d23565b614d9681614d26565b614d9681614d2f565b614d9681614d3556fea365627a7a7231582084f00b9fa1ac40919c2b36bc24333a3258b4a23dcdfb6f07ac8e7e8a76dbfffd6c6578706572696d656e74616cf564736f6c63430005100040",
  "devdoc": {
    "methods": {
      "getAccountLimits(address,address)": {
        "params": {
          "account": "Address of the account to query",
          "comptroller": "Address of comptroller proxy"
        },
        "return": "Struct with markets user has entered, liquidity, and shortfall of the account"
      },
      "getDailyXVS(address,address)": {
        "params": {
          "account": "Address of account to fetch the daily XVS distribution",
          "comptrollerAddress": "Address of the comptroller proxy"
        },
        "return": "Amount of XVS distributed daily to an account"
      },
      "getGovProposals(address,uint256[])": {
        "params": {
          "governor": "Address of governor contract",
          "proposalIds": "Array of proposal Ids"
        },
        "return": "GovProposal structs for provided proposal Ids"
      },
      "getGovReceipts(address,address,uint256[])": {
        "params": {
          "governor": "Governor address",
          "proposalIds": "Array of proposal ids",
          "voter": "Voter address"
        },
        "return": "Array of governor receipts"
      },
      "getVenusVotes(address,address,uint32[])": {
        "params": {
          "account": "Address of the account",
          "blockNumbers": "Array of blocks to query",
          "xvs": "XVS contract address"
        },
        "return": "Array of VenusVotes structs with block number and vote count"
      },
      "getXVSBalanceMetadata(address,address)": {
        "params": {
          "account": "Account address",
          "xvs": "XVS contract address"
        },
        "return": "Struct with XVS balance and voter details"
      },
      "getXVSBalanceMetadataExt(address,address,address)": {
        "params": {
          "account": "Account address",
          "comptroller": "Comptroller proxy contract address",
          "xvs": "XVS contract address"
        },
        "return": "Struct with XVS balance and voter details and XVS allocation"
      },
      "pendingRewards(address,address)": {
        "params": {
          "comptroller": "Address of the comptroller",
          "holder": "Account to query pending XVS"
        },
        "return": "Reward object contraining the totalRewards and pending rewards for each market"
      },
      "vTokenBalances(address,address)": {
        "params": {
          "account": "Account address to fetch the balance of",
          "vToken": "Address of the token to check the balance of"
        },
        "return": "VTokenBalances with token balance information"
      },
      "vTokenBalancesAll(address[],address)": {
        "params": {
          "account": "Account address to fetch the balance of",
          "vTokens": "Addresses of the tokens to check the balance of"
        },
        "return": "VTokenBalances Array with token balance information"
      },
      "vTokenMetadata(address)": {
        "params": {
          "vToken": "The address of the vToken to fetch VTokenMetadata"
        },
        "return": "VTokenMetadata struct with vToken supply and borrow information."
      },
      "vTokenMetadataAll(address[])": {
        "params": {
          "vTokens": "Array of vToken addresses to fetch VTokenMetadata"
        },
        "return": "Array of structs with vToken supply and borrow information."
      },
      "vTokenUnderlyingPrice(address)": {
        "params": {
          "vToken": "address of the vToken"
        },
        "return": "response struct with underlyingPrice info of vToken"
      },
      "vTokenUnderlyingPriceAll(address[])": {
        "params": {
          "vTokens": "Array of vToken addresses"
        },
        "return": "array of response structs with underlying price information of vTokens"
      }
    }
  },
  "userdoc": {
    "methods": {
      "getAccountLimits(address,address)": {
        "notice": "Query the account liquidity and shortfall of an account"
      },
      "getDailyXVS(address,address)": {
        "notice": "Get amount of XVS distributed daily to an account"
      },
      "getGovProposals(address,uint256[])": {
        "notice": "Query the details of a list of governance proposals"
      },
      "getGovReceipts(address,address,uint256[])": {
        "notice": "Query the voting information of an account for a list of governance proposals"
      },
      "getVenusVotes(address,address,uint32[])": {
        "notice": "Query the voting power for an account at a specific list of block numbers"
      },
      "getXVSBalanceMetadata(address,address)": {
        "notice": "Query the XVSBalance info of an account"
      },
      "getXVSBalanceMetadataExt(address,address,address)": {
        "notice": "Query the XVSBalance extended info of an account"
      },
      "pendingRewards(address,address)": {
        "notice": "Calculate the total XVS tokens pending and accrued by a user account"
      },
      "vTokenBalances(address,address)": {
        "notice": "Get the current vToken balance (outstanding borrows) for an account"
      },
      "vTokenBalancesAll(address[],address)": {
        "notice": "Get the current vToken balances (outstanding borrows) for all vTokens on an account"
      },
      "vTokenMetadata(address)": {
        "notice": "Query the metadata of a vToken by its address"
      },
      "vTokenMetadataAll(address[])": {
        "notice": "Get VTokenMetadata for an array of vToken addresses"
      },
      "vTokenUnderlyingPrice(address)": {
        "notice": "Get the price for the underlying asset of a vToken"
      },
      "vTokenUnderlyingPriceAll(address[])": {
        "notice": "Query the underlyingPrice of an array of vTokens"
      }
    }
  },
  "storageLayout": {
    "storage": [],
    "types": null
  }
}