{
  "address": "0xAD2f2cC940C965f22148348188D117E295Ad89E2",
  "abi": [
    {
      "inputs": [
        {
          "internalType": "address",
          "name": "endpoint_",
          "type": "address"
        },
        {
          "internalType": "contract IMultichainVoteRegistry",
          "name": "multichainVoteRegistry_",
          "type": "address"
        }
      ],
      "stateMutability": "nonpayable",
      "type": "constructor"
    },
    {
      "inputs": [],
      "name": "ZeroAddressNotAllowed",
      "type": "error"
    },
    {
      "anonymous": false,
      "inputs": [
        {
          "indexed": false,
          "internalType": "uint16",
          "name": "_srcChainId",
          "type": "uint16"
        },
        {
          "indexed": false,
          "internalType": "bytes",
          "name": "_srcAddress",
          "type": "bytes"
        },
        {
          "indexed": false,
          "internalType": "uint64",
          "name": "_nonce",
          "type": "uint64"
        },
        {
          "indexed": false,
          "internalType": "bytes",
          "name": "_payload",
          "type": "bytes"
        },
        {
          "indexed": false,
          "internalType": "bytes",
          "name": "_reason",
          "type": "bytes"
        }
      ],
      "name": "MessageFailed",
      "type": "event"
    },
    {
      "anonymous": false,
      "inputs": [
        {
          "indexed": true,
          "internalType": "address",
          "name": "previousOwner",
          "type": "address"
        },
        {
          "indexed": true,
          "internalType": "address",
          "name": "newOwner",
          "type": "address"
        }
      ],
      "name": "OwnershipTransferred",
      "type": "event"
    },
    {
      "anonymous": false,
      "inputs": [
        {
          "indexed": false,
          "internalType": "address",
          "name": "account",
          "type": "address"
        }
      ],
      "name": "Paused",
      "type": "event"
    },
    {
      "anonymous": false,
      "inputs": [
        {
          "indexed": true,
          "internalType": "uint16",
          "name": "remoteChainId",
          "type": "uint16"
        },
        {
          "indexed": false,
          "internalType": "bytes",
          "name": "remoteAddress",
          "type": "bytes"
        },
        {
          "indexed": false,
          "internalType": "uint64",
          "name": "nonce",
          "type": "uint64"
        },
        {
          "indexed": false,
          "internalType": "bytes",
          "name": "reason",
          "type": "bytes"
        }
      ],
      "name": "ReceivePayloadFailed",
      "type": "event"
    },
    {
      "anonymous": false,
      "inputs": [
        {
          "indexed": false,
          "internalType": "uint16",
          "name": "_srcChainId",
          "type": "uint16"
        },
        {
          "indexed": false,
          "internalType": "bytes",
          "name": "_srcAddress",
          "type": "bytes"
        },
        {
          "indexed": false,
          "internalType": "uint64",
          "name": "_nonce",
          "type": "uint64"
        },
        {
          "indexed": false,
          "internalType": "bytes32",
          "name": "_payloadHash",
          "type": "bytes32"
        }
      ],
      "name": "RetryMessageSuccess",
      "type": "event"
    },
    {
      "anonymous": false,
      "inputs": [
        {
          "indexed": false,
          "internalType": "uint16",
          "name": "_dstChainId",
          "type": "uint16"
        },
        {
          "indexed": false,
          "internalType": "uint16",
          "name": "_type",
          "type": "uint16"
        },
        {
          "indexed": false,
          "internalType": "uint256",
          "name": "_minDstGas",
          "type": "uint256"
        }
      ],
      "name": "SetMinDstGas",
      "type": "event"
    },
    {
      "anonymous": false,
      "inputs": [
        {
          "indexed": false,
          "internalType": "address",
          "name": "precrime",
          "type": "address"
        }
      ],
      "name": "SetPrecrime",
      "type": "event"
    },
    {
      "anonymous": false,
      "inputs": [
        {
          "indexed": false,
          "internalType": "uint16",
          "name": "_remoteChainId",
          "type": "uint16"
        },
        {
          "indexed": false,
          "internalType": "bytes",
          "name": "_path",
          "type": "bytes"
        }
      ],
      "name": "SetTrustedRemote",
      "type": "event"
    },
    {
      "anonymous": false,
      "inputs": [
        {
          "indexed": false,
          "internalType": "uint16",
          "name": "_remoteChainId",
          "type": "uint16"
        },
        {
          "indexed": false,
          "internalType": "bytes",
          "name": "_remoteAddress",
          "type": "bytes"
        }
      ],
      "name": "SetTrustedRemoteAddress",
      "type": "event"
    },
    {
      "anonymous": false,
      "inputs": [
        {
          "indexed": true,
          "internalType": "uint16",
          "name": "chainId",
          "type": "uint16"
        }
      ],
      "name": "TrustedRemoteRemoved",
      "type": "event"
    },
    {
      "anonymous": false,
      "inputs": [
        {
          "indexed": false,
          "internalType": "address",
          "name": "account",
          "type": "address"
        }
      ],
      "name": "Unpaused",
      "type": "event"
    },
    {
      "anonymous": false,
      "inputs": [
        {
          "indexed": true,
          "internalType": "address",
          "name": "delegatee",
          "type": "address"
        },
        {
          "indexed": false,
          "internalType": "uint32",
          "name": "checkpoints",
          "type": "uint32"
        },
        {
          "indexed": true,
          "internalType": "uint96",
          "name": "votes",
          "type": "uint96"
        },
        {
          "indexed": false,
          "internalType": "uint32",
          "name": "nCheckpoint",
          "type": "uint32"
        }
      ],
      "name": "VotesSynced",
      "type": "event"
    },
    {
      "inputs": [],
      "name": "DEFAULT_PAYLOAD_SIZE_LIMIT",
      "outputs": [
        {
          "internalType": "uint256",
          "name": "",
          "type": "uint256"
        }
      ],
      "stateMutability": "view",
      "type": "function"
    },
    {
      "inputs": [
        {
          "internalType": "uint16",
          "name": "",
          "type": "uint16"
        },
        {
          "internalType": "bytes",
          "name": "",
          "type": "bytes"
        },
        {
          "internalType": "uint64",
          "name": "",
          "type": "uint64"
        }
      ],
      "name": "failedMessages",
      "outputs": [
        {
          "internalType": "bytes32",
          "name": "",
          "type": "bytes32"
        }
      ],
      "stateMutability": "view",
      "type": "function"
    },
    {
      "inputs": [
        {
          "internalType": "uint16",
          "name": "_srcChainId",
          "type": "uint16"
        },
        {
          "internalType": "bytes",
          "name": "_srcAddress",
          "type": "bytes"
        }
      ],
      "name": "forceResumeReceive",
      "outputs": [],
      "stateMutability": "nonpayable",
      "type": "function"
    },
    {
      "inputs": [
        {
          "internalType": "uint16",
          "name": "_version",
          "type": "uint16"
        },
        {
          "internalType": "uint16",
          "name": "_chainId",
          "type": "uint16"
        },
        {
          "internalType": "address",
          "name": "",
          "type": "address"
        },
        {
          "internalType": "uint256",
          "name": "_configType",
          "type": "uint256"
        }
      ],
      "name": "getConfig",
      "outputs": [
        {
          "internalType": "bytes",
          "name": "",
          "type": "bytes"
        }
      ],
      "stateMutability": "view",
      "type": "function"
    },
    {
      "inputs": [
        {
          "internalType": "uint16",
          "name": "_remoteChainId",
          "type": "uint16"
        }
      ],
      "name": "getTrustedRemoteAddress",
      "outputs": [
        {
          "internalType": "bytes",
          "name": "",
          "type": "bytes"
        }
      ],
      "stateMutability": "view",
      "type": "function"
    },
    {
      "inputs": [
        {
          "internalType": "uint16",
          "name": "_srcChainId",
          "type": "uint16"
        },
        {
          "internalType": "bytes",
          "name": "_srcAddress",
          "type": "bytes"
        }
      ],
      "name": "isTrustedRemote",
      "outputs": [
        {
          "internalType": "bool",
          "name": "",
          "type": "bool"
        }
      ],
      "stateMutability": "view",
      "type": "function"
    },
    {
      "inputs": [],
      "name": "lzEndpoint",
      "outputs": [
        {
          "internalType": "contract ILayerZeroEndpoint",
          "name": "",
          "type": "address"
        }
      ],
      "stateMutability": "view",
      "type": "function"
    },
    {
      "inputs": [
        {
          "internalType": "uint16",
          "name": "_srcChainId",
          "type": "uint16"
        },
        {
          "internalType": "bytes",
          "name": "_srcAddress",
          "type": "bytes"
        },
        {
          "internalType": "uint64",
          "name": "_nonce",
          "type": "uint64"
        },
        {
          "internalType": "bytes",
          "name": "_payload",
          "type": "bytes"
        }
      ],
      "name": "lzReceive",
      "outputs": [],
      "stateMutability": "nonpayable",
      "type": "function"
    },
    {
      "inputs": [
        {
          "internalType": "uint16",
          "name": "",
          "type": "uint16"
        },
        {
          "internalType": "uint16",
          "name": "",
          "type": "uint16"
        }
      ],
      "name": "minDstGasLookup",
      "outputs": [
        {
          "internalType": "uint256",
          "name": "",
          "type": "uint256"
        }
      ],
      "stateMutability": "view",
      "type": "function"
    },
    {
      "inputs": [],
      "name": "multichainVoteRegistry",
      "outputs": [
        {
          "internalType": "contract IMultichainVoteRegistry",
          "name": "",
          "type": "address"
        }
      ],
      "stateMutability": "view",
      "type": "function"
    },
    {
      "inputs": [
        {
          "internalType": "uint16",
          "name": "_srcChainId",
          "type": "uint16"
        },
        {
          "internalType": "bytes",
          "name": "_srcAddress",
          "type": "bytes"
        },
        {
          "internalType": "uint64",
          "name": "_nonce",
          "type": "uint64"
        },
        {
          "internalType": "bytes",
          "name": "_payload",
          "type": "bytes"
        }
      ],
      "name": "nonblockingLzReceive",
      "outputs": [],
      "stateMutability": "nonpayable",
      "type": "function"
    },
    {
      "inputs": [],
      "name": "owner",
      "outputs": [
        {
          "internalType": "address",
          "name": "",
          "type": "address"
        }
      ],
      "stateMutability": "view",
      "type": "function"
    },
    {
      "inputs": [],
      "name": "paused",
      "outputs": [
        {
          "internalType": "bool",
          "name": "",
          "type": "bool"
        }
      ],
      "stateMutability": "view",
      "type": "function"
    },
    {
      "inputs": [
        {
          "internalType": "uint16",
          "name": "",
          "type": "uint16"
        }
      ],
      "name": "payloadSizeLimitLookup",
      "outputs": [
        {
          "internalType": "uint256",
          "name": "",
          "type": "uint256"
        }
      ],
      "stateMutability": "view",
      "type": "function"
    },
    {
      "inputs": [],
      "name": "precrime",
      "outputs": [
        {
          "internalType": "address",
          "name": "",
          "type": "address"
        }
      ],
      "stateMutability": "view",
      "type": "function"
    },
    {
      "inputs": [
        {
          "internalType": "uint16",
          "name": "remoteChainId",
          "type": "uint16"
        }
      ],
      "name": "removeTrustedRemote",
      "outputs": [],
      "stateMutability": "nonpayable",
      "type": "function"
    },
    {
      "inputs": [],
      "name": "renounceOwnership",
      "outputs": [],
      "stateMutability": "nonpayable",
      "type": "function"
    },
    {
      "inputs": [
        {
          "internalType": "uint16",
          "name": "_srcChainId",
          "type": "uint16"
        },
        {
          "internalType": "bytes",
          "name": "_srcAddress",
          "type": "bytes"
        },
        {
          "internalType": "uint64",
          "name": "_nonce",
          "type": "uint64"
        },
        {
          "internalType": "bytes",
          "name": "_payload",
          "type": "bytes"
        }
      ],
      "name": "retryMessage",
      "outputs": [],
      "stateMutability": "payable",
      "type": "function"
    },
    {
      "inputs": [
        {
          "internalType": "uint16",
          "name": "_version",
          "type": "uint16"
        },
        {
          "internalType": "uint16",
          "name": "_chainId",
          "type": "uint16"
        },
        {
          "internalType": "uint256",
          "name": "_configType",
          "type": "uint256"
        },
        {
          "internalType": "bytes",
          "name": "_config",
          "type": "bytes"
        }
      ],
      "name": "setConfig",
      "outputs": [],
      "stateMutability": "nonpayable",
      "type": "function"
    },
    {
      "inputs": [
        {
          "internalType": "uint16",
          "name": "_dstChainId",
          "type": "uint16"
        },
        {
          "internalType": "uint16",
          "name": "_packetType",
          "type": "uint16"
        },
        {
          "internalType": "uint256",
          "name": "_minGas",
          "type": "uint256"
        }
      ],
      "name": "setMinDstGas",
      "outputs": [],
      "stateMutability": "nonpayable",
      "type": "function"
    },
    {
      "inputs": [
        {
          "internalType": "uint16",
          "name": "_dstChainId",
          "type": "uint16"
        },
        {
          "internalType": "uint256",
          "name": "_size",
          "type": "uint256"
        }
      ],
      "name": "setPayloadSizeLimit",
      "outputs": [],
      "stateMutability": "nonpayable",
      "type": "function"
    },
    {
      "inputs": [
        {
          "internalType": "address",
          "name": "_precrime",
          "type": "address"
        }
      ],
      "name": "setPrecrime",
      "outputs": [],
      "stateMutability": "nonpayable",
      "type": "function"
    },
    {
      "inputs": [
        {
          "internalType": "uint16",
          "name": "_version",
          "type": "uint16"
        }
      ],
      "name": "setReceiveVersion",
      "outputs": [],
      "stateMutability": "nonpayable",
      "type": "function"
    },
    {
      "inputs": [
        {
          "internalType": "uint16",
          "name": "_version",
          "type": "uint16"
        }
      ],
      "name": "setSendVersion",
      "outputs": [],
      "stateMutability": "nonpayable",
      "type": "function"
    },
    {
      "inputs": [
        {
          "internalType": "uint16",
          "name": "_remoteChainId",
          "type": "uint16"
        },
        {
          "internalType": "bytes",
          "name": "_path",
          "type": "bytes"
        }
      ],
      "name": "setTrustedRemote",
      "outputs": [],
      "stateMutability": "nonpayable",
      "type": "function"
    },
    {
      "inputs": [
        {
          "internalType": "uint16",
          "name": "_remoteChainId",
          "type": "uint16"
        },
        {
          "internalType": "bytes",
          "name": "_remoteAddress",
          "type": "bytes"
        }
      ],
      "name": "setTrustedRemoteAddress",
      "outputs": [],
      "stateMutability": "nonpayable",
      "type": "function"
    },
    {
      "inputs": [
        {
          "internalType": "address",
          "name": "newOwner",
          "type": "address"
        }
      ],
      "name": "transferOwnership",
      "outputs": [],
      "stateMutability": "nonpayable",
      "type": "function"
    },
    {
      "inputs": [
        {
          "internalType": "uint16",
          "name": "",
          "type": "uint16"
        }
      ],
      "name": "trustedRemoteLookup",
      "outputs": [
        {
          "internalType": "bytes",
          "name": "",
          "type": "bytes"
        }
      ],
      "stateMutability": "view",
      "type": "function"
    }
  ],
  "transactionHash": "0x5923ddeb7766ba9a83557e81c6917fc4a696c44d74f923dfb92762b0250ca76e",
  "args": [
    "0x6Fcb97553D41516Cb228ac03FdC8B9a0a9df04A1",
    "0x3588679688de91D832e55a0B80173Fa993285A6C"
  ],
  "numDeployments": 1,
  "solcInputHash": "2edd6c2641cf07b5b3effe5b2a097fd0",
  "bytecode": "0x60a06040523480156200001157600080fd5b50604051620022613803806200226183398101604081905262000034916200012f565b6000805460ff1916905581806200004b3362000095565b6001600160a01b0316608052506200006381620000ee565b6200006e82620000ee565b600680546001600160a01b0319166001600160a01b0392909216919091179055506200016e565b600080546001600160a01b03838116610100818102610100600160a81b0319851617855560405193049190911692909183917f8be0079c531659141344cd1fd0a4f28419497f9722a3daafe3b4186f6b6457e091a35050565b6001600160a01b03811662000116576040516342bcdf7f60e11b815260040160405180910390fd5b50565b6001600160a01b03811681146200011657600080fd5b600080604083850312156200014357600080fd5b8251620001508162000119565b6020840151909250620001638162000119565b809150509250929050565b6080516120ad620001b4600039600081816104bb015281816105c901528181610818015281816108c001528181610a3801528181610e4d015261124701526120ad6000f3fe6080604052600436106101b65760003560e01c80638cfd8f5c116100ec578063c44618341161008a578063df2a5b3b11610064578063df2a5b3b14610546578063eb8d72b714610566578063f2fde38b14610586578063f5ecbdbc146105a657600080fd5b8063c4461834146104fd578063cbed8b9c14610513578063d1deba1f1461053357600080fd5b80639f38369a116100c65780639f38369a14610469578063a6c3d16514610489578063b353aaa7146104a9578063baf3292d146104dd57600080fd5b80638cfd8f5c146103ee5780638da5cb5b14610426578063950c8a741461044957600080fd5b80633f1f4fa4116101595780635c975abb116101335780635c975abb1461037457806366ad5c8a1461038c578063715018a6146103ac5780637533d788146103c157600080fd5b80633f1f4fa4146102ca57806342d65a8d146103055780635b8c41e61461032557600080fd5b80630df37483116101955780630df374831461023a57806310ddb1371461025a5780632dbbec081461027a5780633d8b38f61461029a57600080fd5b80621d3567146101bb5780630540fbf2146101dd57806307e0db171461021a575b600080fd5b3480156101c757600080fd5b506101db6101d6366004611976565b6105c6565b005b3480156101e957600080fd5b506006546101fd906001600160a01b031681565b6040516001600160a01b0390911681526020015b60405180910390f35b34801561022657600080fd5b506101db610235366004611a09565b6107f7565b34801561024657600080fd5b506101db610255366004611a24565b610880565b34801561026657600080fd5b506101db610275366004611a09565b61089f565b34801561028657600080fd5b506101db610295366004611a09565b6108f7565b3480156102a657600080fd5b506102ba6102b5366004611a4e565b61094d565b6040519015158152602001610211565b3480156102d657600080fd5b506102f76102e5366004611a09565b60036020526000908152604090205481565b604051908152602001610211565b34801561031157600080fd5b506101db610320366004611a4e565b610a19565b34801561033157600080fd5b506102f7610340366004611b0d565b6005602090815260009384526040808520845180860184018051928152908401958401959095209452929052825290205481565b34801561038057600080fd5b5060005460ff166102ba565b34801561039857600080fd5b506101db6103a7366004611976565b610a9f565b3480156103b857600080fd5b506101db610b7b565b3480156103cd57600080fd5b506103e16103dc366004611a09565b610b8f565b6040516102119190611c09565b3480156103fa57600080fd5b506102f7610409366004611c1c565b600260209081526000928352604080842090915290825290205481565b34801561043257600080fd5b5060005461010090046001600160a01b03166101fd565b34801561045557600080fd5b506004546101fd906001600160a01b031681565b34801561047557600080fd5b506103e1610484366004611a09565b610c29565b34801561049557600080fd5b506101db6104a4366004611a4e565b610d3f565b3480156104b557600080fd5b506101fd7f000000000000000000000000000000000000000000000000000000000000000081565b3480156104e957600080fd5b506101db6104f8366004611c64565b610dd2565b34801561050957600080fd5b506102f761271081565b34801561051f57600080fd5b506101db61052e366004611c81565b610e2e565b6101db610541366004611976565b610ec3565b34801561055257600080fd5b506101db610561366004611cef565b6110d9565b34801561057257600080fd5b506101db610581366004611a4e565b611143565b34801561059257600080fd5b506101db6105a1366004611c64565b61119d565b3480156105b257600080fd5b506103e16105c1366004611d2b565b611216565b337f00000000000000000000000000000000000000000000000000000000000000006001600160a01b0316146106435760405162461bcd60e51b815260206004820152601e60248201527f4c7a4170703a20696e76616c696420656e64706f696e742063616c6c6572000060448201526064015b60405180910390fd5b61ffff86166000908152600160205260408120805461066190611d78565b80601f016020809104026020016040519081016040528092919081815260200182805461068d90611d78565b80156106da5780601f106106af576101008083540402835291602001916106da565b820191906000526020600020905b8154815290600101906020018083116106bd57829003601f168201915b505050505090508051868690501480156106f5575060008151115b801561071d5750805160208201206040516107139088908890611db2565b6040518091039020145b6107785760405162461bcd60e51b815260206004820152602660248201527f4c7a4170703a20696e76616c696420736f757263652073656e64696e6720636f6044820152651b9d1c9858dd60d21b606482015260840161063a565b6107ee8787878080601f01602080910402602001604051908101604052809392919081815260200183838082843760009201919091525050604080516020601f8a018190048102820181019092528881528a9350915088908890819084018382808284376000920191909152506112c792505050565b50505050505050565b6107ff6113f2565b6040516307e0db1760e01b815261ffff821660048201527f00000000000000000000000000000000000000000000000000000000000000006001600160a01b0316906307e0db17906024015b600060405180830381600087803b15801561086557600080fd5b505af1158015610879573d6000803e3d6000fd5b5050505050565b6108886113f2565b61ffff909116600090815260036020526040902055565b6108a76113f2565b6040516310ddb13760e01b815261ffff821660048201527f00000000000000000000000000000000000000000000000000000000000000006001600160a01b0316906310ddb1379060240161084b565b6108ff6113f2565b61ffff8116600090815260016020526040812061091b916117b9565b60405161ffff8216907f6d5075c81d4d9e75bec6052f4e44f58f8a8cf1327544addbbf015fb06f83bd3790600090a250565b61ffff83166000908152600160205260408120805482919061096e90611d78565b80601f016020809104026020016040519081016040528092919081815260200182805461099a90611d78565b80156109e75780601f106109bc576101008083540402835291602001916109e7565b820191906000526020600020905b8154815290600101906020018083116109ca57829003601f168201915b5050505050905083836040516109fe929190611db2565b60405180910390208180519060200120149150509392505050565b610a216113f2565b6040516342d65a8d60e01b81526001600160a01b037f000000000000000000000000000000000000000000000000000000000000000016906342d65a8d90610a7190869086908690600401611deb565b600060405180830381600087803b158015610a8b57600080fd5b505af11580156107ee573d6000803e3d6000fd5b333014610afd5760405162461bcd60e51b815260206004820152602660248201527f4e6f6e626c6f636b696e674c7a4170703a2063616c6c6572206d7573742062656044820152650204c7a4170760d41b606482015260840161063a565b610b738686868080601f01602080910402602001604051908101604052809392919081815260200183838082843760009201919091525050604080516020601f89018190048102820181019092528781528993509150879087908190840183828082843760009201919091525061145292505050565b505050505050565b610b836113f2565b610b8d6000611583565b565b60016020526000908152604090208054610ba890611d78565b80601f0160208091040260200160405190810160405280929190818152602001828054610bd490611d78565b8015610c215780601f10610bf657610100808354040283529160200191610c21565b820191906000526020600020905b815481529060010190602001808311610c0457829003601f168201915b505050505081565b61ffff8116600090815260016020526040812080546060929190610c4c90611d78565b80601f0160208091040260200160405190810160405280929190818152602001828054610c7890611d78565b8015610cc55780601f10610c9a57610100808354040283529160200191610cc5565b820191906000526020600020905b815481529060010190602001808311610ca857829003601f168201915b505050505090508051600003610d1d5760405162461bcd60e51b815260206004820152601d60248201527f4c7a4170703a206e6f20747275737465642070617468207265636f7264000000604482015260640161063a565b610d38600060148351610d309190611e1f565b8391906115dc565b9392505050565b610d476113f2565b818130604051602001610d5c93929190611e36565b60408051601f1981840301815291815261ffff85166000908152600160209081529190208251610d91939192909101906117f3565b507f8c0400cfe2d1199b1a725c78960bcc2a344d869b80590d0f2bd005db15a572ce838383604051610dc593929190611deb565b60405180910390a1505050565b610dda6113f2565b600480546001600160a01b0319166001600160a01b0383169081179091556040519081527f5db758e995a17ec1ad84bdef7e8c3293a0bd6179bcce400dff5d4c3d87db726b9060200160405180910390a150565b610e366113f2565b6040516332fb62e760e21b81526001600160a01b037f0000000000000000000000000000000000000000000000000000000000000000169063cbed8b9c90610e8a9088908890889088908890600401611e5c565b600060405180830381600087803b158015610ea457600080fd5b505af1158015610eb8573d6000803e3d6000fd5b505050505050505050565b61ffff86166000908152600560205260408082209051610ee69088908890611db2565b90815260408051602092819003830190206001600160401b03871660009081529252902054905080610f665760405162461bcd60e51b815260206004820152602360248201527f4e6f6e626c6f636b696e674c7a4170703a206e6f2073746f726564206d65737360448201526261676560e81b606482015260840161063a565b808383604051610f77929190611db2565b604051809103902014610fd65760405162461bcd60e51b815260206004820152602160248201527f4e6f6e626c6f636b696e674c7a4170703a20696e76616c6964207061796c6f616044820152601960fa1b606482015260840161063a565b61ffff87166000908152600560205260408082209051610ff99089908990611db2565b90815260408051602092819003830181206001600160401b038916600090815290845282902093909355601f88018290048202830182019052868252611091918991899089908190840183828082843760009201919091525050604080516020601f8a018190048102820181019092528881528a93509150889088908190840183828082843760009201919091525061145292505050565b7fc264d91f3adc5588250e1551f547752ca0cfa8f6b530d243b9f9f4cab10ea8e587878787856040516110c8959493929190611e95565b60405180910390a150505050505050565b6110e16113f2565b61ffff83811660008181526002602090815260408083209487168084529482529182902085905581519283528201929092529081018290527f9d5c7c0b934da8fefa9c7760c98383778a12dfbfc0c3b3106518f43fb9508ac090606001610dc5565b61114b6113f2565b61ffff83166000908152600160205260409020611169908383611877565b507ffa41487ad5d6728f0b19276fa1eddc16558578f5109fc39d2dc33c3230470dab838383604051610dc593929190611deb565b6111a56113f2565b6001600160a01b03811661120a5760405162461bcd60e51b815260206004820152602660248201527f4f776e61626c653a206e6577206f776e657220697320746865207a65726f206160448201526564647265737360d01b606482015260840161063a565b61121381611583565b50565b604051633d7b2f6f60e21b815261ffff808616600483015284166024820152306044820152606481018290526060907f00000000000000000000000000000000000000000000000000000000000000006001600160a01b03169063f5ecbdbc90608401600060405180830381865afa158015611296573d6000803e3d6000fd5b505050506040513d6000823e601f3d908101601f191682016040526112be9190810190611ed0565b95945050505050565b6112cf6116e9565b617530600080611342835a6112e49190611e1f565b6096306001600160a01b03166366ad5c8a8b8b8b8b60405160240161130c9493929190611f3d565b60408051601f198184030181529190526020810180516001600160e01b031660e09390931b92909217909152309392915061172f565b91509150816107ee5760008480519060200120905080600560008a61ffff1661ffff168152602001908152602001600020886040516113819190611f7b565b9081526040805191829003602090810183206001600160401b038b1660009081529152209190915561ffff8916907f41d73ce7be31a588d59fe9013cdcfe583bc0aab25093d042b64cade0df730656906113e0908a908a908790611f97565b60405180910390a25050505050505050565b6000546001600160a01b03610100909104163314610b8d5760405162461bcd60e51b815260206004820181905260248201527f4f776e61626c653a2063616c6c6572206973206e6f7420746865206f776e6572604482015260640161063a565b60008060008380602001905181019061146b9190611fd5565b60065492955090935091506001600160a01b0316638d4a327488858585611493826001612037565b6040516001600160e01b031960e088901b16815261ffff90951660048601526001600160a01b03909316602485015263ffffffff91821660448501526001600160601b0316606484015216608482015260a401600060405180830381600087803b15801561150057600080fd5b505af1158015611514573d6000803e3d6000fd5b50506001600160601b0383169150506001600160a01b0384167fc9a7cbc72b86947e687208a5de683ad87ccc58749922bce0f834618e58fab4a38461155a816001612037565b6040805163ffffffff93841681529290911660208301520160405180910390a350505050505050565b600080546001600160a01b03838116610100818102610100600160a81b0319851617855560405193049190911692909183917f8be0079c531659141344cd1fd0a4f28419497f9722a3daafe3b4186f6b6457e091a35050565b6060816115ea81601f61205f565b10156116295760405162461bcd60e51b815260206004820152600e60248201526d736c6963655f6f766572666c6f7760901b604482015260640161063a565b611633828461205f565b845110156116775760405162461bcd60e51b8152602060048201526011602482015270736c6963655f6f75744f66426f756e647360781b604482015260640161063a565b60608215801561169657604051915060008252602082016040526116e0565b6040519150601f8416801560200281840101858101878315602002848b0101015b818310156116cf5780518352602092830192016116b7565b5050858452601f01601f1916604052505b50949350505050565b60005460ff1615610b8d5760405162461bcd60e51b815260206004820152601060248201526f14185d5cd8589b194e881c185d5cd95960821b604482015260640161063a565b6000606060008060008661ffff166001600160401b0381111561175457611754611aa0565b6040519080825280601f01601f19166020018201604052801561177e576020820181803683370190505b50905060008087516020890160008d8df191503d9250868311156117a0578692505b828152826000602083013e909890975095505050505050565b5080546117c590611d78565b6000825580601f106117d5575050565b601f01602090049060005260206000209081019061121391906118eb565b8280546117ff90611d78565b90600052602060002090601f0160209004810192826118215760008555611867565b82601f1061183a57805160ff1916838001178555611867565b82800160010185558215611867579182015b8281111561186757825182559160200191906001019061184c565b506118739291506118eb565b5090565b82805461188390611d78565b90600052602060002090601f0160209004810192826118a55760008555611867565b82601f106118be5782800160ff19823516178555611867565b82800160010185558215611867579182015b828111156118675782358255916020019190600101906118d0565b5b8082111561187357600081556001016118ec565b803561ffff8116811461191257600080fd5b919050565b60008083601f84011261192957600080fd5b5081356001600160401b0381111561194057600080fd5b60208301915083602082850101111561195857600080fd5b9250929050565b80356001600160401b038116811461191257600080fd5b6000806000806000806080878903121561198f57600080fd5b61199887611900565b955060208701356001600160401b03808211156119b457600080fd5b6119c08a838b01611917565b90975095508591506119d460408a0161195f565b945060608901359150808211156119ea57600080fd5b506119f789828a01611917565b979a9699509497509295939492505050565b600060208284031215611a1b57600080fd5b610d3882611900565b60008060408385031215611a3757600080fd5b611a4083611900565b946020939093013593505050565b600080600060408486031215611a6357600080fd5b611a6c84611900565b925060208401356001600160401b03811115611a8757600080fd5b611a9386828701611917565b9497909650939450505050565b634e487b7160e01b600052604160045260246000fd5b604051601f8201601f191681016001600160401b0381118282101715611ade57611ade611aa0565b604052919050565b60006001600160401b03821115611aff57611aff611aa0565b50601f01601f191660200190565b600080600060608486031215611b2257600080fd5b611b2b84611900565b925060208401356001600160401b03811115611b4657600080fd5b8401601f81018613611b5757600080fd5b8035611b6a611b6582611ae6565b611ab6565b818152876020838501011115611b7f57600080fd5b81602084016020830137600060208383010152809450505050611ba46040850161195f565b90509250925092565b60005b83811015611bc8578181015183820152602001611bb0565b83811115611bd7576000848401525b50505050565b60008151808452611bf5816020860160208601611bad565b601f01601f19169290920160200192915050565b602081526000610d386020830184611bdd565b60008060408385031215611c2f57600080fd5b611c3883611900565b9150611c4660208401611900565b90509250929050565b6001600160a01b038116811461121357600080fd5b600060208284031215611c7657600080fd5b8135610d3881611c4f565b600080600080600060808688031215611c9957600080fd5b611ca286611900565b9450611cb060208701611900565b93506040860135925060608601356001600160401b03811115611cd257600080fd5b611cde88828901611917565b969995985093965092949392505050565b600080600060608486031215611d0457600080fd5b611d0d84611900565b9250611d1b60208501611900565b9150604084013590509250925092565b60008060008060808587031215611d4157600080fd5b611d4a85611900565b9350611d5860208601611900565b92506040850135611d6881611c4f565b9396929550929360600135925050565b600181811c90821680611d8c57607f821691505b602082108103611dac57634e487b7160e01b600052602260045260246000fd5b50919050565b8183823760009101908152919050565b81835281816020850137506000828201602090810191909152601f909101601f19169091010190565b61ffff841681526040602082015260006112be604083018486611dc2565b634e487b7160e01b600052601160045260246000fd5b600082821015611e3157611e31611e09565b500390565b8284823760609190911b6bffffffffffffffffffffffff19169101908152601401919050565b600061ffff808816835280871660208401525084604083015260806060830152611e8a608083018486611dc2565b979650505050505050565b61ffff86168152608060208201526000611eb3608083018688611dc2565b6001600160401b0394909416604083015250606001529392505050565b600060208284031215611ee257600080fd5b81516001600160401b03811115611ef857600080fd5b8201601f81018413611f0957600080fd5b8051611f17611b6582611ae6565b818152856020838501011115611f2c57600080fd5b6112be826020830160208601611bad565b61ffff85168152608060208201526000611f5a6080830186611bdd565b6001600160401b03851660408401528281036060840152611e8a8185611bdd565b60008251611f8d818460208701611bad565b9190910192915050565b606081526000611faa6060830186611bdd565b6001600160401b03851660208401528281036040840152611fcb8185611bdd565b9695505050505050565b600080600060608486031215611fea57600080fd5b8351611ff581611c4f565b602085015190935063ffffffff8116811461200f57600080fd5b60408501519092506001600160601b038116811461202c57600080fd5b809150509250925092565b600063ffffffff80831681851680830382111561205657612056611e09565b01949350505050565b6000821982111561207257612072611e09565b50019056fea26469706673582212201e98d9525dfb7544a5eecb2fbb96dc4a7ada74a39e4c2ae36336d33ee42e13ae64736f6c634300080d0033",
  "devdoc": {
    "author": "Venus",
    "kind": "dev",
    "methods": {
      "owner()": {
        "details": "Returns the address of the current owner."
      },
      "paused()": {
        "details": "Returns true if the contract is paused, and false otherwise."
      },
      "removeTrustedRemote(uint16)": {
        "custom:access": "Only owner",
        "custom:event": "Emit TrustedRemoteRemoved with remote chain id",
        "params": {
          "remoteChainId": "Remote chain Id ."
        }
      },
      "renounceOwnership()": {
        "details": "Leaves the contract without owner. It will not be possible to call `onlyOwner` functions. Can only be called by the current owner. NOTE: Renouncing ownership will leave the contract without an owner, thereby disabling any functionality that is only available to the owner."
      },
      "transferOwnership(address)": {
        "details": "Transfers ownership of the contract to a new account (`newOwner`). Can only be called by the current owner."
      }
    },
    "title": "VotesSyncReceiver",
    "version": 1
  },
  "userdoc": {
    "errors": {
      "ZeroAddressNotAllowed()": [
        {
          "notice": "Thrown if the supplied address is a zero address where it is not allowed"
        }
      ]
    },
    "events": {
      "ReceivePayloadFailed(uint16,bytes,uint64,bytes)": {
        "notice": "Event emitted when call failed"
      },
      "TrustedRemoteRemoved(uint16)": {
        "notice": "Event emitted when trusted remote sets to empty."
      },
      "VotesSynced(address,uint32,uint96,uint32)": {
        "notice": "Event emitted when votes synced"
      }
    },
    "kind": "user",
    "methods": {
      "multichainVoteRegistry()": {
        "notice": "Multichain vote registry."
      },
      "removeTrustedRemote(uint16)": {
        "notice": "Remove trusted remote from storage"
      }
    },
    "notice": "The VotesSyncReceiver is builds upon the functionality of its parent contract, NonblockingLzApp which is part of layer zero bridge. It receives voting information in the form of payload from remote(non-BSC) chains and send that information to MultichainVoteRegistry.",
    "version": 1
  },
  "storageLayout": {
    "storage": [
      {
        "astId": 6278,
        "contract": "contracts/XVSVault/VotesSyncReceiver.sol:VotesSyncReceiver",
        "label": "_paused",
        "offset": 0,
        "slot": "0",
        "type": "t_bool"
      },
      {
        "astId": 6072,
        "contract": "contracts/XVSVault/VotesSyncReceiver.sol:VotesSyncReceiver",
        "label": "_owner",
        "offset": 1,
        "slot": "0",
        "type": "t_address"
      },
      {
        "astId": 455,
        "contract": "contracts/XVSVault/VotesSyncReceiver.sol:VotesSyncReceiver",
        "label": "trustedRemoteLookup",
        "offset": 0,
        "slot": "1",
        "type": "t_mapping(t_uint16,t_bytes_storage)"
      },
      {
        "astId": 461,
        "contract": "contracts/XVSVault/VotesSyncReceiver.sol:VotesSyncReceiver",
        "label": "minDstGasLookup",
        "offset": 0,
        "slot": "2",
        "type": "t_mapping(t_uint16,t_mapping(t_uint16,t_uint256))"
      },
      {
        "astId": 465,
        "contract": "contracts/XVSVault/VotesSyncReceiver.sol:VotesSyncReceiver",
        "label": "payloadSizeLimitLookup",
        "offset": 0,
        "slot": "3",
        "type": "t_mapping(t_uint16,t_uint256)"
      },
      {
        "astId": 467,
        "contract": "contracts/XVSVault/VotesSyncReceiver.sol:VotesSyncReceiver",
        "label": "precrime",
        "offset": 0,
        "slot": "4",
        "type": "t_address"
      },
      {
        "astId": 997,
        "contract": "contracts/XVSVault/VotesSyncReceiver.sol:VotesSyncReceiver",
        "label": "failedMessages",
        "offset": 0,
        "slot": "5",
        "type": "t_mapping(t_uint16,t_mapping(t_bytes_memory_ptr,t_mapping(t_uint64,t_bytes32)))"
      },
      {
        "astId": 23653,
        "contract": "contracts/XVSVault/VotesSyncReceiver.sol:VotesSyncReceiver",
        "label": "multichainVoteRegistry",
        "offset": 0,
        "slot": "6",
        "type": "t_contract(IMultichainVoteRegistry)23277"
      }
    ],
    "types": {
      "t_address": {
        "encoding": "inplace",
        "label": "address",
        "numberOfBytes": "20"
      },
      "t_bool": {
        "encoding": "inplace",
        "label": "bool",
        "numberOfBytes": "1"
      },
      "t_bytes32": {
        "encoding": "inplace",
        "label": "bytes32",
        "numberOfBytes": "32"
      },
      "t_bytes_memory_ptr": {
        "encoding": "bytes",
        "label": "bytes",
        "numberOfBytes": "32"
      },
      "t_bytes_storage": {
        "encoding": "bytes",
        "label": "bytes",
        "numberOfBytes": "32"
      },
      "t_contract(IMultichainVoteRegistry)23277": {
        "encoding": "inplace",
        "label": "contract IMultichainVoteRegistry",
        "numberOfBytes": "20"
      },
      "t_mapping(t_bytes_memory_ptr,t_mapping(t_uint64,t_bytes32))": {
        "encoding": "mapping",
        "key": "t_bytes_memory_ptr",
        "label": "mapping(bytes => mapping(uint64 => bytes32))",
        "numberOfBytes": "32",
        "value": "t_mapping(t_uint64,t_bytes32)"
      },
      "t_mapping(t_uint16,t_bytes_storage)": {
        "encoding": "mapping",
        "key": "t_uint16",
        "label": "mapping(uint16 => bytes)",
        "numberOfBytes": "32",
        "value": "t_bytes_storage"
      },
      "t_mapping(t_uint16,t_mapping(t_bytes_memory_ptr,t_mapping(t_uint64,t_bytes32)))": {
        "encoding": "mapping",
        "key": "t_uint16",
        "label": "mapping(uint16 => mapping(bytes => mapping(uint64 => bytes32)))",
        "numberOfBytes": "32",
        "value": "t_mapping(t_bytes_memory_ptr,t_mapping(t_uint64,t_bytes32))"
      },
      "t_mapping(t_uint16,t_mapping(t_uint16,t_uint256))": {
        "encoding": "mapping",
        "key": "t_uint16",
        "label": "mapping(uint16 => mapping(uint16 => uint256))",
        "numberOfBytes": "32",
        "value": "t_mapping(t_uint16,t_uint256)"
      },
      "t_mapping(t_uint16,t_uint256)": {
        "encoding": "mapping",
        "key": "t_uint16",
        "label": "mapping(uint16 => uint256)",
        "numberOfBytes": "32",
        "value": "t_uint256"
      },
      "t_mapping(t_uint64,t_bytes32)": {
        "encoding": "mapping",
        "key": "t_uint64",
        "label": "mapping(uint64 => bytes32)",
        "numberOfBytes": "32",
        "value": "t_bytes32"
      },
      "t_uint16": {
        "encoding": "inplace",
        "label": "uint16",
        "numberOfBytes": "2"
      },
      "t_uint256": {
        "encoding": "inplace",
        "label": "uint256",
        "numberOfBytes": "32"
      },
      "t_uint64": {
        "encoding": "inplace",
        "label": "uint64",
        "numberOfBytes": "8"
      }
    }
  }
}