{
  "address": "0x7FbA7219048F7da7d06cfb1e098066b9b6D30AC5",
  "abi": [
    {
      "inputs": [
        {
          "internalType": "address",
          "name": "voteSyncReceiver_",
          "type": "address"
        }
      ],
      "stateMutability": "nonpayable",
      "type": "constructor"
    },
    {
      "inputs": [
        {
          "internalType": "address",
          "name": "sender",
          "type": "address"
        },
        {
          "internalType": "address",
          "name": "calledContract",
          "type": "address"
        },
        {
          "internalType": "string",
          "name": "methodSignature",
          "type": "string"
        }
      ],
      "name": "Unauthorized",
      "type": "error"
    },
    {
      "inputs": [],
      "name": "ZeroAddressNotAllowed",
      "type": "error"
    },
    {
      "anonymous": false,
      "inputs": [
        {
          "indexed": false,
          "internalType": "string",
          "name": "signature",
          "type": "string"
        },
        {
          "indexed": false,
          "internalType": "bool",
          "name": "active",
          "type": "bool"
        }
      ],
      "name": "FunctionRegistryChanged",
      "type": "event"
    },
    {
      "anonymous": false,
      "inputs": [
        {
          "indexed": false,
          "internalType": "uint8",
          "name": "version",
          "type": "uint8"
        }
      ],
      "name": "Initialized",
      "type": "event"
    },
    {
      "anonymous": false,
      "inputs": [
        {
          "indexed": false,
          "internalType": "address",
          "name": "oldAccessControlManager",
          "type": "address"
        },
        {
          "indexed": false,
          "internalType": "address",
          "name": "newAccessControlManager",
          "type": "address"
        }
      ],
      "name": "NewAccessControlManager",
      "type": "event"
    },
    {
      "anonymous": false,
      "inputs": [
        {
          "indexed": true,
          "internalType": "address",
          "name": "previousOwner",
          "type": "address"
        },
        {
          "indexed": true,
          "internalType": "address",
          "name": "newOwner",
          "type": "address"
        }
      ],
      "name": "OwnershipTransferStarted",
      "type": "event"
    },
    {
      "anonymous": false,
      "inputs": [
        {
          "indexed": true,
          "internalType": "address",
          "name": "previousOwner",
          "type": "address"
        },
        {
          "indexed": true,
          "internalType": "address",
          "name": "newOwner",
          "type": "address"
        }
      ],
      "name": "OwnershipTransferred",
      "type": "event"
    },
    {
      "stateMutability": "nonpayable",
      "type": "fallback"
    },
    {
      "inputs": [],
      "name": "acceptOwnership",
      "outputs": [],
      "stateMutability": "nonpayable",
      "type": "function"
    },
    {
      "inputs": [],
      "name": "accessControlManager",
      "outputs": [
        {
          "internalType": "contract IAccessControlManagerV8",
          "name": "",
          "type": "address"
        }
      ],
      "stateMutability": "view",
      "type": "function"
    },
    {
      "inputs": [
        {
          "internalType": "bytes4",
          "name": "",
          "type": "bytes4"
        }
      ],
      "name": "functionRegistry",
      "outputs": [
        {
          "internalType": "string",
          "name": "",
          "type": "string"
        }
      ],
      "stateMutability": "view",
      "type": "function"
    },
    {
      "inputs": [
        {
          "internalType": "address",
          "name": "accessControlManager_",
          "type": "address"
        }
      ],
      "name": "initialize",
      "outputs": [],
      "stateMutability": "nonpayable",
      "type": "function"
    },
    {
      "inputs": [
        {
          "internalType": "uint16",
          "name": "remoteChainId",
          "type": "uint16"
        },
        {
          "internalType": "bytes",
          "name": "remoteAddress",
          "type": "bytes"
        }
      ],
      "name": "isTrustedRemote",
      "outputs": [
        {
          "internalType": "bool",
          "name": "",
          "type": "bool"
        }
      ],
      "stateMutability": "nonpayable",
      "type": "function"
    },
    {
      "inputs": [],
      "name": "owner",
      "outputs": [
        {
          "internalType": "address",
          "name": "",
          "type": "address"
        }
      ],
      "stateMutability": "view",
      "type": "function"
    },
    {
      "inputs": [],
      "name": "pendingOwner",
      "outputs": [
        {
          "internalType": "address",
          "name": "",
          "type": "address"
        }
      ],
      "stateMutability": "view",
      "type": "function"
    },
    {
      "inputs": [],
      "name": "renounceOwnership",
      "outputs": [],
      "stateMutability": "nonpayable",
      "type": "function"
    },
    {
      "inputs": [
        {
          "internalType": "address",
          "name": "accessControlManager_",
          "type": "address"
        }
      ],
      "name": "setAccessControlManager",
      "outputs": [],
      "stateMutability": "nonpayable",
      "type": "function"
    },
    {
      "inputs": [
        {
          "internalType": "uint16",
          "name": "remoteChainId",
          "type": "uint16"
        },
        {
          "internalType": "bytes",
          "name": "remoteAddress",
          "type": "bytes"
        }
      ],
      "name": "setTrustedRemoteAddress",
      "outputs": [],
      "stateMutability": "nonpayable",
      "type": "function"
    },
    {
      "inputs": [
        {
          "internalType": "address",
          "name": "newOwner",
          "type": "address"
        }
      ],
      "name": "transferBridgeOwnership",
      "outputs": [],
      "stateMutability": "nonpayable",
      "type": "function"
    },
    {
      "inputs": [
        {
          "internalType": "address",
          "name": "newOwner",
          "type": "address"
        }
      ],
      "name": "transferOwnership",
      "outputs": [],
      "stateMutability": "nonpayable",
      "type": "function"
    },
    {
      "inputs": [
        {
          "internalType": "string[]",
          "name": "signatures",
          "type": "string[]"
        },
        {
          "internalType": "bool[]",
          "name": "active",
          "type": "bool[]"
        }
      ],
      "name": "upsertSignature",
      "outputs": [],
      "stateMutability": "nonpayable",
      "type": "function"
    },
    {
      "inputs": [],
      "name": "voteSyncReceiver",
      "outputs": [
        {
          "internalType": "contract IVoteSyncReceiver",
          "name": "",
          "type": "address"
        }
      ],
      "stateMutability": "view",
      "type": "function"
    }
  ],
  "transactionHash": "0x6428e4a28c726104f89daf2f024f9a83f8a925858244adb5b990938dbc8d8dc5",
  "args": [
    "0xe54Cbf7D9647c9BAa907bA101b49262E6dcD9acF"
  ],
  "numDeployments": 1,
  "solcInputHash": "fae2b0302852fd12612cc8559b604ed1",
  "bytecode": "0x60a06040523480156200001157600080fd5b50604051620016f0380380620016f0833981016040819052620000349162000149565b6200003f816200005d565b6001600160a01b0381166080526200005662000088565b506200017b565b6001600160a01b03811662000085576040516342bcdf7f60e11b815260040160405180910390fd5b50565b600054610100900460ff1615620000f55760405162461bcd60e51b815260206004820152602760248201527f496e697469616c697a61626c653a20636f6e747261637420697320696e697469604482015266616c697a696e6760c81b606482015260840160405180910390fd5b60005460ff9081161462000147576000805460ff191660ff9081179091556040519081527f7f26b83ff96e1f2b6a682f133852f6798a09c465da95921460cefb38474024989060200160405180910390a15b565b6000602082840312156200015c57600080fd5b81516001600160a01b03811681146200017457600080fd5b9392505050565b60805161153d620001b360003960008181610161015281816102a2015281816105d6015281816106c00152610b3e015261153d6000f3fe608060405234801561001057600080fd5b50600436106100ea5760003560e01c806379ba50971161008c578063b4a0bdf311610066578063b4a0bdf31461031b578063c4d66de81461032c578063e30c39781461033f578063f2fde38b14610350576100ea565b806379ba5097146102ef5780638da5cb5b146102f7578063a6c3d16514610308576100ea565b80633f90b540116100c85780633f90b5401461028a578063499e17951461029d5780634bb7453e146102dc578063715018a61461023c576100ea565b80630e32cb8614610229578063180d295c1461023e5780633d8b38f614610267575b600036606060006101066000356001600160e01b031916610363565b905080516000036101535760405162461bcd60e51b8152602060048201526012602482015271119d5b98dd1a5bdb881b9bdd08199bdd5b9960721b60448201526064015b60405180910390fd5b61015c81610410565b6000807f00000000000000000000000000000000000000000000000000000000000000006001600160a01b03168686604051610199929190611088565b6000604051808303816000865af19150503d80600081146101d6576040519150601f19603f3d011682016040523d82523d6000602084013e6101db565b606091505b50915091508161021b5760405162461bcd60e51b815260206004820152600b60248201526a18d85b1b0819985a5b195960aa1b604482015260640161014a565b805195506020019350505050f35b61023c610237366004611098565b6104ae565b005b61025161024c3660046110c8565b6104c2565b60405161025e919061113f565b60405180910390f35b61027a610275366004611152565b61055c565b604051901515815260200161025e565b61023c610298366004611098565b61065a565b6102c47f000000000000000000000000000000000000000000000000000000000000000081565b6040516001600160a01b03909116815260200161025e565b61023c6102ea36600461122a565b61071f565b61023c610a33565b6033546001600160a01b03166102c4565b61023c610316366004611152565b610aaa565b6097546001600160a01b03166102c4565b61023c61033a366004611098565b610bae565b6065546001600160a01b03166102c4565b61023c61035e366004611098565b610cca565b6001600160e01b03198116600090815260c96020526040902080546060919061038b90611296565b80601f01602080910402602001604051908101604052809291908181526020018280546103b790611296565b80156104045780601f106103d957610100808354040283529160200191610404565b820191906000526020600020905b8154815290600101906020018083116103e757829003601f168201915b50505050509050919050565b6097546040516318c5e8ab60e01b81526000916001600160a01b0316906318c5e8ab9061044390339086906004016112d0565b602060405180830381865afa158015610460573d6000803e3d6000fd5b505050506040513d601f19601f820116820180604052508101906104849190611302565b9050806104aa57333083604051634a3fa29360e01b815260040161014a9392919061131f565b5050565b6104b6610d3b565b6104bf81610d95565b50565b60c960205260009081526040902080546104db90611296565b80601f016020809104026020016040519081016040528092919081815260200182805461050790611296565b80156105545780601f1061052957610100808354040283529160200191610554565b820191906000526020600020905b81548152906001019060200180831161053757829003601f168201915b505050505081565b60008361ffff166000036105ad5760405162461bcd60e51b8152602060048201526018602482015277436861696e4964206d757374206e6f74206265207a65726f60401b604482015260640161014a565b6105bf6105ba8484610e53565b610e69565b604051631ec59c7b60e11b81526001600160a01b037f00000000000000000000000000000000000000000000000000000000000000001690633d8b38f69061060f9087908790879060040161137d565b6020604051808303816000875af115801561062e573d6000803e3d6000fd5b505050506040513d601f19601f820116820180604052508101906106529190611302565b949350505050565b6106986040518060400160405280602081526020017f7472616e736665724272696467654f776e657273686970286164647265737329815250610410565b6106a181610e69565b60405163f2fde38b60e01b81526001600160a01b0382811660048301527f0000000000000000000000000000000000000000000000000000000000000000169063f2fde38b90602401600060405180830381600087803b15801561070457600080fd5b505af1158015610718573d6000803e3d6000fd5b5050505050565b610727610d3b565b828181146107865760405162461bcd60e51b815260206004820152602660248201527f496e70757420617272617973206d7573742068617665207468652073616d65206044820152650d8cadccee8d60d31b606482015260840161014a565b60005b81811015610a295760008686838181106107a5576107a561139b565b90506020028101906107b791906113b1565b6040516107c5929190611088565b60408051918290039091206001600160e01b03198116600090815260c96020529182208054919350906107f790611296565b80601f016020809104026020016040519081016040528092919081815260200182805461082390611296565b80156108705780601f1061084557610100808354040283529160200191610870565b820191906000526020600020905b81548152906001019060200180831161085357829003601f168201915b505050505090508585848181106108895761088961139b565b905060200201602081019061089e91906113f8565b80156108a957508051155b1561095a578787848181106108c0576108c061139b565b90506020028101906108d291906113b1565b6001600160e01b03198416600090815260c9602052604090206108f6929091610fb9565b507f9d424e54f4d851aabd288f6cc4946e5726d6b5c0e66ea4ef159a3c40bcc470fa88888581811061092a5761092a61139b565b905060200281019061093c91906113b1565b600160405161094d93929190611415565b60405180910390a1610a14565b85858481811061096c5761096c61139b565b905060200201602081019061098191906113f8565b15801561098e5750805115155b15610a14576001600160e01b03198216600090815260c9602052604081206109b59161103d565b7f9d424e54f4d851aabd288f6cc4946e5726d6b5c0e66ea4ef159a3c40bcc470fa8888858181106109e8576109e861139b565b90506020028101906109fa91906113b1565b6000604051610a0b93929190611415565b60405180910390a15b50508080610a219061143b565b915050610789565b505050505050565b565b60655433906001600160a01b03168114610aa15760405162461bcd60e51b815260206004820152602960248201527f4f776e61626c6532537465703a2063616c6c6572206973206e6f7420746865206044820152683732bb9037bbb732b960b91b606482015260840161014a565b6104bf81610e90565b610acb6040518060600160405280602581526020016114e360259139610410565b8261ffff16600003610b1a5760405162461bcd60e51b8152602060048201526018602482015277436861696e4964206d757374206e6f74206265207a65726f60401b604482015260640161014a565b610b276105ba8383610e53565b60405163a6c3d16560e01b81526001600160a01b037f0000000000000000000000000000000000000000000000000000000000000000169063a6c3d16590610b779086908690869060040161137d565b600060405180830381600087803b158015610b9157600080fd5b505af1158015610ba5573d6000803e3d6000fd5b50505050505050565b600054610100900460ff1615808015610bce5750600054600160ff909116105b80610be85750303b158015610be8575060005460ff166001145b610c4b5760405162461bcd60e51b815260206004820152602e60248201527f496e697469616c697a61626c653a20636f6e747261637420697320616c72656160448201526d191e481a5b9a5d1a585b1a5e995960921b606482015260840161014a565b6000805460ff191660011790558015610c6e576000805461ff0019166101001790555b610c7782610e69565b610c8082610ea9565b80156104aa576000805461ff0019169055604051600181527f7f26b83ff96e1f2b6a682f133852f6798a09c465da95921460cefb3847402498906020015b60405180910390a15050565b610cd2610d3b565b606580546001600160a01b0383166001600160a01b03199091168117909155610d036033546001600160a01b031690565b6001600160a01b03167f38d16b8cac22d99fc7c124b9cd0de2d3fa1faef420bfe791d8c362d765e2270060405160405180910390a350565b6033546001600160a01b03163314610a315760405162461bcd60e51b815260206004820181905260248201527f4f776e61626c653a2063616c6c6572206973206e6f7420746865206f776e6572604482015260640161014a565b6001600160a01b038116610df95760405162461bcd60e51b815260206004820152602560248201527f696e76616c696420616365737320636f6e74726f6c206d616e61676572206164604482015264647265737360d81b606482015260840161014a565b609780546001600160a01b038381166001600160a01b031983168117909355604080519190921680825260208201939093527f66fd58e82f7b31a2a5c30e0888f3093efe4e111b00cd2b0c31fe014601293aa09101610cbe565b6000610e5f8284611462565b60601c9392505050565b6001600160a01b0381166104bf576040516342bcdf7f60e11b815260040160405180910390fd5b606580546001600160a01b03191690556104bf81610ee1565b600054610100900460ff16610ed05760405162461bcd60e51b815260040161014a90611497565b610ed8610f33565b6104bf81610f62565b603380546001600160a01b038381166001600160a01b0319831681179093556040519116919082907f8be0079c531659141344cd1fd0a4f28419497f9722a3daafe3b4186f6b6457e090600090a35050565b600054610100900460ff16610f5a5760405162461bcd60e51b815260040161014a90611497565b610a31610f89565b600054610100900460ff166104b65760405162461bcd60e51b815260040161014a90611497565b600054610100900460ff16610fb05760405162461bcd60e51b815260040161014a90611497565b610a3133610e90565b828054610fc590611296565b90600052602060002090601f016020900481019282610fe7576000855561102d565b82601f106110005782800160ff1982351617855561102d565b8280016001018555821561102d579182015b8281111561102d578235825591602001919060010190611012565b50611039929150611073565b5090565b50805461104990611296565b6000825580601f10611059575050565b601f0160209004906000526020600020908101906104bf91905b5b808211156110395760008155600101611074565b8183823760009101908152919050565b6000602082840312156110aa57600080fd5b81356001600160a01b03811681146110c157600080fd5b9392505050565b6000602082840312156110da57600080fd5b81356001600160e01b0319811681146110c157600080fd5b6000815180845260005b81811015611118576020818501810151868301820152016110fc565b8181111561112a576000602083870101525b50601f01601f19169290920160200192915050565b6020815260006110c160208301846110f2565b60008060006040848603121561116757600080fd5b833561ffff8116811461117957600080fd5b9250602084013567ffffffffffffffff8082111561119657600080fd5b818601915086601f8301126111aa57600080fd5b8135818111156111b957600080fd5b8760208285010111156111cb57600080fd5b6020830194508093505050509250925092565b60008083601f8401126111f057600080fd5b50813567ffffffffffffffff81111561120857600080fd5b6020830191508360208260051b850101111561122357600080fd5b9250929050565b6000806000806040858703121561124057600080fd5b843567ffffffffffffffff8082111561125857600080fd5b611264888389016111de565b9096509450602087013591508082111561127d57600080fd5b5061128a878288016111de565b95989497509550505050565b600181811c908216806112aa57607f821691505b6020821081036112ca57634e487b7160e01b600052602260045260246000fd5b50919050565b6001600160a01b0383168152604060208201819052600090610652908301846110f2565b80151581146104bf57600080fd5b60006020828403121561131457600080fd5b81516110c1816112f4565b6001600160a01b0384811682528316602082015260606040820181905260009061134b908301846110f2565b95945050505050565b81835281816020850137506000828201602090810191909152601f909101601f19169091010190565b61ffff8416815260406020820152600061134b604083018486611354565b634e487b7160e01b600052603260045260246000fd5b6000808335601e198436030181126113c857600080fd5b83018035915067ffffffffffffffff8211156113e357600080fd5b60200191503681900382131561122357600080fd5b60006020828403121561140a57600080fd5b81356110c1816112f4565b604081526000611429604083018587611354565b90508215156020830152949350505050565b60006001820161145b57634e487b7160e01b600052601160045260246000fd5b5060010190565b6bffffffffffffffffffffffff19813581811691601485101561148f5780818660140360031b1b83161692505b505092915050565b6020808252602b908201527f496e697469616c697a61626c653a20636f6e7472616374206973206e6f74206960408201526a6e697469616c697a696e6760a81b60608201526080019056fe7365745472757374656452656d6f7465416464726573732875696e7431362c627974657329a2646970667358221220b684c5872ad614fda59b4ecd6f568a62615290d917ca128dfbaad4268b64a91564736f6c634300080d0033",
  "devdoc": {
    "author": "Venus",
    "kind": "dev",
    "methods": {
      "acceptOwnership()": {
        "details": "The new owner accepts the ownership transfer."
      },
      "constructor": {
        "custom:oz-upgrades-unsafe-allow": "constructor"
      },
      "initialize(address)": {
        "custom:error": "ZeroAddressNotAllowed is thrown when accessControlManager contract address is zero",
        "params": {
          "accessControlManager_": "Address of access control manager contract"
        }
      },
      "isTrustedRemote(uint16,bytes)": {
        "custom:error": "ZeroAddressNotAllowed is thrown when remoteAddress contract address is zero.",
        "params": {
          "remoteAddress": "Address of the remote bridge.",
          "remoteChainId": "Chain Id of the remote chain."
        }
      },
      "owner()": {
        "details": "Returns the address of the current owner."
      },
      "pendingOwner()": {
        "details": "Returns the address of the pending owner."
      },
      "setAccessControlManager(address)": {
        "custom:access": "Only Governance",
        "custom:event": "Emits NewAccessControlManager event",
        "details": "Admin function to set address of AccessControlManager",
        "params": {
          "accessControlManager_": "The new address of the AccessControlManager"
        }
      },
      "setTrustedRemoteAddress(uint16,bytes)": {
        "custom:access": "Controlled by Access Control Manager",
        "custom:error": "ZeroAddressNotAllowed is thrown when remoteAddress contract address is zero",
        "params": {
          "remoteAddress": "Address of the remote bridge",
          "remoteChainId": "Chain Id of the remote chain"
        }
      },
      "transferBridgeOwnership(address)": {
        "custom:access": "Controlled by AccessControlManager",
        "params": {
          "newOwner": "New owner of the XVS Bridge"
        }
      },
      "transferOwnership(address)": {
        "details": "Starts the ownership transfer of the contract to a new account. Replaces the pending transfer if there is one. Can only be called by the current owner."
      },
      "upsertSignature(string[],bool[])": {
        "custom:access": "Only owner",
        "custom:event": "Emit FunctionRegistryChanged with signatures and its active bool value",
        "params": {
          "active": "Bool value, should be true to add function",
          "signatures": "Function signature to be added or removed"
        }
      }
    },
    "stateVariables": {
      "voteSyncReceiver": {
        "custom:oz-upgrades-unsafe-allow": "state-variable-immutable"
      }
    },
    "title": "VotesSyncReceiverAdmin",
    "version": 1
  },
  "userdoc": {
    "errors": {
      "Unauthorized(address,address,string)": [
        {
          "notice": "Thrown when the action is prohibited by AccessControlManager"
        }
      ],
      "ZeroAddressNotAllowed()": [
        {
          "notice": "Thrown if the supplied address is a zero address where it is not allowed"
        }
      ]
    },
    "events": {
      "FunctionRegistryChanged(string,bool)": {
        "notice": "Event emitted when function registry updated"
      },
      "NewAccessControlManager(address,address)": {
        "notice": "Emitted when access control manager contract address is changed"
      }
    },
    "kind": "user",
    "methods": {
      "accessControlManager()": {
        "notice": "Returns the address of the access control manager contract"
      },
      "functionRegistry(bytes4)": {
        "notice": "A mapping keeps track of function signature associated with function name string."
      },
      "isTrustedRemote(uint16,bytes)": {
        "notice": "Returns bool = true if srcAddress is trustedRemote corresponds to chainId_."
      },
      "renounceOwnership()": {
        "notice": "Empty implementation of renounce ownership to avoid any mishappening"
      },
      "setAccessControlManager(address)": {
        "notice": "Sets the address of AccessControlManager"
      },
      "setTrustedRemoteAddress(uint16,bytes)": {
        "notice": "Sets the trusted remote address for a specified remote chain ID"
      },
      "transferBridgeOwnership(address)": {
        "notice": "This function transfer the ownership of the bridge from this contract to new owner"
      },
      "upsertSignature(string[],bool[])": {
        "notice": "A registry of functions that are allowed to be executed from proposals"
      }
    },
    "notice": "The VotesSyncReceiverAdmin contract extends a parent contract AccessControlledV8 for access control, and it manages contract called voteSyncReceiver. It maintains a registry of function signatures and names, allowing for dynamic function handling i.e checking of access control of interaction with only owner functions.",
    "version": 1
  },
  "storageLayout": {
    "storage": [
      {
        "astId": 1647,
        "contract": "contracts/XVSVault/VoteSyncBridgeUtils/VotesSyncReceiverAdmin.sol:VotesSyncReceiverAdmin",
        "label": "_initialized",
        "offset": 0,
        "slot": "0",
        "type": "t_uint8"
      },
      {
        "astId": 1650,
        "contract": "contracts/XVSVault/VoteSyncBridgeUtils/VotesSyncReceiverAdmin.sol:VotesSyncReceiverAdmin",
        "label": "_initializing",
        "offset": 1,
        "slot": "0",
        "type": "t_bool"
      },
      {
        "astId": 2180,
        "contract": "contracts/XVSVault/VoteSyncBridgeUtils/VotesSyncReceiverAdmin.sol:VotesSyncReceiverAdmin",
        "label": "__gap",
        "offset": 0,
        "slot": "1",
        "type": "t_array(t_uint256)50_storage"
      },
      {
        "astId": 1519,
        "contract": "contracts/XVSVault/VoteSyncBridgeUtils/VotesSyncReceiverAdmin.sol:VotesSyncReceiverAdmin",
        "label": "_owner",
        "offset": 0,
        "slot": "51",
        "type": "t_address"
      },
      {
        "astId": 1639,
        "contract": "contracts/XVSVault/VoteSyncBridgeUtils/VotesSyncReceiverAdmin.sol:VotesSyncReceiverAdmin",
        "label": "__gap",
        "offset": 0,
        "slot": "52",
        "type": "t_array(t_uint256)49_storage"
      },
      {
        "astId": 1428,
        "contract": "contracts/XVSVault/VoteSyncBridgeUtils/VotesSyncReceiverAdmin.sol:VotesSyncReceiverAdmin",
        "label": "_pendingOwner",
        "offset": 0,
        "slot": "101",
        "type": "t_address"
      },
      {
        "astId": 1507,
        "contract": "contracts/XVSVault/VoteSyncBridgeUtils/VotesSyncReceiverAdmin.sol:VotesSyncReceiverAdmin",
        "label": "__gap",
        "offset": 0,
        "slot": "102",
        "type": "t_array(t_uint256)49_storage"
      },
      {
        "astId": 2576,
        "contract": "contracts/XVSVault/VoteSyncBridgeUtils/VotesSyncReceiverAdmin.sol:VotesSyncReceiverAdmin",
        "label": "_accessControlManager",
        "offset": 0,
        "slot": "151",
        "type": "t_contract(IAccessControlManagerV8)2761"
      },
      {
        "astId": 2581,
        "contract": "contracts/XVSVault/VoteSyncBridgeUtils/VotesSyncReceiverAdmin.sol:VotesSyncReceiverAdmin",
        "label": "__gap",
        "offset": 0,
        "slot": "152",
        "type": "t_array(t_uint256)49_storage"
      },
      {
        "astId": 3387,
        "contract": "contracts/XVSVault/VoteSyncBridgeUtils/VotesSyncReceiverAdmin.sol:VotesSyncReceiverAdmin",
        "label": "functionRegistry",
        "offset": 0,
        "slot": "201",
        "type": "t_mapping(t_bytes4,t_string_storage)"
      }
    ],
    "types": {
      "t_address": {
        "encoding": "inplace",
        "label": "address",
        "numberOfBytes": "20"
      },
      "t_array(t_uint256)49_storage": {
        "base": "t_uint256",
        "encoding": "inplace",
        "label": "uint256[49]",
        "numberOfBytes": "1568"
      },
      "t_array(t_uint256)50_storage": {
        "base": "t_uint256",
        "encoding": "inplace",
        "label": "uint256[50]",
        "numberOfBytes": "1600"
      },
      "t_bool": {
        "encoding": "inplace",
        "label": "bool",
        "numberOfBytes": "1"
      },
      "t_bytes4": {
        "encoding": "inplace",
        "label": "bytes4",
        "numberOfBytes": "4"
      },
      "t_contract(IAccessControlManagerV8)2761": {
        "encoding": "inplace",
        "label": "contract IAccessControlManagerV8",
        "numberOfBytes": "20"
      },
      "t_mapping(t_bytes4,t_string_storage)": {
        "encoding": "mapping",
        "key": "t_bytes4",
        "label": "mapping(bytes4 => string)",
        "numberOfBytes": "32",
        "value": "t_string_storage"
      },
      "t_string_storage": {
        "encoding": "bytes",
        "label": "string",
        "numberOfBytes": "32"
      },
      "t_uint256": {
        "encoding": "inplace",
        "label": "uint256",
        "numberOfBytes": "32"
      },
      "t_uint8": {
        "encoding": "inplace",
        "label": "uint8",
        "numberOfBytes": "1"
      }
    }
  }
}