{
  "address": "0xc40F5D1db83E80f9426f0A79bf969c98dBcD7800",
  "abi": [
    {
      "inputs": [
        {
          "internalType": "address",
          "name": "endpoint_",
          "type": "address"
        },
        {
          "internalType": "contract IMultichainVoteRegistry",
          "name": "multichainVoteRegistry_",
          "type": "address"
        }
      ],
      "stateMutability": "nonpayable",
      "type": "constructor"
    },
    {
      "inputs": [],
      "name": "ZeroAddressNotAllowed",
      "type": "error"
    },
    {
      "anonymous": false,
      "inputs": [
        {
          "indexed": false,
          "internalType": "uint16",
          "name": "_srcChainId",
          "type": "uint16"
        },
        {
          "indexed": false,
          "internalType": "bytes",
          "name": "_srcAddress",
          "type": "bytes"
        },
        {
          "indexed": false,
          "internalType": "uint64",
          "name": "_nonce",
          "type": "uint64"
        },
        {
          "indexed": false,
          "internalType": "bytes",
          "name": "_payload",
          "type": "bytes"
        },
        {
          "indexed": false,
          "internalType": "bytes",
          "name": "_reason",
          "type": "bytes"
        }
      ],
      "name": "MessageFailed",
      "type": "event"
    },
    {
      "anonymous": false,
      "inputs": [
        {
          "indexed": true,
          "internalType": "address",
          "name": "previousOwner",
          "type": "address"
        },
        {
          "indexed": true,
          "internalType": "address",
          "name": "newOwner",
          "type": "address"
        }
      ],
      "name": "OwnershipTransferred",
      "type": "event"
    },
    {
      "anonymous": false,
      "inputs": [
        {
          "indexed": false,
          "internalType": "address",
          "name": "account",
          "type": "address"
        }
      ],
      "name": "Paused",
      "type": "event"
    },
    {
      "anonymous": false,
      "inputs": [
        {
          "indexed": true,
          "internalType": "uint16",
          "name": "remoteChainId",
          "type": "uint16"
        },
        {
          "indexed": false,
          "internalType": "bytes",
          "name": "remoteAddress",
          "type": "bytes"
        },
        {
          "indexed": false,
          "internalType": "uint64",
          "name": "nonce",
          "type": "uint64"
        },
        {
          "indexed": false,
          "internalType": "bytes",
          "name": "reason",
          "type": "bytes"
        }
      ],
      "name": "ReceivePayloadFailed",
      "type": "event"
    },
    {
      "anonymous": false,
      "inputs": [
        {
          "indexed": false,
          "internalType": "uint16",
          "name": "_srcChainId",
          "type": "uint16"
        },
        {
          "indexed": false,
          "internalType": "bytes",
          "name": "_srcAddress",
          "type": "bytes"
        },
        {
          "indexed": false,
          "internalType": "uint64",
          "name": "_nonce",
          "type": "uint64"
        },
        {
          "indexed": false,
          "internalType": "bytes32",
          "name": "_payloadHash",
          "type": "bytes32"
        }
      ],
      "name": "RetryMessageSuccess",
      "type": "event"
    },
    {
      "anonymous": false,
      "inputs": [
        {
          "indexed": false,
          "internalType": "uint16",
          "name": "_dstChainId",
          "type": "uint16"
        },
        {
          "indexed": false,
          "internalType": "uint16",
          "name": "_type",
          "type": "uint16"
        },
        {
          "indexed": false,
          "internalType": "uint256",
          "name": "_minDstGas",
          "type": "uint256"
        }
      ],
      "name": "SetMinDstGas",
      "type": "event"
    },
    {
      "anonymous": false,
      "inputs": [
        {
          "indexed": false,
          "internalType": "address",
          "name": "precrime",
          "type": "address"
        }
      ],
      "name": "SetPrecrime",
      "type": "event"
    },
    {
      "anonymous": false,
      "inputs": [
        {
          "indexed": false,
          "internalType": "uint16",
          "name": "_remoteChainId",
          "type": "uint16"
        },
        {
          "indexed": false,
          "internalType": "bytes",
          "name": "_path",
          "type": "bytes"
        }
      ],
      "name": "SetTrustedRemote",
      "type": "event"
    },
    {
      "anonymous": false,
      "inputs": [
        {
          "indexed": false,
          "internalType": "uint16",
          "name": "_remoteChainId",
          "type": "uint16"
        },
        {
          "indexed": false,
          "internalType": "bytes",
          "name": "_remoteAddress",
          "type": "bytes"
        }
      ],
      "name": "SetTrustedRemoteAddress",
      "type": "event"
    },
    {
      "anonymous": false,
      "inputs": [
        {
          "indexed": true,
          "internalType": "uint16",
          "name": "chainId",
          "type": "uint16"
        }
      ],
      "name": "TrustedRemoteRemoved",
      "type": "event"
    },
    {
      "anonymous": false,
      "inputs": [
        {
          "indexed": false,
          "internalType": "address",
          "name": "account",
          "type": "address"
        }
      ],
      "name": "Unpaused",
      "type": "event"
    },
    {
      "anonymous": false,
      "inputs": [
        {
          "indexed": true,
          "internalType": "address",
          "name": "delegatee",
          "type": "address"
        },
        {
          "indexed": false,
          "internalType": "uint32",
          "name": "checkpoints",
          "type": "uint32"
        },
        {
          "indexed": true,
          "internalType": "uint96",
          "name": "votes",
          "type": "uint96"
        },
        {
          "indexed": false,
          "internalType": "uint32",
          "name": "nCheckpoint",
          "type": "uint32"
        }
      ],
      "name": "VotesSynced",
      "type": "event"
    },
    {
      "inputs": [],
      "name": "DEFAULT_PAYLOAD_SIZE_LIMIT",
      "outputs": [
        {
          "internalType": "uint256",
          "name": "",
          "type": "uint256"
        }
      ],
      "stateMutability": "view",
      "type": "function"
    },
    {
      "inputs": [
        {
          "internalType": "uint16",
          "name": "",
          "type": "uint16"
        },
        {
          "internalType": "bytes",
          "name": "",
          "type": "bytes"
        },
        {
          "internalType": "uint64",
          "name": "",
          "type": "uint64"
        }
      ],
      "name": "failedMessages",
      "outputs": [
        {
          "internalType": "bytes32",
          "name": "",
          "type": "bytes32"
        }
      ],
      "stateMutability": "view",
      "type": "function"
    },
    {
      "inputs": [
        {
          "internalType": "uint16",
          "name": "_srcChainId",
          "type": "uint16"
        },
        {
          "internalType": "bytes",
          "name": "_srcAddress",
          "type": "bytes"
        }
      ],
      "name": "forceResumeReceive",
      "outputs": [],
      "stateMutability": "nonpayable",
      "type": "function"
    },
    {
      "inputs": [
        {
          "internalType": "uint16",
          "name": "_version",
          "type": "uint16"
        },
        {
          "internalType": "uint16",
          "name": "_chainId",
          "type": "uint16"
        },
        {
          "internalType": "address",
          "name": "",
          "type": "address"
        },
        {
          "internalType": "uint256",
          "name": "_configType",
          "type": "uint256"
        }
      ],
      "name": "getConfig",
      "outputs": [
        {
          "internalType": "bytes",
          "name": "",
          "type": "bytes"
        }
      ],
      "stateMutability": "view",
      "type": "function"
    },
    {
      "inputs": [
        {
          "internalType": "uint16",
          "name": "_remoteChainId",
          "type": "uint16"
        }
      ],
      "name": "getTrustedRemoteAddress",
      "outputs": [
        {
          "internalType": "bytes",
          "name": "",
          "type": "bytes"
        }
      ],
      "stateMutability": "view",
      "type": "function"
    },
    {
      "inputs": [
        {
          "internalType": "uint16",
          "name": "_srcChainId",
          "type": "uint16"
        },
        {
          "internalType": "bytes",
          "name": "_srcAddress",
          "type": "bytes"
        }
      ],
      "name": "isTrustedRemote",
      "outputs": [
        {
          "internalType": "bool",
          "name": "",
          "type": "bool"
        }
      ],
      "stateMutability": "view",
      "type": "function"
    },
    {
      "inputs": [],
      "name": "lzEndpoint",
      "outputs": [
        {
          "internalType": "contract ILayerZeroEndpoint",
          "name": "",
          "type": "address"
        }
      ],
      "stateMutability": "view",
      "type": "function"
    },
    {
      "inputs": [
        {
          "internalType": "uint16",
          "name": "_srcChainId",
          "type": "uint16"
        },
        {
          "internalType": "bytes",
          "name": "_srcAddress",
          "type": "bytes"
        },
        {
          "internalType": "uint64",
          "name": "_nonce",
          "type": "uint64"
        },
        {
          "internalType": "bytes",
          "name": "_payload",
          "type": "bytes"
        }
      ],
      "name": "lzReceive",
      "outputs": [],
      "stateMutability": "nonpayable",
      "type": "function"
    },
    {
      "inputs": [
        {
          "internalType": "uint16",
          "name": "",
          "type": "uint16"
        },
        {
          "internalType": "uint16",
          "name": "",
          "type": "uint16"
        }
      ],
      "name": "minDstGasLookup",
      "outputs": [
        {
          "internalType": "uint256",
          "name": "",
          "type": "uint256"
        }
      ],
      "stateMutability": "view",
      "type": "function"
    },
    {
      "inputs": [],
      "name": "multichainVoteRegistry",
      "outputs": [
        {
          "internalType": "contract IMultichainVoteRegistry",
          "name": "",
          "type": "address"
        }
      ],
      "stateMutability": "view",
      "type": "function"
    },
    {
      "inputs": [
        {
          "internalType": "uint16",
          "name": "_srcChainId",
          "type": "uint16"
        },
        {
          "internalType": "bytes",
          "name": "_srcAddress",
          "type": "bytes"
        },
        {
          "internalType": "uint64",
          "name": "_nonce",
          "type": "uint64"
        },
        {
          "internalType": "bytes",
          "name": "_payload",
          "type": "bytes"
        }
      ],
      "name": "nonblockingLzReceive",
      "outputs": [],
      "stateMutability": "nonpayable",
      "type": "function"
    },
    {
      "inputs": [],
      "name": "owner",
      "outputs": [
        {
          "internalType": "address",
          "name": "",
          "type": "address"
        }
      ],
      "stateMutability": "view",
      "type": "function"
    },
    {
      "inputs": [],
      "name": "paused",
      "outputs": [
        {
          "internalType": "bool",
          "name": "",
          "type": "bool"
        }
      ],
      "stateMutability": "view",
      "type": "function"
    },
    {
      "inputs": [
        {
          "internalType": "uint16",
          "name": "",
          "type": "uint16"
        }
      ],
      "name": "payloadSizeLimitLookup",
      "outputs": [
        {
          "internalType": "uint256",
          "name": "",
          "type": "uint256"
        }
      ],
      "stateMutability": "view",
      "type": "function"
    },
    {
      "inputs": [],
      "name": "precrime",
      "outputs": [
        {
          "internalType": "address",
          "name": "",
          "type": "address"
        }
      ],
      "stateMutability": "view",
      "type": "function"
    },
    {
      "inputs": [
        {
          "internalType": "uint16",
          "name": "remoteChainId",
          "type": "uint16"
        }
      ],
      "name": "removeTrustedRemote",
      "outputs": [],
      "stateMutability": "nonpayable",
      "type": "function"
    },
    {
      "inputs": [],
      "name": "renounceOwnership",
      "outputs": [],
      "stateMutability": "nonpayable",
      "type": "function"
    },
    {
      "inputs": [
        {
          "internalType": "uint16",
          "name": "srcChainId",
          "type": "uint16"
        },
        {
          "internalType": "bytes",
          "name": "srcAddress",
          "type": "bytes"
        },
        {
          "internalType": "uint64",
          "name": "nonce",
          "type": "uint64"
        },
        {
          "internalType": "bytes",
          "name": "payload",
          "type": "bytes"
        }
      ],
      "name": "retryMessage",
      "outputs": [],
      "stateMutability": "payable",
      "type": "function"
    },
    {
      "inputs": [
        {
          "internalType": "uint16",
          "name": "_version",
          "type": "uint16"
        },
        {
          "internalType": "uint16",
          "name": "_chainId",
          "type": "uint16"
        },
        {
          "internalType": "uint256",
          "name": "_configType",
          "type": "uint256"
        },
        {
          "internalType": "bytes",
          "name": "_config",
          "type": "bytes"
        }
      ],
      "name": "setConfig",
      "outputs": [],
      "stateMutability": "nonpayable",
      "type": "function"
    },
    {
      "inputs": [
        {
          "internalType": "uint16",
          "name": "_dstChainId",
          "type": "uint16"
        },
        {
          "internalType": "uint16",
          "name": "_packetType",
          "type": "uint16"
        },
        {
          "internalType": "uint256",
          "name": "_minGas",
          "type": "uint256"
        }
      ],
      "name": "setMinDstGas",
      "outputs": [],
      "stateMutability": "nonpayable",
      "type": "function"
    },
    {
      "inputs": [
        {
          "internalType": "uint16",
          "name": "_dstChainId",
          "type": "uint16"
        },
        {
          "internalType": "uint256",
          "name": "_size",
          "type": "uint256"
        }
      ],
      "name": "setPayloadSizeLimit",
      "outputs": [],
      "stateMutability": "nonpayable",
      "type": "function"
    },
    {
      "inputs": [
        {
          "internalType": "address",
          "name": "_precrime",
          "type": "address"
        }
      ],
      "name": "setPrecrime",
      "outputs": [],
      "stateMutability": "nonpayable",
      "type": "function"
    },
    {
      "inputs": [
        {
          "internalType": "uint16",
          "name": "_version",
          "type": "uint16"
        }
      ],
      "name": "setReceiveVersion",
      "outputs": [],
      "stateMutability": "nonpayable",
      "type": "function"
    },
    {
      "inputs": [
        {
          "internalType": "uint16",
          "name": "_version",
          "type": "uint16"
        }
      ],
      "name": "setSendVersion",
      "outputs": [],
      "stateMutability": "nonpayable",
      "type": "function"
    },
    {
      "inputs": [
        {
          "internalType": "uint16",
          "name": "_remoteChainId",
          "type": "uint16"
        },
        {
          "internalType": "bytes",
          "name": "_path",
          "type": "bytes"
        }
      ],
      "name": "setTrustedRemote",
      "outputs": [],
      "stateMutability": "nonpayable",
      "type": "function"
    },
    {
      "inputs": [
        {
          "internalType": "uint16",
          "name": "_remoteChainId",
          "type": "uint16"
        },
        {
          "internalType": "bytes",
          "name": "_remoteAddress",
          "type": "bytes"
        }
      ],
      "name": "setTrustedRemoteAddress",
      "outputs": [],
      "stateMutability": "nonpayable",
      "type": "function"
    },
    {
      "inputs": [
        {
          "internalType": "address",
          "name": "newOwner",
          "type": "address"
        }
      ],
      "name": "transferOwnership",
      "outputs": [],
      "stateMutability": "nonpayable",
      "type": "function"
    },
    {
      "inputs": [
        {
          "internalType": "uint16",
          "name": "",
          "type": "uint16"
        }
      ],
      "name": "trustedRemoteLookup",
      "outputs": [
        {
          "internalType": "bytes",
          "name": "",
          "type": "bytes"
        }
      ],
      "stateMutability": "view",
      "type": "function"
    }
  ],
  "transactionHash": "0x9e3a885d120b23b897d964489be5ef046c809e9435c3bfc33f81e06d42548591",
  "args": [
    "0x6Fcb97553D41516Cb228ac03FdC8B9a0a9df04A1",
    "0x3588679688de91D832e55a0B80173Fa993285A6C"
  ],
  "numDeployments": 2,
  "solcInputHash": "fae2b0302852fd12612cc8559b604ed1",
  "bytecode": "0x60a06040523480156200001157600080fd5b50604051620023403803806200234083398101604081905262000034916200012f565b6000805460ff1916905581806200004b3362000095565b6001600160a01b0316608052506200006381620000ee565b6200006e82620000ee565b600680546001600160a01b0319166001600160a01b0392909216919091179055506200016e565b600080546001600160a01b03838116610100818102610100600160a81b0319851617855560405193049190911692909183917f8be0079c531659141344cd1fd0a4f28419497f9722a3daafe3b4186f6b6457e091a35050565b6001600160a01b03811662000116576040516342bcdf7f60e11b815260040160405180910390fd5b50565b6001600160a01b03811681146200011657600080fd5b600080604083850312156200014357600080fd5b8251620001508162000119565b6020840151909250620001638162000119565b809150509250929050565b60805161218c620001b4600039600081816104bb015281816105c9015281816107d901528181610881015281816109f901528181610e0e01526110f6015261218c6000f3fe6080604052600436106101b65760003560e01c80638cfd8f5c116100ec578063c44618341161008a578063df2a5b3b11610064578063df2a5b3b14610546578063eb8d72b714610566578063f2fde38b14610586578063f5ecbdbc146105a657600080fd5b8063c4461834146104fd578063cbed8b9c14610513578063d1deba1f1461053357600080fd5b80639f38369a116100c65780639f38369a14610469578063a6c3d16514610489578063b353aaa7146104a9578063baf3292d146104dd57600080fd5b80638cfd8f5c146103ee5780638da5cb5b14610426578063950c8a741461044957600080fd5b80633f1f4fa4116101595780635c975abb116101335780635c975abb1461037457806366ad5c8a1461038c578063715018a6146103ac5780637533d788146103c157600080fd5b80633f1f4fa4146102ca57806342d65a8d146103055780635b8c41e61461032557600080fd5b80630df37483116101955780630df374831461023a57806310ddb1371461025a5780632dbbec081461027a5780633d8b38f61461029a57600080fd5b80621d3567146101bb5780630540fbf2146101dd57806307e0db171461021a575b600080fd5b3480156101c757600080fd5b506101db6101d6366004611a21565b6105c6565b005b3480156101e957600080fd5b506006546101fd906001600160a01b031681565b6040516001600160a01b0390911681526020015b60405180910390f35b34801561022657600080fd5b506101db610235366004611ab4565b6107b8565b34801561024657600080fd5b506101db610255366004611acf565b610841565b34801561026657600080fd5b506101db610275366004611ab4565b610860565b34801561028657600080fd5b506101db610295366004611ab4565b6108b8565b3480156102a657600080fd5b506102ba6102b5366004611af9565b61090e565b6040519015158152602001610211565b3480156102d657600080fd5b506102f76102e5366004611ab4565b60036020526000908152604090205481565b604051908152602001610211565b34801561031157600080fd5b506101db610320366004611af9565b6109da565b34801561033157600080fd5b506102f7610340366004611bb8565b6005602090815260009384526040808520845180860184018051928152908401958401959095209452929052825290205481565b34801561038057600080fd5b5060005460ff166102ba565b34801561039857600080fd5b506101db6103a7366004611a21565b610a60565b3480156103b857600080fd5b506101db610b3c565b3480156103cd57600080fd5b506103e16103dc366004611ab4565b610b50565b6040516102119190611cb4565b3480156103fa57600080fd5b506102f7610409366004611cc7565b600260209081526000928352604080842090915290825290205481565b34801561043257600080fd5b5060005461010090046001600160a01b03166101fd565b34801561045557600080fd5b506004546101fd906001600160a01b031681565b34801561047557600080fd5b506103e1610484366004611ab4565b610bea565b34801561049557600080fd5b506101db6104a4366004611af9565b610d00565b3480156104b557600080fd5b506101fd7f000000000000000000000000000000000000000000000000000000000000000081565b3480156104e957600080fd5b506101db6104f8366004611d0f565b610d93565b34801561050957600080fd5b506102f761271081565b34801561051f57600080fd5b506101db61052e366004611d2c565b610def565b6101db610541366004611a21565b610e84565b34801561055257600080fd5b506101db610561366004611d9a565b610f88565b34801561057257600080fd5b506101db610581366004611af9565b610ff2565b34801561059257600080fd5b506101db6105a1366004611d0f565b61104c565b3480156105b257600080fd5b506103e16105c1366004611dd6565b6110c5565b337f00000000000000000000000000000000000000000000000000000000000000006001600160a01b0316146106435760405162461bcd60e51b815260206004820152601e60248201527f4c7a4170703a20696e76616c696420656e64706f696e742063616c6c6572000060448201526064015b60405180910390fd5b61ffff86166000908152600160205260408120805461066190611e23565b80601f016020809104026020016040519081016040528092919081815260200182805461068d90611e23565b80156106da5780601f106106af576101008083540402835291602001916106da565b820191906000526020600020905b8154815290600101906020018083116106bd57829003601f168201915b505050505090508051868690501480156106f5575060008151115b801561071d5750805160208201206040516107139088908890611e5d565b6040518091039020145b6107395760405162461bcd60e51b815260040161063a90611e6d565b6107af8787878080601f01602080910402602001604051908101604052809392919081815260200183838082843760009201919091525050604080516020601f8a018190048102820181019092528881528a93509150889088908190840183828082843760009201919091525061117692505050565b50505050505050565b6107c06112a1565b6040516307e0db1760e01b815261ffff821660048201527f00000000000000000000000000000000000000000000000000000000000000006001600160a01b0316906307e0db17906024015b600060405180830381600087803b15801561082657600080fd5b505af115801561083a573d6000803e3d6000fd5b5050505050565b6108496112a1565b61ffff909116600090815260036020526040902055565b6108686112a1565b6040516310ddb13760e01b815261ffff821660048201527f00000000000000000000000000000000000000000000000000000000000000006001600160a01b0316906310ddb1379060240161080c565b6108c06112a1565b61ffff811660009081526001602052604081206108dc91611864565b60405161ffff8216907f6d5075c81d4d9e75bec6052f4e44f58f8a8cf1327544addbbf015fb06f83bd3790600090a250565b61ffff83166000908152600160205260408120805482919061092f90611e23565b80601f016020809104026020016040519081016040528092919081815260200182805461095b90611e23565b80156109a85780601f1061097d576101008083540402835291602001916109a8565b820191906000526020600020905b81548152906001019060200180831161098b57829003601f168201915b5050505050905083836040516109bf929190611e5d565b60405180910390208180519060200120149150509392505050565b6109e26112a1565b6040516342d65a8d60e01b81526001600160a01b037f000000000000000000000000000000000000000000000000000000000000000016906342d65a8d90610a3290869086908690600401611edc565b600060405180830381600087803b158015610a4c57600080fd5b505af11580156107af573d6000803e3d6000fd5b333014610abe5760405162461bcd60e51b815260206004820152602660248201527f4e6f6e626c6f636b696e674c7a4170703a2063616c6c6572206d7573742062656044820152650204c7a4170760d41b606482015260840161063a565b610b348686868080601f01602080910402602001604051908101604052809392919081815260200183838082843760009201919091525050604080516020601f89018190048102820181019092528781528993509150879087908190840183828082843760009201919091525061130192505050565b505050505050565b610b446112a1565b610b4e6000611418565b565b60016020526000908152604090208054610b6990611e23565b80601f0160208091040260200160405190810160405280929190818152602001828054610b9590611e23565b8015610be25780601f10610bb757610100808354040283529160200191610be2565b820191906000526020600020905b815481529060010190602001808311610bc557829003601f168201915b505050505081565b61ffff8116600090815260016020526040812080546060929190610c0d90611e23565b80601f0160208091040260200160405190810160405280929190818152602001828054610c3990611e23565b8015610c865780601f10610c5b57610100808354040283529160200191610c86565b820191906000526020600020905b815481529060010190602001808311610c6957829003601f168201915b505050505090508051600003610cde5760405162461bcd60e51b815260206004820152601d60248201527f4c7a4170703a206e6f20747275737465642070617468207265636f7264000000604482015260640161063a565b610cf9600060148351610cf19190611f10565b839190611471565b9392505050565b610d086112a1565b818130604051602001610d1d93929190611f27565b60408051601f1981840301815291815261ffff85166000908152600160209081529190208251610d529391929091019061189e565b507f8c0400cfe2d1199b1a725c78960bcc2a344d869b80590d0f2bd005db15a572ce838383604051610d8693929190611edc565b60405180910390a1505050565b610d9b6112a1565b600480546001600160a01b0319166001600160a01b0383169081179091556040519081527f5db758e995a17ec1ad84bdef7e8c3293a0bd6179bcce400dff5d4c3d87db726b9060200160405180910390a150565b610df76112a1565b6040516332fb62e760e21b81526001600160a01b037f0000000000000000000000000000000000000000000000000000000000000000169063cbed8b9c90610e4b9088908890889088908890600401611f4d565b600060405180830381600087803b158015610e6557600080fd5b505af1158015610e79573d6000803e3d6000fd5b505050505050505050565b61ffff861660009081526001602052604081208054610ea290611e23565b80601f0160208091040260200160405190810160405280929190818152602001828054610ece90611e23565b8015610f1b5780601f10610ef057610100808354040283529160200191610f1b565b820191906000526020600020905b815481529060010190602001808311610efe57829003601f168201915b50505050509050805186869050148015610f36575060008151115b8015610f5e575080516020820120604051610f549088908890611e5d565b6040518091039020145b610f7a5760405162461bcd60e51b815260040161063a90611e6d565b6107af87878787878761157e565b610f906112a1565b61ffff83811660008181526002602090815260408083209487168084529482529182902085905581519283528201929092529081018290527f9d5c7c0b934da8fefa9c7760c98383778a12dfbfc0c3b3106518f43fb9508ac090606001610d86565b610ffa6112a1565b61ffff83166000908152600160205260409020611018908383611922565b507ffa41487ad5d6728f0b19276fa1eddc16558578f5109fc39d2dc33c3230470dab838383604051610d8693929190611edc565b6110546112a1565b6001600160a01b0381166110b95760405162461bcd60e51b815260206004820152602660248201527f4f776e61626c653a206e6577206f776e657220697320746865207a65726f206160448201526564647265737360d01b606482015260840161063a565b6110c281611418565b50565b604051633d7b2f6f60e21b815261ffff808616600483015284166024820152306044820152606481018290526060907f00000000000000000000000000000000000000000000000000000000000000006001600160a01b03169063f5ecbdbc90608401600060405180830381865afa158015611145573d6000803e3d6000fd5b505050506040513d6000823e601f3d908101601f1916820160405261116d9190810190611f86565b95945050505050565b61117e611794565b6175306000806111f1835a6111939190611f10565b6096306001600160a01b03166366ad5c8a8b8b8b8b6040516024016111bb9493929190611ff3565b60408051601f198184030181529190526020810180516001600160e01b031660e09390931b9290921790915230939291506117da565b91509150816107af5760008480519060200120905080600560008a61ffff1661ffff168152602001908152602001600020886040516112309190612031565b9081526040805191829003602090810183206001600160401b038b1660009081529152209190915561ffff8916907f41d73ce7be31a588d59fe9013cdcfe583bc0aab25093d042b64cade0df7306569061128f908a908a90879061204d565b60405180910390a25050505050505050565b6000546001600160a01b03610100909104163314610b4e5760405162461bcd60e51b815260206004820181905260248201527f4f776e61626c653a2063616c6c6572206973206e6f7420746865206f776e6572604482015260640161063a565b6000806000808480602001905181019061131b919061209f565b9350935093509350806001600160601b0316846001600160a01b03167fc9a7cbc72b86947e687208a5de683ad87ccc58749922bce0f834618e58fab4a3858560405161137a92919063ffffffff92831681529116602082015260400190565b60405180910390a36006546040516323528c9d60e21b815261ffff8a1660048201526001600160a01b03868116602483015263ffffffff80871660448401526001600160601b03851660648401528516608483015290911690638d4a32749060a401600060405180830381600087803b1580156113f657600080fd5b505af115801561140a573d6000803e3d6000fd5b505050505050505050505050565b600080546001600160a01b03838116610100818102610100600160a81b0319851617855560405193049190911692909183917f8be0079c531659141344cd1fd0a4f28419497f9722a3daafe3b4186f6b6457e091a35050565b60608161147f81601f612103565b10156114be5760405162461bcd60e51b815260206004820152600e60248201526d736c6963655f6f766572666c6f7760901b604482015260640161063a565b6114c88284612103565b8451101561150c5760405162461bcd60e51b8152602060048201526011602482015270736c6963655f6f75744f66426f756e647360781b604482015260640161063a565b60608215801561152b5760405191506000825260208201604052611575565b6040519150601f8416801560200281840101858101878315602002848b0101015b8183101561156457805183526020928301920161154c565b5050858452601f01601f1916604052505b50949350505050565b61ffff861660009081526005602052604080822090516115a19088908890611e5d565b90815260408051602092819003830190206001600160401b038716600090815292529020549050806116215760405162461bcd60e51b815260206004820152602360248201527f4e6f6e626c6f636b696e674c7a4170703a206e6f2073746f726564206d65737360448201526261676560e81b606482015260840161063a565b808383604051611632929190611e5d565b6040518091039020146116915760405162461bcd60e51b815260206004820152602160248201527f4e6f6e626c6f636b696e674c7a4170703a20696e76616c6964207061796c6f616044820152601960fa1b606482015260840161063a565b61ffff871660009081526005602052604080822090516116b49089908990611e5d565b90815260408051602092819003830181206001600160401b038916600090815290845282902093909355601f8801829004820283018201905286825261174c918991899089908190840183828082843760009201919091525050604080516020601f8a018190048102820181019092528881528a93509150889088908190840183828082843760009201919091525061130192505050565b7fc264d91f3adc5588250e1551f547752ca0cfa8f6b530d243b9f9f4cab10ea8e5878787878560405161178395949392919061211b565b60405180910390a150505050505050565b60005460ff1615610b4e5760405162461bcd60e51b815260206004820152601060248201526f14185d5cd8589b194e881c185d5cd95960821b604482015260640161063a565b6000606060008060008661ffff166001600160401b038111156117ff576117ff611b4b565b6040519080825280601f01601f191660200182016040528015611829576020820181803683370190505b50905060008087516020890160008d8df191503d92508683111561184b578692505b828152826000602083013e909890975095505050505050565b50805461187090611e23565b6000825580601f10611880575050565b601f0160209004906000526020600020908101906110c29190611996565b8280546118aa90611e23565b90600052602060002090601f0160209004810192826118cc5760008555611912565b82601f106118e557805160ff1916838001178555611912565b82800160010185558215611912579182015b828111156119125782518255916020019190600101906118f7565b5061191e929150611996565b5090565b82805461192e90611e23565b90600052602060002090601f0160209004810192826119505760008555611912565b82601f106119695782800160ff19823516178555611912565b82800160010185558215611912579182015b8281111561191257823582559160200191906001019061197b565b5b8082111561191e5760008155600101611997565b803561ffff811681146119bd57600080fd5b919050565b60008083601f8401126119d457600080fd5b5081356001600160401b038111156119eb57600080fd5b602083019150836020828501011115611a0357600080fd5b9250929050565b80356001600160401b03811681146119bd57600080fd5b60008060008060008060808789031215611a3a57600080fd5b611a43876119ab565b955060208701356001600160401b0380821115611a5f57600080fd5b611a6b8a838b016119c2565b9097509550859150611a7f60408a01611a0a565b94506060890135915080821115611a9557600080fd5b50611aa289828a016119c2565b979a9699509497509295939492505050565b600060208284031215611ac657600080fd5b610cf9826119ab565b60008060408385031215611ae257600080fd5b611aeb836119ab565b946020939093013593505050565b600080600060408486031215611b0e57600080fd5b611b17846119ab565b925060208401356001600160401b03811115611b3257600080fd5b611b3e868287016119c2565b9497909650939450505050565b634e487b7160e01b600052604160045260246000fd5b604051601f8201601f191681016001600160401b0381118282101715611b8957611b89611b4b565b604052919050565b60006001600160401b03821115611baa57611baa611b4b565b50601f01601f191660200190565b600080600060608486031215611bcd57600080fd5b611bd6846119ab565b925060208401356001600160401b03811115611bf157600080fd5b8401601f81018613611c0257600080fd5b8035611c15611c1082611b91565b611b61565b818152876020838501011115611c2a57600080fd5b81602084016020830137600060208383010152809450505050611c4f60408501611a0a565b90509250925092565b60005b83811015611c73578181015183820152602001611c5b565b83811115611c82576000848401525b50505050565b60008151808452611ca0816020860160208601611c58565b601f01601f19169290920160200192915050565b602081526000610cf96020830184611c88565b60008060408385031215611cda57600080fd5b611ce3836119ab565b9150611cf1602084016119ab565b90509250929050565b6001600160a01b03811681146110c257600080fd5b600060208284031215611d2157600080fd5b8135610cf981611cfa565b600080600080600060808688031215611d4457600080fd5b611d4d866119ab565b9450611d5b602087016119ab565b93506040860135925060608601356001600160401b03811115611d7d57600080fd5b611d89888289016119c2565b969995985093965092949392505050565b600080600060608486031215611daf57600080fd5b611db8846119ab565b9250611dc6602085016119ab565b9150604084013590509250925092565b60008060008060808587031215611dec57600080fd5b611df5856119ab565b9350611e03602086016119ab565b92506040850135611e1381611cfa565b9396929550929360600135925050565b600181811c90821680611e3757607f821691505b602082108103611e5757634e487b7160e01b600052602260045260246000fd5b50919050565b8183823760009101908152919050565b60208082526026908201527f4c7a4170703a20696e76616c696420736f757263652073656e64696e6720636f6040820152651b9d1c9858dd60d21b606082015260800190565b81835281816020850137506000828201602090810191909152601f909101601f19169091010190565b61ffff8416815260406020820152600061116d604083018486611eb3565b634e487b7160e01b600052601160045260246000fd5b600082821015611f2257611f22611efa565b500390565b8284823760609190911b6bffffffffffffffffffffffff19169101908152601401919050565b600061ffff808816835280871660208401525084604083015260806060830152611f7b608083018486611eb3565b979650505050505050565b600060208284031215611f9857600080fd5b81516001600160401b03811115611fae57600080fd5b8201601f81018413611fbf57600080fd5b8051611fcd611c1082611b91565b818152856020838501011115611fe257600080fd5b61116d826020830160208601611c58565b61ffff851681526080602082015260006120106080830186611c88565b6001600160401b03851660408401528281036060840152611f7b8185611c88565b60008251612043818460208701611c58565b9190910192915050565b6060815260006120606060830186611c88565b6001600160401b038516602084015282810360408401526120818185611c88565b9695505050505050565b805163ffffffff811681146119bd57600080fd5b600080600080608085870312156120b557600080fd5b84516120c081611cfa565b93506120ce6020860161208b565b92506120dc6040860161208b565b915060608501516001600160601b03811681146120f857600080fd5b939692955090935050565b6000821982111561211657612116611efa565b500190565b61ffff86168152608060208201526000612139608083018688611eb3565b6001600160401b039490941660408301525060600152939250505056fea26469706673582212207777b59bb1124b23b0ba96f82346851bd3212ef81ca734e136295814b1ed1ea864736f6c634300080d0033",
  "devdoc": {
    "author": "Venus",
    "kind": "dev",
    "methods": {
      "owner()": {
        "details": "Returns the address of the current owner."
      },
      "paused()": {
        "details": "Returns true if the contract is paused, and false otherwise."
      },
      "removeTrustedRemote(uint16)": {
        "custom:access": "Only owner",
        "custom:event": "Emit TrustedRemoteRemoved with remote chain id",
        "params": {
          "remoteChainId": "Remote chain Id ."
        }
      },
      "renounceOwnership()": {
        "details": "Leaves the contract without owner. It will not be possible to call `onlyOwner` functions. Can only be called by the current owner. NOTE: Renouncing ownership will leave the contract without an owner, thereby disabling any functionality that is only available to the owner."
      },
      "transferOwnership(address)": {
        "details": "Transfers ownership of the contract to a new account (`newOwner`). Can only be called by the current owner."
      }
    },
    "title": "VotesSyncReceiver",
    "version": 1
  },
  "userdoc": {
    "errors": {
      "ZeroAddressNotAllowed()": [
        {
          "notice": "Thrown if the supplied address is a zero address where it is not allowed"
        }
      ]
    },
    "events": {
      "ReceivePayloadFailed(uint16,bytes,uint64,bytes)": {
        "notice": "Event emitted when call failed"
      },
      "TrustedRemoteRemoved(uint16)": {
        "notice": "Event emitted when trusted remote sets to empty."
      },
      "VotesSynced(address,uint32,uint96,uint32)": {
        "notice": "Event emitted when votes synced"
      }
    },
    "kind": "user",
    "methods": {
      "multichainVoteRegistry()": {
        "notice": "Multichain vote registry."
      },
      "removeTrustedRemote(uint16)": {
        "notice": "Remove trusted remote from storage"
      }
    },
    "notice": "The VotesSyncReceiver is builds upon the functionality of its parent contract, NonblockingLzApp which is part of layer zero bridge. It receives voting information in the form of payload from remote(non-BSC) chains and send that information to MultichainVoteRegistry.",
    "version": 1
  },
  "storageLayout": {
    "storage": [
      {
        "astId": 2385,
        "contract": "contracts/XVSVault/VoteSyncBridgeUtils/VotesSyncReceiver.sol:VotesSyncReceiver",
        "label": "_paused",
        "offset": 0,
        "slot": "0",
        "type": "t_bool"
      },
      {
        "astId": 2262,
        "contract": "contracts/XVSVault/VoteSyncBridgeUtils/VotesSyncReceiver.sol:VotesSyncReceiver",
        "label": "_owner",
        "offset": 1,
        "slot": "0",
        "type": "t_address"
      },
      {
        "astId": 455,
        "contract": "contracts/XVSVault/VoteSyncBridgeUtils/VotesSyncReceiver.sol:VotesSyncReceiver",
        "label": "trustedRemoteLookup",
        "offset": 0,
        "slot": "1",
        "type": "t_mapping(t_uint16,t_bytes_storage)"
      },
      {
        "astId": 461,
        "contract": "contracts/XVSVault/VoteSyncBridgeUtils/VotesSyncReceiver.sol:VotesSyncReceiver",
        "label": "minDstGasLookup",
        "offset": 0,
        "slot": "2",
        "type": "t_mapping(t_uint16,t_mapping(t_uint16,t_uint256))"
      },
      {
        "astId": 465,
        "contract": "contracts/XVSVault/VoteSyncBridgeUtils/VotesSyncReceiver.sol:VotesSyncReceiver",
        "label": "payloadSizeLimitLookup",
        "offset": 0,
        "slot": "3",
        "type": "t_mapping(t_uint16,t_uint256)"
      },
      {
        "astId": 467,
        "contract": "contracts/XVSVault/VoteSyncBridgeUtils/VotesSyncReceiver.sol:VotesSyncReceiver",
        "label": "precrime",
        "offset": 0,
        "slot": "4",
        "type": "t_address"
      },
      {
        "astId": 997,
        "contract": "contracts/XVSVault/VoteSyncBridgeUtils/VotesSyncReceiver.sol:VotesSyncReceiver",
        "label": "failedMessages",
        "offset": 0,
        "slot": "5",
        "type": "t_mapping(t_uint16,t_mapping(t_bytes_memory_ptr,t_mapping(t_uint64,t_bytes32)))"
      },
      {
        "astId": 3118,
        "contract": "contracts/XVSVault/VoteSyncBridgeUtils/VotesSyncReceiver.sol:VotesSyncReceiver",
        "label": "multichainVoteRegistry",
        "offset": 0,
        "slot": "6",
        "type": "t_contract(IMultichainVoteRegistry)4169"
      }
    ],
    "types": {
      "t_address": {
        "encoding": "inplace",
        "label": "address",
        "numberOfBytes": "20"
      },
      "t_bool": {
        "encoding": "inplace",
        "label": "bool",
        "numberOfBytes": "1"
      },
      "t_bytes32": {
        "encoding": "inplace",
        "label": "bytes32",
        "numberOfBytes": "32"
      },
      "t_bytes_memory_ptr": {
        "encoding": "bytes",
        "label": "bytes",
        "numberOfBytes": "32"
      },
      "t_bytes_storage": {
        "encoding": "bytes",
        "label": "bytes",
        "numberOfBytes": "32"
      },
      "t_contract(IMultichainVoteRegistry)4169": {
        "encoding": "inplace",
        "label": "contract IMultichainVoteRegistry",
        "numberOfBytes": "20"
      },
      "t_mapping(t_bytes_memory_ptr,t_mapping(t_uint64,t_bytes32))": {
        "encoding": "mapping",
        "key": "t_bytes_memory_ptr",
        "label": "mapping(bytes => mapping(uint64 => bytes32))",
        "numberOfBytes": "32",
        "value": "t_mapping(t_uint64,t_bytes32)"
      },
      "t_mapping(t_uint16,t_bytes_storage)": {
        "encoding": "mapping",
        "key": "t_uint16",
        "label": "mapping(uint16 => bytes)",
        "numberOfBytes": "32",
        "value": "t_bytes_storage"
      },
      "t_mapping(t_uint16,t_mapping(t_bytes_memory_ptr,t_mapping(t_uint64,t_bytes32)))": {
        "encoding": "mapping",
        "key": "t_uint16",
        "label": "mapping(uint16 => mapping(bytes => mapping(uint64 => bytes32)))",
        "numberOfBytes": "32",
        "value": "t_mapping(t_bytes_memory_ptr,t_mapping(t_uint64,t_bytes32))"
      },
      "t_mapping(t_uint16,t_mapping(t_uint16,t_uint256))": {
        "encoding": "mapping",
        "key": "t_uint16",
        "label": "mapping(uint16 => mapping(uint16 => uint256))",
        "numberOfBytes": "32",
        "value": "t_mapping(t_uint16,t_uint256)"
      },
      "t_mapping(t_uint16,t_uint256)": {
        "encoding": "mapping",
        "key": "t_uint16",
        "label": "mapping(uint16 => uint256)",
        "numberOfBytes": "32",
        "value": "t_uint256"
      },
      "t_mapping(t_uint64,t_bytes32)": {
        "encoding": "mapping",
        "key": "t_uint64",
        "label": "mapping(uint64 => bytes32)",
        "numberOfBytes": "32",
        "value": "t_bytes32"
      },
      "t_uint16": {
        "encoding": "inplace",
        "label": "uint16",
        "numberOfBytes": "2"
      },
      "t_uint256": {
        "encoding": "inplace",
        "label": "uint256",
        "numberOfBytes": "32"
      },
      "t_uint64": {
        "encoding": "inplace",
        "label": "uint64",
        "numberOfBytes": "8"
      }
    }
  }
}