{
  "address": "0xBd75fcB67E19a2F9eC5d410409be0A8D7DCfaA52",
  "abi": [
    {
      "inputs": [
        {
          "internalType": "bool",
          "name": "_timeBased",
          "type": "bool"
        },
        {
          "internalType": "uint256",
          "name": "_blocksPerYear",
          "type": "uint256"
        }
      ],
      "payable": false,
      "stateMutability": "nonpayable",
      "type": "constructor"
    },
    {
      "anonymous": false,
      "inputs": [
        {
          "indexed": true,
          "internalType": "address",
          "name": "user",
          "type": "address"
        },
        {
          "indexed": true,
          "internalType": "address",
          "name": "rewardToken",
          "type": "address"
        },
        {
          "indexed": true,
          "internalType": "uint256",
          "name": "pid",
          "type": "uint256"
        },
        {
          "indexed": false,
          "internalType": "uint256",
          "name": "amount",
          "type": "uint256"
        }
      ],
      "name": "Claim",
      "type": "event"
    },
    {
      "anonymous": false,
      "inputs": [
        {
          "indexed": true,
          "internalType": "address",
          "name": "delegator",
          "type": "address"
        },
        {
          "indexed": true,
          "internalType": "address",
          "name": "fromDelegate",
          "type": "address"
        },
        {
          "indexed": true,
          "internalType": "address",
          "name": "toDelegate",
          "type": "address"
        }
      ],
      "name": "DelegateChangedV2",
      "type": "event"
    },
    {
      "anonymous": false,
      "inputs": [
        {
          "indexed": true,
          "internalType": "address",
          "name": "delegate",
          "type": "address"
        },
        {
          "indexed": false,
          "internalType": "uint256",
          "name": "previousBalance",
          "type": "uint256"
        },
        {
          "indexed": false,
          "internalType": "uint256",
          "name": "newBalance",
          "type": "uint256"
        }
      ],
      "name": "DelegateVotesChangedV2",
      "type": "event"
    },
    {
      "anonymous": false,
      "inputs": [
        {
          "indexed": true,
          "internalType": "address",
          "name": "user",
          "type": "address"
        },
        {
          "indexed": true,
          "internalType": "address",
          "name": "rewardToken",
          "type": "address"
        },
        {
          "indexed": true,
          "internalType": "uint256",
          "name": "pid",
          "type": "uint256"
        },
        {
          "indexed": false,
          "internalType": "uint256",
          "name": "amount",
          "type": "uint256"
        }
      ],
      "name": "Deposit",
      "type": "event"
    },
    {
      "anonymous": false,
      "inputs": [
        {
          "indexed": true,
          "internalType": "address",
          "name": "user",
          "type": "address"
        },
        {
          "indexed": true,
          "internalType": "address",
          "name": "rewardToken",
          "type": "address"
        },
        {
          "indexed": true,
          "internalType": "uint256",
          "name": "pid",
          "type": "uint256"
        },
        {
          "indexed": false,
          "internalType": "uint256",
          "name": "amount",
          "type": "uint256"
        }
      ],
      "name": "ExecutedWithdrawal",
      "type": "event"
    },
    {
      "anonymous": false,
      "inputs": [
        {
          "indexed": false,
          "internalType": "address",
          "name": "oldAccessControlManager",
          "type": "address"
        },
        {
          "indexed": false,
          "internalType": "address",
          "name": "newAccessControlManager",
          "type": "address"
        }
      ],
      "name": "NewAccessControlManager",
      "type": "event"
    },
    {
      "anonymous": false,
      "inputs": [
        {
          "indexed": true,
          "internalType": "contract IPrime",
          "name": "oldPrimeToken",
          "type": "address"
        },
        {
          "indexed": true,
          "internalType": "contract IPrime",
          "name": "newPrimeToken",
          "type": "address"
        },
        {
          "indexed": false,
          "internalType": "address",
          "name": "oldPrimeRewardToken",
          "type": "address"
        },
        {
          "indexed": false,
          "internalType": "address",
          "name": "newPrimeRewardToken",
          "type": "address"
        },
        {
          "indexed": false,
          "internalType": "uint256",
          "name": "oldPrimePoolId",
          "type": "uint256"
        },
        {
          "indexed": false,
          "internalType": "uint256",
          "name": "newPrimePoolId",
          "type": "uint256"
        }
      ],
      "name": "NewPrimeToken",
      "type": "event"
    },
    {
      "anonymous": false,
      "inputs": [
        {
          "indexed": true,
          "internalType": "address",
          "name": "rewardToken",
          "type": "address"
        },
        {
          "indexed": true,
          "internalType": "uint256",
          "name": "pid",
          "type": "uint256"
        },
        {
          "indexed": true,
          "internalType": "address",
          "name": "token",
          "type": "address"
        },
        {
          "indexed": false,
          "internalType": "uint256",
          "name": "allocPoints",
          "type": "uint256"
        },
        {
          "indexed": false,
          "internalType": "uint256",
          "name": "rewardPerBlockOrSecond",
          "type": "uint256"
        },
        {
          "indexed": false,
          "internalType": "uint256",
          "name": "lockPeriod",
          "type": "uint256"
        }
      ],
      "name": "PoolAdded",
      "type": "event"
    },
    {
      "anonymous": false,
      "inputs": [
        {
          "indexed": true,
          "internalType": "address",
          "name": "rewardToken",
          "type": "address"
        },
        {
          "indexed": true,
          "internalType": "uint256",
          "name": "pid",
          "type": "uint256"
        },
        {
          "indexed": false,
          "internalType": "uint256",
          "name": "oldAllocPoints",
          "type": "uint256"
        },
        {
          "indexed": false,
          "internalType": "uint256",
          "name": "newAllocPoints",
          "type": "uint256"
        }
      ],
      "name": "PoolUpdated",
      "type": "event"
    },
    {
      "anonymous": false,
      "inputs": [
        {
          "indexed": true,
          "internalType": "address",
          "name": "user",
          "type": "address"
        },
        {
          "indexed": true,
          "internalType": "address",
          "name": "rewardToken",
          "type": "address"
        },
        {
          "indexed": true,
          "internalType": "uint256",
          "name": "pid",
          "type": "uint256"
        },
        {
          "indexed": false,
          "internalType": "uint256",
          "name": "amount",
          "type": "uint256"
        }
      ],
      "name": "RequestedWithdrawal",
      "type": "event"
    },
    {
      "anonymous": false,
      "inputs": [
        {
          "indexed": true,
          "internalType": "address",
          "name": "rewardToken",
          "type": "address"
        },
        {
          "indexed": false,
          "internalType": "uint256",
          "name": "oldReward",
          "type": "uint256"
        },
        {
          "indexed": false,
          "internalType": "uint256",
          "name": "newReward",
          "type": "uint256"
        }
      ],
      "name": "RewardAmountUpdated",
      "type": "event"
    },
    {
      "anonymous": false,
      "inputs": [
        {
          "indexed": false,
          "internalType": "address",
          "name": "oldXvs",
          "type": "address"
        },
        {
          "indexed": false,
          "internalType": "address",
          "name": "oldStore",
          "type": "address"
        },
        {
          "indexed": false,
          "internalType": "address",
          "name": "newXvs",
          "type": "address"
        },
        {
          "indexed": false,
          "internalType": "address",
          "name": "newStore",
          "type": "address"
        }
      ],
      "name": "StoreUpdated",
      "type": "event"
    },
    {
      "anonymous": false,
      "inputs": [
        {
          "indexed": true,
          "internalType": "address",
          "name": "rewardToken",
          "type": "address"
        },
        {
          "indexed": true,
          "internalType": "address",
          "name": "userAddress",
          "type": "address"
        },
        {
          "indexed": false,
          "internalType": "uint256",
          "name": "oldOwedAmount",
          "type": "uint256"
        },
        {
          "indexed": false,
          "internalType": "uint256",
          "name": "newOwedAmount",
          "type": "uint256"
        }
      ],
      "name": "VaultDebtUpdated",
      "type": "event"
    },
    {
      "anonymous": false,
      "inputs": [
        {
          "indexed": true,
          "internalType": "address",
          "name": "admin",
          "type": "address"
        }
      ],
      "name": "VaultPaused",
      "type": "event"
    },
    {
      "anonymous": false,
      "inputs": [
        {
          "indexed": true,
          "internalType": "address",
          "name": "admin",
          "type": "address"
        }
      ],
      "name": "VaultResumed",
      "type": "event"
    },
    {
      "anonymous": false,
      "inputs": [
        {
          "indexed": true,
          "internalType": "address",
          "name": "rewardToken",
          "type": "address"
        },
        {
          "indexed": true,
          "internalType": "uint256",
          "name": "pid",
          "type": "uint256"
        },
        {
          "indexed": false,
          "internalType": "uint256",
          "name": "oldPeriod",
          "type": "uint256"
        },
        {
          "indexed": false,
          "internalType": "uint256",
          "name": "newPeriod",
          "type": "uint256"
        }
      ],
      "name": "WithdrawalLockingPeriodUpdated",
      "type": "event"
    },
    {
      "constant": true,
      "inputs": [],
      "name": "DELEGATION_TYPEHASH",
      "outputs": [
        {
          "internalType": "bytes32",
          "name": "",
          "type": "bytes32"
        }
      ],
      "payable": false,
      "stateMutability": "view",
      "type": "function"
    },
    {
      "constant": true,
      "inputs": [],
      "name": "DOMAIN_TYPEHASH",
      "outputs": [
        {
          "internalType": "bytes32",
          "name": "",
          "type": "bytes32"
        }
      ],
      "payable": false,
      "stateMutability": "view",
      "type": "function"
    },
    {
      "constant": true,
      "inputs": [],
      "name": "MAX_LOCK_PERIOD",
      "outputs": [
        {
          "internalType": "uint256",
          "name": "",
          "type": "uint256"
        }
      ],
      "payable": false,
      "stateMutability": "view",
      "type": "function"
    },
    {
      "constant": true,
      "inputs": [],
      "name": "SECONDS_PER_YEAR",
      "outputs": [
        {
          "internalType": "uint256",
          "name": "",
          "type": "uint256"
        }
      ],
      "payable": false,
      "stateMutability": "view",
      "type": "function"
    },
    {
      "constant": false,
      "inputs": [
        {
          "internalType": "contract XVSVaultProxy",
          "name": "xvsVaultProxy",
          "type": "address"
        }
      ],
      "name": "_become",
      "outputs": [],
      "payable": false,
      "stateMutability": "nonpayable",
      "type": "function"
    },
    {
      "constant": true,
      "inputs": [],
      "name": "accessControlManager",
      "outputs": [
        {
          "internalType": "contract IAccessControlManagerV5",
          "name": "",
          "type": "address"
        }
      ],
      "payable": false,
      "stateMutability": "view",
      "type": "function"
    },
    {
      "constant": false,
      "inputs": [
        {
          "internalType": "address",
          "name": "_rewardToken",
          "type": "address"
        },
        {
          "internalType": "uint256",
          "name": "_allocPoint",
          "type": "uint256"
        },
        {
          "internalType": "contract IBEP20",
          "name": "_token",
          "type": "address"
        },
        {
          "internalType": "uint256",
          "name": "_rewardPerBlockOrSecond",
          "type": "uint256"
        },
        {
          "internalType": "uint256",
          "name": "_lockPeriod",
          "type": "uint256"
        }
      ],
      "name": "add",
      "outputs": [],
      "payable": false,
      "stateMutability": "nonpayable",
      "type": "function"
    },
    {
      "constant": true,
      "inputs": [],
      "name": "admin",
      "outputs": [
        {
          "internalType": "address",
          "name": "",
          "type": "address"
        }
      ],
      "payable": false,
      "stateMutability": "view",
      "type": "function"
    },
    {
      "constant": true,
      "inputs": [],
      "name": "blocksOrSecondsPerYear",
      "outputs": [
        {
          "internalType": "uint256",
          "name": "",
          "type": "uint256"
        }
      ],
      "payable": false,
      "stateMutability": "view",
      "type": "function"
    },
    {
      "constant": true,
      "inputs": [
        {
          "internalType": "address",
          "name": "",
          "type": "address"
        },
        {
          "internalType": "uint32",
          "name": "",
          "type": "uint32"
        }
      ],
      "name": "checkpoints",
      "outputs": [
        {
          "internalType": "uint32",
          "name": "fromBlockOrSecond",
          "type": "uint32"
        },
        {
          "internalType": "uint96",
          "name": "votes",
          "type": "uint96"
        }
      ],
      "payable": false,
      "stateMutability": "view",
      "type": "function"
    },
    {
      "constant": false,
      "inputs": [
        {
          "internalType": "address",
          "name": "_account",
          "type": "address"
        },
        {
          "internalType": "address",
          "name": "_rewardToken",
          "type": "address"
        },
        {
          "internalType": "uint256",
          "name": "_pid",
          "type": "uint256"
        }
      ],
      "name": "claim",
      "outputs": [],
      "payable": false,
      "stateMutability": "nonpayable",
      "type": "function"
    },
    {
      "constant": false,
      "inputs": [
        {
          "internalType": "address",
          "name": "delegatee",
          "type": "address"
        }
      ],
      "name": "delegate",
      "outputs": [],
      "payable": false,
      "stateMutability": "nonpayable",
      "type": "function"
    },
    {
      "constant": false,
      "inputs": [
        {
          "internalType": "address",
          "name": "delegatee",
          "type": "address"
        },
        {
          "internalType": "uint256",
          "name": "nonce",
          "type": "uint256"
        },
        {
          "internalType": "uint256",
          "name": "expiry",
          "type": "uint256"
        },
        {
          "internalType": "uint8",
          "name": "v",
          "type": "uint8"
        },
        {
          "internalType": "bytes32",
          "name": "r",
          "type": "bytes32"
        },
        {
          "internalType": "bytes32",
          "name": "s",
          "type": "bytes32"
        }
      ],
      "name": "delegateBySig",
      "outputs": [],
      "payable": false,
      "stateMutability": "nonpayable",
      "type": "function"
    },
    {
      "constant": true,
      "inputs": [
        {
          "internalType": "address",
          "name": "",
          "type": "address"
        }
      ],
      "name": "delegates",
      "outputs": [
        {
          "internalType": "address",
          "name": "",
          "type": "address"
        }
      ],
      "payable": false,
      "stateMutability": "view",
      "type": "function"
    },
    {
      "constant": false,
      "inputs": [
        {
          "internalType": "address",
          "name": "_rewardToken",
          "type": "address"
        },
        {
          "internalType": "uint256",
          "name": "_pid",
          "type": "uint256"
        },
        {
          "internalType": "uint256",
          "name": "_amount",
          "type": "uint256"
        }
      ],
      "name": "deposit",
      "outputs": [],
      "payable": false,
      "stateMutability": "nonpayable",
      "type": "function"
    },
    {
      "constant": false,
      "inputs": [
        {
          "internalType": "address",
          "name": "_rewardToken",
          "type": "address"
        },
        {
          "internalType": "uint256",
          "name": "_pid",
          "type": "uint256"
        }
      ],
      "name": "executeWithdrawal",
      "outputs": [],
      "payable": false,
      "stateMutability": "nonpayable",
      "type": "function"
    },
    {
      "constant": true,
      "inputs": [],
      "name": "getBlockNumberOrTimestamp",
      "outputs": [
        {
          "internalType": "uint256",
          "name": "",
          "type": "uint256"
        }
      ],
      "payable": false,
      "stateMutability": "view",
      "type": "function"
    },
    {
      "constant": true,
      "inputs": [
        {
          "internalType": "address",
          "name": "account",
          "type": "address"
        }
      ],
      "name": "getCurrentVotes",
      "outputs": [
        {
          "internalType": "uint96",
          "name": "",
          "type": "uint96"
        }
      ],
      "payable": false,
      "stateMutability": "view",
      "type": "function"
    },
    {
      "constant": true,
      "inputs": [
        {
          "internalType": "address",
          "name": "_rewardToken",
          "type": "address"
        },
        {
          "internalType": "uint256",
          "name": "_pid",
          "type": "uint256"
        },
        {
          "internalType": "address",
          "name": "_user",
          "type": "address"
        }
      ],
      "name": "getEligibleWithdrawalAmount",
      "outputs": [
        {
          "internalType": "uint256",
          "name": "withdrawalAmount",
          "type": "uint256"
        }
      ],
      "payable": false,
      "stateMutability": "view",
      "type": "function"
    },
    {
      "constant": true,
      "inputs": [
        {
          "internalType": "address",
          "name": "account",
          "type": "address"
        },
        {
          "internalType": "uint256",
          "name": "blockNumberOrSecond",
          "type": "uint256"
        }
      ],
      "name": "getPriorVotes",
      "outputs": [
        {
          "internalType": "uint96",
          "name": "",
          "type": "uint96"
        }
      ],
      "payable": false,
      "stateMutability": "view",
      "type": "function"
    },
    {
      "constant": true,
      "inputs": [
        {
          "internalType": "address",
          "name": "_rewardToken",
          "type": "address"
        },
        {
          "internalType": "uint256",
          "name": "_pid",
          "type": "uint256"
        },
        {
          "internalType": "address",
          "name": "_user",
          "type": "address"
        }
      ],
      "name": "getRequestedAmount",
      "outputs": [
        {
          "internalType": "uint256",
          "name": "",
          "type": "uint256"
        }
      ],
      "payable": false,
      "stateMutability": "view",
      "type": "function"
    },
    {
      "constant": true,
      "inputs": [
        {
          "internalType": "address",
          "name": "_rewardToken",
          "type": "address"
        },
        {
          "internalType": "uint256",
          "name": "_pid",
          "type": "uint256"
        },
        {
          "internalType": "address",
          "name": "_user",
          "type": "address"
        }
      ],
      "name": "getUserInfo",
      "outputs": [
        {
          "internalType": "uint256",
          "name": "amount",
          "type": "uint256"
        },
        {
          "internalType": "uint256",
          "name": "rewardDebt",
          "type": "uint256"
        },
        {
          "internalType": "uint256",
          "name": "pendingWithdrawals",
          "type": "uint256"
        }
      ],
      "payable": false,
      "stateMutability": "view",
      "type": "function"
    },
    {
      "constant": true,
      "inputs": [
        {
          "internalType": "address",
          "name": "_rewardToken",
          "type": "address"
        },
        {
          "internalType": "uint256",
          "name": "_pid",
          "type": "uint256"
        },
        {
          "internalType": "address",
          "name": "_user",
          "type": "address"
        }
      ],
      "name": "getWithdrawalRequests",
      "outputs": [
        {
          "components": [
            {
              "internalType": "uint256",
              "name": "amount",
              "type": "uint256"
            },
            {
              "internalType": "uint128",
              "name": "lockedUntil",
              "type": "uint128"
            },
            {
              "internalType": "uint128",
              "name": "afterUpgrade",
              "type": "uint128"
            }
          ],
          "internalType": "struct XVSVaultStorageV1.WithdrawalRequest[]",
          "name": "",
          "type": "tuple[]"
        }
      ],
      "payable": false,
      "stateMutability": "view",
      "type": "function"
    },
    {
      "constant": true,
      "inputs": [],
      "name": "implementation",
      "outputs": [
        {
          "internalType": "address",
          "name": "",
          "type": "address"
        }
      ],
      "payable": false,
      "stateMutability": "view",
      "type": "function"
    },
    {
      "constant": true,
      "inputs": [
        {
          "internalType": "address",
          "name": "",
          "type": "address"
        }
      ],
      "name": "isStakedToken",
      "outputs": [
        {
          "internalType": "bool",
          "name": "",
          "type": "bool"
        }
      ],
      "payable": false,
      "stateMutability": "view",
      "type": "function"
    },
    {
      "constant": true,
      "inputs": [],
      "name": "isTimeBased",
      "outputs": [
        {
          "internalType": "bool",
          "name": "",
          "type": "bool"
        }
      ],
      "payable": false,
      "stateMutability": "view",
      "type": "function"
    },
    {
      "constant": true,
      "inputs": [
        {
          "internalType": "address",
          "name": "",
          "type": "address"
        }
      ],
      "name": "nonces",
      "outputs": [
        {
          "internalType": "uint256",
          "name": "",
          "type": "uint256"
        }
      ],
      "payable": false,
      "stateMutability": "view",
      "type": "function"
    },
    {
      "constant": true,
      "inputs": [
        {
          "internalType": "address",
          "name": "",
          "type": "address"
        }
      ],
      "name": "numCheckpoints",
      "outputs": [
        {
          "internalType": "uint32",
          "name": "",
          "type": "uint32"
        }
      ],
      "payable": false,
      "stateMutability": "view",
      "type": "function"
    },
    {
      "constant": false,
      "inputs": [],
      "name": "pause",
      "outputs": [],
      "payable": false,
      "stateMutability": "nonpayable",
      "type": "function"
    },
    {
      "constant": true,
      "inputs": [],
      "name": "pendingAdmin",
      "outputs": [
        {
          "internalType": "address",
          "name": "",
          "type": "address"
        }
      ],
      "payable": false,
      "stateMutability": "view",
      "type": "function"
    },
    {
      "constant": true,
      "inputs": [
        {
          "internalType": "address",
          "name": "_rewardToken",
          "type": "address"
        },
        {
          "internalType": "uint256",
          "name": "_pid",
          "type": "uint256"
        },
        {
          "internalType": "address",
          "name": "_user",
          "type": "address"
        }
      ],
      "name": "pendingReward",
      "outputs": [
        {
          "internalType": "uint256",
          "name": "",
          "type": "uint256"
        }
      ],
      "payable": false,
      "stateMutability": "view",
      "type": "function"
    },
    {
      "constant": true,
      "inputs": [
        {
          "internalType": "address",
          "name": "",
          "type": "address"
        },
        {
          "internalType": "address",
          "name": "",
          "type": "address"
        }
      ],
      "name": "pendingRewardTransfers",
      "outputs": [
        {
          "internalType": "uint256",
          "name": "",
          "type": "uint256"
        }
      ],
      "payable": false,
      "stateMutability": "view",
      "type": "function"
    },
    {
      "constant": true,
      "inputs": [
        {
          "internalType": "address",
          "name": "_rewardToken",
          "type": "address"
        },
        {
          "internalType": "uint256",
          "name": "_pid",
          "type": "uint256"
        },
        {
          "internalType": "address",
          "name": "_user",
          "type": "address"
        }
      ],
      "name": "pendingWithdrawalsBeforeUpgrade",
      "outputs": [
        {
          "internalType": "uint256",
          "name": "beforeUpgradeWithdrawalAmount",
          "type": "uint256"
        }
      ],
      "payable": false,
      "stateMutability": "view",
      "type": "function"
    },
    {
      "constant": true,
      "inputs": [],
      "name": "pendingXVSVaultImplementation",
      "outputs": [
        {
          "internalType": "address",
          "name": "",
          "type": "address"
        }
      ],
      "payable": false,
      "stateMutability": "view",
      "type": "function"
    },
    {
      "constant": true,
      "inputs": [
        {
          "internalType": "address",
          "name": "",
          "type": "address"
        },
        {
          "internalType": "uint256",
          "name": "",
          "type": "uint256"
        }
      ],
      "name": "poolInfos",
      "outputs": [
        {
          "internalType": "contract IBEP20",
          "name": "token",
          "type": "address"
        },
        {
          "internalType": "uint256",
          "name": "allocPoint",
          "type": "uint256"
        },
        {
          "internalType": "uint256",
          "name": "lastRewardBlockOrSecond",
          "type": "uint256"
        },
        {
          "internalType": "uint256",
          "name": "accRewardPerShare",
          "type": "uint256"
        },
        {
          "internalType": "uint256",
          "name": "lockPeriod",
          "type": "uint256"
        }
      ],
      "payable": false,
      "stateMutability": "view",
      "type": "function"
    },
    {
      "constant": true,
      "inputs": [
        {
          "internalType": "address",
          "name": "rewardToken",
          "type": "address"
        }
      ],
      "name": "poolLength",
      "outputs": [
        {
          "internalType": "uint256",
          "name": "",
          "type": "uint256"
        }
      ],
      "payable": false,
      "stateMutability": "view",
      "type": "function"
    },
    {
      "constant": true,
      "inputs": [],
      "name": "primePoolId",
      "outputs": [
        {
          "internalType": "uint256",
          "name": "",
          "type": "uint256"
        }
      ],
      "payable": false,
      "stateMutability": "view",
      "type": "function"
    },
    {
      "constant": true,
      "inputs": [],
      "name": "primeRewardToken",
      "outputs": [
        {
          "internalType": "address",
          "name": "",
          "type": "address"
        }
      ],
      "payable": false,
      "stateMutability": "view",
      "type": "function"
    },
    {
      "constant": true,
      "inputs": [],
      "name": "primeToken",
      "outputs": [
        {
          "internalType": "contract IPrime",
          "name": "",
          "type": "address"
        }
      ],
      "payable": false,
      "stateMutability": "view",
      "type": "function"
    },
    {
      "constant": false,
      "inputs": [
        {
          "internalType": "address",
          "name": "_rewardToken",
          "type": "address"
        },
        {
          "internalType": "uint256",
          "name": "_pid",
          "type": "uint256"
        },
        {
          "internalType": "uint256",
          "name": "_amount",
          "type": "uint256"
        }
      ],
      "name": "requestWithdrawal",
      "outputs": [],
      "payable": false,
      "stateMutability": "nonpayable",
      "type": "function"
    },
    {
      "constant": false,
      "inputs": [],
      "name": "resume",
      "outputs": [],
      "payable": false,
      "stateMutability": "nonpayable",
      "type": "function"
    },
    {
      "constant": true,
      "inputs": [
        {
          "internalType": "address",
          "name": "_rewardToken",
          "type": "address"
        }
      ],
      "name": "rewardTokenAmountsPerBlock",
      "outputs": [
        {
          "internalType": "uint256",
          "name": "",
          "type": "uint256"
        }
      ],
      "payable": false,
      "stateMutability": "view",
      "type": "function"
    },
    {
      "constant": true,
      "inputs": [
        {
          "internalType": "address",
          "name": "",
          "type": "address"
        }
      ],
      "name": "rewardTokenAmountsPerBlockOrSecond",
      "outputs": [
        {
          "internalType": "uint256",
          "name": "",
          "type": "uint256"
        }
      ],
      "payable": false,
      "stateMutability": "view",
      "type": "function"
    },
    {
      "constant": false,
      "inputs": [
        {
          "internalType": "address",
          "name": "_rewardToken",
          "type": "address"
        },
        {
          "internalType": "uint256",
          "name": "_pid",
          "type": "uint256"
        },
        {
          "internalType": "uint256",
          "name": "_allocPoint",
          "type": "uint256"
        }
      ],
      "name": "set",
      "outputs": [],
      "payable": false,
      "stateMutability": "nonpayable",
      "type": "function"
    },
    {
      "constant": false,
      "inputs": [
        {
          "internalType": "address",
          "name": "newAccessControlAddress",
          "type": "address"
        }
      ],
      "name": "setAccessControl",
      "outputs": [],
      "payable": false,
      "stateMutability": "nonpayable",
      "type": "function"
    },
    {
      "constant": false,
      "inputs": [
        {
          "internalType": "contract IPrime",
          "name": "_primeToken",
          "type": "address"
        },
        {
          "internalType": "address",
          "name": "_primeRewardToken",
          "type": "address"
        },
        {
          "internalType": "uint256",
          "name": "_primePoolId",
          "type": "uint256"
        }
      ],
      "name": "setPrimeToken",
      "outputs": [],
      "payable": false,
      "stateMutability": "nonpayable",
      "type": "function"
    },
    {
      "constant": false,
      "inputs": [
        {
          "internalType": "address",
          "name": "_rewardToken",
          "type": "address"
        },
        {
          "internalType": "uint256",
          "name": "_rewardAmount",
          "type": "uint256"
        }
      ],
      "name": "setRewardAmountPerBlockOrSecond",
      "outputs": [],
      "payable": false,
      "stateMutability": "nonpayable",
      "type": "function"
    },
    {
      "constant": false,
      "inputs": [
        {
          "internalType": "address",
          "name": "_rewardToken",
          "type": "address"
        },
        {
          "internalType": "uint256",
          "name": "_pid",
          "type": "uint256"
        },
        {
          "internalType": "uint256",
          "name": "_newPeriod",
          "type": "uint256"
        }
      ],
      "name": "setWithdrawalLockingPeriod",
      "outputs": [],
      "payable": false,
      "stateMutability": "nonpayable",
      "type": "function"
    },
    {
      "constant": false,
      "inputs": [
        {
          "internalType": "address",
          "name": "_xvs",
          "type": "address"
        },
        {
          "internalType": "address",
          "name": "_xvsStore",
          "type": "address"
        }
      ],
      "name": "setXvsStore",
      "outputs": [],
      "payable": false,
      "stateMutability": "nonpayable",
      "type": "function"
    },
    {
      "constant": true,
      "inputs": [
        {
          "internalType": "address",
          "name": "",
          "type": "address"
        }
      ],
      "name": "totalAllocPoints",
      "outputs": [
        {
          "internalType": "uint256",
          "name": "",
          "type": "uint256"
        }
      ],
      "payable": false,
      "stateMutability": "view",
      "type": "function"
    },
    {
      "constant": false,
      "inputs": [
        {
          "internalType": "address",
          "name": "_rewardToken",
          "type": "address"
        },
        {
          "internalType": "uint256",
          "name": "_pid",
          "type": "uint256"
        }
      ],
      "name": "updatePool",
      "outputs": [],
      "payable": false,
      "stateMutability": "nonpayable",
      "type": "function"
    },
    {
      "constant": true,
      "inputs": [],
      "name": "vaultPaused",
      "outputs": [
        {
          "internalType": "bool",
          "name": "",
          "type": "bool"
        }
      ],
      "payable": false,
      "stateMutability": "view",
      "type": "function"
    },
    {
      "constant": true,
      "inputs": [],
      "name": "xvsAddress",
      "outputs": [
        {
          "internalType": "address",
          "name": "",
          "type": "address"
        }
      ],
      "payable": false,
      "stateMutability": "view",
      "type": "function"
    },
    {
      "constant": true,
      "inputs": [],
      "name": "xvsStore",
      "outputs": [
        {
          "internalType": "address",
          "name": "",
          "type": "address"
        }
      ],
      "payable": false,
      "stateMutability": "view",
      "type": "function"
    }
  ],
  "transactionHash": "0x499565aff7b284c3ad29f05c8a0c025cd556f3d36b2291236f2d5adc4af921af",
  "args": [
    false,
    10512000
  ],
  "numDeployments": 1,
  "solcInputHash": "23187a59157b7af0103f8019c9747499",
  "bytecode": "0x60806040523480156200001157600080fd5b506040516200578938038062005789833981016040819052620000349162000149565b81818115801562000043575080155b156200006c5760405162461bcd60e51b8152600401620000639062000210565b60405180910390fd5b8180156200007957508015155b15620000995760405162461bcd60e51b81526004016200006390620001fe565b607a805460ff191683151517905581620000b45780620000ba565b6301e133805b60795581620000d5576200012160201b6200533a17620000e2565b6200012560201b6200533e175b60aa80546001600160401b03929092166001600160401b03199092169190911790555050600080546001600160a01b0319163317905550620002589050565b4390565b4290565b8051620001368162000233565b92915050565b805162000136816200024d565b600080604083850312156200015d57600080fd5b60006200016b858562000129565b92505060206200017e858286016200013c565b9150509250929050565b60006200019760208362000222565b7f496e76616c69642074696d6520626173656420636f6e66696775726174696f6e815260200192915050565b6000620001d260178362000222565b7f496e76616c696420626c6f636b73207065722079656172000000000000000000815260200192915050565b60208082528101620001368162000188565b602080825281016200013681620001c3565b90815260200190565b151590565b90565b6200023e816200022b565b81146200024a57600080fd5b50565b6200023e8162000230565b61552180620002686000396000f3fe608060405234801561001057600080fd5b50600436106103425760003560e01c806392e35000116101b8578063c7ad089511610104578063e7a324dc116100a2578063f55401621161007c578063f5540162146106d6578063f851a440146106de578063fba1b1f9146106e6578063fe5a451a146106f957610342565b8063e7a324dc146106a5578063e8f2be6f146106ad578063f1127ed8146106b557610342565b8063dae66bbe116100de578063dae66bbe1461067a578063de0368b21461068d578063e1d146fb14610695578063e6a69ab81461069d57610342565b8063c7ad08951461064c578063cd9b94e714610654578063d7ae45e21461066757610342565b8063add8933711610171578063b6a5fd2f1161014b578063b6a5fd2f146105f3578063c210259614610606578063c3c754a814610626578063c3cda5201461063957610342565b8063add89337146105c3578063b4a0bdf3146105cb578063b4b5ea57146105e057610342565b806392e350001461053157806398e1b31b14610555578063996cba68146105775780639e2b6c4d1461058a578063a09eab7a1461059d578063a9d69a69146105b057610342565b8063587cde1e1161029257806373d025d6116102305780637ecebe001161020a5780637ecebe00146104f05780638308d7e9146105035780638456cb59146105165780638ed7333d1461051e57610342565b806373d025d6146104a8578063782d6fe1146104bd5780637ac92456146104dd57610342565b80635ff563151161026c5780635ff563151461045a5780636857249c1461046d5780636dd77cbd146104755780636fcfff451461048857610342565b8063587cde1e1461042c5780635c19a95c1461043f5780635c60da1b1461045257610342565b806320606b70116102ff5780632eda5c6c116102d95780632eda5c6c146103eb578063358ae036146103fe5780633d4180f9146104065780634298bdbd1461041957610342565b806320606b70146103c657806324f52bbf146103ce57806326782247146103e357610342565b8063046f7da2146103475780630af13728146103515780630efe6a8b1461037a578063115b512f1461038d57806319129e5a146103a05780631d504dc6146103b3575b600080fd5b61034f610701565b005b61036461035f366004613f48565b61078c565b6040516103719190614e6e565b60405180910390f35b61034f610388366004614000565b6107d2565b61034f61039b366004614000565b610ac7565b61034f6103ae366004613e55565b610e7b565b61034f6103c1366004614128565b610eb1565b610364610fe2565b6103d6610ff9565b6040516103719190614d0c565b6103d6611008565b6103646103f9366004613e55565b611017565b6103d6611036565b610364610414366004613e91565b611045565b610364610427366004613e55565b611062565b6103d661043a366004613e55565b611074565b61034f61044d366004613e55565b61108f565b6103d66110bc565b61034f610468366004613e91565b6110cb565b6103646111bf565b610364610483366004613f48565b6111c5565b61049b610496366004613e55565b61127a565b60405161037191906151ec565b6104b0611292565b6040516103719190614e60565b6104d06104cb366004613f18565b61129b565b6040516103719190615215565b61034f6104eb366004613f18565b6114b1565b6103646104fe366004613e55565b6117fa565b61034f610511366004614000565b61180c565b61034f6119b2565b61034f61052c366004613f18565b611a37565b61054461053f366004613f18565b611a72565b604051610371959493929190614edb565b610568610563366004613f48565b611ac7565b604051610371939291906151d1565b61034f610585366004613ecb565b611b19565b61034f610598366004614000565b611cab565b6103646105ab366004613f48565b611d96565b6103646105be366004613f48565b611fe6565b6103d6612028565b6105d3612037565b6040516103719190614ecd565b6104d06105ee366004613e55565b612046565b61034f610601366004613f18565b6120b6565b610619610614366004613f48565b6121dc565b6040516103719190614e4f565b6104b0610634366004613e55565b612296565b61034f610647366004614032565b6122ab565b6104b061244f565b610364610662366004613e55565b612458565b610364610675366004613e55565b61246a565b61034f610688366004614107565b612485565b6103d6612591565b6103646125a0565b6103646125be565b6103646125c6565b6103646125d2565b6106c86106c33660046140b9565b6125d8565b6040516103719291906151fa565b61036461260d565b6103d6612615565b61034f6106f4366004613f8b565b612624565b6105d3612909565b61072a60405180604001604052806008815260200167726573756d65282960c01b815250612918565b60135460ff166107555760405162461bcd60e51b815260040161074c90614f98565b60405180910390fd5b6013805460ff1916905560405133907fd2619572a1464e0df0bb351d834fd47f3350984d7bfdb1ab69cfcb0b8e42141590600090a2565b600061079884846129ba565b506001600160a01b0380841660009081526007602090815260408083208684528252808320938516835292905220600201545b9392505050565b600354600160a01b900460ff166107fb5760405162461bcd60e51b815260040161074c906150e8565b6003805460ff60a01b1916905560135460ff161561082b5760405162461bcd60e51b815260040161074c90614f88565b61083583836129ba565b6001600160a01b038316600090815260086020526040812080548490811061085957fe5b600091825260208083206001600160a01b0388168452600782526040808520888652835280852033865290925292206005909102909101915061089c85856129f1565b6108a7858533611fe6565b156108c45760405162461bcd60e51b815260040161074c90615098565b8054156109395760006108d78284612bce565b90508015610937576108ea863383612be2565b84866001600160a01b0316336001600160a01b03167f865ca08d59f5cb456e85cd2f7ef63664ea4f73327414e9d8152c4158b0e946458460405161092e9190614e6e565b60405180910390a45b505b8154610956906001600160a01b031633308663ffffffff612e5b16565b8054610968908463ffffffff612ebc16565b81556109748183612efe565b600182015560055482546001600160a01b03908116911614156109db57336000908152600f602090815260408083205481516060810190925260218083526109db94936001600160a01b03909216926109d6928992906153c190830139612f2c565b612f5b565b6017546001600160a01b0386811691161480156109f9575060185484145b15610a61576016546040516337f23cd360e01b81526001600160a01b03909116906337f23cd390610a2e903390600401614d1a565b600060405180830381600087803b158015610a4857600080fd5b505af1158015610a5c573d6000803e3d6000fd5b505050505b83856001600160a01b0316336001600160a01b03167fdcbc1c05240f31ff3ad067ef1ee35ce4997762752e3a095284754544f4c709d786604051610aa59190614e6e565b60405180910390a450506003805460ff60a01b1916600160a01b179055505050565b600354600160a01b900460ff16610af05760405162461bcd60e51b815260040161074c906150e8565b6003805460ff60a01b1916905560135460ff1615610b205760405162461bcd60e51b815260040161074c90614f88565b610b2a83836129ba565b60008111610b4a5760405162461bcd60e51b815260040161074c906150b8565b6001600160a01b0383166000908152600760209081526040808320858452825280832033845290915290206002810154610b8a908363ffffffff612ebc16565b81541015610baa5760405162461bcd60e51b815260040161074c90615178565b6001600160a01b0384166000908152600860205260408120805485908110610bce57fe5b600091825260208083206001600160a01b0389168452600a825260408085208986528352808520338652909252908320600590920201925090610c10826130ed565b5090508015610c315760405162461bcd60e51b815260040161074c90615098565b610c3b87876129f1565b6000610c478585612bce565b9050610c54883383612be2565b6004840154600090610c6c904263ffffffff612ebc16565b9050610c7a86858984613191565b6001600160a01b03891660009081526012602090815260408083208b8452909152902054610cae908863ffffffff612ebc16565b6001600160a01b038a1660009081526012602090815260408083208c8452909152902055610cdc8686612efe565b600187015560055485546001600160a01b0390811691161415610d3f57336000908152600f6020908152604080832054815160608101909252602b808352610d3f946001600160a01b039092169391926109d6928d929061536e90830139612f2c565b6017546001600160a01b038a81169116148015610d5d575060185488145b15610dc5576016546040516337f23cd360e01b81526001600160a01b03909116906337f23cd390610d92903390600401614d1a565b600060405180830381600087803b158015610dac57600080fd5b505af1158015610dc0573d6000803e3d6000fd5b505050505b87896001600160a01b0316336001600160a01b03167f865ca08d59f5cb456e85cd2f7ef63664ea4f73327414e9d8152c4158b0e9464585604051610e099190614e6e565b60405180910390a487896001600160a01b0316336001600160a01b03167f88a254a0ef28a0b9e957ff600beae69870f6f924065147f3627c3f814e60ec118a604051610e559190614e6e565b60405180910390a450506003805460ff60a01b1916600160a01b17905550505050505050565b6000546001600160a01b03163314610ea55760405162461bcd60e51b815260040161074c90615108565b610eae81613375565b50565b806001600160a01b031663f851a4406040518163ffffffff1660e01b815260040160206040518083038186803b158015610eea57600080fd5b505afa158015610efe573d6000803e3d6000fd5b505050506040513d601f19601f82011682018060405250610f229190810190613e73565b6001600160a01b0316336001600160a01b031614610f525760405162461bcd60e51b815260040161074c90615188565b806001600160a01b031663c1e803346040518163ffffffff1660e01b8152600401602060405180830381600087803b158015610f8d57600080fd5b505af1158015610fa1573d6000803e3d6000fd5b505050506040513d601f19601f82011682018060405250610fc59190810190614146565b15610eae5760405162461bcd60e51b815260040161074c90615118565b604051610fee90614cf6565b604051809103902081565b6004546001600160a01b031681565b6001546001600160a01b031681565b6001600160a01b0381166000908152600660205260409020545b919050565b6005546001600160a01b031681565b601560209081526000928352604080842090915290825290205481565b60096020526000908152604090205481565b600f602052600090815260409020546001600160a01b031681565b60135460ff16156110b25760405162461bcd60e51b815260040161074c90614f88565b610eae33826133fa565b6002546001600160a01b031681565b6000546001600160a01b031633146110f55760405162461bcd60e51b815260040161074c90615108565b6110fe82613489565b61110781613489565b6005546004546001600160a01b03918216911681156111385760405162461bcd60e51b815260040161074c90615058565b600580546001600160a01b038087166001600160a01b03199283161790925560048054928616929091169190911790556003805460ff60a01b1916600160a01b1790556040517f559f314bb90394a4a9ceb724f365b36a53587d894352c43d12901fd680101456906111b1908490849088908890614d8b565b60405180910390a150505050565b60795481565b60006111d184846129ba565b6001600160a01b038085166000908152600a60209081526040808320878452825280832093861683529290522080545b600081118015611231575061123182600183038154811061121e57fe5b90600052602060002090600202016134af565b156112715761126682600183038154811061124857fe5b6000918252602090912060029091020154849063ffffffff612ebc16565b925060001901611201565b50509392505050565b60116020526000908152604090205463ffffffff1681565b60135460ff1681565b60006112a56125a0565b82106112c35760405162461bcd60e51b815260040161074c90615068565b6001600160a01b03831660009081526011602052604090205463ffffffff16806112f15760009150506114ab565b6001600160a01b038416600090815260106020908152604080832063ffffffff60001986018116855292529091205416831061136d576001600160a01b03841660009081526010602090815260408083206000199490940163ffffffff1683529290522054600160201b90046001600160601b031690506114ab565b6001600160a01b038416600090815260106020908152604080832083805290915290205463ffffffff168310156113a85760009150506114ab565b600060001982015b8163ffffffff168163ffffffff16111561146b57600282820363ffffffff160481036113da613de4565b506001600160a01b038716600090815260106020908152604080832063ffffffff858116855290835292819020815180830190925254928316808252600160201b9093046001600160601b03169181019190915290871415611446576020015194506114ab9350505050565b805163ffffffff1687111561145d57819350611464565b6001820392505b50506113b0565b506001600160a01b038516600090815260106020908152604080832063ffffffff909416835292905220546001600160601b03600160201b909104169150505b92915050565b600354600160a01b900460ff166114da5760405162461bcd60e51b815260040161074c906150e8565b6003805460ff60a01b1916905560135460ff161561150a5760405162461bcd60e51b815260040161074c90614f88565b61151482826129ba565b6001600160a01b038216600090815260086020526040812080548390811061153857fe5b600091825260208083206001600160a01b038716808552600783526040808620888752845280862033808852908552818720928752600a855281872089885285528187209087529093529184206005909302019350918061159984846134c4565b9092509050811515806115ac5750600081115b6115c85760405162461bcd60e51b815260040161074c90615128565b8115806115d3575080155b6115ef5760405162461bcd60e51b815260040161074c90614f48565b8115611708576115ff87876129f1565b6000611645856001015461163964e8d4a5100061162d8a600301548a600001546135bb90919063ffffffff16565b9063ffffffff6135f516565b9063ffffffff61363716565b6004805460405163135b33cd60e31b81529293506001600160a01b031691639ad99e6891611679918c913391879101614d63565b600060405180830381600087803b15801561169357600080fd5b505af11580156116a7573d6000803e3d6000fd5b505086546116be925090508463ffffffff61363716565b80865560038701546116e19164e8d4a510009161162d919063ffffffff6135bb16565b60018601558554611702906001600160a01b0316338563ffffffff61367916565b5061178c565b835461171a908263ffffffff61363716565b84556001600160a01b0387166000908152601260209081526040808320898452909152902054611750908263ffffffff61363716565b6001600160a01b0380891660009081526012602090815260408083208b8452909152902091909155855461178c9116338363ffffffff61367916565b856001600160a01b038816337fe31da05fae6db869f5ea51f4b638aa6884070b6c87f18f63bd2291a12cb2f5186117c9868663ffffffff612ebc16565b6040516117d69190614e6e565b60405180910390a450506003805460ff60a01b1916600160a01b1790555050505050565b600e6020526000908152604090205481565b61184a6040518060400160405280601c81526020017f73657428616464726573732c75696e743235362c75696e743235362900000000815250612918565b61185483836129ba565b61185d8361369b565b6001600160a01b038316600090815260086020526040812080549091906118d69084906118ca9085908890811061189057fe5b60009182526020808320600160059093020191909101546001600160a01b038b16835260099091526040909120549063ffffffff61363716565b9063ffffffff612ebc16565b9050600081116118f85760405162461bcd60e51b815260040161074c90615198565b600082858154811061190657fe5b90600052602060002090600502016001015490508383868154811061192757fe5b9060005260206000209060050201600101819055508160096000886001600160a01b03166001600160a01b031681526020019081526020016000208190555084866001600160a01b03167f6ee09c6cb801194690c195c69f465aaf7c80255cbeafaab9600f47ed79de2ca983876040516119a29291906151c3565b60405180910390a3505050505050565b6119da604051806040016040528060078152602001667061757365282960c81b815250612918565b60135460ff16156119fd5760405162461bcd60e51b815260040161074c90615018565b6013805460ff1916600117905560405133907fdffada2889ebfab9224c24069d833f3de835d8cf99872d49e7b7ba5fccb7a46f90600090a2565b60135460ff1615611a5a5760405162461bcd60e51b815260040161074c90614f88565b611a6482826129ba565b611a6e82826129f1565b5050565b60086020528160005260406000208181548110611a8b57fe5b6000918252602090912060059091020180546001820154600283015460038401546004909401546001600160a01b039093169550909350919085565b6000806000611ad686866129ba565b5050506001600160a01b03928316600090815260076020908152604080832094835293815283822092909416815292529020805460018201546002909201549092565b600354600160a01b900460ff16611b425760405162461bcd60e51b815260040161074c906150e8565b6003805460ff60a01b1916905560135460ff1615611b725760405162461bcd60e51b815260040161074c90614f88565b611b7c82826129ba565b6001600160a01b0382166000908152600860205260408120805483908110611ba057fe5b600091825260208083206001600160a01b0380881685526007835260408086208887528452808620918a1686529252922060059091029091019150611be584846129f1565b611bf0848487611fe6565b15611c0d5760405162461bcd60e51b815260040161074c90615098565b805415611c91576000611c208284612bce565b90508015611c8f57611c328284612efe565b6001830155611c42858783612be2565b83856001600160a01b0316876001600160a01b03167f865ca08d59f5cb456e85cd2f7ef63664ea4f73327414e9d8152c4158b0e9464584604051611c869190614e6e565b60405180910390a45b505b50506003805460ff60a01b1916600160a01b179055505050565b611ccc60405180606001604052806033815260200161542460339139612918565b611cd683836129ba565b600081118015611ce957506312cc030081105b611d055760405162461bcd60e51b815260040161074c90615138565b6001600160a01b0383166000908152600860205260408120805484908110611d2957fe5b9060005260206000209060050201905060008160040154905082826004018190555083856001600160a01b03167f0bcf80c5060ccf99b7a993c57a94b232fc2c5c04bd74c7c7d174595fee6bc31f8386604051611d879291906151c3565b60405180910390a35050505050565b6000611da284846129ba565b6001600160a01b0384166000908152600860205260408120805485908110611dc657fe5b600091825260208083206001600160a01b03808a168086526007845260408087208b885285528087208a8416885285528087206003600590970290940195860154918752601285528087208b885290945283862054855494516370a0823160e01b8152959750929590949093611e9d939216906370a0823190611e4d903090600401614d0c565b60206040518083038186803b158015611e6557600080fd5b505afa158015611e79573d6000803e3d6000fd5b505050506040513d601f19601f820116820180604052506116399190810190614146565b90506000611ea96125a0565b6001600160a01b038a1660009081526006602052604090205460028701549192509082118015611ed857508215155b15611f6e576000611ef687600201548461363790919063ffffffff16565b6001600160a01b038c1660009081526009602052604081205460018a01549293509091611f3e919061162d90611f32868863ffffffff6135bb16565b9063ffffffff6135bb16565b9050611f69611f5c8661162d8464e8d4a5100063ffffffff6135bb16565b879063ffffffff612ebc16565b955050505b6001600160a01b03808b166000908152600a602090815260408083208d84528252808320938c16835292905290812090611fa7826130ed565b915050611fd6876001015461163964e8d4a5100061162d8a611f32878e6000015461363790919063ffffffff16565b9c9b505050505050505050505050565b6001600160a01b038084166000908152600a602090815260408083208684528252808320938516835292905290812061201e816130ed565b5095945050505050565b6017546001600160a01b031681565b6047546001600160a01b031690565b6001600160a01b03811660009081526011602052604081205463ffffffff16806120715760006107cb565b6001600160a01b0383166000908152601060209081526040808320600019850163ffffffff168452909152902054600160201b90046001600160601b03169392505050565b6120d760405180606001604052806030815260200161548360309139612918565b60048054604051633d6ac5b360e21b81526001600160a01b039091169163f5ab16cc9161210691869101614d0c565b60206040518083038186803b15801561211e57600080fd5b505afa158015612132573d6000803e3d6000fd5b505050506040513d601f19601f8201168201806040525061215691908101906140e9565b6121725760405162461bcd60e51b815260040161074c906150f8565b61217b8261369b565b6001600160a01b0382166000818152600660205260409081902080549084905590519091907fad96cee0d692f0250b98e085504f399da6733854908215f6203fe3c69366d9f5906121cf90849086906151c3565b60405180910390a2505050565b60606121e884846129ba565b6001600160a01b038085166000908152600a602090815260408083208784528252808320938616835292815282822080548451818402810184019095528085529092909184015b828210156122895760008481526020908190206040805160608101825260028602909201805483526001908101546001600160801b0380821685870152600160801b9091041691830191909152908352909201910161222f565b5050505090509392505050565b60146020526000908152604090205460ff1681565b60135460ff16156122ce5760405162461bcd60e51b815260040161074c90614f88565b60006040516122dc90614cf6565b604080519182900382208282019091526008825267161594d5985d5b1d60c21b6020909201919091527fddfcc46608a8bd52ebf900f03a24cc97b73a6046cec8c5d0f74a211e376e967a61232e6136d0565b306040516020016123429493929190614e8a565b604051602081830303815290604052805190602001209050600060405161236890614d01565b604051908190038120612383918a908a908a90602001614e7c565b604051602081830303815290604052805190602001209050600082826040516020016123b0929190614cc5565b60405160208183030381529060405280519060200120905060006123d6828888886136d4565b6001600160a01b0381166000908152600e6020526040902080546001810190915590915089146124185760405162461bcd60e51b815260040161074c90614ff8565b874211156124385760405162461bcd60e51b815260040161074c90614fd8565b612442818b6133fa565b505050505b505050505050565b607a5460ff1681565b60066020526000908152604090205481565b6001600160a01b031660009081526008602052604090205490565b6000546001600160a01b031633146124af5760405162461bcd60e51b815260040161074c90615108565b6001600160a01b0383166124d55760405162461bcd60e51b815260040161074c90614fe8565b6001600160a01b0382166124fb5760405162461bcd60e51b815260040161074c90615078565b61250582826129ba565b6016546017546018546040516001600160a01b03808816948116937f8def9436d6e31b89ed00948ba91d0cb6936eada5154cb1b45b55683fb9e492379361255493919092169188918890614de4565b60405180910390a3601680546001600160a01b039485166001600160a01b0319918216179091556017805493909416921691909117909155601855565b6003546001600160a01b031681565b60aa546000906125b9908015613dfb021763ffffffff16565b905090565b6301e1338081565b604051610fee90614d01565b60185481565b601060209081526000928352604080842090915290825290205463ffffffff811690600160201b90046001600160601b031682565b6312cc030081565b6000546001600160a01b031681565b6126456040518060600160405280602c81526020016154b3602c9139612918565b61264e85613489565b61265783613489565b6004546001600160a01b031661267f5760405162461bcd60e51b815260040161074c90614f68565b6000841161269f5760405162461bcd60e51b815260040161074c90615148565b6126a88561369b565b6001600160a01b0385166000908152600860205260408120805490915b8181101561272357856001600160a01b03168382815481106126e357fe5b60009182526020909120600590910201546001600160a01b0316141561271b5760405162461bcd60e51b815260040161074c906150d8565b6001016126c5565b506001600160a01b03851660009081526014602052604090205460ff161561275d5760405162461bcd60e51b815260040161074c90615048565b6001600160a01b038716600090815260096020526040902054612786908763ffffffff612ebc16565b6001600160a01b038089166000908152600960209081526040808320949094556006815290839020879055825160a08101845291881682528101889052839181016127cf6125a0565b8152600060208083018290526040928301889052845460018082018755958352818320855160059092020180546001600160a01b0319166001600160a01b039283161781558583015181880155858501516002820155606086015160038201556080909501516004958601558a81168352601490915290829020805460ff1916851790558254915163fb66fb4d60e01b815291169263fb66fb4d92612877928c929101614e19565b600060405180830381600087803b15801561289157600080fd5b505af11580156128a5573d6000803e3d6000fd5b50505050846001600160a01b03166001838054905003886001600160a01b03167fd7fa4bff1cd2253c0789c3291a786a6f6b1a3b4569a75af683a15d52abb6a0bf8988886040516128f8939291906151d1565b60405180910390a450505050505050565b6016546001600160a01b031681565b6047546040516318c5e8ab60e01b81526000916001600160a01b0316906318c5e8ab9061294b9033908690600401614d28565b60206040518083038186803b15801561296357600080fd5b505afa158015612977573d6000803e3d6000fd5b505050506040513d601f19601f8201168201806040525061299b91908101906140e9565b905080611a6e5760405162461bcd60e51b815260040161074c90614fa8565b6001600160a01b0382166000908152600860205260409020548110611a6e5760405162461bcd60e51b815260040161074c90614f58565b6001600160a01b0382166000908152600860205260408120805483908110612a1557fe5b906000526020600020906005020190508060020154612a326125a0565b11612a3d5750611a6e565b80546040516370a0823160e01b81526000916001600160a01b0316906370a0823190612a6d903090600401614d0c565b60206040518083038186803b158015612a8557600080fd5b505afa158015612a99573d6000803e3d6000fd5b505050506040513d601f19601f82011682018060405250612abd9190810190614146565b6001600160a01b0385166000908152601260209081526040808320878452909152902054909150612af590829063ffffffff61363716565b905080612b1357612b046125a0565b82600201819055505050611a6e565b6000612b1d6125a0565b90506000612b3884600201548361363790919063ffffffff16565b6001600160a01b03871660009081526009602090815260408083205460018901546006909352908320549394509192612b81929161162d91611f3290879063ffffffff6135bb16565b9050612bb0612b9f8561162d8464e8d4a5100063ffffffff6135bb16565b60038701549063ffffffff612ebc16565b6003860155612bbd6125a0565b856002018190555050505050505050565b60006107cb83600101546116398585612efe565b600480546040516370a0823160e01b81526001600160a01b03918216926000928716916370a0823191612c1791869101614d0c565b60206040518083038186803b158015612c2f57600080fd5b505afa158015612c43573d6000803e3d6000fd5b505050506040513d601f19601f82011682018060405250612c679190810190614146565b6001600160a01b038087166000908152601560209081526040808320938916835292905290812054919250612ca2858363ffffffff612ebc16565b9050828111612d80578115612d15576001600160a01b038088166000818152601560209081526040808320948b1680845294909152808220829055517f6bdfd5e51d01475945224d3d37965916fd8df699ef9e8888af4359aa8622216091612d0c918791906151a8565b60405180910390a35b60405163135b33cd60e31b81526001600160a01b03851690639ad99e6890612d45908a908a908690600401614dc9565b600060405180830381600087803b158015612d5f57600080fd5b505af1158015612d73573d6000803e3d6000fd5b5050505050505050612e56565b6001600160a01b038088166000818152601560209081526040808320948b168084529490915290819020868503908190559051909291907f6bdfd5e51d01475945224d3d37965916fd8df699ef9e8888af4359aa8622216090612de690879086906151c3565b60405180910390a360405163135b33cd60e31b81526001600160a01b03861690639ad99e6890612e1e908b908b908990600401614dc9565b600060405180830381600087803b158015612e3857600080fd5b505af1158015612e4c573d6000803e3d6000fd5b5050505050505050505b505050565b604051612eb69085906323b872dd60e01b90612e7f90879087908790602401614dc9565b60408051601f198184030181529190526020810180516001600160e01b03166001600160e01b0319909316929092179091526136fe565b50505050565b60006107cb83836040518060400160405280601b81526020017f536166654d6174683a206164646974696f6e206f766572666c6f7700000000008152506137e3565b60006107cb64e8d4a5100061162d8460030154611f328760020154886000015461363790919063ffffffff16565b600081600160601b8410612f535760405162461bcd60e51b815260040161074c9190614f27565b509192915050565b816001600160a01b0316836001600160a01b031614158015612f8657506000816001600160601b0316115b15612e56576001600160a01b0383161561303e576001600160a01b03831660009081526011602052604081205463ffffffff169081612fc6576000613005565b6001600160a01b0385166000908152601060209081526040808320600019860163ffffffff168452909152902054600160201b90046001600160601b03165b9050600061302c82856040518060600160405280602c8152602001615457602c9139613813565b905061303a86848484613852565b5050505b6001600160a01b03821615612e56576001600160a01b03821660009081526011602052604081205463ffffffff1690816130795760006130b8565b6001600160a01b0384166000908152601060209081526040808320600019860163ffffffff168452909152902054600160201b90046001600160601b03165b905060006130df82856040518060600160405280602b8152602001615343602b9139613a0e565b905061244785848484613852565b805460009081905b801561318b5783600182038154811061310a57fe5b6000918252602090912060016002909202018101546001600160801b03600160801b90910416141561316d5761316684600183038154811061314857fe5b6000918252602090912060029091020154839063ffffffff612ebc16565b9150613182565b61317f84600183038154811061124857fe5b92505b600019016130f5565b50915091565b8254604080516060810182526000808252602080830182815260019484018581528587018a5589845291909220925160028602909301928355905191909201805492516001600160801b03908116600160801b029281166001600160801b0319909416939093179092161790555b60008111801561323a57508184600183038154811061321a57fe5b60009182526020909120600160029092020101546001600160801b031611155b156132c15783600182038154811061324e57fe5b906000526020600020906002020184828154811061326857fe5b600091825260209091208254600290920201908155600191820180549290910180546001600160801b0319166001600160801b03938416178082559154600160801b9081900484160291909216179055600019016131ff565b60405180606001604052808481526020016132db84613a41565b6001600160801b0316815260200160016001600160801b031681525084828154811061330357fe5b60009182526020918290208351600292830290910190815591830151600190920180546040909401516001600160801b03199094166001600160801b03938416178316600160801b93909416929092029290921790558501546133669084612ebc565b85600201819055505050505050565b6001600160a01b03811661339b5760405162461bcd60e51b815260040161074c90615028565b604780546001600160a01b038381166001600160a01b03198316179092556040519116907f66fd58e82f7b31a2a5c30e0888f3093efe4e111b00cd2b0c31fe014601293aa0906133ee9083908590614d48565b60405180910390a15050565b6001600160a01b038083166000908152600f60205260408120549091169061342184613a6a565b6001600160a01b038581166000818152600f602052604080822080546001600160a01b031916898616908117909155905194955093928616927f0cc323ffec3ea49cbcddc0de1480978126d350c6a45dff33ad2f1cda6ae992619190a4612eb6828483612f5b565b6001600160a01b038116610eae5760405162461bcd60e51b815260040161074c90615088565b60010154426001600160801b03909116111590565b805460009081905b6000811180156134e957506134e984600183038154811061121e57fe5b1561358a578360018203815481106134fd57fe5b6000918252602090912060016002909202018101546001600160801b03600160801b9091041614156135425761353b84600183038154811061314857fe5b9150613557565b61355484600183038154811061124857fe5b92505b8380548061356157fe5b6000828152602081206000199283016002810290910182815560010191909155909155016134cc565b506135af61359e828463ffffffff612ebc16565b60028601549063ffffffff61363716565b60028501559250929050565b6000826135ca575060006114ab565b828202828482816135d757fe5b04146107cb5760405162461bcd60e51b815260040161074c906150c8565b60006107cb83836040518060400160405280601a81526020017f536166654d6174683a206469766973696f6e206279207a65726f000000000000815250613b80565b60006107cb83836040518060400160405280601e81526020017f536166654d6174683a207375627472616374696f6e206f766572666c6f770000815250613bb7565b604051612e5690849063a9059cbb60e01b90612e7f9086908690602401614e34565b6001600160a01b038116600090815260086020526040812054905b81811015612e56576136c883826129f1565b6001016136b6565b4690565b60008060006136e587878787613bdb565b915091506136f281613cbb565b5090505b949350505050565b613710826001600160a01b0316613d84565b61372c5760405162461bcd60e51b815260040161074c90615168565b60006060836001600160a01b0316836040516137489190614cb9565b6000604051808303816000865af19150503d8060008114613785576040519150601f19603f3d011682016040523d82523d6000602084013e61378a565b606091505b5091509150816137ac5760405162461bcd60e51b815260040161074c90615158565b805115612eb657808060200190516137c791908101906140e9565b612eb65760405162461bcd60e51b815260040161074c90614fc8565b6000838301828582101561380a5760405162461bcd60e51b815260040161074c9190614f27565b50949350505050565b6000836001600160601b0316836001600160601b03161115829061384a5760405162461bcd60e51b815260040161074c9190614f27565b505050900390565b600061387d61385f6125a0565b6040518060800160405280604281526020016153e260429139613dbd565b905060008463ffffffff161180156138c657506001600160a01b038516600090815260106020908152604080832063ffffffff6000198901811685529252909120548282169116145b15613925576001600160a01b0385166000908152601060209081526040808320600019880163ffffffff168452909152902080546fffffffffffffffffffffffff000000001916600160201b6001600160601b038516021790556139c4565b60408051808201825263ffffffff80841682526001600160601b0380861660208085019182526001600160a01b038b166000818152601083528781208c871682528352878120965187549451909516600160201b026fffffffffffffffffffffffff000000001995871663ffffffff19958616179590951694909417909555938252601190935292909220805460018801909316929091169190911790555b846001600160a01b03167f6adb589fed1e8542fb7a6b10f00a85e02265e77f9ae3ca8ff93b22983e1af9a084846040516139ff929190615223565b60405180910390a25050505050565b6000838301826001600160601b03808716908316101561380a5760405162461bcd60e51b815260040161074c9190614f27565b6000600160801b8210613a665760405162461bcd60e51b815260040161074c90615008565b5090565b6005546000906001600160a01b0316613a955760405162461bcd60e51b815260040161074c90614fb8565b6005546001600160a01b03166000908152600860205260408120805490915b81811015613b755760055483546001600160a01b0390911690849083908110613ad957fe5b60009182526020909120600590910201546001600160a01b03161415613b6d576005546001600160a01b039081166000908152600760209081526040808320858452825280832093891683529290522060028101548154613b6291613b44919063ffffffff61363716565b60405180606001604052806028815260200161539960289139612f2c565b945050505050611031565b600101613ab4565b506000949350505050565b60008183613ba15760405162461bcd60e51b815260040161074c9190614f27565b506000838581613bad57fe5b0495945050505050565b6000818484111561384a5760405162461bcd60e51b815260040161074c9190614f27565b6000807f7fffffffffffffffffffffffffffffff5d576e7357a4501ddfe92f46681b20a0831115613c125750600090506003613cb2565b8460ff16601b14158015613c2a57508460ff16601c14155b15613c3b5750600090506004613cb2565b600060018787878760405160008152602001604052604051613c609493929190614eb2565b6020604051602081039080840390855afa158015613c82573d6000803e3d6000fd5b5050604051601f1901519150506001600160a01b038116613cab57506000915060019050613cb2565b9150600090505b94509492505050565b6000816004811115613cc957fe5b1415613cd457610eae565b6001816004811115613ce257fe5b1415613d005760405162461bcd60e51b815260040161074c90614f38565b6002816004811115613d0e57fe5b1415613d2c5760405162461bcd60e51b815260040161074c90614f78565b6003816004811115613d3a57fe5b1415613d585760405162461bcd60e51b815260040161074c90615038565b6004816004811115613d6657fe5b1415610eae5760405162461bcd60e51b815260040161074c906150a8565b6000813f7fc5d2460186f7233c927e7db2dcc703c0e500b653ca82273b7bfad8045d85a4708181148015906136f6575050151592915050565b600081600160201b8410612f535760405162461bcd60e51b815260040161074c9190614f27565b604080518082019091526000808252602082015290565bfe5b80356114ab816152f9565b80516114ab816152f9565b80516114ab8161530d565b80356114ab81615316565b80356114ab8161531f565b80516114ab81615316565b80356114ab81615328565b80356114ab81615331565b600060208284031215613e6757600080fd5b60006136f68484613dfd565b600060208284031215613e8557600080fd5b60006136f68484613e08565b60008060408385031215613ea457600080fd5b6000613eb08585613dfd565b9250506020613ec185828601613dfd565b9150509250929050565b600080600060608486031215613ee057600080fd5b6000613eec8686613dfd565b9350506020613efd86828701613dfd565b9250506040613f0e86828701613e1e565b9150509250925092565b60008060408385031215613f2b57600080fd5b6000613f378585613dfd565b9250506020613ec185828601613e1e565b600080600060608486031215613f5d57600080fd5b6000613f698686613dfd565b9350506020613f7a86828701613e1e565b9250506040613f0e86828701613dfd565b600080600080600060a08688031215613fa357600080fd5b6000613faf8888613dfd565b9550506020613fc088828901613e1e565b9450506040613fd188828901613e29565b9350506060613fe288828901613e1e565b9250506080613ff388828901613e1e565b9150509295509295909350565b60008060006060848603121561401557600080fd5b60006140218686613dfd565b9350506020613efd86828701613e1e565b60008060008060008060c0878903121561404b57600080fd5b60006140578989613dfd565b965050602061406889828a01613e1e565b955050604061407989828a01613e1e565b945050606061408a89828a01613e4a565b935050608061409b89828a01613e1e565b92505060a06140ac89828a01613e1e565b9150509295509295509295565b600080604083850312156140cc57600080fd5b60006140d88585613dfd565b9250506020613ec185828601613e3f565b6000602082840312156140fb57600080fd5b60006136f68484613e13565b60008060006060848603121561411c57600080fd5b6000613eec8686613e29565b60006020828403121561413a57600080fd5b60006136f68484613e29565b60006020828403121561415857600080fd5b60006136f68484613e34565b60006141708383614c59565b505060600190565b614181816152a2565b82525050565b61418181615251565b600061419b82615244565b6141a58185615248565b93506141b08361523e565b8060005b838110156141de5781516141c88882614164565b97506141d38361523e565b9250506001016141b4565b509495945050505050565b6141818161525c565b61418181615261565b61418161420782615261565b615261565b600061421782615244565b6142218185611031565b93506142318185602086016152c3565b9290920192915050565b61418181615264565b614181816152ad565b600061425882615244565b6142628185615248565b93506142728185602086016152c3565b61427b816152ef565b9093019392505050565b6000614292601883615248565b7f45434453413a20696e76616c6964207369676e61747572650000000000000000815260200192915050565b60006142cb601283615248565b71696e636f6e73697374656e7420737461746560701b815260200192915050565b60006142f9601383615248565b727661756c743a20706f6f6c206578697374733f60681b815260200192915050565b6000614328601f83615248565b7f53746f726520636f6e7472616374206164647265737320697320656d70747900815260200192915050565b6000614361601f83615248565b7f45434453413a20696e76616c6964207369676e6174757265206c656e67746800815260200192915050565b600061439a600f83615248565b6e15985d5b1d081a5cc81c185d5cd959608a1b815260200192915050565b60006143c5601383615248565b7215985d5b1d081a5cc81b9bdd081c185d5cd959606a1b815260200192915050565b60006143f4600c83615248565b6b155b985d5d1a1bdc9a5e995960a21b815260200192915050565b600061441c603083615248565b7f5856535661756c743a3a6765745374616b65416d6f756e743a2078767320616481526f191c995cdcc81a5cc81b9bdd081cd95d60821b602082015260400192915050565b600061446e602a83615248565b7f5361666542455032303a204245503230206f7065726174696f6e20646964206e8152691bdd081cdd58d8d9595960b21b602082015260400192915050565b60006144ba602a83615248565b7f5856535661756c743a3a64656c656761746542795369673a207369676e6174758152691c9948195e1c1a5c995960b21b602082015260400192915050565b6000614506602283615248565b7f7072696d6520746f6b656e2063616e6e6f74206265207a65726f206164647265815261737360f01b602082015260400192915050565b600061454a602683615248565b7f5856535661756c743a3a64656c656761746542795369673a20696e76616c6964815265206e6f6e636560d01b602082015260400192915050565b6000614592600283611031565b61190160f01b815260020192915050565b60006145b0602783615248565b7f53616665436173743a2076616c756520646f65736e27742066697420696e20318152663238206269747360c81b602082015260400192915050565b60006145f9601783615248565b7f5661756c7420697320616c726561647920706175736564000000000000000000815260200192915050565b6000614632602583615248565b7f696e76616c696420616365737320636f6e74726f6c206d616e61676572206164815264647265737360d81b602082015260400192915050565b6000614679602283615248565b7f45434453413a20696e76616c6964207369676e6174757265202773272076616c815261756560f01b602082015260400192915050565b60006146bd601a83615248565b7f546f6b656e2065786973747320696e206f7468657220706f6f6c000000000000815260200192915050565b60006146f6601383615248565b72185b1c9958591e481a5b9a5d1a585b1a5e9959606a1b815260200192915050565b6000614725602b83615248565b7f5856535661756c743a3a6765745072696f72566f7465733a206e6f742079657481526a0819195d195c9b5a5b995960aa1b602082015260400192915050565b6000614772601d83615248565b7f7265776172642063616e6e6f74206265207a65726f2061646472657373000000815260200192915050565b60006147ab601883615248565b7f7a65726f2061646472657373206e6f7420616c6c6f7765640000000000000000815260200192915050565b60006147e4601a83615248565b7f657865637574652070656e64696e67207769746864726177616c000000000000815260200192915050565b600061481d602283615248565b7f45434453413a20696e76616c6964207369676e6174757265202776272076616c815261756560f01b602082015260400192915050565b6000614861604383611031565b7f454950373132446f6d61696e28737472696e67206e616d652c75696e7432353681527f20636861696e49642c6164647265737320766572696679696e67436f6e74726160208201526263742960e81b604082015260430192915050565b60006148cc601f83615248565b7f72657175657374656420616d6f756e742063616e6e6f74206265207a65726f00815260200192915050565b6000614905602183615248565b7f536166654d6174683a206d756c7469706c69636174696f6e206f766572666c6f8152607760f81b602082015260400192915050565b6000614948601283615248565b71141bdbdb08185b1c9958591e48185919195960721b815260200192915050565b6000614976600a83615248565b691c994b595b9d195c995960b21b815260200192915050565b600061499c601483615248565b7324b73b30b634b2103932bbb0b932103a37b5b2b760611b815260200192915050565b60006149cc600e83615248565b6d37b7363c9030b236b4b71031b0b760911b815260200192915050565b60006149f6601583615248565b7418da185b99d9481b9bdd08185d5d1a1bdc9a5e9959605a1b815260200192915050565b6000614a27601383615248565b726e6f7468696e6720746f20776974686472617760681b815260200192915050565b6000614a56601a83615248565b7f496e76616c6964206e6577206c6f636b696e6720706572696f64000000000000815260200192915050565b6000614a8f601d83615248565b7f416c6c6f6320706f696e7473206d757374206e6f74206265207a65726f000000815260200192915050565b6000614ac8602083615248565b7f5361666542455032303a206c6f772d6c6576656c2063616c6c206661696c6564815260200192915050565b6000614b01603a83611031565b7f44656c65676174696f6e28616464726573732064656c6567617465652c75696e81527f74323536206e6f6e63652c75696e7432353620657870697279290000000000006020820152603a0192915050565b6000614b60601f83615248565b7f5361666542455032303a2063616c6c20746f206e6f6e2d636f6e747261637400815260200192915050565b6000614b99601b83615248565b7f72657175657374656420616d6f756e7420697320696e76616c69640000000000815260200192915050565b6000614bd2602283615248565b7f6f6e6c792070726f78792061646d696e2063616e206368616e676520627261698152616e7360f01b602082015260400192915050565b6000614c16602e83615248565b7f416c6c6f6320706f696e7473207065722072657761726420746f6b656e206d7581526d7374206e6f74206265207a65726f60901b602082015260400192915050565b80516060830190614c6a84826141f2565b506020820151614c7d6020850182614c8c565b506040820151612eb660408501825b6141818161526f565b61418181615287565b61418181615290565b614181816152b8565b61418181615296565b60006107cb828461420c565b6000614cd082614585565b9150614cdc82856141fb565b602082019150614cec82846141fb565b5060200192915050565b60006114ab82614854565b60006114ab82614af4565b602081016114ab8284614187565b602081016114ab8284614178565b60408101614d368285614178565b81810360208301526136f6818461424d565b60408101614d568285614187565b6107cb6020830184614187565b60608101614d718286614187565b614d7e6020830185614178565b6136f660408301846141f2565b60808101614d998287614187565b614da66020830186614187565b614db36040830185614187565b614dc06060830184614187565b95945050505050565b60608101614dd78286614187565b614d7e6020830185614187565b60808101614df28287614187565b614dff6020830186614187565b614e0c60408301856141f2565b614dc060608301846141f2565b60408101614e278285614187565b6107cb60208301846141e9565b60408101614e428285614187565b6107cb60208301846141f2565b602080825281016107cb8184614190565b602081016114ab82846141e9565b602081016114ab82846141f2565b60808101614df282876141f2565b60808101614e9882876141f2565b614ea560208301866141f2565b614db360408301856141f2565b60808101614ec082876141f2565b614dff6020830186614c9e565b602081016114ab828461423b565b60a08101614ee9828861423b565b614ef660208301876141f2565b614f0360408301866141f2565b614f1060608301856141f2565b614f1d60808301846141f2565b9695505050505050565b602080825281016107cb818461424d565b602080825281016114ab81614285565b602080825281016114ab816142be565b602080825281016114ab816142ec565b602080825281016114ab8161431b565b602080825281016114ab81614354565b602080825281016114ab8161438d565b602080825281016114ab816143b8565b602080825281016114ab816143e7565b602080825281016114ab8161440f565b602080825281016114ab81614461565b602080825281016114ab816144ad565b602080825281016114ab816144f9565b602080825281016114ab8161453d565b602080825281016114ab816145a3565b602080825281016114ab816145ec565b602080825281016114ab81614625565b602080825281016114ab8161466c565b602080825281016114ab816146b0565b602080825281016114ab816146e9565b602080825281016114ab81614718565b602080825281016114ab81614765565b602080825281016114ab8161479e565b602080825281016114ab816147d7565b602080825281016114ab81614810565b602080825281016114ab816148bf565b602080825281016114ab816148f8565b602080825281016114ab8161493b565b602080825281016114ab81614969565b602080825281016114ab8161498f565b602080825281016114ab816149bf565b602080825281016114ab816149e9565b602080825281016114ab81614a1a565b602080825281016114ab81614a49565b602080825281016114ab81614a82565b602080825281016114ab81614abb565b602080825281016114ab81614b53565b602080825281016114ab81614b8c565b602080825281016114ab81614bc5565b602080825281016114ab81614c09565b604081016151b682856141f2565b6107cb6020830184614244565b60408101614e4282856141f2565b606081016151df82866141f2565b614d7e60208301856141f2565b602081016114ab8284614c95565b604081016152088285614c95565b6107cb6020830184614cb0565b602081016114ab8284614cb0565b604081016152318285614ca7565b6107cb6020830184614ca7565b60200190565b5190565b90815260200190565b60006114ab8261527b565b151590565b90565b60006114ab82615251565b6001600160801b031690565b6001600160a01b031690565b63ffffffff1690565b60ff1690565b6001600160601b031690565b60006114ab82615264565b60006114ab82615261565b60006114ab82615296565b60005b838110156152de5781810151838201526020016152c6565b83811115612eb65750506000910152565b601f01601f191690565b61530281615251565b8114610eae57600080fd5b6153028161525c565b61530281615261565b61530281615264565b61530281615287565b61530281615290565b4390565b429056fe5856535661756c743a3a5f6d6f7665566f7465733a20766f746520616d6f756e74206f766572666c6f77735856535661756c743a3a726571756573745769746864726177616c3a20766f746573206f766572666c6f775856535661756c743a3a6765745374616b65416d6f756e743a20766f746573206f766572666c6f775856535661756c743a3a6465706f7369743a20766f746573206f766572666c6f775856535661756c743a3a5f7772697465436865636b706f696e743a20626c6f636b206e756d626572206f72207365636f6e64206578636565647320333220626974737365745769746864726177616c4c6f636b696e67506572696f6428616464726573732c75696e743235362c75696e74323536295856535661756c743a3a5f6d6f7665566f7465733a20766f746520616d6f756e7420756e646572666c6f7773736574526577617264416d6f756e74506572426c6f636b4f725365636f6e6428616464726573732c75696e743235362961646428616464726573732c75696e743235362c616464726573732c75696e743235362c75696e7432353629a365627a7a72315820dd927d64c0ef6abe9337081f9a842039c5f1bc09f516a9f4ea98b44a27ccb8866c6578706572696d656e74616cf564736f6c63430005100040",
  "devdoc": {
    "author": "Venus",
    "methods": {
      "add(address,uint256,address,uint256,uint256)": {
        "details": "This vault DOES NOT support deflationary tokens  it expects that  the amount of transferred tokens would equal the actually deposited  amount. In practice this means that this vault DOES NOT support USDT  and similar tokens (that do not provide these guarantees).",
        "params": {
          "_allocPoint": "Number of allocation points assigned to this pool",
          "_lockPeriod": "A period between withdrawal request and a moment when it's executable",
          "_rewardPerBlockOrSecond": "Initial reward per block or second, in terms of _rewardToken",
          "_rewardToken": "Reward token address",
          "_token": "Staked token"
        }
      },
      "claim(address,address,uint256)": {
        "params": {
          "_account": "The account for which to claim rewards",
          "_pid": "The Pool Index",
          "_rewardToken": "The Reward Token Address"
        }
      },
      "constructor": {
        "params": {
          "_blocksPerYear": "total blocks per year",
          "_timeBased": "A boolean indicating whether the contract is based on time or block."
        }
      },
      "delegate(address)": {
        "params": {
          "delegatee": "The address to delegate votes to"
        }
      },
      "delegateBySig(address,uint256,uint256,uint8,bytes32,bytes32)": {
        "params": {
          "delegatee": "The address to delegate votes to",
          "expiry": "The time at which to expire the signature",
          "nonce": "The contract state required to match the signature",
          "r": "Half of the ECDSA signature pair",
          "s": "Half of the ECDSA signature pair",
          "v": "The recovery byte of the signature"
        }
      },
      "deposit(address,uint256,uint256)": {
        "params": {
          "_amount": "The amount to deposit to vault",
          "_pid": "The Pool Index",
          "_rewardToken": "The Reward Token Address"
        }
      },
      "executeWithdrawal(address,uint256)": {
        "params": {
          "_pid": "The Pool Index",
          "_rewardToken": "The Reward Token Address"
        }
      },
      "getBlockNumberOrTimestamp()": {
        "details": "Function to simply retrieve block number or block timestamp",
        "return": "Current block number or block timestamp"
      },
      "getCurrentVotes(address)": {
        "params": {
          "account": "The address to get votes balance"
        },
        "return": "The number of current votes for `account`"
      },
      "getEligibleWithdrawalAmount(address,uint256,address)": {
        "params": {
          "_pid": "The Pool Index",
          "_rewardToken": "The Reward Token Address",
          "_user": "The User Address"
        },
        "return": "withdrawalAmount Amount that the user can withdraw"
      },
      "getPriorVotes(address,uint256)": {
        "params": {
          "account": "The address of the account to check",
          "blockNumberOrSecond": "The block number or second to get the vote balance at"
        },
        "return": "The balance that user staked"
      },
      "getRequestedAmount(address,uint256,address)": {
        "params": {
          "_pid": "The Pool Index",
          "_rewardToken": "The Reward Token Address",
          "_user": "The User Address"
        },
        "return": "Total amount of requested but not yet executed withdrawals (including both executable and locked ones)"
      },
      "getUserInfo(address,uint256,address)": {
        "params": {
          "_pid": "Pool index",
          "_rewardToken": "Reward token address",
          "_user": "User address"
        },
        "return": "amount Deposited amountrewardDebt Reward debt (technical value used to track past payouts)pendingWithdrawals Requested but not yet executed withdrawals"
      },
      "getWithdrawalRequests(address,uint256,address)": {
        "params": {
          "_pid": "The Pool Index",
          "_rewardToken": "The Reward Token Address",
          "_user": "The User Address"
        },
        "return": "An array of withdrawal requests"
      },
      "pendingReward(address,uint256,address)": {
        "params": {
          "_pid": "Pool index",
          "_rewardToken": "Reward token address",
          "_user": "User address"
        },
        "return": "Reward the user is eligible for in this pool, in terms of _rewardToken"
      },
      "pendingWithdrawalsBeforeUpgrade(address,uint256,address)": {
        "params": {
          "_pid": "The Pool Index",
          "_rewardToken": "The Reward Token Address",
          "_user": "The address of the user"
        },
        "return": "beforeUpgradeWithdrawalAmount Total pending withdrawal amount in requests made before the vault upgrade"
      },
      "poolLength(address)": {
        "params": {
          "rewardToken": "Reward token address"
        },
        "return": "Number of pools that distribute the specified token as a reward"
      },
      "requestWithdrawal(address,uint256,uint256)": {
        "params": {
          "_amount": "The amount to withdraw from the vault",
          "_pid": "The Pool Index",
          "_rewardToken": "The Reward Token Address"
        }
      },
      "rewardTokenAmountsPerBlock(address)": {
        "params": {
          "_rewardToken": "Reward token address"
        },
        "return": "Number of reward tokens created per block or second"
      },
      "set(address,uint256,uint256)": {
        "params": {
          "_allocPoint": "Number of allocation points assigned to this pool",
          "_pid": "Pool index",
          "_rewardToken": "Reward token address"
        }
      },
      "setAccessControl(address)": {
        "details": "Admin function to set the access control address",
        "params": {
          "newAccessControlAddress": "New address for the access control"
        }
      },
      "setPrimeToken(address,address,uint256)": {
        "params": {
          "_primePoolId": "pool id for reward",
          "_primeRewardToken": "address of reward token",
          "_primeToken": "address of the prime token contract"
        }
      },
      "setRewardAmountPerBlockOrSecond(address,uint256)": {
        "params": {
          "_rewardAmount": "Number of allocation points assigned to this pool",
          "_rewardToken": "Reward token address"
        }
      },
      "setWithdrawalLockingPeriod(address,uint256,uint256)": {
        "params": {
          "_newPeriod": "New lock period",
          "_pid": "Pool index",
          "_rewardToken": "Reward token address"
        }
      },
      "updatePool(address,uint256)": {
        "params": {
          "_pid": "Pool index",
          "_rewardToken": "Reward token address"
        }
      }
    },
    "title": "XVS Vault"
  },
  "userdoc": {
    "methods": {
      "_become(address)": {
        "notice": "* Admin Functions **"
      },
      "accessControlManager()": {
        "notice": "Returns the address of the access control manager contract"
      },
      "add(address,uint256,address,uint256,uint256)": {
        "notice": "Add a new token pool"
      },
      "claim(address,address,uint256)": {
        "notice": "Claim rewards for pool"
      },
      "constructor": "XVSVault constructor",
      "delegate(address)": {
        "notice": "Delegate votes from `msg.sender` to `delegatee`"
      },
      "delegateBySig(address,uint256,uint256,uint8,bytes32,bytes32)": {
        "notice": "Delegates votes from signatory to `delegatee`"
      },
      "deposit(address,uint256,uint256)": {
        "notice": "Deposit XVSVault for XVS allocation"
      },
      "executeWithdrawal(address,uint256)": {
        "notice": "Execute withdrawal to XVSVault for XVS allocation"
      },
      "getCurrentVotes(address)": {
        "notice": "Gets the current votes balance for `account`"
      },
      "getEligibleWithdrawalAmount(address,uint256,address)": {
        "notice": "Get unlocked withdrawal amount"
      },
      "getPriorVotes(address,uint256)": {
        "notice": "Determine the xvs stake balance for an account"
      },
      "getRequestedAmount(address,uint256,address)": {
        "notice": "Get requested amount"
      },
      "getUserInfo(address,uint256,address)": {
        "notice": "Get user info with reward token address and pid"
      },
      "getWithdrawalRequests(address,uint256,address)": {
        "notice": "Returns the array of withdrawal requests that have not been executed yet"
      },
      "pause()": {
        "notice": "Pauses vault"
      },
      "pendingReward(address,uint256,address)": {
        "notice": "View function to see pending XVSs on frontend"
      },
      "pendingWithdrawalsBeforeUpgrade(address,uint256,address)": {
        "notice": "Gets the total pending withdrawal amount of a user before upgrade"
      },
      "poolLength(address)": {
        "notice": "Returns the number of pools with the specified reward token"
      },
      "requestWithdrawal(address,uint256,uint256)": {
        "notice": "Request withdrawal to XVSVault for XVS allocation"
      },
      "resume()": {
        "notice": "Resume vault"
      },
      "rewardTokenAmountsPerBlock(address)": {
        "notice": "Returns the number of reward tokens created per block or second"
      },
      "set(address,uint256,uint256)": {
        "notice": "Update the given pool's reward allocation point"
      },
      "setAccessControl(address)": {
        "notice": "Sets the address of the access control of this contract"
      },
      "setPrimeToken(address,address,uint256)": {
        "notice": "Sets the address of the prime token contract"
      },
      "setRewardAmountPerBlockOrSecond(address,uint256)": {
        "notice": "Update the given reward token's amount per block or second"
      },
      "setWithdrawalLockingPeriod(address,uint256,uint256)": {
        "notice": "Update the lock period after which a requested withdrawal can be executed"
      },
      "updatePool(address,uint256)": {
        "notice": "Update reward variables of the given pool to be up-to-date"
      }
    },
    "notice": "The XVS Vault allows XVS holders to lock their XVS to recieve voting rights in Venus governance and are rewarded with XVS."
  },
  "storageLayout": {
    "storage": [
      {
        "astId": 34010,
        "contract": "contracts/XVSVault/XVSVault.sol:XVSVault",
        "label": "admin",
        "offset": 0,
        "slot": "0",
        "type": "t_address"
      },
      {
        "astId": 34012,
        "contract": "contracts/XVSVault/XVSVault.sol:XVSVault",
        "label": "pendingAdmin",
        "offset": 0,
        "slot": "1",
        "type": "t_address"
      },
      {
        "astId": 34014,
        "contract": "contracts/XVSVault/XVSVault.sol:XVSVault",
        "label": "implementation",
        "offset": 0,
        "slot": "2",
        "type": "t_address"
      },
      {
        "astId": 34016,
        "contract": "contracts/XVSVault/XVSVault.sol:XVSVault",
        "label": "pendingXVSVaultImplementation",
        "offset": 0,
        "slot": "3",
        "type": "t_address"
      },
      {
        "astId": 34021,
        "contract": "contracts/XVSVault/XVSVault.sol:XVSVault",
        "label": "_notEntered",
        "offset": 20,
        "slot": "3",
        "type": "t_bool"
      },
      {
        "astId": 34023,
        "contract": "contracts/XVSVault/XVSVault.sol:XVSVault",
        "label": "xvsStore",
        "offset": 0,
        "slot": "4",
        "type": "t_address"
      },
      {
        "astId": 34025,
        "contract": "contracts/XVSVault/XVSVault.sol:XVSVault",
        "label": "xvsAddress",
        "offset": 0,
        "slot": "5",
        "type": "t_address"
      },
      {
        "astId": 34029,
        "contract": "contracts/XVSVault/XVSVault.sol:XVSVault",
        "label": "rewardTokenAmountsPerBlockOrSecond",
        "offset": 0,
        "slot": "6",
        "type": "t_mapping(t_address,t_uint256)"
      },
      {
        "astId": 34062,
        "contract": "contracts/XVSVault/XVSVault.sol:XVSVault",
        "label": "userInfos",
        "offset": 0,
        "slot": "7",
        "type": "t_mapping(t_address,t_mapping(t_uint256,t_mapping(t_address,t_struct(UserInfo)34036_storage)))"
      },
      {
        "astId": 34067,
        "contract": "contracts/XVSVault/XVSVault.sol:XVSVault",
        "label": "poolInfos",
        "offset": 0,
        "slot": "8",
        "type": "t_mapping(t_address,t_array(t_struct(PoolInfo)34047_storage)dyn_storage)"
      },
      {
        "astId": 34071,
        "contract": "contracts/XVSVault/XVSVault.sol:XVSVault",
        "label": "totalAllocPoints",
        "offset": 0,
        "slot": "9",
        "type": "t_mapping(t_address,t_uint256)"
      },
      {
        "astId": 34080,
        "contract": "contracts/XVSVault/XVSVault.sol:XVSVault",
        "label": "withdrawalRequests",
        "offset": 0,
        "slot": "10",
        "type": "t_mapping(t_address,t_mapping(t_uint256,t_mapping(t_address,t_array(t_struct(WithdrawalRequest)34054_storage)dyn_storage)))"
      },
      {
        "astId": 34084,
        "contract": "contracts/XVSVault/XVSVault.sol:XVSVault",
        "label": "__oldDelegatesSlot",
        "offset": 0,
        "slot": "11",
        "type": "t_mapping(t_address,t_address)"
      },
      {
        "astId": 34095,
        "contract": "contracts/XVSVault/XVSVault.sol:XVSVault",
        "label": "__oldCheckpointsSlot",
        "offset": 0,
        "slot": "12",
        "type": "t_mapping(t_address,t_mapping(t_uint32,t_struct(Checkpoint)34089_storage))"
      },
      {
        "astId": 34099,
        "contract": "contracts/XVSVault/XVSVault.sol:XVSVault",
        "label": "__oldNumCheckpointsSlot",
        "offset": 0,
        "slot": "13",
        "type": "t_mapping(t_address,t_uint32)"
      },
      {
        "astId": 34103,
        "contract": "contracts/XVSVault/XVSVault.sol:XVSVault",
        "label": "nonces",
        "offset": 0,
        "slot": "14",
        "type": "t_mapping(t_address,t_uint256)"
      },
      {
        "astId": 34120,
        "contract": "contracts/XVSVault/XVSVault.sol:XVSVault",
        "label": "delegates",
        "offset": 0,
        "slot": "15",
        "type": "t_mapping(t_address,t_address)"
      },
      {
        "astId": 34126,
        "contract": "contracts/XVSVault/XVSVault.sol:XVSVault",
        "label": "checkpoints",
        "offset": 0,
        "slot": "16",
        "type": "t_mapping(t_address,t_mapping(t_uint32,t_struct(Checkpoint)34089_storage))"
      },
      {
        "astId": 34130,
        "contract": "contracts/XVSVault/XVSVault.sol:XVSVault",
        "label": "numCheckpoints",
        "offset": 0,
        "slot": "17",
        "type": "t_mapping(t_address,t_uint32)"
      },
      {
        "astId": 34136,
        "contract": "contracts/XVSVault/XVSVault.sol:XVSVault",
        "label": "totalPendingWithdrawals",
        "offset": 0,
        "slot": "18",
        "type": "t_mapping(t_address,t_mapping(t_uint256,t_uint256))"
      },
      {
        "astId": 34138,
        "contract": "contracts/XVSVault/XVSVault.sol:XVSVault",
        "label": "vaultPaused",
        "offset": 0,
        "slot": "19",
        "type": "t_bool"
      },
      {
        "astId": 34142,
        "contract": "contracts/XVSVault/XVSVault.sol:XVSVault",
        "label": "isStakedToken",
        "offset": 0,
        "slot": "20",
        "type": "t_mapping(t_address,t_bool)"
      },
      {
        "astId": 34148,
        "contract": "contracts/XVSVault/XVSVault.sol:XVSVault",
        "label": "pendingRewardTransfers",
        "offset": 0,
        "slot": "21",
        "type": "t_mapping(t_address,t_mapping(t_address,t_uint256))"
      },
      {
        "astId": 34150,
        "contract": "contracts/XVSVault/XVSVault.sol:XVSVault",
        "label": "primeToken",
        "offset": 0,
        "slot": "22",
        "type": "t_contract(IPrime)12105"
      },
      {
        "astId": 34152,
        "contract": "contracts/XVSVault/XVSVault.sol:XVSVault",
        "label": "primeRewardToken",
        "offset": 0,
        "slot": "23",
        "type": "t_address"
      },
      {
        "astId": 34154,
        "contract": "contracts/XVSVault/XVSVault.sol:XVSVault",
        "label": "primePoolId",
        "offset": 0,
        "slot": "24",
        "type": "t_uint256"
      },
      {
        "astId": 34158,
        "contract": "contracts/XVSVault/XVSVault.sol:XVSVault",
        "label": "__gap",
        "offset": 0,
        "slot": "25",
        "type": "t_array(t_uint256)46_storage"
      },
      {
        "astId": 4,
        "contract": "contracts/XVSVault/XVSVault.sol:XVSVault",
        "label": "_accessControlManager",
        "offset": 0,
        "slot": "71",
        "type": "t_contract(IAccessControlManagerV5)1933"
      },
      {
        "astId": 8,
        "contract": "contracts/XVSVault/XVSVault.sol:XVSVault",
        "label": "__gap",
        "offset": 0,
        "slot": "72",
        "type": "t_array(t_uint256)49_storage"
      },
      {
        "astId": 1940,
        "contract": "contracts/XVSVault/XVSVault.sol:XVSVault",
        "label": "blocksOrSecondsPerYear",
        "offset": 0,
        "slot": "121",
        "type": "t_uint256"
      },
      {
        "astId": 1942,
        "contract": "contracts/XVSVault/XVSVault.sol:XVSVault",
        "label": "isTimeBased",
        "offset": 0,
        "slot": "122",
        "type": "t_bool"
      },
      {
        "astId": 1946,
        "contract": "contracts/XVSVault/XVSVault.sol:XVSVault",
        "label": "__gap",
        "offset": 0,
        "slot": "123",
        "type": "t_array(t_uint256)47_storage"
      },
      {
        "astId": 1952,
        "contract": "contracts/XVSVault/XVSVault.sol:XVSVault",
        "label": "_getCurrentSlot",
        "offset": 0,
        "slot": "170",
        "type": "t_function_internal_view()returns(t_uint256)"
      }
    ],
    "types": {
      "t_address": {
        "encoding": "inplace",
        "label": "address",
        "numberOfBytes": "20"
      },
      "t_array(t_struct(PoolInfo)34047_storage)dyn_storage": {
        "base": "t_struct(PoolInfo)34047_storage",
        "encoding": "dynamic_array",
        "label": "struct XVSVaultStorageV1.PoolInfo[]",
        "numberOfBytes": "32"
      },
      "t_array(t_struct(WithdrawalRequest)34054_storage)dyn_storage": {
        "base": "t_struct(WithdrawalRequest)34054_storage",
        "encoding": "dynamic_array",
        "label": "struct XVSVaultStorageV1.WithdrawalRequest[]",
        "numberOfBytes": "32"
      },
      "t_array(t_uint256)46_storage": {
        "base": "t_uint256",
        "encoding": "inplace",
        "label": "uint256[46]",
        "numberOfBytes": "1472"
      },
      "t_array(t_uint256)47_storage": {
        "base": "t_uint256",
        "encoding": "inplace",
        "label": "uint256[47]",
        "numberOfBytes": "1504"
      },
      "t_array(t_uint256)49_storage": {
        "base": "t_uint256",
        "encoding": "inplace",
        "label": "uint256[49]",
        "numberOfBytes": "1568"
      },
      "t_bool": {
        "encoding": "inplace",
        "label": "bool",
        "numberOfBytes": "1"
      },
      "t_contract(IAccessControlManagerV5)1933": {
        "encoding": "inplace",
        "label": "contract IAccessControlManagerV5",
        "numberOfBytes": "20"
      },
      "t_contract(IBEP20)27308": {
        "encoding": "inplace",
        "label": "contract IBEP20",
        "numberOfBytes": "20"
      },
      "t_contract(IPrime)12105": {
        "encoding": "inplace",
        "label": "contract IPrime",
        "numberOfBytes": "20"
      },
      "t_function_internal_view()returns(t_uint256)": {
        "encoding": "inplace",
        "label": "function () view returns (uint256)",
        "numberOfBytes": "8"
      },
      "t_mapping(t_address,t_address)": {
        "encoding": "mapping",
        "key": "t_address",
        "label": "mapping(address => address)",
        "numberOfBytes": "32",
        "value": "t_address"
      },
      "t_mapping(t_address,t_array(t_struct(PoolInfo)34047_storage)dyn_storage)": {
        "encoding": "mapping",
        "key": "t_address",
        "label": "mapping(address => struct XVSVaultStorageV1.PoolInfo[])",
        "numberOfBytes": "32",
        "value": "t_array(t_struct(PoolInfo)34047_storage)dyn_storage"
      },
      "t_mapping(t_address,t_array(t_struct(WithdrawalRequest)34054_storage)dyn_storage)": {
        "encoding": "mapping",
        "key": "t_address",
        "label": "mapping(address => struct XVSVaultStorageV1.WithdrawalRequest[])",
        "numberOfBytes": "32",
        "value": "t_array(t_struct(WithdrawalRequest)34054_storage)dyn_storage"
      },
      "t_mapping(t_address,t_bool)": {
        "encoding": "mapping",
        "key": "t_address",
        "label": "mapping(address => bool)",
        "numberOfBytes": "32",
        "value": "t_bool"
      },
      "t_mapping(t_address,t_mapping(t_address,t_uint256))": {
        "encoding": "mapping",
        "key": "t_address",
        "label": "mapping(address => mapping(address => uint256))",
        "numberOfBytes": "32",
        "value": "t_mapping(t_address,t_uint256)"
      },
      "t_mapping(t_address,t_mapping(t_uint256,t_mapping(t_address,t_array(t_struct(WithdrawalRequest)34054_storage)dyn_storage)))": {
        "encoding": "mapping",
        "key": "t_address",
        "label": "mapping(address => mapping(uint256 => mapping(address => struct XVSVaultStorageV1.WithdrawalRequest[])))",
        "numberOfBytes": "32",
        "value": "t_mapping(t_uint256,t_mapping(t_address,t_array(t_struct(WithdrawalRequest)34054_storage)dyn_storage))"
      },
      "t_mapping(t_address,t_mapping(t_uint256,t_mapping(t_address,t_struct(UserInfo)34036_storage)))": {
        "encoding": "mapping",
        "key": "t_address",
        "label": "mapping(address => mapping(uint256 => mapping(address => struct XVSVaultStorageV1.UserInfo)))",
        "numberOfBytes": "32",
        "value": "t_mapping(t_uint256,t_mapping(t_address,t_struct(UserInfo)34036_storage))"
      },
      "t_mapping(t_address,t_mapping(t_uint256,t_uint256))": {
        "encoding": "mapping",
        "key": "t_address",
        "label": "mapping(address => mapping(uint256 => uint256))",
        "numberOfBytes": "32",
        "value": "t_mapping(t_uint256,t_uint256)"
      },
      "t_mapping(t_address,t_mapping(t_uint32,t_struct(Checkpoint)34089_storage))": {
        "encoding": "mapping",
        "key": "t_address",
        "label": "mapping(address => mapping(uint32 => struct XVSVaultStorageV1.Checkpoint))",
        "numberOfBytes": "32",
        "value": "t_mapping(t_uint32,t_struct(Checkpoint)34089_storage)"
      },
      "t_mapping(t_address,t_struct(UserInfo)34036_storage)": {
        "encoding": "mapping",
        "key": "t_address",
        "label": "mapping(address => struct XVSVaultStorageV1.UserInfo)",
        "numberOfBytes": "32",
        "value": "t_struct(UserInfo)34036_storage"
      },
      "t_mapping(t_address,t_uint256)": {
        "encoding": "mapping",
        "key": "t_address",
        "label": "mapping(address => uint256)",
        "numberOfBytes": "32",
        "value": "t_uint256"
      },
      "t_mapping(t_address,t_uint32)": {
        "encoding": "mapping",
        "key": "t_address",
        "label": "mapping(address => uint32)",
        "numberOfBytes": "32",
        "value": "t_uint32"
      },
      "t_mapping(t_uint256,t_mapping(t_address,t_array(t_struct(WithdrawalRequest)34054_storage)dyn_storage))": {
        "encoding": "mapping",
        "key": "t_uint256",
        "label": "mapping(uint256 => mapping(address => struct XVSVaultStorageV1.WithdrawalRequest[]))",
        "numberOfBytes": "32",
        "value": "t_mapping(t_address,t_array(t_struct(WithdrawalRequest)34054_storage)dyn_storage)"
      },
      "t_mapping(t_uint256,t_mapping(t_address,t_struct(UserInfo)34036_storage))": {
        "encoding": "mapping",
        "key": "t_uint256",
        "label": "mapping(uint256 => mapping(address => struct XVSVaultStorageV1.UserInfo))",
        "numberOfBytes": "32",
        "value": "t_mapping(t_address,t_struct(UserInfo)34036_storage)"
      },
      "t_mapping(t_uint256,t_uint256)": {
        "encoding": "mapping",
        "key": "t_uint256",
        "label": "mapping(uint256 => uint256)",
        "numberOfBytes": "32",
        "value": "t_uint256"
      },
      "t_mapping(t_uint32,t_struct(Checkpoint)34089_storage)": {
        "encoding": "mapping",
        "key": "t_uint32",
        "label": "mapping(uint32 => struct XVSVaultStorageV1.Checkpoint)",
        "numberOfBytes": "32",
        "value": "t_struct(Checkpoint)34089_storage"
      },
      "t_struct(Checkpoint)34089_storage": {
        "encoding": "inplace",
        "label": "struct XVSVaultStorageV1.Checkpoint",
        "members": [
          {
            "astId": 34086,
            "contract": "contracts/XVSVault/XVSVault.sol:XVSVault",
            "label": "fromBlockOrSecond",
            "offset": 0,
            "slot": "0",
            "type": "t_uint32"
          },
          {
            "astId": 34088,
            "contract": "contracts/XVSVault/XVSVault.sol:XVSVault",
            "label": "votes",
            "offset": 4,
            "slot": "0",
            "type": "t_uint96"
          }
        ],
        "numberOfBytes": "32"
      },
      "t_struct(PoolInfo)34047_storage": {
        "encoding": "inplace",
        "label": "struct XVSVaultStorageV1.PoolInfo",
        "members": [
          {
            "astId": 34038,
            "contract": "contracts/XVSVault/XVSVault.sol:XVSVault",
            "label": "token",
            "offset": 0,
            "slot": "0",
            "type": "t_contract(IBEP20)27308"
          },
          {
            "astId": 34040,
            "contract": "contracts/XVSVault/XVSVault.sol:XVSVault",
            "label": "allocPoint",
            "offset": 0,
            "slot": "1",
            "type": "t_uint256"
          },
          {
            "astId": 34042,
            "contract": "contracts/XVSVault/XVSVault.sol:XVSVault",
            "label": "lastRewardBlockOrSecond",
            "offset": 0,
            "slot": "2",
            "type": "t_uint256"
          },
          {
            "astId": 34044,
            "contract": "contracts/XVSVault/XVSVault.sol:XVSVault",
            "label": "accRewardPerShare",
            "offset": 0,
            "slot": "3",
            "type": "t_uint256"
          },
          {
            "astId": 34046,
            "contract": "contracts/XVSVault/XVSVault.sol:XVSVault",
            "label": "lockPeriod",
            "offset": 0,
            "slot": "4",
            "type": "t_uint256"
          }
        ],
        "numberOfBytes": "160"
      },
      "t_struct(UserInfo)34036_storage": {
        "encoding": "inplace",
        "label": "struct XVSVaultStorageV1.UserInfo",
        "members": [
          {
            "astId": 34031,
            "contract": "contracts/XVSVault/XVSVault.sol:XVSVault",
            "label": "amount",
            "offset": 0,
            "slot": "0",
            "type": "t_uint256"
          },
          {
            "astId": 34033,
            "contract": "contracts/XVSVault/XVSVault.sol:XVSVault",
            "label": "rewardDebt",
            "offset": 0,
            "slot": "1",
            "type": "t_uint256"
          },
          {
            "astId": 34035,
            "contract": "contracts/XVSVault/XVSVault.sol:XVSVault",
            "label": "pendingWithdrawals",
            "offset": 0,
            "slot": "2",
            "type": "t_uint256"
          }
        ],
        "numberOfBytes": "96"
      },
      "t_struct(WithdrawalRequest)34054_storage": {
        "encoding": "inplace",
        "label": "struct XVSVaultStorageV1.WithdrawalRequest",
        "members": [
          {
            "astId": 34049,
            "contract": "contracts/XVSVault/XVSVault.sol:XVSVault",
            "label": "amount",
            "offset": 0,
            "slot": "0",
            "type": "t_uint256"
          },
          {
            "astId": 34051,
            "contract": "contracts/XVSVault/XVSVault.sol:XVSVault",
            "label": "lockedUntil",
            "offset": 0,
            "slot": "1",
            "type": "t_uint128"
          },
          {
            "astId": 34053,
            "contract": "contracts/XVSVault/XVSVault.sol:XVSVault",
            "label": "afterUpgrade",
            "offset": 16,
            "slot": "1",
            "type": "t_uint128"
          }
        ],
        "numberOfBytes": "64"
      },
      "t_uint128": {
        "encoding": "inplace",
        "label": "uint128",
        "numberOfBytes": "16"
      },
      "t_uint256": {
        "encoding": "inplace",
        "label": "uint256",
        "numberOfBytes": "32"
      },
      "t_uint32": {
        "encoding": "inplace",
        "label": "uint32",
        "numberOfBytes": "4"
      },
      "t_uint96": {
        "encoding": "inplace",
        "label": "uint96",
        "numberOfBytes": "12"
      }
    }
  }
}