{
  "address": "0xcD99F57e3E6cbb6a5cAED2A2F52072f1aa31F170",
  "abi": [
    {
      "inputs": [],
      "payable": false,
      "stateMutability": "nonpayable",
      "type": "constructor"
    },
    {
      "anonymous": false,
      "inputs": [
        {
          "indexed": true,
          "internalType": "address",
          "name": "user",
          "type": "address"
        },
        {
          "indexed": true,
          "internalType": "address",
          "name": "rewardToken",
          "type": "address"
        },
        {
          "indexed": true,
          "internalType": "uint256",
          "name": "pid",
          "type": "uint256"
        },
        {
          "indexed": false,
          "internalType": "uint256",
          "name": "amount",
          "type": "uint256"
        }
      ],
      "name": "Claim",
      "type": "event"
    },
    {
      "anonymous": false,
      "inputs": [
        {
          "indexed": true,
          "internalType": "address",
          "name": "delegator",
          "type": "address"
        },
        {
          "indexed": true,
          "internalType": "address",
          "name": "fromDelegate",
          "type": "address"
        },
        {
          "indexed": true,
          "internalType": "address",
          "name": "toDelegate",
          "type": "address"
        }
      ],
      "name": "DelegateChangedV2",
      "type": "event"
    },
    {
      "anonymous": false,
      "inputs": [
        {
          "indexed": true,
          "internalType": "address",
          "name": "delegate",
          "type": "address"
        },
        {
          "indexed": false,
          "internalType": "uint256",
          "name": "previousBalance",
          "type": "uint256"
        },
        {
          "indexed": false,
          "internalType": "uint256",
          "name": "newBalance",
          "type": "uint256"
        }
      ],
      "name": "DelegateVotesChangedV2",
      "type": "event"
    },
    {
      "anonymous": false,
      "inputs": [
        {
          "indexed": true,
          "internalType": "address",
          "name": "user",
          "type": "address"
        },
        {
          "indexed": true,
          "internalType": "address",
          "name": "rewardToken",
          "type": "address"
        },
        {
          "indexed": true,
          "internalType": "uint256",
          "name": "pid",
          "type": "uint256"
        },
        {
          "indexed": false,
          "internalType": "uint256",
          "name": "amount",
          "type": "uint256"
        }
      ],
      "name": "Deposit",
      "type": "event"
    },
    {
      "anonymous": false,
      "inputs": [
        {
          "indexed": true,
          "internalType": "address",
          "name": "user",
          "type": "address"
        },
        {
          "indexed": true,
          "internalType": "address",
          "name": "rewardToken",
          "type": "address"
        },
        {
          "indexed": true,
          "internalType": "uint256",
          "name": "pid",
          "type": "uint256"
        },
        {
          "indexed": false,
          "internalType": "uint256",
          "name": "amount",
          "type": "uint256"
        }
      ],
      "name": "ExecutedWithdrawal",
      "type": "event"
    },
    {
      "anonymous": false,
      "inputs": [
        {
          "indexed": true,
          "internalType": "bool",
          "name": "timebased",
          "type": "bool"
        },
        {
          "indexed": true,
          "internalType": "uint256",
          "name": "blocksOrSecondsPerYear",
          "type": "uint256"
        }
      ],
      "name": "InitializeTimeManager",
      "type": "event"
    },
    {
      "anonymous": false,
      "inputs": [
        {
          "indexed": false,
          "internalType": "address",
          "name": "oldAccessControlManager",
          "type": "address"
        },
        {
          "indexed": false,
          "internalType": "address",
          "name": "newAccessControlManager",
          "type": "address"
        }
      ],
      "name": "NewAccessControlManager",
      "type": "event"
    },
    {
      "anonymous": false,
      "inputs": [
        {
          "indexed": true,
          "internalType": "contract IPrime",
          "name": "oldPrimeToken",
          "type": "address"
        },
        {
          "indexed": true,
          "internalType": "contract IPrime",
          "name": "newPrimeToken",
          "type": "address"
        },
        {
          "indexed": false,
          "internalType": "address",
          "name": "oldPrimeRewardToken",
          "type": "address"
        },
        {
          "indexed": false,
          "internalType": "address",
          "name": "newPrimeRewardToken",
          "type": "address"
        },
        {
          "indexed": false,
          "internalType": "uint256",
          "name": "oldPrimePoolId",
          "type": "uint256"
        },
        {
          "indexed": false,
          "internalType": "uint256",
          "name": "newPrimePoolId",
          "type": "uint256"
        }
      ],
      "name": "NewPrimeToken",
      "type": "event"
    },
    {
      "anonymous": false,
      "inputs": [
        {
          "indexed": true,
          "internalType": "address",
          "name": "rewardToken",
          "type": "address"
        },
        {
          "indexed": true,
          "internalType": "uint256",
          "name": "pid",
          "type": "uint256"
        },
        {
          "indexed": true,
          "internalType": "address",
          "name": "token",
          "type": "address"
        },
        {
          "indexed": false,
          "internalType": "uint256",
          "name": "allocPoints",
          "type": "uint256"
        },
        {
          "indexed": false,
          "internalType": "uint256",
          "name": "rewardPerBlockOrSecond",
          "type": "uint256"
        },
        {
          "indexed": false,
          "internalType": "uint256",
          "name": "lockPeriod",
          "type": "uint256"
        }
      ],
      "name": "PoolAdded",
      "type": "event"
    },
    {
      "anonymous": false,
      "inputs": [
        {
          "indexed": true,
          "internalType": "address",
          "name": "rewardToken",
          "type": "address"
        },
        {
          "indexed": true,
          "internalType": "uint256",
          "name": "pid",
          "type": "uint256"
        },
        {
          "indexed": false,
          "internalType": "uint256",
          "name": "oldAllocPoints",
          "type": "uint256"
        },
        {
          "indexed": false,
          "internalType": "uint256",
          "name": "newAllocPoints",
          "type": "uint256"
        }
      ],
      "name": "PoolUpdated",
      "type": "event"
    },
    {
      "anonymous": false,
      "inputs": [
        {
          "indexed": true,
          "internalType": "address",
          "name": "user",
          "type": "address"
        },
        {
          "indexed": true,
          "internalType": "address",
          "name": "rewardToken",
          "type": "address"
        },
        {
          "indexed": true,
          "internalType": "uint256",
          "name": "pid",
          "type": "uint256"
        },
        {
          "indexed": false,
          "internalType": "uint256",
          "name": "amount",
          "type": "uint256"
        }
      ],
      "name": "RequestedWithdrawal",
      "type": "event"
    },
    {
      "anonymous": false,
      "inputs": [
        {
          "indexed": true,
          "internalType": "address",
          "name": "rewardToken",
          "type": "address"
        },
        {
          "indexed": false,
          "internalType": "uint256",
          "name": "oldReward",
          "type": "uint256"
        },
        {
          "indexed": false,
          "internalType": "uint256",
          "name": "newReward",
          "type": "uint256"
        }
      ],
      "name": "RewardAmountUpdated",
      "type": "event"
    },
    {
      "anonymous": false,
      "inputs": [
        {
          "indexed": true,
          "internalType": "uint256",
          "name": "prevBlocksPeryear",
          "type": "uint256"
        },
        {
          "indexed": true,
          "internalType": "uint256",
          "name": "newBlocksPerYear",
          "type": "uint256"
        }
      ],
      "name": "SetBlocksPerYear",
      "type": "event"
    },
    {
      "anonymous": false,
      "inputs": [
        {
          "indexed": false,
          "internalType": "address",
          "name": "oldXvs",
          "type": "address"
        },
        {
          "indexed": false,
          "internalType": "address",
          "name": "oldStore",
          "type": "address"
        },
        {
          "indexed": false,
          "internalType": "address",
          "name": "newXvs",
          "type": "address"
        },
        {
          "indexed": false,
          "internalType": "address",
          "name": "newStore",
          "type": "address"
        }
      ],
      "name": "StoreUpdated",
      "type": "event"
    },
    {
      "anonymous": false,
      "inputs": [
        {
          "indexed": true,
          "internalType": "address",
          "name": "rewardToken",
          "type": "address"
        },
        {
          "indexed": true,
          "internalType": "address",
          "name": "userAddress",
          "type": "address"
        },
        {
          "indexed": false,
          "internalType": "uint256",
          "name": "oldOwedAmount",
          "type": "uint256"
        },
        {
          "indexed": false,
          "internalType": "uint256",
          "name": "newOwedAmount",
          "type": "uint256"
        }
      ],
      "name": "VaultDebtUpdated",
      "type": "event"
    },
    {
      "anonymous": false,
      "inputs": [
        {
          "indexed": true,
          "internalType": "address",
          "name": "admin",
          "type": "address"
        }
      ],
      "name": "VaultPaused",
      "type": "event"
    },
    {
      "anonymous": false,
      "inputs": [
        {
          "indexed": true,
          "internalType": "address",
          "name": "admin",
          "type": "address"
        }
      ],
      "name": "VaultResumed",
      "type": "event"
    },
    {
      "anonymous": false,
      "inputs": [
        {
          "indexed": true,
          "internalType": "address",
          "name": "rewardToken",
          "type": "address"
        },
        {
          "indexed": true,
          "internalType": "uint256",
          "name": "pid",
          "type": "uint256"
        },
        {
          "indexed": false,
          "internalType": "uint256",
          "name": "oldPeriod",
          "type": "uint256"
        },
        {
          "indexed": false,
          "internalType": "uint256",
          "name": "newPeriod",
          "type": "uint256"
        }
      ],
      "name": "WithdrawalLockingPeriodUpdated",
      "type": "event"
    },
    {
      "constant": true,
      "inputs": [],
      "name": "DELEGATION_TYPEHASH",
      "outputs": [
        {
          "internalType": "bytes32",
          "name": "",
          "type": "bytes32"
        }
      ],
      "payable": false,
      "stateMutability": "view",
      "type": "function"
    },
    {
      "constant": true,
      "inputs": [],
      "name": "DOMAIN_TYPEHASH",
      "outputs": [
        {
          "internalType": "bytes32",
          "name": "",
          "type": "bytes32"
        }
      ],
      "payable": false,
      "stateMutability": "view",
      "type": "function"
    },
    {
      "constant": true,
      "inputs": [],
      "name": "MAX_LOCK_PERIOD",
      "outputs": [
        {
          "internalType": "uint256",
          "name": "",
          "type": "uint256"
        }
      ],
      "payable": false,
      "stateMutability": "view",
      "type": "function"
    },
    {
      "constant": true,
      "inputs": [],
      "name": "SECONDS_PER_YEAR",
      "outputs": [
        {
          "internalType": "uint256",
          "name": "",
          "type": "uint256"
        }
      ],
      "payable": false,
      "stateMutability": "view",
      "type": "function"
    },
    {
      "constant": false,
      "inputs": [
        {
          "internalType": "contract XVSVaultProxy",
          "name": "xvsVaultProxy",
          "type": "address"
        }
      ],
      "name": "_become",
      "outputs": [],
      "payable": false,
      "stateMutability": "nonpayable",
      "type": "function"
    },
    {
      "constant": true,
      "inputs": [],
      "name": "accessControlManager",
      "outputs": [
        {
          "internalType": "contract IAccessControlManagerV5",
          "name": "",
          "type": "address"
        }
      ],
      "payable": false,
      "stateMutability": "view",
      "type": "function"
    },
    {
      "constant": false,
      "inputs": [
        {
          "internalType": "address",
          "name": "_rewardToken",
          "type": "address"
        },
        {
          "internalType": "uint256",
          "name": "_allocPoint",
          "type": "uint256"
        },
        {
          "internalType": "contract IBEP20",
          "name": "_token",
          "type": "address"
        },
        {
          "internalType": "uint256",
          "name": "_rewardPerBlockOrSecond",
          "type": "uint256"
        },
        {
          "internalType": "uint256",
          "name": "_lockPeriod",
          "type": "uint256"
        }
      ],
      "name": "add",
      "outputs": [],
      "payable": false,
      "stateMutability": "nonpayable",
      "type": "function"
    },
    {
      "constant": true,
      "inputs": [],
      "name": "admin",
      "outputs": [
        {
          "internalType": "address",
          "name": "",
          "type": "address"
        }
      ],
      "payable": false,
      "stateMutability": "view",
      "type": "function"
    },
    {
      "constant": true,
      "inputs": [],
      "name": "blocksOrSecondsPerYear",
      "outputs": [
        {
          "internalType": "uint256",
          "name": "",
          "type": "uint256"
        }
      ],
      "payable": false,
      "stateMutability": "view",
      "type": "function"
    },
    {
      "constant": true,
      "inputs": [
        {
          "internalType": "address",
          "name": "",
          "type": "address"
        },
        {
          "internalType": "uint32",
          "name": "",
          "type": "uint32"
        }
      ],
      "name": "checkpoints",
      "outputs": [
        {
          "internalType": "uint32",
          "name": "fromBlockOrSecond",
          "type": "uint32"
        },
        {
          "internalType": "uint96",
          "name": "votes",
          "type": "uint96"
        }
      ],
      "payable": false,
      "stateMutability": "view",
      "type": "function"
    },
    {
      "constant": false,
      "inputs": [
        {
          "internalType": "address",
          "name": "_account",
          "type": "address"
        },
        {
          "internalType": "address",
          "name": "_rewardToken",
          "type": "address"
        },
        {
          "internalType": "uint256",
          "name": "_pid",
          "type": "uint256"
        }
      ],
      "name": "claim",
      "outputs": [],
      "payable": false,
      "stateMutability": "nonpayable",
      "type": "function"
    },
    {
      "constant": false,
      "inputs": [
        {
          "internalType": "address",
          "name": "delegatee",
          "type": "address"
        }
      ],
      "name": "delegate",
      "outputs": [],
      "payable": false,
      "stateMutability": "nonpayable",
      "type": "function"
    },
    {
      "constant": false,
      "inputs": [
        {
          "internalType": "address",
          "name": "delegatee",
          "type": "address"
        },
        {
          "internalType": "uint256",
          "name": "nonce",
          "type": "uint256"
        },
        {
          "internalType": "uint256",
          "name": "expiry",
          "type": "uint256"
        },
        {
          "internalType": "uint8",
          "name": "v",
          "type": "uint8"
        },
        {
          "internalType": "bytes32",
          "name": "r",
          "type": "bytes32"
        },
        {
          "internalType": "bytes32",
          "name": "s",
          "type": "bytes32"
        }
      ],
      "name": "delegateBySig",
      "outputs": [],
      "payable": false,
      "stateMutability": "nonpayable",
      "type": "function"
    },
    {
      "constant": true,
      "inputs": [
        {
          "internalType": "address",
          "name": "",
          "type": "address"
        }
      ],
      "name": "delegates",
      "outputs": [
        {
          "internalType": "address",
          "name": "",
          "type": "address"
        }
      ],
      "payable": false,
      "stateMutability": "view",
      "type": "function"
    },
    {
      "constant": false,
      "inputs": [
        {
          "internalType": "address",
          "name": "_rewardToken",
          "type": "address"
        },
        {
          "internalType": "uint256",
          "name": "_pid",
          "type": "uint256"
        },
        {
          "internalType": "uint256",
          "name": "_amount",
          "type": "uint256"
        }
      ],
      "name": "deposit",
      "outputs": [],
      "payable": false,
      "stateMutability": "nonpayable",
      "type": "function"
    },
    {
      "constant": false,
      "inputs": [
        {
          "internalType": "address",
          "name": "_rewardToken",
          "type": "address"
        },
        {
          "internalType": "uint256",
          "name": "_pid",
          "type": "uint256"
        }
      ],
      "name": "executeWithdrawal",
      "outputs": [],
      "payable": false,
      "stateMutability": "nonpayable",
      "type": "function"
    },
    {
      "constant": true,
      "inputs": [],
      "name": "getBlockNumberOrTimestamp",
      "outputs": [
        {
          "internalType": "uint256",
          "name": "",
          "type": "uint256"
        }
      ],
      "payable": false,
      "stateMutability": "view",
      "type": "function"
    },
    {
      "constant": true,
      "inputs": [
        {
          "internalType": "address",
          "name": "account",
          "type": "address"
        }
      ],
      "name": "getCurrentVotes",
      "outputs": [
        {
          "internalType": "uint96",
          "name": "",
          "type": "uint96"
        }
      ],
      "payable": false,
      "stateMutability": "view",
      "type": "function"
    },
    {
      "constant": true,
      "inputs": [
        {
          "internalType": "address",
          "name": "_rewardToken",
          "type": "address"
        },
        {
          "internalType": "uint256",
          "name": "_pid",
          "type": "uint256"
        },
        {
          "internalType": "address",
          "name": "_user",
          "type": "address"
        }
      ],
      "name": "getEligibleWithdrawalAmount",
      "outputs": [
        {
          "internalType": "uint256",
          "name": "withdrawalAmount",
          "type": "uint256"
        }
      ],
      "payable": false,
      "stateMutability": "view",
      "type": "function"
    },
    {
      "constant": true,
      "inputs": [
        {
          "internalType": "address",
          "name": "account",
          "type": "address"
        },
        {
          "internalType": "uint256",
          "name": "blockNumberOrSecond",
          "type": "uint256"
        }
      ],
      "name": "getPriorVotes",
      "outputs": [
        {
          "internalType": "uint96",
          "name": "",
          "type": "uint96"
        }
      ],
      "payable": false,
      "stateMutability": "view",
      "type": "function"
    },
    {
      "constant": true,
      "inputs": [
        {
          "internalType": "address",
          "name": "_rewardToken",
          "type": "address"
        },
        {
          "internalType": "uint256",
          "name": "_pid",
          "type": "uint256"
        },
        {
          "internalType": "address",
          "name": "_user",
          "type": "address"
        }
      ],
      "name": "getRequestedAmount",
      "outputs": [
        {
          "internalType": "uint256",
          "name": "",
          "type": "uint256"
        }
      ],
      "payable": false,
      "stateMutability": "view",
      "type": "function"
    },
    {
      "constant": true,
      "inputs": [
        {
          "internalType": "address",
          "name": "_rewardToken",
          "type": "address"
        },
        {
          "internalType": "uint256",
          "name": "_pid",
          "type": "uint256"
        },
        {
          "internalType": "address",
          "name": "_user",
          "type": "address"
        }
      ],
      "name": "getUserInfo",
      "outputs": [
        {
          "internalType": "uint256",
          "name": "amount",
          "type": "uint256"
        },
        {
          "internalType": "uint256",
          "name": "rewardDebt",
          "type": "uint256"
        },
        {
          "internalType": "uint256",
          "name": "pendingWithdrawals",
          "type": "uint256"
        }
      ],
      "payable": false,
      "stateMutability": "view",
      "type": "function"
    },
    {
      "constant": true,
      "inputs": [
        {
          "internalType": "address",
          "name": "_rewardToken",
          "type": "address"
        },
        {
          "internalType": "uint256",
          "name": "_pid",
          "type": "uint256"
        },
        {
          "internalType": "address",
          "name": "_user",
          "type": "address"
        }
      ],
      "name": "getWithdrawalRequests",
      "outputs": [
        {
          "components": [
            {
              "internalType": "uint256",
              "name": "amount",
              "type": "uint256"
            },
            {
              "internalType": "uint128",
              "name": "lockedUntil",
              "type": "uint128"
            },
            {
              "internalType": "uint128",
              "name": "afterUpgrade",
              "type": "uint128"
            }
          ],
          "internalType": "struct XVSVaultStorageV1.WithdrawalRequest[]",
          "name": "",
          "type": "tuple[]"
        }
      ],
      "payable": false,
      "stateMutability": "view",
      "type": "function"
    },
    {
      "constant": true,
      "inputs": [],
      "name": "implementation",
      "outputs": [
        {
          "internalType": "address",
          "name": "",
          "type": "address"
        }
      ],
      "payable": false,
      "stateMutability": "view",
      "type": "function"
    },
    {
      "constant": false,
      "inputs": [
        {
          "internalType": "bool",
          "name": "timeBased_",
          "type": "bool"
        },
        {
          "internalType": "uint256",
          "name": "blocksPerYear_",
          "type": "uint256"
        }
      ],
      "name": "initializeTimeManager",
      "outputs": [],
      "payable": false,
      "stateMutability": "nonpayable",
      "type": "function"
    },
    {
      "constant": true,
      "inputs": [
        {
          "internalType": "address",
          "name": "",
          "type": "address"
        }
      ],
      "name": "isStakedToken",
      "outputs": [
        {
          "internalType": "bool",
          "name": "",
          "type": "bool"
        }
      ],
      "payable": false,
      "stateMutability": "view",
      "type": "function"
    },
    {
      "constant": true,
      "inputs": [],
      "name": "isTimeBased",
      "outputs": [
        {
          "internalType": "bool",
          "name": "",
          "type": "bool"
        }
      ],
      "payable": false,
      "stateMutability": "view",
      "type": "function"
    },
    {
      "constant": true,
      "inputs": [
        {
          "internalType": "address",
          "name": "",
          "type": "address"
        }
      ],
      "name": "nonces",
      "outputs": [
        {
          "internalType": "uint256",
          "name": "",
          "type": "uint256"
        }
      ],
      "payable": false,
      "stateMutability": "view",
      "type": "function"
    },
    {
      "constant": true,
      "inputs": [
        {
          "internalType": "address",
          "name": "",
          "type": "address"
        }
      ],
      "name": "numCheckpoints",
      "outputs": [
        {
          "internalType": "uint32",
          "name": "",
          "type": "uint32"
        }
      ],
      "payable": false,
      "stateMutability": "view",
      "type": "function"
    },
    {
      "constant": false,
      "inputs": [],
      "name": "pause",
      "outputs": [],
      "payable": false,
      "stateMutability": "nonpayable",
      "type": "function"
    },
    {
      "constant": true,
      "inputs": [],
      "name": "pendingAdmin",
      "outputs": [
        {
          "internalType": "address",
          "name": "",
          "type": "address"
        }
      ],
      "payable": false,
      "stateMutability": "view",
      "type": "function"
    },
    {
      "constant": true,
      "inputs": [
        {
          "internalType": "address",
          "name": "_rewardToken",
          "type": "address"
        },
        {
          "internalType": "uint256",
          "name": "_pid",
          "type": "uint256"
        },
        {
          "internalType": "address",
          "name": "_user",
          "type": "address"
        }
      ],
      "name": "pendingReward",
      "outputs": [
        {
          "internalType": "uint256",
          "name": "",
          "type": "uint256"
        }
      ],
      "payable": false,
      "stateMutability": "view",
      "type": "function"
    },
    {
      "constant": true,
      "inputs": [
        {
          "internalType": "address",
          "name": "",
          "type": "address"
        },
        {
          "internalType": "address",
          "name": "",
          "type": "address"
        }
      ],
      "name": "pendingRewardTransfers",
      "outputs": [
        {
          "internalType": "uint256",
          "name": "",
          "type": "uint256"
        }
      ],
      "payable": false,
      "stateMutability": "view",
      "type": "function"
    },
    {
      "constant": true,
      "inputs": [
        {
          "internalType": "address",
          "name": "_rewardToken",
          "type": "address"
        },
        {
          "internalType": "uint256",
          "name": "_pid",
          "type": "uint256"
        },
        {
          "internalType": "address",
          "name": "_user",
          "type": "address"
        }
      ],
      "name": "pendingWithdrawalsBeforeUpgrade",
      "outputs": [
        {
          "internalType": "uint256",
          "name": "beforeUpgradeWithdrawalAmount",
          "type": "uint256"
        }
      ],
      "payable": false,
      "stateMutability": "view",
      "type": "function"
    },
    {
      "constant": true,
      "inputs": [],
      "name": "pendingXVSVaultImplementation",
      "outputs": [
        {
          "internalType": "address",
          "name": "",
          "type": "address"
        }
      ],
      "payable": false,
      "stateMutability": "view",
      "type": "function"
    },
    {
      "constant": true,
      "inputs": [
        {
          "internalType": "address",
          "name": "",
          "type": "address"
        },
        {
          "internalType": "uint256",
          "name": "",
          "type": "uint256"
        }
      ],
      "name": "poolInfos",
      "outputs": [
        {
          "internalType": "contract IBEP20",
          "name": "token",
          "type": "address"
        },
        {
          "internalType": "uint256",
          "name": "allocPoint",
          "type": "uint256"
        },
        {
          "internalType": "uint256",
          "name": "lastRewardBlockOrSecond",
          "type": "uint256"
        },
        {
          "internalType": "uint256",
          "name": "accRewardPerShare",
          "type": "uint256"
        },
        {
          "internalType": "uint256",
          "name": "lockPeriod",
          "type": "uint256"
        }
      ],
      "payable": false,
      "stateMutability": "view",
      "type": "function"
    },
    {
      "constant": true,
      "inputs": [
        {
          "internalType": "address",
          "name": "rewardToken",
          "type": "address"
        }
      ],
      "name": "poolLength",
      "outputs": [
        {
          "internalType": "uint256",
          "name": "",
          "type": "uint256"
        }
      ],
      "payable": false,
      "stateMutability": "view",
      "type": "function"
    },
    {
      "constant": true,
      "inputs": [],
      "name": "primePoolId",
      "outputs": [
        {
          "internalType": "uint256",
          "name": "",
          "type": "uint256"
        }
      ],
      "payable": false,
      "stateMutability": "view",
      "type": "function"
    },
    {
      "constant": true,
      "inputs": [],
      "name": "primeRewardToken",
      "outputs": [
        {
          "internalType": "address",
          "name": "",
          "type": "address"
        }
      ],
      "payable": false,
      "stateMutability": "view",
      "type": "function"
    },
    {
      "constant": true,
      "inputs": [],
      "name": "primeToken",
      "outputs": [
        {
          "internalType": "contract IPrime",
          "name": "",
          "type": "address"
        }
      ],
      "payable": false,
      "stateMutability": "view",
      "type": "function"
    },
    {
      "constant": false,
      "inputs": [
        {
          "internalType": "address",
          "name": "_rewardToken",
          "type": "address"
        },
        {
          "internalType": "uint256",
          "name": "_pid",
          "type": "uint256"
        },
        {
          "internalType": "uint256",
          "name": "_amount",
          "type": "uint256"
        }
      ],
      "name": "requestWithdrawal",
      "outputs": [],
      "payable": false,
      "stateMutability": "nonpayable",
      "type": "function"
    },
    {
      "constant": false,
      "inputs": [],
      "name": "resume",
      "outputs": [],
      "payable": false,
      "stateMutability": "nonpayable",
      "type": "function"
    },
    {
      "constant": true,
      "inputs": [
        {
          "internalType": "address",
          "name": "_rewardToken",
          "type": "address"
        }
      ],
      "name": "rewardTokenAmountsPerBlock",
      "outputs": [
        {
          "internalType": "uint256",
          "name": "",
          "type": "uint256"
        }
      ],
      "payable": false,
      "stateMutability": "view",
      "type": "function"
    },
    {
      "constant": true,
      "inputs": [
        {
          "internalType": "address",
          "name": "",
          "type": "address"
        }
      ],
      "name": "rewardTokenAmountsPerBlockOrSecond",
      "outputs": [
        {
          "internalType": "uint256",
          "name": "",
          "type": "uint256"
        }
      ],
      "payable": false,
      "stateMutability": "view",
      "type": "function"
    },
    {
      "constant": false,
      "inputs": [
        {
          "internalType": "address",
          "name": "_rewardToken",
          "type": "address"
        },
        {
          "internalType": "uint256",
          "name": "_pid",
          "type": "uint256"
        },
        {
          "internalType": "uint256",
          "name": "_allocPoint",
          "type": "uint256"
        }
      ],
      "name": "set",
      "outputs": [],
      "payable": false,
      "stateMutability": "nonpayable",
      "type": "function"
    },
    {
      "constant": false,
      "inputs": [
        {
          "internalType": "address",
          "name": "newAccessControlAddress",
          "type": "address"
        }
      ],
      "name": "setAccessControl",
      "outputs": [],
      "payable": false,
      "stateMutability": "nonpayable",
      "type": "function"
    },
    {
      "constant": false,
      "inputs": [
        {
          "internalType": "uint256",
          "name": "blocksPerYear_",
          "type": "uint256"
        }
      ],
      "name": "setBlocksPerYear",
      "outputs": [],
      "payable": false,
      "stateMutability": "nonpayable",
      "type": "function"
    },
    {
      "constant": false,
      "inputs": [
        {
          "internalType": "contract IPrime",
          "name": "_primeToken",
          "type": "address"
        },
        {
          "internalType": "address",
          "name": "_primeRewardToken",
          "type": "address"
        },
        {
          "internalType": "uint256",
          "name": "_primePoolId",
          "type": "uint256"
        }
      ],
      "name": "setPrimeToken",
      "outputs": [],
      "payable": false,
      "stateMutability": "nonpayable",
      "type": "function"
    },
    {
      "constant": false,
      "inputs": [
        {
          "internalType": "address",
          "name": "_rewardToken",
          "type": "address"
        },
        {
          "internalType": "uint256",
          "name": "_rewardAmount",
          "type": "uint256"
        }
      ],
      "name": "setRewardAmountPerBlockOrSecond",
      "outputs": [],
      "payable": false,
      "stateMutability": "nonpayable",
      "type": "function"
    },
    {
      "constant": false,
      "inputs": [
        {
          "internalType": "address",
          "name": "_rewardToken",
          "type": "address"
        },
        {
          "internalType": "uint256",
          "name": "_pid",
          "type": "uint256"
        },
        {
          "internalType": "uint256",
          "name": "_newPeriod",
          "type": "uint256"
        }
      ],
      "name": "setWithdrawalLockingPeriod",
      "outputs": [],
      "payable": false,
      "stateMutability": "nonpayable",
      "type": "function"
    },
    {
      "constant": false,
      "inputs": [
        {
          "internalType": "address",
          "name": "_xvs",
          "type": "address"
        },
        {
          "internalType": "address",
          "name": "_xvsStore",
          "type": "address"
        }
      ],
      "name": "setXvsStore",
      "outputs": [],
      "payable": false,
      "stateMutability": "nonpayable",
      "type": "function"
    },
    {
      "constant": true,
      "inputs": [
        {
          "internalType": "address",
          "name": "",
          "type": "address"
        }
      ],
      "name": "totalAllocPoints",
      "outputs": [
        {
          "internalType": "uint256",
          "name": "",
          "type": "uint256"
        }
      ],
      "payable": false,
      "stateMutability": "view",
      "type": "function"
    },
    {
      "constant": true,
      "inputs": [
        {
          "internalType": "address",
          "name": "",
          "type": "address"
        },
        {
          "internalType": "uint256",
          "name": "",
          "type": "uint256"
        }
      ],
      "name": "totalPendingWithdrawals",
      "outputs": [
        {
          "internalType": "uint256",
          "name": "",
          "type": "uint256"
        }
      ],
      "payable": false,
      "stateMutability": "view",
      "type": "function"
    },
    {
      "constant": false,
      "inputs": [
        {
          "internalType": "address",
          "name": "_rewardToken",
          "type": "address"
        },
        {
          "internalType": "uint256",
          "name": "_pid",
          "type": "uint256"
        }
      ],
      "name": "updatePool",
      "outputs": [],
      "payable": false,
      "stateMutability": "nonpayable",
      "type": "function"
    },
    {
      "constant": true,
      "inputs": [],
      "name": "vaultPaused",
      "outputs": [
        {
          "internalType": "bool",
          "name": "",
          "type": "bool"
        }
      ],
      "payable": false,
      "stateMutability": "view",
      "type": "function"
    },
    {
      "constant": true,
      "inputs": [],
      "name": "xvsAddress",
      "outputs": [
        {
          "internalType": "address",
          "name": "",
          "type": "address"
        }
      ],
      "payable": false,
      "stateMutability": "view",
      "type": "function"
    },
    {
      "constant": true,
      "inputs": [],
      "name": "xvsStore",
      "outputs": [
        {
          "internalType": "address",
          "name": "",
          "type": "address"
        }
      ],
      "payable": false,
      "stateMutability": "view",
      "type": "function"
    }
  ],
  "transactionHash": "0x637e2892736ef3673a11fe59156f620108d6f0a1aafdcd35987811d11764041b",
  "args": [],
  "numDeployments": 1,
  "solcInputHash": "3b9bfb23f80b6d19bfc72fc49a1d876a",
  "bytecode": "0x608060405234801561001057600080fd5b50600080546001600160a01b0319163317905561593d80620000336000396000f3fe608060405234801561001057600080fd5b50600436106103835760003560e01c806392e35000116101de578063c7ad08951161010f578063e6a69ab8116100ad578063f55401621161007c578063f554016214610750578063f851a44014610758578063fba1b1f914610760578063fe5a451a1461077357610383565b8063e6a69ab814610717578063e7a324dc1461071f578063e8f2be6f14610727578063f1127ed81461072f57610383565b8063dae66bbe116100e9578063dae66bbe146106e1578063de0368b2146106f4578063e1d146fb146106fc578063e5fa2b701461070457610383565b8063c7ad0895146106b3578063cd9b94e7146106bb578063d7ae45e2146106ce57610383565b8063add893371161017c578063b6a5fd2f11610156578063b6a5fd2f1461065a578063c21025961461066d578063c3c754a81461068d578063c3cda520146106a057610383565b8063add893371461062a578063b4a0bdf314610632578063b4b5ea571461064757610383565b80639e2b6c4d116101b85780639e2b6c4d146105de578063a09eab7a146105f1578063a699776214610604578063a9d69a691461061757610383565b806392e350001461058557806398e1b31b146105a9578063996cba68146105cb57610383565b80635c19a95c116102b857806373d025d6116102565780637ecebe00116102305780637ecebe00146105445780638308d7e9146105575780638456cb591461056a5780638ed7333d1461057257610383565b806373d025d6146104fc578063782d6fe1146105115780637ac924561461053157610383565b80635ff56315116102925780635ff56315146104ae5780636857249c146104c15780636dd77cbd146104c95780636fcfff45146104dc57610383565b80635c19a95c146104805780635c60da1b146104935780635f14e7001461049b57610383565b806324f52bbf11610325578063358ae036116102ff578063358ae0361461043f5780633d4180f9146104475780634298bdbd1461045a578063587cde1e1461046d57610383565b806324f52bbf1461040f57806326782247146104245780632eda5c6c1461042c57610383565b8063115b512f11610361578063115b512f146103ce57806319129e5a146103e15780631d504dc6146103f457806320606b701461040757610383565b8063046f7da2146103885780630af13728146103925780630efe6a8b146103bb575b600080fd5b61039061077b565b005b6103a56103a03660046141b5565b610806565b6040516103b29190615242565b60405180910390f35b6103906103c936600461426d565b61084c565b6103906103dc36600461426d565b610b41565b6103906103ef3660046140c2565b610ef5565b6103906104023660046143b4565b610f2b565b6103a561105c565b610417611073565b6040516103b291906150e0565b610417611082565b6103a561043a3660046140c2565b611091565b6104176110b0565b6103a56104553660046140fe565b6110bf565b6103a56104683660046140c2565b6110dc565b61041761047b3660046140c2565b6110ee565b61039061048e3660046140c2565b611109565b610417611136565b6103a56104a9366004614185565b611145565b6103906104bc3660046140fe565b611162565b6103a5611256565b6103a56104d73660046141b5565b61125c565b6104ef6104ea3660046140c2565b611311565b6040516103b29190615610565b610504611329565b6040516103b29190615234565b61052461051f366004614185565b611332565b6040516103b29190615639565b61039061053f366004614185565b611548565b6103a56105523660046140c2565b611891565b61039061056536600461426d565b6118a3565b610390611a49565b610390610580366004614185565b611ace565b610598610593366004614185565b611b09565b6040516103b29594939291906152af565b6105bc6105b73660046141b5565b611b5e565b6040516103b2939291906155f5565b6103906105d9366004614138565b611bb0565b6103906105ec36600461426d565b611d42565b6103a56105ff3660046141b5565b611e2d565b610390610612366004614374565b61207d565b6103a56106253660046141b5565b6120b1565b6104176120f3565b61063a612102565b6040516103b291906152a1565b6105246106553660046140c2565b612111565b610390610668366004614185565b612181565b61068061067b3660046141b5565b6122a7565b6040516103b29190615223565b61050461069b3660046140c2565b612361565b6103906106ae36600461429f565b612376565b61050461251a565b6103a56106c93660046140c2565b612523565b6103a56106dc3660046140c2565b612535565b6103906106ef366004614393565b612550565b61041761265c565b6103a561266b565b6103906107123660046143d2565b612692565b6103a56126c5565b6103a56126cd565b6103a56126d9565b61074261073d366004614326565b6126df565b6040516103b292919061561e565b6103a5612714565b61041761271c565b61039061076e3660046141f8565b61272b565b61063a612a10565b6107a460405180604001604052806008815260200167726573756d65282960c01b815250612a1f565b60135460ff166107cf5760405162461bcd60e51b81526004016107c69061536c565b60405180910390fd5b6013805460ff1916905560405133907fd2619572a1464e0df0bb351d834fd47f3350984d7bfdb1ab69cfcb0b8e42141590600090a2565b60006108128484612ac1565b506001600160a01b0380841660009081526007602090815260408083208684528252808320938516835292905220600201545b9392505050565b600354600160a01b900460ff166108755760405162461bcd60e51b81526004016107c6906154ec565b6003805460ff60a01b1916905560135460ff16156108a55760405162461bcd60e51b81526004016107c69061535c565b6108af8383612ac1565b6001600160a01b03831660009081526008602052604081208054849081106108d357fe5b600091825260208083206001600160a01b038816845260078252604080852088865283528085203386529092529220600590910290910191506109168585612af8565b6109218585336120b1565b1561093e5760405162461bcd60e51b81526004016107c69061548c565b8054156109b35760006109518284612cd5565b905080156109b157610964863383612ce9565b84866001600160a01b0316336001600160a01b03167f865ca08d59f5cb456e85cd2f7ef63664ea4f73327414e9d8152c4158b0e94645846040516109a89190615242565b60405180910390a45b505b81546109d0906001600160a01b031633308663ffffffff612f6216565b80546109e2908463ffffffff612fc316565b81556109ee8183613005565b600182015560055482546001600160a01b0390811691161415610a5557336000908152600f60209081526040808320548151606081019092526021808352610a5594936001600160a01b0390921692610a50928992906157dd90830139613033565b613062565b6017546001600160a01b038681169116148015610a73575060185484145b15610adb576016546040516337f23cd360e01b81526001600160a01b03909116906337f23cd390610aa89033906004016150ee565b600060405180830381600087803b158015610ac257600080fd5b505af1158015610ad6573d6000803e3d6000fd5b505050505b83856001600160a01b0316336001600160a01b03167fdcbc1c05240f31ff3ad067ef1ee35ce4997762752e3a095284754544f4c709d786604051610b1f9190615242565b60405180910390a450506003805460ff60a01b1916600160a01b179055505050565b600354600160a01b900460ff16610b6a5760405162461bcd60e51b81526004016107c6906154ec565b6003805460ff60a01b1916905560135460ff1615610b9a5760405162461bcd60e51b81526004016107c69061535c565b610ba48383612ac1565b60008111610bc45760405162461bcd60e51b81526004016107c6906154ac565b6001600160a01b0383166000908152600760209081526040808320858452825280832033845290915290206002810154610c04908363ffffffff612fc316565b81541015610c245760405162461bcd60e51b81526004016107c69061558c565b6001600160a01b0384166000908152600860205260408120805485908110610c4857fe5b600091825260208083206001600160a01b0389168452600a825260408085208986528352808520338652909252908320600590920201925090610c8a826131f4565b5090508015610cab5760405162461bcd60e51b81526004016107c69061548c565b610cb58787612af8565b6000610cc18585612cd5565b9050610cce883383612ce9565b6004840154600090610ce6904263ffffffff612fc316565b9050610cf486858984613298565b6001600160a01b03891660009081526012602090815260408083208b8452909152902054610d28908863ffffffff612fc316565b6001600160a01b038a1660009081526012602090815260408083208c8452909152902055610d568686613005565b600187015560055485546001600160a01b0390811691161415610db957336000908152600f6020908152604080832054815160608101909252602b808352610db9946001600160a01b03909216939192610a50928d929061578a90830139613033565b6017546001600160a01b038a81169116148015610dd7575060185488145b15610e3f576016546040516337f23cd360e01b81526001600160a01b03909116906337f23cd390610e0c9033906004016150ee565b600060405180830381600087803b158015610e2657600080fd5b505af1158015610e3a573d6000803e3d6000fd5b505050505b87896001600160a01b0316336001600160a01b03167f865ca08d59f5cb456e85cd2f7ef63664ea4f73327414e9d8152c4158b0e9464585604051610e839190615242565b60405180910390a487896001600160a01b0316336001600160a01b03167f88a254a0ef28a0b9e957ff600beae69870f6f924065147f3627c3f814e60ec118a604051610ecf9190615242565b60405180910390a450506003805460ff60a01b1916600160a01b17905550505050505050565b6000546001600160a01b03163314610f1f5760405162461bcd60e51b81526004016107c69061550c565b610f288161347c565b50565b806001600160a01b031663f851a4406040518163ffffffff1660e01b815260040160206040518083038186803b158015610f6457600080fd5b505afa158015610f78573d6000803e3d6000fd5b505050506040513d601f19601f82011682018060405250610f9c91908101906140e0565b6001600160a01b0316336001600160a01b031614610fcc5760405162461bcd60e51b81526004016107c6906155ac565b806001600160a01b031663c1e803346040518163ffffffff1660e01b8152600401602060405180830381600087803b15801561100757600080fd5b505af115801561101b573d6000803e3d6000fd5b505050506040513d601f19601f8201168201806040525061103f91908101906143f0565b15610f285760405162461bcd60e51b81526004016107c69061551c565b604051611068906150ca565b604051809103902081565b6004546001600160a01b031681565b6001546001600160a01b031681565b6001600160a01b0381166000908152600660205260409020545b919050565b6005546001600160a01b031681565b601560209081526000928352604080842090915290825290205481565b60096020526000908152604090205481565b600f602052600090815260409020546001600160a01b031681565b60135460ff161561112c5760405162461bcd60e51b81526004016107c69061535c565b610f283382613501565b6002546001600160a01b031681565b601260209081526000928352604080842090915290825290205481565b6000546001600160a01b0316331461118c5760405162461bcd60e51b81526004016107c69061550c565b61119582613590565b61119e81613590565b6005546004546001600160a01b03918216911681156111cf5760405162461bcd60e51b81526004016107c69061544c565b600580546001600160a01b038087166001600160a01b03199283161790925560048054928616929091169190911790556003805460ff60a01b1916600160a01b1790556040517f559f314bb90394a4a9ceb724f365b36a53587d894352c43d12901fd6801014569061124890849084908890889061515f565b60405180910390a150505050565b60795481565b60006112688484612ac1565b6001600160a01b038085166000908152600a60209081526040808320878452825280832093861683529290522080545b6000811180156112c857506112c88260018303815481106112b557fe5b90600052602060002090600202016135b6565b15611308576112fd8260018303815481106112df57fe5b6000918252602090912060029091020154849063ffffffff612fc316565b925060001901611298565b50509392505050565b60116020526000908152604090205463ffffffff1681565b60135460ff1681565b600061133c61266b565b821061135a5760405162461bcd60e51b81526004016107c69061545c565b6001600160a01b03831660009081526011602052604090205463ffffffff1680611388576000915050611542565b6001600160a01b038416600090815260106020908152604080832063ffffffff600019860181168552925290912054168310611404576001600160a01b03841660009081526010602090815260408083206000199490940163ffffffff1683529290522054600160201b90046001600160601b03169050611542565b6001600160a01b038416600090815260106020908152604080832083805290915290205463ffffffff1683101561143f576000915050611542565b600060001982015b8163ffffffff168163ffffffff16111561150257600282820363ffffffff16048103611471614048565b506001600160a01b038716600090815260106020908152604080832063ffffffff858116855290835292819020815180830190925254928316808252600160201b9093046001600160601b031691810191909152908714156114dd576020015194506115429350505050565b805163ffffffff168711156114f4578193506114fb565b6001820392505b5050611447565b506001600160a01b038516600090815260106020908152604080832063ffffffff909416835292905220546001600160601b03600160201b909104169150505b92915050565b600354600160a01b900460ff166115715760405162461bcd60e51b81526004016107c6906154ec565b6003805460ff60a01b1916905560135460ff16156115a15760405162461bcd60e51b81526004016107c69061535c565b6115ab8282612ac1565b6001600160a01b03821660009081526008602052604081208054839081106115cf57fe5b600091825260208083206001600160a01b038716808552600783526040808620888752845280862033808852908552818720928752600a855281872089885285528187209087529093529184206005909302019350918061163084846135cb565b9092509050811515806116435750600081115b61165f5760405162461bcd60e51b81526004016107c69061552c565b81158061166a575080155b6116865760405162461bcd60e51b81526004016107c69061531c565b811561179f576116968787612af8565b60006116dc85600101546116d064e8d4a510006116c48a600301548a600001546136c290919063ffffffff16565b9063ffffffff6136fc16565b9063ffffffff61373e16565b6004805460405163135b33cd60e31b81529293506001600160a01b031691639ad99e6891611710918c913391879101615137565b600060405180830381600087803b15801561172a57600080fd5b505af115801561173e573d6000803e3d6000fd5b50508654611755925090508463ffffffff61373e16565b80865560038701546117789164e8d4a51000916116c4919063ffffffff6136c216565b60018601558554611799906001600160a01b0316338563ffffffff61378016565b50611823565b83546117b1908263ffffffff61373e16565b84556001600160a01b03871660009081526012602090815260408083208984529091529020546117e7908263ffffffff61373e16565b6001600160a01b0380891660009081526012602090815260408083208b845290915290209190915585546118239116338363ffffffff61378016565b856001600160a01b038816337fe31da05fae6db869f5ea51f4b638aa6884070b6c87f18f63bd2291a12cb2f518611860868663ffffffff612fc316565b60405161186d9190615242565b60405180910390a450506003805460ff60a01b1916600160a01b1790555050505050565b600e6020526000908152604090205481565b6118e16040518060400160405280601c81526020017f73657428616464726573732c75696e743235362c75696e743235362900000000815250612a1f565b6118eb8383612ac1565b6118f4836137a2565b6001600160a01b0383166000908152600860205260408120805490919061196d9084906119619085908890811061192757fe5b60009182526020808320600160059093020191909101546001600160a01b038b16835260099091526040909120549063ffffffff61373e16565b9063ffffffff612fc316565b90506000811161198f5760405162461bcd60e51b81526004016107c6906155bc565b600082858154811061199d57fe5b9060005260206000209060050201600101549050838386815481106119be57fe5b9060005260206000209060050201600101819055508160096000886001600160a01b03166001600160a01b031681526020019081526020016000208190555084866001600160a01b03167f6ee09c6cb801194690c195c69f465aaf7c80255cbeafaab9600f47ed79de2ca98387604051611a399291906155e7565b60405180910390a3505050505050565b611a71604051806040016040528060078152602001667061757365282960c81b815250612a1f565b60135460ff1615611a945760405162461bcd60e51b81526004016107c6906153fc565b6013805460ff1916600117905560405133907fdffada2889ebfab9224c24069d833f3de835d8cf99872d49e7b7ba5fccb7a46f90600090a2565b60135460ff1615611af15760405162461bcd60e51b81526004016107c69061535c565b611afb8282612ac1565b611b058282612af8565b5050565b60086020528160005260406000208181548110611b2257fe5b6000918252602090912060059091020180546001820154600283015460038401546004909401546001600160a01b039093169550909350919085565b6000806000611b6d8686612ac1565b5050506001600160a01b03928316600090815260076020908152604080832094835293815283822092909416815292529020805460018201546002909201549092565b600354600160a01b900460ff16611bd95760405162461bcd60e51b81526004016107c6906154ec565b6003805460ff60a01b1916905560135460ff1615611c095760405162461bcd60e51b81526004016107c69061535c565b611c138282612ac1565b6001600160a01b0382166000908152600860205260408120805483908110611c3757fe5b600091825260208083206001600160a01b0380881685526007835260408086208887528452808620918a1686529252922060059091029091019150611c7c8484612af8565b611c878484876120b1565b15611ca45760405162461bcd60e51b81526004016107c69061548c565b805415611d28576000611cb78284612cd5565b90508015611d2657611cc98284613005565b6001830155611cd9858783612ce9565b83856001600160a01b0316876001600160a01b03167f865ca08d59f5cb456e85cd2f7ef63664ea4f73327414e9d8152c4158b0e9464584604051611d1d9190615242565b60405180910390a45b505b50506003805460ff60a01b1916600160a01b179055505050565b611d6360405180606001604052806033815260200161584060339139612a1f565b611d6d8383612ac1565b600081118015611d8057506312cc030081105b611d9c5760405162461bcd60e51b81526004016107c69061553c565b6001600160a01b0383166000908152600860205260408120805484908110611dc057fe5b9060005260206000209060050201905060008160040154905082826004018190555083856001600160a01b03167f0bcf80c5060ccf99b7a993c57a94b232fc2c5c04bd74c7c7d174595fee6bc31f8386604051611e1e9291906155e7565b60405180910390a35050505050565b6000611e398484612ac1565b6001600160a01b0384166000908152600860205260408120805485908110611e5d57fe5b600091825260208083206001600160a01b03808a168086526007845260408087208b885285528087208a8416885285528087206003600590970290940195860154918752601285528087208b885290945283862054855494516370a0823160e01b8152959750929590949093611f34939216906370a0823190611ee49030906004016150e0565b60206040518083038186803b158015611efc57600080fd5b505afa158015611f10573d6000803e3d6000fd5b505050506040513d601f19601f820116820180604052506116d091908101906143f0565b90506000611f4061266b565b6001600160a01b038a1660009081526006602052604090205460028701549192509082118015611f6f57508215155b15612005576000611f8d87600201548461373e90919063ffffffff16565b6001600160a01b038c1660009081526009602052604081205460018a01549293509091611fd591906116c490611fc9868863ffffffff6136c216565b9063ffffffff6136c216565b9050612000611ff3866116c48464e8d4a5100063ffffffff6136c216565b879063ffffffff612fc316565b955050505b6001600160a01b03808b166000908152600a602090815260408083208d84528252808320938c1683529290529081209061203e826131f4565b91505061206d87600101546116d064e8d4a510006116c48a611fc9878e6000015461373e90919063ffffffff16565b9c9b505050505050505050505050565b6000546001600160a01b031633146120a75760405162461bcd60e51b81526004016107c69061550c565b611b0582826137d7565b6001600160a01b038084166000908152600a60209081526040808320868452825280832093851683529290529081206120e9816131f4565b5095945050505050565b6017546001600160a01b031681565b6047546001600160a01b031690565b6001600160a01b03811660009081526011602052604081205463ffffffff168061213c576000610845565b6001600160a01b0383166000908152601060209081526040808320600019850163ffffffff168452909152902054600160201b90046001600160601b03169392505050565b6121a260405180606001604052806030815260200161589f60309139612a1f565b60048054604051633d6ac5b360e21b81526001600160a01b039091169163f5ab16cc916121d1918691016150e0565b60206040518083038186803b1580156121e957600080fd5b505afa1580156121fd573d6000803e3d6000fd5b505050506040513d601f19601f820116820180604052506122219190810190614356565b61223d5760405162461bcd60e51b81526004016107c6906154fc565b612246826137a2565b6001600160a01b0382166000818152600660205260409081902080549084905590519091907fad96cee0d692f0250b98e085504f399da6733854908215f6203fe3c69366d9f59061229a90849086906155e7565b60405180910390a2505050565b60606122b38484612ac1565b6001600160a01b038085166000908152600a602090815260408083208784528252808320938616835292815282822080548451818402810184019095528085529092909184015b828210156123545760008481526020908190206040805160608101825260028602909201805483526001908101546001600160801b0380821685870152600160801b909104169183019190915290835290920191016122fa565b5050505090509392505050565b60146020526000908152604090205460ff1681565b60135460ff16156123995760405162461bcd60e51b81526004016107c69061535c565b60006040516123a7906150ca565b604080519182900382208282019091526008825267161594d5985d5b1d60c21b6020909201919091527fddfcc46608a8bd52ebf900f03a24cc97b73a6046cec8c5d0f74a211e376e967a6123f96138b8565b3060405160200161240d949392919061525e565b6040516020818303038152906040528051906020012090506000604051612433906150d5565b60405190819003812061244e918a908a908a90602001615250565b6040516020818303038152906040528051906020012090506000828260405160200161247b929190615099565b60405160208183030381529060405280519060200120905060006124a1828888886138bc565b6001600160a01b0381166000908152600e6020526040902080546001810190915590915089146124e35760405162461bcd60e51b81526004016107c6906153cc565b874211156125035760405162461bcd60e51b81526004016107c6906153ac565b61250d818b613501565b505050505b505050505050565b607a5460ff1681565b60066020526000908152604090205481565b6001600160a01b031660009081526008602052604090205490565b6000546001600160a01b0316331461257a5760405162461bcd60e51b81526004016107c69061550c565b6001600160a01b0383166125a05760405162461bcd60e51b81526004016107c6906153bc565b6001600160a01b0382166125c65760405162461bcd60e51b81526004016107c69061546c565b6125d08282612ac1565b6016546017546018546040516001600160a01b03808816948116937f8def9436d6e31b89ed00948ba91d0cb6936eada5154cb1b45b55683fb9e492379361261f939190921691889188906151b8565b60405180910390a3601680546001600160a01b039485166001600160a01b0319918216179091556017805493909416921691909117909155601855565b6003546001600160a01b031681565b607a5460009060ff16612685576126806138e6565b61268d565b61268d6138ea565b905090565b6000546001600160a01b031633146126bc5760405162461bcd60e51b81526004016107c69061550c565b610f28816138ee565b6301e1338081565b604051611068906150d5565b60185481565b601060209081526000928352604080842090915290825290205463ffffffff811690600160201b90046001600160601b031682565b6312cc030081565b6000546001600160a01b031681565b61274c6040518060600160405280602c81526020016158cf602c9139612a1f565b61275585613590565b61275e83613590565b6004546001600160a01b03166127865760405162461bcd60e51b81526004016107c69061533c565b600084116127a65760405162461bcd60e51b81526004016107c69061554c565b6127af856137a2565b6001600160a01b0385166000908152600860205260408120805490915b8181101561282a57856001600160a01b03168382815481106127ea57fe5b60009182526020909120600590910201546001600160a01b031614156128225760405162461bcd60e51b81526004016107c6906154cc565b6001016127cc565b506001600160a01b03851660009081526014602052604090205460ff16156128645760405162461bcd60e51b81526004016107c69061543c565b6001600160a01b03871660009081526009602052604090205461288d908763ffffffff612fc316565b6001600160a01b038089166000908152600960209081526040808320949094556006815290839020879055825160a08101845291881682528101889052839181016128d661266b565b8152600060208083018290526040928301889052845460018082018755958352818320855160059092020180546001600160a01b0319166001600160a01b039283161781558583015181880155858501516002820155606086015160038201556080909501516004958601558a81168352601490915290829020805460ff1916851790558254915163fb66fb4d60e01b815291169263fb66fb4d9261297e928c9291016151ed565b600060405180830381600087803b15801561299857600080fd5b505af11580156129ac573d6000803e3d6000fd5b50505050846001600160a01b03166001838054905003886001600160a01b03167fd7fa4bff1cd2253c0789c3291a786a6f6b1a3b4569a75af683a15d52abb6a0bf8988886040516129ff939291906155f5565b60405180910390a450505050505050565b6016546001600160a01b031681565b6047546040516318c5e8ab60e01b81526000916001600160a01b0316906318c5e8ab90612a5290339086906004016150fc565b60206040518083038186803b158015612a6a57600080fd5b505afa158015612a7e573d6000803e3d6000fd5b505050506040513d601f19601f82011682018060405250612aa29190810190614356565b905080611b055760405162461bcd60e51b81526004016107c69061537c565b6001600160a01b0382166000908152600860205260409020548110611b055760405162461bcd60e51b81526004016107c69061532c565b6001600160a01b0382166000908152600860205260408120805483908110612b1c57fe5b906000526020600020906005020190508060020154612b3961266b565b11612b445750611b05565b80546040516370a0823160e01b81526000916001600160a01b0316906370a0823190612b749030906004016150e0565b60206040518083038186803b158015612b8c57600080fd5b505afa158015612ba0573d6000803e3d6000fd5b505050506040513d601f19601f82011682018060405250612bc491908101906143f0565b6001600160a01b0385166000908152601260209081526040808320878452909152902054909150612bfc90829063ffffffff61373e16565b905080612c1a57612c0b61266b565b82600201819055505050611b05565b6000612c2461266b565b90506000612c3f84600201548361373e90919063ffffffff16565b6001600160a01b03871660009081526009602090815260408083205460018901546006909352908320549394509192612c8892916116c491611fc990879063ffffffff6136c216565b9050612cb7612ca6856116c48464e8d4a5100063ffffffff6136c216565b60038701549063ffffffff612fc316565b6003860155612cc461266b565b856002018190555050505050505050565b600061084583600101546116d08585613005565b600480546040516370a0823160e01b81526001600160a01b03918216926000928716916370a0823191612d1e918691016150e0565b60206040518083038186803b158015612d3657600080fd5b505afa158015612d4a573d6000803e3d6000fd5b505050506040513d601f19601f82011682018060405250612d6e91908101906143f0565b6001600160a01b038087166000908152601560209081526040808320938916835292905290812054919250612da9858363ffffffff612fc316565b9050828111612e87578115612e1c576001600160a01b038088166000818152601560209081526040808320948b1680845294909152808220829055517f6bdfd5e51d01475945224d3d37965916fd8df699ef9e8888af4359aa8622216091612e13918791906155cc565b60405180910390a35b60405163135b33cd60e31b81526001600160a01b03851690639ad99e6890612e4c908a908a90869060040161519d565b600060405180830381600087803b158015612e6657600080fd5b505af1158015612e7a573d6000803e3d6000fd5b5050505050505050612f5d565b6001600160a01b038088166000818152601560209081526040808320948b168084529490915290819020868503908190559051909291907f6bdfd5e51d01475945224d3d37965916fd8df699ef9e8888af4359aa8622216090612eed90879086906155e7565b60405180910390a360405163135b33cd60e31b81526001600160a01b03861690639ad99e6890612f25908b908b90899060040161519d565b600060405180830381600087803b158015612f3f57600080fd5b505af1158015612f53573d6000803e3d6000fd5b5050505050505050505b505050565b604051612fbd9085906323b872dd60e01b90612f869087908790879060240161519d565b60408051601f198184030181529190526020810180516001600160e01b03166001600160e01b031990931692909217909152613962565b50505050565b600061084583836040518060400160405280601b81526020017f536166654d6174683a206164646974696f6e206f766572666c6f770000000000815250613a47565b600061084564e8d4a510006116c48460030154611fc98760020154886000015461373e90919063ffffffff16565b600081600160601b841061305a5760405162461bcd60e51b81526004016107c691906152fb565b509192915050565b816001600160a01b0316836001600160a01b03161415801561308d57506000816001600160601b0316115b15612f5d576001600160a01b03831615613145576001600160a01b03831660009081526011602052604081205463ffffffff1690816130cd57600061310c565b6001600160a01b0385166000908152601060209081526040808320600019860163ffffffff168452909152902054600160201b90046001600160601b03165b9050600061313382856040518060600160405280602c8152602001615873602c9139613a77565b905061314186848484613ab6565b5050505b6001600160a01b03821615612f5d576001600160a01b03821660009081526011602052604081205463ffffffff1690816131805760006131bf565b6001600160a01b0384166000908152601060209081526040808320600019860163ffffffff168452909152902054600160201b90046001600160601b03165b905060006131e682856040518060600160405280602b815260200161575f602b9139613c72565b905061251285848484613ab6565b805460009081905b80156132925783600182038154811061321157fe5b6000918252602090912060016002909202018101546001600160801b03600160801b9091041614156132745761326d84600183038154811061324f57fe5b6000918252602090912060029091020154839063ffffffff612fc316565b9150613289565b6132868460018303815481106112df57fe5b92505b600019016131fc565b50915091565b8254604080516060810182526000808252602080830182815260019484018581528587018a5589845291909220925160028602909301928355905191909201805492516001600160801b03908116600160801b029281166001600160801b0319909416939093179092161790555b60008111801561334157508184600183038154811061332157fe5b60009182526020909120600160029092020101546001600160801b031611155b156133c85783600182038154811061335557fe5b906000526020600020906002020184828154811061336f57fe5b600091825260209091208254600290920201908155600191820180549290910180546001600160801b0319166001600160801b03938416178082559154600160801b908190048416029190921617905560001901613306565b60405180606001604052808481526020016133e284613ca5565b6001600160801b0316815260200160016001600160801b031681525084828154811061340a57fe5b60009182526020918290208351600292830290910190815591830151600190920180546040909401516001600160801b03199094166001600160801b03938416178316600160801b939094169290920292909217905585015461346d9084612fc3565b85600201819055505050505050565b6001600160a01b0381166134a25760405162461bcd60e51b81526004016107c69061540c565b604780546001600160a01b038381166001600160a01b03198316179092556040519116907f66fd58e82f7b31a2a5c30e0888f3093efe4e111b00cd2b0c31fe014601293aa0906134f5908390859061511c565b60405180910390a15050565b6001600160a01b038083166000908152600f60205260408120549091169061352884613cce565b6001600160a01b038581166000818152600f602052604080822080546001600160a01b031916898616908117909155905194955093928616927f0cc323ffec3ea49cbcddc0de1480978126d350c6a45dff33ad2f1cda6ae992619190a4612fbd828483613062565b6001600160a01b038116610f285760405162461bcd60e51b81526004016107c69061547c565b60010154426001600160801b03909116111590565b805460009081905b6000811180156135f057506135f08460018303815481106112b557fe5b156136915783600182038154811061360457fe5b6000918252602090912060016002909202018101546001600160801b03600160801b9091041614156136495761364284600183038154811061324f57fe5b915061365e565b61365b8460018303815481106112df57fe5b92505b8380548061366857fe5b6000828152602081206000199283016002810290910182815560010191909155909155016135d3565b506136b66136a5828463ffffffff612fc316565b60028601549063ffffffff61373e16565b60028501559250929050565b6000826136d157506000611542565b828202828482816136de57fe5b04146108455760405162461bcd60e51b81526004016107c6906154bc565b600061084583836040518060400160405280601a81526020017f536166654d6174683a206469766973696f6e206279207a65726f000000000000815250613de4565b600061084583836040518060400160405280601e81526020017f536166654d6174683a207375627472616374696f6e206f766572666c6f770000815250613e1b565b604051612f5d90849063a9059cbb60e01b90612f869086908690602401615208565b6001600160a01b038116600090815260086020526040812054905b81811015612f5d576137cf8382612af8565b6001016137bd565b607a54610100900460ff16156137ff5760405162461bcd60e51b81526004016107c69061555c565b8115801561380b575080155b156138285760405162461bcd60e51b81526004016107c6906154dc565b81801561383457508015155b156138515760405162461bcd60e51b81526004016107c6906153ec565b607a805461010061ff00199091161760ff191683151517905581613875578061387b565b6301e133805b6079819055607a5460405160ff9091161515907f934cf29f9679e41858121018ea3d3756f7ba98f09e5b93bdc4e188f32c0a72b890600090a35050565b4690565b60008060006138cd87878787613e3f565b915091506138da81613f1f565b5090505b949350505050565b4390565b4290565b8061390b5760405162461bcd60e51b81526004016107c69061559c565b607a5460ff161561392e5760405162461bcd60e51b81526004016107c69061542c565b6079546040518291907fabcc41e4a6d75e5cafe0a021b2461af7640ae31b3482ffce6512edceb1434a8390600090a3607955565b613974826001600160a01b0316613fe8565b6139905760405162461bcd60e51b81526004016107c69061557c565b60006060836001600160a01b0316836040516139ac919061508d565b6000604051808303816000865af19150503d80600081146139e9576040519150601f19603f3d011682016040523d82523d6000602084013e6139ee565b606091505b509150915081613a105760405162461bcd60e51b81526004016107c69061556c565b805115612fbd5780806020019051613a2b9190810190614356565b612fbd5760405162461bcd60e51b81526004016107c69061539c565b60008383018285821015613a6e5760405162461bcd60e51b81526004016107c691906152fb565b50949350505050565b6000836001600160601b0316836001600160601b031611158290613aae5760405162461bcd60e51b81526004016107c691906152fb565b505050900390565b6000613ae1613ac361266b565b6040518060800160405280604281526020016157fe60429139614021565b905060008463ffffffff16118015613b2a57506001600160a01b038516600090815260106020908152604080832063ffffffff6000198901811685529252909120548282169116145b15613b89576001600160a01b0385166000908152601060209081526040808320600019880163ffffffff168452909152902080546fffffffffffffffffffffffff000000001916600160201b6001600160601b03851602179055613c28565b60408051808201825263ffffffff80841682526001600160601b0380861660208085019182526001600160a01b038b166000818152601083528781208c871682528352878120965187549451909516600160201b026fffffffffffffffffffffffff000000001995871663ffffffff19958616179590951694909417909555938252601190935292909220805460018801909316929091169190911790555b846001600160a01b03167f6adb589fed1e8542fb7a6b10f00a85e02265e77f9ae3ca8ff93b22983e1af9a08484604051613c63929190615647565b60405180910390a25050505050565b6000838301826001600160601b038087169083161015613a6e5760405162461bcd60e51b81526004016107c691906152fb565b6000600160801b8210613cca5760405162461bcd60e51b81526004016107c6906153dc565b5090565b6005546000906001600160a01b0316613cf95760405162461bcd60e51b81526004016107c69061538c565b6005546001600160a01b03166000908152600860205260408120805490915b81811015613dd95760055483546001600160a01b0390911690849083908110613d3d57fe5b60009182526020909120600590910201546001600160a01b03161415613dd1576005546001600160a01b039081166000908152600760209081526040808320858452825280832093891683529290522060028101548154613dc691613da8919063ffffffff61373e16565b6040518060600160405280602881526020016157b560289139613033565b9450505050506110ab565b600101613d18565b506000949350505050565b60008183613e055760405162461bcd60e51b81526004016107c691906152fb565b506000838581613e1157fe5b0495945050505050565b60008184841115613aae5760405162461bcd60e51b81526004016107c691906152fb565b6000807f7fffffffffffffffffffffffffffffff5d576e7357a4501ddfe92f46681b20a0831115613e765750600090506003613f16565b8460ff16601b14158015613e8e57508460ff16601c14155b15613e9f5750600090506004613f16565b600060018787878760405160008152602001604052604051613ec49493929190615286565b6020604051602081039080840390855afa158015613ee6573d6000803e3d6000fd5b5050604051601f1901519150506001600160a01b038116613f0f57506000915060019050613f16565b9150600090505b94509492505050565b6000816004811115613f2d57fe5b1415613f3857610f28565b6001816004811115613f4657fe5b1415613f645760405162461bcd60e51b81526004016107c69061530c565b6002816004811115613f7257fe5b1415613f905760405162461bcd60e51b81526004016107c69061534c565b6003816004811115613f9e57fe5b1415613fbc5760405162461bcd60e51b81526004016107c69061541c565b6004816004811115613fca57fe5b1415610f285760405162461bcd60e51b81526004016107c69061549c565b6000813f7fc5d2460186f7233c927e7db2dcc703c0e500b653ca82273b7bfad8045d85a4708181148015906138de575050151592915050565b600081600160201b841061305a5760405162461bcd60e51b81526004016107c691906152fb565b604080518082019091526000808252602082015290565b80356115428161571d565b80516115428161571d565b803561154281615731565b805161154281615731565b80356115428161573a565b803561154281615743565b80516115428161573a565b80356115428161574c565b803561154281615755565b6000602082840312156140d457600080fd5b60006138de848461405f565b6000602082840312156140f257600080fd5b60006138de848461406a565b6000806040838503121561411157600080fd5b600061411d858561405f565b925050602061412e8582860161405f565b9150509250929050565b60008060006060848603121561414d57600080fd5b6000614159868661405f565b935050602061416a8682870161405f565b925050604061417b8682870161408b565b9150509250925092565b6000806040838503121561419857600080fd5b60006141a4858561405f565b925050602061412e8582860161408b565b6000806000606084860312156141ca57600080fd5b60006141d6868661405f565b93505060206141e78682870161408b565b925050604061417b8682870161405f565b600080600080600060a0868803121561421057600080fd5b600061421c888861405f565b955050602061422d8882890161408b565b945050604061423e88828901614096565b935050606061424f8882890161408b565b92505060806142608882890161408b565b9150509295509295909350565b60008060006060848603121561428257600080fd5b600061428e868661405f565b935050602061416a8682870161408b565b60008060008060008060c087890312156142b857600080fd5b60006142c4898961405f565b96505060206142d589828a0161408b565b95505060406142e689828a0161408b565b94505060606142f789828a016140b7565b935050608061430889828a0161408b565b92505060a061431989828a0161408b565b9150509295509295509295565b6000806040838503121561433957600080fd5b6000614345858561405f565b925050602061412e858286016140ac565b60006020828403121561436857600080fd5b60006138de8484614080565b6000806040838503121561438757600080fd5b60006141a48585614075565b6000806000606084860312156143a857600080fd5b60006141598686614096565b6000602082840312156143c657600080fd5b60006138de8484614096565b6000602082840312156143e457600080fd5b60006138de848461408b565b60006020828403121561440257600080fd5b60006138de84846140a1565b600061441a838361502d565b505060600190565b61442b816156c6565b82525050565b61442b81615675565b600061444582615668565b61444f818561566c565b935061445a83615662565b8060005b83811015614488578151614472888261440e565b975061447d83615662565b92505060010161445e565b509495945050505050565b61442b81615680565b61442b81615685565b61442b6144b182615685565b615685565b60006144c182615668565b6144cb81856110ab565b93506144db8185602086016156e7565b9290920192915050565b61442b81615688565b61442b816156d1565b600061450282615668565b61450c818561566c565b935061451c8185602086016156e7565b61452581615713565b9093019392505050565b600061453c60188361566c565b7f45434453413a20696e76616c6964207369676e61747572650000000000000000815260200192915050565b600061457560128361566c565b71696e636f6e73697374656e7420737461746560701b815260200192915050565b60006145a360138361566c565b727661756c743a20706f6f6c206578697374733f60681b815260200192915050565b60006145d2601f8361566c565b7f53746f726520636f6e7472616374206164647265737320697320656d70747900815260200192915050565b600061460b601f8361566c565b7f45434453413a20696e76616c6964207369676e6174757265206c656e67746800815260200192915050565b6000614644600f8361566c565b6e15985d5b1d081a5cc81c185d5cd959608a1b815260200192915050565b600061466f60138361566c565b7215985d5b1d081a5cc81b9bdd081c185d5cd959606a1b815260200192915050565b600061469e600c8361566c565b6b155b985d5d1a1bdc9a5e995960a21b815260200192915050565b60006146c660308361566c565b7f5856535661756c743a3a6765745374616b65416d6f756e743a2078767320616481526f191c995cdcc81a5cc81b9bdd081cd95d60821b602082015260400192915050565b6000614718602a8361566c565b7f5361666542455032303a204245503230206f7065726174696f6e20646964206e8152691bdd081cdd58d8d9595960b21b602082015260400192915050565b6000614764602a8361566c565b7f5856535661756c743a3a64656c656761746542795369673a207369676e6174758152691c9948195e1c1a5c995960b21b602082015260400192915050565b60006147b060228361566c565b7f7072696d6520746f6b656e2063616e6e6f74206265207a65726f206164647265815261737360f01b602082015260400192915050565b60006147f460268361566c565b7f5856535661756c743a3a64656c656761746542795369673a20696e76616c6964815265206e6f6e636560d01b602082015260400192915050565b600061483c6002836110ab565b61190160f01b815260020192915050565b600061485a60278361566c565b7f53616665436173743a2076616c756520646f65736e27742066697420696e20318152663238206269747360c81b602082015260400192915050565b60006148a360208361566c565b7f496e76616c69642074696d6520626173656420636f6e66696775726174696f6e815260200192915050565b60006148dc60178361566c565b7f5661756c7420697320616c726561647920706175736564000000000000000000815260200192915050565b600061491560258361566c565b7f696e76616c696420616365737320636f6e74726f6c206d616e61676572206164815264647265737360d81b602082015260400192915050565b600061495c60228361566c565b7f45434453413a20696e76616c6964207369676e6174757265202773272076616c815261756560f01b602082015260400192915050565b60006149a060248361566c565b7f43616e6e6f742075706461746520666f722074696d65206261736564206e6574815263776f726b60e01b602082015260400192915050565b60006149e6601a8361566c565b7f546f6b656e2065786973747320696e206f7468657220706f6f6c000000000000815260200192915050565b6000614a1f60138361566c565b72185b1c9958591e481a5b9a5d1a585b1a5e9959606a1b815260200192915050565b6000614a4e602b8361566c565b7f5856535661756c743a3a6765745072696f72566f7465733a206e6f742079657481526a0819195d195c9b5a5b995960aa1b602082015260400192915050565b6000614a9b601d8361566c565b7f7265776172642063616e6e6f74206265207a65726f2061646472657373000000815260200192915050565b6000614ad460188361566c565b7f7a65726f2061646472657373206e6f7420616c6c6f7765640000000000000000815260200192915050565b6000614b0d601a8361566c565b7f657865637574652070656e64696e67207769746864726177616c000000000000815260200192915050565b6000614b4660228361566c565b7f45434453413a20696e76616c6964207369676e6174757265202776272076616c815261756560f01b602082015260400192915050565b6000614b8a6043836110ab565b7f454950373132446f6d61696e28737472696e67206e616d652c75696e7432353681527f20636861696e49642c6164647265737320766572696679696e67436f6e74726160208201526263742960e81b604082015260430192915050565b6000614bf5601f8361566c565b7f72657175657374656420616d6f756e742063616e6e6f74206265207a65726f00815260200192915050565b6000614c2e60218361566c565b7f536166654d6174683a206d756c7469706c69636174696f6e206f766572666c6f8152607760f81b602082015260400192915050565b6000614c7160128361566c565b71141bdbdb08185b1c9958591e48185919195960721b815260200192915050565b6000614c9f60178361566c565b7f496e76616c696420626c6f636b73207065722079656172000000000000000000815260200192915050565b6000614cd8600a8361566c565b691c994b595b9d195c995960b21b815260200192915050565b6000614cfe60148361566c565b7324b73b30b634b2103932bbb0b932103a37b5b2b760611b815260200192915050565b6000614d2e600e8361566c565b6d37b7363c9030b236b4b71031b0b760911b815260200192915050565b6000614d5860158361566c565b7418da185b99d9481b9bdd08185d5d1a1bdc9a5e9959605a1b815260200192915050565b6000614d8960138361566c565b726e6f7468696e6720746f20776974686472617760681b815260200192915050565b6000614db8601a8361566c565b7f496e76616c6964206e6577206c6f636b696e6720706572696f64000000000000815260200192915050565b6000614df1601d8361566c565b7f416c6c6f6320706f696e7473206d757374206e6f74206265207a65726f000000815260200192915050565b6000614e2a601f8361566c565b7f416c726561647920696e697469616c697a65642054696d654d616e6167657200815260200192915050565b6000614e6360208361566c565b7f5361666542455032303a206c6f772d6c6576656c2063616c6c206661696c6564815260200192915050565b6000614e9c603a836110ab565b7f44656c65676174696f6e28616464726573732064656c6567617465652c75696e81527f74323536206e6f6e63652c75696e7432353620657870697279290000000000006020820152603a0192915050565b6000614efb601f8361566c565b7f5361666542455032303a2063616c6c20746f206e6f6e2d636f6e747261637400815260200192915050565b6000614f34601b8361566c565b7f72657175657374656420616d6f756e7420697320696e76616c69640000000000815260200192915050565b6000614f6d601e8361566c565b7f426c6f636b732070657220796561722063616e6e6f74206265207a65726f0000815260200192915050565b6000614fa660228361566c565b7f6f6e6c792070726f78792061646d696e2063616e206368616e676520627261698152616e7360f01b602082015260400192915050565b6000614fea602e8361566c565b7f416c6c6f6320706f696e7473207065722072657761726420746f6b656e206d7581526d7374206e6f74206265207a65726f60901b602082015260400192915050565b8051606083019061503e848261449c565b5060208201516150516020850182615060565b506040820151612fbd60408501825b61442b81615693565b61442b816156ab565b61442b816156b4565b61442b816156dc565b61442b816156ba565b600061084582846144b6565b60006150a48261482f565b91506150b082856144a5565b6020820191506150c082846144a5565b5060200192915050565b600061154282614b7d565b600061154282614e8f565b602081016115428284614431565b602081016115428284614422565b6040810161510a8285614422565b81810360208301526138de81846144f7565b6040810161512a8285614431565b6108456020830184614431565b606081016151458286614431565b6151526020830185614422565b6138de604083018461449c565b6080810161516d8287614431565b61517a6020830186614431565b6151876040830185614431565b6151946060830184614431565b95945050505050565b606081016151ab8286614431565b6151526020830185614431565b608081016151c68287614431565b6151d36020830186614431565b6151e0604083018561449c565b615194606083018461449c565b604081016151fb8285614431565b6108456020830184614493565b604081016152168285614431565b610845602083018461449c565b60208082528101610845818461443a565b602081016115428284614493565b60208101611542828461449c565b608081016151c6828761449c565b6080810161526c828761449c565b615279602083018661449c565b615187604083018561449c565b60808101615294828761449c565b6151d36020830186615072565b6020810161154282846144e5565b60a081016152bd82886144e5565b6152ca602083018761449c565b6152d7604083018661449c565b6152e4606083018561449c565b6152f1608083018461449c565b9695505050505050565b6020808252810161084581846144f7565b602080825281016115428161452f565b6020808252810161154281614568565b6020808252810161154281614596565b60208082528101611542816145c5565b60208082528101611542816145fe565b6020808252810161154281614637565b6020808252810161154281614662565b6020808252810161154281614691565b60208082528101611542816146b9565b602080825281016115428161470b565b6020808252810161154281614757565b60208082528101611542816147a3565b60208082528101611542816147e7565b602080825281016115428161484d565b6020808252810161154281614896565b60208082528101611542816148cf565b6020808252810161154281614908565b602080825281016115428161494f565b6020808252810161154281614993565b60208082528101611542816149d9565b6020808252810161154281614a12565b6020808252810161154281614a41565b6020808252810161154281614a8e565b6020808252810161154281614ac7565b6020808252810161154281614b00565b6020808252810161154281614b39565b6020808252810161154281614be8565b6020808252810161154281614c21565b6020808252810161154281614c64565b6020808252810161154281614c92565b6020808252810161154281614ccb565b6020808252810161154281614cf1565b6020808252810161154281614d21565b6020808252810161154281614d4b565b6020808252810161154281614d7c565b6020808252810161154281614dab565b6020808252810161154281614de4565b6020808252810161154281614e1d565b6020808252810161154281614e56565b6020808252810161154281614eee565b6020808252810161154281614f27565b6020808252810161154281614f60565b6020808252810161154281614f99565b6020808252810161154281614fdd565b604081016155da828561449c565b61084560208301846144ee565b60408101615216828561449c565b60608101615603828661449c565b615152602083018561449c565b602081016115428284615069565b6040810161562c8285615069565b6108456020830184615084565b602081016115428284615084565b60408101615655828561507b565b610845602083018461507b565b60200190565b5190565b90815260200190565b60006115428261569f565b151590565b90565b600061154282615675565b6001600160801b031690565b6001600160a01b031690565b63ffffffff1690565b60ff1690565b6001600160601b031690565b600061154282615688565b600061154282615685565b6000611542826156ba565b60005b838110156157025781810151838201526020016156ea565b83811115612fbd5750506000910152565b601f01601f191690565b61572681615675565b8114610f2857600080fd5b61572681615680565b61572681615685565b61572681615688565b615726816156ab565b615726816156b456fe5856535661756c743a3a5f6d6f7665566f7465733a20766f746520616d6f756e74206f766572666c6f77735856535661756c743a3a726571756573745769746864726177616c3a20766f746573206f766572666c6f775856535661756c743a3a6765745374616b65416d6f756e743a20766f746573206f766572666c6f775856535661756c743a3a6465706f7369743a20766f746573206f766572666c6f775856535661756c743a3a5f7772697465436865636b706f696e743a20626c6f636b206e756d626572206f72207365636f6e64206578636565647320333220626974737365745769746864726177616c4c6f636b696e67506572696f6428616464726573732c75696e743235362c75696e74323536295856535661756c743a3a5f6d6f7665566f7465733a20766f746520616d6f756e7420756e646572666c6f7773736574526577617264416d6f756e74506572426c6f636b4f725365636f6e6428616464726573732c75696e743235362961646428616464726573732c75696e743235362c616464726573732c75696e743235362c75696e7432353629a365627a7a72315820e5a476d381d81725dfba2ecf0479bf8fc856e41aaabd8039966271f05e70b8216c6578706572696d656e74616cf564736f6c63430005100040",
  "devdoc": {
    "author": "Venus",
    "methods": {
      "add(address,uint256,address,uint256,uint256)": {
        "details": "This vault DOES NOT support deflationary tokens  it expects that  the amount of transferred tokens would equal the actually deposited  amount. In practice this means that this vault DOES NOT support USDT  and similar tokens (that do not provide these guarantees).",
        "params": {
          "_allocPoint": "Number of allocation points assigned to this pool",
          "_lockPeriod": "A period between withdrawal request and a moment when it's executable",
          "_rewardPerBlockOrSecond": "Initial reward per block or second, in terms of _rewardToken",
          "_rewardToken": "Reward token address",
          "_token": "Staked token"
        }
      },
      "claim(address,address,uint256)": {
        "params": {
          "_account": "The account for which to claim rewards",
          "_pid": "The Pool Index",
          "_rewardToken": "The Reward Token Address"
        }
      },
      "delegate(address)": {
        "params": {
          "delegatee": "The address to delegate votes to"
        }
      },
      "delegateBySig(address,uint256,uint256,uint8,bytes32,bytes32)": {
        "params": {
          "delegatee": "The address to delegate votes to",
          "expiry": "The time at which to expire the signature",
          "nonce": "The contract state required to match the signature",
          "r": "Half of the ECDSA signature pair",
          "s": "Half of the ECDSA signature pair",
          "v": "The recovery byte of the signature"
        }
      },
      "deposit(address,uint256,uint256)": {
        "params": {
          "_amount": "The amount to deposit to vault",
          "_pid": "The Pool Index",
          "_rewardToken": "The Reward Token Address"
        }
      },
      "executeWithdrawal(address,uint256)": {
        "params": {
          "_pid": "The Pool Index",
          "_rewardToken": "The Reward Token Address"
        }
      },
      "getBlockNumberOrTimestamp()": {
        "details": "Function to simply retrieve block number or block timestamp",
        "return": "Current block number or block timestamp"
      },
      "getCurrentVotes(address)": {
        "params": {
          "account": "The address to get votes balance"
        },
        "return": "The number of current votes for `account`"
      },
      "getEligibleWithdrawalAmount(address,uint256,address)": {
        "params": {
          "_pid": "The Pool Index",
          "_rewardToken": "The Reward Token Address",
          "_user": "The User Address"
        },
        "return": "withdrawalAmount Amount that the user can withdraw"
      },
      "getPriorVotes(address,uint256)": {
        "params": {
          "account": "The address of the account to check",
          "blockNumberOrSecond": "The block number or second to get the vote balance at"
        },
        "return": "The balance that user staked"
      },
      "getRequestedAmount(address,uint256,address)": {
        "params": {
          "_pid": "The Pool Index",
          "_rewardToken": "The Reward Token Address",
          "_user": "The User Address"
        },
        "return": "Total amount of requested but not yet executed withdrawals (including both executable and locked ones)"
      },
      "getUserInfo(address,uint256,address)": {
        "params": {
          "_pid": "Pool index",
          "_rewardToken": "Reward token address",
          "_user": "User address"
        },
        "return": "amount Deposited amountrewardDebt Reward debt (technical value used to track past payouts)pendingWithdrawals Requested but not yet executed withdrawals"
      },
      "getWithdrawalRequests(address,uint256,address)": {
        "params": {
          "_pid": "The Pool Index",
          "_rewardToken": "The Reward Token Address",
          "_user": "The User Address"
        },
        "return": "An array of withdrawal requests"
      },
      "initializeTimeManager(bool,uint256)": {
        "details": "Initializes the contract to use either blocks or seconds",
        "params": {
          "blocksPerYear_": "The number of blocks per year",
          "timeBased_": "A boolean indicating whether the contract is based on time or block If timeBased is true than blocksPerYear_ param is ignored as blocksOrSecondsPerYear is set to SECONDS_PER_YEAR"
        }
      },
      "pendingReward(address,uint256,address)": {
        "params": {
          "_pid": "Pool index",
          "_rewardToken": "Reward token address",
          "_user": "User address"
        },
        "return": "Reward the user is eligible for in this pool, in terms of _rewardToken"
      },
      "pendingWithdrawalsBeforeUpgrade(address,uint256,address)": {
        "params": {
          "_pid": "The Pool Index",
          "_rewardToken": "The Reward Token Address",
          "_user": "The address of the user"
        },
        "return": "beforeUpgradeWithdrawalAmount Total pending withdrawal amount in requests made before the vault upgrade"
      },
      "poolLength(address)": {
        "params": {
          "rewardToken": "Reward token address"
        },
        "return": "Number of pools that distribute the specified token as a reward"
      },
      "requestWithdrawal(address,uint256,uint256)": {
        "params": {
          "_amount": "The amount to withdraw from the vault",
          "_pid": "The Pool Index",
          "_rewardToken": "The Reward Token Address"
        }
      },
      "rewardTokenAmountsPerBlock(address)": {
        "params": {
          "_rewardToken": "Reward token address"
        },
        "return": "Number of reward tokens created per block or second"
      },
      "set(address,uint256,uint256)": {
        "params": {
          "_allocPoint": "Number of allocation points assigned to this pool",
          "_pid": "Pool index",
          "_rewardToken": "Reward token address"
        }
      },
      "setAccessControl(address)": {
        "details": "Admin function to set the access control address",
        "params": {
          "newAccessControlAddress": "New address for the access control"
        }
      },
      "setBlocksPerYear(uint256)": {
        "params": {
          "blocksPerYear_": "The number of blocks per year"
        }
      },
      "setPrimeToken(address,address,uint256)": {
        "params": {
          "_primePoolId": "pool id for reward",
          "_primeRewardToken": "address of reward token",
          "_primeToken": "address of the prime token contract"
        }
      },
      "setRewardAmountPerBlockOrSecond(address,uint256)": {
        "params": {
          "_rewardAmount": "Number of allocation points assigned to this pool",
          "_rewardToken": "Reward token address"
        }
      },
      "setWithdrawalLockingPeriod(address,uint256,uint256)": {
        "params": {
          "_newPeriod": "New lock period",
          "_pid": "Pool index",
          "_rewardToken": "Reward token address"
        }
      },
      "updatePool(address,uint256)": {
        "params": {
          "_pid": "Pool index",
          "_rewardToken": "Reward token address"
        }
      }
    },
    "title": "XVS Vault"
  },
  "userdoc": {
    "methods": {
      "_become(address)": {
        "notice": "* Admin Functions **"
      },
      "accessControlManager()": {
        "notice": "Returns the address of the access control manager contract"
      },
      "add(address,uint256,address,uint256,uint256)": {
        "notice": "Add a new token pool"
      },
      "claim(address,address,uint256)": {
        "notice": "Claim rewards for pool"
      },
      "constructor": "XVSVault constructor",
      "delegate(address)": {
        "notice": "Delegate votes from `msg.sender` to `delegatee`"
      },
      "delegateBySig(address,uint256,uint256,uint8,bytes32,bytes32)": {
        "notice": "Delegates votes from signatory to `delegatee`"
      },
      "deposit(address,uint256,uint256)": {
        "notice": "Deposit XVSVault for XVS allocation"
      },
      "executeWithdrawal(address,uint256)": {
        "notice": "Execute withdrawal to XVSVault for XVS allocation"
      },
      "getCurrentVotes(address)": {
        "notice": "Gets the current votes balance for `account`"
      },
      "getEligibleWithdrawalAmount(address,uint256,address)": {
        "notice": "Get unlocked withdrawal amount"
      },
      "getPriorVotes(address,uint256)": {
        "notice": "Determine the xvs stake balance for an account"
      },
      "getRequestedAmount(address,uint256,address)": {
        "notice": "Get requested amount"
      },
      "getUserInfo(address,uint256,address)": {
        "notice": "Get user info with reward token address and pid"
      },
      "getWithdrawalRequests(address,uint256,address)": {
        "notice": "Returns the array of withdrawal requests that have not been executed yet"
      },
      "pause()": {
        "notice": "Pauses vault"
      },
      "pendingReward(address,uint256,address)": {
        "notice": "View function to see pending XVSs on frontend"
      },
      "pendingWithdrawalsBeforeUpgrade(address,uint256,address)": {
        "notice": "Gets the total pending withdrawal amount of a user before upgrade"
      },
      "poolLength(address)": {
        "notice": "Returns the number of pools with the specified reward token"
      },
      "requestWithdrawal(address,uint256,uint256)": {
        "notice": "Request withdrawal to XVSVault for XVS allocation"
      },
      "resume()": {
        "notice": "Resume vault"
      },
      "rewardTokenAmountsPerBlock(address)": {
        "notice": "Returns the number of reward tokens created per block or second"
      },
      "set(address,uint256,uint256)": {
        "notice": "Update the given pool's reward allocation point"
      },
      "setAccessControl(address)": {
        "notice": "Sets the address of the access control of this contract"
      },
      "setBlocksPerYear(uint256)": {
        "notice": "set Block per year in Time Manager"
      },
      "setPrimeToken(address,address,uint256)": {
        "notice": "Sets the address of the prime token contract"
      },
      "setRewardAmountPerBlockOrSecond(address,uint256)": {
        "notice": "Update the given reward token's amount per block or second"
      },
      "setWithdrawalLockingPeriod(address,uint256,uint256)": {
        "notice": "Update the lock period after which a requested withdrawal can be executed"
      },
      "updatePool(address,uint256)": {
        "notice": "Update reward variables of the given pool to be up-to-date"
      }
    },
    "notice": "The XVS Vault allows XVS holders to lock their XVS to recieve voting rights in Venus governance and are rewarded with XVS."
  },
  "storageLayout": {
    "storage": [
      {
        "astId": 40437,
        "contract": "contracts/XVSVault/XVSVault.sol:XVSVault",
        "label": "admin",
        "offset": 0,
        "slot": "0",
        "type": "t_address"
      },
      {
        "astId": 40439,
        "contract": "contracts/XVSVault/XVSVault.sol:XVSVault",
        "label": "pendingAdmin",
        "offset": 0,
        "slot": "1",
        "type": "t_address"
      },
      {
        "astId": 40441,
        "contract": "contracts/XVSVault/XVSVault.sol:XVSVault",
        "label": "implementation",
        "offset": 0,
        "slot": "2",
        "type": "t_address"
      },
      {
        "astId": 40443,
        "contract": "contracts/XVSVault/XVSVault.sol:XVSVault",
        "label": "pendingXVSVaultImplementation",
        "offset": 0,
        "slot": "3",
        "type": "t_address"
      },
      {
        "astId": 40448,
        "contract": "contracts/XVSVault/XVSVault.sol:XVSVault",
        "label": "_notEntered",
        "offset": 20,
        "slot": "3",
        "type": "t_bool"
      },
      {
        "astId": 40450,
        "contract": "contracts/XVSVault/XVSVault.sol:XVSVault",
        "label": "xvsStore",
        "offset": 0,
        "slot": "4",
        "type": "t_address"
      },
      {
        "astId": 40452,
        "contract": "contracts/XVSVault/XVSVault.sol:XVSVault",
        "label": "xvsAddress",
        "offset": 0,
        "slot": "5",
        "type": "t_address"
      },
      {
        "astId": 40456,
        "contract": "contracts/XVSVault/XVSVault.sol:XVSVault",
        "label": "rewardTokenAmountsPerBlockOrSecond",
        "offset": 0,
        "slot": "6",
        "type": "t_mapping(t_address,t_uint256)"
      },
      {
        "astId": 40489,
        "contract": "contracts/XVSVault/XVSVault.sol:XVSVault",
        "label": "userInfos",
        "offset": 0,
        "slot": "7",
        "type": "t_mapping(t_address,t_mapping(t_uint256,t_mapping(t_address,t_struct(UserInfo)40463_storage)))"
      },
      {
        "astId": 40494,
        "contract": "contracts/XVSVault/XVSVault.sol:XVSVault",
        "label": "poolInfos",
        "offset": 0,
        "slot": "8",
        "type": "t_mapping(t_address,t_array(t_struct(PoolInfo)40474_storage)dyn_storage)"
      },
      {
        "astId": 40498,
        "contract": "contracts/XVSVault/XVSVault.sol:XVSVault",
        "label": "totalAllocPoints",
        "offset": 0,
        "slot": "9",
        "type": "t_mapping(t_address,t_uint256)"
      },
      {
        "astId": 40507,
        "contract": "contracts/XVSVault/XVSVault.sol:XVSVault",
        "label": "withdrawalRequests",
        "offset": 0,
        "slot": "10",
        "type": "t_mapping(t_address,t_mapping(t_uint256,t_mapping(t_address,t_array(t_struct(WithdrawalRequest)40481_storage)dyn_storage)))"
      },
      {
        "astId": 40511,
        "contract": "contracts/XVSVault/XVSVault.sol:XVSVault",
        "label": "__oldDelegatesSlot",
        "offset": 0,
        "slot": "11",
        "type": "t_mapping(t_address,t_address)"
      },
      {
        "astId": 40522,
        "contract": "contracts/XVSVault/XVSVault.sol:XVSVault",
        "label": "__oldCheckpointsSlot",
        "offset": 0,
        "slot": "12",
        "type": "t_mapping(t_address,t_mapping(t_uint32,t_struct(Checkpoint)40516_storage))"
      },
      {
        "astId": 40526,
        "contract": "contracts/XVSVault/XVSVault.sol:XVSVault",
        "label": "__oldNumCheckpointsSlot",
        "offset": 0,
        "slot": "13",
        "type": "t_mapping(t_address,t_uint32)"
      },
      {
        "astId": 40530,
        "contract": "contracts/XVSVault/XVSVault.sol:XVSVault",
        "label": "nonces",
        "offset": 0,
        "slot": "14",
        "type": "t_mapping(t_address,t_uint256)"
      },
      {
        "astId": 40547,
        "contract": "contracts/XVSVault/XVSVault.sol:XVSVault",
        "label": "delegates",
        "offset": 0,
        "slot": "15",
        "type": "t_mapping(t_address,t_address)"
      },
      {
        "astId": 40553,
        "contract": "contracts/XVSVault/XVSVault.sol:XVSVault",
        "label": "checkpoints",
        "offset": 0,
        "slot": "16",
        "type": "t_mapping(t_address,t_mapping(t_uint32,t_struct(Checkpoint)40516_storage))"
      },
      {
        "astId": 40557,
        "contract": "contracts/XVSVault/XVSVault.sol:XVSVault",
        "label": "numCheckpoints",
        "offset": 0,
        "slot": "17",
        "type": "t_mapping(t_address,t_uint32)"
      },
      {
        "astId": 40563,
        "contract": "contracts/XVSVault/XVSVault.sol:XVSVault",
        "label": "totalPendingWithdrawals",
        "offset": 0,
        "slot": "18",
        "type": "t_mapping(t_address,t_mapping(t_uint256,t_uint256))"
      },
      {
        "astId": 40565,
        "contract": "contracts/XVSVault/XVSVault.sol:XVSVault",
        "label": "vaultPaused",
        "offset": 0,
        "slot": "19",
        "type": "t_bool"
      },
      {
        "astId": 40569,
        "contract": "contracts/XVSVault/XVSVault.sol:XVSVault",
        "label": "isStakedToken",
        "offset": 0,
        "slot": "20",
        "type": "t_mapping(t_address,t_bool)"
      },
      {
        "astId": 40575,
        "contract": "contracts/XVSVault/XVSVault.sol:XVSVault",
        "label": "pendingRewardTransfers",
        "offset": 0,
        "slot": "21",
        "type": "t_mapping(t_address,t_mapping(t_address,t_uint256))"
      },
      {
        "astId": 40577,
        "contract": "contracts/XVSVault/XVSVault.sol:XVSVault",
        "label": "primeToken",
        "offset": 0,
        "slot": "22",
        "type": "t_contract(IPrime)12571"
      },
      {
        "astId": 40579,
        "contract": "contracts/XVSVault/XVSVault.sol:XVSVault",
        "label": "primeRewardToken",
        "offset": 0,
        "slot": "23",
        "type": "t_address"
      },
      {
        "astId": 40581,
        "contract": "contracts/XVSVault/XVSVault.sol:XVSVault",
        "label": "primePoolId",
        "offset": 0,
        "slot": "24",
        "type": "t_uint256"
      },
      {
        "astId": 40585,
        "contract": "contracts/XVSVault/XVSVault.sol:XVSVault",
        "label": "__gap",
        "offset": 0,
        "slot": "25",
        "type": "t_array(t_uint256)46_storage"
      },
      {
        "astId": 4,
        "contract": "contracts/XVSVault/XVSVault.sol:XVSVault",
        "label": "_accessControlManager",
        "offset": 0,
        "slot": "71",
        "type": "t_contract(IAccessControlManagerV5)1917"
      },
      {
        "astId": 8,
        "contract": "contracts/XVSVault/XVSVault.sol:XVSVault",
        "label": "__gap",
        "offset": 0,
        "slot": "72",
        "type": "t_array(t_uint256)49_storage"
      },
      {
        "astId": 1924,
        "contract": "contracts/XVSVault/XVSVault.sol:XVSVault",
        "label": "blocksOrSecondsPerYear",
        "offset": 0,
        "slot": "121",
        "type": "t_uint256"
      },
      {
        "astId": 1926,
        "contract": "contracts/XVSVault/XVSVault.sol:XVSVault",
        "label": "isTimeBased",
        "offset": 0,
        "slot": "122",
        "type": "t_bool"
      },
      {
        "astId": 1928,
        "contract": "contracts/XVSVault/XVSVault.sol:XVSVault",
        "label": "isInitialized",
        "offset": 1,
        "slot": "122",
        "type": "t_bool"
      },
      {
        "astId": 1930,
        "contract": "contracts/XVSVault/XVSVault.sol:XVSVault",
        "label": "__deprecatedSlot1",
        "offset": 2,
        "slot": "122",
        "type": "t_bytes8"
      },
      {
        "astId": 1934,
        "contract": "contracts/XVSVault/XVSVault.sol:XVSVault",
        "label": "__gap",
        "offset": 0,
        "slot": "123",
        "type": "t_array(t_uint256)48_storage"
      }
    ],
    "types": {
      "t_address": {
        "encoding": "inplace",
        "label": "address",
        "numberOfBytes": "20"
      },
      "t_array(t_struct(PoolInfo)40474_storage)dyn_storage": {
        "base": "t_struct(PoolInfo)40474_storage",
        "encoding": "dynamic_array",
        "label": "struct XVSVaultStorageV1.PoolInfo[]",
        "numberOfBytes": "32"
      },
      "t_array(t_struct(WithdrawalRequest)40481_storage)dyn_storage": {
        "base": "t_struct(WithdrawalRequest)40481_storage",
        "encoding": "dynamic_array",
        "label": "struct XVSVaultStorageV1.WithdrawalRequest[]",
        "numberOfBytes": "32"
      },
      "t_array(t_uint256)46_storage": {
        "base": "t_uint256",
        "encoding": "inplace",
        "label": "uint256[46]",
        "numberOfBytes": "1472"
      },
      "t_array(t_uint256)48_storage": {
        "base": "t_uint256",
        "encoding": "inplace",
        "label": "uint256[48]",
        "numberOfBytes": "1536"
      },
      "t_array(t_uint256)49_storage": {
        "base": "t_uint256",
        "encoding": "inplace",
        "label": "uint256[49]",
        "numberOfBytes": "1568"
      },
      "t_bool": {
        "encoding": "inplace",
        "label": "bool",
        "numberOfBytes": "1"
      },
      "t_bytes8": {
        "encoding": "inplace",
        "label": "bytes8",
        "numberOfBytes": "8"
      },
      "t_contract(IAccessControlManagerV5)1917": {
        "encoding": "inplace",
        "label": "contract IAccessControlManagerV5",
        "numberOfBytes": "20"
      },
      "t_contract(IBEP20)33718": {
        "encoding": "inplace",
        "label": "contract IBEP20",
        "numberOfBytes": "20"
      },
      "t_contract(IPrime)12571": {
        "encoding": "inplace",
        "label": "contract IPrime",
        "numberOfBytes": "20"
      },
      "t_mapping(t_address,t_address)": {
        "encoding": "mapping",
        "key": "t_address",
        "label": "mapping(address => address)",
        "numberOfBytes": "32",
        "value": "t_address"
      },
      "t_mapping(t_address,t_array(t_struct(PoolInfo)40474_storage)dyn_storage)": {
        "encoding": "mapping",
        "key": "t_address",
        "label": "mapping(address => struct XVSVaultStorageV1.PoolInfo[])",
        "numberOfBytes": "32",
        "value": "t_array(t_struct(PoolInfo)40474_storage)dyn_storage"
      },
      "t_mapping(t_address,t_array(t_struct(WithdrawalRequest)40481_storage)dyn_storage)": {
        "encoding": "mapping",
        "key": "t_address",
        "label": "mapping(address => struct XVSVaultStorageV1.WithdrawalRequest[])",
        "numberOfBytes": "32",
        "value": "t_array(t_struct(WithdrawalRequest)40481_storage)dyn_storage"
      },
      "t_mapping(t_address,t_bool)": {
        "encoding": "mapping",
        "key": "t_address",
        "label": "mapping(address => bool)",
        "numberOfBytes": "32",
        "value": "t_bool"
      },
      "t_mapping(t_address,t_mapping(t_address,t_uint256))": {
        "encoding": "mapping",
        "key": "t_address",
        "label": "mapping(address => mapping(address => uint256))",
        "numberOfBytes": "32",
        "value": "t_mapping(t_address,t_uint256)"
      },
      "t_mapping(t_address,t_mapping(t_uint256,t_mapping(t_address,t_array(t_struct(WithdrawalRequest)40481_storage)dyn_storage)))": {
        "encoding": "mapping",
        "key": "t_address",
        "label": "mapping(address => mapping(uint256 => mapping(address => struct XVSVaultStorageV1.WithdrawalRequest[])))",
        "numberOfBytes": "32",
        "value": "t_mapping(t_uint256,t_mapping(t_address,t_array(t_struct(WithdrawalRequest)40481_storage)dyn_storage))"
      },
      "t_mapping(t_address,t_mapping(t_uint256,t_mapping(t_address,t_struct(UserInfo)40463_storage)))": {
        "encoding": "mapping",
        "key": "t_address",
        "label": "mapping(address => mapping(uint256 => mapping(address => struct XVSVaultStorageV1.UserInfo)))",
        "numberOfBytes": "32",
        "value": "t_mapping(t_uint256,t_mapping(t_address,t_struct(UserInfo)40463_storage))"
      },
      "t_mapping(t_address,t_mapping(t_uint256,t_uint256))": {
        "encoding": "mapping",
        "key": "t_address",
        "label": "mapping(address => mapping(uint256 => uint256))",
        "numberOfBytes": "32",
        "value": "t_mapping(t_uint256,t_uint256)"
      },
      "t_mapping(t_address,t_mapping(t_uint32,t_struct(Checkpoint)40516_storage))": {
        "encoding": "mapping",
        "key": "t_address",
        "label": "mapping(address => mapping(uint32 => struct XVSVaultStorageV1.Checkpoint))",
        "numberOfBytes": "32",
        "value": "t_mapping(t_uint32,t_struct(Checkpoint)40516_storage)"
      },
      "t_mapping(t_address,t_struct(UserInfo)40463_storage)": {
        "encoding": "mapping",
        "key": "t_address",
        "label": "mapping(address => struct XVSVaultStorageV1.UserInfo)",
        "numberOfBytes": "32",
        "value": "t_struct(UserInfo)40463_storage"
      },
      "t_mapping(t_address,t_uint256)": {
        "encoding": "mapping",
        "key": "t_address",
        "label": "mapping(address => uint256)",
        "numberOfBytes": "32",
        "value": "t_uint256"
      },
      "t_mapping(t_address,t_uint32)": {
        "encoding": "mapping",
        "key": "t_address",
        "label": "mapping(address => uint32)",
        "numberOfBytes": "32",
        "value": "t_uint32"
      },
      "t_mapping(t_uint256,t_mapping(t_address,t_array(t_struct(WithdrawalRequest)40481_storage)dyn_storage))": {
        "encoding": "mapping",
        "key": "t_uint256",
        "label": "mapping(uint256 => mapping(address => struct XVSVaultStorageV1.WithdrawalRequest[]))",
        "numberOfBytes": "32",
        "value": "t_mapping(t_address,t_array(t_struct(WithdrawalRequest)40481_storage)dyn_storage)"
      },
      "t_mapping(t_uint256,t_mapping(t_address,t_struct(UserInfo)40463_storage))": {
        "encoding": "mapping",
        "key": "t_uint256",
        "label": "mapping(uint256 => mapping(address => struct XVSVaultStorageV1.UserInfo))",
        "numberOfBytes": "32",
        "value": "t_mapping(t_address,t_struct(UserInfo)40463_storage)"
      },
      "t_mapping(t_uint256,t_uint256)": {
        "encoding": "mapping",
        "key": "t_uint256",
        "label": "mapping(uint256 => uint256)",
        "numberOfBytes": "32",
        "value": "t_uint256"
      },
      "t_mapping(t_uint32,t_struct(Checkpoint)40516_storage)": {
        "encoding": "mapping",
        "key": "t_uint32",
        "label": "mapping(uint32 => struct XVSVaultStorageV1.Checkpoint)",
        "numberOfBytes": "32",
        "value": "t_struct(Checkpoint)40516_storage"
      },
      "t_struct(Checkpoint)40516_storage": {
        "encoding": "inplace",
        "label": "struct XVSVaultStorageV1.Checkpoint",
        "members": [
          {
            "astId": 40513,
            "contract": "contracts/XVSVault/XVSVault.sol:XVSVault",
            "label": "fromBlockOrSecond",
            "offset": 0,
            "slot": "0",
            "type": "t_uint32"
          },
          {
            "astId": 40515,
            "contract": "contracts/XVSVault/XVSVault.sol:XVSVault",
            "label": "votes",
            "offset": 4,
            "slot": "0",
            "type": "t_uint96"
          }
        ],
        "numberOfBytes": "32"
      },
      "t_struct(PoolInfo)40474_storage": {
        "encoding": "inplace",
        "label": "struct XVSVaultStorageV1.PoolInfo",
        "members": [
          {
            "astId": 40465,
            "contract": "contracts/XVSVault/XVSVault.sol:XVSVault",
            "label": "token",
            "offset": 0,
            "slot": "0",
            "type": "t_contract(IBEP20)33718"
          },
          {
            "astId": 40467,
            "contract": "contracts/XVSVault/XVSVault.sol:XVSVault",
            "label": "allocPoint",
            "offset": 0,
            "slot": "1",
            "type": "t_uint256"
          },
          {
            "astId": 40469,
            "contract": "contracts/XVSVault/XVSVault.sol:XVSVault",
            "label": "lastRewardBlockOrSecond",
            "offset": 0,
            "slot": "2",
            "type": "t_uint256"
          },
          {
            "astId": 40471,
            "contract": "contracts/XVSVault/XVSVault.sol:XVSVault",
            "label": "accRewardPerShare",
            "offset": 0,
            "slot": "3",
            "type": "t_uint256"
          },
          {
            "astId": 40473,
            "contract": "contracts/XVSVault/XVSVault.sol:XVSVault",
            "label": "lockPeriod",
            "offset": 0,
            "slot": "4",
            "type": "t_uint256"
          }
        ],
        "numberOfBytes": "160"
      },
      "t_struct(UserInfo)40463_storage": {
        "encoding": "inplace",
        "label": "struct XVSVaultStorageV1.UserInfo",
        "members": [
          {
            "astId": 40458,
            "contract": "contracts/XVSVault/XVSVault.sol:XVSVault",
            "label": "amount",
            "offset": 0,
            "slot": "0",
            "type": "t_uint256"
          },
          {
            "astId": 40460,
            "contract": "contracts/XVSVault/XVSVault.sol:XVSVault",
            "label": "rewardDebt",
            "offset": 0,
            "slot": "1",
            "type": "t_uint256"
          },
          {
            "astId": 40462,
            "contract": "contracts/XVSVault/XVSVault.sol:XVSVault",
            "label": "pendingWithdrawals",
            "offset": 0,
            "slot": "2",
            "type": "t_uint256"
          }
        ],
        "numberOfBytes": "96"
      },
      "t_struct(WithdrawalRequest)40481_storage": {
        "encoding": "inplace",
        "label": "struct XVSVaultStorageV1.WithdrawalRequest",
        "members": [
          {
            "astId": 40476,
            "contract": "contracts/XVSVault/XVSVault.sol:XVSVault",
            "label": "amount",
            "offset": 0,
            "slot": "0",
            "type": "t_uint256"
          },
          {
            "astId": 40478,
            "contract": "contracts/XVSVault/XVSVault.sol:XVSVault",
            "label": "lockedUntil",
            "offset": 0,
            "slot": "1",
            "type": "t_uint128"
          },
          {
            "astId": 40480,
            "contract": "contracts/XVSVault/XVSVault.sol:XVSVault",
            "label": "afterUpgrade",
            "offset": 16,
            "slot": "1",
            "type": "t_uint128"
          }
        ],
        "numberOfBytes": "64"
      },
      "t_uint128": {
        "encoding": "inplace",
        "label": "uint128",
        "numberOfBytes": "16"
      },
      "t_uint256": {
        "encoding": "inplace",
        "label": "uint256",
        "numberOfBytes": "32"
      },
      "t_uint32": {
        "encoding": "inplace",
        "label": "uint32",
        "numberOfBytes": "4"
      },
      "t_uint96": {
        "encoding": "inplace",
        "label": "uint96",
        "numberOfBytes": "12"
      }
    }
  }
}