{
  "address": "0x9801565BE8fe2c9fD12C17992ecDeb510BaF677A",
  "abi": [
    {
      "inputs": [],
      "payable": false,
      "stateMutability": "nonpayable",
      "type": "constructor"
    },
    {
      "anonymous": false,
      "inputs": [
        {
          "indexed": true,
          "internalType": "address",
          "name": "user",
          "type": "address"
        },
        {
          "indexed": true,
          "internalType": "address",
          "name": "rewardToken",
          "type": "address"
        },
        {
          "indexed": true,
          "internalType": "uint256",
          "name": "pid",
          "type": "uint256"
        },
        {
          "indexed": false,
          "internalType": "uint256",
          "name": "amount",
          "type": "uint256"
        }
      ],
      "name": "Claim",
      "type": "event"
    },
    {
      "anonymous": false,
      "inputs": [
        {
          "indexed": true,
          "internalType": "address",
          "name": "delegator",
          "type": "address"
        },
        {
          "indexed": true,
          "internalType": "address",
          "name": "fromDelegate",
          "type": "address"
        },
        {
          "indexed": true,
          "internalType": "address",
          "name": "toDelegate",
          "type": "address"
        }
      ],
      "name": "DelegateChangedV2",
      "type": "event"
    },
    {
      "anonymous": false,
      "inputs": [
        {
          "indexed": true,
          "internalType": "address",
          "name": "delegate",
          "type": "address"
        },
        {
          "indexed": false,
          "internalType": "uint256",
          "name": "previousBalance",
          "type": "uint256"
        },
        {
          "indexed": false,
          "internalType": "uint256",
          "name": "newBalance",
          "type": "uint256"
        }
      ],
      "name": "DelegateVotesChangedV2",
      "type": "event"
    },
    {
      "anonymous": false,
      "inputs": [
        {
          "indexed": true,
          "internalType": "address",
          "name": "user",
          "type": "address"
        },
        {
          "indexed": true,
          "internalType": "address",
          "name": "rewardToken",
          "type": "address"
        },
        {
          "indexed": true,
          "internalType": "uint256",
          "name": "pid",
          "type": "uint256"
        },
        {
          "indexed": false,
          "internalType": "uint256",
          "name": "amount",
          "type": "uint256"
        }
      ],
      "name": "Deposit",
      "type": "event"
    },
    {
      "anonymous": false,
      "inputs": [
        {
          "indexed": true,
          "internalType": "address",
          "name": "user",
          "type": "address"
        },
        {
          "indexed": true,
          "internalType": "address",
          "name": "rewardToken",
          "type": "address"
        },
        {
          "indexed": true,
          "internalType": "uint256",
          "name": "pid",
          "type": "uint256"
        },
        {
          "indexed": false,
          "internalType": "uint256",
          "name": "amount",
          "type": "uint256"
        }
      ],
      "name": "ExecutedWithdrawal",
      "type": "event"
    },
    {
      "anonymous": false,
      "inputs": [
        {
          "indexed": false,
          "internalType": "address",
          "name": "oldAccessControlManager",
          "type": "address"
        },
        {
          "indexed": false,
          "internalType": "address",
          "name": "newAccessControlManager",
          "type": "address"
        }
      ],
      "name": "NewAccessControlManager",
      "type": "event"
    },
    {
      "anonymous": false,
      "inputs": [
        {
          "indexed": true,
          "internalType": "contract IPrime",
          "name": "oldPrimeToken",
          "type": "address"
        },
        {
          "indexed": true,
          "internalType": "contract IPrime",
          "name": "newPrimeToken",
          "type": "address"
        },
        {
          "indexed": false,
          "internalType": "address",
          "name": "oldPrimeRewardToken",
          "type": "address"
        },
        {
          "indexed": false,
          "internalType": "address",
          "name": "newPrimeRewardToken",
          "type": "address"
        },
        {
          "indexed": false,
          "internalType": "uint256",
          "name": "oldPrimePoolId",
          "type": "uint256"
        },
        {
          "indexed": false,
          "internalType": "uint256",
          "name": "newPrimePoolId",
          "type": "uint256"
        }
      ],
      "name": "NewPrimeToken",
      "type": "event"
    },
    {
      "anonymous": false,
      "inputs": [
        {
          "indexed": true,
          "internalType": "address",
          "name": "rewardToken",
          "type": "address"
        },
        {
          "indexed": true,
          "internalType": "uint256",
          "name": "pid",
          "type": "uint256"
        },
        {
          "indexed": true,
          "internalType": "address",
          "name": "token",
          "type": "address"
        },
        {
          "indexed": false,
          "internalType": "uint256",
          "name": "allocPoints",
          "type": "uint256"
        },
        {
          "indexed": false,
          "internalType": "uint256",
          "name": "rewardPerBlockOrSecond",
          "type": "uint256"
        },
        {
          "indexed": false,
          "internalType": "uint256",
          "name": "lockPeriod",
          "type": "uint256"
        }
      ],
      "name": "PoolAdded",
      "type": "event"
    },
    {
      "anonymous": false,
      "inputs": [
        {
          "indexed": true,
          "internalType": "address",
          "name": "rewardToken",
          "type": "address"
        },
        {
          "indexed": true,
          "internalType": "uint256",
          "name": "pid",
          "type": "uint256"
        },
        {
          "indexed": false,
          "internalType": "uint256",
          "name": "oldAllocPoints",
          "type": "uint256"
        },
        {
          "indexed": false,
          "internalType": "uint256",
          "name": "newAllocPoints",
          "type": "uint256"
        }
      ],
      "name": "PoolUpdated",
      "type": "event"
    },
    {
      "anonymous": false,
      "inputs": [
        {
          "indexed": true,
          "internalType": "address",
          "name": "user",
          "type": "address"
        },
        {
          "indexed": true,
          "internalType": "address",
          "name": "rewardToken",
          "type": "address"
        },
        {
          "indexed": true,
          "internalType": "uint256",
          "name": "pid",
          "type": "uint256"
        },
        {
          "indexed": false,
          "internalType": "uint256",
          "name": "amount",
          "type": "uint256"
        }
      ],
      "name": "RequestedWithdrawal",
      "type": "event"
    },
    {
      "anonymous": false,
      "inputs": [
        {
          "indexed": true,
          "internalType": "address",
          "name": "rewardToken",
          "type": "address"
        },
        {
          "indexed": false,
          "internalType": "uint256",
          "name": "oldReward",
          "type": "uint256"
        },
        {
          "indexed": false,
          "internalType": "uint256",
          "name": "newReward",
          "type": "uint256"
        }
      ],
      "name": "RewardAmountUpdated",
      "type": "event"
    },
    {
      "anonymous": false,
      "inputs": [
        {
          "indexed": false,
          "internalType": "address",
          "name": "oldXvs",
          "type": "address"
        },
        {
          "indexed": false,
          "internalType": "address",
          "name": "oldStore",
          "type": "address"
        },
        {
          "indexed": false,
          "internalType": "address",
          "name": "newXvs",
          "type": "address"
        },
        {
          "indexed": false,
          "internalType": "address",
          "name": "newStore",
          "type": "address"
        }
      ],
      "name": "StoreUpdated",
      "type": "event"
    },
    {
      "anonymous": false,
      "inputs": [
        {
          "indexed": true,
          "internalType": "address",
          "name": "rewardToken",
          "type": "address"
        },
        {
          "indexed": true,
          "internalType": "address",
          "name": "userAddress",
          "type": "address"
        },
        {
          "indexed": false,
          "internalType": "uint256",
          "name": "oldOwedAmount",
          "type": "uint256"
        },
        {
          "indexed": false,
          "internalType": "uint256",
          "name": "newOwedAmount",
          "type": "uint256"
        }
      ],
      "name": "VaultDebtUpdated",
      "type": "event"
    },
    {
      "anonymous": false,
      "inputs": [
        {
          "indexed": true,
          "internalType": "address",
          "name": "admin",
          "type": "address"
        }
      ],
      "name": "VaultPaused",
      "type": "event"
    },
    {
      "anonymous": false,
      "inputs": [
        {
          "indexed": true,
          "internalType": "address",
          "name": "admin",
          "type": "address"
        }
      ],
      "name": "VaultResumed",
      "type": "event"
    },
    {
      "anonymous": false,
      "inputs": [
        {
          "indexed": true,
          "internalType": "address",
          "name": "rewardToken",
          "type": "address"
        },
        {
          "indexed": true,
          "internalType": "uint256",
          "name": "pid",
          "type": "uint256"
        },
        {
          "indexed": false,
          "internalType": "uint256",
          "name": "oldPeriod",
          "type": "uint256"
        },
        {
          "indexed": false,
          "internalType": "uint256",
          "name": "newPeriod",
          "type": "uint256"
        }
      ],
      "name": "WithdrawalLockingPeriodUpdated",
      "type": "event"
    },
    {
      "constant": true,
      "inputs": [],
      "name": "DELEGATION_TYPEHASH",
      "outputs": [
        {
          "internalType": "bytes32",
          "name": "",
          "type": "bytes32"
        }
      ],
      "payable": false,
      "stateMutability": "view",
      "type": "function"
    },
    {
      "constant": true,
      "inputs": [],
      "name": "DOMAIN_TYPEHASH",
      "outputs": [
        {
          "internalType": "bytes32",
          "name": "",
          "type": "bytes32"
        }
      ],
      "payable": false,
      "stateMutability": "view",
      "type": "function"
    },
    {
      "constant": true,
      "inputs": [],
      "name": "MAX_LOCK_PERIOD",
      "outputs": [
        {
          "internalType": "uint256",
          "name": "",
          "type": "uint256"
        }
      ],
      "payable": false,
      "stateMutability": "view",
      "type": "function"
    },
    {
      "constant": true,
      "inputs": [],
      "name": "SECONDS_PER_YEAR",
      "outputs": [
        {
          "internalType": "uint256",
          "name": "",
          "type": "uint256"
        }
      ],
      "payable": false,
      "stateMutability": "view",
      "type": "function"
    },
    {
      "constant": false,
      "inputs": [
        {
          "internalType": "contract XVSVaultProxy",
          "name": "xvsVaultProxy",
          "type": "address"
        }
      ],
      "name": "_become",
      "outputs": [],
      "payable": false,
      "stateMutability": "nonpayable",
      "type": "function"
    },
    {
      "constant": true,
      "inputs": [],
      "name": "accessControlManager",
      "outputs": [
        {
          "internalType": "contract IAccessControlManagerV5",
          "name": "",
          "type": "address"
        }
      ],
      "payable": false,
      "stateMutability": "view",
      "type": "function"
    },
    {
      "constant": false,
      "inputs": [
        {
          "internalType": "address",
          "name": "_rewardToken",
          "type": "address"
        },
        {
          "internalType": "uint256",
          "name": "_allocPoint",
          "type": "uint256"
        },
        {
          "internalType": "contract IBEP20",
          "name": "_token",
          "type": "address"
        },
        {
          "internalType": "uint256",
          "name": "_rewardPerBlockOrSecond",
          "type": "uint256"
        },
        {
          "internalType": "uint256",
          "name": "_lockPeriod",
          "type": "uint256"
        }
      ],
      "name": "add",
      "outputs": [],
      "payable": false,
      "stateMutability": "nonpayable",
      "type": "function"
    },
    {
      "constant": true,
      "inputs": [],
      "name": "admin",
      "outputs": [
        {
          "internalType": "address",
          "name": "",
          "type": "address"
        }
      ],
      "payable": false,
      "stateMutability": "view",
      "type": "function"
    },
    {
      "constant": true,
      "inputs": [],
      "name": "blocksOrSecondsPerYear",
      "outputs": [
        {
          "internalType": "uint256",
          "name": "",
          "type": "uint256"
        }
      ],
      "payable": false,
      "stateMutability": "view",
      "type": "function"
    },
    {
      "constant": true,
      "inputs": [
        {
          "internalType": "address",
          "name": "",
          "type": "address"
        },
        {
          "internalType": "uint32",
          "name": "",
          "type": "uint32"
        }
      ],
      "name": "checkpoints",
      "outputs": [
        {
          "internalType": "uint32",
          "name": "fromBlockOrSecond",
          "type": "uint32"
        },
        {
          "internalType": "uint96",
          "name": "votes",
          "type": "uint96"
        }
      ],
      "payable": false,
      "stateMutability": "view",
      "type": "function"
    },
    {
      "constant": false,
      "inputs": [
        {
          "internalType": "address",
          "name": "_account",
          "type": "address"
        },
        {
          "internalType": "address",
          "name": "_rewardToken",
          "type": "address"
        },
        {
          "internalType": "uint256",
          "name": "_pid",
          "type": "uint256"
        }
      ],
      "name": "claim",
      "outputs": [],
      "payable": false,
      "stateMutability": "nonpayable",
      "type": "function"
    },
    {
      "constant": false,
      "inputs": [
        {
          "internalType": "address",
          "name": "delegatee",
          "type": "address"
        }
      ],
      "name": "delegate",
      "outputs": [],
      "payable": false,
      "stateMutability": "nonpayable",
      "type": "function"
    },
    {
      "constant": false,
      "inputs": [
        {
          "internalType": "address",
          "name": "delegatee",
          "type": "address"
        },
        {
          "internalType": "uint256",
          "name": "nonce",
          "type": "uint256"
        },
        {
          "internalType": "uint256",
          "name": "expiry",
          "type": "uint256"
        },
        {
          "internalType": "uint8",
          "name": "v",
          "type": "uint8"
        },
        {
          "internalType": "bytes32",
          "name": "r",
          "type": "bytes32"
        },
        {
          "internalType": "bytes32",
          "name": "s",
          "type": "bytes32"
        }
      ],
      "name": "delegateBySig",
      "outputs": [],
      "payable": false,
      "stateMutability": "nonpayable",
      "type": "function"
    },
    {
      "constant": true,
      "inputs": [
        {
          "internalType": "address",
          "name": "",
          "type": "address"
        }
      ],
      "name": "delegates",
      "outputs": [
        {
          "internalType": "address",
          "name": "",
          "type": "address"
        }
      ],
      "payable": false,
      "stateMutability": "view",
      "type": "function"
    },
    {
      "constant": false,
      "inputs": [
        {
          "internalType": "address",
          "name": "_rewardToken",
          "type": "address"
        },
        {
          "internalType": "uint256",
          "name": "_pid",
          "type": "uint256"
        },
        {
          "internalType": "uint256",
          "name": "_amount",
          "type": "uint256"
        }
      ],
      "name": "deposit",
      "outputs": [],
      "payable": false,
      "stateMutability": "nonpayable",
      "type": "function"
    },
    {
      "constant": false,
      "inputs": [
        {
          "internalType": "address",
          "name": "_rewardToken",
          "type": "address"
        },
        {
          "internalType": "uint256",
          "name": "_pid",
          "type": "uint256"
        }
      ],
      "name": "executeWithdrawal",
      "outputs": [],
      "payable": false,
      "stateMutability": "nonpayable",
      "type": "function"
    },
    {
      "constant": true,
      "inputs": [],
      "name": "getBlockNumberOrTimestamp",
      "outputs": [
        {
          "internalType": "uint256",
          "name": "",
          "type": "uint256"
        }
      ],
      "payable": false,
      "stateMutability": "view",
      "type": "function"
    },
    {
      "constant": true,
      "inputs": [
        {
          "internalType": "address",
          "name": "account",
          "type": "address"
        }
      ],
      "name": "getCurrentVotes",
      "outputs": [
        {
          "internalType": "uint96",
          "name": "",
          "type": "uint96"
        }
      ],
      "payable": false,
      "stateMutability": "view",
      "type": "function"
    },
    {
      "constant": true,
      "inputs": [
        {
          "internalType": "address",
          "name": "_rewardToken",
          "type": "address"
        },
        {
          "internalType": "uint256",
          "name": "_pid",
          "type": "uint256"
        },
        {
          "internalType": "address",
          "name": "_user",
          "type": "address"
        }
      ],
      "name": "getEligibleWithdrawalAmount",
      "outputs": [
        {
          "internalType": "uint256",
          "name": "withdrawalAmount",
          "type": "uint256"
        }
      ],
      "payable": false,
      "stateMutability": "view",
      "type": "function"
    },
    {
      "constant": true,
      "inputs": [
        {
          "internalType": "address",
          "name": "account",
          "type": "address"
        },
        {
          "internalType": "uint256",
          "name": "blockNumberOrSecond",
          "type": "uint256"
        }
      ],
      "name": "getPriorVotes",
      "outputs": [
        {
          "internalType": "uint96",
          "name": "",
          "type": "uint96"
        }
      ],
      "payable": false,
      "stateMutability": "view",
      "type": "function"
    },
    {
      "constant": true,
      "inputs": [
        {
          "internalType": "address",
          "name": "_rewardToken",
          "type": "address"
        },
        {
          "internalType": "uint256",
          "name": "_pid",
          "type": "uint256"
        },
        {
          "internalType": "address",
          "name": "_user",
          "type": "address"
        }
      ],
      "name": "getRequestedAmount",
      "outputs": [
        {
          "internalType": "uint256",
          "name": "",
          "type": "uint256"
        }
      ],
      "payable": false,
      "stateMutability": "view",
      "type": "function"
    },
    {
      "constant": true,
      "inputs": [
        {
          "internalType": "address",
          "name": "_rewardToken",
          "type": "address"
        },
        {
          "internalType": "uint256",
          "name": "_pid",
          "type": "uint256"
        },
        {
          "internalType": "address",
          "name": "_user",
          "type": "address"
        }
      ],
      "name": "getUserInfo",
      "outputs": [
        {
          "internalType": "uint256",
          "name": "amount",
          "type": "uint256"
        },
        {
          "internalType": "uint256",
          "name": "rewardDebt",
          "type": "uint256"
        },
        {
          "internalType": "uint256",
          "name": "pendingWithdrawals",
          "type": "uint256"
        }
      ],
      "payable": false,
      "stateMutability": "view",
      "type": "function"
    },
    {
      "constant": true,
      "inputs": [
        {
          "internalType": "address",
          "name": "_rewardToken",
          "type": "address"
        },
        {
          "internalType": "uint256",
          "name": "_pid",
          "type": "uint256"
        },
        {
          "internalType": "address",
          "name": "_user",
          "type": "address"
        }
      ],
      "name": "getWithdrawalRequests",
      "outputs": [
        {
          "components": [
            {
              "internalType": "uint256",
              "name": "amount",
              "type": "uint256"
            },
            {
              "internalType": "uint128",
              "name": "lockedUntil",
              "type": "uint128"
            },
            {
              "internalType": "uint128",
              "name": "afterUpgrade",
              "type": "uint128"
            }
          ],
          "internalType": "struct XVSVaultStorageV1.WithdrawalRequest[]",
          "name": "",
          "type": "tuple[]"
        }
      ],
      "payable": false,
      "stateMutability": "view",
      "type": "function"
    },
    {
      "constant": true,
      "inputs": [],
      "name": "implementation",
      "outputs": [
        {
          "internalType": "address",
          "name": "",
          "type": "address"
        }
      ],
      "payable": false,
      "stateMutability": "view",
      "type": "function"
    },
    {
      "constant": false,
      "inputs": [
        {
          "internalType": "bool",
          "name": "timeBased_",
          "type": "bool"
        },
        {
          "internalType": "uint256",
          "name": "blocksPerYear_",
          "type": "uint256"
        }
      ],
      "name": "initializeTimeManager",
      "outputs": [],
      "payable": false,
      "stateMutability": "nonpayable",
      "type": "function"
    },
    {
      "constant": true,
      "inputs": [
        {
          "internalType": "address",
          "name": "",
          "type": "address"
        }
      ],
      "name": "isStakedToken",
      "outputs": [
        {
          "internalType": "bool",
          "name": "",
          "type": "bool"
        }
      ],
      "payable": false,
      "stateMutability": "view",
      "type": "function"
    },
    {
      "constant": true,
      "inputs": [],
      "name": "isTimeBased",
      "outputs": [
        {
          "internalType": "bool",
          "name": "",
          "type": "bool"
        }
      ],
      "payable": false,
      "stateMutability": "view",
      "type": "function"
    },
    {
      "constant": true,
      "inputs": [
        {
          "internalType": "address",
          "name": "",
          "type": "address"
        }
      ],
      "name": "nonces",
      "outputs": [
        {
          "internalType": "uint256",
          "name": "",
          "type": "uint256"
        }
      ],
      "payable": false,
      "stateMutability": "view",
      "type": "function"
    },
    {
      "constant": true,
      "inputs": [
        {
          "internalType": "address",
          "name": "",
          "type": "address"
        }
      ],
      "name": "numCheckpoints",
      "outputs": [
        {
          "internalType": "uint32",
          "name": "",
          "type": "uint32"
        }
      ],
      "payable": false,
      "stateMutability": "view",
      "type": "function"
    },
    {
      "constant": false,
      "inputs": [],
      "name": "pause",
      "outputs": [],
      "payable": false,
      "stateMutability": "nonpayable",
      "type": "function"
    },
    {
      "constant": true,
      "inputs": [],
      "name": "pendingAdmin",
      "outputs": [
        {
          "internalType": "address",
          "name": "",
          "type": "address"
        }
      ],
      "payable": false,
      "stateMutability": "view",
      "type": "function"
    },
    {
      "constant": true,
      "inputs": [
        {
          "internalType": "address",
          "name": "_rewardToken",
          "type": "address"
        },
        {
          "internalType": "uint256",
          "name": "_pid",
          "type": "uint256"
        },
        {
          "internalType": "address",
          "name": "_user",
          "type": "address"
        }
      ],
      "name": "pendingReward",
      "outputs": [
        {
          "internalType": "uint256",
          "name": "",
          "type": "uint256"
        }
      ],
      "payable": false,
      "stateMutability": "view",
      "type": "function"
    },
    {
      "constant": true,
      "inputs": [
        {
          "internalType": "address",
          "name": "",
          "type": "address"
        },
        {
          "internalType": "address",
          "name": "",
          "type": "address"
        }
      ],
      "name": "pendingRewardTransfers",
      "outputs": [
        {
          "internalType": "uint256",
          "name": "",
          "type": "uint256"
        }
      ],
      "payable": false,
      "stateMutability": "view",
      "type": "function"
    },
    {
      "constant": true,
      "inputs": [
        {
          "internalType": "address",
          "name": "_rewardToken",
          "type": "address"
        },
        {
          "internalType": "uint256",
          "name": "_pid",
          "type": "uint256"
        },
        {
          "internalType": "address",
          "name": "_user",
          "type": "address"
        }
      ],
      "name": "pendingWithdrawalsBeforeUpgrade",
      "outputs": [
        {
          "internalType": "uint256",
          "name": "beforeUpgradeWithdrawalAmount",
          "type": "uint256"
        }
      ],
      "payable": false,
      "stateMutability": "view",
      "type": "function"
    },
    {
      "constant": true,
      "inputs": [],
      "name": "pendingXVSVaultImplementation",
      "outputs": [
        {
          "internalType": "address",
          "name": "",
          "type": "address"
        }
      ],
      "payable": false,
      "stateMutability": "view",
      "type": "function"
    },
    {
      "constant": true,
      "inputs": [
        {
          "internalType": "address",
          "name": "",
          "type": "address"
        },
        {
          "internalType": "uint256",
          "name": "",
          "type": "uint256"
        }
      ],
      "name": "poolInfos",
      "outputs": [
        {
          "internalType": "contract IBEP20",
          "name": "token",
          "type": "address"
        },
        {
          "internalType": "uint256",
          "name": "allocPoint",
          "type": "uint256"
        },
        {
          "internalType": "uint256",
          "name": "lastRewardBlockOrSecond",
          "type": "uint256"
        },
        {
          "internalType": "uint256",
          "name": "accRewardPerShare",
          "type": "uint256"
        },
        {
          "internalType": "uint256",
          "name": "lockPeriod",
          "type": "uint256"
        }
      ],
      "payable": false,
      "stateMutability": "view",
      "type": "function"
    },
    {
      "constant": true,
      "inputs": [
        {
          "internalType": "address",
          "name": "rewardToken",
          "type": "address"
        }
      ],
      "name": "poolLength",
      "outputs": [
        {
          "internalType": "uint256",
          "name": "",
          "type": "uint256"
        }
      ],
      "payable": false,
      "stateMutability": "view",
      "type": "function"
    },
    {
      "constant": true,
      "inputs": [],
      "name": "primePoolId",
      "outputs": [
        {
          "internalType": "uint256",
          "name": "",
          "type": "uint256"
        }
      ],
      "payable": false,
      "stateMutability": "view",
      "type": "function"
    },
    {
      "constant": true,
      "inputs": [],
      "name": "primeRewardToken",
      "outputs": [
        {
          "internalType": "address",
          "name": "",
          "type": "address"
        }
      ],
      "payable": false,
      "stateMutability": "view",
      "type": "function"
    },
    {
      "constant": true,
      "inputs": [],
      "name": "primeToken",
      "outputs": [
        {
          "internalType": "contract IPrime",
          "name": "",
          "type": "address"
        }
      ],
      "payable": false,
      "stateMutability": "view",
      "type": "function"
    },
    {
      "constant": false,
      "inputs": [
        {
          "internalType": "address",
          "name": "_rewardToken",
          "type": "address"
        },
        {
          "internalType": "uint256",
          "name": "_pid",
          "type": "uint256"
        },
        {
          "internalType": "uint256",
          "name": "_amount",
          "type": "uint256"
        }
      ],
      "name": "requestWithdrawal",
      "outputs": [],
      "payable": false,
      "stateMutability": "nonpayable",
      "type": "function"
    },
    {
      "constant": false,
      "inputs": [],
      "name": "resume",
      "outputs": [],
      "payable": false,
      "stateMutability": "nonpayable",
      "type": "function"
    },
    {
      "constant": true,
      "inputs": [
        {
          "internalType": "address",
          "name": "_rewardToken",
          "type": "address"
        }
      ],
      "name": "rewardTokenAmountsPerBlock",
      "outputs": [
        {
          "internalType": "uint256",
          "name": "",
          "type": "uint256"
        }
      ],
      "payable": false,
      "stateMutability": "view",
      "type": "function"
    },
    {
      "constant": true,
      "inputs": [
        {
          "internalType": "address",
          "name": "",
          "type": "address"
        }
      ],
      "name": "rewardTokenAmountsPerBlockOrSecond",
      "outputs": [
        {
          "internalType": "uint256",
          "name": "",
          "type": "uint256"
        }
      ],
      "payable": false,
      "stateMutability": "view",
      "type": "function"
    },
    {
      "constant": false,
      "inputs": [
        {
          "internalType": "address",
          "name": "_rewardToken",
          "type": "address"
        },
        {
          "internalType": "uint256",
          "name": "_pid",
          "type": "uint256"
        },
        {
          "internalType": "uint256",
          "name": "_allocPoint",
          "type": "uint256"
        }
      ],
      "name": "set",
      "outputs": [],
      "payable": false,
      "stateMutability": "nonpayable",
      "type": "function"
    },
    {
      "constant": false,
      "inputs": [
        {
          "internalType": "address",
          "name": "newAccessControlAddress",
          "type": "address"
        }
      ],
      "name": "setAccessControl",
      "outputs": [],
      "payable": false,
      "stateMutability": "nonpayable",
      "type": "function"
    },
    {
      "constant": false,
      "inputs": [
        {
          "internalType": "contract IPrime",
          "name": "_primeToken",
          "type": "address"
        },
        {
          "internalType": "address",
          "name": "_primeRewardToken",
          "type": "address"
        },
        {
          "internalType": "uint256",
          "name": "_primePoolId",
          "type": "uint256"
        }
      ],
      "name": "setPrimeToken",
      "outputs": [],
      "payable": false,
      "stateMutability": "nonpayable",
      "type": "function"
    },
    {
      "constant": false,
      "inputs": [
        {
          "internalType": "address",
          "name": "_rewardToken",
          "type": "address"
        },
        {
          "internalType": "uint256",
          "name": "_rewardAmount",
          "type": "uint256"
        }
      ],
      "name": "setRewardAmountPerBlockOrSecond",
      "outputs": [],
      "payable": false,
      "stateMutability": "nonpayable",
      "type": "function"
    },
    {
      "constant": false,
      "inputs": [
        {
          "internalType": "address",
          "name": "_rewardToken",
          "type": "address"
        },
        {
          "internalType": "uint256",
          "name": "_pid",
          "type": "uint256"
        },
        {
          "internalType": "uint256",
          "name": "_newPeriod",
          "type": "uint256"
        }
      ],
      "name": "setWithdrawalLockingPeriod",
      "outputs": [],
      "payable": false,
      "stateMutability": "nonpayable",
      "type": "function"
    },
    {
      "constant": false,
      "inputs": [
        {
          "internalType": "address",
          "name": "_xvs",
          "type": "address"
        },
        {
          "internalType": "address",
          "name": "_xvsStore",
          "type": "address"
        }
      ],
      "name": "setXvsStore",
      "outputs": [],
      "payable": false,
      "stateMutability": "nonpayable",
      "type": "function"
    },
    {
      "constant": true,
      "inputs": [
        {
          "internalType": "address",
          "name": "",
          "type": "address"
        }
      ],
      "name": "totalAllocPoints",
      "outputs": [
        {
          "internalType": "uint256",
          "name": "",
          "type": "uint256"
        }
      ],
      "payable": false,
      "stateMutability": "view",
      "type": "function"
    },
    {
      "constant": false,
      "inputs": [
        {
          "internalType": "address",
          "name": "_rewardToken",
          "type": "address"
        },
        {
          "internalType": "uint256",
          "name": "_pid",
          "type": "uint256"
        }
      ],
      "name": "updatePool",
      "outputs": [],
      "payable": false,
      "stateMutability": "nonpayable",
      "type": "function"
    },
    {
      "constant": true,
      "inputs": [],
      "name": "vaultPaused",
      "outputs": [
        {
          "internalType": "bool",
          "name": "",
          "type": "bool"
        }
      ],
      "payable": false,
      "stateMutability": "view",
      "type": "function"
    },
    {
      "constant": true,
      "inputs": [],
      "name": "xvsAddress",
      "outputs": [
        {
          "internalType": "address",
          "name": "",
          "type": "address"
        }
      ],
      "payable": false,
      "stateMutability": "view",
      "type": "function"
    },
    {
      "constant": true,
      "inputs": [],
      "name": "xvsStore",
      "outputs": [
        {
          "internalType": "address",
          "name": "",
          "type": "address"
        }
      ],
      "payable": false,
      "stateMutability": "view",
      "type": "function"
    }
  ],
  "transactionHash": "0x254f83746c1f55941df93e584886fc025284b7c6b182739bc3308c2c296f1116",
  "args": [],
  "numDeployments": 1,
  "solcInputHash": "3f55265b125acaeb158ab51cda102275",
  "bytecode": "0x608060405234801561001057600080fd5b50600080546001600160a01b0319163317905561576c80620000336000396000f3fe608060405234801561001057600080fd5b506004361061035d5760003560e01c806392e35000116101d3578063c7ad089511610104578063e7a324dc116100a2578063f55401621161007c578063f554016214610704578063f851a4401461070c578063fba1b1f914610714578063fe5a451a146107275761035d565b8063e7a324dc146106d3578063e8f2be6f146106db578063f1127ed8146106e35761035d565b8063dae66bbe116100de578063dae66bbe146106a8578063de0368b2146106bb578063e1d146fb146106c3578063e6a69ab8146106cb5761035d565b8063c7ad08951461067a578063cd9b94e714610682578063d7ae45e2146106955761035d565b8063add8933711610171578063b6a5fd2f1161014b578063b6a5fd2f14610621578063c210259614610634578063c3c754a814610654578063c3cda520146106675761035d565b8063add89337146105f1578063b4a0bdf3146105f9578063b4b5ea571461060e5761035d565b80639e2b6c4d116101ad5780639e2b6c4d146105a5578063a09eab7a146105b8578063a6997762146105cb578063a9d69a69146105de5761035d565b806392e350001461054c57806398e1b31b14610570578063996cba68146105925761035d565b8063587cde1e116102ad57806373d025d61161024b5780637ecebe00116102255780637ecebe001461050b5780638308d7e91461051e5780638456cb59146105315780638ed7333d146105395761035d565b806373d025d6146104c3578063782d6fe1146104d85780637ac92456146104f85761035d565b80635ff56315116102875780635ff56315146104755780636857249c146104885780636dd77cbd146104905780636fcfff45146104a35761035d565b8063587cde1e146104475780635c19a95c1461045a5780635c60da1b1461046d5761035d565b806320606b701161031a5780632eda5c6c116102f45780632eda5c6c14610406578063358ae036146104195780633d4180f9146104215780634298bdbd146104345761035d565b806320606b70146103e157806324f52bbf146103e957806326782247146103fe5761035d565b8063046f7da2146103625780630af137281461036c5780630efe6a8b14610395578063115b512f146103a857806319129e5a146103bb5780631d504dc6146103ce575b600080fd5b61036a61072f565b005b61037f61037a3660046140a1565b6107ba565b60405161038c9190615091565b60405180910390f35b61036a6103a3366004614159565b610800565b61036a6103b6366004614159565b610af5565b61036a6103c9366004613fae565b610ea9565b61036a6103dc3660046142a0565b610edf565b61037f611010565b6103f1611027565b60405161038c9190614f2f565b6103f1611036565b61037f610414366004613fae565b611045565b6103f1611064565b61037f61042f366004613fea565b611073565b61037f610442366004613fae565b611090565b6103f1610455366004613fae565b6110a2565b61036a610468366004613fae565b6110bd565b6103f16110ea565b61036a610483366004613fea565b6110f9565b61037f6111ed565b61037f61049e3660046140a1565b6111f3565b6104b66104b1366004613fae565b6112a8565b60405161038c919061543f565b6104cb6112c0565b60405161038c9190615083565b6104eb6104e6366004614071565b6112c9565b60405161038c9190615468565b61036a610506366004614071565b6114df565b61037f610519366004613fae565b611828565b61036a61052c366004614159565b61183a565b61036a6119e0565b61036a610547366004614071565b611a65565b61055f61055a366004614071565b611aa0565b60405161038c9594939291906150fe565b61058361057e3660046140a1565b611af5565b60405161038c93929190615424565b61036a6105a0366004614024565b611b47565b61036a6105b3366004614159565b611cd9565b61037f6105c63660046140a1565b611dc4565b61036a6105d9366004614260565b612014565b61037f6105ec3660046140a1565b612048565b6103f161208a565b610601612099565b60405161038c91906150f0565b6104eb61061c366004613fae565b6120a8565b61036a61062f366004614071565b612118565b6106476106423660046140a1565b61223e565b60405161038c9190615072565b6104cb610662366004613fae565b6122f8565b61036a61067536600461418b565b61230d565b6104cb6124b1565b61037f610690366004613fae565b6124ba565b61037f6106a3366004613fae565b6124cc565b61036a6106b636600461427f565b6124e7565b6103f16125f3565b61037f612602565b61037f612620565b61037f612628565b61037f612634565b6106f66106f1366004614212565b61263a565b60405161038c92919061544d565b61037f61266f565b6103f1612677565b61036a6107223660046140e4565b612686565b61060161296b565b61075860405180604001604052806008815260200167726573756d65282960c01b81525061297a565b60135460ff166107835760405162461bcd60e51b815260040161077a906151bb565b60405180910390fd5b6013805460ff1916905560405133907fd2619572a1464e0df0bb351d834fd47f3350984d7bfdb1ab69cfcb0b8e42141590600090a2565b60006107c68484612a1c565b506001600160a01b0380841660009081526007602090815260408083208684528252808320938516835292905220600201545b9392505050565b600354600160a01b900460ff166108295760405162461bcd60e51b815260040161077a9061532b565b6003805460ff60a01b1916905560135460ff16156108595760405162461bcd60e51b815260040161077a906151ab565b6108638383612a1c565b6001600160a01b038316600090815260086020526040812080548490811061088757fe5b600091825260208083206001600160a01b038816845260078252604080852088865283528085203386529092529220600590910290910191506108ca8585612a53565b6108d5858533612048565b156108f25760405162461bcd60e51b815260040161077a906152cb565b8054156109675760006109058284612c30565b9050801561096557610918863383612c44565b84866001600160a01b0316336001600160a01b03167f865ca08d59f5cb456e85cd2f7ef63664ea4f73327414e9d8152c4158b0e946458460405161095c9190615091565b60405180910390a45b505b8154610984906001600160a01b031633308663ffffffff612ebd16565b8054610996908463ffffffff612f1e16565b81556109a28183612f60565b600182015560055482546001600160a01b0390811691161415610a0957336000908152600f60209081526040808320548151606081019092526021808352610a0994936001600160a01b0390921692610a049289929061560c90830139612f8e565b612fbd565b6017546001600160a01b038681169116148015610a27575060185484145b15610a8f576016546040516337f23cd360e01b81526001600160a01b03909116906337f23cd390610a5c903390600401614f3d565b600060405180830381600087803b158015610a7657600080fd5b505af1158015610a8a573d6000803e3d6000fd5b505050505b83856001600160a01b0316336001600160a01b03167fdcbc1c05240f31ff3ad067ef1ee35ce4997762752e3a095284754544f4c709d786604051610ad39190615091565b60405180910390a450506003805460ff60a01b1916600160a01b179055505050565b600354600160a01b900460ff16610b1e5760405162461bcd60e51b815260040161077a9061532b565b6003805460ff60a01b1916905560135460ff1615610b4e5760405162461bcd60e51b815260040161077a906151ab565b610b588383612a1c565b60008111610b785760405162461bcd60e51b815260040161077a906152eb565b6001600160a01b0383166000908152600760209081526040808320858452825280832033845290915290206002810154610bb8908363ffffffff612f1e16565b81541015610bd85760405162461bcd60e51b815260040161077a906153cb565b6001600160a01b0384166000908152600860205260408120805485908110610bfc57fe5b600091825260208083206001600160a01b0389168452600a825260408085208986528352808520338652909252908320600590920201925090610c3e8261314f565b5090508015610c5f5760405162461bcd60e51b815260040161077a906152cb565b610c698787612a53565b6000610c758585612c30565b9050610c82883383612c44565b6004840154600090610c9a904263ffffffff612f1e16565b9050610ca8868589846131f3565b6001600160a01b03891660009081526012602090815260408083208b8452909152902054610cdc908863ffffffff612f1e16565b6001600160a01b038a1660009081526012602090815260408083208c8452909152902055610d0a8686612f60565b600187015560055485546001600160a01b0390811691161415610d6d57336000908152600f6020908152604080832054815160608101909252602b808352610d6d946001600160a01b03909216939192610a04928d92906155b990830139612f8e565b6017546001600160a01b038a81169116148015610d8b575060185488145b15610df3576016546040516337f23cd360e01b81526001600160a01b03909116906337f23cd390610dc0903390600401614f3d565b600060405180830381600087803b158015610dda57600080fd5b505af1158015610dee573d6000803e3d6000fd5b505050505b87896001600160a01b0316336001600160a01b03167f865ca08d59f5cb456e85cd2f7ef63664ea4f73327414e9d8152c4158b0e9464585604051610e379190615091565b60405180910390a487896001600160a01b0316336001600160a01b03167f88a254a0ef28a0b9e957ff600beae69870f6f924065147f3627c3f814e60ec118a604051610e839190615091565b60405180910390a450506003805460ff60a01b1916600160a01b17905550505050505050565b6000546001600160a01b03163314610ed35760405162461bcd60e51b815260040161077a9061534b565b610edc816133d7565b50565b806001600160a01b031663f851a4406040518163ffffffff1660e01b815260040160206040518083038186803b158015610f1857600080fd5b505afa158015610f2c573d6000803e3d6000fd5b505050506040513d601f19601f82011682018060405250610f509190810190613fcc565b6001600160a01b0316336001600160a01b031614610f805760405162461bcd60e51b815260040161077a906153db565b806001600160a01b031663c1e803346040518163ffffffff1660e01b8152600401602060405180830381600087803b158015610fbb57600080fd5b505af1158015610fcf573d6000803e3d6000fd5b505050506040513d601f19601f82011682018060405250610ff391908101906142be565b15610edc5760405162461bcd60e51b815260040161077a9061535b565b60405161101c90614f19565b604051809103902081565b6004546001600160a01b031681565b6001546001600160a01b031681565b6001600160a01b0381166000908152600660205260409020545b919050565b6005546001600160a01b031681565b601560209081526000928352604080842090915290825290205481565b60096020526000908152604090205481565b600f602052600090815260409020546001600160a01b031681565b60135460ff16156110e05760405162461bcd60e51b815260040161077a906151ab565b610edc338261345c565b6002546001600160a01b031681565b6000546001600160a01b031633146111235760405162461bcd60e51b815260040161077a9061534b565b61112c826134eb565b611135816134eb565b6005546004546001600160a01b03918216911681156111665760405162461bcd60e51b815260040161077a9061528b565b600580546001600160a01b038087166001600160a01b03199283161790925560048054928616929091169190911790556003805460ff60a01b1916600160a01b1790556040517f559f314bb90394a4a9ceb724f365b36a53587d894352c43d12901fd680101456906111df908490849088908890614fae565b60405180910390a150505050565b60795481565b60006111ff8484612a1c565b6001600160a01b038085166000908152600a60209081526040808320878452825280832093861683529290522080545b60008111801561125f575061125f82600183038154811061124c57fe5b9060005260206000209060020201613511565b1561129f5761129482600183038154811061127657fe5b6000918252602090912060029091020154849063ffffffff612f1e16565b92506000190161122f565b50509392505050565b60116020526000908152604090205463ffffffff1681565b60135460ff1681565b60006112d3612602565b82106112f15760405162461bcd60e51b815260040161077a9061529b565b6001600160a01b03831660009081526011602052604090205463ffffffff168061131f5760009150506114d9565b6001600160a01b038416600090815260106020908152604080832063ffffffff60001986018116855292529091205416831061139b576001600160a01b03841660009081526010602090815260408083206000199490940163ffffffff1683529290522054600160201b90046001600160601b031690506114d9565b6001600160a01b038416600090815260106020908152604080832083805290915290205463ffffffff168310156113d65760009150506114d9565b600060001982015b8163ffffffff168163ffffffff16111561149957600282820363ffffffff16048103611408613f32565b506001600160a01b038716600090815260106020908152604080832063ffffffff858116855290835292819020815180830190925254928316808252600160201b9093046001600160601b03169181019190915290871415611474576020015194506114d99350505050565b805163ffffffff1687111561148b57819350611492565b6001820392505b50506113de565b506001600160a01b038516600090815260106020908152604080832063ffffffff909416835292905220546001600160601b03600160201b909104169150505b92915050565b600354600160a01b900460ff166115085760405162461bcd60e51b815260040161077a9061532b565b6003805460ff60a01b1916905560135460ff16156115385760405162461bcd60e51b815260040161077a906151ab565b6115428282612a1c565b6001600160a01b038216600090815260086020526040812080548390811061156657fe5b600091825260208083206001600160a01b038716808552600783526040808620888752845280862033808852908552818720928752600a85528187208988528552818720908752909352918420600590930201935091806115c78484613526565b9092509050811515806115da5750600081115b6115f65760405162461bcd60e51b815260040161077a9061536b565b811580611601575080155b61161d5760405162461bcd60e51b815260040161077a9061516b565b81156117365761162d8787612a53565b6000611673856001015461166764e8d4a5100061165b8a600301548a6000015461361d90919063ffffffff16565b9063ffffffff61365716565b9063ffffffff61369916565b6004805460405163135b33cd60e31b81529293506001600160a01b031691639ad99e68916116a7918c913391879101614f86565b600060405180830381600087803b1580156116c157600080fd5b505af11580156116d5573d6000803e3d6000fd5b505086546116ec925090508463ffffffff61369916565b808655600387015461170f9164e8d4a510009161165b919063ffffffff61361d16565b60018601558554611730906001600160a01b0316338563ffffffff6136db16565b506117ba565b8354611748908263ffffffff61369916565b84556001600160a01b038716600090815260126020908152604080832089845290915290205461177e908263ffffffff61369916565b6001600160a01b0380891660009081526012602090815260408083208b845290915290209190915585546117ba9116338363ffffffff6136db16565b856001600160a01b038816337fe31da05fae6db869f5ea51f4b638aa6884070b6c87f18f63bd2291a12cb2f5186117f7868663ffffffff612f1e16565b6040516118049190615091565b60405180910390a450506003805460ff60a01b1916600160a01b1790555050505050565b600e6020526000908152604090205481565b6118786040518060400160405280601c81526020017f73657428616464726573732c75696e743235362c75696e74323536290000000081525061297a565b6118828383612a1c565b61188b836136fd565b6001600160a01b038316600090815260086020526040812080549091906119049084906118f8908590889081106118be57fe5b60009182526020808320600160059093020191909101546001600160a01b038b16835260099091526040909120549063ffffffff61369916565b9063ffffffff612f1e16565b9050600081116119265760405162461bcd60e51b815260040161077a906153eb565b600082858154811061193457fe5b90600052602060002090600502016001015490508383868154811061195557fe5b9060005260206000209060050201600101819055508160096000886001600160a01b03166001600160a01b031681526020019081526020016000208190555084866001600160a01b03167f6ee09c6cb801194690c195c69f465aaf7c80255cbeafaab9600f47ed79de2ca983876040516119d0929190615416565b60405180910390a3505050505050565b611a08604051806040016040528060078152602001667061757365282960c81b81525061297a565b60135460ff1615611a2b5760405162461bcd60e51b815260040161077a9061524b565b6013805460ff1916600117905560405133907fdffada2889ebfab9224c24069d833f3de835d8cf99872d49e7b7ba5fccb7a46f90600090a2565b60135460ff1615611a885760405162461bcd60e51b815260040161077a906151ab565b611a928282612a1c565b611a9c8282612a53565b5050565b60086020528160005260406000208181548110611ab957fe5b6000918252602090912060059091020180546001820154600283015460038401546004909401546001600160a01b039093169550909350919085565b6000806000611b048686612a1c565b5050506001600160a01b03928316600090815260076020908152604080832094835293815283822092909416815292529020805460018201546002909201549092565b600354600160a01b900460ff16611b705760405162461bcd60e51b815260040161077a9061532b565b6003805460ff60a01b1916905560135460ff1615611ba05760405162461bcd60e51b815260040161077a906151ab565b611baa8282612a1c565b6001600160a01b0382166000908152600860205260408120805483908110611bce57fe5b600091825260208083206001600160a01b0380881685526007835260408086208887528452808620918a1686529252922060059091029091019150611c138484612a53565b611c1e848487612048565b15611c3b5760405162461bcd60e51b815260040161077a906152cb565b805415611cbf576000611c4e8284612c30565b90508015611cbd57611c608284612f60565b6001830155611c70858783612c44565b83856001600160a01b0316876001600160a01b03167f865ca08d59f5cb456e85cd2f7ef63664ea4f73327414e9d8152c4158b0e9464584604051611cb49190615091565b60405180910390a45b505b50506003805460ff60a01b1916600160a01b179055505050565b611cfa60405180606001604052806033815260200161566f6033913961297a565b611d048383612a1c565b600081118015611d1757506312cc030081105b611d335760405162461bcd60e51b815260040161077a9061537b565b6001600160a01b0383166000908152600860205260408120805484908110611d5757fe5b9060005260206000209060050201905060008160040154905082826004018190555083856001600160a01b03167f0bcf80c5060ccf99b7a993c57a94b232fc2c5c04bd74c7c7d174595fee6bc31f8386604051611db5929190615416565b60405180910390a35050505050565b6000611dd08484612a1c565b6001600160a01b0384166000908152600860205260408120805485908110611df457fe5b600091825260208083206001600160a01b03808a168086526007845260408087208b885285528087208a8416885285528087206003600590970290940195860154918752601285528087208b885290945283862054855494516370a0823160e01b8152959750929590949093611ecb939216906370a0823190611e7b903090600401614f2f565b60206040518083038186803b158015611e9357600080fd5b505afa158015611ea7573d6000803e3d6000fd5b505050506040513d601f19601f8201168201806040525061166791908101906142be565b90506000611ed7612602565b6001600160a01b038a1660009081526006602052604090205460028701549192509082118015611f0657508215155b15611f9c576000611f2487600201548461369990919063ffffffff16565b6001600160a01b038c1660009081526009602052604081205460018a01549293509091611f6c919061165b90611f60868863ffffffff61361d16565b9063ffffffff61361d16565b9050611f97611f8a8661165b8464e8d4a5100063ffffffff61361d16565b879063ffffffff612f1e16565b955050505b6001600160a01b03808b166000908152600a602090815260408083208d84528252808320938c16835292905290812090611fd58261314f565b915050612004876001015461166764e8d4a5100061165b8a611f60878e6000015461369990919063ffffffff16565b9c9b505050505050505050505050565b6000546001600160a01b0316331461203e5760405162461bcd60e51b815260040161077a9061534b565b611a9c8282613732565b6001600160a01b038084166000908152600a60209081526040808320868452825280832093851683529290529081206120808161314f565b5095945050505050565b6017546001600160a01b031681565b6047546001600160a01b031690565b6001600160a01b03811660009081526011602052604081205463ffffffff16806120d35760006107f9565b6001600160a01b0383166000908152601060209081526040808320600019850163ffffffff168452909152902054600160201b90046001600160601b03169392505050565b6121396040518060600160405280603081526020016156ce6030913961297a565b60048054604051633d6ac5b360e21b81526001600160a01b039091169163f5ab16cc9161216891869101614f2f565b60206040518083038186803b15801561218057600080fd5b505afa158015612194573d6000803e3d6000fd5b505050506040513d601f19601f820116820180604052506121b89190810190614242565b6121d45760405162461bcd60e51b815260040161077a9061533b565b6121dd826136fd565b6001600160a01b0382166000818152600660205260409081902080549084905590519091907fad96cee0d692f0250b98e085504f399da6733854908215f6203fe3c69366d9f5906122319084908690615416565b60405180910390a2505050565b606061224a8484612a1c565b6001600160a01b038085166000908152600a602090815260408083208784528252808320938616835292815282822080548451818402810184019095528085529092909184015b828210156122eb5760008481526020908190206040805160608101825260028602909201805483526001908101546001600160801b0380821685870152600160801b90910416918301919091529083529092019101612291565b5050505090509392505050565b60146020526000908152604090205460ff1681565b60135460ff16156123305760405162461bcd60e51b815260040161077a906151ab565b600060405161233e90614f19565b604080519182900382208282019091526008825267161594d5985d5b1d60c21b6020909201919091527fddfcc46608a8bd52ebf900f03a24cc97b73a6046cec8c5d0f74a211e376e967a612390613816565b306040516020016123a494939291906150ad565b60405160208183030381529060405280519060200120905060006040516123ca90614f24565b6040519081900381206123e5918a908a908a9060200161509f565b60405160208183030381529060405280519060200120905060008282604051602001612412929190614ee8565b60405160208183030381529060405280519060200120905060006124388288888861381a565b6001600160a01b0381166000908152600e60205260409020805460018101909155909150891461247a5760405162461bcd60e51b815260040161077a9061521b565b8742111561249a5760405162461bcd60e51b815260040161077a906151fb565b6124a4818b61345c565b505050505b505050505050565b607a5460ff1681565b60066020526000908152604090205481565b6001600160a01b031660009081526008602052604090205490565b6000546001600160a01b031633146125115760405162461bcd60e51b815260040161077a9061534b565b6001600160a01b0383166125375760405162461bcd60e51b815260040161077a9061520b565b6001600160a01b03821661255d5760405162461bcd60e51b815260040161077a906152ab565b6125678282612a1c565b6016546017546018546040516001600160a01b03808816948116937f8def9436d6e31b89ed00948ba91d0cb6936eada5154cb1b45b55683fb9e49237936125b693919092169188918890615007565b60405180910390a3601680546001600160a01b039485166001600160a01b0319918216179091556017805493909416921691909117909155601855565b6003546001600160a01b031681565b60a95460009061261b908015613f49021763ffffffff16565b905090565b6301e1338081565b60405161101c90614f24565b60185481565b601060209081526000928352604080842090915290825290205463ffffffff811690600160201b90046001600160601b031682565b6312cc030081565b6000546001600160a01b031681565b6126a76040518060600160405280602c81526020016156fe602c913961297a565b6126b0856134eb565b6126b9836134eb565b6004546001600160a01b03166126e15760405162461bcd60e51b815260040161077a9061518b565b600084116127015760405162461bcd60e51b815260040161077a9061538b565b61270a856136fd565b6001600160a01b0385166000908152600860205260408120805490915b8181101561278557856001600160a01b031683828154811061274557fe5b60009182526020909120600590910201546001600160a01b0316141561277d5760405162461bcd60e51b815260040161077a9061530b565b600101612727565b506001600160a01b03851660009081526014602052604090205460ff16156127bf5760405162461bcd60e51b815260040161077a9061527b565b6001600160a01b0387166000908152600960205260409020546127e8908763ffffffff612f1e16565b6001600160a01b038089166000908152600960209081526040808320949094556006815290839020879055825160a0810184529188168252810188905283918101612831612602565b8152600060208083018290526040928301889052845460018082018755958352818320855160059092020180546001600160a01b0319166001600160a01b039283161781558583015181880155858501516002820155606086015160038201556080909501516004958601558a81168352601490915290829020805460ff1916851790558254915163fb66fb4d60e01b815291169263fb66fb4d926128d9928c92910161503c565b600060405180830381600087803b1580156128f357600080fd5b505af1158015612907573d6000803e3d6000fd5b50505050846001600160a01b03166001838054905003886001600160a01b03167fd7fa4bff1cd2253c0789c3291a786a6f6b1a3b4569a75af683a15d52abb6a0bf89888860405161295a93929190615424565b60405180910390a450505050505050565b6016546001600160a01b031681565b6047546040516318c5e8ab60e01b81526000916001600160a01b0316906318c5e8ab906129ad9033908690600401614f4b565b60206040518083038186803b1580156129c557600080fd5b505afa1580156129d9573d6000803e3d6000fd5b505050506040513d601f19601f820116820180604052506129fd9190810190614242565b905080611a9c5760405162461bcd60e51b815260040161077a906151cb565b6001600160a01b0382166000908152600860205260409020548110611a9c5760405162461bcd60e51b815260040161077a9061517b565b6001600160a01b0382166000908152600860205260408120805483908110612a7757fe5b906000526020600020906005020190508060020154612a94612602565b11612a9f5750611a9c565b80546040516370a0823160e01b81526000916001600160a01b0316906370a0823190612acf903090600401614f2f565b60206040518083038186803b158015612ae757600080fd5b505afa158015612afb573d6000803e3d6000fd5b505050506040513d601f19601f82011682018060405250612b1f91908101906142be565b6001600160a01b0385166000908152601260209081526040808320878452909152902054909150612b5790829063ffffffff61369916565b905080612b7557612b66612602565b82600201819055505050611a9c565b6000612b7f612602565b90506000612b9a84600201548361369990919063ffffffff16565b6001600160a01b03871660009081526009602090815260408083205460018901546006909352908320549394509192612be3929161165b91611f6090879063ffffffff61361d16565b9050612c12612c018561165b8464e8d4a5100063ffffffff61361d16565b60038701549063ffffffff612f1e16565b6003860155612c1f612602565b856002018190555050505050505050565b60006107f983600101546116678585612f60565b600480546040516370a0823160e01b81526001600160a01b03918216926000928716916370a0823191612c7991869101614f2f565b60206040518083038186803b158015612c9157600080fd5b505afa158015612ca5573d6000803e3d6000fd5b505050506040513d601f19601f82011682018060405250612cc991908101906142be565b6001600160a01b038087166000908152601560209081526040808320938916835292905290812054919250612d04858363ffffffff612f1e16565b9050828111612de2578115612d77576001600160a01b038088166000818152601560209081526040808320948b1680845294909152808220829055517f6bdfd5e51d01475945224d3d37965916fd8df699ef9e8888af4359aa8622216091612d6e918791906153fb565b60405180910390a35b60405163135b33cd60e31b81526001600160a01b03851690639ad99e6890612da7908a908a908690600401614fec565b600060405180830381600087803b158015612dc157600080fd5b505af1158015612dd5573d6000803e3d6000fd5b5050505050505050612eb8565b6001600160a01b038088166000818152601560209081526040808320948b168084529490915290819020868503908190559051909291907f6bdfd5e51d01475945224d3d37965916fd8df699ef9e8888af4359aa8622216090612e489087908690615416565b60405180910390a360405163135b33cd60e31b81526001600160a01b03861690639ad99e6890612e80908b908b908990600401614fec565b600060405180830381600087803b158015612e9a57600080fd5b505af1158015612eae573d6000803e3d6000fd5b5050505050505050505b505050565b604051612f189085906323b872dd60e01b90612ee190879087908790602401614fec565b60408051601f198184030181529190526020810180516001600160e01b03166001600160e01b031990931692909217909152613844565b50505050565b60006107f983836040518060400160405280601b81526020017f536166654d6174683a206164646974696f6e206f766572666c6f770000000000815250613929565b60006107f964e8d4a5100061165b8460030154611f608760020154886000015461369990919063ffffffff16565b600081600160601b8410612fb55760405162461bcd60e51b815260040161077a919061514a565b509192915050565b816001600160a01b0316836001600160a01b031614158015612fe857506000816001600160601b0316115b15612eb8576001600160a01b038316156130a0576001600160a01b03831660009081526011602052604081205463ffffffff169081613028576000613067565b6001600160a01b0385166000908152601060209081526040808320600019860163ffffffff168452909152902054600160201b90046001600160601b03165b9050600061308e82856040518060600160405280602c81526020016156a2602c9139613959565b905061309c86848484613998565b5050505b6001600160a01b03821615612eb8576001600160a01b03821660009081526011602052604081205463ffffffff1690816130db57600061311a565b6001600160a01b0384166000908152601060209081526040808320600019860163ffffffff168452909152902054600160201b90046001600160601b03165b9050600061314182856040518060600160405280602b815260200161558e602b9139613b54565b90506124a985848484613998565b805460009081905b80156131ed5783600182038154811061316c57fe5b6000918252602090912060016002909202018101546001600160801b03600160801b9091041614156131cf576131c88460018303815481106131aa57fe5b6000918252602090912060029091020154839063ffffffff612f1e16565b91506131e4565b6131e184600183038154811061127657fe5b92505b60001901613157565b50915091565b8254604080516060810182526000808252602080830182815260019484018581528587018a5589845291909220925160028602909301928355905191909201805492516001600160801b03908116600160801b029281166001600160801b0319909416939093179092161790555b60008111801561329c57508184600183038154811061327c57fe5b60009182526020909120600160029092020101546001600160801b031611155b15613323578360018203815481106132b057fe5b90600052602060002090600202018482815481106132ca57fe5b600091825260209091208254600290920201908155600191820180549290910180546001600160801b0319166001600160801b03938416178082559154600160801b908190048416029190921617905560001901613261565b604051806060016040528084815260200161333d84613b87565b6001600160801b0316815260200160016001600160801b031681525084828154811061336557fe5b60009182526020918290208351600292830290910190815591830151600190920180546040909401516001600160801b03199094166001600160801b03938416178316600160801b93909416929092029290921790558501546133c89084612f1e565b85600201819055505050505050565b6001600160a01b0381166133fd5760405162461bcd60e51b815260040161077a9061525b565b604780546001600160a01b038381166001600160a01b03198316179092556040519116907f66fd58e82f7b31a2a5c30e0888f3093efe4e111b00cd2b0c31fe014601293aa0906134509083908590614f6b565b60405180910390a15050565b6001600160a01b038083166000908152600f60205260408120549091169061348384613bb0565b6001600160a01b038581166000818152600f602052604080822080546001600160a01b031916898616908117909155905194955093928616927f0cc323ffec3ea49cbcddc0de1480978126d350c6a45dff33ad2f1cda6ae992619190a4612f18828483612fbd565b6001600160a01b038116610edc5760405162461bcd60e51b815260040161077a906152bb565b60010154426001600160801b03909116111590565b805460009081905b60008111801561354b575061354b84600183038154811061124c57fe5b156135ec5783600182038154811061355f57fe5b6000918252602090912060016002909202018101546001600160801b03600160801b9091041614156135a45761359d8460018303815481106131aa57fe5b91506135b9565b6135b684600183038154811061127657fe5b92505b838054806135c357fe5b60008281526020812060001992830160028102909101828155600101919091559091550161352e565b50613611613600828463ffffffff612f1e16565b60028601549063ffffffff61369916565b60028501559250929050565b60008261362c575060006114d9565b8282028284828161363957fe5b04146107f95760405162461bcd60e51b815260040161077a906152fb565b60006107f983836040518060400160405280601a81526020017f536166654d6174683a206469766973696f6e206279207a65726f000000000000815250613cc6565b60006107f983836040518060400160405280601e81526020017f536166654d6174683a207375627472616374696f6e206f766572666c6f770000815250613cfd565b604051612eb890849063a9059cbb60e01b90612ee19086908690602401615057565b6001600160a01b038116600090815260086020526040812054905b81811015612eb85761372a8382612a53565b600101613718565b607a54610100900460ff161561375a5760405162461bcd60e51b815260040161077a9061539b565b81158015613766575080155b156137835760405162461bcd60e51b815260040161077a9061531b565b81801561378f57508015155b156137ac5760405162461bcd60e51b815260040161077a9061523b565b607a805460ff1916831515179055816137c557806137cb565b6301e133805b607955816137db57613d216137df565b613d255b60a9805467ffffffffffffffff9290921667ffffffffffffffff199092169190911790555050607a805461ff001916610100179055565b4690565b600080600061382b87878787613d29565b9150915061383881613e09565b5090505b949350505050565b613856826001600160a01b0316613ed2565b6138725760405162461bcd60e51b815260040161077a906153bb565b60006060836001600160a01b03168360405161388e9190614edc565b6000604051808303816000865af19150503d80600081146138cb576040519150601f19603f3d011682016040523d82523d6000602084013e6138d0565b606091505b5091509150816138f25760405162461bcd60e51b815260040161077a906153ab565b805115612f18578080602001905161390d9190810190614242565b612f185760405162461bcd60e51b815260040161077a906151eb565b600083830182858210156139505760405162461bcd60e51b815260040161077a919061514a565b50949350505050565b6000836001600160601b0316836001600160601b0316111582906139905760405162461bcd60e51b815260040161077a919061514a565b505050900390565b60006139c36139a5612602565b60405180608001604052806042815260200161562d60429139613f0b565b905060008463ffffffff16118015613a0c57506001600160a01b038516600090815260106020908152604080832063ffffffff6000198901811685529252909120548282169116145b15613a6b576001600160a01b0385166000908152601060209081526040808320600019880163ffffffff168452909152902080546fffffffffffffffffffffffff000000001916600160201b6001600160601b03851602179055613b0a565b60408051808201825263ffffffff80841682526001600160601b0380861660208085019182526001600160a01b038b166000818152601083528781208c871682528352878120965187549451909516600160201b026fffffffffffffffffffffffff000000001995871663ffffffff19958616179590951694909417909555938252601190935292909220805460018801909316929091169190911790555b846001600160a01b03167f6adb589fed1e8542fb7a6b10f00a85e02265e77f9ae3ca8ff93b22983e1af9a08484604051613b45929190615476565b60405180910390a25050505050565b6000838301826001600160601b0380871690831610156139505760405162461bcd60e51b815260040161077a919061514a565b6000600160801b8210613bac5760405162461bcd60e51b815260040161077a9061522b565b5090565b6005546000906001600160a01b0316613bdb5760405162461bcd60e51b815260040161077a906151db565b6005546001600160a01b03166000908152600860205260408120805490915b81811015613cbb5760055483546001600160a01b0390911690849083908110613c1f57fe5b60009182526020909120600590910201546001600160a01b03161415613cb3576005546001600160a01b039081166000908152600760209081526040808320858452825280832093891683529290522060028101548154613ca891613c8a919063ffffffff61369916565b6040518060600160405280602881526020016155e460289139612f8e565b94505050505061105f565b600101613bfa565b506000949350505050565b60008183613ce75760405162461bcd60e51b815260040161077a919061514a565b506000838581613cf357fe5b0495945050505050565b600081848411156139905760405162461bcd60e51b815260040161077a919061514a565b4390565b4290565b6000807f7fffffffffffffffffffffffffffffff5d576e7357a4501ddfe92f46681b20a0831115613d605750600090506003613e00565b8460ff16601b14158015613d7857508460ff16601c14155b15613d895750600090506004613e00565b600060018787878760405160008152602001604052604051613dae94939291906150d5565b6020604051602081039080840390855afa158015613dd0573d6000803e3d6000fd5b5050604051601f1901519150506001600160a01b038116613df957506000915060019050613e00565b9150600090505b94509492505050565b6000816004811115613e1757fe5b1415613e2257610edc565b6001816004811115613e3057fe5b1415613e4e5760405162461bcd60e51b815260040161077a9061515b565b6002816004811115613e5c57fe5b1415613e7a5760405162461bcd60e51b815260040161077a9061519b565b6003816004811115613e8857fe5b1415613ea65760405162461bcd60e51b815260040161077a9061526b565b6004816004811115613eb457fe5b1415610edc5760405162461bcd60e51b815260040161077a906152db565b6000813f7fc5d2460186f7233c927e7db2dcc703c0e500b653ca82273b7bfad8045d85a47081811480159061383c575050151592915050565b600081600160201b8410612fb55760405162461bcd60e51b815260040161077a919061514a565b604080518082019091526000808252602082015290565bfe5b80356114d98161554c565b80516114d98161554c565b80356114d981615560565b80516114d981615560565b80356114d981615569565b80356114d981615572565b80516114d981615569565b80356114d98161557b565b80356114d981615584565b600060208284031215613fc057600080fd5b600061383c8484613f4b565b600060208284031215613fde57600080fd5b600061383c8484613f56565b60008060408385031215613ffd57600080fd5b60006140098585613f4b565b925050602061401a85828601613f4b565b9150509250929050565b60008060006060848603121561403957600080fd5b60006140458686613f4b565b935050602061405686828701613f4b565b925050604061406786828701613f77565b9150509250925092565b6000806040838503121561408457600080fd5b60006140908585613f4b565b925050602061401a85828601613f77565b6000806000606084860312156140b657600080fd5b60006140c28686613f4b565b93505060206140d386828701613f77565b925050604061406786828701613f4b565b600080600080600060a086880312156140fc57600080fd5b60006141088888613f4b565b955050602061411988828901613f77565b945050604061412a88828901613f82565b935050606061413b88828901613f77565b925050608061414c88828901613f77565b9150509295509295909350565b60008060006060848603121561416e57600080fd5b600061417a8686613f4b565b935050602061405686828701613f77565b60008060008060008060c087890312156141a457600080fd5b60006141b08989613f4b565b96505060206141c189828a01613f77565b95505060406141d289828a01613f77565b94505060606141e389828a01613fa3565b93505060806141f489828a01613f77565b92505060a061420589828a01613f77565b9150509295509295509295565b6000806040838503121561422557600080fd5b60006142318585613f4b565b925050602061401a85828601613f98565b60006020828403121561425457600080fd5b600061383c8484613f6c565b6000806040838503121561427357600080fd5b60006140908585613f61565b60008060006060848603121561429457600080fd5b60006140458686613f82565b6000602082840312156142b257600080fd5b600061383c8484613f82565b6000602082840312156142d057600080fd5b600061383c8484613f8d565b60006142e88383614e7c565b505060600190565b6142f9816154f5565b82525050565b6142f9816154a4565b600061431382615497565b61431d818561549b565b935061432883615491565b8060005b8381101561435657815161434088826142dc565b975061434b83615491565b92505060010161432c565b509495945050505050565b6142f9816154af565b6142f9816154b4565b6142f961437f826154b4565b6154b4565b600061438f82615497565b614399818561105f565b93506143a9818560208601615516565b9290920192915050565b6142f9816154b7565b6142f981615500565b60006143d082615497565b6143da818561549b565b93506143ea818560208601615516565b6143f381615542565b9093019392505050565b600061440a60188361549b565b7f45434453413a20696e76616c6964207369676e61747572650000000000000000815260200192915050565b600061444360128361549b565b71696e636f6e73697374656e7420737461746560701b815260200192915050565b600061447160138361549b565b727661756c743a20706f6f6c206578697374733f60681b815260200192915050565b60006144a0601f8361549b565b7f53746f726520636f6e7472616374206164647265737320697320656d70747900815260200192915050565b60006144d9601f8361549b565b7f45434453413a20696e76616c6964207369676e6174757265206c656e67746800815260200192915050565b6000614512600f8361549b565b6e15985d5b1d081a5cc81c185d5cd959608a1b815260200192915050565b600061453d60138361549b565b7215985d5b1d081a5cc81b9bdd081c185d5cd959606a1b815260200192915050565b600061456c600c8361549b565b6b155b985d5d1a1bdc9a5e995960a21b815260200192915050565b600061459460308361549b565b7f5856535661756c743a3a6765745374616b65416d6f756e743a2078767320616481526f191c995cdcc81a5cc81b9bdd081cd95d60821b602082015260400192915050565b60006145e6602a8361549b565b7f5361666542455032303a204245503230206f7065726174696f6e20646964206e8152691bdd081cdd58d8d9595960b21b602082015260400192915050565b6000614632602a8361549b565b7f5856535661756c743a3a64656c656761746542795369673a207369676e6174758152691c9948195e1c1a5c995960b21b602082015260400192915050565b600061467e60228361549b565b7f7072696d6520746f6b656e2063616e6e6f74206265207a65726f206164647265815261737360f01b602082015260400192915050565b60006146c260268361549b565b7f5856535661756c743a3a64656c656761746542795369673a20696e76616c6964815265206e6f6e636560d01b602082015260400192915050565b600061470a60028361105f565b61190160f01b815260020192915050565b600061472860278361549b565b7f53616665436173743a2076616c756520646f65736e27742066697420696e20318152663238206269747360c81b602082015260400192915050565b600061477160208361549b565b7f496e76616c69642074696d6520626173656420636f6e66696775726174696f6e815260200192915050565b60006147aa60178361549b565b7f5661756c7420697320616c726561647920706175736564000000000000000000815260200192915050565b60006147e360258361549b565b7f696e76616c696420616365737320636f6e74726f6c206d616e61676572206164815264647265737360d81b602082015260400192915050565b600061482a60228361549b565b7f45434453413a20696e76616c6964207369676e6174757265202773272076616c815261756560f01b602082015260400192915050565b600061486e601a8361549b565b7f546f6b656e2065786973747320696e206f7468657220706f6f6c000000000000815260200192915050565b60006148a760138361549b565b72185b1c9958591e481a5b9a5d1a585b1a5e9959606a1b815260200192915050565b60006148d6602b8361549b565b7f5856535661756c743a3a6765745072696f72566f7465733a206e6f742079657481526a0819195d195c9b5a5b995960aa1b602082015260400192915050565b6000614923601d8361549b565b7f7265776172642063616e6e6f74206265207a65726f2061646472657373000000815260200192915050565b600061495c60188361549b565b7f7a65726f2061646472657373206e6f7420616c6c6f7765640000000000000000815260200192915050565b6000614995601a8361549b565b7f657865637574652070656e64696e67207769746864726177616c000000000000815260200192915050565b60006149ce60228361549b565b7f45434453413a20696e76616c6964207369676e6174757265202776272076616c815261756560f01b602082015260400192915050565b6000614a1260438361105f565b7f454950373132446f6d61696e28737472696e67206e616d652c75696e7432353681527f20636861696e49642c6164647265737320766572696679696e67436f6e74726160208201526263742960e81b604082015260430192915050565b6000614a7d601f8361549b565b7f72657175657374656420616d6f756e742063616e6e6f74206265207a65726f00815260200192915050565b6000614ab660218361549b565b7f536166654d6174683a206d756c7469706c69636174696f6e206f766572666c6f8152607760f81b602082015260400192915050565b6000614af960128361549b565b71141bdbdb08185b1c9958591e48185919195960721b815260200192915050565b6000614b2760178361549b565b7f496e76616c696420626c6f636b73207065722079656172000000000000000000815260200192915050565b6000614b60600a8361549b565b691c994b595b9d195c995960b21b815260200192915050565b6000614b8660148361549b565b7324b73b30b634b2103932bbb0b932103a37b5b2b760611b815260200192915050565b6000614bb6600e8361549b565b6d37b7363c9030b236b4b71031b0b760911b815260200192915050565b6000614be060158361549b565b7418da185b99d9481b9bdd08185d5d1a1bdc9a5e9959605a1b815260200192915050565b6000614c1160138361549b565b726e6f7468696e6720746f20776974686472617760681b815260200192915050565b6000614c40601a8361549b565b7f496e76616c6964206e6577206c6f636b696e6720706572696f64000000000000815260200192915050565b6000614c79601d8361549b565b7f416c6c6f6320706f696e7473206d757374206e6f74206265207a65726f000000815260200192915050565b6000614cb2601f8361549b565b7f416c726561647920696e697469616c697a65642054696d654d616e6167657200815260200192915050565b6000614ceb60208361549b565b7f5361666542455032303a206c6f772d6c6576656c2063616c6c206661696c6564815260200192915050565b6000614d24603a8361105f565b7f44656c65676174696f6e28616464726573732064656c6567617465652c75696e81527f74323536206e6f6e63652c75696e7432353620657870697279290000000000006020820152603a0192915050565b6000614d83601f8361549b565b7f5361666542455032303a2063616c6c20746f206e6f6e2d636f6e747261637400815260200192915050565b6000614dbc601b8361549b565b7f72657175657374656420616d6f756e7420697320696e76616c69640000000000815260200192915050565b6000614df560228361549b565b7f6f6e6c792070726f78792061646d696e2063616e206368616e676520627261698152616e7360f01b602082015260400192915050565b6000614e39602e8361549b565b7f416c6c6f6320706f696e7473207065722072657761726420746f6b656e206d7581526d7374206e6f74206265207a65726f60901b602082015260400192915050565b80516060830190614e8d848261436a565b506020820151614ea06020850182614eaf565b506040820151612f1860408501825b6142f9816154c2565b6142f9816154da565b6142f9816154e3565b6142f98161550b565b6142f9816154e9565b60006107f98284614384565b6000614ef3826146fd565b9150614eff8285614373565b602082019150614f0f8284614373565b5060200192915050565b60006114d982614a05565b60006114d982614d17565b602081016114d982846142ff565b602081016114d982846142f0565b60408101614f5982856142f0565b818103602083015261383c81846143c5565b60408101614f7982856142ff565b6107f960208301846142ff565b60608101614f9482866142ff565b614fa160208301856142f0565b61383c604083018461436a565b60808101614fbc82876142ff565b614fc960208301866142ff565b614fd660408301856142ff565b614fe360608301846142ff565b95945050505050565b60608101614ffa82866142ff565b614fa160208301856142ff565b6080810161501582876142ff565b61502260208301866142ff565b61502f604083018561436a565b614fe3606083018461436a565b6040810161504a82856142ff565b6107f96020830184614361565b6040810161506582856142ff565b6107f9602083018461436a565b602080825281016107f98184614308565b602081016114d98284614361565b602081016114d9828461436a565b60808101615015828761436a565b608081016150bb828761436a565b6150c8602083018661436a565b614fd6604083018561436a565b608081016150e3828761436a565b6150226020830186614ec1565b602081016114d982846143b3565b60a0810161510c82886143b3565b615119602083018761436a565b615126604083018661436a565b615133606083018561436a565b615140608083018461436a565b9695505050505050565b602080825281016107f981846143c5565b602080825281016114d9816143fd565b602080825281016114d981614436565b602080825281016114d981614464565b602080825281016114d981614493565b602080825281016114d9816144cc565b602080825281016114d981614505565b602080825281016114d981614530565b602080825281016114d98161455f565b602080825281016114d981614587565b602080825281016114d9816145d9565b602080825281016114d981614625565b602080825281016114d981614671565b602080825281016114d9816146b5565b602080825281016114d98161471b565b602080825281016114d981614764565b602080825281016114d98161479d565b602080825281016114d9816147d6565b602080825281016114d98161481d565b602080825281016114d981614861565b602080825281016114d98161489a565b602080825281016114d9816148c9565b602080825281016114d981614916565b602080825281016114d98161494f565b602080825281016114d981614988565b602080825281016114d9816149c1565b602080825281016114d981614a70565b602080825281016114d981614aa9565b602080825281016114d981614aec565b602080825281016114d981614b1a565b602080825281016114d981614b53565b602080825281016114d981614b79565b602080825281016114d981614ba9565b602080825281016114d981614bd3565b602080825281016114d981614c04565b602080825281016114d981614c33565b602080825281016114d981614c6c565b602080825281016114d981614ca5565b602080825281016114d981614cde565b602080825281016114d981614d76565b602080825281016114d981614daf565b602080825281016114d981614de8565b602080825281016114d981614e2c565b60408101615409828561436a565b6107f960208301846143bc565b60408101615065828561436a565b60608101615432828661436a565b614fa1602083018561436a565b602081016114d98284614eb8565b6040810161545b8285614eb8565b6107f96020830184614ed3565b602081016114d98284614ed3565b604081016154848285614eca565b6107f96020830184614eca565b60200190565b5190565b90815260200190565b60006114d9826154ce565b151590565b90565b60006114d9826154a4565b6001600160801b031690565b6001600160a01b031690565b63ffffffff1690565b60ff1690565b6001600160601b031690565b60006114d9826154b7565b60006114d9826154b4565b60006114d9826154e9565b60005b83811015615531578181015183820152602001615519565b83811115612f185750506000910152565b601f01601f191690565b615555816154a4565b8114610edc57600080fd5b615555816154af565b615555816154b4565b615555816154b7565b615555816154da565b615555816154e356fe5856535661756c743a3a5f6d6f7665566f7465733a20766f746520616d6f756e74206f766572666c6f77735856535661756c743a3a726571756573745769746864726177616c3a20766f746573206f766572666c6f775856535661756c743a3a6765745374616b65416d6f756e743a20766f746573206f766572666c6f775856535661756c743a3a6465706f7369743a20766f746573206f766572666c6f775856535661756c743a3a5f7772697465436865636b706f696e743a20626c6f636b206e756d626572206f72207365636f6e64206578636565647320333220626974737365745769746864726177616c4c6f636b696e67506572696f6428616464726573732c75696e743235362c75696e74323536295856535661756c743a3a5f6d6f7665566f7465733a20766f746520616d6f756e7420756e646572666c6f7773736574526577617264416d6f756e74506572426c6f636b4f725365636f6e6428616464726573732c75696e743235362961646428616464726573732c75696e743235362c616464726573732c75696e743235362c75696e7432353629a365627a7a72315820893dbdbb8a9d58318eee52d039353c97e46ee215d21cb37c37893d714b63cb506c6578706572696d656e74616cf564736f6c63430005100040",
  "devdoc": {
    "author": "Venus",
    "methods": {
      "add(address,uint256,address,uint256,uint256)": {
        "details": "This vault DOES NOT support deflationary tokens  it expects that  the amount of transferred tokens would equal the actually deposited  amount. In practice this means that this vault DOES NOT support USDT  and similar tokens (that do not provide these guarantees).",
        "params": {
          "_allocPoint": "Number of allocation points assigned to this pool",
          "_lockPeriod": "A period between withdrawal request and a moment when it's executable",
          "_rewardPerBlockOrSecond": "Initial reward per block or second, in terms of _rewardToken",
          "_rewardToken": "Reward token address",
          "_token": "Staked token"
        }
      },
      "claim(address,address,uint256)": {
        "params": {
          "_account": "The account for which to claim rewards",
          "_pid": "The Pool Index",
          "_rewardToken": "The Reward Token Address"
        }
      },
      "delegate(address)": {
        "params": {
          "delegatee": "The address to delegate votes to"
        }
      },
      "delegateBySig(address,uint256,uint256,uint8,bytes32,bytes32)": {
        "params": {
          "delegatee": "The address to delegate votes to",
          "expiry": "The time at which to expire the signature",
          "nonce": "The contract state required to match the signature",
          "r": "Half of the ECDSA signature pair",
          "s": "Half of the ECDSA signature pair",
          "v": "The recovery byte of the signature"
        }
      },
      "deposit(address,uint256,uint256)": {
        "params": {
          "_amount": "The amount to deposit to vault",
          "_pid": "The Pool Index",
          "_rewardToken": "The Reward Token Address"
        }
      },
      "executeWithdrawal(address,uint256)": {
        "params": {
          "_pid": "The Pool Index",
          "_rewardToken": "The Reward Token Address"
        }
      },
      "getBlockNumberOrTimestamp()": {
        "details": "Function to simply retrieve block number or block timestamp",
        "return": "Current block number or block timestamp"
      },
      "getCurrentVotes(address)": {
        "params": {
          "account": "The address to get votes balance"
        },
        "return": "The number of current votes for `account`"
      },
      "getEligibleWithdrawalAmount(address,uint256,address)": {
        "params": {
          "_pid": "The Pool Index",
          "_rewardToken": "The Reward Token Address",
          "_user": "The User Address"
        },
        "return": "withdrawalAmount Amount that the user can withdraw"
      },
      "getPriorVotes(address,uint256)": {
        "params": {
          "account": "The address of the account to check",
          "blockNumberOrSecond": "The block number or second to get the vote balance at"
        },
        "return": "The balance that user staked"
      },
      "getRequestedAmount(address,uint256,address)": {
        "params": {
          "_pid": "The Pool Index",
          "_rewardToken": "The Reward Token Address",
          "_user": "The User Address"
        },
        "return": "Total amount of requested but not yet executed withdrawals (including both executable and locked ones)"
      },
      "getUserInfo(address,uint256,address)": {
        "params": {
          "_pid": "Pool index",
          "_rewardToken": "Reward token address",
          "_user": "User address"
        },
        "return": "amount Deposited amountrewardDebt Reward debt (technical value used to track past payouts)pendingWithdrawals Requested but not yet executed withdrawals"
      },
      "getWithdrawalRequests(address,uint256,address)": {
        "params": {
          "_pid": "The Pool Index",
          "_rewardToken": "The Reward Token Address",
          "_user": "The User Address"
        },
        "return": "An array of withdrawal requests"
      },
      "initializeTimeManager(bool,uint256)": {
        "details": "Initializes the contract to use either blocks or seconds",
        "params": {
          "blocksPerYear_": "The number of blocks per year",
          "timeBased_": "A boolean indicating whether the contract is based on time or block If timeBased is true than blocksPerYear_ param is ignored as blocksOrSecondsPerYear is set to SECONDS_PER_YEAR"
        }
      },
      "pendingReward(address,uint256,address)": {
        "params": {
          "_pid": "Pool index",
          "_rewardToken": "Reward token address",
          "_user": "User address"
        },
        "return": "Reward the user is eligible for in this pool, in terms of _rewardToken"
      },
      "pendingWithdrawalsBeforeUpgrade(address,uint256,address)": {
        "params": {
          "_pid": "The Pool Index",
          "_rewardToken": "The Reward Token Address",
          "_user": "The address of the user"
        },
        "return": "beforeUpgradeWithdrawalAmount Total pending withdrawal amount in requests made before the vault upgrade"
      },
      "poolLength(address)": {
        "params": {
          "rewardToken": "Reward token address"
        },
        "return": "Number of pools that distribute the specified token as a reward"
      },
      "requestWithdrawal(address,uint256,uint256)": {
        "params": {
          "_amount": "The amount to withdraw from the vault",
          "_pid": "The Pool Index",
          "_rewardToken": "The Reward Token Address"
        }
      },
      "rewardTokenAmountsPerBlock(address)": {
        "params": {
          "_rewardToken": "Reward token address"
        },
        "return": "Number of reward tokens created per block or second"
      },
      "set(address,uint256,uint256)": {
        "params": {
          "_allocPoint": "Number of allocation points assigned to this pool",
          "_pid": "Pool index",
          "_rewardToken": "Reward token address"
        }
      },
      "setAccessControl(address)": {
        "details": "Admin function to set the access control address",
        "params": {
          "newAccessControlAddress": "New address for the access control"
        }
      },
      "setPrimeToken(address,address,uint256)": {
        "params": {
          "_primePoolId": "pool id for reward",
          "_primeRewardToken": "address of reward token",
          "_primeToken": "address of the prime token contract"
        }
      },
      "setRewardAmountPerBlockOrSecond(address,uint256)": {
        "params": {
          "_rewardAmount": "Number of allocation points assigned to this pool",
          "_rewardToken": "Reward token address"
        }
      },
      "setWithdrawalLockingPeriod(address,uint256,uint256)": {
        "params": {
          "_newPeriod": "New lock period",
          "_pid": "Pool index",
          "_rewardToken": "Reward token address"
        }
      },
      "updatePool(address,uint256)": {
        "params": {
          "_pid": "Pool index",
          "_rewardToken": "Reward token address"
        }
      }
    },
    "title": "XVS Vault"
  },
  "userdoc": {
    "methods": {
      "_become(address)": {
        "notice": "* Admin Functions **"
      },
      "accessControlManager()": {
        "notice": "Returns the address of the access control manager contract"
      },
      "add(address,uint256,address,uint256,uint256)": {
        "notice": "Add a new token pool"
      },
      "claim(address,address,uint256)": {
        "notice": "Claim rewards for pool"
      },
      "constructor": "XVSVault constructor",
      "delegate(address)": {
        "notice": "Delegate votes from `msg.sender` to `delegatee`"
      },
      "delegateBySig(address,uint256,uint256,uint8,bytes32,bytes32)": {
        "notice": "Delegates votes from signatory to `delegatee`"
      },
      "deposit(address,uint256,uint256)": {
        "notice": "Deposit XVSVault for XVS allocation"
      },
      "executeWithdrawal(address,uint256)": {
        "notice": "Execute withdrawal to XVSVault for XVS allocation"
      },
      "getCurrentVotes(address)": {
        "notice": "Gets the current votes balance for `account`"
      },
      "getEligibleWithdrawalAmount(address,uint256,address)": {
        "notice": "Get unlocked withdrawal amount"
      },
      "getPriorVotes(address,uint256)": {
        "notice": "Determine the xvs stake balance for an account"
      },
      "getRequestedAmount(address,uint256,address)": {
        "notice": "Get requested amount"
      },
      "getUserInfo(address,uint256,address)": {
        "notice": "Get user info with reward token address and pid"
      },
      "getWithdrawalRequests(address,uint256,address)": {
        "notice": "Returns the array of withdrawal requests that have not been executed yet"
      },
      "pause()": {
        "notice": "Pauses vault"
      },
      "pendingReward(address,uint256,address)": {
        "notice": "View function to see pending XVSs on frontend"
      },
      "pendingWithdrawalsBeforeUpgrade(address,uint256,address)": {
        "notice": "Gets the total pending withdrawal amount of a user before upgrade"
      },
      "poolLength(address)": {
        "notice": "Returns the number of pools with the specified reward token"
      },
      "requestWithdrawal(address,uint256,uint256)": {
        "notice": "Request withdrawal to XVSVault for XVS allocation"
      },
      "resume()": {
        "notice": "Resume vault"
      },
      "rewardTokenAmountsPerBlock(address)": {
        "notice": "Returns the number of reward tokens created per block or second"
      },
      "set(address,uint256,uint256)": {
        "notice": "Update the given pool's reward allocation point"
      },
      "setAccessControl(address)": {
        "notice": "Sets the address of the access control of this contract"
      },
      "setPrimeToken(address,address,uint256)": {
        "notice": "Sets the address of the prime token contract"
      },
      "setRewardAmountPerBlockOrSecond(address,uint256)": {
        "notice": "Update the given reward token's amount per block or second"
      },
      "setWithdrawalLockingPeriod(address,uint256,uint256)": {
        "notice": "Update the lock period after which a requested withdrawal can be executed"
      },
      "updatePool(address,uint256)": {
        "notice": "Update reward variables of the given pool to be up-to-date"
      }
    },
    "notice": "The XVS Vault allows XVS holders to lock their XVS to recieve voting rights in Venus governance and are rewarded with XVS."
  },
  "storageLayout": {
    "storage": [
      {
        "astId": 34029,
        "contract": "contracts/XVSVault/XVSVault.sol:XVSVault",
        "label": "admin",
        "offset": 0,
        "slot": "0",
        "type": "t_address"
      },
      {
        "astId": 34031,
        "contract": "contracts/XVSVault/XVSVault.sol:XVSVault",
        "label": "pendingAdmin",
        "offset": 0,
        "slot": "1",
        "type": "t_address"
      },
      {
        "astId": 34033,
        "contract": "contracts/XVSVault/XVSVault.sol:XVSVault",
        "label": "implementation",
        "offset": 0,
        "slot": "2",
        "type": "t_address"
      },
      {
        "astId": 34035,
        "contract": "contracts/XVSVault/XVSVault.sol:XVSVault",
        "label": "pendingXVSVaultImplementation",
        "offset": 0,
        "slot": "3",
        "type": "t_address"
      },
      {
        "astId": 34040,
        "contract": "contracts/XVSVault/XVSVault.sol:XVSVault",
        "label": "_notEntered",
        "offset": 20,
        "slot": "3",
        "type": "t_bool"
      },
      {
        "astId": 34042,
        "contract": "contracts/XVSVault/XVSVault.sol:XVSVault",
        "label": "xvsStore",
        "offset": 0,
        "slot": "4",
        "type": "t_address"
      },
      {
        "astId": 34044,
        "contract": "contracts/XVSVault/XVSVault.sol:XVSVault",
        "label": "xvsAddress",
        "offset": 0,
        "slot": "5",
        "type": "t_address"
      },
      {
        "astId": 34048,
        "contract": "contracts/XVSVault/XVSVault.sol:XVSVault",
        "label": "rewardTokenAmountsPerBlockOrSecond",
        "offset": 0,
        "slot": "6",
        "type": "t_mapping(t_address,t_uint256)"
      },
      {
        "astId": 34081,
        "contract": "contracts/XVSVault/XVSVault.sol:XVSVault",
        "label": "userInfos",
        "offset": 0,
        "slot": "7",
        "type": "t_mapping(t_address,t_mapping(t_uint256,t_mapping(t_address,t_struct(UserInfo)34055_storage)))"
      },
      {
        "astId": 34086,
        "contract": "contracts/XVSVault/XVSVault.sol:XVSVault",
        "label": "poolInfos",
        "offset": 0,
        "slot": "8",
        "type": "t_mapping(t_address,t_array(t_struct(PoolInfo)34066_storage)dyn_storage)"
      },
      {
        "astId": 34090,
        "contract": "contracts/XVSVault/XVSVault.sol:XVSVault",
        "label": "totalAllocPoints",
        "offset": 0,
        "slot": "9",
        "type": "t_mapping(t_address,t_uint256)"
      },
      {
        "astId": 34099,
        "contract": "contracts/XVSVault/XVSVault.sol:XVSVault",
        "label": "withdrawalRequests",
        "offset": 0,
        "slot": "10",
        "type": "t_mapping(t_address,t_mapping(t_uint256,t_mapping(t_address,t_array(t_struct(WithdrawalRequest)34073_storage)dyn_storage)))"
      },
      {
        "astId": 34103,
        "contract": "contracts/XVSVault/XVSVault.sol:XVSVault",
        "label": "__oldDelegatesSlot",
        "offset": 0,
        "slot": "11",
        "type": "t_mapping(t_address,t_address)"
      },
      {
        "astId": 34114,
        "contract": "contracts/XVSVault/XVSVault.sol:XVSVault",
        "label": "__oldCheckpointsSlot",
        "offset": 0,
        "slot": "12",
        "type": "t_mapping(t_address,t_mapping(t_uint32,t_struct(Checkpoint)34108_storage))"
      },
      {
        "astId": 34118,
        "contract": "contracts/XVSVault/XVSVault.sol:XVSVault",
        "label": "__oldNumCheckpointsSlot",
        "offset": 0,
        "slot": "13",
        "type": "t_mapping(t_address,t_uint32)"
      },
      {
        "astId": 34122,
        "contract": "contracts/XVSVault/XVSVault.sol:XVSVault",
        "label": "nonces",
        "offset": 0,
        "slot": "14",
        "type": "t_mapping(t_address,t_uint256)"
      },
      {
        "astId": 34139,
        "contract": "contracts/XVSVault/XVSVault.sol:XVSVault",
        "label": "delegates",
        "offset": 0,
        "slot": "15",
        "type": "t_mapping(t_address,t_address)"
      },
      {
        "astId": 34145,
        "contract": "contracts/XVSVault/XVSVault.sol:XVSVault",
        "label": "checkpoints",
        "offset": 0,
        "slot": "16",
        "type": "t_mapping(t_address,t_mapping(t_uint32,t_struct(Checkpoint)34108_storage))"
      },
      {
        "astId": 34149,
        "contract": "contracts/XVSVault/XVSVault.sol:XVSVault",
        "label": "numCheckpoints",
        "offset": 0,
        "slot": "17",
        "type": "t_mapping(t_address,t_uint32)"
      },
      {
        "astId": 34155,
        "contract": "contracts/XVSVault/XVSVault.sol:XVSVault",
        "label": "totalPendingWithdrawals",
        "offset": 0,
        "slot": "18",
        "type": "t_mapping(t_address,t_mapping(t_uint256,t_uint256))"
      },
      {
        "astId": 34157,
        "contract": "contracts/XVSVault/XVSVault.sol:XVSVault",
        "label": "vaultPaused",
        "offset": 0,
        "slot": "19",
        "type": "t_bool"
      },
      {
        "astId": 34161,
        "contract": "contracts/XVSVault/XVSVault.sol:XVSVault",
        "label": "isStakedToken",
        "offset": 0,
        "slot": "20",
        "type": "t_mapping(t_address,t_bool)"
      },
      {
        "astId": 34167,
        "contract": "contracts/XVSVault/XVSVault.sol:XVSVault",
        "label": "pendingRewardTransfers",
        "offset": 0,
        "slot": "21",
        "type": "t_mapping(t_address,t_mapping(t_address,t_uint256))"
      },
      {
        "astId": 34169,
        "contract": "contracts/XVSVault/XVSVault.sol:XVSVault",
        "label": "primeToken",
        "offset": 0,
        "slot": "22",
        "type": "t_contract(IPrime)12009"
      },
      {
        "astId": 34171,
        "contract": "contracts/XVSVault/XVSVault.sol:XVSVault",
        "label": "primeRewardToken",
        "offset": 0,
        "slot": "23",
        "type": "t_address"
      },
      {
        "astId": 34173,
        "contract": "contracts/XVSVault/XVSVault.sol:XVSVault",
        "label": "primePoolId",
        "offset": 0,
        "slot": "24",
        "type": "t_uint256"
      },
      {
        "astId": 34177,
        "contract": "contracts/XVSVault/XVSVault.sol:XVSVault",
        "label": "__gap",
        "offset": 0,
        "slot": "25",
        "type": "t_array(t_uint256)46_storage"
      },
      {
        "astId": 4,
        "contract": "contracts/XVSVault/XVSVault.sol:XVSVault",
        "label": "_accessControlManager",
        "offset": 0,
        "slot": "71",
        "type": "t_contract(IAccessControlManagerV5)1933"
      },
      {
        "astId": 8,
        "contract": "contracts/XVSVault/XVSVault.sol:XVSVault",
        "label": "__gap",
        "offset": 0,
        "slot": "72",
        "type": "t_array(t_uint256)49_storage"
      },
      {
        "astId": 30268,
        "contract": "contracts/XVSVault/XVSVault.sol:XVSVault",
        "label": "blocksOrSecondsPerYear",
        "offset": 0,
        "slot": "121",
        "type": "t_uint256"
      },
      {
        "astId": 30270,
        "contract": "contracts/XVSVault/XVSVault.sol:XVSVault",
        "label": "isTimeBased",
        "offset": 0,
        "slot": "122",
        "type": "t_bool"
      },
      {
        "astId": 30272,
        "contract": "contracts/XVSVault/XVSVault.sol:XVSVault",
        "label": "isInitialized",
        "offset": 1,
        "slot": "122",
        "type": "t_bool"
      },
      {
        "astId": 30276,
        "contract": "contracts/XVSVault/XVSVault.sol:XVSVault",
        "label": "__gap",
        "offset": 0,
        "slot": "123",
        "type": "t_array(t_uint256)46_storage"
      },
      {
        "astId": 30282,
        "contract": "contracts/XVSVault/XVSVault.sol:XVSVault",
        "label": "_getCurrentSlot",
        "offset": 0,
        "slot": "169",
        "type": "t_function_internal_view()returns(t_uint256)"
      }
    ],
    "types": {
      "t_address": {
        "encoding": "inplace",
        "label": "address",
        "numberOfBytes": "20"
      },
      "t_array(t_struct(PoolInfo)34066_storage)dyn_storage": {
        "base": "t_struct(PoolInfo)34066_storage",
        "encoding": "dynamic_array",
        "label": "struct XVSVaultStorageV1.PoolInfo[]",
        "numberOfBytes": "32"
      },
      "t_array(t_struct(WithdrawalRequest)34073_storage)dyn_storage": {
        "base": "t_struct(WithdrawalRequest)34073_storage",
        "encoding": "dynamic_array",
        "label": "struct XVSVaultStorageV1.WithdrawalRequest[]",
        "numberOfBytes": "32"
      },
      "t_array(t_uint256)46_storage": {
        "base": "t_uint256",
        "encoding": "inplace",
        "label": "uint256[46]",
        "numberOfBytes": "1472"
      },
      "t_array(t_uint256)49_storage": {
        "base": "t_uint256",
        "encoding": "inplace",
        "label": "uint256[49]",
        "numberOfBytes": "1568"
      },
      "t_bool": {
        "encoding": "inplace",
        "label": "bool",
        "numberOfBytes": "1"
      },
      "t_contract(IAccessControlManagerV5)1933": {
        "encoding": "inplace",
        "label": "contract IAccessControlManagerV5",
        "numberOfBytes": "20"
      },
      "t_contract(IBEP20)27212": {
        "encoding": "inplace",
        "label": "contract IBEP20",
        "numberOfBytes": "20"
      },
      "t_contract(IPrime)12009": {
        "encoding": "inplace",
        "label": "contract IPrime",
        "numberOfBytes": "20"
      },
      "t_function_internal_view()returns(t_uint256)": {
        "encoding": "inplace",
        "label": "function () view returns (uint256)",
        "numberOfBytes": "8"
      },
      "t_mapping(t_address,t_address)": {
        "encoding": "mapping",
        "key": "t_address",
        "label": "mapping(address => address)",
        "numberOfBytes": "32",
        "value": "t_address"
      },
      "t_mapping(t_address,t_array(t_struct(PoolInfo)34066_storage)dyn_storage)": {
        "encoding": "mapping",
        "key": "t_address",
        "label": "mapping(address => struct XVSVaultStorageV1.PoolInfo[])",
        "numberOfBytes": "32",
        "value": "t_array(t_struct(PoolInfo)34066_storage)dyn_storage"
      },
      "t_mapping(t_address,t_array(t_struct(WithdrawalRequest)34073_storage)dyn_storage)": {
        "encoding": "mapping",
        "key": "t_address",
        "label": "mapping(address => struct XVSVaultStorageV1.WithdrawalRequest[])",
        "numberOfBytes": "32",
        "value": "t_array(t_struct(WithdrawalRequest)34073_storage)dyn_storage"
      },
      "t_mapping(t_address,t_bool)": {
        "encoding": "mapping",
        "key": "t_address",
        "label": "mapping(address => bool)",
        "numberOfBytes": "32",
        "value": "t_bool"
      },
      "t_mapping(t_address,t_mapping(t_address,t_uint256))": {
        "encoding": "mapping",
        "key": "t_address",
        "label": "mapping(address => mapping(address => uint256))",
        "numberOfBytes": "32",
        "value": "t_mapping(t_address,t_uint256)"
      },
      "t_mapping(t_address,t_mapping(t_uint256,t_mapping(t_address,t_array(t_struct(WithdrawalRequest)34073_storage)dyn_storage)))": {
        "encoding": "mapping",
        "key": "t_address",
        "label": "mapping(address => mapping(uint256 => mapping(address => struct XVSVaultStorageV1.WithdrawalRequest[])))",
        "numberOfBytes": "32",
        "value": "t_mapping(t_uint256,t_mapping(t_address,t_array(t_struct(WithdrawalRequest)34073_storage)dyn_storage))"
      },
      "t_mapping(t_address,t_mapping(t_uint256,t_mapping(t_address,t_struct(UserInfo)34055_storage)))": {
        "encoding": "mapping",
        "key": "t_address",
        "label": "mapping(address => mapping(uint256 => mapping(address => struct XVSVaultStorageV1.UserInfo)))",
        "numberOfBytes": "32",
        "value": "t_mapping(t_uint256,t_mapping(t_address,t_struct(UserInfo)34055_storage))"
      },
      "t_mapping(t_address,t_mapping(t_uint256,t_uint256))": {
        "encoding": "mapping",
        "key": "t_address",
        "label": "mapping(address => mapping(uint256 => uint256))",
        "numberOfBytes": "32",
        "value": "t_mapping(t_uint256,t_uint256)"
      },
      "t_mapping(t_address,t_mapping(t_uint32,t_struct(Checkpoint)34108_storage))": {
        "encoding": "mapping",
        "key": "t_address",
        "label": "mapping(address => mapping(uint32 => struct XVSVaultStorageV1.Checkpoint))",
        "numberOfBytes": "32",
        "value": "t_mapping(t_uint32,t_struct(Checkpoint)34108_storage)"
      },
      "t_mapping(t_address,t_struct(UserInfo)34055_storage)": {
        "encoding": "mapping",
        "key": "t_address",
        "label": "mapping(address => struct XVSVaultStorageV1.UserInfo)",
        "numberOfBytes": "32",
        "value": "t_struct(UserInfo)34055_storage"
      },
      "t_mapping(t_address,t_uint256)": {
        "encoding": "mapping",
        "key": "t_address",
        "label": "mapping(address => uint256)",
        "numberOfBytes": "32",
        "value": "t_uint256"
      },
      "t_mapping(t_address,t_uint32)": {
        "encoding": "mapping",
        "key": "t_address",
        "label": "mapping(address => uint32)",
        "numberOfBytes": "32",
        "value": "t_uint32"
      },
      "t_mapping(t_uint256,t_mapping(t_address,t_array(t_struct(WithdrawalRequest)34073_storage)dyn_storage))": {
        "encoding": "mapping",
        "key": "t_uint256",
        "label": "mapping(uint256 => mapping(address => struct XVSVaultStorageV1.WithdrawalRequest[]))",
        "numberOfBytes": "32",
        "value": "t_mapping(t_address,t_array(t_struct(WithdrawalRequest)34073_storage)dyn_storage)"
      },
      "t_mapping(t_uint256,t_mapping(t_address,t_struct(UserInfo)34055_storage))": {
        "encoding": "mapping",
        "key": "t_uint256",
        "label": "mapping(uint256 => mapping(address => struct XVSVaultStorageV1.UserInfo))",
        "numberOfBytes": "32",
        "value": "t_mapping(t_address,t_struct(UserInfo)34055_storage)"
      },
      "t_mapping(t_uint256,t_uint256)": {
        "encoding": "mapping",
        "key": "t_uint256",
        "label": "mapping(uint256 => uint256)",
        "numberOfBytes": "32",
        "value": "t_uint256"
      },
      "t_mapping(t_uint32,t_struct(Checkpoint)34108_storage)": {
        "encoding": "mapping",
        "key": "t_uint32",
        "label": "mapping(uint32 => struct XVSVaultStorageV1.Checkpoint)",
        "numberOfBytes": "32",
        "value": "t_struct(Checkpoint)34108_storage"
      },
      "t_struct(Checkpoint)34108_storage": {
        "encoding": "inplace",
        "label": "struct XVSVaultStorageV1.Checkpoint",
        "members": [
          {
            "astId": 34105,
            "contract": "contracts/XVSVault/XVSVault.sol:XVSVault",
            "label": "fromBlockOrSecond",
            "offset": 0,
            "slot": "0",
            "type": "t_uint32"
          },
          {
            "astId": 34107,
            "contract": "contracts/XVSVault/XVSVault.sol:XVSVault",
            "label": "votes",
            "offset": 4,
            "slot": "0",
            "type": "t_uint96"
          }
        ],
        "numberOfBytes": "32"
      },
      "t_struct(PoolInfo)34066_storage": {
        "encoding": "inplace",
        "label": "struct XVSVaultStorageV1.PoolInfo",
        "members": [
          {
            "astId": 34057,
            "contract": "contracts/XVSVault/XVSVault.sol:XVSVault",
            "label": "token",
            "offset": 0,
            "slot": "0",
            "type": "t_contract(IBEP20)27212"
          },
          {
            "astId": 34059,
            "contract": "contracts/XVSVault/XVSVault.sol:XVSVault",
            "label": "allocPoint",
            "offset": 0,
            "slot": "1",
            "type": "t_uint256"
          },
          {
            "astId": 34061,
            "contract": "contracts/XVSVault/XVSVault.sol:XVSVault",
            "label": "lastRewardBlockOrSecond",
            "offset": 0,
            "slot": "2",
            "type": "t_uint256"
          },
          {
            "astId": 34063,
            "contract": "contracts/XVSVault/XVSVault.sol:XVSVault",
            "label": "accRewardPerShare",
            "offset": 0,
            "slot": "3",
            "type": "t_uint256"
          },
          {
            "astId": 34065,
            "contract": "contracts/XVSVault/XVSVault.sol:XVSVault",
            "label": "lockPeriod",
            "offset": 0,
            "slot": "4",
            "type": "t_uint256"
          }
        ],
        "numberOfBytes": "160"
      },
      "t_struct(UserInfo)34055_storage": {
        "encoding": "inplace",
        "label": "struct XVSVaultStorageV1.UserInfo",
        "members": [
          {
            "astId": 34050,
            "contract": "contracts/XVSVault/XVSVault.sol:XVSVault",
            "label": "amount",
            "offset": 0,
            "slot": "0",
            "type": "t_uint256"
          },
          {
            "astId": 34052,
            "contract": "contracts/XVSVault/XVSVault.sol:XVSVault",
            "label": "rewardDebt",
            "offset": 0,
            "slot": "1",
            "type": "t_uint256"
          },
          {
            "astId": 34054,
            "contract": "contracts/XVSVault/XVSVault.sol:XVSVault",
            "label": "pendingWithdrawals",
            "offset": 0,
            "slot": "2",
            "type": "t_uint256"
          }
        ],
        "numberOfBytes": "96"
      },
      "t_struct(WithdrawalRequest)34073_storage": {
        "encoding": "inplace",
        "label": "struct XVSVaultStorageV1.WithdrawalRequest",
        "members": [
          {
            "astId": 34068,
            "contract": "contracts/XVSVault/XVSVault.sol:XVSVault",
            "label": "amount",
            "offset": 0,
            "slot": "0",
            "type": "t_uint256"
          },
          {
            "astId": 34070,
            "contract": "contracts/XVSVault/XVSVault.sol:XVSVault",
            "label": "lockedUntil",
            "offset": 0,
            "slot": "1",
            "type": "t_uint128"
          },
          {
            "astId": 34072,
            "contract": "contracts/XVSVault/XVSVault.sol:XVSVault",
            "label": "afterUpgrade",
            "offset": 16,
            "slot": "1",
            "type": "t_uint128"
          }
        ],
        "numberOfBytes": "64"
      },
      "t_uint128": {
        "encoding": "inplace",
        "label": "uint128",
        "numberOfBytes": "16"
      },
      "t_uint256": {
        "encoding": "inplace",
        "label": "uint256",
        "numberOfBytes": "32"
      },
      "t_uint32": {
        "encoding": "inplace",
        "label": "uint32",
        "numberOfBytes": "4"
      },
      "t_uint96": {
        "encoding": "inplace",
        "label": "uint96",
        "numberOfBytes": "12"
      }
    }
  }
}