{
  "address": "0x53a03DC68A4d255a4b060CfEf98818C400c30564",
  "abi": [
    {
      "inputs": [
        {
          "internalType": "contract ILayerZeroEndpoint",
          "name": "lzEndpoint_",
          "type": "address"
        },
        {
          "internalType": "contract IAccessControlManagerV8",
          "name": "accessControlManager_",
          "type": "address"
        },
        {
          "internalType": "uint16",
          "name": "dstChainId_",
          "type": "uint16"
        }
      ],
      "stateMutability": "nonpayable",
      "type": "constructor"
    },
    {
      "inputs": [],
      "name": "ZeroAddressNotAllowed",
      "type": "error"
    },
    {
      "anonymous": false,
      "inputs": [
        {
          "indexed": false,
          "internalType": "uint256",
          "name": "failedNonce",
          "type": "uint256"
        },
        {
          "indexed": false,
          "internalType": "bytes32",
          "name": "hash",
          "type": "bytes32"
        }
      ],
      "name": "ClearPayload",
      "type": "event"
    },
    {
      "anonymous": false,
      "inputs": [
        {
          "indexed": true,
          "internalType": "uint16",
          "name": "remoteChainId",
          "type": "uint16"
        },
        {
          "indexed": false,
          "internalType": "bytes",
          "name": "payload",
          "type": "bytes"
        },
        {
          "indexed": false,
          "internalType": "bytes",
          "name": "adapterParams",
          "type": "bytes"
        }
      ],
      "name": "ExecuteSyncVotes",
      "type": "event"
    },
    {
      "anonymous": false,
      "inputs": [
        {
          "indexed": true,
          "internalType": "address",
          "name": "previousOwner",
          "type": "address"
        },
        {
          "indexed": true,
          "internalType": "address",
          "name": "newOwner",
          "type": "address"
        }
      ],
      "name": "OwnershipTransferred",
      "type": "event"
    },
    {
      "anonymous": false,
      "inputs": [
        {
          "indexed": false,
          "internalType": "address",
          "name": "account",
          "type": "address"
        }
      ],
      "name": "Paused",
      "type": "event"
    },
    {
      "anonymous": false,
      "inputs": [
        {
          "indexed": true,
          "internalType": "uint16",
          "name": "remoteChainId",
          "type": "uint16"
        },
        {
          "indexed": false,
          "internalType": "bytes",
          "name": "remoteAddress",
          "type": "bytes"
        }
      ],
      "name": "SetTrustedRemoteAddress",
      "type": "event"
    },
    {
      "anonymous": false,
      "inputs": [
        {
          "indexed": false,
          "internalType": "uint256",
          "name": "votesSync",
          "type": "uint256"
        },
        {
          "indexed": false,
          "internalType": "uint16",
          "name": "remoteChainId",
          "type": "uint16"
        },
        {
          "indexed": false,
          "internalType": "bytes",
          "name": "payload",
          "type": "bytes"
        },
        {
          "indexed": false,
          "internalType": "bytes",
          "name": "adapterParams",
          "type": "bytes"
        },
        {
          "indexed": false,
          "internalType": "uint256",
          "name": "value",
          "type": "uint256"
        },
        {
          "indexed": false,
          "internalType": "bytes",
          "name": "reason",
          "type": "bytes"
        }
      ],
      "name": "StorePayload",
      "type": "event"
    },
    {
      "anonymous": false,
      "inputs": [
        {
          "indexed": true,
          "internalType": "uint16",
          "name": "chainId",
          "type": "uint16"
        }
      ],
      "name": "TrustedRemoteRemoved",
      "type": "event"
    },
    {
      "anonymous": false,
      "inputs": [
        {
          "indexed": false,
          "internalType": "address",
          "name": "account",
          "type": "address"
        }
      ],
      "name": "Unpaused",
      "type": "event"
    },
    {
      "inputs": [],
      "name": "BSC_CHAIN_ID",
      "outputs": [
        {
          "internalType": "uint16",
          "name": "",
          "type": "uint16"
        }
      ],
      "stateMutability": "view",
      "type": "function"
    },
    {
      "inputs": [],
      "name": "LZ_ENDPOINT",
      "outputs": [
        {
          "internalType": "contract ILayerZeroEndpoint",
          "name": "",
          "type": "address"
        }
      ],
      "stateMutability": "view",
      "type": "function"
    },
    {
      "inputs": [],
      "name": "accessControlManager",
      "outputs": [
        {
          "internalType": "contract IAccessControlManagerV8",
          "name": "",
          "type": "address"
        }
      ],
      "stateMutability": "view",
      "type": "function"
    },
    {
      "inputs": [
        {
          "internalType": "bytes",
          "name": "payload",
          "type": "bytes"
        },
        {
          "internalType": "bytes",
          "name": "adapterParams",
          "type": "bytes"
        }
      ],
      "name": "estimateFee",
      "outputs": [
        {
          "internalType": "uint256",
          "name": "",
          "type": "uint256"
        },
        {
          "internalType": "uint256",
          "name": "",
          "type": "uint256"
        }
      ],
      "stateMutability": "view",
      "type": "function"
    },
    {
      "inputs": [],
      "name": "nonce",
      "outputs": [
        {
          "internalType": "uint256",
          "name": "",
          "type": "uint256"
        }
      ],
      "stateMutability": "view",
      "type": "function"
    },
    {
      "inputs": [],
      "name": "owner",
      "outputs": [
        {
          "internalType": "address",
          "name": "",
          "type": "address"
        }
      ],
      "stateMutability": "view",
      "type": "function"
    },
    {
      "inputs": [],
      "name": "paused",
      "outputs": [
        {
          "internalType": "bool",
          "name": "",
          "type": "bool"
        }
      ],
      "stateMutability": "view",
      "type": "function"
    },
    {
      "inputs": [],
      "name": "removeTrustedRemote",
      "outputs": [],
      "stateMutability": "nonpayable",
      "type": "function"
    },
    {
      "inputs": [],
      "name": "renounceOwnership",
      "outputs": [],
      "stateMutability": "nonpayable",
      "type": "function"
    },
    {
      "inputs": [
        {
          "internalType": "uint256",
          "name": "failedNonce",
          "type": "uint256"
        },
        {
          "internalType": "bytes",
          "name": "payload",
          "type": "bytes"
        },
        {
          "internalType": "bytes",
          "name": "adapterParams",
          "type": "bytes"
        },
        {
          "internalType": "uint256",
          "name": "originalValue",
          "type": "uint256"
        }
      ],
      "name": "retrySyncVotes",
      "outputs": [],
      "stateMutability": "payable",
      "type": "function"
    },
    {
      "inputs": [
        {
          "internalType": "bytes",
          "name": "remoteAddress",
          "type": "bytes"
        }
      ],
      "name": "setTrustedRemoteAddress",
      "outputs": [],
      "stateMutability": "nonpayable",
      "type": "function"
    },
    {
      "inputs": [
        {
          "internalType": "uint256",
          "name": "",
          "type": "uint256"
        }
      ],
      "name": "storedExecutionHashes",
      "outputs": [
        {
          "internalType": "bytes32",
          "name": "",
          "type": "bytes32"
        }
      ],
      "stateMutability": "view",
      "type": "function"
    },
    {
      "inputs": [
        {
          "internalType": "bytes",
          "name": "payload",
          "type": "bytes"
        },
        {
          "internalType": "bytes",
          "name": "adapterParams",
          "type": "bytes"
        }
      ],
      "name": "syncVotes",
      "outputs": [],
      "stateMutability": "payable",
      "type": "function"
    },
    {
      "inputs": [
        {
          "internalType": "address",
          "name": "newOwner",
          "type": "address"
        }
      ],
      "name": "transferOwnership",
      "outputs": [],
      "stateMutability": "nonpayable",
      "type": "function"
    },
    {
      "inputs": [
        {
          "internalType": "uint16",
          "name": "",
          "type": "uint16"
        }
      ],
      "name": "trustedRemoteLookup",
      "outputs": [
        {
          "internalType": "bytes",
          "name": "",
          "type": "bytes"
        }
      ],
      "stateMutability": "view",
      "type": "function"
    }
  ],
  "transactionHash": "0xfe1346c5d5f5b5493ef83b97d893266d258bd1c4ba4b9454afdece526b5686b7",
  "args": [
    "0xae92d5aD7583AD66E49A0c67BAd18F6ba52dDDc1",
    "0xbf705C00578d43B6147ab4eaE04DBBEd1ccCdc96",
    10102
  ],
  "numDeployments": 1,
  "solcInputHash": "caeeae3eb93fbe7f20dce90f738b721f",
  "bytecode": "0x60a06040523480156200001157600080fd5b5060405162001ac638038062001ac6833981016040819052620000349162000133565b6200003f33620000a2565b6000805460ff60a01b19169055600180556200005b83620000f2565b6200006682620000f2565b600480546001600160a01b039384166001600160a01b0319918216179091556003805494909316931692909217905561ffff166080526200018d565b600080546001600160a01b038381166001600160a01b0319831681178455604051919092169283917f8be0079c531659141344cd1fd0a4f28419497f9722a3daafe3b4186f6b6457e09190a35050565b6001600160a01b0381166200011a576040516342bcdf7f60e11b815260040160405180910390fd5b50565b6001600160a01b03811681146200011a57600080fd5b6000806000606084860312156200014957600080fd5b835162000156816200011d565b602085015190935062000169816200011d565b604085015190925061ffff811681146200018257600080fd5b809150509250925092565b6080516118c9620001fd6000396000818161023a01528181610397015281816103da01528181610447015281816104860152818161057d0152818161069501528181610795015281816107d2015281816109bb01528181610b9301528181610bb80152610c8a01526118c96000f3fe6080604052600436106100e85760003560e01c80638da5cb5b1161008a578063b4a0bdf311610059578063b4a0bdf314610285578063cd4d1c64146102a5578063e9dfec4a146102c5578063f2fde38b146102fa57600080fd5b80638da5cb5b146101e35780639c9c080c14610215578063a80ad65114610228578063affed0e01461026f57600080fd5b8063715018a6116100c6578063715018a6146101535780637178a17f146101685780637533d7881461017b5780637dbb533c146101a857600080fd5b806344fa4311146100ed5780634ea19f721461010f5780635c975abb14610124575b600080fd5b3480156100f957600080fd5b5061010d6101083660046110c1565b61031a565b005b34801561011b57600080fd5b5061010d61043a565b34801561013057600080fd5b50600054600160a01b900460ff1660405190151581526020015b60405180910390f35b34801561015f57600080fd5b5061010d6104cf565b61010d6101763660046111a6565b6104e3565b34801561018757600080fd5b5061019b61019636600461120a565b610833565b60405161014a9190611282565b3480156101b457600080fd5b506101d56101c3366004611295565b60056020526000908152604090205481565b60405190815260200161014a565b3480156101ef57600080fd5b506000546001600160a01b03165b6040516001600160a01b03909116815260200161014a565b61010d6102233660046112ae565b6108cd565b34801561023457600080fd5b5061025c7f000000000000000000000000000000000000000000000000000000000000000081565b60405161ffff909116815260200161014a565b34801561027b57600080fd5b506101d560025481565b34801561029157600080fd5b506004546101fd906001600160a01b031681565b3480156102b157600080fd5b506003546101fd906001600160a01b031681565b3480156102d157600080fd5b506102e56102e0366004611330565b610c5d565b6040805192835260208301919091520161014a565b34801561030657600080fd5b5061010d61031536600461139c565b610d0b565b6103586040518060400160405280601e81526020017f7365745472757374656452656d6f746541646472657373286279746573290000815250610d84565b61036d61036582846113c5565b60601c610e32565b818130604051602001610382939291906113fa565b60408051601f1981840301815291815261ffff7f00000000000000000000000000000000000000000000000000000000000000001660009081526006602090815291902082516103d793919290910190610fa9565b507f000000000000000000000000000000000000000000000000000000000000000061ffff167f8c0400cfe2d1199b1a725c78960bcc2a344d869b80590d0f2bd005db15a572ce838360405161042e929190611449565b60405180910390a25050565b610442610e59565b61ffff7f000000000000000000000000000000000000000000000000000000000000000016600090815260066020526040812061047e9161102d565b60405161ffff7f000000000000000000000000000000000000000000000000000000000000000016907f6d5075c81d4d9e75bec6052f4e44f58f8a8cf1327544addbbf015fb06f83bd3790600090a2565b6104d7610e59565b6104e16000610eb3565b565b6104eb610f03565b6105226040518060400160405280601681526020017573796e63566f7465732862797465732c62797465732960501b815250610d84565b81516000036105785760405162461bcd60e51b815260206004820152601e60248201527f566f74657353796e6353656e6465723a20456d707479207061796c6f6164000060448201526064015b60405180910390fd5b61ffff7f000000000000000000000000000000000000000000000000000000000000000016600090815260066020526040812080546105b690611465565b80601f01602080910402602001604051908101604052809291908181526020018280546105e290611465565b801561062f5780601f106106045761010080835404028352916020019161062f565b820191906000526020600020905b81548152906001019060200180831161061257829003601f168201915b5050505050905080516000036106575760405162461bcd60e51b815260040161056f9061149f565b6002805490600061066783611512565b909155505060035460405162c5803160e81b81526001600160a01b039091169063c58031009034906106c8907f0000000000000000000000000000000000000000000000000000000000000000908690899032906000908b9060040161152b565b6000604051808303818588803b1580156106e157600080fd5b505af1935050505080156106f3575060015b6107d0573d808015610721576040519150601f19603f3d011682016040523d82523d6000602084013e610726565b606091505b506002548484346040516020016107409493929190611592565b60408051601f19818403018152828252805160209182012060028054600090815260059093529290912055547f6d16111647e03d7f1cb2b71c02eafe3355b97dfc17af3de1b94ef39c8a9ee4d9916107c291907f00000000000000000000000000000000000000000000000000000000000000009088908890349088906115cf565b60405180910390a150505050565b7f000000000000000000000000000000000000000000000000000000000000000061ffff167fd8683ecbce9b5cba45d2dac144d30d10feb2288b951c6b8829baa29862a1b849848460405161082692919061161e565b60405180910390a2505050565b6006602052600090815260409020805461084c90611465565b80601f016020809104026020016040519081016040528092919081815260200182805461087890611465565b80156108c55780601f1061089a576101008083540402835291602001916108c5565b820191906000526020600020905b8154815290600101906020018083116108a857829003601f168201915b505050505081565b6108d5610f50565b6108dd610f03565b6108fe6040518060600160405280602b8152602001611869602b9139610d84565b600086815260056020526040902054806109655760405162461bcd60e51b815260206004820152602260248201527f566f74657353796e6353656e6465723a206e6f2073746f726564207061796c6f604482015261185960f21b606482015260840161056f565b60008590036109b65760405162461bcd60e51b815260206004820152601e60248201527f566f74657353796e6353656e6465723a20656d707479207061796c6f61640000604482015260640161056f565b61ffff7f000000000000000000000000000000000000000000000000000000000000000016600090815260066020526040812080546109f490611465565b80601f0160208091040260200160405190810160405280929190818152602001828054610a2090611465565b8015610a6d5780601f10610a4257610100808354040283529160200191610a6d565b820191906000526020600020905b815481529060010190602001808311610a5057829003601f168201915b505050505090508051600003610a955760405162461bcd60e51b815260040161056f9061149f565b6000888888888888604051602001610ab29695949392919061164c565b604051602081830303815290604052905082818051906020012014610b2b5760405162461bcd60e51b815260206004820152602960248201527f566f74657353796e6353656e6465723a20696e76616c696420657865637574696044820152686f6e20706172616d7360b81b606482015260840161056f565b60008981526005602090815260408083209290925581518b81529081018590527f2dc7ac5d08fd553243fc66b5f15262e3f3013e27abf660d7bb3fccf133322f6e910160405180910390a16003546001600160a01b031663c5803100610b91348761168d565b7f0000000000000000000000000000000000000000000000000000000000000000600660007f000000000000000000000000000000000000000000000000000000000000000061ffff1661ffff1681526020019081526020016000208c8c3360008e8e6040518a63ffffffff1660e01b8152600401610c179897969594939291906116a5565b6000604051808303818588803b158015610c3057600080fd5b505af1158015610c44573d6000803e3d6000fd5b5050505050505050610c5560018055565b505050505050565b60035460405163040a7bb160e41b815260009182916001600160a01b03909116906340a7bb1090610cbe907f00000000000000000000000000000000000000000000000000000000000000009030908b908b9088908c908c906004016117a6565b6040805180830381865afa158015610cda573d6000803e3d6000fd5b505050506040513d601f19601f82011682018060405250810190610cfe91906117fe565b9150915094509492505050565b610d13610e59565b6001600160a01b038116610d785760405162461bcd60e51b815260206004820152602660248201527f4f776e61626c653a206e6577206f776e657220697320746865207a65726f206160448201526564647265737360d01b606482015260840161056f565b610d8181610eb3565b50565b600480546040516318c5e8ab60e01b81526001600160a01b03909116916318c5e8ab91610db5913391869101611822565b602060405180830381865afa158015610dd2573d6000803e3d6000fd5b505050506040513d601f19601f82011682018060405250810190610df69190611846565b610d815760405162461bcd60e51b815260206004820152600d60248201526c1858d8d95cdcc819195b9a5959609a1b604482015260640161056f565b6001600160a01b038116610d81576040516342bcdf7f60e11b815260040160405180910390fd5b6000546001600160a01b031633146104e15760405162461bcd60e51b815260206004820181905260248201527f4f776e61626c653a2063616c6c6572206973206e6f7420746865206f776e6572604482015260640161056f565b600080546001600160a01b038381166001600160a01b0319831681178455604051919092169283917f8be0079c531659141344cd1fd0a4f28419497f9722a3daafe3b4186f6b6457e09190a35050565b600054600160a01b900460ff16156104e15760405162461bcd60e51b815260206004820152601060248201526f14185d5cd8589b194e881c185d5cd95960821b604482015260640161056f565b600260015403610fa25760405162461bcd60e51b815260206004820152601f60248201527f5265656e7472616e637947756172643a207265656e7472616e742063616c6c00604482015260640161056f565b6002600155565b828054610fb590611465565b90600052602060002090601f016020900481019282610fd7576000855561101d565b82601f10610ff057805160ff191683800117855561101d565b8280016001018555821561101d579182015b8281111561101d578251825591602001919060010190611002565b50611029929150611063565b5090565b50805461103990611465565b6000825580601f10611049575050565b601f016020900490600052602060002090810190610d8191905b5b808211156110295760008155600101611064565b60008083601f84011261108a57600080fd5b50813567ffffffffffffffff8111156110a257600080fd5b6020830191508360208285010111156110ba57600080fd5b9250929050565b600080602083850312156110d457600080fd5b823567ffffffffffffffff8111156110eb57600080fd5b6110f785828601611078565b90969095509350505050565b634e487b7160e01b600052604160045260246000fd5b600082601f83011261112a57600080fd5b813567ffffffffffffffff8082111561114557611145611103565b604051601f8301601f19908116603f0116810190828211818310171561116d5761116d611103565b8160405283815286602085880101111561118657600080fd5b836020870160208301376000602085830101528094505050505092915050565b600080604083850312156111b957600080fd5b823567ffffffffffffffff808211156111d157600080fd5b6111dd86838701611119565b935060208501359150808211156111f357600080fd5b5061120085828601611119565b9150509250929050565b60006020828403121561121c57600080fd5b813561ffff8116811461122e57600080fd5b9392505050565b6000815180845260005b8181101561125b5760208185018101518683018201520161123f565b8181111561126d576000602083870101525b50601f01601f19169290920160200192915050565b60208152600061122e6020830184611235565b6000602082840312156112a757600080fd5b5035919050565b600080600080600080608087890312156112c757600080fd5b86359550602087013567ffffffffffffffff808211156112e657600080fd5b6112f28a838b01611078565b9097509550604089013591508082111561130b57600080fd5b5061131889828a01611078565b979a9699509497949695606090950135949350505050565b6000806000806040858703121561134657600080fd5b843567ffffffffffffffff8082111561135e57600080fd5b61136a88838901611078565b9096509450602087013591508082111561138357600080fd5b5061139087828801611078565b95989497509550505050565b6000602082840312156113ae57600080fd5b81356001600160a01b038116811461122e57600080fd5b6bffffffffffffffffffffffff1981358181169160148510156113f25780818660140360031b1b83161692505b505092915050565b8284823760609190911b6bffffffffffffffffffffffff19169101908152601401919050565b81835281816020850137506000828201602090810191909152601f909101601f19169091010190565b60208152600061145d602083018486611420565b949350505050565b600181811c9082168061147957607f821691505b60208210810361149957634e487b7160e01b600052602260045260246000fd5b50919050565b6020808252603a908201527f566f74657353796e6353656e6465723a2064657374696e6174696f6e2063686160408201527f696e206973206e6f742061207472757374656420736f75726365000000000000606082015260800190565b634e487b7160e01b600052601160045260246000fd5b600060018201611524576115246114fc565b5060010190565b61ffff8716815260c06020820152600061154860c0830188611235565b828103604084015261155a8188611235565b6001600160a01b0387811660608601528616608085015283810360a085015290506115858185611235565b9998505050505050505050565b8481526080602082015260006115ab6080830186611235565b82810360408401526115bd8186611235565b91505082606083015295945050505050565b86815261ffff8616602082015260c0604082015260006115f260c0830187611235565b82810360608401526116048187611235565b905084608084015282810360a08401526115858185611235565b6040815260006116316040830185611235565b82810360208401526116438185611235565b95945050505050565b868152608060208201526000611666608083018789611420565b8281036040840152611679818688611420565b915050826060830152979650505050505050565b600082198211156116a0576116a06114fc565b500190565b61ffff8916815260c060208201526000808954818160011c905060018216806116cf57607f821691505b6020821081036116ed57634e487b7160e01b84526022600452602484fd5b60c0860182905260e0860181801561170c576001811461171e5761174c565b60ff198516825260208201955061174c565b60008f81526020902060005b858110156117465781548482015260019091019060200161172a565b83019650505b5050505050828103604084015261176481898b611420565b6001600160a01b038816606085015290506001600160a01b038616608084015282810360a0840152611797818587611420565b9b9a5050505050505050505050565b61ffff881681526001600160a01b038716602082015260a0604082018190526000906117d59083018789611420565b851515606084015282810360808401526117f0818587611420565b9a9950505050505050505050565b6000806040838503121561181157600080fd5b505080516020909101519092909150565b6001600160a01b038316815260406020820181905260009061145d90830184611235565b60006020828403121561185857600080fd5b8151801515811461122e57600080fdfe726574727953796e63566f7465732875696e743235362c62797465732c62797465732c75696e7432353629a2646970667358221220da06133de4b49e9d0ecba7e8cdde6ebdd381603755ed5092e00ca1dab3bb519264736f6c634300080d0033",
  "devdoc": {
    "author": "Venus",
    "kind": "dev",
    "methods": {
      "estimateFee(bytes,bytes)": {
        "details": "The estimated fees are the minimum required; it's recommended to increase the fees amount when sending a message. The unused amount will be refunded",
        "params": {
          "adapterParams": "The params used to specify the custom amount of gas required for the execution on the destination",
          "payload": "The payload to be sent to the remote chain. It's computed as follows: payload = abi.encode(delegatee, checkpoint, votes)"
        },
        "returns": {
          "_0": "nativeFee The amount of fee in the native gas token (e.g. ETH)",
          "_1": "zroFee The amount of fee in ZRO token"
        }
      },
      "owner()": {
        "details": "Returns the address of the current owner."
      },
      "paused()": {
        "details": "Returns true if the contract is paused, and false otherwise."
      },
      "removeTrustedRemote()": {
        "custom:access": "Only owner.",
        "custom:event": "Emit TrustedRemoteRemoved with remote chain Id."
      },
      "renounceOwnership()": {
        "details": "Leaves the contract without owner. It will not be possible to call `onlyOwner` functions. Can only be called by the current owner. NOTE: Renouncing ownership will leave the contract without an owner, thereby disabling any functionality that is only available to the owner."
      },
      "retrySyncVotes(uint256,bytes,bytes,uint256)": {
        "custom:access": "Controlled by Access Control Manager",
        "custom:event": "Emits ClearPayload with votesSynced and hash",
        "details": "Allows providing more fees if needed. The extra fees will be refunded to the caller",
        "params": {
          "adapterParams": "The params used to specify the custom amount of gas required for the execution on the Binance chain",
          "failedNonce": "Nonce of the failed message; to identify a failed message",
          "originalValue": "The msg.value passed when syncVotes function was called",
          "payload": "The payload to be sent to the remote chain. It's computed as follows: payload = abi.encode(delegatee, checkpoint, votes)"
        }
      },
      "setTrustedRemoteAddress(bytes)": {
        "custom:access": "Controlled by AccessControlManager.",
        "custom:event": "Emits SetTrustedRemoteAddress with remote chain Id and remote address",
        "params": {
          "remoteAddress": "The address of the contract on the remote chain to receive messages sent by this contract"
        }
      },
      "syncVotes(bytes,bytes)": {
        "custom:access": "Controlled by Access Control Manager",
        "custom:event": "Emit ExecuteSyncVotes on success and StorePayload on failure",
        "params": {
          "adapterParams": "The params used to specify the custom amount of gas required for the execution on the destination",
          "payload": "The payload to be sent to the remote chain. It's computed as follows: payload = abi.encode(delegatee, checkpoint, votes)"
        }
      },
      "transferOwnership(address)": {
        "details": "Transfers ownership of the contract to a new account (`newOwner`). Can only be called by the current owner."
      }
    },
    "stateVariables": {
      "storedExecutionHashes": {
        "details": "[proposalId] -> [executionHash]"
      }
    },
    "title": "VotesSyncSender",
    "version": 1
  },
  "userdoc": {
    "errors": {
      "ZeroAddressNotAllowed()": [
        {
          "notice": "Thrown if the supplied address is a zero address where it is not allowed"
        }
      ]
    },
    "events": {
      "ClearPayload(uint256,bytes32)": {
        "notice": "Emitted when votes synced on retry"
      },
      "ExecuteSyncVotes(uint16,bytes,bytes)": {
        "notice": "Emitted when votes synced with BSC chain successfully"
      },
      "SetTrustedRemoteAddress(uint16,bytes)": {
        "notice": "Emitted when a remote message receiver is set for the remote chain"
      },
      "StorePayload(uint256,uint16,bytes,bytes,uint256,bytes)": {
        "notice": "Emitted when an execution hash of a failed message is saved"
      },
      "TrustedRemoteRemoved(uint16)": {
        "notice": "Emitted when trusted remote sets to empty."
      }
    },
    "kind": "user",
    "methods": {
      "BSC_CHAIN_ID()": {
        "notice": "Remote chain id of binance"
      },
      "LZ_ENDPOINT()": {
        "notice": "LayerZero endpoint for sending messages to remote chains"
      },
      "accessControlManager()": {
        "notice": "Acess Control Manager"
      },
      "estimateFee(bytes,bytes)": {
        "notice": "Estimates LayerZero fees for cross-chain message delivery to the remote chain"
      },
      "nonce()": {
        "notice": "Number of times votes synced with BSC chain"
      },
      "removeTrustedRemote()": {
        "notice": "Remove trusted remote from storage."
      },
      "retrySyncVotes(uint256,bytes,bytes,uint256)": {
        "notice": "Resends a previously failed message"
      },
      "setTrustedRemoteAddress(bytes)": {
        "notice": "Sets the remote message receiver address"
      },
      "storedExecutionHashes(uint256)": {
        "notice": "Execution hashes of failed messages"
      },
      "syncVotes(bytes,bytes)": {
        "notice": "Sync votes of user on Binance chain"
      },
      "trustedRemoteLookup(uint16)": {
        "notice": "Specifies the allowed path for sending messages (remote chainId => remote app address + local app address)"
      }
    },
    "notice": "The VotesSyncSender send voting information of user from remote chains(non-BSC chains) to Binance chain with the help of layer zero bridge. It sends voting information of user from XVSVaultDest to receiver contract on Binance chain in the form of encoded data known as payload.",
    "version": 1
  },
  "storageLayout": {
    "storage": [
      {
        "astId": 256,
        "contract": "contracts/XVSVault/VoteSyncBridgeUtils/VotesSyncSender.sol:VotesSyncSender",
        "label": "_owner",
        "offset": 0,
        "slot": "0",
        "type": "t_address"
      },
      {
        "astId": 379,
        "contract": "contracts/XVSVault/VoteSyncBridgeUtils/VotesSyncSender.sol:VotesSyncSender",
        "label": "_paused",
        "offset": 20,
        "slot": "0",
        "type": "t_bool"
      },
      {
        "astId": 480,
        "contract": "contracts/XVSVault/VoteSyncBridgeUtils/VotesSyncSender.sol:VotesSyncSender",
        "label": "_status",
        "offset": 0,
        "slot": "1",
        "type": "t_uint256"
      },
      {
        "astId": 651,
        "contract": "contracts/XVSVault/VoteSyncBridgeUtils/VotesSyncSender.sol:VotesSyncSender",
        "label": "nonce",
        "offset": 0,
        "slot": "2",
        "type": "t_uint256"
      },
      {
        "astId": 655,
        "contract": "contracts/XVSVault/VoteSyncBridgeUtils/VotesSyncSender.sol:VotesSyncSender",
        "label": "LZ_ENDPOINT",
        "offset": 0,
        "slot": "3",
        "type": "t_contract(ILayerZeroEndpoint)144"
      },
      {
        "astId": 659,
        "contract": "contracts/XVSVault/VoteSyncBridgeUtils/VotesSyncSender.sol:VotesSyncSender",
        "label": "accessControlManager",
        "offset": 0,
        "slot": "4",
        "type": "t_contract(IAccessControlManagerV8)601"
      },
      {
        "astId": 664,
        "contract": "contracts/XVSVault/VoteSyncBridgeUtils/VotesSyncSender.sol:VotesSyncSender",
        "label": "storedExecutionHashes",
        "offset": 0,
        "slot": "5",
        "type": "t_mapping(t_uint256,t_bytes32)"
      },
      {
        "astId": 669,
        "contract": "contracts/XVSVault/VoteSyncBridgeUtils/VotesSyncSender.sol:VotesSyncSender",
        "label": "trustedRemoteLookup",
        "offset": 0,
        "slot": "6",
        "type": "t_mapping(t_uint16,t_bytes_storage)"
      }
    ],
    "types": {
      "t_address": {
        "encoding": "inplace",
        "label": "address",
        "numberOfBytes": "20"
      },
      "t_bool": {
        "encoding": "inplace",
        "label": "bool",
        "numberOfBytes": "1"
      },
      "t_bytes32": {
        "encoding": "inplace",
        "label": "bytes32",
        "numberOfBytes": "32"
      },
      "t_bytes_storage": {
        "encoding": "bytes",
        "label": "bytes",
        "numberOfBytes": "32"
      },
      "t_contract(IAccessControlManagerV8)601": {
        "encoding": "inplace",
        "label": "contract IAccessControlManagerV8",
        "numberOfBytes": "20"
      },
      "t_contract(ILayerZeroEndpoint)144": {
        "encoding": "inplace",
        "label": "contract ILayerZeroEndpoint",
        "numberOfBytes": "20"
      },
      "t_mapping(t_uint16,t_bytes_storage)": {
        "encoding": "mapping",
        "key": "t_uint16",
        "label": "mapping(uint16 => bytes)",
        "numberOfBytes": "32",
        "value": "t_bytes_storage"
      },
      "t_mapping(t_uint256,t_bytes32)": {
        "encoding": "mapping",
        "key": "t_uint256",
        "label": "mapping(uint256 => bytes32)",
        "numberOfBytes": "32",
        "value": "t_bytes32"
      },
      "t_uint16": {
        "encoding": "inplace",
        "label": "uint16",
        "numberOfBytes": "2"
      },
      "t_uint256": {
        "encoding": "inplace",
        "label": "uint256",
        "numberOfBytes": "32"
      }
    }
  }
}