{
  "address": "0xFc43c055B9be2Ec3BEe6f8C291Af862d764016a0",
  "abi": [
    {
      "anonymous": false,
      "inputs": [
        {
          "indexed": true,
          "internalType": "address",
          "name": "previousOwner",
          "type": "address"
        },
        {
          "indexed": true,
          "internalType": "address",
          "name": "newOwner",
          "type": "address"
        }
      ],
      "name": "OwnershipTransferred",
      "type": "event"
    },
    {
      "anonymous": false,
      "inputs": [
        {
          "indexed": false,
          "internalType": "uint256",
          "name": "withdrawAmount",
          "type": "uint256"
        },
        {
          "indexed": true,
          "internalType": "address",
          "name": "withdrawAddress",
          "type": "address"
        }
      ],
      "name": "WithdrawTreasuryNative",
      "type": "event"
    },
    {
      "anonymous": false,
      "inputs": [
        {
          "indexed": true,
          "internalType": "address",
          "name": "tokenAddress",
          "type": "address"
        },
        {
          "indexed": false,
          "internalType": "uint256",
          "name": "withdrawAmount",
          "type": "uint256"
        },
        {
          "indexed": true,
          "internalType": "address",
          "name": "withdrawAddress",
          "type": "address"
        }
      ],
      "name": "WithdrawTreasuryToken",
      "type": "event"
    },
    {
      "stateMutability": "payable",
      "type": "fallback"
    },
    {
      "inputs": [],
      "name": "owner",
      "outputs": [
        {
          "internalType": "address",
          "name": "",
          "type": "address"
        }
      ],
      "stateMutability": "view",
      "type": "function"
    },
    {
      "inputs": [],
      "name": "renounceOwnership",
      "outputs": [],
      "stateMutability": "nonpayable",
      "type": "function"
    },
    {
      "inputs": [
        {
          "internalType": "address",
          "name": "newOwner",
          "type": "address"
        }
      ],
      "name": "transferOwnership",
      "outputs": [],
      "stateMutability": "nonpayable",
      "type": "function"
    },
    {
      "inputs": [
        {
          "internalType": "uint256",
          "name": "withdrawAmount",
          "type": "uint256"
        },
        {
          "internalType": "address payable",
          "name": "withdrawAddress",
          "type": "address"
        }
      ],
      "name": "withdrawTreasuryNative",
      "outputs": [],
      "stateMutability": "payable",
      "type": "function"
    },
    {
      "inputs": [
        {
          "internalType": "address",
          "name": "tokenAddress",
          "type": "address"
        },
        {
          "internalType": "uint256",
          "name": "withdrawAmount",
          "type": "uint256"
        },
        {
          "internalType": "address",
          "name": "withdrawAddress",
          "type": "address"
        }
      ],
      "name": "withdrawTreasuryToken",
      "outputs": [],
      "stateMutability": "nonpayable",
      "type": "function"
    },
    {
      "stateMutability": "payable",
      "type": "receive"
    }
  ],
  "transactionHash": "0x79fd6f9decc473640a5016213c9ead447748ba575f36f04a188b4271379e5658",
  "args": [],
  "numDeployments": 2,
  "solcInputHash": "08b51a64331428e03a9b461fcf31d47c",
  "bytecode": "0x608060405234801561000f575f80fd5b506100193361001e565b61006d565b5f80546001600160a01b038381166001600160a01b0319831681178455604051919092169283917f8be0079c531659141344cd1fd0a4f28419497f9722a3daafe3b4186f6b6457e09190a35050565b6107bf8061007a5f395ff3fe60806040526004361061004a575f3560e01c8063715018a61461005357806374c17a35146100675780638da5cb5b14610086578063f2fde38b146100b0578063fed7036e146100cf57005b3661005157005b005b34801561005e575f80fd5b506100516100e2565b348015610072575f80fd5b50610051610081366004610655565b6100ec565b348015610091575f80fd5b505f54604080516001600160a01b039092168252519081900360200190f35b3480156100bb575f80fd5b506100516100ca366004610694565b6101d4565b6100516100dd3660046106b6565b610252565b6100ea6102e5565b565b6100f46102e5565b6040516370a0823160e01b815230600482015282905f906001600160a01b038616906370a0823190602401602060405180830381865afa15801561013a573d5f803e3d5ffd5b505050506040513d601f19601f8201168201806040525081019061015e91906106e4565b90508084111561016c578091505b6101806001600160a01b038616848461033e565b826001600160a01b0316856001600160a01b03167f6d043f5c542a67e836c8f8bdf640d0de840c85d79c130dcbda8d42c9c056980c846040516101c591815260200190565b60405180910390a35050505050565b6101dc6102e5565b6001600160a01b0381166102465760405162461bcd60e51b815260206004820152602660248201527f4f776e61626c653a206e6577206f776e657220697320746865207a65726f206160448201526564647265737360d01b60648201526084015b60405180910390fd5b61024f81610395565b50565b61025a6102e5565b814780821115610268578091505b6040516001600160a01b0384169083156108fc029084905f818181858888f1935050505015801561029b573d5f803e3d5ffd5b50826001600160a01b03167f41448dfa44379fc602c636f8939b0b1b598c481af871c76fbdd8bdfcdaf30dfa836040516102d791815260200190565b60405180910390a250505050565b5f546001600160a01b031633146100ea5760405162461bcd60e51b815260206004820181905260248201527f4f776e61626c653a2063616c6c6572206973206e6f7420746865206f776e6572604482015260640161023d565b604080516001600160a01b038416602482015260448082018490528251808303909101815260649091019091526020810180516001600160e01b031663a9059cbb60e01b1790526103909084906103e4565b505050565b5f80546001600160a01b038381166001600160a01b0319831681178455604051919092169283917f8be0079c531659141344cd1fd0a4f28419497f9722a3daafe3b4186f6b6457e09190a35050565b5f610438826040518060400160405280602081526020017f5361666545524332303a206c6f772d6c6576656c2063616c6c206661696c6564815250856001600160a01b03166104b79092919063ffffffff16565b905080515f148061045857508080602001905181019061045891906106fb565b6103905760405162461bcd60e51b815260206004820152602a60248201527f5361666545524332303a204552433230206f7065726174696f6e20646964206e6044820152691bdd081cdd58d8d9595960b21b606482015260840161023d565b60606104c584845f856104cd565b949350505050565b60608247101561052e5760405162461bcd60e51b815260206004820152602660248201527f416464726573733a20696e73756666696369656e742062616c616e636520666f6044820152651c8818d85b1b60d21b606482015260840161023d565b5f80866001600160a01b03168587604051610549919061073c565b5f6040518083038185875af1925050503d805f8114610583576040519150601f19603f3d011682016040523d82523d5f602084013e610588565b606091505b5091509150610599878383876105a4565b979650505050505050565b606083156106125782515f0361060b576001600160a01b0385163b61060b5760405162461bcd60e51b815260206004820152601d60248201527f416464726573733a2063616c6c20746f206e6f6e2d636f6e7472616374000000604482015260640161023d565b50816104c5565b6104c583838151156106275781518083602001fd5b8060405162461bcd60e51b815260040161023d9190610757565b6001600160a01b038116811461024f575f80fd5b5f805f60608486031215610667575f80fd5b833561067281610641565b925060208401359150604084013561068981610641565b809150509250925092565b5f602082840312156106a4575f80fd5b81356106af81610641565b9392505050565b5f80604083850312156106c7575f80fd5b8235915060208301356106d981610641565b809150509250929050565b5f602082840312156106f4575f80fd5b5051919050565b5f6020828403121561070b575f80fd5b815180151581146106af575f80fd5b5f5b8381101561073457818101518382015260200161071c565b50505f910152565b5f825161074d81846020870161071a565b9190910192915050565b602081525f825180602084015261077581604085016020870161071a565b601f01601f1916919091016040019291505056fea2646970667358221220dfeacc01701f1bb08c9e15c6633754cab074861d193afb964ac356bc7258428d64736f6c63430008140033",
  "devdoc": {
    "author": "Venus",
    "kind": "dev",
    "methods": {
      "owner()": {
        "details": "Returns the address of the current owner."
      },
      "transferOwnership(address)": {
        "details": "Transfers ownership of the contract to a new account (`newOwner`). Can only be called by the current owner."
      },
      "withdrawTreasuryNative(uint256,address)": {
        "params": {
          "withdrawAddress": "The withdraw address",
          "withdrawAmount": "The withdraw amount to owner"
        }
      },
      "withdrawTreasuryToken(address,uint256,address)": {
        "params": {
          "tokenAddress": "The address of treasury token",
          "withdrawAddress": "The withdraw address",
          "withdrawAmount": "The withdraw amount to owner"
        }
      }
    },
    "title": "VTreasuryV8",
    "version": 1
  },
  "userdoc": {
    "kind": "user",
    "methods": {
      "renounceOwnership()": {
        "notice": "Empty implementation to avoid any mishappening."
      },
      "withdrawTreasuryNative(uint256,address)": {
        "notice": "Withdraw Treasury Native, Only owner call it"
      },
      "withdrawTreasuryToken(address,uint256,address)": {
        "notice": "Withdraw Treasury  Tokens, Only owner call it"
      }
    },
    "notice": "Protocol treasury that holds tokens owned by Venus",
    "version": 1
  },
  "storageLayout": {
    "storage": [
      {
        "astId": 1458,
        "contract": "contracts/Governance/VTreasuryV8.sol:VTreasuryV8",
        "label": "_owner",
        "offset": 0,
        "slot": "0",
        "type": "t_address"
      }
    ],
    "types": {
      "t_address": {
        "encoding": "inplace",
        "label": "address",
        "numberOfBytes": "20"
      }
    }
  }
}