{
  "address": "0x1Ab8e6dD7C8CAa2a7B5B5dE6969D985e174Ce0DB",
  "abi": [
    {
      "inputs": [
        {
          "internalType": "contract ILayerZeroEndpoint",
          "name": "lzEndpoint_",
          "type": "address"
        },
        {
          "internalType": "contract IAccessControlManagerV8",
          "name": "accessControlManager_",
          "type": "address"
        },
        {
          "internalType": "uint16",
          "name": "dstChainId_",
          "type": "uint16"
        }
      ],
      "stateMutability": "nonpayable",
      "type": "constructor"
    },
    {
      "inputs": [],
      "name": "ZeroAddressNotAllowed",
      "type": "error"
    },
    {
      "anonymous": false,
      "inputs": [
        {
          "indexed": false,
          "internalType": "uint256",
          "name": "",
          "type": "uint256"
        },
        {
          "indexed": false,
          "internalType": "bytes32",
          "name": "",
          "type": "bytes32"
        }
      ],
      "name": "ClearPayload",
      "type": "event"
    },
    {
      "anonymous": false,
      "inputs": [
        {
          "indexed": false,
          "internalType": "uint16",
          "name": "remoteChainId",
          "type": "uint16"
        },
        {
          "indexed": false,
          "internalType": "bytes",
          "name": "payload",
          "type": "bytes"
        },
        {
          "indexed": false,
          "internalType": "bytes",
          "name": "adapterParams",
          "type": "bytes"
        }
      ],
      "name": "ExecuteSyncVotes",
      "type": "event"
    },
    {
      "anonymous": false,
      "inputs": [
        {
          "indexed": true,
          "internalType": "address",
          "name": "previousOwner",
          "type": "address"
        },
        {
          "indexed": true,
          "internalType": "address",
          "name": "newOwner",
          "type": "address"
        }
      ],
      "name": "OwnershipTransferred",
      "type": "event"
    },
    {
      "anonymous": false,
      "inputs": [
        {
          "indexed": false,
          "internalType": "address",
          "name": "account",
          "type": "address"
        }
      ],
      "name": "Paused",
      "type": "event"
    },
    {
      "anonymous": false,
      "inputs": [
        {
          "indexed": true,
          "internalType": "uint16",
          "name": "remoteChainId",
          "type": "uint16"
        },
        {
          "indexed": false,
          "internalType": "bytes",
          "name": "remoteAddress",
          "type": "bytes"
        }
      ],
      "name": "SetTrustedRemoteAddress",
      "type": "event"
    },
    {
      "anonymous": false,
      "inputs": [
        {
          "indexed": false,
          "internalType": "uint256",
          "name": "votesSync",
          "type": "uint256"
        },
        {
          "indexed": false,
          "internalType": "uint16",
          "name": "remoteChainId",
          "type": "uint16"
        },
        {
          "indexed": false,
          "internalType": "bytes",
          "name": "payload",
          "type": "bytes"
        },
        {
          "indexed": false,
          "internalType": "bytes",
          "name": "adapterParams",
          "type": "bytes"
        },
        {
          "indexed": false,
          "internalType": "uint256",
          "name": "value",
          "type": "uint256"
        },
        {
          "indexed": false,
          "internalType": "bytes",
          "name": "reason",
          "type": "bytes"
        }
      ],
      "name": "StorePayload",
      "type": "event"
    },
    {
      "anonymous": false,
      "inputs": [
        {
          "indexed": true,
          "internalType": "uint16",
          "name": "chainId",
          "type": "uint16"
        }
      ],
      "name": "TrustedRemoteRemoved",
      "type": "event"
    },
    {
      "anonymous": false,
      "inputs": [
        {
          "indexed": false,
          "internalType": "address",
          "name": "account",
          "type": "address"
        }
      ],
      "name": "Unpaused",
      "type": "event"
    },
    {
      "inputs": [],
      "name": "BSC_CHAIN_ID",
      "outputs": [
        {
          "internalType": "uint16",
          "name": "",
          "type": "uint16"
        }
      ],
      "stateMutability": "view",
      "type": "function"
    },
    {
      "inputs": [],
      "name": "LZ_ENDPOINT",
      "outputs": [
        {
          "internalType": "contract ILayerZeroEndpoint",
          "name": "",
          "type": "address"
        }
      ],
      "stateMutability": "view",
      "type": "function"
    },
    {
      "inputs": [],
      "name": "accessControlManager",
      "outputs": [
        {
          "internalType": "contract IAccessControlManagerV8",
          "name": "",
          "type": "address"
        }
      ],
      "stateMutability": "view",
      "type": "function"
    },
    {
      "inputs": [
        {
          "internalType": "bytes",
          "name": "payload",
          "type": "bytes"
        },
        {
          "internalType": "bytes",
          "name": "adapterParams",
          "type": "bytes"
        }
      ],
      "name": "estimateFee",
      "outputs": [
        {
          "internalType": "uint256",
          "name": "",
          "type": "uint256"
        },
        {
          "internalType": "uint256",
          "name": "",
          "type": "uint256"
        }
      ],
      "stateMutability": "view",
      "type": "function"
    },
    {
      "inputs": [],
      "name": "owner",
      "outputs": [
        {
          "internalType": "address",
          "name": "",
          "type": "address"
        }
      ],
      "stateMutability": "view",
      "type": "function"
    },
    {
      "inputs": [],
      "name": "paused",
      "outputs": [
        {
          "internalType": "bool",
          "name": "",
          "type": "bool"
        }
      ],
      "stateMutability": "view",
      "type": "function"
    },
    {
      "inputs": [],
      "name": "removeTrustedRemote",
      "outputs": [],
      "stateMutability": "nonpayable",
      "type": "function"
    },
    {
      "inputs": [],
      "name": "renounceOwnership",
      "outputs": [],
      "stateMutability": "nonpayable",
      "type": "function"
    },
    {
      "inputs": [
        {
          "internalType": "uint256",
          "name": "votesSynced",
          "type": "uint256"
        },
        {
          "internalType": "bytes",
          "name": "payload",
          "type": "bytes"
        },
        {
          "internalType": "bytes",
          "name": "adapterParams",
          "type": "bytes"
        },
        {
          "internalType": "uint256",
          "name": "originalValue",
          "type": "uint256"
        }
      ],
      "name": "retrySyncVotes",
      "outputs": [],
      "stateMutability": "payable",
      "type": "function"
    },
    {
      "inputs": [
        {
          "internalType": "bytes",
          "name": "remoteAddress",
          "type": "bytes"
        }
      ],
      "name": "setTrustedRemoteAddress",
      "outputs": [],
      "stateMutability": "nonpayable",
      "type": "function"
    },
    {
      "inputs": [
        {
          "internalType": "uint256",
          "name": "",
          "type": "uint256"
        }
      ],
      "name": "storedExecutionHashes",
      "outputs": [
        {
          "internalType": "bytes32",
          "name": "",
          "type": "bytes32"
        }
      ],
      "stateMutability": "view",
      "type": "function"
    },
    {
      "inputs": [
        {
          "internalType": "bytes",
          "name": "payload",
          "type": "bytes"
        },
        {
          "internalType": "bytes",
          "name": "adapterParams",
          "type": "bytes"
        }
      ],
      "name": "syncVotes",
      "outputs": [],
      "stateMutability": "payable",
      "type": "function"
    },
    {
      "inputs": [
        {
          "internalType": "address",
          "name": "newOwner",
          "type": "address"
        }
      ],
      "name": "transferOwnership",
      "outputs": [],
      "stateMutability": "nonpayable",
      "type": "function"
    },
    {
      "inputs": [
        {
          "internalType": "uint16",
          "name": "",
          "type": "uint16"
        }
      ],
      "name": "trustedRemoteLookup",
      "outputs": [
        {
          "internalType": "bytes",
          "name": "",
          "type": "bytes"
        }
      ],
      "stateMutability": "view",
      "type": "function"
    },
    {
      "inputs": [],
      "name": "votesSync",
      "outputs": [
        {
          "internalType": "uint256",
          "name": "",
          "type": "uint256"
        }
      ],
      "stateMutability": "view",
      "type": "function"
    }
  ],
  "transactionHash": "0xc74e353db90ef580fb09ceb6b85e17dfe1c97640da19e9540bbede1c8be84898",
  "args": [
    "0x83c73Da98cf733B03315aFa8758834b36a195b87",
    "0x049f77F7046266d27C3bC96376f53C17Ef09c986",
    10102
  ],
  "numDeployments": 1,
  "solcInputHash": "00e7a36db225df376564a10f64ddf29a",
  "bytecode": "0x60a06040523480156200001157600080fd5b5060405162001a9c38038062001a9c833981016040819052620000349162000133565b6200003f33620000a2565b6000805460ff60a01b19169055600180556200005b83620000f2565b6200006682620000f2565b600480546001600160a01b039384166001600160a01b0319918216179091556003805494909316931692909217905561ffff166080526200018d565b600080546001600160a01b038381166001600160a01b0319831681178455604051919092169283917f8be0079c531659141344cd1fd0a4f28419497f9722a3daafe3b4186f6b6457e09190a35050565b6001600160a01b0381166200011a576040516342bcdf7f60e11b815260040160405180910390fd5b50565b6001600160a01b03811681146200011a57600080fd5b6000806000606084860312156200014957600080fd5b835162000156816200011d565b602085015190935062000169816200011d565b604085015190925061ffff811681146200018257600080fd5b809150509250925092565b60805161189f620001fd6000396000818161025001528181610361015281816103a40152818161041101528181610450015281816105470152818161065f0152818161075f015281816107bd0152818161098201528181610b1e01528181610b430152610c55015261189f6000f3fe6080604052600436106100e85760003560e01c80638da5cb5b1161008a578063b4a0bdf311610059578063b4a0bdf314610285578063cd4d1c64146102a5578063e9dfec4a146102c5578063f2fde38b146102fa57600080fd5b80638da5cb5b146101e35780639a72b10f146102155780639c9c080c1461022b578063a80ad6511461023e57600080fd5b8063715018a6116100c6578063715018a6146101535780637178a17f146101685780637533d7881461017b5780637dbb533c146101a857600080fd5b806344fa4311146100ed5780634ea19f721461010f5780635c975abb14610124575b600080fd5b3480156100f957600080fd5b5061010d61010836600461108c565b61031a565b005b34801561011b57600080fd5b5061010d610404565b34801561013057600080fd5b50600054600160a01b900460ff1660405190151581526020015b60405180910390f35b34801561015f57600080fd5b5061010d610499565b61010d610176366004611171565b6104ad565b34801561018757600080fd5b5061019b6101963660046111d5565b6107fa565b60405161014a919061124d565b3480156101b457600080fd5b506101d56101c3366004611260565b60056020526000908152604090205481565b60405190815260200161014a565b3480156101ef57600080fd5b506000546001600160a01b03165b6040516001600160a01b03909116815260200161014a565b34801561022157600080fd5b506101d560025481565b61010d610239366004611279565b610894565b34801561024a57600080fd5b506102727f000000000000000000000000000000000000000000000000000000000000000081565b60405161ffff909116815260200161014a565b34801561029157600080fd5b506004546101fd906001600160a01b031681565b3480156102b157600080fd5b506003546101fd906001600160a01b031681565b3480156102d157600080fd5b506102e56102e03660046112fb565b610c28565b6040805192835260208301919091520161014a565b34801561030657600080fd5b5061010d610315366004611367565b610cd6565b610322610d4f565b61033761032f8284611390565b60601c610da9565b81813060405160200161034c939291906113c5565b60408051601f1981840301815291815261ffff7f00000000000000000000000000000000000000000000000000000000000000001660009081526006602090815291902082516103a193919290910190610f74565b507f000000000000000000000000000000000000000000000000000000000000000061ffff167f8c0400cfe2d1199b1a725c78960bcc2a344d869b80590d0f2bd005db15a572ce83836040516103f8929190611414565b60405180910390a25050565b61040c610d4f565b61ffff7f000000000000000000000000000000000000000000000000000000000000000016600090815260066020526040812061044891610ff8565b60405161ffff7f000000000000000000000000000000000000000000000000000000000000000016907f6d5075c81d4d9e75bec6052f4e44f58f8a8cf1327544addbbf015fb06f83bd3790600090a2565b6104a1610d4f565b6104ab6000610dd0565b565b6104b5610e20565b6104ec6040518060400160405280601681526020017573796e63566f7465732862797465732c62797465732960501b815250610e6d565b81516000036105425760405162461bcd60e51b815260206004820152601e60248201527f566f74657353796e6353656e6465723a20456d707479207061796c6f6164000060448201526064015b60405180910390fd5b61ffff7f0000000000000000000000000000000000000000000000000000000000000000166000908152600660205260408120805461058090611430565b80601f01602080910402602001604051908101604052809291908181526020018280546105ac90611430565b80156105f95780601f106105ce576101008083540402835291602001916105f9565b820191906000526020600020905b8154815290600101906020018083116105dc57829003601f168201915b5050505050905080516000036106215760405162461bcd60e51b81526004016105399061146a565b60028054906000610631836114dd565b909155505060035460405162c5803160e81b81526001600160a01b039091169063c5803100903490610692907f0000000000000000000000000000000000000000000000000000000000000000908690899032906000908b906004016114f6565b6000604051808303818588803b1580156106ab57600080fd5b505af1935050505080156106bd575060015b61079a573d8080156106eb576040519150601f19603f3d011682016040523d82523d6000602084013e6106f0565b606091505b5060025484843460405160200161070a949392919061155d565b60408051601f19818403018152828252805160209182012060028054600090815260059093529290912055547f6d16111647e03d7f1cb2b71c02eafe3355b97dfc17af3de1b94ef39c8a9ee4d99161078c91907f000000000000000000000000000000000000000000000000000000000000000090889088903490889061159a565b60405180910390a150505050565b7fd8683ecbce9b5cba45d2dac144d30d10feb2288b951c6b8829baa29862a1b8497f000000000000000000000000000000000000000000000000000000000000000084846040516107ed939291906115e9565b60405180910390a1505050565b6006602052600090815260409020805461081390611430565b80601f016020809104026020016040519081016040528092919081815260200182805461083f90611430565b801561088c5780601f106108615761010080835404028352916020019161088c565b820191906000526020600020905b81548152906001019060200180831161086f57829003601f168201915b505050505081565b61089c610f1b565b6108a4610e20565b6108c56040518060600160405280602b815260200161183f602b9139610e6d565b6000868152600560205260409020548061092c5760405162461bcd60e51b815260206004820152602260248201527f566f74657353796e6353656e6465723a206e6f2073746f726564207061796c6f604482015261185960f21b6064820152608401610539565b600085900361097d5760405162461bcd60e51b815260206004820152601e60248201527f566f74657353796e6353656e6465723a20656d707479207061796c6f616400006044820152606401610539565b61ffff7f000000000000000000000000000000000000000000000000000000000000000016600090815260066020526040812080546109bb90611430565b80601f01602080910402602001604051908101604052809291908181526020018280546109e790611430565b8015610a345780601f10610a0957610100808354040283529160200191610a34565b820191906000526020600020905b815481529060010190602001808311610a1757829003601f168201915b505050505090508051600003610a5c5760405162461bcd60e51b81526004016105399061146a565b6000888888888888604051602001610a7996959493929190611622565b604051602081830303815290604052905082818051906020012014610af25760405162461bcd60e51b815260206004820152602960248201527f566f74657353796e6353656e6465723a20696e76616c696420657865637574696044820152686f6e20706172616d7360b81b6064820152608401610539565b6000898152600560205260408120556003546001600160a01b031663c5803100610b1c3487611663565b7f0000000000000000000000000000000000000000000000000000000000000000600660007f000000000000000000000000000000000000000000000000000000000000000061ffff1661ffff1681526020019081526020016000208c8c3360008e8e6040518a63ffffffff1660e01b8152600401610ba298979695949392919061167b565b6000604051808303818588803b158015610bbb57600080fd5b505af1158015610bcf573d6000803e3d6000fd5b5050604080518d8152602081018890527f2dc7ac5d08fd553243fc66b5f15262e3f3013e27abf660d7bb3fccf133322f6e9450019150610c0c9050565b60405180910390a1505050610c2060018055565b505050505050565b60035460405163040a7bb160e41b815260009182916001600160a01b03909116906340a7bb1090610c89907f00000000000000000000000000000000000000000000000000000000000000009030908b908b9088908c908c9060040161177c565b6040805180830381865afa158015610ca5573d6000803e3d6000fd5b505050506040513d601f19601f82011682018060405250810190610cc991906117d4565b9150915094509492505050565b610cde610d4f565b6001600160a01b038116610d435760405162461bcd60e51b815260206004820152602660248201527f4f776e61626c653a206e6577206f776e657220697320746865207a65726f206160448201526564647265737360d01b6064820152608401610539565b610d4c81610dd0565b50565b6000546001600160a01b031633146104ab5760405162461bcd60e51b815260206004820181905260248201527f4f776e61626c653a2063616c6c6572206973206e6f7420746865206f776e65726044820152606401610539565b6001600160a01b038116610d4c576040516342bcdf7f60e11b815260040160405180910390fd5b600080546001600160a01b038381166001600160a01b0319831681178455604051919092169283917f8be0079c531659141344cd1fd0a4f28419497f9722a3daafe3b4186f6b6457e09190a35050565b600054600160a01b900460ff16156104ab5760405162461bcd60e51b815260206004820152601060248201526f14185d5cd8589b194e881c185d5cd95960821b6044820152606401610539565b600480546040516318c5e8ab60e01b81526001600160a01b03909116916318c5e8ab91610e9e9133918691016117f8565b602060405180830381865afa158015610ebb573d6000803e3d6000fd5b505050506040513d601f19601f82011682018060405250810190610edf919061181c565b610d4c5760405162461bcd60e51b815260206004820152600d60248201526c1858d8d95cdcc819195b9a5959609a1b6044820152606401610539565b600260015403610f6d5760405162461bcd60e51b815260206004820152601f60248201527f5265656e7472616e637947756172643a207265656e7472616e742063616c6c006044820152606401610539565b6002600155565b828054610f8090611430565b90600052602060002090601f016020900481019282610fa25760008555610fe8565b82601f10610fbb57805160ff1916838001178555610fe8565b82800160010185558215610fe8579182015b82811115610fe8578251825591602001919060010190610fcd565b50610ff492915061102e565b5090565b50805461100490611430565b6000825580601f10611014575050565b601f016020900490600052602060002090810190610d4c91905b5b80821115610ff4576000815560010161102f565b60008083601f84011261105557600080fd5b50813567ffffffffffffffff81111561106d57600080fd5b60208301915083602082850101111561108557600080fd5b9250929050565b6000806020838503121561109f57600080fd5b823567ffffffffffffffff8111156110b657600080fd5b6110c285828601611043565b90969095509350505050565b634e487b7160e01b600052604160045260246000fd5b600082601f8301126110f557600080fd5b813567ffffffffffffffff80821115611110576111106110ce565b604051601f8301601f19908116603f01168101908282118183101715611138576111386110ce565b8160405283815286602085880101111561115157600080fd5b836020870160208301376000602085830101528094505050505092915050565b6000806040838503121561118457600080fd5b823567ffffffffffffffff8082111561119c57600080fd5b6111a8868387016110e4565b935060208501359150808211156111be57600080fd5b506111cb858286016110e4565b9150509250929050565b6000602082840312156111e757600080fd5b813561ffff811681146111f957600080fd5b9392505050565b6000815180845260005b818110156112265760208185018101518683018201520161120a565b81811115611238576000602083870101525b50601f01601f19169290920160200192915050565b6020815260006111f96020830184611200565b60006020828403121561127257600080fd5b5035919050565b6000806000806000806080878903121561129257600080fd5b86359550602087013567ffffffffffffffff808211156112b157600080fd5b6112bd8a838b01611043565b909750955060408901359150808211156112d657600080fd5b506112e389828a01611043565b979a9699509497949695606090950135949350505050565b6000806000806040858703121561131157600080fd5b843567ffffffffffffffff8082111561132957600080fd5b61133588838901611043565b9096509450602087013591508082111561134e57600080fd5b5061135b87828801611043565b95989497509550505050565b60006020828403121561137957600080fd5b81356001600160a01b03811681146111f957600080fd5b6bffffffffffffffffffffffff1981358181169160148510156113bd5780818660140360031b1b83161692505b505092915050565b8284823760609190911b6bffffffffffffffffffffffff19169101908152601401919050565b81835281816020850137506000828201602090810191909152601f909101601f19169091010190565b6020815260006114286020830184866113eb565b949350505050565b600181811c9082168061144457607f821691505b60208210810361146457634e487b7160e01b600052602260045260246000fd5b50919050565b6020808252603a908201527f566f74657353796e6353656e6465723a2064657374696e6174696f6e2063686160408201527f696e206973206e6f742061207472757374656420736f75726365000000000000606082015260800190565b634e487b7160e01b600052601160045260246000fd5b6000600182016114ef576114ef6114c7565b5060010190565b61ffff8716815260c06020820152600061151360c0830188611200565b82810360408401526115258188611200565b6001600160a01b0387811660608601528616608085015283810360a085015290506115508185611200565b9998505050505050505050565b8481526080602082015260006115766080830186611200565b82810360408401526115888186611200565b91505082606083015295945050505050565b86815261ffff8616602082015260c0604082015260006115bd60c0830187611200565b82810360608401526115cf8187611200565b905084608084015282810360a08401526115508185611200565b61ffff841681526060602082015260006116066060830185611200565b82810360408401526116188185611200565b9695505050505050565b86815260806020820152600061163c6080830187896113eb565b828103604084015261164f8186886113eb565b915050826060830152979650505050505050565b60008219821115611676576116766114c7565b500190565b61ffff8916815260c060208201526000808954818160011c905060018216806116a557607f821691505b6020821081036116c357634e487b7160e01b84526022600452602484fd5b60c0860182905260e086018180156116e257600181146116f457611722565b60ff1985168252602082019550611722565b60008f81526020902060005b8581101561171c57815484820152600190910190602001611700565b83019650505b5050505050828103604084015261173a81898b6113eb565b6001600160a01b038816606085015290506001600160a01b038616608084015282810360a084015261176d8185876113eb565b9b9a5050505050505050505050565b61ffff881681526001600160a01b038716602082015260a0604082018190526000906117ab90830187896113eb565b851515606084015282810360808401526117c68185876113eb565b9a9950505050505050505050565b600080604083850312156117e757600080fd5b505080516020909101519092909150565b6001600160a01b038316815260406020820181905260009061142890830184611200565b60006020828403121561182e57600080fd5b815180151581146111f957600080fdfe726574727953796e63566f7465732875696e743235362c62797465732c62797465732c75696e7432353629a2646970667358221220aeb696cbca4fcbdaef6679417bbbffb7e5e04d83d5f467c3a68c1c5dc08a478964736f6c634300080d0033",
  "devdoc": {
    "author": "Venus",
    "kind": "dev",
    "methods": {
      "estimateFee(bytes,bytes)": {
        "details": "The estimated fees are the minimum required; it's recommended to increase the fees amount when sending a message. The unused amount will be refunded",
        "params": {
          "adapterParams": "The params used to specify the custom amount of gas required for the execution on the destination",
          "payload": "The payload to be sent to the remote chain. It's computed as follows: payload = abi.encode(delegatee, checkpoint, votes)"
        },
        "returns": {
          "_0": "nativeFee The amount of fee in the native gas token (e.g. ETH)",
          "_1": "zroFee The amount of fee in ZRO token"
        }
      },
      "owner()": {
        "details": "Returns the address of the current owner."
      },
      "paused()": {
        "details": "Returns true if the contract is paused, and false otherwise."
      },
      "removeTrustedRemote()": {
        "custom:access": "Only owner.",
        "custom:event": "Emit TrustedRemoteRemoved with remote chain Id."
      },
      "renounceOwnership()": {
        "details": "Leaves the contract without owner. It will not be possible to call `onlyOwner` functions. Can only be called by the current owner. NOTE: Renouncing ownership will leave the contract without an owner, thereby disabling any functionality that is only available to the owner."
      },
      "retrySyncVotes(uint256,bytes,bytes,uint256)": {
        "custom:access": "Controlled by Access Control Manager",
        "custom:event": "Emits ClearPayload with votesSynced and hash",
        "details": "Allows providing more fees if needed. The extra fees will be refunded to the caller",
        "params": {
          "adapterParams": "The params used to specify the custom amount of gas required for the execution on the Binance chain",
          "originalValue": "The msg.value passed when syncVotes function was called",
          "payload": "The payload to be sent to the remote chain. It's computed as follows: payload = abi.encode(delegatee, checkpoint, votes)",
          "votesSynced": "Number of votes synced to identify a failed message"
        }
      },
      "setTrustedRemoteAddress(bytes)": {
        "custom:access": "Controlled by AccessControlManager.",
        "custom:event": "Emits SetTrustedRemoteAddress with remote chain Id and remote address",
        "params": {
          "remoteAddress": "The address of the contract on the remote chain to receive messages sent by this contract"
        }
      },
      "syncVotes(bytes,bytes)": {
        "custom:access": "Controlled by Access Control Manager",
        "custom:event": "Emit ExecuteSyncVotes on success and StorePayload on failure",
        "params": {
          "adapterParams": "The params used to specify the custom amount of gas required for the execution on the destination",
          "payload": "The payload to be sent to the remote chain. It's computed as follows: payload = abi.encode(delegatee, checkpoint, votes)"
        }
      },
      "transferOwnership(address)": {
        "details": "Transfers ownership of the contract to a new account (`newOwner`). Can only be called by the current owner."
      }
    },
    "stateVariables": {
      "storedExecutionHashes": {
        "details": "[proposalId] -> [executionHash]"
      }
    },
    "title": "VotesSyncSender",
    "version": 1
  },
  "userdoc": {
    "errors": {
      "ZeroAddressNotAllowed()": [
        {
          "notice": "Thrown if the supplied address is a zero address where it is not allowed"
        }
      ]
    },
    "events": {
      "ClearPayload(uint256,bytes32)": {
        "notice": "Emitted when votes synced on retry"
      },
      "ExecuteSyncVotes(uint16,bytes,bytes)": {
        "notice": "Emitted when votes synced on BSC chain successfully"
      },
      "SetTrustedRemoteAddress(uint16,bytes)": {
        "notice": "Emitted when a remote message receiver is set for the remote chain"
      },
      "StorePayload(uint256,uint16,bytes,bytes,uint256,bytes)": {
        "notice": "Emitted when an execution hash of a failed message is saved"
      },
      "TrustedRemoteRemoved(uint16)": {
        "notice": "Emitted when trusted remote sets to empty."
      }
    },
    "kind": "user",
    "methods": {
      "BSC_CHAIN_ID()": {
        "notice": "Remote chain id of binance"
      },
      "LZ_ENDPOINT()": {
        "notice": "LayerZero endpoint for sending messages to remote chains"
      },
      "accessControlManager()": {
        "notice": "Acess Control Manager"
      },
      "estimateFee(bytes,bytes)": {
        "notice": "Estimates LayerZero fees for cross-chain message delivery to the remote chain"
      },
      "removeTrustedRemote()": {
        "notice": "Remove trusted remote from storage."
      },
      "retrySyncVotes(uint256,bytes,bytes,uint256)": {
        "notice": "Resends a previously failed message"
      },
      "setTrustedRemoteAddress(bytes)": {
        "notice": "Sets the remote message receiver address"
      },
      "storedExecutionHashes(uint256)": {
        "notice": "Execution hashes of failed messages"
      },
      "syncVotes(bytes,bytes)": {
        "notice": "Sync votes of user on Binance chain"
      },
      "trustedRemoteLookup(uint16)": {
        "notice": "Specifies the allowed path for sending messages (remote chainId => remote app address + local app address)"
      },
      "votesSync()": {
        "notice": "Number of times votes synced"
      }
    },
    "notice": "The VotesSyncSender send voting information of user from remote chains(non-BSC chains) to Binance chain with the help of layer zero bridge. It sends voting information of user from XVSVaultDest to receiver contract on Binance chain in the form of encoded data known as payload.",
    "version": 1
  },
  "storageLayout": {
    "storage": [
      {
        "astId": 2262,
        "contract": "contracts/XVSVault/VotesSyncSender.sol:VotesSyncSender",
        "label": "_owner",
        "offset": 0,
        "slot": "0",
        "type": "t_address"
      },
      {
        "astId": 2385,
        "contract": "contracts/XVSVault/VotesSyncSender.sol:VotesSyncSender",
        "label": "_paused",
        "offset": 20,
        "slot": "0",
        "type": "t_bool"
      },
      {
        "astId": 2486,
        "contract": "contracts/XVSVault/VotesSyncSender.sol:VotesSyncSender",
        "label": "_status",
        "offset": 0,
        "slot": "1",
        "type": "t_uint256"
      },
      {
        "astId": 3426,
        "contract": "contracts/XVSVault/VotesSyncSender.sol:VotesSyncSender",
        "label": "votesSync",
        "offset": 0,
        "slot": "2",
        "type": "t_uint256"
      },
      {
        "astId": 3430,
        "contract": "contracts/XVSVault/VotesSyncSender.sol:VotesSyncSender",
        "label": "LZ_ENDPOINT",
        "offset": 0,
        "slot": "3",
        "type": "t_contract(ILayerZeroEndpoint)1357"
      },
      {
        "astId": 3434,
        "contract": "contracts/XVSVault/VotesSyncSender.sol:VotesSyncSender",
        "label": "accessControlManager",
        "offset": 0,
        "slot": "4",
        "type": "t_contract(IAccessControlManagerV8)2761"
      },
      {
        "astId": 3439,
        "contract": "contracts/XVSVault/VotesSyncSender.sol:VotesSyncSender",
        "label": "storedExecutionHashes",
        "offset": 0,
        "slot": "5",
        "type": "t_mapping(t_uint256,t_bytes32)"
      },
      {
        "astId": 3444,
        "contract": "contracts/XVSVault/VotesSyncSender.sol:VotesSyncSender",
        "label": "trustedRemoteLookup",
        "offset": 0,
        "slot": "6",
        "type": "t_mapping(t_uint16,t_bytes_storage)"
      }
    ],
    "types": {
      "t_address": {
        "encoding": "inplace",
        "label": "address",
        "numberOfBytes": "20"
      },
      "t_bool": {
        "encoding": "inplace",
        "label": "bool",
        "numberOfBytes": "1"
      },
      "t_bytes32": {
        "encoding": "inplace",
        "label": "bytes32",
        "numberOfBytes": "32"
      },
      "t_bytes_storage": {
        "encoding": "bytes",
        "label": "bytes",
        "numberOfBytes": "32"
      },
      "t_contract(IAccessControlManagerV8)2761": {
        "encoding": "inplace",
        "label": "contract IAccessControlManagerV8",
        "numberOfBytes": "20"
      },
      "t_contract(ILayerZeroEndpoint)1357": {
        "encoding": "inplace",
        "label": "contract ILayerZeroEndpoint",
        "numberOfBytes": "20"
      },
      "t_mapping(t_uint16,t_bytes_storage)": {
        "encoding": "mapping",
        "key": "t_uint16",
        "label": "mapping(uint16 => bytes)",
        "numberOfBytes": "32",
        "value": "t_bytes_storage"
      },
      "t_mapping(t_uint256,t_bytes32)": {
        "encoding": "mapping",
        "key": "t_uint256",
        "label": "mapping(uint256 => bytes32)",
        "numberOfBytes": "32",
        "value": "t_bytes32"
      },
      "t_uint16": {
        "encoding": "inplace",
        "label": "uint16",
        "numberOfBytes": "2"
      },
      "t_uint256": {
        "encoding": "inplace",
        "label": "uint256",
        "numberOfBytes": "32"
      }
    }
  }
}