{
  "address": "0x0d466D71ac1BB477b51049593e0EeE88F5778641",
  "abi": [
    {
      "inputs": [],
      "payable": false,
      "stateMutability": "nonpayable",
      "type": "constructor"
    },
    {
      "anonymous": false,
      "inputs": [
        {
          "indexed": true,
          "internalType": "address",
          "name": "user",
          "type": "address"
        },
        {
          "indexed": true,
          "internalType": "address",
          "name": "rewardToken",
          "type": "address"
        },
        {
          "indexed": true,
          "internalType": "uint256",
          "name": "pid",
          "type": "uint256"
        },
        {
          "indexed": false,
          "internalType": "uint256",
          "name": "amount",
          "type": "uint256"
        }
      ],
      "name": "Claim",
      "type": "event"
    },
    {
      "anonymous": false,
      "inputs": [
        {
          "indexed": true,
          "internalType": "address",
          "name": "delegator",
          "type": "address"
        },
        {
          "indexed": true,
          "internalType": "address",
          "name": "fromDelegate",
          "type": "address"
        },
        {
          "indexed": true,
          "internalType": "address",
          "name": "toDelegate",
          "type": "address"
        }
      ],
      "name": "DelegateChangedV2",
      "type": "event"
    },
    {
      "anonymous": false,
      "inputs": [
        {
          "indexed": true,
          "internalType": "address",
          "name": "delegate",
          "type": "address"
        },
        {
          "indexed": false,
          "internalType": "uint256",
          "name": "previousBalance",
          "type": "uint256"
        },
        {
          "indexed": false,
          "internalType": "uint256",
          "name": "newBalance",
          "type": "uint256"
        }
      ],
      "name": "DelegateVotesChangedV2",
      "type": "event"
    },
    {
      "anonymous": false,
      "inputs": [
        {
          "indexed": true,
          "internalType": "address",
          "name": "user",
          "type": "address"
        },
        {
          "indexed": true,
          "internalType": "address",
          "name": "rewardToken",
          "type": "address"
        },
        {
          "indexed": true,
          "internalType": "uint256",
          "name": "pid",
          "type": "uint256"
        },
        {
          "indexed": false,
          "internalType": "uint256",
          "name": "amount",
          "type": "uint256"
        }
      ],
      "name": "Deposit",
      "type": "event"
    },
    {
      "anonymous": false,
      "inputs": [
        {
          "indexed": true,
          "internalType": "address",
          "name": "user",
          "type": "address"
        },
        {
          "indexed": true,
          "internalType": "address",
          "name": "rewardToken",
          "type": "address"
        },
        {
          "indexed": true,
          "internalType": "uint256",
          "name": "pid",
          "type": "uint256"
        },
        {
          "indexed": false,
          "internalType": "uint256",
          "name": "amount",
          "type": "uint256"
        }
      ],
      "name": "ExecutedWithdrawal",
      "type": "event"
    },
    {
      "anonymous": false,
      "inputs": [
        {
          "indexed": false,
          "internalType": "address",
          "name": "oldAccessControlManager",
          "type": "address"
        },
        {
          "indexed": false,
          "internalType": "address",
          "name": "newAccessControlManager",
          "type": "address"
        }
      ],
      "name": "NewAccessControlManager",
      "type": "event"
    },
    {
      "anonymous": false,
      "inputs": [
        {
          "indexed": true,
          "internalType": "contract IPrime",
          "name": "oldPrimeToken",
          "type": "address"
        },
        {
          "indexed": true,
          "internalType": "contract IPrime",
          "name": "newPrimeToken",
          "type": "address"
        },
        {
          "indexed": false,
          "internalType": "address",
          "name": "oldPrimeRewardToken",
          "type": "address"
        },
        {
          "indexed": false,
          "internalType": "address",
          "name": "newPrimeRewardToken",
          "type": "address"
        },
        {
          "indexed": false,
          "internalType": "uint256",
          "name": "oldPrimePoolId",
          "type": "uint256"
        },
        {
          "indexed": false,
          "internalType": "uint256",
          "name": "newPrimePoolId",
          "type": "uint256"
        }
      ],
      "name": "NewPrimeToken",
      "type": "event"
    },
    {
      "anonymous": false,
      "inputs": [
        {
          "indexed": true,
          "internalType": "address",
          "name": "rewardToken",
          "type": "address"
        },
        {
          "indexed": true,
          "internalType": "uint256",
          "name": "pid",
          "type": "uint256"
        },
        {
          "indexed": true,
          "internalType": "address",
          "name": "token",
          "type": "address"
        },
        {
          "indexed": false,
          "internalType": "uint256",
          "name": "allocPoints",
          "type": "uint256"
        },
        {
          "indexed": false,
          "internalType": "uint256",
          "name": "rewardPerBlock",
          "type": "uint256"
        },
        {
          "indexed": false,
          "internalType": "uint256",
          "name": "lockPeriod",
          "type": "uint256"
        }
      ],
      "name": "PoolAdded",
      "type": "event"
    },
    {
      "anonymous": false,
      "inputs": [
        {
          "indexed": true,
          "internalType": "address",
          "name": "rewardToken",
          "type": "address"
        },
        {
          "indexed": true,
          "internalType": "uint256",
          "name": "pid",
          "type": "uint256"
        },
        {
          "indexed": false,
          "internalType": "uint256",
          "name": "oldAllocPoints",
          "type": "uint256"
        },
        {
          "indexed": false,
          "internalType": "uint256",
          "name": "newAllocPoints",
          "type": "uint256"
        }
      ],
      "name": "PoolUpdated",
      "type": "event"
    },
    {
      "anonymous": false,
      "inputs": [
        {
          "indexed": true,
          "internalType": "address",
          "name": "user",
          "type": "address"
        },
        {
          "indexed": true,
          "internalType": "address",
          "name": "rewardToken",
          "type": "address"
        },
        {
          "indexed": true,
          "internalType": "uint256",
          "name": "pid",
          "type": "uint256"
        },
        {
          "indexed": false,
          "internalType": "uint256",
          "name": "amount",
          "type": "uint256"
        }
      ],
      "name": "RequestedWithdrawal",
      "type": "event"
    },
    {
      "anonymous": false,
      "inputs": [
        {
          "indexed": true,
          "internalType": "address",
          "name": "rewardToken",
          "type": "address"
        },
        {
          "indexed": false,
          "internalType": "uint256",
          "name": "oldReward",
          "type": "uint256"
        },
        {
          "indexed": false,
          "internalType": "uint256",
          "name": "newReward",
          "type": "uint256"
        }
      ],
      "name": "RewardAmountUpdated",
      "type": "event"
    },
    {
      "anonymous": false,
      "inputs": [
        {
          "indexed": false,
          "internalType": "contract IVotesSyncSender",
          "name": "oldBridge",
          "type": "address"
        },
        {
          "indexed": false,
          "internalType": "contract IVotesSyncSender",
          "name": "newBridge",
          "type": "address"
        }
      ],
      "name": "SetBridge",
      "type": "event"
    },
    {
      "anonymous": false,
      "inputs": [
        {
          "indexed": false,
          "internalType": "address",
          "name": "oldXvs",
          "type": "address"
        },
        {
          "indexed": false,
          "internalType": "address",
          "name": "oldStore",
          "type": "address"
        },
        {
          "indexed": false,
          "internalType": "address",
          "name": "newXvs",
          "type": "address"
        },
        {
          "indexed": false,
          "internalType": "address",
          "name": "newStore",
          "type": "address"
        }
      ],
      "name": "StoreUpdated",
      "type": "event"
    },
    {
      "anonymous": false,
      "inputs": [
        {
          "indexed": true,
          "internalType": "address",
          "name": "rewardToken",
          "type": "address"
        },
        {
          "indexed": true,
          "internalType": "address",
          "name": "userAddress",
          "type": "address"
        },
        {
          "indexed": false,
          "internalType": "uint256",
          "name": "oldOwedAmount",
          "type": "uint256"
        },
        {
          "indexed": false,
          "internalType": "uint256",
          "name": "newOwedAmount",
          "type": "uint256"
        }
      ],
      "name": "VaultDebtUpdated",
      "type": "event"
    },
    {
      "anonymous": false,
      "inputs": [
        {
          "indexed": true,
          "internalType": "address",
          "name": "admin",
          "type": "address"
        }
      ],
      "name": "VaultPaused",
      "type": "event"
    },
    {
      "anonymous": false,
      "inputs": [
        {
          "indexed": true,
          "internalType": "address",
          "name": "admin",
          "type": "address"
        }
      ],
      "name": "VaultResumed",
      "type": "event"
    },
    {
      "anonymous": false,
      "inputs": [
        {
          "indexed": true,
          "internalType": "address",
          "name": "rewardToken",
          "type": "address"
        },
        {
          "indexed": true,
          "internalType": "uint256",
          "name": "pid",
          "type": "uint256"
        },
        {
          "indexed": false,
          "internalType": "uint256",
          "name": "oldPeriod",
          "type": "uint256"
        },
        {
          "indexed": false,
          "internalType": "uint256",
          "name": "newPeriod",
          "type": "uint256"
        }
      ],
      "name": "WithdrawalLockingPeriodUpdated",
      "type": "event"
    },
    {
      "constant": true,
      "inputs": [],
      "name": "DELEGATION_TYPEHASH",
      "outputs": [
        {
          "internalType": "bytes32",
          "name": "",
          "type": "bytes32"
        }
      ],
      "payable": false,
      "stateMutability": "view",
      "type": "function"
    },
    {
      "constant": true,
      "inputs": [],
      "name": "DOMAIN_TYPEHASH",
      "outputs": [
        {
          "internalType": "bytes32",
          "name": "",
          "type": "bytes32"
        }
      ],
      "payable": false,
      "stateMutability": "view",
      "type": "function"
    },
    {
      "constant": true,
      "inputs": [],
      "name": "MAX_LOCK_PERIOD",
      "outputs": [
        {
          "internalType": "uint256",
          "name": "",
          "type": "uint256"
        }
      ],
      "payable": false,
      "stateMutability": "view",
      "type": "function"
    },
    {
      "constant": false,
      "inputs": [
        {
          "internalType": "contract XVSVaultProxy",
          "name": "xvsVaultProxy",
          "type": "address"
        }
      ],
      "name": "_become",
      "outputs": [],
      "payable": false,
      "stateMutability": "nonpayable",
      "type": "function"
    },
    {
      "constant": true,
      "inputs": [],
      "name": "accessControlManager",
      "outputs": [
        {
          "internalType": "contract IAccessControlManagerV5",
          "name": "",
          "type": "address"
        }
      ],
      "payable": false,
      "stateMutability": "view",
      "type": "function"
    },
    {
      "constant": false,
      "inputs": [
        {
          "internalType": "address",
          "name": "_rewardToken",
          "type": "address"
        },
        {
          "internalType": "uint256",
          "name": "_allocPoint",
          "type": "uint256"
        },
        {
          "internalType": "contract IBEP20",
          "name": "_token",
          "type": "address"
        },
        {
          "internalType": "uint256",
          "name": "_rewardPerBlock",
          "type": "uint256"
        },
        {
          "internalType": "uint256",
          "name": "_lockPeriod",
          "type": "uint256"
        }
      ],
      "name": "add",
      "outputs": [],
      "payable": false,
      "stateMutability": "nonpayable",
      "type": "function"
    },
    {
      "constant": true,
      "inputs": [],
      "name": "admin",
      "outputs": [
        {
          "internalType": "address",
          "name": "",
          "type": "address"
        }
      ],
      "payable": false,
      "stateMutability": "view",
      "type": "function"
    },
    {
      "constant": true,
      "inputs": [
        {
          "internalType": "address",
          "name": "",
          "type": "address"
        },
        {
          "internalType": "uint32",
          "name": "",
          "type": "uint32"
        }
      ],
      "name": "checkpoints",
      "outputs": [
        {
          "internalType": "uint32",
          "name": "fromBlock",
          "type": "uint32"
        },
        {
          "internalType": "uint96",
          "name": "votes",
          "type": "uint96"
        }
      ],
      "payable": false,
      "stateMutability": "view",
      "type": "function"
    },
    {
      "constant": false,
      "inputs": [
        {
          "internalType": "address",
          "name": "_account",
          "type": "address"
        },
        {
          "internalType": "address",
          "name": "_rewardToken",
          "type": "address"
        },
        {
          "internalType": "uint256",
          "name": "_pid",
          "type": "uint256"
        }
      ],
      "name": "claim",
      "outputs": [],
      "payable": false,
      "stateMutability": "nonpayable",
      "type": "function"
    },
    {
      "constant": false,
      "inputs": [
        {
          "internalType": "address",
          "name": "delegatee",
          "type": "address"
        },
        {
          "internalType": "bytes",
          "name": "adapterParams",
          "type": "bytes"
        }
      ],
      "name": "delegate",
      "outputs": [],
      "payable": true,
      "stateMutability": "payable",
      "type": "function"
    },
    {
      "constant": false,
      "inputs": [
        {
          "internalType": "address",
          "name": "delegatee",
          "type": "address"
        },
        {
          "internalType": "uint256",
          "name": "nonce",
          "type": "uint256"
        },
        {
          "internalType": "uint256",
          "name": "expiry",
          "type": "uint256"
        },
        {
          "internalType": "uint8",
          "name": "v",
          "type": "uint8"
        },
        {
          "internalType": "bytes32",
          "name": "r",
          "type": "bytes32"
        },
        {
          "internalType": "bytes32",
          "name": "s",
          "type": "bytes32"
        },
        {
          "internalType": "bytes",
          "name": "adapterParams",
          "type": "bytes"
        }
      ],
      "name": "delegateBySig",
      "outputs": [],
      "payable": true,
      "stateMutability": "payable",
      "type": "function"
    },
    {
      "constant": true,
      "inputs": [
        {
          "internalType": "address",
          "name": "",
          "type": "address"
        }
      ],
      "name": "delegates",
      "outputs": [
        {
          "internalType": "address",
          "name": "",
          "type": "address"
        }
      ],
      "payable": false,
      "stateMutability": "view",
      "type": "function"
    },
    {
      "constant": false,
      "inputs": [
        {
          "internalType": "address",
          "name": "_rewardToken",
          "type": "address"
        },
        {
          "internalType": "uint256",
          "name": "_pid",
          "type": "uint256"
        },
        {
          "internalType": "uint256",
          "name": "_amount",
          "type": "uint256"
        },
        {
          "internalType": "bytes",
          "name": "_adapterParams",
          "type": "bytes"
        }
      ],
      "name": "deposit",
      "outputs": [],
      "payable": true,
      "stateMutability": "payable",
      "type": "function"
    },
    {
      "constant": true,
      "inputs": [
        {
          "internalType": "bytes",
          "name": "payload",
          "type": "bytes"
        },
        {
          "internalType": "bytes",
          "name": "adapterParams",
          "type": "bytes"
        }
      ],
      "name": "estimateFee",
      "outputs": [
        {
          "internalType": "uint256",
          "name": "",
          "type": "uint256"
        },
        {
          "internalType": "uint256",
          "name": "",
          "type": "uint256"
        }
      ],
      "payable": false,
      "stateMutability": "view",
      "type": "function"
    },
    {
      "constant": false,
      "inputs": [
        {
          "internalType": "address",
          "name": "_rewardToken",
          "type": "address"
        },
        {
          "internalType": "uint256",
          "name": "_pid",
          "type": "uint256"
        }
      ],
      "name": "executeWithdrawal",
      "outputs": [],
      "payable": false,
      "stateMutability": "nonpayable",
      "type": "function"
    },
    {
      "constant": true,
      "inputs": [
        {
          "internalType": "address",
          "name": "account",
          "type": "address"
        }
      ],
      "name": "getCurrentVotes",
      "outputs": [
        {
          "internalType": "uint96",
          "name": "",
          "type": "uint96"
        }
      ],
      "payable": false,
      "stateMutability": "view",
      "type": "function"
    },
    {
      "constant": true,
      "inputs": [
        {
          "internalType": "address",
          "name": "_rewardToken",
          "type": "address"
        },
        {
          "internalType": "uint256",
          "name": "_pid",
          "type": "uint256"
        },
        {
          "internalType": "address",
          "name": "_user",
          "type": "address"
        }
      ],
      "name": "getEligibleWithdrawalAmount",
      "outputs": [
        {
          "internalType": "uint256",
          "name": "withdrawalAmount",
          "type": "uint256"
        }
      ],
      "payable": false,
      "stateMutability": "view",
      "type": "function"
    },
    {
      "constant": true,
      "inputs": [
        {
          "internalType": "address",
          "name": "account",
          "type": "address"
        },
        {
          "internalType": "uint256",
          "name": "blockNumber",
          "type": "uint256"
        }
      ],
      "name": "getPriorVotes",
      "outputs": [
        {
          "internalType": "uint96",
          "name": "",
          "type": "uint96"
        }
      ],
      "payable": false,
      "stateMutability": "view",
      "type": "function"
    },
    {
      "constant": true,
      "inputs": [
        {
          "internalType": "address",
          "name": "_rewardToken",
          "type": "address"
        },
        {
          "internalType": "uint256",
          "name": "_pid",
          "type": "uint256"
        },
        {
          "internalType": "address",
          "name": "_user",
          "type": "address"
        }
      ],
      "name": "getRequestedAmount",
      "outputs": [
        {
          "internalType": "uint256",
          "name": "",
          "type": "uint256"
        }
      ],
      "payable": false,
      "stateMutability": "view",
      "type": "function"
    },
    {
      "constant": true,
      "inputs": [
        {
          "internalType": "address",
          "name": "_rewardToken",
          "type": "address"
        },
        {
          "internalType": "uint256",
          "name": "_pid",
          "type": "uint256"
        },
        {
          "internalType": "address",
          "name": "_user",
          "type": "address"
        }
      ],
      "name": "getUserInfo",
      "outputs": [
        {
          "internalType": "uint256",
          "name": "amount",
          "type": "uint256"
        },
        {
          "internalType": "uint256",
          "name": "rewardDebt",
          "type": "uint256"
        },
        {
          "internalType": "uint256",
          "name": "pendingWithdrawals",
          "type": "uint256"
        }
      ],
      "payable": false,
      "stateMutability": "view",
      "type": "function"
    },
    {
      "constant": true,
      "inputs": [
        {
          "internalType": "address",
          "name": "_rewardToken",
          "type": "address"
        },
        {
          "internalType": "uint256",
          "name": "_pid",
          "type": "uint256"
        },
        {
          "internalType": "address",
          "name": "_user",
          "type": "address"
        }
      ],
      "name": "getWithdrawalRequests",
      "outputs": [
        {
          "components": [
            {
              "internalType": "uint256",
              "name": "amount",
              "type": "uint256"
            },
            {
              "internalType": "uint128",
              "name": "lockedUntil",
              "type": "uint128"
            },
            {
              "internalType": "uint128",
              "name": "afterUpgrade",
              "type": "uint128"
            }
          ],
          "internalType": "struct XVSVaultStorageV1.WithdrawalRequest[]",
          "name": "",
          "type": "tuple[]"
        }
      ],
      "payable": false,
      "stateMutability": "view",
      "type": "function"
    },
    {
      "constant": true,
      "inputs": [],
      "name": "implementation",
      "outputs": [
        {
          "internalType": "address",
          "name": "",
          "type": "address"
        }
      ],
      "payable": false,
      "stateMutability": "view",
      "type": "function"
    },
    {
      "constant": true,
      "inputs": [
        {
          "internalType": "address",
          "name": "",
          "type": "address"
        }
      ],
      "name": "isStakedToken",
      "outputs": [
        {
          "internalType": "bool",
          "name": "",
          "type": "bool"
        }
      ],
      "payable": false,
      "stateMutability": "view",
      "type": "function"
    },
    {
      "constant": true,
      "inputs": [
        {
          "internalType": "address",
          "name": "",
          "type": "address"
        }
      ],
      "name": "nonces",
      "outputs": [
        {
          "internalType": "uint256",
          "name": "",
          "type": "uint256"
        }
      ],
      "payable": false,
      "stateMutability": "view",
      "type": "function"
    },
    {
      "constant": true,
      "inputs": [
        {
          "internalType": "address",
          "name": "",
          "type": "address"
        }
      ],
      "name": "numCheckpoints",
      "outputs": [
        {
          "internalType": "uint32",
          "name": "",
          "type": "uint32"
        }
      ],
      "payable": false,
      "stateMutability": "view",
      "type": "function"
    },
    {
      "constant": false,
      "inputs": [],
      "name": "pause",
      "outputs": [],
      "payable": false,
      "stateMutability": "nonpayable",
      "type": "function"
    },
    {
      "constant": true,
      "inputs": [],
      "name": "pendingAdmin",
      "outputs": [
        {
          "internalType": "address",
          "name": "",
          "type": "address"
        }
      ],
      "payable": false,
      "stateMutability": "view",
      "type": "function"
    },
    {
      "constant": true,
      "inputs": [
        {
          "internalType": "address",
          "name": "_rewardToken",
          "type": "address"
        },
        {
          "internalType": "uint256",
          "name": "_pid",
          "type": "uint256"
        },
        {
          "internalType": "address",
          "name": "_user",
          "type": "address"
        }
      ],
      "name": "pendingReward",
      "outputs": [
        {
          "internalType": "uint256",
          "name": "",
          "type": "uint256"
        }
      ],
      "payable": false,
      "stateMutability": "view",
      "type": "function"
    },
    {
      "constant": true,
      "inputs": [
        {
          "internalType": "address",
          "name": "",
          "type": "address"
        },
        {
          "internalType": "address",
          "name": "",
          "type": "address"
        }
      ],
      "name": "pendingRewardTransfers",
      "outputs": [
        {
          "internalType": "uint256",
          "name": "",
          "type": "uint256"
        }
      ],
      "payable": false,
      "stateMutability": "view",
      "type": "function"
    },
    {
      "constant": true,
      "inputs": [
        {
          "internalType": "address",
          "name": "_rewardToken",
          "type": "address"
        },
        {
          "internalType": "uint256",
          "name": "_pid",
          "type": "uint256"
        },
        {
          "internalType": "address",
          "name": "_user",
          "type": "address"
        }
      ],
      "name": "pendingWithdrawalsBeforeUpgrade",
      "outputs": [
        {
          "internalType": "uint256",
          "name": "beforeUpgradeWithdrawalAmount",
          "type": "uint256"
        }
      ],
      "payable": false,
      "stateMutability": "view",
      "type": "function"
    },
    {
      "constant": true,
      "inputs": [],
      "name": "pendingXVSVaultImplementation",
      "outputs": [
        {
          "internalType": "address",
          "name": "",
          "type": "address"
        }
      ],
      "payable": false,
      "stateMutability": "view",
      "type": "function"
    },
    {
      "constant": true,
      "inputs": [
        {
          "internalType": "address",
          "name": "",
          "type": "address"
        },
        {
          "internalType": "uint256",
          "name": "",
          "type": "uint256"
        }
      ],
      "name": "poolInfos",
      "outputs": [
        {
          "internalType": "contract IBEP20",
          "name": "token",
          "type": "address"
        },
        {
          "internalType": "uint256",
          "name": "allocPoint",
          "type": "uint256"
        },
        {
          "internalType": "uint256",
          "name": "lastRewardBlock",
          "type": "uint256"
        },
        {
          "internalType": "uint256",
          "name": "accRewardPerShare",
          "type": "uint256"
        },
        {
          "internalType": "uint256",
          "name": "lockPeriod",
          "type": "uint256"
        }
      ],
      "payable": false,
      "stateMutability": "view",
      "type": "function"
    },
    {
      "constant": true,
      "inputs": [
        {
          "internalType": "address",
          "name": "rewardToken",
          "type": "address"
        }
      ],
      "name": "poolLength",
      "outputs": [
        {
          "internalType": "uint256",
          "name": "",
          "type": "uint256"
        }
      ],
      "payable": false,
      "stateMutability": "view",
      "type": "function"
    },
    {
      "constant": true,
      "inputs": [],
      "name": "primePoolId",
      "outputs": [
        {
          "internalType": "uint256",
          "name": "",
          "type": "uint256"
        }
      ],
      "payable": false,
      "stateMutability": "view",
      "type": "function"
    },
    {
      "constant": true,
      "inputs": [],
      "name": "primeRewardToken",
      "outputs": [
        {
          "internalType": "address",
          "name": "",
          "type": "address"
        }
      ],
      "payable": false,
      "stateMutability": "view",
      "type": "function"
    },
    {
      "constant": true,
      "inputs": [],
      "name": "primeToken",
      "outputs": [
        {
          "internalType": "contract IPrime",
          "name": "",
          "type": "address"
        }
      ],
      "payable": false,
      "stateMutability": "view",
      "type": "function"
    },
    {
      "constant": false,
      "inputs": [
        {
          "internalType": "address",
          "name": "_rewardToken",
          "type": "address"
        },
        {
          "internalType": "uint256",
          "name": "_pid",
          "type": "uint256"
        },
        {
          "internalType": "uint256",
          "name": "_amount",
          "type": "uint256"
        },
        {
          "internalType": "bytes",
          "name": "_adapterParams",
          "type": "bytes"
        }
      ],
      "name": "requestWithdrawal",
      "outputs": [],
      "payable": true,
      "stateMutability": "payable",
      "type": "function"
    },
    {
      "constant": false,
      "inputs": [],
      "name": "resume",
      "outputs": [],
      "payable": false,
      "stateMutability": "nonpayable",
      "type": "function"
    },
    {
      "constant": true,
      "inputs": [
        {
          "internalType": "address",
          "name": "",
          "type": "address"
        }
      ],
      "name": "rewardTokenAmountsPerBlock",
      "outputs": [
        {
          "internalType": "uint256",
          "name": "",
          "type": "uint256"
        }
      ],
      "payable": false,
      "stateMutability": "view",
      "type": "function"
    },
    {
      "constant": false,
      "inputs": [
        {
          "internalType": "address",
          "name": "_rewardToken",
          "type": "address"
        },
        {
          "internalType": "uint256",
          "name": "_pid",
          "type": "uint256"
        },
        {
          "internalType": "uint256",
          "name": "_allocPoint",
          "type": "uint256"
        }
      ],
      "name": "set",
      "outputs": [],
      "payable": false,
      "stateMutability": "nonpayable",
      "type": "function"
    },
    {
      "constant": false,
      "inputs": [
        {
          "internalType": "address",
          "name": "newAccessControlAddress",
          "type": "address"
        }
      ],
      "name": "setAccessControl",
      "outputs": [],
      "payable": false,
      "stateMutability": "nonpayable",
      "type": "function"
    },
    {
      "constant": false,
      "inputs": [
        {
          "internalType": "contract IVotesSyncSender",
          "name": "votesSyncSenderBridge",
          "type": "address"
        }
      ],
      "name": "setBridge",
      "outputs": [],
      "payable": false,
      "stateMutability": "nonpayable",
      "type": "function"
    },
    {
      "constant": false,
      "inputs": [
        {
          "internalType": "contract IPrime",
          "name": "_primeToken",
          "type": "address"
        },
        {
          "internalType": "address",
          "name": "_primeRewardToken",
          "type": "address"
        },
        {
          "internalType": "uint256",
          "name": "_primePoolId",
          "type": "uint256"
        }
      ],
      "name": "setPrimeToken",
      "outputs": [],
      "payable": false,
      "stateMutability": "nonpayable",
      "type": "function"
    },
    {
      "constant": false,
      "inputs": [
        {
          "internalType": "address",
          "name": "_rewardToken",
          "type": "address"
        },
        {
          "internalType": "uint256",
          "name": "_rewardAmount",
          "type": "uint256"
        }
      ],
      "name": "setRewardAmountPerBlock",
      "outputs": [],
      "payable": false,
      "stateMutability": "nonpayable",
      "type": "function"
    },
    {
      "constant": false,
      "inputs": [
        {
          "internalType": "address",
          "name": "_rewardToken",
          "type": "address"
        },
        {
          "internalType": "uint256",
          "name": "_pid",
          "type": "uint256"
        },
        {
          "internalType": "uint256",
          "name": "_newPeriod",
          "type": "uint256"
        }
      ],
      "name": "setWithdrawalLockingPeriod",
      "outputs": [],
      "payable": false,
      "stateMutability": "nonpayable",
      "type": "function"
    },
    {
      "constant": false,
      "inputs": [
        {
          "internalType": "address",
          "name": "_xvs",
          "type": "address"
        },
        {
          "internalType": "address",
          "name": "_xvsStore",
          "type": "address"
        }
      ],
      "name": "setXvsStore",
      "outputs": [],
      "payable": false,
      "stateMutability": "nonpayable",
      "type": "function"
    },
    {
      "constant": true,
      "inputs": [
        {
          "internalType": "address",
          "name": "",
          "type": "address"
        }
      ],
      "name": "totalAllocPoints",
      "outputs": [
        {
          "internalType": "uint256",
          "name": "",
          "type": "uint256"
        }
      ],
      "payable": false,
      "stateMutability": "view",
      "type": "function"
    },
    {
      "constant": false,
      "inputs": [
        {
          "internalType": "address",
          "name": "_rewardToken",
          "type": "address"
        },
        {
          "internalType": "uint256",
          "name": "_pid",
          "type": "uint256"
        }
      ],
      "name": "updatePool",
      "outputs": [],
      "payable": false,
      "stateMutability": "nonpayable",
      "type": "function"
    },
    {
      "constant": true,
      "inputs": [],
      "name": "vaultPaused",
      "outputs": [
        {
          "internalType": "bool",
          "name": "",
          "type": "bool"
        }
      ],
      "payable": false,
      "stateMutability": "view",
      "type": "function"
    },
    {
      "constant": true,
      "inputs": [],
      "name": "votesSyncSender",
      "outputs": [
        {
          "internalType": "contract IVotesSyncSender",
          "name": "",
          "type": "address"
        }
      ],
      "payable": false,
      "stateMutability": "view",
      "type": "function"
    },
    {
      "constant": true,
      "inputs": [],
      "name": "xvsAddress",
      "outputs": [
        {
          "internalType": "address",
          "name": "",
          "type": "address"
        }
      ],
      "payable": false,
      "stateMutability": "view",
      "type": "function"
    },
    {
      "constant": true,
      "inputs": [],
      "name": "xvsStore",
      "outputs": [
        {
          "internalType": "address",
          "name": "",
          "type": "address"
        }
      ],
      "payable": false,
      "stateMutability": "view",
      "type": "function"
    }
  ],
  "transactionHash": "0xcf10c3fbde4bf7b95b22b6ffa79647e1e1adff6b50a6b3ce5e8cafd0395ea2c0",
  "args": [],
  "numDeployments": 1,
  "solcInputHash": "511b29eb8ce111c81c55a5476ca5a3a2",
  "bytecode": "0x608060405234801561001057600080fd5b50600080546001600160a01b03191633179055615c0080620000336000396000f3fe6080604052600436106102ff5760003560e01c806392e3500011610190578063c3c754a8116100dc578063e8f2be6f11610095578063f55401621161006f578063f5540162146108d8578063f851a440146108ed578063fba1b1f914610902578063fe5a451a14610922576102ff565b8063e8f2be6f14610867578063e9dfec4a1461087c578063f1127ed8146108aa576102ff565b8063c3c754a8146107ca578063d6d2b6ba146107ea578063d7ae45e2146107fd578063dae66bbe1461081d578063de0368b21461083d578063e7a324dc14610852576102ff565b80639e48ff5a11610149578063add8933711610123578063add8933714610753578063b4a0bdf314610768578063b4b5ea571461077d578063c21025961461079d576102ff565b80639e48ff5a14610700578063a09eab7a14610713578063a9d69a6914610733576102ff565b806392e350001461062d57806393c7c4d11461065e5780639879dcd61461067e57806398e1b31b14610691578063996cba68146106c05780639e2b6c4d146106e0576102ff565b80635c60da1b1161024f578063782d6fe1116102085780638308d7e9116101e25780638308d7e9146105b85780638456cb59146105d85780638dd14802146105ed5780638ed7333d1461060d576102ff565b8063782d6fe11461054b5780637ac92456146105785780637ecebe0014610598576102ff565b80635c60da1b146104855780635ff563151461049a5780636dc44f70146104ba5780636dd77cbd146104dc5780636fcfff45146104fc57806373d025d614610529576102ff565b806326782247116102bc5780633d4180f9116102965780633d4180f9146104125780634298bdbd146104325780634a40bc0614610452578063587cde1e14610465576102ff565b806326782247146103c85780632eda5c6c146103dd578063358ae036146103fd576102ff565b8063046f7da2146103045780630af137281461031b57806319129e5a146103515780631d504dc61461037157806320606b701461039157806324f52bbf146103a6575b600080fd5b34801561031057600080fd5b50610319610937565b005b34801561032757600080fd5b5061033b610336366004614435565b6109c2565b60405161034891906154f4565b60405180910390f35b34801561035d57600080fd5b5061031961036c3660046142ec565b610a08565b34801561037d57600080fd5b5061031961038c366004614734565b610a3e565b34801561039d57600080fd5b5061033b610b6f565b3480156103b257600080fd5b506103bb610b86565b604051610348919061536a565b3480156103d457600080fd5b506103bb610b95565b3480156103e957600080fd5b5061033b6103f83660046142ec565b610ba4565b34801561040957600080fd5b506103bb610bb6565b34801561041e57600080fd5b5061033b61042d366004614328565b610bc5565b34801561043e57600080fd5b5061033b61044d3660046142ec565b610be2565b61031961046036600461451f565b610bf4565b34801561047157600080fd5b506103bb6104803660046142ec565b610fe8565b34801561049157600080fd5b506103bb611003565b3480156104a657600080fd5b506103196104b5366004614328565b611012565b3480156104c657600080fd5b506104cf611106565b60405161034891906155a9565b3480156104e857600080fd5b5061033b6104f7366004614435565b611115565b34801561050857600080fd5b5061051c6105173660046142ec565b6111ca565b60405161034891906158d9565b34801561053557600080fd5b5061053e6111e2565b60405161034891906154e6565b34801561055757600080fd5b5061056b610566366004614405565b6111eb565b6040516103489190615902565b34801561058457600080fd5b50610319610593366004614405565b6113fa565b3480156105a457600080fd5b5061033b6105b33660046142ec565b611743565b3480156105c457600080fd5b506103196105d33660046144ed565b611755565b3480156105e457600080fd5b506103196118fb565b3480156105f957600080fd5b50610319610608366004614734565b611980565b34801561061957600080fd5b50610319610628366004614405565b611a1c565b34801561063957600080fd5b5061064d610648366004614405565b611a57565b6040516103489594939291906155b7565b34801561066a57600080fd5b50610319610679366004614405565b611aac565b61031961068c36600461459d565b611bd2565b34801561069d57600080fd5b506106b16106ac366004614435565b611db1565b604051610348939291906158be565b3480156106cc57600080fd5b506103196106db366004614362565b611e03565b3480156106ec57600080fd5b506103196106fb3660046144ed565b611f95565b61031961070e36600461451f565b612080565b34801561071f57600080fd5b5061033b61072e366004614435565b61238c565b34801561073f57600080fd5b5061033b61074e366004614435565b6125d1565b34801561075f57600080fd5b506103bb612613565b34801561077457600080fd5b506104cf612622565b34801561078957600080fd5b5061056b6107983660046142ec565b612631565b3480156107a957600080fd5b506107bd6107b8366004614435565b6126a4565b60405161034891906154d5565b3480156107d657600080fd5b5061053e6107e53660046142ec565b61275e565b6103196107f83660046143af565b612773565b34801561080957600080fd5b5061033b6108183660046142ec565b6127de565b34801561082957600080fd5b50610319610838366004614713565b6127f9565b34801561084957600080fd5b506103bb612905565b34801561085e57600080fd5b5061033b612914565b34801561087357600080fd5b5061033b612920565b34801561088857600080fd5b5061089c6108973660046146a3565b612926565b6040516103489291906158b0565b3480156108b657600080fd5b506108ca6108c5366004614655565b6129be565b6040516103489291906158e7565b3480156108e457600080fd5b5061033b6129f3565b3480156108f957600080fd5b506103bb6129fb565b34801561090e57600080fd5b5061031961091d366004614478565b612a0a565b34801561092e57600080fd5b506104cf612cd6565b61096060405180604001604052806008815260200167726573756d65282960c01b815250612ce5565b60135460ff1661098b5760405162461bcd60e51b815260040161098290615685565b60405180910390fd5b6013805460ff1916905560405133907fd2619572a1464e0df0bb351d834fd47f3350984d7bfdb1ab69cfcb0b8e42141590600090a2565b60006109ce8484612d87565b506001600160a01b0380841660009081526007602090815260408083208684528252808320938516835292905220600201545b9392505050565b6000546001600160a01b03163314610a325760405162461bcd60e51b8152600401610982906157f5565b610a3b81612dbe565b50565b806001600160a01b031663f851a4406040518163ffffffff1660e01b815260040160206040518083038186803b158015610a7757600080fd5b505afa158015610a8b573d6000803e3d6000fd5b505050506040513d601f19601f82011682018060405250610aaf919081019061430a565b6001600160a01b0316336001600160a01b031614610adf5760405162461bcd60e51b815260040161098290615875565b806001600160a01b031663c1e803346040518163ffffffff1660e01b8152600401602060405180830381600087803b158015610b1a57600080fd5b505af1158015610b2e573d6000803e3d6000fd5b505050506040513d601f19601f82011682018060405250610b529190810190614752565b15610a3b5760405162461bcd60e51b815260040161098290615805565b604051610b7b90615354565b604051809103902081565b6004546001600160a01b031681565b6001546001600160a01b031681565b60066020526000908152604090205481565b6005546001600160a01b031681565b601560209081526000928352604080842090915290825290205481565b60096020526000908152604090205481565b600354600160a01b900460ff16610c1d5760405162461bcd60e51b8152600401610982906157d5565b6003805460ff60a01b1916905560135460ff1615610c4d5760405162461bcd60e51b815260040161098290615675565b610c578585612d87565b60008311610c775760405162461bcd60e51b8152600401610982906157a5565b6001600160a01b0385166000908152600760209081526040808320878452825280832033845290915290206002810154610cb7908563ffffffff612e4316565b81541015610cd75760405162461bcd60e51b815260040161098290615865565b6001600160a01b0386166000908152600860205260408120805487908110610cfb57fe5b600091825260208083206001600160a01b038b168452600a825260408085208b86528352808520338652909252908320600590920201925090610d3d82612e85565b5090508015610d5e5760405162461bcd60e51b815260040161098290615785565b610d688989612f29565b6000610d7485856130e4565b9050610d818a33836130f8565b6004840154600090610d99904263ffffffff612e4316565b9050610da786858b84613362565b6001600160a01b038b1660009081526012602090815260408083208d8452909152902054610ddb908a63ffffffff612e4316565b6001600160a01b038c1660009081526012602090815260408083208e8452909152902055610e098686613546565b600187015560055485546001600160a01b0390811691161415610eaa57336000908152600f6020908152604080832054815160608101909252602b808352610eaa946001600160a01b03909216939192610e6c928f9290615a5f90830139613574565b8b8b8080601f0160208091040260200160405190810160405280939291908181526020018383808284376000920191909152503492506135a3915050565b6017546001600160a01b038c81169116148015610ec857506018548a145b15610f30576016546040516337f23cd360e01b81526001600160a01b03909116906337f23cd390610efd903390600401615378565b600060405180830381600087803b158015610f1757600080fd5b505af1158015610f2b573d6000803e3d6000fd5b505050505b898b6001600160a01b0316336001600160a01b03167f865ca08d59f5cb456e85cd2f7ef63664ea4f73327414e9d8152c4158b0e9464585604051610f7491906154f4565b60405180910390a4898b6001600160a01b0316336001600160a01b03167f88a254a0ef28a0b9e957ff600beae69870f6f924065147f3627c3f814e60ec118c604051610fc091906154f4565b60405180910390a450506003805460ff60a01b1916600160a01b179055505050505050505050565b600f602052600090815260409020546001600160a01b031681565b6002546001600160a01b031681565b6000546001600160a01b0316331461103c5760405162461bcd60e51b8152600401610982906157f5565b61104582613740565b61104e81613740565b6005546004546001600160a01b039182169116811561107f5760405162461bcd60e51b815260040161098290615745565b600580546001600160a01b038087166001600160a01b03199283161790925560048054928616929091169190911790556003805460ff60a01b1916600160a01b1790556040517f559f314bb90394a4a9ceb724f365b36a53587d894352c43d12901fd680101456906110f89084908490889088906153e9565b60405180910390a150505050565b6019546001600160a01b031681565b60006111218484612d87565b6001600160a01b038085166000908152600a60209081526040808320878452825280832093861683529290522080545b600081118015611181575061118182600183038154811061116e57fe5b9060005260206000209060020201613766565b156111c1576111b682600183038154811061119857fe5b6000918252602090912060029091020154849063ffffffff612e4316565b925060001901611151565b50509392505050565b60116020526000908152604090205463ffffffff1681565b60135460ff1681565b600043821061120c5760405162461bcd60e51b815260040161098290615755565b6001600160a01b03831660009081526011602052604090205463ffffffff168061123a5760009150506113f4565b6001600160a01b038416600090815260106020908152604080832063ffffffff6000198601811685529252909120541683106112b6576001600160a01b03841660009081526010602090815260408083206000199490940163ffffffff1683529290522054600160201b90046001600160601b031690506113f4565b6001600160a01b038416600090815260106020908152604080832083805290915290205463ffffffff168310156112f15760009150506113f4565b600060001982015b8163ffffffff168163ffffffff1611156113b457600282820363ffffffff1604810361132361423b565b506001600160a01b038716600090815260106020908152604080832063ffffffff858116855290835292819020815180830190925254928316808252600160201b9093046001600160601b0316918101919091529087141561138f576020015194506113f49350505050565b805163ffffffff168711156113a6578193506113ad565b6001820392505b50506112f9565b506001600160a01b038516600090815260106020908152604080832063ffffffff909416835292905220546001600160601b03600160201b909104169150505b92915050565b600354600160a01b900460ff166114235760405162461bcd60e51b8152600401610982906157d5565b6003805460ff60a01b1916905560135460ff16156114535760405162461bcd60e51b815260040161098290615675565b61145d8282612d87565b6001600160a01b038216600090815260086020526040812080548390811061148157fe5b600091825260208083206001600160a01b038716808552600783526040808620888752845280862033808852908552818720928752600a85528187208988528552818720908752909352918420600590930201935091806114e2848461377b565b9092509050811515806114f55750600081115b6115115760405162461bcd60e51b815260040161098290615815565b81158061151c575080155b6115385760405162461bcd60e51b815260040161098290615635565b8115611651576115488787612f29565b600061158e856001015461158264e8d4a510006115768a600301548a6000015461387390919063ffffffff16565b9063ffffffff6138ad16565b9063ffffffff6138ef16565b6004805460405163135b33cd60e31b81529293506001600160a01b031691639ad99e68916115c2918c9133918791016153c1565b600060405180830381600087803b1580156115dc57600080fd5b505af11580156115f0573d6000803e3d6000fd5b50508654611607925090508463ffffffff6138ef16565b808655600387015461162a9164e8d4a5100091611576919063ffffffff61387316565b6001860155855461164b906001600160a01b0316338563ffffffff61393116565b506116d5565b8354611663908263ffffffff6138ef16565b84556001600160a01b0387166000908152601260209081526040808320898452909152902054611699908263ffffffff6138ef16565b6001600160a01b0380891660009081526012602090815260408083208b845290915290209190915585546116d59116338363ffffffff61393116565b856001600160a01b038816337fe31da05fae6db869f5ea51f4b638aa6884070b6c87f18f63bd2291a12cb2f518611712868663ffffffff612e4316565b60405161171f91906154f4565b60405180910390a450506003805460ff60a01b1916600160a01b1790555050505050565b600e6020526000908152604090205481565b6117936040518060400160405280601c81526020017f73657428616464726573732c75696e743235362c75696e743235362900000000815250612ce5565b61179d8383612d87565b6117a68361398a565b6001600160a01b0383166000908152600860205260408120805490919061181f908490611813908590889081106117d957fe5b60009182526020808320600160059093020191909101546001600160a01b038b16835260099091526040909120549063ffffffff6138ef16565b9063ffffffff612e4316565b9050600081116118415760405162461bcd60e51b815260040161098290615885565b600082858154811061184f57fe5b90600052602060002090600502016001015490508383868154811061187057fe5b9060005260206000209060050201600101819055508160096000886001600160a01b03166001600160a01b031681526020019081526020016000208190555084866001600160a01b03167f6ee09c6cb801194690c195c69f465aaf7c80255cbeafaab9600f47ed79de2ca983876040516118eb9291906158b0565b60405180910390a3505050505050565b611923604051806040016040528060078152602001667061757365282960c81b815250612ce5565b60135460ff16156119465760405162461bcd60e51b815260040161098290615705565b6013805460ff1916600117905560405133907fdffada2889ebfab9224c24069d833f3de835d8cf99872d49e7b7ba5fccb7a46f90600090a2565b6000546001600160a01b031633146119aa5760405162461bcd60e51b8152600401610982906157f5565b6119b381613740565b6019546040517f8357797ab855a0bad5103ea8bd2f21f986350e94d73f143ae114db8f0db5a93a916119f2916001600160a01b039091169084906155f9565b60405180910390a1601980546001600160a01b0319166001600160a01b0392909216919091179055565b60135460ff1615611a3f5760405162461bcd60e51b815260040161098290615675565b611a498282612d87565b611a538282612f29565b5050565b60086020528160005260406000208181548110611a7057fe5b6000918252602090912060059091020180546001820154600283015460038401546004909401546001600160a01b039093169550909350919085565b611acd604051806060016040528060288152602001615b0b60289139612ce5565b60048054604051633d6ac5b360e21b81526001600160a01b039091169163f5ab16cc91611afc9186910161536a565b60206040518083038186803b158015611b1457600080fd5b505afa158015611b28573d6000803e3d6000fd5b505050506040513d601f19601f82011682018060405250611b4c9190810190614685565b611b685760405162461bcd60e51b8152600401610982906157e5565b611b718261398a565b6001600160a01b0382166000818152600660205260409081902080549084905590519091907fad96cee0d692f0250b98e085504f399da6733854908215f6203fe3c69366d9f590611bc590849086906158b0565b60405180910390a2505050565b60135460ff1615611bf55760405162461bcd60e51b815260040161098290615675565b6000604051611c0390615354565b604080519182900382208282019091526008825267161594d5985d5b1d60c21b6020909201919091527fddfcc46608a8bd52ebf900f03a24cc97b73a6046cec8c5d0f74a211e376e967a611c556139bf565b30604051602001611c699493929190615510565b6040516020818303038152906040528051906020012090506000604051611c8f9061535f565b604051908190038120611caa918c908c908c90602001615502565b60405160208183030381529060405280519060200120905060008282604051602001611cd7929190615323565b6040516020818303038152906040528051906020012090506000611cfd828a8a8a6139c3565b6001600160a01b0381166000908152600e602052604090208054600181019091559091508b14611d3f5760405162461bcd60e51b8152600401610982906156e5565b89421115611d5f5760405162461bcd60e51b8152600401610982906156c5565b611da2818d88888080601f0160208091040260200160405190810160405280939291908181526020018383808284376000920191909152503492506139ed915050565b505050505b5050505050505050565b6000806000611dc08686612d87565b5050506001600160a01b03928316600090815260076020908152604080832094835293815283822092909416815292529020805460018201546002909201549092565b600354600160a01b900460ff16611e2c5760405162461bcd60e51b8152600401610982906157d5565b6003805460ff60a01b1916905560135460ff1615611e5c5760405162461bcd60e51b815260040161098290615675565b611e668282612d87565b6001600160a01b0382166000908152600860205260408120805483908110611e8a57fe5b600091825260208083206001600160a01b0380881685526007835260408086208887528452808620918a1686529252922060059091029091019150611ecf8484612f29565b611eda8484876125d1565b15611ef75760405162461bcd60e51b815260040161098290615785565b805415611f7b576000611f0a82846130e4565b90508015611f7957611f1c8284613546565b6001830155611f2c8587836130f8565b83856001600160a01b0316876001600160a01b03167f865ca08d59f5cb456e85cd2f7ef63664ea4f73327414e9d8152c4158b0e9464584604051611f7091906154f4565b60405180910390a45b505b50506003805460ff60a01b1916600160a01b179055505050565b611fb6604051806060016040528060338152602001615b3360339139612ce5565b611fc08383612d87565b600081118015611fd357506312cc030081105b611fef5760405162461bcd60e51b815260040161098290615825565b6001600160a01b038316600090815260086020526040812080548490811061201357fe5b9060005260206000209060050201905060008160040154905082826004018190555083856001600160a01b03167f0bcf80c5060ccf99b7a993c57a94b232fc2c5c04bd74c7c7d174595fee6bc31f83866040516120719291906158b0565b60405180910390a35050505050565b600354600160a01b900460ff166120a95760405162461bcd60e51b8152600401610982906157d5565b6003805460ff60a01b1916905560135460ff16156120d95760405162461bcd60e51b815260040161098290615675565b6120e38585612d87565b6001600160a01b038516600090815260086020526040812080548690811061210757fe5b600091825260208083206001600160a01b038a1684526007825260408085208a8652835280852033865290925292206005909102909101915061214a8787612f29565b6121558787336125d1565b156121725760405162461bcd60e51b815260040161098290615785565b8054156121e757600061218582846130e4565b905080156121e5576121988833836130f8565b86886001600160a01b0316336001600160a01b03167f865ca08d59f5cb456e85cd2f7ef63664ea4f73327414e9d8152c4158b0e94645846040516121dc91906154f4565b60405180910390a45b505b8154612204906001600160a01b031633308863ffffffff613a8616565b8054612216908663ffffffff612e4316565b81556122228183613546565b600182015560055482546001600160a01b03908116911614156122c257336000908152600f602090815260408083205481516060810190925260218083526122c294936001600160a01b0390921692612284928b9290615ab290830139613574565b87878080601f0160208091040260200160405190810160405280939291908181526020018383808284376000920191909152503492506135a3915050565b6017546001600160a01b0388811691161480156122e0575060185486145b15612348576016546040516337f23cd360e01b81526001600160a01b03909116906337f23cd390612315903390600401615378565b600060405180830381600087803b15801561232f57600080fd5b505af1158015612343573d6000803e3d6000fd5b505050505b85876001600160a01b0316336001600160a01b03167fdcbc1c05240f31ff3ad067ef1ee35ce4997762752e3a095284754544f4c709d78860405161171f91906154f4565b60006123988484612d87565b6001600160a01b03841660009081526008602052604081208054859081106123bc57fe5b600091825260208083206001600160a01b03808a168086526007845260408087208b885285528087208a8416885285528087206003600590970290940195860154918752601285528087208b885290945283862054855494516370a0823160e01b8152959750929590949093612493939216906370a082319061244390309060040161536a565b60206040518083038186803b15801561245b57600080fd5b505afa15801561246f573d6000803e3d6000fd5b505050506040513d601f19601f820116820180604052506115829190810190614752565b6001600160a01b03891660009081526006602052604090205460028601549192504391821180156124c357508215155b156125595760006124e18760020154846138ef90919063ffffffff16565b6001600160a01b038c1660009081526009602052604081205460018a0154929350909161252991906115769061251d868863ffffffff61387316565b9063ffffffff61387316565b9050612554612547866115768464e8d4a5100063ffffffff61387316565b879063ffffffff612e4316565b955050505b6001600160a01b03808b166000908152600a602090815260408083208d84528252808320938c1683529290529081209061259282612e85565b9150506125c1876001015461158264e8d4a510006115768a61251d878e600001546138ef90919063ffffffff16565b9c9b505050505050505050505050565b6001600160a01b038084166000908152600a602090815260408083208684528252808320938516835292905290812061260981612e85565b5095945050505050565b6017546001600160a01b031681565b6047546001600160a01b031690565b6001600160a01b03811660009081526011602052604081205463ffffffff168061265c57600061269b565b6001600160a01b0383166000908152601060209081526040808320600019850163ffffffff168452909152902054600160201b90046001600160601b03165b9150505b919050565b60606126b08484612d87565b6001600160a01b038085166000908152600a602090815260408083208784528252808320938616835292815282822080548451818402810184019095528085529092909184015b828210156127515760008481526020908190206040805160608101825260028602909201805483526001908101546001600160801b0380821685870152600160801b909104169183019190915290835290920191016126f7565b5050505090509392505050565b60146020526000908152604090205460ff1681565b60135460ff16156127965760405162461bcd60e51b815260040161098290615675565b6127d9338484848080601f0160208091040260200160405190810160405280939291908181526020018383808284376000920191909152503492506139ed915050565b505050565b6001600160a01b031660009081526008602052604090205490565b6000546001600160a01b031633146128235760405162461bcd60e51b8152600401610982906157f5565b6001600160a01b0383166128495760405162461bcd60e51b8152600401610982906156d5565b6001600160a01b03821661286f5760405162461bcd60e51b815260040161098290615765565b6128798282612d87565b6016546017546018546040516001600160a01b03808816948116937f8def9436d6e31b89ed00948ba91d0cb6936eada5154cb1b45b55683fb9e49237936128c893919092169188918890615442565b60405180910390a3601680546001600160a01b039485166001600160a01b0319918216179091556017805493909416921691909117909155601855565b6003546001600160a01b031681565b604051610b7b9061535f565b60185481565b6019546040516374eff62560e11b815260009182916001600160a01b039091169063e9dfec4a90612961908990899089908990600401615553565b604080518083038186803b15801561297857600080fd5b505afa15801561298c573d6000803e3d6000fd5b505050506040513d601f19601f820116820180604052506129b09190810190614770565b915091505b94509492505050565b601060209081526000928352604080842090915290825290205463ffffffff811690600160201b90046001600160601b031682565b6312cc030081565b6000546001600160a01b031681565b612a2b6040518060600160405280602c8152602001615b92602c9139612ce5565b612a3485613740565b612a3d83613740565b6004546001600160a01b0316612a655760405162461bcd60e51b815260040161098290615655565b60008411612a855760405162461bcd60e51b815260040161098290615835565b612a8e8561398a565b6001600160a01b0385166000908152600860205260408120805490915b81811015612b0957856001600160a01b0316838281548110612ac957fe5b60009182526020909120600590910201546001600160a01b03161415612b015760405162461bcd60e51b8152600401610982906157c5565b600101612aab565b506001600160a01b03851660009081526014602052604090205460ff1615612b435760405162461bcd60e51b815260040161098290615735565b6001600160a01b038716600090815260096020526040902054612b6c908763ffffffff612e4316565b6001600160a01b0388811660009081526009602090815260408083209490945560068152838220889055835160a0810185528984168082528183018c81524383880190815260608401868152608085018c81528b5460018082018e558d8a52888a209751600590920290970180546001600160a01b031916918b169190911781559351848701559151600284015551600383015551600491820155908452601490925291849020805460ff1916831790558054935163fb66fb4d60e01b8152939092169263fb66fb4d92612c44928c92909101615477565b600060405180830381600087803b158015612c5e57600080fd5b505af1158015612c72573d6000803e3d6000fd5b50505050846001600160a01b03166001838054905003886001600160a01b03167fd7fa4bff1cd2253c0789c3291a786a6f6b1a3b4569a75af683a15d52abb6a0bf898888604051612cc5939291906158be565b60405180910390a450505050505050565b6016546001600160a01b031681565b6047546040516318c5e8ab60e01b81526000916001600160a01b0316906318c5e8ab90612d189033908690600401615386565b60206040518083038186803b158015612d3057600080fd5b505afa158015612d44573d6000803e3d6000fd5b505050506040513d601f19601f82011682018060405250612d689190810190614685565b905080611a535760405162461bcd60e51b815260040161098290615695565b6001600160a01b0382166000908152600860205260409020548110611a535760405162461bcd60e51b815260040161098290615645565b6001600160a01b038116612de45760405162461bcd60e51b815260040161098290615715565b604780546001600160a01b038381166001600160a01b03198316179092556040519116907f66fd58e82f7b31a2a5c30e0888f3093efe4e111b00cd2b0c31fe014601293aa090612e3790839085906153a6565b60405180910390a15050565b6000610a0183836040518060400160405280601b81526020017f536166654d6174683a206164646974696f6e206f766572666c6f770000000000815250613ab0565b805460009081905b8015612f2357836001820381548110612ea257fe5b6000918252602090912060016002909202018101546001600160801b03600160801b909104161415612f0557612efe846001830381548110612ee057fe5b6000918252602090912060029091020154839063ffffffff612e4316565b9150612f1a565b612f1784600183038154811061119857fe5b92505b60001901612e8d565b50915091565b6001600160a01b0382166000908152600860205260408120805483908110612f4d57fe5b9060005260206000209060050201905080600201544311612f6e5750611a53565b80546040516370a0823160e01b81526000916001600160a01b0316906370a0823190612f9e90309060040161536a565b60206040518083038186803b158015612fb657600080fd5b505afa158015612fca573d6000803e3d6000fd5b505050506040513d601f19601f82011682018060405250612fee9190810190614752565b6001600160a01b038516600090815260126020908152604080832087845290915290205490915061302690829063ffffffff6138ef16565b90508061303a575043600290910155611a53565b6002820154439060009061305590839063ffffffff6138ef16565b6001600160a01b0387166000908152600960209081526040808320546001890154600690935290832054939450919261309e92916115769161251d90879063ffffffff61387316565b90506130cd6130bc856115768464e8d4a5100063ffffffff61387316565b60038701549063ffffffff612e4316565b600386015550504360029093019290925550505050565b6000610a0183600101546115828585613546565b600480546040516370a0823160e01b81526001600160a01b03918216926000928716916370a082319161312d9186910161536a565b60206040518083038186803b15801561314557600080fd5b505afa158015613159573d6000803e3d6000fd5b505050506040513d601f19601f8201168201806040525061317d9190810190614752565b6001600160a01b0380871660009081526015602090815260408083209389168352929052908120549192506131b8858363ffffffff612e4316565b905082811161329657811561322b576001600160a01b038088166000818152601560209081526040808320948b1680845294909152808220829055517f6bdfd5e51d01475945224d3d37965916fd8df699ef9e8888af4359aa862221609161322291879190615895565b60405180910390a35b60405163135b33cd60e31b81526001600160a01b03851690639ad99e689061325b908a908a908690600401615427565b600060405180830381600087803b15801561327557600080fd5b505af1158015613289573d6000803e3d6000fd5b50505050505050506127d9565b6001600160a01b038088166000818152601560209081526040808320948b168084529490915290819020868503908190559051909291907f6bdfd5e51d01475945224d3d37965916fd8df699ef9e8888af4359aa86222160906132fc90879086906158b0565b60405180910390a360405163135b33cd60e31b81526001600160a01b03861690639ad99e6890613334908b908b908990600401615427565b600060405180830381600087803b15801561334e57600080fd5b505af1158015611da2573d6000803e3d6000fd5b8254604080516060810182526000808252602080830182815260019484018581528587018a5589845291909220925160028602909301928355905191909201805492516001600160801b03908116600160801b029281166001600160801b0319909416939093179092161790555b60008111801561340b5750818460018303815481106133eb57fe5b60009182526020909120600160029092020101546001600160801b031611155b156134925783600182038154811061341f57fe5b906000526020600020906002020184828154811061343957fe5b600091825260209091208254600290920201908155600191820180549290910180546001600160801b0319166001600160801b03938416178082559154600160801b9081900484160291909216179055600019016133d0565b60405180606001604052808481526020016134ac84613ae0565b6001600160801b0316815260200160016001600160801b03168152508482815481106134d457fe5b60009182526020918290208351600292830290910190815591830151600190920180546040909401516001600160801b03199094166001600160801b03938416178316600160801b93909416929092029290921790558501546135379084612e43565b85600201819055505050505050565b6000610a0164e8d4a51000611576846003015461251d876002015488600001546138ef90919063ffffffff16565b600081600160601b841061359b5760405162461bcd60e51b81526004016109829190615614565b509192915050565b836001600160a01b0316856001600160a01b0316141580156135ce57506000836001600160601b0316115b15613739576001600160a01b03851615613688576001600160a01b03851660009081526011602052604081205463ffffffff16908161360e57600061364d565b6001600160a01b0387166000908152601060209081526040808320600019860163ffffffff168452909152902054600160201b90046001600160601b03165b9050600061367482876040518060600160405280602c8152602001615b66602c9139613b09565b9050613684888484848989613b48565b5050505b6001600160a01b03841615613739576001600160a01b03841660009081526011602052604081205463ffffffff1690816136c3576000613702565b6001600160a01b0386166000908152601060209081526040808320600019860163ffffffff168452909152902054600160201b90046001600160601b03165b9050600061372982876040518060600160405280602b8152602001615a34602b9139613dac565b9050611da7878484848989613b48565b5050505050565b6001600160a01b038116610a3b5760405162461bcd60e51b815260040161098290615775565b60010154426001600160801b03909116111590565b805460009081905b6000811180156137a057506137a084600183038154811061116e57fe5b15613841578360018203815481106137b457fe5b6000918252602090912060016002909202018101546001600160801b03600160801b9091041614156137f9576137f2846001830381548110612ee057fe5b915061380e565b61380b84600183038154811061119857fe5b92505b8380548061381857fe5b600082815260208120600019928301600281029091018281556001019190915590915501613783565b50613866613855828463ffffffff612e4316565b60028601549063ffffffff6138ef16565b60028501555b9250929050565b600082613882575060006113f4565b8282028284828161388f57fe5b0414610a015760405162461bcd60e51b8152600401610982906157b5565b6000610a0183836040518060400160405280601a81526020017f536166654d6174683a206469766973696f6e206279207a65726f000000000000815250613ddf565b6000610a0183836040518060400160405280601e81526020017f536166654d6174683a207375627472616374696f6e206f766572666c6f770000815250613e16565b6040516127d990849063a9059cbb60e01b906139539086908690602401615492565b60408051601f198184030181529190526020810180516001600160e01b03166001600160e01b031990931692909217909152613e3a565b6001600160a01b038116600090815260086020526040812054905b818110156127d9576139b78382612f29565b6001016139a5565b4690565b60008060006139d487878787613f1f565b915091506139e181613ffc565b5090505b949350505050565b6001600160a01b038085166000908152600f602052604081205490911690613a14866140c5565b6001600160a01b038781166000818152600f602052604080822080546001600160a01b0319168b8616908117909155905194955093928616927f0cc323ffec3ea49cbcddc0de1480978126d350c6a45dff33ad2f1cda6ae992619190a4613a7e82868387876135a3565b505050505050565b604051613aaa9085906323b872dd60e01b9061395390879087908790602401615427565b50505050565b60008383018285821015613ad75760405162461bcd60e51b81526004016109829190615614565b50949350505050565b6000600160801b8210613b055760405162461bcd60e51b8152600401610982906156f5565b5090565b6000836001600160601b0316836001600160601b031611158290613b405760405162461bcd60e51b81526004016109829190615614565b505050900390565b6000613b6c43604051806060016040528060388152602001615ad3603891396141db565b9050606060008763ffffffff16118015613bb757506001600160a01b038816600090815260106020908152604080832063ffffffff6000198c01811685529252909120548382169116145b15613c3b576001600160a01b03881660009081526010602090815260408083206000198b0163ffffffff811685529083529281902080546fffffffffffffffffffffffff000000001916600160201b6001600160601b038b160217905551613c25928b9290918991016154ad565b6040516020818303038152906040529050613cf9565b60408051808201825263ffffffff84811682526001600160601b0388811660208085019182526001600160a01b038e166000818152601083528781208f87168252835287812096518754945163ffffffff19958616918816919091176fffffffffffffffffffffffff000000001916600160201b9190961602949094179095559382526011845290849020805490911660018c019283161790559151613ce7928b9290918991016154ad565b60405160208183030381529060405290505b601954604051637178a17f60e01b81526001600160a01b0390911690637178a17f908590613d2d9085908990600401615584565b6000604051808303818588803b158015613d4657600080fd5b505af1158015613d5a573d6000803e3d6000fd5b5050505050876001600160a01b03167f6adb589fed1e8542fb7a6b10f00a85e02265e77f9ae3ca8ff93b22983e1af9a08787604051613d9a929190615910565b60405180910390a25050505050505050565b6000838301826001600160601b038087169083161015613ad75760405162461bcd60e51b81526004016109829190615614565b60008183613e005760405162461bcd60e51b81526004016109829190615614565b506000838581613e0c57fe5b0495945050505050565b60008184841115613b405760405162461bcd60e51b81526004016109829190615614565b613e4c826001600160a01b0316614202565b613e685760405162461bcd60e51b815260040161098290615855565b60006060836001600160a01b031683604051613e849190615317565b6000604051808303816000865af19150503d8060008114613ec1576040519150601f19603f3d011682016040523d82523d6000602084013e613ec6565b606091505b509150915081613ee85760405162461bcd60e51b815260040161098290615845565b805115613aaa5780806020019051613f039190810190614685565b613aaa5760405162461bcd60e51b8152600401610982906156b5565b6000807f7fffffffffffffffffffffffffffffff5d576e7357a4501ddfe92f46681b20a0831115613f5657506000905060036129b5565b8460ff16601b14158015613f6e57508460ff16601c14155b15613f7f57506000905060046129b5565b600060018787878760405160008152602001604052604051613fa49493929190615538565b6020604051602081039080840390855afa158015613fc6573d6000803e3d6000fd5b5050604051601f1901519150506001600160a01b038116613fef575060009150600190506129b5565b9660009650945050505050565b600081600481111561400a57fe5b141561401557610a3b565b600181600481111561402357fe5b14156140415760405162461bcd60e51b815260040161098290615625565b600281600481111561404f57fe5b141561406d5760405162461bcd60e51b815260040161098290615665565b600381600481111561407b57fe5b14156140995760405162461bcd60e51b815260040161098290615725565b60048160048111156140a757fe5b1415610a3b5760405162461bcd60e51b815260040161098290615795565b6005546000906001600160a01b03166140f05760405162461bcd60e51b8152600401610982906156a5565b6005546001600160a01b03166000908152600860205260408120805490915b818110156141d05760055483546001600160a01b039091169084908390811061413457fe5b60009182526020909120600590910201546001600160a01b031614156141c8576005546001600160a01b0390811660009081526007602090815260408083208584528252808320938916835292905220600281015481546141bd9161419f919063ffffffff6138ef16565b604051806060016040528060288152602001615a8a60289139613574565b94505050505061269f565b60010161410f565b506000949350505050565b600081600160201b841061359b5760405162461bcd60e51b81526004016109829190615614565b6000813f7fc5d2460186f7233c927e7db2dcc703c0e500b653ca82273b7bfad8045d85a4708181148015906139e5575050151592915050565b604080518082019091526000808252602082015290565b80356113f4816159f2565b80516113f4816159f2565b80516113f481615a06565b80356113f481615a0f565b60008083601f84011261429057600080fd5b50813567ffffffffffffffff8111156142a857600080fd5b60208301915083600182028301111561386c57600080fd5b80356113f481615a18565b80516113f481615a0f565b80356113f481615a21565b80356113f481615a2a565b6000602082840312156142fe57600080fd5b60006139e58484614252565b60006020828403121561431c57600080fd5b60006139e5848461425d565b6000806040838503121561433b57600080fd5b60006143478585614252565b925050602061435885828601614252565b9150509250929050565b60008060006060848603121561437757600080fd5b60006143838686614252565b935050602061439486828701614252565b92505060406143a586828701614273565b9150509250925092565b6000806000604084860312156143c457600080fd5b60006143d08686614252565b935050602084013567ffffffffffffffff8111156143ed57600080fd5b6143f98682870161427e565b92509250509250925092565b6000806040838503121561441857600080fd5b60006144248585614252565b925050602061435885828601614273565b60008060006060848603121561444a57600080fd5b60006144568686614252565b935050602061446786828701614273565b92505060406143a586828701614252565b600080600080600060a0868803121561449057600080fd5b600061449c8888614252565b95505060206144ad88828901614273565b94505060406144be888289016142c0565b93505060606144cf88828901614273565b92505060806144e088828901614273565b9150509295509295909350565b60008060006060848603121561450257600080fd5b600061450e8686614252565b935050602061439486828701614273565b60008060008060006080868803121561453757600080fd5b60006145438888614252565b955050602061455488828901614273565b945050604061456588828901614273565b935050606086013567ffffffffffffffff81111561458257600080fd5b61458e8882890161427e565b92509250509295509295909350565b60008060008060008060008060e0898b0312156145b957600080fd5b60006145c58b8b614252565b98505060206145d68b828c01614273565b97505060406145e78b828c01614273565b96505060606145f88b828c016142e1565b95505060806146098b828c01614273565b94505060a061461a8b828c01614273565b93505060c089013567ffffffffffffffff81111561463757600080fd5b6146438b828c0161427e565b92509250509295985092959890939650565b6000806040838503121561466857600080fd5b60006146748585614252565b9250506020614358858286016142d6565b60006020828403121561469757600080fd5b60006139e58484614268565b600080600080604085870312156146b957600080fd5b843567ffffffffffffffff8111156146d057600080fd5b6146dc8782880161427e565b9450945050602085013567ffffffffffffffff8111156146fb57600080fd5b6147078782880161427e565b95989497509550505050565b60008060006060848603121561472857600080fd5b600061438386866142c0565b60006020828403121561474657600080fd5b60006139e584846142c0565b60006020828403121561476457600080fd5b60006139e584846142cb565b6000806040838503121561478357600080fd5b600061478f85856142cb565b9250506020614358858286016142cb565b60006147ac83836152b7565b505060600190565b6147bd8161598f565b82525050565b6147bd8161593e565b60006147d782615931565b6147e18185615935565b93506147ec8361592b565b8060005b8381101561481a57815161480488826147a0565b975061480f8361592b565b9250506001016147f0565b509495945050505050565b6147bd81615949565b6147bd8161594e565b6147bd6148438261594e565b61594e565b60006148548385615935565b93506148618385846159b0565b61486a836159e8565b9093019392505050565b600061487f82615931565b6148898185615935565b93506148998185602086016159bc565b61486a816159e8565b60006148ad82615931565b6148b7818561269f565b93506148c78185602086016159bc565b9290920192915050565b6147bd81615951565b6147bd8161599a565b60006148f0601883615935565b7f45434453413a20696e76616c6964207369676e61747572650000000000000000815260200192915050565b6000614929601283615935565b71696e636f6e73697374656e7420737461746560701b815260200192915050565b6000614957601383615935565b727661756c743a20706f6f6c206578697374733f60681b815260200192915050565b6000614986601f83615935565b7f53746f726520636f6e7472616374206164647265737320697320656d70747900815260200192915050565b60006149bf601f83615935565b7f45434453413a20696e76616c6964207369676e6174757265206c656e67746800815260200192915050565b60006149f8600f83615935565b6e15985d5b1d081a5cc81c185d5cd959608a1b815260200192915050565b6000614a23601383615935565b7215985d5b1d081a5cc81b9bdd081c185d5cd959606a1b815260200192915050565b6000614a52600c83615935565b6b155b985d5d1a1bdc9a5e995960a21b815260200192915050565b6000614a7a603083615935565b7f5856535661756c743a3a6765745374616b65416d6f756e743a2078767320616481526f191c995cdcc81a5cc81b9bdd081cd95d60821b602082015260400192915050565b6000614acc602a83615935565b7f5361666542455032303a204245503230206f7065726174696f6e20646964206e8152691bdd081cdd58d8d9595960b21b602082015260400192915050565b6000614b18602a83615935565b7f5856535661756c743a3a64656c656761746542795369673a207369676e6174758152691c9948195e1c1a5c995960b21b602082015260400192915050565b6000614b64602283615935565b7f7072696d6520746f6b656e2063616e6e6f74206265207a65726f206164647265815261737360f01b602082015260400192915050565b6000614ba8602683615935565b7f5856535661756c743a3a64656c656761746542795369673a20696e76616c6964815265206e6f6e636560d01b602082015260400192915050565b6000614bf060028361269f565b61190160f01b815260020192915050565b6000614c0e602783615935565b7f53616665436173743a2076616c756520646f65736e27742066697420696e20318152663238206269747360c81b602082015260400192915050565b6000614c57601783615935565b7f5661756c7420697320616c726561647920706175736564000000000000000000815260200192915050565b6000614c90602583615935565b7f696e76616c696420616365737320636f6e74726f6c206d616e61676572206164815264647265737360d81b602082015260400192915050565b6000614cd7602283615935565b7f45434453413a20696e76616c6964207369676e6174757265202773272076616c815261756560f01b602082015260400192915050565b6000614d1b601a83615935565b7f546f6b656e2065786973747320696e206f7468657220706f6f6c000000000000815260200192915050565b6000614d54601383615935565b72185b1c9958591e481a5b9a5d1a585b1a5e9959606a1b815260200192915050565b6000614d83602b83615935565b7f5856535661756c743a3a6765745072696f72566f7465733a206e6f742079657481526a0819195d195c9b5a5b995960aa1b602082015260400192915050565b6000614dd0601d83615935565b7f7265776172642063616e6e6f74206265207a65726f2061646472657373000000815260200192915050565b6000614e09601883615935565b7f7a65726f2061646472657373206e6f7420616c6c6f7765640000000000000000815260200192915050565b6000614e42601a83615935565b7f657865637574652070656e64696e67207769746864726177616c000000000000815260200192915050565b6000614e7b602283615935565b7f45434453413a20696e76616c6964207369676e6174757265202776272076616c815261756560f01b602082015260400192915050565b6000614ebf60438361269f565b7f454950373132446f6d61696e28737472696e67206e616d652c75696e7432353681527f20636861696e49642c6164647265737320766572696679696e67436f6e74726160208201526263742960e81b604082015260430192915050565b6000614f2a601f83615935565b7f72657175657374656420616d6f756e742063616e6e6f74206265207a65726f00815260200192915050565b6000614f63602183615935565b7f536166654d6174683a206d756c7469706c69636174696f6e206f766572666c6f8152607760f81b602082015260400192915050565b6000614fa6601283615935565b71141bdbdb08185b1c9958591e48185919195960721b815260200192915050565b6000614fd4600a83615935565b691c994b595b9d195c995960b21b815260200192915050565b6000614ffa601483615935565b7324b73b30b634b2103932bbb0b932103a37b5b2b760611b815260200192915050565b600061502a600e83615935565b6d37b7363c9030b236b4b71031b0b760911b815260200192915050565b6000615054601583615935565b7418da185b99d9481b9bdd08185d5d1a1bdc9a5e9959605a1b815260200192915050565b6000615085601383615935565b726e6f7468696e6720746f20776974686472617760681b815260200192915050565b60006150b4601a83615935565b7f496e76616c6964206e6577206c6f636b696e6720706572696f64000000000000815260200192915050565b60006150ed601d83615935565b7f416c6c6f6320706f696e7473206d757374206e6f74206265207a65726f000000815260200192915050565b6000615126602083615935565b7f5361666542455032303a206c6f772d6c6576656c2063616c6c206661696c6564815260200192915050565b600061515f603a8361269f565b7f44656c65676174696f6e28616464726573732064656c6567617465652c75696e81527f74323536206e6f6e63652c75696e7432353620657870697279290000000000006020820152603a0192915050565b60006151be601f83615935565b7f5361666542455032303a2063616c6c20746f206e6f6e2d636f6e747261637400815260200192915050565b60006151f7601b83615935565b7f72657175657374656420616d6f756e7420697320696e76616c69640000000000815260200192915050565b6000615230602283615935565b7f6f6e6c792070726f78792061646d696e2063616e206368616e676520627261698152616e7360f01b602082015260400192915050565b6000615274602e83615935565b7f416c6c6f6320706f696e7473207065722072657761726420746f6b656e206d7581526d7374206e6f74206265207a65726f60901b602082015260400192915050565b805160608301906152c8848261482e565b5060208201516152db60208501826152ea565b506040820151613aaa60408501825b6147bd8161595c565b6147bd81615974565b6147bd8161597d565b6147bd816159a5565b6147bd81615983565b6000610a0182846148a2565b600061532e82614be3565b915061533a8285614837565b60208201915061534a8284614837565b5060200192915050565b60006113f482614eb2565b60006113f482615152565b602081016113f482846147c3565b602081016113f482846147b4565b6040810161539482856147b4565b81810360208301526139e58184614874565b604081016153b482856147c3565b610a0160208301846147c3565b606081016153cf82866147c3565b6153dc60208301856147b4565b6139e5604083018461482e565b608081016153f782876147c3565b61540460208301866147c3565b61541160408301856147c3565b61541e60608301846147c3565b95945050505050565b6060810161543582866147c3565b6153dc60208301856147c3565b6080810161545082876147c3565b61545d60208301866147c3565b61546a604083018561482e565b61541e606083018461482e565b6040810161548582856147c3565b610a016020830184614825565b604081016154a082856147c3565b610a01602083018461482e565b606081016154bb82866147c3565b6154c860208301856152f3565b6139e5604083018461530e565b60208082528101610a0181846147cc565b602081016113f48284614825565b602081016113f4828461482e565b60808101615450828761482e565b6080810161551e828761482e565b61552b602083018661482e565b615411604083018561482e565b60808101615546828761482e565b61545d60208301866152fc565b60408082528101615565818688614848565b9050818103602083015261557a818486614848565b9695505050505050565b604080825281016155958185614874565b905081810360208301526139e58184614874565b602081016113f482846148d1565b60a081016155c582886148d1565b6155d2602083018761482e565b6155df604083018661482e565b6155ec606083018561482e565b61557a608083018461482e565b6040810161560782856148d1565b610a0160208301846148d1565b60208082528101610a018184614874565b602080825281016113f4816148e3565b602080825281016113f48161491c565b602080825281016113f48161494a565b602080825281016113f481614979565b602080825281016113f4816149b2565b602080825281016113f4816149eb565b602080825281016113f481614a16565b602080825281016113f481614a45565b602080825281016113f481614a6d565b602080825281016113f481614abf565b602080825281016113f481614b0b565b602080825281016113f481614b57565b602080825281016113f481614b9b565b602080825281016113f481614c01565b602080825281016113f481614c4a565b602080825281016113f481614c83565b602080825281016113f481614cca565b602080825281016113f481614d0e565b602080825281016113f481614d47565b602080825281016113f481614d76565b602080825281016113f481614dc3565b602080825281016113f481614dfc565b602080825281016113f481614e35565b602080825281016113f481614e6e565b602080825281016113f481614f1d565b602080825281016113f481614f56565b602080825281016113f481614f99565b602080825281016113f481614fc7565b602080825281016113f481614fed565b602080825281016113f48161501d565b602080825281016113f481615047565b602080825281016113f481615078565b602080825281016113f4816150a7565b602080825281016113f4816150e0565b602080825281016113f481615119565b602080825281016113f4816151b1565b602080825281016113f4816151ea565b602080825281016113f481615223565b602080825281016113f481615267565b604081016158a3828561482e565b610a0160208301846148da565b604081016154a0828561482e565b606081016158cc828661482e565b6153dc602083018561482e565b602081016113f482846152f3565b604081016158f582856152f3565b610a01602083018461530e565b602081016113f4828461530e565b6040810161591e8285615305565b610a016020830184615305565b60200190565b5190565b90815260200190565b60006113f482615968565b151590565b90565b60006113f48261593e565b6001600160801b031690565b6001600160a01b031690565b63ffffffff1690565b60ff1690565b6001600160601b031690565b60006113f482615951565b60006113f48261594e565b60006113f482615983565b82818337506000910152565b60005b838110156159d75781810151838201526020016159bf565b83811115613aaa5750506000910152565b601f01601f191690565b6159fb8161593e565b8114610a3b57600080fd5b6159fb81615949565b6159fb8161594e565b6159fb81615951565b6159fb81615974565b6159fb8161597d56fe5856535661756c743a3a5f6d6f7665566f7465733a20766f746520616d6f756e74206f766572666c6f77735856535661756c743a3a726571756573745769746864726177616c3a20766f746573206f766572666c6f775856535661756c743a3a6765745374616b65416d6f756e743a20766f746573206f766572666c6f775856535661756c743a3a6465706f7369743a20766f746573206f766572666c6f775856535661756c743a3a5f7772697465436865636b706f696e743a20626c6f636b206e756d62657220657863656564732033322062697473736574526577617264416d6f756e74506572426c6f636b28616464726573732c75696e74323536297365745769746864726177616c4c6f636b696e67506572696f6428616464726573732c75696e743235362c75696e74323536295856535661756c743a3a5f6d6f7665566f7465733a20766f746520616d6f756e7420756e646572666c6f777361646428616464726573732c75696e743235362c616464726573732c75696e743235362c75696e7432353629a365627a7a723158200130e34a624d22a0d14e3e632452c02966304a572fb26a0062f26f4bbc196cc96c6578706572696d656e74616cf564736f6c63430005100040",
  "devdoc": {
    "author": "Venus",
    "methods": {
      "add(address,uint256,address,uint256,uint256)": {
        "details": "This vault DOES NOT support deflationary tokens  it expects that  the amount of transferred tokens would equal the actually deposited  amount. In practice this means that this vault DOES NOT support USDT  and similar tokens (that do not provide these guarantees).",
        "params": {
          "_allocPoint": "Number of allocation points assigned to this pool",
          "_lockPeriod": "A period between withdrawal request and a moment when it's executable",
          "_rewardPerBlock": "Initial reward per block, in terms of _rewardToken",
          "_rewardToken": "Reward token address",
          "_token": "Staked token"
        }
      },
      "claim(address,address,uint256)": {
        "params": {
          "_account": "The account for which to claim rewards",
          "_pid": "The Pool Index",
          "_rewardToken": "The Reward Token Address"
        }
      },
      "delegate(address,bytes)": {
        "params": {
          "adapterParams": "The amount of gas required for BSC chain",
          "delegatee": "The address to delegate votes to"
        }
      },
      "delegateBySig(address,uint256,uint256,uint8,bytes32,bytes32,bytes)": {
        "params": {
          "adapterParams": "The amount of gas required for BSC chain",
          "delegatee": "The address to delegate votes to",
          "expiry": "The time at which to expire the signature",
          "nonce": "The contract state required to match the signature",
          "r": "Half of the ECDSA signature pair",
          "s": "Half of the ECDSA signature pair",
          "v": "The recovery byte of the signature"
        }
      },
      "deposit(address,uint256,uint256,bytes)": {
        "params": {
          "_adapterParams": "The amount of gas required for BSC chain",
          "_amount": "The amount to deposit to vault",
          "_pid": "The Pool Index",
          "_rewardToken": "The Reward Token Address"
        }
      },
      "estimateFee(bytes,bytes)": {
        "details": "The estimated fees are the minimum required; it's recommended to increase the fees amount when sending a message. The unused amount will be refunded",
        "params": {
          "adapterParams": "The params used to specify the custom amount of gas required for the execution on the BSC chain",
          "payload": "The payload to be sent to the remote chain. It's computed as follows: payload = abi.encode(delegatee, ncheckpoints, blockNumber, votes, numCheckpoints[delegatee])"
        },
        "return": "nativeFee The amount of fee in the native gas token (e.g. ETH)zroFee The amount of fee in ZRO token"
      },
      "executeWithdrawal(address,uint256)": {
        "params": {
          "_pid": "The Pool Index",
          "_rewardToken": "The Reward Token Address"
        }
      },
      "getCurrentVotes(address)": {
        "params": {
          "account": "The address to get votes balance"
        },
        "return": "The number of current votes for `account`"
      },
      "getEligibleWithdrawalAmount(address,uint256,address)": {
        "params": {
          "_pid": "The Pool Index",
          "_rewardToken": "The Reward Token Address",
          "_user": "The User Address"
        },
        "return": "withdrawalAmount Amount that the user can withdraw"
      },
      "getPriorVotes(address,uint256)": {
        "params": {
          "account": "The address of the account to check",
          "blockNumber": "The block number to get the vote balance at"
        },
        "return": "The balance that user staked"
      },
      "getRequestedAmount(address,uint256,address)": {
        "params": {
          "_pid": "The Pool Index",
          "_rewardToken": "The Reward Token Address",
          "_user": "The User Address"
        },
        "return": "Total amount of requested but not yet executed withdrawals (including both executable and locked ones)"
      },
      "getUserInfo(address,uint256,address)": {
        "params": {
          "_pid": "Pool index",
          "_rewardToken": "Reward token address",
          "_user": "User address"
        },
        "return": "amount Deposited amountrewardDebt Reward debt (technical value used to track past payouts)pendingWithdrawals Requested but not yet executed withdrawals"
      },
      "getWithdrawalRequests(address,uint256,address)": {
        "params": {
          "_pid": "The Pool Index",
          "_rewardToken": "The Reward Token Address",
          "_user": "The User Address"
        },
        "return": "An array of withdrawal requests"
      },
      "pendingReward(address,uint256,address)": {
        "params": {
          "_pid": "Pool index",
          "_rewardToken": "Reward token address",
          "_user": "User address"
        },
        "return": "Reward the user is eligible for in this pool, in terms of _rewardToken"
      },
      "pendingWithdrawalsBeforeUpgrade(address,uint256,address)": {
        "params": {
          "_pid": "The Pool Index",
          "_rewardToken": "The Reward Token Address",
          "_user": "The address of the user"
        },
        "return": "beforeUpgradeWithdrawalAmount Total pending withdrawal amount in requests made before the vault upgrade"
      },
      "poolLength(address)": {
        "params": {
          "rewardToken": "Reward token address"
        },
        "return": "Number of pools that distribute the specified token as a reward"
      },
      "requestWithdrawal(address,uint256,uint256,bytes)": {
        "params": {
          "_adapterParams": "The amount of gas required for BSC chain",
          "_amount": "The amount to withdraw from the vault",
          "_pid": "The Pool Index",
          "_rewardToken": "The Reward Token Address"
        }
      },
      "set(address,uint256,uint256)": {
        "params": {
          "_allocPoint": "Number of allocation points assigned to this pool",
          "_pid": "Pool index",
          "_rewardToken": "Reward token address"
        }
      },
      "setAccessControl(address)": {
        "details": "Admin function to set the access control address",
        "params": {
          "newAccessControlAddress": "New address for the access control"
        }
      },
      "setBridge(address)": {
        "params": {
          "votesSyncSenderBridge": "Address of bridge"
        }
      },
      "setPrimeToken(address,address,uint256)": {
        "params": {
          "_primePoolId": "pool id for reward",
          "_primeRewardToken": "address of reward token",
          "_primeToken": "address of the prime token contract"
        }
      },
      "setRewardAmountPerBlock(address,uint256)": {
        "params": {
          "_rewardAmount": "Number of allocation points assigned to this pool",
          "_rewardToken": "Reward token address"
        }
      },
      "setWithdrawalLockingPeriod(address,uint256,uint256)": {
        "params": {
          "_newPeriod": "New lock period",
          "_pid": "Pool index",
          "_rewardToken": "Reward token address"
        }
      },
      "updatePool(address,uint256)": {
        "params": {
          "_pid": "Pool index",
          "_rewardToken": "Reward token address"
        }
      }
    },
    "title": "XVSVaultDest"
  },
  "userdoc": {
    "methods": {
      "_become(address)": {
        "notice": "* Admin Functions **"
      },
      "accessControlManager()": {
        "notice": "Returns the address of the access control manager contract"
      },
      "add(address,uint256,address,uint256,uint256)": {
        "notice": "Add a new token pool"
      },
      "claim(address,address,uint256)": {
        "notice": "Claim rewards for pool"
      },
      "delegate(address,bytes)": {
        "notice": "Delegate votes from `msg.sender` to `delegatee`"
      },
      "delegateBySig(address,uint256,uint256,uint8,bytes32,bytes32,bytes)": {
        "notice": "Delegates votes from signatory to `delegatee`"
      },
      "deposit(address,uint256,uint256,bytes)": {
        "notice": "Deposit XVSVault for XVS allocation"
      },
      "estimateFee(bytes,bytes)": {
        "notice": "Estimates LayerZero fees for cross-chain message delivery to the remote chain"
      },
      "executeWithdrawal(address,uint256)": {
        "notice": "Execute withdrawal to XVSVault for XVS allocation"
      },
      "getCurrentVotes(address)": {
        "notice": "Gets the current votes balance for `account`"
      },
      "getEligibleWithdrawalAmount(address,uint256,address)": {
        "notice": "Get unlocked withdrawal amount"
      },
      "getPriorVotes(address,uint256)": {
        "notice": "Determine the xvs stake balance for an account"
      },
      "getRequestedAmount(address,uint256,address)": {
        "notice": "Get requested amount"
      },
      "getUserInfo(address,uint256,address)": {
        "notice": "Get user info with reward token address and pid"
      },
      "getWithdrawalRequests(address,uint256,address)": {
        "notice": "Returns the array of withdrawal requests that have not been executed yet"
      },
      "pause()": {
        "notice": "Pauses vault"
      },
      "pendingReward(address,uint256,address)": {
        "notice": "View function to see pending XVSs on frontend"
      },
      "pendingWithdrawalsBeforeUpgrade(address,uint256,address)": {
        "notice": "Gets the total pending withdrawal amount of a user before upgrade"
      },
      "poolLength(address)": {
        "notice": "Returns the number of pools with the specified reward token"
      },
      "requestWithdrawal(address,uint256,uint256,bytes)": {
        "notice": "Request withdrawal to XVSVault for XVS allocation"
      },
      "resume()": {
        "notice": "Resume vault"
      },
      "set(address,uint256,uint256)": {
        "notice": "Update the given pool's reward allocation point"
      },
      "setAccessControl(address)": {
        "notice": "Sets the address of the access control of this contract"
      },
      "setBridge(address)": {
        "notice": "Update bridge address"
      },
      "setPrimeToken(address,address,uint256)": {
        "notice": "Sets the address of the prime token contract"
      },
      "setRewardAmountPerBlock(address,uint256)": {
        "notice": "Update the given reward token's amount per block"
      },
      "setWithdrawalLockingPeriod(address,uint256,uint256)": {
        "notice": "Update the lock period after which a requested withdrawal can be executed"
      },
      "updatePool(address,uint256)": {
        "notice": "Update reward variables of the given pool to be up-to-date"
      }
    },
    "notice": "The XVS Vault Dest allows XVS holders to lock their XVS to recieve voting rights in Venus governance and are rewarded with XVS, and sync their votes on BSC chain."
  },
  "storageLayout": {
    "storage": [
      {
        "astId": 37060,
        "contract": "contracts/XVSVault/XVSVaultDest.sol:XVSVaultDest",
        "label": "admin",
        "offset": 0,
        "slot": "0",
        "type": "t_address"
      },
      {
        "astId": 37062,
        "contract": "contracts/XVSVault/XVSVaultDest.sol:XVSVaultDest",
        "label": "pendingAdmin",
        "offset": 0,
        "slot": "1",
        "type": "t_address"
      },
      {
        "astId": 37064,
        "contract": "contracts/XVSVault/XVSVaultDest.sol:XVSVaultDest",
        "label": "implementation",
        "offset": 0,
        "slot": "2",
        "type": "t_address"
      },
      {
        "astId": 37066,
        "contract": "contracts/XVSVault/XVSVaultDest.sol:XVSVaultDest",
        "label": "pendingXVSVaultImplementation",
        "offset": 0,
        "slot": "3",
        "type": "t_address"
      },
      {
        "astId": 37071,
        "contract": "contracts/XVSVault/XVSVaultDest.sol:XVSVaultDest",
        "label": "_notEntered",
        "offset": 20,
        "slot": "3",
        "type": "t_bool"
      },
      {
        "astId": 37073,
        "contract": "contracts/XVSVault/XVSVaultDest.sol:XVSVaultDest",
        "label": "xvsStore",
        "offset": 0,
        "slot": "4",
        "type": "t_address"
      },
      {
        "astId": 37075,
        "contract": "contracts/XVSVault/XVSVaultDest.sol:XVSVaultDest",
        "label": "xvsAddress",
        "offset": 0,
        "slot": "5",
        "type": "t_address"
      },
      {
        "astId": 37079,
        "contract": "contracts/XVSVault/XVSVaultDest.sol:XVSVaultDest",
        "label": "rewardTokenAmountsPerBlock",
        "offset": 0,
        "slot": "6",
        "type": "t_mapping(t_address,t_uint256)"
      },
      {
        "astId": 37112,
        "contract": "contracts/XVSVault/XVSVaultDest.sol:XVSVaultDest",
        "label": "userInfos",
        "offset": 0,
        "slot": "7",
        "type": "t_mapping(t_address,t_mapping(t_uint256,t_mapping(t_address,t_struct(UserInfo)37086_storage)))"
      },
      {
        "astId": 37117,
        "contract": "contracts/XVSVault/XVSVaultDest.sol:XVSVaultDest",
        "label": "poolInfos",
        "offset": 0,
        "slot": "8",
        "type": "t_mapping(t_address,t_array(t_struct(PoolInfo)37097_storage)dyn_storage)"
      },
      {
        "astId": 37121,
        "contract": "contracts/XVSVault/XVSVaultDest.sol:XVSVaultDest",
        "label": "totalAllocPoints",
        "offset": 0,
        "slot": "9",
        "type": "t_mapping(t_address,t_uint256)"
      },
      {
        "astId": 37130,
        "contract": "contracts/XVSVault/XVSVaultDest.sol:XVSVaultDest",
        "label": "withdrawalRequests",
        "offset": 0,
        "slot": "10",
        "type": "t_mapping(t_address,t_mapping(t_uint256,t_mapping(t_address,t_array(t_struct(WithdrawalRequest)37104_storage)dyn_storage)))"
      },
      {
        "astId": 37134,
        "contract": "contracts/XVSVault/XVSVaultDest.sol:XVSVaultDest",
        "label": "__oldDelegatesSlot",
        "offset": 0,
        "slot": "11",
        "type": "t_mapping(t_address,t_address)"
      },
      {
        "astId": 37145,
        "contract": "contracts/XVSVault/XVSVaultDest.sol:XVSVaultDest",
        "label": "__oldCheckpointsSlot",
        "offset": 0,
        "slot": "12",
        "type": "t_mapping(t_address,t_mapping(t_uint32,t_struct(Checkpoint)37139_storage))"
      },
      {
        "astId": 37149,
        "contract": "contracts/XVSVault/XVSVaultDest.sol:XVSVaultDest",
        "label": "__oldNumCheckpointsSlot",
        "offset": 0,
        "slot": "13",
        "type": "t_mapping(t_address,t_uint32)"
      },
      {
        "astId": 37153,
        "contract": "contracts/XVSVault/XVSVaultDest.sol:XVSVaultDest",
        "label": "nonces",
        "offset": 0,
        "slot": "14",
        "type": "t_mapping(t_address,t_uint256)"
      },
      {
        "astId": 37170,
        "contract": "contracts/XVSVault/XVSVaultDest.sol:XVSVaultDest",
        "label": "delegates",
        "offset": 0,
        "slot": "15",
        "type": "t_mapping(t_address,t_address)"
      },
      {
        "astId": 37176,
        "contract": "contracts/XVSVault/XVSVaultDest.sol:XVSVaultDest",
        "label": "checkpoints",
        "offset": 0,
        "slot": "16",
        "type": "t_mapping(t_address,t_mapping(t_uint32,t_struct(Checkpoint)37139_storage))"
      },
      {
        "astId": 37180,
        "contract": "contracts/XVSVault/XVSVaultDest.sol:XVSVaultDest",
        "label": "numCheckpoints",
        "offset": 0,
        "slot": "17",
        "type": "t_mapping(t_address,t_uint32)"
      },
      {
        "astId": 37186,
        "contract": "contracts/XVSVault/XVSVaultDest.sol:XVSVaultDest",
        "label": "totalPendingWithdrawals",
        "offset": 0,
        "slot": "18",
        "type": "t_mapping(t_address,t_mapping(t_uint256,t_uint256))"
      },
      {
        "astId": 37188,
        "contract": "contracts/XVSVault/XVSVaultDest.sol:XVSVaultDest",
        "label": "vaultPaused",
        "offset": 0,
        "slot": "19",
        "type": "t_bool"
      },
      {
        "astId": 37192,
        "contract": "contracts/XVSVault/XVSVaultDest.sol:XVSVaultDest",
        "label": "isStakedToken",
        "offset": 0,
        "slot": "20",
        "type": "t_mapping(t_address,t_bool)"
      },
      {
        "astId": 37198,
        "contract": "contracts/XVSVault/XVSVaultDest.sol:XVSVaultDest",
        "label": "pendingRewardTransfers",
        "offset": 0,
        "slot": "21",
        "type": "t_mapping(t_address,t_mapping(t_address,t_uint256))"
      },
      {
        "astId": 37200,
        "contract": "contracts/XVSVault/XVSVaultDest.sol:XVSVaultDest",
        "label": "primeToken",
        "offset": 0,
        "slot": "22",
        "type": "t_contract(IPrime)11993"
      },
      {
        "astId": 37202,
        "contract": "contracts/XVSVault/XVSVaultDest.sol:XVSVaultDest",
        "label": "primeRewardToken",
        "offset": 0,
        "slot": "23",
        "type": "t_address"
      },
      {
        "astId": 37204,
        "contract": "contracts/XVSVault/XVSVaultDest.sol:XVSVaultDest",
        "label": "primePoolId",
        "offset": 0,
        "slot": "24",
        "type": "t_uint256"
      },
      {
        "astId": 37206,
        "contract": "contracts/XVSVault/XVSVaultDest.sol:XVSVaultDest",
        "label": "votesSyncSender",
        "offset": 0,
        "slot": "25",
        "type": "t_contract(IVotesSyncSender)30266"
      },
      {
        "astId": 37210,
        "contract": "contracts/XVSVault/XVSVaultDest.sol:XVSVaultDest",
        "label": "__gap",
        "offset": 0,
        "slot": "26",
        "type": "t_array(t_uint256)45_storage"
      },
      {
        "astId": 4,
        "contract": "contracts/XVSVault/XVSVaultDest.sol:XVSVaultDest",
        "label": "_accessControlManager",
        "offset": 0,
        "slot": "71",
        "type": "t_contract(IAccessControlManagerV5)1917"
      },
      {
        "astId": 8,
        "contract": "contracts/XVSVault/XVSVaultDest.sol:XVSVaultDest",
        "label": "__gap",
        "offset": 0,
        "slot": "72",
        "type": "t_array(t_uint256)49_storage"
      }
    ],
    "types": {
      "t_address": {
        "encoding": "inplace",
        "label": "address",
        "numberOfBytes": "20"
      },
      "t_array(t_struct(PoolInfo)37097_storage)dyn_storage": {
        "base": "t_struct(PoolInfo)37097_storage",
        "encoding": "dynamic_array",
        "label": "struct XVSVaultStorageV1.PoolInfo[]",
        "numberOfBytes": "32"
      },
      "t_array(t_struct(WithdrawalRequest)37104_storage)dyn_storage": {
        "base": "t_struct(WithdrawalRequest)37104_storage",
        "encoding": "dynamic_array",
        "label": "struct XVSVaultStorageV1.WithdrawalRequest[]",
        "numberOfBytes": "32"
      },
      "t_array(t_uint256)45_storage": {
        "base": "t_uint256",
        "encoding": "inplace",
        "label": "uint256[45]",
        "numberOfBytes": "1440"
      },
      "t_array(t_uint256)49_storage": {
        "base": "t_uint256",
        "encoding": "inplace",
        "label": "uint256[49]",
        "numberOfBytes": "1568"
      },
      "t_bool": {
        "encoding": "inplace",
        "label": "bool",
        "numberOfBytes": "1"
      },
      "t_contract(IAccessControlManagerV5)1917": {
        "encoding": "inplace",
        "label": "contract IAccessControlManagerV5",
        "numberOfBytes": "20"
      },
      "t_contract(IBEP20)27196": {
        "encoding": "inplace",
        "label": "contract IBEP20",
        "numberOfBytes": "20"
      },
      "t_contract(IPrime)11993": {
        "encoding": "inplace",
        "label": "contract IPrime",
        "numberOfBytes": "20"
      },
      "t_contract(IVotesSyncSender)30266": {
        "encoding": "inplace",
        "label": "contract IVotesSyncSender",
        "numberOfBytes": "20"
      },
      "t_mapping(t_address,t_address)": {
        "encoding": "mapping",
        "key": "t_address",
        "label": "mapping(address => address)",
        "numberOfBytes": "32",
        "value": "t_address"
      },
      "t_mapping(t_address,t_array(t_struct(PoolInfo)37097_storage)dyn_storage)": {
        "encoding": "mapping",
        "key": "t_address",
        "label": "mapping(address => struct XVSVaultStorageV1.PoolInfo[])",
        "numberOfBytes": "32",
        "value": "t_array(t_struct(PoolInfo)37097_storage)dyn_storage"
      },
      "t_mapping(t_address,t_array(t_struct(WithdrawalRequest)37104_storage)dyn_storage)": {
        "encoding": "mapping",
        "key": "t_address",
        "label": "mapping(address => struct XVSVaultStorageV1.WithdrawalRequest[])",
        "numberOfBytes": "32",
        "value": "t_array(t_struct(WithdrawalRequest)37104_storage)dyn_storage"
      },
      "t_mapping(t_address,t_bool)": {
        "encoding": "mapping",
        "key": "t_address",
        "label": "mapping(address => bool)",
        "numberOfBytes": "32",
        "value": "t_bool"
      },
      "t_mapping(t_address,t_mapping(t_address,t_uint256))": {
        "encoding": "mapping",
        "key": "t_address",
        "label": "mapping(address => mapping(address => uint256))",
        "numberOfBytes": "32",
        "value": "t_mapping(t_address,t_uint256)"
      },
      "t_mapping(t_address,t_mapping(t_uint256,t_mapping(t_address,t_array(t_struct(WithdrawalRequest)37104_storage)dyn_storage)))": {
        "encoding": "mapping",
        "key": "t_address",
        "label": "mapping(address => mapping(uint256 => mapping(address => struct XVSVaultStorageV1.WithdrawalRequest[])))",
        "numberOfBytes": "32",
        "value": "t_mapping(t_uint256,t_mapping(t_address,t_array(t_struct(WithdrawalRequest)37104_storage)dyn_storage))"
      },
      "t_mapping(t_address,t_mapping(t_uint256,t_mapping(t_address,t_struct(UserInfo)37086_storage)))": {
        "encoding": "mapping",
        "key": "t_address",
        "label": "mapping(address => mapping(uint256 => mapping(address => struct XVSVaultStorageV1.UserInfo)))",
        "numberOfBytes": "32",
        "value": "t_mapping(t_uint256,t_mapping(t_address,t_struct(UserInfo)37086_storage))"
      },
      "t_mapping(t_address,t_mapping(t_uint256,t_uint256))": {
        "encoding": "mapping",
        "key": "t_address",
        "label": "mapping(address => mapping(uint256 => uint256))",
        "numberOfBytes": "32",
        "value": "t_mapping(t_uint256,t_uint256)"
      },
      "t_mapping(t_address,t_mapping(t_uint32,t_struct(Checkpoint)37139_storage))": {
        "encoding": "mapping",
        "key": "t_address",
        "label": "mapping(address => mapping(uint32 => struct XVSVaultStorageV1.Checkpoint))",
        "numberOfBytes": "32",
        "value": "t_mapping(t_uint32,t_struct(Checkpoint)37139_storage)"
      },
      "t_mapping(t_address,t_struct(UserInfo)37086_storage)": {
        "encoding": "mapping",
        "key": "t_address",
        "label": "mapping(address => struct XVSVaultStorageV1.UserInfo)",
        "numberOfBytes": "32",
        "value": "t_struct(UserInfo)37086_storage"
      },
      "t_mapping(t_address,t_uint256)": {
        "encoding": "mapping",
        "key": "t_address",
        "label": "mapping(address => uint256)",
        "numberOfBytes": "32",
        "value": "t_uint256"
      },
      "t_mapping(t_address,t_uint32)": {
        "encoding": "mapping",
        "key": "t_address",
        "label": "mapping(address => uint32)",
        "numberOfBytes": "32",
        "value": "t_uint32"
      },
      "t_mapping(t_uint256,t_mapping(t_address,t_array(t_struct(WithdrawalRequest)37104_storage)dyn_storage))": {
        "encoding": "mapping",
        "key": "t_uint256",
        "label": "mapping(uint256 => mapping(address => struct XVSVaultStorageV1.WithdrawalRequest[]))",
        "numberOfBytes": "32",
        "value": "t_mapping(t_address,t_array(t_struct(WithdrawalRequest)37104_storage)dyn_storage)"
      },
      "t_mapping(t_uint256,t_mapping(t_address,t_struct(UserInfo)37086_storage))": {
        "encoding": "mapping",
        "key": "t_uint256",
        "label": "mapping(uint256 => mapping(address => struct XVSVaultStorageV1.UserInfo))",
        "numberOfBytes": "32",
        "value": "t_mapping(t_address,t_struct(UserInfo)37086_storage)"
      },
      "t_mapping(t_uint256,t_uint256)": {
        "encoding": "mapping",
        "key": "t_uint256",
        "label": "mapping(uint256 => uint256)",
        "numberOfBytes": "32",
        "value": "t_uint256"
      },
      "t_mapping(t_uint32,t_struct(Checkpoint)37139_storage)": {
        "encoding": "mapping",
        "key": "t_uint32",
        "label": "mapping(uint32 => struct XVSVaultStorageV1.Checkpoint)",
        "numberOfBytes": "32",
        "value": "t_struct(Checkpoint)37139_storage"
      },
      "t_struct(Checkpoint)37139_storage": {
        "encoding": "inplace",
        "label": "struct XVSVaultStorageV1.Checkpoint",
        "members": [
          {
            "astId": 37136,
            "contract": "contracts/XVSVault/XVSVaultDest.sol:XVSVaultDest",
            "label": "fromBlock",
            "offset": 0,
            "slot": "0",
            "type": "t_uint32"
          },
          {
            "astId": 37138,
            "contract": "contracts/XVSVault/XVSVaultDest.sol:XVSVaultDest",
            "label": "votes",
            "offset": 4,
            "slot": "0",
            "type": "t_uint96"
          }
        ],
        "numberOfBytes": "32"
      },
      "t_struct(PoolInfo)37097_storage": {
        "encoding": "inplace",
        "label": "struct XVSVaultStorageV1.PoolInfo",
        "members": [
          {
            "astId": 37088,
            "contract": "contracts/XVSVault/XVSVaultDest.sol:XVSVaultDest",
            "label": "token",
            "offset": 0,
            "slot": "0",
            "type": "t_contract(IBEP20)27196"
          },
          {
            "astId": 37090,
            "contract": "contracts/XVSVault/XVSVaultDest.sol:XVSVaultDest",
            "label": "allocPoint",
            "offset": 0,
            "slot": "1",
            "type": "t_uint256"
          },
          {
            "astId": 37092,
            "contract": "contracts/XVSVault/XVSVaultDest.sol:XVSVaultDest",
            "label": "lastRewardBlock",
            "offset": 0,
            "slot": "2",
            "type": "t_uint256"
          },
          {
            "astId": 37094,
            "contract": "contracts/XVSVault/XVSVaultDest.sol:XVSVaultDest",
            "label": "accRewardPerShare",
            "offset": 0,
            "slot": "3",
            "type": "t_uint256"
          },
          {
            "astId": 37096,
            "contract": "contracts/XVSVault/XVSVaultDest.sol:XVSVaultDest",
            "label": "lockPeriod",
            "offset": 0,
            "slot": "4",
            "type": "t_uint256"
          }
        ],
        "numberOfBytes": "160"
      },
      "t_struct(UserInfo)37086_storage": {
        "encoding": "inplace",
        "label": "struct XVSVaultStorageV1.UserInfo",
        "members": [
          {
            "astId": 37081,
            "contract": "contracts/XVSVault/XVSVaultDest.sol:XVSVaultDest",
            "label": "amount",
            "offset": 0,
            "slot": "0",
            "type": "t_uint256"
          },
          {
            "astId": 37083,
            "contract": "contracts/XVSVault/XVSVaultDest.sol:XVSVaultDest",
            "label": "rewardDebt",
            "offset": 0,
            "slot": "1",
            "type": "t_uint256"
          },
          {
            "astId": 37085,
            "contract": "contracts/XVSVault/XVSVaultDest.sol:XVSVaultDest",
            "label": "pendingWithdrawals",
            "offset": 0,
            "slot": "2",
            "type": "t_uint256"
          }
        ],
        "numberOfBytes": "96"
      },
      "t_struct(WithdrawalRequest)37104_storage": {
        "encoding": "inplace",
        "label": "struct XVSVaultStorageV1.WithdrawalRequest",
        "members": [
          {
            "astId": 37099,
            "contract": "contracts/XVSVault/XVSVaultDest.sol:XVSVaultDest",
            "label": "amount",
            "offset": 0,
            "slot": "0",
            "type": "t_uint256"
          },
          {
            "astId": 37101,
            "contract": "contracts/XVSVault/XVSVaultDest.sol:XVSVaultDest",
            "label": "lockedUntil",
            "offset": 0,
            "slot": "1",
            "type": "t_uint128"
          },
          {
            "astId": 37103,
            "contract": "contracts/XVSVault/XVSVaultDest.sol:XVSVaultDest",
            "label": "afterUpgrade",
            "offset": 16,
            "slot": "1",
            "type": "t_uint128"
          }
        ],
        "numberOfBytes": "64"
      },
      "t_uint128": {
        "encoding": "inplace",
        "label": "uint128",
        "numberOfBytes": "16"
      },
      "t_uint256": {
        "encoding": "inplace",
        "label": "uint256",
        "numberOfBytes": "32"
      },
      "t_uint32": {
        "encoding": "inplace",
        "label": "uint32",
        "numberOfBytes": "4"
      },
      "t_uint96": {
        "encoding": "inplace",
        "label": "uint96",
        "numberOfBytes": "12"
      }
    }
  }
}