{
  "address": "0xc8614663Cc4ee868EF5267891E177586d7105D7F",
  "abi": [
    {
      "inputs": [],
      "payable": false,
      "stateMutability": "nonpayable",
      "type": "constructor"
    },
    {
      "anonymous": false,
      "inputs": [
        {
          "indexed": true,
          "internalType": "address",
          "name": "user",
          "type": "address"
        },
        {
          "indexed": true,
          "internalType": "address",
          "name": "rewardToken",
          "type": "address"
        },
        {
          "indexed": true,
          "internalType": "uint256",
          "name": "pid",
          "type": "uint256"
        },
        {
          "indexed": false,
          "internalType": "uint256",
          "name": "amount",
          "type": "uint256"
        }
      ],
      "name": "Claim",
      "type": "event"
    },
    {
      "anonymous": false,
      "inputs": [
        {
          "indexed": true,
          "internalType": "address",
          "name": "delegator",
          "type": "address"
        },
        {
          "indexed": true,
          "internalType": "address",
          "name": "fromDelegate",
          "type": "address"
        },
        {
          "indexed": true,
          "internalType": "address",
          "name": "toDelegate",
          "type": "address"
        }
      ],
      "name": "DelegateChangedV2",
      "type": "event"
    },
    {
      "anonymous": false,
      "inputs": [
        {
          "indexed": true,
          "internalType": "address",
          "name": "delegate",
          "type": "address"
        },
        {
          "indexed": false,
          "internalType": "uint256",
          "name": "previousBalance",
          "type": "uint256"
        },
        {
          "indexed": false,
          "internalType": "uint256",
          "name": "newBalance",
          "type": "uint256"
        }
      ],
      "name": "DelegateVotesChangedV2",
      "type": "event"
    },
    {
      "anonymous": false,
      "inputs": [
        {
          "indexed": true,
          "internalType": "address",
          "name": "user",
          "type": "address"
        },
        {
          "indexed": true,
          "internalType": "address",
          "name": "rewardToken",
          "type": "address"
        },
        {
          "indexed": true,
          "internalType": "uint256",
          "name": "pid",
          "type": "uint256"
        },
        {
          "indexed": false,
          "internalType": "uint256",
          "name": "amount",
          "type": "uint256"
        }
      ],
      "name": "Deposit",
      "type": "event"
    },
    {
      "anonymous": false,
      "inputs": [
        {
          "indexed": true,
          "internalType": "address",
          "name": "user",
          "type": "address"
        },
        {
          "indexed": true,
          "internalType": "address",
          "name": "rewardToken",
          "type": "address"
        },
        {
          "indexed": true,
          "internalType": "uint256",
          "name": "pid",
          "type": "uint256"
        },
        {
          "indexed": false,
          "internalType": "uint256",
          "name": "amount",
          "type": "uint256"
        }
      ],
      "name": "ExecutedWithdrawal",
      "type": "event"
    },
    {
      "anonymous": false,
      "inputs": [
        {
          "indexed": false,
          "internalType": "address",
          "name": "oldAccessControlManager",
          "type": "address"
        },
        {
          "indexed": false,
          "internalType": "address",
          "name": "newAccessControlManager",
          "type": "address"
        }
      ],
      "name": "NewAccessControlManager",
      "type": "event"
    },
    {
      "anonymous": false,
      "inputs": [
        {
          "indexed": true,
          "internalType": "contract IPrime",
          "name": "oldPrimeToken",
          "type": "address"
        },
        {
          "indexed": true,
          "internalType": "contract IPrime",
          "name": "newPrimeToken",
          "type": "address"
        },
        {
          "indexed": false,
          "internalType": "address",
          "name": "oldPrimeRewardToken",
          "type": "address"
        },
        {
          "indexed": false,
          "internalType": "address",
          "name": "newPrimeRewardToken",
          "type": "address"
        },
        {
          "indexed": false,
          "internalType": "uint256",
          "name": "oldPrimePoolId",
          "type": "uint256"
        },
        {
          "indexed": false,
          "internalType": "uint256",
          "name": "newPrimePoolId",
          "type": "uint256"
        }
      ],
      "name": "NewPrimeToken",
      "type": "event"
    },
    {
      "anonymous": false,
      "inputs": [
        {
          "indexed": true,
          "internalType": "address",
          "name": "rewardToken",
          "type": "address"
        },
        {
          "indexed": true,
          "internalType": "uint256",
          "name": "pid",
          "type": "uint256"
        },
        {
          "indexed": true,
          "internalType": "address",
          "name": "token",
          "type": "address"
        },
        {
          "indexed": false,
          "internalType": "uint256",
          "name": "allocPoints",
          "type": "uint256"
        },
        {
          "indexed": false,
          "internalType": "uint256",
          "name": "rewardPerBlockOrSecond",
          "type": "uint256"
        },
        {
          "indexed": false,
          "internalType": "uint256",
          "name": "lockPeriod",
          "type": "uint256"
        }
      ],
      "name": "PoolAdded",
      "type": "event"
    },
    {
      "anonymous": false,
      "inputs": [
        {
          "indexed": true,
          "internalType": "address",
          "name": "rewardToken",
          "type": "address"
        },
        {
          "indexed": true,
          "internalType": "uint256",
          "name": "pid",
          "type": "uint256"
        },
        {
          "indexed": false,
          "internalType": "uint256",
          "name": "oldAllocPoints",
          "type": "uint256"
        },
        {
          "indexed": false,
          "internalType": "uint256",
          "name": "newAllocPoints",
          "type": "uint256"
        }
      ],
      "name": "PoolUpdated",
      "type": "event"
    },
    {
      "anonymous": false,
      "inputs": [
        {
          "indexed": true,
          "internalType": "address",
          "name": "user",
          "type": "address"
        },
        {
          "indexed": true,
          "internalType": "address",
          "name": "rewardToken",
          "type": "address"
        },
        {
          "indexed": true,
          "internalType": "uint256",
          "name": "pid",
          "type": "uint256"
        },
        {
          "indexed": false,
          "internalType": "uint256",
          "name": "amount",
          "type": "uint256"
        }
      ],
      "name": "RequestedWithdrawal",
      "type": "event"
    },
    {
      "anonymous": false,
      "inputs": [
        {
          "indexed": true,
          "internalType": "address",
          "name": "rewardToken",
          "type": "address"
        },
        {
          "indexed": false,
          "internalType": "uint256",
          "name": "oldReward",
          "type": "uint256"
        },
        {
          "indexed": false,
          "internalType": "uint256",
          "name": "newReward",
          "type": "uint256"
        }
      ],
      "name": "RewardAmountUpdated",
      "type": "event"
    },
    {
      "anonymous": false,
      "inputs": [
        {
          "indexed": false,
          "internalType": "address",
          "name": "oldXvs",
          "type": "address"
        },
        {
          "indexed": false,
          "internalType": "address",
          "name": "oldStore",
          "type": "address"
        },
        {
          "indexed": false,
          "internalType": "address",
          "name": "newXvs",
          "type": "address"
        },
        {
          "indexed": false,
          "internalType": "address",
          "name": "newStore",
          "type": "address"
        }
      ],
      "name": "StoreUpdated",
      "type": "event"
    },
    {
      "anonymous": false,
      "inputs": [
        {
          "indexed": true,
          "internalType": "address",
          "name": "rewardToken",
          "type": "address"
        },
        {
          "indexed": true,
          "internalType": "address",
          "name": "userAddress",
          "type": "address"
        },
        {
          "indexed": false,
          "internalType": "uint256",
          "name": "oldOwedAmount",
          "type": "uint256"
        },
        {
          "indexed": false,
          "internalType": "uint256",
          "name": "newOwedAmount",
          "type": "uint256"
        }
      ],
      "name": "VaultDebtUpdated",
      "type": "event"
    },
    {
      "anonymous": false,
      "inputs": [
        {
          "indexed": true,
          "internalType": "address",
          "name": "admin",
          "type": "address"
        }
      ],
      "name": "VaultPaused",
      "type": "event"
    },
    {
      "anonymous": false,
      "inputs": [
        {
          "indexed": true,
          "internalType": "address",
          "name": "admin",
          "type": "address"
        }
      ],
      "name": "VaultResumed",
      "type": "event"
    },
    {
      "anonymous": false,
      "inputs": [
        {
          "indexed": true,
          "internalType": "address",
          "name": "rewardToken",
          "type": "address"
        },
        {
          "indexed": true,
          "internalType": "uint256",
          "name": "pid",
          "type": "uint256"
        },
        {
          "indexed": false,
          "internalType": "uint256",
          "name": "oldPeriod",
          "type": "uint256"
        },
        {
          "indexed": false,
          "internalType": "uint256",
          "name": "newPeriod",
          "type": "uint256"
        }
      ],
      "name": "WithdrawalLockingPeriodUpdated",
      "type": "event"
    },
    {
      "constant": true,
      "inputs": [],
      "name": "DELEGATION_TYPEHASH",
      "outputs": [
        {
          "internalType": "bytes32",
          "name": "",
          "type": "bytes32"
        }
      ],
      "payable": false,
      "stateMutability": "view",
      "type": "function"
    },
    {
      "constant": true,
      "inputs": [],
      "name": "DOMAIN_TYPEHASH",
      "outputs": [
        {
          "internalType": "bytes32",
          "name": "",
          "type": "bytes32"
        }
      ],
      "payable": false,
      "stateMutability": "view",
      "type": "function"
    },
    {
      "constant": true,
      "inputs": [],
      "name": "MAX_LOCK_PERIOD",
      "outputs": [
        {
          "internalType": "uint256",
          "name": "",
          "type": "uint256"
        }
      ],
      "payable": false,
      "stateMutability": "view",
      "type": "function"
    },
    {
      "constant": true,
      "inputs": [],
      "name": "SECONDS_PER_YEAR",
      "outputs": [
        {
          "internalType": "uint256",
          "name": "",
          "type": "uint256"
        }
      ],
      "payable": false,
      "stateMutability": "view",
      "type": "function"
    },
    {
      "constant": false,
      "inputs": [
        {
          "internalType": "contract XVSVaultProxy",
          "name": "xvsVaultProxy",
          "type": "address"
        }
      ],
      "name": "_become",
      "outputs": [],
      "payable": false,
      "stateMutability": "nonpayable",
      "type": "function"
    },
    {
      "constant": true,
      "inputs": [],
      "name": "accessControlManager",
      "outputs": [
        {
          "internalType": "contract IAccessControlManagerV5",
          "name": "",
          "type": "address"
        }
      ],
      "payable": false,
      "stateMutability": "view",
      "type": "function"
    },
    {
      "constant": false,
      "inputs": [
        {
          "internalType": "address",
          "name": "_rewardToken",
          "type": "address"
        },
        {
          "internalType": "uint256",
          "name": "_allocPoint",
          "type": "uint256"
        },
        {
          "internalType": "contract IBEP20",
          "name": "_token",
          "type": "address"
        },
        {
          "internalType": "uint256",
          "name": "_rewardPerBlockOrSecond",
          "type": "uint256"
        },
        {
          "internalType": "uint256",
          "name": "_lockPeriod",
          "type": "uint256"
        }
      ],
      "name": "add",
      "outputs": [],
      "payable": false,
      "stateMutability": "nonpayable",
      "type": "function"
    },
    {
      "constant": true,
      "inputs": [],
      "name": "admin",
      "outputs": [
        {
          "internalType": "address",
          "name": "",
          "type": "address"
        }
      ],
      "payable": false,
      "stateMutability": "view",
      "type": "function"
    },
    {
      "constant": true,
      "inputs": [],
      "name": "blocksOrSecondsPerYear",
      "outputs": [
        {
          "internalType": "uint256",
          "name": "",
          "type": "uint256"
        }
      ],
      "payable": false,
      "stateMutability": "view",
      "type": "function"
    },
    {
      "constant": true,
      "inputs": [
        {
          "internalType": "address",
          "name": "",
          "type": "address"
        },
        {
          "internalType": "uint32",
          "name": "",
          "type": "uint32"
        }
      ],
      "name": "checkpoints",
      "outputs": [
        {
          "internalType": "uint32",
          "name": "fromBlockOrSecond",
          "type": "uint32"
        },
        {
          "internalType": "uint96",
          "name": "votes",
          "type": "uint96"
        }
      ],
      "payable": false,
      "stateMutability": "view",
      "type": "function"
    },
    {
      "constant": false,
      "inputs": [
        {
          "internalType": "address",
          "name": "_account",
          "type": "address"
        },
        {
          "internalType": "address",
          "name": "_rewardToken",
          "type": "address"
        },
        {
          "internalType": "uint256",
          "name": "_pid",
          "type": "uint256"
        }
      ],
      "name": "claim",
      "outputs": [],
      "payable": false,
      "stateMutability": "nonpayable",
      "type": "function"
    },
    {
      "constant": false,
      "inputs": [
        {
          "internalType": "address",
          "name": "delegatee",
          "type": "address"
        }
      ],
      "name": "delegate",
      "outputs": [],
      "payable": false,
      "stateMutability": "nonpayable",
      "type": "function"
    },
    {
      "constant": false,
      "inputs": [
        {
          "internalType": "address",
          "name": "delegatee",
          "type": "address"
        },
        {
          "internalType": "uint256",
          "name": "nonce",
          "type": "uint256"
        },
        {
          "internalType": "uint256",
          "name": "expiry",
          "type": "uint256"
        },
        {
          "internalType": "uint8",
          "name": "v",
          "type": "uint8"
        },
        {
          "internalType": "bytes32",
          "name": "r",
          "type": "bytes32"
        },
        {
          "internalType": "bytes32",
          "name": "s",
          "type": "bytes32"
        }
      ],
      "name": "delegateBySig",
      "outputs": [],
      "payable": false,
      "stateMutability": "nonpayable",
      "type": "function"
    },
    {
      "constant": true,
      "inputs": [
        {
          "internalType": "address",
          "name": "",
          "type": "address"
        }
      ],
      "name": "delegates",
      "outputs": [
        {
          "internalType": "address",
          "name": "",
          "type": "address"
        }
      ],
      "payable": false,
      "stateMutability": "view",
      "type": "function"
    },
    {
      "constant": false,
      "inputs": [
        {
          "internalType": "address",
          "name": "_rewardToken",
          "type": "address"
        },
        {
          "internalType": "uint256",
          "name": "_pid",
          "type": "uint256"
        },
        {
          "internalType": "uint256",
          "name": "_amount",
          "type": "uint256"
        }
      ],
      "name": "deposit",
      "outputs": [],
      "payable": false,
      "stateMutability": "nonpayable",
      "type": "function"
    },
    {
      "constant": false,
      "inputs": [
        {
          "internalType": "address",
          "name": "_rewardToken",
          "type": "address"
        },
        {
          "internalType": "uint256",
          "name": "_pid",
          "type": "uint256"
        }
      ],
      "name": "executeWithdrawal",
      "outputs": [],
      "payable": false,
      "stateMutability": "nonpayable",
      "type": "function"
    },
    {
      "constant": true,
      "inputs": [],
      "name": "getBlockNumberOrTimestamp",
      "outputs": [
        {
          "internalType": "uint256",
          "name": "",
          "type": "uint256"
        }
      ],
      "payable": false,
      "stateMutability": "view",
      "type": "function"
    },
    {
      "constant": true,
      "inputs": [
        {
          "internalType": "address",
          "name": "account",
          "type": "address"
        }
      ],
      "name": "getCurrentVotes",
      "outputs": [
        {
          "internalType": "uint96",
          "name": "",
          "type": "uint96"
        }
      ],
      "payable": false,
      "stateMutability": "view",
      "type": "function"
    },
    {
      "constant": true,
      "inputs": [
        {
          "internalType": "address",
          "name": "_rewardToken",
          "type": "address"
        },
        {
          "internalType": "uint256",
          "name": "_pid",
          "type": "uint256"
        },
        {
          "internalType": "address",
          "name": "_user",
          "type": "address"
        }
      ],
      "name": "getEligibleWithdrawalAmount",
      "outputs": [
        {
          "internalType": "uint256",
          "name": "withdrawalAmount",
          "type": "uint256"
        }
      ],
      "payable": false,
      "stateMutability": "view",
      "type": "function"
    },
    {
      "constant": true,
      "inputs": [
        {
          "internalType": "address",
          "name": "account",
          "type": "address"
        },
        {
          "internalType": "uint256",
          "name": "blockNumberOrSecond",
          "type": "uint256"
        }
      ],
      "name": "getPriorVotes",
      "outputs": [
        {
          "internalType": "uint96",
          "name": "",
          "type": "uint96"
        }
      ],
      "payable": false,
      "stateMutability": "view",
      "type": "function"
    },
    {
      "constant": true,
      "inputs": [
        {
          "internalType": "address",
          "name": "_rewardToken",
          "type": "address"
        },
        {
          "internalType": "uint256",
          "name": "_pid",
          "type": "uint256"
        },
        {
          "internalType": "address",
          "name": "_user",
          "type": "address"
        }
      ],
      "name": "getRequestedAmount",
      "outputs": [
        {
          "internalType": "uint256",
          "name": "",
          "type": "uint256"
        }
      ],
      "payable": false,
      "stateMutability": "view",
      "type": "function"
    },
    {
      "constant": true,
      "inputs": [
        {
          "internalType": "address",
          "name": "_rewardToken",
          "type": "address"
        },
        {
          "internalType": "uint256",
          "name": "_pid",
          "type": "uint256"
        },
        {
          "internalType": "address",
          "name": "_user",
          "type": "address"
        }
      ],
      "name": "getUserInfo",
      "outputs": [
        {
          "internalType": "uint256",
          "name": "amount",
          "type": "uint256"
        },
        {
          "internalType": "uint256",
          "name": "rewardDebt",
          "type": "uint256"
        },
        {
          "internalType": "uint256",
          "name": "pendingWithdrawals",
          "type": "uint256"
        }
      ],
      "payable": false,
      "stateMutability": "view",
      "type": "function"
    },
    {
      "constant": true,
      "inputs": [
        {
          "internalType": "address",
          "name": "_rewardToken",
          "type": "address"
        },
        {
          "internalType": "uint256",
          "name": "_pid",
          "type": "uint256"
        },
        {
          "internalType": "address",
          "name": "_user",
          "type": "address"
        }
      ],
      "name": "getWithdrawalRequests",
      "outputs": [
        {
          "components": [
            {
              "internalType": "uint256",
              "name": "amount",
              "type": "uint256"
            },
            {
              "internalType": "uint128",
              "name": "lockedUntil",
              "type": "uint128"
            },
            {
              "internalType": "uint128",
              "name": "afterUpgrade",
              "type": "uint128"
            }
          ],
          "internalType": "struct XVSVaultStorageV1.WithdrawalRequest[]",
          "name": "",
          "type": "tuple[]"
        }
      ],
      "payable": false,
      "stateMutability": "view",
      "type": "function"
    },
    {
      "constant": true,
      "inputs": [],
      "name": "implementation",
      "outputs": [
        {
          "internalType": "address",
          "name": "",
          "type": "address"
        }
      ],
      "payable": false,
      "stateMutability": "view",
      "type": "function"
    },
    {
      "constant": false,
      "inputs": [
        {
          "internalType": "bool",
          "name": "timeBased_",
          "type": "bool"
        },
        {
          "internalType": "uint256",
          "name": "blocksPerYear_",
          "type": "uint256"
        }
      ],
      "name": "initializeTimeManager",
      "outputs": [],
      "payable": false,
      "stateMutability": "nonpayable",
      "type": "function"
    },
    {
      "constant": true,
      "inputs": [
        {
          "internalType": "address",
          "name": "",
          "type": "address"
        }
      ],
      "name": "isStakedToken",
      "outputs": [
        {
          "internalType": "bool",
          "name": "",
          "type": "bool"
        }
      ],
      "payable": false,
      "stateMutability": "view",
      "type": "function"
    },
    {
      "constant": true,
      "inputs": [],
      "name": "isTimeBased",
      "outputs": [
        {
          "internalType": "bool",
          "name": "",
          "type": "bool"
        }
      ],
      "payable": false,
      "stateMutability": "view",
      "type": "function"
    },
    {
      "constant": true,
      "inputs": [
        {
          "internalType": "address",
          "name": "",
          "type": "address"
        }
      ],
      "name": "nonces",
      "outputs": [
        {
          "internalType": "uint256",
          "name": "",
          "type": "uint256"
        }
      ],
      "payable": false,
      "stateMutability": "view",
      "type": "function"
    },
    {
      "constant": true,
      "inputs": [
        {
          "internalType": "address",
          "name": "",
          "type": "address"
        }
      ],
      "name": "numCheckpoints",
      "outputs": [
        {
          "internalType": "uint32",
          "name": "",
          "type": "uint32"
        }
      ],
      "payable": false,
      "stateMutability": "view",
      "type": "function"
    },
    {
      "constant": false,
      "inputs": [],
      "name": "pause",
      "outputs": [],
      "payable": false,
      "stateMutability": "nonpayable",
      "type": "function"
    },
    {
      "constant": true,
      "inputs": [],
      "name": "pendingAdmin",
      "outputs": [
        {
          "internalType": "address",
          "name": "",
          "type": "address"
        }
      ],
      "payable": false,
      "stateMutability": "view",
      "type": "function"
    },
    {
      "constant": true,
      "inputs": [
        {
          "internalType": "address",
          "name": "_rewardToken",
          "type": "address"
        },
        {
          "internalType": "uint256",
          "name": "_pid",
          "type": "uint256"
        },
        {
          "internalType": "address",
          "name": "_user",
          "type": "address"
        }
      ],
      "name": "pendingReward",
      "outputs": [
        {
          "internalType": "uint256",
          "name": "",
          "type": "uint256"
        }
      ],
      "payable": false,
      "stateMutability": "view",
      "type": "function"
    },
    {
      "constant": true,
      "inputs": [
        {
          "internalType": "address",
          "name": "",
          "type": "address"
        },
        {
          "internalType": "address",
          "name": "",
          "type": "address"
        }
      ],
      "name": "pendingRewardTransfers",
      "outputs": [
        {
          "internalType": "uint256",
          "name": "",
          "type": "uint256"
        }
      ],
      "payable": false,
      "stateMutability": "view",
      "type": "function"
    },
    {
      "constant": true,
      "inputs": [
        {
          "internalType": "address",
          "name": "_rewardToken",
          "type": "address"
        },
        {
          "internalType": "uint256",
          "name": "_pid",
          "type": "uint256"
        },
        {
          "internalType": "address",
          "name": "_user",
          "type": "address"
        }
      ],
      "name": "pendingWithdrawalsBeforeUpgrade",
      "outputs": [
        {
          "internalType": "uint256",
          "name": "beforeUpgradeWithdrawalAmount",
          "type": "uint256"
        }
      ],
      "payable": false,
      "stateMutability": "view",
      "type": "function"
    },
    {
      "constant": true,
      "inputs": [],
      "name": "pendingXVSVaultImplementation",
      "outputs": [
        {
          "internalType": "address",
          "name": "",
          "type": "address"
        }
      ],
      "payable": false,
      "stateMutability": "view",
      "type": "function"
    },
    {
      "constant": true,
      "inputs": [
        {
          "internalType": "address",
          "name": "",
          "type": "address"
        },
        {
          "internalType": "uint256",
          "name": "",
          "type": "uint256"
        }
      ],
      "name": "poolInfos",
      "outputs": [
        {
          "internalType": "contract IBEP20",
          "name": "token",
          "type": "address"
        },
        {
          "internalType": "uint256",
          "name": "allocPoint",
          "type": "uint256"
        },
        {
          "internalType": "uint256",
          "name": "lastRewardBlockOrSecond",
          "type": "uint256"
        },
        {
          "internalType": "uint256",
          "name": "accRewardPerShare",
          "type": "uint256"
        },
        {
          "internalType": "uint256",
          "name": "lockPeriod",
          "type": "uint256"
        }
      ],
      "payable": false,
      "stateMutability": "view",
      "type": "function"
    },
    {
      "constant": true,
      "inputs": [
        {
          "internalType": "address",
          "name": "rewardToken",
          "type": "address"
        }
      ],
      "name": "poolLength",
      "outputs": [
        {
          "internalType": "uint256",
          "name": "",
          "type": "uint256"
        }
      ],
      "payable": false,
      "stateMutability": "view",
      "type": "function"
    },
    {
      "constant": true,
      "inputs": [],
      "name": "primePoolId",
      "outputs": [
        {
          "internalType": "uint256",
          "name": "",
          "type": "uint256"
        }
      ],
      "payable": false,
      "stateMutability": "view",
      "type": "function"
    },
    {
      "constant": true,
      "inputs": [],
      "name": "primeRewardToken",
      "outputs": [
        {
          "internalType": "address",
          "name": "",
          "type": "address"
        }
      ],
      "payable": false,
      "stateMutability": "view",
      "type": "function"
    },
    {
      "constant": true,
      "inputs": [],
      "name": "primeToken",
      "outputs": [
        {
          "internalType": "contract IPrime",
          "name": "",
          "type": "address"
        }
      ],
      "payable": false,
      "stateMutability": "view",
      "type": "function"
    },
    {
      "constant": false,
      "inputs": [
        {
          "internalType": "address",
          "name": "_rewardToken",
          "type": "address"
        },
        {
          "internalType": "uint256",
          "name": "_pid",
          "type": "uint256"
        },
        {
          "internalType": "uint256",
          "name": "_amount",
          "type": "uint256"
        }
      ],
      "name": "requestWithdrawal",
      "outputs": [],
      "payable": false,
      "stateMutability": "nonpayable",
      "type": "function"
    },
    {
      "constant": false,
      "inputs": [],
      "name": "resume",
      "outputs": [],
      "payable": false,
      "stateMutability": "nonpayable",
      "type": "function"
    },
    {
      "constant": true,
      "inputs": [
        {
          "internalType": "address",
          "name": "_rewardToken",
          "type": "address"
        }
      ],
      "name": "rewardTokenAmountsPerBlock",
      "outputs": [
        {
          "internalType": "uint256",
          "name": "",
          "type": "uint256"
        }
      ],
      "payable": false,
      "stateMutability": "view",
      "type": "function"
    },
    {
      "constant": true,
      "inputs": [
        {
          "internalType": "address",
          "name": "",
          "type": "address"
        }
      ],
      "name": "rewardTokenAmountsPerBlockOrSecond",
      "outputs": [
        {
          "internalType": "uint256",
          "name": "",
          "type": "uint256"
        }
      ],
      "payable": false,
      "stateMutability": "view",
      "type": "function"
    },
    {
      "constant": false,
      "inputs": [
        {
          "internalType": "address",
          "name": "_rewardToken",
          "type": "address"
        },
        {
          "internalType": "uint256",
          "name": "_pid",
          "type": "uint256"
        },
        {
          "internalType": "uint256",
          "name": "_allocPoint",
          "type": "uint256"
        }
      ],
      "name": "set",
      "outputs": [],
      "payable": false,
      "stateMutability": "nonpayable",
      "type": "function"
    },
    {
      "constant": false,
      "inputs": [
        {
          "internalType": "address",
          "name": "newAccessControlAddress",
          "type": "address"
        }
      ],
      "name": "setAccessControl",
      "outputs": [],
      "payable": false,
      "stateMutability": "nonpayable",
      "type": "function"
    },
    {
      "constant": false,
      "inputs": [
        {
          "internalType": "contract IPrime",
          "name": "_primeToken",
          "type": "address"
        },
        {
          "internalType": "address",
          "name": "_primeRewardToken",
          "type": "address"
        },
        {
          "internalType": "uint256",
          "name": "_primePoolId",
          "type": "uint256"
        }
      ],
      "name": "setPrimeToken",
      "outputs": [],
      "payable": false,
      "stateMutability": "nonpayable",
      "type": "function"
    },
    {
      "constant": false,
      "inputs": [
        {
          "internalType": "address",
          "name": "_rewardToken",
          "type": "address"
        },
        {
          "internalType": "uint256",
          "name": "_rewardAmount",
          "type": "uint256"
        }
      ],
      "name": "setRewardAmountPerBlockOrSecond",
      "outputs": [],
      "payable": false,
      "stateMutability": "nonpayable",
      "type": "function"
    },
    {
      "constant": false,
      "inputs": [
        {
          "internalType": "address",
          "name": "_rewardToken",
          "type": "address"
        },
        {
          "internalType": "uint256",
          "name": "_pid",
          "type": "uint256"
        },
        {
          "internalType": "uint256",
          "name": "_newPeriod",
          "type": "uint256"
        }
      ],
      "name": "setWithdrawalLockingPeriod",
      "outputs": [],
      "payable": false,
      "stateMutability": "nonpayable",
      "type": "function"
    },
    {
      "constant": false,
      "inputs": [
        {
          "internalType": "address",
          "name": "_xvs",
          "type": "address"
        }
      ],
      "name": "setXvsAddress",
      "outputs": [],
      "payable": false,
      "stateMutability": "nonpayable",
      "type": "function"
    },
    {
      "constant": false,
      "inputs": [
        {
          "internalType": "address",
          "name": "_xvs",
          "type": "address"
        },
        {
          "internalType": "address",
          "name": "_xvsStore",
          "type": "address"
        }
      ],
      "name": "setXvsStore",
      "outputs": [],
      "payable": false,
      "stateMutability": "nonpayable",
      "type": "function"
    },
    {
      "constant": true,
      "inputs": [
        {
          "internalType": "address",
          "name": "",
          "type": "address"
        }
      ],
      "name": "totalAllocPoints",
      "outputs": [
        {
          "internalType": "uint256",
          "name": "",
          "type": "uint256"
        }
      ],
      "payable": false,
      "stateMutability": "view",
      "type": "function"
    },
    {
      "constant": true,
      "inputs": [
        {
          "internalType": "address",
          "name": "",
          "type": "address"
        },
        {
          "internalType": "uint256",
          "name": "",
          "type": "uint256"
        }
      ],
      "name": "totalPendingWithdrawals",
      "outputs": [
        {
          "internalType": "uint256",
          "name": "",
          "type": "uint256"
        }
      ],
      "payable": false,
      "stateMutability": "view",
      "type": "function"
    },
    {
      "constant": false,
      "inputs": [
        {
          "internalType": "address",
          "name": "_rewardToken",
          "type": "address"
        },
        {
          "internalType": "uint256",
          "name": "_pid",
          "type": "uint256"
        }
      ],
      "name": "updatePool",
      "outputs": [],
      "payable": false,
      "stateMutability": "nonpayable",
      "type": "function"
    },
    {
      "constant": true,
      "inputs": [],
      "name": "vaultPaused",
      "outputs": [
        {
          "internalType": "bool",
          "name": "",
          "type": "bool"
        }
      ],
      "payable": false,
      "stateMutability": "view",
      "type": "function"
    },
    {
      "constant": true,
      "inputs": [],
      "name": "xvsAddress",
      "outputs": [
        {
          "internalType": "address",
          "name": "",
          "type": "address"
        }
      ],
      "payable": false,
      "stateMutability": "view",
      "type": "function"
    },
    {
      "constant": true,
      "inputs": [],
      "name": "xvsStore",
      "outputs": [
        {
          "internalType": "address",
          "name": "",
          "type": "address"
        }
      ],
      "payable": false,
      "stateMutability": "view",
      "type": "function"
    }
  ],
  "transactionHash": "0x5fc52f5099e0de3536222cdf40d6e402ff1119dee2a78aaa34e53ff6b1f7ed19",
  "args": [],
  "numDeployments": 5,
  "solcInputHash": "91375dab00f7a7224e3997dbbe268866",
  "bytecode": "0x608060405234801561001057600080fd5b50600080546001600160a01b031916331790556157f380620000336000396000f3fe608060405234801561001057600080fd5b50600436106103835760003560e01c806392e35000116101de578063c7ad08951161010f578063e6a69ab8116100ad578063f55401621161007c578063f554016214610750578063f851a44014610758578063fba1b1f914610760578063fe5a451a1461077357610383565b8063e6a69ab814610717578063e7a324dc1461071f578063e8f2be6f14610727578063f1127ed81461072f57610383565b8063dae66bbe116100e9578063dae66bbe146106e1578063de0368b2146106f4578063e1d146fb146106fc578063e232e4fa1461070457610383565b8063c7ad0895146106b3578063cd9b94e7146106bb578063d7ae45e2146106ce57610383565b8063add893371161017c578063b6a5fd2f11610156578063b6a5fd2f1461065a578063c21025961461066d578063c3c754a81461068d578063c3cda520146106a057610383565b8063add893371461062a578063b4a0bdf314610632578063b4b5ea571461064757610383565b80639e2b6c4d116101b85780639e2b6c4d146105de578063a09eab7a146105f1578063a699776214610604578063a9d69a691461061757610383565b806392e350001461058557806398e1b31b146105a9578063996cba68146105cb57610383565b80635c19a95c116102b857806373d025d6116102565780637ecebe00116102305780637ecebe00146105445780638308d7e9146105575780638456cb591461056a5780638ed7333d1461057257610383565b806373d025d6146104fc578063782d6fe1146105115780637ac924561461053157610383565b80635ff56315116102925780635ff56315146104ae5780636857249c146104c15780636dd77cbd146104c95780636fcfff45146104dc57610383565b80635c19a95c146104805780635c60da1b146104935780635f14e7001461049b57610383565b806324f52bbf11610325578063358ae036116102ff578063358ae0361461043f5780633d4180f9146104475780634298bdbd1461045a578063587cde1e1461046d57610383565b806324f52bbf1461040f57806326782247146104245780632eda5c6c1461042c57610383565b8063115b512f11610361578063115b512f146103ce57806319129e5a146103e15780631d504dc6146103f457806320606b701461040757610383565b8063046f7da2146103885780630af13728146103925780630efe6a8b146103bb575b600080fd5b61039061077b565b005b6103a56103a0366004614128565b610806565b6040516103b29190615118565b60405180910390f35b6103906103c93660046141e0565b61084c565b6103906103dc3660046141e0565b610b41565b6103906103ef366004614035565b610ef5565b610390610402366004614327565b610f2b565b6103a561105c565b610417611073565b6040516103b29190614fb6565b610417611082565b6103a561043a366004614035565b611091565b6104176110b0565b6103a5610455366004614071565b6110bf565b6103a5610468366004614035565b6110dc565b61041761047b366004614035565b6110ee565b61039061048e366004614035565b611109565b610417611136565b6103a56104a93660046140f8565b611145565b6103906104bc366004614071565b611162565b6103a5611256565b6103a56104d7366004614128565b61125c565b6104ef6104ea366004614035565b611311565b6040516103b291906154c6565b610504611329565b6040516103b2919061510a565b61052461051f3660046140f8565b611332565b6040516103b291906154ef565b61039061053f3660046140f8565b611548565b6103a5610552366004614035565b611891565b6103906105653660046141e0565b6118a3565b610390611a49565b6103906105803660046140f8565b611ace565b6105986105933660046140f8565b611b09565b6040516103b2959493929190615185565b6105bc6105b7366004614128565b611b5e565b6040516103b2939291906154ab565b6103906105d93660046140ab565b611bb0565b6103906105ec3660046141e0565b611d42565b6103a56105ff366004614128565b611e2d565b6103906106123660046142e7565b61207d565b6103a5610625366004614128565b6120b1565b6104176120f3565b61063a612102565b6040516103b29190615177565b610524610655366004614035565b612111565b6103906106683660046140f8565b612181565b61068061067b366004614128565b6122a7565b6040516103b291906150f9565b61050461069b366004614035565b612361565b6103906106ae366004614212565b612376565b61050461251a565b6103a56106c9366004614035565b612523565b6103a56106dc366004614035565b612535565b6103906106ef366004614306565b612550565b61041761265c565b6103a561266b565b610390610712366004614035565b612692565b6103a56126de565b6103a56126e6565b6103a56126f2565b61074261073d366004614299565b6126f8565b6040516103b29291906154d4565b6103a561272d565b610417612735565b61039061076e36600461416b565b612744565b61063a612a29565b6107a460405180604001604052806008815260200167726573756d65282960c01b815250612a38565b60135460ff166107cf5760405162461bcd60e51b81526004016107c690615242565b60405180910390fd5b6013805460ff1916905560405133907fd2619572a1464e0df0bb351d834fd47f3350984d7bfdb1ab69cfcb0b8e42141590600090a2565b60006108128484612ada565b506001600160a01b0380841660009081526007602090815260408083208684528252808320938516835292905220600201545b9392505050565b600354600160a01b900460ff166108755760405162461bcd60e51b81526004016107c6906153b2565b6003805460ff60a01b1916905560135460ff16156108a55760405162461bcd60e51b81526004016107c690615232565b6108af8383612ada565b6001600160a01b03831660009081526008602052604081208054849081106108d357fe5b600091825260208083206001600160a01b038816845260078252604080852088865283528085203386529092529220600590910290910191506109168585612b11565b6109218585336120b1565b1561093e5760405162461bcd60e51b81526004016107c690615352565b8054156109b35760006109518284612cee565b905080156109b157610964863383612d02565b84866001600160a01b0316336001600160a01b03167f865ca08d59f5cb456e85cd2f7ef63664ea4f73327414e9d8152c4158b0e94645846040516109a89190615118565b60405180910390a45b505b81546109d0906001600160a01b031633308663ffffffff612f7b16565b80546109e2908463ffffffff612fdc16565b81556109ee818361301e565b600182015560055482546001600160a01b0390811691161415610a5557336000908152600f60209081526040808320548151606081019092526021808352610a5594936001600160a01b0390921692610a50928992906156939083013961304c565b61307b565b6017546001600160a01b038681169116148015610a73575060185484145b15610adb576016546040516337f23cd360e01b81526001600160a01b03909116906337f23cd390610aa8903390600401614fc4565b600060405180830381600087803b158015610ac257600080fd5b505af1158015610ad6573d6000803e3d6000fd5b505050505b83856001600160a01b0316336001600160a01b03167fdcbc1c05240f31ff3ad067ef1ee35ce4997762752e3a095284754544f4c709d786604051610b1f9190615118565b60405180910390a450506003805460ff60a01b1916600160a01b179055505050565b600354600160a01b900460ff16610b6a5760405162461bcd60e51b81526004016107c6906153b2565b6003805460ff60a01b1916905560135460ff1615610b9a5760405162461bcd60e51b81526004016107c690615232565b610ba48383612ada565b60008111610bc45760405162461bcd60e51b81526004016107c690615372565b6001600160a01b0383166000908152600760209081526040808320858452825280832033845290915290206002810154610c04908363ffffffff612fdc16565b81541015610c245760405162461bcd60e51b81526004016107c690615452565b6001600160a01b0384166000908152600860205260408120805485908110610c4857fe5b600091825260208083206001600160a01b0389168452600a825260408085208986528352808520338652909252908320600590920201925090610c8a8261320d565b5090508015610cab5760405162461bcd60e51b81526004016107c690615352565b610cb58787612b11565b6000610cc18585612cee565b9050610cce883383612d02565b6004840154600090610ce6904263ffffffff612fdc16565b9050610cf4868589846132b1565b6001600160a01b03891660009081526012602090815260408083208b8452909152902054610d28908863ffffffff612fdc16565b6001600160a01b038a1660009081526012602090815260408083208c8452909152902055610d56868661301e565b600187015560055485546001600160a01b0390811691161415610db957336000908152600f6020908152604080832054815160608101909252602b808352610db9946001600160a01b03909216939192610a50928d92906156409083013961304c565b6017546001600160a01b038a81169116148015610dd7575060185488145b15610e3f576016546040516337f23cd360e01b81526001600160a01b03909116906337f23cd390610e0c903390600401614fc4565b600060405180830381600087803b158015610e2657600080fd5b505af1158015610e3a573d6000803e3d6000fd5b505050505b87896001600160a01b0316336001600160a01b03167f865ca08d59f5cb456e85cd2f7ef63664ea4f73327414e9d8152c4158b0e9464585604051610e839190615118565b60405180910390a487896001600160a01b0316336001600160a01b03167f88a254a0ef28a0b9e957ff600beae69870f6f924065147f3627c3f814e60ec118a604051610ecf9190615118565b60405180910390a450506003805460ff60a01b1916600160a01b17905550505050505050565b6000546001600160a01b03163314610f1f5760405162461bcd60e51b81526004016107c6906153d2565b610f2881613495565b50565b806001600160a01b031663f851a4406040518163ffffffff1660e01b815260040160206040518083038186803b158015610f6457600080fd5b505afa158015610f78573d6000803e3d6000fd5b505050506040513d601f19601f82011682018060405250610f9c9190810190614053565b6001600160a01b0316336001600160a01b031614610fcc5760405162461bcd60e51b81526004016107c690615462565b806001600160a01b031663c1e803346040518163ffffffff1660e01b8152600401602060405180830381600087803b15801561100757600080fd5b505af115801561101b573d6000803e3d6000fd5b505050506040513d601f19601f8201168201806040525061103f9190810190614345565b15610f285760405162461bcd60e51b81526004016107c6906153e2565b60405161106890614fa0565b604051809103902081565b6004546001600160a01b031681565b6001546001600160a01b031681565b6001600160a01b0381166000908152600660205260409020545b919050565b6005546001600160a01b031681565b601560209081526000928352604080842090915290825290205481565b60096020526000908152604090205481565b600f602052600090815260409020546001600160a01b031681565b60135460ff161561112c5760405162461bcd60e51b81526004016107c690615232565b610f28338261351a565b6002546001600160a01b031681565b601260209081526000928352604080842090915290825290205481565b6000546001600160a01b0316331461118c5760405162461bcd60e51b81526004016107c6906153d2565b611195826135a9565b61119e816135a9565b6005546004546001600160a01b03918216911681156111cf5760405162461bcd60e51b81526004016107c690615312565b600580546001600160a01b038087166001600160a01b03199283161790925560048054928616929091169190911790556003805460ff60a01b1916600160a01b1790556040517f559f314bb90394a4a9ceb724f365b36a53587d894352c43d12901fd68010145690611248908490849088908890615035565b60405180910390a150505050565b60795481565b60006112688484612ada565b6001600160a01b038085166000908152600a60209081526040808320878452825280832093861683529290522080545b6000811180156112c857506112c88260018303815481106112b557fe5b90600052602060002090600202016135cf565b15611308576112fd8260018303815481106112df57fe5b6000918252602090912060029091020154849063ffffffff612fdc16565b925060001901611298565b50509392505050565b60116020526000908152604090205463ffffffff1681565b60135460ff1681565b600061133c61266b565b821061135a5760405162461bcd60e51b81526004016107c690615322565b6001600160a01b03831660009081526011602052604090205463ffffffff1680611388576000915050611542565b6001600160a01b038416600090815260106020908152604080832063ffffffff600019860181168552925290912054168310611404576001600160a01b03841660009081526010602090815260408083206000199490940163ffffffff1683529290522054600160201b90046001600160601b03169050611542565b6001600160a01b038416600090815260106020908152604080832083805290915290205463ffffffff1683101561143f576000915050611542565b600060001982015b8163ffffffff168163ffffffff16111561150257600282820363ffffffff16048103611471613fbb565b506001600160a01b038716600090815260106020908152604080832063ffffffff858116855290835292819020815180830190925254928316808252600160201b9093046001600160601b031691810191909152908714156114dd576020015194506115429350505050565b805163ffffffff168711156114f4578193506114fb565b6001820392505b5050611447565b506001600160a01b038516600090815260106020908152604080832063ffffffff909416835292905220546001600160601b03600160201b909104169150505b92915050565b600354600160a01b900460ff166115715760405162461bcd60e51b81526004016107c6906153b2565b6003805460ff60a01b1916905560135460ff16156115a15760405162461bcd60e51b81526004016107c690615232565b6115ab8282612ada565b6001600160a01b03821660009081526008602052604081208054839081106115cf57fe5b600091825260208083206001600160a01b038716808552600783526040808620888752845280862033808852908552818720928752600a855281872089885285528187209087529093529184206005909302019350918061163084846135e4565b9092509050811515806116435750600081115b61165f5760405162461bcd60e51b81526004016107c6906153f2565b81158061166a575080155b6116865760405162461bcd60e51b81526004016107c6906151f2565b811561179f576116968787612b11565b60006116dc85600101546116d064e8d4a510006116c48a600301548a600001546136db90919063ffffffff16565b9063ffffffff61371516565b9063ffffffff61375716565b6004805460405163135b33cd60e31b81529293506001600160a01b031691639ad99e6891611710918c91339187910161500d565b600060405180830381600087803b15801561172a57600080fd5b505af115801561173e573d6000803e3d6000fd5b50508654611755925090508463ffffffff61375716565b80865560038701546117789164e8d4a51000916116c4919063ffffffff6136db16565b60018601558554611799906001600160a01b0316338563ffffffff61379916565b50611823565b83546117b1908263ffffffff61375716565b84556001600160a01b03871660009081526012602090815260408083208984529091529020546117e7908263ffffffff61375716565b6001600160a01b0380891660009081526012602090815260408083208b845290915290209190915585546118239116338363ffffffff61379916565b856001600160a01b038816337fe31da05fae6db869f5ea51f4b638aa6884070b6c87f18f63bd2291a12cb2f518611860868663ffffffff612fdc16565b60405161186d9190615118565b60405180910390a450506003805460ff60a01b1916600160a01b1790555050505050565b600e6020526000908152604090205481565b6118e16040518060400160405280601c81526020017f73657428616464726573732c75696e743235362c75696e743235362900000000815250612a38565b6118eb8383612ada565b6118f4836137bb565b6001600160a01b0383166000908152600860205260408120805490919061196d9084906119619085908890811061192757fe5b60009182526020808320600160059093020191909101546001600160a01b038b16835260099091526040909120549063ffffffff61375716565b9063ffffffff612fdc16565b90506000811161198f5760405162461bcd60e51b81526004016107c690615472565b600082858154811061199d57fe5b9060005260206000209060050201600101549050838386815481106119be57fe5b9060005260206000209060050201600101819055508160096000886001600160a01b03166001600160a01b031681526020019081526020016000208190555084866001600160a01b03167f6ee09c6cb801194690c195c69f465aaf7c80255cbeafaab9600f47ed79de2ca98387604051611a3992919061549d565b60405180910390a3505050505050565b611a71604051806040016040528060078152602001667061757365282960c81b815250612a38565b60135460ff1615611a945760405162461bcd60e51b81526004016107c6906152d2565b6013805460ff1916600117905560405133907fdffada2889ebfab9224c24069d833f3de835d8cf99872d49e7b7ba5fccb7a46f90600090a2565b60135460ff1615611af15760405162461bcd60e51b81526004016107c690615232565b611afb8282612ada565b611b058282612b11565b5050565b60086020528160005260406000208181548110611b2257fe5b6000918252602090912060059091020180546001820154600283015460038401546004909401546001600160a01b039093169550909350919085565b6000806000611b6d8686612ada565b5050506001600160a01b03928316600090815260076020908152604080832094835293815283822092909416815292529020805460018201546002909201549092565b600354600160a01b900460ff16611bd95760405162461bcd60e51b81526004016107c6906153b2565b6003805460ff60a01b1916905560135460ff1615611c095760405162461bcd60e51b81526004016107c690615232565b611c138282612ada565b6001600160a01b0382166000908152600860205260408120805483908110611c3757fe5b600091825260208083206001600160a01b0380881685526007835260408086208887528452808620918a1686529252922060059091029091019150611c7c8484612b11565b611c878484876120b1565b15611ca45760405162461bcd60e51b81526004016107c690615352565b805415611d28576000611cb78284612cee565b90508015611d2657611cc9828461301e565b6001830155611cd9858783612d02565b83856001600160a01b0316876001600160a01b03167f865ca08d59f5cb456e85cd2f7ef63664ea4f73327414e9d8152c4158b0e9464584604051611d1d9190615118565b60405180910390a45b505b50506003805460ff60a01b1916600160a01b179055505050565b611d636040518060600160405280603381526020016156f660339139612a38565b611d6d8383612ada565b600081118015611d8057506312cc030081105b611d9c5760405162461bcd60e51b81526004016107c690615402565b6001600160a01b0383166000908152600860205260408120805484908110611dc057fe5b9060005260206000209060050201905060008160040154905082826004018190555083856001600160a01b03167f0bcf80c5060ccf99b7a993c57a94b232fc2c5c04bd74c7c7d174595fee6bc31f8386604051611e1e92919061549d565b60405180910390a35050505050565b6000611e398484612ada565b6001600160a01b0384166000908152600860205260408120805485908110611e5d57fe5b600091825260208083206001600160a01b03808a168086526007845260408087208b885285528087208a8416885285528087206003600590970290940195860154918752601285528087208b885290945283862054855494516370a0823160e01b8152959750929590949093611f34939216906370a0823190611ee4903090600401614fb6565b60206040518083038186803b158015611efc57600080fd5b505afa158015611f10573d6000803e3d6000fd5b505050506040513d601f19601f820116820180604052506116d09190810190614345565b90506000611f4061266b565b6001600160a01b038a1660009081526006602052604090205460028701549192509082118015611f6f57508215155b15612005576000611f8d87600201548461375790919063ffffffff16565b6001600160a01b038c1660009081526009602052604081205460018a01549293509091611fd591906116c490611fc9868863ffffffff6136db16565b9063ffffffff6136db16565b9050612000611ff3866116c48464e8d4a5100063ffffffff6136db16565b879063ffffffff612fdc16565b955050505b6001600160a01b03808b166000908152600a602090815260408083208d84528252808320938c1683529290529081209061203e8261320d565b91505061206d87600101546116d064e8d4a510006116c48a611fc9878e6000015461375790919063ffffffff16565b9c9b505050505050505050505050565b6000546001600160a01b031633146120a75760405162461bcd60e51b81526004016107c6906153d2565b611b0582826137f0565b6001600160a01b038084166000908152600a60209081526040808320868452825280832093851683529290529081206120e98161320d565b5095945050505050565b6017546001600160a01b031681565b6047546001600160a01b031690565b6001600160a01b03811660009081526011602052604081205463ffffffff168061213c576000610845565b6001600160a01b0383166000908152601060209081526040808320600019850163ffffffff168452909152902054600160201b90046001600160601b03169392505050565b6121a260405180606001604052806030815260200161575560309139612a38565b60048054604051633d6ac5b360e21b81526001600160a01b039091169163f5ab16cc916121d191869101614fb6565b60206040518083038186803b1580156121e957600080fd5b505afa1580156121fd573d6000803e3d6000fd5b505050506040513d601f19601f8201168201806040525061222191908101906142c9565b61223d5760405162461bcd60e51b81526004016107c6906153c2565b612246826137bb565b6001600160a01b0382166000818152600660205260409081902080549084905590519091907fad96cee0d692f0250b98e085504f399da6733854908215f6203fe3c69366d9f59061229a908490869061549d565b60405180910390a2505050565b60606122b38484612ada565b6001600160a01b038085166000908152600a602090815260408083208784528252808320938616835292815282822080548451818402810184019095528085529092909184015b828210156123545760008481526020908190206040805160608101825260028602909201805483526001908101546001600160801b0380821685870152600160801b909104169183019190915290835290920191016122fa565b5050505090509392505050565b60146020526000908152604090205460ff1681565b60135460ff16156123995760405162461bcd60e51b81526004016107c690615232565b60006040516123a790614fa0565b604080519182900382208282019091526008825267161594d5985d5b1d60c21b6020909201919091527fddfcc46608a8bd52ebf900f03a24cc97b73a6046cec8c5d0f74a211e376e967a6123f961389f565b3060405160200161240d9493929190615134565b604051602081830303815290604052805190602001209050600060405161243390614fab565b60405190819003812061244e918a908a908a90602001615126565b6040516020818303038152906040528051906020012090506000828260405160200161247b929190614f6f565b60405160208183030381529060405280519060200120905060006124a1828888886138a3565b6001600160a01b0381166000908152600e6020526040902080546001810190915590915089146124e35760405162461bcd60e51b81526004016107c6906152a2565b874211156125035760405162461bcd60e51b81526004016107c690615282565b61250d818b61351a565b505050505b505050505050565b607a5460ff1681565b60066020526000908152604090205481565b6001600160a01b031660009081526008602052604090205490565b6000546001600160a01b0316331461257a5760405162461bcd60e51b81526004016107c6906153d2565b6001600160a01b0383166125a05760405162461bcd60e51b81526004016107c690615292565b6001600160a01b0382166125c65760405162461bcd60e51b81526004016107c690615332565b6125d08282612ada565b6016546017546018546040516001600160a01b03808816948116937f8def9436d6e31b89ed00948ba91d0cb6936eada5154cb1b45b55683fb9e492379361261f9391909216918891889061508e565b60405180910390a3601680546001600160a01b039485166001600160a01b0319918216179091556017805493909416921691909117909155601855565b6003546001600160a01b031681565b607a5460009060ff16612685576126806138cd565b61268d565b61268d6138d1565b905090565b6000546001600160a01b031633146126bc5760405162461bcd60e51b81526004016107c6906153d2565b600580546001600160a01b0319166001600160a01b0392909216919091179055565b6301e1338081565b60405161106890614fab565b60185481565b601060209081526000928352604080842090915290825290205463ffffffff811690600160201b90046001600160601b031682565b6312cc030081565b6000546001600160a01b031681565b6127656040518060600160405280602c8152602001615785602c9139612a38565b61276e856135a9565b612777836135a9565b6004546001600160a01b031661279f5760405162461bcd60e51b81526004016107c690615212565b600084116127bf5760405162461bcd60e51b81526004016107c690615412565b6127c8856137bb565b6001600160a01b0385166000908152600860205260408120805490915b8181101561284357856001600160a01b031683828154811061280357fe5b60009182526020909120600590910201546001600160a01b0316141561283b5760405162461bcd60e51b81526004016107c690615392565b6001016127e5565b506001600160a01b03851660009081526014602052604090205460ff161561287d5760405162461bcd60e51b81526004016107c690615302565b6001600160a01b0387166000908152600960205260409020546128a6908763ffffffff612fdc16565b6001600160a01b038089166000908152600960209081526040808320949094556006815290839020879055825160a08101845291881682528101889052839181016128ef61266b565b8152600060208083018290526040928301889052845460018082018755958352818320855160059092020180546001600160a01b0319166001600160a01b039283161781558583015181880155858501516002820155606086015160038201556080909501516004958601558a81168352601490915290829020805460ff1916851790558254915163fb66fb4d60e01b815291169263fb66fb4d92612997928c9291016150c3565b600060405180830381600087803b1580156129b157600080fd5b505af11580156129c5573d6000803e3d6000fd5b50505050846001600160a01b03166001838054905003886001600160a01b03167fd7fa4bff1cd2253c0789c3291a786a6f6b1a3b4569a75af683a15d52abb6a0bf898888604051612a18939291906154ab565b60405180910390a450505050505050565b6016546001600160a01b031681565b6047546040516318c5e8ab60e01b81526000916001600160a01b0316906318c5e8ab90612a6b9033908690600401614fd2565b60206040518083038186803b158015612a8357600080fd5b505afa158015612a97573d6000803e3d6000fd5b505050506040513d601f19601f82011682018060405250612abb91908101906142c9565b905080611b055760405162461bcd60e51b81526004016107c690615252565b6001600160a01b0382166000908152600860205260409020548110611b055760405162461bcd60e51b81526004016107c690615202565b6001600160a01b0382166000908152600860205260408120805483908110612b3557fe5b906000526020600020906005020190508060020154612b5261266b565b11612b5d5750611b05565b80546040516370a0823160e01b81526000916001600160a01b0316906370a0823190612b8d903090600401614fb6565b60206040518083038186803b158015612ba557600080fd5b505afa158015612bb9573d6000803e3d6000fd5b505050506040513d601f19601f82011682018060405250612bdd9190810190614345565b6001600160a01b0385166000908152601260209081526040808320878452909152902054909150612c1590829063ffffffff61375716565b905080612c3357612c2461266b565b82600201819055505050611b05565b6000612c3d61266b565b90506000612c5884600201548361375790919063ffffffff16565b6001600160a01b03871660009081526009602090815260408083205460018901546006909352908320549394509192612ca192916116c491611fc990879063ffffffff6136db16565b9050612cd0612cbf856116c48464e8d4a5100063ffffffff6136db16565b60038701549063ffffffff612fdc16565b6003860155612cdd61266b565b856002018190555050505050505050565b600061084583600101546116d0858561301e565b600480546040516370a0823160e01b81526001600160a01b03918216926000928716916370a0823191612d3791869101614fb6565b60206040518083038186803b158015612d4f57600080fd5b505afa158015612d63573d6000803e3d6000fd5b505050506040513d601f19601f82011682018060405250612d879190810190614345565b6001600160a01b038087166000908152601560209081526040808320938916835292905290812054919250612dc2858363ffffffff612fdc16565b9050828111612ea0578115612e35576001600160a01b038088166000818152601560209081526040808320948b1680845294909152808220829055517f6bdfd5e51d01475945224d3d37965916fd8df699ef9e8888af4359aa8622216091612e2c91879190615482565b60405180910390a35b60405163135b33cd60e31b81526001600160a01b03851690639ad99e6890612e65908a908a908690600401615073565b600060405180830381600087803b158015612e7f57600080fd5b505af1158015612e93573d6000803e3d6000fd5b5050505050505050612f76565b6001600160a01b038088166000818152601560209081526040808320948b168084529490915290819020868503908190559051909291907f6bdfd5e51d01475945224d3d37965916fd8df699ef9e8888af4359aa8622216090612f06908790869061549d565b60405180910390a360405163135b33cd60e31b81526001600160a01b03861690639ad99e6890612f3e908b908b908990600401615073565b600060405180830381600087803b158015612f5857600080fd5b505af1158015612f6c573d6000803e3d6000fd5b5050505050505050505b505050565b604051612fd69085906323b872dd60e01b90612f9f90879087908790602401615073565b60408051601f198184030181529190526020810180516001600160e01b03166001600160e01b0319909316929092179091526138d5565b50505050565b600061084583836040518060400160405280601b81526020017f536166654d6174683a206164646974696f6e206f766572666c6f7700000000008152506139ba565b600061084564e8d4a510006116c48460030154611fc98760020154886000015461375790919063ffffffff16565b600081600160601b84106130735760405162461bcd60e51b81526004016107c691906151d1565b509192915050565b816001600160a01b0316836001600160a01b0316141580156130a657506000816001600160601b0316115b15612f76576001600160a01b0383161561315e576001600160a01b03831660009081526011602052604081205463ffffffff1690816130e6576000613125565b6001600160a01b0385166000908152601060209081526040808320600019860163ffffffff168452909152902054600160201b90046001600160601b03165b9050600061314c82856040518060600160405280602c8152602001615729602c91396139ea565b905061315a86848484613a29565b5050505b6001600160a01b03821615612f76576001600160a01b03821660009081526011602052604081205463ffffffff1690816131995760006131d8565b6001600160a01b0384166000908152601060209081526040808320600019860163ffffffff168452909152902054600160201b90046001600160601b03165b905060006131ff82856040518060600160405280602b8152602001615615602b9139613be5565b905061251285848484613a29565b805460009081905b80156132ab5783600182038154811061322a57fe5b6000918252602090912060016002909202018101546001600160801b03600160801b90910416141561328d5761328684600183038154811061326857fe5b6000918252602090912060029091020154839063ffffffff612fdc16565b91506132a2565b61329f8460018303815481106112df57fe5b92505b60001901613215565b50915091565b8254604080516060810182526000808252602080830182815260019484018581528587018a5589845291909220925160028602909301928355905191909201805492516001600160801b03908116600160801b029281166001600160801b0319909416939093179092161790555b60008111801561335a57508184600183038154811061333a57fe5b60009182526020909120600160029092020101546001600160801b031611155b156133e15783600182038154811061336e57fe5b906000526020600020906002020184828154811061338857fe5b600091825260209091208254600290920201908155600191820180549290910180546001600160801b0319166001600160801b03938416178082559154600160801b90819004841602919092161790556000190161331f565b60405180606001604052808481526020016133fb84613c18565b6001600160801b0316815260200160016001600160801b031681525084828154811061342357fe5b60009182526020918290208351600292830290910190815591830151600190920180546040909401516001600160801b03199094166001600160801b03938416178316600160801b93909416929092029290921790558501546134869084612fdc565b85600201819055505050505050565b6001600160a01b0381166134bb5760405162461bcd60e51b81526004016107c6906152e2565b604780546001600160a01b038381166001600160a01b03198316179092556040519116907f66fd58e82f7b31a2a5c30e0888f3093efe4e111b00cd2b0c31fe014601293aa09061350e9083908590614ff2565b60405180910390a15050565b6001600160a01b038083166000908152600f60205260408120549091169061354184613c41565b6001600160a01b038581166000818152600f602052604080822080546001600160a01b031916898616908117909155905194955093928616927f0cc323ffec3ea49cbcddc0de1480978126d350c6a45dff33ad2f1cda6ae992619190a4612fd682848361307b565b6001600160a01b038116610f285760405162461bcd60e51b81526004016107c690615342565b60010154426001600160801b03909116111590565b805460009081905b60008111801561360957506136098460018303815481106112b557fe5b156136aa5783600182038154811061361d57fe5b6000918252602090912060016002909202018101546001600160801b03600160801b9091041614156136625761365b84600183038154811061326857fe5b9150613677565b6136748460018303815481106112df57fe5b92505b8380548061368157fe5b6000828152602081206000199283016002810290910182815560010191909155909155016135ec565b506136cf6136be828463ffffffff612fdc16565b60028601549063ffffffff61375716565b60028501559250929050565b6000826136ea57506000611542565b828202828482816136f757fe5b04146108455760405162461bcd60e51b81526004016107c690615382565b600061084583836040518060400160405280601a81526020017f536166654d6174683a206469766973696f6e206279207a65726f000000000000815250613d57565b600061084583836040518060400160405280601e81526020017f536166654d6174683a207375627472616374696f6e206f766572666c6f770000815250613d8e565b604051612f7690849063a9059cbb60e01b90612f9f90869086906024016150de565b6001600160a01b038116600090815260086020526040812054905b81811015612f76576137e88382612b11565b6001016137d6565b607a54610100900460ff16156138185760405162461bcd60e51b81526004016107c690615422565b81158015613824575080155b156138415760405162461bcd60e51b81526004016107c6906153a2565b81801561384d57508015155b1561386a5760405162461bcd60e51b81526004016107c6906152c2565b607a805460ff1916831515179055816138835780613889565b6301e133805b6079555050607a805461ff001916610100179055565b4690565b60008060006138b487878787613db2565b915091506138c181613e92565b5090505b949350505050565b4390565b4290565b6138e7826001600160a01b0316613f5b565b6139035760405162461bcd60e51b81526004016107c690615442565b60006060836001600160a01b03168360405161391f9190614f63565b6000604051808303816000865af19150503d806000811461395c576040519150601f19603f3d011682016040523d82523d6000602084013e613961565b606091505b5091509150816139835760405162461bcd60e51b81526004016107c690615432565b805115612fd6578080602001905161399e91908101906142c9565b612fd65760405162461bcd60e51b81526004016107c690615272565b600083830182858210156139e15760405162461bcd60e51b81526004016107c691906151d1565b50949350505050565b6000836001600160601b0316836001600160601b031611158290613a215760405162461bcd60e51b81526004016107c691906151d1565b505050900390565b6000613a54613a3661266b565b6040518060800160405280604281526020016156b460429139613f94565b905060008463ffffffff16118015613a9d57506001600160a01b038516600090815260106020908152604080832063ffffffff6000198901811685529252909120548282169116145b15613afc576001600160a01b0385166000908152601060209081526040808320600019880163ffffffff168452909152902080546fffffffffffffffffffffffff000000001916600160201b6001600160601b03851602179055613b9b565b60408051808201825263ffffffff80841682526001600160601b0380861660208085019182526001600160a01b038b166000818152601083528781208c871682528352878120965187549451909516600160201b026fffffffffffffffffffffffff000000001995871663ffffffff19958616179590951694909417909555938252601190935292909220805460018801909316929091169190911790555b846001600160a01b03167f6adb589fed1e8542fb7a6b10f00a85e02265e77f9ae3ca8ff93b22983e1af9a08484604051613bd69291906154fd565b60405180910390a25050505050565b6000838301826001600160601b0380871690831610156139e15760405162461bcd60e51b81526004016107c691906151d1565b6000600160801b8210613c3d5760405162461bcd60e51b81526004016107c6906152b2565b5090565b6005546000906001600160a01b0316613c6c5760405162461bcd60e51b81526004016107c690615262565b6005546001600160a01b03166000908152600860205260408120805490915b81811015613d4c5760055483546001600160a01b0390911690849083908110613cb057fe5b60009182526020909120600590910201546001600160a01b03161415613d44576005546001600160a01b039081166000908152600760209081526040808320858452825280832093891683529290522060028101548154613d3991613d1b919063ffffffff61375716565b60405180606001604052806028815260200161566b6028913961304c565b9450505050506110ab565b600101613c8b565b506000949350505050565b60008183613d785760405162461bcd60e51b81526004016107c691906151d1565b506000838581613d8457fe5b0495945050505050565b60008184841115613a215760405162461bcd60e51b81526004016107c691906151d1565b6000807f7fffffffffffffffffffffffffffffff5d576e7357a4501ddfe92f46681b20a0831115613de95750600090506003613e89565b8460ff16601b14158015613e0157508460ff16601c14155b15613e125750600090506004613e89565b600060018787878760405160008152602001604052604051613e37949392919061515c565b6020604051602081039080840390855afa158015613e59573d6000803e3d6000fd5b5050604051601f1901519150506001600160a01b038116613e8257506000915060019050613e89565b9150600090505b94509492505050565b6000816004811115613ea057fe5b1415613eab57610f28565b6001816004811115613eb957fe5b1415613ed75760405162461bcd60e51b81526004016107c6906151e2565b6002816004811115613ee557fe5b1415613f035760405162461bcd60e51b81526004016107c690615222565b6003816004811115613f1157fe5b1415613f2f5760405162461bcd60e51b81526004016107c6906152f2565b6004816004811115613f3d57fe5b1415610f285760405162461bcd60e51b81526004016107c690615362565b6000813f7fc5d2460186f7233c927e7db2dcc703c0e500b653ca82273b7bfad8045d85a4708181148015906138c5575050151592915050565b600081600160201b84106130735760405162461bcd60e51b81526004016107c691906151d1565b604080518082019091526000808252602082015290565b8035611542816155d3565b8051611542816155d3565b8035611542816155e7565b8051611542816155e7565b8035611542816155f0565b8035611542816155f9565b8051611542816155f0565b803561154281615602565b80356115428161560b565b60006020828403121561404757600080fd5b60006138c58484613fd2565b60006020828403121561406557600080fd5b60006138c58484613fdd565b6000806040838503121561408457600080fd5b60006140908585613fd2565b92505060206140a185828601613fd2565b9150509250929050565b6000806000606084860312156140c057600080fd5b60006140cc8686613fd2565b93505060206140dd86828701613fd2565b92505060406140ee86828701613ffe565b9150509250925092565b6000806040838503121561410b57600080fd5b60006141178585613fd2565b92505060206140a185828601613ffe565b60008060006060848603121561413d57600080fd5b60006141498686613fd2565b935050602061415a86828701613ffe565b92505060406140ee86828701613fd2565b600080600080600060a0868803121561418357600080fd5b600061418f8888613fd2565b95505060206141a088828901613ffe565b94505060406141b188828901614009565b93505060606141c288828901613ffe565b92505060806141d388828901613ffe565b9150509295509295909350565b6000806000606084860312156141f557600080fd5b60006142018686613fd2565b93505060206140dd86828701613ffe565b60008060008060008060c0878903121561422b57600080fd5b60006142378989613fd2565b965050602061424889828a01613ffe565b955050604061425989828a01613ffe565b945050606061426a89828a0161402a565b935050608061427b89828a01613ffe565b92505060a061428c89828a01613ffe565b9150509295509295509295565b600080604083850312156142ac57600080fd5b60006142b88585613fd2565b92505060206140a18582860161401f565b6000602082840312156142db57600080fd5b60006138c58484613ff3565b600080604083850312156142fa57600080fd5b60006141178585613fe8565b60008060006060848603121561431b57600080fd5b60006140cc8686614009565b60006020828403121561433957600080fd5b60006138c58484614009565b60006020828403121561435757600080fd5b60006138c58484614014565b600061436f8383614f03565b505060600190565b6143808161557c565b82525050565b6143808161552b565b600061439a8261551e565b6143a48185615522565b93506143af83615518565b8060005b838110156143dd5781516143c78882614363565b97506143d283615518565b9250506001016143b3565b509495945050505050565b61438081615536565b6143808161553b565b6143806144068261553b565b61553b565b60006144168261551e565b61442081856110ab565b935061443081856020860161559d565b9290920192915050565b6143808161553e565b61438081615587565b60006144578261551e565b6144618185615522565b935061447181856020860161559d565b61447a816155c9565b9093019392505050565b6000614491601883615522565b7f45434453413a20696e76616c6964207369676e61747572650000000000000000815260200192915050565b60006144ca601283615522565b71696e636f6e73697374656e7420737461746560701b815260200192915050565b60006144f8601383615522565b727661756c743a20706f6f6c206578697374733f60681b815260200192915050565b6000614527601f83615522565b7f53746f726520636f6e7472616374206164647265737320697320656d70747900815260200192915050565b6000614560601f83615522565b7f45434453413a20696e76616c6964207369676e6174757265206c656e67746800815260200192915050565b6000614599600f83615522565b6e15985d5b1d081a5cc81c185d5cd959608a1b815260200192915050565b60006145c4601383615522565b7215985d5b1d081a5cc81b9bdd081c185d5cd959606a1b815260200192915050565b60006145f3600c83615522565b6b155b985d5d1a1bdc9a5e995960a21b815260200192915050565b600061461b603083615522565b7f5856535661756c743a3a6765745374616b65416d6f756e743a2078767320616481526f191c995cdcc81a5cc81b9bdd081cd95d60821b602082015260400192915050565b600061466d602a83615522565b7f5361666542455032303a204245503230206f7065726174696f6e20646964206e8152691bdd081cdd58d8d9595960b21b602082015260400192915050565b60006146b9602a83615522565b7f5856535661756c743a3a64656c656761746542795369673a207369676e6174758152691c9948195e1c1a5c995960b21b602082015260400192915050565b6000614705602283615522565b7f7072696d6520746f6b656e2063616e6e6f74206265207a65726f206164647265815261737360f01b602082015260400192915050565b6000614749602683615522565b7f5856535661756c743a3a64656c656761746542795369673a20696e76616c6964815265206e6f6e636560d01b602082015260400192915050565b60006147916002836110ab565b61190160f01b815260020192915050565b60006147af602783615522565b7f53616665436173743a2076616c756520646f65736e27742066697420696e20318152663238206269747360c81b602082015260400192915050565b60006147f8602083615522565b7f496e76616c69642074696d6520626173656420636f6e66696775726174696f6e815260200192915050565b6000614831601783615522565b7f5661756c7420697320616c726561647920706175736564000000000000000000815260200192915050565b600061486a602583615522565b7f696e76616c696420616365737320636f6e74726f6c206d616e61676572206164815264647265737360d81b602082015260400192915050565b60006148b1602283615522565b7f45434453413a20696e76616c6964207369676e6174757265202773272076616c815261756560f01b602082015260400192915050565b60006148f5601a83615522565b7f546f6b656e2065786973747320696e206f7468657220706f6f6c000000000000815260200192915050565b600061492e601383615522565b72185b1c9958591e481a5b9a5d1a585b1a5e9959606a1b815260200192915050565b600061495d602b83615522565b7f5856535661756c743a3a6765745072696f72566f7465733a206e6f742079657481526a0819195d195c9b5a5b995960aa1b602082015260400192915050565b60006149aa601d83615522565b7f7265776172642063616e6e6f74206265207a65726f2061646472657373000000815260200192915050565b60006149e3601883615522565b7f7a65726f2061646472657373206e6f7420616c6c6f7765640000000000000000815260200192915050565b6000614a1c601a83615522565b7f657865637574652070656e64696e67207769746864726177616c000000000000815260200192915050565b6000614a55602283615522565b7f45434453413a20696e76616c6964207369676e6174757265202776272076616c815261756560f01b602082015260400192915050565b6000614a996043836110ab565b7f454950373132446f6d61696e28737472696e67206e616d652c75696e7432353681527f20636861696e49642c6164647265737320766572696679696e67436f6e74726160208201526263742960e81b604082015260430192915050565b6000614b04601f83615522565b7f72657175657374656420616d6f756e742063616e6e6f74206265207a65726f00815260200192915050565b6000614b3d602183615522565b7f536166654d6174683a206d756c7469706c69636174696f6e206f766572666c6f8152607760f81b602082015260400192915050565b6000614b80601283615522565b71141bdbdb08185b1c9958591e48185919195960721b815260200192915050565b6000614bae601783615522565b7f496e76616c696420626c6f636b73207065722079656172000000000000000000815260200192915050565b6000614be7600a83615522565b691c994b595b9d195c995960b21b815260200192915050565b6000614c0d601483615522565b7324b73b30b634b2103932bbb0b932103a37b5b2b760611b815260200192915050565b6000614c3d600e83615522565b6d37b7363c9030b236b4b71031b0b760911b815260200192915050565b6000614c67601583615522565b7418da185b99d9481b9bdd08185d5d1a1bdc9a5e9959605a1b815260200192915050565b6000614c98601383615522565b726e6f7468696e6720746f20776974686472617760681b815260200192915050565b6000614cc7601a83615522565b7f496e76616c6964206e6577206c6f636b696e6720706572696f64000000000000815260200192915050565b6000614d00601d83615522565b7f416c6c6f6320706f696e7473206d757374206e6f74206265207a65726f000000815260200192915050565b6000614d39601f83615522565b7f416c726561647920696e697469616c697a65642054696d654d616e6167657200815260200192915050565b6000614d72602083615522565b7f5361666542455032303a206c6f772d6c6576656c2063616c6c206661696c6564815260200192915050565b6000614dab603a836110ab565b7f44656c65676174696f6e28616464726573732064656c6567617465652c75696e81527f74323536206e6f6e63652c75696e7432353620657870697279290000000000006020820152603a0192915050565b6000614e0a601f83615522565b7f5361666542455032303a2063616c6c20746f206e6f6e2d636f6e747261637400815260200192915050565b6000614e43601b83615522565b7f72657175657374656420616d6f756e7420697320696e76616c69640000000000815260200192915050565b6000614e7c602283615522565b7f6f6e6c792070726f78792061646d696e2063616e206368616e676520627261698152616e7360f01b602082015260400192915050565b6000614ec0602e83615522565b7f416c6c6f6320706f696e7473207065722072657761726420746f6b656e206d7581526d7374206e6f74206265207a65726f60901b602082015260400192915050565b80516060830190614f1484826143f1565b506020820151614f276020850182614f36565b506040820151612fd660408501825b61438081615549565b61438081615561565b6143808161556a565b61438081615592565b61438081615570565b6000610845828461440b565b6000614f7a82614784565b9150614f8682856143fa565b602082019150614f9682846143fa565b5060200192915050565b600061154282614a8c565b600061154282614d9e565b602081016115428284614386565b602081016115428284614377565b60408101614fe08285614377565b81810360208301526138c5818461444c565b604081016150008285614386565b6108456020830184614386565b6060810161501b8286614386565b6150286020830185614377565b6138c560408301846143f1565b608081016150438287614386565b6150506020830186614386565b61505d6040830185614386565b61506a6060830184614386565b95945050505050565b606081016150818286614386565b6150286020830185614386565b6080810161509c8287614386565b6150a96020830186614386565b6150b660408301856143f1565b61506a60608301846143f1565b604081016150d18285614386565b61084560208301846143e8565b604081016150ec8285614386565b61084560208301846143f1565b60208082528101610845818461438f565b6020810161154282846143e8565b6020810161154282846143f1565b6080810161509c82876143f1565b6080810161514282876143f1565b61514f60208301866143f1565b61505d60408301856143f1565b6080810161516a82876143f1565b6150a96020830186614f48565b60208101611542828461443a565b60a08101615193828861443a565b6151a060208301876143f1565b6151ad60408301866143f1565b6151ba60608301856143f1565b6151c760808301846143f1565b9695505050505050565b60208082528101610845818461444c565b6020808252810161154281614484565b60208082528101611542816144bd565b60208082528101611542816144eb565b602080825281016115428161451a565b6020808252810161154281614553565b602080825281016115428161458c565b60208082528101611542816145b7565b60208082528101611542816145e6565b602080825281016115428161460e565b6020808252810161154281614660565b60208082528101611542816146ac565b60208082528101611542816146f8565b602080825281016115428161473c565b60208082528101611542816147a2565b60208082528101611542816147eb565b6020808252810161154281614824565b602080825281016115428161485d565b60208082528101611542816148a4565b60208082528101611542816148e8565b6020808252810161154281614921565b6020808252810161154281614950565b602080825281016115428161499d565b60208082528101611542816149d6565b6020808252810161154281614a0f565b6020808252810161154281614a48565b6020808252810161154281614af7565b6020808252810161154281614b30565b6020808252810161154281614b73565b6020808252810161154281614ba1565b6020808252810161154281614bda565b6020808252810161154281614c00565b6020808252810161154281614c30565b6020808252810161154281614c5a565b6020808252810161154281614c8b565b6020808252810161154281614cba565b6020808252810161154281614cf3565b6020808252810161154281614d2c565b6020808252810161154281614d65565b6020808252810161154281614dfd565b6020808252810161154281614e36565b6020808252810161154281614e6f565b6020808252810161154281614eb3565b6040810161549082856143f1565b6108456020830184614443565b604081016150ec82856143f1565b606081016154b982866143f1565b61502860208301856143f1565b602081016115428284614f3f565b604081016154e28285614f3f565b6108456020830184614f5a565b602081016115428284614f5a565b6040810161550b8285614f51565b6108456020830184614f51565b60200190565b5190565b90815260200190565b600061154282615555565b151590565b90565b60006115428261552b565b6001600160801b031690565b6001600160a01b031690565b63ffffffff1690565b60ff1690565b6001600160601b031690565b60006115428261553e565b60006115428261553b565b600061154282615570565b60005b838110156155b85781810151838201526020016155a0565b83811115612fd65750506000910152565b601f01601f191690565b6155dc8161552b565b8114610f2857600080fd5b6155dc81615536565b6155dc8161553b565b6155dc8161553e565b6155dc81615561565b6155dc8161556a56fe5856535661756c743a3a5f6d6f7665566f7465733a20766f746520616d6f756e74206f766572666c6f77735856535661756c743a3a726571756573745769746864726177616c3a20766f746573206f766572666c6f775856535661756c743a3a6765745374616b65416d6f756e743a20766f746573206f766572666c6f775856535661756c743a3a6465706f7369743a20766f746573206f766572666c6f775856535661756c743a3a5f7772697465436865636b706f696e743a20626c6f636b206e756d626572206f72207365636f6e64206578636565647320333220626974737365745769746864726177616c4c6f636b696e67506572696f6428616464726573732c75696e743235362c75696e74323536295856535661756c743a3a5f6d6f7665566f7465733a20766f746520616d6f756e7420756e646572666c6f7773736574526577617264416d6f756e74506572426c6f636b4f725365636f6e6428616464726573732c75696e743235362961646428616464726573732c75696e743235362c616464726573732c75696e743235362c75696e7432353629a365627a7a723158203eb717b73d783c1d2f57895520c1adf654df197c692b29deb8d6b0ff82aad2f06c6578706572696d656e74616cf564736f6c63430005100040",
  "devdoc": {
    "author": "Venus",
    "methods": {
      "add(address,uint256,address,uint256,uint256)": {
        "details": "This vault DOES NOT support deflationary tokens  it expects that  the amount of transferred tokens would equal the actually deposited  amount. In practice this means that this vault DOES NOT support USDT  and similar tokens (that do not provide these guarantees).",
        "params": {
          "_allocPoint": "Number of allocation points assigned to this pool",
          "_lockPeriod": "A period between withdrawal request and a moment when it's executable",
          "_rewardPerBlockOrSecond": "Initial reward per block or second, in terms of _rewardToken",
          "_rewardToken": "Reward token address",
          "_token": "Staked token"
        }
      },
      "claim(address,address,uint256)": {
        "params": {
          "_account": "The account for which to claim rewards",
          "_pid": "The Pool Index",
          "_rewardToken": "The Reward Token Address"
        }
      },
      "delegate(address)": {
        "params": {
          "delegatee": "The address to delegate votes to"
        }
      },
      "delegateBySig(address,uint256,uint256,uint8,bytes32,bytes32)": {
        "params": {
          "delegatee": "The address to delegate votes to",
          "expiry": "The time at which to expire the signature",
          "nonce": "The contract state required to match the signature",
          "r": "Half of the ECDSA signature pair",
          "s": "Half of the ECDSA signature pair",
          "v": "The recovery byte of the signature"
        }
      },
      "deposit(address,uint256,uint256)": {
        "params": {
          "_amount": "The amount to deposit to vault",
          "_pid": "The Pool Index",
          "_rewardToken": "The Reward Token Address"
        }
      },
      "executeWithdrawal(address,uint256)": {
        "params": {
          "_pid": "The Pool Index",
          "_rewardToken": "The Reward Token Address"
        }
      },
      "getBlockNumberOrTimestamp()": {
        "details": "Function to simply retrieve block number or block timestamp",
        "return": "Current block number or block timestamp"
      },
      "getCurrentVotes(address)": {
        "params": {
          "account": "The address to get votes balance"
        },
        "return": "The number of current votes for `account`"
      },
      "getEligibleWithdrawalAmount(address,uint256,address)": {
        "params": {
          "_pid": "The Pool Index",
          "_rewardToken": "The Reward Token Address",
          "_user": "The User Address"
        },
        "return": "withdrawalAmount Amount that the user can withdraw"
      },
      "getPriorVotes(address,uint256)": {
        "params": {
          "account": "The address of the account to check",
          "blockNumberOrSecond": "The block number or second to get the vote balance at"
        },
        "return": "The balance that user staked"
      },
      "getRequestedAmount(address,uint256,address)": {
        "params": {
          "_pid": "The Pool Index",
          "_rewardToken": "The Reward Token Address",
          "_user": "The User Address"
        },
        "return": "Total amount of requested but not yet executed withdrawals (including both executable and locked ones)"
      },
      "getUserInfo(address,uint256,address)": {
        "params": {
          "_pid": "Pool index",
          "_rewardToken": "Reward token address",
          "_user": "User address"
        },
        "return": "amount Deposited amountrewardDebt Reward debt (technical value used to track past payouts)pendingWithdrawals Requested but not yet executed withdrawals"
      },
      "getWithdrawalRequests(address,uint256,address)": {
        "params": {
          "_pid": "The Pool Index",
          "_rewardToken": "The Reward Token Address",
          "_user": "The User Address"
        },
        "return": "An array of withdrawal requests"
      },
      "initializeTimeManager(bool,uint256)": {
        "details": "Initializes the contract to use either blocks or seconds",
        "params": {
          "blocksPerYear_": "The number of blocks per year",
          "timeBased_": "A boolean indicating whether the contract is based on time or block If timeBased is true than blocksPerYear_ param is ignored as blocksOrSecondsPerYear is set to SECONDS_PER_YEAR"
        }
      },
      "pendingReward(address,uint256,address)": {
        "params": {
          "_pid": "Pool index",
          "_rewardToken": "Reward token address",
          "_user": "User address"
        },
        "return": "Reward the user is eligible for in this pool, in terms of _rewardToken"
      },
      "pendingWithdrawalsBeforeUpgrade(address,uint256,address)": {
        "params": {
          "_pid": "The Pool Index",
          "_rewardToken": "The Reward Token Address",
          "_user": "The address of the user"
        },
        "return": "beforeUpgradeWithdrawalAmount Total pending withdrawal amount in requests made before the vault upgrade"
      },
      "poolLength(address)": {
        "params": {
          "rewardToken": "Reward token address"
        },
        "return": "Number of pools that distribute the specified token as a reward"
      },
      "requestWithdrawal(address,uint256,uint256)": {
        "params": {
          "_amount": "The amount to withdraw from the vault",
          "_pid": "The Pool Index",
          "_rewardToken": "The Reward Token Address"
        }
      },
      "rewardTokenAmountsPerBlock(address)": {
        "params": {
          "_rewardToken": "Reward token address"
        },
        "return": "Number of reward tokens created per block or second"
      },
      "set(address,uint256,uint256)": {
        "params": {
          "_allocPoint": "Number of allocation points assigned to this pool",
          "_pid": "Pool index",
          "_rewardToken": "Reward token address"
        }
      },
      "setAccessControl(address)": {
        "details": "Admin function to set the access control address",
        "params": {
          "newAccessControlAddress": "New address for the access control"
        }
      },
      "setPrimeToken(address,address,uint256)": {
        "params": {
          "_primePoolId": "pool id for reward",
          "_primeRewardToken": "address of reward token",
          "_primeToken": "address of the prime token contract"
        }
      },
      "setRewardAmountPerBlockOrSecond(address,uint256)": {
        "params": {
          "_rewardAmount": "Number of allocation points assigned to this pool",
          "_rewardToken": "Reward token address"
        }
      },
      "setWithdrawalLockingPeriod(address,uint256,uint256)": {
        "params": {
          "_newPeriod": "New lock period",
          "_pid": "Pool index",
          "_rewardToken": "Reward token address"
        }
      },
      "updatePool(address,uint256)": {
        "params": {
          "_pid": "Pool index",
          "_rewardToken": "Reward token address"
        }
      }
    },
    "title": "XVS Vault"
  },
  "userdoc": {
    "methods": {
      "_become(address)": {
        "notice": "* Admin Functions **"
      },
      "accessControlManager()": {
        "notice": "Returns the address of the access control manager contract"
      },
      "add(address,uint256,address,uint256,uint256)": {
        "notice": "Add a new token pool"
      },
      "claim(address,address,uint256)": {
        "notice": "Claim rewards for pool"
      },
      "constructor": "XVSVault constructor",
      "delegate(address)": {
        "notice": "Delegate votes from `msg.sender` to `delegatee`"
      },
      "delegateBySig(address,uint256,uint256,uint8,bytes32,bytes32)": {
        "notice": "Delegates votes from signatory to `delegatee`"
      },
      "deposit(address,uint256,uint256)": {
        "notice": "Deposit XVSVault for XVS allocation"
      },
      "executeWithdrawal(address,uint256)": {
        "notice": "Execute withdrawal to XVSVault for XVS allocation"
      },
      "getCurrentVotes(address)": {
        "notice": "Gets the current votes balance for `account`"
      },
      "getEligibleWithdrawalAmount(address,uint256,address)": {
        "notice": "Get unlocked withdrawal amount"
      },
      "getPriorVotes(address,uint256)": {
        "notice": "Determine the xvs stake balance for an account"
      },
      "getRequestedAmount(address,uint256,address)": {
        "notice": "Get requested amount"
      },
      "getUserInfo(address,uint256,address)": {
        "notice": "Get user info with reward token address and pid"
      },
      "getWithdrawalRequests(address,uint256,address)": {
        "notice": "Returns the array of withdrawal requests that have not been executed yet"
      },
      "pause()": {
        "notice": "Pauses vault"
      },
      "pendingReward(address,uint256,address)": {
        "notice": "View function to see pending XVSs on frontend"
      },
      "pendingWithdrawalsBeforeUpgrade(address,uint256,address)": {
        "notice": "Gets the total pending withdrawal amount of a user before upgrade"
      },
      "poolLength(address)": {
        "notice": "Returns the number of pools with the specified reward token"
      },
      "requestWithdrawal(address,uint256,uint256)": {
        "notice": "Request withdrawal to XVSVault for XVS allocation"
      },
      "resume()": {
        "notice": "Resume vault"
      },
      "rewardTokenAmountsPerBlock(address)": {
        "notice": "Returns the number of reward tokens created per block or second"
      },
      "set(address,uint256,uint256)": {
        "notice": "Update the given pool's reward allocation point"
      },
      "setAccessControl(address)": {
        "notice": "Sets the address of the access control of this contract"
      },
      "setPrimeToken(address,address,uint256)": {
        "notice": "Sets the address of the prime token contract"
      },
      "setRewardAmountPerBlockOrSecond(address,uint256)": {
        "notice": "Update the given reward token's amount per block or second"
      },
      "setWithdrawalLockingPeriod(address,uint256,uint256)": {
        "notice": "Update the lock period after which a requested withdrawal can be executed"
      },
      "updatePool(address,uint256)": {
        "notice": "Update reward variables of the given pool to be up-to-date"
      }
    },
    "notice": "The XVS Vault allows XVS holders to lock their XVS to recieve voting rights in Venus governance and are rewarded with XVS."
  },
  "storageLayout": {
    "storage": [
      {
        "astId": 34496,
        "contract": "contracts/XVSVault/XVSVault.sol:XVSVault",
        "label": "admin",
        "offset": 0,
        "slot": "0",
        "type": "t_address"
      },
      {
        "astId": 34498,
        "contract": "contracts/XVSVault/XVSVault.sol:XVSVault",
        "label": "pendingAdmin",
        "offset": 0,
        "slot": "1",
        "type": "t_address"
      },
      {
        "astId": 34500,
        "contract": "contracts/XVSVault/XVSVault.sol:XVSVault",
        "label": "implementation",
        "offset": 0,
        "slot": "2",
        "type": "t_address"
      },
      {
        "astId": 34502,
        "contract": "contracts/XVSVault/XVSVault.sol:XVSVault",
        "label": "pendingXVSVaultImplementation",
        "offset": 0,
        "slot": "3",
        "type": "t_address"
      },
      {
        "astId": 34507,
        "contract": "contracts/XVSVault/XVSVault.sol:XVSVault",
        "label": "_notEntered",
        "offset": 20,
        "slot": "3",
        "type": "t_bool"
      },
      {
        "astId": 34509,
        "contract": "contracts/XVSVault/XVSVault.sol:XVSVault",
        "label": "xvsStore",
        "offset": 0,
        "slot": "4",
        "type": "t_address"
      },
      {
        "astId": 34511,
        "contract": "contracts/XVSVault/XVSVault.sol:XVSVault",
        "label": "xvsAddress",
        "offset": 0,
        "slot": "5",
        "type": "t_address"
      },
      {
        "astId": 34515,
        "contract": "contracts/XVSVault/XVSVault.sol:XVSVault",
        "label": "rewardTokenAmountsPerBlockOrSecond",
        "offset": 0,
        "slot": "6",
        "type": "t_mapping(t_address,t_uint256)"
      },
      {
        "astId": 34548,
        "contract": "contracts/XVSVault/XVSVault.sol:XVSVault",
        "label": "userInfos",
        "offset": 0,
        "slot": "7",
        "type": "t_mapping(t_address,t_mapping(t_uint256,t_mapping(t_address,t_struct(UserInfo)34522_storage)))"
      },
      {
        "astId": 34553,
        "contract": "contracts/XVSVault/XVSVault.sol:XVSVault",
        "label": "poolInfos",
        "offset": 0,
        "slot": "8",
        "type": "t_mapping(t_address,t_array(t_struct(PoolInfo)34533_storage)dyn_storage)"
      },
      {
        "astId": 34557,
        "contract": "contracts/XVSVault/XVSVault.sol:XVSVault",
        "label": "totalAllocPoints",
        "offset": 0,
        "slot": "9",
        "type": "t_mapping(t_address,t_uint256)"
      },
      {
        "astId": 34566,
        "contract": "contracts/XVSVault/XVSVault.sol:XVSVault",
        "label": "withdrawalRequests",
        "offset": 0,
        "slot": "10",
        "type": "t_mapping(t_address,t_mapping(t_uint256,t_mapping(t_address,t_array(t_struct(WithdrawalRequest)34540_storage)dyn_storage)))"
      },
      {
        "astId": 34570,
        "contract": "contracts/XVSVault/XVSVault.sol:XVSVault",
        "label": "__oldDelegatesSlot",
        "offset": 0,
        "slot": "11",
        "type": "t_mapping(t_address,t_address)"
      },
      {
        "astId": 34581,
        "contract": "contracts/XVSVault/XVSVault.sol:XVSVault",
        "label": "__oldCheckpointsSlot",
        "offset": 0,
        "slot": "12",
        "type": "t_mapping(t_address,t_mapping(t_uint32,t_struct(Checkpoint)34575_storage))"
      },
      {
        "astId": 34585,
        "contract": "contracts/XVSVault/XVSVault.sol:XVSVault",
        "label": "__oldNumCheckpointsSlot",
        "offset": 0,
        "slot": "13",
        "type": "t_mapping(t_address,t_uint32)"
      },
      {
        "astId": 34589,
        "contract": "contracts/XVSVault/XVSVault.sol:XVSVault",
        "label": "nonces",
        "offset": 0,
        "slot": "14",
        "type": "t_mapping(t_address,t_uint256)"
      },
      {
        "astId": 34606,
        "contract": "contracts/XVSVault/XVSVault.sol:XVSVault",
        "label": "delegates",
        "offset": 0,
        "slot": "15",
        "type": "t_mapping(t_address,t_address)"
      },
      {
        "astId": 34612,
        "contract": "contracts/XVSVault/XVSVault.sol:XVSVault",
        "label": "checkpoints",
        "offset": 0,
        "slot": "16",
        "type": "t_mapping(t_address,t_mapping(t_uint32,t_struct(Checkpoint)34575_storage))"
      },
      {
        "astId": 34616,
        "contract": "contracts/XVSVault/XVSVault.sol:XVSVault",
        "label": "numCheckpoints",
        "offset": 0,
        "slot": "17",
        "type": "t_mapping(t_address,t_uint32)"
      },
      {
        "astId": 34622,
        "contract": "contracts/XVSVault/XVSVault.sol:XVSVault",
        "label": "totalPendingWithdrawals",
        "offset": 0,
        "slot": "18",
        "type": "t_mapping(t_address,t_mapping(t_uint256,t_uint256))"
      },
      {
        "astId": 34624,
        "contract": "contracts/XVSVault/XVSVault.sol:XVSVault",
        "label": "vaultPaused",
        "offset": 0,
        "slot": "19",
        "type": "t_bool"
      },
      {
        "astId": 34628,
        "contract": "contracts/XVSVault/XVSVault.sol:XVSVault",
        "label": "isStakedToken",
        "offset": 0,
        "slot": "20",
        "type": "t_mapping(t_address,t_bool)"
      },
      {
        "astId": 34634,
        "contract": "contracts/XVSVault/XVSVault.sol:XVSVault",
        "label": "pendingRewardTransfers",
        "offset": 0,
        "slot": "21",
        "type": "t_mapping(t_address,t_mapping(t_address,t_uint256))"
      },
      {
        "astId": 34636,
        "contract": "contracts/XVSVault/XVSVault.sol:XVSVault",
        "label": "primeToken",
        "offset": 0,
        "slot": "22",
        "type": "t_contract(IPrime)12297"
      },
      {
        "astId": 34638,
        "contract": "contracts/XVSVault/XVSVault.sol:XVSVault",
        "label": "primeRewardToken",
        "offset": 0,
        "slot": "23",
        "type": "t_address"
      },
      {
        "astId": 34640,
        "contract": "contracts/XVSVault/XVSVault.sol:XVSVault",
        "label": "primePoolId",
        "offset": 0,
        "slot": "24",
        "type": "t_uint256"
      },
      {
        "astId": 34644,
        "contract": "contracts/XVSVault/XVSVault.sol:XVSVault",
        "label": "__gap",
        "offset": 0,
        "slot": "25",
        "type": "t_array(t_uint256)46_storage"
      },
      {
        "astId": 4,
        "contract": "contracts/XVSVault/XVSVault.sol:XVSVault",
        "label": "_accessControlManager",
        "offset": 0,
        "slot": "71",
        "type": "t_contract(IAccessControlManagerV5)1917"
      },
      {
        "astId": 8,
        "contract": "contracts/XVSVault/XVSVault.sol:XVSVault",
        "label": "__gap",
        "offset": 0,
        "slot": "72",
        "type": "t_array(t_uint256)49_storage"
      },
      {
        "astId": 1924,
        "contract": "contracts/XVSVault/XVSVault.sol:XVSVault",
        "label": "blocksOrSecondsPerYear",
        "offset": 0,
        "slot": "121",
        "type": "t_uint256"
      },
      {
        "astId": 1926,
        "contract": "contracts/XVSVault/XVSVault.sol:XVSVault",
        "label": "isTimeBased",
        "offset": 0,
        "slot": "122",
        "type": "t_bool"
      },
      {
        "astId": 1928,
        "contract": "contracts/XVSVault/XVSVault.sol:XVSVault",
        "label": "isInitialized",
        "offset": 1,
        "slot": "122",
        "type": "t_bool"
      },
      {
        "astId": 1930,
        "contract": "contracts/XVSVault/XVSVault.sol:XVSVault",
        "label": "__deprecatedSlot1",
        "offset": 2,
        "slot": "122",
        "type": "t_bytes8"
      },
      {
        "astId": 1934,
        "contract": "contracts/XVSVault/XVSVault.sol:XVSVault",
        "label": "__gap",
        "offset": 0,
        "slot": "123",
        "type": "t_array(t_uint256)48_storage"
      }
    ],
    "types": {
      "t_address": {
        "encoding": "inplace",
        "label": "address",
        "numberOfBytes": "20"
      },
      "t_array(t_struct(PoolInfo)34533_storage)dyn_storage": {
        "base": "t_struct(PoolInfo)34533_storage",
        "encoding": "dynamic_array",
        "label": "struct XVSVaultStorageV1.PoolInfo[]",
        "numberOfBytes": "32"
      },
      "t_array(t_struct(WithdrawalRequest)34540_storage)dyn_storage": {
        "base": "t_struct(WithdrawalRequest)34540_storage",
        "encoding": "dynamic_array",
        "label": "struct XVSVaultStorageV1.WithdrawalRequest[]",
        "numberOfBytes": "32"
      },
      "t_array(t_uint256)46_storage": {
        "base": "t_uint256",
        "encoding": "inplace",
        "label": "uint256[46]",
        "numberOfBytes": "1472"
      },
      "t_array(t_uint256)48_storage": {
        "base": "t_uint256",
        "encoding": "inplace",
        "label": "uint256[48]",
        "numberOfBytes": "1536"
      },
      "t_array(t_uint256)49_storage": {
        "base": "t_uint256",
        "encoding": "inplace",
        "label": "uint256[49]",
        "numberOfBytes": "1568"
      },
      "t_bool": {
        "encoding": "inplace",
        "label": "bool",
        "numberOfBytes": "1"
      },
      "t_bytes8": {
        "encoding": "inplace",
        "label": "bytes8",
        "numberOfBytes": "8"
      },
      "t_contract(IAccessControlManagerV5)1917": {
        "encoding": "inplace",
        "label": "contract IAccessControlManagerV5",
        "numberOfBytes": "20"
      },
      "t_contract(IBEP20)27777": {
        "encoding": "inplace",
        "label": "contract IBEP20",
        "numberOfBytes": "20"
      },
      "t_contract(IPrime)12297": {
        "encoding": "inplace",
        "label": "contract IPrime",
        "numberOfBytes": "20"
      },
      "t_mapping(t_address,t_address)": {
        "encoding": "mapping",
        "key": "t_address",
        "label": "mapping(address => address)",
        "numberOfBytes": "32",
        "value": "t_address"
      },
      "t_mapping(t_address,t_array(t_struct(PoolInfo)34533_storage)dyn_storage)": {
        "encoding": "mapping",
        "key": "t_address",
        "label": "mapping(address => struct XVSVaultStorageV1.PoolInfo[])",
        "numberOfBytes": "32",
        "value": "t_array(t_struct(PoolInfo)34533_storage)dyn_storage"
      },
      "t_mapping(t_address,t_array(t_struct(WithdrawalRequest)34540_storage)dyn_storage)": {
        "encoding": "mapping",
        "key": "t_address",
        "label": "mapping(address => struct XVSVaultStorageV1.WithdrawalRequest[])",
        "numberOfBytes": "32",
        "value": "t_array(t_struct(WithdrawalRequest)34540_storage)dyn_storage"
      },
      "t_mapping(t_address,t_bool)": {
        "encoding": "mapping",
        "key": "t_address",
        "label": "mapping(address => bool)",
        "numberOfBytes": "32",
        "value": "t_bool"
      },
      "t_mapping(t_address,t_mapping(t_address,t_uint256))": {
        "encoding": "mapping",
        "key": "t_address",
        "label": "mapping(address => mapping(address => uint256))",
        "numberOfBytes": "32",
        "value": "t_mapping(t_address,t_uint256)"
      },
      "t_mapping(t_address,t_mapping(t_uint256,t_mapping(t_address,t_array(t_struct(WithdrawalRequest)34540_storage)dyn_storage)))": {
        "encoding": "mapping",
        "key": "t_address",
        "label": "mapping(address => mapping(uint256 => mapping(address => struct XVSVaultStorageV1.WithdrawalRequest[])))",
        "numberOfBytes": "32",
        "value": "t_mapping(t_uint256,t_mapping(t_address,t_array(t_struct(WithdrawalRequest)34540_storage)dyn_storage))"
      },
      "t_mapping(t_address,t_mapping(t_uint256,t_mapping(t_address,t_struct(UserInfo)34522_storage)))": {
        "encoding": "mapping",
        "key": "t_address",
        "label": "mapping(address => mapping(uint256 => mapping(address => struct XVSVaultStorageV1.UserInfo)))",
        "numberOfBytes": "32",
        "value": "t_mapping(t_uint256,t_mapping(t_address,t_struct(UserInfo)34522_storage))"
      },
      "t_mapping(t_address,t_mapping(t_uint256,t_uint256))": {
        "encoding": "mapping",
        "key": "t_address",
        "label": "mapping(address => mapping(uint256 => uint256))",
        "numberOfBytes": "32",
        "value": "t_mapping(t_uint256,t_uint256)"
      },
      "t_mapping(t_address,t_mapping(t_uint32,t_struct(Checkpoint)34575_storage))": {
        "encoding": "mapping",
        "key": "t_address",
        "label": "mapping(address => mapping(uint32 => struct XVSVaultStorageV1.Checkpoint))",
        "numberOfBytes": "32",
        "value": "t_mapping(t_uint32,t_struct(Checkpoint)34575_storage)"
      },
      "t_mapping(t_address,t_struct(UserInfo)34522_storage)": {
        "encoding": "mapping",
        "key": "t_address",
        "label": "mapping(address => struct XVSVaultStorageV1.UserInfo)",
        "numberOfBytes": "32",
        "value": "t_struct(UserInfo)34522_storage"
      },
      "t_mapping(t_address,t_uint256)": {
        "encoding": "mapping",
        "key": "t_address",
        "label": "mapping(address => uint256)",
        "numberOfBytes": "32",
        "value": "t_uint256"
      },
      "t_mapping(t_address,t_uint32)": {
        "encoding": "mapping",
        "key": "t_address",
        "label": "mapping(address => uint32)",
        "numberOfBytes": "32",
        "value": "t_uint32"
      },
      "t_mapping(t_uint256,t_mapping(t_address,t_array(t_struct(WithdrawalRequest)34540_storage)dyn_storage))": {
        "encoding": "mapping",
        "key": "t_uint256",
        "label": "mapping(uint256 => mapping(address => struct XVSVaultStorageV1.WithdrawalRequest[]))",
        "numberOfBytes": "32",
        "value": "t_mapping(t_address,t_array(t_struct(WithdrawalRequest)34540_storage)dyn_storage)"
      },
      "t_mapping(t_uint256,t_mapping(t_address,t_struct(UserInfo)34522_storage))": {
        "encoding": "mapping",
        "key": "t_uint256",
        "label": "mapping(uint256 => mapping(address => struct XVSVaultStorageV1.UserInfo))",
        "numberOfBytes": "32",
        "value": "t_mapping(t_address,t_struct(UserInfo)34522_storage)"
      },
      "t_mapping(t_uint256,t_uint256)": {
        "encoding": "mapping",
        "key": "t_uint256",
        "label": "mapping(uint256 => uint256)",
        "numberOfBytes": "32",
        "value": "t_uint256"
      },
      "t_mapping(t_uint32,t_struct(Checkpoint)34575_storage)": {
        "encoding": "mapping",
        "key": "t_uint32",
        "label": "mapping(uint32 => struct XVSVaultStorageV1.Checkpoint)",
        "numberOfBytes": "32",
        "value": "t_struct(Checkpoint)34575_storage"
      },
      "t_struct(Checkpoint)34575_storage": {
        "encoding": "inplace",
        "label": "struct XVSVaultStorageV1.Checkpoint",
        "members": [
          {
            "astId": 34572,
            "contract": "contracts/XVSVault/XVSVault.sol:XVSVault",
            "label": "fromBlockOrSecond",
            "offset": 0,
            "slot": "0",
            "type": "t_uint32"
          },
          {
            "astId": 34574,
            "contract": "contracts/XVSVault/XVSVault.sol:XVSVault",
            "label": "votes",
            "offset": 4,
            "slot": "0",
            "type": "t_uint96"
          }
        ],
        "numberOfBytes": "32"
      },
      "t_struct(PoolInfo)34533_storage": {
        "encoding": "inplace",
        "label": "struct XVSVaultStorageV1.PoolInfo",
        "members": [
          {
            "astId": 34524,
            "contract": "contracts/XVSVault/XVSVault.sol:XVSVault",
            "label": "token",
            "offset": 0,
            "slot": "0",
            "type": "t_contract(IBEP20)27777"
          },
          {
            "astId": 34526,
            "contract": "contracts/XVSVault/XVSVault.sol:XVSVault",
            "label": "allocPoint",
            "offset": 0,
            "slot": "1",
            "type": "t_uint256"
          },
          {
            "astId": 34528,
            "contract": "contracts/XVSVault/XVSVault.sol:XVSVault",
            "label": "lastRewardBlockOrSecond",
            "offset": 0,
            "slot": "2",
            "type": "t_uint256"
          },
          {
            "astId": 34530,
            "contract": "contracts/XVSVault/XVSVault.sol:XVSVault",
            "label": "accRewardPerShare",
            "offset": 0,
            "slot": "3",
            "type": "t_uint256"
          },
          {
            "astId": 34532,
            "contract": "contracts/XVSVault/XVSVault.sol:XVSVault",
            "label": "lockPeriod",
            "offset": 0,
            "slot": "4",
            "type": "t_uint256"
          }
        ],
        "numberOfBytes": "160"
      },
      "t_struct(UserInfo)34522_storage": {
        "encoding": "inplace",
        "label": "struct XVSVaultStorageV1.UserInfo",
        "members": [
          {
            "astId": 34517,
            "contract": "contracts/XVSVault/XVSVault.sol:XVSVault",
            "label": "amount",
            "offset": 0,
            "slot": "0",
            "type": "t_uint256"
          },
          {
            "astId": 34519,
            "contract": "contracts/XVSVault/XVSVault.sol:XVSVault",
            "label": "rewardDebt",
            "offset": 0,
            "slot": "1",
            "type": "t_uint256"
          },
          {
            "astId": 34521,
            "contract": "contracts/XVSVault/XVSVault.sol:XVSVault",
            "label": "pendingWithdrawals",
            "offset": 0,
            "slot": "2",
            "type": "t_uint256"
          }
        ],
        "numberOfBytes": "96"
      },
      "t_struct(WithdrawalRequest)34540_storage": {
        "encoding": "inplace",
        "label": "struct XVSVaultStorageV1.WithdrawalRequest",
        "members": [
          {
            "astId": 34535,
            "contract": "contracts/XVSVault/XVSVault.sol:XVSVault",
            "label": "amount",
            "offset": 0,
            "slot": "0",
            "type": "t_uint256"
          },
          {
            "astId": 34537,
            "contract": "contracts/XVSVault/XVSVault.sol:XVSVault",
            "label": "lockedUntil",
            "offset": 0,
            "slot": "1",
            "type": "t_uint128"
          },
          {
            "astId": 34539,
            "contract": "contracts/XVSVault/XVSVault.sol:XVSVault",
            "label": "afterUpgrade",
            "offset": 16,
            "slot": "1",
            "type": "t_uint128"
          }
        ],
        "numberOfBytes": "64"
      },
      "t_uint128": {
        "encoding": "inplace",
        "label": "uint128",
        "numberOfBytes": "16"
      },
      "t_uint256": {
        "encoding": "inplace",
        "label": "uint256",
        "numberOfBytes": "32"
      },
      "t_uint32": {
        "encoding": "inplace",
        "label": "uint32",
        "numberOfBytes": "4"
      },
      "t_uint96": {
        "encoding": "inplace",
        "label": "uint96",
        "numberOfBytes": "12"
      }
    }
  }
}